{
  "_format": "hh-sol-artifact-1",
  "contractName": "StabilityPoolTester",
  "sourceName": "contracts/Liquity/TestContracts/StabilityPoolTester.sol",
  "abi": [
    {
      "anonymous": false,
      "inputs": [
        {
          "indexed": false,
          "internalType": "address",
          "name": "_newActivePoolAddress",
          "type": "address"
        }
      ],
      "name": "ActivePoolAddressChanged",
      "type": "event"
    },
    {
      "anonymous": false,
      "inputs": [
        {
          "indexed": false,
          "internalType": "address",
          "name": "_newBorrowerOperationsAddress",
          "type": "address"
        }
      ],
      "name": "BorrowerOperationsAddressChanged",
      "type": "event"
    },
    {
      "anonymous": false,
      "inputs": [
        {
          "indexed": false,
          "internalType": "address",
          "name": "_newCommunityIssuanceAddress",
          "type": "address"
        }
      ],
      "name": "CommunityIssuanceAddressChanged",
      "type": "event"
    },
    {
      "anonymous": false,
      "inputs": [
        {
          "indexed": false,
          "internalType": "address",
          "name": "_newDefaultPoolAddress",
          "type": "address"
        }
      ],
      "name": "DefaultPoolAddressChanged",
      "type": "event"
    },
    {
      "anonymous": false,
      "inputs": [
        {
          "indexed": true,
          "internalType": "address",
          "name": "_depositor",
          "type": "address"
        },
        {
          "indexed": false,
          "internalType": "uint256",
          "name": "_P",
          "type": "uint256"
        },
        {
          "indexed": false,
          "internalType": "uint256",
          "name": "_S",
          "type": "uint256"
        },
        {
          "indexed": false,
          "internalType": "uint256",
          "name": "_G",
          "type": "uint256"
        }
      ],
      "name": "DepositSnapshotUpdated",
      "type": "event"
    },
    {
      "anonymous": false,
      "inputs": [
        {
          "indexed": true,
          "internalType": "address",
          "name": "_depositor",
          "type": "address"
        },
        {
          "indexed": false,
          "internalType": "uint256",
          "name": "_ETH",
          "type": "uint256"
        },
        {
          "indexed": false,
          "internalType": "uint256",
          "name": "_LUSDLoss",
          "type": "uint256"
        }
      ],
      "name": "ETHGainWithdrawn",
      "type": "event"
    },
    {
      "anonymous": false,
      "inputs": [
        {
          "indexed": false,
          "internalType": "uint128",
          "name": "_currentEpoch",
          "type": "uint128"
        }
      ],
      "name": "EpochUpdated",
      "type": "event"
    },
    {
      "anonymous": false,
      "inputs": [
        {
          "indexed": false,
          "internalType": "address",
          "name": "_to",
          "type": "address"
        },
        {
          "indexed": false,
          "internalType": "uint256",
          "name": "_amount",
          "type": "uint256"
        }
      ],
      "name": "EtherSent",
      "type": "event"
    },
    {
      "anonymous": false,
      "inputs": [
        {
          "indexed": true,
          "internalType": "address",
          "name": "_frontEnd",
          "type": "address"
        },
        {
          "indexed": false,
          "internalType": "uint256",
          "name": "_kickbackRate",
          "type": "uint256"
        }
      ],
      "name": "FrontEndRegistered",
      "type": "event"
    },
    {
      "anonymous": false,
      "inputs": [
        {
          "indexed": true,
          "internalType": "address",
          "name": "_frontEnd",
          "type": "address"
        },
        {
          "indexed": false,
          "internalType": "uint256",
          "name": "_P",
          "type": "uint256"
        },
        {
          "indexed": false,
          "internalType": "uint256",
          "name": "_G",
          "type": "uint256"
        }
      ],
      "name": "FrontEndSnapshotUpdated",
      "type": "event"
    },
    {
      "anonymous": false,
      "inputs": [
        {
          "indexed": true,
          "internalType": "address",
          "name": "_frontEnd",
          "type": "address"
        },
        {
          "indexed": false,
          "internalType": "uint256",
          "name": "_newFrontEndStake",
          "type": "uint256"
        },
        {
          "indexed": false,
          "internalType": "address",
          "name": "_depositor",
          "type": "address"
        }
      ],
      "name": "FrontEndStakeChanged",
      "type": "event"
    },
    {
      "anonymous": false,
      "inputs": [
        {
          "indexed": true,
          "internalType": "address",
          "name": "_depositor",
          "type": "address"
        },
        {
          "indexed": true,
          "internalType": "address",
          "name": "_frontEnd",
          "type": "address"
        }
      ],
      "name": "FrontEndTagSet",
      "type": "event"
    },
    {
      "anonymous": false,
      "inputs": [
        {
          "indexed": false,
          "internalType": "uint256",
          "name": "_G",
          "type": "uint256"
        },
        {
          "indexed": false,
          "internalType": "uint128",
          "name": "_epoch",
          "type": "uint128"
        },
        {
          "indexed": false,
          "internalType": "uint128",
          "name": "_scale",
          "type": "uint128"
        }
      ],
      "name": "G_Updated",
      "type": "event"
    },
    {
      "anonymous": false,
      "inputs": [
        {
          "indexed": true,
          "internalType": "address",
          "name": "_depositor",
          "type": "address"
        },
        {
          "indexed": false,
          "internalType": "uint256",
          "name": "_LQTY",
          "type": "uint256"
        }
      ],
      "name": "LQTYPaidToDepositor",
      "type": "event"
    },
    {
      "anonymous": false,
      "inputs": [
        {
          "indexed": true,
          "internalType": "address",
          "name": "_frontEnd",
          "type": "address"
        },
        {
          "indexed": false,
          "internalType": "uint256",
          "name": "_LQTY",
          "type": "uint256"
        }
      ],
      "name": "LQTYPaidToFrontEnd",
      "type": "event"
    },
    {
      "anonymous": false,
      "inputs": [
        {
          "indexed": false,
          "internalType": "address",
          "name": "_newLUSDTokenAddress",
          "type": "address"
        }
      ],
      "name": "LUSDTokenAddressChanged",
      "type": "event"
    },
    {
      "anonymous": false,
      "inputs": [
        {
          "indexed": true,
          "internalType": "address",
          "name": "previousOwner",
          "type": "address"
        },
        {
          "indexed": true,
          "internalType": "address",
          "name": "newOwner",
          "type": "address"
        }
      ],
      "name": "OwnershipTransferred",
      "type": "event"
    },
    {
      "anonymous": false,
      "inputs": [
        {
          "indexed": false,
          "internalType": "uint256",
          "name": "_P",
          "type": "uint256"
        }
      ],
      "name": "P_Updated",
      "type": "event"
    },
    {
      "anonymous": false,
      "inputs": [
        {
          "indexed": false,
          "internalType": "address",
          "name": "_newPriceFeedAddress",
          "type": "address"
        }
      ],
      "name": "PriceFeedAddressChanged",
      "type": "event"
    },
    {
      "anonymous": false,
      "inputs": [
        {
          "indexed": false,
          "internalType": "uint256",
          "name": "_S",
          "type": "uint256"
        },
        {
          "indexed": false,
          "internalType": "uint128",
          "name": "_epoch",
          "type": "uint128"
        },
        {
          "indexed": false,
          "internalType": "uint128",
          "name": "_scale",
          "type": "uint128"
        }
      ],
      "name": "S_Updated",
      "type": "event"
    },
    {
      "anonymous": false,
      "inputs": [
        {
          "indexed": false,
          "internalType": "uint128",
          "name": "_currentScale",
          "type": "uint128"
        }
      ],
      "name": "ScaleUpdated",
      "type": "event"
    },
    {
      "anonymous": false,
      "inputs": [
        {
          "indexed": false,
          "internalType": "address",
          "name": "_newSortedTrovesAddress",
          "type": "address"
        }
      ],
      "name": "SortedTrovesAddressChanged",
      "type": "event"
    },
    {
      "anonymous": false,
      "inputs": [
        {
          "indexed": false,
          "internalType": "uint256",
          "name": "_newBalance",
          "type": "uint256"
        }
      ],
      "name": "StabilityPoolETHBalanceUpdated",
      "type": "event"
    },
    {
      "anonymous": false,
      "inputs": [
        {
          "indexed": false,
          "internalType": "uint256",
          "name": "_newBalance",
          "type": "uint256"
        }
      ],
      "name": "StabilityPoolLUSDBalanceUpdated",
      "type": "event"
    },
    {
      "anonymous": false,
      "inputs": [
        {
          "indexed": false,
          "internalType": "address",
          "name": "_newTroveManagerAddress",
          "type": "address"
        }
      ],
      "name": "TroveManagerAddressChanged",
      "type": "event"
    },
    {
      "anonymous": false,
      "inputs": [
        {
          "indexed": true,
          "internalType": "address",
          "name": "_depositor",
          "type": "address"
        },
        {
          "indexed": false,
          "internalType": "uint256",
          "name": "_newDeposit",
          "type": "uint256"
        }
      ],
      "name": "UserDepositChanged",
      "type": "event"
    },
    {
      "inputs": [],
      "name": "BORROWING_FEE_FLOOR",
      "outputs": [
        {
          "internalType": "uint256",
          "name": "",
          "type": "uint256"
        }
      ],
      "stateMutability": "view",
      "type": "function"
    },
    {
      "inputs": [],
      "name": "CCR",
      "outputs": [
        {
          "internalType": "uint256",
          "name": "",
          "type": "uint256"
        }
      ],
      "stateMutability": "view",
      "type": "function"
    },
    {
      "inputs": [],
      "name": "DECIMAL_PRECISION",
      "outputs": [
        {
          "internalType": "uint256",
          "name": "",
          "type": "uint256"
        }
      ],
      "stateMutability": "view",
      "type": "function"
    },
    {
      "inputs": [],
      "name": "LUSD_GAS_COMPENSATION",
      "outputs": [
        {
          "internalType": "uint256",
          "name": "",
          "type": "uint256"
        }
      ],
      "stateMutability": "view",
      "type": "function"
    },
    {
      "inputs": [],
      "name": "MCR",
      "outputs": [
        {
          "internalType": "uint256",
          "name": "",
          "type": "uint256"
        }
      ],
      "stateMutability": "view",
      "type": "function"
    },
    {
      "inputs": [],
      "name": "MIN_NET_DEBT",
      "outputs": [
        {
          "internalType": "uint256",
          "name": "",
          "type": "uint256"
        }
      ],
      "stateMutability": "view",
      "type": "function"
    },
    {
      "inputs": [],
      "name": "NAME",
      "outputs": [
        {
          "internalType": "string",
          "name": "",
          "type": "string"
        }
      ],
      "stateMutability": "view",
      "type": "function"
    },
    {
      "inputs": [],
      "name": "P",
      "outputs": [
        {
          "internalType": "uint256",
          "name": "",
          "type": "uint256"
        }
      ],
      "stateMutability": "view",
      "type": "function"
    },
    {
      "inputs": [],
      "name": "PERCENT_DIVISOR",
      "outputs": [
        {
          "internalType": "uint256",
          "name": "",
          "type": "uint256"
        }
      ],
      "stateMutability": "view",
      "type": "function"
    },
    {
      "inputs": [],
      "name": "SCALE_FACTOR",
      "outputs": [
        {
          "internalType": "uint256",
          "name": "",
          "type": "uint256"
        }
      ],
      "stateMutability": "view",
      "type": "function"
    },
    {
      "inputs": [],
      "name": "_100pct",
      "outputs": [
        {
          "internalType": "uint256",
          "name": "",
          "type": "uint256"
        }
      ],
      "stateMutability": "view",
      "type": "function"
    },
    {
      "inputs": [],
      "name": "activePool",
      "outputs": [
        {
          "internalType": "contract IActivePool",
          "name": "",
          "type": "address"
        }
      ],
      "stateMutability": "view",
      "type": "function"
    },
    {
      "inputs": [],
      "name": "borrowerOperations",
      "outputs": [
        {
          "internalType": "contract IBorrowerOperations",
          "name": "",
          "type": "address"
        }
      ],
      "stateMutability": "view",
      "type": "function"
    },
    {
      "inputs": [],
      "name": "communityIssuance",
      "outputs": [
        {
          "internalType": "contract ICommunityIssuance",
          "name": "",
          "type": "address"
        }
      ],
      "stateMutability": "view",
      "type": "function"
    },
    {
      "inputs": [],
      "name": "currentEpoch",
      "outputs": [
        {
          "internalType": "uint128",
          "name": "",
          "type": "uint128"
        }
      ],
      "stateMutability": "view",
      "type": "function"
    },
    {
      "inputs": [],
      "name": "currentScale",
      "outputs": [
        {
          "internalType": "uint128",
          "name": "",
          "type": "uint128"
        }
      ],
      "stateMutability": "view",
      "type": "function"
    },
    {
      "inputs": [],
      "name": "defaultPool",
      "outputs": [
        {
          "internalType": "contract IDefaultPool",
          "name": "",
          "type": "address"
        }
      ],
      "stateMutability": "view",
      "type": "function"
    },
    {
      "inputs": [
        {
          "internalType": "address",
          "name": "",
          "type": "address"
        }
      ],
      "name": "depositSnapshots",
      "outputs": [
        {
          "internalType": "uint256",
          "name": "S",
          "type": "uint256"
        },
        {
          "internalType": "uint256",
          "name": "P",
          "type": "uint256"
        },
        {
          "internalType": "uint256",
          "name": "G",
          "type": "uint256"
        },
        {
          "internalType": "uint128",
          "name": "scale",
          "type": "uint128"
        },
        {
          "internalType": "uint128",
          "name": "epoch",
          "type": "uint128"
        }
      ],
      "stateMutability": "view",
      "type": "function"
    },
    {
      "inputs": [
        {
          "internalType": "address",
          "name": "",
          "type": "address"
        }
      ],
      "name": "deposits",
      "outputs": [
        {
          "internalType": "uint256",
          "name": "initialValue",
          "type": "uint256"
        },
        {
          "internalType": "address",
          "name": "frontEndTag",
          "type": "address"
        }
      ],
      "stateMutability": "view",
      "type": "function"
    },
    {
      "inputs": [
        {
          "internalType": "uint128",
          "name": "",
          "type": "uint128"
        },
        {
          "internalType": "uint128",
          "name": "",
          "type": "uint128"
        }
      ],
      "name": "epochToScaleToG",
      "outputs": [
        {
          "internalType": "uint256",
          "name": "",
          "type": "uint256"
        }
      ],
      "stateMutability": "view",
      "type": "function"
    },
    {
      "inputs": [
        {
          "internalType": "uint128",
          "name": "",
          "type": "uint128"
        },
        {
          "internalType": "uint128",
          "name": "",
          "type": "uint128"
        }
      ],
      "name": "epochToScaleToSum",
      "outputs": [
        {
          "internalType": "uint256",
          "name": "",
          "type": "uint256"
        }
      ],
      "stateMutability": "view",
      "type": "function"
    },
    {
      "inputs": [
        {
          "internalType": "address",
          "name": "",
          "type": "address"
        }
      ],
      "name": "frontEndSnapshots",
      "outputs": [
        {
          "internalType": "uint256",
          "name": "S",
          "type": "uint256"
        },
        {
          "internalType": "uint256",
          "name": "P",
          "type": "uint256"
        },
        {
          "internalType": "uint256",
          "name": "G",
          "type": "uint256"
        },
        {
          "internalType": "uint128",
          "name": "scale",
          "type": "uint128"
        },
        {
          "internalType": "uint128",
          "name": "epoch",
          "type": "uint128"
        }
      ],
      "stateMutability": "view",
      "type": "function"
    },
    {
      "inputs": [
        {
          "internalType": "address",
          "name": "",
          "type": "address"
        }
      ],
      "name": "frontEndStakes",
      "outputs": [
        {
          "internalType": "uint256",
          "name": "",
          "type": "uint256"
        }
      ],
      "stateMutability": "view",
      "type": "function"
    },
    {
      "inputs": [
        {
          "internalType": "address",
          "name": "",
          "type": "address"
        }
      ],
      "name": "frontEnds",
      "outputs": [
        {
          "internalType": "uint256",
          "name": "kickbackRate",
          "type": "uint256"
        },
        {
          "internalType": "bool",
          "name": "registered",
          "type": "bool"
        }
      ],
      "stateMutability": "view",
      "type": "function"
    },
    {
      "inputs": [
        {
          "internalType": "address",
          "name": "_frontEnd",
          "type": "address"
        }
      ],
      "name": "getCompoundedFrontEndStake",
      "outputs": [
        {
          "internalType": "uint256",
          "name": "",
          "type": "uint256"
        }
      ],
      "stateMutability": "view",
      "type": "function"
    },
    {
      "inputs": [
        {
          "internalType": "address",
          "name": "_depositor",
          "type": "address"
        },
        {
          "internalType": "bool",
          "name": "_TESTadjust",
          "type": "bool"
        }
      ],
      "name": "getCompoundedLUSDDeposit",
      "outputs": [
        {
          "internalType": "uint256",
          "name": "",
          "type": "uint256"
        }
      ],
      "stateMutability": "view",
      "type": "function"
    },
    {
      "inputs": [
        {
          "internalType": "address",
          "name": "_depositor",
          "type": "address"
        }
      ],
      "name": "getDepositorETHGain",
      "outputs": [
        {
          "internalType": "uint256",
          "name": "",
          "type": "uint256"
        }
      ],
      "stateMutability": "view",
      "type": "function"
    },
    {
      "inputs": [
        {
          "internalType": "address",
          "name": "_depositor",
          "type": "address"
        }
      ],
      "name": "getDepositorLQTYGain",
      "outputs": [
        {
          "internalType": "uint256",
          "name": "",
          "type": "uint256"
        }
      ],
      "stateMutability": "view",
      "type": "function"
    },
    {
      "inputs": [],
      "name": "getETH",
      "outputs": [
        {
          "internalType": "uint256",
          "name": "",
          "type": "uint256"
        }
      ],
      "stateMutability": "view",
      "type": "function"
    },
    {
      "inputs": [],
      "name": "getEntireSystemColl",
      "outputs": [
        {
          "internalType": "uint256",
          "name": "entireSystemColl",
          "type": "uint256"
        }
      ],
      "stateMutability": "view",
      "type": "function"
    },
    {
      "inputs": [],
      "name": "getEntireSystemDebt",
      "outputs": [
        {
          "internalType": "uint256",
          "name": "entireSystemDebt",
          "type": "uint256"
        }
      ],
      "stateMutability": "view",
      "type": "function"
    },
    {
      "inputs": [
        {
          "internalType": "address",
          "name": "_frontEnd",
          "type": "address"
        }
      ],
      "name": "getFrontEndLQTYGain",
      "outputs": [
        {
          "internalType": "uint256",
          "name": "",
          "type": "uint256"
        }
      ],
      "stateMutability": "view",
      "type": "function"
    },
    {
      "inputs": [],
      "name": "getTotalLUSDDeposits",
      "outputs": [
        {
          "internalType": "uint256",
          "name": "",
          "type": "uint256"
        }
      ],
      "stateMutability": "view",
      "type": "function"
    },
    {
      "inputs": [],
      "name": "isOwner",
      "outputs": [
        {
          "internalType": "bool",
          "name": "",
          "type": "bool"
        }
      ],
      "stateMutability": "view",
      "type": "function"
    },
    {
      "inputs": [],
      "name": "lastETHError_Offset",
      "outputs": [
        {
          "internalType": "uint256",
          "name": "",
          "type": "uint256"
        }
      ],
      "stateMutability": "view",
      "type": "function"
    },
    {
      "inputs": [],
      "name": "lastLQTYError",
      "outputs": [
        {
          "internalType": "uint256",
          "name": "",
          "type": "uint256"
        }
      ],
      "stateMutability": "view",
      "type": "function"
    },
    {
      "inputs": [],
      "name": "lastLUSDLossError_Offset",
      "outputs": [
        {
          "internalType": "uint256",
          "name": "",
          "type": "uint256"
        }
      ],
      "stateMutability": "view",
      "type": "function"
    },
    {
      "inputs": [],
      "name": "lusdToken",
      "outputs": [
        {
          "internalType": "contract ILUSDToken",
          "name": "",
          "type": "address"
        }
      ],
      "stateMutability": "view",
      "type": "function"
    },
    {
      "inputs": [
        {
          "internalType": "uint256",
          "name": "_debtToOffset",
          "type": "uint256"
        },
        {
          "internalType": "uint256",
          "name": "_collToAdd",
          "type": "uint256"
        }
      ],
      "name": "offset",
      "outputs": [],
      "stateMutability": "nonpayable",
      "type": "function"
    },
    {
      "inputs": [],
      "name": "owner",
      "outputs": [
        {
          "internalType": "address",
          "name": "",
          "type": "address"
        }
      ],
      "stateMutability": "view",
      "type": "function"
    },
    {
      "inputs": [],
      "name": "priceFeed",
      "outputs": [
        {
          "internalType": "contract IPriceFeed",
          "name": "",
          "type": "address"
        }
      ],
      "stateMutability": "view",
      "type": "function"
    },
    {
      "inputs": [
        {
          "internalType": "uint256",
          "name": "_amount",
          "type": "uint256"
        },
        {
          "internalType": "address",
          "name": "_frontEndTag",
          "type": "address"
        }
      ],
      "name": "provideToSP",
      "outputs": [],
      "stateMutability": "nonpayable",
      "type": "function"
    },
    {
      "inputs": [
        {
          "internalType": "uint256",
          "name": "_kickbackRate",
          "type": "uint256"
        }
      ],
      "name": "registerFrontEnd",
      "outputs": [],
      "stateMutability": "nonpayable",
      "type": "function"
    },
    {
      "inputs": [
        {
          "internalType": "address",
          "name": "_borrowerOperationsAddress",
          "type": "address"
        },
        {
          "internalType": "address",
          "name": "_troveManagerAddress",
          "type": "address"
        },
        {
          "internalType": "address",
          "name": "_activePoolAddress",
          "type": "address"
        },
        {
          "internalType": "address",
          "name": "_lusdTokenAddress",
          "type": "address"
        },
        {
          "internalType": "address",
          "name": "_sortedTrovesAddress",
          "type": "address"
        },
        {
          "internalType": "address",
          "name": "_priceFeedAddress",
          "type": "address"
        },
        {
          "internalType": "address",
          "name": "_communityIssuanceAddress",
          "type": "address"
        }
      ],
      "name": "setAddresses",
      "outputs": [],
      "stateMutability": "nonpayable",
      "type": "function"
    },
    {
      "inputs": [],
      "name": "sortedTroves",
      "outputs": [
        {
          "internalType": "contract ISortedTroves",
          "name": "",
          "type": "address"
        }
      ],
      "stateMutability": "view",
      "type": "function"
    },
    {
      "inputs": [],
      "name": "troveManager",
      "outputs": [
        {
          "internalType": "contract ITroveManager",
          "name": "",
          "type": "address"
        }
      ],
      "stateMutability": "view",
      "type": "function"
    },
    {
      "inputs": [],
      "name": "unprotectedPayable",
      "outputs": [],
      "stateMutability": "payable",
      "type": "function"
    },
    {
      "inputs": [
        {
          "internalType": "address",
          "name": "_upperHint",
          "type": "address"
        },
        {
          "internalType": "address",
          "name": "_lowerHint",
          "type": "address"
        }
      ],
      "name": "withdrawETHGainToTrove",
      "outputs": [],
      "stateMutability": "nonpayable",
      "type": "function"
    },
    {
      "inputs": [
        {
          "internalType": "uint256",
          "name": "_amount",
          "type": "uint256"
        }
      ],
      "name": "withdrawFromSP",
      "outputs": [],
      "stateMutability": "nonpayable",
      "type": "function"
    },
    {
      "stateMutability": "payable",
      "type": "receive"
    }
  ],
  "bytecode": "0x6080604052670de0b6b3a764000060105534801561001c57600080fd5b50600380546001600160a01b031916339081179091556040516000907f8be0079c531659141344cd1fd0a4f28419497f9722a3daafe3b4186f6b6457e0908290a36139898061006c6000396000f3fe6080604052600436106102a25760003560e01c806386da082411610165578063ae918754116100cc578063df9cd84f11610085578063df9cd84f146108ff578063eaa8ba7f14610932578063f3af7c3b14610997578063f5f1595d1461099f578063f92d3433146109d2578063fc7e286d146109e7578063fda0101a14610a3b576102e9565b8063ae91875414610863578063b83f91a214610878578063ce4b5bbe1461088d578063cef941e8146108a2578063d4ca0575146108b7578063d7fb0443146108ea576102e9565b80639bf2f1ac1161011e5780639bf2f1ac14610728578063a20baee61461058e578063a3f4df7e1461073d578063a4e59ac8146107c7578063a78e883d146107dc578063a7bfff9714610817576102e9565b806386da082414610678578063887105d3146106ab5780638b8fbd92146106c05780638da5cb5b146106d55780638f32d59b146106ea57806395fb16bb14610713576102e9565b8063556be1011161020957806376671808116101c257806376671808146105b857806377553ad4146105e9578063794e5724146105fe578063795d26c3146106135780637f7dde4a1461062857806382e0a5741461063d576102e9565b8063556be101146104e35780635733d58f1461050d5780635d2de642146105225780635f788d651461055557806372fe25aa1461058e578063741bef1a146105a3576102e9565b8063335525ad1161025b578063335525ad14610410578063389e92a5146104405780633cc74225146104735780633d83908a146104a45780634870dd9a146104b9578063538153ca146104ce576102e9565b806314f6c3be146102ee57806316b9d3c5146103155780631bf435551461037f57806328a0a04d146103945780632e54bf95146103cf5780632e86bbd8146103fb576102e9565b366102e9576102af610a76565b6009546102c2903463ffffffff610ac116565b600981905560408051918252516000805160206136bd8339815191529181900360200190a1005b600080fd5b3480156102fa57600080fd5b50610303610b24565b60408051918252519081900360200190f35b34801561032157600080fd5b506103486004803603602081101561033857600080fd5b50356001600160a01b0316610b2a565b604080519586526020860194909452848401929092526001600160801b039081166060850152166080830152519081900360a00190f35b34801561038b57600080fd5b50610303610b65565b3480156103a057600080fd5b50610303600480360360408110156103b757600080fd5b506001600160801b0381358116916020013516610b72565b3480156103db57600080fd5b506103f9600480360360208110156103f257600080fd5b5035610b8f565b005b34801561040757600080fd5b50610303610d1a565b34801561041c57600080fd5b506103f96004803603604081101561043357600080fd5b5080359060200135610d27565b34801561044c57600080fd5b506103036004803603602081101561046357600080fd5b50356001600160a01b0316610d8b565b34801561047f57600080fd5b50610488610e33565b604080516001600160a01b039092168252519081900360200190f35b3480156104b057600080fd5b50610488610e42565b3480156104c557600080fd5b50610303610e51565b3480156104da57600080fd5b50610303610e56565b3480156104ef57600080fd5b506103f96004803603602081101561050657600080fd5b5035610e5c565b34801561051957600080fd5b50610303610ed1565b34801561052e57600080fd5b506103036004803603602081101561054557600080fd5b50356001600160a01b0316610edd565b34801561056157600080fd5b506103f96004803603604081101561057857600080fd5b50803590602001356001600160a01b0316610eef565b34801561059a57600080fd5b50610303611072565b3480156105af57600080fd5b5061048861107e565b3480156105c457600080fd5b506105cd61108d565b604080516001600160801b039092168252519081900360200190f35b3480156105f557600080fd5b506104886110a3565b34801561060a57600080fd5b506103036110b2565b34801561061f57600080fd5b506103036110be565b34801561063457600080fd5b506104886111bf565b34801561064957600080fd5b506103036004803603604081101561066057600080fd5b506001600160801b03813581169160200135166111ce565b34801561068457600080fd5b506103486004803603602081101561069b57600080fd5b50356001600160a01b03166111eb565b3480156106b757600080fd5b50610303611226565b3480156106cc57600080fd5b506103036112e2565b3480156106e157600080fd5b506104886112e8565b3480156106f657600080fd5b506106ff6112f7565b604080519115158252519081900360200190f35b34801561071f57600080fd5b50610488611308565b34801561073457600080fd5b50610303611317565b34801561074957600080fd5b5061075261131d565b6040805160208082528351818301528351919283929083019185019080838360005b8381101561078c578181015183820152602001610774565b50505050905090810190601f1680156107b95780820380516001836020036101000a031916815260200191505b509250505060405180910390f35b3480156107d357600080fd5b506105cd611346565b3480156107e857600080fd5b50610303600480360360408110156107ff57600080fd5b506001600160a01b0381351690602001351515611355565b34801561082357600080fd5b5061084a6004803603602081101561083a57600080fd5b50356001600160a01b031661141e565b6040805192835290151560208301528051918290030190f35b34801561086f57600080fd5b5061048861143a565b34801561088457600080fd5b50610488611449565b34801561089957600080fd5b50610303611458565b3480156108ae57600080fd5b50610303611460565b3480156108c357600080fd5b50610303600480360360208110156108da57600080fd5b50356001600160a01b0316611466565b3480156108f657600080fd5b5061030361156a565b34801561090b57600080fd5b506103036004803603602081101561092257600080fd5b50356001600160a01b0316611570565b34801561093e57600080fd5b506103f9600480360360e081101561095557600080fd5b506001600160a01b038135811691602081013582169160408201358116916060810135821691608082013581169160a081013582169160c0909101351661160d565b6103f96118be565b3480156109ab57600080fd5b50610303600480360360208110156109c257600080fd5b50356001600160a01b03166118d6565b3480156109de57600080fd5b506103036119d3565b3480156109f357600080fd5b50610a1a60048036036020811015610a0a57600080fd5b50356001600160a01b03166119de565b604080519283526001600160a01b0390911660208301528051918290030190f35b348015610a4757600080fd5b506103f960048036036040811015610a5e57600080fd5b506001600160a01b0381358116916020013516611a00565b6000546001600160a01b03163314610abf5760405162461bcd60e51b81526004018080602001828103825260278152602001806136966027913960400191505060405180910390fd5b565b600082820183811015610b1b576040805162461bcd60e51b815260206004820152601b60248201527f536166654d6174683a206164646974696f6e206f766572666c6f770000000000604482015290519081900360640190fd5b90505b92915050565b60095490565b600f602052600090815260409020805460018201546002830154600390930154919290916001600160801b0380821691600160801b90041685565b686194049f30f720000081565b601260209081526000928352604080842090915290825290205481565b8015610b9d57610b9d611c32565b336000908152600b6020526040902054610bb681611def565b6008546001600160a01b0316610bcb81611e31565b6000610bd633610d8b565b90506000610be5336000611355565b90506000610bf38683611ea5565b90506000610c07868463ffffffff611ebb16565b336000818152600b60205260409020600101549192506001600160a01b0390911690610c3590879083611efd565b6000610c4082611570565b90506000610c54828663ffffffff611ebb16565b9050610c60838261209c565b6040805182815233602082015281516001600160a01b038616926000805160206138a3833981519152928290030190a2610c9a33866121e8565b6000610cac878763ffffffff611ebb16565b9050610cb8338261226e565b604080518281529051339160008051602061370e833981519152919081900360200190a26040805189815260208101879052815133926000805160206137f2833981519152928290030190a2610d0d886123f4565b5050505050505050505050565b680ad78ebc5ac620000081565b610d2f612500565b600a54801580610d3d575082155b15610d485750610d87565b600854610d5d906001600160a01b0316611e31565b600080610d6b848685612549565b91509150610d798282612642565b610d83848661293c565b5050505b5050565b6001600160a01b0381166000908152600b602052604081205480610db3576000915050610e2e565b610dbb6135c8565b506001600160a01b0383166000908152600c60209081526040808320815160a08101835281548152600182015493810193909352600281015491830191909152600301546001600160801b038082166060840152600160801b90910416608082015290610e288383612a76565b93505050505b919050565b6001546001600160a01b031681565b6005546001600160a01b031681565b60c881565b60165481565b610e6533612b67565b610e6e33612bc2565b610e7781612c18565b336000818152600d60209081526040918290208481556001908101805460ff19169091179055815184815291517f19bc932fb9e16a8b5a1e41be9f4c2de59d5ddd7567b8b81405f532ca00a9880e9281900390910190a250565b6714d1120d7b16000081565b600e6020526000908152604090205481565b610ef881612c5f565b610f0133612b67565b610f0a82612ccb565b336000908152600b60205260409020546008546001600160a01b0316610f2f81611e31565b81610f3e57610f3e3384612d0a565b6000610f4933610d8b565b90506000610f58336000611355565b90506000610f6c858363ffffffff611ebb16565b336000818152600b60205260409020600101549192506001600160a01b0390911690610f9a90869083611efd565b6000610fa582611570565b90506000610fb9828b63ffffffff610ac116565b9050610fc5838261209c565b6040805182815233602082015281516001600160a01b038616926000805160206138a3833981519152928290030190a2610fff338b612d64565b6000611011868c63ffffffff610ac116565b905061101d338261226e565b604080518281529051339160008051602061370e833981519152919081900360200190a26040805188815260208101879052815133926000805160206137f2833981519152928290030190a2610d0d876123f4565b670de0b6b3a764000081565b6002546001600160a01b031681565b601154600160801b90046001600160801b031681565b6004546001600160a01b031681565b670f43fc2c04ee000081565b6000805460408051632f5a97e560e11b8152905183926001600160a01b031691635eb52fca916004808301926020929190829003018186803b15801561110357600080fd5b505afa158015611117573d6000803e3d6000fd5b505050506040513d602081101561112d57600080fd5b505160015460408051632f5a97e560e11b815290519293506000926001600160a01b0390921691635eb52fca91600480820192602092909190829003018186803b15801561117a57600080fd5b505afa15801561118e573d6000803e3d6000fd5b505050506040513d60208110156111a457600080fd5b505190506111b8828263ffffffff610ac116565b9250505090565b6000546001600160a01b031681565b601360209081526000928352604080842090915290825290205481565b600c602052600090815260409020805460018201546002830154600390930154919290916001600160801b0380821691600160801b90041685565b6000805460408051630a7b61df60e11b8152905183926001600160a01b0316916314f6c3be916004808301926020929190829003018186803b15801561126b57600080fd5b505afa15801561127f573d6000803e3d6000fd5b505050506040513d602081101561129557600080fd5b505160015460408051630a7b61df60e11b815290519293506000926001600160a01b03909216916314f6c3be91600480820192602092909190829003018186803b15801561117a57600080fd5b60105481565b6003546001600160a01b031690565b6003546001600160a01b0316331490565b6008546001600160a01b031681565b600a5490565b6040518060400160405280600d81526020016c14dd18589a5b1a5d1e541bdbdb609a1b81525081565b6011546001600160801b031681565b6001600160a01b0382166000908152600b60205260408120548061137d576000915050610b1e565b6113856135c8565b506001600160a01b0384166000908152600c60209081526040808320815160a08101835281548152600182015493810193909352600281015491830191909152600301546001600160801b038082166060840152600160801b909104166080820152906113f28383612e2e565b905084156114155761140b81600263ffffffff612f2a16565b9350505050610b1e565b95945050505050565b600d602052600090815260409020805460019091015460ff1682565b6007546001600160a01b031681565b6006546001600160a01b031681565b633b9aca0081565b60145481565b6001600160a01b0381166000908152600e60205260408120548061148e576000915050610e2e565b6001600160a01b0383166000908152600d6020526040812054906114c0670de0b6b3a76400008363ffffffff611ebb16565b90506114ca6135c8565b506001600160a01b0385166000908152600f60209081526040808320815160a08101835281548152600182015493810193909352600281015491830191909152600301546001600160801b038082166060840152600160801b9091041660808201529061155f670de0b6b3a76400006115536115468886612f6c565b869063ffffffff612ff816565b9063ffffffff612f2a16565b979650505050505050565b60155481565b6001600160a01b0381166000908152600e602052604081205480611598576000915050610e2e565b6115a06135c8565b506001600160a01b0383166000908152600f60209081526040808320815160a08101835281548152600182015493810193909352600281015491830191909152600301546001600160801b038082166060840152600160801b90910416608082015290610e288383612e2e565b6116156112f7565b611666576040805162461bcd60e51b815260206004820181905260248201527f4f776e61626c653a2063616c6c6572206973206e6f7420746865206f776e6572604482015290519081900360640190fd5b61166f87613051565b61167886613051565b61168185613051565b61168a84613051565b61169383613051565b61169c82613051565b6116a581613051565b600480546001600160a01b03199081166001600160a01b038a81169182179093556005805483168a85161790556000805483168985161790556006805483168885161790556007805483168785161790556002805483168685161790556008805490921692841692909217905560408051918252517f3ca631ffcd2a9b5d9ae18543fc82f58eb4ca33af9e6ab01b7a8e95331e6ed985916020908290030190a1604080516001600160a01b038816815290517f143219c9e69b09e07e095fcc889b43d8f46ca892bba65f08dc3a0050869a56789181900360200190a1604080516001600160a01b038716815290517f78f058b189175430c48dc02699e3a0031ea4ff781536dc2fab847de4babdd8829181900360200190a1604080516001600160a01b038616815290517f227eec0ec317af6ab1a9587ffa1c84332522eb4c583a908f89babc05f8f339bd9181900360200190a1604080516001600160a01b038516815290517f65f4cf077bc01e4742eb5ad98326f6e95b63548ea24b17f8d5e823111fe788009181900360200190a1604080516001600160a01b038416815290517f8c537274438aa850a330284665d81a85dd38267d09e4050d416bfc94142db2649181900360200190a1604080516001600160a01b038316815290517f3055265812fb8447b9ada4a5d804ec43bd528ec40e89c952bbc7b85dc5ac68119181900360200190a16118b5613100565b50505050505050565b6009546118d1903463ffffffff610ac116565b600955565b6001600160a01b0381166000908152600b6020526040812054806118fe576000915050610e2e565b6001600160a01b038084166000908152600b6020526040812060010154909116908115611943576001600160a01b0382166000908152600d602052604090205461194d565b670de0b6b3a76400005b90506119576135c8565b506001600160a01b0385166000908152600c60209081526040808320815160a08101835281548152600182015493810193909352600281015491830191909152600301546001600160801b038082166060840152600160801b9091041660808201529061155f670de0b6b3a76400006115536115468886612f6c565b6611c37937e0800081565b600b60205260009081526040902080546001909101546001600160a01b031682565b336000908152600b6020526040902054611a1981611def565b611a223361314a565b611a2b33613201565b6008546001600160a01b0316611a4081611e31565b6000611a4b33610d8b565b90506000611a5a336000611355565b90506000611a6e858363ffffffff611ebb16565b336000818152600b60205260409020600101549192506001600160a01b0390911690611a9c90869083611efd565b6000611aa782611570565b905080611ab4838261209c565b6040805182815233602082015281516001600160a01b038616926000805160206138a3833981519152928290030190a2611aee338661226e565b6040805187815260208101869052815133926000805160206137f2833981519152928290030190a2604080518681529051339160008051602061370e833981519152919081900360200190a2600954611b4d908763ffffffff611ebb16565b600981905560408051918252516000805160206136bd8339815191529181900360200190a1604080513381526020810188905281517f6109e2559dfa766aaec7118351d48a523f0a4157f49c8d68749c8ac41318ad12929181900390910190a1600480546040805163ea9638bf60e01b815233938101939093526001600160a01b038d811660248501528c81166044850152905191169163ea9638bf91899160648082019260009290919082900301818588803b158015611c0d57600080fd5b505af1158015611c21573d6000803e3d6000fd5b505050505050505050505050505050565b60025460408051630fdb11cf60e01b815290516000926001600160a01b031691630fdb11cf91600480830192602092919082900301818787803b158015611c7857600080fd5b505af1158015611c8c573d6000803e3d6000fd5b505050506040513d6020811015611ca257600080fd5b505160075460408051634d62283160e01b815290519293506000926001600160a01b0390921691634d62283191600480820192602092909190829003018186803b158015611cef57600080fd5b505afa158015611d03573d6000803e3d6000fd5b505050506040513d6020811015611d1957600080fd5b505160055460408051630d293c7160e41b81526001600160a01b038085166004830152602482018790529151939450600093919092169163d293c710916044808301926020929190829003018186803b158015611d7557600080fd5b505afa158015611d89573d6000803e3d6000fd5b505050506040513d6020811015611d9f57600080fd5b50519050670f43fc2c04ee0000811015611dea5760405162461bcd60e51b81526004018080602001828103825260448152602001806139106044913960600191505060405180910390fd5b505050565b60008111611e2e5760405162461bcd60e51b81526004018080602001828103825260308152602001806138736030913960400191505060405180910390fd5b50565b6000816001600160a01b03166346ad34d96040518163ffffffff1660e01b8152600401602060405180830381600087803b158015611e6e57600080fd5b505af1158015611e82573d6000803e3d6000fd5b505050506040513d6020811015611e9857600080fd5b50519050610d878161324d565b6000818310611eb45781610b1b565b5090919050565b6000610b1b83836040518060400160405280601e81526020017f536166654d6174683a207375627472616374696f6e206f766572666c6f770000815250613368565b6001600160a01b03811615611fd2576000611f1782611466565b9050836001600160a01b031663614d2ab683836040518363ffffffff1660e01b815260040180836001600160a01b03166001600160a01b0316815260200182815260200192505050600060405180830381600087803b158015611f7957600080fd5b505af1158015611f8d573d6000803e3d6000fd5b50506040805184815290516001600160a01b03861693507fcd2cdc1a4af71051394e9c6facd9a266b2ac5bd65d219a701eeda009f47682bf92509081900360200190a2505b6000611fdd836118d6565b9050836001600160a01b031663614d2ab684836040518363ffffffff1660e01b815260040180836001600160a01b03166001600160a01b0316815260200182815260200192505050600060405180830381600087803b15801561203f57600080fd5b505af1158015612053573d6000803e3d6000fd5b50506040805184815290516001600160a01b03871693507f2608b986a6ac0f6c629ca37018e80af5561e366252ae93602a96d3ab2e73e42d92509081900360200190a250505050565b6001600160a01b0382166000908152600e602052604090208190558061212c576001600160a01b0382166000818152600f60209081526040808320838155600181018490556002810184905560030183905580518381529182019290925281517fbb1322f85cc7cc8bac4e172a5bc5dcc0c1959007f9a030032abf9258205f0e45929181900390910190a2610d87565b6011546010546001600160801b03600160801b80840482166000818152601360209081526040808320978616808452978252808320546001600160a01b038b16808552600f845293829020600181018990556002810182905560030180546001600160801b0319168a17909716958502959095179095558451868152908101849052845192959491927fbb1322f85cc7cc8bac4e172a5bc5dcc0c1959007f9a030032abf9258205f0e45929181900390910190a2505050505050565b806121f257610d87565b60065460408051631062c15f60e11b81523060048201526001600160a01b03858116602483015260448201859052915191909216916320c582be91606480830192600092919082900301818387803b15801561224d57600080fd5b505af1158015612261573d6000803e3d6000fd5b50505050610d87816133ff565b6001600160a01b0382166000908152600b602052604090208190558061231c576001600160a01b0382166000818152600b60209081526040808320600190810180546001600160a01b0319169055600c83528184208481559081018490556002810184905560030183905580518381529182018390528181019290925290517f2d6cc0bcdf72c9486f6451bde6b80f44066f4558f77f44dbfedbe7d8b295225a9181900360600190a2610d87565b6011546010546001600160801b03600160801b8084048216600081815260126020908152604080832097861680845297825280832054848452601383528184208985528352818420546001600160a01b038c16808652600c855294839020600181018a90558281556002810182905560030180546001600160801b0319168b179098169686029690961790965580518781529182018690528181018590525192959493927f2d6cc0bcdf72c9486f6451bde6b80f44066f4558f77f44dbfedbe7d8b295225a916060908290030190a250505050505050565b806123fe57611e2e565b600954600090612414908363ffffffff611ebb16565b60098190556040805182815290519192506000805160206136bd833981519152919081900360200190a1604080513381526020810184905281517f6109e2559dfa766aaec7118351d48a523f0a4157f49c8d68749c8ac41318ad12929181900390910190a1604051600090339084908381818185875af1925050503d80600081146124bb576040519150601f19603f3d011682016040523d82523d6000602084013e6124c0565b606091505b5050905080611dea5760405162461bcd60e51b81526004018080602001828103825260218152602001806137576021913960400191505060405180910390fd5b6005546001600160a01b03163314610abf5760405162461bcd60e51b815260040180806020018281038252602981526020018061372e6029913960400191505060405180910390fd5b600080600061257b60155461256f670de0b6b3a764000089612ff890919063ffffffff16565b9063ffffffff610ac116565b90508385111561258757fe5b838514156125a4576000601655670de0b6b3a76400009150612604565b6016546000906125d2906125c688670de0b6b3a764000063ffffffff612ff816565b9063ffffffff611ebb16565b90506125e9600161256f838863ffffffff612f2a16565b92506125ff816125c6858863ffffffff612ff816565b601655505b612614818563ffffffff612f2a16565b9250612636612629848663ffffffff612ff816565b829063ffffffff611ebb16565b60155550935093915050565b6010546000670de0b6b3a764000083111561265957fe5b6000612673670de0b6b3a76400008563ffffffff611ebb16565b6011546001600160801b03600160801b8204811660008181526012602090815260408083209490951680835293905292832054939450909290916126b78988612ff8565b905060006126cb838363ffffffff610ac116565b6001600160801b038086166000818152601260209081526040808320948b16808452948252918290208590558151858152908101929092528181019290925290519192507fe12e2cd2c9afa8069203ca07e7eff1edce4a075686d0736a8e7e0d593597b207919081900360600190a185612802576127596001600160801b038516600163ffffffff61345516565b601180546001600160801b03908116600160801b938216840217918290556040805193909204168252517fb50f0f59e7cb5b421dc77581c3a9919e3806e076e5fa78a874c3f120cb7d874d916020908290030190a1601180546001600160801b0319169055604080516000815290517f1f9dfc70cd666adb18a39d60a797518f7b4febf4b6e24ef37d44f6e1e7219fbe9181900360200190a1670de0b6b3a764000096506128ee565b633b9aca00612823670de0b6b3a76400006115538b8a63ffffffff612ff816565b10156128cf57612859670de0b6b3a7640000611553633b9aca0061284d8c8b63ffffffff612ff816565b9063ffffffff612ff816565b96506128756001600160801b038616600163ffffffff61345516565b601180546001600160801b0319166001600160801b0392831617908190556040805191909216815290517f1f9dfc70cd666adb18a39d60a797518f7b4febf4b6e24ef37d44f6e1e7219fbe916020908290030190a16128ee565b6128eb670de0b6b3a76400006115538a8963ffffffff612ff816565b96505b600087116128f857fe5b60108790556040805188815290517fc1a9618cb59ebca77cbdbc2949f126823c407ff13edb285fd0262519a9c18e8c9181900360200190a150505050505050505050565b600080546040805163071b32b560e31b81526004810185905290516001600160a01b039092169283926338d995a892602480820193929182900301818387803b15801561298857600080fd5b505af115801561299c573d6000803e3d6000fd5b505050506129a9826133ff565b60065460408051632770a7eb60e21b81523060048201526024810185905290516001600160a01b0390921691639dc29fac9160448082019260009290919082900301818387803b1580156129fc57600080fd5b505af1158015612a10573d6000803e3d6000fd5b5050604080516364a197f360e01b81523060048201526024810187905290516001600160a01b03851693506364a197f39250604480830192600092919082900301818387803b158015612a6257600080fd5b505af11580156118b5573d6000803e3d6000fd5b6080810151606082015182516020808501516001600160801b03808616600090815260128452604080822092871682529190935282205491949392918590612ac4908463ffffffff611ebb16565b6001600160801b03808716600090815260126020526040812092935091612b2791633b9aca0091908490612b01908a16600163ffffffff61345516565b6001600160801b031681526020810191909152604001600020549063ffffffff612f2a16565b90506000612b59670de0b6b3a76400006115538681612b4c888863ffffffff610ac116565b8f9063ffffffff612ff816565b9a9950505050505050505050565b6001600160a01b0381166000908152600d602052604090206001015460ff1615611e2e5760405162461bcd60e51b81526004018080602001828103825260398152602001806138126039913960400191505060405180910390fd5b6001600160a01b0381166000908152600b60205260409020548015610d875760405162461bcd60e51b815260040180806020018281038252602881526020018061384b6028913960400191505060405180910390fd5b670de0b6b3a7640000811115611e2e5760405162461bcd60e51b81526004018080602001828103825260338152602001806137996033913960400191505060405180910390fd5b6001600160a01b0381166000908152600d602052604090206001015460ff1680612c9057506001600160a01b038116155b611e2e5760405162461bcd60e51b81526004018080602001828103825260468152602001806136506046913960600191505060405180910390fd5b60008111611e2e5760405162461bcd60e51b81526004018080602001828103825260268152602001806137cc6026913960400191505060405180910390fd5b6001600160a01b038281166000818152600b602052604080822060010180546001600160a01b0319169486169485179055517f094c08e96a8890877a8390b4f967180a7507ad8622244d05fcd0f9f8e086564e9190a35050565b60065460408051632ee65eeb60e21b81526001600160a01b038581166004830152306024830152604482018590529151919092169163bb997bac91606480830192600092919082900301818387803b158015612dbf57600080fd5b505af1158015612dd3573d6000803e3d6000fd5b5050600a5460009250612ded91508363ffffffff610ac116565b600a8190556040805182815290519192507fa8e886449d8f7e765877b4a4f54632da3943ae454d5a272bdccb1781f086ff29919081900360200190a1505050565b6020810151606082015160808301516011546000939291906001600160801b03600160801b90910481169082161015612e6d5760009350505050610b1e565b6011546000908190612e8e906001600160801b03168563ffffffff6134a516565b90506001600160801b038116612ebe57612eb7856115536010548b612ff890919063ffffffff16565b9150612ef6565b806001600160801b031660011415612ef157612eb7633b9aca00611553876115536010548d612ff890919063ffffffff16565b600091505b612f0a88633b9aca0063ffffffff612f2a16565b821015612f1f57600095505050505050610b1e565b509695505050505050565b6000610b1b83836040518060400160405280601a81526020017f536166654d6174683a206469766973696f6e206279207a65726f0000000000008152506134fe565b608081015160608201516040808401516020808601516001600160801b03808716600090815260138452858120918716815292529281205490949392908590612fbb908463ffffffff611ebb16565b6001600160801b03808716600090815260136020526040812092935091612b2791633b9aca0091908490612b01908a16600163ffffffff61345516565b60008261300757506000610b1e565b8282028284828161301457fe5b0414610b1b5760405162461bcd60e51b81526004018080602001828103825260218152602001806137786021913960400191505060405180910390fd5b6001600160a01b0381166130ac576040805162461bcd60e51b815260206004820152601e60248201527f4163636f756e742063616e6e6f74206265207a65726f20616464726573730000604482015290519081900360640190fd5b803b80610d87576040805162461bcd60e51b815260206004820181905260248201527f4163636f756e7420636f64652073697a652063616e6e6f74206265207a65726f604482015290519081900360640190fd5b6003546040516000916001600160a01b0316907f8be0079c531659141344cd1fd0a4f28419497f9722a3daafe3b4186f6b6457e0908390a3600380546001600160a01b0319169055565b600554604080516321e3780160e01b81526001600160a01b038481166004830152915191909216916321e37801916024808301926020929190829003018186803b15801561319757600080fd5b505afa1580156131ab573d6000803e3d6000fd5b505050506040513d60208110156131c157600080fd5b5051600114611e2e5760405162461bcd60e51b815260040180806020018281038252604681526020018061360a6046913960600191505060405180910390fd5b600061320c82610d8b565b905060008111610d875760405162461bcd60e51b81526004018080602001828103825260318152602001806136dd6031913960400191505060405180910390fd5b600a5480158061325b575081155b156132665750611e2e565b60006132728383613563565b9050600061328b60105483612ff890919063ffffffff16565b6011546001600160801b03600160801b8204811660009081526013602090815260408083209390941682529190915220549091506132cf908263ffffffff610ac116565b601180546001600160801b03600160801b808304821660009081526013602081815260408084209686168452958152858320979097559454918204831680825294865283812091909216808352908552908290205482519081529384019290925282810191909152517f2d6127771b164a9cc8827d24b5955db2a77e7a81dac389107ebb8bce9fb649689181900360600190a150505050565b600081848411156133f75760405162461bcd60e51b81526004018080602001828103825283818151815260200191508051906020019080838360005b838110156133bc5781810151838201526020016133a4565b50505050905090810190601f1680156133e95780820380516001836020036101000a031916815260200191505b509250505060405180910390fd5b505050900390565b600a54600090613415908363ffffffff611ebb16565b600a8190556040805182815290519192507fa8e886449d8f7e765877b4a4f54632da3943ae454d5a272bdccb1781f086ff29919081900360200190a15050565b60008282016001600160801b038085169082161015610b1b5760405162461bcd60e51b81526004018080602001828103825260258152602001806138eb6025913960400191505060405180910390fd5b6000826001600160801b0316826001600160801b031611156134f85760405162461bcd60e51b81526004018080602001828103825260288152602001806138c36028913960400191505060405180910390fd5b50900390565b6000818361354d5760405162461bcd60e51b81526020600482018181528351602484015283519092839260449091019190850190808383600083156133bc5781810151838201526020016133a4565b50600083858161355957fe5b0495945050505050565b60008061358760145461256f670de0b6b3a764000087612ff890919063ffffffff16565b9050600061359b828563ffffffff612f2a16565b90506135bd6135b0828663ffffffff612ff816565b839063ffffffff611ebb16565b601455949350505050565b6040518060a0016040528060008152602001600081526020016000815260200160006001600160801b0316815260200160006001600160801b03168152509056fe53746162696c697479506f6f6c3a2063616c6c6572206d757374206861766520616e206163746976652074726f766520746f207769746864726177204554484761696e20746f53746162696c697479506f6f6c3a20546167206d757374206265206120726567697374657265642066726f6e7420656e642c206f7220746865207a65726f206164647265737353746162696c697479506f6f6c3a2043616c6c6572206973206e6f7420416374697665506f6f6cceb6d671277d4354fd29977ada70695fbd93a16612abf765d6b0e25c28dc6db353746162696c697479506f6f6c3a2063616c6c6572206d7573742068617665206e6f6e2d7a65726f20455448204761696ebce78369dccab09eec1986f4d409ab09ffbb47d65423e5148fcf98411c5111c953746162696c697479506f6f6c3a2043616c6c6572206973206e6f742054726f76654d616e6167657253746162696c697479506f6f6c3a2073656e64696e6720455448206661696c6564536166654d6174683a206d756c7469706c69636174696f6e206f766572666c6f7753746162696c697479506f6f6c3a204b69636b6261636b2072617465206d75737420626520696e2072616e6765205b302c315d53746162696c697479506f6f6c3a20416d6f756e74206d757374206265206e6f6e2d7a65726f51457222ebca92c335c9c86e2baa1cc0e40ffaa9084a51452980d5ba8dec2f6353746162696c697479506f6f6c3a206d757374206e6f7420616c7265616479206265206120726567697374657265642066726f6e7420656e6453746162696c697479506f6f6c3a2055736572206d7573742068617665206e6f206465706f73697453746162696c697479506f6f6c3a2055736572206d75737420686176652061206e6f6e2d7a65726f206465706f73697499920012339b5a3368d3a04b8606ce412c46ed92b7dcd8602d41fc8862cb8f254c697175697479536166654d6174683132383a207375627472616374696f6e206f766572666c6f774c697175697479536166654d6174683132383a206164646974696f6e206f766572666c6f7753746162696c697479506f6f6c3a2043616e6e6f74207769746864726177207768696c65207468657265206172652074726f766573207769746820494352203c204d4352a2646970667358221220253f1bb9ea6b80eb1cc0d34262ad3b6ec0465810b2097278a86038668592cbca64736f6c634300060b0033",
  "linkReferences": {},
  "deployedLinkReferences": {}
}