{
  "_format": "hh-sol-artifact-1",
  "contractName": "LiquitySafeMath128Tester",
  "sourceName": "contracts/Liquity/TestContracts/LiquitySafeMath128Tester.sol",
  "abi": [
    {
      "inputs": [
        {
          "internalType": "uint128",
          "name": "a",
          "type": "uint128"
        },
        {
          "internalType": "uint128",
          "name": "b",
          "type": "uint128"
        }
      ],
      "name": "add",
      "outputs": [
        {
          "internalType": "uint128",
          "name": "",
          "type": "uint128"
        }
      ],
      "stateMutability": "pure",
      "type": "function"
    },
    {
      "inputs": [
        {
          "internalType": "uint128",
          "name": "a",
          "type": "uint128"
        },
        {
          "internalType": "uint128",
          "name": "b",
          "type": "uint128"
        }
      ],
      "name": "sub",
      "outputs": [
        {
          "internalType": "uint128",
          "name": "",
          "type": "uint128"
        }
      ],
      "stateMutability": "pure",
      "type": "function"
    }
  ],
  "bytecode": "0x608060405234801561001057600080fd5b50610363806100206000396000f3fe608060405234801561001057600080fd5b50600436106100365760003560e01c8063a6fd00851461003b578063feb99390146100cf575b600080fd5b6100956004803603604081101561005157600080fd5b8101908080356fffffffffffffffffffffffffffffffff16906020019092919080356fffffffffffffffffffffffffffffffff169060200190929190505050610163565b60405180826fffffffffffffffffffffffffffffffff166fffffffffffffffffffffffffffffffff16815260200191505060405180910390f35b610129600480360360408110156100e557600080fd5b8101908080356fffffffffffffffffffffffffffffffff16906020019092919080356fffffffffffffffffffffffffffffffff169060200190929190505050610192565b60405180826fffffffffffffffffffffffffffffffff166fffffffffffffffffffffffffffffffff16815260200191505060405180910390f35b600061018a82846fffffffffffffffffffffffffffffffff166101c190919063ffffffff16565b905092915050565b60006101b982846fffffffffffffffffffffffffffffffff1661025190919063ffffffff16565b905092915050565b6000826fffffffffffffffffffffffffffffffff16826fffffffffffffffffffffffffffffffff161115610240576040517f08c379a00000000000000000000000000000000000000000000000000000000081526004018080602001828103825260288152602001806102e16028913960400191505060405180910390fd5b600082840390508091505092915050565b6000808284019050836fffffffffffffffffffffffffffffffff16816fffffffffffffffffffffffffffffffff1610156102d6576040517f08c379a00000000000000000000000000000000000000000000000000000000081526004018080602001828103825260258152602001806103096025913960400191505060405180910390fd5b809150509291505056fe4c697175697479536166654d6174683132383a207375627472616374696f6e206f766572666c6f774c697175697479536166654d6174683132383a206164646974696f6e206f766572666c6f77a2646970667358221220661fd1ad4c67fac4f75b2ecc88888f7d680d2731db5ea9ed03325eaf8ce5ef3c64736f6c634300060b0033",
  "linkReferences": {},
  "deployedLinkReferences": {}
}