{
  "_format": "hh-sol-artifact-1",
  "contractName": "Destructible",
  "sourceName": "contracts/Liquity/TestContracts/Destructible.sol",
  "abi": [
    {
      "inputs": [
        {
          "internalType": "address payable",
          "name": "_receiver",
          "type": "address"
        }
      ],
      "name": "destruct",
      "outputs": [],
      "stateMutability": "nonpayable",
      "type": "function"
    },
    {
      "stateMutability": "payable",
      "type": "receive"
    }
  ],
  "bytecode": "0x608060405234801561001057600080fd5b5060c68061001f6000396000f3fe608060405260043610601f5760003560e01c80631beb261514602a576025565b36602557005b600080fd5b348015603557600080fd5b50607560048036036020811015604a57600080fd5b81019080803573ffffffffffffffffffffffffffffffffffffffff1690602001909291905050506077565b005b8073ffffffffffffffffffffffffffffffffffffffff16fffea264697066735822122061928dee8d01615fb6c6cec7f2f9ee2cc642e00ce6bb94816b2a0ddb9b9d059364736f6c634300060b0033",
  "linkReferences": {},
  "deployedLinkReferences": {}
}