{
  "_format": "hh-sol-artifact-1",
  "contractName": "gStringToken",
  "sourceName": "contracts/gStringToken.sol",
  "abi": [
    {
      "inputs": [
        {
          "internalType": "address",
          "name": "_owner",
          "type": "address"
        }
      ],
      "stateMutability": "nonpayable",
      "type": "constructor"
    },
    {
      "anonymous": false,
      "inputs": [
        {
          "indexed": true,
          "internalType": "address",
          "name": "owner",
          "type": "address"
        },
        {
          "indexed": true,
          "internalType": "address",
          "name": "spender",
          "type": "address"
        },
        {
          "indexed": false,
          "internalType": "uint256",
          "name": "value",
          "type": "uint256"
        }
      ],
      "name": "Approval",
      "type": "event"
    },
    {
      "anonymous": false,
      "inputs": [
        {
          "indexed": true,
          "internalType": "address",
          "name": "from",
          "type": "address"
        },
        {
          "indexed": true,
          "internalType": "address",
          "name": "to",
          "type": "address"
        },
        {
          "indexed": false,
          "internalType": "uint256",
          "name": "value",
          "type": "uint256"
        }
      ],
      "name": "Transfer",
      "type": "event"
    },
    {
      "inputs": [
        {
          "internalType": "address",
          "name": "_vestingAddress",
          "type": "address"
        }
      ],
      "name": "addMinter",
      "outputs": [],
      "stateMutability": "nonpayable",
      "type": "function"
    },
    {
      "inputs": [
        {
          "internalType": "address",
          "name": "owner",
          "type": "address"
        },
        {
          "internalType": "address",
          "name": "spender",
          "type": "address"
        }
      ],
      "name": "allowance",
      "outputs": [
        {
          "internalType": "uint256",
          "name": "",
          "type": "uint256"
        }
      ],
      "stateMutability": "view",
      "type": "function"
    },
    {
      "inputs": [
        {
          "internalType": "address",
          "name": "spender",
          "type": "address"
        },
        {
          "internalType": "uint256",
          "name": "amount",
          "type": "uint256"
        }
      ],
      "name": "approve",
      "outputs": [
        {
          "internalType": "bool",
          "name": "",
          "type": "bool"
        }
      ],
      "stateMutability": "nonpayable",
      "type": "function"
    },
    {
      "inputs": [
        {
          "internalType": "address",
          "name": "account",
          "type": "address"
        }
      ],
      "name": "balanceOf",
      "outputs": [
        {
          "internalType": "uint256",
          "name": "",
          "type": "uint256"
        }
      ],
      "stateMutability": "view",
      "type": "function"
    },
    {
      "inputs": [
        {
          "internalType": "uint256",
          "name": "amount",
          "type": "uint256"
        }
      ],
      "name": "burn",
      "outputs": [],
      "stateMutability": "nonpayable",
      "type": "function"
    },
    {
      "inputs": [
        {
          "internalType": "address",
          "name": "account",
          "type": "address"
        },
        {
          "internalType": "uint256",
          "name": "amount",
          "type": "uint256"
        }
      ],
      "name": "burnFrom",
      "outputs": [],
      "stateMutability": "nonpayable",
      "type": "function"
    },
    {
      "inputs": [],
      "name": "decimals",
      "outputs": [
        {
          "internalType": "uint8",
          "name": "",
          "type": "uint8"
        }
      ],
      "stateMutability": "view",
      "type": "function"
    },
    {
      "inputs": [
        {
          "internalType": "address",
          "name": "spender",
          "type": "address"
        },
        {
          "internalType": "uint256",
          "name": "subtractedValue",
          "type": "uint256"
        }
      ],
      "name": "decreaseAllowance",
      "outputs": [
        {
          "internalType": "bool",
          "name": "",
          "type": "bool"
        }
      ],
      "stateMutability": "nonpayable",
      "type": "function"
    },
    {
      "inputs": [
        {
          "internalType": "address",
          "name": "spender",
          "type": "address"
        },
        {
          "internalType": "uint256",
          "name": "addedValue",
          "type": "uint256"
        }
      ],
      "name": "increaseAllowance",
      "outputs": [
        {
          "internalType": "bool",
          "name": "",
          "type": "bool"
        }
      ],
      "stateMutability": "nonpayable",
      "type": "function"
    },
    {
      "inputs": [
        {
          "internalType": "address",
          "name": "_for",
          "type": "address"
        }
      ],
      "name": "isAllowedMinter",
      "outputs": [
        {
          "internalType": "bool",
          "name": "",
          "type": "bool"
        }
      ],
      "stateMutability": "view",
      "type": "function"
    },
    {
      "inputs": [
        {
          "internalType": "address",
          "name": "_to",
          "type": "address"
        },
        {
          "internalType": "uint256",
          "name": "_amount",
          "type": "uint256"
        }
      ],
      "name": "mintTo",
      "outputs": [],
      "stateMutability": "nonpayable",
      "type": "function"
    },
    {
      "inputs": [],
      "name": "name",
      "outputs": [
        {
          "internalType": "string",
          "name": "",
          "type": "string"
        }
      ],
      "stateMutability": "view",
      "type": "function"
    },
    {
      "inputs": [],
      "name": "owner",
      "outputs": [
        {
          "internalType": "address",
          "name": "",
          "type": "address"
        }
      ],
      "stateMutability": "view",
      "type": "function"
    },
    {
      "inputs": [],
      "name": "revokeOwnership",
      "outputs": [],
      "stateMutability": "nonpayable",
      "type": "function"
    },
    {
      "inputs": [],
      "name": "symbol",
      "outputs": [
        {
          "internalType": "string",
          "name": "",
          "type": "string"
        }
      ],
      "stateMutability": "view",
      "type": "function"
    },
    {
      "inputs": [],
      "name": "totalSupply",
      "outputs": [
        {
          "internalType": "uint256",
          "name": "",
          "type": "uint256"
        }
      ],
      "stateMutability": "view",
      "type": "function"
    },
    {
      "inputs": [
        {
          "internalType": "address",
          "name": "recipient",
          "type": "address"
        },
        {
          "internalType": "uint256",
          "name": "amount",
          "type": "uint256"
        }
      ],
      "name": "transfer",
      "outputs": [
        {
          "internalType": "bool",
          "name": "",
          "type": "bool"
        }
      ],
      "stateMutability": "nonpayable",
      "type": "function"
    },
    {
      "inputs": [
        {
          "internalType": "address",
          "name": "sender",
          "type": "address"
        },
        {
          "internalType": "address",
          "name": "recipient",
          "type": "address"
        },
        {
          "internalType": "uint256",
          "name": "amount",
          "type": "uint256"
        }
      ],
      "name": "transferFrom",
      "outputs": [
        {
          "internalType": "bool",
          "name": "",
          "type": "bool"
        }
      ],
      "stateMutability": "nonpayable",
      "type": "function"
    }
  ],
  "bytecode": "0x608060405234801561001057600080fd5b506040516110323803806110328339818101604052602081101561003357600080fd5b5051604080518082018252601681527f476f766572616e636520537472696e6720546f6b656e0000000000000000000060208281019182528351808501909452600784526667535452494e4760c81b908401528151919291610097916003916100d4565b5080516100ab9060049060208401906100d4565b5050600680546001600160a01b0319166001600160a01b0393909316929092179091555061016f565b828054600181600116156101000203166002900490600052602060002090601f016020900481019282601f1061011557805160ff1916838001178555610142565b82800160010185558215610142579182015b82811115610142578251825591602001919060010190610127565b5061014e929150610152565b5090565b61016c91905b8082111561014e5760008155600101610158565b90565b610eb48061017e6000396000f3fe608060405234801561001057600080fd5b50600436106100f65760003560e01c8063449a52f811610092578063449a52f81461029f57806370a08231146102cb57806379cc6790146102f15780638da5cb5b1461031d57806395d89b4114610341578063983b2d5614610349578063a457c2d71461036f578063a9059cbb1461039b578063dd62ed3e146103c7576100f6565b806306fdde03146100fb578063095ea7b31461017857806318160ddd146101b85780631f3b4c90146101d257806323b872dd146101f85780632b9689581461022e578063313ce56714610238578063395093511461025657806342966c6814610282575b600080fd5b6101036103f5565b6040805160208082528351818301528351919283929083019185019080838360005b8381101561013d578181015183820152602001610125565b50505050905090810190601f16801561016a5780820380516001836020036101000a031916815260200191505b509250505060405180910390f35b6101a46004803603604081101561018e57600080fd5b506001600160a01b03813516906020013561048b565b604080519115158252519081900360200190f35b6101c06104a8565b60408051918252519081900360200190f35b6101a4600480360360208110156101e857600080fd5b50356001600160a01b03166104ae565b6101a46004803603606081101561020e57600080fd5b506001600160a01b038135811691602081013590911690604001356104cc565b61023661057b565b005b6102406105d6565b6040805160ff9092168252519081900360200190f35b6101a46004803603604081101561026c57600080fd5b506001600160a01b0381351690602001356105db565b6102366004803603602081101561029857600080fd5b5035610626565b610236600480360360408110156102b557600080fd5b506001600160a01b03813516906020013561063a565b6101c0600480360360208110156102e157600080fd5b50356001600160a01b03166106b1565b6102366004803603604081101561030757600080fd5b506001600160a01b0381351690602001356106cc565b610325610743565b604080516001600160a01b039092168252519081900360200190f35b610103610752565b6102366004803603602081101561035f57600080fd5b50356001600160a01b03166107b3565b6101a46004803603604081101561038557600080fd5b506001600160a01b038135169060200135610820565b6101a4600480360360408110156103b157600080fd5b506001600160a01b0381351690602001356108b8565b6101c0600480360360408110156103dd57600080fd5b506001600160a01b03813581169160200135166108cc565b60038054604080516020601f60026000196101006001881615020190951694909404938401819004810282018101909252828152606093909290918301828280156104815780601f1061045657610100808354040283529160200191610481565b820191906000526020600020905b81548152906001019060200180831161046457829003601f168201915b5050505050905090565b600061049f6104986108f7565b84846108fb565b50600192915050565b60025490565b6001600160a01b031660009081526005602052604090205460ff1690565b60006104d98484846109e7565b6001600160a01b0384166000908152600160205260408120816104fa6108f7565b6001600160a01b03166001600160a01b031681526020019081526020016000205490508281101561055c5760405162461bcd60e51b8152600401808060200182810382526028815260200180610d846028913960400191505060405180910390fd5b610570856105686108f7565b8584036108fb565b506001949350505050565b6006546001600160a01b031633146105c45760405162461bcd60e51b8152600401808060200182810382526021815260200180610d1b6021913960400191505060405180910390fd5b600680546001600160a01b0319169055565b601290565b600061049f6105e86108f7565b8484600160006105f66108f7565b6001600160a01b03908116825260208083019390935260409182016000908120918b1681529252902054016108fb565b6106376106316108f7565b82610b2b565b50565b3360009081526005602052604090205460ff1615156001146106a3576040805162461bcd60e51b815260206004820152601c60248201527f53656e646572206e6f742061207665726966696564204d696e74657200000000604482015290519081900360640190fd5b6106ad8282610c23565b5050565b6001600160a01b031660009081526020819052604090205490565b60006106df836106da6108f7565b6108cc565b9050818110156107205760405162461bcd60e51b8152600401808060200182810382526024815260200180610dac6024913960400191505060405180910390fd5b6107348361072c6108f7565b8484036108fb565b61073e8383610b2b565b505050565b6006546001600160a01b031681565b60048054604080516020601f60026000196101006001881615020190951694909404938401819004810282018101909252828152606093909290918301828280156104815780601f1061045657610100808354040283529160200191610481565b6006546001600160a01b031633146107fc5760405162461bcd60e51b8152600401808060200182810382526021815260200180610d1b6021913960400191505060405180910390fd5b6001600160a01b03166000908152600560205260409020805460ff19166001179055565b6000806001600061082f6108f7565b6001600160a01b039081168252602080830193909352604091820160009081209188168152925290205490508281101561089a5760405162461bcd60e51b8152600401808060200182810382526025815260200180610e5a6025913960400191505060405180910390fd5b6108ae6108a56108f7565b858584036108fb565b5060019392505050565b600061049f6108c56108f7565b84846109e7565b6001600160a01b03918216600090815260016020908152604080832093909416825291909152205490565b3390565b6001600160a01b0383166109405760405162461bcd60e51b8152600401808060200182810382526024815260200180610e366024913960400191505060405180910390fd5b6001600160a01b0382166109855760405162461bcd60e51b8152600401808060200182810382526022815260200180610d3c6022913960400191505060405180910390fd5b6001600160a01b03808416600081815260016020908152604080832094871680845294825291829020859055815185815291517f8c5be1e5ebec7d5bd14f71427d1e84f3dd0314c0f7b2291e5b200ac8c7c3b9259281900390910190a3505050565b6001600160a01b038316610a2c5760405162461bcd60e51b8152600401808060200182810382526025815260200180610e116025913960400191505060405180910390fd5b6001600160a01b038216610a715760405162461bcd60e51b8152600401808060200182810382526023815260200180610cd66023913960400191505060405180910390fd5b610a7c83838361073e565b6001600160a01b03831660009081526020819052604090205481811015610ad45760405162461bcd60e51b8152600401808060200182810382526026815260200180610d5e6026913960400191505060405180910390fd5b6001600160a01b03808516600081815260208181526040808320878703905593871680835291849020805487019055835186815293519193600080516020610dd0833981519152929081900390910190a350505050565b6001600160a01b038216610b705760405162461bcd60e51b8152600401808060200182810382526021815260200180610df06021913960400191505060405180910390fd5b610b7c8260008361073e565b6001600160a01b03821660009081526020819052604090205481811015610bd45760405162461bcd60e51b8152600401808060200182810382526022815260200180610cf96022913960400191505060405180910390fd5b6001600160a01b038316600081815260208181526040808320868603905560028054879003905580518681529051929392600080516020610dd0833981519152929181900390910190a3505050565b6001600160a01b038216610c7e576040805162461bcd60e51b815260206004820152601f60248201527f45524332303a206d696e7420746f20746865207a65726f206164647265737300604482015290519081900360640190fd5b610c8a6000838361073e565b60028054820190556001600160a01b03821660008181526020818152604080832080548601905580518581529051600080516020610dd0833981519152929181900390910190a3505056fe45524332303a207472616e7366657220746f20746865207a65726f206164647265737345524332303a206275726e20616d6f756e7420657863656564732062616c616e63654f6e6c79206f776e65722063616e2063616c6c20746869732066756e6374696f6e45524332303a20617070726f766520746f20746865207a65726f206164647265737345524332303a207472616e7366657220616d6f756e7420657863656564732062616c616e636545524332303a207472616e7366657220616d6f756e74206578636565647320616c6c6f77616e636545524332303a206275726e20616d6f756e74206578636565647320616c6c6f77616e6365ddf252ad1be2c89b69c2b068fc378daa952ba7f163c4a11628f55a4df523b3ef45524332303a206275726e2066726f6d20746865207a65726f206164647265737345524332303a207472616e736665722066726f6d20746865207a65726f206164647265737345524332303a20617070726f76652066726f6d20746865207a65726f206164647265737345524332303a2064656372656173656420616c6c6f77616e63652062656c6f77207a65726fa264697066735822122020b49e7b94021a124a662400d8e420e684c78985c58e05312ee8f6bef697dd7d64736f6c634300060b0033",
  "linkReferences": {},
  "deployedLinkReferences": {}
}