{
  "_format": "hh-sol-artifact-1",
  "contractName": "NonPayable",
  "sourceName": "contracts/Liquity/TestContracts/NonPayable.sol",
  "abi": [
    {
      "inputs": [
        {
          "internalType": "address",
          "name": "_dest",
          "type": "address"
        },
        {
          "internalType": "bytes",
          "name": "_data",
          "type": "bytes"
        }
      ],
      "name": "forward",
      "outputs": [],
      "stateMutability": "payable",
      "type": "function"
    },
    {
      "inputs": [
        {
          "internalType": "bool",
          "name": "_isPayable",
          "type": "bool"
        }
      ],
      "name": "setPayable",
      "outputs": [],
      "stateMutability": "nonpayable",
      "type": "function"
    },
    {
      "stateMutability": "payable",
      "type": "receive"
    }
  ],
  "bytecode": "0x608060405234801561001057600080fd5b506102a3806100206000396000f3fe60806040526004361061002d5760003560e01c80636fadcf7214610051578063f124a300146100ea5761004c565b3661004c576000809054906101000a900460ff1661004a57600080fd5b005b600080fd5b6100e86004803603604081101561006757600080fd5b81019080803573ffffffffffffffffffffffffffffffffffffffff169060200190929190803590602001906401000000008111156100a457600080fd5b8201836020820111156100b657600080fd5b803590602001918460018302840111640100000000831117156100d857600080fd5b9091929391929390505050610127565b005b3480156100f657600080fd5b506101256004803603602081101561010d57600080fd5b81019080803515159060200190929190505050610251565b005b600060608473ffffffffffffffffffffffffffffffffffffffff1634858560405180838380828437808301925050509250505060006040518083038185875af1925050503d8060008114610197576040519150601f19603f3d011682016040523d82523d6000602084013e61019c565b606091505b5091509150818190610249576040517f08c379a00000000000000000000000000000000000000000000000000000000081526004018080602001828103825283818151815260200191508051906020019080838360005b8381101561020e5780820151818401526020810190506101f3565b50505050905090810190601f16801561023b5780820380516001836020036101000a031916815260200191505b509250505060405180910390fd5b505050505050565b806000806101000a81548160ff0219169083151502179055505056fea264697066735822122063dceb7c8e217f6818275d3e22967b38611e8c42d83514d349c5cd59227e8a6364736f6c634300060b0033",
  "linkReferences": {},
  "deployedLinkReferences": {}
}