{
  "_format": "hh-sol-artifact-1",
  "contractName": "TroveManagerTester",
  "sourceName": "contracts/Liquity/TestContracts/CDPManagerTester.sol",
  "abi": [
    {
      "anonymous": false,
      "inputs": [
        {
          "indexed": false,
          "internalType": "address",
          "name": "_activePoolAddress",
          "type": "address"
        }
      ],
      "name": "ActivePoolAddressChanged",
      "type": "event"
    },
    {
      "anonymous": false,
      "inputs": [
        {
          "indexed": false,
          "internalType": "uint256",
          "name": "_baseRate",
          "type": "uint256"
        }
      ],
      "name": "BaseRateUpdated",
      "type": "event"
    },
    {
      "anonymous": false,
      "inputs": [
        {
          "indexed": false,
          "internalType": "address",
          "name": "_newBorrowerOperationsAddress",
          "type": "address"
        }
      ],
      "name": "BorrowerOperationsAddressChanged",
      "type": "event"
    },
    {
      "anonymous": false,
      "inputs": [
        {
          "indexed": false,
          "internalType": "address",
          "name": "_collSurplusPoolAddress",
          "type": "address"
        }
      ],
      "name": "CollSurplusPoolAddressChanged",
      "type": "event"
    },
    {
      "anonymous": false,
      "inputs": [
        {
          "indexed": false,
          "internalType": "address",
          "name": "_defaultPoolAddress",
          "type": "address"
        }
      ],
      "name": "DefaultPoolAddressChanged",
      "type": "event"
    },
    {
      "anonymous": false,
      "inputs": [
        {
          "indexed": false,
          "internalType": "address",
          "name": "_gasPoolAddress",
          "type": "address"
        }
      ],
      "name": "GasPoolAddressChanged",
      "type": "event"
    },
    {
      "anonymous": false,
      "inputs": [
        {
          "indexed": false,
          "internalType": "address",
          "name": "_lqtyStakingAddress",
          "type": "address"
        }
      ],
      "name": "LQTYStakingAddressChanged",
      "type": "event"
    },
    {
      "anonymous": false,
      "inputs": [
        {
          "indexed": false,
          "internalType": "address",
          "name": "_lqtyTokenAddress",
          "type": "address"
        }
      ],
      "name": "LQTYTokenAddressChanged",
      "type": "event"
    },
    {
      "anonymous": false,
      "inputs": [
        {
          "indexed": false,
          "internalType": "uint256",
          "name": "_L_ETH",
          "type": "uint256"
        },
        {
          "indexed": false,
          "internalType": "uint256",
          "name": "_L_LUSDDebt",
          "type": "uint256"
        }
      ],
      "name": "LTermsUpdated",
      "type": "event"
    },
    {
      "anonymous": false,
      "inputs": [
        {
          "indexed": false,
          "internalType": "address",
          "name": "_newLUSDTokenAddress",
          "type": "address"
        }
      ],
      "name": "LUSDTokenAddressChanged",
      "type": "event"
    },
    {
      "anonymous": false,
      "inputs": [
        {
          "indexed": false,
          "internalType": "uint256",
          "name": "_lastFeeOpTime",
          "type": "uint256"
        }
      ],
      "name": "LastFeeOpTimeUpdated",
      "type": "event"
    },
    {
      "anonymous": false,
      "inputs": [
        {
          "indexed": false,
          "internalType": "uint256",
          "name": "_liquidatedDebt",
          "type": "uint256"
        },
        {
          "indexed": false,
          "internalType": "uint256",
          "name": "_liquidatedColl",
          "type": "uint256"
        },
        {
          "indexed": false,
          "internalType": "uint256",
          "name": "_collGasCompensation",
          "type": "uint256"
        },
        {
          "indexed": false,
          "internalType": "uint256",
          "name": "_LUSDGasCompensation",
          "type": "uint256"
        }
      ],
      "name": "Liquidation",
      "type": "event"
    },
    {
      "anonymous": false,
      "inputs": [
        {
          "indexed": true,
          "internalType": "address",
          "name": "previousOwner",
          "type": "address"
        },
        {
          "indexed": true,
          "internalType": "address",
          "name": "newOwner",
          "type": "address"
        }
      ],
      "name": "OwnershipTransferred",
      "type": "event"
    },
    {
      "anonymous": false,
      "inputs": [
        {
          "indexed": false,
          "internalType": "address",
          "name": "_newPriceFeedAddress",
          "type": "address"
        }
      ],
      "name": "PriceFeedAddressChanged",
      "type": "event"
    },
    {
      "anonymous": false,
      "inputs": [
        {
          "indexed": false,
          "internalType": "uint256",
          "name": "_attemptedLUSDAmount",
          "type": "uint256"
        },
        {
          "indexed": false,
          "internalType": "uint256",
          "name": "_actualLUSDAmount",
          "type": "uint256"
        },
        {
          "indexed": false,
          "internalType": "uint256",
          "name": "_ETHSent",
          "type": "uint256"
        },
        {
          "indexed": false,
          "internalType": "uint256",
          "name": "_ETHFee",
          "type": "uint256"
        }
      ],
      "name": "Redemption",
      "type": "event"
    },
    {
      "anonymous": false,
      "inputs": [
        {
          "indexed": false,
          "internalType": "address",
          "name": "_sortedTrovesAddress",
          "type": "address"
        }
      ],
      "name": "SortedTrovesAddressChanged",
      "type": "event"
    },
    {
      "anonymous": false,
      "inputs": [
        {
          "indexed": false,
          "internalType": "address",
          "name": "_stabilityPoolAddress",
          "type": "address"
        }
      ],
      "name": "StabilityPoolAddressChanged",
      "type": "event"
    },
    {
      "anonymous": false,
      "inputs": [
        {
          "indexed": false,
          "internalType": "uint256",
          "name": "_totalStakesSnapshot",
          "type": "uint256"
        },
        {
          "indexed": false,
          "internalType": "uint256",
          "name": "_totalCollateralSnapshot",
          "type": "uint256"
        }
      ],
      "name": "SystemSnapshotsUpdated",
      "type": "event"
    },
    {
      "anonymous": false,
      "inputs": [
        {
          "indexed": false,
          "internalType": "uint256",
          "name": "_newTotalStakes",
          "type": "uint256"
        }
      ],
      "name": "TotalStakesUpdated",
      "type": "event"
    },
    {
      "anonymous": false,
      "inputs": [
        {
          "indexed": false,
          "internalType": "address",
          "name": "_borrower",
          "type": "address"
        },
        {
          "indexed": false,
          "internalType": "uint256",
          "name": "_newIndex",
          "type": "uint256"
        }
      ],
      "name": "TroveIndexUpdated",
      "type": "event"
    },
    {
      "anonymous": false,
      "inputs": [
        {
          "indexed": true,
          "internalType": "address",
          "name": "_borrower",
          "type": "address"
        },
        {
          "indexed": false,
          "internalType": "uint256",
          "name": "_debt",
          "type": "uint256"
        },
        {
          "indexed": false,
          "internalType": "uint256",
          "name": "_coll",
          "type": "uint256"
        },
        {
          "indexed": false,
          "internalType": "enum TroveManager.TroveManagerOperation",
          "name": "_operation",
          "type": "uint8"
        }
      ],
      "name": "TroveLiquidated",
      "type": "event"
    },
    {
      "anonymous": false,
      "inputs": [
        {
          "indexed": false,
          "internalType": "uint256",
          "name": "_L_ETH",
          "type": "uint256"
        },
        {
          "indexed": false,
          "internalType": "uint256",
          "name": "_L_LUSDDebt",
          "type": "uint256"
        }
      ],
      "name": "TroveSnapshotsUpdated",
      "type": "event"
    },
    {
      "anonymous": false,
      "inputs": [
        {
          "indexed": true,
          "internalType": "address",
          "name": "_borrower",
          "type": "address"
        },
        {
          "indexed": false,
          "internalType": "uint256",
          "name": "_debt",
          "type": "uint256"
        },
        {
          "indexed": false,
          "internalType": "uint256",
          "name": "_coll",
          "type": "uint256"
        },
        {
          "indexed": false,
          "internalType": "uint256",
          "name": "_stake",
          "type": "uint256"
        },
        {
          "indexed": false,
          "internalType": "enum TroveManager.TroveManagerOperation",
          "name": "_operation",
          "type": "uint8"
        }
      ],
      "name": "TroveUpdated",
      "type": "event"
    },
    {
      "inputs": [],
      "name": "BETA",
      "outputs": [
        {
          "internalType": "uint256",
          "name": "",
          "type": "uint256"
        }
      ],
      "stateMutability": "view",
      "type": "function"
    },
    {
      "inputs": [],
      "name": "BOOTSTRAP_PERIOD",
      "outputs": [
        {
          "internalType": "uint256",
          "name": "",
          "type": "uint256"
        }
      ],
      "stateMutability": "view",
      "type": "function"
    },
    {
      "inputs": [],
      "name": "BORROWING_FEE_FLOOR",
      "outputs": [
        {
          "internalType": "uint256",
          "name": "",
          "type": "uint256"
        }
      ],
      "stateMutability": "view",
      "type": "function"
    },
    {
      "inputs": [],
      "name": "CCR",
      "outputs": [
        {
          "internalType": "uint256",
          "name": "",
          "type": "uint256"
        }
      ],
      "stateMutability": "view",
      "type": "function"
    },
    {
      "inputs": [],
      "name": "DECIMAL_PRECISION",
      "outputs": [
        {
          "internalType": "uint256",
          "name": "",
          "type": "uint256"
        }
      ],
      "stateMutability": "view",
      "type": "function"
    },
    {
      "inputs": [],
      "name": "LUSD_GAS_COMPENSATION",
      "outputs": [
        {
          "internalType": "uint256",
          "name": "",
          "type": "uint256"
        }
      ],
      "stateMutability": "view",
      "type": "function"
    },
    {
      "inputs": [],
      "name": "L_ETH",
      "outputs": [
        {
          "internalType": "uint256",
          "name": "",
          "type": "uint256"
        }
      ],
      "stateMutability": "view",
      "type": "function"
    },
    {
      "inputs": [],
      "name": "L_LUSDDebt",
      "outputs": [
        {
          "internalType": "uint256",
          "name": "",
          "type": "uint256"
        }
      ],
      "stateMutability": "view",
      "type": "function"
    },
    {
      "inputs": [],
      "name": "MAX_BORROWING_FEE",
      "outputs": [
        {
          "internalType": "uint256",
          "name": "",
          "type": "uint256"
        }
      ],
      "stateMutability": "view",
      "type": "function"
    },
    {
      "inputs": [],
      "name": "MCR",
      "outputs": [
        {
          "internalType": "uint256",
          "name": "",
          "type": "uint256"
        }
      ],
      "stateMutability": "view",
      "type": "function"
    },
    {
      "inputs": [],
      "name": "MINUTE_DECAY_FACTOR",
      "outputs": [
        {
          "internalType": "uint256",
          "name": "",
          "type": "uint256"
        }
      ],
      "stateMutability": "view",
      "type": "function"
    },
    {
      "inputs": [],
      "name": "MIN_NET_DEBT",
      "outputs": [
        {
          "internalType": "uint256",
          "name": "",
          "type": "uint256"
        }
      ],
      "stateMutability": "view",
      "type": "function"
    },
    {
      "inputs": [],
      "name": "NAME",
      "outputs": [
        {
          "internalType": "string",
          "name": "",
          "type": "string"
        }
      ],
      "stateMutability": "view",
      "type": "function"
    },
    {
      "inputs": [],
      "name": "PERCENT_DIVISOR",
      "outputs": [
        {
          "internalType": "uint256",
          "name": "",
          "type": "uint256"
        }
      ],
      "stateMutability": "view",
      "type": "function"
    },
    {
      "inputs": [],
      "name": "REDEMPTION_FEE_FLOOR",
      "outputs": [
        {
          "internalType": "uint256",
          "name": "",
          "type": "uint256"
        }
      ],
      "stateMutability": "view",
      "type": "function"
    },
    {
      "inputs": [],
      "name": "SECONDS_IN_ONE_MINUTE",
      "outputs": [
        {
          "internalType": "uint256",
          "name": "",
          "type": "uint256"
        }
      ],
      "stateMutability": "view",
      "type": "function"
    },
    {
      "inputs": [
        {
          "internalType": "uint256",
          "name": "",
          "type": "uint256"
        }
      ],
      "name": "TroveOwners",
      "outputs": [
        {
          "internalType": "address",
          "name": "",
          "type": "address"
        }
      ],
      "stateMutability": "view",
      "type": "function"
    },
    {
      "inputs": [
        {
          "internalType": "address",
          "name": "",
          "type": "address"
        }
      ],
      "name": "Troves",
      "outputs": [
        {
          "internalType": "uint256",
          "name": "debt",
          "type": "uint256"
        },
        {
          "internalType": "uint256",
          "name": "coll",
          "type": "uint256"
        },
        {
          "internalType": "uint256",
          "name": "stake",
          "type": "uint256"
        },
        {
          "internalType": "enum TroveManager.Status",
          "name": "status",
          "type": "uint8"
        },
        {
          "internalType": "uint128",
          "name": "arrayIndex",
          "type": "uint128"
        }
      ],
      "stateMutability": "view",
      "type": "function"
    },
    {
      "inputs": [],
      "name": "_100pct",
      "outputs": [
        {
          "internalType": "uint256",
          "name": "",
          "type": "uint256"
        }
      ],
      "stateMutability": "view",
      "type": "function"
    },
    {
      "inputs": [],
      "name": "activePool",
      "outputs": [
        {
          "internalType": "contract IActivePool",
          "name": "",
          "type": "address"
        }
      ],
      "stateMutability": "view",
      "type": "function"
    },
    {
      "inputs": [
        {
          "internalType": "address",
          "name": "_borrower",
          "type": "address"
        }
      ],
      "name": "addTroveOwnerToArray",
      "outputs": [
        {
          "internalType": "uint256",
          "name": "index",
          "type": "uint256"
        }
      ],
      "stateMutability": "nonpayable",
      "type": "function"
    },
    {
      "inputs": [
        {
          "internalType": "address",
          "name": "_borrower",
          "type": "address"
        }
      ],
      "name": "applyPendingRewards",
      "outputs": [],
      "stateMutability": "nonpayable",
      "type": "function"
    },
    {
      "inputs": [],
      "name": "baseRate",
      "outputs": [
        {
          "internalType": "uint256",
          "name": "",
          "type": "uint256"
        }
      ],
      "stateMutability": "view",
      "type": "function"
    },
    {
      "inputs": [
        {
          "internalType": "address[]",
          "name": "_troveArray",
          "type": "address[]"
        }
      ],
      "name": "batchLiquidateTroves",
      "outputs": [],
      "stateMutability": "nonpayable",
      "type": "function"
    },
    {
      "inputs": [],
      "name": "borrowerOperationsAddress",
      "outputs": [
        {
          "internalType": "address",
          "name": "",
          "type": "address"
        }
      ],
      "stateMutability": "view",
      "type": "function"
    },
    {
      "inputs": [
        {
          "internalType": "uint256",
          "name": "_ETHDrawn",
          "type": "uint256"
        }
      ],
      "name": "callGetRedemptionFee",
      "outputs": [
        {
          "internalType": "uint256",
          "name": "",
          "type": "uint256"
        }
      ],
      "stateMutability": "view",
      "type": "function"
    },
    {
      "inputs": [
        {
          "internalType": "address",
          "name": "_troveOwner",
          "type": "address"
        }
      ],
      "name": "callInternalRemoveTroveOwner",
      "outputs": [],
      "stateMutability": "nonpayable",
      "type": "function"
    },
    {
      "inputs": [
        {
          "internalType": "uint256",
          "name": "_price",
          "type": "uint256"
        }
      ],
      "name": "checkRecoveryMode",
      "outputs": [
        {
          "internalType": "bool",
          "name": "",
          "type": "bool"
        }
      ],
      "stateMutability": "view",
      "type": "function"
    },
    {
      "inputs": [
        {
          "internalType": "address",
          "name": "_borrower",
          "type": "address"
        }
      ],
      "name": "closeTrove",
      "outputs": [],
      "stateMutability": "nonpayable",
      "type": "function"
    },
    {
      "inputs": [
        {
          "internalType": "uint256",
          "name": "_coll",
          "type": "uint256"
        },
        {
          "internalType": "uint256",
          "name": "_debt",
          "type": "uint256"
        },
        {
          "internalType": "uint256",
          "name": "_price",
          "type": "uint256"
        }
      ],
      "name": "computeICR",
      "outputs": [
        {
          "internalType": "uint256",
          "name": "",
          "type": "uint256"
        }
      ],
      "stateMutability": "pure",
      "type": "function"
    },
    {
      "inputs": [],
      "name": "decayBaseRateFromBorrowing",
      "outputs": [],
      "stateMutability": "nonpayable",
      "type": "function"
    },
    {
      "inputs": [
        {
          "internalType": "address",
          "name": "_borrower",
          "type": "address"
        },
        {
          "internalType": "uint256",
          "name": "_collDecrease",
          "type": "uint256"
        }
      ],
      "name": "decreaseTroveColl",
      "outputs": [
        {
          "internalType": "uint256",
          "name": "",
          "type": "uint256"
        }
      ],
      "stateMutability": "nonpayable",
      "type": "function"
    },
    {
      "inputs": [
        {
          "internalType": "address",
          "name": "_borrower",
          "type": "address"
        },
        {
          "internalType": "uint256",
          "name": "_debtDecrease",
          "type": "uint256"
        }
      ],
      "name": "decreaseTroveDebt",
      "outputs": [
        {
          "internalType": "uint256",
          "name": "",
          "type": "uint256"
        }
      ],
      "stateMutability": "nonpayable",
      "type": "function"
    },
    {
      "inputs": [],
      "name": "defaultPool",
      "outputs": [
        {
          "internalType": "contract IDefaultPool",
          "name": "",
          "type": "address"
        }
      ],
      "stateMutability": "view",
      "type": "function"
    },
    {
      "inputs": [
        {
          "internalType": "uint256",
          "name": "_debtVal",
          "type": "uint256"
        }
      ],
      "name": "getActualDebtFromComposite",
      "outputs": [
        {
          "internalType": "uint256",
          "name": "",
          "type": "uint256"
        }
      ],
      "stateMutability": "pure",
      "type": "function"
    },
    {
      "inputs": [
        {
          "internalType": "uint256",
          "name": "_LUSDDebt",
          "type": "uint256"
        }
      ],
      "name": "getBorrowingFee",
      "outputs": [
        {
          "internalType": "uint256",
          "name": "",
          "type": "uint256"
        }
      ],
      "stateMutability": "view",
      "type": "function"
    },
    {
      "inputs": [
        {
          "internalType": "uint256",
          "name": "_LUSDDebt",
          "type": "uint256"
        }
      ],
      "name": "getBorrowingFeeWithDecay",
      "outputs": [
        {
          "internalType": "uint256",
          "name": "",
          "type": "uint256"
        }
      ],
      "stateMutability": "view",
      "type": "function"
    },
    {
      "inputs": [],
      "name": "getBorrowingRate",
      "outputs": [
        {
          "internalType": "uint256",
          "name": "",
          "type": "uint256"
        }
      ],
      "stateMutability": "view",
      "type": "function"
    },
    {
      "inputs": [],
      "name": "getBorrowingRateWithDecay",
      "outputs": [
        {
          "internalType": "uint256",
          "name": "",
          "type": "uint256"
        }
      ],
      "stateMutability": "view",
      "type": "function"
    },
    {
      "inputs": [
        {
          "internalType": "uint256",
          "name": "_coll",
          "type": "uint256"
        }
      ],
      "name": "getCollGasCompensation",
      "outputs": [
        {
          "internalType": "uint256",
          "name": "",
          "type": "uint256"
        }
      ],
      "stateMutability": "pure",
      "type": "function"
    },
    {
      "inputs": [
        {
          "internalType": "uint256",
          "name": "_debt",
          "type": "uint256"
        }
      ],
      "name": "getCompositeDebt",
      "outputs": [
        {
          "internalType": "uint256",
          "name": "",
          "type": "uint256"
        }
      ],
      "stateMutability": "pure",
      "type": "function"
    },
    {
      "inputs": [
        {
          "internalType": "address",
          "name": "_borrower",
          "type": "address"
        },
        {
          "internalType": "uint256",
          "name": "_price",
          "type": "uint256"
        }
      ],
      "name": "getCurrentICR",
      "outputs": [
        {
          "internalType": "uint256",
          "name": "",
          "type": "uint256"
        }
      ],
      "stateMutability": "view",
      "type": "function"
    },
    {
      "inputs": [
        {
          "internalType": "address",
          "name": "_borrower",
          "type": "address"
        }
      ],
      "name": "getEntireDebtAndColl",
      "outputs": [
        {
          "internalType": "uint256",
          "name": "debt",
          "type": "uint256"
        },
        {
          "internalType": "uint256",
          "name": "coll",
          "type": "uint256"
        },
        {
          "internalType": "uint256",
          "name": "pendingLUSDDebtReward",
          "type": "uint256"
        },
        {
          "internalType": "uint256",
          "name": "pendingETHReward",
          "type": "uint256"
        }
      ],
      "stateMutability": "view",
      "type": "function"
    },
    {
      "inputs": [],
      "name": "getEntireSystemColl",
      "outputs": [
        {
          "internalType": "uint256",
          "name": "entireSystemColl",
          "type": "uint256"
        }
      ],
      "stateMutability": "view",
      "type": "function"
    },
    {
      "inputs": [],
      "name": "getEntireSystemDebt",
      "outputs": [
        {
          "internalType": "uint256",
          "name": "entireSystemDebt",
          "type": "uint256"
        }
      ],
      "stateMutability": "view",
      "type": "function"
    },
    {
      "inputs": [],
      "name": "getLUSDGasCompensation",
      "outputs": [
        {
          "internalType": "uint256",
          "name": "",
          "type": "uint256"
        }
      ],
      "stateMutability": "pure",
      "type": "function"
    },
    {
      "inputs": [
        {
          "internalType": "address",
          "name": "_borrower",
          "type": "address"
        }
      ],
      "name": "getNominalICR",
      "outputs": [
        {
          "internalType": "uint256",
          "name": "",
          "type": "uint256"
        }
      ],
      "stateMutability": "view",
      "type": "function"
    },
    {
      "inputs": [
        {
          "internalType": "address",
          "name": "_borrower",
          "type": "address"
        }
      ],
      "name": "getPendingETHReward",
      "outputs": [
        {
          "internalType": "uint256",
          "name": "",
          "type": "uint256"
        }
      ],
      "stateMutability": "view",
      "type": "function"
    },
    {
      "inputs": [
        {
          "internalType": "address",
          "name": "_borrower",
          "type": "address"
        }
      ],
      "name": "getPendingLUSDDebtReward",
      "outputs": [
        {
          "internalType": "uint256",
          "name": "",
          "type": "uint256"
        }
      ],
      "stateMutability": "view",
      "type": "function"
    },
    {
      "inputs": [
        {
          "internalType": "uint256",
          "name": "_ETHDrawn",
          "type": "uint256"
        }
      ],
      "name": "getRedemptionFeeWithDecay",
      "outputs": [
        {
          "internalType": "uint256",
          "name": "",
          "type": "uint256"
        }
      ],
      "stateMutability": "view",
      "type": "function"
    },
    {
      "inputs": [],
      "name": "getRedemptionRate",
      "outputs": [
        {
          "internalType": "uint256",
          "name": "",
          "type": "uint256"
        }
      ],
      "stateMutability": "view",
      "type": "function"
    },
    {
      "inputs": [],
      "name": "getRedemptionRateWithDecay",
      "outputs": [
        {
          "internalType": "uint256",
          "name": "",
          "type": "uint256"
        }
      ],
      "stateMutability": "view",
      "type": "function"
    },
    {
      "inputs": [
        {
          "internalType": "uint256",
          "name": "_price",
          "type": "uint256"
        }
      ],
      "name": "getTCR",
      "outputs": [
        {
          "internalType": "uint256",
          "name": "",
          "type": "uint256"
        }
      ],
      "stateMutability": "view",
      "type": "function"
    },
    {
      "inputs": [
        {
          "internalType": "address",
          "name": "_borrower",
          "type": "address"
        }
      ],
      "name": "getTroveColl",
      "outputs": [
        {
          "internalType": "uint256",
          "name": "",
          "type": "uint256"
        }
      ],
      "stateMutability": "view",
      "type": "function"
    },
    {
      "inputs": [
        {
          "internalType": "address",
          "name": "_borrower",
          "type": "address"
        }
      ],
      "name": "getTroveDebt",
      "outputs": [
        {
          "internalType": "uint256",
          "name": "",
          "type": "uint256"
        }
      ],
      "stateMutability": "view",
      "type": "function"
    },
    {
      "inputs": [
        {
          "internalType": "uint256",
          "name": "_index",
          "type": "uint256"
        }
      ],
      "name": "getTroveFromTroveOwnersArray",
      "outputs": [
        {
          "internalType": "address",
          "name": "",
          "type": "address"
        }
      ],
      "stateMutability": "view",
      "type": "function"
    },
    {
      "inputs": [],
      "name": "getTroveOwnersCount",
      "outputs": [
        {
          "internalType": "uint256",
          "name": "",
          "type": "uint256"
        }
      ],
      "stateMutability": "view",
      "type": "function"
    },
    {
      "inputs": [
        {
          "internalType": "address",
          "name": "_borrower",
          "type": "address"
        }
      ],
      "name": "getTroveStake",
      "outputs": [
        {
          "internalType": "uint256",
          "name": "",
          "type": "uint256"
        }
      ],
      "stateMutability": "view",
      "type": "function"
    },
    {
      "inputs": [
        {
          "internalType": "address",
          "name": "_borrower",
          "type": "address"
        }
      ],
      "name": "getTroveStatus",
      "outputs": [
        {
          "internalType": "uint256",
          "name": "",
          "type": "uint256"
        }
      ],
      "stateMutability": "view",
      "type": "function"
    },
    {
      "inputs": [
        {
          "internalType": "address",
          "name": "_borrower",
          "type": "address"
        }
      ],
      "name": "hasPendingRewards",
      "outputs": [
        {
          "internalType": "bool",
          "name": "",
          "type": "bool"
        }
      ],
      "stateMutability": "view",
      "type": "function"
    },
    {
      "inputs": [
        {
          "internalType": "address",
          "name": "_borrower",
          "type": "address"
        },
        {
          "internalType": "uint256",
          "name": "_collIncrease",
          "type": "uint256"
        }
      ],
      "name": "increaseTroveColl",
      "outputs": [
        {
          "internalType": "uint256",
          "name": "",
          "type": "uint256"
        }
      ],
      "stateMutability": "nonpayable",
      "type": "function"
    },
    {
      "inputs": [
        {
          "internalType": "address",
          "name": "_borrower",
          "type": "address"
        },
        {
          "internalType": "uint256",
          "name": "_debtIncrease",
          "type": "uint256"
        }
      ],
      "name": "increaseTroveDebt",
      "outputs": [
        {
          "internalType": "uint256",
          "name": "",
          "type": "uint256"
        }
      ],
      "stateMutability": "nonpayable",
      "type": "function"
    },
    {
      "inputs": [],
      "name": "isOwner",
      "outputs": [
        {
          "internalType": "bool",
          "name": "",
          "type": "bool"
        }
      ],
      "stateMutability": "view",
      "type": "function"
    },
    {
      "inputs": [],
      "name": "lastETHError_Redistribution",
      "outputs": [
        {
          "internalType": "uint256",
          "name": "",
          "type": "uint256"
        }
      ],
      "stateMutability": "view",
      "type": "function"
    },
    {
      "inputs": [],
      "name": "lastFeeOperationTime",
      "outputs": [
        {
          "internalType": "uint256",
          "name": "",
          "type": "uint256"
        }
      ],
      "stateMutability": "view",
      "type": "function"
    },
    {
      "inputs": [],
      "name": "lastLUSDDebtError_Redistribution",
      "outputs": [
        {
          "internalType": "uint256",
          "name": "",
          "type": "uint256"
        }
      ],
      "stateMutability": "view",
      "type": "function"
    },
    {
      "inputs": [
        {
          "internalType": "address",
          "name": "_borrower",
          "type": "address"
        }
      ],
      "name": "liquidate",
      "outputs": [],
      "stateMutability": "nonpayable",
      "type": "function"
    },
    {
      "inputs": [
        {
          "internalType": "uint256",
          "name": "_n",
          "type": "uint256"
        }
      ],
      "name": "liquidateTroves",
      "outputs": [],
      "stateMutability": "nonpayable",
      "type": "function"
    },
    {
      "inputs": [],
      "name": "lqtyStaking",
      "outputs": [
        {
          "internalType": "contract ILQTYStaking",
          "name": "",
          "type": "address"
        }
      ],
      "stateMutability": "view",
      "type": "function"
    },
    {
      "inputs": [],
      "name": "lqtyToken",
      "outputs": [
        {
          "internalType": "contract ILQTYToken",
          "name": "",
          "type": "address"
        }
      ],
      "stateMutability": "view",
      "type": "function"
    },
    {
      "inputs": [],
      "name": "lusdToken",
      "outputs": [
        {
          "internalType": "contract ILUSDToken",
          "name": "",
          "type": "address"
        }
      ],
      "stateMutability": "view",
      "type": "function"
    },
    {
      "inputs": [],
      "name": "minutesPassedSinceLastFeeOp",
      "outputs": [
        {
          "internalType": "uint256",
          "name": "",
          "type": "uint256"
        }
      ],
      "stateMutability": "view",
      "type": "function"
    },
    {
      "inputs": [],
      "name": "owner",
      "outputs": [
        {
          "internalType": "address",
          "name": "",
          "type": "address"
        }
      ],
      "stateMutability": "view",
      "type": "function"
    },
    {
      "inputs": [],
      "name": "priceFeed",
      "outputs": [
        {
          "internalType": "contract IPriceFeed",
          "name": "",
          "type": "address"
        }
      ],
      "stateMutability": "view",
      "type": "function"
    },
    {
      "inputs": [
        {
          "internalType": "uint256",
          "name": "_LUSDamount",
          "type": "uint256"
        },
        {
          "internalType": "address",
          "name": "_firstRedemptionHint",
          "type": "address"
        },
        {
          "internalType": "address",
          "name": "_upperPartialRedemptionHint",
          "type": "address"
        },
        {
          "internalType": "address",
          "name": "_lowerPartialRedemptionHint",
          "type": "address"
        },
        {
          "internalType": "uint256",
          "name": "_partialRedemptionHintNICR",
          "type": "uint256"
        },
        {
          "internalType": "uint256",
          "name": "_maxIterations",
          "type": "uint256"
        },
        {
          "internalType": "uint256",
          "name": "_maxFeePercentage",
          "type": "uint256"
        }
      ],
      "name": "redeemCollateral",
      "outputs": [],
      "stateMutability": "nonpayable",
      "type": "function"
    },
    {
      "inputs": [
        {
          "internalType": "address",
          "name": "_borrower",
          "type": "address"
        }
      ],
      "name": "removeStake",
      "outputs": [],
      "stateMutability": "nonpayable",
      "type": "function"
    },
    {
      "inputs": [
        {
          "internalType": "address",
          "name": "",
          "type": "address"
        }
      ],
      "name": "rewardSnapshots",
      "outputs": [
        {
          "internalType": "uint256",
          "name": "ETH",
          "type": "uint256"
        },
        {
          "internalType": "uint256",
          "name": "LUSDDebt",
          "type": "uint256"
        }
      ],
      "stateMutability": "view",
      "type": "function"
    },
    {
      "inputs": [
        {
          "internalType": "address",
          "name": "_borrowerOperationsAddress",
          "type": "address"
        },
        {
          "internalType": "address",
          "name": "_activePoolAddress",
          "type": "address"
        },
        {
          "internalType": "address",
          "name": "_defaultPoolAddress",
          "type": "address"
        },
        {
          "internalType": "address",
          "name": "_stabilityPoolAddress",
          "type": "address"
        },
        {
          "internalType": "address",
          "name": "_gasPoolAddress",
          "type": "address"
        },
        {
          "internalType": "address",
          "name": "_collSurplusPoolAddress",
          "type": "address"
        },
        {
          "internalType": "address",
          "name": "_priceFeedAddress",
          "type": "address"
        },
        {
          "internalType": "address",
          "name": "_lusdTokenAddress",
          "type": "address"
        },
        {
          "internalType": "address",
          "name": "_sortedTrovesAddress",
          "type": "address"
        },
        {
          "internalType": "address",
          "name": "_lqtyTokenAddress",
          "type": "address"
        },
        {
          "internalType": "address",
          "name": "_lqtyStakingAddress",
          "type": "address"
        }
      ],
      "name": "setAddresses",
      "outputs": [],
      "stateMutability": "nonpayable",
      "type": "function"
    },
    {
      "inputs": [
        {
          "internalType": "uint256",
          "name": "_baseRate",
          "type": "uint256"
        }
      ],
      "name": "setBaseRate",
      "outputs": [],
      "stateMutability": "nonpayable",
      "type": "function"
    },
    {
      "inputs": [],
      "name": "setLastFeeOpTimeToNow",
      "outputs": [],
      "stateMutability": "nonpayable",
      "type": "function"
    },
    {
      "inputs": [
        {
          "internalType": "address",
          "name": "_borrower",
          "type": "address"
        },
        {
          "internalType": "uint256",
          "name": "_num",
          "type": "uint256"
        }
      ],
      "name": "setTroveStatus",
      "outputs": [],
      "stateMutability": "nonpayable",
      "type": "function"
    },
    {
      "inputs": [],
      "name": "sortedTroves",
      "outputs": [
        {
          "internalType": "contract ISortedTroves",
          "name": "",
          "type": "address"
        }
      ],
      "stateMutability": "view",
      "type": "function"
    },
    {
      "inputs": [],
      "name": "stabilityPool",
      "outputs": [
        {
          "internalType": "contract IStabilityPool",
          "name": "",
          "type": "address"
        }
      ],
      "stateMutability": "view",
      "type": "function"
    },
    {
      "inputs": [],
      "name": "totalCollateralSnapshot",
      "outputs": [
        {
          "internalType": "uint256",
          "name": "",
          "type": "uint256"
        }
      ],
      "stateMutability": "view",
      "type": "function"
    },
    {
      "inputs": [],
      "name": "totalStakes",
      "outputs": [
        {
          "internalType": "uint256",
          "name": "",
          "type": "uint256"
        }
      ],
      "stateMutability": "view",
      "type": "function"
    },
    {
      "inputs": [],
      "name": "totalStakesSnapshot",
      "outputs": [
        {
          "internalType": "uint256",
          "name": "",
          "type": "uint256"
        }
      ],
      "stateMutability": "view",
      "type": "function"
    },
    {
      "inputs": [],
      "name": "unprotectedDecayBaseRateFromBorrowing",
      "outputs": [
        {
          "internalType": "uint256",
          "name": "",
          "type": "uint256"
        }
      ],
      "stateMutability": "nonpayable",
      "type": "function"
    },
    {
      "inputs": [
        {
          "internalType": "address",
          "name": "_borrower",
          "type": "address"
        }
      ],
      "name": "updateStakeAndTotalStakes",
      "outputs": [
        {
          "internalType": "uint256",
          "name": "",
          "type": "uint256"
        }
      ],
      "stateMutability": "nonpayable",
      "type": "function"
    },
    {
      "inputs": [
        {
          "internalType": "address",
          "name": "_borrower",
          "type": "address"
        }
      ],
      "name": "updateTroveRewardSnapshots",
      "outputs": [],
      "stateMutability": "nonpayable",
      "type": "function"
    }
  ],
  "bytecode": "0x60806040523480156200001157600080fd5b5033600360006101000a81548173ffffffffffffffffffffffffffffffffffffffff021916908373ffffffffffffffffffffffffffffffffffffffff1602179055503373ffffffffffffffffffffffffffffffffffffffff16600073ffffffffffffffffffffffffffffffffffffffff167f8be0079c531659141344cd1fd0a4f28419497f9722a3daafe3b4186f6b6457e060405160405180910390a361989480620000be6000396000f3fe608060405234801561001057600080fd5b50600436106104e35760003560e01c8063795d26c31161028e578063b91af97c11610167578063d5b35635116100d9578063e2ac77b011610092578063e2ac77b014611a70578063f34862de14611acc578063f36b242514611b24578063f92d343314611b42578063fe2ba84814611b60578063febb33de14611ba4576104e3565b8063d5b35635146118e8578063d66a25531461192a578063d9a7244414611982578063da303f14146119f0578063dba1c5f214611a0e578063dc62a70214611a2c576104e3565b8063c7b554811161012b578063c7b5548114611786578063cbd138ae146117a4578063d293c710146117e8578063d380a37c1461184a578063d3d6f84314611868578063d5205e48146118ca576104e3565b8063b91af97c14611613578063bcd3752614611680578063bf9befb11461172c578063c35bc5501461174a578063c52861f214611768576104e3565b80639976cf4511610200578063a537896f116101c4578063a537896f14611459578063ae9187541461149b578063b0d8e181146114e5578063b7f8cf9b1461153d578063b82f263d14611587578063b83f91a2146115c9576104e3565b80639976cf45146112ee5780639dd233d214611350578063a20baee61461136e578063a3a640171461138c578063a3f4df7e146113d6576104e3565b8063814a0a4511610252578063814a0a45146111ac57806382fe3eb914611202578063887105d3146112465780638da5cb5b146112645780638f32d59b146112ae57806396d711ff146112d0576104e3565b8063795d26c314610f83578063797250e314610fa15780637985c5e414610fbf5780637f7dde4a14611144578063807d138d1461118e576104e3565b8063477d66cf116103c057806361ec893d116103325780636ef64338116102f65780636ef6433814610d8757806372423c1714610e2d57806372fe25aa14610e8f578063741bef1a14610ead578063756b253e14610ef7578063794e572414610f65576104e3565b806361ec893d14610c83578063631203b014610ca157806364cee26014610ce3578063653d46e714610d3b57806366ca4a2114610d69576104e3565b80634ff81443116103845780634ff8144314610b3157806354062a4514610b735780635733d58f14610bb55780635d6b480f14610bd35780635d8c960914610c215780635dba4c4a14610c79576104e3565b8063477d66cf14610a15578063480cd57814610a575780634870dd9a14610aaf57806349eefeee14610acd5780634e443d9e14610aeb576104e3565b80631d08837b11610459578063240926691161041d578063240926691461090f57806328d28b5b1461092d5780632b11551a1461094b5780632e86bbd8146109695780632f865568146109875780633cc74225146109cb576104e3565b80631d08837b146107695780631e8b1c2b146107975780631f68f20a1461084f5780631f7af3c31461086d57806321e37801146108b7576104e3565b8063105bb15c116104ab578063105bb15c146105bc57806312610e92146105da57806315d549f11461063c5780631673c79a1461069457806318f2817a146106f35780631bf435551461074b576104e3565b8063043782fb146104e8578063048c661d146104f2578063060d49a31461053c578063071a75411461055a5780630b07655714610578575b600080fd5b6104f0611be6565b005b6104fa611bef565b604051808273ffffffffffffffffffffffffffffffffffffffff1673ffffffffffffffffffffffffffffffffffffffff16815260200191505060405180910390f35b610544611c15565b6040518082815260200191505060405180910390f35b610562611c1b565b6040518082815260200191505060405180910390f35b6105ba6004803603602081101561058e57600080fd5b81019080803573ffffffffffffffffffffffffffffffffffffffff169060200190929190505050611c20565b005b6105c4611c79565b6040518082815260200191505060405180910390f35b610626600480360360408110156105f057600080fd5b81019080803573ffffffffffffffffffffffffffffffffffffffff16906020019092919080359060200190929190505050611c88565b6040518082815260200191505060405180910390f35b61067e6004803603602081101561065257600080fd5b81019080803573ffffffffffffffffffffffffffffffffffffffff169060200190929190505050611d3c565b6040518082815260200191505060405180910390f35b6106d6600480360360208110156106aa57600080fd5b81019080803573ffffffffffffffffffffffffffffffffffffffff169060200190929190505050611d68565b604051808381526020018281526020019250505060405180910390f35b6107356004803603602081101561070957600080fd5b81019080803573ffffffffffffffffffffffffffffffffffffffff169060200190929190505050611d8c565b6040518082815260200191505060405180910390f35b610753611da6565b6040518082815260200191505060405180910390f35b6107956004803603602081101561077f57600080fd5b8101908080359060200190929190505050611db3565b005b61084d600480360360208110156107ad57600080fd5b81019080803590602001906401000000008111156107ca57600080fd5b8201836020820111156107dc57600080fd5b803590602001918460208302840111640100000000831117156107fe57600080fd5b919080806020026020016040519081016040528093929190818152602001838360200280828437600081840152601f19601f820116905080830192505050505050509192919290505050611dbd565b005b6108576122c1565b6040518082815260200191505060405180910390f35b6108756122c7565b604051808273ffffffffffffffffffffffffffffffffffffffff1673ffffffffffffffffffffffffffffffffffffffff16815260200191505060405180910390f35b6108f9600480360360208110156108cd57600080fd5b81019080803573ffffffffffffffffffffffffffffffffffffffff1690602001909291905050506122ed565b6040518082815260200191505060405180910390f35b610917612351565b6040518082815260200191505060405180910390f35b61093561236a565b6040518082815260200191505060405180910390f35b610953612384565b6040518082815260200191505060405180910390f35b610971612396565b6040518082815260200191505060405180910390f35b6109c96004803603602081101561099d57600080fd5b81019080803573ffffffffffffffffffffffffffffffffffffffff1690602001909291905050506123a3565b005b6109d361244d565b604051808273ffffffffffffffffffffffffffffffffffffffff1673ffffffffffffffffffffffffffffffffffffffff16815260200191505060405180910390f35b610a4160048036036020811015610a2b57600080fd5b8101908080359060200190929190505050612473565b6040518082815260200191505060405180910390f35b610a9960048036036020811015610a6d57600080fd5b81019080803573ffffffffffffffffffffffffffffffffffffffff16906020019092919050505061248d565b6040518082815260200191505060405180910390f35b610ab76124d9565b6040518082815260200191505060405180910390f35b610ad56124de565b6040518082815260200191505060405180910390f35b610b1760048036036020811015610b0157600080fd5b81019080803590602001909291905050506124eb565b604051808215151515815260200191505060405180910390f35b610b5d60048036036020811015610b4757600080fd5b81019080803590602001909291905050506124fd565b6040518082815260200191505060405180910390f35b610b9f60048036036020811015610b8957600080fd5b810190808035906020019092919050505061250f565b6040518082815260200191505060405180910390f35b610bbd612521565b6040518082815260200191505060405180910390f35b610c1f60048036036040811015610be957600080fd5b81019080803573ffffffffffffffffffffffffffffffffffffffff1690602001909291908035906020019092919050505061252d565b005b610c6360048036036020811015610c3757600080fd5b81019080803573ffffffffffffffffffffffffffffffffffffffff1690602001909291905050506125a7565b6040518082815260200191505060405180910390f35b610c81612712565b005b610c8b612781565b6040518082815260200191505060405180910390f35b610ccd60048036036020811015610cb757600080fd5b8101908080359060200190929190505050612786565b6040518082815260200191505060405180910390f35b610d2560048036036020811015610cf957600080fd5b81019080803573ffffffffffffffffffffffffffffffffffffffff1690602001909291905050506127a0565b6040518082815260200191505060405180910390f35b610d6760048036036020811015610d5157600080fd5b81019080803590602001909291905050506127ec565b005b610d71612da2565b6040518082815260200191505060405180910390f35b610dc960048036036020811015610d9d57600080fd5b81019080803573ffffffffffffffffffffffffffffffffffffffff169060200190929190505050612db9565b60405180868152602001858152602001848152602001836004811115610deb57fe5b60ff168152602001826fffffffffffffffffffffffffffffffff166fffffffffffffffffffffffffffffffff1681526020019550505050505060405180910390f35b610e7960048036036040811015610e4357600080fd5b81019080803573ffffffffffffffffffffffffffffffffffffffff16906020019092919080359060200190929190505050612e18565b6040518082815260200191505060405180910390f35b610e97612ecc565b6040518082815260200191505060405180910390f35b610eb5612ed8565b604051808273ffffffffffffffffffffffffffffffffffffffff1673ffffffffffffffffffffffffffffffffffffffff16815260200191505060405180910390f35b610f2360048036036020811015610f0d57600080fd5b8101908080359060200190929190505050612efe565b604051808273ffffffffffffffffffffffffffffffffffffffff1673ffffffffffffffffffffffffffffffffffffffff16815260200191505060405180910390f35b610f6d612f3a565b6040518082815260200191505060405180910390f35b610f8b612f46565b6040518082815260200191505060405180910390f35b610fa96130ae565b6040518082815260200191505060405180910390f35b6111426004803603610160811015610fd657600080fd5b81019080803573ffffffffffffffffffffffffffffffffffffffff169060200190929190803573ffffffffffffffffffffffffffffffffffffffff169060200190929190803573ffffffffffffffffffffffffffffffffffffffff169060200190929190803573ffffffffffffffffffffffffffffffffffffffff169060200190929190803573ffffffffffffffffffffffffffffffffffffffff169060200190929190803573ffffffffffffffffffffffffffffffffffffffff169060200190929190803573ffffffffffffffffffffffffffffffffffffffff169060200190929190803573ffffffffffffffffffffffffffffffffffffffff169060200190929190803573ffffffffffffffffffffffffffffffffffffffff169060200190929190803573ffffffffffffffffffffffffffffffffffffffff169060200190929190803573ffffffffffffffffffffffffffffffffffffffff1690602001909291905050506130b4565b005b61114c6138b1565b604051808273ffffffffffffffffffffffffffffffffffffffff1673ffffffffffffffffffffffffffffffffffffffff16815260200191505060405180910390f35b6111966138d6565b6040518082815260200191505060405180910390f35b6111ec600480360360608110156111c257600080fd5b810190808035906020019092919080359060200190929190803590602001909291905050506138dc565b6040518082815260200191505060405180910390f35b6112446004803603602081101561121857600080fd5b81019080803573ffffffffffffffffffffffffffffffffffffffff1690602001909291905050506138f2565b005b61124e613906565b6040518082815260200191505060405180910390f35b61126c613a6e565b604051808273ffffffffffffffffffffffffffffffffffffffff1673ffffffffffffffffffffffffffffffffffffffff16815260200191505060405180910390f35b6112b6613a98565b604051808215151515815260200191505060405180910390f35b6112d8613af0565b6040518082815260200191505060405180910390f35b61133a6004803603604081101561130457600080fd5b81019080803573ffffffffffffffffffffffffffffffffffffffff16906020019092919080359060200190929190505050613af6565b6040518082815260200191505060405180910390f35b611358613baa565b6040518082815260200191505060405180910390f35b611376613bb0565b6040518082815260200191505060405180910390f35b611394613bbc565b604051808273ffffffffffffffffffffffffffffffffffffffff1673ffffffffffffffffffffffffffffffffffffffff16815260200191505060405180910390f35b6113de613be2565b6040518080602001828103825283818151815260200191508051906020019080838360005b8381101561141e578082015181840152602081019050611403565b50505050905090810190601f16801561144b5780820380516001836020036101000a031916815260200191505b509250505060405180910390f35b6114856004803603602081101561146f57600080fd5b8101908080359060200190929190505050613c1b565b6040518082815260200191505060405180910390f35b6114a3613c2d565b604051808273ffffffffffffffffffffffffffffffffffffffff1673ffffffffffffffffffffffffffffffffffffffff16815260200191505060405180910390f35b611527600480360360208110156114fb57600080fd5b81019080803573ffffffffffffffffffffffffffffffffffffffff169060200190929190505050613c53565b6040518082815260200191505060405180910390f35b611545613c7e565b604051808273ffffffffffffffffffffffffffffffffffffffff1673ffffffffffffffffffffffffffffffffffffffff16815260200191505060405180910390f35b6115b36004803603602081101561159d57600080fd5b8101908080359060200190929190505050613ca4565b6040518082815260200191505060405180910390f35b6115d1613cb6565b604051808273ffffffffffffffffffffffffffffffffffffffff1673ffffffffffffffffffffffffffffffffffffffff16815260200191505060405180910390f35b6116556004803603602081101561162957600080fd5b81019080803573ffffffffffffffffffffffffffffffffffffffff169060200190929190505050613cdc565b6040518085815260200184815260200183815260200182815260200194505050505060405180910390f35b61172a600480360360e081101561169657600080fd5b8101908080359060200190929190803573ffffffffffffffffffffffffffffffffffffffff169060200190929190803573ffffffffffffffffffffffffffffffffffffffff169060200190929190803573ffffffffffffffffffffffffffffffffffffffff169060200190929190803590602001909291908035906020019092919080359060200190929190505050613db3565b005b611734614917565b6040518082815260200191505060405180910390f35b61175261491d565b6040518082815260200191505060405180910390f35b611770614924565b6040518082815260200191505060405180910390f35b61178e61493b565b6040518082815260200191505060405180910390f35b6117e6600480360360208110156117ba57600080fd5b81019080803573ffffffffffffffffffffffffffffffffffffffff169060200190929190505050614947565b005b611834600480360360408110156117fe57600080fd5b81019080803573ffffffffffffffffffffffffffffffffffffffff1690602001909291908035906020019092919050505061495d565b6040518082815260200191505060405180910390f35b61185261498a565b6040518082815260200191505060405180910390f35b6118b46004803603604081101561187e57600080fd5b81019080803573ffffffffffffffffffffffffffffffffffffffff16906020019092919080359060200190929190505050614990565b6040518082815260200191505060405180910390f35b6118d2614a44565b6040518082815260200191505060405180910390f35b611914600480360360208110156118fe57600080fd5b8101908080359060200190929190505050614a55565b6040518082815260200191505060405180910390f35b61196c6004803603602081101561194057600080fd5b81019080803573ffffffffffffffffffffffffffffffffffffffff169060200190929190505050614a6f565b6040518082815260200191505060405180910390f35b6119ae6004803603602081101561199857600080fd5b8101908080359060200190929190505050614abb565b604051808273ffffffffffffffffffffffffffffffffffffffff1673ffffffffffffffffffffffffffffffffffffffff16815260200191505060405180910390f35b6119f8614afc565b6040518082815260200191505060405180910390f35b611a16614b3f565b6040518082815260200191505060405180910390f35b611a6e60048036036020811015611a4257600080fd5b81019080803573ffffffffffffffffffffffffffffffffffffffff169060200190929190505050614b45565b005b611ab260048036036020811015611a8657600080fd5b81019080803573ffffffffffffffffffffffffffffffffffffffff169060200190929190505050614b5d565b604051808215151515815260200191505060405180910390f35b611b0e60048036036020811015611ae257600080fd5b81019080803573ffffffffffffffffffffffffffffffffffffffff169060200190929190505050614c24565b6040518082815260200191505060405180910390f35b611b2c614d8f565b6040518082815260200191505060405180910390f35b611b4a614da1565b6040518082815260200191505060405180910390f35b611ba260048036036020811015611b7657600080fd5b81019080803573ffffffffffffffffffffffffffffffffffffffff169060200190929190505050614dbb565b005b611bd060048036036020811015611bba57600080fd5b8101908080359060200190929190505050614dcf565b6040518082815260200191505060405180910390f35b42600d81905550565b600560009054906101000a900473ffffffffffffffffffffffffffffffffffffffff1681565b60175481565b600281565b611c28614de0565b611c766000809054906101000a900473ffffffffffffffffffffffffffffffffffffffff16600160009054906101000a900473ffffffffffffffffffffffffffffffffffffffff1683614e88565b50565b6000611c83615147565b905090565b6000611c92614de0565b6000611ce983600e60008773ffffffffffffffffffffffffffffffffffffffff1673ffffffffffffffffffffffffffffffffffffffff1681526020019081526020016000206000015461517690919063ffffffff16565b905080600e60008673ffffffffffffffffffffffffffffffffffffffff1673ffffffffffffffffffffffffffffffffffffffff168152602001908152602001600020600001819055508091505092915050565b6000611d46614de0565b611d4f826151c0565b6fffffffffffffffffffffffffffffffff169050919050565b60146020528060005260406000206000915090508060000154908060010154905082565b6000611d96614de0565b611d9f826152c1565b9050919050565b686194049f30f720000081565b80600c8190555050565b600081511415611e18576040517f08c379a000000000000000000000000000000000000000000000000000000000815260040180806020018281038252603681526020018061971a6036913960400191505060405180910390fd5b60008060009054906101000a900473ffffffffffffffffffffffffffffffffffffffff1690506000600160009054906101000a900473ffffffffffffffffffffffffffffffffffffffff1690506000600560009054906101000a900473ffffffffffffffffffffffffffffffffffffffff169050611e9461935e565b611e9c61938f565b600260009054906101000a900473ffffffffffffffffffffffffffffffffffffffff1673ffffffffffffffffffffffffffffffffffffffff16630fdb11cf6040518163ffffffff1660e01b8152600401602060405180830381600087803b158015611f0657600080fd5b505af1158015611f1a573d6000803e3d6000fd5b505050506040513d6020811015611f3057600080fd5b81019080805190602001909291905050508260000181815250508273ffffffffffffffffffffffffffffffffffffffff16639bf2f1ac6040518163ffffffff1660e01b815260040160206040518083038186803b158015611f9057600080fd5b505afa158015611fa4573d6000803e3d6000fd5b505050506040513d6020811015611fba57600080fd5b8101908080519060200190929190505050826020018181525050611fe1826000015161540f565b8260400190151590811515815250508160400151156120165761200f8585846000015185602001518a615430565b905061202e565b61202b8585846000015185602001518a615715565b90505b600081602001511161208b576040517f08c379a000000000000000000000000000000000000000000000000000000000815260040180806020018281038252602281526020018061980e6022913960400191505060405180910390fd5b8273ffffffffffffffffffffffffffffffffffffffff1663335525ad82608001518360a001516040518363ffffffff1660e01b81526004018083815260200182815260200192505050600060405180830381600087803b1580156120ee57600080fd5b505af1158015612102573d6000803e3d6000fd5b5050505061211a85858360c001518460e00151615831565b600081610100015111156121ef578473ffffffffffffffffffffffffffffffffffffffff166364a197f3600760009054906101000a900473ffffffffffffffffffffffffffffffffffffffff168361010001516040518363ffffffff1660e01b8152600401808373ffffffffffffffffffffffffffffffffffffffff1673ffffffffffffffffffffffffffffffffffffffff16815260200182815260200192505050600060405180830381600087803b1580156121d657600080fd5b505af11580156121ea573d6000803e3d6000fd5b505050505b6121fd858260400151615b2a565b806020015182606001818152505061223d81610100015161222f8360400151846000015161517690919063ffffffff16565b61517690919063ffffffff16565b8260800181815250507f4152c73dd2614c4f9fc35e8c9cf16013cd588c75b49a4c1673ecffdcbcda940382606001518360800151836040015184606001516040518085815260200184815260200183815260200182815260200194505050505060405180910390a16122b9853383606001518460400151615cd3565b505050505050565b600c5481565b600960009054906101000a900473ffffffffffffffffffffffffffffffffffffffff1681565b6000600e60008373ffffffffffffffffffffffffffffffffffffffff1673ffffffffffffffffffffffffffffffffffffffff16815260200190815260200160002060030160009054906101000a900460ff16600481111561234a57fe5b9050919050565b60056064670de0b6b3a76400008161236557fe5b040281565b60056103e8670de0b6b3a76400008161237f57fe5b040281565b6000612391600c54615ea3565b905090565b680ad78ebc5ac620000081565b6123ac81615ee6565b6060600167ffffffffffffffff811180156123c657600080fd5b506040519080825280602002602001820160405280156123f55781602001602082028036833780820191505090505b509050818160008151811061240657fe5b602002602001019073ffffffffffffffffffffffffffffffffffffffff16908173ffffffffffffffffffffffffffffffffffffffff168152505061244981611dbd565b5050565b600160009054906101000a900473ffffffffffffffffffffffffffffffffffffffff1681565b6000612486612480612da2565b83615fa7565b9050919050565b6000600e60008373ffffffffffffffffffffffffffffffffffffffff1673ffffffffffffffffffffffffffffffffffffffff168152602001908152602001600020600101549050919050565b60c881565b6000601580549050905090565b60006124f68261540f565b9050919050565b600061250882615fde565b9050919050565b600061251a82616003565b9050919050565b6714d1120d7b16000081565b612535614de0565b80600481111561254157fe5b600e60008473ffffffffffffffffffffffffffffffffffffffff1673ffffffffffffffffffffffffffffffffffffffff16815260200190815260200160002060030160006101000a81548160ff0219169083600481111561259e57fe5b02179055505050565b600080601460008473ffffffffffffffffffffffffffffffffffffffff1673ffffffffffffffffffffffffffffffffffffffff16815260200190815260200160002060000154905060006126068260125461517690919063ffffffff16565b9050600081148061267d57506001600481111561261f57fe5b600e60008673ffffffffffffffffffffffffffffffffffffffff1673ffffffffffffffffffffffffffffffffffffffff16815260200190815260200160002060030160009054906101000a900460ff16600481111561267a57fe5b14155b1561268d5760009250505061270d565b6000600e60008673ffffffffffffffffffffffffffffffffffffffff1673ffffffffffffffffffffffffffffffffffffffff1681526020019081526020016000206002015490506000612703670de0b6b3a76400006126f5858561602890919063ffffffff16565b6160ae90919063ffffffff16565b9050809450505050505b919050565b61271a614de0565b60006127246160f8565b9050670de0b6b3a764000081111561273857fe5b80600c819055507fc454ee9b76c52f782a256af821b857ca6e125d1e3333bcede402fec2bed9600c816040518082815260200191505060405180910390a161277e616151565b50565b603c81565b6000612799612793614d8f565b83615fa7565b9050919050565b6000600e60008373ffffffffffffffffffffffffffffffffffffffff1673ffffffffffffffffffffffffffffffffffffffff168152602001908152602001600020600201549050919050565b6127f46193db565b6040518060e001604052806000809054906101000a900473ffffffffffffffffffffffffffffffffffffffff1673ffffffffffffffffffffffffffffffffffffffff168152602001600160009054906101000a900473ffffffffffffffffffffffffffffffffffffffff1673ffffffffffffffffffffffffffffffffffffffff168152602001600073ffffffffffffffffffffffffffffffffffffffff168152602001600073ffffffffffffffffffffffffffffffffffffffff168152602001600b60009054906101000a900473ffffffffffffffffffffffffffffffffffffffff1673ffffffffffffffffffffffffffffffffffffffff168152602001600073ffffffffffffffffffffffffffffffffffffffff168152602001600073ffffffffffffffffffffffffffffffffffffffff1681525090506000600560009054906101000a900473ffffffffffffffffffffffffffffffffffffffff16905061295b61935e565b61296361938f565b600260009054906101000a900473ffffffffffffffffffffffffffffffffffffffff1673ffffffffffffffffffffffffffffffffffffffff16630fdb11cf6040518163ffffffff1660e01b8152600401602060405180830381600087803b1580156129cd57600080fd5b505af11580156129e1573d6000803e3d6000fd5b505050506040513d60208110156129f757600080fd5b81019080805190602001909291905050508260000181815250508273ffffffffffffffffffffffffffffffffffffffff16639bf2f1ac6040518163ffffffff1660e01b815260040160206040518083038186803b158015612a5757600080fd5b505afa158015612a6b573d6000803e3d6000fd5b505050506040513d6020811015612a8157600080fd5b8101908080519060200190929190505050826020018181525050612aa8826000015161540f565b826040019015159081151581525050816040015115612adc57612ad58483600001518460200151886161b4565b9050612afc565b612af9846000015185602001518460000151856020015189616679565b90505b6000816020015111612b59576040517f08c379a000000000000000000000000000000000000000000000000000000000815260040180806020018281038252602281526020018061980e6022913960400191505060405180910390fd5b8273ffffffffffffffffffffffffffffffffffffffff1663335525ad82608001518360a001516040518363ffffffff1660e01b81526004018083815260200182815260200192505050600060405180830381600087803b158015612bbc57600080fd5b505af1158015612bd0573d6000803e3d6000fd5b50505050612bf0846000015185602001518360c001518460e00151615831565b60008161010001511115612cc957836000015173ffffffffffffffffffffffffffffffffffffffff166364a197f3600760009054906101000a900473ffffffffffffffffffffffffffffffffffffffff168361010001516040518363ffffffff1660e01b8152600401808373ffffffffffffffffffffffffffffffffffffffff1673ffffffffffffffffffffffffffffffffffffffff16815260200182815260200192505050600060405180830381600087803b158015612cb057600080fd5b505af1158015612cc4573d6000803e3d6000fd5b505050505b612cdb84600001518260400151615b2a565b8060200151826060018181525050612d1b816101000151612d0d8360400151846000015161517690919063ffffffff16565b61517690919063ffffffff16565b8260800181815250507f4152c73dd2614c4f9fc35e8c9cf16013cd588c75b49a4c1673ecffdcbcda940382606001518360800151836040015184606001516040518085815260200184815260200183815260200182815260200194505050505060405180910390a1612d9b84600001513383606001518460400151615cd3565b5050505050565b6000612db4612daf6160f8565b61682e565b905090565b600e6020528060005260406000206000915090508060000154908060010154908060020154908060030160009054906101000a900460ff16908060030160019054906101000a90046fffffffffffffffffffffffffffffffff16905085565b6000612e22614de0565b6000612e7983600e60008773ffffffffffffffffffffffffffffffffffffffff1673ffffffffffffffffffffffffffffffffffffffff1681526020019081526020016000206001015461687e90919063ffffffff16565b905080600e60008673ffffffffffffffffffffffffffffffffffffffff1673ffffffffffffffffffffffffffffffffffffffff168152602001908152602001600020600101819055508091505092915050565b670de0b6b3a764000081565b600260009054906101000a900473ffffffffffffffffffffffffffffffffffffffff1681565b60158181548110612f0b57fe5b906000526020600020016000915054906101000a900473ffffffffffffffffffffffffffffffffffffffff1681565b670f43fc2c04ee000081565b6000806000809054906101000a900473ffffffffffffffffffffffffffffffffffffffff1673ffffffffffffffffffffffffffffffffffffffff16635eb52fca6040518163ffffffff1660e01b815260040160206040518083038186803b158015612fb057600080fd5b505afa158015612fc4573d6000803e3d6000fd5b505050506040513d6020811015612fda57600080fd5b810190808051906020019092919050505090506000600160009054906101000a900473ffffffffffffffffffffffffffffffffffffffff1673ffffffffffffffffffffffffffffffffffffffff16635eb52fca6040518163ffffffff1660e01b815260040160206040518083038186803b15801561305757600080fd5b505afa15801561306b573d6000803e3d6000fd5b505050506040513d602081101561308157600080fd5b810190808051906020019092919050505090506130a7818361687e90919063ffffffff16565b9250505090565b60165481565b6130bc613a98565b61312e576040517f08c379a00000000000000000000000000000000000000000000000000000000081526004018080602001828103825260208152602001807f4f776e61626c653a2063616c6c6572206973206e6f7420746865206f776e657281525060200191505060405180910390fd5b6131378b616906565b6131408a616906565b61314989616906565b61315288616906565b61315b87616906565b61316486616906565b61316d85616906565b61317684616906565b61317f83616906565b61318882616906565b61319181616906565b8a600460006101000a81548173ffffffffffffffffffffffffffffffffffffffff021916908373ffffffffffffffffffffffffffffffffffffffff160217905550896000806101000a81548173ffffffffffffffffffffffffffffffffffffffff021916908373ffffffffffffffffffffffffffffffffffffffff16021790555088600160006101000a81548173ffffffffffffffffffffffffffffffffffffffff021916908373ffffffffffffffffffffffffffffffffffffffff16021790555087600560006101000a81548173ffffffffffffffffffffffffffffffffffffffff021916908373ffffffffffffffffffffffffffffffffffffffff16021790555086600660006101000a81548173ffffffffffffffffffffffffffffffffffffffff021916908373ffffffffffffffffffffffffffffffffffffffff16021790555085600760006101000a81548173ffffffffffffffffffffffffffffffffffffffff021916908373ffffffffffffffffffffffffffffffffffffffff16021790555084600260006101000a81548173ffffffffffffffffffffffffffffffffffffffff021916908373ffffffffffffffffffffffffffffffffffffffff16021790555083600860006101000a81548173ffffffffffffffffffffffffffffffffffffffff021916908373ffffffffffffffffffffffffffffffffffffffff16021790555082600b60006101000a81548173ffffffffffffffffffffffffffffffffffffffff021916908373ffffffffffffffffffffffffffffffffffffffff16021790555081600960006101000a81548173ffffffffffffffffffffffffffffffffffffffff021916908373ffffffffffffffffffffffffffffffffffffffff16021790555080600a60006101000a81548173ffffffffffffffffffffffffffffffffffffffff021916908373ffffffffffffffffffffffffffffffffffffffff1602179055507f3ca631ffcd2a9b5d9ae18543fc82f58eb4ca33af9e6ab01b7a8e95331e6ed9858b604051808273ffffffffffffffffffffffffffffffffffffffff1673ffffffffffffffffffffffffffffffffffffffff16815260200191505060405180910390a17f78f058b189175430c48dc02699e3a0031ea4ff781536dc2fab847de4babdd8828a604051808273ffffffffffffffffffffffffffffffffffffffff1673ffffffffffffffffffffffffffffffffffffffff16815260200191505060405180910390a17f5ee0cae2f063ed938bb55046f6a932fb6ae792bf43624806bb90abe68a50be9b89604051808273ffffffffffffffffffffffffffffffffffffffff1673ffffffffffffffffffffffffffffffffffffffff16815260200191505060405180910390a17f82966d27eea39b038ee0fa30cd16532bb24f6e65d31cb58fb227aa5766cdcc7f88604051808273ffffffffffffffffffffffffffffffffffffffff1673ffffffffffffffffffffffffffffffffffffffff16815260200191505060405180910390a17fcfb07d791fcafc032b35837b50eb84b74df518cf4cc287e8084f47630fa70fa087604051808273ffffffffffffffffffffffffffffffffffffffff1673ffffffffffffffffffffffffffffffffffffffff16815260200191505060405180910390a17fe67f36a6e961157d6eff83b91f3af5a62131ceb6f04954ef74f51c1c05e7f88d86604051808273ffffffffffffffffffffffffffffffffffffffff1673ffffffffffffffffffffffffffffffffffffffff16815260200191505060405180910390a17f8c537274438aa850a330284665d81a85dd38267d09e4050d416bfc94142db26485604051808273ffffffffffffffffffffffffffffffffffffffff1673ffffffffffffffffffffffffffffffffffffffff16815260200191505060405180910390a17f227eec0ec317af6ab1a9587ffa1c84332522eb4c583a908f89babc05f8f339bd84604051808273ffffffffffffffffffffffffffffffffffffffff1673ffffffffffffffffffffffffffffffffffffffff16815260200191505060405180910390a17f65f4cf077bc01e4742eb5ad98326f6e95b63548ea24b17f8d5e823111fe7880083604051808273ffffffffffffffffffffffffffffffffffffffff1673ffffffffffffffffffffffffffffffffffffffff16815260200191505060405180910390a17f2ac6e99201ddc1b6eac6f8f28662d1ecafee131f6eb98c29de54528a9888a7d182604051808273ffffffffffffffffffffffffffffffffffffffff1673ffffffffffffffffffffffffffffffffffffffff16815260200191505060405180910390a17f756ebc192164c295bba134b5aacd72cc7aff8098a670d1f0a5f6b3a0b4ce670781604051808273ffffffffffffffffffffffffffffffffffffffff1673ffffffffffffffffffffffffffffffffffffffff16815260200191505060405180910390a16138a4616a29565b5050505050505050505050565b6000809054906101000a900473ffffffffffffffffffffffffffffffffffffffff1681565b60105481565b60006138e9848484616aea565b90509392505050565b6138fa614de0565b61390381616b51565b50565b6000806000809054906101000a900473ffffffffffffffffffffffffffffffffffffffff1673ffffffffffffffffffffffffffffffffffffffff166314f6c3be6040518163ffffffff1660e01b815260040160206040518083038186803b15801561397057600080fd5b505afa158015613984573d6000803e3d6000fd5b505050506040513d602081101561399a57600080fd5b810190808051906020019092919050505090506000600160009054906101000a900473ffffffffffffffffffffffffffffffffffffffff1673ffffffffffffffffffffffffffffffffffffffff166314f6c3be6040518163ffffffff1660e01b815260040160206040518083038186803b158015613a1757600080fd5b505afa158015613a2b573d6000803e3d6000fd5b505050506040513d6020811015613a4157600080fd5b81019080805190602001909291905050509050613a67818361687e90919063ffffffff16565b9250505090565b6000600360009054906101000a900473ffffffffffffffffffffffffffffffffffffffff16905090565b6000600360009054906101000a900473ffffffffffffffffffffffffffffffffffffffff1673ffffffffffffffffffffffffffffffffffffffff163373ffffffffffffffffffffffffffffffffffffffff1614905090565b60115481565b6000613b00614de0565b6000613b5783600e60008773ffffffffffffffffffffffffffffffffffffffff1673ffffffffffffffffffffffffffffffffffffffff1681526020019081526020016000206000015461687e90919063ffffffff16565b905080600e60008673ffffffffffffffffffffffffffffffffffffffff1673ffffffffffffffffffffffffffffffffffffffff168152602001908152602001600020600001819055508091505092915050565b60125481565b670de0b6b3a764000081565b600a60009054906101000a900473ffffffffffffffffffffffffffffffffffffffff1681565b6040518060400160405280600c81526020017f54726f76654d616e61676572000000000000000000000000000000000000000081525081565b6000613c2682616c29565b9050919050565b600b60009054906101000a900473ffffffffffffffffffffffffffffffffffffffff1681565b6000806000613c6184616c3d565b915091506000613c718383616d1b565b9050809350505050919050565b600460009054906101000a900473ffffffffffffffffffffffffffffffffffffffff1681565b6000613caf82616d84565b9050919050565b600860009054906101000a900473ffffffffffffffffffffffffffffffffffffffff1681565b600080600080600e60008673ffffffffffffffffffffffffffffffffffffffff1673ffffffffffffffffffffffffffffffffffffffff168152602001908152602001600020600001549350600e60008673ffffffffffffffffffffffffffffffffffffffff1673ffffffffffffffffffffffffffffffffffffffff168152602001908152602001600020600101549250613d7585614c24565b9150613d80856125a7565b9050613d95828561687e90919063ffffffff16565b9350613daa818461687e90919063ffffffff16565b92509193509193565b613dbb6193db565b6040518060e001604052806000809054906101000a900473ffffffffffffffffffffffffffffffffffffffff1673ffffffffffffffffffffffffffffffffffffffff168152602001600160009054906101000a900473ffffffffffffffffffffffffffffffffffffffff1673ffffffffffffffffffffffffffffffffffffffff168152602001600860009054906101000a900473ffffffffffffffffffffffffffffffffffffffff1673ffffffffffffffffffffffffffffffffffffffff168152602001600a60009054906101000a900473ffffffffffffffffffffffffffffffffffffffff1673ffffffffffffffffffffffffffffffffffffffff168152602001600b60009054906101000a900473ffffffffffffffffffffffffffffffffffffffff1673ffffffffffffffffffffffffffffffffffffffff168152602001600760009054906101000a900473ffffffffffffffffffffffffffffffffffffffff1673ffffffffffffffffffffffffffffffffffffffff168152602001600660009054906101000a900473ffffffffffffffffffffffffffffffffffffffff1673ffffffffffffffffffffffffffffffffffffffff168152509050613f7f6194b2565b613f8883616db4565b613f90616e3a565b600260009054906101000a900473ffffffffffffffffffffffffffffffffffffffff1673ffffffffffffffffffffffffffffffffffffffff16630fdb11cf6040518163ffffffff1660e01b8152600401602060405180830381600087803b158015613ffa57600080fd5b505af115801561400e573d6000803e3d6000fd5b505050506040513d602081101561402457600080fd5b81019080805190602001909291905050508160c001818152505061404b8160c00151616f52565b61405489616fbe565b6140638260400151338b61701a565b61406b612f46565b8160e00181815250508060e00151826040015173ffffffffffffffffffffffffffffffffffffffff166370a08231336040518263ffffffff1660e01b8152600401808273ffffffffffffffffffffffffffffffffffffffff1673ffffffffffffffffffffffffffffffffffffffff16815260200191505060206040518083038186803b1580156140fa57600080fd5b505afa15801561410e573d6000803e3d6000fd5b505050506040513d602081101561412457600080fd5b8101908080519060200190929190505050111561413d57fe5b88816000018181525050600061415c83608001518a8460c0015161712f565b156141695788905061430b565b826080015173ffffffffffffffffffffffffffffffffffffffff16634d6228316040518163ffffffff1660e01b815260040160206040518083038186803b1580156141b357600080fd5b505afa1580156141c7573d6000803e3d6000fd5b505050506040513d60208110156141dd57600080fd5b810190808051906020019092919050505090505b600073ffffffffffffffffffffffffffffffffffffffff168173ffffffffffffffffffffffffffffffffffffffff16141580156142425750670f43fc2c04ee0000614240828460c0015161495d565b105b1561430a57826080015173ffffffffffffffffffffffffffffffffffffffff1663b72703ac826040518263ffffffff1660e01b8152600401808273ffffffffffffffffffffffffffffffffffffffff1673ffffffffffffffffffffffffffffffffffffffff16815260200191505060206040518083038186803b1580156142c857600080fd5b505afa1580156142dc573d6000803e3d6000fd5b505050506040513d60208110156142f257600080fd5b810190808051906020019092919050505090506141f1565b5b6000851415614338577fffffffffffffffffffffffffffffffffffffffffffffffffffffffffffffffff94505b5b600073ffffffffffffffffffffffffffffffffffffffff168173ffffffffffffffffffffffffffffffffffffffff161415801561437a575060008260000151115b80156143865750600085115b1561450f578480600190039550506000836080015173ffffffffffffffffffffffffffffffffffffffff1663b72703ac836040518263ffffffff1660e01b8152600401808273ffffffffffffffffffffffffffffffffffffffff1673ffffffffffffffffffffffffffffffffffffffff16815260200191505060206040518083038186803b15801561441757600080fd5b505afa15801561442b573d6000803e3d6000fd5b505050506040513d602081101561444157600080fd5b810190808051906020019092919050505090506144678460000151856020015184614e88565b61446f6194f7565b614486858486600001518760c001518e8e8e61735b565b905080604001511561449957505061450f565b6144b48160000151856020015161687e90919063ffffffff16565b8460200181815250506144d88160200151856040015161687e90919063ffffffff16565b8460400181815250506144fc8160000151856000015161517690919063ffffffff16565b8460000181815250508192505050614339565b600082604001511161456c576040517f08c379a00000000000000000000000000000000000000000000000000000000081526004018080602001828103825260298152602001806195dd6029913960400191505060405180910390fd5b61458382604001518360c001518460e00151617838565b506145918260400151617909565b8260600181815250506145ad8260600151836040015186617923565b826000015173ffffffffffffffffffffffffffffffffffffffff166364a197f3846060015184606001516040518363ffffffff1660e01b8152600401808373ffffffffffffffffffffffffffffffffffffffff1673ffffffffffffffffffffffffffffffffffffffff16815260200182815260200192505050600060405180830381600087803b15801561464057600080fd5b505af1158015614654573d6000803e3d6000fd5b50505050826060015173ffffffffffffffffffffffffffffffffffffffff16631e3e2a1a83606001516040518263ffffffff1660e01b815260040180828152602001915050600060405180830381600087803b1580156146b357600080fd5b505af11580156146c7573d6000803e3d6000fd5b505050506146e68260600151836040015161517690919063ffffffff16565b8260800181815250507f43a3f4082a4dbc33d78e317d2497d3a730bc7fc3574159dcea1056e62e5d9ad88a8360200151846040015185606001516040518085815260200184815260200183815260200182815260200194505050505060405180910390a1826040015173ffffffffffffffffffffffffffffffffffffffff16639dc29fac3384602001516040518363ffffffff1660e01b8152600401808373ffffffffffffffffffffffffffffffffffffffff1673ffffffffffffffffffffffffffffffffffffffff16815260200182815260200192505050600060405180830381600087803b1580156147d957600080fd5b505af11580156147ed573d6000803e3d6000fd5b50505050826000015173ffffffffffffffffffffffffffffffffffffffff166338d995a883602001516040518263ffffffff1660e01b815260040180828152602001915050600060405180830381600087803b15801561484c57600080fd5b505af1158015614860573d6000803e3d6000fd5b50505050826000015173ffffffffffffffffffffffffffffffffffffffff166364a197f33384608001516040518363ffffffff1660e01b8152600401808373ffffffffffffffffffffffffffffffffffffffff1673ffffffffffffffffffffffffffffffffffffffff16815260200182815260200192505050600060405180830381600087803b1580156148f357600080fd5b505af1158015614907573d6000803e3d6000fd5b5050505050505050505050505050565b600f5481565b6212750081565b60006149366149316160f8565b615ea3565b905090565b670ddd4b8c6c7d70d881565b61494f614de0565b61495a8160026179d0565b50565b600080600061496b85616c3d565b91509150600061497c838387616aea565b905080935050505092915050565b600d5481565b600061499a614de0565b60006149f183600e60008773ffffffffffffffffffffffffffffffffffffffff1673ffffffffffffffffffffffffffffffffffffffff1681526020019081526020016000206001015461517690919063ffffffff16565b905080600e60008673ffffffffffffffffffffffffffffffffffffffff1673ffffffffffffffffffffffffffffffffffffffff168152602001908152602001600020600101819055508091505092915050565b6000680ad78ebc5ac6200000905090565b6000614a68614a62614924565b83617c72565b9050919050565b6000600e60008373ffffffffffffffffffffffffffffffffffffffff1673ffffffffffffffffffffffffffffffffffffffff168152602001908152602001600020600001549050919050565b600060158281548110614aca57fe5b9060005260206000200160009054906101000a900473ffffffffffffffffffffffffffffffffffffffff169050919050565b6000614b066160f8565b600c819055506000600c5410158015614b295750670de0b6b3a7640000600c5411155b614b2f57fe5b614b37616151565b600c54905090565b60135481565b60006015805490509050614b598282617d06565b5050565b600060016004811115614b6c57fe5b600e60008473ffffffffffffffffffffffffffffffffffffffff1673ffffffffffffffffffffffffffffffffffffffff16815260200190815260200160002060030160009054906101000a900460ff166004811115614bc757fe5b14614bd55760009050614c1f565b601254601460008473ffffffffffffffffffffffffffffffffffffffff1673ffffffffffffffffffffffffffffffffffffffff168152602001908152602001600020600001541090505b919050565b600080601460008473ffffffffffffffffffffffffffffffffffffffff1673ffffffffffffffffffffffffffffffffffffffff1681526020019081526020016000206001015490506000614c838260135461517690919063ffffffff16565b90506000811480614cfa575060016004811115614c9c57fe5b600e60008673ffffffffffffffffffffffffffffffffffffffff1673ffffffffffffffffffffffffffffffffffffffff16815260200190815260200160002060030160009054906101000a900460ff166004811115614cf757fe5b14155b15614d0a57600092505050614d8a565b6000600e60008673ffffffffffffffffffffffffffffffffffffffff1673ffffffffffffffffffffffffffffffffffffffff1681526020019081526020016000206002015490506000614d80670de0b6b3a7640000614d72858561602890919063ffffffff16565b6160ae90919063ffffffff16565b9050809450505050505b919050565b6000614d9c600c5461682e565b905090565b60056103e8670de0b6b3a764000081614db657fe5b040281565b614dc3614de0565b614dcc8161801d565b50565b6000614dda82617909565b50919050565b600460009054906101000a900473ffffffffffffffffffffffffffffffffffffffff1673ffffffffffffffffffffffffffffffffffffffff163373ffffffffffffffffffffffffffffffffffffffff1614614e86576040517f08c379a000000000000000000000000000000000000000000000000000000000815260040180806020018281038252603b8152602001806196df603b913960400191505060405180910390fd5b565b614e9181614b5d565b1561514257614e9f81615ee6565b6000614eaa826125a7565b90506000614eb783614c24565b9050614f0e82600e60008673ffffffffffffffffffffffffffffffffffffffff1673ffffffffffffffffffffffffffffffffffffffff1681526020019081526020016000206001015461687e90919063ffffffff16565b600e60008573ffffffffffffffffffffffffffffffffffffffff1673ffffffffffffffffffffffffffffffffffffffff16815260200190815260200160002060010181905550614fa981600e60008673ffffffffffffffffffffffffffffffffffffffff1673ffffffffffffffffffffffffffffffffffffffff1681526020019081526020016000206000015461687e90919063ffffffff16565b600e60008573ffffffffffffffffffffffffffffffffffffffff1673ffffffffffffffffffffffffffffffffffffffff16815260200190815260200160002060000181905550614ff883616b51565b615004858583856180cb565b8273ffffffffffffffffffffffffffffffffffffffff167fc3770d654ed33aeea6bf11ac8ef05d02a6a04ed4686dd2f624d853bbec43cc8b600e60008673ffffffffffffffffffffffffffffffffffffffff1673ffffffffffffffffffffffffffffffffffffffff16815260200190815260200160002060000154600e60008773ffffffffffffffffffffffffffffffffffffffff1673ffffffffffffffffffffffffffffffffffffffff16815260200190815260200160002060010154600e60008873ffffffffffffffffffffffffffffffffffffffff1673ffffffffffffffffffffffffffffffffffffffff1681526020019081526020016000206002015460006040518085815260200184815260200183815260200182600381111561512957fe5b60ff16815260200194505050505060405180910390a250505b505050565b6000615171603c615163600d544261517690919063ffffffff16565b6160ae90919063ffffffff16565b905090565b60006151b883836040518060400160405280601e81526020017f536166654d6174683a207375627472616374696f6e206f766572666c6f770000815250618212565b905092915050565b60006015829080600181540180825580915050600190039060005260206000200160009091909190916101000a81548173ffffffffffffffffffffffffffffffffffffffff021916908373ffffffffffffffffffffffffffffffffffffffff16021790555061523e600160158054905061517690919063ffffffff16565b905080600e60008473ffffffffffffffffffffffffffffffffffffffff1673ffffffffffffffffffffffffffffffffffffffff16815260200190815260200160002060030160016101000a8154816fffffffffffffffffffffffffffffffff02191690836fffffffffffffffffffffffffffffffff160217905550809050919050565b60008061530f600e60008573ffffffffffffffffffffffffffffffffffffffff1673ffffffffffffffffffffffffffffffffffffffff168152602001908152602001600020600101546182d2565b90506000600e60008573ffffffffffffffffffffffffffffffffffffffff1673ffffffffffffffffffffffffffffffffffffffff16815260200190815260200160002060020154905081600e60008673ffffffffffffffffffffffffffffffffffffffff1673ffffffffffffffffffffffffffffffffffffffff168152602001908152602001600020600201819055506153c6826153b883600f5461517690919063ffffffff16565b61687e90919063ffffffff16565b600f819055507f6bac5e0eb3c44eb03a60ab11ec3a2c051771616aecadbcfff2630aabae520382600f546040518082815260200191505060405180910390a18192505050919050565b60008061541b83616d84565b90506714d1120d7b1600008110915050919050565b61543861938f565b61544061951a565b61544861956f565b84826000018181525050600082608001901515908115158152505061546b612f46565b8260a001818152505061547c613906565b8260c001818152505060008260200181815250505b83518260200151101561570a57838260200151815181106154ae57fe5b6020026020010151826060019073ffffffffffffffffffffffffffffffffffffffff16908173ffffffffffffffffffffffffffffffffffffffff1681525050600160048111156154fa57fe5b600e6000846060015173ffffffffffffffffffffffffffffffffffffffff1673ffffffffffffffffffffffffffffffffffffffff16815260200190815260200160002060030160009054906101000a900460ff16600481111561555957fe5b14615563576156f5565b61557182606001518761495d565b826040018181525050816080015161568257670f43fc2c04ee00008260400151101580156155a3575060008260000151145b156155ad576156f5565b60006155c28360c001518460a0015189616aea565b90506155df8989856060015186604001518760000151868d618329565b91506155fc8260800151846000015161517690919063ffffffff16565b83600001818152505061562082608001518460a0015161517690919063ffffffff16565b8360a00181815250506156448260a001518460c0015161517690919063ffffffff16565b8360c001818152505061565784836188f4565b935061566c8360c001518460a0015189618a4c565b15836080019015159081151581525050506156f4565b8160800151801561569e5750670f43fc2c04ee00008260400151105b156156ee576156b7888884606001518560000151618a71565b90506156d48160800151836000015161517690919063ffffffff16565b8260000181815250506156e783826188f4565b92506156f3565b6156f5565b5b5b81602001805180919060010181525050615491565b505095945050505050565b61571d61938f565b61572561951a565b61572d61956f565b8482600001818152505060008260200181815250505b835182602001511015615826578382602001518151811061576057fe5b6020026020010151826060019073ffffffffffffffffffffffffffffffffffffffff16908173ffffffffffffffffffffffffffffffffffffffff16815250506157ad82606001518761495d565b826040018181525050670f43fc2c04ee000082604001511015615811576157de888884606001518560000151618a71565b90506157fb8160800151836000015161517690919063ffffffff16565b82600001818152505061580e83826188f4565b92505b81602001805180919060010181525050615743565b505095945050505050565b600082141561583f57615b24565b6000615870601654615862670de0b6b3a76400008561602890919063ffffffff16565b61687e90919063ffffffff16565b905060006158a3601754615895670de0b6b3a76400008761602890919063ffffffff16565b61687e90919063ffffffff16565b905060006158bc600f54846160ae90919063ffffffff16565b905060006158d5600f54846160ae90919063ffffffff16565b90506158fe6158ef600f548461602890919063ffffffff16565b8561517690919063ffffffff16565b60168190555061592b61591c600f548361602890919063ffffffff16565b8461517690919063ffffffff16565b6017819055506159468260125461687e90919063ffffffff16565b6012819055506159618160135461687e90919063ffffffff16565b6013819055507f9f8bc8ab0daf5bceef75ecfd2085d1fcc6548c657ea970d9a23a60610d0737e3601254601354604051808381526020018281526020019250505060405180910390a18773ffffffffffffffffffffffffffffffffffffffff166338d995a8876040518263ffffffff1660e01b815260040180828152602001915050600060405180830381600087803b1580156159fd57600080fd5b505af1158015615a11573d6000803e3d6000fd5b505050508673ffffffffffffffffffffffffffffffffffffffff1663cfb9329a876040518263ffffffff1660e01b815260040180828152602001915050600060405180830381600087803b158015615a6857600080fd5b505af1158015615a7c573d6000803e3d6000fd5b505050508773ffffffffffffffffffffffffffffffffffffffff166364a197f388876040518363ffffffff1660e01b8152600401808373ffffffffffffffffffffffffffffffffffffffff1673ffffffffffffffffffffffffffffffffffffffff16815260200182815260200192505050600060405180830381600087803b158015615b0757600080fd5b505af1158015615b1b573d6000803e3d6000fd5b50505050505050505b50505050565b600f5460108190555060008273ffffffffffffffffffffffffffffffffffffffff166314f6c3be6040518163ffffffff1660e01b815260040160206040518083038186803b158015615b7b57600080fd5b505afa158015615b8f573d6000803e3d6000fd5b505050506040513d6020811015615ba557600080fd5b810190808051906020019092919050505090506000600160009054906101000a900473ffffffffffffffffffffffffffffffffffffffff1673ffffffffffffffffffffffffffffffffffffffff166314f6c3be6040518163ffffffff1660e01b815260040160206040518083038186803b158015615c2257600080fd5b505afa158015615c36573d6000803e3d6000fd5b505050506040513d6020811015615c4c57600080fd5b81019080805190602001909291905050509050615c8481615c76858561517690919063ffffffff16565b61687e90919063ffffffff16565b6011819055507f51bf4c63ec3cba9d03d43238abbdd979dd91bd16d9895c74ceea9118c7baaf60601054601154604051808381526020018281526020019250505060405180910390a150505050565b6000821115615df457600860009054906101000a900473ffffffffffffffffffffffffffffffffffffffff1673ffffffffffffffffffffffffffffffffffffffff166320c582be600660009054906101000a900473ffffffffffffffffffffffffffffffffffffffff1685856040518463ffffffff1660e01b8152600401808473ffffffffffffffffffffffffffffffffffffffff1673ffffffffffffffffffffffffffffffffffffffff1681526020018373ffffffffffffffffffffffffffffffffffffffff1673ffffffffffffffffffffffffffffffffffffffff1681526020018281526020019350505050600060405180830381600087803b158015615ddb57600080fd5b505af1158015615def573d6000803e3d6000fd5b505050505b6000811115615e9d578373ffffffffffffffffffffffffffffffffffffffff166364a197f384836040518363ffffffff1660e01b8152600401808373ffffffffffffffffffffffffffffffffffffffff1673ffffffffffffffffffffffffffffffffffffffff16815260200182815260200192505050600060405180830381600087803b158015615e8457600080fd5b505af1158015615e98573d6000803e3d6000fd5b505050505b50505050565b6000615edf615ed18360056103e8670de0b6b3a764000081615ec157fe5b040261687e90919063ffffffff16565b670de0b6b3a7640000618c4a565b9050919050565b60016004811115615ef357fe5b600e60008373ffffffffffffffffffffffffffffffffffffffff1673ffffffffffffffffffffffffffffffffffffffff16815260200190815260200160002060030160009054906101000a900460ff166004811115615f4e57fe5b14615fa4576040517f08c379a000000000000000000000000000000000000000000000000000000000815260040180806020018281038252602f815260200180619830602f913960400191505060405180910390fd5b50565b6000615fd6670de0b6b3a7640000615fc8848661602890919063ffffffff16565b6160ae90919063ffffffff16565b905092915050565b6000615ffc680ad78ebc5ac62000008361687e90919063ffffffff16565b9050919050565b6000616021680ad78ebc5ac62000008361517690919063ffffffff16565b9050919050565b60008083141561603b57600090506160a8565b600082840290508284828161604c57fe5b04146160a3576040517f08c379a00000000000000000000000000000000000000000000000000000000081526004018080602001828103825260218152602001806196706021913960400191505060405180910390fd5b809150505b92915050565b60006160f083836040518060400160405280601a81526020017f536166654d6174683a206469766973696f6e206279207a65726f000000000000815250618c63565b905092915050565b600080616103615147565b90506000616119670ddd4b8c6c7d70d883618d29565b905061614a670de0b6b3a764000061613c83600c5461602890919063ffffffff16565b6160ae90919063ffffffff16565b9250505090565b6000616168600d544261517690919063ffffffff16565b9050603c81106161b15742600d819055507f860f8d2f0c74dd487e89e2883e3b25b8159ce1e1b3433a291cba7b82c508f3bc426040518082815260200191505060405180910390a15b50565b6161bc61938f565b6161c461951a565b6161cc61956f565b8482600001818152505060008260800190151590811515815250506161ef612f46565b8260a0018181525050616200613906565b8260c0018181525050866080015173ffffffffffffffffffffffffffffffffffffffff16634d6228316040518163ffffffff1660e01b815260040160206040518083038186803b15801561625357600080fd5b505afa158015616267573d6000803e3d6000fd5b505050506040513d602081101561627d57600080fd5b8101908080519060200190929190505050826060019073ffffffffffffffffffffffffffffffffffffffff16908173ffffffffffffffffffffffffffffffffffffffff16815250506000876080015173ffffffffffffffffffffffffffffffffffffffff16631e2231436040518163ffffffff1660e01b815260040160206040518083038186803b15801561631157600080fd5b505afa158015616325573d6000803e3d6000fd5b505050506040513d602081101561633b57600080fd5b8101908080519060200190929190505050905060008360200181815250505b84836020015110801561639d57508073ffffffffffffffffffffffffffffffffffffffff16836060015173ffffffffffffffffffffffffffffffffffffffff1614155b1561666e576000886080015173ffffffffffffffffffffffffffffffffffffffff1663b72703ac85606001516040518263ffffffff1660e01b8152600401808273ffffffffffffffffffffffffffffffffffffffff1673ffffffffffffffffffffffffffffffffffffffff16815260200191505060206040518083038186803b15801561642957600080fd5b505afa15801561643d573d6000803e3d6000fd5b505050506040513d602081101561645357600080fd5b8101908080519060200190929190505050905061647484606001518961495d565b84604001818152505083608001516165a557670f43fc2c04ee00008460400151101580156164a6575060008460000151145b156164b1575061666e565b60006164c68560c001518660a001518b616aea565b90506164eb8a600001518b60200151876060015188604001518960000151868f618329565b93506165088460800151866000015161517690919063ffffffff16565b85600001818152505061652c84608001518660a0015161517690919063ffffffff16565b8560a00181815250506165678461010001516165598660a001518860c0015161517690919063ffffffff16565b61517690919063ffffffff16565b8560c001818152505061657a86856188f4565b955061658f8560c001518660a001518b618a4c565b1585608001901515908115158152505050616620565b836080015180156165c15750670f43fc2c04ee00008460400151105b15616619576165e289600001518a6020015186606001518760000151618a71565b92506165ff8360800151856000015161517690919063ffffffff16565b84600001818152505061661285846188f4565b945061661f565b5061666e565b5b80846060019073ffffffffffffffffffffffffffffffffffffffff16908173ffffffffffffffffffffffffffffffffffffffff1681525050508260200180518091906001018152505061635a565b505050949350505050565b61668161938f565b61668961951a565b61669161956f565b6000600b60009054906101000a900473ffffffffffffffffffffffffffffffffffffffff1690508583600001818152505060008360200181815250505b8483602001511015616822578073ffffffffffffffffffffffffffffffffffffffff16634d6228316040518163ffffffff1660e01b815260040160206040518083038186803b15801561672057600080fd5b505afa158015616734573d6000803e3d6000fd5b505050506040513d602081101561674a57600080fd5b8101908080519060200190929190505050836060019073ffffffffffffffffffffffffffffffffffffffff16908173ffffffffffffffffffffffffffffffffffffffff16815250506167a083606001518861495d565b836040018181525050670f43fc2c04ee000083604001511015616808576167d1898985606001518660000151618a71565b91506167ee8260800151846000015161517690919063ffffffff16565b83600001818152505061680184836188f4565b935061680d565b616822565b826020018051809190600101815250506166ce565b50505095945050505050565b600061687761685c8360056103e8670de0b6b3a76400008161684c57fe5b040261687e90919063ffffffff16565b60056064670de0b6b3a76400008161687057fe5b0402618c4a565b9050919050565b6000808284019050838110156168fc576040517f08c379a000000000000000000000000000000000000000000000000000000000815260040180806020018281038252601b8152602001807f536166654d6174683a206164646974696f6e206f766572666c6f77000000000081525060200191505060405180910390fd5b8091505092915050565b600073ffffffffffffffffffffffffffffffffffffffff168173ffffffffffffffffffffffffffffffffffffffff1614156169a9576040517f08c379a000000000000000000000000000000000000000000000000000000000815260040180806020018281038252601e8152602001807f4163636f756e742063616e6e6f74206265207a65726f2061646472657373000081525060200191505060405180910390fd5b6000813b905060008111616a25576040517f08c379a00000000000000000000000000000000000000000000000000000000081526004018080602001828103825260208152602001807f4163636f756e7420636f64652073697a652063616e6e6f74206265207a65726f81525060200191505060405180910390fd5b5050565b600073ffffffffffffffffffffffffffffffffffffffff16600360009054906101000a900473ffffffffffffffffffffffffffffffffffffffff1673ffffffffffffffffffffffffffffffffffffffff167f8be0079c531659141344cd1fd0a4f28419497f9722a3daafe3b4186f6b6457e060405160405180910390a36000600360006101000a81548173ffffffffffffffffffffffffffffffffffffffff021916908373ffffffffffffffffffffffffffffffffffffffff160217905550565b600080831115616b26576000616b1b84616b0d858861602890919063ffffffff16565b6160ae90919063ffffffff16565b905080915050616b4a565b7fffffffffffffffffffffffffffffffffffffffffffffffffffffffffffffffff90505b9392505050565b601254601460008373ffffffffffffffffffffffffffffffffffffffff1673ffffffffffffffffffffffffffffffffffffffff16815260200190815260200160002060000181905550601354601460008373ffffffffffffffffffffffffffffffffffffffff1673ffffffffffffffffffffffffffffffffffffffff168152602001908152602001600020600101819055507fc437f324d85e369394148dd9d62f98f534b382e01ed3dd2eb98138fb6d3ab49a601254601354604051808381526020018281526020019250505060405180910390a150565b600060c88281616c3557fe5b049050919050565b6000806000616c4b846125a7565b90506000616c5885614c24565b90506000616cb183600e60008973ffffffffffffffffffffffffffffffffffffffff1673ffffffffffffffffffffffffffffffffffffffff1681526020019081526020016000206001015461687e90919063ffffffff16565b90506000616d0a83600e60008a73ffffffffffffffffffffffffffffffffffffffff1673ffffffffffffffffffffffffffffffffffffffff1681526020019081526020016000206000015461687e90919063ffffffff16565b905081819550955050505050915091565b600080821115616d5a57616d5382616d4568056bc75e2d631000008661602890919063ffffffff16565b6160ae90919063ffffffff16565b9050616d7e565b7fffffffffffffffffffffffffffffffffffffffffffffffffffffffffffffffff90505b92915050565b600080616d8f613906565b90506000616d9b612f46565b9050616da8828286616aea565b92508292505050919050565b60056103e8670de0b6b3a764000081616dc957fe5b04028110158015616de25750670de0b6b3a76400008111155b616e37576040517f08c379a00000000000000000000000000000000000000000000000000000000081526004018080602001828103825260308152602001806197b46030913960400191505060405180910390fd5b50565b6000600960009054906101000a900473ffffffffffffffffffffffffffffffffffffffff1673ffffffffffffffffffffffffffffffffffffffff16633c84b7c26040518163ffffffff1660e01b815260040160206040518083038186803b158015616ea457600080fd5b505afa158015616eb8573d6000803e3d6000fd5b505050506040513d6020811015616ece57600080fd5b81019080805190602001909291905050509050616ef7621275008261687e90919063ffffffff16565b421015616f4f576040517f08c379a00000000000000000000000000000000000000000000000000000000081526004018080602001828103825260408152602001806196306040913960400191505060405180910390fd5b50565b670f43fc2c04ee0000616f6482616d84565b1015616fbb576040517f08c379a000000000000000000000000000000000000000000000000000000000815260040180806020018281038252602a8152602001806197e4602a913960400191505060405180910390fd5b50565b60008111617017576040517f08c379a000000000000000000000000000000000000000000000000000000000815260040180806020018281038252602e815260200180619750602e913960400191505060405180910390fd5b50565b808373ffffffffffffffffffffffffffffffffffffffff166370a08231846040518263ffffffff1660e01b8152600401808273ffffffffffffffffffffffffffffffffffffffff1673ffffffffffffffffffffffffffffffffffffffff16815260200191505060206040518083038186803b15801561709857600080fd5b505afa1580156170ac573d6000803e3d6000fd5b505050506040513d60208110156170c257600080fd5b8101908080519060200190929190505050101561712a576040517f08c379a000000000000000000000000000000000000000000000000000000000815260040180806020018281038252604e815260200180619691604e913960600191505060405180910390fd5b505050565b60008073ffffffffffffffffffffffffffffffffffffffff168373ffffffffffffffffffffffffffffffffffffffff16148061722057508373ffffffffffffffffffffffffffffffffffffffff16635dbe47e8846040518263ffffffff1660e01b8152600401808273ffffffffffffffffffffffffffffffffffffffff1673ffffffffffffffffffffffffffffffffffffffff16815260200191505060206040518083038186803b1580156171e357600080fd5b505afa1580156171f7573d6000803e3d6000fd5b505050506040513d602081101561720d57600080fd5b8101908080519060200190929190505050155b8061723b5750670f43fc2c04ee0000617239848461495d565b105b156172495760009050617354565b60008473ffffffffffffffffffffffffffffffffffffffff1663765e0159856040518263ffffffff1660e01b8152600401808273ffffffffffffffffffffffffffffffffffffffff1673ffffffffffffffffffffffffffffffffffffffff16815260200191505060206040518083038186803b1580156172c857600080fd5b505afa1580156172dc573d6000803e3d6000fd5b505050506040513d60208110156172f257600080fd5b81019080805190602001909291905050509050600073ffffffffffffffffffffffffffffffffffffffff168173ffffffffffffffffffffffffffffffffffffffff1614806173505750670f43fc2c04ee000061734e828561495d565b105b9150505b9392505050565b6173636194f7565b6173ca866173c5680ad78ebc5ac6200000600e60008c73ffffffffffffffffffffffffffffffffffffffff1673ffffffffffffffffffffffffffffffffffffffff1681526020019081526020016000206000015461517690919063ffffffff16565b618c4a565b816000018181525050617404856173f6670de0b6b3a7640000846000015161602890919063ffffffff16565b6160ae90919063ffffffff16565b81602001818152505060006174688260000151600e60008b73ffffffffffffffffffffffffffffffffffffffff1673ffffffffffffffffffffffffffffffffffffffff1681526020019081526020016000206000015461517690919063ffffffff16565b905060006174c58360200151600e60008c73ffffffffffffffffffffffffffffffffffffffff1673ffffffffffffffffffffffffffffffffffffffff1681526020019081526020016000206001015461517690919063ffffffff16565b9050680ad78ebc5ac620000082141561757d576174e18961801d565b6174ec8960046179d0565b6175018a8a680ad78ebc5ac620000084618e10565b8873ffffffffffffffffffffffffffffffffffffffff167fc3770d654ed33aeea6bf11ac8ef05d02a6a04ed4686dd2f624d853bbec43cc8b600080600060036040518085815260200184815260200183815260200182600381111561756257fe5b60ff16815260200194505050505060405180910390a2617827565b60006175898284616d1b565b905084811415806175aa5750686194049f30f72000006175a884616003565b105b156175cb57600184604001901515908115158152505083935050505061782d565b8a6080015173ffffffffffffffffffffffffffffffffffffffff16632be212608b838a8a6040518563ffffffff1660e01b8152600401808573ffffffffffffffffffffffffffffffffffffffff1673ffffffffffffffffffffffffffffffffffffffff1681526020018481526020018373ffffffffffffffffffffffffffffffffffffffff1673ffffffffffffffffffffffffffffffffffffffff1681526020018273ffffffffffffffffffffffffffffffffffffffff1673ffffffffffffffffffffffffffffffffffffffff168152602001945050505050600060405180830381600087803b1580156176be57600080fd5b505af11580156176d2573d6000803e3d6000fd5b5050505082600e60008c73ffffffffffffffffffffffffffffffffffffffff1673ffffffffffffffffffffffffffffffffffffffff1681526020019081526020016000206000018190555081600e60008c73ffffffffffffffffffffffffffffffffffffffff1673ffffffffffffffffffffffffffffffffffffffff1681526020019081526020016000206001018190555061776d8a6152c1565b508973ffffffffffffffffffffffffffffffffffffffff167fc3770d654ed33aeea6bf11ac8ef05d02a6a04ed4686dd2f624d853bbec43cc8b8484600e60008f73ffffffffffffffffffffffffffffffffffffffff1673ffffffffffffffffffffffffffffffffffffffff1681526020019081526020016000206002015460036040518085815260200184815260200183815260200182600381111561780f57fe5b60ff16815260200194505050505060405180910390a2505b82925050505b979650505050505050565b6000806178436160f8565b9050600061786c8461785e878961602890919063ffffffff16565b6160ae90919063ffffffff16565b905060006178966178876002846160ae90919063ffffffff16565b8461687e90919063ffffffff16565b90506178aa81670de0b6b3a7640000618c4a565b9050600081116178b657fe5b80600c819055507fc454ee9b76c52f782a256af821b857ca6e125d1e3333bcede402fec2bed9600c816040518082815260200191505060405180910390a16178fc616151565b8093505050509392505050565b600061791c617916612384565b83617c72565b9050919050565b600061795283617944670de0b6b3a76400008761602890919063ffffffff16565b6160ae90919063ffffffff16565b9050818111156179ca576040517f08c379a000000000000000000000000000000000000000000000000000000000815260040180806020018281038252601d8152602001807f4665652065786365656465642070726f7669646564206d6178696d756d00000081525060200191505060405180910390fd5b50505050565b600060048111156179dd57fe5b8160048111156179e957fe5b14158015617a0e5750600160048111156179ff57fe5b816004811115617a0b57fe5b14155b617a1457fe5b60006015805490509050617a2781619094565b81600e60008573ffffffffffffffffffffffffffffffffffffffff1673ffffffffffffffffffffffffffffffffffffffff16815260200190815260200160002060030160006101000a81548160ff02191690836004811115617a8557fe5b02179055506000600e60008573ffffffffffffffffffffffffffffffffffffffff1673ffffffffffffffffffffffffffffffffffffffff168152602001908152602001600020600101819055506000600e60008573ffffffffffffffffffffffffffffffffffffffff1673ffffffffffffffffffffffffffffffffffffffff168152602001908152602001600020600001819055506000601460008573ffffffffffffffffffffffffffffffffffffffff1673ffffffffffffffffffffffffffffffffffffffff168152602001908152602001600020600001819055506000601460008573ffffffffffffffffffffffffffffffffffffffff1673ffffffffffffffffffffffffffffffffffffffff16815260200190815260200160002060010181905550617bb48382617d06565b600b60009054906101000a900473ffffffffffffffffffffffffffffffffffffffff1673ffffffffffffffffffffffffffffffffffffffff166329092d0e846040518263ffffffff1660e01b8152600401808273ffffffffffffffffffffffffffffffffffffffff1673ffffffffffffffffffffffffffffffffffffffff168152602001915050600060405180830381600087803b158015617c5557600080fd5b505af1158015617c69573d6000803e3d6000fd5b50505050505050565b600080617ca2670de0b6b3a7640000617c94858761602890919063ffffffff16565b6160ae90919063ffffffff16565b9050828110617cfc576040517f08c379a000000000000000000000000000000000000000000000000000000000815260040180806020018281038252603681526020018061977e6036913960400191505060405180910390fd5b8091505092915050565b6000600e60008473ffffffffffffffffffffffffffffffffffffffff1673ffffffffffffffffffffffffffffffffffffffff16815260200190815260200160002060030160009054906101000a900460ff16905060006004811115617d6757fe5b816004811115617d7357fe5b14158015617d98575060016004811115617d8957fe5b816004811115617d9557fe5b14155b617d9e57fe5b6000600e60008573ffffffffffffffffffffffffffffffffffffffff1673ffffffffffffffffffffffffffffffffffffffff16815260200190815260200160002060030160019054906101000a90046fffffffffffffffffffffffffffffffff16905060008390506000617e1c60018361517690919063ffffffff16565b905080836fffffffffffffffffffffffffffffffff161115617e3a57fe5b600060158281548110617e4957fe5b9060005260206000200160009054906101000a900473ffffffffffffffffffffffffffffffffffffffff169050806015856fffffffffffffffffffffffffffffffff1681548110617e9657fe5b9060005260206000200160006101000a81548173ffffffffffffffffffffffffffffffffffffffff021916908373ffffffffffffffffffffffffffffffffffffffff16021790555083600e60008373ffffffffffffffffffffffffffffffffffffffff1673ffffffffffffffffffffffffffffffffffffffff16815260200190815260200160002060030160016101000a8154816fffffffffffffffffffffffffffffffff02191690836fffffffffffffffffffffffffffffffff1602179055507f02b04ae5f7be9ca7c103293a2aa15f3c339d15d6eda53b721fef7b0e609c831a8185604051808373ffffffffffffffffffffffffffffffffffffffff1673ffffffffffffffffffffffffffffffffffffffff168152602001826fffffffffffffffffffffffffffffffff1681526020019250505060405180910390a16015805480617fdf57fe5b6001900381819060005260206000200160006101000a81549073ffffffffffffffffffffffffffffffffffffffff0219169055905550505050505050565b6000600e60008373ffffffffffffffffffffffffffffffffffffffff1673ffffffffffffffffffffffffffffffffffffffff16815260200190815260200160002060020154905061807981600f5461517690919063ffffffff16565b600f819055506000600e60008473ffffffffffffffffffffffffffffffffffffffff1673ffffffffffffffffffffffffffffffffffffffff168152602001908152602001600020600201819055505050565b8273ffffffffffffffffffffffffffffffffffffffff166338d995a8836040518263ffffffff1660e01b815260040180828152602001915050600060405180830381600087803b15801561811e57600080fd5b505af1158015618132573d6000803e3d6000fd5b505050508373ffffffffffffffffffffffffffffffffffffffff1663cfb9329a836040518263ffffffff1660e01b815260040180828152602001915050600060405180830381600087803b15801561818957600080fd5b505af115801561819d573d6000803e3d6000fd5b505050508273ffffffffffffffffffffffffffffffffffffffff1663be41205f826040518263ffffffff1660e01b815260040180828152602001915050600060405180830381600087803b1580156181f457600080fd5b505af1158015618208573d6000803e3d6000fd5b5050505050505050565b60008383111582906182bf576040517f08c379a00000000000000000000000000000000000000000000000000000000081526004018080602001828103825283818151815260200191508051906020019080838360005b83811015618284578082015181840152602081019050618269565b50505050905090810190601f1680156182b15780820380516001836020036101000a031916815260200191505b509250505060405180910390fd5b5060008385039050809150509392505050565b600080600060115414156182e857829050618320565b6000601054116182f457fe5b61831d60115461830f6010548661602890919063ffffffff16565b6160ae90919063ffffffff16565b90505b80915050919050565b61833161956f565b6183396195bb565b60016015805490501161834f57819150506188e9565b61835887613cdc565b8560000186602001866020018760400184815250848152508481525084815250505050506183898260200151616c29565b826040018181525050680ad78ebc5ac62000008260600181815250506183c08260400151836020015161517690919063ffffffff16565b816000018181525050670de0b6b3a76400008611618523576183ec8989836020015184604001516180cb565b6183f58761801d565b600082608001818152505060008260a001818152505081600001518260c001818152505080600001518260e00181815250506184328760036179d0565b8673ffffffffffffffffffffffffffffffffffffffff167fea67486ed7ebe3eea8ab3390efd4a3c8aae48be5bea27df104a8af786c4084348360000151846020015160026040518084815260200183815260200182600381111561849257fe5b60ff168152602001935050505060405180910390a28673ffffffffffffffffffffffffffffffffffffffff167fc3770d654ed33aeea6bf11ac8ef05d02a6a04ed4686dd2f624d853bbec43cc8b600080600060026040518085815260200184815260200183815260200182600381111561850857fe5b60ff16815260200194505050505060405180910390a26188e4565b670de0b6b3a7640000861180156185415750670f43fc2c04ee000086105b156186965761855a8989836020015184604001516180cb565b6185638761801d565b618576826000015182600001518761919e565b856080018660a0018760c0018860e00184815250848152508481525084815250505050506185a58760036179d0565b8673ffffffffffffffffffffffffffffffffffffffff167fea67486ed7ebe3eea8ab3390efd4a3c8aae48be5bea27df104a8af786c4084348360000151846020015160026040518084815260200183815260200182600381111561860557fe5b60ff168152602001935050505060405180910390a28673ffffffffffffffffffffffffffffffffffffffff167fc3770d654ed33aeea6bf11ac8ef05d02a6a04ed4686dd2f624d853bbec43cc8b600080600060026040518085815260200184815260200183815260200182600381111561867b57fe5b60ff16815260200194505050505060405180910390a26188e3565b670f43fc2c04ee000086101580156186ad57508386105b80156186bd575084826000015111155b156188d0576186d68989836020015184604001516180cb565b60008514156186e157fe5b6186ea8761801d565b6186fd8260000151836020015185619227565b915061870a8760036179d0565b600082610100015111156187df57600760009054906101000a900473ffffffffffffffffffffffffffffffffffffffff1673ffffffffffffffffffffffffffffffffffffffff16633f10abab888461010001516040518363ffffffff1660e01b8152600401808373ffffffffffffffffffffffffffffffffffffffff1673ffffffffffffffffffffffffffffffffffffffff16815260200182815260200192505050600060405180830381600087803b1580156187c657600080fd5b505af11580156187da573d6000803e3d6000fd5b505050505b8673ffffffffffffffffffffffffffffffffffffffff167fea67486ed7ebe3eea8ab3390efd4a3c8aae48be5bea27df104a8af786c40843483600001518460a0015160026040518084815260200183815260200182600381111561883f57fe5b60ff168152602001935050505060405180910390a28673ffffffffffffffffffffffffffffffffffffffff167fc3770d654ed33aeea6bf11ac8ef05d02a6a04ed4686dd2f624d853bbec43cc8b60008060006002604051808581526020018481526020018381526020018260038111156188b557fe5b60ff16815260200194505050505060405180910390a26188e2565b6188d861956f565b80925050506188e9565b5b5b819150505b979650505050505050565b6188fc61938f565b6189178260400151846040015161687e90919063ffffffff16565b81604001818152505061893b8260600151846060015161687e90919063ffffffff16565b81606001818152505061895f8260000151846020015161687e90919063ffffffff16565b8160200181815250506189838260200151846000015161687e90919063ffffffff16565b8160000181815250506189a78260800151846080015161687e90919063ffffffff16565b8160800181815250506189cb8260a001518460a0015161687e90919063ffffffff16565b8160a00181815250506189ef8260c001518460c0015161687e90919063ffffffff16565b8160c0018181525050618a138260e001518460e0015161687e90919063ffffffff16565b8160e0018181525050618a3982610100015184610100015161687e90919063ffffffff16565b8161010001818152505080905092915050565b600080618a5a858585616aea565b90506714d1120d7b16000081109150509392505050565b618a7961956f565b618a816195bb565b618a8a84613cdc565b856000018660200186602001876040018481525084815250848152508481525050505050618ac28686836020015184604001516180cb565b618acb8461801d565b618ad88260200151616c29565b826040018181525050680ad78ebc5ac62000008260600181815250506000618b118360400151846020015161517690919063ffffffff16565b9050618b228360000151828661919e565b866080018760a0018860c0018960e0018481525084815250848152508481525050505050618b518560036179d0565b8473ffffffffffffffffffffffffffffffffffffffff167fea67486ed7ebe3eea8ab3390efd4a3c8aae48be5bea27df104a8af786c40843484600001518560200151600160405180848152602001838152602001826003811115618bb157fe5b60ff168152602001935050505060405180910390a28473ffffffffffffffffffffffffffffffffffffffff167fc3770d654ed33aeea6bf11ac8ef05d02a6a04ed4686dd2f624d853bbec43cc8b6000806000600160405180858152602001848152602001838152602001826003811115618c2757fe5b60ff16815260200194505050505060405180910390a28292505050949350505050565b6000818310618c595781618c5b565b825b905092915050565b60008083118290618d0f576040517f08c379a00000000000000000000000000000000000000000000000000000000081526004018080602001828103825283818151815260200191508051906020019080838360005b83811015618cd4578082015181840152602081019050618cb9565b50505050905090810190601f168015618d015780820380516001836020036101000a031916815260200191505b509250505060405180910390fd5b506000838581618d1b57fe5b049050809150509392505050565b6000631f540500821115618d3f57631f54050091505b6000821415618d5857670de0b6b3a76400009050618e0a565b6000670de0b6b3a76400009050600084905060008490505b6001811115618dfa57600060028281618d8557fe5b061415618db357618d9682836192fe565b9150618dac6002826160ae90919063ffffffff16565b9050618df5565b618dbd82846192fe565b9250618dc982836192fe565b9150618df26002618de460018461517690919063ffffffff16565b6160ae90919063ffffffff16565b90505b618d70565b618e0482846192fe565b93505050505b92915050565b836040015173ffffffffffffffffffffffffffffffffffffffff16639dc29fac600660009054906101000a900473ffffffffffffffffffffffffffffffffffffffff16846040518363ffffffff1660e01b8152600401808373ffffffffffffffffffffffffffffffffffffffff1673ffffffffffffffffffffffffffffffffffffffff16815260200182815260200192505050600060405180830381600087803b158015618ebd57600080fd5b505af1158015618ed1573d6000803e3d6000fd5b50505050836000015173ffffffffffffffffffffffffffffffffffffffff166338d995a8836040518263ffffffff1660e01b815260040180828152602001915050600060405180830381600087803b158015618f2c57600080fd5b505af1158015618f40573d6000803e3d6000fd5b505050508360a0015173ffffffffffffffffffffffffffffffffffffffff16633f10abab84836040518363ffffffff1660e01b8152600401808373ffffffffffffffffffffffffffffffffffffffff1673ffffffffffffffffffffffffffffffffffffffff16815260200182815260200192505050600060405180830381600087803b158015618fcf57600080fd5b505af1158015618fe3573d6000803e3d6000fd5b50505050836000015173ffffffffffffffffffffffffffffffffffffffff166364a197f38560a00151836040518363ffffffff1660e01b8152600401808373ffffffffffffffffffffffffffffffffffffffff1673ffffffffffffffffffffffffffffffffffffffff16815260200182815260200192505050600060405180830381600087803b15801561907657600080fd5b505af115801561908a573d6000803e3d6000fd5b5050505050505050565b60018111801561914657506001600b60009054906101000a900473ffffffffffffffffffffffffffffffffffffffff1673ffffffffffffffffffffffffffffffffffffffff1663de8fa4316040518163ffffffff1660e01b815260040160206040518083038186803b15801561910957600080fd5b505afa15801561911d573d6000803e3d6000fd5b505050506040513d602081101561913357600080fd5b8101908080519060200190929190505050115b61919b576040517f08c379a000000000000000000000000000000000000000000000000000000000815260040180806020018281038252602a815260200180619606602a913960400191505060405180910390fd5b50565b600080600080600085111561920f576191b78786618c4a565b93506191de876191d0868961602890919063ffffffff16565b6160ae90919063ffffffff16565b92506191f3848861517690919063ffffffff16565b9150619208838761517690919063ffffffff16565b905061921e565b60009350600092508691508590505b93509350935093565b61922f61956f565b8381600001818152505082816020018181525050600061927283619264670f43fc2c04ee00008861602890919063ffffffff16565b6160ae90919063ffffffff16565b905061927d81616c29565b826040018181525050680ad78ebc5ac6200000826060018181525050848260800181815250506192ba82604001518261517690919063ffffffff16565b8260a00181815250506192d6818561517690919063ffffffff16565b8261010001818152505060008260c001818152505060008260e0018181525050509392505050565b600080619314838561602890919063ffffffff16565b9050619355670de0b6b3a76400006193476002670de0b6b3a76400008161933757fe5b048461687e90919063ffffffff16565b6160ae90919063ffffffff16565b91505092915050565b6040518060a00160405280600081526020016000815260200160001515815260200160008152602001600081525090565b6040518061012001604052806000815260200160008152602001600081526020016000815260200160008152602001600081526020016000815260200160008152602001600081525090565b6040518060e00160405280600073ffffffffffffffffffffffffffffffffffffffff168152602001600073ffffffffffffffffffffffffffffffffffffffff168152602001600073ffffffffffffffffffffffffffffffffffffffff168152602001600073ffffffffffffffffffffffffffffffffffffffff168152602001600073ffffffffffffffffffffffffffffffffffffffff168152602001600073ffffffffffffffffffffffffffffffffffffffff168152602001600073ffffffffffffffffffffffffffffffffffffffff1681525090565b60405180610100016040528060008152602001600081526020016000815260200160008152602001600081526020016000815260200160008152602001600081525090565b604051806060016040528060008152602001600081526020016000151581525090565b6040518060e00160405280600081526020016000815260200160008152602001600073ffffffffffffffffffffffffffffffffffffffff16815260200160001515815260200160008152602001600081525090565b6040518061012001604052806000815260200160008152602001600081526020016000815260200160008152602001600081526020016000815260200160008152602001600081525090565b6040518060600160405280600081526020016000815260200160008152509056fe54726f76654d616e616765723a20556e61626c6520746f2072656465656d20616e7920616d6f756e7454726f76654d616e616765723a204f6e6c79206f6e652074726f766520696e207468652073797374656d54726f76654d616e616765723a20526564656d7074696f6e7320617265206e6f7420616c6c6f77656420647572696e6720626f6f747374726170207068617365536166654d6174683a206d756c7469706c69636174696f6e206f766572666c6f7754726f76654d616e616765723a2052657175657374656420726564656d7074696f6e20616d6f756e74206d757374206265203c3d20757365722773204c55534420746f6b656e2062616c616e636554726f76654d616e616765723a2043616c6c6572206973206e6f742074686520426f72726f7765724f7065726174696f6e7320636f6e747261637454726f76654d616e616765723a2043616c6c646174612061646472657373206172726179206d757374206e6f7420626520656d70747954726f76654d616e616765723a20416d6f756e74206d7573742062652067726561746572207468616e207a65726f54726f76654d616e616765723a2046656520776f756c642065617420757020616c6c2072657475726e656420636f6c6c61746572616c4d6178206665652070657263656e74616765206d757374206265206265747765656e20302e352520616e64203130302554726f76654d616e616765723a2043616e6e6f742072656465656d207768656e20544352203c204d435254726f76654d616e616765723a206e6f7468696e6720746f206c697175696461746554726f76654d616e616765723a2054726f766520646f6573206e6f74206578697374206f7220697320636c6f736564a26469706673582212205f2346c4a142035e5ddbfa5501011a3e18256b38f7dc9e7c9d8c4a04174c6c1564736f6c634300060b0033",
  "linkReferences": {},
  "deployedLinkReferences": {}
}