{
  "_format": "hh-sol-artifact-1",
  "contractName": "BaseMath",
  "sourceName": "contracts/Liquity/Dependencies/BaseMath.sol",
  "abi": [
    {
      "inputs": [],
      "name": "DECIMAL_PRECISION",
      "outputs": [
        {
          "internalType": "uint256",
          "name": "",
          "type": "uint256"
        }
      ],
      "stateMutability": "view",
      "type": "function"
    }
  ],
  "bytecode": "0x6080604052348015600f57600080fd5b50608b8061001e6000396000f3fe6080604052348015600f57600080fd5b506004361060285760003560e01c8063a20baee614602d575b600080fd5b60336049565b6040518082815260200191505060405180910390f35b670de0b6b3a76400008156fea264697066735822122075f5f7f9c8dc8970f89caae68b7665e6fb0a80eb58e6d0ba000c815c9056854c64736f6c634300060b0033",
  "linkReferences": {},
  "deployedLinkReferences": {}
}