{
  "_format": "hh-sol-artifact-1",
  "contractName": "StabilityPool",
  "sourceName": "contracts/Liquity/StabilityPool.sol",
  "abi": [
    {
      "anonymous": false,
      "inputs": [
        {
          "indexed": false,
          "internalType": "address",
          "name": "_newActivePoolAddress",
          "type": "address"
        }
      ],
      "name": "ActivePoolAddressChanged",
      "type": "event"
    },
    {
      "anonymous": false,
      "inputs": [
        {
          "indexed": false,
          "internalType": "address",
          "name": "_newBorrowerOperationsAddress",
          "type": "address"
        }
      ],
      "name": "BorrowerOperationsAddressChanged",
      "type": "event"
    },
    {
      "anonymous": false,
      "inputs": [
        {
          "indexed": false,
          "internalType": "address",
          "name": "_newCommunityIssuanceAddress",
          "type": "address"
        }
      ],
      "name": "CommunityIssuanceAddressChanged",
      "type": "event"
    },
    {
      "anonymous": false,
      "inputs": [
        {
          "indexed": false,
          "internalType": "address",
          "name": "_newDefaultPoolAddress",
          "type": "address"
        }
      ],
      "name": "DefaultPoolAddressChanged",
      "type": "event"
    },
    {
      "anonymous": false,
      "inputs": [
        {
          "indexed": true,
          "internalType": "address",
          "name": "_depositor",
          "type": "address"
        },
        {
          "indexed": false,
          "internalType": "uint256",
          "name": "_P",
          "type": "uint256"
        },
        {
          "indexed": false,
          "internalType": "uint256",
          "name": "_S",
          "type": "uint256"
        },
        {
          "indexed": false,
          "internalType": "uint256",
          "name": "_G",
          "type": "uint256"
        }
      ],
      "name": "DepositSnapshotUpdated",
      "type": "event"
    },
    {
      "anonymous": false,
      "inputs": [
        {
          "indexed": true,
          "internalType": "address",
          "name": "_depositor",
          "type": "address"
        },
        {
          "indexed": false,
          "internalType": "uint256",
          "name": "_ETH",
          "type": "uint256"
        },
        {
          "indexed": false,
          "internalType": "uint256",
          "name": "_LUSDLoss",
          "type": "uint256"
        }
      ],
      "name": "ETHGainWithdrawn",
      "type": "event"
    },
    {
      "anonymous": false,
      "inputs": [
        {
          "indexed": false,
          "internalType": "uint128",
          "name": "_currentEpoch",
          "type": "uint128"
        }
      ],
      "name": "EpochUpdated",
      "type": "event"
    },
    {
      "anonymous": false,
      "inputs": [
        {
          "indexed": false,
          "internalType": "address",
          "name": "_to",
          "type": "address"
        },
        {
          "indexed": false,
          "internalType": "uint256",
          "name": "_amount",
          "type": "uint256"
        }
      ],
      "name": "EtherSent",
      "type": "event"
    },
    {
      "anonymous": false,
      "inputs": [
        {
          "indexed": true,
          "internalType": "address",
          "name": "_frontEnd",
          "type": "address"
        },
        {
          "indexed": false,
          "internalType": "uint256",
          "name": "_kickbackRate",
          "type": "uint256"
        }
      ],
      "name": "FrontEndRegistered",
      "type": "event"
    },
    {
      "anonymous": false,
      "inputs": [
        {
          "indexed": true,
          "internalType": "address",
          "name": "_frontEnd",
          "type": "address"
        },
        {
          "indexed": false,
          "internalType": "uint256",
          "name": "_P",
          "type": "uint256"
        },
        {
          "indexed": false,
          "internalType": "uint256",
          "name": "_G",
          "type": "uint256"
        }
      ],
      "name": "FrontEndSnapshotUpdated",
      "type": "event"
    },
    {
      "anonymous": false,
      "inputs": [
        {
          "indexed": true,
          "internalType": "address",
          "name": "_frontEnd",
          "type": "address"
        },
        {
          "indexed": false,
          "internalType": "uint256",
          "name": "_newFrontEndStake",
          "type": "uint256"
        },
        {
          "indexed": false,
          "internalType": "address",
          "name": "_depositor",
          "type": "address"
        }
      ],
      "name": "FrontEndStakeChanged",
      "type": "event"
    },
    {
      "anonymous": false,
      "inputs": [
        {
          "indexed": true,
          "internalType": "address",
          "name": "_depositor",
          "type": "address"
        },
        {
          "indexed": true,
          "internalType": "address",
          "name": "_frontEnd",
          "type": "address"
        }
      ],
      "name": "FrontEndTagSet",
      "type": "event"
    },
    {
      "anonymous": false,
      "inputs": [
        {
          "indexed": false,
          "internalType": "uint256",
          "name": "_G",
          "type": "uint256"
        },
        {
          "indexed": false,
          "internalType": "uint128",
          "name": "_epoch",
          "type": "uint128"
        },
        {
          "indexed": false,
          "internalType": "uint128",
          "name": "_scale",
          "type": "uint128"
        }
      ],
      "name": "G_Updated",
      "type": "event"
    },
    {
      "anonymous": false,
      "inputs": [
        {
          "indexed": true,
          "internalType": "address",
          "name": "_depositor",
          "type": "address"
        },
        {
          "indexed": false,
          "internalType": "uint256",
          "name": "_LQTY",
          "type": "uint256"
        }
      ],
      "name": "LQTYPaidToDepositor",
      "type": "event"
    },
    {
      "anonymous": false,
      "inputs": [
        {
          "indexed": true,
          "internalType": "address",
          "name": "_frontEnd",
          "type": "address"
        },
        {
          "indexed": false,
          "internalType": "uint256",
          "name": "_LQTY",
          "type": "uint256"
        }
      ],
      "name": "LQTYPaidToFrontEnd",
      "type": "event"
    },
    {
      "anonymous": false,
      "inputs": [
        {
          "indexed": false,
          "internalType": "address",
          "name": "_newLUSDTokenAddress",
          "type": "address"
        }
      ],
      "name": "LUSDTokenAddressChanged",
      "type": "event"
    },
    {
      "anonymous": false,
      "inputs": [
        {
          "indexed": true,
          "internalType": "address",
          "name": "previousOwner",
          "type": "address"
        },
        {
          "indexed": true,
          "internalType": "address",
          "name": "newOwner",
          "type": "address"
        }
      ],
      "name": "OwnershipTransferred",
      "type": "event"
    },
    {
      "anonymous": false,
      "inputs": [
        {
          "indexed": false,
          "internalType": "uint256",
          "name": "_P",
          "type": "uint256"
        }
      ],
      "name": "P_Updated",
      "type": "event"
    },
    {
      "anonymous": false,
      "inputs": [
        {
          "indexed": false,
          "internalType": "address",
          "name": "_newPriceFeedAddress",
          "type": "address"
        }
      ],
      "name": "PriceFeedAddressChanged",
      "type": "event"
    },
    {
      "anonymous": false,
      "inputs": [
        {
          "indexed": false,
          "internalType": "uint256",
          "name": "_S",
          "type": "uint256"
        },
        {
          "indexed": false,
          "internalType": "uint128",
          "name": "_epoch",
          "type": "uint128"
        },
        {
          "indexed": false,
          "internalType": "uint128",
          "name": "_scale",
          "type": "uint128"
        }
      ],
      "name": "S_Updated",
      "type": "event"
    },
    {
      "anonymous": false,
      "inputs": [
        {
          "indexed": false,
          "internalType": "uint128",
          "name": "_currentScale",
          "type": "uint128"
        }
      ],
      "name": "ScaleUpdated",
      "type": "event"
    },
    {
      "anonymous": false,
      "inputs": [
        {
          "indexed": false,
          "internalType": "address",
          "name": "_newSortedTrovesAddress",
          "type": "address"
        }
      ],
      "name": "SortedTrovesAddressChanged",
      "type": "event"
    },
    {
      "anonymous": false,
      "inputs": [
        {
          "indexed": false,
          "internalType": "uint256",
          "name": "_newBalance",
          "type": "uint256"
        }
      ],
      "name": "StabilityPoolETHBalanceUpdated",
      "type": "event"
    },
    {
      "anonymous": false,
      "inputs": [
        {
          "indexed": false,
          "internalType": "uint256",
          "name": "_newBalance",
          "type": "uint256"
        }
      ],
      "name": "StabilityPoolLUSDBalanceUpdated",
      "type": "event"
    },
    {
      "anonymous": false,
      "inputs": [
        {
          "indexed": false,
          "internalType": "address",
          "name": "_newTroveManagerAddress",
          "type": "address"
        }
      ],
      "name": "TroveManagerAddressChanged",
      "type": "event"
    },
    {
      "anonymous": false,
      "inputs": [
        {
          "indexed": true,
          "internalType": "address",
          "name": "_depositor",
          "type": "address"
        },
        {
          "indexed": false,
          "internalType": "uint256",
          "name": "_newDeposit",
          "type": "uint256"
        }
      ],
      "name": "UserDepositChanged",
      "type": "event"
    },
    {
      "inputs": [],
      "name": "BORROWING_FEE_FLOOR",
      "outputs": [
        {
          "internalType": "uint256",
          "name": "",
          "type": "uint256"
        }
      ],
      "stateMutability": "view",
      "type": "function"
    },
    {
      "inputs": [],
      "name": "CCR",
      "outputs": [
        {
          "internalType": "uint256",
          "name": "",
          "type": "uint256"
        }
      ],
      "stateMutability": "view",
      "type": "function"
    },
    {
      "inputs": [],
      "name": "DECIMAL_PRECISION",
      "outputs": [
        {
          "internalType": "uint256",
          "name": "",
          "type": "uint256"
        }
      ],
      "stateMutability": "view",
      "type": "function"
    },
    {
      "inputs": [],
      "name": "LUSD_GAS_COMPENSATION",
      "outputs": [
        {
          "internalType": "uint256",
          "name": "",
          "type": "uint256"
        }
      ],
      "stateMutability": "view",
      "type": "function"
    },
    {
      "inputs": [],
      "name": "MCR",
      "outputs": [
        {
          "internalType": "uint256",
          "name": "",
          "type": "uint256"
        }
      ],
      "stateMutability": "view",
      "type": "function"
    },
    {
      "inputs": [],
      "name": "MIN_NET_DEBT",
      "outputs": [
        {
          "internalType": "uint256",
          "name": "",
          "type": "uint256"
        }
      ],
      "stateMutability": "view",
      "type": "function"
    },
    {
      "inputs": [],
      "name": "NAME",
      "outputs": [
        {
          "internalType": "string",
          "name": "",
          "type": "string"
        }
      ],
      "stateMutability": "view",
      "type": "function"
    },
    {
      "inputs": [],
      "name": "P",
      "outputs": [
        {
          "internalType": "uint256",
          "name": "",
          "type": "uint256"
        }
      ],
      "stateMutability": "view",
      "type": "function"
    },
    {
      "inputs": [],
      "name": "PERCENT_DIVISOR",
      "outputs": [
        {
          "internalType": "uint256",
          "name": "",
          "type": "uint256"
        }
      ],
      "stateMutability": "view",
      "type": "function"
    },
    {
      "inputs": [],
      "name": "SCALE_FACTOR",
      "outputs": [
        {
          "internalType": "uint256",
          "name": "",
          "type": "uint256"
        }
      ],
      "stateMutability": "view",
      "type": "function"
    },
    {
      "inputs": [],
      "name": "_100pct",
      "outputs": [
        {
          "internalType": "uint256",
          "name": "",
          "type": "uint256"
        }
      ],
      "stateMutability": "view",
      "type": "function"
    },
    {
      "inputs": [],
      "name": "activePool",
      "outputs": [
        {
          "internalType": "contract IActivePool",
          "name": "",
          "type": "address"
        }
      ],
      "stateMutability": "view",
      "type": "function"
    },
    {
      "inputs": [],
      "name": "borrowerOperations",
      "outputs": [
        {
          "internalType": "contract IBorrowerOperations",
          "name": "",
          "type": "address"
        }
      ],
      "stateMutability": "view",
      "type": "function"
    },
    {
      "inputs": [],
      "name": "communityIssuance",
      "outputs": [
        {
          "internalType": "contract ICommunityIssuance",
          "name": "",
          "type": "address"
        }
      ],
      "stateMutability": "view",
      "type": "function"
    },
    {
      "inputs": [],
      "name": "currentEpoch",
      "outputs": [
        {
          "internalType": "uint128",
          "name": "",
          "type": "uint128"
        }
      ],
      "stateMutability": "view",
      "type": "function"
    },
    {
      "inputs": [],
      "name": "currentScale",
      "outputs": [
        {
          "internalType": "uint128",
          "name": "",
          "type": "uint128"
        }
      ],
      "stateMutability": "view",
      "type": "function"
    },
    {
      "inputs": [],
      "name": "defaultPool",
      "outputs": [
        {
          "internalType": "contract IDefaultPool",
          "name": "",
          "type": "address"
        }
      ],
      "stateMutability": "view",
      "type": "function"
    },
    {
      "inputs": [
        {
          "internalType": "address",
          "name": "",
          "type": "address"
        }
      ],
      "name": "depositSnapshots",
      "outputs": [
        {
          "internalType": "uint256",
          "name": "S",
          "type": "uint256"
        },
        {
          "internalType": "uint256",
          "name": "P",
          "type": "uint256"
        },
        {
          "internalType": "uint256",
          "name": "G",
          "type": "uint256"
        },
        {
          "internalType": "uint128",
          "name": "scale",
          "type": "uint128"
        },
        {
          "internalType": "uint128",
          "name": "epoch",
          "type": "uint128"
        }
      ],
      "stateMutability": "view",
      "type": "function"
    },
    {
      "inputs": [
        {
          "internalType": "address",
          "name": "",
          "type": "address"
        }
      ],
      "name": "deposits",
      "outputs": [
        {
          "internalType": "uint256",
          "name": "initialValue",
          "type": "uint256"
        },
        {
          "internalType": "address",
          "name": "frontEndTag",
          "type": "address"
        }
      ],
      "stateMutability": "view",
      "type": "function"
    },
    {
      "inputs": [
        {
          "internalType": "uint128",
          "name": "",
          "type": "uint128"
        },
        {
          "internalType": "uint128",
          "name": "",
          "type": "uint128"
        }
      ],
      "name": "epochToScaleToG",
      "outputs": [
        {
          "internalType": "uint256",
          "name": "",
          "type": "uint256"
        }
      ],
      "stateMutability": "view",
      "type": "function"
    },
    {
      "inputs": [
        {
          "internalType": "uint128",
          "name": "",
          "type": "uint128"
        },
        {
          "internalType": "uint128",
          "name": "",
          "type": "uint128"
        }
      ],
      "name": "epochToScaleToSum",
      "outputs": [
        {
          "internalType": "uint256",
          "name": "",
          "type": "uint256"
        }
      ],
      "stateMutability": "view",
      "type": "function"
    },
    {
      "inputs": [
        {
          "internalType": "address",
          "name": "",
          "type": "address"
        }
      ],
      "name": "frontEndSnapshots",
      "outputs": [
        {
          "internalType": "uint256",
          "name": "S",
          "type": "uint256"
        },
        {
          "internalType": "uint256",
          "name": "P",
          "type": "uint256"
        },
        {
          "internalType": "uint256",
          "name": "G",
          "type": "uint256"
        },
        {
          "internalType": "uint128",
          "name": "scale",
          "type": "uint128"
        },
        {
          "internalType": "uint128",
          "name": "epoch",
          "type": "uint128"
        }
      ],
      "stateMutability": "view",
      "type": "function"
    },
    {
      "inputs": [
        {
          "internalType": "address",
          "name": "",
          "type": "address"
        }
      ],
      "name": "frontEndStakes",
      "outputs": [
        {
          "internalType": "uint256",
          "name": "",
          "type": "uint256"
        }
      ],
      "stateMutability": "view",
      "type": "function"
    },
    {
      "inputs": [
        {
          "internalType": "address",
          "name": "",
          "type": "address"
        }
      ],
      "name": "frontEnds",
      "outputs": [
        {
          "internalType": "uint256",
          "name": "kickbackRate",
          "type": "uint256"
        },
        {
          "internalType": "bool",
          "name": "registered",
          "type": "bool"
        }
      ],
      "stateMutability": "view",
      "type": "function"
    },
    {
      "inputs": [
        {
          "internalType": "address",
          "name": "_frontEnd",
          "type": "address"
        }
      ],
      "name": "getCompoundedFrontEndStake",
      "outputs": [
        {
          "internalType": "uint256",
          "name": "",
          "type": "uint256"
        }
      ],
      "stateMutability": "view",
      "type": "function"
    },
    {
      "inputs": [
        {
          "internalType": "address",
          "name": "_depositor",
          "type": "address"
        },
        {
          "internalType": "bool",
          "name": "_TESTadjust",
          "type": "bool"
        }
      ],
      "name": "getCompoundedLUSDDeposit",
      "outputs": [
        {
          "internalType": "uint256",
          "name": "",
          "type": "uint256"
        }
      ],
      "stateMutability": "view",
      "type": "function"
    },
    {
      "inputs": [
        {
          "internalType": "address",
          "name": "_depositor",
          "type": "address"
        }
      ],
      "name": "getDepositorETHGain",
      "outputs": [
        {
          "internalType": "uint256",
          "name": "",
          "type": "uint256"
        }
      ],
      "stateMutability": "view",
      "type": "function"
    },
    {
      "inputs": [
        {
          "internalType": "address",
          "name": "_depositor",
          "type": "address"
        }
      ],
      "name": "getDepositorLQTYGain",
      "outputs": [
        {
          "internalType": "uint256",
          "name": "",
          "type": "uint256"
        }
      ],
      "stateMutability": "view",
      "type": "function"
    },
    {
      "inputs": [],
      "name": "getETH",
      "outputs": [
        {
          "internalType": "uint256",
          "name": "",
          "type": "uint256"
        }
      ],
      "stateMutability": "view",
      "type": "function"
    },
    {
      "inputs": [],
      "name": "getEntireSystemColl",
      "outputs": [
        {
          "internalType": "uint256",
          "name": "entireSystemColl",
          "type": "uint256"
        }
      ],
      "stateMutability": "view",
      "type": "function"
    },
    {
      "inputs": [],
      "name": "getEntireSystemDebt",
      "outputs": [
        {
          "internalType": "uint256",
          "name": "entireSystemDebt",
          "type": "uint256"
        }
      ],
      "stateMutability": "view",
      "type": "function"
    },
    {
      "inputs": [
        {
          "internalType": "address",
          "name": "_frontEnd",
          "type": "address"
        }
      ],
      "name": "getFrontEndLQTYGain",
      "outputs": [
        {
          "internalType": "uint256",
          "name": "",
          "type": "uint256"
        }
      ],
      "stateMutability": "view",
      "type": "function"
    },
    {
      "inputs": [],
      "name": "getTotalLUSDDeposits",
      "outputs": [
        {
          "internalType": "uint256",
          "name": "",
          "type": "uint256"
        }
      ],
      "stateMutability": "view",
      "type": "function"
    },
    {
      "inputs": [],
      "name": "isOwner",
      "outputs": [
        {
          "internalType": "bool",
          "name": "",
          "type": "bool"
        }
      ],
      "stateMutability": "view",
      "type": "function"
    },
    {
      "inputs": [],
      "name": "lastETHError_Offset",
      "outputs": [
        {
          "internalType": "uint256",
          "name": "",
          "type": "uint256"
        }
      ],
      "stateMutability": "view",
      "type": "function"
    },
    {
      "inputs": [],
      "name": "lastLQTYError",
      "outputs": [
        {
          "internalType": "uint256",
          "name": "",
          "type": "uint256"
        }
      ],
      "stateMutability": "view",
      "type": "function"
    },
    {
      "inputs": [],
      "name": "lastLUSDLossError_Offset",
      "outputs": [
        {
          "internalType": "uint256",
          "name": "",
          "type": "uint256"
        }
      ],
      "stateMutability": "view",
      "type": "function"
    },
    {
      "inputs": [],
      "name": "lusdToken",
      "outputs": [
        {
          "internalType": "contract ILUSDToken",
          "name": "",
          "type": "address"
        }
      ],
      "stateMutability": "view",
      "type": "function"
    },
    {
      "inputs": [
        {
          "internalType": "uint256",
          "name": "_debtToOffset",
          "type": "uint256"
        },
        {
          "internalType": "uint256",
          "name": "_collToAdd",
          "type": "uint256"
        }
      ],
      "name": "offset",
      "outputs": [],
      "stateMutability": "nonpayable",
      "type": "function"
    },
    {
      "inputs": [],
      "name": "owner",
      "outputs": [
        {
          "internalType": "address",
          "name": "",
          "type": "address"
        }
      ],
      "stateMutability": "view",
      "type": "function"
    },
    {
      "inputs": [],
      "name": "priceFeed",
      "outputs": [
        {
          "internalType": "contract IPriceFeed",
          "name": "",
          "type": "address"
        }
      ],
      "stateMutability": "view",
      "type": "function"
    },
    {
      "inputs": [
        {
          "internalType": "uint256",
          "name": "_amount",
          "type": "uint256"
        },
        {
          "internalType": "address",
          "name": "_frontEndTag",
          "type": "address"
        }
      ],
      "name": "provideToSP",
      "outputs": [],
      "stateMutability": "nonpayable",
      "type": "function"
    },
    {
      "inputs": [
        {
          "internalType": "uint256",
          "name": "_kickbackRate",
          "type": "uint256"
        }
      ],
      "name": "registerFrontEnd",
      "outputs": [],
      "stateMutability": "nonpayable",
      "type": "function"
    },
    {
      "inputs": [
        {
          "internalType": "address",
          "name": "_borrowerOperationsAddress",
          "type": "address"
        },
        {
          "internalType": "address",
          "name": "_troveManagerAddress",
          "type": "address"
        },
        {
          "internalType": "address",
          "name": "_activePoolAddress",
          "type": "address"
        },
        {
          "internalType": "address",
          "name": "_lusdTokenAddress",
          "type": "address"
        },
        {
          "internalType": "address",
          "name": "_sortedTrovesAddress",
          "type": "address"
        },
        {
          "internalType": "address",
          "name": "_priceFeedAddress",
          "type": "address"
        },
        {
          "internalType": "address",
          "name": "_communityIssuanceAddress",
          "type": "address"
        }
      ],
      "name": "setAddresses",
      "outputs": [],
      "stateMutability": "nonpayable",
      "type": "function"
    },
    {
      "inputs": [],
      "name": "sortedTroves",
      "outputs": [
        {
          "internalType": "contract ISortedTroves",
          "name": "",
          "type": "address"
        }
      ],
      "stateMutability": "view",
      "type": "function"
    },
    {
      "inputs": [],
      "name": "troveManager",
      "outputs": [
        {
          "internalType": "contract ITroveManager",
          "name": "",
          "type": "address"
        }
      ],
      "stateMutability": "view",
      "type": "function"
    },
    {
      "inputs": [
        {
          "internalType": "address",
          "name": "_upperHint",
          "type": "address"
        },
        {
          "internalType": "address",
          "name": "_lowerHint",
          "type": "address"
        }
      ],
      "name": "withdrawETHGainToTrove",
      "outputs": [],
      "stateMutability": "nonpayable",
      "type": "function"
    },
    {
      "inputs": [
        {
          "internalType": "uint256",
          "name": "_amount",
          "type": "uint256"
        }
      ],
      "name": "withdrawFromSP",
      "outputs": [],
      "stateMutability": "nonpayable",
      "type": "function"
    },
    {
      "stateMutability": "payable",
      "type": "receive"
    }
  ],
  "bytecode": "0x6080604052670de0b6b3a764000060105534801561001c57600080fd5b50600380546001600160a01b031916339081179091556040516000907f8be0079c531659141344cd1fd0a4f28419497f9722a3daafe3b4186f6b6457e0908290a361395e8061006c6000396000f3fe6080604052600436106102975760003560e01c806386da08241161015a578063ae918754116100c1578063df9cd84f1161007a578063df9cd84f146108f4578063eaa8ba7f14610927578063f5f1595d1461098c578063f92d3433146109bf578063fc7e286d146109d4578063fda0101a14610a28576102de565b8063ae91875414610858578063b83f91a21461086d578063ce4b5bbe14610882578063cef941e814610897578063d4ca0575146108ac578063d7fb0443146108df576102de565b80639bf2f1ac116101135780639bf2f1ac1461071d578063a20baee614610583578063a3f4df7e14610732578063a4e59ac8146107bc578063a78e883d146107d1578063a7bfff971461080c576102de565b806386da08241461066d578063887105d3146106a05780638b8fbd92146106b55780638da5cb5b146106ca5780638f32d59b146106df57806395fb16bb14610708576102de565b8063556be101116101fe57806376671808116101b757806376671808146105ad57806377553ad4146105de578063794e5724146105f3578063795d26c3146106085780637f7dde4a1461061d57806382e0a57414610632576102de565b8063556be101146104d85780635733d58f146105025780635d2de642146105175780635f788d651461054a57806372fe25aa14610583578063741bef1a14610598576102de565b8063335525ad11610250578063335525ad14610405578063389e92a5146104355780633cc74225146104685780633d83908a146104995780634870dd9a146104ae578063538153ca146104c3576102de565b806314f6c3be146102e357806316b9d3c51461030a5780631bf435551461037457806328a0a04d146103895780632e54bf95146103c45780632e86bbd8146103f0576102de565b366102de576102a4610a63565b6009546102b7903463ffffffff610aae16565b600981905560408051918252516000805160206136928339815191529181900360200190a1005b600080fd5b3480156102ef57600080fd5b506102f8610b11565b60408051918252519081900360200190f35b34801561031657600080fd5b5061033d6004803603602081101561032d57600080fd5b50356001600160a01b0316610b17565b604080519586526020860194909452848401929092526001600160801b039081166060850152166080830152519081900360a00190f35b34801561038057600080fd5b506102f8610b52565b34801561039557600080fd5b506102f8600480360360408110156103ac57600080fd5b506001600160801b0381358116916020013516610b5f565b3480156103d057600080fd5b506103ee600480360360208110156103e757600080fd5b5035610b7c565b005b3480156103fc57600080fd5b506102f8610d07565b34801561041157600080fd5b506103ee6004803603604081101561042857600080fd5b5080359060200135610d14565b34801561044157600080fd5b506102f86004803603602081101561045857600080fd5b50356001600160a01b0316610d78565b34801561047457600080fd5b5061047d610e20565b604080516001600160a01b039092168252519081900360200190f35b3480156104a557600080fd5b5061047d610e2f565b3480156104ba57600080fd5b506102f8610e3e565b3480156104cf57600080fd5b506102f8610e43565b3480156104e457600080fd5b506103ee600480360360208110156104fb57600080fd5b5035610e49565b34801561050e57600080fd5b506102f8610ebe565b34801561052357600080fd5b506102f86004803603602081101561053a57600080fd5b50356001600160a01b0316610eca565b34801561055657600080fd5b506103ee6004803603604081101561056d57600080fd5b50803590602001356001600160a01b0316610edc565b34801561058f57600080fd5b506102f861105f565b3480156105a457600080fd5b5061047d61106b565b3480156105b957600080fd5b506105c261107a565b604080516001600160801b039092168252519081900360200190f35b3480156105ea57600080fd5b5061047d611090565b3480156105ff57600080fd5b506102f861109f565b34801561061457600080fd5b506102f86110ab565b34801561062957600080fd5b5061047d6111ac565b34801561063e57600080fd5b506102f86004803603604081101561065557600080fd5b506001600160801b03813581169160200135166111bb565b34801561067957600080fd5b5061033d6004803603602081101561069057600080fd5b50356001600160a01b03166111d8565b3480156106ac57600080fd5b506102f8611213565b3480156106c157600080fd5b506102f86112cf565b3480156106d657600080fd5b5061047d6112d5565b3480156106eb57600080fd5b506106f46112e4565b604080519115158252519081900360200190f35b34801561071457600080fd5b5061047d6112f5565b34801561072957600080fd5b506102f8611304565b34801561073e57600080fd5b5061074761130a565b6040805160208082528351818301528351919283929083019185019080838360005b83811015610781578181015183820152602001610769565b50505050905090810190601f1680156107ae5780820380516001836020036101000a031916815260200191505b509250505060405180910390f35b3480156107c857600080fd5b506105c2611333565b3480156107dd57600080fd5b506102f8600480360360408110156107f457600080fd5b506001600160a01b0381351690602001351515611342565b34801561081857600080fd5b5061083f6004803603602081101561082f57600080fd5b50356001600160a01b031661140b565b6040805192835290151560208301528051918290030190f35b34801561086457600080fd5b5061047d611427565b34801561087957600080fd5b5061047d611436565b34801561088e57600080fd5b506102f8611445565b3480156108a357600080fd5b506102f861144d565b3480156108b857600080fd5b506102f8600480360360208110156108cf57600080fd5b50356001600160a01b0316611453565b3480156108eb57600080fd5b506102f8611557565b34801561090057600080fd5b506102f86004803603602081101561091757600080fd5b50356001600160a01b031661155d565b34801561093357600080fd5b506103ee600480360360e081101561094a57600080fd5b506001600160a01b038135811691602081013582169160408201358116916060810135821691608082013581169160a081013582169160c090910135166115fa565b34801561099857600080fd5b506102f8600480360360208110156109af57600080fd5b50356001600160a01b03166118ab565b3480156109cb57600080fd5b506102f86119a8565b3480156109e057600080fd5b50610a07600480360360208110156109f757600080fd5b50356001600160a01b03166119b3565b604080519283526001600160a01b0390911660208301528051918290030190f35b348015610a3457600080fd5b506103ee60048036036040811015610a4b57600080fd5b506001600160a01b03813581169160200135166119d5565b6000546001600160a01b03163314610aac5760405162461bcd60e51b815260040180806020018281038252602781526020018061366b6027913960400191505060405180910390fd5b565b600082820183811015610b08576040805162461bcd60e51b815260206004820152601b60248201527f536166654d6174683a206164646974696f6e206f766572666c6f770000000000604482015290519081900360640190fd5b90505b92915050565b60095490565b600f602052600090815260409020805460018201546002830154600390930154919290916001600160801b0380821691600160801b90041685565b686194049f30f720000081565b601260209081526000928352604080842090915290825290205481565b8015610b8a57610b8a611c07565b336000908152600b6020526040902054610ba381611dc4565b6008546001600160a01b0316610bb881611e06565b6000610bc333610d78565b90506000610bd2336000611342565b90506000610be08683611e7a565b90506000610bf4868463ffffffff611e9016565b336000818152600b60205260409020600101549192506001600160a01b0390911690610c2290879083611ed2565b6000610c2d8261155d565b90506000610c41828663ffffffff611e9016565b9050610c4d8382612071565b6040805182815233602082015281516001600160a01b03861692600080516020613878833981519152928290030190a2610c8733866121bd565b6000610c99878763ffffffff611e9016565b9050610ca53382612243565b60408051828152905133916000805160206136e3833981519152919081900360200190a26040805189815260208101879052815133926000805160206137c7833981519152928290030190a2610cfa886123c9565b5050505050505050505050565b680ad78ebc5ac620000081565b610d1c6124d5565b600a54801580610d2a575082155b15610d355750610d74565b600854610d4a906001600160a01b0316611e06565b600080610d5884868561251e565b91509150610d668282612617565b610d708486612911565b5050505b5050565b6001600160a01b0381166000908152600b602052604081205480610da0576000915050610e1b565b610da861359d565b506001600160a01b0383166000908152600c60209081526040808320815160a08101835281548152600182015493810193909352600281015491830191909152600301546001600160801b038082166060840152600160801b90910416608082015290610e158383612a4b565b93505050505b919050565b6001546001600160a01b031681565b6005546001600160a01b031681565b60c881565b60165481565b610e5233612b3c565b610e5b33612b97565b610e6481612bed565b336000818152600d60209081526040918290208481556001908101805460ff19169091179055815184815291517f19bc932fb9e16a8b5a1e41be9f4c2de59d5ddd7567b8b81405f532ca00a9880e9281900390910190a250565b6714d1120d7b16000081565b600e6020526000908152604090205481565b610ee581612c34565b610eee33612b3c565b610ef782612ca0565b336000908152600b60205260409020546008546001600160a01b0316610f1c81611e06565b81610f2b57610f2b3384612cdf565b6000610f3633610d78565b90506000610f45336000611342565b90506000610f59858363ffffffff611e9016565b336000818152600b60205260409020600101549192506001600160a01b0390911690610f8790869083611ed2565b6000610f928261155d565b90506000610fa6828b63ffffffff610aae16565b9050610fb28382612071565b6040805182815233602082015281516001600160a01b03861692600080516020613878833981519152928290030190a2610fec338b612d39565b6000610ffe868c63ffffffff610aae16565b905061100a3382612243565b60408051828152905133916000805160206136e3833981519152919081900360200190a26040805188815260208101879052815133926000805160206137c7833981519152928290030190a2610cfa876123c9565b670de0b6b3a764000081565b6002546001600160a01b031681565b601154600160801b90046001600160801b031681565b6004546001600160a01b031681565b670f43fc2c04ee000081565b6000805460408051632f5a97e560e11b8152905183926001600160a01b031691635eb52fca916004808301926020929190829003018186803b1580156110f057600080fd5b505afa158015611104573d6000803e3d6000fd5b505050506040513d602081101561111a57600080fd5b505160015460408051632f5a97e560e11b815290519293506000926001600160a01b0390921691635eb52fca91600480820192602092909190829003018186803b15801561116757600080fd5b505afa15801561117b573d6000803e3d6000fd5b505050506040513d602081101561119157600080fd5b505190506111a5828263ffffffff610aae16565b9250505090565b6000546001600160a01b031681565b601360209081526000928352604080842090915290825290205481565b600c602052600090815260409020805460018201546002830154600390930154919290916001600160801b0380821691600160801b90041685565b6000805460408051630a7b61df60e11b8152905183926001600160a01b0316916314f6c3be916004808301926020929190829003018186803b15801561125857600080fd5b505afa15801561126c573d6000803e3d6000fd5b505050506040513d602081101561128257600080fd5b505160015460408051630a7b61df60e11b815290519293506000926001600160a01b03909216916314f6c3be91600480820192602092909190829003018186803b15801561116757600080fd5b60105481565b6003546001600160a01b031690565b6003546001600160a01b0316331490565b6008546001600160a01b031681565b600a5490565b6040518060400160405280600d81526020016c14dd18589a5b1a5d1e541bdbdb609a1b81525081565b6011546001600160801b031681565b6001600160a01b0382166000908152600b60205260408120548061136a576000915050610b0b565b61137261359d565b506001600160a01b0384166000908152600c60209081526040808320815160a08101835281548152600182015493810193909352600281015491830191909152600301546001600160801b038082166060840152600160801b909104166080820152906113df8383612e03565b90508415611402576113f881600263ffffffff612eff16565b9350505050610b0b565b95945050505050565b600d602052600090815260409020805460019091015460ff1682565b6007546001600160a01b031681565b6006546001600160a01b031681565b633b9aca0081565b60145481565b6001600160a01b0381166000908152600e60205260408120548061147b576000915050610e1b565b6001600160a01b0383166000908152600d6020526040812054906114ad670de0b6b3a76400008363ffffffff611e9016565b90506114b761359d565b506001600160a01b0385166000908152600f60209081526040808320815160a08101835281548152600182015493810193909352600281015491830191909152600301546001600160801b038082166060840152600160801b9091041660808201529061154c670de0b6b3a76400006115406115338886612f41565b869063ffffffff612fcd16565b9063ffffffff612eff16565b979650505050505050565b60155481565b6001600160a01b0381166000908152600e602052604081205480611585576000915050610e1b565b61158d61359d565b506001600160a01b0383166000908152600f60209081526040808320815160a08101835281548152600182015493810193909352600281015491830191909152600301546001600160801b038082166060840152600160801b90910416608082015290610e158383612e03565b6116026112e4565b611653576040805162461bcd60e51b815260206004820181905260248201527f4f776e61626c653a2063616c6c6572206973206e6f7420746865206f776e6572604482015290519081900360640190fd5b61165c87613026565b61166586613026565b61166e85613026565b61167784613026565b61168083613026565b61168982613026565b61169281613026565b600480546001600160a01b03199081166001600160a01b038a81169182179093556005805483168a85161790556000805483168985161790556006805483168885161790556007805483168785161790556002805483168685161790556008805490921692841692909217905560408051918252517f3ca631ffcd2a9b5d9ae18543fc82f58eb4ca33af9e6ab01b7a8e95331e6ed985916020908290030190a1604080516001600160a01b038816815290517f143219c9e69b09e07e095fcc889b43d8f46ca892bba65f08dc3a0050869a56789181900360200190a1604080516001600160a01b038716815290517f78f058b189175430c48dc02699e3a0031ea4ff781536dc2fab847de4babdd8829181900360200190a1604080516001600160a01b038616815290517f227eec0ec317af6ab1a9587ffa1c84332522eb4c583a908f89babc05f8f339bd9181900360200190a1604080516001600160a01b038516815290517f65f4cf077bc01e4742eb5ad98326f6e95b63548ea24b17f8d5e823111fe788009181900360200190a1604080516001600160a01b038416815290517f8c537274438aa850a330284665d81a85dd38267d09e4050d416bfc94142db2649181900360200190a1604080516001600160a01b038316815290517f3055265812fb8447b9ada4a5d804ec43bd528ec40e89c952bbc7b85dc5ac68119181900360200190a16118a26130d5565b50505050505050565b6001600160a01b0381166000908152600b6020526040812054806118d3576000915050610e1b565b6001600160a01b038084166000908152600b6020526040812060010154909116908115611918576001600160a01b0382166000908152600d6020526040902054611922565b670de0b6b3a76400005b905061192c61359d565b506001600160a01b0385166000908152600c60209081526040808320815160a08101835281548152600182015493810193909352600281015491830191909152600301546001600160801b038082166060840152600160801b9091041660808201529061154c670de0b6b3a76400006115406115338886612f41565b6611c37937e0800081565b600b60205260009081526040902080546001909101546001600160a01b031682565b336000908152600b60205260409020546119ee81611dc4565b6119f73361311f565b611a00336131d6565b6008546001600160a01b0316611a1581611e06565b6000611a2033610d78565b90506000611a2f336000611342565b90506000611a43858363ffffffff611e9016565b336000818152600b60205260409020600101549192506001600160a01b0390911690611a7190869083611ed2565b6000611a7c8261155d565b905080611a898382612071565b6040805182815233602082015281516001600160a01b03861692600080516020613878833981519152928290030190a2611ac33386612243565b6040805187815260208101869052815133926000805160206137c7833981519152928290030190a260408051868152905133916000805160206136e3833981519152919081900360200190a2600954611b22908763ffffffff611e9016565b600981905560408051918252516000805160206136928339815191529181900360200190a1604080513381526020810188905281517f6109e2559dfa766aaec7118351d48a523f0a4157f49c8d68749c8ac41318ad12929181900390910190a1600480546040805163ea9638bf60e01b815233938101939093526001600160a01b038d811660248501528c81166044850152905191169163ea9638bf91899160648082019260009290919082900301818588803b158015611be257600080fd5b505af1158015611bf6573d6000803e3d6000fd5b505050505050505050505050505050565b60025460408051630fdb11cf60e01b815290516000926001600160a01b031691630fdb11cf91600480830192602092919082900301818787803b158015611c4d57600080fd5b505af1158015611c61573d6000803e3d6000fd5b505050506040513d6020811015611c7757600080fd5b505160075460408051634d62283160e01b815290519293506000926001600160a01b0390921691634d62283191600480820192602092909190829003018186803b158015611cc457600080fd5b505afa158015611cd8573d6000803e3d6000fd5b505050506040513d6020811015611cee57600080fd5b505160055460408051630d293c7160e41b81526001600160a01b038085166004830152602482018790529151939450600093919092169163d293c710916044808301926020929190829003018186803b158015611d4a57600080fd5b505afa158015611d5e573d6000803e3d6000fd5b505050506040513d6020811015611d7457600080fd5b50519050670f43fc2c04ee0000811015611dbf5760405162461bcd60e51b81526004018080602001828103825260448152602001806138e56044913960600191505060405180910390fd5b505050565b60008111611e035760405162461bcd60e51b81526004018080602001828103825260308152602001806138486030913960400191505060405180910390fd5b50565b6000816001600160a01b03166346ad34d96040518163ffffffff1660e01b8152600401602060405180830381600087803b158015611e4357600080fd5b505af1158015611e57573d6000803e3d6000fd5b505050506040513d6020811015611e6d57600080fd5b50519050610d7481613222565b6000818310611e895781610b08565b5090919050565b6000610b0883836040518060400160405280601e81526020017f536166654d6174683a207375627472616374696f6e206f766572666c6f77000081525061333d565b6001600160a01b03811615611fa7576000611eec82611453565b9050836001600160a01b031663614d2ab683836040518363ffffffff1660e01b815260040180836001600160a01b03166001600160a01b0316815260200182815260200192505050600060405180830381600087803b158015611f4e57600080fd5b505af1158015611f62573d6000803e3d6000fd5b50506040805184815290516001600160a01b03861693507fcd2cdc1a4af71051394e9c6facd9a266b2ac5bd65d219a701eeda009f47682bf92509081900360200190a2505b6000611fb2836118ab565b9050836001600160a01b031663614d2ab684836040518363ffffffff1660e01b815260040180836001600160a01b03166001600160a01b0316815260200182815260200192505050600060405180830381600087803b15801561201457600080fd5b505af1158015612028573d6000803e3d6000fd5b50506040805184815290516001600160a01b03871693507f2608b986a6ac0f6c629ca37018e80af5561e366252ae93602a96d3ab2e73e42d92509081900360200190a250505050565b6001600160a01b0382166000908152600e6020526040902081905580612101576001600160a01b0382166000818152600f60209081526040808320838155600181018490556002810184905560030183905580518381529182019290925281517fbb1322f85cc7cc8bac4e172a5bc5dcc0c1959007f9a030032abf9258205f0e45929181900390910190a2610d74565b6011546010546001600160801b03600160801b80840482166000818152601360209081526040808320978616808452978252808320546001600160a01b038b16808552600f845293829020600181018990556002810182905560030180546001600160801b0319168a17909716958502959095179095558451868152908101849052845192959491927fbb1322f85cc7cc8bac4e172a5bc5dcc0c1959007f9a030032abf9258205f0e45929181900390910190a2505050505050565b806121c757610d74565b60065460408051631062c15f60e11b81523060048201526001600160a01b03858116602483015260448201859052915191909216916320c582be91606480830192600092919082900301818387803b15801561222257600080fd5b505af1158015612236573d6000803e3d6000fd5b50505050610d74816133d4565b6001600160a01b0382166000908152600b60205260409020819055806122f1576001600160a01b0382166000818152600b60209081526040808320600190810180546001600160a01b0319169055600c83528184208481559081018490556002810184905560030183905580518381529182018390528181019290925290517f2d6cc0bcdf72c9486f6451bde6b80f44066f4558f77f44dbfedbe7d8b295225a9181900360600190a2610d74565b6011546010546001600160801b03600160801b8084048216600081815260126020908152604080832097861680845297825280832054848452601383528184208985528352818420546001600160a01b038c16808652600c855294839020600181018a90558281556002810182905560030180546001600160801b0319168b179098169686029690961790965580518781529182018690528181018590525192959493927f2d6cc0bcdf72c9486f6451bde6b80f44066f4558f77f44dbfedbe7d8b295225a916060908290030190a250505050505050565b806123d357611e03565b6009546000906123e9908363ffffffff611e9016565b6009819055604080518281529051919250600080516020613692833981519152919081900360200190a1604080513381526020810184905281517f6109e2559dfa766aaec7118351d48a523f0a4157f49c8d68749c8ac41318ad12929181900390910190a1604051600090339084908381818185875af1925050503d8060008114612490576040519150601f19603f3d011682016040523d82523d6000602084013e612495565b606091505b5050905080611dbf5760405162461bcd60e51b815260040180806020018281038252602181526020018061372c6021913960400191505060405180910390fd5b6005546001600160a01b03163314610aac5760405162461bcd60e51b81526004018080602001828103825260298152602001806137036029913960400191505060405180910390fd5b6000806000612550601554612544670de0b6b3a764000089612fcd90919063ffffffff16565b9063ffffffff610aae16565b90508385111561255c57fe5b83851415612579576000601655670de0b6b3a764000091506125d9565b6016546000906125a79061259b88670de0b6b3a764000063ffffffff612fcd16565b9063ffffffff611e9016565b90506125be6001612544838863ffffffff612eff16565b92506125d48161259b858863ffffffff612fcd16565b601655505b6125e9818563ffffffff612eff16565b925061260b6125fe848663ffffffff612fcd16565b829063ffffffff611e9016565b60155550935093915050565b6010546000670de0b6b3a764000083111561262e57fe5b6000612648670de0b6b3a76400008563ffffffff611e9016565b6011546001600160801b03600160801b82048116600081815260126020908152604080832094909516808352939052928320549394509092909161268c8988612fcd565b905060006126a0838363ffffffff610aae16565b6001600160801b038086166000818152601260209081526040808320948b16808452948252918290208590558151858152908101929092528181019290925290519192507fe12e2cd2c9afa8069203ca07e7eff1edce4a075686d0736a8e7e0d593597b207919081900360600190a1856127d75761272e6001600160801b038516600163ffffffff61342a16565b601180546001600160801b03908116600160801b938216840217918290556040805193909204168252517fb50f0f59e7cb5b421dc77581c3a9919e3806e076e5fa78a874c3f120cb7d874d916020908290030190a1601180546001600160801b0319169055604080516000815290517f1f9dfc70cd666adb18a39d60a797518f7b4febf4b6e24ef37d44f6e1e7219fbe9181900360200190a1670de0b6b3a764000096506128c3565b633b9aca006127f8670de0b6b3a76400006115408b8a63ffffffff612fcd16565b10156128a45761282e670de0b6b3a7640000611540633b9aca006128228c8b63ffffffff612fcd16565b9063ffffffff612fcd16565b965061284a6001600160801b038616600163ffffffff61342a16565b601180546001600160801b0319166001600160801b0392831617908190556040805191909216815290517f1f9dfc70cd666adb18a39d60a797518f7b4febf4b6e24ef37d44f6e1e7219fbe916020908290030190a16128c3565b6128c0670de0b6b3a76400006115408a8963ffffffff612fcd16565b96505b600087116128cd57fe5b60108790556040805188815290517fc1a9618cb59ebca77cbdbc2949f126823c407ff13edb285fd0262519a9c18e8c9181900360200190a150505050505050505050565b600080546040805163071b32b560e31b81526004810185905290516001600160a01b039092169283926338d995a892602480820193929182900301818387803b15801561295d57600080fd5b505af1158015612971573d6000803e3d6000fd5b5050505061297e826133d4565b60065460408051632770a7eb60e21b81523060048201526024810185905290516001600160a01b0390921691639dc29fac9160448082019260009290919082900301818387803b1580156129d157600080fd5b505af11580156129e5573d6000803e3d6000fd5b5050604080516364a197f360e01b81523060048201526024810187905290516001600160a01b03851693506364a197f39250604480830192600092919082900301818387803b158015612a3757600080fd5b505af11580156118a2573d6000803e3d6000fd5b6080810151606082015182516020808501516001600160801b03808616600090815260128452604080822092871682529190935282205491949392918590612a99908463ffffffff611e9016565b6001600160801b03808716600090815260126020526040812092935091612afc91633b9aca0091908490612ad6908a16600163ffffffff61342a16565b6001600160801b031681526020810191909152604001600020549063ffffffff612eff16565b90506000612b2e670de0b6b3a76400006115408681612b21888863ffffffff610aae16565b8f9063ffffffff612fcd16565b9a9950505050505050505050565b6001600160a01b0381166000908152600d602052604090206001015460ff1615611e035760405162461bcd60e51b81526004018080602001828103825260398152602001806137e76039913960400191505060405180910390fd5b6001600160a01b0381166000908152600b60205260409020548015610d745760405162461bcd60e51b81526004018080602001828103825260288152602001806138206028913960400191505060405180910390fd5b670de0b6b3a7640000811115611e035760405162461bcd60e51b815260040180806020018281038252603381526020018061376e6033913960400191505060405180910390fd5b6001600160a01b0381166000908152600d602052604090206001015460ff1680612c6557506001600160a01b038116155b611e035760405162461bcd60e51b81526004018080602001828103825260468152602001806136256046913960600191505060405180910390fd5b60008111611e035760405162461bcd60e51b81526004018080602001828103825260268152602001806137a16026913960400191505060405180910390fd5b6001600160a01b038281166000818152600b602052604080822060010180546001600160a01b0319169486169485179055517f094c08e96a8890877a8390b4f967180a7507ad8622244d05fcd0f9f8e086564e9190a35050565b60065460408051632ee65eeb60e21b81526001600160a01b038581166004830152306024830152604482018590529151919092169163bb997bac91606480830192600092919082900301818387803b158015612d9457600080fd5b505af1158015612da8573d6000803e3d6000fd5b5050600a5460009250612dc291508363ffffffff610aae16565b600a8190556040805182815290519192507fa8e886449d8f7e765877b4a4f54632da3943ae454d5a272bdccb1781f086ff29919081900360200190a1505050565b6020810151606082015160808301516011546000939291906001600160801b03600160801b90910481169082161015612e425760009350505050610b0b565b6011546000908190612e63906001600160801b03168563ffffffff61347a16565b90506001600160801b038116612e9357612e8c856115406010548b612fcd90919063ffffffff16565b9150612ecb565b806001600160801b031660011415612ec657612e8c633b9aca00611540876115406010548d612fcd90919063ffffffff16565b600091505b612edf88633b9aca0063ffffffff612eff16565b821015612ef457600095505050505050610b0b565b509695505050505050565b6000610b0883836040518060400160405280601a81526020017f536166654d6174683a206469766973696f6e206279207a65726f0000000000008152506134d3565b608081015160608201516040808401516020808601516001600160801b03808716600090815260138452858120918716815292529281205490949392908590612f90908463ffffffff611e9016565b6001600160801b03808716600090815260136020526040812092935091612afc91633b9aca0091908490612ad6908a16600163ffffffff61342a16565b600082612fdc57506000610b0b565b82820282848281612fe957fe5b0414610b085760405162461bcd60e51b815260040180806020018281038252602181526020018061374d6021913960400191505060405180910390fd5b6001600160a01b038116613081576040805162461bcd60e51b815260206004820152601e60248201527f4163636f756e742063616e6e6f74206265207a65726f20616464726573730000604482015290519081900360640190fd5b803b80610d74576040805162461bcd60e51b815260206004820181905260248201527f4163636f756e7420636f64652073697a652063616e6e6f74206265207a65726f604482015290519081900360640190fd5b6003546040516000916001600160a01b0316907f8be0079c531659141344cd1fd0a4f28419497f9722a3daafe3b4186f6b6457e0908390a3600380546001600160a01b0319169055565b600554604080516321e3780160e01b81526001600160a01b038481166004830152915191909216916321e37801916024808301926020929190829003018186803b15801561316c57600080fd5b505afa158015613180573d6000803e3d6000fd5b505050506040513d602081101561319657600080fd5b5051600114611e035760405162461bcd60e51b81526004018080602001828103825260468152602001806135df6046913960600191505060405180910390fd5b60006131e182610d78565b905060008111610d745760405162461bcd60e51b81526004018080602001828103825260318152602001806136b26031913960400191505060405180910390fd5b600a54801580613230575081155b1561323b5750611e03565b60006132478383613538565b9050600061326060105483612fcd90919063ffffffff16565b6011546001600160801b03600160801b8204811660009081526013602090815260408083209390941682529190915220549091506132a4908263ffffffff610aae16565b601180546001600160801b03600160801b808304821660009081526013602081815260408084209686168452958152858320979097559454918204831680825294865283812091909216808352908552908290205482519081529384019290925282810191909152517f2d6127771b164a9cc8827d24b5955db2a77e7a81dac389107ebb8bce9fb649689181900360600190a150505050565b600081848411156133cc5760405162461bcd60e51b81526004018080602001828103825283818151815260200191508051906020019080838360005b83811015613391578181015183820152602001613379565b50505050905090810190601f1680156133be5780820380516001836020036101000a031916815260200191505b509250505060405180910390fd5b505050900390565b600a546000906133ea908363ffffffff611e9016565b600a8190556040805182815290519192507fa8e886449d8f7e765877b4a4f54632da3943ae454d5a272bdccb1781f086ff29919081900360200190a15050565b60008282016001600160801b038085169082161015610b085760405162461bcd60e51b81526004018080602001828103825260258152602001806138c06025913960400191505060405180910390fd5b6000826001600160801b0316826001600160801b031611156134cd5760405162461bcd60e51b81526004018080602001828103825260288152602001806138986028913960400191505060405180910390fd5b50900390565b600081836135225760405162461bcd60e51b8152602060048201818152835160248401528351909283926044909101919085019080838360008315613391578181015183820152602001613379565b50600083858161352e57fe5b0495945050505050565b60008061355c601454612544670de0b6b3a764000087612fcd90919063ffffffff16565b90506000613570828563ffffffff612eff16565b9050613592613585828663ffffffff612fcd16565b839063ffffffff611e9016565b601455949350505050565b6040518060a0016040528060008152602001600081526020016000815260200160006001600160801b0316815260200160006001600160801b03168152509056fe53746162696c697479506f6f6c3a2063616c6c6572206d757374206861766520616e206163746976652074726f766520746f207769746864726177204554484761696e20746f53746162696c697479506f6f6c3a20546167206d757374206265206120726567697374657265642066726f6e7420656e642c206f7220746865207a65726f206164647265737353746162696c697479506f6f6c3a2043616c6c6572206973206e6f7420416374697665506f6f6cceb6d671277d4354fd29977ada70695fbd93a16612abf765d6b0e25c28dc6db353746162696c697479506f6f6c3a2063616c6c6572206d7573742068617665206e6f6e2d7a65726f20455448204761696ebce78369dccab09eec1986f4d409ab09ffbb47d65423e5148fcf98411c5111c953746162696c697479506f6f6c3a2043616c6c6572206973206e6f742054726f76654d616e6167657253746162696c697479506f6f6c3a2073656e64696e6720455448206661696c6564536166654d6174683a206d756c7469706c69636174696f6e206f766572666c6f7753746162696c697479506f6f6c3a204b69636b6261636b2072617465206d75737420626520696e2072616e6765205b302c315d53746162696c697479506f6f6c3a20416d6f756e74206d757374206265206e6f6e2d7a65726f51457222ebca92c335c9c86e2baa1cc0e40ffaa9084a51452980d5ba8dec2f6353746162696c697479506f6f6c3a206d757374206e6f7420616c7265616479206265206120726567697374657265642066726f6e7420656e6453746162696c697479506f6f6c3a2055736572206d7573742068617665206e6f206465706f73697453746162696c697479506f6f6c3a2055736572206d75737420686176652061206e6f6e2d7a65726f206465706f73697499920012339b5a3368d3a04b8606ce412c46ed92b7dcd8602d41fc8862cb8f254c697175697479536166654d6174683132383a207375627472616374696f6e206f766572666c6f774c697175697479536166654d6174683132383a206164646974696f6e206f766572666c6f7753746162696c697479506f6f6c3a2043616e6e6f74207769746864726177207768696c65207468657265206172652074726f766573207769746820494352203c204d4352a2646970667358221220ca9b2eab2b1409ea1bf7361574027852053c8a0c6d12cf5d65cdc395b6e3fa1164736f6c634300060b0033",
  "linkReferences": {},
  "deployedLinkReferences": {}
}