{
  "_format": "hh-sol-artifact-1",
  "contractName": "StabilityFactory",
  "sourceName": "contracts/StabilityFactory.sol",
  "abi": [
    {
      "inputs": [
        {
          "internalType": "address",
          "name": "_frontEnd",
          "type": "address"
        },
        {
          "internalType": "contract IERC20",
          "name": "_lusdToken",
          "type": "address"
        },
        {
          "internalType": "contract IERC20",
          "name": "_lqtyToken",
          "type": "address"
        },
        {
          "internalType": "contract StringToken",
          "name": "_stringToken",
          "type": "address"
        },
        {
          "internalType": "contract IStabilityPool",
          "name": "_stabilityPool",
          "type": "address"
        },
        {
          "internalType": "uint256",
          "name": "_boostedBuffer",
          "type": "uint256"
        },
        {
          "internalType": "contract ETHSendContract",
          "name": "_test",
          "type": "address"
        }
      ],
      "stateMutability": "nonpayable",
      "type": "constructor"
    },
    {
      "anonymous": false,
      "inputs": [
        {
          "indexed": true,
          "internalType": "address",
          "name": "who",
          "type": "address"
        },
        {
          "indexed": false,
          "internalType": "uint256",
          "name": "amountClaimed",
          "type": "uint256"
        }
      ],
      "name": "Claim",
      "type": "event"
    },
    {
      "anonymous": false,
      "inputs": [
        {
          "indexed": true,
          "internalType": "address",
          "name": "who",
          "type": "address"
        },
        {
          "indexed": true,
          "internalType": "address",
          "name": "proxy",
          "type": "address"
        }
      ],
      "name": "Deploy",
      "type": "event"
    },
    {
      "inputs": [
        {
          "internalType": "uint256",
          "name": "_newAddition",
          "type": "uint256"
        }
      ],
      "name": "addLUSD",
      "outputs": [],
      "stateMutability": "nonpayable",
      "type": "function"
    },
    {
      "inputs": [],
      "name": "boostedMultiplier",
      "outputs": [
        {
          "internalType": "uint256",
          "name": "",
          "type": "uint256"
        }
      ],
      "stateMutability": "view",
      "type": "function"
    },
    {
      "inputs": [
        {
          "internalType": "address",
          "name": "_sender",
          "type": "address"
        }
      ],
      "name": "claim",
      "outputs": [],
      "stateMutability": "nonpayable",
      "type": "function"
    },
    {
      "inputs": [],
      "name": "createStabilityProxy",
      "outputs": [],
      "stateMutability": "nonpayable",
      "type": "function"
    },
    {
      "inputs": [],
      "name": "endBlock",
      "outputs": [
        {
          "internalType": "uint256",
          "name": "",
          "type": "uint256"
        }
      ],
      "stateMutability": "view",
      "type": "function"
    },
    {
      "inputs": [],
      "name": "frontEnd",
      "outputs": [
        {
          "internalType": "address",
          "name": "",
          "type": "address"
        }
      ],
      "stateMutability": "view",
      "type": "function"
    },
    {
      "inputs": [
        {
          "internalType": "uint256",
          "name": "_from",
          "type": "uint256"
        },
        {
          "internalType": "uint256",
          "name": "_to",
          "type": "uint256"
        }
      ],
      "name": "getMultiplier",
      "outputs": [
        {
          "internalType": "uint256",
          "name": "",
          "type": "uint256"
        }
      ],
      "stateMutability": "view",
      "type": "function"
    },
    {
      "inputs": [],
      "name": "isBoosted",
      "outputs": [
        {
          "internalType": "bool",
          "name": "",
          "type": "bool"
        }
      ],
      "stateMutability": "view",
      "type": "function"
    },
    {
      "inputs": [],
      "name": "lqtyToken",
      "outputs": [
        {
          "internalType": "contract IERC20",
          "name": "",
          "type": "address"
        }
      ],
      "stateMutability": "view",
      "type": "function"
    },
    {
      "inputs": [],
      "name": "lusdToken",
      "outputs": [
        {
          "internalType": "contract IERC20",
          "name": "",
          "type": "address"
        }
      ],
      "stateMutability": "view",
      "type": "function"
    },
    {
      "inputs": [
        {
          "internalType": "address",
          "name": "_user",
          "type": "address"
        }
      ],
      "name": "pendingString",
      "outputs": [
        {
          "internalType": "uint256",
          "name": "",
          "type": "uint256"
        }
      ],
      "stateMutability": "view",
      "type": "function"
    },
    {
      "inputs": [],
      "name": "pool",
      "outputs": [
        {
          "internalType": "uint256",
          "name": "lastRewardBlock",
          "type": "uint256"
        },
        {
          "internalType": "uint256",
          "name": "accStringPerShare",
          "type": "uint256"
        }
      ],
      "stateMutability": "view",
      "type": "function"
    },
    {
      "inputs": [],
      "name": "postBoostedBlock",
      "outputs": [
        {
          "internalType": "uint256",
          "name": "",
          "type": "uint256"
        }
      ],
      "stateMutability": "view",
      "type": "function"
    },
    {
      "inputs": [
        {
          "internalType": "address",
          "name": "",
          "type": "address"
        }
      ],
      "name": "registeredClone",
      "outputs": [
        {
          "internalType": "bool",
          "name": "",
          "type": "bool"
        }
      ],
      "stateMutability": "view",
      "type": "function"
    },
    {
      "inputs": [],
      "name": "stabilityPool",
      "outputs": [
        {
          "internalType": "contract IStabilityPool",
          "name": "",
          "type": "address"
        }
      ],
      "stateMutability": "view",
      "type": "function"
    },
    {
      "inputs": [],
      "name": "stringPerBlock",
      "outputs": [
        {
          "internalType": "uint256",
          "name": "",
          "type": "uint256"
        }
      ],
      "stateMutability": "view",
      "type": "function"
    },
    {
      "inputs": [],
      "name": "stringToken",
      "outputs": [
        {
          "internalType": "contract StringToken",
          "name": "",
          "type": "address"
        }
      ],
      "stateMutability": "view",
      "type": "function"
    },
    {
      "inputs": [
        {
          "internalType": "uint256",
          "name": "_newSubtract",
          "type": "uint256"
        }
      ],
      "name": "subtractLUSD",
      "outputs": [],
      "stateMutability": "nonpayable",
      "type": "function"
    },
    {
      "inputs": [],
      "name": "testContract",
      "outputs": [
        {
          "internalType": "contract ETHSendContract",
          "name": "",
          "type": "address"
        }
      ],
      "stateMutability": "view",
      "type": "function"
    },
    {
      "inputs": [],
      "name": "totalLUSD",
      "outputs": [
        {
          "internalType": "uint256",
          "name": "",
          "type": "uint256"
        }
      ],
      "stateMutability": "view",
      "type": "function"
    },
    {
      "inputs": [],
      "name": "update",
      "outputs": [],
      "stateMutability": "nonpayable",
      "type": "function"
    },
    {
      "inputs": [
        {
          "internalType": "uint256",
          "name": "_amount",
          "type": "uint256"
        },
        {
          "internalType": "address",
          "name": "_owner",
          "type": "address"
        }
      ],
      "name": "updateProxyBalance",
      "outputs": [],
      "stateMutability": "nonpayable",
      "type": "function"
    },
    {
      "inputs": [
        {
          "internalType": "address",
          "name": "_owner",
          "type": "address"
        }
      ],
      "name": "updateProxyBalanceEmergency",
      "outputs": [],
      "stateMutability": "nonpayable",
      "type": "function"
    },
    {
      "inputs": [
        {
          "internalType": "address",
          "name": "",
          "type": "address"
        }
      ],
      "name": "userProxys",
      "outputs": [
        {
          "internalType": "contract StabilityProxy",
          "name": "proxyAddress",
          "type": "address"
        },
        {
          "internalType": "uint256",
          "name": "amount",
          "type": "uint256"
        },
        {
          "internalType": "uint256",
          "name": "rewardDebt",
          "type": "uint256"
        },
        {
          "internalType": "bool",
          "name": "initialized",
          "type": "bool"
        }
      ],
      "stateMutability": "view",
      "type": "function"
    }
  ],
  "bytecode": "0x6080604052670ccf6d9225bc6f00600b55600e805460ff1916600117905534801561002957600080fd5b5060405161258a38038061258a833981810160405260e081101561004c57600080fd5b5080516020808301516040808501516060860151608087015160a088015160c090980151600080546001600160a01b03808b166001600160a01b0319928316178355875180890190985243808952978a0183905260048890556005929092556006805483871690831617905560098054838a16908316179055600a805492871692909116919091179055969794969295919490939092916100fa91906225317c90610bf261015c821b17901c565b600c55600780546001600160a01b0319166001600160a01b03851617905561012d438361015c602090811b610bf217901c565b600d55600880546001600160a01b0319166001600160a01b039290921691909117905550610160945050505050565b0190565b61241b8061016f6000396000f3fe608060405234801561001057600080fd5b50600436106101585760003560e01c80638dbb1e3a116100c3578063c36631b41161007c578063c36631b414610324578063c619c6161461032c578063d435fb1c14610349578063df5e898714610375578063e7514c9a1461037d578063f831640a1461038557610158565b80638dbb1e3a146102755780639085257714610298578063910880ad146102f0578063a2e62045146102f8578063b689755914610300578063b83f91a21461031c57610158565b80631f7af3c3116101155780631f7af3c3146101f457806320a83d39146101fc578063350bac341461021957806366bf9ae4146102215780637a3774a1146102475780637f98126a1461024f57610158565b8063048c661d1461015d578063083c6323146101815780630b5f91fc1461019b5780630d483ae1146101a357806316f0115b146101ab5780631e83409a146101cc575b600080fd5b6101656103ab565b604080516001600160a01b039092168252519081900360200190f35b6101896103ba565b60408051918252519081900360200190f35b6101896103c0565b6101896103c6565b6101b36103cb565b6040805192835260208301919091528051918290030190f35b6101f2600480360360208110156101e257600080fd5b50356001600160a01b03166103d4565b005b610165610487565b6101f26004803603602081101561021257600080fd5b5035610496565b610189610506565b6101896004803603602081101561023757600080fd5b50356001600160a01b031661050c565b6101f2610609565b6101f26004803603602081101561026557600080fd5b50356001600160a01b03166107d0565b6101896004803603604081101561028b57600080fd5b508035906020013561086d565b6102be600480360360208110156102ae57600080fd5b50356001600160a01b03166108b9565b604080516001600160a01b03909516855260208501939093528383019190915215156060830152519081900360800190f35b6101896108f0565b6101f26108f6565b610308610a8d565b604080519115158252519081900360200190f35b610165610a96565b610165610aa5565b6101f26004803603602081101561034257600080fd5b5035610ab4565b6101f26004803603604081101561035f57600080fd5b50803590602001356001600160a01b0316610b1e565b610165610bbf565b610165610bce565b6103086004803603602081101561039b57600080fd5b50356001600160a01b0316610bdd565b6007546001600160a01b031681565b600c5481565b600d5481565b600581565b60045460055482565b6001600160a01b038116600090815260016020819052604082209081015460028201549192916104049190610bf6565b90506104108382610c4c565b600554600183015461043e9164e8d4a51000916104329163ffffffff610ddd16565b9063ffffffff610de116565b60028301556040805182815290516001600160a01b038516917f47cee97cb7acd717b3c0aa1435d004cd5b3c8c57d70dbceb4e4458bbd60e39d4919081900360200190a2505050565b600a546001600160a01b031681565b3360009081526002602052604090205460ff1615156001146104ed576040805162461bcd60e51b815260206004820152601f60248201526000805160206123c6833981519152604482015290519081900360640190fd5b600354610500908263ffffffff610bf216565b60035550565b600b5481565b6001600160a01b03811660009081526001602052604081206005546003546004544311801561053a57508015155b156105995760006105506004600001544361086d565b90506000610569600b5483610ddd90919063ffffffff16565b9050610594610587846104328464e8d4a5100063ffffffff610ddd16565b859063ffffffff610bf216565b935050505b60006105cf84600201546105c364e8d4a51000610432878960010154610ddd90919063ffffffff16565b9063ffffffff610df416565b600e5490915060ff16156105f9576105ee81600563ffffffff610ddd16565b945050505050610604565b935061060492505050565b919050565b3360009081526001602052604090206003015460ff1615610671576040805162461bcd60e51b815260206004820152601c60248201527f6164647220616c7265616479206372656174656420612070726f787900000000604482015290519081900360640190fd5b60008054600954600a54600754600854604051339530956001600160a01b03918216959082169490821693908216929116906106ac90610df9565b6001600160a01b039788168152958716602087015293861660408087019190915292861660608601529085166080850152841660a0840152921660c082015290519081900360e001906000f08015801561070a573d6000803e3d6000fd5b509050610715610e06565b50604080516080810182526001600160a01b0380841680835260006020808501828152858701838152600160608801818152338087528286528a87208a5181549a166001600160a01b0319909a16999099178955935188830155915160028089019190915591516003909701805497151560ff19988916179055858552925286832080549095169091179093559351929390927fb1a29087760d8e8f9b263f598962f752e7bd23badd44897e2966d376d1a59dca9190a35050565b3360009081526002602052604090205460ff161515600114610827576040805162461bcd60e51b815260206004820152601f60248201526000805160206123c6833981519152604482015290519081900360640190fd5b6001600160a01b0381166000908152600160208190526040909120908101546003546108589163ffffffff610df416565b60035560006001820181905560029091015550565b6000600c54821161088f57610888828463ffffffff610df416565b90506108b3565b600c5483106108a0575060006108b3565b600c54610888908463ffffffff610df416565b92915050565b600160208190526000918252604090912080549181015460028201546003909201546001600160a01b039093169290919060ff1684565b60035481565b600454431161090457610a8b565b60035480610916575043600455610a8b565b60006109276004600001544361086d565b90506000610940600b5483610ddd90919063ffffffff16565b9050600d544310156109d357600061095f82600563ffffffff610ddd16565b600654604080516308934a5f60e31b81523060048201526024810184905290519293506001600160a01b039091169163449a52f89160448082019260009290919082900301818387803b1580156109b557600080fd5b505af11580156109c9573d6000803e3d6000fd5b5050505050610a55565b600e5460ff16156109e957600e805460ff191690555b600654604080516308934a5f60e31b81523060048201526024810184905290516001600160a01b039092169163449a52f89160448082019260009290919082900301818387803b158015610a3c57600080fd5b505af1158015610a50573d6000803e3d6000fd5b505050505b610a80610a71846104328464e8d4a5100063ffffffff610ddd16565b6005549063ffffffff610bf216565b600555505043600455505b565b600e5460ff1681565b6009546001600160a01b031681565b6008546001600160a01b031681565b3360009081526002602052604090205460ff161515600114610b0b576040805162461bcd60e51b815260206004820152601f60248201526000805160206123c6833981519152604482015290519081900360640190fd5b600354610500908263ffffffff610df416565b3360009081526002602052604090205460ff161515600114610b75576040805162461bcd60e51b815260206004820152601f60248201526000805160206123c6833981519152604482015290519081900360640190fd5b6001600160a01b0381166000908152600160208190526040909120908101839055600554610bb59064e8d4a510009061043290869063ffffffff610ddd16565b6002909101555050565b6006546001600160a01b031681565b6000546001600160a01b031681565b60026020526000908152604090205460ff1681565b0190565b600080610c1e836105c364e8d4a5100061043260046001015489610ddd90919063ffffffff16565b600e5490915060ff1615610c4557610c3d81600563ffffffff610ddd16565b9150506108b3565b9392505050565b600654604080516370a0823160e01b815230600482015290516000926001600160a01b0316916370a08231916024808301926020929190829003018186803b158015610c9757600080fd5b505afa158015610cab573d6000803e3d6000fd5b505050506040513d6020811015610cc157600080fd5b5051905080821115610d55576006546040805163a9059cbb60e01b81526001600160a01b038681166004830152602482018590529151919092169163a9059cbb9160448083019260209291908290030181600087803b158015610d2357600080fd5b505af1158015610d37573d6000803e3d6000fd5b505050506040513d6020811015610d4d57600080fd5b50610dd89050565b6006546040805163a9059cbb60e01b81526001600160a01b038681166004830152602482018690529151919092169163a9059cbb9160448083019260209291908290030181600087803b158015610dab57600080fd5b505af1158015610dbf573d6000803e3d6000fd5b505050506040513d6020811015610dd557600080fd5b50505b505050565b0290565b6000818381610dec57fe5b049392505050565b900390565b61158c80610e3a83390190565b604051806080016040528060006001600160a01b031681526020016000815260200160008152602001600015158152509056fe608060405234801561001057600080fd5b5060405161158c38038061158c833981810160405260e081101561003357600080fd5b508051602082015160408301516060840151608085015160a086015160c090960151600280546001600160a01b03199081166001600160a01b0398891617909155600380548216948816949094179093556004805484169287169290921790915560058054831696861696909617909555600180548216928516929092179091556006805482169284169290921790915560078054909116919092161790556114ab806100e16000396000f3fe6080604052600436106100b65760003560e01c8063b6b55f251161006f578063b6b55f251461022e578063b83f91a214610258578063b9f6d8ff1461026d578063c0bce78814610294578063c36631b4146102a9578063db2e21bc146102be578063e7514c9a146102d357610128565b8063048c661d146101685780631f7af3c3146101995780632d81a78e146101ae5780632e1a7d4d146101da5780633af82b17146102045780638da5cb5b1461021957610128565b36610128576100e3604051806040016040528060078152602001667265636569766560c81b8152506102e8565b60408051808201909152600a81526918dd5c9c995b9d10985b60b21b602082015247906101109082610391565b600254610125906001600160a01b0316610443565b50005b6101516040518060400160405280600881526020016766616c6c6261636b60c01b8152506102e8565b600254610166906001600160a01b0316610443565b005b34801561017457600080fd5b5061017d61049f565b604080516001600160a01b039092168252519081900360200190f35b3480156101a557600080fd5b5061017d6104ae565b3480156101ba57600080fd5b50610166600480360360208110156101d157600080fd5b503515156104bd565b3480156101e657600080fd5b50610166600480360360208110156101fd57600080fd5b50356105f5565b34801561021057600080fd5b5061017d6108aa565b34801561022557600080fd5b5061017d6108b9565b34801561023a57600080fd5b506101666004803603602081101561025157600080fd5b50356108c8565b34801561026457600080fd5b5061017d610ba8565b34801561027957600080fd5b50610282610bb7565b60408051918252519081900360200190f35b3480156102a057600080fd5b50610166610bbd565b3480156102b557600080fd5b5061017d610c27565b3480156102ca57600080fd5b50610166610c36565b3480156102df57600080fd5b5061017d610deb565b61038e816040516024018080602001828103825283818151815260200191508051906020019080838360005b8381101561032c578181015183820152602001610314565b50505050905090810190601f1680156103595780820380516001836020036101000a031916815260200191505b5060408051601f198184030181529190526020810180516001600160e01b031663104c13eb60e21b1790529250610dfa915050565b50565b61043f82826040516024018080602001838152602001828103825284818151815260200191508051906020019080838360005b838110156103dc5781810151838201526020016103c4565b50505050905090810190601f1680156104095780820380516001836020036101000a031916815260200191505b5060408051601f198184030181529190526020810180516001600160e01b03166309710a9d60e41b1790529350610dfa92505050565b5050565b47801561043f576040516001600160a01b038316908290600081818185875af1925050503d8060008114610493576040519150601f19603f3d011682016040523d82523d6000602084013e610498565b606091505b5050505050565b6005546001600160a01b031681565b6004546001600160a01b031681565b6002546001600160a01b0316331461050a576040805162461bcd60e51b815260206004820152601f602482015260008051602061142e833981519152604482015290519081900360640190fd5b600660009054906101000a90046001600160a01b03166001600160a01b031663a2e620456040518163ffffffff1660e01b8152600401600060405180830381600087803b15801561055a57600080fd5b505af115801561056e573d6000803e3d6000fd5b5050505061057b81610e1b565b60055460408051632e54bf9560e01b815260006004820181905291516001600160a01b0390931692632e54bf959260248084019391929182900301818387803b1580156105c757600080fd5b505af11580156105db573d6000803e3d6000fd5b505060025461038e92506001600160a01b0316905061109f565b6002546001600160a01b03163314610642576040805162461bcd60e51b815260206004820152601f602482015260008051602061142e833981519152604482015290519081900360640190fd5b6000548111156106835760405162461bcd60e51b815260040180806020018281038252602881526020018061144e6028913960400191505060405180910390fd5b600660009054906101000a90046001600160a01b03166001600160a01b031663a2e620456040518163ffffffff1660e01b8152600401600060405180830381600087803b1580156106d357600080fd5b505af11580156106e7573d6000803e3d6000fd5b505050506106f56000610e1b565b600054811115610785576005546000805460408051632e54bf9560e01b81526004810192909252516001600160a01b0390931692632e54bf959260248084019391929182900301818387803b15801561074d57600080fd5b505af1158015610761573d6000803e3d6000fd5b505060025460005461078093506001600160a01b0390911691506111a6565b610801565b60055460408051632e54bf9560e01b81526004810184905290516001600160a01b0390921691632e54bf959160248082019260009290919082900301818387803b1580156107d257600080fd5b505af11580156107e6573d6000803e3d6000fd5b505060025461080192506001600160a01b03169050826111a6565b600654600080546002546040805163350d7ec760e21b815260048101939093526001600160a01b0391821660248401525193169263d435fb1c9260448084019391929182900301818387803b15801561085957600080fd5b505af115801561086d573d6000803e3d6000fd5b50506040805184815290513393507f884edad9ce6fa2440d8a54cc123490eb96d2768479d49ff9c7366125a942436492509081900360200190a250565b6006546001600160a01b031681565b6002546001600160a01b031681565b6002546001600160a01b03163314610915576040805162461bcd60e51b815260206004820152601f602482015260008051602061142e833981519152604482015290519081900360640190fd5b600660009054906101000a90046001600160a01b03166001600160a01b031663a2e620456040518163ffffffff1660e01b8152600401600060405180830381600087803b15801561096557600080fd5b505af1158015610979573d6000803e3d6000fd5b50505050600080541115610991576109916000610e1b565b600354604080516323b872dd60e01b81523360048201523060248201526044810184905290516001600160a01b03909216916323b872dd916064808201926020929091908290030181600087803b1580156109eb57600080fd5b505af11580156109ff573d6000803e3d6000fd5b505050506040513d6020811015610a1557600080fd5b5050600654604080516320a83d3960e01b81526004810184905290516001600160a01b03909216916320a83d399160248082019260009290919082900301818387803b158015610a6457600080fd5b505af1158015610a78573d6000803e3d6000fd5b5050600054610a90925090508263ffffffff61142416565b600090815560055460015460408051635f788d6560e01b8152600481018690526001600160a01b03928316602482015290519190921692635f788d65926044808201939182900301818387803b158015610ae957600080fd5b505af1158015610afd573d6000803e3d6000fd5b5050600654600080546002546040805163350d7ec760e21b815260048101939093526001600160a01b039182166024840152519316945063d435fb1c93506044808201939182900301818387803b158015610b5757600080fd5b505af1158015610b6b573d6000803e3d6000fd5b50506040805184815290513393507fe1fffcc4923d04b559f4d29a8bfc6cda04eb5b0d3c460751c2402c5c5cc9109c92509081900360200190a250565b6003546001600160a01b031681565b60005481565b600760009054906101000a90046001600160a01b03166001600160a01b0316636ffd77026040518163ffffffff1660e01b8152600401600060405180830381600087803b158015610c0d57600080fd5b505af1158015610c21573d6000803e3d6000fd5b50505050565b6007546001600160a01b031681565b6002546001600160a01b03163314610c83576040805162461bcd60e51b815260206004820152601f602482015260008051602061142e833981519152604482015290519081900360640190fd5b6005546040805163a78e883d60e01b8152306004820152600060248201819052915191926001600160a01b03169163a78e883d91604480820192602092909190829003018186803b158015610cd757600080fd5b505afa158015610ceb573d6000803e3d6000fd5b505050506040513d6020811015610d0157600080fd5b505160055460408051632e54bf9560e01b81526004810184905290519293506001600160a01b0390911691632e54bf959160248082019260009290919082900301818387803b158015610d5357600080fd5b505af1158015610d67573d6000803e3d6000fd5b505060065460025460408051633fcc093560e11b81526001600160a01b0392831660048201529051919092169350637f98126a9250602480830192600092919082900301818387803b158015610dbc57600080fd5b505af1158015610dd0573d6000803e3d6000fd5b505060025461038e92506001600160a01b03169050826111a6565b6001546001600160a01b031681565b80516a636f6e736f6c652e6c6f67602083016000808483855afa5050505050565b6005546040805163a78e883d60e01b8152306004820152831515602482015290516000926001600160a01b03169163a78e883d916044808301926020929190829003018186803b158015610e6e57600080fd5b505afa158015610e82573d6000803e3d6000fd5b505050506040513d6020811015610e9857600080fd5b50519050801561109057610ed16040518060400160405280600d81526020016c063757272656e7442616c20535609c1b81525082610391565b610f006040518060400160405280600b81526020016a6c75736442616c616e636560a81b815250600054610391565b600080548211610f2057600054610f1d908363ffffffff61142816565b90505b60065460025460408051630f41a04d60e11b81526001600160a01b03928316600482015290519190921691631e83409a91602480830192600092919082900301818387803b158015610f7157600080fd5b505af1158015610f85573d6000803e3d6000fd5b50505050600081111561108e57610fb8604051806040016040528060048152602001633234b33360e11b81525082610391565b6006546040805163630ce30b60e11b81526004810184905290516001600160a01b039092169163c619c6169160248082019260009290919082900301818387803b15801561100557600080fd5b505af1158015611019573d6000803e3d6000fd5b50506006546002546040805163350d7ec760e21b8152600481018890526001600160a01b039283166024820152905191909216935063d435fb1c9250604480830192600092919082900301818387803b15801561107557600080fd5b505af1158015611089573d6000803e3d6000fd5b505050505b505b806000541061043f5760005550565b60048054604080516370a0823160e01b81523093810193909352516000926001600160a01b03909216916370a08231916024808301926020929190829003018186803b1580156110ee57600080fd5b505afa158015611102573d6000803e3d6000fd5b505050506040513d602081101561111857600080fd5b50519050801561043f57600480546040805163a9059cbb60e01b81526001600160a01b0386811694820194909452602481018590529051929091169163a9059cbb916044808201926020929091908290030181600087803b15801561117c57600080fd5b505af1158015611190573d6000803e3d6000fd5b505050506040513d6020811015610c2157600080fd5b600354604080516370a0823160e01b815230600482015290516000926001600160a01b0316916370a08231916024808301926020929190829003018186803b1580156111f157600080fd5b505afa158015611205573d6000803e3d6000fd5b505050506040513d602081101561121b57600080fd5b5051905080821115611325576003546040805163a9059cbb60e01b81526001600160a01b038681166004830152602482018590529151919092169163a9059cbb9160448083019260209291908290030181600087803b15801561127d57600080fd5b505af1158015611291573d6000803e3d6000fd5b505050506040513d60208110156112a757600080fd5b50506000546112bc908263ffffffff61142816565b60009081556006546040805163630ce30b60e11b81526004810185905290516001600160a01b039092169263c619c6169260248084019382900301818387803b15801561130857600080fd5b505af115801561131c573d6000803e3d6000fd5b5050505061141f565b6003546040805163a9059cbb60e01b81526001600160a01b038681166004830152602482018690529151919092169163a9059cbb9160448083019260209291908290030181600087803b15801561137b57600080fd5b505af115801561138f573d6000803e3d6000fd5b505050506040513d60208110156113a557600080fd5b50506000546113ba908363ffffffff61142816565b60009081556006546040805163630ce30b60e11b81526004810186905290516001600160a01b039092169263c619c6169260248084019382900301818387803b15801561140657600080fd5b505af115801561141a573d6000803e3d6000fd5b505050505b505050565b0190565b90039056fe6f6e6c79206f776e65722063616e2063616c6c2074686973206d6574686f6400576974686472617720697320666f72206d6f7265207468616e2062616c616e636520616d6f756e74a2646970667358221220395d035feaf6bc140f32a2c008cf1224eb85cc6f483b1f959dc2e2b3b090485c64736f6c634300060b00336f6e6c79206f776e65722063616e2063616c6c2074686973206d6574686f6400a26469706673582212202da1f7a6aec1a4c911091aba6f7296bd656e89ea4cee8ef84976bf18e05a10b864736f6c634300060b0033",
  "linkReferences": {},
  "deployedLinkReferences": {}
}