{
  "_format": "hh-sol-artifact-1",
  "contractName": "StabilityFactory",
  "sourceName": "contracts/StabilityFactory.sol",
  "abi": [
    {
      "inputs": [
        {
          "internalType": "address",
          "name": "_frontEnd",
          "type": "address"
        },
        {
          "internalType": "contract IERC20",
          "name": "_lusdToken",
          "type": "address"
        },
        {
          "internalType": "contract IERC20",
          "name": "_lqtyToken",
          "type": "address"
        },
        {
          "internalType": "contract StringToken",
          "name": "_stringToken",
          "type": "address"
        },
        {
          "internalType": "contract IStabilityPool",
          "name": "_stabilityPool",
          "type": "address"
        },
        {
          "internalType": "uint256",
          "name": "_boostedBuffer",
          "type": "uint256"
        }
      ],
      "stateMutability": "nonpayable",
      "type": "constructor"
    },
    {
      "anonymous": false,
      "inputs": [
        {
          "indexed": true,
          "internalType": "address",
          "name": "who",
          "type": "address"
        },
        {
          "indexed": false,
          "internalType": "uint256",
          "name": "amountClaimed",
          "type": "uint256"
        }
      ],
      "name": "Claim",
      "type": "event"
    },
    {
      "anonymous": false,
      "inputs": [
        {
          "indexed": true,
          "internalType": "address",
          "name": "who",
          "type": "address"
        },
        {
          "indexed": true,
          "internalType": "address",
          "name": "proxy",
          "type": "address"
        }
      ],
      "name": "Deploy",
      "type": "event"
    },
    {
      "inputs": [
        {
          "internalType": "uint256",
          "name": "_newAddition",
          "type": "uint256"
        }
      ],
      "name": "addLUSD",
      "outputs": [],
      "stateMutability": "nonpayable",
      "type": "function"
    },
    {
      "inputs": [],
      "name": "boostedMultiplier",
      "outputs": [
        {
          "internalType": "uint256",
          "name": "",
          "type": "uint256"
        }
      ],
      "stateMutability": "view",
      "type": "function"
    },
    {
      "inputs": [
        {
          "internalType": "address",
          "name": "_sender",
          "type": "address"
        }
      ],
      "name": "claim",
      "outputs": [],
      "stateMutability": "nonpayable",
      "type": "function"
    },
    {
      "inputs": [],
      "name": "createStabilityProxy",
      "outputs": [],
      "stateMutability": "nonpayable",
      "type": "function"
    },
    {
      "inputs": [],
      "name": "endBlock",
      "outputs": [
        {
          "internalType": "uint256",
          "name": "",
          "type": "uint256"
        }
      ],
      "stateMutability": "view",
      "type": "function"
    },
    {
      "inputs": [],
      "name": "frontEnd",
      "outputs": [
        {
          "internalType": "address",
          "name": "",
          "type": "address"
        }
      ],
      "stateMutability": "view",
      "type": "function"
    },
    {
      "inputs": [
        {
          "internalType": "uint256",
          "name": "_from",
          "type": "uint256"
        },
        {
          "internalType": "uint256",
          "name": "_to",
          "type": "uint256"
        }
      ],
      "name": "getMultiplier",
      "outputs": [
        {
          "internalType": "uint256",
          "name": "",
          "type": "uint256"
        }
      ],
      "stateMutability": "view",
      "type": "function"
    },
    {
      "inputs": [],
      "name": "isBoosted",
      "outputs": [
        {
          "internalType": "bool",
          "name": "",
          "type": "bool"
        }
      ],
      "stateMutability": "view",
      "type": "function"
    },
    {
      "inputs": [],
      "name": "lqtyToken",
      "outputs": [
        {
          "internalType": "contract IERC20",
          "name": "",
          "type": "address"
        }
      ],
      "stateMutability": "view",
      "type": "function"
    },
    {
      "inputs": [],
      "name": "lusdToken",
      "outputs": [
        {
          "internalType": "contract IERC20",
          "name": "",
          "type": "address"
        }
      ],
      "stateMutability": "view",
      "type": "function"
    },
    {
      "inputs": [
        {
          "internalType": "address",
          "name": "_user",
          "type": "address"
        }
      ],
      "name": "pendingString",
      "outputs": [
        {
          "internalType": "uint256",
          "name": "",
          "type": "uint256"
        }
      ],
      "stateMutability": "view",
      "type": "function"
    },
    {
      "inputs": [],
      "name": "pool",
      "outputs": [
        {
          "internalType": "uint256",
          "name": "lastRewardBlock",
          "type": "uint256"
        },
        {
          "internalType": "uint256",
          "name": "accStringPerShare",
          "type": "uint256"
        }
      ],
      "stateMutability": "view",
      "type": "function"
    },
    {
      "inputs": [],
      "name": "postBoostedBlock",
      "outputs": [
        {
          "internalType": "uint256",
          "name": "",
          "type": "uint256"
        }
      ],
      "stateMutability": "view",
      "type": "function"
    },
    {
      "inputs": [
        {
          "internalType": "address",
          "name": "",
          "type": "address"
        }
      ],
      "name": "registeredClone",
      "outputs": [
        {
          "internalType": "bool",
          "name": "",
          "type": "bool"
        }
      ],
      "stateMutability": "view",
      "type": "function"
    },
    {
      "inputs": [],
      "name": "stabilityPool",
      "outputs": [
        {
          "internalType": "contract IStabilityPool",
          "name": "",
          "type": "address"
        }
      ],
      "stateMutability": "view",
      "type": "function"
    },
    {
      "inputs": [],
      "name": "stringPerBlock",
      "outputs": [
        {
          "internalType": "uint256",
          "name": "",
          "type": "uint256"
        }
      ],
      "stateMutability": "view",
      "type": "function"
    },
    {
      "inputs": [],
      "name": "stringToken",
      "outputs": [
        {
          "internalType": "contract StringToken",
          "name": "",
          "type": "address"
        }
      ],
      "stateMutability": "view",
      "type": "function"
    },
    {
      "inputs": [
        {
          "internalType": "uint256",
          "name": "_newSubtract",
          "type": "uint256"
        }
      ],
      "name": "subtractLUSD",
      "outputs": [],
      "stateMutability": "nonpayable",
      "type": "function"
    },
    {
      "inputs": [],
      "name": "totalLUSD",
      "outputs": [
        {
          "internalType": "uint256",
          "name": "",
          "type": "uint256"
        }
      ],
      "stateMutability": "view",
      "type": "function"
    },
    {
      "inputs": [],
      "name": "update",
      "outputs": [],
      "stateMutability": "nonpayable",
      "type": "function"
    },
    {
      "inputs": [
        {
          "internalType": "uint256",
          "name": "_amount",
          "type": "uint256"
        },
        {
          "internalType": "address",
          "name": "_owner",
          "type": "address"
        }
      ],
      "name": "updateProxyBalance",
      "outputs": [],
      "stateMutability": "nonpayable",
      "type": "function"
    },
    {
      "inputs": [
        {
          "internalType": "address",
          "name": "_owner",
          "type": "address"
        }
      ],
      "name": "updateProxyBalanceEmergency",
      "outputs": [],
      "stateMutability": "nonpayable",
      "type": "function"
    },
    {
      "inputs": [
        {
          "internalType": "address",
          "name": "",
          "type": "address"
        }
      ],
      "name": "userProxys",
      "outputs": [
        {
          "internalType": "contract StabilityProxy",
          "name": "proxyAddress",
          "type": "address"
        },
        {
          "internalType": "uint256",
          "name": "amount",
          "type": "uint256"
        },
        {
          "internalType": "uint256",
          "name": "rewardDebt",
          "type": "uint256"
        }
      ],
      "stateMutability": "view",
      "type": "function"
    }
  ],
  "bytecode": "0x6080604052670ccf6d9225bc6f00600a55600d805460ff1916600117905534801561002957600080fd5b506040516123a83803806123a8833981810160405260c081101561004c57600080fd5b5080516020808301516040808501516060860151608087015160a090970151600080546001600160a01b03808a166001600160a01b03199283161783558651808801909752438088529689018390526004879055600592909255600680548386169083161790556008805483891690831617905560098054928616929091169190911790559596939591949093926100f0916225317c90610b73610132821b17901c565b600b55600780546001600160a01b0319166001600160a01b0384161790556101234382610132602090811b610b7317901c565b600c5550610136945050505050565b0190565b612263806101456000396000f3fe608060405234801561001057600080fd5b506004361061014d5760003560e01c80637f98126a116100c3578063b83f91a21161007c578063b83f91a214610307578063c619c6161461030f578063d435fb1c1461032c578063df5e898714610358578063e7514c9a14610360578063f831640a146103685761014d565b80637f98126a146102445780638dbb1e3a1461026a578063908525771461028d578063910880ad146102db578063a2e62045146102e3578063b6897559146102eb5761014d565b80631e83409a116101155780631e83409a146101c15780631f7af3c3146101e957806320a83d39146101f1578063350bac341461020e57806366bf9ae4146102165780637a3774a11461023c5761014d565b8063048c661d14610152578063083c6323146101765780630b5f91fc146101905780630d483ae11461019857806316f0115b146101a0575b600080fd5b61015a61038e565b604080516001600160a01b039092168252519081900360200190f35b61017e61039d565b60408051918252519081900360200190f35b61017e6103a3565b61017e6103a9565b6101a86103ae565b6040805192835260208301919091528051918290030190f35b6101e7600480360360208110156101d757600080fd5b50356001600160a01b03166103b7565b005b61015a61046a565b6101e76004803603602081101561020757600080fd5b5035610479565b61017e6104e9565b61017e6004803603602081101561022c57600080fd5b50356001600160a01b03166104ef565b6101e76105ec565b6101e76004803603602081101561025a57600080fd5b50356001600160a01b031661071d565b61017e6004803603604081101561028057600080fd5b50803590602001356107ba565b6102b3600480360360208110156102a357600080fd5b50356001600160a01b0316610806565b604080516001600160a01b039094168452602084019290925282820152519081900360600190f35b61017e610832565b6101e7610838565b6102f3610a1d565b604080519115158252519081900360200190f35b61015a610a26565b6101e76004803603602081101561032557600080fd5b5035610a35565b6101e76004803603604081101561034257600080fd5b50803590602001356001600160a01b0316610a9f565b61015a610b40565b61015a610b4f565b6102f36004803603602081101561037e57600080fd5b50356001600160a01b0316610b5e565b6007546001600160a01b031681565b600b5481565b600c5481565b600581565b60045460055482565b6001600160a01b038116600090815260016020819052604082209081015460028201549192916103e79190610b77565b90506103f38382610bcd565b60055460018301546104219164e8d4a51000916104159163ffffffff610d5e16565b9063ffffffff610d6216565b60028301556040805182815290516001600160a01b038516917f47cee97cb7acd717b3c0aa1435d004cd5b3c8c57d70dbceb4e4458bbd60e39d4919081900360200190a2505050565b6009546001600160a01b031681565b3360009081526002602052604090205460ff1615156001146104d0576040805162461bcd60e51b815260206004820152601f60248201526000805160206121e8833981519152604482015290519081900360640190fd5b6003546104e3908263ffffffff610b7316565b60035550565b600a5481565b6001600160a01b03811660009081526001602052604081206005546003546004544311801561051d57508015155b1561057c576000610533600460000154436107ba565b9050600061054c600a5483610d5e90919063ffffffff16565b905061057761056a846104158464e8d4a5100063ffffffff610d5e16565b859063ffffffff610b7316565b935050505b60006105b284600201546105a664e8d4a51000610415878960010154610d5e90919063ffffffff16565b9063ffffffff610d7516565b600d5490915060ff16156105dc576105d181600563ffffffff610d5e16565b9450505050506105e7565b93506105e792505050565b919050565b60008054600854600954600754604051339430946001600160a01b0391821694908216939082169291169061062090610f03565b6001600160a01b0396871681529486166020860152928516604080860191909152918516606085015284166080840152921660a082015290519081900360c001906000f080158015610676573d6000803e3d6000fd5b509050610681610f10565b50604080516060810182526001600160a01b0383811680835260006020808501828152858701838152338085526001808552898620895181546001600160a01b0319169916989098178855925187840155905160029687015584845294909152858220805460ff191690911790559351929390927fb1a29087760d8e8f9b263f598962f752e7bd23badd44897e2966d376d1a59dca9190a35050565b3360009081526002602052604090205460ff161515600114610774576040805162461bcd60e51b815260206004820152601f60248201526000805160206121e8833981519152604482015290519081900360640190fd5b6001600160a01b0381166000908152600160208190526040909120908101546003546107a59163ffffffff610d7516565b60035560006001820181905560029091015550565b6000600b5482116107dc576107d5828463ffffffff610d7516565b9050610800565b600b5483106107ed57506000610800565b600b546107d5908463ffffffff610d7516565b92915050565b60016020819052600091825260409091208054918101546002909101546001600160a01b039092169183565b60035481565b61085d6040518060600160405280602681526020016122086026913960045443610d7a565b600454431161086b57610a1b565b6003546040805180820190915260088152676c70537570706c7960c01b60208201526108979082610e30565b806108a6575043600455610a1b565b60006108b7600460000154436107ba565b905060006108d0600a5483610d5e90919063ffffffff16565b9050600c544310156109635760006108ef82600563ffffffff610d5e16565b600654604080516308934a5f60e31b81523060048201526024810184905290519293506001600160a01b039091169163449a52f89160448082019260009290919082900301818387803b15801561094557600080fd5b505af1158015610959573d6000803e3d6000fd5b50505050506109e5565b600d5460ff161561097957600d805460ff191690555b600654604080516308934a5f60e31b81523060048201526024810184905290516001600160a01b039092169163449a52f89160448082019260009290919082900301818387803b1580156109cc57600080fd5b505af11580156109e0573d6000803e3d6000fd5b505050505b610a10610a01846104158464e8d4a5100063ffffffff610d5e16565b6005549063ffffffff610b7316565b600555505043600455505b565b600d5460ff1681565b6008546001600160a01b031681565b3360009081526002602052604090205460ff161515600114610a8c576040805162461bcd60e51b815260206004820152601f60248201526000805160206121e8833981519152604482015290519081900360640190fd5b6003546104e3908263ffffffff610d7516565b3360009081526002602052604090205460ff161515600114610af6576040805162461bcd60e51b815260206004820152601f60248201526000805160206121e8833981519152604482015290519081900360640190fd5b6001600160a01b0381166000908152600160208190526040909120908101839055600554610b369064e8d4a510009061041590869063ffffffff610d5e16565b6002909101555050565b6006546001600160a01b031681565b6000546001600160a01b031681565b60026020526000908152604090205460ff1681565b0190565b600080610b9f836105a664e8d4a5100061041560046001015489610d5e90919063ffffffff16565b600d5490915060ff1615610bc657610bbe81600563ffffffff610d5e16565b915050610800565b9392505050565b600654604080516370a0823160e01b815230600482015290516000926001600160a01b0316916370a08231916024808301926020929190829003018186803b158015610c1857600080fd5b505afa158015610c2c573d6000803e3d6000fd5b505050506040513d6020811015610c4257600080fd5b5051905080821115610cd6576006546040805163a9059cbb60e01b81526001600160a01b038681166004830152602482018590529151919092169163a9059cbb9160448083019260209291908290030181600087803b158015610ca457600080fd5b505af1158015610cb8573d6000803e3d6000fd5b505050506040513d6020811015610cce57600080fd5b50610d599050565b6006546040805163a9059cbb60e01b81526001600160a01b038681166004830152602482018690529151919092169163a9059cbb9160448083019260209291908290030181600087803b158015610d2c57600080fd5b505af1158015610d40573d6000803e3d6000fd5b505050506040513d6020811015610d5657600080fd5b50505b505050565b0290565b6000818381610d6d57fe5b049392505050565b900390565b610d598383836040516024018080602001848152602001838152602001828103825285818151815260200191508051906020019080838360005b83811015610dcc578181015183820152602001610db4565b50505050905090810190601f168015610df95780820380516001836020036101000a031916815260200191505b5060408051601f198184030181529190526020810180516001600160e01b031663969cdd0360e01b1790529450610ee29350505050565b610ede82826040516024018080602001838152602001828103825284818151815260200191508051906020019080838360005b83811015610e7b578181015183820152602001610e63565b50505050905090810190601f168015610ea85780820380516001836020036101000a031916815260200191505b5060408051601f198184030181529190526020810180516001600160e01b03166309710a9d60e41b1790529350610ee292505050565b5050565b80516a636f6e736f6c652e6c6f67602083016000808483855afa5050505050565b6112ad80610f3b83390190565b604051806060016040528060006001600160a01b031681526020016000815260200160008152509056fe608060405234801561001057600080fd5b506040516112ad3803806112ad833981810160405260c081101561003357600080fd5b508051602082015160408301516060840151608085015160a090950151600280546001600160a01b03199081166001600160a01b03978816179091556003805482169387169390931790925560048054831696861696909617909555600580548216958516959095179094556001805485169184169190911790556006805490931691161790556111e4806100c96000396000f3fe608060405234801561001057600080fd5b50600436106100a95760003560e01c80638da5cb5b116100715780638da5cb5b14610109578063b6b55f2514610111578063b83f91a21461012e578063b9f6d8ff14610136578063db2e21bc14610150578063e7514c9a14610158576100a9565b8063048c661d146100ae5780631f7af3c3146100d25780632e1a7d4d146100da5780633af82b17146100f95780634e71d92d14610101575b600080fd5b6100b6610160565b604080516001600160a01b039092168252519081900360200190f35b6100b661016f565b6100f7600480360360208110156100f057600080fd5b503561017e565b005b6100b66103ca565b6100f76103d9565b6100b6610527565b6100f76004803603602081101561012757600080fd5b5035610536565b6100b661086a565b61013e610879565b60408051918252519081900360200190f35b6100f761087f565b6100b6610a2d565b6005546001600160a01b031681565b6004546001600160a01b031681565b6002546001600160a01b031633146101cb576040805162461bcd60e51b815260206004820152601f6024820152600080516020611167833981519152604482015290519081900360640190fd5b6101f460405180604001604052806008815260200167776974686472617760c01b815250610a3c565b6000548111156102355760405162461bcd60e51b81526004018080602001828103825260288152602001806111876028913960400191505060405180910390fd5b600660009054906101000a90046001600160a01b03166001600160a01b031663a2e620456040518163ffffffff1660e01b8152600401600060405180830381600087803b15801561028557600080fd5b505af1158015610299573d6000803e3d6000fd5b505050506102a5610ae2565b60055460408051632e54bf9560e01b81526004810184905290516001600160a01b0390921691632e54bf959160248082019260009290919082900301818387803b1580156102f257600080fd5b505af1158015610306573d6000803e3d6000fd5b505060025461032192506001600160a01b0316905082610cc2565b600654600080546002546040805163350d7ec760e21b815260048101939093526001600160a01b0391821660248401525193169263d435fb1c9260448084019391929182900301818387803b15801561037957600080fd5b505af115801561038d573d6000803e3d6000fd5b50506040805184815290513393507f884edad9ce6fa2440d8a54cc123490eb96d2768479d49ff9c7366125a942436492509081900360200190a250565b6006546001600160a01b031681565b6002546001600160a01b03163314610426576040805162461bcd60e51b815260206004820152601f6024820152600080516020611167833981519152604482015290519081900360640190fd5b600660009054906101000a90046001600160a01b03166001600160a01b031663a2e620456040518163ffffffff1660e01b8152600401600060405180830381600087803b15801561047657600080fd5b505af115801561048a573d6000803e3d6000fd5b50505050610496610ae2565b60055460408051632e54bf9560e01b815260006004820181905291516001600160a01b0390931692632e54bf959260248084019391929182900301818387803b1580156104e257600080fd5b505af11580156104f6573d6000803e3d6000fd5b505060025461051092506001600160a01b03169050610f40565b600254610525906001600160a01b0316610f81565b565b6002546001600160a01b031681565b6002546001600160a01b03163314610583576040805162461bcd60e51b815260206004820152601f6024820152600080516020611167833981519152604482015290519081900360640190fd5b6105ab6040518060400160405280600781526020016619195c1bdcda5d60ca1b815250610a3c565b6105d96040518060400160405280600c81526020016b63757272656e74626c6f636b60a01b8152504361108e565b600660009054906101000a90046001600160a01b03166001600160a01b031663a2e620456040518163ffffffff1660e01b8152600401600060405180830381600087803b15801561062957600080fd5b505af115801561063d573d6000803e3d6000fd5b5050505060008054111561065357610653610ae2565b600354604080516323b872dd60e01b81523360048201523060248201526044810184905290516001600160a01b03909216916323b872dd916064808201926020929091908290030181600087803b1580156106ad57600080fd5b505af11580156106c1573d6000803e3d6000fd5b505050506040513d60208110156106d757600080fd5b5050600654604080516320a83d3960e01b81526004810184905290516001600160a01b03909216916320a83d399160248082019260009290919082900301818387803b15801561072657600080fd5b505af115801561073a573d6000803e3d6000fd5b5050600054610752925090508263ffffffff61113c16565b600090815560055460015460408051635f788d6560e01b8152600481018690526001600160a01b03928316602482015290519190921692635f788d65926044808201939182900301818387803b1580156107ab57600080fd5b505af11580156107bf573d6000803e3d6000fd5b5050600654600080546002546040805163350d7ec760e21b815260048101939093526001600160a01b039182166024840152519316945063d435fb1c93506044808201939182900301818387803b15801561081957600080fd5b505af115801561082d573d6000803e3d6000fd5b50506040805184815290513393507fe1fffcc4923d04b559f4d29a8bfc6cda04eb5b0d3c460751c2402c5c5cc9109c92509081900360200190a250565b6003546001600160a01b031681565b60005481565b6002546001600160a01b031633146108cc576040805162461bcd60e51b815260206004820152601f6024820152600080516020611167833981519152604482015290519081900360640190fd5b60055460408051621cdc4760e81b815230600482015290516000926001600160a01b031691631cdc4700916024808301926020929190829003018186803b15801561091657600080fd5b505afa15801561092a573d6000803e3d6000fd5b505050506040513d602081101561094057600080fd5b505160055460408051632e54bf9560e01b81526004810184905290519293506001600160a01b0390911691632e54bf959160248082019260009290919082900301818387803b15801561099257600080fd5b505af11580156109a6573d6000803e3d6000fd5b505060065460025460408051633fcc093560e11b81526001600160a01b0392831660048201529051919092169350637f98126a9250602480830192600092919082900301818387803b1580156109fb57600080fd5b505af1158015610a0f573d6000803e3d6000fd5b5050600254610a2a92506001600160a01b0316905082610cc2565b50565b6001546001600160a01b031681565b610a2a816040516024018080602001828103825283818151815260200191508051906020019080838360005b83811015610a80578181015183820152602001610a68565b50505050905090810190601f168015610aad5780820380516001836020036101000a031916815260200191505b5060408051601f198184030181529190526020810180516001600160e01b031663104c13eb60e21b1790529250611140915050565b60055460408051621cdc4760e81b815230600482015290516000926001600160a01b031691631cdc4700916024808301926020929190829003018186803b158015610b2c57600080fd5b505afa158015610b40573d6000803e3d6000fd5b505050506040513d6020811015610b5657600080fd5b505190508015610cbd5760008054610b74908363ffffffff61116116565b90508015610c52576006546040805163630ce30b60e11b81526004810184905290516001600160a01b039092169163c619c6169160248082019260009290919082900301818387803b158015610bc957600080fd5b505af1158015610bdd573d6000803e3d6000fd5b50506006546002546040805163350d7ec760e21b8152600481018890526001600160a01b039283166024820152905191909216935063d435fb1c9250604480830192600092919082900301818387803b158015610c3957600080fd5b505af1158015610c4d573d6000803e3d6000fd5b505050505b60065460025460408051630f41a04d60e11b81526001600160a01b03928316600482015290519190921691631e83409a91602480830192600092919082900301818387803b158015610ca357600080fd5b505af1158015610cb7573d6000803e3d6000fd5b50505050505b600055565b600354604080516370a0823160e01b815230600482015290516000926001600160a01b0316916370a08231916024808301926020929190829003018186803b158015610d0d57600080fd5b505afa158015610d21573d6000803e3d6000fd5b505050506040513d6020811015610d3757600080fd5b5051905080821115610e41576003546040805163a9059cbb60e01b81526001600160a01b038681166004830152602482018590529151919092169163a9059cbb9160448083019260209291908290030181600087803b158015610d9957600080fd5b505af1158015610dad573d6000803e3d6000fd5b505050506040513d6020811015610dc357600080fd5b5050600054610dd8908263ffffffff61116116565b60009081556006546040805163630ce30b60e11b81526004810185905290516001600160a01b039092169263c619c6169260248084019382900301818387803b158015610e2457600080fd5b505af1158015610e38573d6000803e3d6000fd5b50505050610f3b565b6003546040805163a9059cbb60e01b81526001600160a01b038681166004830152602482018690529151919092169163a9059cbb9160448083019260209291908290030181600087803b158015610e9757600080fd5b505af1158015610eab573d6000803e3d6000fd5b505050506040513d6020811015610ec157600080fd5b5050600054610ed6908363ffffffff61116116565b60009081556006546040805163630ce30b60e11b81526004810186905290516001600160a01b039092169263c619c6169260248084019382900301818387803b158015610f2257600080fd5b505af1158015610f36573d6000803e3d6000fd5b505050505b505050565b478015610f7d576040516001600160a01b0383169082156108fc029083906000818181858888f19350505050158015610f3b573d6000803e3d6000fd5b5050565b60048054604080516370a0823160e01b81523093810193909352516000926001600160a01b03909216916370a08231916024808301926020929190829003018186803b158015610fd057600080fd5b505afa158015610fe4573d6000803e3d6000fd5b505050506040513d6020811015610ffa57600080fd5b505190508015610f7d57600480546040805163a9059cbb60e01b81526001600160a01b0386811694820194909452602481018590529051929091169163a9059cbb916044808201926020929091908290030181600087803b15801561105e57600080fd5b505af1158015611072573d6000803e3d6000fd5b505050506040513d602081101561108857600080fd5b50505050565b610f7d82826040516024018080602001838152602001828103825284818151815260200191508051906020019080838360005b838110156110d95781810151838201526020016110c1565b50505050905090810190601f1680156111065780820380516001836020036101000a031916815260200191505b5060408051601f198184030181529190526020810180516001600160e01b03166309710a9d60e41b179052935061114092505050565b0190565b80516a636f6e736f6c652e6c6f67602083016000808483855afa5050505050565b90039056fe6f6e6c79206f776e65722063616e2063616c6c2074686973206d6574686f6400576974686472617720697320666f72206d6f7265207468616e2062616c616e636520616d6f756e74a2646970667358221220a832d4be327ab42297878a9ffa709a6743b90ff4c3a12450843d2b4ba731c5ed64736f6c634300060b00336f6e6c79206f776e65722063616e2063616c6c2074686973206d6574686f64006c6173742072657761726420626c6f636b3a25732c2063757272656e7420626c6f636b3a2573a264697066735822122001ac13a0d63977e5d2707169fea8cebf7f5649c8e2915c300dcc7993bb9f1c3264736f6c634300060b0033",
  "linkReferences": {},
  "deployedLinkReferences": {}
}