{
  "_format": "hh-sol-artifact-1",
  "contractName": "StabilityFactory",
  "sourceName": "contracts/StabilityFactory.sol",
  "abi": [
    {
      "inputs": [
        {
          "internalType": "address",
          "name": "_frontEnd",
          "type": "address"
        },
        {
          "internalType": "contract IERC20",
          "name": "_lusdToken",
          "type": "address"
        },
        {
          "internalType": "contract IERC20",
          "name": "_lqtyToken",
          "type": "address"
        },
        {
          "internalType": "contract StringToken",
          "name": "_stringToken",
          "type": "address"
        },
        {
          "internalType": "contract IStabilityPool",
          "name": "_stabilityPool",
          "type": "address"
        },
        {
          "internalType": "uint256",
          "name": "_boostedBuffer",
          "type": "uint256"
        },
        {
          "internalType": "contract ETHSendContract",
          "name": "_test",
          "type": "address"
        }
      ],
      "stateMutability": "nonpayable",
      "type": "constructor"
    },
    {
      "anonymous": false,
      "inputs": [
        {
          "indexed": true,
          "internalType": "address",
          "name": "who",
          "type": "address"
        },
        {
          "indexed": false,
          "internalType": "uint256",
          "name": "amountClaimed",
          "type": "uint256"
        }
      ],
      "name": "Claim",
      "type": "event"
    },
    {
      "anonymous": false,
      "inputs": [
        {
          "indexed": true,
          "internalType": "address",
          "name": "who",
          "type": "address"
        },
        {
          "indexed": true,
          "internalType": "address",
          "name": "proxy",
          "type": "address"
        }
      ],
      "name": "Deploy",
      "type": "event"
    },
    {
      "inputs": [
        {
          "internalType": "uint256",
          "name": "_newAddition",
          "type": "uint256"
        }
      ],
      "name": "addLUSD",
      "outputs": [],
      "stateMutability": "nonpayable",
      "type": "function"
    },
    {
      "inputs": [],
      "name": "boostedMultiplier",
      "outputs": [
        {
          "internalType": "uint256",
          "name": "",
          "type": "uint256"
        }
      ],
      "stateMutability": "view",
      "type": "function"
    },
    {
      "inputs": [
        {
          "internalType": "address",
          "name": "_sender",
          "type": "address"
        }
      ],
      "name": "claim",
      "outputs": [],
      "stateMutability": "nonpayable",
      "type": "function"
    },
    {
      "inputs": [],
      "name": "createStabilityProxy",
      "outputs": [],
      "stateMutability": "nonpayable",
      "type": "function"
    },
    {
      "inputs": [],
      "name": "endBlock",
      "outputs": [
        {
          "internalType": "uint256",
          "name": "",
          "type": "uint256"
        }
      ],
      "stateMutability": "view",
      "type": "function"
    },
    {
      "inputs": [],
      "name": "frontEnd",
      "outputs": [
        {
          "internalType": "address",
          "name": "",
          "type": "address"
        }
      ],
      "stateMutability": "view",
      "type": "function"
    },
    {
      "inputs": [],
      "name": "isBoosted",
      "outputs": [
        {
          "internalType": "bool",
          "name": "",
          "type": "bool"
        }
      ],
      "stateMutability": "view",
      "type": "function"
    },
    {
      "inputs": [],
      "name": "lastSupply",
      "outputs": [
        {
          "internalType": "uint256",
          "name": "",
          "type": "uint256"
        }
      ],
      "stateMutability": "view",
      "type": "function"
    },
    {
      "inputs": [],
      "name": "lqtyToken",
      "outputs": [
        {
          "internalType": "contract IERC20",
          "name": "",
          "type": "address"
        }
      ],
      "stateMutability": "view",
      "type": "function"
    },
    {
      "inputs": [],
      "name": "lusdToken",
      "outputs": [
        {
          "internalType": "contract IERC20",
          "name": "",
          "type": "address"
        }
      ],
      "stateMutability": "view",
      "type": "function"
    },
    {
      "inputs": [],
      "name": "maxSupply",
      "outputs": [
        {
          "internalType": "uint256",
          "name": "",
          "type": "uint256"
        }
      ],
      "stateMutability": "view",
      "type": "function"
    },
    {
      "inputs": [
        {
          "internalType": "address",
          "name": "_user",
          "type": "address"
        }
      ],
      "name": "pendingString",
      "outputs": [
        {
          "internalType": "uint256",
          "name": "",
          "type": "uint256"
        }
      ],
      "stateMutability": "view",
      "type": "function"
    },
    {
      "inputs": [],
      "name": "pool",
      "outputs": [
        {
          "internalType": "uint256",
          "name": "lastRewardBlock",
          "type": "uint256"
        },
        {
          "internalType": "uint256",
          "name": "accStringPerShare",
          "type": "uint256"
        }
      ],
      "stateMutability": "view",
      "type": "function"
    },
    {
      "inputs": [],
      "name": "postBoostedBlock",
      "outputs": [
        {
          "internalType": "uint256",
          "name": "",
          "type": "uint256"
        }
      ],
      "stateMutability": "view",
      "type": "function"
    },
    {
      "inputs": [
        {
          "internalType": "address",
          "name": "",
          "type": "address"
        }
      ],
      "name": "registeredClone",
      "outputs": [
        {
          "internalType": "bool",
          "name": "",
          "type": "bool"
        }
      ],
      "stateMutability": "view",
      "type": "function"
    },
    {
      "inputs": [],
      "name": "stabilityPool",
      "outputs": [
        {
          "internalType": "contract IStabilityPool",
          "name": "",
          "type": "address"
        }
      ],
      "stateMutability": "view",
      "type": "function"
    },
    {
      "inputs": [],
      "name": "stringPerBlock",
      "outputs": [
        {
          "internalType": "uint256",
          "name": "",
          "type": "uint256"
        }
      ],
      "stateMutability": "view",
      "type": "function"
    },
    {
      "inputs": [],
      "name": "stringToken",
      "outputs": [
        {
          "internalType": "contract StringToken",
          "name": "",
          "type": "address"
        }
      ],
      "stateMutability": "view",
      "type": "function"
    },
    {
      "inputs": [
        {
          "internalType": "uint256",
          "name": "_newSubtract",
          "type": "uint256"
        }
      ],
      "name": "subtractLUSD",
      "outputs": [],
      "stateMutability": "nonpayable",
      "type": "function"
    },
    {
      "inputs": [],
      "name": "testContract",
      "outputs": [
        {
          "internalType": "contract ETHSendContract",
          "name": "",
          "type": "address"
        }
      ],
      "stateMutability": "view",
      "type": "function"
    },
    {
      "inputs": [],
      "name": "totalLUSD",
      "outputs": [
        {
          "internalType": "uint256",
          "name": "",
          "type": "uint256"
        }
      ],
      "stateMutability": "view",
      "type": "function"
    },
    {
      "inputs": [],
      "name": "update",
      "outputs": [],
      "stateMutability": "nonpayable",
      "type": "function"
    },
    {
      "inputs": [
        {
          "internalType": "uint256",
          "name": "_amount",
          "type": "uint256"
        },
        {
          "internalType": "address",
          "name": "_owner",
          "type": "address"
        }
      ],
      "name": "updateProxyBalance",
      "outputs": [],
      "stateMutability": "nonpayable",
      "type": "function"
    },
    {
      "inputs": [
        {
          "internalType": "address",
          "name": "_owner",
          "type": "address"
        }
      ],
      "name": "updateProxyBalanceEmergency",
      "outputs": [],
      "stateMutability": "nonpayable",
      "type": "function"
    },
    {
      "inputs": [
        {
          "internalType": "address",
          "name": "",
          "type": "address"
        }
      ],
      "name": "userProxys",
      "outputs": [
        {
          "internalType": "contract StabilityProxy",
          "name": "proxyAddress",
          "type": "address"
        },
        {
          "internalType": "uint256",
          "name": "amount",
          "type": "uint256"
        },
        {
          "internalType": "uint256",
          "name": "rewardDebt",
          "type": "uint256"
        },
        {
          "internalType": "bool",
          "name": "initialized",
          "type": "bool"
        }
      ],
      "stateMutability": "view",
      "type": "function"
    }
  ],
  "bytecode": "0x6080604052670ccf6d9225bc6f00600d556010805460ff1916600117905534801561002957600080fd5b50604051620027e8380380620027e8833981810160405260e081101561004e57600080fd5b5080516020808301516040808501516060860151608087015160a088015160c090980151600280546001600160a01b03808b166001600160a01b0319928316179092558651808801909752438088526000978a01889052600681905560079790975560088054838716908316179055600b8054838a16908316179055600c805492871692909116919091179055969794969295919490939092916100ff91906225317c90610c9f610242821b17901c565b600e55600980546001600160a01b0319166001600160a01b0385161790556101324383610242602090811b610c9f17901c565b600f55600a80546001600160a01b0319166001600160a01b0383811691909117909155600854604080516318160ddd60e01b8152905191909216916318160ddd916004808301926020929190829003018186803b15801561019257600080fd5b505afa1580156101a6573d6000803e3d6000fd5b505050506040513d60208110156101bc57600080fd5b50516000556008546040805163d5abeb0160e01b815290516001600160a01b039092169163d5abeb0191600480820192602092909190829003018186803b15801561020657600080fd5b505afa15801561021a573d6000803e3d6000fd5b505050506040513d602081101561023057600080fd5b50516001555061024695505050505050565b0190565b61259280620002566000396000f3fe608060405234801561001057600080fd5b50600436106101635760003560e01c806390852577116100ce578063c619c61611610087578063c619c61614610314578063d435fb1c14610331578063d5abeb011461035d578063df5e898714610365578063e7514c9a1461036d578063f75b8c5f14610375578063f831640a1461037d57610163565b80639085257714610280578063910880ad146102d8578063a2e62045146102e0578063b6897559146102e8578063b83f91a214610304578063c36631b41461030c57610163565b80631f7af3c3116101205780631f7af3c3146101ff57806320a83d3914610207578063350bac341461022457806366bf9ae41461022c5780637a3774a1146102525780637f98126a1461025a57610163565b8063048c661d14610168578063083c63231461018c5780630b5f91fc146101a65780630d483ae1146101ae57806316f0115b146101b65780631e83409a146101d7575b600080fd5b6101706103a3565b604080516001600160a01b039092168252519081900360200190f35b6101946103b2565b60408051918252519081900360200190f35b6101946103b8565b6101946103be565b6101be6103c3565b6040805192835260208301919091528051918290030190f35b6101fd600480360360208110156101ed57600080fd5b50356001600160a01b03166103cc565b005b6101706104d5565b6101fd6004803603602081101561021d57600080fd5b50356104e4565b610194610554565b6101946004803603602081101561024257600080fd5b50356001600160a01b031661055a565b6101fd610657565b6101fd6004803603602081101561027057600080fd5b50356001600160a01b031661081d565b6102a66004803603602081101561029657600080fd5b50356001600160a01b03166108b8565b604080516001600160a01b03909516855260208501939093528383019190915215156060830152519081900360800190f35b6101946108ee565b6101fd6108f4565b6102f0610b30565b604080519115158252519081900360200190f35b610170610b39565b610170610b48565b6101fd6004803603602081101561032a57600080fd5b5035610b57565b6101fd6004803603604081101561034757600080fd5b50803590602001356001600160a01b0316610bc1565b610194610c60565b610170610c66565b610170610c75565b610194610c84565b6102f06004803603602081101561039357600080fd5b50356001600160a01b0316610c8a565b6009546001600160a01b031681565b600e5481565b600f5481565b600581565b60065460075482565b3360009081526004602052604090205460ff161515600114610423576040805162461bcd60e51b815260206004820152601f602482015260008051602061253d833981519152604482015290519081900360640190fd5b6001600160a01b0381166000908152600360205260408120600181015460028201549192916104529190610ca9565b905061045e8382610cff565b600754600183015461048c9164e8d4a51000916104809163ffffffff610e8f16565b9063ffffffff610e9316565b60028301556040805182815290516001600160a01b038516917f47cee97cb7acd717b3c0aa1435d004cd5b3c8c57d70dbceb4e4458bbd60e39d4919081900360200190a2505050565b600c546001600160a01b031681565b3360009081526004602052604090205460ff16151560011461053b576040805162461bcd60e51b815260206004820152601f602482015260008051602061253d833981519152604482015290519081900360640190fd5b60055461054e908263ffffffff610c9f16565b60055550565b600d5481565b6001600160a01b03811660009081526003602052604081206007546005546006544311801561058857508015155b156105e757600061059e60066000015443610ea6565b905060006105b7600d5483610e8f90919063ffffffff16565b90506105e26105d5846104808464e8d4a5100063ffffffff610e8f16565b859063ffffffff610c9f16565b935050505b600061061d846002015461061164e8d4a51000610480878960010154610e8f90919063ffffffff16565b9063ffffffff610eec16565b60105490915060ff16156106475761063c81600563ffffffff610e8f16565b945050505050610652565b935061065292505050565b919050565b336000908152600360208190526040909120015460ff16156106c0576040805162461bcd60e51b815260206004820152601c60248201527f6164647220616c7265616479206372656174656420612070726f787900000000604482015290519081900360640190fd5b600254600b54600c54600954600a54604051600095339530956001600160a01b039283169591831694908316939183169216906106fc90610f70565b6001600160a01b039788168152958716602087015293861660408087019190915292861660608601529085166080850152841660a0840152921660c082015290519081900360e001906000f08015801561075a573d6000803e3d6000fd5b509050610765610f7d565b50604080516080810182526001600160a01b03808416808352600060208085018281528587018381526001606088018181523380875260038087528b88208b5181549b166001600160a01b0319909b169a909a178a55945189840155925160028901555196909201805496151560ff1997881617905584845260049092528683208054909516179093559351929390927fb1a29087760d8e8f9b263f598962f752e7bd23badd44897e2966d376d1a59dca9190a35050565b3360009081526004602052604090205460ff161515600114610874576040805162461bcd60e51b815260206004820152601f602482015260008051602061253d833981519152604482015290519081900360640190fd5b6001600160a01b038116600090815260036020526040902060018101546005546108a39163ffffffff610eec16565b60055560006001820181905560029091015550565b600360208190526000918252604090912080546001820154600283015492909301546001600160a01b0390911692919060ff1684565b60055481565b3360009081526004602052604090205460ff16151560011461094b576040805162461bcd60e51b815260206004820152601f602482015260008051602061253d833981519152604482015290519081900360640190fd5b6001546000541061095b57610b2e565b600654431161096957610b2e565b6005548061097b575043600655610b2e565b600061098c60066000015443610ea6565b905060006109a5600d5483610e8f90919063ffffffff16565b90506001546109bf82600054610c9f90919063ffffffff16565b11156109dd576000546001546109da9163ffffffff610eec16565b90505b600f54431015610a6e5760006109fa82600563ffffffff610e8f16565b600854604080516308934a5f60e31b81523060048201526024810184905290519293506001600160a01b039091169163449a52f89160448082019260009290919082900301818387803b158015610a5057600080fd5b505af1158015610a64573d6000803e3d6000fd5b5050505050610af0565b60105460ff1615610a84576010805460ff191690555b600854604080516308934a5f60e31b81523060048201526024810184905290516001600160a01b039092169163449a52f89160448082019260009290919082900301818387803b158015610ad757600080fd5b505af1158015610aeb573d6000803e3d6000fd5b505050505b610b1b610b0c846104808464e8d4a5100063ffffffff610e8f16565b6007549063ffffffff610c9f16565b60075543600655610b2a610ef1565b5050505b565b60105460ff1681565b600b546001600160a01b031681565b600a546001600160a01b031681565b3360009081526004602052604090205460ff161515600114610bae576040805162461bcd60e51b815260206004820152601f602482015260008051602061253d833981519152604482015290519081900360640190fd5b60055461054e908263ffffffff610eec16565b3360009081526004602052604090205460ff161515600114610c18576040805162461bcd60e51b815260206004820152601f602482015260008051602061253d833981519152604482015290519081900360640190fd5b6001600160a01b038116600090815260036020526040902060018101839055600754610c569064e8d4a510009061048090869063ffffffff610e8f16565b6002909101555050565b60015481565b6008546001600160a01b031681565b6002546001600160a01b031681565b60005481565b60046020526000908152604090205460ff1681565b8181015b92915050565b600080610cd18361061164e8d4a5100061048060066001015489610e8f90919063ffffffff16565b60105490915060ff1615610cf857610cf081600563ffffffff610e8f16565b915050610ca3565b9392505050565b600854604080516370a0823160e01b815230600482015290516000926001600160a01b0316916370a08231916024808301926020929190829003018186803b158015610d4a57600080fd5b505afa158015610d5e573d6000803e3d6000fd5b505050506040513d6020811015610d7457600080fd5b5051905080821115610e08576008546040805163a9059cbb60e01b81526001600160a01b038681166004830152602482018590529151919092169163a9059cbb9160448083019260209291908290030181600087803b158015610dd657600080fd5b505af1158015610dea573d6000803e3d6000fd5b505050506040513d6020811015610e0057600080fd5b50610b2a9050565b6008546040805163a9059cbb60e01b81526001600160a01b038681166004830152602482018690529151919092169163a9059cbb9160448083019260209291908290030181600087803b158015610e5e57600080fd5b505af1158015610e72573d6000803e3d6000fd5b505050506040513d6020811015610e8857600080fd5b5050505050565b0290565b6000818381610e9e57fe5b049392505050565b6000600e548211610ec857610ec1828463ffffffff610eec16565b9050610ca3565b600e548310610ed957506000610ca3565b600e54610ec1908463ffffffff610eec16565b900390565b600860009054906101000a90046001600160a01b03166001600160a01b03166318160ddd6040518163ffffffff1660e01b815260040160206040518083038186803b158015610f3f57600080fd5b505afa158015610f53573d6000803e3d6000fd5b505050506040513d6020811015610f6957600080fd5b5051600055565b61158c80610fb183390190565b604051806080016040528060006001600160a01b031681526020016000815260200160008152602001600015158152509056fe608060405234801561001057600080fd5b5060405161158c38038061158c833981810160405260e081101561003357600080fd5b508051602082015160408301516060840151608085015160a086015160c090960151600280546001600160a01b03199081166001600160a01b0398891617909155600380548216948816949094179093556004805484169287169290921790915560058054831696861696909617909555600180548216928516929092179091556006805482169284169290921790915560078054909116919092161790556114ab806100e16000396000f3fe6080604052600436106100b65760003560e01c8063b6b55f251161006f578063b6b55f251461022e578063b83f91a214610258578063b9f6d8ff1461026d578063c0bce78814610294578063c36631b4146102a9578063db2e21bc146102be578063e7514c9a146102d357610128565b8063048c661d146101685780631f7af3c3146101995780632d81a78e146101ae5780632e1a7d4d146101da5780633af82b17146102045780638da5cb5b1461021957610128565b36610128576100e3604051806040016040528060078152602001667265636569766560c81b8152506102e8565b60408051808201909152600a81526918dd5c9c995b9d10985b60b21b602082015247906101109082610391565b600254610125906001600160a01b0316610443565b50005b6101516040518060400160405280600881526020016766616c6c6261636b60c01b8152506102e8565b600254610166906001600160a01b0316610443565b005b34801561017457600080fd5b5061017d61049f565b604080516001600160a01b039092168252519081900360200190f35b3480156101a557600080fd5b5061017d6104ae565b3480156101ba57600080fd5b50610166600480360360208110156101d157600080fd5b503515156104bd565b3480156101e657600080fd5b50610166600480360360208110156101fd57600080fd5b50356105f5565b34801561021057600080fd5b5061017d6108aa565b34801561022557600080fd5b5061017d6108b9565b34801561023a57600080fd5b506101666004803603602081101561025157600080fd5b50356108c8565b34801561026457600080fd5b5061017d610ba8565b34801561027957600080fd5b50610282610bb7565b60408051918252519081900360200190f35b3480156102a057600080fd5b50610166610bbd565b3480156102b557600080fd5b5061017d610c27565b3480156102ca57600080fd5b50610166610c36565b3480156102df57600080fd5b5061017d610deb565b61038e816040516024018080602001828103825283818151815260200191508051906020019080838360005b8381101561032c578181015183820152602001610314565b50505050905090810190601f1680156103595780820380516001836020036101000a031916815260200191505b5060408051601f198184030181529190526020810180516001600160e01b031663104c13eb60e21b1790529250610dfa915050565b50565b61043f82826040516024018080602001838152602001828103825284818151815260200191508051906020019080838360005b838110156103dc5781810151838201526020016103c4565b50505050905090810190601f1680156104095780820380516001836020036101000a031916815260200191505b5060408051601f198184030181529190526020810180516001600160e01b03166309710a9d60e41b1790529350610dfa92505050565b5050565b47801561043f576040516001600160a01b038316908290600081818185875af1925050503d8060008114610493576040519150601f19603f3d011682016040523d82523d6000602084013e610498565b606091505b5050505050565b6005546001600160a01b031681565b6004546001600160a01b031681565b6002546001600160a01b0316331461050a576040805162461bcd60e51b815260206004820152601f602482015260008051602061142e833981519152604482015290519081900360640190fd5b600660009054906101000a90046001600160a01b03166001600160a01b031663a2e620456040518163ffffffff1660e01b8152600401600060405180830381600087803b15801561055a57600080fd5b505af115801561056e573d6000803e3d6000fd5b5050505061057b81610e1b565b60055460408051632e54bf9560e01b815260006004820181905291516001600160a01b0390931692632e54bf959260248084019391929182900301818387803b1580156105c757600080fd5b505af11580156105db573d6000803e3d6000fd5b505060025461038e92506001600160a01b0316905061109f565b6002546001600160a01b03163314610642576040805162461bcd60e51b815260206004820152601f602482015260008051602061142e833981519152604482015290519081900360640190fd5b6000548111156106835760405162461bcd60e51b815260040180806020018281038252602881526020018061144e6028913960400191505060405180910390fd5b600660009054906101000a90046001600160a01b03166001600160a01b031663a2e620456040518163ffffffff1660e01b8152600401600060405180830381600087803b1580156106d357600080fd5b505af11580156106e7573d6000803e3d6000fd5b505050506106f56000610e1b565b600054811115610785576005546000805460408051632e54bf9560e01b81526004810192909252516001600160a01b0390931692632e54bf959260248084019391929182900301818387803b15801561074d57600080fd5b505af1158015610761573d6000803e3d6000fd5b505060025460005461078093506001600160a01b0390911691506111a6565b610801565b60055460408051632e54bf9560e01b81526004810184905290516001600160a01b0390921691632e54bf959160248082019260009290919082900301818387803b1580156107d257600080fd5b505af11580156107e6573d6000803e3d6000fd5b505060025461080192506001600160a01b03169050826111a6565b600654600080546002546040805163350d7ec760e21b815260048101939093526001600160a01b0391821660248401525193169263d435fb1c9260448084019391929182900301818387803b15801561085957600080fd5b505af115801561086d573d6000803e3d6000fd5b50506040805184815290513393507f884edad9ce6fa2440d8a54cc123490eb96d2768479d49ff9c7366125a942436492509081900360200190a250565b6006546001600160a01b031681565b6002546001600160a01b031681565b6002546001600160a01b03163314610915576040805162461bcd60e51b815260206004820152601f602482015260008051602061142e833981519152604482015290519081900360640190fd5b600660009054906101000a90046001600160a01b03166001600160a01b031663a2e620456040518163ffffffff1660e01b8152600401600060405180830381600087803b15801561096557600080fd5b505af1158015610979573d6000803e3d6000fd5b50505050600080541115610991576109916000610e1b565b600354604080516323b872dd60e01b81523360048201523060248201526044810184905290516001600160a01b03909216916323b872dd916064808201926020929091908290030181600087803b1580156109eb57600080fd5b505af11580156109ff573d6000803e3d6000fd5b505050506040513d6020811015610a1557600080fd5b5050600654604080516320a83d3960e01b81526004810184905290516001600160a01b03909216916320a83d399160248082019260009290919082900301818387803b158015610a6457600080fd5b505af1158015610a78573d6000803e3d6000fd5b5050600054610a90925090508263ffffffff61142416565b600090815560055460015460408051635f788d6560e01b8152600481018690526001600160a01b03928316602482015290519190921692635f788d65926044808201939182900301818387803b158015610ae957600080fd5b505af1158015610afd573d6000803e3d6000fd5b5050600654600080546002546040805163350d7ec760e21b815260048101939093526001600160a01b039182166024840152519316945063d435fb1c93506044808201939182900301818387803b158015610b5757600080fd5b505af1158015610b6b573d6000803e3d6000fd5b50506040805184815290513393507fe1fffcc4923d04b559f4d29a8bfc6cda04eb5b0d3c460751c2402c5c5cc9109c92509081900360200190a250565b6003546001600160a01b031681565b60005481565b600760009054906101000a90046001600160a01b03166001600160a01b0316636ffd77026040518163ffffffff1660e01b8152600401600060405180830381600087803b158015610c0d57600080fd5b505af1158015610c21573d6000803e3d6000fd5b50505050565b6007546001600160a01b031681565b6002546001600160a01b03163314610c83576040805162461bcd60e51b815260206004820152601f602482015260008051602061142e833981519152604482015290519081900360640190fd5b6005546040805163a78e883d60e01b8152306004820152600060248201819052915191926001600160a01b03169163a78e883d91604480820192602092909190829003018186803b158015610cd757600080fd5b505afa158015610ceb573d6000803e3d6000fd5b505050506040513d6020811015610d0157600080fd5b505160055460408051632e54bf9560e01b81526004810184905290519293506001600160a01b0390911691632e54bf959160248082019260009290919082900301818387803b158015610d5357600080fd5b505af1158015610d67573d6000803e3d6000fd5b505060065460025460408051633fcc093560e11b81526001600160a01b0392831660048201529051919092169350637f98126a9250602480830192600092919082900301818387803b158015610dbc57600080fd5b505af1158015610dd0573d6000803e3d6000fd5b505060025461038e92506001600160a01b03169050826111a6565b6001546001600160a01b031681565b80516a636f6e736f6c652e6c6f67602083016000808483855afa5050505050565b6005546040805163a78e883d60e01b8152306004820152831515602482015290516000926001600160a01b03169163a78e883d916044808301926020929190829003018186803b158015610e6e57600080fd5b505afa158015610e82573d6000803e3d6000fd5b505050506040513d6020811015610e9857600080fd5b50519050801561109057610ed16040518060400160405280600d81526020016c063757272656e7442616c20535609c1b81525082610391565b610f006040518060400160405280600b81526020016a6c75736442616c616e636560a81b815250600054610391565b600080548211610f2057600054610f1d908363ffffffff61142816565b90505b60065460025460408051630f41a04d60e11b81526001600160a01b03928316600482015290519190921691631e83409a91602480830192600092919082900301818387803b158015610f7157600080fd5b505af1158015610f85573d6000803e3d6000fd5b50505050600081111561108e57610fb8604051806040016040528060048152602001633234b33360e11b81525082610391565b6006546040805163630ce30b60e11b81526004810184905290516001600160a01b039092169163c619c6169160248082019260009290919082900301818387803b15801561100557600080fd5b505af1158015611019573d6000803e3d6000fd5b50506006546002546040805163350d7ec760e21b8152600481018890526001600160a01b039283166024820152905191909216935063d435fb1c9250604480830192600092919082900301818387803b15801561107557600080fd5b505af1158015611089573d6000803e3d6000fd5b505050505b505b806000541061043f5760005550565b60048054604080516370a0823160e01b81523093810193909352516000926001600160a01b03909216916370a08231916024808301926020929190829003018186803b1580156110ee57600080fd5b505afa158015611102573d6000803e3d6000fd5b505050506040513d602081101561111857600080fd5b50519050801561043f57600480546040805163a9059cbb60e01b81526001600160a01b0386811694820194909452602481018590529051929091169163a9059cbb916044808201926020929091908290030181600087803b15801561117c57600080fd5b505af1158015611190573d6000803e3d6000fd5b505050506040513d6020811015610c2157600080fd5b600354604080516370a0823160e01b815230600482015290516000926001600160a01b0316916370a08231916024808301926020929190829003018186803b1580156111f157600080fd5b505afa158015611205573d6000803e3d6000fd5b505050506040513d602081101561121b57600080fd5b5051905080821115611325576003546040805163a9059cbb60e01b81526001600160a01b038681166004830152602482018590529151919092169163a9059cbb9160448083019260209291908290030181600087803b15801561127d57600080fd5b505af1158015611291573d6000803e3d6000fd5b505050506040513d60208110156112a757600080fd5b50506000546112bc908263ffffffff61142816565b60009081556006546040805163630ce30b60e11b81526004810185905290516001600160a01b039092169263c619c6169260248084019382900301818387803b15801561130857600080fd5b505af115801561131c573d6000803e3d6000fd5b5050505061141f565b6003546040805163a9059cbb60e01b81526001600160a01b038681166004830152602482018690529151919092169163a9059cbb9160448083019260209291908290030181600087803b15801561137b57600080fd5b505af115801561138f573d6000803e3d6000fd5b505050506040513d60208110156113a557600080fd5b50506000546113ba908363ffffffff61142816565b60009081556006546040805163630ce30b60e11b81526004810186905290516001600160a01b039092169263c619c6169260248084019382900301818387803b15801561140657600080fd5b505af115801561141a573d6000803e3d6000fd5b505050505b505050565b0190565b90039056fe6f6e6c79206f776e65722063616e2063616c6c2074686973206d6574686f6400576974686472617720697320666f72206d6f7265207468616e2062616c616e636520616d6f756e74a264697066735822122013bf555e807003e42cf2f4d717ba9cf2c7c07a0ed75af0c698c727224f4004b064736f6c634300060b00336f6e6c79206f776e65722063616e2063616c6c2074686973206d6574686f6400a264697066735822122029bfae7c5db9d3104778f06c163a91cce370aa55f750bee8b04e47c3fff62dea64736f6c634300060b0033",
  "linkReferences": {},
  "deployedLinkReferences": {}
}