{
  "_format": "hh-sol-artifact-1",
  "contractName": "PriceFeed",
  "sourceName": "contracts/Liquity/PriceFeed.sol",
  "abi": [
    {
      "anonymous": false,
      "inputs": [
        {
          "indexed": false,
          "internalType": "uint256",
          "name": "_lastGoodPrice",
          "type": "uint256"
        }
      ],
      "name": "LastGoodPriceUpdated",
      "type": "event"
    },
    {
      "anonymous": false,
      "inputs": [
        {
          "indexed": true,
          "internalType": "address",
          "name": "previousOwner",
          "type": "address"
        },
        {
          "indexed": true,
          "internalType": "address",
          "name": "newOwner",
          "type": "address"
        }
      ],
      "name": "OwnershipTransferred",
      "type": "event"
    },
    {
      "anonymous": false,
      "inputs": [
        {
          "indexed": false,
          "internalType": "enum PriceFeed.Status",
          "name": "newStatus",
          "type": "uint8"
        }
      ],
      "name": "PriceFeedStatusChanged",
      "type": "event"
    },
    {
      "inputs": [],
      "name": "DECIMAL_PRECISION",
      "outputs": [
        {
          "internalType": "uint256",
          "name": "",
          "type": "uint256"
        }
      ],
      "stateMutability": "view",
      "type": "function"
    },
    {
      "inputs": [],
      "name": "ETHUSD_TELLOR_REQ_ID",
      "outputs": [
        {
          "internalType": "uint256",
          "name": "",
          "type": "uint256"
        }
      ],
      "stateMutability": "view",
      "type": "function"
    },
    {
      "inputs": [],
      "name": "MAX_PRICE_DEVIATION_FROM_PREVIOUS_ROUND",
      "outputs": [
        {
          "internalType": "uint256",
          "name": "",
          "type": "uint256"
        }
      ],
      "stateMutability": "view",
      "type": "function"
    },
    {
      "inputs": [],
      "name": "MAX_PRICE_DIFFERENCE_BETWEEN_ORACLES",
      "outputs": [
        {
          "internalType": "uint256",
          "name": "",
          "type": "uint256"
        }
      ],
      "stateMutability": "view",
      "type": "function"
    },
    {
      "inputs": [],
      "name": "NAME",
      "outputs": [
        {
          "internalType": "string",
          "name": "",
          "type": "string"
        }
      ],
      "stateMutability": "view",
      "type": "function"
    },
    {
      "inputs": [],
      "name": "TARGET_DIGITS",
      "outputs": [
        {
          "internalType": "uint256",
          "name": "",
          "type": "uint256"
        }
      ],
      "stateMutability": "view",
      "type": "function"
    },
    {
      "inputs": [],
      "name": "TELLOR_DIGITS",
      "outputs": [
        {
          "internalType": "uint256",
          "name": "",
          "type": "uint256"
        }
      ],
      "stateMutability": "view",
      "type": "function"
    },
    {
      "inputs": [],
      "name": "TIMEOUT",
      "outputs": [
        {
          "internalType": "uint256",
          "name": "",
          "type": "uint256"
        }
      ],
      "stateMutability": "view",
      "type": "function"
    },
    {
      "inputs": [],
      "name": "fetchPrice",
      "outputs": [
        {
          "internalType": "uint256",
          "name": "",
          "type": "uint256"
        }
      ],
      "stateMutability": "nonpayable",
      "type": "function"
    },
    {
      "inputs": [],
      "name": "isOwner",
      "outputs": [
        {
          "internalType": "bool",
          "name": "",
          "type": "bool"
        }
      ],
      "stateMutability": "view",
      "type": "function"
    },
    {
      "inputs": [],
      "name": "lastGoodPrice",
      "outputs": [
        {
          "internalType": "uint256",
          "name": "",
          "type": "uint256"
        }
      ],
      "stateMutability": "view",
      "type": "function"
    },
    {
      "inputs": [],
      "name": "owner",
      "outputs": [
        {
          "internalType": "address",
          "name": "",
          "type": "address"
        }
      ],
      "stateMutability": "view",
      "type": "function"
    },
    {
      "inputs": [],
      "name": "priceAggregator",
      "outputs": [
        {
          "internalType": "contract AggregatorV3Interface",
          "name": "",
          "type": "address"
        }
      ],
      "stateMutability": "view",
      "type": "function"
    },
    {
      "inputs": [
        {
          "internalType": "address",
          "name": "_priceAggregatorAddress",
          "type": "address"
        },
        {
          "internalType": "address",
          "name": "_tellorCallerAddress",
          "type": "address"
        }
      ],
      "name": "setAddresses",
      "outputs": [],
      "stateMutability": "nonpayable",
      "type": "function"
    },
    {
      "inputs": [],
      "name": "status",
      "outputs": [
        {
          "internalType": "enum PriceFeed.Status",
          "name": "",
          "type": "uint8"
        }
      ],
      "stateMutability": "view",
      "type": "function"
    },
    {
      "inputs": [],
      "name": "tellorCaller",
      "outputs": [
        {
          "internalType": "contract ITellorCaller",
          "name": "",
          "type": "address"
        }
      ],
      "stateMutability": "view",
      "type": "function"
    }
  ],
  "bytecode": "0x608060405234801561001057600080fd5b50336000806101000a81548173ffffffffffffffffffffffffffffffffffffffff021916908373ffffffffffffffffffffffffffffffffffffffff1602179055503373ffffffffffffffffffffffffffffffffffffffff16600073ffffffffffffffffffffffffffffffffffffffff167f8be0079c531659141344cd1fd0a4f28419497f9722a3daafe3b4186f6b6457e060405160405180910390a3611b5d806100bb6000396000f3fe608060405234801561001057600080fd5b50600436106101005760003560e01c80637c61e3bf11610097578063a20baee611610066578063a20baee614610349578063a3f4df7e14610367578063ebf8e6c6146103ea578063f56f48f21461040857610100565b80637c61e3bf1461022f5780638da5cb5b146102795780638f32d59b146102c357806390107afe146102e557610100565b80633078fff5116100d35780633078fff51461018b57806345079cb4146101d557806358a6aa88146101f35780635f42caf81461021157610100565b80630490be83146101055780630fdb11cf146101235780631be5c92f14610141578063200d2ed21461015f575b600080fd5b61010d610426565b6040518082815260200191505060405180910390f35b61012b61042c565b6040518082815260200191505060405180910390f35b6101496109bc565b6040518082815260200191505060405180910390f35b6101676109c1565b6040518082600481111561017757fe5b60ff16815260200191505060405180910390f35b6101936109d4565b604051808273ffffffffffffffffffffffffffffffffffffffff1673ffffffffffffffffffffffffffffffffffffffff16815260200191505060405180910390f35b6101dd6109fa565b6040518082815260200191505060405180910390f35b6101fb610a05565b6040518082815260200191505060405180910390f35b610219610a11565b6040518082815260200191505060405180910390f35b610237610a16565b604051808273ffffffffffffffffffffffffffffffffffffffff1673ffffffffffffffffffffffffffffffffffffffff16815260200191505060405180910390f35b610281610a3c565b604051808273ffffffffffffffffffffffffffffffffffffffff1673ffffffffffffffffffffffffffffffffffffffff16815260200191505060405180910390f35b6102cb610a65565b604051808215151515815260200191505060405180910390f35b610347600480360360408110156102fb57600080fd5b81019080803573ffffffffffffffffffffffffffffffffffffffff169060200190929190803573ffffffffffffffffffffffffffffffffffffffff169060200190929190505050610abc565b005b610351610ca6565b6040518082815260200191505060405180910390f35b61036f610cb2565b6040518080602001828103825283818151815260200191508051906020019080838360005b838110156103af578082015181840152602081019050610394565b50505050905090810190601f1680156103dc5780820380516001836020036101000a031916815260200191505b509250505060405180910390f35b6103f2610ceb565b6040518082815260200191505060405180910390f35b610410610cf0565b6040518082815260200191505060405180910390f35b60055481565b6000610436611a6a565b61043e610cf6565b9050610448611a6a565b61045a82600001518360800151610ede565b9050610464611aaa565b61046c611046565b90506000600481111561047b57fe5b600660009054906101000a900460ff16600481111561049657fe5b1415610641576104a68383611155565b15610512576104b481611178565b156104d0576104c360026111d0565b60055493505050506109b9565b6104d98161123b565b156104f5576104e860016111d0565b60055493505050506109b9565b6104ff60016111d0565b6105088161125f565b93505050506109b9565b61051b83611283565b1561057d5761052981611178565b156105455761053860046111d0565b60055493505050506109b9565b61054f60036111d0565b6105588161123b565b1561056a5760055493505050506109b9565b6105738161125f565b93505050506109b9565b61058783836112a7565b156106155761059581611178565b156105b1576105a460026111d0565b60055493505050506109b9565b6105ba8161123b565b156105d6576105c960016111d0565b60055493505050506109b9565b6105e08382611351565b156105f8576105ee836113f3565b93505050506109b9565b61060260016111d0565b61060b8161125f565b93505050506109b9565b61061e81611178565b1561062e5761062d60046111d0565b5b610637836113f3565b93505050506109b9565b6001600481111561064e57fe5b600660009054906101000a900460ff16600481111561066957fe5b14156106ef5761067a83838361141f565b1561069c5761068960006111d0565b610692836113f3565b93505050506109b9565b6106a581611178565b156106c1576106b460026111d0565b60055493505050506109b9565b6106ca8161123b565b156106dc5760055493505050506109b9565b6106e58161125f565b93505050506109b9565b600260048111156106fc57fe5b600660009054906101000a900460ff16600481111561071757fe5b14156107575761072883838361141f565b1561074a5761073760006111d0565b610740836113f3565b93505050506109b9565b60055493505050506109b9565b6003600481111561076457fe5b600660009054906101000a900460ff16600481111561077f57fe5b14156108e15761078f8383611155565b156107f15761079d81611178565b156107b9576107ac60026111d0565b60055493505050506109b9565b6107c360016111d0565b6107cc8161123b565b156107de5760055493505050506109b9565b6107e78161125f565b93505050506109b9565b6107fa83611283565b156108525761080881611178565b156108245761081760046111d0565b60055493505050506109b9565b61082d8161123b565b1561083f5760055493505050506109b9565b6108488161125f565b93505050506109b9565b61085b81611178565b1561087d5761086a60046111d0565b610873836113f3565b93505050506109b9565b6108868161123b565b156108985760055493505050506109b9565b6108a28382611351565b156108c4576108b160006111d0565b6108ba836113f3565b93505050506109b9565b6108ce60016111d0565b6108d78161125f565b93505050506109b9565b6004808111156108ed57fe5b600660009054906101000a900460ff16600481111561090857fe5b14156109b5576109188383611155565b156109345761092760026111d0565b60055493505050506109b9565b61093d83611283565b1561094f5760055493505050506109b9565b61095a83838361141f565b1561097c5761096960006111d0565b610972836113f3565b93505050506109b9565b61098683836112a7565b156109a25761099560026111d0565b60055493505050506109b9565b6109ab836113f3565b93505050506109b9565b5050505b90565b601281565b600660009054906101000a900460ff1681565b600160009054906101000a900473ffffffffffffffffffffffffffffffffffffffff1681565b66b1a2bc2ec5000081565b6706f05b59d3b2000081565b600181565b600260009054906101000a900473ffffffffffffffffffffffffffffffffffffffff1681565b60008060009054906101000a900473ffffffffffffffffffffffffffffffffffffffff16905090565b60008060009054906101000a900473ffffffffffffffffffffffffffffffffffffffff1673ffffffffffffffffffffffffffffffffffffffff163373ffffffffffffffffffffffffffffffffffffffff1614905090565b610ac4610a65565b610b36576040517f08c379a00000000000000000000000000000000000000000000000000000000081526004018080602001828103825260208152602001807f4f776e61626c653a2063616c6c6572206973206e6f7420746865206f776e657281525060200191505060405180910390fd5b610b3f8261147d565b610b488161147d565b81600160006101000a81548173ffffffffffffffffffffffffffffffffffffffff021916908373ffffffffffffffffffffffffffffffffffffffff16021790555080600260006101000a81548173ffffffffffffffffffffffffffffffffffffffff021916908373ffffffffffffffffffffffffffffffffffffffff1602179055506000600660006101000a81548160ff02191690836004811115610be957fe5b0217905550610bf6611a6a565b610bfe610cf6565b9050610c08611a6a565b610c1a82600001518360800151610ede565b9050610c268282611155565b158015610c395750610c3782611283565b155b610c8e576040517f08c379a0000000000000000000000000000000000000000000000000000000008152600401808060200182810382526030815260200180611af86030913960400191505060405180910390fd5b610c97826113f3565b50610ca06115a0565b50505050565b670de0b6b3a764000081565b6040518060400160405280600981526020017f507269636546656564000000000000000000000000000000000000000000000081525081565b600681565b61384081565b610cfe611a6a565b600160009054906101000a900473ffffffffffffffffffffffffffffffffffffffff1673ffffffffffffffffffffffffffffffffffffffff1663313ce5676040518163ffffffff1660e01b815260040160206040518083038186803b158015610d6657600080fd5b505afa925050508015610d9a57506040513d6020811015610d8657600080fd5b810190808051906020019092919050505060015b610da657809050610edb565b80826080019060ff16908160ff168152505050600160009054906101000a900473ffffffffffffffffffffffffffffffffffffffff1673ffffffffffffffffffffffffffffffffffffffff1663feaf968c6040518163ffffffff1660e01b815260040160a06040518083038186803b158015610e2157600080fd5b505afa925050508015610e7d57506040513d60a0811015610e4157600080fd5b81019080805190602001909291908051906020019092919080519060200190929190805190602001909291908051906020019092919050505060015b610e8957809050610edb565b84866000019069ffffffffffffffffffff16908169ffffffffffffffffffff16815250508386602001818152505081866040018181525050600186606001901515908115158152505085955050505050505b90565b610ee6611a6a565b600160009054906101000a900473ffffffffffffffffffffffffffffffffffffffff1673ffffffffffffffffffffffffffffffffffffffff16639a6fc8f5600185036040518263ffffffff1660e01b8152600401808269ffffffffffffffffffff1669ffffffffffffffffffff16815260200191505060a06040518083038186803b158015610f7457600080fd5b505afa925050508015610fd057506040513d60a0811015610f9457600080fd5b81019080805190602001909291908051906020019092919080519060200190929190805190602001909291908051906020019092919050505060015b610fdc57809050611040565b84866000019069ffffffffffffffffffff16908169ffffffffffffffffffff1681525050838660200181815250508186604001818152505086866080019060ff16908160ff1681525050600186606001901515908115158152505085955050505050505b92915050565b61104e611aaa565b600260009054906101000a900473ffffffffffffffffffffffffffffffffffffffff1673ffffffffffffffffffffffffffffffffffffffff166332e6aadb60016040518263ffffffff1660e01b81526004018082815260200191505060606040518083038186803b1580156110c257600080fd5b505afa92505050801561110a57506040513d60608110156110e257600080fd5b8101908080519060200190929190805190602001909291908051906020019092919050505060015b61111657809050611152565b82846000019015159081151581525050818460200181815250508084604001818152505060018460600190151590811515815250508393505050505b90565b60006111608361165f565b80611170575061116f8261165f565b5b905092915050565b6000816060015161118c57600190506111cb565b6000826040015114806111a25750428260400151115b156111b057600190506111cb565b6000826020015114156111c657600190506111cb565b600090505b919050565b80600660006101000a81548160ff021916908360048111156111ee57fe5b02179055507f5c57579a8214fe4f710c1c56fa829f045b9fa6d225a744225a30c32188064d4e816040518082600481111561122557fe5b60ff16815260200191505060405180910390a150565b60006138406112578360400151426116d890919063ffffffff16565b119050919050565b60008061126f8360200151611722565b905061127a81611745565b80915050919050565b600061384061129f8360400151426116d890919063ffffffff16565b119050919050565b6000806112bf8460200151856080015160ff16611786565b905060006112d88460200151856080015160ff16611786565b905060006112e683836117e1565b905060006112f484846117fa565b9050600061133782611329670de0b6b3a764000061131b87876116d890919063ffffffff16565b61181490919063ffffffff16565b61189a90919063ffffffff16565b90506706f05b59d3b2000081119550505050505092915050565b6000806113698460200151856080015160ff16611786565b9050600061137a8460200151611722565b9050600061138882846117e1565b9050600061139683856117fa565b905060006113d9836113cb670de0b6b3a76400006113bd87876116d890919063ffffffff16565b61181490919063ffffffff16565b61189a90919063ffffffff16565b905066b1a2bc2ec500008111159550505050505092915050565b60008061140b8360200151846080015160ff16611786565b905061141681611745565b80915050919050565b600061142a82611178565b8061143a57506114398261123b565b5b8061144b575061144a8484611155565b5b8061145b575061145a84611283565b5b156114695760009050611476565b6114738483611351565b90505b9392505050565b600073ffffffffffffffffffffffffffffffffffffffff168173ffffffffffffffffffffffffffffffffffffffff161415611520576040517f08c379a000000000000000000000000000000000000000000000000000000000815260040180806020018281038252601e8152602001807f4163636f756e742063616e6e6f74206265207a65726f2061646472657373000081525060200191505060405180910390fd5b6000813b90506000811161159c576040517f08c379a00000000000000000000000000000000000000000000000000000000081526004018080602001828103825260208152602001807f4163636f756e7420636f64652073697a652063616e6e6f74206265207a65726f81525060200191505060405180910390fd5b5050565b600073ffffffffffffffffffffffffffffffffffffffff166000809054906101000a900473ffffffffffffffffffffffffffffffffffffffff1673ffffffffffffffffffffffffffffffffffffffff167f8be0079c531659141344cd1fd0a4f28419497f9722a3daafe3b4186f6b6457e060405160405180910390a360008060006101000a81548173ffffffffffffffffffffffffffffffffffffffff021916908373ffffffffffffffffffffffffffffffffffffffff160217905550565b6000816060015161167357600190506116d3565b6000826000015169ffffffffffffffffffff16141561169557600190506116d3565b6000826040015114806116ab5750428260400151115b156116b957600190506116d3565b60008260200151136116ce57600190506116d3565b600090505b919050565b600061171a83836040518060400160405280601e81526020017f536166654d6174683a207375627472616374696f6e206f766572666c6f7700008152506118e4565b905092915050565b600061173e6006601203600a0a8361181490919063ffffffff16565b9050919050565b806005819055507f4d29de21de555af78a62fc82dd4bc05e9ae5b0660a37f04729527e0f22780cd3816040518082815260200191505060405180910390a150565b600080601283106117b1576117aa60128403600a0a8561189a90919063ffffffff16565b90506117d7565b60128310156117d6576117d383601203600a0a8561181490919063ffffffff16565b90505b5b8091505092915050565b60008183106117f057816117f2565b825b905092915050565b60008183101561180a578161180c565b825b905092915050565b6000808314156118275760009050611894565b600082840290508284828161183857fe5b041461188f576040517f08c379a0000000000000000000000000000000000000000000000000000000008152600401808060200182810382526021815260200180611ad76021913960400191505060405180910390fd5b809150505b92915050565b60006118dc83836040518060400160405280601a81526020017f536166654d6174683a206469766973696f6e206279207a65726f0000000000008152506119a4565b905092915050565b6000838311158290611991576040517f08c379a00000000000000000000000000000000000000000000000000000000081526004018080602001828103825283818151815260200191508051906020019080838360005b8381101561195657808201518184015260208101905061193b565b50505050905090810190601f1680156119835780820380516001836020036101000a031916815260200191505b509250505060405180910390fd5b5060008385039050809150509392505050565b60008083118290611a50576040517f08c379a00000000000000000000000000000000000000000000000000000000081526004018080602001828103825283818151815260200191508051906020019080838360005b83811015611a155780820151818401526020810190506119fa565b50505050905090810190601f168015611a425780820380516001836020036101000a031916815260200191505b509250505060405180910390fd5b506000838581611a5c57fe5b049050809150509392505050565b6040518060a00160405280600069ffffffffffffffffffff1681526020016000815260200160008152602001600015158152602001600060ff1681525090565b60405180608001604052806000151581526020016000815260200160008152602001600015158152509056fe536166654d6174683a206d756c7469706c69636174696f6e206f766572666c6f775072696365466565643a20436861696e6c696e6b206d75737420626520776f726b696e6720616e642063757272656e74a2646970667358221220dc1918313d12f210319756de474d46358a4bc44d28d0bd8126862edd6e50fb6764736f6c634300060b0033",
  "linkReferences": {},
  "deployedLinkReferences": {}
}