{
  "_format": "hh-sol-artifact-1",
  "contractName": "PriceFeedTester",
  "sourceName": "contracts/Liquity/TestContracts/PriceFeedTester.sol",
  "abi": [
    {
      "anonymous": false,
      "inputs": [
        {
          "indexed": false,
          "internalType": "uint256",
          "name": "_lastGoodPrice",
          "type": "uint256"
        }
      ],
      "name": "LastGoodPriceUpdated",
      "type": "event"
    },
    {
      "anonymous": false,
      "inputs": [
        {
          "indexed": true,
          "internalType": "address",
          "name": "previousOwner",
          "type": "address"
        },
        {
          "indexed": true,
          "internalType": "address",
          "name": "newOwner",
          "type": "address"
        }
      ],
      "name": "OwnershipTransferred",
      "type": "event"
    },
    {
      "anonymous": false,
      "inputs": [
        {
          "indexed": false,
          "internalType": "enum PriceFeed.Status",
          "name": "newStatus",
          "type": "uint8"
        }
      ],
      "name": "PriceFeedStatusChanged",
      "type": "event"
    },
    {
      "inputs": [],
      "name": "DECIMAL_PRECISION",
      "outputs": [
        {
          "internalType": "uint256",
          "name": "",
          "type": "uint256"
        }
      ],
      "stateMutability": "view",
      "type": "function"
    },
    {
      "inputs": [],
      "name": "ETHUSD_TELLOR_REQ_ID",
      "outputs": [
        {
          "internalType": "uint256",
          "name": "",
          "type": "uint256"
        }
      ],
      "stateMutability": "view",
      "type": "function"
    },
    {
      "inputs": [],
      "name": "MAX_PRICE_DEVIATION_FROM_PREVIOUS_ROUND",
      "outputs": [
        {
          "internalType": "uint256",
          "name": "",
          "type": "uint256"
        }
      ],
      "stateMutability": "view",
      "type": "function"
    },
    {
      "inputs": [],
      "name": "MAX_PRICE_DIFFERENCE_BETWEEN_ORACLES",
      "outputs": [
        {
          "internalType": "uint256",
          "name": "",
          "type": "uint256"
        }
      ],
      "stateMutability": "view",
      "type": "function"
    },
    {
      "inputs": [],
      "name": "NAME",
      "outputs": [
        {
          "internalType": "string",
          "name": "",
          "type": "string"
        }
      ],
      "stateMutability": "view",
      "type": "function"
    },
    {
      "inputs": [],
      "name": "TARGET_DIGITS",
      "outputs": [
        {
          "internalType": "uint256",
          "name": "",
          "type": "uint256"
        }
      ],
      "stateMutability": "view",
      "type": "function"
    },
    {
      "inputs": [],
      "name": "TELLOR_DIGITS",
      "outputs": [
        {
          "internalType": "uint256",
          "name": "",
          "type": "uint256"
        }
      ],
      "stateMutability": "view",
      "type": "function"
    },
    {
      "inputs": [],
      "name": "TIMEOUT",
      "outputs": [
        {
          "internalType": "uint256",
          "name": "",
          "type": "uint256"
        }
      ],
      "stateMutability": "view",
      "type": "function"
    },
    {
      "inputs": [],
      "name": "fetchPrice",
      "outputs": [
        {
          "internalType": "uint256",
          "name": "",
          "type": "uint256"
        }
      ],
      "stateMutability": "nonpayable",
      "type": "function"
    },
    {
      "inputs": [],
      "name": "isOwner",
      "outputs": [
        {
          "internalType": "bool",
          "name": "",
          "type": "bool"
        }
      ],
      "stateMutability": "view",
      "type": "function"
    },
    {
      "inputs": [],
      "name": "lastGoodPrice",
      "outputs": [
        {
          "internalType": "uint256",
          "name": "",
          "type": "uint256"
        }
      ],
      "stateMutability": "view",
      "type": "function"
    },
    {
      "inputs": [],
      "name": "owner",
      "outputs": [
        {
          "internalType": "address",
          "name": "",
          "type": "address"
        }
      ],
      "stateMutability": "view",
      "type": "function"
    },
    {
      "inputs": [],
      "name": "priceAggregator",
      "outputs": [
        {
          "internalType": "contract AggregatorV3Interface",
          "name": "",
          "type": "address"
        }
      ],
      "stateMutability": "view",
      "type": "function"
    },
    {
      "inputs": [
        {
          "internalType": "address",
          "name": "_priceAggregatorAddress",
          "type": "address"
        },
        {
          "internalType": "address",
          "name": "_tellorCallerAddress",
          "type": "address"
        }
      ],
      "name": "setAddresses",
      "outputs": [],
      "stateMutability": "nonpayable",
      "type": "function"
    },
    {
      "inputs": [
        {
          "internalType": "uint256",
          "name": "_lastGoodPrice",
          "type": "uint256"
        }
      ],
      "name": "setLastGoodPrice",
      "outputs": [],
      "stateMutability": "nonpayable",
      "type": "function"
    },
    {
      "inputs": [
        {
          "internalType": "enum PriceFeed.Status",
          "name": "_status",
          "type": "uint8"
        }
      ],
      "name": "setStatus",
      "outputs": [],
      "stateMutability": "nonpayable",
      "type": "function"
    },
    {
      "inputs": [],
      "name": "status",
      "outputs": [
        {
          "internalType": "enum PriceFeed.Status",
          "name": "",
          "type": "uint8"
        }
      ],
      "stateMutability": "view",
      "type": "function"
    },
    {
      "inputs": [],
      "name": "tellorCaller",
      "outputs": [
        {
          "internalType": "contract ITellorCaller",
          "name": "",
          "type": "address"
        }
      ],
      "stateMutability": "view",
      "type": "function"
    }
  ],
  "bytecode": "0x608060405234801561001057600080fd5b50336000806101000a81548173ffffffffffffffffffffffffffffffffffffffff021916908373ffffffffffffffffffffffffffffffffffffffff1602179055503373ffffffffffffffffffffffffffffffffffffffff16600073ffffffffffffffffffffffffffffffffffffffff167f8be0079c531659141344cd1fd0a4f28419497f9722a3daafe3b4186f6b6457e060405160405180910390a3611c02806100bb6000396000f3fe608060405234801561001057600080fd5b50600436106101165760003560e01c80637c61e3bf116100a2578063a20baee611610071578063a20baee614610390578063a3f4df7e146103ae578063c521b3f514610431578063ebf8e6c61461045f578063f56f48f21461047d57610116565b80637c61e3bf146102765780638da5cb5b146102c05780638f32d59b1461030a57806390107afe1461032c57610116565b80632e49d78b116100e95780632e49d78b146101a15780633078fff5146101d257806345079cb41461021c57806358a6aa881461023a5780635f42caf81461025857610116565b80630490be831461011b5780630fdb11cf146101395780631be5c92f14610157578063200d2ed214610175575b600080fd5b61012361049b565b6040518082815260200191505060405180910390f35b6101416104a1565b6040518082815260200191505060405180910390f35b61015f610a31565b6040518082815260200191505060405180910390f35b61017d610a36565b6040518082600481111561018d57fe5b60ff16815260200191505060405180910390f35b6101d0600480360360208110156101b757600080fd5b81019080803560ff169060200190929190505050610a49565b005b6101da610a6f565b604051808273ffffffffffffffffffffffffffffffffffffffff1673ffffffffffffffffffffffffffffffffffffffff16815260200191505060405180910390f35b610224610a95565b6040518082815260200191505060405180910390f35b610242610aa0565b6040518082815260200191505060405180910390f35b610260610aac565b6040518082815260200191505060405180910390f35b61027e610ab1565b604051808273ffffffffffffffffffffffffffffffffffffffff1673ffffffffffffffffffffffffffffffffffffffff16815260200191505060405180910390f35b6102c8610ad7565b604051808273ffffffffffffffffffffffffffffffffffffffff1673ffffffffffffffffffffffffffffffffffffffff16815260200191505060405180910390f35b610312610b00565b604051808215151515815260200191505060405180910390f35b61038e6004803603604081101561034257600080fd5b81019080803573ffffffffffffffffffffffffffffffffffffffff169060200190929190803573ffffffffffffffffffffffffffffffffffffffff169060200190929190505050610b57565b005b610398610d41565b6040518082815260200191505060405180910390f35b6103b6610d4d565b6040518080602001828103825283818151815260200191508051906020019080838360005b838110156103f65780820151818401526020810190506103db565b50505050905090810190601f1680156104235780820380516001836020036101000a031916815260200191505b509250505060405180910390f35b61045d6004803603602081101561044757600080fd5b8101908080359060200190929190505050610d86565b005b610467610d90565b6040518082815260200191505060405180910390f35b610485610d95565b6040518082815260200191505060405180910390f35b60055481565b60006104ab611b0f565b6104b3610d9b565b90506104bd611b0f565b6104cf82600001518360800151610f83565b90506104d9611b4f565b6104e16110eb565b9050600060048111156104f057fe5b600660009054906101000a900460ff16600481111561050b57fe5b14156106b65761051b83836111fa565b15610587576105298161121d565b15610545576105386002611275565b6005549350505050610a2e565b61054e816112e0565b1561056a5761055d6001611275565b6005549350505050610a2e565b6105746001611275565b61057d81611304565b9350505050610a2e565b61059083611328565b156105f25761059e8161121d565b156105ba576105ad6004611275565b6005549350505050610a2e565b6105c46003611275565b6105cd816112e0565b156105df576005549350505050610a2e565b6105e881611304565b9350505050610a2e565b6105fc838361134c565b1561068a5761060a8161121d565b15610626576106196002611275565b6005549350505050610a2e565b61062f816112e0565b1561064b5761063e6001611275565b6005549350505050610a2e565b61065583826113f6565b1561066d5761066383611498565b9350505050610a2e565b6106776001611275565b61068081611304565b9350505050610a2e565b6106938161121d565b156106a3576106a26004611275565b5b6106ac83611498565b9350505050610a2e565b600160048111156106c357fe5b600660009054906101000a900460ff1660048111156106de57fe5b1415610764576106ef8383836114c4565b15610711576106fe6000611275565b61070783611498565b9350505050610a2e565b61071a8161121d565b15610736576107296002611275565b6005549350505050610a2e565b61073f816112e0565b15610751576005549350505050610a2e565b61075a81611304565b9350505050610a2e565b6002600481111561077157fe5b600660009054906101000a900460ff16600481111561078c57fe5b14156107cc5761079d8383836114c4565b156107bf576107ac6000611275565b6107b583611498565b9350505050610a2e565b6005549350505050610a2e565b600360048111156107d957fe5b600660009054906101000a900460ff1660048111156107f457fe5b14156109565761080483836111fa565b15610866576108128161121d565b1561082e576108216002611275565b6005549350505050610a2e565b6108386001611275565b610841816112e0565b15610853576005549350505050610a2e565b61085c81611304565b9350505050610a2e565b61086f83611328565b156108c75761087d8161121d565b156108995761088c6004611275565b6005549350505050610a2e565b6108a2816112e0565b156108b4576005549350505050610a2e565b6108bd81611304565b9350505050610a2e565b6108d08161121d565b156108f2576108df6004611275565b6108e883611498565b9350505050610a2e565b6108fb816112e0565b1561090d576005549350505050610a2e565b61091783826113f6565b15610939576109266000611275565b61092f83611498565b9350505050610a2e565b6109436001611275565b61094c81611304565b9350505050610a2e565b60048081111561096257fe5b600660009054906101000a900460ff16600481111561097d57fe5b1415610a2a5761098d83836111fa565b156109a95761099c6002611275565b6005549350505050610a2e565b6109b283611328565b156109c4576005549350505050610a2e565b6109cf8383836114c4565b156109f1576109de6000611275565b6109e783611498565b9350505050610a2e565b6109fb838361134c565b15610a1757610a0a6002611275565b6005549350505050610a2e565b610a2083611498565b9350505050610a2e565b5050505b90565b601281565b600660009054906101000a900460ff1681565b80600660006101000a81548160ff02191690836004811115610a6757fe5b021790555050565b600160009054906101000a900473ffffffffffffffffffffffffffffffffffffffff1681565b66b1a2bc2ec5000081565b6706f05b59d3b2000081565b600181565b600260009054906101000a900473ffffffffffffffffffffffffffffffffffffffff1681565b60008060009054906101000a900473ffffffffffffffffffffffffffffffffffffffff16905090565b60008060009054906101000a900473ffffffffffffffffffffffffffffffffffffffff1673ffffffffffffffffffffffffffffffffffffffff163373ffffffffffffffffffffffffffffffffffffffff1614905090565b610b5f610b00565b610bd1576040517f08c379a00000000000000000000000000000000000000000000000000000000081526004018080602001828103825260208152602001807f4f776e61626c653a2063616c6c6572206973206e6f7420746865206f776e657281525060200191505060405180910390fd5b610bda82611522565b610be381611522565b81600160006101000a81548173ffffffffffffffffffffffffffffffffffffffff021916908373ffffffffffffffffffffffffffffffffffffffff16021790555080600260006101000a81548173ffffffffffffffffffffffffffffffffffffffff021916908373ffffffffffffffffffffffffffffffffffffffff1602179055506000600660006101000a81548160ff02191690836004811115610c8457fe5b0217905550610c91611b0f565b610c99610d9b565b9050610ca3611b0f565b610cb582600001518360800151610f83565b9050610cc182826111fa565b158015610cd45750610cd282611328565b155b610d29576040517f08c379a0000000000000000000000000000000000000000000000000000000008152600401808060200182810382526030815260200180611b9d6030913960400191505060405180910390fd5b610d3282611498565b50610d3b611645565b50505050565b670de0b6b3a764000081565b6040518060400160405280600981526020017f507269636546656564000000000000000000000000000000000000000000000081525081565b8060058190555050565b600681565b61384081565b610da3611b0f565b600160009054906101000a900473ffffffffffffffffffffffffffffffffffffffff1673ffffffffffffffffffffffffffffffffffffffff1663313ce5676040518163ffffffff1660e01b815260040160206040518083038186803b158015610e0b57600080fd5b505afa925050508015610e3f57506040513d6020811015610e2b57600080fd5b810190808051906020019092919050505060015b610e4b57809050610f80565b80826080019060ff16908160ff168152505050600160009054906101000a900473ffffffffffffffffffffffffffffffffffffffff1673ffffffffffffffffffffffffffffffffffffffff1663feaf968c6040518163ffffffff1660e01b815260040160a06040518083038186803b158015610ec657600080fd5b505afa925050508015610f2257506040513d60a0811015610ee657600080fd5b81019080805190602001909291908051906020019092919080519060200190929190805190602001909291908051906020019092919050505060015b610f2e57809050610f80565b84866000019069ffffffffffffffffffff16908169ffffffffffffffffffff16815250508386602001818152505081866040018181525050600186606001901515908115158152505085955050505050505b90565b610f8b611b0f565b600160009054906101000a900473ffffffffffffffffffffffffffffffffffffffff1673ffffffffffffffffffffffffffffffffffffffff16639a6fc8f5600185036040518263ffffffff1660e01b8152600401808269ffffffffffffffffffff1669ffffffffffffffffffff16815260200191505060a06040518083038186803b15801561101957600080fd5b505afa92505050801561107557506040513d60a081101561103957600080fd5b81019080805190602001909291908051906020019092919080519060200190929190805190602001909291908051906020019092919050505060015b611081578090506110e5565b84866000019069ffffffffffffffffffff16908169ffffffffffffffffffff1681525050838660200181815250508186604001818152505086866080019060ff16908160ff1681525050600186606001901515908115158152505085955050505050505b92915050565b6110f3611b4f565b600260009054906101000a900473ffffffffffffffffffffffffffffffffffffffff1673ffffffffffffffffffffffffffffffffffffffff166332e6aadb60016040518263ffffffff1660e01b81526004018082815260200191505060606040518083038186803b15801561116757600080fd5b505afa9250505080156111af57506040513d606081101561118757600080fd5b8101908080519060200190929190805190602001909291908051906020019092919050505060015b6111bb578090506111f7565b82846000019015159081151581525050818460200181815250508084604001818152505060018460600190151590811515815250508393505050505b90565b600061120583611704565b80611215575061121482611704565b5b905092915050565b600081606001516112315760019050611270565b6000826040015114806112475750428260400151115b156112555760019050611270565b60008260200151141561126b5760019050611270565b600090505b919050565b80600660006101000a81548160ff0219169083600481111561129357fe5b02179055507f5c57579a8214fe4f710c1c56fa829f045b9fa6d225a744225a30c32188064d4e81604051808260048111156112ca57fe5b60ff16815260200191505060405180910390a150565b60006138406112fc83604001514261177d90919063ffffffff16565b119050919050565b60008061131483602001516117c7565b905061131f816117ea565b80915050919050565b600061384061134483604001514261177d90919063ffffffff16565b119050919050565b6000806113648460200151856080015160ff1661182b565b9050600061137d8460200151856080015160ff1661182b565b9050600061138b8383611886565b90506000611399848461189f565b905060006113dc826113ce670de0b6b3a76400006113c0878761177d90919063ffffffff16565b6118b990919063ffffffff16565b61193f90919063ffffffff16565b90506706f05b59d3b2000081119550505050505092915050565b60008061140e8460200151856080015160ff1661182b565b9050600061141f84602001516117c7565b9050600061142d8284611886565b9050600061143b838561189f565b9050600061147e83611470670de0b6b3a7640000611462878761177d90919063ffffffff16565b6118b990919063ffffffff16565b61193f90919063ffffffff16565b905066b1a2bc2ec500008111159550505050505092915050565b6000806114b08360200151846080015160ff1661182b565b90506114bb816117ea565b80915050919050565b60006114cf8261121d565b806114df57506114de826112e0565b5b806114f057506114ef84846111fa565b5b8061150057506114ff84611328565b5b1561150e576000905061151b565b61151884836113f6565b90505b9392505050565b600073ffffffffffffffffffffffffffffffffffffffff168173ffffffffffffffffffffffffffffffffffffffff1614156115c5576040517f08c379a000000000000000000000000000000000000000000000000000000000815260040180806020018281038252601e8152602001807f4163636f756e742063616e6e6f74206265207a65726f2061646472657373000081525060200191505060405180910390fd5b6000813b905060008111611641576040517f08c379a00000000000000000000000000000000000000000000000000000000081526004018080602001828103825260208152602001807f4163636f756e7420636f64652073697a652063616e6e6f74206265207a65726f81525060200191505060405180910390fd5b5050565b600073ffffffffffffffffffffffffffffffffffffffff166000809054906101000a900473ffffffffffffffffffffffffffffffffffffffff1673ffffffffffffffffffffffffffffffffffffffff167f8be0079c531659141344cd1fd0a4f28419497f9722a3daafe3b4186f6b6457e060405160405180910390a360008060006101000a81548173ffffffffffffffffffffffffffffffffffffffff021916908373ffffffffffffffffffffffffffffffffffffffff160217905550565b600081606001516117185760019050611778565b6000826000015169ffffffffffffffffffff16141561173a5760019050611778565b6000826040015114806117505750428260400151115b1561175e5760019050611778565b60008260200151136117735760019050611778565b600090505b919050565b60006117bf83836040518060400160405280601e81526020017f536166654d6174683a207375627472616374696f6e206f766572666c6f770000815250611989565b905092915050565b60006117e36006601203600a0a836118b990919063ffffffff16565b9050919050565b806005819055507f4d29de21de555af78a62fc82dd4bc05e9ae5b0660a37f04729527e0f22780cd3816040518082815260200191505060405180910390a150565b600080601283106118565761184f60128403600a0a8561193f90919063ffffffff16565b905061187c565b601283101561187b5761187883601203600a0a856118b990919063ffffffff16565b90505b5b8091505092915050565b60008183106118955781611897565b825b905092915050565b6000818310156118af57816118b1565b825b905092915050565b6000808314156118cc5760009050611939565b60008284029050828482816118dd57fe5b0414611934576040517f08c379a0000000000000000000000000000000000000000000000000000000008152600401808060200182810382526021815260200180611b7c6021913960400191505060405180910390fd5b809150505b92915050565b600061198183836040518060400160405280601a81526020017f536166654d6174683a206469766973696f6e206279207a65726f000000000000815250611a49565b905092915050565b6000838311158290611a36576040517f08c379a00000000000000000000000000000000000000000000000000000000081526004018080602001828103825283818151815260200191508051906020019080838360005b838110156119fb5780820151818401526020810190506119e0565b50505050905090810190601f168015611a285780820380516001836020036101000a031916815260200191505b509250505060405180910390fd5b5060008385039050809150509392505050565b60008083118290611af5576040517f08c379a00000000000000000000000000000000000000000000000000000000081526004018080602001828103825283818151815260200191508051906020019080838360005b83811015611aba578082015181840152602081019050611a9f565b50505050905090810190601f168015611ae75780820380516001836020036101000a031916815260200191505b509250505060405180910390fd5b506000838581611b0157fe5b049050809150509392505050565b6040518060a00160405280600069ffffffffffffffffffff1681526020016000815260200160008152602001600015158152602001600060ff1681525090565b60405180608001604052806000151581526020016000815260200160008152602001600015158152509056fe536166654d6174683a206d756c7469706c69636174696f6e206f766572666c6f775072696365466565643a20436861696e6c696e6b206d75737420626520776f726b696e6720616e642063757272656e74a2646970667358221220e20e2aeea31835aab36dad100cd7c7f3d5b2b1f3c637a3514f3d42bf600a258e64736f6c634300060b0033",
  "linkReferences": {},
  "deployedLinkReferences": {}
}