{
  "contractName": "ActivePool",
  "abi": [
    {
      "anonymous": false,
      "inputs": [
        {
          "indexed": false,
          "internalType": "address",
          "name": "_newActivePoolAddress",
          "type": "address"
        }
      ],
      "name": "ActivePoolAddressChanged",
      "type": "event"
    },
    {
      "anonymous": false,
      "inputs": [
        {
          "indexed": false,
          "internalType": "address",
          "name": "_newBorrowerOperationsAddress",
          "type": "address"
        }
      ],
      "name": "BorrowerOperationsAddressChanged",
      "type": "event"
    },
    {
      "anonymous": false,
      "inputs": [
        {
          "indexed": false,
          "internalType": "address",
          "name": "_newDefaultPoolAddress",
          "type": "address"
        }
      ],
      "name": "DefaultPoolAddressChanged",
      "type": "event"
    },
    {
      "anonymous": false,
      "inputs": [
        {
          "indexed": false,
          "internalType": "uint256",
          "name": "_newBalance",
          "type": "uint256"
        }
      ],
      "name": "ETHBalanceUpdated",
      "type": "event"
    },
    {
      "anonymous": false,
      "inputs": [
        {
          "indexed": false,
          "internalType": "address",
          "name": "_to",
          "type": "address"
        },
        {
          "indexed": false,
          "internalType": "uint256",
          "name": "_amount",
          "type": "uint256"
        }
      ],
      "name": "EtherSent",
      "type": "event"
    },
    {
      "anonymous": false,
      "inputs": [
        {
          "indexed": false,
          "internalType": "uint256",
          "name": "_newBalance",
          "type": "uint256"
        }
      ],
      "name": "LUSDBalanceUpdated",
      "type": "event"
    },
    {
      "anonymous": false,
      "inputs": [
        {
          "indexed": true,
          "internalType": "address",
          "name": "previousOwner",
          "type": "address"
        },
        {
          "indexed": true,
          "internalType": "address",
          "name": "newOwner",
          "type": "address"
        }
      ],
      "name": "OwnershipTransferred",
      "type": "event"
    },
    {
      "anonymous": false,
      "inputs": [
        {
          "indexed": false,
          "internalType": "address",
          "name": "_newStabilityPoolAddress",
          "type": "address"
        }
      ],
      "name": "StabilityPoolAddressChanged",
      "type": "event"
    },
    {
      "anonymous": false,
      "inputs": [
        {
          "indexed": false,
          "internalType": "address",
          "name": "_newTroveManagerAddress",
          "type": "address"
        }
      ],
      "name": "TroveManagerAddressChanged",
      "type": "event"
    },
    {
      "inputs": [],
      "name": "borrowerOperationsAddress",
      "outputs": [
        {
          "internalType": "address",
          "name": "",
          "type": "address"
        }
      ],
      "stateMutability": "view",
      "type": "function"
    },
    {
      "inputs": [],
      "name": "defaultPoolAddress",
      "outputs": [
        {
          "internalType": "address",
          "name": "",
          "type": "address"
        }
      ],
      "stateMutability": "view",
      "type": "function"
    },
    {
      "inputs": [],
      "name": "isOwner",
      "outputs": [
        {
          "internalType": "bool",
          "name": "",
          "type": "bool"
        }
      ],
      "stateMutability": "view",
      "type": "function"
    },
    {
      "inputs": [],
      "name": "owner",
      "outputs": [
        {
          "internalType": "address",
          "name": "",
          "type": "address"
        }
      ],
      "stateMutability": "view",
      "type": "function"
    },
    {
      "inputs": [],
      "name": "stabilityPoolAddress",
      "outputs": [
        {
          "internalType": "address",
          "name": "",
          "type": "address"
        }
      ],
      "stateMutability": "view",
      "type": "function"
    },
    {
      "inputs": [],
      "name": "troveManagerAddress",
      "outputs": [
        {
          "internalType": "address",
          "name": "",
          "type": "address"
        }
      ],
      "stateMutability": "view",
      "type": "function"
    },
    {
      "stateMutability": "payable",
      "type": "receive"
    },
    {
      "inputs": [
        {
          "internalType": "address",
          "name": "_borrowerOperationsAddress",
          "type": "address"
        },
        {
          "internalType": "address",
          "name": "_troveManagerAddress",
          "type": "address"
        },
        {
          "internalType": "address",
          "name": "_stabilityPoolAddress",
          "type": "address"
        },
        {
          "internalType": "address",
          "name": "_defaultPoolAddress",
          "type": "address"
        }
      ],
      "name": "setAddresses",
      "outputs": [],
      "stateMutability": "nonpayable",
      "type": "function"
    },
    {
      "inputs": [],
      "name": "getETH",
      "outputs": [
        {
          "internalType": "uint256",
          "name": "",
          "type": "uint256"
        }
      ],
      "stateMutability": "view",
      "type": "function"
    },
    {
      "inputs": [],
      "name": "getLUSDDebt",
      "outputs": [
        {
          "internalType": "uint256",
          "name": "",
          "type": "uint256"
        }
      ],
      "stateMutability": "view",
      "type": "function"
    },
    {
      "inputs": [
        {
          "internalType": "address",
          "name": "_account",
          "type": "address"
        },
        {
          "internalType": "uint256",
          "name": "_amount",
          "type": "uint256"
        }
      ],
      "name": "sendETH",
      "outputs": [],
      "stateMutability": "nonpayable",
      "type": "function"
    },
    {
      "inputs": [
        {
          "internalType": "uint256",
          "name": "_amount",
          "type": "uint256"
        }
      ],
      "name": "increaseLUSDDebt",
      "outputs": [],
      "stateMutability": "nonpayable",
      "type": "function"
    },
    {
      "inputs": [
        {
          "internalType": "uint256",
          "name": "_amount",
          "type": "uint256"
        }
      ],
      "name": "decreaseLUSDDebt",
      "outputs": [],
      "stateMutability": "nonpayable",
      "type": "function"
    }
  ],
  "bytecode": "0x608060405234801561001057600080fd5b50336000806101000a81548173ffffffffffffffffffffffffffffffffffffffff021916908373ffffffffffffffffffffffffffffffffffffffff1602179055503373ffffffffffffffffffffffffffffffffffffffff16600073ffffffffffffffffffffffffffffffffffffffff167f8be0079c531659141344cd1fd0a4f28419497f9722a3daafe3b4186f6b6457e060405160405180910390a361119f806100bb6000396000f3fe6080604052600436106100ab5760003560e01c806364a197f31161006457806364a197f31461029e5780638da5cb5b146102f95780638f32d59b1461033a578063aac1846f14610367578063b7f8cf9b146103a8578063cfb9329a146103e9576100d5565b80630b622ab2146100da57806314f6c3be1461011b57806338d995a8146101465780634a945f8d146101815780635a4d28bb146102325780635eb52fca14610273576100d5565b366100d5576100b8610424565b6100cd3460055461052490919063ffffffff16565b600581905550005b600080fd5b3480156100e657600080fd5b506100ef6105ac565b604051808273ffffffffffffffffffffffffffffffffffffffff16815260200191505060405180910390f35b34801561012757600080fd5b506101306105d2565b6040518082815260200191505060405180910390f35b34801561015257600080fd5b5061017f6004803603602081101561016957600080fd5b81019080803590602001909291905050506105dc565b005b34801561018d57600080fd5b50610230600480360360808110156101a457600080fd5b81019080803573ffffffffffffffffffffffffffffffffffffffff169060200190929190803573ffffffffffffffffffffffffffffffffffffffff169060200190929190803573ffffffffffffffffffffffffffffffffffffffff169060200190929190803573ffffffffffffffffffffffffffffffffffffffff169060200190929190505050610602565b005b34801561023e57600080fd5b506102476108e6565b604051808273ffffffffffffffffffffffffffffffffffffffff16815260200191505060405180910390f35b34801561027f57600080fd5b5061028861090c565b6040518082815260200191505060405180910390f35b3480156102aa57600080fd5b506102f7600480360360408110156102c157600080fd5b81019080803573ffffffffffffffffffffffffffffffffffffffff16906020019092919080359060200190929190505050610916565b005b34801561030557600080fd5b5061030e610a6f565b604051808273ffffffffffffffffffffffffffffffffffffffff16815260200191505060405180910390f35b34801561034657600080fd5b5061034f610a98565b60405180821515815260200191505060405180910390f35b34801561037357600080fd5b5061037c610aef565b604051808273ffffffffffffffffffffffffffffffffffffffff16815260200191505060405180910390f35b3480156103b457600080fd5b506103bd610b15565b604051808273ffffffffffffffffffffffffffffffffffffffff16815260200191505060405180910390f35b3480156103f557600080fd5b506104226004803603602081101561040c57600080fd5b8101908080359060200190929190505050610b3b565b005b600160009054906101000a900473ffffffffffffffffffffffffffffffffffffffff1673ffffffffffffffffffffffffffffffffffffffff163373ffffffffffffffffffffffffffffffffffffffff1614806104cd5750600460009054906101000a900473ffffffffffffffffffffffffffffffffffffffff1673ffffffffffffffffffffffffffffffffffffffff163373ffffffffffffffffffffffffffffffffffffffff16145b610522576040517f08c379a00000000000000000000000000000000000000000000000000000000081526004018080602001828103825260318152602001806111396031913960400191505060405180910390fd5b565b6000808284019050838110156105a2576040517f08c379a000000000000000000000000000000000000000000000000000000000815260040180806020018281038252601b8152602001807f536166654d6174683a206164646974696f6e206f766572666c6f77000000000081525060200191505060405180910390fd5b8091505092915050565b600360009054906101000a900473ffffffffffffffffffffffffffffffffffffffff1681565b6000600554905090565b6105e4610b61565b6105f981600654610cb990919063ffffffff16565b60068190555050565b61060a610a98565b61067c576040517f08c379a00000000000000000000000000000000000000000000000000000000081526004018080602001828103825260208152602001807f4f776e61626c653a2063616c6c6572206973206e6f7420746865206f776e657281525060200191505060405180910390fd5b61068584610d03565b61068e83610d03565b61069782610d03565b6106a081610d03565b83600160006101000a81548173ffffffffffffffffffffffffffffffffffffffff021916908373ffffffffffffffffffffffffffffffffffffffff16021790555082600260006101000a81548173ffffffffffffffffffffffffffffffffffffffff021916908373ffffffffffffffffffffffffffffffffffffffff16021790555081600360006101000a81548173ffffffffffffffffffffffffffffffffffffffff021916908373ffffffffffffffffffffffffffffffffffffffff16021790555080600460006101000a81548173ffffffffffffffffffffffffffffffffffffffff021916908373ffffffffffffffffffffffffffffffffffffffff1602179055507f3ca631ffcd2a9b5d9ae18543fc82f58eb4ca33af9e6ab01b7a8e95331e6ed98584604051808273ffffffffffffffffffffffffffffffffffffffff16815260200191505060405180910390a17f143219c9e69b09e07e095fcc889b43d8f46ca892bba65f08dc3a0050869a567883604051808273ffffffffffffffffffffffffffffffffffffffff16815260200191505060405180910390a17f82966d27eea39b038ee0fa30cd16532bb24f6e65d31cb58fb227aa5766cdcc7f82604051808273ffffffffffffffffffffffffffffffffffffffff16815260200191505060405180910390a17f5ee0cae2f063ed938bb55046f6a932fb6ae792bf43624806bb90abe68a50be9b81604051808273ffffffffffffffffffffffffffffffffffffffff16815260200191505060405180910390a16108e0610e26565b50505050565b600260009054906101000a900473ffffffffffffffffffffffffffffffffffffffff1681565b6000600654905090565b61091e610b61565b61093381600554610cb990919063ffffffff16565b6005819055507f6109e2559dfa766aaec7118351d48a523f0a4157f49c8d68749c8ac41318ad128282604051808373ffffffffffffffffffffffffffffffffffffffff1681526020018281526020019250505060405180910390a160008273ffffffffffffffffffffffffffffffffffffffff168260405180600001905060006040518083038185875af1925050503d80600081146109ee576040519150601f19603f3d011682016040523d82523d6000602084013e6109f3565b606091505b5050905080610a6a576040517f08c379a000000000000000000000000000000000000000000000000000000000815260040180806020018281038252601e8152602001807f416374697665506f6f6c3a2073656e64696e6720455448206661696c6564000081525060200191505060405180910390fd5b505050565b60008060009054906101000a900473ffffffffffffffffffffffffffffffffffffffff16905090565b60008060009054906101000a900473ffffffffffffffffffffffffffffffffffffffff1673ffffffffffffffffffffffffffffffffffffffff163373ffffffffffffffffffffffffffffffffffffffff1614905090565b600460009054906101000a900473ffffffffffffffffffffffffffffffffffffffff1681565b600160009054906101000a900473ffffffffffffffffffffffffffffffffffffffff1681565b610b43610ee4565b610b588160065461052490919063ffffffff16565b60068190555050565b600160009054906101000a900473ffffffffffffffffffffffffffffffffffffffff1673ffffffffffffffffffffffffffffffffffffffff163373ffffffffffffffffffffffffffffffffffffffff161480610c0a5750600260009054906101000a900473ffffffffffffffffffffffffffffffffffffffff1673ffffffffffffffffffffffffffffffffffffffff163373ffffffffffffffffffffffffffffffffffffffff16145b80610c625750600360009054906101000a900473ffffffffffffffffffffffffffffffffffffffff1673ffffffffffffffffffffffffffffffffffffffff163373ffffffffffffffffffffffffffffffffffffffff16145b610cb7576040517f08c379a00000000000000000000000000000000000000000000000000000000081526004018080602001828103825260538152602001806110e66053913960600191505060405180910390fd5b565b6000610cfb83836040518060400160405280601e81526020017f536166654d6174683a207375627472616374696f6e206f766572666c6f770000815250610fe4565b905092915050565b600073ffffffffffffffffffffffffffffffffffffffff168173ffffffffffffffffffffffffffffffffffffffff161415610da6576040517f08c379a000000000000000000000000000000000000000000000000000000000815260040180806020018281038252601e8152602001807f4163636f756e742063616e6e6f74206265207a65726f2061646472657373000081525060200191505060405180910390fd5b6000813b905060008111610e22576040517f08c379a00000000000000000000000000000000000000000000000000000000081526004018080602001828103825260208152602001807f4163636f756e7420636f64652073697a652063616e6e6f74206265207a65726f81525060200191505060405180910390fd5b5050565b600073ffffffffffffffffffffffffffffffffffffffff1660008054906101000a900473ffffffffffffffffffffffffffffffffffffffff1673ffffffffffffffffffffffffffffffffffffffff167f8be0079c531659141344cd1fd0a4f28419497f9722a3daafe3b4186f6b6457e060405160405180910390a360008060006101000a81548173ffffffffffffffffffffffffffffffffffffffff021916908373ffffffffffffffffffffffffffffffffffffffff160217905550565b600160009054906101000a900473ffffffffffffffffffffffffffffffffffffffff1673ffffffffffffffffffffffffffffffffffffffff163373ffffffffffffffffffffffffffffffffffffffff161480610f8d5750600260009054906101000a900473ffffffffffffffffffffffffffffffffffffffff1673ffffffffffffffffffffffffffffffffffffffff163373ffffffffffffffffffffffffffffffffffffffff16145b610fe2576040517f08c379a00000000000000000000000000000000000000000000000000000000081526004018080602001828103825260418152602001806110a56041913960600191505060405180910390fd5b565b6000838311158290611091576040517f08c379a00000000000000000000000000000000000000000000000000000000081526004018080602001828103825283818151815260200191508051906020019080838360005b8381101561105657808201518184015260208101905061103b565b50505050905090810190601f1680156110835780820380516001836020036101000a031916815260200191505b509250505060405180910390fd5b506000838503905080915050939250505056fe416374697665506f6f6c3a2043616c6c6572206973206e65697468657220426f72726f7765724f7065726174696f6e73206e6f722054726f76654d616e61676572416374697665506f6f6c3a2043616c6c6572206973206e65697468657220426f72726f7765724f7065726174696f6e73206e6f722054726f76654d616e61676572206e6f722053746162696c697479506f6f6c416374697665506f6f6c3a2043616c6c6572206973206e65697468657220424f206e6f722044656661756c7420506f6f6ca26469706673582212209dcdcc3b596764c1fb8ae89be128d0ea76c398eeae3caef9e983c148361cb6d664736f6c63430007060033",
  "immutableReferences": {},
  "source": "// SPDX-License-Identifier: MIT\r\n\r\npragma solidity >=0.6.0 <0.8.0;\r\n\r\nimport \"./Interfaces/IActivePool.sol\";\r\nimport \"./Dependencies/TestSafeMath.sol\";\r\nimport \"./Dependencies/Ownable.sol\";\r\nimport \"./Dependencies/CheckContract.sol\";\r\nimport \"./Dependencies/console.sol\";\r\n\r\n/*\r\n * The Active Pool holds the ETH collateral and LUSD debt (but not LUSD tokens) for all active troves.\r\n *\r\n * When a trove is liquidated, it's ETH and LUSD debt are transferred from the Active Pool, to either the\r\n * Stability Pool, the Default Pool, or both, depending on the liquidation conditions.\r\n *\r\n */\r\ncontract ActivePool is Ownable, CheckContract, IActivePool {\r\n    using TestSafeMath for uint256;\r\n\r\n    address public borrowerOperationsAddress;\r\n    address public troveManagerAddress;\r\n    address public stabilityPoolAddress;\r\n    address public defaultPoolAddress;\r\n    uint256 internal ETH; // deposited ether tracker\r\n    uint256 internal LUSDDebt;\r\n\r\n    // --- Events ---\r\n\r\n    event BorrowerOperationsAddressChanged(\r\n        address _newBorrowerOperationsAddress\r\n    );\r\n    event TroveManagerAddressChanged(address _newTroveManagerAddress);\r\n\r\n    // --- Contract setters ---\r\n\r\n    function setAddresses(\r\n        address _borrowerOperationsAddress,\r\n        address _troveManagerAddress,\r\n        address _stabilityPoolAddress,\r\n        address _defaultPoolAddress\r\n    ) external onlyOwner {\r\n        checkContract(_borrowerOperationsAddress);\r\n        checkContract(_troveManagerAddress);\r\n        checkContract(_stabilityPoolAddress);\r\n        checkContract(_defaultPoolAddress);\r\n\r\n        borrowerOperationsAddress = _borrowerOperationsAddress;\r\n        troveManagerAddress = _troveManagerAddress;\r\n        stabilityPoolAddress = _stabilityPoolAddress;\r\n        defaultPoolAddress = _defaultPoolAddress;\r\n\r\n        emit BorrowerOperationsAddressChanged(_borrowerOperationsAddress);\r\n        emit TroveManagerAddressChanged(_troveManagerAddress);\r\n        emit StabilityPoolAddressChanged(_stabilityPoolAddress);\r\n        emit DefaultPoolAddressChanged(_defaultPoolAddress);\r\n\r\n        _renounceOwnership();\r\n    }\r\n\r\n    // --- Getters for public variables. Required by IPool interface ---\r\n\r\n    /*\r\n     * Returns the ETH state variable.\r\n     *\r\n     *Not necessarily equal to the the contract's raw ETH balance - ether can be forcibly sent to contracts.\r\n     */\r\n    function getETH() external view override returns (uint256) {\r\n        return ETH;\r\n    }\r\n\r\n    function getLUSDDebt() external view override returns (uint256) {\r\n        return LUSDDebt;\r\n    }\r\n\r\n    // --- Pool functionality ---\r\n\r\n    function sendETH(address _account, uint256 _amount) external override {\r\n        _requireCallerIsBOorTroveMorSP();\r\n        ETH = ETH.sub(_amount);\r\n        emit EtherSent(_account, _amount);\r\n\r\n        (bool success, ) = _account.call{value: _amount}(\"\");\r\n        require(success, \"ActivePool: sending ETH failed\");\r\n    }\r\n\r\n    function increaseLUSDDebt(uint256 _amount) external override {\r\n        _requireCallerIsBOorTroveM();\r\n        LUSDDebt = LUSDDebt.add(_amount);\r\n    }\r\n\r\n    function decreaseLUSDDebt(uint256 _amount) external override {\r\n        _requireCallerIsBOorTroveMorSP();\r\n        LUSDDebt = LUSDDebt.sub(_amount);\r\n    }\r\n\r\n    // --- 'require' functions ---\r\n\r\n    function _requireCallerIsBorrowerOperationsOrDefaultPool() internal view {\r\n        require(\r\n            msg.sender == borrowerOperationsAddress ||\r\n                msg.sender == defaultPoolAddress,\r\n            \"ActivePool: Caller is neither BO nor Default Pool\"\r\n        );\r\n    }\r\n\r\n    function _requireCallerIsBOorTroveMorSP() internal view {\r\n        require(\r\n            msg.sender == borrowerOperationsAddress ||\r\n                msg.sender == troveManagerAddress ||\r\n                msg.sender == stabilityPoolAddress,\r\n            \"ActivePool: Caller is neither BorrowerOperations nor TroveManager nor StabilityPool\"\r\n        );\r\n    }\r\n\r\n    function _requireCallerIsBOorTroveM() internal view {\r\n        require(\r\n            msg.sender == borrowerOperationsAddress ||\r\n                msg.sender == troveManagerAddress,\r\n            \"ActivePool: Caller is neither BorrowerOperations nor TroveManager\"\r\n        );\r\n    }\r\n\r\n    // --- Fallback function ---\r\n\r\n    receive() external payable {\r\n        _requireCallerIsBorrowerOperationsOrDefaultPool();\r\n        ETH = ETH.add(msg.value);\r\n    }\r\n}\r\n",
  "sourcePath": "C:/Users/danie/code/harp/client/src/contracts/ActivePool.sol",
  "compiler": {
    "name": "solc",
    "version": "0.7.6+commit.7338295f.Emscripten.clang"
  },
  "schemaVersion": "3.3.3",
  "updatedAt": "2021-02-19T17:49:41.826Z",
  "devdoc": {
    "kind": "dev",
    "methods": {
      "isOwner()": {
        "details": "Returns true if the caller is the current owner."
      },
      "owner()": {
        "details": "Returns the address of the current owner."
      }
    },
    "version": 1
  },
  "userdoc": {
    "kind": "user",
    "methods": {},
    "version": 1
  }
}