{
  "contractName": "BaseMath",
  "abi": [
    {
      "inputs": [],
      "name": "DECIMAL_PRECISION",
      "outputs": [
        {
          "internalType": "uint256",
          "name": "",
          "type": "uint256"
        }
      ],
      "stateMutability": "view",
      "type": "function"
    }
  ],
  "bytecode": "0x6080604052348015600f57600080fd5b50608b8061001e6000396000f3fe6080604052348015600f57600080fd5b506004361060285760003560e01c8063a20baee614602d575b600080fd5b60336049565b6040518082815260200191505060405180910390f35b670de0b6b3a76400008156fea2646970667358221220d3e218de4a125fe7f1a61e898262a861066da5700a2d8d5dffcc05a9658e33fb64736f6c634300060b0033",
  "immutableReferences": {},
  "source": "// SPDX-License-Identifier: MIT\r\npragma solidity >=0.6.0 <0.8.0;\r\n\r\ncontract BaseMath {\r\n    uint256 public constant DECIMAL_PRECISION = 1e18;\r\n}\r\n",
  "sourcePath": "C:\\Users\\danie\\code\\harp\\client\\contracts\\Dependencies\\BaseMath.sol",
  "compiler": {
    "name": "solc",
    "version": "0.6.11+commit.5ef660b1.Emscripten.clang"
  },
  "schemaVersion": "3.4.0",
  "updatedAt": "2021-04-24T01:30:16.383Z",
  "devdoc": {
    "kind": "dev",
    "methods": {},
    "version": 1
  },
  "userdoc": {
    "kind": "user",
    "methods": {},
    "version": 1
  }
}