{
  "contractName": "BaseMath",
  "abi": [
    {
      "inputs": [],
      "name": "DECIMAL_PRECISION",
      "outputs": [
        {
          "internalType": "uint256",
          "name": "",
          "type": "uint256"
        }
      ],
      "stateMutability": "view",
      "type": "function"
    }
  ],
  "bytecode": "0x6080604052348015600f57600080fd5b50608b8061001e6000396000f3fe6080604052348015600f57600080fd5b506004361060285760003560e01c8063a20baee614602d575b600080fd5b60336049565b6040518082815260200191505060405180910390f35b670de0b6b3a76400008156fea2646970667358221220c9ea4e54046b581858571b65cc7111e1b53131929d7c4a3698010c6d7d1f925464736f6c63430007060033",
  "immutableReferences": {},
  "source": "// SPDX-License-Identifier: MIT\npragma solidity >=0.6.0 <0.8.0;\n\ncontract BaseMath {\n    uint256 public constant DECIMAL_PRECISION = 1e18;\n}\n",
  "sourcePath": "/Users/dannywarrick/code/harp/client/src/contracts/Dependencies/BaseMath.sol",
  "compiler": {
    "name": "solc",
    "version": "0.7.6+commit.7338295f.Emscripten.clang"
  },
  "schemaVersion": "3.3.4",
  "updatedAt": "2021-03-28T17:58:06.749Z",
  "devdoc": {
    "kind": "dev",
    "methods": {},
    "version": 1
  },
  "userdoc": {
    "kind": "user",
    "methods": {},
    "version": 1
  }
}