{
  "contractName": "BorrowerOperations",
  "abi": [
    {
      "anonymous": false,
      "inputs": [
        {
          "indexed": false,
          "internalType": "address",
          "name": "_activePoolAddress",
          "type": "address"
        }
      ],
      "name": "ActivePoolAddressChanged",
      "type": "event"
    },
    {
      "anonymous": false,
      "inputs": [
        {
          "indexed": false,
          "internalType": "address",
          "name": "_collSurplusPoolAddress",
          "type": "address"
        }
      ],
      "name": "CollSurplusPoolAddressChanged",
      "type": "event"
    },
    {
      "anonymous": false,
      "inputs": [
        {
          "indexed": false,
          "internalType": "address",
          "name": "_defaultPoolAddress",
          "type": "address"
        }
      ],
      "name": "DefaultPoolAddressChanged",
      "type": "event"
    },
    {
      "anonymous": false,
      "inputs": [
        {
          "indexed": false,
          "internalType": "address",
          "name": "_gasPoolAddress",
          "type": "address"
        }
      ],
      "name": "GasPoolAddressChanged",
      "type": "event"
    },
    {
      "anonymous": false,
      "inputs": [
        {
          "indexed": false,
          "internalType": "address",
          "name": "_lqtyStakingAddress",
          "type": "address"
        }
      ],
      "name": "LQTYStakingAddressChanged",
      "type": "event"
    },
    {
      "anonymous": false,
      "inputs": [
        {
          "indexed": true,
          "internalType": "address",
          "name": "_borrower",
          "type": "address"
        },
        {
          "indexed": false,
          "internalType": "uint256",
          "name": "_LUSDFee",
          "type": "uint256"
        }
      ],
      "name": "LUSDBorrowingFeePaid",
      "type": "event"
    },
    {
      "anonymous": false,
      "inputs": [
        {
          "indexed": false,
          "internalType": "address",
          "name": "_lusdTokenAddress",
          "type": "address"
        }
      ],
      "name": "LUSDTokenAddressChanged",
      "type": "event"
    },
    {
      "anonymous": false,
      "inputs": [
        {
          "indexed": true,
          "internalType": "address",
          "name": "previousOwner",
          "type": "address"
        },
        {
          "indexed": true,
          "internalType": "address",
          "name": "newOwner",
          "type": "address"
        }
      ],
      "name": "OwnershipTransferred",
      "type": "event"
    },
    {
      "anonymous": false,
      "inputs": [
        {
          "indexed": false,
          "internalType": "address",
          "name": "_newPriceFeedAddress",
          "type": "address"
        }
      ],
      "name": "PriceFeedAddressChanged",
      "type": "event"
    },
    {
      "anonymous": false,
      "inputs": [
        {
          "indexed": false,
          "internalType": "address",
          "name": "_sortedTrovesAddress",
          "type": "address"
        }
      ],
      "name": "SortedTrovesAddressChanged",
      "type": "event"
    },
    {
      "anonymous": false,
      "inputs": [
        {
          "indexed": false,
          "internalType": "address",
          "name": "_stabilityPoolAddress",
          "type": "address"
        }
      ],
      "name": "StabilityPoolAddressChanged",
      "type": "event"
    },
    {
      "anonymous": false,
      "inputs": [
        {
          "indexed": true,
          "internalType": "address",
          "name": "_borrower",
          "type": "address"
        },
        {
          "indexed": false,
          "internalType": "uint256",
          "name": "arrayIndex",
          "type": "uint256"
        }
      ],
      "name": "TroveCreated",
      "type": "event"
    },
    {
      "anonymous": false,
      "inputs": [
        {
          "indexed": false,
          "internalType": "address",
          "name": "_newTroveManagerAddress",
          "type": "address"
        }
      ],
      "name": "TroveManagerAddressChanged",
      "type": "event"
    },
    {
      "anonymous": false,
      "inputs": [
        {
          "indexed": true,
          "internalType": "address",
          "name": "_borrower",
          "type": "address"
        },
        {
          "indexed": false,
          "internalType": "uint256",
          "name": "_debt",
          "type": "uint256"
        },
        {
          "indexed": false,
          "internalType": "uint256",
          "name": "_coll",
          "type": "uint256"
        },
        {
          "indexed": false,
          "internalType": "uint256",
          "name": "stake",
          "type": "uint256"
        },
        {
          "indexed": false,
          "internalType": "enum BorrowerOperations.BorrowerOperation",
          "name": "operation",
          "type": "uint8"
        }
      ],
      "name": "TroveUpdated",
      "type": "event"
    },
    {
      "inputs": [],
      "name": "CCR",
      "outputs": [
        {
          "internalType": "uint256",
          "name": "",
          "type": "uint256"
        }
      ],
      "stateMutability": "view",
      "type": "function"
    },
    {
      "inputs": [],
      "name": "DECIMAL_PRECISION",
      "outputs": [
        {
          "internalType": "uint256",
          "name": "",
          "type": "uint256"
        }
      ],
      "stateMutability": "view",
      "type": "function"
    },
    {
      "inputs": [],
      "name": "LUSD_GAS_COMPENSATION",
      "outputs": [
        {
          "internalType": "uint256",
          "name": "",
          "type": "uint256"
        }
      ],
      "stateMutability": "view",
      "type": "function"
    },
    {
      "inputs": [],
      "name": "MCR",
      "outputs": [
        {
          "internalType": "uint256",
          "name": "",
          "type": "uint256"
        }
      ],
      "stateMutability": "view",
      "type": "function"
    },
    {
      "inputs": [],
      "name": "PERCENT_DIVISOR",
      "outputs": [
        {
          "internalType": "uint256",
          "name": "",
          "type": "uint256"
        }
      ],
      "stateMutability": "view",
      "type": "function"
    },
    {
      "inputs": [],
      "name": "_100pct",
      "outputs": [
        {
          "internalType": "uint256",
          "name": "",
          "type": "uint256"
        }
      ],
      "stateMutability": "view",
      "type": "function"
    },
    {
      "inputs": [],
      "name": "activePool",
      "outputs": [
        {
          "internalType": "contract IActivePool",
          "name": "",
          "type": "address"
        }
      ],
      "stateMutability": "view",
      "type": "function"
    },
    {
      "inputs": [],
      "name": "defaultPool",
      "outputs": [
        {
          "internalType": "contract IDefaultPool",
          "name": "",
          "type": "address"
        }
      ],
      "stateMutability": "view",
      "type": "function"
    },
    {
      "inputs": [],
      "name": "getEntireSystemColl",
      "outputs": [
        {
          "internalType": "uint256",
          "name": "entireSystemColl",
          "type": "uint256"
        }
      ],
      "stateMutability": "view",
      "type": "function"
    },
    {
      "inputs": [],
      "name": "getEntireSystemDebt",
      "outputs": [
        {
          "internalType": "uint256",
          "name": "entireSystemDebt",
          "type": "uint256"
        }
      ],
      "stateMutability": "view",
      "type": "function"
    },
    {
      "inputs": [],
      "name": "isOwner",
      "outputs": [
        {
          "internalType": "bool",
          "name": "",
          "type": "bool"
        }
      ],
      "stateMutability": "view",
      "type": "function"
    },
    {
      "inputs": [],
      "name": "lqtyStaking",
      "outputs": [
        {
          "internalType": "contract ILQTYStaking",
          "name": "",
          "type": "address"
        }
      ],
      "stateMutability": "view",
      "type": "function"
    },
    {
      "inputs": [],
      "name": "lqtyStakingAddress",
      "outputs": [
        {
          "internalType": "address",
          "name": "",
          "type": "address"
        }
      ],
      "stateMutability": "view",
      "type": "function"
    },
    {
      "inputs": [],
      "name": "lusdToken",
      "outputs": [
        {
          "internalType": "contract ILUSDToken",
          "name": "",
          "type": "address"
        }
      ],
      "stateMutability": "view",
      "type": "function"
    },
    {
      "inputs": [],
      "name": "owner",
      "outputs": [
        {
          "internalType": "address",
          "name": "",
          "type": "address"
        }
      ],
      "stateMutability": "view",
      "type": "function"
    },
    {
      "inputs": [],
      "name": "priceFeed",
      "outputs": [
        {
          "internalType": "contract IPriceFeed",
          "name": "",
          "type": "address"
        }
      ],
      "stateMutability": "view",
      "type": "function"
    },
    {
      "inputs": [],
      "name": "sortedTroves",
      "outputs": [
        {
          "internalType": "contract ISortedTroves",
          "name": "",
          "type": "address"
        }
      ],
      "stateMutability": "view",
      "type": "function"
    },
    {
      "inputs": [],
      "name": "troveManager",
      "outputs": [
        {
          "internalType": "contract ITroveManager",
          "name": "",
          "type": "address"
        }
      ],
      "stateMutability": "view",
      "type": "function"
    },
    {
      "inputs": [
        {
          "internalType": "address",
          "name": "_troveManagerAddress",
          "type": "address"
        },
        {
          "internalType": "address",
          "name": "_activePoolAddress",
          "type": "address"
        },
        {
          "internalType": "address",
          "name": "_defaultPoolAddress",
          "type": "address"
        },
        {
          "internalType": "address",
          "name": "_stabilityPoolAddress",
          "type": "address"
        },
        {
          "internalType": "address",
          "name": "_gasPoolAddress",
          "type": "address"
        },
        {
          "internalType": "address",
          "name": "_collSurplusPoolAddress",
          "type": "address"
        },
        {
          "internalType": "address",
          "name": "_priceFeedAddress",
          "type": "address"
        },
        {
          "internalType": "address",
          "name": "_sortedTrovesAddress",
          "type": "address"
        },
        {
          "internalType": "address",
          "name": "_lusdTokenAddress",
          "type": "address"
        },
        {
          "internalType": "address",
          "name": "_lqtyStakingAddress",
          "type": "address"
        }
      ],
      "name": "setAddresses",
      "outputs": [],
      "stateMutability": "nonpayable",
      "type": "function"
    },
    {
      "inputs": [
        {
          "internalType": "uint256",
          "name": "_maxFeePercentage",
          "type": "uint256"
        },
        {
          "internalType": "uint256",
          "name": "_LUSDAmount",
          "type": "uint256"
        },
        {
          "internalType": "address",
          "name": "_upperHint",
          "type": "address"
        },
        {
          "internalType": "address",
          "name": "_lowerHint",
          "type": "address"
        }
      ],
      "name": "openTrove",
      "outputs": [],
      "stateMutability": "payable",
      "type": "function"
    },
    {
      "inputs": [
        {
          "internalType": "address",
          "name": "_upperHint",
          "type": "address"
        },
        {
          "internalType": "address",
          "name": "_lowerHint",
          "type": "address"
        }
      ],
      "name": "addColl",
      "outputs": [],
      "stateMutability": "payable",
      "type": "function"
    },
    {
      "inputs": [
        {
          "internalType": "address",
          "name": "_borrower",
          "type": "address"
        },
        {
          "internalType": "address",
          "name": "_upperHint",
          "type": "address"
        },
        {
          "internalType": "address",
          "name": "_lowerHint",
          "type": "address"
        }
      ],
      "name": "moveETHGainToTrove",
      "outputs": [],
      "stateMutability": "payable",
      "type": "function"
    },
    {
      "inputs": [
        {
          "internalType": "uint256",
          "name": "_collWithdrawal",
          "type": "uint256"
        },
        {
          "internalType": "address",
          "name": "_upperHint",
          "type": "address"
        },
        {
          "internalType": "address",
          "name": "_lowerHint",
          "type": "address"
        }
      ],
      "name": "withdrawColl",
      "outputs": [],
      "stateMutability": "nonpayable",
      "type": "function"
    },
    {
      "inputs": [
        {
          "internalType": "uint256",
          "name": "_maxFeePercentage",
          "type": "uint256"
        },
        {
          "internalType": "uint256",
          "name": "_LUSDAmount",
          "type": "uint256"
        },
        {
          "internalType": "address",
          "name": "_upperHint",
          "type": "address"
        },
        {
          "internalType": "address",
          "name": "_lowerHint",
          "type": "address"
        }
      ],
      "name": "withdrawLUSD",
      "outputs": [],
      "stateMutability": "nonpayable",
      "type": "function"
    },
    {
      "inputs": [
        {
          "internalType": "uint256",
          "name": "_LUSDAmount",
          "type": "uint256"
        },
        {
          "internalType": "address",
          "name": "_upperHint",
          "type": "address"
        },
        {
          "internalType": "address",
          "name": "_lowerHint",
          "type": "address"
        }
      ],
      "name": "repayLUSD",
      "outputs": [],
      "stateMutability": "nonpayable",
      "type": "function"
    },
    {
      "inputs": [
        {
          "internalType": "uint256",
          "name": "_maxFeePercentage",
          "type": "uint256"
        },
        {
          "internalType": "uint256",
          "name": "_collWithdrawal",
          "type": "uint256"
        },
        {
          "internalType": "uint256",
          "name": "_debtChange",
          "type": "uint256"
        },
        {
          "internalType": "bool",
          "name": "_isDebtIncrease",
          "type": "bool"
        },
        {
          "internalType": "address",
          "name": "_upperHint",
          "type": "address"
        },
        {
          "internalType": "address",
          "name": "_lowerHint",
          "type": "address"
        }
      ],
      "name": "adjustTrove",
      "outputs": [],
      "stateMutability": "payable",
      "type": "function"
    },
    {
      "inputs": [],
      "name": "closeTrove",
      "outputs": [],
      "stateMutability": "nonpayable",
      "type": "function"
    },
    {
      "inputs": [],
      "name": "claimCollateral",
      "outputs": [],
      "stateMutability": "nonpayable",
      "type": "function"
    },
    {
      "inputs": [
        {
          "internalType": "uint256",
          "name": "_debt",
          "type": "uint256"
        }
      ],
      "name": "getCompositeDebt",
      "outputs": [
        {
          "internalType": "uint256",
          "name": "",
          "type": "uint256"
        }
      ],
      "stateMutability": "pure",
      "type": "function"
    }
  ],
  "bytecode": "0x608060405234801561001057600080fd5b5033600360006101000a81548173ffffffffffffffffffffffffffffffffffffffff021916908373ffffffffffffffffffffffffffffffffffffffff1602179055503373ffffffffffffffffffffffffffffffffffffffff16600073ffffffffffffffffffffffffffffffffffffffff167f8be0079c531659141344cd1fd0a4f28419497f9722a3daafe3b4186f6b6457e060405160405180910390a3614c9f806100bc6000396000f3fe6080604052600436106101c25760003560e01c8063741bef1a116100f75780638da5cb5b11610095578063ae91875411610064578063ae91875414610959578063b83f91a21461099a578063c6a6cf20146109db578063ea9638bf14610a69576101c2565b80638da5cb5b1461087f5780638f32d59b146108c0578063a20baee6146108ed578063a3a6401714610918576101c2565b8063795d26c3116100d1578063795d26c3146107705780637f7dde4a1461079b578063860665b3146107dc578063887105d314610854576101c2565b8063741bef1a146106c3578063761ab22c14610704578063794e572414610745576101c2565b80634ff814431161016457806368647db11161013e57806368647db1146104ab5780636c37a4af1461050f5780636f0b0c1c1461068157806372fe25aa14610698576101c2565b80634ff81443146103b65780635530273c146104055780635733d58f14610480576101c2565b80632e86bbd8116101a05780632e86bbd8146102de5780633cc74225146103095780633d83908a1461034a5780634870dd9a1461038b576101c2565b806304491fa7146101c75780630e704d50146102425780631184e5f814610259575b600080fd5b3480156101d357600080fd5b50610240600480360360608110156101ea57600080fd5b8101908080359060200190929190803573ffffffffffffffffffffffffffffffffffffffff169060200190929190803573ffffffffffffffffffffffffffffffffffffffff169060200190929190505050610aed565b005b34801561024e57600080fd5b50610257610b04565b005b34801561026557600080fd5b506102dc6004803603608081101561027c57600080fd5b810190808035906020019092919080359060200190929190803573ffffffffffffffffffffffffffffffffffffffff169060200190929190803573ffffffffffffffffffffffffffffffffffffffff16906020019092919050505061108c565b005b3480156102ea57600080fd5b506102f36110a3565b6040518082815260200191505060405180910390f35b34801561031557600080fd5b5061031e6110b0565b604051808273ffffffffffffffffffffffffffffffffffffffff16815260200191505060405180910390f35b34801561035657600080fd5b5061035f6110d6565b604051808273ffffffffffffffffffffffffffffffffffffffff16815260200191505060405180910390f35b34801561039757600080fd5b506103a06110fc565b6040518082815260200191505060405180910390f35b3480156103c257600080fd5b506103ef600480360360208110156103d957600080fd5b8101908080359060200190929190505050611101565b6040518082815260200191505060405180910390f35b34801561041157600080fd5b5061047e6004803603606081101561042857600080fd5b8101908080359060200190929190803573ffffffffffffffffffffffffffffffffffffffff169060200190929190803573ffffffffffffffffffffffffffffffffffffffff169060200190929190505050611113565b005b34801561048c57600080fd5b50610495611129565b6040518082815260200191505060405180910390f35b61050d600480360360408110156104c157600080fd5b81019080803573ffffffffffffffffffffffffffffffffffffffff169060200190929190803573ffffffffffffffffffffffffffffffffffffffff169060200190929190505050611135565b005b34801561051b57600080fd5b5061067f600480360361014081101561053357600080fd5b81019080803573ffffffffffffffffffffffffffffffffffffffff169060200190929190803573ffffffffffffffffffffffffffffffffffffffff169060200190929190803573ffffffffffffffffffffffffffffffffffffffff169060200190929190803573ffffffffffffffffffffffffffffffffffffffff169060200190929190803573ffffffffffffffffffffffffffffffffffffffff169060200190929190803573ffffffffffffffffffffffffffffffffffffffff169060200190929190803573ffffffffffffffffffffffffffffffffffffffff169060200190929190803573ffffffffffffffffffffffffffffffffffffffff169060200190929190803573ffffffffffffffffffffffffffffffffffffffff169060200190929190803573ffffffffffffffffffffffffffffffffffffffff16906020019092919050505061114b565b005b34801561068d57600080fd5b506106966117ff565b005b3480156106a457600080fd5b506106ad6118a4565b6040518082815260200191505060405180910390f35b3480156106cf57600080fd5b506106d86118b0565b604051808273ffffffffffffffffffffffffffffffffffffffff16815260200191505060405180910390f35b34801561071057600080fd5b506107196118d6565b604051808273ffffffffffffffffffffffffffffffffffffffff16815260200191505060405180910390f35b34801561075157600080fd5b5061075a6118fc565b6040518082815260200191505060405180910390f35b34801561077c57600080fd5b50610785611908565b6040518082815260200191505060405180910390f35b3480156107a757600080fd5b506107b0611a6f565b604051808273ffffffffffffffffffffffffffffffffffffffff16815260200191505060405180910390f35b610852600480360360808110156107f257600080fd5b810190808035906020019092919080359060200190929190803573ffffffffffffffffffffffffffffffffffffffff169060200190929190803573ffffffffffffffffffffffffffffffffffffffff169060200190929190505050611a93565b005b34801561086057600080fd5b506108696123a5565b6040518082815260200191505060405180910390f35b34801561088b57600080fd5b5061089461250c565b604051808273ffffffffffffffffffffffffffffffffffffffff16815260200191505060405180910390f35b3480156108cc57600080fd5b506108d5612536565b60405180821515815260200191505060405180910390f35b3480156108f957600080fd5b5061090261258e565b6040518082815260200191505060405180910390f35b34801561092457600080fd5b5061092d61259a565b604051808273ffffffffffffffffffffffffffffffffffffffff16815260200191505060405180910390f35b34801561096557600080fd5b5061096e6125c0565b604051808273ffffffffffffffffffffffffffffffffffffffff16815260200191505060405180910390f35b3480156109a657600080fd5b506109af6125e6565b604051808273ffffffffffffffffffffffffffffffffffffffff16815260200191505060405180910390f35b610a67600480360360c08110156109f157600080fd5b81019080803590602001909291908035906020019092919080359060200190929190803515159060200190929190803573ffffffffffffffffffffffffffffffffffffffff169060200190929190803573ffffffffffffffffffffffffffffffffffffffff16906020019092919050505061260c565b005b610aeb60048036036060811015610a7f57600080fd5b81019080803573ffffffffffffffffffffffffffffffffffffffff169060200190929190803573ffffffffffffffffffffffffffffffffffffffff169060200190929190803573ffffffffffffffffffffffffffffffffffffffff169060200190929190505050612623565b005b610aff33600085600086866000612642565b505050565b6000600460009054906101000a900473ffffffffffffffffffffffffffffffffffffffff16905060008060009054906101000a900473ffffffffffffffffffffffffffffffffffffffff1690506000600a60009054906101000a900473ffffffffffffffffffffffffffffffffffffffff169050610b828333612e50565b6000600260009054906101000a900473ffffffffffffffffffffffffffffffffffffffff1673ffffffffffffffffffffffffffffffffffffffff16630fdb11cf6040518163ffffffff1660e01b8152600401602060405180830381600087803b158015610bee57600080fd5b505af1158015610c02573d6000803e3d6000fd5b505050506040513d6020811015610c1857600080fd5b81019080805190602001909291905050509050610c3481612f54565b8373ffffffffffffffffffffffffffffffffffffffff16630b076557336040518263ffffffff1660e01b8152600401808273ffffffffffffffffffffffffffffffffffffffff168152602001915050600060405180830381600087803b158015610c9d57600080fd5b505af1158015610cb1573d6000803e3d6000fd5b5050505060008473ffffffffffffffffffffffffffffffffffffffff1663480cd578336040518263ffffffff1660e01b8152600401808273ffffffffffffffffffffffffffffffffffffffff16815260200191505060206040518083038186803b158015610d1e57600080fd5b505afa158015610d32573d6000803e3d6000fd5b505050506040513d6020811015610d4857600080fd5b8101908080519060200190929190505050905060008573ffffffffffffffffffffffffffffffffffffffff1663d66a2553336040518263ffffffff1660e01b8152600401808273ffffffffffffffffffffffffffffffffffffffff16815260200191505060206040518083038186803b158015610dc457600080fd5b505afa158015610dd8573d6000803e3d6000fd5b505050506040513d6020811015610dee57600080fd5b81019080805190602001909291905050509050610e278433610e226802b5e3af16b188000085612fb690919063ffffffff16565b613000565b8573ffffffffffffffffffffffffffffffffffffffff1663fe2ba848336040518263ffffffff1660e01b8152600401808273ffffffffffffffffffffffffffffffffffffffff168152602001915050600060405180830381600087803b158015610e9057600080fd5b505af1158015610ea4573d6000803e3d6000fd5b505050508573ffffffffffffffffffffffffffffffffffffffff1663cbd138ae336040518263ffffffff1660e01b8152600401808273ffffffffffffffffffffffffffffffffffffffff168152602001915050600060405180830381600087803b158015610f1157600080fd5b505af1158015610f25573d6000803e3d6000fd5b505050503373ffffffffffffffffffffffffffffffffffffffff167fc3770d654ed33aeea6bf11ac8ef05d02a6a04ed4686dd2f624d853bbec43cc8b6000806000600160405180858152602001848152602001838152602001826006811115610f8a57fe5b815260200194505050505060405180910390a2610fc4858533610fbf6802b5e3af16b188000086612fb690919063ffffffff16565b6130ff565b610ffb8585600660009054906101000a900473ffffffffffffffffffffffffffffffffffffffff166802b5e3af16b18800006130ff565b8473ffffffffffffffffffffffffffffffffffffffff166364a197f333846040518363ffffffff1660e01b8152600401808373ffffffffffffffffffffffffffffffffffffffff16815260200182815260200192505050600060405180830381600087803b15801561106c57600080fd5b505af1158015611080573d6000803e3d6000fd5b50505050505050505050565b61109d33600085600186868a612642565b50505050565b6802b5e3af16b188000081565b600160009054906101000a900473ffffffffffffffffffffffffffffffffffffffff1681565b600460009054906101000a900473ffffffffffffffffffffffffffffffffffffffff1681565b60c881565b600061110c826131f9565b9050919050565b611124338460008086866000612642565b505050565b6714d1120d7b16000081565b61114733600080600086866000612642565b5050565b611153612536565b6111c5576040517f08c379a00000000000000000000000000000000000000000000000000000000081526004018080602001828103825260208152602001807f4f776e61626c653a2063616c6c6572206973206e6f7420746865206f776e657281525060200191505060405180910390fd5b6111ce8a61321e565b6111d78961321e565b6111e08861321e565b6111e98761321e565b6111f28661321e565b6111fb8561321e565b6112048461321e565b61120d8361321e565b6112168261321e565b61121f8161321e565b89600460006101000a81548173ffffffffffffffffffffffffffffffffffffffff021916908373ffffffffffffffffffffffffffffffffffffffff160217905550886000806101000a81548173ffffffffffffffffffffffffffffffffffffffff021916908373ffffffffffffffffffffffffffffffffffffffff16021790555087600160006101000a81548173ffffffffffffffffffffffffffffffffffffffff021916908373ffffffffffffffffffffffffffffffffffffffff16021790555086600560006101000a81548173ffffffffffffffffffffffffffffffffffffffff021916908373ffffffffffffffffffffffffffffffffffffffff16021790555085600660006101000a81548173ffffffffffffffffffffffffffffffffffffffff021916908373ffffffffffffffffffffffffffffffffffffffff16021790555084600760006101000a81548173ffffffffffffffffffffffffffffffffffffffff021916908373ffffffffffffffffffffffffffffffffffffffff16021790555083600260006101000a81548173ffffffffffffffffffffffffffffffffffffffff021916908373ffffffffffffffffffffffffffffffffffffffff16021790555082600b60006101000a81548173ffffffffffffffffffffffffffffffffffffffff021916908373ffffffffffffffffffffffffffffffffffffffff16021790555081600a60006101000a81548173ffffffffffffffffffffffffffffffffffffffff021916908373ffffffffffffffffffffffffffffffffffffffff16021790555080600960006101000a81548173ffffffffffffffffffffffffffffffffffffffff021916908373ffffffffffffffffffffffffffffffffffffffff16021790555080600860006101000a81548173ffffffffffffffffffffffffffffffffffffffff021916908373ffffffffffffffffffffffffffffffffffffffff1602179055507f143219c9e69b09e07e095fcc889b43d8f46ca892bba65f08dc3a0050869a56788a604051808273ffffffffffffffffffffffffffffffffffffffff16815260200191505060405180910390a17f78f058b189175430c48dc02699e3a0031ea4ff781536dc2fab847de4babdd88289604051808273ffffffffffffffffffffffffffffffffffffffff16815260200191505060405180910390a17f5ee0cae2f063ed938bb55046f6a932fb6ae792bf43624806bb90abe68a50be9b88604051808273ffffffffffffffffffffffffffffffffffffffff16815260200191505060405180910390a17f82966d27eea39b038ee0fa30cd16532bb24f6e65d31cb58fb227aa5766cdcc7f87604051808273ffffffffffffffffffffffffffffffffffffffff16815260200191505060405180910390a17fcfb07d791fcafc032b35837b50eb84b74df518cf4cc287e8084f47630fa70fa086604051808273ffffffffffffffffffffffffffffffffffffffff16815260200191505060405180910390a17fe67f36a6e961157d6eff83b91f3af5a62131ceb6f04954ef74f51c1c05e7f88d85604051808273ffffffffffffffffffffffffffffffffffffffff16815260200191505060405180910390a17f8c537274438aa850a330284665d81a85dd38267d09e4050d416bfc94142db26484604051808273ffffffffffffffffffffffffffffffffffffffff16815260200191505060405180910390a17f65f4cf077bc01e4742eb5ad98326f6e95b63548ea24b17f8d5e823111fe7880083604051808273ffffffffffffffffffffffffffffffffffffffff16815260200191505060405180910390a17f227eec0ec317af6ab1a9587ffa1c84332522eb4c583a908f89babc05f8f339bd82604051808273ffffffffffffffffffffffffffffffffffffffff16815260200191505060405180910390a17f756ebc192164c295bba134b5aacd72cc7aff8098a670d1f0a5f6b3a0b4ce670781604051808273ffffffffffffffffffffffffffffffffffffffff16815260200191505060405180910390a16117f3613341565b50505050505050505050565b600760009054906101000a900473ffffffffffffffffffffffffffffffffffffffff1673ffffffffffffffffffffffffffffffffffffffff1663b32beb5b336040518263ffffffff1660e01b8152600401808273ffffffffffffffffffffffffffffffffffffffff168152602001915050600060405180830381600087803b15801561188a57600080fd5b505af115801561189e573d6000803e3d6000fd5b50505050565b670de0b6b3a764000081565b600260009054906101000a900473ffffffffffffffffffffffffffffffffffffffff1681565b600960009054906101000a900473ffffffffffffffffffffffffffffffffffffffff1681565b670f43fc2c04ee000081565b60008060008054906101000a900473ffffffffffffffffffffffffffffffffffffffff1673ffffffffffffffffffffffffffffffffffffffff16635eb52fca6040518163ffffffff1660e01b815260040160206040518083038186803b15801561197157600080fd5b505afa158015611985573d6000803e3d6000fd5b505050506040513d602081101561199b57600080fd5b810190808051906020019092919050505090506000600160009054906101000a900473ffffffffffffffffffffffffffffffffffffffff1673ffffffffffffffffffffffffffffffffffffffff16635eb52fca6040518163ffffffff1660e01b815260040160206040518083038186803b158015611a1857600080fd5b505afa158015611a2c573d6000803e3d6000fd5b505050506040513d6020811015611a4257600080fd5b81019080805190602001909291905050509050611a68818361340290919063ffffffff16565b9250505090565b60008054906101000a900473ffffffffffffffffffffffffffffffffffffffff1681565b60006040518060600160405280600460009054906101000a900473ffffffffffffffffffffffffffffffffffffffff1673ffffffffffffffffffffffffffffffffffffffff16815260200160008054906101000a900473ffffffffffffffffffffffffffffffffffffffff1673ffffffffffffffffffffffffffffffffffffffff168152602001600a60009054906101000a900473ffffffffffffffffffffffffffffffffffffffff1673ffffffffffffffffffffffffffffffffffffffff168152509050611b6061483d565b6000851115611b7357611b728661348a565b5b611b81826000015133613501565b600260009054906101000a900473ffffffffffffffffffffffffffffffffffffffff1673ffffffffffffffffffffffffffffffffffffffff16630fdb11cf6040518163ffffffff1660e01b8152600401602060405180830381600087803b158015611beb57600080fd5b505af1158015611bff573d6000803e3d6000fd5b505050506040513d6020811015611c1557600080fd5b8101908080519060200190929190505050816000018181525050806020015150848160400181815250506000611c4e8260000151613623565b905080158015611c5e5750600086115b15611ca557611c7783600001518460400151888a613644565b826020018181525050611c9b8260200151836040015161340290919063ffffffff16565b8260400181815250505b611cb282604001516131f9565b8260600181815250506000826060015111611cc957fe5b611cdc3483606001518460000151613885565b826080018181525050611cf33483606001516138ec565b8260a00181815250508015611d1457611d0f8260800151613955565b611d47565b611d2182608001516139b9565b6000611d3a346001856060015160018760000151613a1d565b9050611d4581613aba565b505b826000015173ffffffffffffffffffffffffffffffffffffffff16635d6b480f3360016040518363ffffffff1660e01b8152600401808373ffffffffffffffffffffffffffffffffffffffff16815260200182815260200192505050600060405180830381600087803b158015611dbd57600080fd5b505af1158015611dd1573d6000803e3d6000fd5b50505050826000015173ffffffffffffffffffffffffffffffffffffffff166372423c1733346040518363ffffffff1660e01b8152600401808373ffffffffffffffffffffffffffffffffffffffff16815260200182815260200192505050602060405180830381600087803b158015611e4a57600080fd5b505af1158015611e5e573d6000803e3d6000fd5b505050506040513d6020811015611e7457600080fd5b810190808051906020019092919050505050826000015173ffffffffffffffffffffffffffffffffffffffff16639976cf453384606001516040518363ffffffff1660e01b8152600401808373ffffffffffffffffffffffffffffffffffffffff16815260200182815260200192505050602060405180830381600087803b158015611eff57600080fd5b505af1158015611f13573d6000803e3d6000fd5b505050506040513d6020811015611f2957600080fd5b810190808051906020019092919050505050826000015173ffffffffffffffffffffffffffffffffffffffff166382fe3eb9336040518263ffffffff1660e01b8152600401808273ffffffffffffffffffffffffffffffffffffffff168152602001915050600060405180830381600087803b158015611fa857600080fd5b505af1158015611fbc573d6000803e3d6000fd5b50505050826000015173ffffffffffffffffffffffffffffffffffffffff166318f2817a336040518263ffffffff1660e01b8152600401808273ffffffffffffffffffffffffffffffffffffffff168152602001915050602060405180830381600087803b15801561202d57600080fd5b505af1158015612041573d6000803e3d6000fd5b505050506040513d602081101561205757600080fd5b81019080805190602001909291905050508260c0018181525050600b60009054906101000a900473ffffffffffffffffffffffffffffffffffffffff1673ffffffffffffffffffffffffffffffffffffffff166346f7cf87338460a0015188886040518563ffffffff1660e01b8152600401808573ffffffffffffffffffffffffffffffffffffffff1681526020018481526020018373ffffffffffffffffffffffffffffffffffffffff1681526020018273ffffffffffffffffffffffffffffffffffffffff168152602001945050505050600060405180830381600087803b15801561214457600080fd5b505af1158015612158573d6000803e3d6000fd5b50505050826000015173ffffffffffffffffffffffffffffffffffffffff166315d549f1336040518263ffffffff1660e01b8152600401808273ffffffffffffffffffffffffffffffffffffffff168152602001915050602060405180830381600087803b1580156121c957600080fd5b505af11580156121dd573d6000803e3d6000fd5b505050506040513d60208110156121f357600080fd5b81019080805190602001909291905050508260e00181815250503373ffffffffffffffffffffffffffffffffffffffff167f59cfd0cd754bc5748b6770e94a4ffa5f678d885cb899dcfadc5734edb97c67ab8360e001516040518082815260200191505060405180910390a261226d836020015134613b1e565b60008611156122905761228f8360200151846040015133898660400151613be2565b5b6122d083602001518460400151600660009054906101000a900473ffffffffffffffffffffffffffffffffffffffff166802b5e3af16b188000080613be2565b3373ffffffffffffffffffffffffffffffffffffffff167fc3770d654ed33aeea6bf11ac8ef05d02a6a04ed4686dd2f624d853bbec43cc8b8360600151348560c0015160006040518085815260200184815260200183815260200182600681111561233757fe5b815260200194505050505060405180910390a23373ffffffffffffffffffffffffffffffffffffffff167fa55c5f48fd29482ad55f4b59bf070cd1ac1a7132a31f7a136ebe8877ae37e1ff83602001516040518082815260200191505060405180910390a250505050505050565b60008060008054906101000a900473ffffffffffffffffffffffffffffffffffffffff1673ffffffffffffffffffffffffffffffffffffffff166314f6c3be6040518163ffffffff1660e01b815260040160206040518083038186803b15801561240e57600080fd5b505afa158015612422573d6000803e3d6000fd5b505050506040513d602081101561243857600080fd5b810190808051906020019092919050505090506000600160009054906101000a900473ffffffffffffffffffffffffffffffffffffffff1673ffffffffffffffffffffffffffffffffffffffff166314f6c3be6040518163ffffffff1660e01b815260040160206040518083038186803b1580156124b557600080fd5b505afa1580156124c9573d6000803e3d6000fd5b505050506040513d60208110156124df57600080fd5b81019080805190602001909291905050509050612505818361340290919063ffffffff16565b9250505090565b6000600360009054906101000a900473ffffffffffffffffffffffffffffffffffffffff16905090565b6000600360009054906101000a900473ffffffffffffffffffffffffffffffffffffffff1673ffffffffffffffffffffffffffffffffffffffff163373ffffffffffffffffffffffffffffffffffffffff1614905090565b670de0b6b3a764000081565b600860009054906101000a900473ffffffffffffffffffffffffffffffffffffffff1681565b600b60009054906101000a900473ffffffffffffffffffffffffffffffffffffffff1681565b600a60009054906101000a900473ffffffffffffffffffffffffffffffffffffffff1681565b61261b3386868686868c612642565b505050505050565b61262b613cdd565b61263d83600080600086866000612642565b505050565b60006040518060600160405280600460009054906101000a900473ffffffffffffffffffffffffffffffffffffffff1673ffffffffffffffffffffffffffffffffffffffff16815260200160008054906101000a900473ffffffffffffffffffffffffffffffffffffffff1673ffffffffffffffffffffffffffffffffffffffff168152602001600a60009054906101000a900473ffffffffffffffffffffffffffffffffffffffff1673ffffffffffffffffffffffffffffffffffffffff1681525090508415612717576127168261348a565b5b61272087613d85565b61272a8787613dec565b612738816000015189612e50565b600080881415806127465750855b905080156127585761275789613e62565b5b612760614882565b600260009054906101000a900473ffffffffffffffffffffffffffffffffffffffff1673ffffffffffffffffffffffffffffffffffffffff16630fdb11cf6040518163ffffffff1660e01b8152600401602060405180830381600087803b1580156127ca57600080fd5b505af11580156127de573d6000803e3d6000fd5b505050506040513d60208110156127f457600080fd5b8101908080519060200190929190505050816000018181525050600061281d8260000151613623565b9050836000015173ffffffffffffffffffffffffffffffffffffffff16630b0765578c6040518263ffffffff1660e01b8152600401808273ffffffffffffffffffffffffffffffffffffffff168152602001915050600060405180830381600087803b15801561288c57600080fd5b505af11580156128a0573d6000803e3d6000fd5b505050506128ae348b613ee9565b83602001846060018215151515815250828152505050888260400181815250508715612927576128dd89613f0b565b80612926576128f6846000015185604001518b88613644565b8261010001818152505061291c826101000151836040015161340290919063ffffffff16565b8260400181815250505b5b836000015173ffffffffffffffffffffffffffffffffffffffff1663d66a25538c6040518263ffffffff1660e01b8152600401808273ffffffffffffffffffffffffffffffffffffffff16815260200191505060206040518083038186803b15801561299257600080fd5b505afa1580156129a6573d6000803e3d6000fd5b505050506040513d60208110156129bc57600080fd5b8101908080519060200190929190505050826080018181525050836000015173ffffffffffffffffffffffffffffffffffffffff1663480cd5788c6040518263ffffffff1660e01b8152600401808273ffffffffffffffffffffffffffffffffffffffff16815260200191505060206040518083038186803b158015612a4157600080fd5b505afa158015612a55573d6000803e3d6000fd5b505050506040513d6020811015612a6b57600080fd5b81019080805190602001909291905050508260a0018181525050612a9c8260a0015183608001518460000151613885565b8260c0018181525050612acc8260a0015183608001518460200151856060015186604001518d8860000151613f67565b8260e00181815250508215612b20578160a001518a1115612ae957fe5b6000612b088360200151846060015185604001518c8760000151613a1d565b9050612b1e828460c001518560e0015184613f9e565b505b87158015612b2e5750600089115b15612b5957612b4582608001518360400151613fcb565b612b5884604001518c8460400151613000565b5b612b7784600001518c8460200151856060015186604001518d614043565b8361014001846101200182815250828152505050836000015173ffffffffffffffffffffffffffffffffffffffff166318f2817a8c6040518263ffffffff1660e01b8152600401808273ffffffffffffffffffffffffffffffffffffffff168152602001915050602060405180830381600087803b158015612bf857600080fd5b505af1158015612c0c573d6000803e3d6000fd5b505050506040513d6020811015612c2257600080fd5b8101908080519060200190929190505050826101600181815250506000612c618360a0015184608001518560200151866060015187604001518e614327565b9050600b60009054906101000a900473ffffffffffffffffffffffffffffffffffffffff1673ffffffffffffffffffffffffffffffffffffffff16632be212608d838b8b6040518563ffffffff1660e01b8152600401808573ffffffffffffffffffffffffffffffffffffffff1681526020018481526020018373ffffffffffffffffffffffffffffffffffffffff1681526020018273ffffffffffffffffffffffffffffffffffffffff168152602001945050505050600060405180830381600087803b158015612d3257600080fd5b505af1158015612d46573d6000803e3d6000fd5b505050508b73ffffffffffffffffffffffffffffffffffffffff167fc3770d654ed33aeea6bf11ac8ef05d02a6a04ed4686dd2f624d853bbec43cc8b846101200151856101400151866101600151600660405180858152602001848152602001838152602001826006811115612db857fe5b815260200194505050505060405180910390a23373ffffffffffffffffffffffffffffffffffffffff167fa55c5f48fd29482ad55f4b59bf070cd1ac1a7132a31f7a136ebe8877ae37e1ff8461010001516040518082815260200191505060405180910390a2612e428560200151866040015133866020015187606001518f8f8a6040015161435c565b505050505050505050505050565b60008273ffffffffffffffffffffffffffffffffffffffff166321e37801836040518263ffffffff1660e01b8152600401808273ffffffffffffffffffffffffffffffffffffffff16815260200191505060206040518083038186803b158015612eb957600080fd5b505afa158015612ecd573d6000803e3d6000fd5b505050506040513d6020811015612ee357600080fd5b8101908080519060200190929190505050905060018114612f4f576040517f08c379a000000000000000000000000000000000000000000000000000000000815260040180806020018281038252602e815260200180614aa2602e913960400191505060405180910390fd5b505050565b612f5d81613623565b15612fb3576040517f08c379a00000000000000000000000000000000000000000000000000000000081526004018080602001828103825260398152602001806149b96039913960400191505060405180910390fd5b50565b6000612ff883836040518060400160405280601e81526020017f536166654d6174683a207375627472616374696f6e206f766572666c6f77000081525061442a565b905092915050565b808373ffffffffffffffffffffffffffffffffffffffff166370a08231846040518263ffffffff1660e01b8152600401808273ffffffffffffffffffffffffffffffffffffffff16815260200191505060206040518083038186803b15801561306857600080fd5b505afa15801561307c573d6000803e3d6000fd5b505050506040513d602081101561309257600080fd5b810190808051906020019092919050505010156130fa576040517f08c379a0000000000000000000000000000000000000000000000000000000008152600401808060200182810382526040815260200180614ad06040913960400191505060405180910390fd5b505050565b8373ffffffffffffffffffffffffffffffffffffffff166338d995a8826040518263ffffffff1660e01b815260040180828152602001915050600060405180830381600087803b15801561315257600080fd5b505af1158015613166573d6000803e3d6000fd5b505050508273ffffffffffffffffffffffffffffffffffffffff16639dc29fac83836040518363ffffffff1660e01b8152600401808373ffffffffffffffffffffffffffffffffffffffff16815260200182815260200192505050600060405180830381600087803b1580156131db57600080fd5b505af11580156131ef573d6000803e3d6000fd5b5050505050505050565b60006132176802b5e3af16b18800008361340290919063ffffffff16565b9050919050565b600073ffffffffffffffffffffffffffffffffffffffff168173ffffffffffffffffffffffffffffffffffffffff1614156132c1576040517f08c379a000000000000000000000000000000000000000000000000000000000815260040180806020018281038252601e8152602001807f4163636f756e742063616e6e6f74206265207a65726f2061646472657373000081525060200191505060405180910390fd5b6000813b90506000811161333d576040517f08c379a00000000000000000000000000000000000000000000000000000000081526004018080602001828103825260208152602001807f4163636f756e7420636f64652073697a652063616e6e6f74206265207a65726f81525060200191505060405180910390fd5b5050565b600073ffffffffffffffffffffffffffffffffffffffff16600360009054906101000a900473ffffffffffffffffffffffffffffffffffffffff1673ffffffffffffffffffffffffffffffffffffffff167f8be0079c531659141344cd1fd0a4f28419497f9722a3daafe3b4186f6b6457e060405160405180910390a36000600360006101000a81548173ffffffffffffffffffffffffffffffffffffffff021916908373ffffffffffffffffffffffffffffffffffffffff160217905550565b600080828401905083811015613480576040517f08c379a000000000000000000000000000000000000000000000000000000000815260040180806020018281038252601b8152602001807f536166654d6174683a206164646974696f6e206f766572666c6f77000000000081525060200191505060405180910390fd5b8091505092915050565b6611c37937e0800081101580156134a95750670de0b6b3a76400008111155b6134fe576040517f08c379a0000000000000000000000000000000000000000000000000000000008152600401808060200182810382526030815260200180614bc56030913960400191505060405180910390fd5b50565b60008273ffffffffffffffffffffffffffffffffffffffff166321e37801836040518263ffffffff1660e01b8152600401808273ffffffffffffffffffffffffffffffffffffffff16815260200191505060206040518083038186803b15801561356a57600080fd5b505afa15801561357e573d6000803e3d6000fd5b505050506040513d602081101561359457600080fd5b81019080805190602001909291905050509050600181141561361e576040517f08c379a000000000000000000000000000000000000000000000000000000000815260040180806020018281038252601c8152602001807f426f72726f7765724f70733a2054726f7665206973206163746976650000000081525060200191505060405180910390fd5b505050565b60008061362f836144ea565b90506714d1120d7b1600008110915050919050565b60008473ffffffffffffffffffffffffffffffffffffffff16635dba4c4a6040518163ffffffff1660e01b8152600401600060405180830381600087803b15801561368e57600080fd5b505af11580156136a2573d6000803e3d6000fd5b5050505060008573ffffffffffffffffffffffffffffffffffffffff1663631203b0856040518263ffffffff1660e01b81526004018082815260200191505060206040518083038186803b1580156136f957600080fd5b505afa15801561370d573d6000803e3d6000fd5b505050506040513d602081101561372357600080fd5b81019080805190602001909291905050509050613741818585614517565b600860009054906101000a900473ffffffffffffffffffffffffffffffffffffffff1673ffffffffffffffffffffffffffffffffffffffff16634677ffb3826040518263ffffffff1660e01b815260040180828152602001915050600060405180830381600087803b1580156137b657600080fd5b505af11580156137ca573d6000803e3d6000fd5b505050508473ffffffffffffffffffffffffffffffffffffffff166340c10f19600960009054906101000a900473ffffffffffffffffffffffffffffffffffffffff16836040518363ffffffff1660e01b8152600401808373ffffffffffffffffffffffffffffffffffffffff16815260200182815260200192505050600060405180830381600087803b15801561386157600080fd5b505af1158015613875573d6000803e3d6000fd5b5050505080915050949350505050565b6000808311156138c15760006138b6846138a885886145c490919063ffffffff16565b61464a90919063ffffffff16565b9050809150506138e5565b7fffffffffffffffffffffffffffffffffffffffffffffffffffffffffffffffff90505b9392505050565b60008082111561392b576139248261391668056bc75e2d63100000866145c490919063ffffffff16565b61464a90919063ffffffff16565b905061394f565b7fffffffffffffffffffffffffffffffffffffffffffffffffffffffffffffffff90505b92915050565b6714d1120d7b1600008110156139b6576040517f08c379a000000000000000000000000000000000000000000000000000000000815260040180806020018281038252603d8152602001806148e6603d913960400191505060405180910390fd5b50565b670f43fc2c04ee0000811015613a1a576040517f08c379a0000000000000000000000000000000000000000000000000000000008152600401808060200182810382526049815260200180614b106049913960600191505060405180910390fd5b50565b600080613a286123a5565b90506000613a34611908565b905086613a5357613a4e8883612fb690919063ffffffff16565b613a67565b613a66888361340290919063ffffffff16565b5b915084613a8657613a818682612fb690919063ffffffff16565b613a9a565b613a99868261340290919063ffffffff16565b5b90506000613aa9838387613885565b905080935050505095945050505050565b6714d1120d7b160000811015613b1b576040517f08c379a0000000000000000000000000000000000000000000000000000000008152600401808060200182810382526049815260200180614a596049913960600191505060405180910390fd5b50565b60008273ffffffffffffffffffffffffffffffffffffffff168260405180600001905060006040518083038185875af1925050503d8060008114613b7e576040519150601f19603f3d011682016040523d82523d6000602084013e613b83565b606091505b5050905080613bdd576040517f08c379a000000000000000000000000000000000000000000000000000000000815260040180806020018281038252602d815260200180614923602d913960400191505060405180910390fd5b505050565b8473ffffffffffffffffffffffffffffffffffffffff1663cfb9329a826040518263ffffffff1660e01b815260040180828152602001915050600060405180830381600087803b158015613c3557600080fd5b505af1158015613c49573d6000803e3d6000fd5b505050508373ffffffffffffffffffffffffffffffffffffffff166340c10f1984846040518363ffffffff1660e01b8152600401808373ffffffffffffffffffffffffffffffffffffffff16815260200182815260200192505050600060405180830381600087803b158015613cbe57600080fd5b505af1158015613cd2573d6000803e3d6000fd5b505050505050505050565b600560009054906101000a900473ffffffffffffffffffffffffffffffffffffffff1673ffffffffffffffffffffffffffffffffffffffff163373ffffffffffffffffffffffffffffffffffffffff1614613d83576040517f08c379a0000000000000000000000000000000000000000000000000000000008152600401808060200182810382526029815260200180614b9c6029913960400191505060405180910390fd5b565b6000341480613d945750600081145b613de9576040517f08c379a00000000000000000000000000000000000000000000000000000000081526004018080602001828103825260308152602001806149896030913960400191505060405180910390fd5b50565b600034141580613dfd575060008214155b80613e09575060008114155b613e5e576040517f08c379a00000000000000000000000000000000000000000000000000000000081526004018080602001828103825260468152602001806149f26046913960600191505060405180910390fd5b5050565b8073ffffffffffffffffffffffffffffffffffffffff163373ffffffffffffffffffffffffffffffffffffffff1614613ee6576040517f08c379a00000000000000000000000000000000000000000000000000000000081526004018080602001828103825260398152602001806149506039913960400191505060405180910390fd5b50565b60008060008414613f005783915060019050613f04565b8291505b9250929050565b60008111613f64576040517f08c379a0000000000000000000000000000000000000000000000000000000008152600401808060200182810382526037815260200180614bf56037913960400191505060405180910390fd5b50565b6000806000613f7a8a8a8a8a8a8a614694565b915091506000613f8b838387613885565b9050809350505050979650505050505050565b613fa7826139b9565b83613fba57613fb581613aba565b613fc5565b613fc4828461471a565b5b50505050565b613fe76802b5e3af16b188000083612fb690919063ffffffff16565b81111561403f576040517f08c379a0000000000000000000000000000000000000000000000000000000008152600401808060200182810382526043815260200180614b596043913960600191505060405180910390fd5b5050565b6000806000856140fe578873ffffffffffffffffffffffffffffffffffffffff1663d3d6f84389896040518363ffffffff1660e01b8152600401808373ffffffffffffffffffffffffffffffffffffffff16815260200182815260200192505050602060405180830381600087803b1580156140be57600080fd5b505af11580156140d2573d6000803e3d6000fd5b505050506040513d60208110156140e857600080fd5b81019080805190602001909291905050506141ab565b8873ffffffffffffffffffffffffffffffffffffffff166372423c1789896040518363ffffffff1660e01b8152600401808373ffffffffffffffffffffffffffffffffffffffff16815260200182815260200192505050602060405180830381600087803b15801561416f57600080fd5b505af1158015614183573d6000803e3d6000fd5b505050506040513d602081101561419957600080fd5b81019080805190602001909291905050505b9050600084614265578973ffffffffffffffffffffffffffffffffffffffff166312610e928a886040518363ffffffff1660e01b8152600401808373ffffffffffffffffffffffffffffffffffffffff16815260200182815260200192505050602060405180830381600087803b15801561422557600080fd5b505af1158015614239573d6000803e3d6000fd5b505050506040513d602081101561424f57600080fd5b8101908080519060200190929190505050614312565b8973ffffffffffffffffffffffffffffffffffffffff16639976cf458a886040518363ffffffff1660e01b8152600401808373ffffffffffffffffffffffffffffffffffffffff16815260200182815260200192505050602060405180830381600087803b1580156142d657600080fd5b505af11580156142ea573d6000803e3d6000fd5b505050506040513d602081101561430057600080fd5b81019080805190602001909291905050505b90508181935093505050965096945050505050565b600080600061433a898989898989614694565b91509150600061434a83836138ec565b90508093505050509695505050505050565b81156143745761436f8888888685613be2565b614381565b614380888888866130ff565b5b8315614396576143918886613b1e565b614420565b8773ffffffffffffffffffffffffffffffffffffffff166364a197f387876040518363ffffffff1660e01b8152600401808373ffffffffffffffffffffffffffffffffffffffff16815260200182815260200192505050600060405180830381600087803b15801561440757600080fd5b505af115801561441b573d6000803e3d6000fd5b505050505b5050505050505050565b60008383111582906144d7576040517f08c379a00000000000000000000000000000000000000000000000000000000081526004018080602001828103825283818151815260200191508051906020019080838360005b8381101561449c578082015181840152602081019050614481565b50505050905090810190601f1680156144c95780820380516001836020036101000a031916815260200191505b509250505060405180910390fd5b5060008385039050809150509392505050565b6000806144f56123a5565b90506000614501611908565b905061450e828286613885565b92505050919050565b600061454683614538670de0b6b3a7640000876145c490919063ffffffff16565b61464a90919063ffffffff16565b9050818111156145be576040517f08c379a000000000000000000000000000000000000000000000000000000000815260040180806020018281038252601d8152602001807f4665652065786365656465642070726f7669646564206d6178696d756d00000081525060200191505060405180910390fd5b50505050565b6000808314156145d75760009050614644565b60008284029050828482816145e857fe5b041461463f576040517f08c379a0000000000000000000000000000000000000000000000000000000008152600401808060200182810382526021815260200180614a386021913960400191505060405180910390fd5b809150505b92915050565b600061468c83836040518060400160405280601a81526020017f536166654d6174683a206469766973696f6e206279207a65726f000000000000815250614777565b905092915050565b60008060008890506000889050866146be576146b9888b612fb690919063ffffffff16565b6146d2565b6146d1888b61340290919063ffffffff16565b5b9150846146f1576146ec868a612fb690919063ffffffff16565b614705565b614704868a61340290919063ffffffff16565b5b90508181935093505050965096945050505050565b80821015614773576040517f08c379a000000000000000000000000000000000000000000000000000000000815260040180806020018281038252603e815260200180614c2c603e913960400191505060405180910390fd5b5050565b60008083118290614823576040517f08c379a00000000000000000000000000000000000000000000000000000000081526004018080602001828103825283818151815260200191508051906020019080838360005b838110156147e85780820151818401526020810190506147cd565b50505050905090810190601f1680156148155780820380516001836020036101000a031916815260200191505b509250505060405180910390fd5b50600083858161482f57fe5b049050809150509392505050565b60405180610100016040528060008152602001600081526020016000815260200160008152602001600081526020016000815260200160008152602001600081525090565b6040518061018001604052806000815260200160008152602001600081526020016000151581526020016000815260200160008152602001600081526020016000815260200160008152602001600081526020016000815260200160008152509056fe426f72726f7765724f70733a20496e205265636f76657279204d6f6465206e65772074726f766573206d757374206861766520494352203e3d20434352426f72726f7765724f70733a2053656e64696e672045544820746f20416374697665506f6f6c206661696c6564426f72726f7765724f70733a2043616c6c6572206d7573742062652074686520626f72726f77657220666f722061207769746864726177616c426f72726f7765724f7065726174696f6e733a2043616e6e6f7420776974686472617720616e642061646420636f6c6c426f72726f7765724f70733a204f7065726174696f6e206e6f74207065726d697474656420647572696e67205265636f76657279204d6f6465426f72726f7765724f70733a205468657265206d75737420626520656974686572206120636f6c6c61746572616c206368616e6765206f7220612064656274206368616e6765536166654d6174683a206d756c7469706c69636174696f6e206f766572666c6f77426f72726f7765724f70733a20416e206f7065726174696f6e207468617420776f756c6420726573756c7420696e20544352203c20434352206973206e6f74207065726d6974746564426f72726f7765724f70733a2054726f766520646f6573206e6f74206578697374206f7220697320636c6f736564426f72726f7765724f70733a2043616c6c657220646f65736e74206861766520656e6f756768204c55534420746f20636c6f73652074686569722074726f7665426f72726f7765724f70733a20416e206f7065726174696f6e207468617420776f756c6420726573756c7420696e20494352203c204d4352206973206e6f74207065726d6974746564426f72726f7765724f70733a20416d6f756e7420726570616964206d757374206e6f74206265206c6172676572207468616e207468652054726f766527732064656274426f72726f7765724f70733a2043616c6c6572206973206e6f742053746162696c69747920506f6f6c4d6178206665652070657263656e74616765206d757374206265206265747765656e20302e352520616e642031303025426f72726f7765724f70733a204465627420696e637265617365207265717569726573206e6f6e2d7a65726f20646562744368616e6765426f72726f7765724f70733a2043616e6e6f7420646563726561736520796f75722054726f766527732049435220696e205265636f76657279204d6f6465a264697066735822122017b894bc9a08868a6b81131deab1013c6afd32b70c9589478957c5a02888a07d64736f6c63430007060033",
  "immutableReferences": {},
  "source": "// SPDX-License-Identifier: MIT\r\n\r\npragma solidity >=0.6.0 <0.8.0;\r\n\r\nimport \"./Interfaces/IBorrowerOperations.sol\";\r\nimport \"./Interfaces/ITroveManager.sol\";\r\nimport \"./Interfaces/ILUSDToken.sol\";\r\nimport \"./Interfaces/ICollSurplusPool.sol\";\r\nimport \"./Interfaces/ISortedTroves.sol\";\r\nimport \"./Interfaces/ILQTYStaking.sol\";\r\nimport \"./Dependencies/LiquityBase.sol\";\r\nimport \"./Dependencies/Ownable.sol\";\r\nimport \"./Dependencies/CheckContract.sol\";\r\nimport \"./Dependencies/console.sol\";\r\nimport \"./Dependencies/TestSafeMath.sol\";\r\n\r\ncontract BorrowerOperations is\r\n    LiquityBase,\r\n    Ownable,\r\n    CheckContract,\r\n    IBorrowerOperations\r\n{\r\n    using TestSafeMath for uint256;\r\n    // --- Connected contract declarations ---\r\n\r\n    ITroveManager public troveManager;\r\n\r\n    address stabilityPoolAddress;\r\n\r\n    address gasPoolAddress;\r\n\r\n    ICollSurplusPool collSurplusPool;\r\n\r\n    ILQTYStaking public lqtyStaking;\r\n    address public lqtyStakingAddress;\r\n\r\n    ILUSDToken public lusdToken;\r\n\r\n    // A doubly linked list of Troves, sorted by their sorted by their collateral ratios\r\n    ISortedTroves public sortedTroves;\r\n\r\n    /* --- Variable container structs  ---\r\n\r\n    Used to hold, return and assign variables inside a function, in order to avoid the error:\r\n    \"CompilerError: Stack too deep\". */\r\n\r\n    struct LocalVariables_adjustTrove {\r\n        uint256 price;\r\n        uint256 collChange;\r\n        uint256 rawDebtChange;\r\n        bool isCollIncrease;\r\n        uint256 debt;\r\n        uint256 coll;\r\n        uint256 oldICR;\r\n        uint256 newICR;\r\n        uint256 LUSDFee;\r\n        uint256 newDebt;\r\n        uint256 newColl;\r\n        uint256 stake;\r\n    }\r\n\r\n    struct LocalVariables_openTrove {\r\n        uint256 price;\r\n        uint256 LUSDFee;\r\n        uint256 rawDebt;\r\n        uint256 compositeDebt;\r\n        uint256 ICR;\r\n        uint256 NICR;\r\n        uint256 stake;\r\n        uint256 arrayIndex;\r\n    }\r\n\r\n    struct ContractsCache {\r\n        ITroveManager troveManager;\r\n        IActivePool activePool;\r\n        ILUSDToken lusdToken;\r\n    }\r\n\r\n    enum BorrowerOperation {\r\n        openTrove,\r\n        closeTrove,\r\n        addColl,\r\n        withdrawColl,\r\n        withdrawLUSD,\r\n        repayLUSD,\r\n        adjustTrove\r\n    }\r\n\r\n    event TroveCreated(address indexed _borrower, uint256 arrayIndex);\r\n    event TroveUpdated(\r\n        address indexed _borrower,\r\n        uint256 _debt,\r\n        uint256 _coll,\r\n        uint256 stake,\r\n        BorrowerOperation operation\r\n    );\r\n    event LUSDBorrowingFeePaid(address indexed _borrower, uint256 _LUSDFee);\r\n\r\n    // --- Dependency setters ---\r\n\r\n    function setAddresses(\r\n        address _troveManagerAddress,\r\n        address _activePoolAddress,\r\n        address _defaultPoolAddress,\r\n        address _stabilityPoolAddress,\r\n        address _gasPoolAddress,\r\n        address _collSurplusPoolAddress,\r\n        address _priceFeedAddress,\r\n        address _sortedTrovesAddress,\r\n        address _lusdTokenAddress,\r\n        address _lqtyStakingAddress\r\n    ) external override onlyOwner {\r\n        checkContract(_troveManagerAddress);\r\n        checkContract(_activePoolAddress);\r\n        checkContract(_defaultPoolAddress);\r\n        checkContract(_stabilityPoolAddress);\r\n        checkContract(_gasPoolAddress);\r\n        checkContract(_collSurplusPoolAddress);\r\n        checkContract(_priceFeedAddress);\r\n        checkContract(_sortedTrovesAddress);\r\n        checkContract(_lusdTokenAddress);\r\n        checkContract(_lqtyStakingAddress);\r\n\r\n        troveManager = ITroveManager(_troveManagerAddress);\r\n        activePool = IActivePool(_activePoolAddress);\r\n        defaultPool = IDefaultPool(_defaultPoolAddress);\r\n        stabilityPoolAddress = _stabilityPoolAddress;\r\n        gasPoolAddress = _gasPoolAddress;\r\n        collSurplusPool = ICollSurplusPool(_collSurplusPoolAddress);\r\n        priceFeed = IPriceFeed(_priceFeedAddress);\r\n        sortedTroves = ISortedTroves(_sortedTrovesAddress);\r\n        lusdToken = ILUSDToken(_lusdTokenAddress);\r\n        lqtyStakingAddress = _lqtyStakingAddress;\r\n        lqtyStaking = ILQTYStaking(_lqtyStakingAddress);\r\n\r\n        emit TroveManagerAddressChanged(_troveManagerAddress);\r\n        emit ActivePoolAddressChanged(_activePoolAddress);\r\n        emit DefaultPoolAddressChanged(_defaultPoolAddress);\r\n        emit StabilityPoolAddressChanged(_stabilityPoolAddress);\r\n        emit GasPoolAddressChanged(_gasPoolAddress);\r\n        emit CollSurplusPoolAddressChanged(_collSurplusPoolAddress);\r\n        emit PriceFeedAddressChanged(_priceFeedAddress);\r\n        emit SortedTrovesAddressChanged(_sortedTrovesAddress);\r\n        emit LUSDTokenAddressChanged(_lusdTokenAddress);\r\n        emit LQTYStakingAddressChanged(_lqtyStakingAddress);\r\n\r\n        _renounceOwnership();\r\n    }\r\n\r\n    // --- Borrower Trove Operations ---\r\n\r\n    function openTrove(\r\n        uint256 _maxFeePercentage,\r\n        uint256 _LUSDAmount,\r\n        address _upperHint,\r\n        address _lowerHint\r\n    ) external payable override {\r\n        ContractsCache memory contractsCache =\r\n            ContractsCache(troveManager, activePool, lusdToken);\r\n        LocalVariables_openTrove memory vars;\r\n\r\n        if (_LUSDAmount > 0) {\r\n            _requireValidMaxFeePercentage(_maxFeePercentage);\r\n        }\r\n        _requireTroveisNotActive(contractsCache.troveManager, msg.sender);\r\n\r\n        vars.price = priceFeed.fetchPrice();\r\n\r\n        vars.LUSDFee;\r\n        vars.rawDebt = _LUSDAmount;\r\n\r\n        bool isRecoveryMode = _checkRecoveryMode(vars.price);\r\n\r\n        if (!isRecoveryMode && _LUSDAmount > 0) {\r\n            vars.LUSDFee = _triggerBorrowingFee(\r\n                contractsCache.troveManager,\r\n                contractsCache.lusdToken,\r\n                _LUSDAmount,\r\n                _maxFeePercentage\r\n            );\r\n            vars.rawDebt = vars.rawDebt.add(vars.LUSDFee);\r\n        }\r\n\r\n        // ICR is based on the composite debt, i.e. the requested LUSD amount + LUSD borrowing fee + LUSD gas comp.\r\n        vars.compositeDebt = _getCompositeDebt(vars.rawDebt);\r\n        assert(vars.compositeDebt > 0);\r\n\r\n        vars.ICR = LiquityMath._computeCR(\r\n            msg.value,\r\n            vars.compositeDebt,\r\n            vars.price\r\n        );\r\n        vars.NICR = LiquityMath._computeNominalCR(\r\n            msg.value,\r\n            vars.compositeDebt\r\n        );\r\n\r\n        if (isRecoveryMode) {\r\n            _requireICRisAboveCCR(vars.ICR);\r\n        } else {\r\n            _requireICRisAboveMCR(vars.ICR);\r\n            uint256 newTCR =\r\n                _getNewTCRFromTroveChange(\r\n                    msg.value,\r\n                    true,\r\n                    vars.compositeDebt,\r\n                    true,\r\n                    vars.price\r\n                ); // bools: coll increase, debt increase\r\n            _requireNewTCRisAboveCCR(newTCR);\r\n        }\r\n\r\n        // Set the trove struct's properties\r\n        contractsCache.troveManager.setTroveStatus(msg.sender, 1);\r\n        contractsCache.troveManager.increaseTroveColl(msg.sender, msg.value);\r\n        contractsCache.troveManager.increaseTroveDebt(\r\n            msg.sender,\r\n            vars.compositeDebt\r\n        );\r\n\r\n        contractsCache.troveManager.updateTroveRewardSnapshots(msg.sender);\r\n        vars.stake = contractsCache.troveManager.updateStakeAndTotalStakes(\r\n            msg.sender\r\n        );\r\n\r\n        sortedTroves.insert(msg.sender, vars.NICR, _upperHint, _lowerHint);\r\n        vars.arrayIndex = contractsCache.troveManager.addTroveOwnerToArray(\r\n            msg.sender\r\n        );\r\n        emit TroveCreated(msg.sender, vars.arrayIndex);\r\n\r\n        // Move the ether to the Active Pool, and mint the LUSDAmount to the borrower\r\n        _activePoolAddColl(contractsCache.activePool, msg.value);\r\n        if (_LUSDAmount > 0) {\r\n            _withdrawLUSD(\r\n                contractsCache.activePool,\r\n                contractsCache.lusdToken,\r\n                msg.sender,\r\n                _LUSDAmount,\r\n                vars.rawDebt\r\n            );\r\n        }\r\n        // Move the LUSD gas compensation to the Gas Pool\r\n        _withdrawLUSD(\r\n            contractsCache.activePool,\r\n            contractsCache.lusdToken,\r\n            gasPoolAddress,\r\n            LUSD_GAS_COMPENSATION,\r\n            LUSD_GAS_COMPENSATION\r\n        );\r\n\r\n        emit TroveUpdated(\r\n            msg.sender,\r\n            vars.compositeDebt,\r\n            msg.value,\r\n            vars.stake,\r\n            BorrowerOperation.openTrove\r\n        );\r\n        emit LUSDBorrowingFeePaid(msg.sender, vars.LUSDFee);\r\n    }\r\n\r\n    // Send ETH as collateral to a trove\r\n    function addColl(address _upperHint, address _lowerHint)\r\n        external\r\n        payable\r\n        override\r\n    {\r\n        _adjustTrove(msg.sender, 0, 0, false, _upperHint, _lowerHint, 0);\r\n    }\r\n\r\n    // Send ETH as collateral to a trove. Called by only the Stability Pool.\r\n    function moveETHGainToTrove(\r\n        address _borrower,\r\n        address _upperHint,\r\n        address _lowerHint\r\n    ) external payable override {\r\n        _requireCallerIsStabilityPool();\r\n        _adjustTrove(_borrower, 0, 0, false, _upperHint, _lowerHint, 0);\r\n    }\r\n\r\n    // Withdraw ETH collateral from a trove\r\n    function withdrawColl(\r\n        uint256 _collWithdrawal,\r\n        address _upperHint,\r\n        address _lowerHint\r\n    ) external override {\r\n        _adjustTrove(\r\n            msg.sender,\r\n            _collWithdrawal,\r\n            0,\r\n            false,\r\n            _upperHint,\r\n            _lowerHint,\r\n            0\r\n        );\r\n    }\r\n\r\n    // Withdraw LUSD tokens from a trove: mint new LUSD tokens to the owner, and increase the trove's debt accordingly\r\n    function withdrawLUSD(\r\n        uint256 _maxFeePercentage,\r\n        uint256 _LUSDAmount,\r\n        address _upperHint,\r\n        address _lowerHint\r\n    ) external override {\r\n        _adjustTrove(\r\n            msg.sender,\r\n            0,\r\n            _LUSDAmount,\r\n            true,\r\n            _upperHint,\r\n            _lowerHint,\r\n            _maxFeePercentage\r\n        );\r\n    }\r\n\r\n    // Repay LUSD tokens to a Trove: Burn the repaid LUSD tokens, and reduce the trove's debt accordingly\r\n    function repayLUSD(\r\n        uint256 _LUSDAmount,\r\n        address _upperHint,\r\n        address _lowerHint\r\n    ) external override {\r\n        _adjustTrove(\r\n            msg.sender,\r\n            0,\r\n            _LUSDAmount,\r\n            false,\r\n            _upperHint,\r\n            _lowerHint,\r\n            0\r\n        );\r\n    }\r\n\r\n    function adjustTrove(\r\n        uint256 _maxFeePercentage,\r\n        uint256 _collWithdrawal,\r\n        uint256 _debtChange,\r\n        bool _isDebtIncrease,\r\n        address _upperHint,\r\n        address _lowerHint\r\n    ) external payable override {\r\n        _adjustTrove(\r\n            msg.sender,\r\n            _collWithdrawal,\r\n            _debtChange,\r\n            _isDebtIncrease,\r\n            _upperHint,\r\n            _lowerHint,\r\n            _maxFeePercentage\r\n        );\r\n    }\r\n\r\n    /*\r\n     * _adjustTrove(): Alongside a debt change, this function can perform either a collateral top-up or a collateral withdrawal.\r\n     *\r\n     * It therefore expects either a positive msg.value, or a positive _collWithdrawal argument.\r\n     *\r\n     * If both are positive, it will revert.\r\n     */\r\n    function _adjustTrove(\r\n        address _borrower,\r\n        uint256 _collWithdrawal,\r\n        uint256 _debtChange,\r\n        bool _isDebtIncrease,\r\n        address _upperHint,\r\n        address _lowerHint,\r\n        uint256 _maxFeePercentage\r\n    ) internal {\r\n        ContractsCache memory contractsCache =\r\n            ContractsCache(troveManager, activePool, lusdToken);\r\n\r\n        if (_isDebtIncrease) {\r\n            _requireValidMaxFeePercentage(_maxFeePercentage);\r\n        }\r\n        _requireSingularCollChange(_collWithdrawal);\r\n        _requireNonZeroAdjustment(_collWithdrawal, _debtChange);\r\n        _requireTroveisActive(contractsCache.troveManager, _borrower);\r\n\r\n        /*\r\n         * The adjustment is considered a withdrawal if it removes ETH collateral, and/or issues new LUSD debt.\r\n         * The caller may make a withdrawal only from their own trove.\r\n         */\r\n        bool isWithdrawal = _collWithdrawal != 0 || _isDebtIncrease;\r\n        if (isWithdrawal) {\r\n            _requireCallerIsBorrower(_borrower);\r\n        }\r\n\r\n        LocalVariables_adjustTrove memory vars;\r\n\r\n        vars.price = priceFeed.fetchPrice();\r\n        bool isRecoveryMode = _checkRecoveryMode(vars.price);\r\n\r\n        contractsCache.troveManager.applyPendingRewards(_borrower);\r\n\r\n        // Get the collChange based on whether or not ETH was sent in the transaction\r\n        (vars.collChange, vars.isCollIncrease) = _getCollChange(\r\n            msg.value,\r\n            _collWithdrawal\r\n        );\r\n\r\n        vars.rawDebtChange = _debtChange;\r\n\r\n        // If the adjustment incorporates a debt increase and system is in Normal Mode, then trigger a borrowing fee\r\n        if (_isDebtIncrease) {\r\n            _requireNonZeroDebtChange(_debtChange);\r\n\r\n            if (!isRecoveryMode) {\r\n                vars.LUSDFee = _triggerBorrowingFee(\r\n                    contractsCache.troveManager,\r\n                    contractsCache.lusdToken,\r\n                    _debtChange,\r\n                    _maxFeePercentage\r\n                );\r\n                vars.rawDebtChange = vars.rawDebtChange.add(vars.LUSDFee); // The raw debt change includes the fee\r\n            }\r\n        }\r\n\r\n        vars.debt = contractsCache.troveManager.getTroveDebt(_borrower);\r\n        vars.coll = contractsCache.troveManager.getTroveColl(_borrower);\r\n\r\n        // Get the trove's old ICR before the adjustment, and what its new ICR will be after the adjustment\r\n        vars.oldICR = LiquityMath._computeCR(vars.coll, vars.debt, vars.price);\r\n        vars.newICR = _getNewICRFromTroveChange(\r\n            vars.coll,\r\n            vars.debt,\r\n            vars.collChange,\r\n            vars.isCollIncrease,\r\n            vars.rawDebtChange,\r\n            _isDebtIncrease,\r\n            vars.price\r\n        );\r\n\r\n        /*\r\n         * When the adjust is a withdrawal, make sure it is a valid change for the trove's ICR and for the system TCR, given the\r\n         * current system mode.\r\n         */\r\n        if (isWithdrawal) {\r\n            assert(_collWithdrawal <= vars.coll);\r\n            uint256 newTCR =\r\n                _getNewTCRFromTroveChange(\r\n                    vars.collChange,\r\n                    vars.isCollIncrease,\r\n                    vars.rawDebtChange,\r\n                    _isDebtIncrease,\r\n                    vars.price\r\n                );\r\n            _requireValidNewICRandValidNewTCR(\r\n                isRecoveryMode,\r\n                vars.oldICR,\r\n                vars.newICR,\r\n                newTCR\r\n            );\r\n        }\r\n\r\n        // When the adjustment is a debt repayment, check it's a valid amount and that the caller has enough LUSD\r\n        if (!_isDebtIncrease && _debtChange > 0) {\r\n            _requireValidLUSDRepayment(vars.debt, vars.rawDebtChange);\r\n            _requireSufficientLUSDBalance(\r\n                contractsCache.lusdToken,\r\n                _borrower,\r\n                vars.rawDebtChange\r\n            );\r\n        }\r\n\r\n        (vars.newColl, vars.newDebt) = _updateTroveFromAdjustment(\r\n            contractsCache.troveManager,\r\n            _borrower,\r\n            vars.collChange,\r\n            vars.isCollIncrease,\r\n            vars.rawDebtChange,\r\n            _isDebtIncrease\r\n        );\r\n        vars.stake = contractsCache.troveManager.updateStakeAndTotalStakes(\r\n            _borrower\r\n        );\r\n\r\n        // Re-insert trove in to the sorted list\r\n        uint256 newNICR =\r\n            _getNewNominalICRFromTroveChange(\r\n                vars.coll,\r\n                vars.debt,\r\n                vars.collChange,\r\n                vars.isCollIncrease,\r\n                vars.rawDebtChange,\r\n                _isDebtIncrease\r\n            );\r\n        sortedTroves.reInsert(_borrower, newNICR, _upperHint, _lowerHint);\r\n\r\n        emit TroveUpdated(\r\n            _borrower,\r\n            vars.newDebt,\r\n            vars.newColl,\r\n            vars.stake,\r\n            BorrowerOperation.adjustTrove\r\n        );\r\n        emit LUSDBorrowingFeePaid(msg.sender, vars.LUSDFee);\r\n\r\n        // Use the unmodified _debtChange here, as we don't send the fee to the user\r\n        _moveTokensAndETHfromAdjustment(\r\n            contractsCache.activePool,\r\n            contractsCache.lusdToken,\r\n            msg.sender,\r\n            vars.collChange,\r\n            vars.isCollIncrease,\r\n            _debtChange,\r\n            _isDebtIncrease,\r\n            vars.rawDebtChange\r\n        );\r\n    }\r\n\r\n    function closeTrove() external override {\r\n        ITroveManager troveManagerCached = troveManager;\r\n        IActivePool activePoolCached = activePool;\r\n        ILUSDToken lusdTokenCached = lusdToken;\r\n\r\n        _requireTroveisActive(troveManagerCached, msg.sender);\r\n        uint256 price = priceFeed.fetchPrice();\r\n        _requireNotInRecoveryMode(price);\r\n\r\n        troveManagerCached.applyPendingRewards(msg.sender);\r\n\r\n        uint256 coll = troveManagerCached.getTroveColl(msg.sender);\r\n        uint256 debt = troveManagerCached.getTroveDebt(msg.sender);\r\n\r\n        _requireSufficientLUSDBalance(\r\n            lusdTokenCached,\r\n            msg.sender,\r\n            debt.sub(LUSD_GAS_COMPENSATION)\r\n        );\r\n\r\n        troveManagerCached.removeStake(msg.sender);\r\n        troveManagerCached.closeTrove(msg.sender);\r\n\r\n        emit TroveUpdated(msg.sender, 0, 0, 0, BorrowerOperation.closeTrove);\r\n\r\n        // Burn the repaid LUSD from the user's balance and the gas compensation from the Gas Pool\r\n        _repayLUSD(\r\n            activePoolCached,\r\n            lusdTokenCached,\r\n            msg.sender,\r\n            debt.sub(LUSD_GAS_COMPENSATION)\r\n        );\r\n        _repayLUSD(\r\n            activePoolCached,\r\n            lusdTokenCached,\r\n            gasPoolAddress,\r\n            LUSD_GAS_COMPENSATION\r\n        );\r\n\r\n        // Send the collateral back to the user\r\n        activePoolCached.sendETH(msg.sender, coll);\r\n    }\r\n\r\n    /**\r\n     * Claim remaining collateral from a redemption or from a liquidation with ICR > MCR in Recovery Mode\r\n     */\r\n    function claimCollateral() external override {\r\n        // send ETH from CollSurplus Pool to owner\r\n        collSurplusPool.claimColl(msg.sender);\r\n    }\r\n\r\n    // --- Helper functions ---\r\n\r\n    function _triggerBorrowingFee(\r\n        ITroveManager _troveManager,\r\n        ILUSDToken _lusdToken,\r\n        uint256 _debtChange,\r\n        uint256 _maxFeePercentage\r\n    ) internal returns (uint256) {\r\n        _troveManager.decayBaseRateFromBorrowing(); // decay the baseRate state variable\r\n        uint256 LUSDFee = _troveManager.getBorrowingFee(_debtChange);\r\n\r\n        _requireUserAcceptsFee(LUSDFee, _debtChange, _maxFeePercentage);\r\n\r\n        // Send fee to LQTY staking contract\r\n        lqtyStaking.increaseF_LUSD(LUSDFee);\r\n        _lusdToken.mint(lqtyStakingAddress, LUSDFee);\r\n\r\n        return LUSDFee;\r\n    }\r\n\r\n    function _getUSDValue(uint256 _coll, uint256 _price)\r\n        internal\r\n        pure\r\n        returns (uint256)\r\n    {\r\n        uint256 usdValue = _price.mul(_coll).div(DECIMAL_PRECISION);\r\n\r\n        return usdValue;\r\n    }\r\n\r\n    function _getCollChange(\r\n        uint256 _collReceived,\r\n        uint256 _requestedCollWithdrawal\r\n    ) internal pure returns (uint256 collChange, bool isCollIncrease) {\r\n        if (_collReceived != 0) {\r\n            collChange = _collReceived;\r\n            isCollIncrease = true;\r\n        } else {\r\n            collChange = _requestedCollWithdrawal;\r\n        }\r\n    }\r\n\r\n    // Update trove's coll and debt based on whether they increase or decrease\r\n    function _updateTroveFromAdjustment(\r\n        ITroveManager _troveManager,\r\n        address _borrower,\r\n        uint256 _collChange,\r\n        bool _isCollIncrease,\r\n        uint256 _debtChange,\r\n        bool _isDebtIncrease\r\n    ) internal returns (uint256, uint256) {\r\n        uint256 newColl =\r\n            (_isCollIncrease)\r\n                ? _troveManager.increaseTroveColl(_borrower, _collChange)\r\n                : _troveManager.decreaseTroveColl(_borrower, _collChange);\r\n        uint256 newDebt =\r\n            (_isDebtIncrease)\r\n                ? _troveManager.increaseTroveDebt(_borrower, _debtChange)\r\n                : _troveManager.decreaseTroveDebt(_borrower, _debtChange);\r\n\r\n        return (newColl, newDebt);\r\n    }\r\n\r\n    function _moveTokensAndETHfromAdjustment(\r\n        IActivePool _activePool,\r\n        ILUSDToken _lusdToken,\r\n        address _borrower,\r\n        uint256 _collChange,\r\n        bool _isCollIncrease,\r\n        uint256 _debtChange,\r\n        bool _isDebtIncrease,\r\n        uint256 _rawDebtChange\r\n    ) internal {\r\n        if (_isDebtIncrease) {\r\n            _withdrawLUSD(\r\n                _activePool,\r\n                _lusdToken,\r\n                _borrower,\r\n                _debtChange,\r\n                _rawDebtChange\r\n            );\r\n        } else {\r\n            _repayLUSD(_activePool, _lusdToken, _borrower, _debtChange);\r\n        }\r\n\r\n        if (_isCollIncrease) {\r\n            _activePoolAddColl(_activePool, _collChange);\r\n        } else {\r\n            _activePool.sendETH(_borrower, _collChange);\r\n        }\r\n    }\r\n\r\n    // Send ETH to Active Pool and increase its recorded ETH balance\r\n    function _activePoolAddColl(IActivePool _activePool, uint256 _amount)\r\n        internal\r\n    {\r\n        (bool success, ) = address(_activePool).call{value: _amount}(\"\");\r\n        require(success, \"BorrowerOps: Sending ETH to ActivePool failed\");\r\n    }\r\n\r\n    // Issue the specified amount of LUSD to _account and increases the total active debt (_rawDebtIncrease potentially includes a LUSDFee)\r\n    function _withdrawLUSD(\r\n        IActivePool _activePool,\r\n        ILUSDToken _lusdToken,\r\n        address _account,\r\n        uint256 _LUSDAmount,\r\n        uint256 _rawDebtIncrease\r\n    ) internal {\r\n        _activePool.increaseLUSDDebt(_rawDebtIncrease);\r\n        _lusdToken.mint(_account, _LUSDAmount);\r\n    }\r\n\r\n    // Burn the specified amount of LUSD from _account and decreases the total active debt\r\n    function _repayLUSD(\r\n        IActivePool _activePool,\r\n        ILUSDToken _lusdToken,\r\n        address _account,\r\n        uint256 _LUSD\r\n    ) internal {\r\n        _activePool.decreaseLUSDDebt(_LUSD);\r\n        _lusdToken.burn(_account, _LUSD);\r\n    }\r\n\r\n    // --- 'Require' wrapper functions ---\r\n\r\n    function _requireSingularCollChange(uint256 _collWithdrawal) internal view {\r\n        require(\r\n            msg.value == 0 || _collWithdrawal == 0,\r\n            \"BorrowerOperations: Cannot withdraw and add coll\"\r\n        );\r\n    }\r\n\r\n    function _requireCallerIsBorrower(address _borrower) internal view {\r\n        require(\r\n            msg.sender == _borrower,\r\n            \"BorrowerOps: Caller must be the borrower for a withdrawal\"\r\n        );\r\n    }\r\n\r\n    function _requireNonZeroAdjustment(\r\n        uint256 _collWithdrawal,\r\n        uint256 _debtChange\r\n    ) internal view {\r\n        require(\r\n            msg.value != 0 || _collWithdrawal != 0 || _debtChange != 0,\r\n            \"BorrowerOps: There must be either a collateral change or a debt change\"\r\n        );\r\n    }\r\n\r\n    function _requireTroveisActive(\r\n        ITroveManager _troveManager,\r\n        address _borrower\r\n    ) internal view {\r\n        uint256 status = _troveManager.getTroveStatus(_borrower);\r\n        require(status == 1, \"BorrowerOps: Trove does not exist or is closed\");\r\n    }\r\n\r\n    function _requireTroveisNotActive(\r\n        ITroveManager _troveManager,\r\n        address _borrower\r\n    ) internal view {\r\n        uint256 status = _troveManager.getTroveStatus(_borrower);\r\n        require(status != 1, \"BorrowerOps: Trove is active\");\r\n    }\r\n\r\n    function _requireNonZeroDebtChange(uint256 _debtChange) internal pure {\r\n        require(\r\n            _debtChange > 0,\r\n            \"BorrowerOps: Debt increase requires non-zero debtChange\"\r\n        );\r\n    }\r\n\r\n    function _requireNotInRecoveryMode(uint256 _price) internal view {\r\n        require(\r\n            !_checkRecoveryMode(_price),\r\n            \"BorrowerOps: Operation not permitted during Recovery Mode\"\r\n        );\r\n    }\r\n\r\n    function _requireValidNewICRandValidNewTCR(\r\n        bool _isRecoveryMode,\r\n        uint256 _oldICR,\r\n        uint256 _newICR,\r\n        uint256 _newTCR\r\n    ) internal pure {\r\n        _requireICRisAboveMCR(_newICR);\r\n\r\n        if (!_isRecoveryMode) {\r\n            // When the system is in Normal Mode, check that this operation would not push the system into Recovery Mode\r\n            _requireNewTCRisAboveCCR(_newTCR);\r\n        } else {\r\n            // When the system is in Recovery Mode, check that this operation would not worsen the trove's ICR (and by extension, would not worsen the TCR)\r\n            _requireNewICRisAboveOldICR(_newICR, _oldICR);\r\n        }\r\n    }\r\n\r\n    function _requireICRisAboveMCR(uint256 _newICR) internal pure {\r\n        require(\r\n            _newICR >= MCR,\r\n            \"BorrowerOps: An operation that would result in ICR < MCR is not permitted\"\r\n        );\r\n    }\r\n\r\n    function _requireICRisAboveCCR(uint256 _newICR) internal pure {\r\n        require(\r\n            _newICR >= CCR,\r\n            \"BorrowerOps: In Recovery Mode new troves must have ICR >= CCR\"\r\n        );\r\n    }\r\n\r\n    function _requireNewICRisAboveOldICR(uint256 _newICR, uint256 _oldICR)\r\n        internal\r\n        pure\r\n    {\r\n        require(\r\n            _newICR >= _oldICR,\r\n            \"BorrowerOps: Cannot decrease your Trove's ICR in Recovery Mode\"\r\n        );\r\n    }\r\n\r\n    function _requireNewTCRisAboveCCR(uint256 _newTCR) internal pure {\r\n        require(\r\n            _newTCR >= CCR,\r\n            \"BorrowerOps: An operation that would result in TCR < CCR is not permitted\"\r\n        );\r\n    }\r\n\r\n    function _requireValidCollWithdrawal(\r\n        uint256 _collWithdrawal,\r\n        uint256 _troveColl\r\n    ) internal pure {\r\n        require(\r\n            _collWithdrawal <= _troveColl,\r\n            \"BorrowerOps: Collateral withdrawal must not be larger than the trove's collateral\"\r\n        );\r\n    }\r\n\r\n    function _requireValidLUSDRepayment(\r\n        uint256 _currentDebt,\r\n        uint256 _debtRepayment\r\n    ) internal pure {\r\n        require(\r\n            _debtRepayment <= _currentDebt.sub(LUSD_GAS_COMPENSATION),\r\n            \"BorrowerOps: Amount repaid must not be larger than the Trove's debt\"\r\n        );\r\n    }\r\n\r\n    function _requireCallerIsStabilityPool() internal view {\r\n        require(\r\n            msg.sender == stabilityPoolAddress,\r\n            \"BorrowerOps: Caller is not Stability Pool\"\r\n        );\r\n    }\r\n\r\n    function _requireSufficientLUSDBalance(\r\n        ILUSDToken _lusdToken,\r\n        address _borrower,\r\n        uint256 _debtRepayment\r\n    ) internal view {\r\n        require(\r\n            _lusdToken.balanceOf(_borrower) >= _debtRepayment,\r\n            \"BorrowerOps: Caller doesnt have enough LUSD to close their trove\"\r\n        );\r\n    }\r\n\r\n    // --- ICR and TCR getters ---\r\n\r\n    // Compute the new collateral ratio, considering the change in coll and debt. Assumes 0 pending rewards.\r\n    function _getNewNominalICRFromTroveChange(\r\n        uint256 _coll,\r\n        uint256 _debt,\r\n        uint256 _collChange,\r\n        bool _isCollIncrease,\r\n        uint256 _debtChange,\r\n        bool _isDebtIncrease\r\n    ) internal pure returns (uint256) {\r\n        (uint256 newColl, uint256 newDebt) =\r\n            _getNewTroveAmounts(\r\n                _coll,\r\n                _debt,\r\n                _collChange,\r\n                _isCollIncrease,\r\n                _debtChange,\r\n                _isDebtIncrease\r\n            );\r\n\r\n        uint256 newNICR = LiquityMath._computeNominalCR(newColl, newDebt);\r\n        return newNICR;\r\n    }\r\n\r\n    // Compute the new collateral ratio, considering the change in coll and debt. Assumes 0 pending rewards.\r\n    function _getNewICRFromTroveChange(\r\n        uint256 _coll,\r\n        uint256 _debt,\r\n        uint256 _collChange,\r\n        bool _isCollIncrease,\r\n        uint256 _debtChange,\r\n        bool _isDebtIncrease,\r\n        uint256 _price\r\n    ) internal pure returns (uint256) {\r\n        (uint256 newColl, uint256 newDebt) =\r\n            _getNewTroveAmounts(\r\n                _coll,\r\n                _debt,\r\n                _collChange,\r\n                _isCollIncrease,\r\n                _debtChange,\r\n                _isDebtIncrease\r\n            );\r\n\r\n        uint256 newICR = LiquityMath._computeCR(newColl, newDebt, _price);\r\n        return newICR;\r\n    }\r\n\r\n    function _getNewTroveAmounts(\r\n        uint256 _coll,\r\n        uint256 _debt,\r\n        uint256 _collChange,\r\n        bool _isCollIncrease,\r\n        uint256 _debtChange,\r\n        bool _isDebtIncrease\r\n    ) internal pure returns (uint256, uint256) {\r\n        uint256 newColl = _coll;\r\n        uint256 newDebt = _debt;\r\n\r\n        newColl = _isCollIncrease\r\n            ? _coll.add(_collChange)\r\n            : _coll.sub(_collChange);\r\n        newDebt = _isDebtIncrease\r\n            ? _debt.add(_debtChange)\r\n            : _debt.sub(_debtChange);\r\n\r\n        return (newColl, newDebt);\r\n    }\r\n\r\n    function _getNewTCRFromTroveChange(\r\n        uint256 _collChange,\r\n        bool _isCollIncrease,\r\n        uint256 _debtChange,\r\n        bool _isDebtIncrease,\r\n        uint256 _price\r\n    ) internal view returns (uint256) {\r\n        uint256 totalColl = getEntireSystemColl();\r\n        uint256 totalDebt = getEntireSystemDebt();\r\n\r\n        totalColl = _isCollIncrease\r\n            ? totalColl.add(_collChange)\r\n            : totalColl.sub(_collChange);\r\n        totalDebt = _isDebtIncrease\r\n            ? totalDebt.add(_debtChange)\r\n            : totalDebt.sub(_debtChange);\r\n\r\n        uint256 newTCR = LiquityMath._computeCR(totalColl, totalDebt, _price);\r\n        return newTCR;\r\n    }\r\n\r\n    function getCompositeDebt(uint256 _debt)\r\n        external\r\n        pure\r\n        override\r\n        returns (uint256)\r\n    {\r\n        return _getCompositeDebt(_debt);\r\n    }\r\n}\r\n",
  "sourcePath": "C:/Users/danie/code/harp/client/src/contracts/BorrowerOperations.sol",
  "compiler": {
    "name": "solc",
    "version": "0.7.6+commit.7338295f.Emscripten.clang"
  },
  "schemaVersion": "3.3.3",
  "updatedAt": "2021-02-19T17:49:41.830Z",
  "devdoc": {
    "kind": "dev",
    "methods": {
      "isOwner()": {
        "details": "Returns true if the caller is the current owner."
      },
      "owner()": {
        "details": "Returns the address of the current owner."
      }
    },
    "version": 1
  },
  "userdoc": {
    "kind": "user",
    "methods": {
      "claimCollateral()": {
        "notice": "Claim remaining collateral from a redemption or from a liquidation with ICR > MCR in Recovery Mode"
      }
    },
    "version": 1
  }
}