{
  "contractName": "DefaultPool",
  "abi": [
    {
      "anonymous": false,
      "inputs": [
        {
          "indexed": false,
          "internalType": "address",
          "name": "_newActivePoolAddress",
          "type": "address"
        }
      ],
      "name": "ActivePoolAddressChanged",
      "type": "event"
    },
    {
      "anonymous": false,
      "inputs": [
        {
          "indexed": false,
          "internalType": "address",
          "name": "_newDefaultPoolAddress",
          "type": "address"
        }
      ],
      "name": "DefaultPoolAddressChanged",
      "type": "event"
    },
    {
      "anonymous": false,
      "inputs": [
        {
          "indexed": false,
          "internalType": "uint256",
          "name": "_newBalance",
          "type": "uint256"
        }
      ],
      "name": "ETHBalanceUpdated",
      "type": "event"
    },
    {
      "anonymous": false,
      "inputs": [
        {
          "indexed": false,
          "internalType": "address",
          "name": "_to",
          "type": "address"
        },
        {
          "indexed": false,
          "internalType": "uint256",
          "name": "_amount",
          "type": "uint256"
        }
      ],
      "name": "EtherSent",
      "type": "event"
    },
    {
      "anonymous": false,
      "inputs": [
        {
          "indexed": false,
          "internalType": "uint256",
          "name": "_newBalance",
          "type": "uint256"
        }
      ],
      "name": "LUSDBalanceUpdated",
      "type": "event"
    },
    {
      "anonymous": false,
      "inputs": [
        {
          "indexed": true,
          "internalType": "address",
          "name": "previousOwner",
          "type": "address"
        },
        {
          "indexed": true,
          "internalType": "address",
          "name": "newOwner",
          "type": "address"
        }
      ],
      "name": "OwnershipTransferred",
      "type": "event"
    },
    {
      "anonymous": false,
      "inputs": [
        {
          "indexed": false,
          "internalType": "address",
          "name": "_newStabilityPoolAddress",
          "type": "address"
        }
      ],
      "name": "StabilityPoolAddressChanged",
      "type": "event"
    },
    {
      "anonymous": false,
      "inputs": [
        {
          "indexed": false,
          "internalType": "address",
          "name": "_newTroveManagerAddress",
          "type": "address"
        }
      ],
      "name": "TroveManagerAddressChanged",
      "type": "event"
    },
    {
      "inputs": [],
      "name": "activePoolAddress",
      "outputs": [
        {
          "internalType": "address",
          "name": "",
          "type": "address"
        }
      ],
      "stateMutability": "view",
      "type": "function"
    },
    {
      "inputs": [],
      "name": "isOwner",
      "outputs": [
        {
          "internalType": "bool",
          "name": "",
          "type": "bool"
        }
      ],
      "stateMutability": "view",
      "type": "function"
    },
    {
      "inputs": [],
      "name": "owner",
      "outputs": [
        {
          "internalType": "address",
          "name": "",
          "type": "address"
        }
      ],
      "stateMutability": "view",
      "type": "function"
    },
    {
      "inputs": [],
      "name": "troveManagerAddress",
      "outputs": [
        {
          "internalType": "address",
          "name": "",
          "type": "address"
        }
      ],
      "stateMutability": "view",
      "type": "function"
    },
    {
      "stateMutability": "payable",
      "type": "receive"
    },
    {
      "inputs": [
        {
          "internalType": "address",
          "name": "_troveManagerAddress",
          "type": "address"
        },
        {
          "internalType": "address",
          "name": "_activePoolAddress",
          "type": "address"
        }
      ],
      "name": "setAddresses",
      "outputs": [],
      "stateMutability": "nonpayable",
      "type": "function"
    },
    {
      "inputs": [],
      "name": "getETH",
      "outputs": [
        {
          "internalType": "uint256",
          "name": "",
          "type": "uint256"
        }
      ],
      "stateMutability": "view",
      "type": "function"
    },
    {
      "inputs": [],
      "name": "getLUSDDebt",
      "outputs": [
        {
          "internalType": "uint256",
          "name": "",
          "type": "uint256"
        }
      ],
      "stateMutability": "view",
      "type": "function"
    },
    {
      "inputs": [
        {
          "internalType": "uint256",
          "name": "_amount",
          "type": "uint256"
        }
      ],
      "name": "sendETHToActivePool",
      "outputs": [],
      "stateMutability": "nonpayable",
      "type": "function"
    },
    {
      "inputs": [
        {
          "internalType": "uint256",
          "name": "_amount",
          "type": "uint256"
        }
      ],
      "name": "increaseLUSDDebt",
      "outputs": [],
      "stateMutability": "nonpayable",
      "type": "function"
    },
    {
      "inputs": [
        {
          "internalType": "uint256",
          "name": "_amount",
          "type": "uint256"
        }
      ],
      "name": "decreaseLUSDDebt",
      "outputs": [],
      "stateMutability": "nonpayable",
      "type": "function"
    }
  ],
  "bytecode": "0x608060405234801561001057600080fd5b50336000806101000a81548173ffffffffffffffffffffffffffffffffffffffff021916908373ffffffffffffffffffffffffffffffffffffffff1602179055503373ffffffffffffffffffffffffffffffffffffffff16600073ffffffffffffffffffffffffffffffffffffffff167f8be0079c531659141344cd1fd0a4f28419497f9722a3daafe3b4186f6b6457e060405160405180910390a3610cd9806100bb6000396000f3fe6080604052600436106100955760003560e01c80638f32d59b116100595780638f32d59b146101d757806390107afe14610204578063b08bc72214610275578063be41205f146102b6578063cfb9329a146102f1576100bf565b806314f6c3be146100c457806338d995a8146100ef5780635a4d28bb1461012a5780635eb52fca1461016b5780638da5cb5b14610196576100bf565b366100bf576100a261032c565b6100b7346003546103d490919063ffffffff16565b600381905550005b600080fd5b3480156100d057600080fd5b506100d961045c565b6040518082815260200191505060405180910390f35b3480156100fb57600080fd5b506101286004803603602081101561011257600080fd5b8101908080359060200190929190505050610466565b005b34801561013657600080fd5b5061013f61048c565b604051808273ffffffffffffffffffffffffffffffffffffffff16815260200191505060405180910390f35b34801561017757600080fd5b506101806104b2565b6040518082815260200191505060405180910390f35b3480156101a257600080fd5b506101ab6104bc565b604051808273ffffffffffffffffffffffffffffffffffffffff16815260200191505060405180910390f35b3480156101e357600080fd5b506101ec6104e5565b60405180821515815260200191505060405180910390f35b34801561021057600080fd5b506102736004803603604081101561022757600080fd5b81019080803573ffffffffffffffffffffffffffffffffffffffff169060200190929190803573ffffffffffffffffffffffffffffffffffffffff16906020019092919050505061053c565b005b34801561028157600080fd5b5061028a6106f0565b604051808273ffffffffffffffffffffffffffffffffffffffff16815260200191505060405180910390f35b3480156102c257600080fd5b506102ef600480360360208110156102d957600080fd5b8101908080359060200190929190505050610716565b005b3480156102fd57600080fd5b5061032a6004803603602081101561031457600080fd5b8101908080359060200190929190505050610896565b005b600260009054906101000a900473ffffffffffffffffffffffffffffffffffffffff1673ffffffffffffffffffffffffffffffffffffffff163373ffffffffffffffffffffffffffffffffffffffff16146103d2576040517f08c379a0000000000000000000000000000000000000000000000000000000008152600401808060200182810382526029815260200180610c506029913960400191505060405180910390fd5b565b600080828401905083811015610452576040517f08c379a000000000000000000000000000000000000000000000000000000000815260040180806020018281038252601b8152602001807f536166654d6174683a206164646974696f6e206f766572666c6f77000000000081525060200191505060405180910390fd5b8091505092915050565b6000600354905090565b61046e6108bc565b6104838160045461096490919063ffffffff16565b60048190555050565b600160009054906101000a900473ffffffffffffffffffffffffffffffffffffffff1681565b6000600454905090565b60008060009054906101000a900473ffffffffffffffffffffffffffffffffffffffff16905090565b60008060009054906101000a900473ffffffffffffffffffffffffffffffffffffffff1673ffffffffffffffffffffffffffffffffffffffff163373ffffffffffffffffffffffffffffffffffffffff1614905090565b6105446104e5565b6105b6576040517f08c379a00000000000000000000000000000000000000000000000000000000081526004018080602001828103825260208152602001807f4f776e61626c653a2063616c6c6572206973206e6f7420746865206f776e657281525060200191505060405180910390fd5b6105bf826109ae565b6105c8816109ae565b81600160006101000a81548173ffffffffffffffffffffffffffffffffffffffff021916908373ffffffffffffffffffffffffffffffffffffffff16021790555080600260006101000a81548173ffffffffffffffffffffffffffffffffffffffff021916908373ffffffffffffffffffffffffffffffffffffffff1602179055507f143219c9e69b09e07e095fcc889b43d8f46ca892bba65f08dc3a0050869a567882604051808273ffffffffffffffffffffffffffffffffffffffff16815260200191505060405180910390a17f78f058b189175430c48dc02699e3a0031ea4ff781536dc2fab847de4babdd88281604051808273ffffffffffffffffffffffffffffffffffffffff16815260200191505060405180910390a16106ec610ad1565b5050565b600260009054906101000a900473ffffffffffffffffffffffffffffffffffffffff1681565b61071e6108bc565b6000600260009054906101000a900473ffffffffffffffffffffffffffffffffffffffff16905061075a8260035461096490919063ffffffff16565b6003819055507f6109e2559dfa766aaec7118351d48a523f0a4157f49c8d68749c8ac41318ad128183604051808373ffffffffffffffffffffffffffffffffffffffff1681526020018281526020019250505060405180910390a160008173ffffffffffffffffffffffffffffffffffffffff168360405180600001905060006040518083038185875af1925050503d8060008114610815576040519150601f19603f3d011682016040523d82523d6000602084013e61081a565b606091505b5050905080610891576040517f08c379a000000000000000000000000000000000000000000000000000000000815260040180806020018281038252601f8152602001807f44656661756c74506f6f6c3a2073656e64696e6720455448206661696c65640081525060200191505060405180910390fd5b505050565b61089e6108bc565b6108b3816004546103d490919063ffffffff16565b60048190555050565b600160009054906101000a900473ffffffffffffffffffffffffffffffffffffffff1673ffffffffffffffffffffffffffffffffffffffff163373ffffffffffffffffffffffffffffffffffffffff1614610962576040517f08c379a000000000000000000000000000000000000000000000000000000000815260040180806020018281038252602b815260200180610c79602b913960400191505060405180910390fd5b565b60006109a683836040518060400160405280601e81526020017f536166654d6174683a207375627472616374696f6e206f766572666c6f770000815250610b8f565b905092915050565b600073ffffffffffffffffffffffffffffffffffffffff168173ffffffffffffffffffffffffffffffffffffffff161415610a51576040517f08c379a000000000000000000000000000000000000000000000000000000000815260040180806020018281038252601e8152602001807f4163636f756e742063616e6e6f74206265207a65726f2061646472657373000081525060200191505060405180910390fd5b6000813b905060008111610acd576040517f08c379a00000000000000000000000000000000000000000000000000000000081526004018080602001828103825260208152602001807f4163636f756e7420636f64652073697a652063616e6e6f74206265207a65726f81525060200191505060405180910390fd5b5050565b600073ffffffffffffffffffffffffffffffffffffffff1660008054906101000a900473ffffffffffffffffffffffffffffffffffffffff1673ffffffffffffffffffffffffffffffffffffffff167f8be0079c531659141344cd1fd0a4f28419497f9722a3daafe3b4186f6b6457e060405160405180910390a360008060006101000a81548173ffffffffffffffffffffffffffffffffffffffff021916908373ffffffffffffffffffffffffffffffffffffffff160217905550565b6000838311158290610c3c576040517f08c379a00000000000000000000000000000000000000000000000000000000081526004018080602001828103825283818151815260200191508051906020019080838360005b83811015610c01578082015181840152602081019050610be6565b50505050905090810190601f168015610c2e5780820380516001836020036101000a031916815260200191505b509250505060405180910390fd5b506000838503905080915050939250505056fe44656661756c74506f6f6c3a2043616c6c6572206973206e6f742074686520416374697665506f6f6c44656661756c74506f6f6c3a2043616c6c6572206973206e6f74207468652054726f76654d616e61676572a2646970667358221220f3dad19aa72a7869b04397d233f90f0a628c6947a9f95732120724af8986d02164736f6c63430007060033",
  "immutableReferences": {},
  "source": "// SPDX-License-Identifier: MIT\r\n\r\npragma solidity >=0.6.0 <0.8.0;\r\n\r\nimport \"./Interfaces/IDefaultPool.sol\";\r\nimport \"./Dependencies/TestSafeMath.sol\";\r\nimport \"./Dependencies/Ownable.sol\";\r\nimport \"./Dependencies/CheckContract.sol\";\r\nimport \"./Dependencies/console.sol\";\r\n\r\n/*\r\n * The Default Pool holds the ETH and LUSD debt (but not LUSD tokens) from liquidations that have been redistributed\r\n * to active troves but not yet \"applied\", i.e. not yet recorded on a recipient active trove's struct.\r\n *\r\n * When a trove makes an operation that applies its pending ETH and LUSD debt, its pending ETH and LUSD debt is moved\r\n * from the Default Pool to the Active Pool.\r\n */\r\ncontract DefaultPool is Ownable, CheckContract, IDefaultPool {\r\n    using TestSafeMath for uint256;\r\n\r\n    address public troveManagerAddress;\r\n    address public activePoolAddress;\r\n    uint256 internal ETH; // deposited ETH tracker\r\n    uint256 internal LUSDDebt; // debt\r\n\r\n    event TroveManagerAddressChanged(address _newTroveManagerAddress);\r\n\r\n    // --- Dependency setters ---\r\n\r\n    function setAddresses(\r\n        address _troveManagerAddress,\r\n        address _activePoolAddress\r\n    ) external onlyOwner {\r\n        checkContract(_troveManagerAddress);\r\n        checkContract(_activePoolAddress);\r\n\r\n        troveManagerAddress = _troveManagerAddress;\r\n        activePoolAddress = _activePoolAddress;\r\n\r\n        emit TroveManagerAddressChanged(_troveManagerAddress);\r\n        emit ActivePoolAddressChanged(_activePoolAddress);\r\n\r\n        _renounceOwnership();\r\n    }\r\n\r\n    // --- Getters for public variables. Required by IPool interface ---\r\n\r\n    /*\r\n     * Returns the ETH state variable.\r\n     *\r\n     * Not necessarily equal to the the contract's raw ETH balance - ether can be forcibly sent to contracts.\r\n     */\r\n    function getETH() external view override returns (uint256) {\r\n        return ETH;\r\n    }\r\n\r\n    function getLUSDDebt() external view override returns (uint256) {\r\n        return LUSDDebt;\r\n    }\r\n\r\n    // --- Pool functionality ---\r\n\r\n    function sendETHToActivePool(uint256 _amount) external override {\r\n        _requireCallerIsTroveManager();\r\n        address activePool = activePoolAddress; // cache to save an SLOAD\r\n        ETH = ETH.sub(_amount);\r\n        emit EtherSent(activePool, _amount);\r\n\r\n        (bool success, ) = activePool.call{value: _amount}(\"\");\r\n        require(success, \"DefaultPool: sending ETH failed\");\r\n    }\r\n\r\n    function increaseLUSDDebt(uint256 _amount) external override {\r\n        _requireCallerIsTroveManager();\r\n        LUSDDebt = LUSDDebt.add(_amount);\r\n    }\r\n\r\n    function decreaseLUSDDebt(uint256 _amount) external override {\r\n        _requireCallerIsTroveManager();\r\n        LUSDDebt = LUSDDebt.sub(_amount);\r\n    }\r\n\r\n    // --- 'require' functions ---\r\n\r\n    function _requireCallerIsActivePool() internal view {\r\n        require(\r\n            msg.sender == activePoolAddress,\r\n            \"DefaultPool: Caller is not the ActivePool\"\r\n        );\r\n    }\r\n\r\n    function _requireCallerIsTroveManager() internal view {\r\n        require(\r\n            msg.sender == troveManagerAddress,\r\n            \"DefaultPool: Caller is not the TroveManager\"\r\n        );\r\n    }\r\n\r\n    // --- Fallback function ---\r\n\r\n    receive() external payable {\r\n        _requireCallerIsActivePool();\r\n        ETH = ETH.add(msg.value);\r\n    }\r\n}\r\n",
  "sourcePath": "C:/Users/danie/code/harp/client/src/contracts/DefaultPool.sol",
  "compiler": {
    "name": "solc",
    "version": "0.7.6+commit.7338295f.Emscripten.clang"
  },
  "schemaVersion": "3.3.3",
  "updatedAt": "2021-02-19T17:49:41.856Z",
  "devdoc": {
    "kind": "dev",
    "methods": {
      "isOwner()": {
        "details": "Returns true if the caller is the current owner."
      },
      "owner()": {
        "details": "Returns the address of the current owner."
      }
    },
    "version": 1
  },
  "userdoc": {
    "kind": "user",
    "methods": {},
    "version": 1
  }
}