{
  "contractName": "Farm",
  "abi": [
    {
      "inputs": [
        {
          "internalType": "contract StringToken",
          "name": "_string",
          "type": "address"
        },
        {
          "internalType": "uint256",
          "name": "_boostedBuffer",
          "type": "uint256"
        }
      ],
      "stateMutability": "nonpayable",
      "type": "constructor"
    },
    {
      "anonymous": false,
      "inputs": [
        {
          "indexed": true,
          "internalType": "address",
          "name": "who",
          "type": "address"
        },
        {
          "indexed": false,
          "internalType": "uint256",
          "name": "amountClaimed",
          "type": "uint256"
        }
      ],
      "name": "Claim",
      "type": "event"
    },
    {
      "anonymous": false,
      "inputs": [
        {
          "indexed": true,
          "internalType": "address",
          "name": "user",
          "type": "address"
        },
        {
          "indexed": true,
          "internalType": "uint256",
          "name": "pid",
          "type": "uint256"
        },
        {
          "indexed": false,
          "internalType": "uint256",
          "name": "amount",
          "type": "uint256"
        }
      ],
      "name": "Deposit",
      "type": "event"
    },
    {
      "anonymous": false,
      "inputs": [
        {
          "indexed": true,
          "internalType": "address",
          "name": "user",
          "type": "address"
        },
        {
          "indexed": true,
          "internalType": "uint256",
          "name": "pid",
          "type": "uint256"
        },
        {
          "indexed": false,
          "internalType": "uint256",
          "name": "amount",
          "type": "uint256"
        }
      ],
      "name": "EmergencyWithdraw",
      "type": "event"
    },
    {
      "anonymous": false,
      "inputs": [
        {
          "indexed": true,
          "internalType": "address",
          "name": "user",
          "type": "address"
        },
        {
          "indexed": true,
          "internalType": "uint256",
          "name": "pid",
          "type": "uint256"
        },
        {
          "indexed": false,
          "internalType": "uint256",
          "name": "amount",
          "type": "uint256"
        }
      ],
      "name": "Withdraw",
      "type": "event"
    },
    {
      "inputs": [],
      "name": "boostedMultiplier",
      "outputs": [
        {
          "internalType": "uint256",
          "name": "",
          "type": "uint256"
        }
      ],
      "stateMutability": "view",
      "type": "function",
      "constant": true
    },
    {
      "inputs": [],
      "name": "creator",
      "outputs": [
        {
          "internalType": "address",
          "name": "",
          "type": "address"
        }
      ],
      "stateMutability": "view",
      "type": "function",
      "constant": true
    },
    {
      "inputs": [],
      "name": "endBlock",
      "outputs": [
        {
          "internalType": "uint256",
          "name": "",
          "type": "uint256"
        }
      ],
      "stateMutability": "view",
      "type": "function",
      "constant": true
    },
    {
      "inputs": [],
      "name": "isBoosted",
      "outputs": [
        {
          "internalType": "bool",
          "name": "",
          "type": "bool"
        }
      ],
      "stateMutability": "view",
      "type": "function",
      "constant": true
    },
    {
      "inputs": [
        {
          "internalType": "uint256",
          "name": "",
          "type": "uint256"
        }
      ],
      "name": "poolInfo",
      "outputs": [
        {
          "internalType": "contract IERC20",
          "name": "lpToken",
          "type": "address"
        },
        {
          "internalType": "uint256",
          "name": "allocPoint",
          "type": "uint256"
        },
        {
          "internalType": "uint256",
          "name": "lastRewardBlock",
          "type": "uint256"
        },
        {
          "internalType": "uint256",
          "name": "accStringPerShare",
          "type": "uint256"
        }
      ],
      "stateMutability": "view",
      "type": "function",
      "constant": true
    },
    {
      "inputs": [],
      "name": "postBoostedBlock",
      "outputs": [
        {
          "internalType": "uint256",
          "name": "",
          "type": "uint256"
        }
      ],
      "stateMutability": "view",
      "type": "function",
      "constant": true
    },
    {
      "inputs": [],
      "name": "startBlock",
      "outputs": [
        {
          "internalType": "uint256",
          "name": "",
          "type": "uint256"
        }
      ],
      "stateMutability": "view",
      "type": "function",
      "constant": true
    },
    {
      "inputs": [],
      "name": "stringPerBlock",
      "outputs": [
        {
          "internalType": "uint256",
          "name": "",
          "type": "uint256"
        }
      ],
      "stateMutability": "view",
      "type": "function",
      "constant": true
    },
    {
      "inputs": [],
      "name": "stringToken",
      "outputs": [
        {
          "internalType": "contract StringToken",
          "name": "",
          "type": "address"
        }
      ],
      "stateMutability": "view",
      "type": "function",
      "constant": true
    },
    {
      "inputs": [],
      "name": "totalAllocPoint",
      "outputs": [
        {
          "internalType": "uint256",
          "name": "",
          "type": "uint256"
        }
      ],
      "stateMutability": "view",
      "type": "function",
      "constant": true
    },
    {
      "inputs": [
        {
          "internalType": "uint256",
          "name": "",
          "type": "uint256"
        },
        {
          "internalType": "address",
          "name": "",
          "type": "address"
        }
      ],
      "name": "userInfo",
      "outputs": [
        {
          "internalType": "uint256",
          "name": "amount",
          "type": "uint256"
        },
        {
          "internalType": "uint256",
          "name": "rewardDebt",
          "type": "uint256"
        }
      ],
      "stateMutability": "view",
      "type": "function",
      "constant": true
    },
    {
      "inputs": [],
      "name": "poolLength",
      "outputs": [
        {
          "internalType": "uint256",
          "name": "",
          "type": "uint256"
        }
      ],
      "stateMutability": "view",
      "type": "function",
      "constant": true
    },
    {
      "inputs": [
        {
          "internalType": "uint256",
          "name": "_allocPoint",
          "type": "uint256"
        },
        {
          "internalType": "contract IERC20",
          "name": "_lpToken",
          "type": "address"
        },
        {
          "internalType": "bool",
          "name": "_withUpdate",
          "type": "bool"
        }
      ],
      "name": "addPool",
      "outputs": [],
      "stateMutability": "nonpayable",
      "type": "function"
    },
    {
      "inputs": [
        {
          "internalType": "uint256",
          "name": "_pid",
          "type": "uint256"
        },
        {
          "internalType": "uint256",
          "name": "_allocPoint",
          "type": "uint256"
        },
        {
          "internalType": "bool",
          "name": "_withUpdate",
          "type": "bool"
        }
      ],
      "name": "set",
      "outputs": [],
      "stateMutability": "nonpayable",
      "type": "function"
    },
    {
      "inputs": [
        {
          "internalType": "uint256",
          "name": "_from",
          "type": "uint256"
        },
        {
          "internalType": "uint256",
          "name": "_to",
          "type": "uint256"
        }
      ],
      "name": "getMultiplier",
      "outputs": [
        {
          "internalType": "uint256",
          "name": "",
          "type": "uint256"
        }
      ],
      "stateMutability": "view",
      "type": "function",
      "constant": true
    },
    {
      "inputs": [
        {
          "internalType": "uint256",
          "name": "_pid",
          "type": "uint256"
        },
        {
          "internalType": "address",
          "name": "_user",
          "type": "address"
        }
      ],
      "name": "pendingString",
      "outputs": [
        {
          "internalType": "uint256",
          "name": "",
          "type": "uint256"
        }
      ],
      "stateMutability": "view",
      "type": "function",
      "constant": true
    },
    {
      "inputs": [],
      "name": "massUpdatePools",
      "outputs": [],
      "stateMutability": "nonpayable",
      "type": "function"
    },
    {
      "inputs": [
        {
          "internalType": "uint256",
          "name": "_pid",
          "type": "uint256"
        }
      ],
      "name": "updatePool",
      "outputs": [],
      "stateMutability": "nonpayable",
      "type": "function"
    },
    {
      "inputs": [
        {
          "internalType": "uint256",
          "name": "_pid",
          "type": "uint256"
        },
        {
          "internalType": "uint256",
          "name": "_amount",
          "type": "uint256"
        }
      ],
      "name": "deposit",
      "outputs": [],
      "stateMutability": "nonpayable",
      "type": "function"
    },
    {
      "inputs": [
        {
          "internalType": "uint256",
          "name": "_pid",
          "type": "uint256"
        },
        {
          "internalType": "uint256",
          "name": "_amount",
          "type": "uint256"
        }
      ],
      "name": "withdraw",
      "outputs": [],
      "stateMutability": "nonpayable",
      "type": "function"
    },
    {
      "inputs": [
        {
          "internalType": "uint256",
          "name": "_pid",
          "type": "uint256"
        }
      ],
      "name": "claim",
      "outputs": [],
      "stateMutability": "nonpayable",
      "type": "function"
    },
    {
      "inputs": [
        {
          "internalType": "uint256",
          "name": "_pid",
          "type": "uint256"
        }
      ],
      "name": "emergencyWithdraw",
      "outputs": [],
      "stateMutability": "nonpayable",
      "type": "function"
    }
  ],
  "bytecode": "0x60806040526708e5616c97b8da006003556001600560006101000a81548160ff02191690831515021790555060006008553480156200003d57600080fd5b506040516200242e3803806200242e833981810160405260408110156200006357600080fd5b810190808051906020019092919080519060200190929190505050816000806101000a81548173ffffffffffffffffffffffffffffffffffffffff021916908373ffffffffffffffffffffffffffffffffffffffff160217905550620000db6225317c436200015160201b620016d61790919060201c565b600281905550436009819055506200010281436200015160201b620016d61790919060201c565b60048190555033600160006101000a81548173ffffffffffffffffffffffffffffffffffffffff021916908373ffffffffffffffffffffffffffffffffffffffff1602179055505050620001da565b600080828401905083811015620001d0576040517f08c379a000000000000000000000000000000000000000000000000000000000815260040180806020018281038252601b8152602001807f536166654d6174683a206164646974696f6e206f766572666c6f77000000000081525060200191505060405180910390fd5b8091505092915050565b61224480620001ea6000396000f3fe608060405234801561001057600080fd5b50600436106101425760003560e01c806351eb05a6116100b85780637abceffd1161007c5780637abceffd146104585780638dbb1e3a146104b257806393f1a40b146104fe578063b689755914610567578063df5e898714610589578063e2bbb158146105d357610142565b806351eb05a61461034c5780635312ea8e1461037a578063630b5ba1146103a857806364482f79146103b25780636d643304146103f657610142565b80631526fe271161010a5780631526fe271461020957806317caf6f11461028c578063350bac34146102aa578063379607f5146102c8578063441a3e70146102f657806348cd4cb11461032e57610142565b806302d05d3f14610147578063081e3eda14610191578063083c6323146101af5780630b5f91fc146101cd5780630d483ae1146101eb575b600080fd5b61014f61060b565b604051808273ffffffffffffffffffffffffffffffffffffffff1673ffffffffffffffffffffffffffffffffffffffff16815260200191505060405180910390f35b610199610631565b6040518082815260200191505060405180910390f35b6101b761063e565b6040518082815260200191505060405180910390f35b6101d5610644565b6040518082815260200191505060405180910390f35b6101f361064a565b6040518082815260200191505060405180910390f35b6102356004803603602081101561021f57600080fd5b810190808035906020019092919050505061064f565b604051808573ffffffffffffffffffffffffffffffffffffffff1673ffffffffffffffffffffffffffffffffffffffff16815260200184815260200183815260200182815260200194505050505060405180910390f35b6102946106ac565b6040518082815260200191505060405180910390f35b6102b26106b2565b6040518082815260200191505060405180910390f35b6102f4600480360360208110156102de57600080fd5b81019080803590602001909291905050506106b8565b005b61032c6004803603604081101561030c57600080fd5b8101908080359060200190929190803590602001909291905050506107da565b005b6103366109e6565b6040518082815260200191505060405180910390f35b6103786004803603602081101561036257600080fd5b81019080803590602001909291905050506109ec565b005b6103a66004803603602081101561039057600080fd5b8101908080359060200190929190505050610d9d565b005b6103b0610ecf565b005b6103f4600480360360608110156103c857600080fd5b810190808035906020019092919080359060200190929190803515159060200190929190505050610eff565b005b6104426004803603604081101561040c57600080fd5b8101908080359060200190929190803573ffffffffffffffffffffffffffffffffffffffff169060200190929190505050611027565b6040518082815260200191505060405180910390f35b6104b06004803603606081101561046e57600080fd5b8101908080359060200190929190803573ffffffffffffffffffffffffffffffffffffffff1690602001909291908035151590602001909291905050506112bf565b005b6104e8600480360360408110156104c857600080fd5b810190808035906020019092919080359060200190929190505050611476565b6040518082815260200191505060405180910390f35b61054a6004803603604081101561051457600080fd5b8101908080359060200190929190803573ffffffffffffffffffffffffffffffffffffffff1690602001909291905050506114cb565b604051808381526020018281526020019250505060405180910390f35b61056f6114fc565b604051808215151515815260200191505060405180910390f35b61059161150f565b604051808273ffffffffffffffffffffffffffffffffffffffff1673ffffffffffffffffffffffffffffffffffffffff16815260200191505060405180910390f35b610609600480360360408110156105e957600080fd5b810190808035906020019092919080359060200190929190505050611534565b005b600160009054906101000a900473ffffffffffffffffffffffffffffffffffffffff1681565b6000600680549050905090565b60025481565b60045481565b600581565b6006818154811061065c57fe5b90600052602060002090600402016000915090508060000160009054906101000a900473ffffffffffffffffffffffffffffffffffffffff16908060010154908060020154908060030154905084565b60085481565b60035481565b6000600682815481106106c757fe5b9060005260206000209060040201905060006007600084815260200190815260200160002060003373ffffffffffffffffffffffffffffffffffffffff1673ffffffffffffffffffffffffffffffffffffffff1681526020019081526020016000209050610734836109ec565b6000610740828461175e565b905061074c33826117e7565b61077e64e8d4a5100061077085600301548560000154611a9f90919063ffffffff16565b611b2590919063ffffffff16565b82600101819055503373ffffffffffffffffffffffffffffffffffffffff167f47cee97cb7acd717b3c0aa1435d004cd5b3c8c57d70dbceb4e4458bbd60e39d4826040518082815260200191505060405180910390a250505050565b6000600683815481106107e957fe5b9060005260206000209060040201905060006007600085815260200190815260200160002060003373ffffffffffffffffffffffffffffffffffffffff1673ffffffffffffffffffffffffffffffffffffffff168152602001908152602001600020905082816000015410156108c7576040517f08c379a00000000000000000000000000000000000000000000000000000000081526004018080602001828103825260128152602001807f77697468647261773a206e6f7420676f6f64000000000000000000000000000081525060200191505060405180910390fd5b6108d0846109ec565b60006108dc828461175e565b90506108e833826117e7565b6108ff848360000154611bae90919063ffffffff16565b826000018190555061093964e8d4a5100061092b85600301548560000154611a9f90919063ffffffff16565b611b2590919063ffffffff16565b826001018190555061099033858560000160009054906101000a900473ffffffffffffffffffffffffffffffffffffffff1673ffffffffffffffffffffffffffffffffffffffff16611c319092919063ffffffff16565b843373ffffffffffffffffffffffffffffffffffffffff167ff279e6a1f5e320cca91135676d9cb6e44ca8a08c0b88342bcdb1144f6511b568866040518082815260200191505060405180910390a35050505050565b60095481565b6000600682815481106109fb57fe5b9060005260206000209060040201905080600201544311610a1c5750610d9a565b60008160000160009054906101000a900473ffffffffffffffffffffffffffffffffffffffff1673ffffffffffffffffffffffffffffffffffffffff166370a08231306040518263ffffffff1660e01b8152600401808273ffffffffffffffffffffffffffffffffffffffff1673ffffffffffffffffffffffffffffffffffffffff16815260200191505060206040518083038186803b158015610abf57600080fd5b505afa158015610ad3573d6000803e3d6000fd5b505050506040513d6020811015610ae957600080fd5b810190808051906020019092919050505090506000811415610b15574382600201819055505050610d9a565b6000610b25836002015443611476565b90506000610b68600854610b5a8660010154610b4c60035487611a9f90919063ffffffff16565b611a9f90919063ffffffff16565b611b2590919063ffffffff16565b9050600454431015610c52576000610b8a600583611a9f90919063ffffffff16565b90506000809054906101000a900473ffffffffffffffffffffffffffffffffffffffff1673ffffffffffffffffffffffffffffffffffffffff1663449a52f830836040518363ffffffff1660e01b8152600401808373ffffffffffffffffffffffffffffffffffffffff1673ffffffffffffffffffffffffffffffffffffffff16815260200182815260200192505050600060405180830381600087803b158015610c3457600080fd5b505af1158015610c48573d6000803e3d6000fd5b5050505050610d44565b600560009054906101000a900460ff1615610c83576000600560006101000a81548160ff0219169083151502179055505b6000809054906101000a900473ffffffffffffffffffffffffffffffffffffffff1673ffffffffffffffffffffffffffffffffffffffff1663449a52f830836040518363ffffffff1660e01b8152600401808373ffffffffffffffffffffffffffffffffffffffff1673ffffffffffffffffffffffffffffffffffffffff16815260200182815260200192505050600060405180830381600087803b158015610d2b57600080fd5b505af1158015610d3f573d6000803e3d6000fd5b505050505b610d84610d7184610d6364e8d4a5100085611a9f90919063ffffffff16565b611b2590919063ffffffff16565b85600301546116d690919063ffffffff16565b8460030181905550438460020181905550505050505b50565b600060068281548110610dac57fe5b9060005260206000209060040201905060006007600084815260200190815260200160002060003373ffffffffffffffffffffffffffffffffffffffff1673ffffffffffffffffffffffffffffffffffffffff1681526020019081526020016000209050610e633382600001548460000160009054906101000a900473ffffffffffffffffffffffffffffffffffffffff1673ffffffffffffffffffffffffffffffffffffffff16611c319092919063ffffffff16565b823373ffffffffffffffffffffffffffffffffffffffff167fbb757047c2b5f3974fe26b7c10f732e7bce710b0952a71082702781e62ae059583600001546040518082815260200191505060405180910390a36000816000018190555060008160010181905550505050565b6000600680549050905060008090505b81811015610efb57610ef0816109ec565b806001019050610edf565b5050565b600160009054906101000a900473ffffffffffffffffffffffffffffffffffffffff1673ffffffffffffffffffffffffffffffffffffffff163373ffffffffffffffffffffffffffffffffffffffff1614610fa5576040517f08c379a00000000000000000000000000000000000000000000000000000000081526004018080602001828103825260218152602001806121c46021913960400191505060405180910390fd5b8015610fb457610fb3610ecf565b5b610ff982610feb60068681548110610fc857fe5b906000526020600020906004020160010154600854611bae90919063ffffffff16565b6116d690919063ffffffff16565b600881905550816006848154811061100d57fe5b906000526020600020906004020160010181905550505050565b6000806006848154811061103757fe5b9060005260206000209060040201905060006007600086815260200190815260200160002060008573ffffffffffffffffffffffffffffffffffffffff1673ffffffffffffffffffffffffffffffffffffffff168152602001908152602001600020905060008260030154905060008360000160009054906101000a900473ffffffffffffffffffffffffffffffffffffffff1673ffffffffffffffffffffffffffffffffffffffff166370a08231306040518263ffffffff1660e01b8152600401808273ffffffffffffffffffffffffffffffffffffffff1673ffffffffffffffffffffffffffffffffffffffff16815260200191505060206040518083038186803b15801561114757600080fd5b505afa15801561115b573d6000803e3d6000fd5b505050506040513d602081101561117157600080fd5b81019080805190602001909291905050509050836002015443118015611198575060008114155b156112335760006111ad856002015443611476565b905060006111f06008546111e288600101546111d460035487611a9f90919063ffffffff16565b611a9f90919063ffffffff16565b611b2590919063ffffffff16565b905061122e61121f8461121164e8d4a5100085611a9f90919063ffffffff16565b611b2590919063ffffffff16565b856116d690919063ffffffff16565b935050505b6000611279846001015461126b64e8d4a5100061125d878960000154611a9f90919063ffffffff16565b611b2590919063ffffffff16565b611bae90919063ffffffff16565b9050600560009054906101000a900460ff16156112b0576112a4600582611a9f90919063ffffffff16565b955050505050506112b9565b80955050505050505b92915050565b600160009054906101000a900473ffffffffffffffffffffffffffffffffffffffff1673ffffffffffffffffffffffffffffffffffffffff163373ffffffffffffffffffffffffffffffffffffffff1614611365576040517f08c379a00000000000000000000000000000000000000000000000000000000081526004018080602001828103825260218152602001806121c46021913960400191505060405180910390fd5b801561137457611373610ecf565b5b6000600954431161138757600954611389565b435b90506113a0846008546116d690919063ffffffff16565b600881905550600660405180608001604052808573ffffffffffffffffffffffffffffffffffffffff1681526020018681526020018381526020016000815250908060018154018082558091505060019003906000526020600020906004020160009091909190915060008201518160000160006101000a81548173ffffffffffffffffffffffffffffffffffffffff021916908373ffffffffffffffffffffffffffffffffffffffff160217905550602082015181600101556040820151816002015560608201518160030155505050505050565b6000600254821161149b576114948383611bae90919063ffffffff16565b90506114c5565b60025483106114ad57600090506114c5565b6114c283600254611bae90919063ffffffff16565b90505b92915050565b6007602052816000526040600020602052806000526040600020600091509150508060000154908060010154905082565b600560009054906101000a900460ff1681565b6000809054906101000a900473ffffffffffffffffffffffffffffffffffffffff1681565b60006006838154811061154357fe5b9060005260206000209060040201905060006007600085815260200190815260200160002060003373ffffffffffffffffffffffffffffffffffffffff1673ffffffffffffffffffffffffffffffffffffffff16815260200190815260200160002090506115b0846109ec565b6000816000015411156115d75760006115c9828461175e565b90506115d533826117e7565b505b6116283330858560000160009054906101000a900473ffffffffffffffffffffffffffffffffffffffff1673ffffffffffffffffffffffffffffffffffffffff16611ce9909392919063ffffffff16565b61163f8382600001546116d690919063ffffffff16565b816000018190555061167964e8d4a5100061166b84600301548460000154611a9f90919063ffffffff16565b611b2590919063ffffffff16565b8160010181905550833373ffffffffffffffffffffffffffffffffffffffff167f90890809c654f11d6e72a28fa60149770a0d11ec6c92319d6ceb2bb0a4ea1a15856040518082815260200191505060405180910390a350505050565b600080828401905083811015611754576040517f08c379a000000000000000000000000000000000000000000000000000000000815260040180806020018281038252601b8152602001807f536166654d6174683a206164646974696f6e206f766572666c6f77000000000081525060200191505060405180910390fd5b8091505092915050565b6000806117a9846001015461179b64e8d4a5100061178d87600301548960000154611a9f90919063ffffffff16565b611b2590919063ffffffff16565b611bae90919063ffffffff16565b9050600560009054906101000a900460ff16156117dc576117d4600582611a9f90919063ffffffff16565b9150506117e1565b809150505b92915050565b60008060009054906101000a900473ffffffffffffffffffffffffffffffffffffffff1673ffffffffffffffffffffffffffffffffffffffff166370a08231306040518263ffffffff1660e01b8152600401808273ffffffffffffffffffffffffffffffffffffffff1673ffffffffffffffffffffffffffffffffffffffff16815260200191505060206040518083038186803b15801561188757600080fd5b505afa15801561189b573d6000803e3d6000fd5b505050506040513d60208110156118b157600080fd5b81019080805190602001909291905050509050808211156119b5576000809054906101000a900473ffffffffffffffffffffffffffffffffffffffff1673ffffffffffffffffffffffffffffffffffffffff1663a9059cbb84836040518363ffffffff1660e01b8152600401808373ffffffffffffffffffffffffffffffffffffffff1673ffffffffffffffffffffffffffffffffffffffff16815260200182815260200192505050602060405180830381600087803b15801561197457600080fd5b505af1158015611988573d6000803e3d6000fd5b505050506040513d602081101561199e57600080fd5b810190808051906020019092919050505050611a9a565b6000809054906101000a900473ffffffffffffffffffffffffffffffffffffffff1673ffffffffffffffffffffffffffffffffffffffff1663a9059cbb84846040518363ffffffff1660e01b8152600401808373ffffffffffffffffffffffffffffffffffffffff1673ffffffffffffffffffffffffffffffffffffffff16815260200182815260200192505050602060405180830381600087803b158015611a5d57600080fd5b505af1158015611a71573d6000803e3d6000fd5b505050506040513d6020811015611a8757600080fd5b8101908080519060200190929190505050505b505050565b600080831415611ab25760009050611b1f565b6000828402905082848281611ac357fe5b0414611b1a576040517f08c379a00000000000000000000000000000000000000000000000000000000081526004018080602001828103825260218152602001806121a36021913960400191505060405180910390fd5b809150505b92915050565b6000808211611b9c576040517f08c379a000000000000000000000000000000000000000000000000000000000815260040180806020018281038252601a8152602001807f536166654d6174683a206469766973696f6e206279207a65726f00000000000081525060200191505060405180910390fd5b818381611ba557fe5b04905092915050565b600082821115611c26576040517f08c379a000000000000000000000000000000000000000000000000000000000815260040180806020018281038252601e8152602001807f536166654d6174683a207375627472616374696f6e206f766572666c6f77000081525060200191505060405180910390fd5b818303905092915050565b611ce48363a9059cbb60e01b8484604051602401808373ffffffffffffffffffffffffffffffffffffffff1673ffffffffffffffffffffffffffffffffffffffff16815260200182815260200192505050604051602081830303815290604052907bffffffffffffffffffffffffffffffffffffffffffffffffffffffff19166020820180517bffffffffffffffffffffffffffffffffffffffffffffffffffffffff8381831617835250505050611dd6565b505050565b611dd0846323b872dd60e01b858585604051602401808473ffffffffffffffffffffffffffffffffffffffff1673ffffffffffffffffffffffffffffffffffffffff1681526020018373ffffffffffffffffffffffffffffffffffffffff1673ffffffffffffffffffffffffffffffffffffffff1681526020018281526020019350505050604051602081830303815290604052907bffffffffffffffffffffffffffffffffffffffffffffffffffffffff19166020820180517bffffffffffffffffffffffffffffffffffffffffffffffffffffffff8381831617835250505050611dd6565b50505050565b6060611e38826040518060400160405280602081526020017f5361666545524332303a206c6f772d6c6576656c2063616c6c206661696c65648152508573ffffffffffffffffffffffffffffffffffffffff16611ec59092919063ffffffff16565b9050600081511115611ec057808060200190516020811015611e5957600080fd5b8101908080519060200190929190505050611ebf576040517f08c379a000000000000000000000000000000000000000000000000000000000815260040180806020018281038252602a8152602001806121e5602a913960400191505060405180910390fd5b5b505050565b6060611ed48484600085611edd565b90509392505050565b6060823073ffffffffffffffffffffffffffffffffffffffff16311015611f4f576040517f08c379a000000000000000000000000000000000000000000000000000000000815260040180806020018281038252602681526020018061217d6026913960400191505060405180910390fd5b611f588561209d565b611fca576040517f08c379a000000000000000000000000000000000000000000000000000000000815260040180806020018281038252601d8152602001807f416464726573733a2063616c6c20746f206e6f6e2d636f6e747261637400000081525060200191505060405180910390fd5b600060608673ffffffffffffffffffffffffffffffffffffffff1685876040518082805190602001908083835b6020831061201a5780518252602082019150602081019050602083039250611ff7565b6001836020036101000a03801982511681845116808217855250505050505090500191505060006040518083038185875af1925050503d806000811461207c576040519150601f19603f3d011682016040523d82523d6000602084013e612081565b606091505b50915091506120918282866120b0565b92505050949350505050565b600080823b905060008111915050919050565b606083156120c057829050612175565b6000835111156120d35782518084602001fd5b816040517f08c379a00000000000000000000000000000000000000000000000000000000081526004018080602001828103825283818151815260200191508051906020019080838360005b8381101561213a57808201518184015260208101905061211f565b50505050905090810190601f1680156121675780820380516001836020036101000a031916815260200191505b509250505060405180910390fd5b939250505056fe416464726573733a20696e73756666696369656e742062616c616e636520666f722063616c6c536166654d6174683a206d756c7469706c69636174696f6e206f766572666c6f776f6e6c792063726561746f722063616e2063616c6c2074686973206d6574686f645361666545524332303a204552433230206f7065726174696f6e20646964206e6f742073756363656564a2646970667358221220da2f46febc0caa5c3571802193b1305a87e7a87c2967b08b4e88b773f467b8c564736f6c634300060b0033",
  "immutableReferences": {},
  "source": "// SPDX-License-Identifier: MIT\n\npragma solidity 0.6.11;\nimport \"@openzeppelin/contracts/math/SafeMath.sol\";\nimport \"@openzeppelin/contracts/token/ERC20/IERC20.sol\";\nimport \"@openzeppelin/contracts/token/ERC20/SafeERC20.sol\";\nimport \"./StringToken.sol\";\n\ncontract Farm {\n    using SafeMath for uint256;\n    using SafeERC20 for IERC20;\n\n    // Info of each user.\n    struct UserInfo {\n        uint256 amount; // How many LP tokens the user has provided.\n        uint256 rewardDebt; // Reward debt. See explanation below.\n        //\n        // We do some fancy math here. Basically, any point in time, the amount of STRING\n        // entitled to a user but is pending to be distributed is:\n        //\n        //   pending reward = (user.amount * pool.accstringPerShare) - user.rewardDebt\n        //\n        // Whenever a user deposits or withdraws LP tokens to a pool. Here's what happens:\n        //   1. The pool's `accStringPerShare` (and `lastRewardBlock`) gets updated.\n        //   2. User receives the pending reward sent to his/her address.\n        //   3. User's `amount` gets updated.\n        //   4. User's `rewardDebt` gets updated.\n    }\n\n    // Info of each pool.\n    struct PoolInfo {\n        IERC20 lpToken; // Address of LP token contract.\n        uint256 allocPoint; // How many allocation points assigned to this pool. STRING to distribute per block.\n        uint256 lastRewardBlock; // Last block number that STRING distribution occurs.\n        uint256 accStringPerShare; // Accumulated STRING per share, times 1e12. See below.\n    }\n\n    // The STRING TOKEN!\n    StringToken public stringToken;\n    // creator address.\n    address public creator;\n    // Block number when bonus STRING period ends.\n    uint256 public endBlock;\n    // STRING tokens created per block.\n    uint256 public stringPerBlock = 641025641000000000;\n    uint256 public postBoostedBlock;\n    uint256 public constant boostedMultiplier = 5;\n    bool public isBoosted = true;\n\n    // Info of each pool.\n    PoolInfo[] public poolInfo;\n    // Info of each user that stakes LP tokens.\n    mapping(uint256 => mapping(address => UserInfo)) public userInfo;\n    // Total allocation poitns. Must be the sum of all allocation points in all pools.\n    uint256 public totalAllocPoint = 0;\n    // The block number when STRING mining starts.\n    uint256 public startBlock;\n\n    event Deposit(address indexed user, uint256 indexed pid, uint256 amount);\n    event Withdraw(address indexed user, uint256 indexed pid, uint256 amount);\n    event Claim(address indexed who, uint256 amountClaimed);\n    event EmergencyWithdraw(\n        address indexed user,\n        uint256 indexed pid,\n        uint256 amount\n    );\n\n     modifier onlyCreator() {\n        require(msg.sender == creator, \"only creator can call this method\");\n        _;\n    }\n\n    constructor(StringToken _string, uint256 _boostedBuffer) public {\n        stringToken = _string;\n        endBlock = block.number.add(2437500);\n        startBlock = block.number;\n        postBoostedBlock = block.number.add(_boostedBuffer);\n        creator = msg.sender;\n    }\n\n    function poolLength() external view returns (uint256) {\n        return poolInfo.length;\n    }\n\n    // Add a new lp to the pool. Can only be called by the owner.\n    // XXX DO NOT add the same LP token more than once. Rewards will be messed up if you do.\n    function addPool(\n        uint256 _allocPoint,\n        IERC20 _lpToken,\n        bool _withUpdate\n    ) external onlyCreator {\n        if (_withUpdate) {\n            massUpdatePools();\n        }\n        uint256 lastRewardBlock =\n            block.number > startBlock ? block.number : startBlock;\n        totalAllocPoint = totalAllocPoint.add(_allocPoint);\n        poolInfo.push(\n            PoolInfo({\n                lpToken: _lpToken,\n                allocPoint: _allocPoint,\n                lastRewardBlock: lastRewardBlock,\n                accStringPerShare: 0\n            })\n        );\n    }\n\n    // Update the given pool's STRING allocation point. Can only be called by the owner.\n    function set(\n        uint256 _pid,\n        uint256 _allocPoint,\n        bool _withUpdate\n    ) external onlyCreator {\n        if (_withUpdate) {\n            massUpdatePools();\n        }\n        totalAllocPoint = totalAllocPoint.sub(poolInfo[_pid].allocPoint).add(\n            _allocPoint\n        );\n        poolInfo[_pid].allocPoint = _allocPoint;\n    }\n\n    // Return reward multiplier over the given _from to _to block.\n    function getMultiplier(uint256 _from, uint256 _to)\n        public\n        view\n        returns (uint256)\n    {\n        if (_to <= endBlock) {\n            return _to.sub(_from);\n        } else if (_from >= endBlock) {\n            return 0;\n        } else {\n            return endBlock.sub(_from);\n        }\n    }\n\n    // View function to see pending STRING on frontend.\n    function pendingString(uint256 _pid, address _user)\n        external\n        view\n        returns (uint256)\n    {\n        PoolInfo storage pool = poolInfo[_pid];\n        UserInfo storage user = userInfo[_pid][_user];\n        uint256 accStringPerShare = pool.accStringPerShare;\n        uint256 lpSupply = pool.lpToken.balanceOf(address(this));\n        if (block.number > pool.lastRewardBlock && lpSupply != 0) {\n            uint256 multiplier =\n                getMultiplier(pool.lastRewardBlock, block.number);\n            uint256 stringReward =\n                multiplier.mul(stringPerBlock).mul(pool.allocPoint).div(\n                    totalAllocPoint\n                );\n            accStringPerShare = accStringPerShare.add(\n                stringReward.mul(1e12).div(lpSupply)\n            );\n        }\n        uint256 pending =\n            user.amount.mul(accStringPerShare).div(1e12).sub(user.rewardDebt);\n\n        if (isBoosted) {\n            return pending.mul(boostedMultiplier);\n        } else {\n            return pending;\n        }\n    }\n\n    // Update reward vairables for all pools. Be careful of gas spending!\n    function massUpdatePools() public {\n        uint256 length = poolInfo.length;\n        for (uint256 pid = 0; pid < length; ++pid) {\n            updatePool(pid);\n        }\n    }\n\n    // Update reward variables of the given pool to be up-to-date.\n    function updatePool(uint256 _pid) public {\n        PoolInfo storage pool = poolInfo[_pid];\n        if (block.number <= pool.lastRewardBlock) {\n            return;\n        }\n        uint256 lpSupply = pool.lpToken.balanceOf(address(this));\n        if (lpSupply == 0) {\n            pool.lastRewardBlock = block.number;\n            return;\n        }\n\n        uint256 multiplier = getMultiplier(pool.lastRewardBlock, block.number);\n        uint256 stringReward =\n            multiplier.mul(stringPerBlock).mul(pool.allocPoint).div(\n                totalAllocPoint\n            );\n        if (block.number < postBoostedBlock) {\n            uint256 boostedReward = stringReward.mul(boostedMultiplier);\n            stringToken.mintTo(address(this), boostedReward);\n        } else {\n            if (isBoosted) {\n                isBoosted = false;\n            }\n            stringToken.mintTo(address(this), stringReward);\n        }\n\n        pool.accStringPerShare = pool.accStringPerShare.add(\n            stringReward.mul(1e12).div(lpSupply)\n        );\n        pool.lastRewardBlock = block.number;\n    }\n\n    // Deposit LP tokens to Farm for STRING allocation.\n    function deposit(uint256 _pid, uint256 _amount) external {\n        PoolInfo storage pool = poolInfo[_pid];\n        UserInfo storage user = userInfo[_pid][msg.sender];\n        updatePool(_pid);\n        if (user.amount > 0) {\n            uint256 pending = _pending(user, pool);\n            _safeStringTransfer(msg.sender, pending);\n        }\n        pool.lpToken.safeTransferFrom(\n            address(msg.sender),\n            address(this),\n            _amount\n        );\n        user.amount = user.amount.add(_amount);\n        user.rewardDebt = user.amount.mul(pool.accStringPerShare).div(1e12);\n        emit Deposit(msg.sender, _pid, _amount);\n    }\n\n    // Withdraw LP tokens from Farm.\n    function withdraw(uint256 _pid, uint256 _amount) external {\n        PoolInfo storage pool = poolInfo[_pid];\n        UserInfo storage user = userInfo[_pid][msg.sender];\n        require(user.amount >= _amount, \"withdraw: not good\");\n        updatePool(_pid);\n        uint256 pending = _pending(user, pool);\n        _safeStringTransfer(msg.sender, pending);\n        user.amount = user.amount.sub(_amount);\n        user.rewardDebt = user.amount.mul(pool.accStringPerShare).div(1e12);\n        pool.lpToken.safeTransfer(address(msg.sender), _amount);\n        emit Withdraw(msg.sender, _pid, _amount);\n    }\n\n    function claim(uint256 _pid) external {\n        PoolInfo storage pool = poolInfo[_pid];\n        UserInfo storage user = userInfo[_pid][msg.sender];\n        updatePool(_pid);\n        uint256 pending = _pending(user, pool);\n        _safeStringTransfer(msg.sender, pending);\n        user.rewardDebt = user.amount.mul(pool.accStringPerShare).div(1e12);\n        emit Claim(msg.sender, pending);\n    }\n\n    // Withdraw without caring about rewards. EMERGENCY ONLY.\n    function emergencyWithdraw(uint256 _pid) external {\n        PoolInfo storage pool = poolInfo[_pid];\n        UserInfo storage user = userInfo[_pid][msg.sender];\n        pool.lpToken.safeTransfer(address(msg.sender), user.amount);\n        emit EmergencyWithdraw(msg.sender, _pid, user.amount);\n        user.amount = 0;\n        user.rewardDebt = 0;\n    }\n\n    // Safe STRING transfer function, just in case if rounding error causes pool to not have enough STRING.\n    function _safeStringTransfer(address _to, uint256 _amount) internal {\n        uint256 stringBal = stringToken.balanceOf(address(this));\n        if (_amount > stringBal) {\n            stringToken.transfer(_to, stringBal);\n        } else {\n            stringToken.transfer(_to, _amount);\n        }\n    }\n\n    function _pending(UserInfo storage _user, PoolInfo storage _pool)\n        internal\n        view\n        returns (uint256)\n    {\n        uint256 rewardsToSend =\n            _user.amount.mul(_pool.accStringPerShare).div(1e12).sub(\n                _user.rewardDebt\n            );\n        if (isBoosted) {\n            return rewardsToSend.mul(boostedMultiplier);\n        }\n        return rewardsToSend;\n    }\n}\n",
  "sourcePath": "/Users/dannywarrick/code/harp/client/contracts/Farm.sol",
  "compiler": {
    "name": "solc",
    "version": "0.6.11+commit.5ef660b1.Emscripten.clang"
  },
  "schemaVersion": "3.3.4",
  "updatedAt": "2021-04-30T23:25:01.600Z",
  "networkType": "ethereum",
  "devdoc": {
    "kind": "dev",
    "methods": {},
    "version": 1
  },
  "userdoc": {
    "kind": "user",
    "methods": {},
    "version": 1
  }
}