{
  "contractName": "HintHelpers",
  "abi": [
    {
      "anonymous": false,
      "inputs": [
        {
          "indexed": true,
          "internalType": "address",
          "name": "previousOwner",
          "type": "address"
        },
        {
          "indexed": true,
          "internalType": "address",
          "name": "newOwner",
          "type": "address"
        }
      ],
      "name": "OwnershipTransferred",
      "type": "event"
    },
    {
      "anonymous": false,
      "inputs": [
        {
          "indexed": false,
          "internalType": "address",
          "name": "_sortedTrovesAddress",
          "type": "address"
        }
      ],
      "name": "SortedTrovesAddressChanged",
      "type": "event"
    },
    {
      "anonymous": false,
      "inputs": [
        {
          "indexed": false,
          "internalType": "address",
          "name": "_troveManagerAddress",
          "type": "address"
        }
      ],
      "name": "TroveManagerAddressChanged",
      "type": "event"
    },
    {
      "inputs": [],
      "name": "CCR",
      "outputs": [
        {
          "internalType": "uint256",
          "name": "",
          "type": "uint256"
        }
      ],
      "stateMutability": "view",
      "type": "function"
    },
    {
      "inputs": [],
      "name": "DECIMAL_PRECISION",
      "outputs": [
        {
          "internalType": "uint256",
          "name": "",
          "type": "uint256"
        }
      ],
      "stateMutability": "view",
      "type": "function"
    },
    {
      "inputs": [],
      "name": "LUSD_GAS_COMPENSATION",
      "outputs": [
        {
          "internalType": "uint256",
          "name": "",
          "type": "uint256"
        }
      ],
      "stateMutability": "view",
      "type": "function"
    },
    {
      "inputs": [],
      "name": "MCR",
      "outputs": [
        {
          "internalType": "uint256",
          "name": "",
          "type": "uint256"
        }
      ],
      "stateMutability": "view",
      "type": "function"
    },
    {
      "inputs": [],
      "name": "PERCENT_DIVISOR",
      "outputs": [
        {
          "internalType": "uint256",
          "name": "",
          "type": "uint256"
        }
      ],
      "stateMutability": "view",
      "type": "function"
    },
    {
      "inputs": [],
      "name": "_100pct",
      "outputs": [
        {
          "internalType": "uint256",
          "name": "",
          "type": "uint256"
        }
      ],
      "stateMutability": "view",
      "type": "function"
    },
    {
      "inputs": [],
      "name": "activePool",
      "outputs": [
        {
          "internalType": "contract IActivePool",
          "name": "",
          "type": "address"
        }
      ],
      "stateMutability": "view",
      "type": "function"
    },
    {
      "inputs": [],
      "name": "defaultPool",
      "outputs": [
        {
          "internalType": "contract IDefaultPool",
          "name": "",
          "type": "address"
        }
      ],
      "stateMutability": "view",
      "type": "function"
    },
    {
      "inputs": [],
      "name": "getEntireSystemColl",
      "outputs": [
        {
          "internalType": "uint256",
          "name": "entireSystemColl",
          "type": "uint256"
        }
      ],
      "stateMutability": "view",
      "type": "function"
    },
    {
      "inputs": [],
      "name": "getEntireSystemDebt",
      "outputs": [
        {
          "internalType": "uint256",
          "name": "entireSystemDebt",
          "type": "uint256"
        }
      ],
      "stateMutability": "view",
      "type": "function"
    },
    {
      "inputs": [],
      "name": "isOwner",
      "outputs": [
        {
          "internalType": "bool",
          "name": "",
          "type": "bool"
        }
      ],
      "stateMutability": "view",
      "type": "function"
    },
    {
      "inputs": [],
      "name": "owner",
      "outputs": [
        {
          "internalType": "address",
          "name": "",
          "type": "address"
        }
      ],
      "stateMutability": "view",
      "type": "function"
    },
    {
      "inputs": [],
      "name": "priceFeed",
      "outputs": [
        {
          "internalType": "contract IPriceFeed",
          "name": "",
          "type": "address"
        }
      ],
      "stateMutability": "view",
      "type": "function"
    },
    {
      "inputs": [],
      "name": "sortedTroves",
      "outputs": [
        {
          "internalType": "contract ISortedTroves",
          "name": "",
          "type": "address"
        }
      ],
      "stateMutability": "view",
      "type": "function"
    },
    {
      "inputs": [],
      "name": "troveManager",
      "outputs": [
        {
          "internalType": "contract ITroveManager",
          "name": "",
          "type": "address"
        }
      ],
      "stateMutability": "view",
      "type": "function"
    },
    {
      "inputs": [
        {
          "internalType": "address",
          "name": "_sortedTrovesAddress",
          "type": "address"
        },
        {
          "internalType": "address",
          "name": "_troveManagerAddress",
          "type": "address"
        }
      ],
      "name": "setAddresses",
      "outputs": [],
      "stateMutability": "nonpayable",
      "type": "function"
    },
    {
      "inputs": [
        {
          "internalType": "uint256",
          "name": "_LUSDamount",
          "type": "uint256"
        },
        {
          "internalType": "uint256",
          "name": "_price",
          "type": "uint256"
        },
        {
          "internalType": "uint256",
          "name": "_maxIterations",
          "type": "uint256"
        }
      ],
      "name": "getRedemptionHints",
      "outputs": [
        {
          "internalType": "address",
          "name": "firstRedemptionHint",
          "type": "address"
        },
        {
          "internalType": "uint256",
          "name": "partialRedemptionHintNICR",
          "type": "uint256"
        }
      ],
      "stateMutability": "view",
      "type": "function"
    },
    {
      "inputs": [
        {
          "internalType": "uint256",
          "name": "_CR",
          "type": "uint256"
        },
        {
          "internalType": "uint256",
          "name": "_numTrials",
          "type": "uint256"
        },
        {
          "internalType": "uint256",
          "name": "_inputRandomSeed",
          "type": "uint256"
        }
      ],
      "name": "getApproxHint",
      "outputs": [
        {
          "internalType": "address",
          "name": "hintAddress",
          "type": "address"
        },
        {
          "internalType": "uint256",
          "name": "diff",
          "type": "uint256"
        },
        {
          "internalType": "uint256",
          "name": "latestRandomSeed",
          "type": "uint256"
        }
      ],
      "stateMutability": "view",
      "type": "function"
    },
    {
      "inputs": [
        {
          "internalType": "uint256",
          "name": "_coll",
          "type": "uint256"
        },
        {
          "internalType": "uint256",
          "name": "_debt",
          "type": "uint256"
        }
      ],
      "name": "computeNominalCR",
      "outputs": [
        {
          "internalType": "uint256",
          "name": "",
          "type": "uint256"
        }
      ],
      "stateMutability": "pure",
      "type": "function"
    },
    {
      "inputs": [
        {
          "internalType": "uint256",
          "name": "_coll",
          "type": "uint256"
        },
        {
          "internalType": "uint256",
          "name": "_debt",
          "type": "uint256"
        },
        {
          "internalType": "uint256",
          "name": "_price",
          "type": "uint256"
        }
      ],
      "name": "computeCR",
      "outputs": [
        {
          "internalType": "uint256",
          "name": "",
          "type": "uint256"
        }
      ],
      "stateMutability": "pure",
      "type": "function"
    }
  ],
  "bytecode": "0x608060405234801561001057600080fd5b5033600360006101000a81548173ffffffffffffffffffffffffffffffffffffffff021916908373ffffffffffffffffffffffffffffffffffffffff1602179055503373ffffffffffffffffffffffffffffffffffffffff16600073ffffffffffffffffffffffffffffffffffffffff167f8be0079c531659141344cd1fd0a4f28419497f9722a3daafe3b4186f6b6457e060405160405180910390a3611e14806100bc6000396000f3fe608060405234801561001057600080fd5b506004361061012c5760003560e01c8063795d26c3116100ad5780638f32d59b116100715780638f32d59b1461044a57806390107afe1461046a578063a20baee6146104ce578063ae918754146104ec578063c394a7fa146105205761012c565b8063795d26c31461032c5780637b41bdbe1461034a5780637f7dde4a146103c4578063887105d3146103f85780638da5cb5b146104165761012c565b8063525acdbb116100f4578063525acdbb146102485780635733d58f1461029e57806372fe25aa146102bc578063741bef1a146102da578063794e57241461030e5761012c565b806313144dba146101315780632e86bbd8146101a45780633cc74225146101c25780633d83908a146101f65780634870dd9a1461022a575b600080fd5b6101716004803603606081101561014757600080fd5b8101908080359060200190929190803590602001909291908035906020019092919050505061056c565b604051808373ffffffffffffffffffffffffffffffffffffffff1681526020018281526020019250505060405180910390f35b6101ac610cf5565b6040518082815260200191505060405180910390f35b6101ca610d02565b604051808273ffffffffffffffffffffffffffffffffffffffff16815260200191505060405180910390f35b6101fe610d28565b604051808273ffffffffffffffffffffffffffffffffffffffff16815260200191505060405180910390f35b610232610d4e565b6040518082815260200191505060405180910390f35b6102886004803603606081101561025e57600080fd5b81019080803590602001909291908035906020019092919080359060200190929190505050610d53565b6040518082815260200191505060405180910390f35b6102a6610d69565b6040518082815260200191505060405180910390f35b6102c4610d75565b6040518082815260200191505060405180910390f35b6102e2610d81565b604051808273ffffffffffffffffffffffffffffffffffffffff16815260200191505060405180910390f35b610316610da7565b6040518082815260200191505060405180910390f35b610334610db3565b6040518082815260200191505060405180910390f35b61038a6004803603606081101561036057600080fd5b81019080803590602001909291908035906020019092919080359060200190929190505050610f1a565b604051808473ffffffffffffffffffffffffffffffffffffffff168152602001838152602001828152602001935050505060405180910390f35b6103cc611352565b604051808273ffffffffffffffffffffffffffffffffffffffff16815260200191505060405180910390f35b610400611376565b6040518082815260200191505060405180910390f35b61041e6114dd565b604051808273ffffffffffffffffffffffffffffffffffffffff16815260200191505060405180910390f35b610452611507565b60405180821515815260200191505060405180910390f35b6104cc6004803603604081101561048057600080fd5b81019080803573ffffffffffffffffffffffffffffffffffffffff169060200190929190803573ffffffffffffffffffffffffffffffffffffffff16906020019092919050505061155f565b005b6104d6611713565b6040518082815260200191505060405180910390f35b6104f461171f565b604051808273ffffffffffffffffffffffffffffffffffffffff16815260200191505060405180910390f35b6105566004803603604081101561053657600080fd5b810190808035906020019092919080359060200190929190505050611745565b6040518082815260200191505060405180910390f35b6000806000600460009054906101000a900473ffffffffffffffffffffffffffffffffffffffff169050600086905060008273ffffffffffffffffffffffffffffffffffffffff16634d6228316040518163ffffffff1660e01b815260040160206040518083038186803b1580156105e357600080fd5b505afa1580156105f7573d6000803e3d6000fd5b505050506040513d602081101561060d57600080fd5b810190808051906020019092919050505090505b600073ffffffffffffffffffffffffffffffffffffffff168173ffffffffffffffffffffffffffffffffffffffff16141580156107305750670f43fc2c04ee0000600560009054906101000a900473ffffffffffffffffffffffffffffffffffffffff1673ffffffffffffffffffffffffffffffffffffffff1663d293c710838a6040518363ffffffff1660e01b8152600401808373ffffffffffffffffffffffffffffffffffffffff1681526020018281526020019250505060206040518083038186803b1580156106f357600080fd5b505afa158015610707573d6000803e3d6000fd5b505050506040513d602081101561071d57600080fd5b8101908080519060200190929190505050105b156107de578273ffffffffffffffffffffffffffffffffffffffff1663b72703ac826040518263ffffffff1660e01b8152600401808273ffffffffffffffffffffffffffffffffffffffff16815260200191505060206040518083038186803b15801561079c57600080fd5b505afa1580156107b0573d6000803e3d6000fd5b505050506040513d60208110156107c657600080fd5b81019080805190602001909291905050509050610621565b809450600086141561080e577fffffffffffffffffffffffffffffffffffffffffffffffffffffffffffffffff95505b5b600073ffffffffffffffffffffffffffffffffffffffff168173ffffffffffffffffffffffffffffffffffffffff161415801561084c5750600082115b801561085f575060008680600190039750115b15610cea576000610a07600560009054906101000a900473ffffffffffffffffffffffffffffffffffffffff1673ffffffffffffffffffffffffffffffffffffffff1663f34862de846040518263ffffffff1660e01b8152600401808273ffffffffffffffffffffffffffffffffffffffff16815260200191505060206040518083038186803b1580156108f257600080fd5b505afa158015610906573d6000803e3d6000fd5b505050506040513d602081101561091c57600080fd5b81019080805190602001909291905050506109f9600560009054906101000a900473ffffffffffffffffffffffffffffffffffffffff1673ffffffffffffffffffffffffffffffffffffffff1663d66a2553866040518263ffffffff1660e01b8152600401808273ffffffffffffffffffffffffffffffffffffffff16815260200191505060206040518083038186803b1580156109b957600080fd5b505afa1580156109cd573d6000803e3d6000fd5b505050506040513d60208110156109e357600080fd5b8101908080519060200190929190505050611759565b61177e90919063ffffffff16565b905082811115610c2b576000610bac600560009054906101000a900473ffffffffffffffffffffffffffffffffffffffff1673ffffffffffffffffffffffffffffffffffffffff16635d8c9609856040518263ffffffff1660e01b8152600401808273ffffffffffffffffffffffffffffffffffffffff16815260200191505060206040518083038186803b158015610a9f57600080fd5b505afa158015610ab3573d6000803e3d6000fd5b505050506040513d6020811015610ac957600080fd5b8101908080519060200190929190505050600560009054906101000a900473ffffffffffffffffffffffffffffffffffffffff1673ffffffffffffffffffffffffffffffffffffffff1663480cd578866040518263ffffffff1660e01b8152600401808273ffffffffffffffffffffffffffffffffffffffff16815260200191505060206040518083038186803b158015610b6357600080fd5b505afa158015610b77573d6000803e3d6000fd5b505050506040513d6020811015610b8d57600080fd5b810190808051906020019092919050505061177e90919063ffffffff16565b90506000610bef610be08b610bd2670de0b6b3a76400008961180690919063ffffffff16565b61188c90919063ffffffff16565b836118d690919063ffffffff16565b90506000610c0686856118d690919063ffffffff16565b90506000610c1382611920565b9050610c1f8382611945565b98505050505050610cea565b610c3e81846118d690919063ffffffff16565b92508373ffffffffffffffffffffffffffffffffffffffff1663b72703ac836040518263ffffffff1660e01b8152600401808273ffffffffffffffffffffffffffffffffffffffff16815260200191505060206040518083038186803b158015610ca757600080fd5b505afa158015610cbb573d6000803e3d6000fd5b505050506040513d6020811015610cd157600080fd5b810190808051906020019092919050505091505061080f565b505050935093915050565b6802b5e3af16b188000081565b600160009054906101000a900473ffffffffffffffffffffffffffffffffffffffff1681565b600560009054906101000a900473ffffffffffffffffffffffffffffffffffffffff1681565b60c881565b6000610d608484846119ae565b90509392505050565b6714d1120d7b16000081565b670de0b6b3a764000081565b600260009054906101000a900473ffffffffffffffffffffffffffffffffffffffff1681565b670f43fc2c04ee000081565b60008060008054906101000a900473ffffffffffffffffffffffffffffffffffffffff1673ffffffffffffffffffffffffffffffffffffffff16635eb52fca6040518163ffffffff1660e01b815260040160206040518083038186803b158015610e1c57600080fd5b505afa158015610e30573d6000803e3d6000fd5b505050506040513d6020811015610e4657600080fd5b810190808051906020019092919050505090506000600160009054906101000a900473ffffffffffffffffffffffffffffffffffffffff1673ffffffffffffffffffffffffffffffffffffffff16635eb52fca6040518163ffffffff1660e01b815260040160206040518083038186803b158015610ec357600080fd5b505afa158015610ed7573d6000803e3d6000fd5b505050506040513d6020811015610eed57600080fd5b81019080805190602001909291905050509050610f13818361177e90919063ffffffff16565b9250505090565b600080600080600560009054906101000a900473ffffffffffffffffffffffffffffffffffffffff1673ffffffffffffffffffffffffffffffffffffffff166349eefeee6040518163ffffffff1660e01b815260040160206040518083038186803b158015610f8857600080fd5b505afa158015610f9c573d6000803e3d6000fd5b505050506040513d6020811015610fb257600080fd5b810190808051906020019092919050505090506000811415610fde576000808693509350935050611349565b600460009054906101000a900473ffffffffffffffffffffffffffffffffffffffff1673ffffffffffffffffffffffffffffffffffffffff16634d6228316040518163ffffffff1660e01b815260040160206040518083038186803b15801561104657600080fd5b505afa15801561105a573d6000803e3d6000fd5b505050506040513d602081101561107057600080fd5b8101908080519060200190929190505050935061115087600560009054906101000a900473ffffffffffffffffffffffffffffffffffffffff1673ffffffffffffffffffffffffffffffffffffffff1663b0d8e181876040518263ffffffff1660e01b8152600401808273ffffffffffffffffffffffffffffffffffffffff16815260200191505060206040518083038186803b15801561111057600080fd5b505afa158015611124573d6000803e3d6000fd5b505050506040513d602081101561113a57600080fd5b8101908080519060200190929190505050611a15565b92508491506000600190505b868110156113465782604051602001808281526020019150506040516020818303038152906040528051906020012060001c9250600082848161119b57fe5b0690506000600560009054906101000a900473ffffffffffffffffffffffffffffffffffffffff1673ffffffffffffffffffffffffffffffffffffffff1663d9a72444836040518263ffffffff1660e01b81526004018082815260200191505060206040518083038186803b15801561121357600080fd5b505afa158015611227573d6000803e3d6000fd5b505050506040513d602081101561123d57600080fd5b810190808051906020019092919050505090506000600560009054906101000a900473ffffffffffffffffffffffffffffffffffffffff1673ffffffffffffffffffffffffffffffffffffffff1663b0d8e181836040518263ffffffff1660e01b8152600401808273ffffffffffffffffffffffffffffffffffffffff16815260200191505060206040518083038186803b1580156112db57600080fd5b505afa1580156112ef573d6000803e3d6000fd5b505050506040513d602081101561130557600080fd5b810190808051906020019092919050505090506000611324828d611a15565b905087811015611335578097508298505b84806001019550505050505061115c565b50505b93509350939050565b60008054906101000a900473ffffffffffffffffffffffffffffffffffffffff1681565b60008060008054906101000a900473ffffffffffffffffffffffffffffffffffffffff1673ffffffffffffffffffffffffffffffffffffffff166314f6c3be6040518163ffffffff1660e01b815260040160206040518083038186803b1580156113df57600080fd5b505afa1580156113f3573d6000803e3d6000fd5b505050506040513d602081101561140957600080fd5b810190808051906020019092919050505090506000600160009054906101000a900473ffffffffffffffffffffffffffffffffffffffff1673ffffffffffffffffffffffffffffffffffffffff166314f6c3be6040518163ffffffff1660e01b815260040160206040518083038186803b15801561148657600080fd5b505afa15801561149a573d6000803e3d6000fd5b505050506040513d60208110156114b057600080fd5b810190808051906020019092919050505090506114d6818361177e90919063ffffffff16565b9250505090565b6000600360009054906101000a900473ffffffffffffffffffffffffffffffffffffffff16905090565b6000600360009054906101000a900473ffffffffffffffffffffffffffffffffffffffff1673ffffffffffffffffffffffffffffffffffffffff163373ffffffffffffffffffffffffffffffffffffffff1614905090565b611567611507565b6115d9576040517f08c379a00000000000000000000000000000000000000000000000000000000081526004018080602001828103825260208152602001807f4f776e61626c653a2063616c6c6572206973206e6f7420746865206f776e657281525060200191505060405180910390fd5b6115e282611a53565b6115eb81611a53565b81600460006101000a81548173ffffffffffffffffffffffffffffffffffffffff021916908373ffffffffffffffffffffffffffffffffffffffff16021790555080600560006101000a81548173ffffffffffffffffffffffffffffffffffffffff021916908373ffffffffffffffffffffffffffffffffffffffff1602179055507f65f4cf077bc01e4742eb5ad98326f6e95b63548ea24b17f8d5e823111fe7880082604051808273ffffffffffffffffffffffffffffffffffffffff16815260200191505060405180910390a17f143219c9e69b09e07e095fcc889b43d8f46ca892bba65f08dc3a0050869a567881604051808273ffffffffffffffffffffffffffffffffffffffff16815260200191505060405180910390a161170f611b76565b5050565b670de0b6b3a764000081565b600460009054906101000a900473ffffffffffffffffffffffffffffffffffffffff1681565b60006117518383611945565b905092915050565b60006117776802b5e3af16b1880000836118d690919063ffffffff16565b9050919050565b6000808284019050838110156117fc576040517f08c379a000000000000000000000000000000000000000000000000000000000815260040180806020018281038252601b8152602001807f536166654d6174683a206164646974696f6e206f766572666c6f77000000000081525060200191505060405180910390fd5b8091505092915050565b6000808314156118195760009050611886565b600082840290508284828161182a57fe5b0414611881576040517f08c379a0000000000000000000000000000000000000000000000000000000008152600401808060200182810382526021815260200180611dbe6021913960400191505060405180910390fd5b809150505b92915050565b60006118ce83836040518060400160405280601a81526020017f536166654d6174683a206469766973696f6e206279207a65726f000000000000815250611c37565b905092915050565b600061191883836040518060400160405280601e81526020017f536166654d6174683a207375627472616374696f6e206f766572666c6f770000815250611cfd565b905092915050565b600061193e6802b5e3af16b18800008361177e90919063ffffffff16565b9050919050565b6000808211156119845761197d8261196f68056bc75e2d631000008661180690919063ffffffff16565b61188c90919063ffffffff16565b90506119a8565b7fffffffffffffffffffffffffffffffffffffffffffffffffffffffffffffffff90505b92915050565b6000808311156119ea5760006119df846119d1858861180690919063ffffffff16565b61188c90919063ffffffff16565b905080915050611a0e565b7fffffffffffffffffffffffffffffffffffffffffffffffffffffffffffffffff90505b9392505050565b600081831015611a3757611a3283836118d690919063ffffffff16565b611a4b565b611a4a82846118d690919063ffffffff16565b5b905092915050565b600073ffffffffffffffffffffffffffffffffffffffff168173ffffffffffffffffffffffffffffffffffffffff161415611af6576040517f08c379a000000000000000000000000000000000000000000000000000000000815260040180806020018281038252601e8152602001807f4163636f756e742063616e6e6f74206265207a65726f2061646472657373000081525060200191505060405180910390fd5b6000813b905060008111611b72576040517f08c379a00000000000000000000000000000000000000000000000000000000081526004018080602001828103825260208152602001807f4163636f756e7420636f64652073697a652063616e6e6f74206265207a65726f81525060200191505060405180910390fd5b5050565b600073ffffffffffffffffffffffffffffffffffffffff16600360009054906101000a900473ffffffffffffffffffffffffffffffffffffffff1673ffffffffffffffffffffffffffffffffffffffff167f8be0079c531659141344cd1fd0a4f28419497f9722a3daafe3b4186f6b6457e060405160405180910390a36000600360006101000a81548173ffffffffffffffffffffffffffffffffffffffff021916908373ffffffffffffffffffffffffffffffffffffffff160217905550565b60008083118290611ce3576040517f08c379a00000000000000000000000000000000000000000000000000000000081526004018080602001828103825283818151815260200191508051906020019080838360005b83811015611ca8578082015181840152602081019050611c8d565b50505050905090810190601f168015611cd55780820380516001836020036101000a031916815260200191505b509250505060405180910390fd5b506000838581611cef57fe5b049050809150509392505050565b6000838311158290611daa576040517f08c379a00000000000000000000000000000000000000000000000000000000081526004018080602001828103825283818151815260200191508051906020019080838360005b83811015611d6f578082015181840152602081019050611d54565b50505050905090810190601f168015611d9c5780820380516001836020036101000a031916815260200191505b509250505060405180910390fd5b506000838503905080915050939250505056fe536166654d6174683a206d756c7469706c69636174696f6e206f766572666c6f77a264697066735822122072efaac83e1dd26a2c8ea70b148823dc0d8f439b0903c493ad64a8a20f83005c64736f6c63430007060033",
  "immutableReferences": {},
  "source": "// SPDX-License-Identifier: MIT\r\n\r\npragma solidity >=0.6.0 <0.8.0;\r\n\r\nimport \"./Interfaces/ITroveManager.sol\";\r\nimport \"./Interfaces/ISortedTroves.sol\";\r\nimport \"./Dependencies/LiquityBase.sol\";\r\nimport \"./Dependencies/Ownable.sol\";\r\nimport \"./Dependencies/CheckContract.sol\";\r\nimport \"./Dependencies/TestSafeMath.sol\";\r\n\r\ncontract HintHelpers is LiquityBase, Ownable, CheckContract {\r\n    using TestSafeMath for uint256;\r\n    ISortedTroves public sortedTroves;\r\n    ITroveManager public troveManager;\r\n\r\n    // --- Events ---\r\n\r\n    event SortedTrovesAddressChanged(address _sortedTrovesAddress);\r\n    event TroveManagerAddressChanged(address _troveManagerAddress);\r\n\r\n    // --- Dependency setters ---\r\n\r\n    function setAddresses(\r\n        address _sortedTrovesAddress,\r\n        address _troveManagerAddress\r\n    ) external onlyOwner {\r\n        checkContract(_sortedTrovesAddress);\r\n        checkContract(_troveManagerAddress);\r\n\r\n        sortedTroves = ISortedTroves(_sortedTrovesAddress);\r\n        troveManager = ITroveManager(_troveManagerAddress);\r\n\r\n        emit SortedTrovesAddressChanged(_sortedTrovesAddress);\r\n        emit TroveManagerAddressChanged(_troveManagerAddress);\r\n\r\n        _renounceOwnership();\r\n    }\r\n\r\n    // --- Functions ---\r\n\r\n    /* getRedemptionHints() - Helper function for redeemCollateral().\r\n     *\r\n     * Find the first and last Troves that will modified by calling redeemCollateral() with the same _LUSDamount and _price,\r\n     * and return the address of the first one and the final ICR of the last one.\r\n     */\r\n\r\n    function getRedemptionHints(\r\n        uint256 _LUSDamount,\r\n        uint256 _price,\r\n        uint256 _maxIterations\r\n    )\r\n        external\r\n        view\r\n        returns (address firstRedemptionHint, uint256 partialRedemptionHintNICR)\r\n    {\r\n        ISortedTroves sortedTrovesCached = sortedTroves;\r\n\r\n        uint256 remainingLUSD = _LUSDamount;\r\n        address currentTroveuser = sortedTrovesCached.getLast();\r\n\r\n        while (\r\n            currentTroveuser != address(0) &&\r\n            troveManager.getCurrentICR(currentTroveuser, _price) < MCR\r\n        ) {\r\n            currentTroveuser = sortedTrovesCached.getPrev(currentTroveuser);\r\n        }\r\n\r\n        firstRedemptionHint = currentTroveuser;\r\n\r\n        if (_maxIterations == 0) {\r\n            _maxIterations = uint256(-1);\r\n        }\r\n\r\n        while (\r\n            currentTroveuser != address(0) &&\r\n            remainingLUSD > 0 &&\r\n            _maxIterations-- > 0\r\n        ) {\r\n            uint256 LUSDDebt =\r\n                _getNetDebt(troveManager.getTroveDebt(currentTroveuser)).add(\r\n                    troveManager.getPendingLUSDDebtReward(currentTroveuser)\r\n                );\r\n\r\n            if (LUSDDebt > remainingLUSD) {\r\n                uint256 ETH =\r\n                    troveManager.getTroveColl(currentTroveuser).add(\r\n                        troveManager.getPendingETHReward(currentTroveuser)\r\n                    );\r\n\r\n                uint256 newColl =\r\n                    ETH.sub(remainingLUSD.mul(DECIMAL_PRECISION).div(_price));\r\n                uint256 newDebt = LUSDDebt.sub(remainingLUSD);\r\n\r\n                uint256 compositeDebt = _getCompositeDebt(newDebt);\r\n                partialRedemptionHintNICR = LiquityMath._computeNominalCR(\r\n                    newColl,\r\n                    compositeDebt\r\n                );\r\n\r\n                break;\r\n            } else {\r\n                remainingLUSD = remainingLUSD.sub(LUSDDebt);\r\n            }\r\n            currentTroveuser = sortedTrovesCached.getPrev(currentTroveuser);\r\n        }\r\n    }\r\n\r\n    /* getApproxHint() - return address of a Trove that is, on average, (length / numTrials) positions away in the \r\n    sortedTroves list from the correct insert position of the Trove to be inserted. \r\n    \r\n    Note: The output address is worst-case O(n) positions away from the correct insert position, however, the function \r\n    is probabilistic. Input can be tuned to guarantee results to a high degree of confidence, e.g:\r\n\r\n    Submitting numTrials = k * sqrt(length), with k = 15 makes it very, very likely that the ouput address will \r\n    be <= sqrt(length) positions away from the correct insert position.\r\n    */\r\n    function getApproxHint(\r\n        uint256 _CR,\r\n        uint256 _numTrials,\r\n        uint256 _inputRandomSeed\r\n    )\r\n        external\r\n        view\r\n        returns (\r\n            address hintAddress,\r\n            uint256 diff,\r\n            uint256 latestRandomSeed\r\n        )\r\n    {\r\n        uint256 arrayLength = troveManager.getTroveOwnersCount();\r\n\r\n        if (arrayLength == 0) {\r\n            return (address(0), 0, _inputRandomSeed);\r\n        }\r\n\r\n        hintAddress = sortedTroves.getLast();\r\n        diff = LiquityMath._getAbsoluteDifference(\r\n            _CR,\r\n            troveManager.getNominalICR(hintAddress)\r\n        );\r\n        latestRandomSeed = _inputRandomSeed;\r\n\r\n        uint256 i = 1;\r\n\r\n        while (i < _numTrials) {\r\n            latestRandomSeed = uint256(\r\n                keccak256(abi.encodePacked(latestRandomSeed))\r\n            );\r\n\r\n            uint256 arrayIndex = latestRandomSeed % arrayLength;\r\n            address currentAddress =\r\n                troveManager.getTroveFromTroveOwnersArray(arrayIndex);\r\n            uint256 currentNICR = troveManager.getNominalICR(currentAddress);\r\n\r\n            // check if abs(current - CR) > abs(closest - CR), and update closest if current is closer\r\n            uint256 currentDiff =\r\n                LiquityMath._getAbsoluteDifference(currentNICR, _CR);\r\n\r\n            if (currentDiff < diff) {\r\n                diff = currentDiff;\r\n                hintAddress = currentAddress;\r\n            }\r\n            i++;\r\n        }\r\n    }\r\n\r\n    function computeNominalCR(uint256 _coll, uint256 _debt)\r\n        external\r\n        pure\r\n        returns (uint256)\r\n    {\r\n        return LiquityMath._computeNominalCR(_coll, _debt);\r\n    }\r\n\r\n    function computeCR(\r\n        uint256 _coll,\r\n        uint256 _debt,\r\n        uint256 _price\r\n    ) external pure returns (uint256) {\r\n        return LiquityMath._computeCR(_coll, _debt, _price);\r\n    }\r\n}\r\n",
  "sourcePath": "C:/Users/danie/code/harp/client/src/contracts/HintHelpers.sol",
  "compiler": {
    "name": "solc",
    "version": "0.7.6+commit.7338295f.Emscripten.clang"
  },
  "schemaVersion": "3.3.3",
  "updatedAt": "2021-02-19T17:49:42.051Z",
  "devdoc": {
    "kind": "dev",
    "methods": {
      "isOwner()": {
        "details": "Returns true if the caller is the current owner."
      },
      "owner()": {
        "details": "Returns the address of the current owner."
      }
    },
    "version": 1
  },
  "userdoc": {
    "kind": "user",
    "methods": {},
    "version": 1
  }
}