{
  "contractName": "HintHelpers",
  "abi": [
    {
      "anonymous": false,
      "inputs": [
        {
          "indexed": true,
          "internalType": "address",
          "name": "previousOwner",
          "type": "address"
        },
        {
          "indexed": true,
          "internalType": "address",
          "name": "newOwner",
          "type": "address"
        }
      ],
      "name": "OwnershipTransferred",
      "type": "event"
    },
    {
      "anonymous": false,
      "inputs": [
        {
          "indexed": false,
          "internalType": "address",
          "name": "_sortedTrovesAddress",
          "type": "address"
        }
      ],
      "name": "SortedTrovesAddressChanged",
      "type": "event"
    },
    {
      "anonymous": false,
      "inputs": [
        {
          "indexed": false,
          "internalType": "address",
          "name": "_troveManagerAddress",
          "type": "address"
        }
      ],
      "name": "TroveManagerAddressChanged",
      "type": "event"
    },
    {
      "inputs": [],
      "name": "BORROWING_FEE_FLOOR",
      "outputs": [
        {
          "internalType": "uint256",
          "name": "",
          "type": "uint256"
        }
      ],
      "stateMutability": "view",
      "type": "function"
    },
    {
      "inputs": [],
      "name": "CCR",
      "outputs": [
        {
          "internalType": "uint256",
          "name": "",
          "type": "uint256"
        }
      ],
      "stateMutability": "view",
      "type": "function"
    },
    {
      "inputs": [],
      "name": "DECIMAL_PRECISION",
      "outputs": [
        {
          "internalType": "uint256",
          "name": "",
          "type": "uint256"
        }
      ],
      "stateMutability": "view",
      "type": "function"
    },
    {
      "inputs": [],
      "name": "LUSD_GAS_COMPENSATION",
      "outputs": [
        {
          "internalType": "uint256",
          "name": "",
          "type": "uint256"
        }
      ],
      "stateMutability": "view",
      "type": "function"
    },
    {
      "inputs": [],
      "name": "MCR",
      "outputs": [
        {
          "internalType": "uint256",
          "name": "",
          "type": "uint256"
        }
      ],
      "stateMutability": "view",
      "type": "function"
    },
    {
      "inputs": [],
      "name": "MIN_NET_DEBT",
      "outputs": [
        {
          "internalType": "uint256",
          "name": "",
          "type": "uint256"
        }
      ],
      "stateMutability": "view",
      "type": "function"
    },
    {
      "inputs": [],
      "name": "NAME",
      "outputs": [
        {
          "internalType": "string",
          "name": "",
          "type": "string"
        }
      ],
      "stateMutability": "view",
      "type": "function"
    },
    {
      "inputs": [],
      "name": "PERCENT_DIVISOR",
      "outputs": [
        {
          "internalType": "uint256",
          "name": "",
          "type": "uint256"
        }
      ],
      "stateMutability": "view",
      "type": "function"
    },
    {
      "inputs": [],
      "name": "_100pct",
      "outputs": [
        {
          "internalType": "uint256",
          "name": "",
          "type": "uint256"
        }
      ],
      "stateMutability": "view",
      "type": "function"
    },
    {
      "inputs": [],
      "name": "activePool",
      "outputs": [
        {
          "internalType": "contract IActivePool",
          "name": "",
          "type": "address"
        }
      ],
      "stateMutability": "view",
      "type": "function"
    },
    {
      "inputs": [],
      "name": "defaultPool",
      "outputs": [
        {
          "internalType": "contract IDefaultPool",
          "name": "",
          "type": "address"
        }
      ],
      "stateMutability": "view",
      "type": "function"
    },
    {
      "inputs": [],
      "name": "getEntireSystemColl",
      "outputs": [
        {
          "internalType": "uint256",
          "name": "entireSystemColl",
          "type": "uint256"
        }
      ],
      "stateMutability": "view",
      "type": "function"
    },
    {
      "inputs": [],
      "name": "getEntireSystemDebt",
      "outputs": [
        {
          "internalType": "uint256",
          "name": "entireSystemDebt",
          "type": "uint256"
        }
      ],
      "stateMutability": "view",
      "type": "function"
    },
    {
      "inputs": [],
      "name": "isOwner",
      "outputs": [
        {
          "internalType": "bool",
          "name": "",
          "type": "bool"
        }
      ],
      "stateMutability": "view",
      "type": "function"
    },
    {
      "inputs": [],
      "name": "owner",
      "outputs": [
        {
          "internalType": "address",
          "name": "",
          "type": "address"
        }
      ],
      "stateMutability": "view",
      "type": "function"
    },
    {
      "inputs": [],
      "name": "priceFeed",
      "outputs": [
        {
          "internalType": "contract IPriceFeed",
          "name": "",
          "type": "address"
        }
      ],
      "stateMutability": "view",
      "type": "function"
    },
    {
      "inputs": [],
      "name": "sortedTroves",
      "outputs": [
        {
          "internalType": "contract ISortedTroves",
          "name": "",
          "type": "address"
        }
      ],
      "stateMutability": "view",
      "type": "function"
    },
    {
      "inputs": [],
      "name": "troveManager",
      "outputs": [
        {
          "internalType": "contract ITroveManager",
          "name": "",
          "type": "address"
        }
      ],
      "stateMutability": "view",
      "type": "function"
    },
    {
      "inputs": [
        {
          "internalType": "address",
          "name": "_sortedTrovesAddress",
          "type": "address"
        },
        {
          "internalType": "address",
          "name": "_troveManagerAddress",
          "type": "address"
        }
      ],
      "name": "setAddresses",
      "outputs": [],
      "stateMutability": "nonpayable",
      "type": "function"
    },
    {
      "inputs": [
        {
          "internalType": "uint256",
          "name": "_LUSDamount",
          "type": "uint256"
        },
        {
          "internalType": "uint256",
          "name": "_price",
          "type": "uint256"
        },
        {
          "internalType": "uint256",
          "name": "_maxIterations",
          "type": "uint256"
        }
      ],
      "name": "getRedemptionHints",
      "outputs": [
        {
          "internalType": "address",
          "name": "firstRedemptionHint",
          "type": "address"
        },
        {
          "internalType": "uint256",
          "name": "partialRedemptionHintNICR",
          "type": "uint256"
        },
        {
          "internalType": "uint256",
          "name": "truncatedLUSDamount",
          "type": "uint256"
        }
      ],
      "stateMutability": "view",
      "type": "function"
    },
    {
      "inputs": [
        {
          "internalType": "uint256",
          "name": "_CR",
          "type": "uint256"
        },
        {
          "internalType": "uint256",
          "name": "_numTrials",
          "type": "uint256"
        },
        {
          "internalType": "uint256",
          "name": "_inputRandomSeed",
          "type": "uint256"
        }
      ],
      "name": "getApproxHint",
      "outputs": [
        {
          "internalType": "address",
          "name": "hintAddress",
          "type": "address"
        },
        {
          "internalType": "uint256",
          "name": "diff",
          "type": "uint256"
        },
        {
          "internalType": "uint256",
          "name": "latestRandomSeed",
          "type": "uint256"
        }
      ],
      "stateMutability": "view",
      "type": "function"
    },
    {
      "inputs": [
        {
          "internalType": "uint256",
          "name": "_coll",
          "type": "uint256"
        },
        {
          "internalType": "uint256",
          "name": "_debt",
          "type": "uint256"
        }
      ],
      "name": "computeNominalCR",
      "outputs": [
        {
          "internalType": "uint256",
          "name": "",
          "type": "uint256"
        }
      ],
      "stateMutability": "pure",
      "type": "function"
    },
    {
      "inputs": [
        {
          "internalType": "uint256",
          "name": "_coll",
          "type": "uint256"
        },
        {
          "internalType": "uint256",
          "name": "_debt",
          "type": "uint256"
        },
        {
          "internalType": "uint256",
          "name": "_price",
          "type": "uint256"
        }
      ],
      "name": "computeCR",
      "outputs": [
        {
          "internalType": "uint256",
          "name": "",
          "type": "uint256"
        }
      ],
      "stateMutability": "pure",
      "type": "function"
    }
  ],
  "bytecode": "0x608060405234801561001057600080fd5b5033600360006101000a81548173ffffffffffffffffffffffffffffffffffffffff021916908373ffffffffffffffffffffffffffffffffffffffff1602179055503373ffffffffffffffffffffffffffffffffffffffff16600073ffffffffffffffffffffffffffffffffffffffff167f8be0079c531659141344cd1fd0a4f28419497f9722a3daafe3b4186f6b6457e060405160405180910390a3611d1a806100bc6000396000f3fe608060405234801561001057600080fd5b506004361061014d5760003560e01c8063795d26c3116100c357806390107afe1161007c57806390107afe1461054c578063a20baee6146105b0578063a3f4df7e146105ce578063ae91875414610651578063c394a7fa1461069b578063f92d3433146106e75761014d565b8063795d26c3146103ca5780637b41bdbe146103e85780637f7dde4a14610478578063887105d3146104c25780638da5cb5b146104e05780638f32d59b1461052a5761014d565b80634870dd9a116101155780634870dd9a146102b2578063525acdbb146102d05780635733d58f1461032657806372fe25aa14610344578063741bef1a14610362578063794e5724146103ac5761014d565b806313144dba146101525780631bf43555146101e25780632e86bbd8146102005780633cc742251461021e5780633d83908a14610268575b600080fd5b6101926004803603606081101561016857600080fd5b81019080803590602001909291908035906020019092919080359060200190929190505050610705565b604051808473ffffffffffffffffffffffffffffffffffffffff1673ffffffffffffffffffffffffffffffffffffffff168152602001838152602001828152602001935050505060405180910390f35b6101ea610b5f565b6040518082815260200191505060405180910390f35b610208610b6c565b6040518082815260200191505060405180910390f35b610226610b79565b604051808273ffffffffffffffffffffffffffffffffffffffff1673ffffffffffffffffffffffffffffffffffffffff16815260200191505060405180910390f35b610270610b9f565b604051808273ffffffffffffffffffffffffffffffffffffffff1673ffffffffffffffffffffffffffffffffffffffff16815260200191505060405180910390f35b6102ba610bc5565b6040518082815260200191505060405180910390f35b610310600480360360608110156102e657600080fd5b81019080803590602001909291908035906020019092919080359060200190929190505050610bca565b6040518082815260200191505060405180910390f35b61032e610be0565b6040518082815260200191505060405180910390f35b61034c610bec565b6040518082815260200191505060405180910390f35b61036a610bf8565b604051808273ffffffffffffffffffffffffffffffffffffffff1673ffffffffffffffffffffffffffffffffffffffff16815260200191505060405180910390f35b6103b4610c1e565b6040518082815260200191505060405180910390f35b6103d2610c2a565b6040518082815260200191505060405180910390f35b610428600480360360608110156103fe57600080fd5b81019080803590602001909291908035906020019092919080359060200190929190505050610d92565b604051808473ffffffffffffffffffffffffffffffffffffffff1673ffffffffffffffffffffffffffffffffffffffff168152602001838152602001828152602001935050505060405180910390f35b6104806111fc565b604051808273ffffffffffffffffffffffffffffffffffffffff1673ffffffffffffffffffffffffffffffffffffffff16815260200191505060405180910390f35b6104ca611221565b6040518082815260200191505060405180910390f35b6104e8611389565b604051808273ffffffffffffffffffffffffffffffffffffffff1673ffffffffffffffffffffffffffffffffffffffff16815260200191505060405180910390f35b6105326113b3565b604051808215151515815260200191505060405180910390f35b6105ae6004803603604081101561056257600080fd5b81019080803573ffffffffffffffffffffffffffffffffffffffff169060200190929190803573ffffffffffffffffffffffffffffffffffffffff16906020019092919050505061140b565b005b6105b86115eb565b6040518082815260200191505060405180910390f35b6105d66115f7565b6040518080602001828103825283818151815260200191508051906020019080838360005b838110156106165780820151818401526020810190506105fb565b50505050905090810190601f1680156106435780820380516001836020036101000a031916815260200191505b509250505060405180910390f35b610659611630565b604051808273ffffffffffffffffffffffffffffffffffffffff1673ffffffffffffffffffffffffffffffffffffffff16815260200191505060405180910390f35b6106d1600480360360408110156106b157600080fd5b810190808035906020019092919080359060200190929190505050611656565b6040518082815260200191505060405180910390f35b6106ef61166a565b6040518082815260200191505060405180910390f35b600080600080600460009054906101000a900473ffffffffffffffffffffffffffffffffffffffff169050600087905060008273ffffffffffffffffffffffffffffffffffffffff16634d6228316040518163ffffffff1660e01b815260040160206040518083038186803b15801561077d57600080fd5b505afa158015610791573d6000803e3d6000fd5b505050506040513d60208110156107a757600080fd5b810190808051906020019092919050505090505b600073ffffffffffffffffffffffffffffffffffffffff168173ffffffffffffffffffffffffffffffffffffffff16141580156108e05750670f43fc2c04ee0000600560009054906101000a900473ffffffffffffffffffffffffffffffffffffffff1673ffffffffffffffffffffffffffffffffffffffff1663d293c710838b6040518363ffffffff1660e01b8152600401808373ffffffffffffffffffffffffffffffffffffffff1673ffffffffffffffffffffffffffffffffffffffff1681526020018281526020019250505060206040518083038186803b1580156108a357600080fd5b505afa1580156108b7573d6000803e3d6000fd5b505050506040513d60208110156108cd57600080fd5b8101908080519060200190929190505050105b156109a4578273ffffffffffffffffffffffffffffffffffffffff1663b72703ac826040518263ffffffff1660e01b8152600401808273ffffffffffffffffffffffffffffffffffffffff1673ffffffffffffffffffffffffffffffffffffffff16815260200191505060206040518083038186803b15801561096257600080fd5b505afa158015610976573d6000803e3d6000fd5b505050506040513d602081101561098c57600080fd5b810190808051906020019092919050505090506107bb565b80955060008714156109d4577fffffffffffffffffffffffffffffffffffffffffffffffffffffffffffffffff96505b5b600073ffffffffffffffffffffffffffffffffffffffff168173ffffffffffffffffffffffffffffffffffffffff1614158015610a125750600082115b8015610a25575060008780600190039850115b15610b4f576000610898905082811115610a8b57686194049f30f7200000811115610a85576000606490506000606490506000606490506000606490506000610a6d82611684565b9050610a7983826116a9565b9a506064975050505050505b50610b4f565b606492508373ffffffffffffffffffffffffffffffffffffffff1663b72703ac836040518263ffffffff1660e01b8152600401808273ffffffffffffffffffffffffffffffffffffffff1673ffffffffffffffffffffffffffffffffffffffff16815260200191505060206040518083038186803b158015610b0c57600080fd5b505afa158015610b20573d6000803e3d6000fd5b505050506040513d6020811015610b3657600080fd5b81019080805190602001909291905050509150506109d5565b6064935050505093509350939050565b686194049f30f720000081565b680ad78ebc5ac620000081565b600160009054906101000a900473ffffffffffffffffffffffffffffffffffffffff1681565b600560009054906101000a900473ffffffffffffffffffffffffffffffffffffffff1681565b60c881565b6000610bd7848484611712565b90509392505050565b6714d1120d7b16000081565b670de0b6b3a764000081565b600260009054906101000a900473ffffffffffffffffffffffffffffffffffffffff1681565b670f43fc2c04ee000081565b6000806000809054906101000a900473ffffffffffffffffffffffffffffffffffffffff1673ffffffffffffffffffffffffffffffffffffffff16635eb52fca6040518163ffffffff1660e01b815260040160206040518083038186803b158015610c9457600080fd5b505afa158015610ca8573d6000803e3d6000fd5b505050506040513d6020811015610cbe57600080fd5b810190808051906020019092919050505090506000600160009054906101000a900473ffffffffffffffffffffffffffffffffffffffff1673ffffffffffffffffffffffffffffffffffffffff16635eb52fca6040518163ffffffff1660e01b815260040160206040518083038186803b158015610d3b57600080fd5b505afa158015610d4f573d6000803e3d6000fd5b505050506040513d6020811015610d6557600080fd5b81019080805190602001909291905050509050610d8b818361177990919063ffffffff16565b9250505090565b600080600080600560009054906101000a900473ffffffffffffffffffffffffffffffffffffffff1673ffffffffffffffffffffffffffffffffffffffff166349eefeee6040518163ffffffff1660e01b815260040160206040518083038186803b158015610e0057600080fd5b505afa158015610e14573d6000803e3d6000fd5b505050506040513d6020811015610e2a57600080fd5b810190808051906020019092919050505090506000811415610e5c5760008086829250819150935093509350506111f3565b600460009054906101000a900473ffffffffffffffffffffffffffffffffffffffff1673ffffffffffffffffffffffffffffffffffffffff16634d6228316040518163ffffffff1660e01b815260040160206040518083038186803b158015610ec457600080fd5b505afa158015610ed8573d6000803e3d6000fd5b505050506040513d6020811015610eee57600080fd5b81019080805190602001909291905050509350610fe487600560009054906101000a900473ffffffffffffffffffffffffffffffffffffffff1673ffffffffffffffffffffffffffffffffffffffff1663b0d8e181876040518263ffffffff1660e01b8152600401808273ffffffffffffffffffffffffffffffffffffffff1673ffffffffffffffffffffffffffffffffffffffff16815260200191505060206040518083038186803b158015610fa457600080fd5b505afa158015610fb8573d6000803e3d6000fd5b505050506040513d6020811015610fce57600080fd5b8101908080519060200190929190505050611801565b92508491506000600190505b868110156111f05782604051602001808281526020019150506040516020818303038152906040528051906020012060001c9250600082848161102f57fe5b0690506000600560009054906101000a900473ffffffffffffffffffffffffffffffffffffffff1673ffffffffffffffffffffffffffffffffffffffff1663d9a72444836040518263ffffffff1660e01b81526004018082815260200191505060206040518083038186803b1580156110a757600080fd5b505afa1580156110bb573d6000803e3d6000fd5b505050506040513d60208110156110d157600080fd5b810190808051906020019092919050505090506000600560009054906101000a900473ffffffffffffffffffffffffffffffffffffffff1673ffffffffffffffffffffffffffffffffffffffff1663b0d8e181836040518263ffffffff1660e01b8152600401808273ffffffffffffffffffffffffffffffffffffffff1673ffffffffffffffffffffffffffffffffffffffff16815260200191505060206040518083038186803b15801561118557600080fd5b505afa158015611199573d6000803e3d6000fd5b505050506040513d60208110156111af57600080fd5b8101908080519060200190929190505050905060006111ce828d611801565b9050878110156111df578097508298505b848060010195505050505050610ff0565b50505b93509350939050565b6000809054906101000a900473ffffffffffffffffffffffffffffffffffffffff1681565b6000806000809054906101000a900473ffffffffffffffffffffffffffffffffffffffff1673ffffffffffffffffffffffffffffffffffffffff166314f6c3be6040518163ffffffff1660e01b815260040160206040518083038186803b15801561128b57600080fd5b505afa15801561129f573d6000803e3d6000fd5b505050506040513d60208110156112b557600080fd5b810190808051906020019092919050505090506000600160009054906101000a900473ffffffffffffffffffffffffffffffffffffffff1673ffffffffffffffffffffffffffffffffffffffff166314f6c3be6040518163ffffffff1660e01b815260040160206040518083038186803b15801561133257600080fd5b505afa158015611346573d6000803e3d6000fd5b505050506040513d602081101561135c57600080fd5b81019080805190602001909291905050509050611382818361177990919063ffffffff16565b9250505090565b6000600360009054906101000a900473ffffffffffffffffffffffffffffffffffffffff16905090565b6000600360009054906101000a900473ffffffffffffffffffffffffffffffffffffffff1673ffffffffffffffffffffffffffffffffffffffff163373ffffffffffffffffffffffffffffffffffffffff1614905090565b6114136113b3565b611485576040517f08c379a00000000000000000000000000000000000000000000000000000000081526004018080602001828103825260208152602001807f4f776e61626c653a2063616c6c6572206973206e6f7420746865206f776e657281525060200191505060405180910390fd5b61148e8261183f565b6114978161183f565b81600460006101000a81548173ffffffffffffffffffffffffffffffffffffffff021916908373ffffffffffffffffffffffffffffffffffffffff16021790555080600560006101000a81548173ffffffffffffffffffffffffffffffffffffffff021916908373ffffffffffffffffffffffffffffffffffffffff1602179055507f65f4cf077bc01e4742eb5ad98326f6e95b63548ea24b17f8d5e823111fe7880082604051808273ffffffffffffffffffffffffffffffffffffffff1673ffffffffffffffffffffffffffffffffffffffff16815260200191505060405180910390a17f143219c9e69b09e07e095fcc889b43d8f46ca892bba65f08dc3a0050869a567881604051808273ffffffffffffffffffffffffffffffffffffffff1673ffffffffffffffffffffffffffffffffffffffff16815260200191505060405180910390a16115e7611962565b5050565b670de0b6b3a764000081565b6040518060400160405280600b81526020017f48696e7448656c7065727300000000000000000000000000000000000000000081525081565b600460009054906101000a900473ffffffffffffffffffffffffffffffffffffffff1681565b600061166283836116a9565b905092915050565b60056103e8670de0b6b3a76400008161167f57fe5b040281565b60006116a2680ad78ebc5ac62000008361177990919063ffffffff16565b9050919050565b6000808211156116e8576116e1826116d368056bc75e2d6310000086611a2390919063ffffffff16565b611aa990919063ffffffff16565b905061170c565b7fffffffffffffffffffffffffffffffffffffffffffffffffffffffffffffffff90505b92915050565b60008083111561174e576000611743846117358588611a2390919063ffffffff16565b611aa990919063ffffffff16565b905080915050611772565b7fffffffffffffffffffffffffffffffffffffffffffffffffffffffffffffffff90505b9392505050565b6000808284019050838110156117f7576040517f08c379a000000000000000000000000000000000000000000000000000000000815260040180806020018281038252601b8152602001807f536166654d6174683a206164646974696f6e206f766572666c6f77000000000081525060200191505060405180910390fd5b8091505092915050565b6000818310156118235761181e8383611af390919063ffffffff16565b611837565b6118368284611af390919063ffffffff16565b5b905092915050565b600073ffffffffffffffffffffffffffffffffffffffff168173ffffffffffffffffffffffffffffffffffffffff1614156118e2576040517f08c379a000000000000000000000000000000000000000000000000000000000815260040180806020018281038252601e8152602001807f4163636f756e742063616e6e6f74206265207a65726f2061646472657373000081525060200191505060405180910390fd5b6000813b90506000811161195e576040517f08c379a00000000000000000000000000000000000000000000000000000000081526004018080602001828103825260208152602001807f4163636f756e7420636f64652073697a652063616e6e6f74206265207a65726f81525060200191505060405180910390fd5b5050565b600073ffffffffffffffffffffffffffffffffffffffff16600360009054906101000a900473ffffffffffffffffffffffffffffffffffffffff1673ffffffffffffffffffffffffffffffffffffffff167f8be0079c531659141344cd1fd0a4f28419497f9722a3daafe3b4186f6b6457e060405160405180910390a36000600360006101000a81548173ffffffffffffffffffffffffffffffffffffffff021916908373ffffffffffffffffffffffffffffffffffffffff160217905550565b600080831415611a365760009050611aa3565b6000828402905082848281611a4757fe5b0414611a9e576040517f08c379a0000000000000000000000000000000000000000000000000000000008152600401808060200182810382526021815260200180611cc46021913960400191505060405180910390fd5b809150505b92915050565b6000611aeb83836040518060400160405280601a81526020017f536166654d6174683a206469766973696f6e206279207a65726f000000000000815250611b3d565b905092915050565b6000611b3583836040518060400160405280601e81526020017f536166654d6174683a207375627472616374696f6e206f766572666c6f770000815250611c03565b905092915050565b60008083118290611be9576040517f08c379a00000000000000000000000000000000000000000000000000000000081526004018080602001828103825283818151815260200191508051906020019080838360005b83811015611bae578082015181840152602081019050611b93565b50505050905090810190601f168015611bdb5780820380516001836020036101000a031916815260200191505b509250505060405180910390fd5b506000838581611bf557fe5b049050809150509392505050565b6000838311158290611cb0576040517f08c379a00000000000000000000000000000000000000000000000000000000081526004018080602001828103825283818151815260200191508051906020019080838360005b83811015611c75578082015181840152602081019050611c5a565b50505050905090810190601f168015611ca25780820380516001836020036101000a031916815260200191505b509250505060405180910390fd5b506000838503905080915050939250505056fe536166654d6174683a206d756c7469706c69636174696f6e206f766572666c6f77a2646970667358221220f9c6959346e57becb526ddbee44957720209f33d492af4bb430dd8b09c20764664736f6c634300060b0033",
  "immutableReferences": {},
  "source": "// SPDX-License-Identifier: MIT\n\npragma solidity >=0.6.0 <0.8.0;\n\nimport \"./ITroveManager.sol\";\nimport \"./ISortedTroves.sol\";\nimport \"../Dependencies/LiquityBase.sol\";\nimport \"../Dependencies/Ownable.sol\";\nimport \"../Dependencies/CheckContract.sol\";\n\ncontract HintHelpers is LiquityBase, Ownable, CheckContract {\n    string public constant NAME = \"HintHelpers\";\n\n    ISortedTroves public sortedTroves;\n    ITroveManager public troveManager;\n\n    // --- Events ---\n\n    event SortedTrovesAddressChanged(address _sortedTrovesAddress);\n    event TroveManagerAddressChanged(address _troveManagerAddress);\n\n    // --- Dependency setters ---\n\n    function setAddresses(\n        address _sortedTrovesAddress,\n        address _troveManagerAddress\n    ) external onlyOwner {\n        checkContract(_sortedTrovesAddress);\n        checkContract(_troveManagerAddress);\n\n        sortedTroves = ISortedTroves(_sortedTrovesAddress);\n        troveManager = ITroveManager(_troveManagerAddress);\n\n        emit SortedTrovesAddressChanged(_sortedTrovesAddress);\n        emit TroveManagerAddressChanged(_troveManagerAddress);\n\n        _renounceOwnership();\n    }\n\n    // --- Functions ---\n\n    /* getRedemptionHints() - Helper function for finding the right hints to pass to redeemCollateral().\n     *\n     * It simulates a redemption of `_LUSDamount` to figure out where the redemption sequence will start and what state the final Trove\n     * of the sequence will end up in.\n     *\n     * Returns three hints:\n     *  - `firstRedemptionHint` is the address of the first Trove with ICR >= MCR (i.e. the first Trove that will be redeemed).\n     *  - `partialRedemptionHintNICR` is the final nominal ICR of the last Trove of the sequence after being hit by partial redemption,\n     *     or zero in case of no partial redemption.\n     *  - `truncatedLUSDamount` is the maximum amount that can be redeemed out of the the provided `_LUSDamount`. This can be lower than\n     *    `_LUSDamount` when redeeming the full amount would leave the last Trove of the redemption sequence with less net debt than the\n     *    minimum allowed value (i.e. MIN_NET_DEBT).\n     *\n     * The number of Troves to consider for redemption can be capped by passing a non-zero value as `_maxIterations`, while passing zero\n     * will leave it uncapped.\n     */\n\n    function getRedemptionHints(\n        uint256 _LUSDamount,\n        uint256 _price,\n        uint256 _maxIterations\n    )\n        external\n        view\n        returns (\n            address firstRedemptionHint,\n            uint256 partialRedemptionHintNICR,\n            uint256 truncatedLUSDamount\n        )\n    {\n        ISortedTroves sortedTrovesCached = sortedTroves;\n\n        uint256 remainingLUSD = _LUSDamount;\n        address currentTroveuser = sortedTrovesCached.getLast();\n\n        while (\n            currentTroveuser != address(0) &&\n            troveManager.getCurrentICR(currentTroveuser, _price) < MCR\n        ) {\n            currentTroveuser = sortedTrovesCached.getPrev(currentTroveuser);\n        }\n\n        firstRedemptionHint = currentTroveuser;\n\n        if (_maxIterations == 0) {\n            _maxIterations = uint256(-1);\n        }\n\n        while (\n            currentTroveuser != address(0) &&\n            remainingLUSD > 0 &&\n            _maxIterations-- > 0\n        ) {\n            uint256 netLUSDDebt = 2200;\n\n            if (netLUSDDebt > remainingLUSD) {\n                if (netLUSDDebt > MIN_NET_DEBT) {\n                    uint256 maxRedeemableLUSD = 100;\n                    uint256 ETH = 100;\n\n                    uint256 newColl = 100;\n                    uint256 newDebt = 100;\n\n                    uint256 compositeDebt = _getCompositeDebt(newDebt);\n                    partialRedemptionHintNICR = LiquityMath._computeNominalCR(\n                        newColl,\n                        compositeDebt\n                    );\n\n                    remainingLUSD = 100;\n                }\n                break;\n            } else {\n                remainingLUSD = 100;\n            }\n\n            currentTroveuser = sortedTrovesCached.getPrev(currentTroveuser);\n        }\n\n        truncatedLUSDamount = 100;\n    }\n\n    /* getApproxHint() - return address of a Trove that is, on average, (length / numTrials) positions away in the \n    sortedTroves list from the correct insert position of the Trove to be inserted. \n    \n    Note: The output address is worst-case O(n) positions away from the correct insert position, however, the function \n    is probabilistic. Input can be tuned to guarantee results to a high degree of confidence, e.g:\n    Submitting numTrials = k * sqrt(length), with k = 15 makes it very, very likely that the ouput address will \n    be <= sqrt(length) positions away from the correct insert position.\n    */\n    function getApproxHint(\n        uint256 _CR,\n        uint256 _numTrials,\n        uint256 _inputRandomSeed\n    )\n        external\n        view\n        returns (\n            address hintAddress,\n            uint256 diff,\n            uint256 latestRandomSeed\n        )\n    {\n        uint256 arrayLength = troveManager.getTroveOwnersCount();\n\n        if (arrayLength == 0) {\n            return (address(0), 0, _inputRandomSeed);\n        }\n\n        hintAddress = sortedTroves.getLast();\n        diff = LiquityMath._getAbsoluteDifference(\n            _CR,\n            troveManager.getNominalICR(hintAddress)\n        );\n        latestRandomSeed = _inputRandomSeed;\n\n        uint256 i = 1;\n\n        while (i < _numTrials) {\n            latestRandomSeed = uint256(\n                keccak256(abi.encodePacked(latestRandomSeed))\n            );\n\n            uint256 arrayIndex = latestRandomSeed % arrayLength;\n            address currentAddress =\n                troveManager.getTroveFromTroveOwnersArray(arrayIndex);\n            uint256 currentNICR = troveManager.getNominalICR(currentAddress);\n\n            // check if abs(current - CR) > abs(closest - CR), and update closest if current is closer\n            uint256 currentDiff =\n                LiquityMath._getAbsoluteDifference(currentNICR, _CR);\n\n            if (currentDiff < diff) {\n                diff = currentDiff;\n                hintAddress = currentAddress;\n            }\n            i++;\n        }\n    }\n\n    function computeNominalCR(uint256 _coll, uint256 _debt)\n        external\n        pure\n        returns (uint256)\n    {\n        return LiquityMath._computeNominalCR(_coll, _debt);\n    }\n\n    function computeCR(\n        uint256 _coll,\n        uint256 _debt,\n        uint256 _price\n    ) external pure returns (uint256) {\n        return LiquityMath._computeCR(_coll, _debt, _price);\n    }\n}\n",
  "sourcePath": "/Users/dannywarrick/code/harp/client/contracts/Interfaces/IHintHelpers.sol",
  "compiler": {
    "name": "solc",
    "version": "0.6.11+commit.5ef660b1.Emscripten.clang"
  },
  "schemaVersion": "3.3.4",
  "updatedAt": "2021-04-24T13:57:31.938Z",
  "devdoc": {
    "kind": "dev",
    "methods": {
      "isOwner()": {
        "details": "Returns true if the caller is the current owner."
      },
      "owner()": {
        "details": "Returns the address of the current owner."
      }
    },
    "version": 1
  },
  "userdoc": {
    "kind": "user",
    "methods": {},
    "version": 1
  }
}