{
  "contractName": "LatestFarm",
  "abi": [
    {
      "inputs": [
        {
          "internalType": "contract StringToken",
          "name": "_string",
          "type": "address"
        },
        {
          "internalType": "uint256",
          "name": "_boostedBuffer",
          "type": "uint256"
        },
        {
          "internalType": "contract StabilityPool",
          "name": "_stabPool",
          "type": "address"
        },
        {
          "internalType": "contract LQTYToken",
          "name": "_lqty",
          "type": "address"
        },
        {
          "internalType": "contract LUSDToken",
          "name": "_lusd",
          "type": "address"
        }
      ],
      "stateMutability": "nonpayable",
      "type": "constructor"
    },
    {
      "anonymous": false,
      "inputs": [
        {
          "indexed": true,
          "internalType": "address",
          "name": "who",
          "type": "address"
        },
        {
          "indexed": false,
          "internalType": "uint256",
          "name": "amountClaimed",
          "type": "uint256"
        }
      ],
      "name": "Claim",
      "type": "event"
    },
    {
      "anonymous": false,
      "inputs": [
        {
          "indexed": true,
          "internalType": "address",
          "name": "user",
          "type": "address"
        },
        {
          "indexed": true,
          "internalType": "uint256",
          "name": "pid",
          "type": "uint256"
        },
        {
          "indexed": false,
          "internalType": "uint256",
          "name": "amount",
          "type": "uint256"
        }
      ],
      "name": "Deposit",
      "type": "event"
    },
    {
      "anonymous": false,
      "inputs": [
        {
          "indexed": true,
          "internalType": "address",
          "name": "user",
          "type": "address"
        },
        {
          "indexed": true,
          "internalType": "uint256",
          "name": "pid",
          "type": "uint256"
        },
        {
          "indexed": false,
          "internalType": "uint256",
          "name": "amount",
          "type": "uint256"
        }
      ],
      "name": "EmergencyWithdraw",
      "type": "event"
    },
    {
      "anonymous": false,
      "inputs": [
        {
          "indexed": true,
          "internalType": "address",
          "name": "previousOwner",
          "type": "address"
        },
        {
          "indexed": true,
          "internalType": "address",
          "name": "newOwner",
          "type": "address"
        }
      ],
      "name": "OwnershipTransferred",
      "type": "event"
    },
    {
      "anonymous": false,
      "inputs": [
        {
          "indexed": true,
          "internalType": "address",
          "name": "user",
          "type": "address"
        },
        {
          "indexed": true,
          "internalType": "uint256",
          "name": "pid",
          "type": "uint256"
        },
        {
          "indexed": false,
          "internalType": "uint256",
          "name": "amount",
          "type": "uint256"
        }
      ],
      "name": "Withdraw",
      "type": "event"
    },
    {
      "inputs": [],
      "name": "boostedMultiplier",
      "outputs": [
        {
          "internalType": "uint256",
          "name": "",
          "type": "uint256"
        }
      ],
      "stateMutability": "view",
      "type": "function",
      "constant": true
    },
    {
      "inputs": [],
      "name": "devaddr",
      "outputs": [
        {
          "internalType": "address",
          "name": "",
          "type": "address"
        }
      ],
      "stateMutability": "view",
      "type": "function",
      "constant": true
    },
    {
      "inputs": [],
      "name": "endBlock",
      "outputs": [
        {
          "internalType": "uint256",
          "name": "",
          "type": "uint256"
        }
      ],
      "stateMutability": "view",
      "type": "function",
      "constant": true
    },
    {
      "inputs": [],
      "name": "isBoosted",
      "outputs": [
        {
          "internalType": "bool",
          "name": "",
          "type": "bool"
        }
      ],
      "stateMutability": "view",
      "type": "function",
      "constant": true
    },
    {
      "inputs": [],
      "name": "lqtyToken",
      "outputs": [
        {
          "internalType": "contract LQTYToken",
          "name": "",
          "type": "address"
        }
      ],
      "stateMutability": "view",
      "type": "function",
      "constant": true
    },
    {
      "inputs": [],
      "name": "lusdToken",
      "outputs": [
        {
          "internalType": "contract LUSDToken",
          "name": "",
          "type": "address"
        }
      ],
      "stateMutability": "view",
      "type": "function",
      "constant": true
    },
    {
      "inputs": [],
      "name": "owner",
      "outputs": [
        {
          "internalType": "address",
          "name": "",
          "type": "address"
        }
      ],
      "stateMutability": "view",
      "type": "function",
      "constant": true
    },
    {
      "inputs": [
        {
          "internalType": "uint256",
          "name": "",
          "type": "uint256"
        }
      ],
      "name": "poolInfo",
      "outputs": [
        {
          "internalType": "contract IERC20",
          "name": "lpToken",
          "type": "address"
        },
        {
          "internalType": "uint256",
          "name": "allocPoint",
          "type": "uint256"
        },
        {
          "internalType": "uint256",
          "name": "lastRewardBlock",
          "type": "uint256"
        },
        {
          "internalType": "uint256",
          "name": "accStringPerShare",
          "type": "uint256"
        },
        {
          "internalType": "uint256",
          "name": "accETHPerShare",
          "type": "uint256"
        },
        {
          "internalType": "uint256",
          "name": "accLQTYPerShare",
          "type": "uint256"
        }
      ],
      "stateMutability": "view",
      "type": "function",
      "constant": true
    },
    {
      "inputs": [],
      "name": "postBoostedBlock",
      "outputs": [
        {
          "internalType": "uint256",
          "name": "",
          "type": "uint256"
        }
      ],
      "stateMutability": "view",
      "type": "function",
      "constant": true
    },
    {
      "inputs": [],
      "name": "renounceOwnership",
      "outputs": [],
      "stateMutability": "nonpayable",
      "type": "function"
    },
    {
      "inputs": [],
      "name": "stabilityPool",
      "outputs": [
        {
          "internalType": "contract StabilityPool",
          "name": "",
          "type": "address"
        }
      ],
      "stateMutability": "view",
      "type": "function",
      "constant": true
    },
    {
      "inputs": [],
      "name": "startBlock",
      "outputs": [
        {
          "internalType": "uint256",
          "name": "",
          "type": "uint256"
        }
      ],
      "stateMutability": "view",
      "type": "function",
      "constant": true
    },
    {
      "inputs": [],
      "name": "stringPerBlock",
      "outputs": [
        {
          "internalType": "uint256",
          "name": "",
          "type": "uint256"
        }
      ],
      "stateMutability": "view",
      "type": "function",
      "constant": true
    },
    {
      "inputs": [],
      "name": "stringToken",
      "outputs": [
        {
          "internalType": "contract StringToken",
          "name": "",
          "type": "address"
        }
      ],
      "stateMutability": "view",
      "type": "function",
      "constant": true
    },
    {
      "inputs": [],
      "name": "totalAllocPoint",
      "outputs": [
        {
          "internalType": "uint256",
          "name": "",
          "type": "uint256"
        }
      ],
      "stateMutability": "view",
      "type": "function",
      "constant": true
    },
    {
      "inputs": [
        {
          "internalType": "address",
          "name": "newOwner",
          "type": "address"
        }
      ],
      "name": "transferOwnership",
      "outputs": [],
      "stateMutability": "nonpayable",
      "type": "function"
    },
    {
      "inputs": [
        {
          "internalType": "uint256",
          "name": "",
          "type": "uint256"
        },
        {
          "internalType": "address",
          "name": "",
          "type": "address"
        }
      ],
      "name": "userInfo",
      "outputs": [
        {
          "internalType": "uint256",
          "name": "amount",
          "type": "uint256"
        },
        {
          "internalType": "uint256",
          "name": "rewardDebt",
          "type": "uint256"
        },
        {
          "internalType": "uint256",
          "name": "ethRewardDebt",
          "type": "uint256"
        },
        {
          "internalType": "uint256",
          "name": "lqtyRewardDebt",
          "type": "uint256"
        },
        {
          "internalType": "uint256",
          "name": "lusdRewardDebt",
          "type": "uint256"
        }
      ],
      "stateMutability": "view",
      "type": "function",
      "constant": true
    },
    {
      "inputs": [],
      "name": "poolLength",
      "outputs": [
        {
          "internalType": "uint256",
          "name": "",
          "type": "uint256"
        }
      ],
      "stateMutability": "view",
      "type": "function",
      "constant": true
    },
    {
      "inputs": [
        {
          "internalType": "uint256",
          "name": "_allocPoint",
          "type": "uint256"
        },
        {
          "internalType": "contract IERC20",
          "name": "_lpToken",
          "type": "address"
        },
        {
          "internalType": "bool",
          "name": "_withUpdate",
          "type": "bool"
        }
      ],
      "name": "add",
      "outputs": [],
      "stateMutability": "nonpayable",
      "type": "function"
    },
    {
      "inputs": [
        {
          "internalType": "uint256",
          "name": "_pid",
          "type": "uint256"
        },
        {
          "internalType": "uint256",
          "name": "_allocPoint",
          "type": "uint256"
        },
        {
          "internalType": "bool",
          "name": "_withUpdate",
          "type": "bool"
        }
      ],
      "name": "set",
      "outputs": [],
      "stateMutability": "nonpayable",
      "type": "function"
    },
    {
      "inputs": [
        {
          "internalType": "uint256",
          "name": "_from",
          "type": "uint256"
        },
        {
          "internalType": "uint256",
          "name": "_to",
          "type": "uint256"
        }
      ],
      "name": "getMultiplier",
      "outputs": [
        {
          "internalType": "uint256",
          "name": "",
          "type": "uint256"
        }
      ],
      "stateMutability": "view",
      "type": "function",
      "constant": true
    },
    {
      "inputs": [
        {
          "internalType": "uint256",
          "name": "_pid",
          "type": "uint256"
        },
        {
          "internalType": "address",
          "name": "_user",
          "type": "address"
        }
      ],
      "name": "pendingString",
      "outputs": [
        {
          "internalType": "uint256",
          "name": "",
          "type": "uint256"
        }
      ],
      "stateMutability": "view",
      "type": "function",
      "constant": true
    },
    {
      "inputs": [],
      "name": "massUpdatePools",
      "outputs": [],
      "stateMutability": "nonpayable",
      "type": "function"
    },
    {
      "inputs": [
        {
          "internalType": "uint256",
          "name": "_pid",
          "type": "uint256"
        }
      ],
      "name": "updatePool",
      "outputs": [],
      "stateMutability": "nonpayable",
      "type": "function"
    },
    {
      "inputs": [
        {
          "internalType": "address",
          "name": "_hint",
          "type": "address"
        }
      ],
      "name": "updateSP",
      "outputs": [],
      "stateMutability": "nonpayable",
      "type": "function"
    },
    {
      "inputs": [
        {
          "internalType": "uint256",
          "name": "_pid",
          "type": "uint256"
        },
        {
          "internalType": "uint256",
          "name": "_amount",
          "type": "uint256"
        }
      ],
      "name": "deposit",
      "outputs": [],
      "stateMutability": "nonpayable",
      "type": "function"
    },
    {
      "inputs": [
        {
          "internalType": "uint256",
          "name": "_amount",
          "type": "uint256"
        },
        {
          "internalType": "address",
          "name": "_hint",
          "type": "address"
        }
      ],
      "name": "depositSP",
      "outputs": [],
      "stateMutability": "nonpayable",
      "type": "function"
    },
    {
      "inputs": [
        {
          "internalType": "uint256",
          "name": "_pid",
          "type": "uint256"
        },
        {
          "internalType": "uint256",
          "name": "_amount",
          "type": "uint256"
        }
      ],
      "name": "withdraw",
      "outputs": [],
      "stateMutability": "nonpayable",
      "type": "function"
    },
    {
      "inputs": [
        {
          "internalType": "uint256",
          "name": "_amount",
          "type": "uint256"
        },
        {
          "internalType": "address",
          "name": "_hint",
          "type": "address"
        }
      ],
      "name": "withdrawSP",
      "outputs": [],
      "stateMutability": "nonpayable",
      "type": "function"
    },
    {
      "inputs": [
        {
          "internalType": "uint256",
          "name": "_pid",
          "type": "uint256"
        }
      ],
      "name": "claim",
      "outputs": [],
      "stateMutability": "nonpayable",
      "type": "function"
    },
    {
      "inputs": [
        {
          "internalType": "uint256",
          "name": "_pid",
          "type": "uint256"
        }
      ],
      "name": "emergencyWithdraw",
      "outputs": [],
      "stateMutability": "nonpayable",
      "type": "function"
    }
  ],
  "bytecode": "0x60806040526713ed551c3eac98006007556001600960006101000a81548160ff0219169083151502179055506000600c553480156200003d57600080fd5b5060405162003a6238038062003a62833981810160405260a08110156200006357600080fd5b8101908080519060200190929190805190602001909291908051906020019092919080519060200190929190805190602001909291905050506000620000ae620002a560201b60201c565b9050806000806101000a81548173ffffffffffffffffffffffffffffffffffffffff021916908373ffffffffffffffffffffffffffffffffffffffff1602179055508073ffffffffffffffffffffffffffffffffffffffff16600073ffffffffffffffffffffffffffffffffffffffff167f8be0079c531659141344cd1fd0a4f28419497f9722a3daafe3b4186f6b6457e060405160405180910390a35082600460006101000a81548173ffffffffffffffffffffffffffffffffffffffff021916908373ffffffffffffffffffffffffffffffffffffffff16021790555084600160006101000a81548173ffffffffffffffffffffffffffffffffffffffff021916908373ffffffffffffffffffffffffffffffffffffffff16021790555081600260006101000a81548173ffffffffffffffffffffffffffffffffffffffff021916908373ffffffffffffffffffffffffffffffffffffffff16021790555080600360006101000a81548173ffffffffffffffffffffffffffffffffffffffff021916908373ffffffffffffffffffffffffffffffffffffffff1602179055506200026d6225317c43620002ad60201b6200272b1790919060201c565b60068190555043600d81905550620002948443620002ad60201b6200272b1790919060201c565b600881905550505050505062000336565b600033905090565b6000808284019050838110156200032c576040517f08c379a000000000000000000000000000000000000000000000000000000000815260040180806020018281038252601b8152602001807f536166654d6174683a206164646974696f6e206f766572666c6f77000000000081525060200191505060405180910390fd5b8091505092915050565b61371c80620003466000396000f3fe608060405234801561001057600080fd5b50600436106101e55760003560e01c806351eb05a61161010f5780638dbb1e3a116100a2578063d49e77cd11610071578063d49e77cd146107a7578063df5e8987146107db578063e2bbb1581461080f578063f2fde38b14610847576101e5565b80638dbb1e3a1461068957806393f1a40b146106d5578063b689755914610753578063b83f91a214610773576101e5565b80636d643304116100de5780636d6433041461059b578063715018a6146105fd578063812563df146106075780638da5cb5b14610655576101e5565b806351eb05a6146104f15780635312ea8e1461051f578063630b5ba11461054d57806364482f7914610557576101e5565b80631eaaa04511610187578063379607f511610156578063379607f51461041f578063441a3e701461044d57806344266db81461048557806348cd4cb1146104d3576101e5565b80631eaaa0451461032f5780631f7af3c3146103895780632727ae7b146103bd578063350bac3414610401576101e5565b80630b5f91fc116101c35780630b5f91fc1461025a5780630d483ae1146102785780631526fe271461029657806317caf6f114610311576101e5565b8063048c661d146101ea578063081e3eda1461021e578063083c63231461023c575b600080fd5b6101f261088b565b604051808273ffffffffffffffffffffffffffffffffffffffff16815260200191505060405180910390f35b6102266108b1565b6040518082815260200191505060405180910390f35b6102446108be565b6040518082815260200191505060405180910390f35b6102626108c4565b6040518082815260200191505060405180910390f35b6102806108ca565b6040518082815260200191505060405180910390f35b6102c2600480360360208110156102ac57600080fd5b81019080803590602001909291905050506108cf565b604051808773ffffffffffffffffffffffffffffffffffffffff168152602001868152602001858152602001848152602001838152602001828152602001965050505050505060405180910390f35b61031961093b565b6040518082815260200191505060405180910390f35b6103876004803603606081101561034557600080fd5b8101908080359060200190929190803573ffffffffffffffffffffffffffffffffffffffff169060200190929190803515159060200190929190505050610941565b005b610391610b3c565b604051808273ffffffffffffffffffffffffffffffffffffffff16815260200191505060405180910390f35b6103ff600480360360208110156103d357600080fd5b81019080803573ffffffffffffffffffffffffffffffffffffffff169060200190929190505050610b62565b005b610409610ecd565b6040518082815260200191505060405180910390f35b61044b6004803603602081101561043557600080fd5b8101908080359060200190929190505050610ed3565b005b6104836004803603604081101561046357600080fd5b810190808035906020019092919080359060200190929190505050610ff5565b005b6104d16004803603604081101561049b57600080fd5b8101908080359060200190929190803573ffffffffffffffffffffffffffffffffffffffff169060200190929190505050611201565b005b6104db61152e565b6040518082815260200191505060405180910390f35b61051d6004803603602081101561050757600080fd5b8101908080359060200190929190505050611534565b005b61054b6004803603602081101561053557600080fd5b81019080803590602001909291905050506118a5565b005b6105556119d7565b005b6105996004803603606081101561056d57600080fd5b810190808035906020019092919080359060200190929190803515159060200190929190505050611a04565b005b6105e7600480360360408110156105b157600080fd5b8101908080359060200190929190803573ffffffffffffffffffffffffffffffffffffffff169060200190929190505050611b4e565b6040518082815260200191505060405180910390f35b610605611dd0565b005b6106536004803603604081101561061d57600080fd5b8101908080359060200190929190803573ffffffffffffffffffffffffffffffffffffffff169060200190929190505050611f56565b005b61065d612238565b604051808273ffffffffffffffffffffffffffffffffffffffff16815260200191505060405180910390f35b6106bf6004803603604081101561069f57600080fd5b810190808035906020019092919080359060200190929190505050612261565b6040518082815260200191505060405180910390f35b610721600480360360408110156106eb57600080fd5b8101908080359060200190929190803573ffffffffffffffffffffffffffffffffffffffff1690602001909291905050506122b6565b604051808681526020018581526020018481526020018381526020018281526020019550505050505060405180910390f35b61075b6122f9565b60405180821515815260200191505060405180910390f35b61077b61230c565b604051808273ffffffffffffffffffffffffffffffffffffffff16815260200191505060405180910390f35b6107af612332565b604051808273ffffffffffffffffffffffffffffffffffffffff16815260200191505060405180910390f35b6107e3612358565b604051808273ffffffffffffffffffffffffffffffffffffffff16815260200191505060405180910390f35b6108456004803603604081101561082557600080fd5b81019080803590602001909291908035906020019092919050505061237e565b005b6108896004803603602081101561085d57600080fd5b81019080803573ffffffffffffffffffffffffffffffffffffffff169060200190929190505050612520565b005b600460009054906101000a900473ffffffffffffffffffffffffffffffffffffffff1681565b6000600a80549050905090565b60065481565b60085481565b600581565b600a81815481106108df57600080fd5b90600052602060002090600602016000915090508060000160009054906101000a900473ffffffffffffffffffffffffffffffffffffffff16908060010154908060020154908060030154908060040154908060050154905086565b600c5481565b6109496127b3565b73ffffffffffffffffffffffffffffffffffffffff1660008054906101000a900473ffffffffffffffffffffffffffffffffffffffff1673ffffffffffffffffffffffffffffffffffffffff1614610a09576040517f08c379a00000000000000000000000000000000000000000000000000000000081526004018080602001828103825260208152602001807f4f776e61626c653a2063616c6c6572206973206e6f7420746865206f776e657281525060200191505060405180910390fd5b8015610a1857610a176119d7565b5b6000600d544311610a2b57600d54610a2d565b435b9050610a4484600c5461272b90919063ffffffff16565b600c81905550600a6040518060c001604052808573ffffffffffffffffffffffffffffffffffffffff16815260200186815260200183815260200160008152602001600081526020016000815250908060018154018082558091505060019003906000526020600020906006020160009091909190915060008201518160000160006101000a81548173ffffffffffffffffffffffffffffffffffffffff021916908373ffffffffffffffffffffffffffffffffffffffff1602179055506020820151816001015560408201518160020155606082015181600301556080820151816004015560a08201518160050155505050505050565b600260009054906101000a900473ffffffffffffffffffffffffffffffffffffffff1681565b6000600a600281548110610b7257fe5b9060005260206000209060060201905080600201544311610b935750610eca565b60008160000160009054906101000a900473ffffffffffffffffffffffffffffffffffffffff1673ffffffffffffffffffffffffffffffffffffffff166370a08231306040518263ffffffff1660e01b8152600401808273ffffffffffffffffffffffffffffffffffffffff16815260200191505060206040518083038186803b158015610c2057600080fd5b505afa158015610c34573d6000803e3d6000fd5b505050506040513d6020811015610c4a57600080fd5b810190808051906020019092919050505090506000811415610c6d575050610eca565b600460009054906101000a900473ffffffffffffffffffffffffffffffffffffffff1673ffffffffffffffffffffffffffffffffffffffff16630b86273a846040518263ffffffff1660e01b8152600401808273ffffffffffffffffffffffffffffffffffffffff168152602001915050602060405180830381600087803b158015610cf857600080fd5b505af1158015610d0c573d6000803e3d6000fd5b505050506040513d6020811015610d2257600080fd5b81019080805190602001909291905050505060003073ffffffffffffffffffffffffffffffffffffffff163190506000600260009054906101000a900473ffffffffffffffffffffffffffffffffffffffff1673ffffffffffffffffffffffffffffffffffffffff166370a08231306040518263ffffffff1660e01b8152600401808273ffffffffffffffffffffffffffffffffffffffff16815260200191505060206040518083038186803b158015610ddb57600080fd5b505afa158015610def573d6000803e3d6000fd5b505050506040513d6020811015610e0557600080fd5b810190808051906020019092919050505090506000821115610e6a57610e61610e4e84610e4064e8d4a51000866127bb90919063ffffffff16565b61284190919063ffffffff16565b856003015461272b90919063ffffffff16565b84600401819055505b6000811115610ebc57610eb3610ea084610e9264e8d4a51000856127bb90919063ffffffff16565b61284190919063ffffffff16565b856003015461272b90919063ffffffff16565b84600501819055505b438460020181905550505050505b50565b60075481565b6000600a8281548110610ee257fe5b906000526020600020906006020190506000600b600084815260200190815260200160002060003373ffffffffffffffffffffffffffffffffffffffff1673ffffffffffffffffffffffffffffffffffffffff1681526020019081526020016000209050610f4f83611534565b6000610f5b828461288b565b9050610f673382612914565b610f9964e8d4a51000610f8b856003015485600001546127bb90919063ffffffff16565b61284190919063ffffffff16565b82600101819055503373ffffffffffffffffffffffffffffffffffffffff167f47cee97cb7acd717b3c0aa1435d004cd5b3c8c57d70dbceb4e4458bbd60e39d4826040518082815260200191505060405180910390a250505050565b6000600a838154811061100457fe5b906000526020600020906006020190506000600b600085815260200190815260200160002060003373ffffffffffffffffffffffffffffffffffffffff1673ffffffffffffffffffffffffffffffffffffffff168152602001908152602001600020905082816000015410156110e2576040517f08c379a00000000000000000000000000000000000000000000000000000000081526004018080602001828103825260128152602001807f77697468647261773a206e6f7420676f6f64000000000000000000000000000081525060200191505060405180910390fd5b6110eb84611534565b60006110f7828461288b565b90506111033382612914565b61111a848360000154612b8d90919063ffffffff16565b826000018190555061115464e8d4a51000611146856003015485600001546127bb90919063ffffffff16565b61284190919063ffffffff16565b82600101819055506111ab33858560000160009054906101000a900473ffffffffffffffffffffffffffffffffffffffff1673ffffffffffffffffffffffffffffffffffffffff16612bd79092919063ffffffff16565b843373ffffffffffffffffffffffffffffffffffffffff167ff279e6a1f5e320cca91135676d9cb6e44ca8a08c0b88342bcdb1144f6511b568866040518082815260200191505060405180910390a35050505050565b6000600a60028154811061121157fe5b906000526020600020906006020190506000600b60006002815260200190815260200160002060003373ffffffffffffffffffffffffffffffffffffffff1673ffffffffffffffffffffffffffffffffffffffff168152602001908152602001600020905083816000015410156112f0576040517f08c379a00000000000000000000000000000000000000000000000000000000081526004018080602001828103825260128152602001807f77697468647261773a206e6f7420676f6f64000000000000000000000000000081525060200191505060405180910390fd5b6112f983610b62565b6113036002611534565b600061130f8284612c79565b9050600061131d8385612cd0565b9050600061132b848661288b565b90506113373382612914565b6113413384612d27565b61134b3383612dea565b61137d64e8d4a5100061136f876003015487600001546127bb90919063ffffffff16565b61284190919063ffffffff16565b84600101819055506113b764e8d4a510006113a9876004015487600001546127bb90919063ffffffff16565b61284190919063ffffffff16565b84600201819055506113f164e8d4a510006113e3876005015487600001546127bb90919063ffffffff16565b61284190919063ffffffff16565b8460030181905550600460009054906101000a900473ffffffffffffffffffffffffffffffffffffffff1673ffffffffffffffffffffffffffffffffffffffff16632e54bf95886040518263ffffffff1660e01b815260040180828152602001915050600060405180830381600087803b15801561146e57600080fd5b505af1158015611482573d6000803e3d6000fd5b505050506114d533888760000160009054906101000a900473ffffffffffffffffffffffffffffffffffffffff1673ffffffffffffffffffffffffffffffffffffffff16612bd79092919063ffffffff16565b60023373ffffffffffffffffffffffffffffffffffffffff167ff279e6a1f5e320cca91135676d9cb6e44ca8a08c0b88342bcdb1144f6511b568896040518082815260200191505060405180910390a350505050505050565b600d5481565b6000600a828154811061154357fe5b906000526020600020906006020190508060020154431161156457506118a2565b60008160000160009054906101000a900473ffffffffffffffffffffffffffffffffffffffff1673ffffffffffffffffffffffffffffffffffffffff166370a08231306040518263ffffffff1660e01b8152600401808273ffffffffffffffffffffffffffffffffffffffff16815260200191505060206040518083038186803b1580156115f157600080fd5b505afa158015611605573d6000803e3d6000fd5b505050506040513d602081101561161b57600080fd5b8101908080519060200190929190505050905060008114156116475743826002018190555050506118a2565b6000611657836002015443612261565b9050600061169a600c5461168c866001015461167e600754876127bb90919063ffffffff16565b6127bb90919063ffffffff16565b61284190919063ffffffff16565b905060085443101561176f5760006116bc6005836127bb90919063ffffffff16565b9050600160009054906101000a900473ffffffffffffffffffffffffffffffffffffffff1673ffffffffffffffffffffffffffffffffffffffff1663449a52f830836040518363ffffffff1660e01b8152600401808373ffffffffffffffffffffffffffffffffffffffff16815260200182815260200192505050600060405180830381600087803b15801561175157600080fd5b505af1158015611765573d6000803e3d6000fd5b505050505061184c565b600960009054906101000a900460ff16156117a0576000600960006101000a81548160ff0219169083151502179055505b600160009054906101000a900473ffffffffffffffffffffffffffffffffffffffff1673ffffffffffffffffffffffffffffffffffffffff1663449a52f830836040518363ffffffff1660e01b8152600401808373ffffffffffffffffffffffffffffffffffffffff16815260200182815260200192505050600060405180830381600087803b15801561183357600080fd5b505af1158015611847573d6000803e3d6000fd5b505050505b61188c6118798461186b64e8d4a51000856127bb90919063ffffffff16565b61284190919063ffffffff16565b856003015461272b90919063ffffffff16565b8460030181905550438460020181905550505050505b50565b6000600a82815481106118b457fe5b906000526020600020906006020190506000600b600084815260200190815260200160002060003373ffffffffffffffffffffffffffffffffffffffff1673ffffffffffffffffffffffffffffffffffffffff168152602001908152602001600020905061196b3382600001548460000160009054906101000a900473ffffffffffffffffffffffffffffffffffffffff1673ffffffffffffffffffffffffffffffffffffffff16612bd79092919063ffffffff16565b823373ffffffffffffffffffffffffffffffffffffffff167fbb757047c2b5f3974fe26b7c10f732e7bce710b0952a71082702781e62ae059583600001546040518082815260200191505060405180910390a36000816000018190555060008160010181905550505050565b6000600a80549050905060005b81811015611a00576119f581611534565b8060010190506119e4565b5050565b611a0c6127b3565b73ffffffffffffffffffffffffffffffffffffffff1660008054906101000a900473ffffffffffffffffffffffffffffffffffffffff1673ffffffffffffffffffffffffffffffffffffffff1614611acc576040517f08c379a00000000000000000000000000000000000000000000000000000000081526004018080602001828103825260208152602001807f4f776e61626c653a2063616c6c6572206973206e6f7420746865206f776e657281525060200191505060405180910390fd5b8015611adb57611ada6119d7565b5b611b2082611b12600a8681548110611aef57fe5b906000526020600020906006020160010154600c54612b8d90919063ffffffff16565b61272b90919063ffffffff16565b600c8190555081600a8481548110611b3457fe5b906000526020600020906006020160010181905550505050565b600080600a8481548110611b5e57fe5b906000526020600020906006020190506000600b600086815260200190815260200160002060008573ffffffffffffffffffffffffffffffffffffffff1673ffffffffffffffffffffffffffffffffffffffff168152602001908152602001600020905060008260030154905060008360000160009054906101000a900473ffffffffffffffffffffffffffffffffffffffff1673ffffffffffffffffffffffffffffffffffffffff166370a08231306040518263ffffffff1660e01b8152600401808273ffffffffffffffffffffffffffffffffffffffff16815260200191505060206040518083038186803b158015611c5857600080fd5b505afa158015611c6c573d6000803e3d6000fd5b505050506040513d6020811015611c8257600080fd5b81019080805190602001909291905050509050836002015443118015611ca9575060008114155b15611d44576000611cbe856002015443612261565b90506000611d01600c54611cf38860010154611ce5600754876127bb90919063ffffffff16565b6127bb90919063ffffffff16565b61284190919063ffffffff16565b9050611d3f611d3084611d2264e8d4a51000856127bb90919063ffffffff16565b61284190919063ffffffff16565b8561272b90919063ffffffff16565b935050505b6000611d8a8460010154611d7c64e8d4a51000611d6e8789600001546127bb90919063ffffffff16565b61284190919063ffffffff16565b612b8d90919063ffffffff16565b9050600960009054906101000a900460ff1615611dc157611db56005826127bb90919063ffffffff16565b95505050505050611dca565b80955050505050505b92915050565b611dd86127b3565b73ffffffffffffffffffffffffffffffffffffffff1660008054906101000a900473ffffffffffffffffffffffffffffffffffffffff1673ffffffffffffffffffffffffffffffffffffffff1614611e98576040517f08c379a00000000000000000000000000000000000000000000000000000000081526004018080602001828103825260208152602001807f4f776e61626c653a2063616c6c6572206973206e6f7420746865206f776e657281525060200191505060405180910390fd5b600073ffffffffffffffffffffffffffffffffffffffff1660008054906101000a900473ffffffffffffffffffffffffffffffffffffffff1673ffffffffffffffffffffffffffffffffffffffff167f8be0079c531659141344cd1fd0a4f28419497f9722a3daafe3b4186f6b6457e060405160405180910390a360008060006101000a81548173ffffffffffffffffffffffffffffffffffffffff021916908373ffffffffffffffffffffffffffffffffffffffff160217905550565b6000600a600281548110611f6657fe5b906000526020600020906006020190506000600b60006002815260200190815260200160002060003373ffffffffffffffffffffffffffffffffffffffff1673ffffffffffffffffffffffffffffffffffffffff1681526020019081526020016000209050611fd483610b62565b611fde6002611534565b600081600001541115612037576000611ff78284612c79565b905060006120058385612cd0565b90506000612013848661288b565b905061201f3382612914565b6120293384612d27565b6120333383612dea565b5050505b6120883330868560000160009054906101000a900473ffffffffffffffffffffffffffffffffffffffff1673ffffffffffffffffffffffffffffffffffffffff16613063909392919063ffffffff16565b600460009054906101000a900473ffffffffffffffffffffffffffffffffffffffff1673ffffffffffffffffffffffffffffffffffffffff166378c77a24856040518263ffffffff1660e01b815260040180828152602001915050600060405180830381600087803b1580156120fd57600080fd5b505af1158015612111573d6000803e3d6000fd5b5050505061212c84826000015461272b90919063ffffffff16565b816000018190555061216664e8d4a51000612158846003015484600001546127bb90919063ffffffff16565b61284190919063ffffffff16565b81600101819055506121a064e8d4a51000612192846004015484600001546127bb90919063ffffffff16565b61284190919063ffffffff16565b81600201819055506121da64e8d4a510006121cc846005015484600001546127bb90919063ffffffff16565b61284190919063ffffffff16565b816003018190555060023373ffffffffffffffffffffffffffffffffffffffff167f90890809c654f11d6e72a28fa60149770a0d11ec6c92319d6ceb2bb0a4ea1a15866040518082815260200191505060405180910390a350505050565b60008060009054906101000a900473ffffffffffffffffffffffffffffffffffffffff16905090565b600060065482116122865761227f8383612b8d90919063ffffffff16565b90506122b0565b600654831061229857600090506122b0565b6122ad83600654612b8d90919063ffffffff16565b90505b92915050565b600b602052816000526040600020602052806000526040600020600091509150508060000154908060010154908060020154908060030154908060040154905085565b600960009054906101000a900460ff1681565b600360009054906101000a900473ffffffffffffffffffffffffffffffffffffffff1681565b600560009054906101000a900473ffffffffffffffffffffffffffffffffffffffff1681565b600160009054906101000a900473ffffffffffffffffffffffffffffffffffffffff1681565b6000600a838154811061238d57fe5b906000526020600020906006020190506000600b600085815260200190815260200160002060003373ffffffffffffffffffffffffffffffffffffffff1673ffffffffffffffffffffffffffffffffffffffff16815260200190815260200160002090506123fa84611534565b600081600001541115612421576000612413828461288b565b905061241f3382612914565b505b6124723330858560000160009054906101000a900473ffffffffffffffffffffffffffffffffffffffff1673ffffffffffffffffffffffffffffffffffffffff16613063909392919063ffffffff16565b61248983826000015461272b90919063ffffffff16565b81600001819055506124c364e8d4a510006124b5846003015484600001546127bb90919063ffffffff16565b61284190919063ffffffff16565b8160010181905550833373ffffffffffffffffffffffffffffffffffffffff167f90890809c654f11d6e72a28fa60149770a0d11ec6c92319d6ceb2bb0a4ea1a15856040518082815260200191505060405180910390a350505050565b6125286127b3565b73ffffffffffffffffffffffffffffffffffffffff1660008054906101000a900473ffffffffffffffffffffffffffffffffffffffff1673ffffffffffffffffffffffffffffffffffffffff16146125e8576040517f08c379a00000000000000000000000000000000000000000000000000000000081526004018080602001828103825260208152602001807f4f776e61626c653a2063616c6c6572206973206e6f7420746865206f776e657281525060200191505060405180910390fd5b600073ffffffffffffffffffffffffffffffffffffffff168173ffffffffffffffffffffffffffffffffffffffff16141561266e576040517f08c379a00000000000000000000000000000000000000000000000000000000081526004018080602001828103825260268152602001806136506026913960400191505060405180910390fd5b8073ffffffffffffffffffffffffffffffffffffffff1660008054906101000a900473ffffffffffffffffffffffffffffffffffffffff1673ffffffffffffffffffffffffffffffffffffffff167f8be0079c531659141344cd1fd0a4f28419497f9722a3daafe3b4186f6b6457e060405160405180910390a3806000806101000a81548173ffffffffffffffffffffffffffffffffffffffff021916908373ffffffffffffffffffffffffffffffffffffffff16021790555050565b6000808284019050838110156127a9576040517f08c379a000000000000000000000000000000000000000000000000000000000815260040180806020018281038252601b8152602001807f536166654d6174683a206164646974696f6e206f766572666c6f77000000000081525060200191505060405180910390fd5b8091505092915050565b600033905090565b6000808314156127ce576000905061283b565b60008284029050828482816127df57fe5b0414612836576040517f08c379a000000000000000000000000000000000000000000000000000000000815260040180806020018281038252602181526020018061369c6021913960400191505060405180910390fd5b809150505b92915050565b600061288383836040518060400160405280601a81526020017f536166654d6174683a206469766973696f6e206279207a65726f000000000000815250613124565b905092915050565b6000806128d684600101546128c864e8d4a510006128ba876003015489600001546127bb90919063ffffffff16565b61284190919063ffffffff16565b612b8d90919063ffffffff16565b9050600960009054906101000a900460ff1615612909576129016005826127bb90919063ffffffff16565b91505061290e565b809150505b92915050565b6000600160009054906101000a900473ffffffffffffffffffffffffffffffffffffffff1673ffffffffffffffffffffffffffffffffffffffff166370a08231306040518263ffffffff1660e01b8152600401808273ffffffffffffffffffffffffffffffffffffffff16815260200191505060206040518083038186803b15801561299f57600080fd5b505afa1580156129b3573d6000803e3d6000fd5b505050506040513d60208110156129c957600080fd5b8101908080519060200190929190505050905080821115612ab857600160009054906101000a900473ffffffffffffffffffffffffffffffffffffffff1673ffffffffffffffffffffffffffffffffffffffff1663a9059cbb84836040518363ffffffff1660e01b8152600401808373ffffffffffffffffffffffffffffffffffffffff16815260200182815260200192505050602060405180830381600087803b158015612a7757600080fd5b505af1158015612a8b573d6000803e3d6000fd5b505050506040513d6020811015612aa157600080fd5b810190808051906020019092919050505050612b88565b600160009054906101000a900473ffffffffffffffffffffffffffffffffffffffff1673ffffffffffffffffffffffffffffffffffffffff1663a9059cbb84846040518363ffffffff1660e01b8152600401808373ffffffffffffffffffffffffffffffffffffffff16815260200182815260200192505050602060405180830381600087803b158015612b4b57600080fd5b505af1158015612b5f573d6000803e3d6000fd5b505050506040513d6020811015612b7557600080fd5b8101908080519060200190929190505050505b505050565b6000612bcf83836040518060400160405280601e81526020017f536166654d6174683a207375627472616374696f6e206f766572666c6f7700008152506131ea565b905092915050565b612c748363a9059cbb60e01b8484604051602401808373ffffffffffffffffffffffffffffffffffffffff16815260200182815260200192505050604051602081830303815290604052907bffffffffffffffffffffffffffffffffffffffffffffffffffffffff19166020820180517bffffffffffffffffffffffffffffffffffffffffffffffffffffffff83818316178352505050506132aa565b505050565b600080612cc48460020154612cb664e8d4a51000612ca8876004015489600001546127bb90919063ffffffff16565b61284190919063ffffffff16565b612b8d90919063ffffffff16565b90508091505092915050565b600080612d1b8460030154612d0d64e8d4a51000612cff876005015489600001546127bb90919063ffffffff16565b61284190919063ffffffff16565b612b8d90919063ffffffff16565b90508091505092915050565b60003373ffffffffffffffffffffffffffffffffffffffff16319050600033905081831115612d9c578073ffffffffffffffffffffffffffffffffffffffff166108fc839081150290604051600060405180830381858888f19350505050158015612d96573d6000803e3d6000fd5b50612de4565b8073ffffffffffffffffffffffffffffffffffffffff166108fc849081150290604051600060405180830381858888f19350505050158015612de2573d6000803e3d6000fd5b505b50505050565b6000600260009054906101000a900473ffffffffffffffffffffffffffffffffffffffff1673ffffffffffffffffffffffffffffffffffffffff166370a08231306040518263ffffffff1660e01b8152600401808273ffffffffffffffffffffffffffffffffffffffff16815260200191505060206040518083038186803b158015612e7557600080fd5b505afa158015612e89573d6000803e3d6000fd5b505050506040513d6020811015612e9f57600080fd5b8101908080519060200190929190505050905080821115612f8e57600260009054906101000a900473ffffffffffffffffffffffffffffffffffffffff1673ffffffffffffffffffffffffffffffffffffffff1663a9059cbb84836040518363ffffffff1660e01b8152600401808373ffffffffffffffffffffffffffffffffffffffff16815260200182815260200192505050602060405180830381600087803b158015612f4d57600080fd5b505af1158015612f61573d6000803e3d6000fd5b505050506040513d6020811015612f7757600080fd5b81019080805190602001909291905050505061305e565b600260009054906101000a900473ffffffffffffffffffffffffffffffffffffffff1673ffffffffffffffffffffffffffffffffffffffff1663a9059cbb84846040518363ffffffff1660e01b8152600401808373ffffffffffffffffffffffffffffffffffffffff16815260200182815260200192505050602060405180830381600087803b15801561302157600080fd5b505af1158015613035573d6000803e3d6000fd5b505050506040513d602081101561304b57600080fd5b8101908080519060200190929190505050505b505050565b61311e846323b872dd60e01b858585604051602401808473ffffffffffffffffffffffffffffffffffffffff1681526020018373ffffffffffffffffffffffffffffffffffffffff1681526020018281526020019350505050604051602081830303815290604052907bffffffffffffffffffffffffffffffffffffffffffffffffffffffff19166020820180517bffffffffffffffffffffffffffffffffffffffffffffffffffffffff83818316178352505050506132aa565b50505050565b600080831182906131d0576040517f08c379a00000000000000000000000000000000000000000000000000000000081526004018080602001828103825283818151815260200191508051906020019080838360005b8381101561319557808201518184015260208101905061317a565b50505050905090810190601f1680156131c25780820380516001836020036101000a031916815260200191505b509250505060405180910390fd5b5060008385816131dc57fe5b049050809150509392505050565b6000838311158290613297576040517f08c379a00000000000000000000000000000000000000000000000000000000081526004018080602001828103825283818151815260200191508051906020019080838360005b8381101561325c578082015181840152602081019050613241565b50505050905090810190601f1680156132895780820380516001836020036101000a031916815260200191505b509250505060405180910390fd5b5060008385039050809150509392505050565b600061330c826040518060400160405280602081526020017f5361666545524332303a206c6f772d6c6576656c2063616c6c206661696c65648152508573ffffffffffffffffffffffffffffffffffffffff166133999092919063ffffffff16565b90506000815111156133945780806020019051602081101561332d57600080fd5b8101908080519060200190929190505050613393576040517f08c379a000000000000000000000000000000000000000000000000000000000815260040180806020018281038252602a8152602001806136bd602a913960400191505060405180910390fd5b5b505050565b60606133a884846000856133b1565b90509392505050565b6060823073ffffffffffffffffffffffffffffffffffffffff16311015613423576040517f08c379a00000000000000000000000000000000000000000000000000000000081526004018080602001828103825260268152602001806136766026913960400191505060405180910390fd5b61342c85613570565b61349e576040517f08c379a000000000000000000000000000000000000000000000000000000000815260040180806020018281038252601d8152602001807f416464726573733a2063616c6c20746f206e6f6e2d636f6e747261637400000081525060200191505060405180910390fd5b6000808673ffffffffffffffffffffffffffffffffffffffff1685876040518082805190602001908083835b602083106134ed57805182526020820191506020810190506020830392506134ca565b6001836020036101000a03801982511681845116808217855250505050505090500191505060006040518083038185875af1925050503d806000811461354f576040519150601f19603f3d011682016040523d82523d6000602084013e613554565b606091505b5091509150613564828286613583565b92505050949350505050565b600080823b905060008111915050919050565b6060831561359357829050613648565b6000835111156135a65782518084602001fd5b816040517f08c379a00000000000000000000000000000000000000000000000000000000081526004018080602001828103825283818151815260200191508051906020019080838360005b8381101561360d5780820151818401526020810190506135f2565b50505050905090810190601f16801561363a5780820380516001836020036101000a031916815260200191505b509250505060405180910390fd5b939250505056fe4f776e61626c653a206e6577206f776e657220697320746865207a65726f2061646472657373416464726573733a20696e73756666696369656e742062616c616e636520666f722063616c6c536166654d6174683a206d756c7469706c69636174696f6e206f766572666c6f775361666545524332303a204552433230206f7065726174696f6e20646964206e6f742073756363656564a264697066735822122038b567e6b757de56ebfd5a7037c22b72d0c64d1372a378b3d7da888861e153a264736f6c63430007060033",
  "immutableReferences": {},
  "source": "// SPDX-License-Identifier: MIT\r\npragma solidity >=0.6.0 <0.8.0;\r\nimport \"@openzeppelin/contracts/access/Ownable.sol\";\r\nimport \"@openzeppelin/contracts/math/SafeMath.sol\";\r\nimport \"@openzeppelin/contracts/token/ERC20/IERC20.sol\";\r\nimport \"@openzeppelin/contracts/token/ERC20/SafeERC20.sol\";\r\nimport \"./StringToken.sol\";\r\nimport \"./LQTYToken.sol\";\r\nimport \"./StabilityPool.sol\";\r\n\r\ncontract LatestFarm is Ownable {\r\n    using SafeMath for uint256;\r\n    using SafeERC20 for IERC20;\r\n\r\n    // Info of each user.\r\n    struct UserInfo {\r\n        uint256 amount; // How many LP tokens the user has provided.\r\n        uint256 rewardDebt; // Reward debt. See explanation below.\r\n        uint256 ethRewardDebt;\r\n        uint256 lqtyRewardDebt;\r\n        uint256 lusdRewardDebt;\r\n        //\r\n        // We do some fancy math here. Basically, any point in time, the amount of SUSHIs\r\n        // entitled to a user but is pending to be distributed is:\r\n        //\r\n        //   pending reward = (user.amount * pool.accstringPerShare) - user.rewardDebt\r\n        //\r\n        // Whenever a user deposits or withdraws LP tokens to a pool. Here's what happens:\r\n        //   1. The pool's `accStringPerShare` (and `lastRewardBlock`) gets updated.\r\n        //   2. User receives the pending reward sent to his/her address.\r\n        //   3. User's `amount` gets updated.\r\n        //   4. User's `rewardDebt` gets updated.\r\n    }\r\n\r\n    // Info of each pool.\r\n    struct PoolInfo {\r\n        IERC20 lpToken; // Address of LP token contract.\r\n        uint256 allocPoint; // How many allocation points assigned to this pool. SUSHIs to distribute per block.\r\n        uint256 lastRewardBlock; // Last block number that SUSHIs distribution occurs.\r\n        uint256 accStringPerShare; // Accumulated SUSHIs per share, times 1e12. See below.\r\n        uint256 accETHPerShare; // Accumulated SUSHIs per share, times 1e12. See below.\r\n        uint256 accLQTYPerShare; // Accumulated SUSHIs per share, times 1e12. See below.\r\n    }\r\n\r\n    // The SUSHI TOKEN!\r\n    StringToken public stringToken;\r\n    LQTYToken public lqtyToken;\r\n    LUSDToken public lusdToken;\r\n    StabilityPool public stabilityPool;\r\n    // Dev address.\r\n    address public devaddr;\r\n    // Block number when bonus SUSHI period ends.\r\n    uint256 public endBlock;\r\n    // SUSHI tokens created per block.\r\n    uint256 public stringPerBlock = 1435897436000000000;\r\n    uint256 public postBoostedBlock;\r\n    uint256 public constant boostedMultiplier = 5;\r\n    bool public isBoosted = true;\r\n\r\n    // Info of each pool.\r\n    PoolInfo[] public poolInfo;\r\n    // Info of each user that stakes LP tokens.\r\n    mapping(uint256 => mapping(address => UserInfo)) public userInfo;\r\n    // Total allocation poitns. Must be the sum of all allocation points in all pools.\r\n    uint256 public totalAllocPoint = 0;\r\n    // The block number when SUSHI mining starts.\r\n    uint256 public startBlock;\r\n\r\n    event Deposit(address indexed user, uint256 indexed pid, uint256 amount);\r\n    event Withdraw(address indexed user, uint256 indexed pid, uint256 amount);\r\n    event Claim(address indexed who, uint256 amountClaimed);\r\n    event EmergencyWithdraw(\r\n        address indexed user,\r\n        uint256 indexed pid,\r\n        uint256 amount\r\n    );\r\n\r\n    constructor(\r\n        StringToken _string,\r\n        uint256 _boostedBuffer,\r\n        StabilityPool _stabPool,\r\n        LQTYToken _lqty,\r\n        LUSDToken _lusd // uint256 _startBlock, // uint256 _endBlock\r\n    ) {\r\n        stabilityPool = _stabPool;\r\n        stringToken = _string;\r\n        lqtyToken = _lqty;\r\n        lusdToken = _lusd;\r\n        endBlock = block.number.add(2437500);\r\n        startBlock = block.number;\r\n        postBoostedBlock = block.number.add(_boostedBuffer);\r\n    }\r\n\r\n    function poolLength() external view returns (uint256) {\r\n        return poolInfo.length;\r\n    }\r\n\r\n    // Add a new lp to the pool. Can only be called by the owner.\r\n    // XXX DO NOT add the same LP token more than once. Rewards will be messed up if you do.\r\n    function add(\r\n        uint256 _allocPoint,\r\n        IERC20 _lpToken,\r\n        bool _withUpdate\r\n    ) public onlyOwner {\r\n        if (_withUpdate) {\r\n            massUpdatePools();\r\n        }\r\n        uint256 lastRewardBlock =\r\n            block.number > startBlock ? block.number : startBlock;\r\n        totalAllocPoint = totalAllocPoint.add(_allocPoint);\r\n        poolInfo.push(\r\n            PoolInfo({\r\n                lpToken: _lpToken,\r\n                allocPoint: _allocPoint,\r\n                lastRewardBlock: lastRewardBlock,\r\n                accStringPerShare: 0,\r\n                accLQTYPerShare: 0,\r\n                accETHPerShare: 0\r\n            })\r\n        );\r\n    }\r\n\r\n    // Update the given pool's SUSHI allocation point. Can only be called by the owner.\r\n    function set(\r\n        uint256 _pid,\r\n        uint256 _allocPoint,\r\n        bool _withUpdate\r\n    ) public onlyOwner {\r\n        if (_withUpdate) {\r\n            massUpdatePools();\r\n        }\r\n        totalAllocPoint = totalAllocPoint.sub(poolInfo[_pid].allocPoint).add(\r\n            _allocPoint\r\n        );\r\n        poolInfo[_pid].allocPoint = _allocPoint;\r\n    }\r\n\r\n    // Return reward multiplier over the given _from to _to block.\r\n    function getMultiplier(uint256 _from, uint256 _to)\r\n        public\r\n        view\r\n        returns (uint256)\r\n    {\r\n        if (_to <= endBlock) {\r\n            return _to.sub(_from);\r\n        } else if (_from >= endBlock) {\r\n            return 0;\r\n        } else {\r\n            return endBlock.sub(_from);\r\n        }\r\n    }\r\n\r\n    // View function to see pending SUSHIs on frontend.\r\n    function pendingString(uint256 _pid, address _user)\r\n        external\r\n        view\r\n        returns (uint256)\r\n    {\r\n        PoolInfo storage pool = poolInfo[_pid];\r\n        UserInfo storage user = userInfo[_pid][_user];\r\n        uint256 accStringPerShare = pool.accStringPerShare;\r\n        uint256 lpSupply = pool.lpToken.balanceOf(address(this));\r\n        if (block.number > pool.lastRewardBlock && lpSupply != 0) {\r\n            uint256 multiplier =\r\n                getMultiplier(pool.lastRewardBlock, block.number);\r\n            uint256 stringReward =\r\n                multiplier.mul(stringPerBlock).mul(pool.allocPoint).div(\r\n                    totalAllocPoint\r\n                );\r\n            accStringPerShare = accStringPerShare.add(\r\n                stringReward.mul(1e12).div(lpSupply)\r\n            );\r\n        }\r\n        uint256 pending =\r\n            user.amount.mul(accStringPerShare).div(1e12).sub(user.rewardDebt);\r\n\r\n        if (isBoosted) {\r\n            return pending.mul(boostedMultiplier);\r\n        } else {\r\n            return pending;\r\n        }\r\n    }\r\n\r\n    // Update reward vairables for all pools. Be careful of gas spending!\r\n    function massUpdatePools() public {\r\n        uint256 length = poolInfo.length;\r\n        for (uint256 pid = 0; pid < length; ++pid) {\r\n            updatePool(pid);\r\n        }\r\n    }\r\n\r\n    // Update reward variables of the given pool to be up-to-date.\r\n    function updatePool(uint256 _pid) public {\r\n        PoolInfo storage pool = poolInfo[_pid];\r\n        if (block.number <= pool.lastRewardBlock) {\r\n            return;\r\n        }\r\n        uint256 lpSupply = pool.lpToken.balanceOf(address(this));\r\n        if (lpSupply == 0) {\r\n            pool.lastRewardBlock = block.number;\r\n            return;\r\n        }\r\n        uint256 multiplier = getMultiplier(pool.lastRewardBlock, block.number);\r\n        uint256 stringReward =\r\n            multiplier.mul(stringPerBlock).mul(pool.allocPoint).div(\r\n                totalAllocPoint\r\n            );\r\n        if (block.number < postBoostedBlock) {\r\n            uint256 boostedReward = stringReward.mul(boostedMultiplier);\r\n            stringToken.mintTo(address(this), boostedReward);\r\n        } else {\r\n            if (isBoosted) {\r\n                isBoosted = false;\r\n            }\r\n            stringToken.mintTo(address(this), stringReward);\r\n        }\r\n\r\n        pool.accStringPerShare = pool.accStringPerShare.add(\r\n            stringReward.mul(1e12).div(lpSupply)\r\n        );\r\n        pool.lastRewardBlock = block.number;\r\n    }\r\n\r\n    function updateSP(address _hint) public {\r\n        PoolInfo storage pool = poolInfo[2];\r\n        if (block.number <= pool.lastRewardBlock) {\r\n            return;\r\n        }\r\n        uint256 lpSupply = pool.lpToken.balanceOf(address(this));\r\n\r\n        if (lpSupply == 0) {\r\n            return;\r\n        }\r\n\r\n        stabilityPool.withdrawETHGainToTrove(_hint);\r\n\r\n        uint256 ethAvailableRewards = address(this).balance;\r\n        uint256 lqtyAvailableRewards = lqtyToken.balanceOf(address(this));\r\n        if (ethAvailableRewards > 0) {\r\n            pool.accETHPerShare = pool.accStringPerShare.add(\r\n                ethAvailableRewards.mul(1e12).div(lpSupply)\r\n            );\r\n        }\r\n\r\n        if (lqtyAvailableRewards > 0) {\r\n            pool.accLQTYPerShare = pool.accStringPerShare.add(\r\n                lqtyAvailableRewards.mul(1e12).div(lpSupply)\r\n            );\r\n        }\r\n        pool.lastRewardBlock = block.number;\r\n    }\r\n\r\n    // Deposit LP tokens to MasterChef for SUSHI allocation.\r\n    function deposit(uint256 _pid, uint256 _amount) public {\r\n        PoolInfo storage pool = poolInfo[_pid];\r\n        UserInfo storage user = userInfo[_pid][msg.sender];\r\n        updatePool(_pid);\r\n        if (user.amount > 0) {\r\n            uint256 pending = _pending(user, pool);\r\n            safeStringTransfer(msg.sender, pending);\r\n        }\r\n        pool.lpToken.safeTransferFrom(\r\n            address(msg.sender),\r\n            address(this),\r\n            _amount\r\n        );\r\n        user.amount = user.amount.add(_amount);\r\n        user.rewardDebt = user.amount.mul(pool.accStringPerShare).div(1e12);\r\n        emit Deposit(msg.sender, _pid, _amount);\r\n    }\r\n\r\n    function depositSP(uint256 _amount, address _hint) public {\r\n        PoolInfo storage pool = poolInfo[2];\r\n        UserInfo storage user = userInfo[2][msg.sender];\r\n        updateSP(_hint);\r\n        updatePool(2);\r\n\r\n        if (user.amount > 0) {\r\n            uint256 pendingETH = _pendingETH(user, pool);\r\n            uint256 pendingLQTY = _pendingLQTY(user, pool);\r\n            uint256 pending = _pending(user, pool);\r\n            safeStringTransfer(msg.sender, pending);\r\n            safeETHTransfer(msg.sender, pendingETH);\r\n            safeLQTYTransfer(msg.sender, pendingLQTY);\r\n        }\r\n\r\n        pool.lpToken.safeTransferFrom(\r\n            address(msg.sender),\r\n            address(this),\r\n            _amount\r\n        );\r\n        stabilityPool.provideToSP(_amount);\r\n\r\n        user.amount = user.amount.add(_amount);\r\n        user.rewardDebt = user.amount.mul(pool.accStringPerShare).div(1e12);\r\n        user.ethRewardDebt = user.amount.mul(pool.accETHPerShare).div(1e12);\r\n        user.lqtyRewardDebt = user.amount.mul(pool.accLQTYPerShare).div(1e12);\r\n        emit Deposit(msg.sender, 2, _amount);\r\n    }\r\n\r\n    // Withdraw LP tokens from MasterChef.\r\n    function withdraw(uint256 _pid, uint256 _amount) public {\r\n        PoolInfo storage pool = poolInfo[_pid];\r\n        UserInfo storage user = userInfo[_pid][msg.sender];\r\n        require(user.amount >= _amount, \"withdraw: not good\");\r\n        updatePool(_pid);\r\n        uint256 pending = _pending(user, pool);\r\n        safeStringTransfer(msg.sender, pending);\r\n        user.amount = user.amount.sub(_amount);\r\n        user.rewardDebt = user.amount.mul(pool.accStringPerShare).div(1e12);\r\n        pool.lpToken.safeTransfer(address(msg.sender), _amount);\r\n        emit Withdraw(msg.sender, _pid, _amount);\r\n    }\r\n\r\n    function withdrawSP(uint256 _amount, address _hint) public {\r\n        PoolInfo storage pool = poolInfo[2];\r\n        UserInfo storage user = userInfo[2][msg.sender];\r\n        require(user.amount >= _amount, \"withdraw: not good\");\r\n        updateSP(_hint);\r\n        updatePool(2);\r\n        uint256 pendingETH = _pendingETH(user, pool);\r\n        uint256 pendingLQTY = _pendingLQTY(user, pool);\r\n        uint256 pending = _pending(user, pool);\r\n        safeStringTransfer(msg.sender, pending);\r\n        safeETHTransfer(msg.sender, pendingETH);\r\n        safeLQTYTransfer(msg.sender, pendingLQTY);\r\n        user.rewardDebt = user.amount.mul(pool.accStringPerShare).div(1e12);\r\n        user.ethRewardDebt = user.amount.mul(pool.accETHPerShare).div(1e12);\r\n        user.lqtyRewardDebt = user.amount.mul(pool.accLQTYPerShare).div(1e12);\r\n        stabilityPool.withdrawFromSP(_amount);\r\n        pool.lpToken.safeTransfer(address(msg.sender), _amount);\r\n        emit Withdraw(msg.sender, 2, _amount);\r\n    }\r\n\r\n    function claim(uint256 _pid) public {\r\n        PoolInfo storage pool = poolInfo[_pid];\r\n        UserInfo storage user = userInfo[_pid][msg.sender];\r\n        updatePool(_pid);\r\n        uint256 pending = _pending(user, pool);\r\n        safeStringTransfer(msg.sender, pending);\r\n        user.rewardDebt = user.amount.mul(pool.accStringPerShare).div(1e12);\r\n        Claim(msg.sender, pending);\r\n    }\r\n\r\n    // Withdraw without caring about rewards. EMERGENCY ONLY.\r\n    function emergencyWithdraw(uint256 _pid) public {\r\n        PoolInfo storage pool = poolInfo[_pid];\r\n        UserInfo storage user = userInfo[_pid][msg.sender];\r\n        pool.lpToken.safeTransfer(address(msg.sender), user.amount);\r\n        emit EmergencyWithdraw(msg.sender, _pid, user.amount);\r\n        user.amount = 0;\r\n        user.rewardDebt = 0;\r\n    }\r\n\r\n    // Safe sushi transfer function, just in case if rounding error causes pool to not have enough SUSHIs.\r\n    function safeStringTransfer(address _to, uint256 _amount) internal {\r\n        uint256 stringBal = stringToken.balanceOf(address(this));\r\n        if (_amount > stringBal) {\r\n            stringToken.transfer(_to, stringBal);\r\n        } else {\r\n            stringToken.transfer(_to, _amount);\r\n        }\r\n    }\r\n\r\n    function safeLQTYTransfer(address _to, uint256 _amount) internal {\r\n        uint256 lqtyBal = lqtyToken.balanceOf(address(this));\r\n        if (_amount > lqtyBal) {\r\n            lqtyToken.transfer(_to, lqtyBal);\r\n        } else {\r\n            lqtyToken.transfer(_to, _amount);\r\n        }\r\n    }\r\n\r\n    function safeLUSDTransfer(address _to, uint256 _amount) internal {\r\n        uint256 lusdBal = lusdToken.balanceOf(address(this));\r\n        if (_amount > lusdBal) {\r\n            lusdToken.transfer(_to, lusdBal);\r\n        } else {\r\n            lusdToken.transfer(_to, _amount);\r\n        }\r\n    }\r\n\r\n    function safeETHTransfer(address _to, uint256 _amount) internal {\r\n        uint256 ethBal = address(msg.sender).balance;\r\n        address payable addr = msg.sender;\r\n        if (_amount > ethBal) {\r\n            payable(addr).transfer(ethBal);\r\n        } else {\r\n            payable(addr).transfer(_amount);\r\n        }\r\n    }\r\n\r\n    function _pending(UserInfo storage _user, PoolInfo storage _pool)\r\n        internal\r\n        view\r\n        returns (uint256)\r\n    {\r\n        uint256 rewardsToSend =\r\n            _user.amount.mul(_pool.accStringPerShare).div(1e12).sub(\r\n                _user.rewardDebt\r\n            );\r\n        if (isBoosted) {\r\n            return rewardsToSend.mul(boostedMultiplier);\r\n        }\r\n        return rewardsToSend;\r\n    }\r\n\r\n    function _pendingETH(UserInfo storage _user, PoolInfo storage _pool)\r\n        internal\r\n        view\r\n        returns (uint256)\r\n    {\r\n        uint256 ethRewardsToSend =\r\n            _user.amount.mul(_pool.accETHPerShare).div(1e12).sub(\r\n                _user.ethRewardDebt\r\n            );\r\n        return ethRewardsToSend;\r\n    }\r\n\r\n    function _pendingLQTY(UserInfo storage _user, PoolInfo storage _pool)\r\n        internal\r\n        view\r\n        returns (uint256)\r\n    {\r\n        uint256 lqtyRewardsToSend =\r\n            _user.amount.mul(_pool.accLQTYPerShare).div(1e12).sub(\r\n                _user.lqtyRewardDebt\r\n            );\r\n        return lqtyRewardsToSend;\r\n    }\r\n}\r\n",
  "sourcePath": "C:/Users/danie/code/harp/client/src/contracts/LatestFarm.sol",
  "compiler": {
    "name": "solc",
    "version": "0.7.6+commit.7338295f.Emscripten.clang"
  },
  "schemaVersion": "3.3.3",
  "updatedAt": "2021-02-07T19:46:58.242Z",
  "networkType": "ethereum",
  "devdoc": {
    "kind": "dev",
    "methods": {
      "owner()": {
        "details": "Returns the address of the current owner."
      },
      "renounceOwnership()": {
        "details": "Leaves the contract without owner. It will not be possible to call `onlyOwner` functions anymore. Can only be called by the current owner. NOTE: Renouncing ownership will leave the contract without an owner, thereby removing any functionality that is only available to the owner."
      },
      "transferOwnership(address)": {
        "details": "Transfers ownership of the contract to a new account (`newOwner`). Can only be called by the current owner."
      }
    },
    "version": 1
  },
  "userdoc": {
    "kind": "user",
    "methods": {},
    "version": 1
  }
}