{
  "contractName": "LiquityBase",
  "abi": [
    {
      "inputs": [],
      "name": "CCR",
      "outputs": [
        {
          "internalType": "uint256",
          "name": "",
          "type": "uint256"
        }
      ],
      "stateMutability": "view",
      "type": "function"
    },
    {
      "inputs": [],
      "name": "DECIMAL_PRECISION",
      "outputs": [
        {
          "internalType": "uint256",
          "name": "",
          "type": "uint256"
        }
      ],
      "stateMutability": "view",
      "type": "function"
    },
    {
      "inputs": [],
      "name": "LUSD_GAS_COMPENSATION",
      "outputs": [
        {
          "internalType": "uint256",
          "name": "",
          "type": "uint256"
        }
      ],
      "stateMutability": "view",
      "type": "function"
    },
    {
      "inputs": [],
      "name": "MCR",
      "outputs": [
        {
          "internalType": "uint256",
          "name": "",
          "type": "uint256"
        }
      ],
      "stateMutability": "view",
      "type": "function"
    },
    {
      "inputs": [],
      "name": "PERCENT_DIVISOR",
      "outputs": [
        {
          "internalType": "uint256",
          "name": "",
          "type": "uint256"
        }
      ],
      "stateMutability": "view",
      "type": "function"
    },
    {
      "inputs": [],
      "name": "_100pct",
      "outputs": [
        {
          "internalType": "uint256",
          "name": "",
          "type": "uint256"
        }
      ],
      "stateMutability": "view",
      "type": "function"
    },
    {
      "inputs": [],
      "name": "activePool",
      "outputs": [
        {
          "internalType": "contract IActivePool",
          "name": "",
          "type": "address"
        }
      ],
      "stateMutability": "view",
      "type": "function"
    },
    {
      "inputs": [],
      "name": "defaultPool",
      "outputs": [
        {
          "internalType": "contract IDefaultPool",
          "name": "",
          "type": "address"
        }
      ],
      "stateMutability": "view",
      "type": "function"
    },
    {
      "inputs": [],
      "name": "priceFeed",
      "outputs": [
        {
          "internalType": "contract IPriceFeed",
          "name": "",
          "type": "address"
        }
      ],
      "stateMutability": "view",
      "type": "function"
    },
    {
      "inputs": [],
      "name": "getEntireSystemColl",
      "outputs": [
        {
          "internalType": "uint256",
          "name": "entireSystemColl",
          "type": "uint256"
        }
      ],
      "stateMutability": "view",
      "type": "function"
    },
    {
      "inputs": [],
      "name": "getEntireSystemDebt",
      "outputs": [
        {
          "internalType": "uint256",
          "name": "entireSystemDebt",
          "type": "uint256"
        }
      ],
      "stateMutability": "view",
      "type": "function"
    }
  ],
  "bytecode": "0x608060405234801561001057600080fd5b50610678806100206000396000f3fe608060405234801561001057600080fd5b50600436106100a95760003560e01c8063741bef1a11610071578063741bef1a1461015a578063794e57241461018e578063795d26c3146101ac5780637f7dde4a146101ca578063887105d3146101fe578063a20baee61461021c576100a9565b80632e86bbd8146100ae5780633cc74225146100cc5780634870dd9a146101005780635733d58f1461011e57806372fe25aa1461013c575b600080fd5b6100b661023a565b6040518082815260200191505060405180910390f35b6100d4610247565b604051808273ffffffffffffffffffffffffffffffffffffffff16815260200191505060405180910390f35b61010861026d565b6040518082815260200191505060405180910390f35b610126610272565b6040518082815260200191505060405180910390f35b61014461027e565b6040518082815260200191505060405180910390f35b61016261028a565b604051808273ffffffffffffffffffffffffffffffffffffffff16815260200191505060405180910390f35b6101966102b0565b6040518082815260200191505060405180910390f35b6101b46102bc565b6040518082815260200191505060405180910390f35b6101d2610423565b604051808273ffffffffffffffffffffffffffffffffffffffff16815260200191505060405180910390f35b610206610447565b6040518082815260200191505060405180910390f35b6102246105ae565b6040518082815260200191505060405180910390f35b6802b5e3af16b188000081565b600160009054906101000a900473ffffffffffffffffffffffffffffffffffffffff1681565b60c881565b6714d1120d7b16000081565b670de0b6b3a764000081565b600260009054906101000a900473ffffffffffffffffffffffffffffffffffffffff1681565b670f43fc2c04ee000081565b60008060008054906101000a900473ffffffffffffffffffffffffffffffffffffffff1673ffffffffffffffffffffffffffffffffffffffff16635eb52fca6040518163ffffffff1660e01b815260040160206040518083038186803b15801561032557600080fd5b505afa158015610339573d6000803e3d6000fd5b505050506040513d602081101561034f57600080fd5b810190808051906020019092919050505090506000600160009054906101000a900473ffffffffffffffffffffffffffffffffffffffff1673ffffffffffffffffffffffffffffffffffffffff16635eb52fca6040518163ffffffff1660e01b815260040160206040518083038186803b1580156103cc57600080fd5b505afa1580156103e0573d6000803e3d6000fd5b505050506040513d60208110156103f657600080fd5b8101908080519060200190929190505050905061041c81836105ba90919063ffffffff16565b9250505090565b60008054906101000a900473ffffffffffffffffffffffffffffffffffffffff1681565b60008060008054906101000a900473ffffffffffffffffffffffffffffffffffffffff1673ffffffffffffffffffffffffffffffffffffffff166314f6c3be6040518163ffffffff1660e01b815260040160206040518083038186803b1580156104b057600080fd5b505afa1580156104c4573d6000803e3d6000fd5b505050506040513d60208110156104da57600080fd5b810190808051906020019092919050505090506000600160009054906101000a900473ffffffffffffffffffffffffffffffffffffffff1673ffffffffffffffffffffffffffffffffffffffff166314f6c3be6040518163ffffffff1660e01b815260040160206040518083038186803b15801561055757600080fd5b505afa15801561056b573d6000803e3d6000fd5b505050506040513d602081101561058157600080fd5b810190808051906020019092919050505090506105a781836105ba90919063ffffffff16565b9250505090565b670de0b6b3a764000081565b600080828401905083811015610638576040517f08c379a000000000000000000000000000000000000000000000000000000000815260040180806020018281038252601b8152602001807f536166654d6174683a206164646974696f6e206f766572666c6f77000000000081525060200191505060405180910390fd5b809150509291505056fea26469706673582212205f4289056165f24edd44f887a9c087f71719dc5fad2deb15582c0f04c794db5b64736f6c63430007060033",
  "immutableReferences": {},
  "source": "// SPDX-License-Identifier: MIT\r\n\r\npragma solidity >=0.6.0 <0.8.0;\r\n\r\nimport \"./BaseMath.sol\";\r\nimport \"./LiquityMath.sol\";\r\nimport \"../Interfaces/IActivePool.sol\";\r\nimport \"../Interfaces/IDefaultPool.sol\";\r\nimport \"../Interfaces/IPriceFeed.sol\";\r\n\r\n/*\r\n * Base contract for TroveManager, BorrowerOperations and StabilityPool. Contains global system constants and\r\n * common functions.\r\n */\r\ncontract LiquityBase is BaseMath {\r\n    using TestSafeMath for uint256;\r\n\r\n    uint256 public constant _100pct = 1000000000000000000; // 1e18 == 100%\r\n\r\n    // Minimum collateral ratio for individual troves\r\n    uint256 public constant MCR = 1100000000000000000; // 110%\r\n\r\n    // Critical system collateral ratio. If the system's total collateral ratio (TCR) falls below the CCR, Recovery Mode is triggered.\r\n    uint256 public constant CCR = 1500000000000000000; // 150%\r\n\r\n    // Amount of LUSD to be locked in gas pool on opening troves\r\n    uint256 public constant LUSD_GAS_COMPENSATION = 50e18;\r\n\r\n    uint256 public constant PERCENT_DIVISOR = 200; // dividing by 200 yields 0.5%\r\n\r\n    IActivePool public activePool;\r\n\r\n    IDefaultPool public defaultPool;\r\n\r\n    IPriceFeed public priceFeed;\r\n\r\n    // --- Gas compensation functions ---\r\n\r\n    // Returns the composite debt (drawn debt + gas compensation) of a trove, for the purpose of ICR calculation\r\n    function _getCompositeDebt(uint256 _debt) internal pure returns (uint256) {\r\n        return _debt.add(LUSD_GAS_COMPENSATION);\r\n    }\r\n\r\n    function _getNetDebt(uint256 _debt) internal pure returns (uint256) {\r\n        return _debt.sub(LUSD_GAS_COMPENSATION);\r\n    }\r\n\r\n    // Return the amount of ETH to be drawn from a trove's collateral and sent as gas compensation.\r\n    function _getCollGasCompensation(uint256 _entireColl)\r\n        internal\r\n        pure\r\n        returns (uint256)\r\n    {\r\n        return _entireColl / PERCENT_DIVISOR;\r\n    }\r\n\r\n    function getEntireSystemColl()\r\n        public\r\n        view\r\n        returns (uint256 entireSystemColl)\r\n    {\r\n        uint256 activeColl = activePool.getETH();\r\n        uint256 liquidatedColl = defaultPool.getETH();\r\n\r\n        return activeColl.add(liquidatedColl);\r\n    }\r\n\r\n    function getEntireSystemDebt()\r\n        public\r\n        view\r\n        returns (uint256 entireSystemDebt)\r\n    {\r\n        uint256 activeDebt = activePool.getLUSDDebt();\r\n        uint256 closedDebt = defaultPool.getLUSDDebt();\r\n\r\n        return activeDebt.add(closedDebt);\r\n    }\r\n\r\n    function _getTCR(uint256 _price) internal view returns (uint256 TCR) {\r\n        uint256 entireSystemColl = getEntireSystemColl();\r\n        uint256 entireSystemDebt = getEntireSystemDebt();\r\n\r\n        TCR = LiquityMath._computeCR(\r\n            entireSystemColl,\r\n            entireSystemDebt,\r\n            _price\r\n        );\r\n\r\n        return TCR;\r\n    }\r\n\r\n    function _checkRecoveryMode(uint256 _price) internal view returns (bool) {\r\n        uint256 TCR = _getTCR(_price);\r\n\r\n        return TCR < CCR;\r\n    }\r\n\r\n    function _requireUserAcceptsFee(\r\n        uint256 _fee,\r\n        uint256 _amount,\r\n        uint256 _maxFeePercentage\r\n    ) internal pure {\r\n        uint256 feePercentage = _fee.mul(DECIMAL_PRECISION).div(_amount);\r\n        require(\r\n            feePercentage <= _maxFeePercentage,\r\n            \"Fee exceeded provided maximum\"\r\n        );\r\n    }\r\n\r\n    function _requireValidMaxFeePercentage(uint256 _maxFeePercentage)\r\n        internal\r\n        pure\r\n    {\r\n        require(\r\n            _maxFeePercentage >= 5e15 && _maxFeePercentage <= DECIMAL_PRECISION,\r\n            \"Max fee percentage must be between 0.5% and 100%\"\r\n        );\r\n    }\r\n}\r\n",
  "sourcePath": "C:/Users/danie/code/harp/client/src/contracts/Dependencies/LiquityBase.sol",
  "compiler": {
    "name": "solc",
    "version": "0.7.6+commit.7338295f.Emscripten.clang"
  },
  "schemaVersion": "3.3.3",
  "updatedAt": "2021-02-20T20:38:07.963Z",
  "devdoc": {
    "kind": "dev",
    "methods": {},
    "version": 1
  },
  "userdoc": {
    "kind": "user",
    "methods": {},
    "version": 1
  }
}