{
  "contractName": "LQTYStaking",
  "abi": [
    {
      "inputs": [
        {
          "internalType": "contract LQTYToken",
          "name": "_lqtyToken",
          "type": "address"
        }
      ],
      "stateMutability": "nonpayable",
      "type": "constructor"
    },
    {
      "inputs": [],
      "name": "lqtyToken",
      "outputs": [
        {
          "internalType": "contract LQTYToken",
          "name": "",
          "type": "address"
        }
      ],
      "stateMutability": "view",
      "type": "function"
    },
    {
      "inputs": [
        {
          "internalType": "address",
          "name": "",
          "type": "address"
        }
      ],
      "name": "userInfo",
      "outputs": [
        {
          "internalType": "uint256",
          "name": "amount",
          "type": "uint256"
        }
      ],
      "stateMutability": "view",
      "type": "function"
    },
    {
      "inputs": [
        {
          "internalType": "uint256",
          "name": "_amount",
          "type": "uint256"
        }
      ],
      "name": "stake",
      "outputs": [],
      "stateMutability": "nonpayable",
      "type": "function"
    },
    {
      "inputs": [
        {
          "internalType": "uint256",
          "name": "_amount",
          "type": "uint256"
        }
      ],
      "name": "unstake",
      "outputs": [],
      "stateMutability": "nonpayable",
      "type": "function"
    }
  ],
  "bytecode": "0x608060405234801561001057600080fd5b506040516104033803806104038339818101604052602081101561003357600080fd5b8101908080519060200190929190505050806000806101000a81548173ffffffffffffffffffffffffffffffffffffffff021916908373ffffffffffffffffffffffffffffffffffffffff1602179055505061036f806100946000396000f3fe608060405234801561001057600080fd5b506004361061004c5760003560e01c80631959a002146100515780631f7af3c3146100a95780632e17de78146100dd578063a694fc3a1461010b575b600080fd5b6100936004803603602081101561006757600080fd5b81019080803573ffffffffffffffffffffffffffffffffffffffff169060200190929190505050610139565b6040518082815260200191505060405180910390f35b6100b1610157565b604051808273ffffffffffffffffffffffffffffffffffffffff16815260200191505060405180910390f35b610109600480360360208110156100f357600080fd5b810190808035906020019092919050505061017b565b005b6101376004803603602081101561012157600080fd5b810190808035906020019092919050505061024b565b005b60016020528060005260406000206000915090508060000154905081565b60008054906101000a900473ffffffffffffffffffffffffffffffffffffffff1681565b60008054906101000a900473ffffffffffffffffffffffffffffffffffffffff1673ffffffffffffffffffffffffffffffffffffffff1663a9059cbb33836040518363ffffffff1660e01b8152600401808373ffffffffffffffffffffffffffffffffffffffff16815260200182815260200192505050602060405180830381600087803b15801561020c57600080fd5b505af1158015610220573d6000803e3d6000fd5b505050506040513d602081101561023657600080fd5b81019080805190602001909291905050505050565b60008054906101000a900473ffffffffffffffffffffffffffffffffffffffff1673ffffffffffffffffffffffffffffffffffffffff166323b872dd3330846040518463ffffffff1660e01b8152600401808473ffffffffffffffffffffffffffffffffffffffff1681526020018373ffffffffffffffffffffffffffffffffffffffff1681526020018281526020019350505050602060405180830381600087803b1580156102fa57600080fd5b505af115801561030e573d6000803e3d6000fd5b505050506040513d602081101561032457600080fd5b8101908080519060200190929190505050505056fea2646970667358221220bf22b4b12a629886d6f4e33c1b62a59a009fca8b7d40e65fca0933c27694e19a64736f6c63430007060033",
  "immutableReferences": {},
  "source": "// SPDX-License-Identifier: MIT\r\npragma solidity >=0.6.0 <0.8.0;\r\n\r\nimport \"./LQTYToken.sol\";\r\n\r\ncontract LQTYStaking {\r\n    struct UserInfo {\r\n        uint256 amount;\r\n    }\r\n\r\n    LQTYToken public lqtyToken;\r\n    mapping(address => UserInfo) public userInfo;\r\n\r\n    constructor(LQTYToken _lqtyToken) {\r\n        lqtyToken = _lqtyToken;\r\n    }\r\n\r\n    function stake(uint256 _amount) public {\r\n        lqtyToken.transferFrom(msg.sender, address(this), _amount);\r\n    }\r\n\r\n    function unstake(uint256 _amount) public {\r\n        lqtyToken.transfer(msg.sender, _amount);\r\n    }\r\n}\r\n",
  "sourcePath": "C:/Users/danie/code/harp/client/src/contracts/LQTYStaking.sol",
  "compiler": {
    "name": "solc",
    "version": "0.7.6+commit.7338295f.Emscripten.clang"
  },
  "schemaVersion": "3.3.3",
  "updatedAt": "2021-03-28T15:18:28.103Z",
  "devdoc": {
    "kind": "dev",
    "methods": {},
    "version": 1
  },
  "userdoc": {
    "kind": "user",
    "methods": {},
    "version": 1
  }
}