{
  "contractName": "MultiTroveGetter",
  "abi": [
    {
      "inputs": [
        {
          "internalType": "contract TroveManager",
          "name": "_troveManager",
          "type": "address"
        },
        {
          "internalType": "contract ISortedTroves",
          "name": "_sortedTroves",
          "type": "address"
        }
      ],
      "stateMutability": "nonpayable",
      "type": "constructor"
    },
    {
      "inputs": [],
      "name": "sortedTroves",
      "outputs": [
        {
          "internalType": "contract ISortedTroves",
          "name": "",
          "type": "address"
        }
      ],
      "stateMutability": "view",
      "type": "function"
    },
    {
      "inputs": [],
      "name": "troveManager",
      "outputs": [
        {
          "internalType": "contract TroveManager",
          "name": "",
          "type": "address"
        }
      ],
      "stateMutability": "view",
      "type": "function"
    },
    {
      "inputs": [
        {
          "internalType": "int256",
          "name": "_startIdx",
          "type": "int256"
        },
        {
          "internalType": "uint256",
          "name": "_count",
          "type": "uint256"
        }
      ],
      "name": "getMultipleSortedTroves",
      "outputs": [
        {
          "components": [
            {
              "internalType": "address",
              "name": "owner",
              "type": "address"
            },
            {
              "internalType": "uint256",
              "name": "debt",
              "type": "uint256"
            },
            {
              "internalType": "uint256",
              "name": "coll",
              "type": "uint256"
            },
            {
              "internalType": "uint256",
              "name": "stake",
              "type": "uint256"
            },
            {
              "internalType": "uint256",
              "name": "snapshotETH",
              "type": "uint256"
            },
            {
              "internalType": "uint256",
              "name": "snapshotLUSDDebt",
              "type": "uint256"
            }
          ],
          "internalType": "struct MultiTroveGetter.CombinedTroveData[]",
          "name": "_troves",
          "type": "tuple[]"
        }
      ],
      "stateMutability": "view",
      "type": "function"
    }
  ],
  "bytecode": "0x60806040523480156200001157600080fd5b50604051620012e0380380620012e08339818101604052810190620000379190620000ee565b816000806101000a81548173ffffffffffffffffffffffffffffffffffffffff021916908373ffffffffffffffffffffffffffffffffffffffff16021790555080600160006101000a81548173ffffffffffffffffffffffffffffffffffffffff021916908373ffffffffffffffffffffffffffffffffffffffff1602179055505050620001bf565b600081519050620000d1816200018b565b92915050565b600081519050620000e881620001a5565b92915050565b600080604083850312156200010257600080fd5b60006200011285828601620000d7565b92505060206200012585828601620000c0565b9150509250929050565b60006200013c826200016b565b9050919050565b600062000150826200012f565b9050919050565b600062000164826200012f565b9050919050565b600073ffffffffffffffffffffffffffffffffffffffff82169050919050565b620001968162000143565b8114620001a257600080fd5b50565b620001b08162000157565b8114620001bc57600080fd5b50565b61111180620001cf6000396000f3fe608060405234801561001057600080fd5b50600436106100415760003560e01c80633d83908a14610046578063ae91875414610064578063b90bce4514610082575b600080fd5b61004e6100b2565b60405161005b9190610f71565b60405180910390f35b61006c6100d6565b6040516100799190610f56565b60405180910390f35b61009c60048036038101906100979190610cc5565b6100fc565b6040516100a99190610f34565b60405180910390f35b60008054906101000a900473ffffffffffffffffffffffffffffffffffffffff1681565b600160009054906101000a900473ffffffffffffffffffffffffffffffffffffffff1681565b6060600080600085126101155784915060019050610123565b600185016000039150600090505b6000600160009054906101000a900473ffffffffffffffffffffffffffffffffffffffff1673ffffffffffffffffffffffffffffffffffffffff1663de8fa4316040518163ffffffff1660e01b815260040160206040518083038186803b15801561018d57600080fd5b505afa1580156101a1573d6000803e3d6000fd5b505050506040513d601f19601f820116820180604052508101906101c59190610d01565b905080831061022857600067ffffffffffffffff811180156101e657600080fd5b5060405190808252806020026020018201604052801561022057816020015b61020d610bd2565b8152602001906001900390816102055790505b509350610261565b600083820390508086111561023b578095505b82156102525761024b848761026a565b945061025f565b61025c848761071e565b94505b505b50505092915050565b60606000600160009054906101000a900473ffffffffffffffffffffffffffffffffffffffff1673ffffffffffffffffffffffffffffffffffffffff16631e2231436040518163ffffffff1660e01b815260040160206040518083038186803b1580156102d657600080fd5b505afa1580156102ea573d6000803e3d6000fd5b505050506040513d601f19601f8201168201806040525081019061030e9190610c9c565b905060005b848110156103d357600160009054906101000a900473ffffffffffffffffffffffffffffffffffffffff1673ffffffffffffffffffffffffffffffffffffffff1663765e0159836040518263ffffffff1660e01b81526004016103769190610f19565b60206040518083038186803b15801561038e57600080fd5b505afa1580156103a2573d6000803e3d6000fd5b505050506040513d601f19601f820116820180604052508101906103c69190610c9c565b9150806001019050610313565b508267ffffffffffffffff811180156103eb57600080fd5b5060405190808252806020026020018201604052801561042557816020015b610412610bd2565b81526020019060019003908161040a5790505b50915060005b83811015610716578183828151811061044057fe5b60200260200101516000019073ffffffffffffffffffffffffffffffffffffffff16908173ffffffffffffffffffffffffffffffffffffffff168152505060008054906101000a900473ffffffffffffffffffffffffffffffffffffffff1673ffffffffffffffffffffffffffffffffffffffff16636ef64338836040518263ffffffff1660e01b81526004016104d79190610f19565b60a06040518083038186803b1580156104ef57600080fd5b505afa158015610503573d6000803e3d6000fd5b505050506040513d601f19601f820116820180604052508101906105279190610d66565b90505085848151811061053657fe5b602002602001015160200186858151811061054d57fe5b602002602001015160400187868151811061056457fe5b602002602001015160600183815250838152508381525050505060008054906101000a900473ffffffffffffffffffffffffffffffffffffffff1673ffffffffffffffffffffffffffffffffffffffff16631673c79a836040518263ffffffff1660e01b81526004016105d79190610f19565b604080518083038186803b1580156105ee57600080fd5b505afa158015610602573d6000803e3d6000fd5b505050506040513d601f19601f820116820180604052508101906106269190610d2a565b84838151811061063257fe5b602002602001015160800185848151811061064957fe5b602002602001015160a00182815250828152505050600160009054906101000a900473ffffffffffffffffffffffffffffffffffffffff1673ffffffffffffffffffffffffffffffffffffffff1663765e0159836040518263ffffffff1660e01b81526004016106b99190610f19565b60206040518083038186803b1580156106d157600080fd5b505afa1580156106e5573d6000803e3d6000fd5b505050506040513d601f19601f820116820180604052508101906107099190610c9c565b915080600101905061042b565b505092915050565b60606000600160009054906101000a900473ffffffffffffffffffffffffffffffffffffffff1673ffffffffffffffffffffffffffffffffffffffff16634d6228316040518163ffffffff1660e01b815260040160206040518083038186803b15801561078a57600080fd5b505afa15801561079e573d6000803e3d6000fd5b505050506040513d601f19601f820116820180604052508101906107c29190610c9c565b905060005b8481101561088757600160009054906101000a900473ffffffffffffffffffffffffffffffffffffffff1673ffffffffffffffffffffffffffffffffffffffff1663b72703ac836040518263ffffffff1660e01b815260040161082a9190610f19565b60206040518083038186803b15801561084257600080fd5b505afa158015610856573d6000803e3d6000fd5b505050506040513d601f19601f8201168201806040525081019061087a9190610c9c565b91508060010190506107c7565b508267ffffffffffffffff8111801561089f57600080fd5b506040519080825280602002602001820160405280156108d957816020015b6108c6610bd2565b8152602001906001900390816108be5790505b50915060005b83811015610bca57818382815181106108f457fe5b60200260200101516000019073ffffffffffffffffffffffffffffffffffffffff16908173ffffffffffffffffffffffffffffffffffffffff168152505060008054906101000a900473ffffffffffffffffffffffffffffffffffffffff1673ffffffffffffffffffffffffffffffffffffffff16636ef64338836040518263ffffffff1660e01b815260040161098b9190610f19565b60a06040518083038186803b1580156109a357600080fd5b505afa1580156109b7573d6000803e3d6000fd5b505050506040513d601f19601f820116820180604052508101906109db9190610d66565b9050508584815181106109ea57fe5b6020026020010151602001868581518110610a0157fe5b6020026020010151604001878681518110610a1857fe5b602002602001015160600183815250838152508381525050505060008054906101000a900473ffffffffffffffffffffffffffffffffffffffff1673ffffffffffffffffffffffffffffffffffffffff16631673c79a836040518263ffffffff1660e01b8152600401610a8b9190610f19565b604080518083038186803b158015610aa257600080fd5b505afa158015610ab6573d6000803e3d6000fd5b505050506040513d601f19601f82011682018060405250810190610ada9190610d2a565b848381518110610ae657fe5b6020026020010151608001858481518110610afd57fe5b602002602001015160a00182815250828152505050600160009054906101000a900473ffffffffffffffffffffffffffffffffffffffff1673ffffffffffffffffffffffffffffffffffffffff1663b72703ac836040518263ffffffff1660e01b8152600401610b6d9190610f19565b60206040518083038186803b158015610b8557600080fd5b505afa158015610b99573d6000803e3d6000fd5b505050506040513d601f19601f82011682018060405250810190610bbd9190610c9c565b91508060010190506108df565b505092915050565b6040518060c00160405280600073ffffffffffffffffffffffffffffffffffffffff16815260200160008152602001600081526020016000815260200160008152602001600081525090565b600081519050610c2d8161106f565b92915050565b600081519050610c4281611086565b92915050565b600081359050610c5781611096565b92915050565b600081519050610c6c816110ad565b92915050565b600081359050610c81816110c4565b92915050565b600081519050610c96816110c4565b92915050565b600060208284031215610cae57600080fd5b6000610cbc84828501610c1e565b91505092915050565b60008060408385031215610cd857600080fd5b6000610ce685828601610c48565b9250506020610cf785828601610c72565b9150509250929050565b600060208284031215610d1357600080fd5b6000610d2184828501610c87565b91505092915050565b60008060408385031215610d3d57600080fd5b6000610d4b85828601610c87565b9250506020610d5c85828601610c87565b9150509250929050565b600080600080600060a08688031215610d7e57600080fd5b6000610d8c88828901610c87565b9550506020610d9d88828901610c87565b9450506040610dae88828901610c87565b9350506060610dbf88828901610c33565b9250506080610dd088828901610c5d565b9150509295509295909350565b6000610de98383610e8f565b60c08301905092915050565b610dfe81610fc5565b82525050565b610e0d81610fc5565b82525050565b6000610e1e82610f9c565b610e288185610fb4565b9350610e3383610f8c565b8060005b83811015610e64578151610e4b8882610ddd565b9750610e5683610fa7565b925050600181019050610e37565b5085935050505092915050565b610e7a81611027565b82525050565b610e898161104b565b82525050565b60c082016000820151610ea56000850182610df5565b506020820151610eb86020850182610f0a565b506040820151610ecb6040850182610f0a565b506060820151610ede6060850182610f0a565b506080820151610ef16080850182610f0a565b5060a0820151610f0460a0850182610f0a565b50505050565b610f138161101d565b82525050565b6000602082019050610f2e6000830184610e04565b92915050565b60006020820190508181036000830152610f4e8184610e13565b905092915050565b6000602082019050610f6b6000830184610e71565b92915050565b6000602082019050610f866000830184610e80565b92915050565b6000819050602082019050919050565b600081519050919050565b6000602082019050919050565b600082825260208201905092915050565b6000610fd082610ffd565b9050919050565b6000819050919050565b60006fffffffffffffffffffffffffffffffff82169050919050565b600073ffffffffffffffffffffffffffffffffffffffff82169050919050565b6000819050919050565b600061103282611039565b9050919050565b600061104482610ffd565b9050919050565b60006110568261105d565b9050919050565b600061106882610ffd565b9050919050565b61107881610fc5565b811461108357600080fd5b50565b6003811061109357600080fd5b50565b61109f81610fd7565b81146110aa57600080fd5b50565b6110b681610fe1565b81146110c157600080fd5b50565b6110cd8161101d565b81146110d857600080fd5b5056fea2646970667358221220981220e062729e1a060fa535af5cc135734180e2d27fef740c4e9179c97da61064736f6c63430007060033",
  "immutableReferences": {},
  "source": "// SPDX-License-Identifier: MIT\r\n\r\npragma solidity >=0.6.0 <0.8.0;\r\npragma experimental ABIEncoderV2;\r\n\r\nimport \"./TroveManager.sol\";\r\nimport \"./SortedTroves.sol\";\r\n\r\n/*  Helper contract for grabbing Trove data for the front end. Not part of the core Liquity system. */\r\ncontract MultiTroveGetter {\r\n    struct CombinedTroveData {\r\n        address owner;\r\n        uint256 debt;\r\n        uint256 coll;\r\n        uint256 stake;\r\n        uint256 snapshotETH;\r\n        uint256 snapshotLUSDDebt;\r\n    }\r\n\r\n    TroveManager public troveManager; // XXX Troves missing from ITroveManager?\r\n    ISortedTroves public sortedTroves;\r\n\r\n    constructor(TroveManager _troveManager, ISortedTroves _sortedTroves)\r\n        public\r\n    {\r\n        troveManager = _troveManager;\r\n        sortedTroves = _sortedTroves;\r\n    }\r\n\r\n    function getMultipleSortedTroves(int256 _startIdx, uint256 _count)\r\n        external\r\n        view\r\n        returns (CombinedTroveData[] memory _troves)\r\n    {\r\n        uint256 startIdx;\r\n        bool descend;\r\n\r\n        if (_startIdx >= 0) {\r\n            startIdx = uint256(_startIdx);\r\n            descend = true;\r\n        } else {\r\n            startIdx = uint256(-(_startIdx + 1));\r\n            descend = false;\r\n        }\r\n\r\n        uint256 sortedTrovesSize = sortedTroves.getSize();\r\n\r\n        if (startIdx >= sortedTrovesSize) {\r\n            _troves = new CombinedTroveData[](0);\r\n        } else {\r\n            uint256 maxCount = sortedTrovesSize - startIdx;\r\n\r\n            if (_count > maxCount) {\r\n                _count = maxCount;\r\n            }\r\n\r\n            if (descend) {\r\n                _troves = _getMultipleSortedTrovesFromHead(startIdx, _count);\r\n            } else {\r\n                _troves = _getMultipleSortedTrovesFromTail(startIdx, _count);\r\n            }\r\n        }\r\n    }\r\n\r\n    function _getMultipleSortedTrovesFromHead(uint256 _startIdx, uint256 _count)\r\n        internal\r\n        view\r\n        returns (CombinedTroveData[] memory _troves)\r\n    {\r\n        address currentTroveowner = sortedTroves.getFirst();\r\n\r\n        for (uint256 idx = 0; idx < _startIdx; ++idx) {\r\n            currentTroveowner = sortedTroves.getNext(currentTroveowner);\r\n        }\r\n\r\n        _troves = new CombinedTroveData[](_count);\r\n\r\n        for (uint256 idx = 0; idx < _count; ++idx) {\r\n            _troves[idx].owner = currentTroveowner;\r\n            (\r\n                _troves[idx].debt,\r\n                _troves[idx].coll,\r\n                _troves[idx].stake,\r\n                /* status */\r\n                /* arrayIndex */\r\n                ,\r\n\r\n            ) = troveManager.Troves(currentTroveowner);\r\n            (\r\n                _troves[idx].snapshotETH,\r\n                _troves[idx].snapshotLUSDDebt\r\n            ) = troveManager.rewardSnapshots(currentTroveowner);\r\n\r\n            currentTroveowner = sortedTroves.getNext(currentTroveowner);\r\n        }\r\n    }\r\n\r\n    function _getMultipleSortedTrovesFromTail(uint256 _startIdx, uint256 _count)\r\n        internal\r\n        view\r\n        returns (CombinedTroveData[] memory _troves)\r\n    {\r\n        address currentTroveowner = sortedTroves.getLast();\r\n\r\n        for (uint256 idx = 0; idx < _startIdx; ++idx) {\r\n            currentTroveowner = sortedTroves.getPrev(currentTroveowner);\r\n        }\r\n\r\n        _troves = new CombinedTroveData[](_count);\r\n\r\n        for (uint256 idx = 0; idx < _count; ++idx) {\r\n            _troves[idx].owner = currentTroveowner;\r\n            (\r\n                _troves[idx].debt,\r\n                _troves[idx].coll,\r\n                _troves[idx].stake,\r\n                /* status */\r\n                /* arrayIndex */\r\n                ,\r\n\r\n            ) = troveManager.Troves(currentTroveowner);\r\n            (\r\n                _troves[idx].snapshotETH,\r\n                _troves[idx].snapshotLUSDDebt\r\n            ) = troveManager.rewardSnapshots(currentTroveowner);\r\n\r\n            currentTroveowner = sortedTroves.getPrev(currentTroveowner);\r\n        }\r\n    }\r\n}\r\n",
  "sourcePath": "C:/Users/danie/code/harp/client/src/contracts/MultiTroveGetter.sol",
  "compiler": {
    "name": "solc",
    "version": "0.7.6+commit.7338295f.Emscripten.clang"
  },
  "schemaVersion": "3.3.3",
  "updatedAt": "2021-02-20T19:22:52.267Z",
  "devdoc": {
    "kind": "dev",
    "methods": {},
    "version": 1
  },
  "userdoc": {
    "kind": "user",
    "methods": {},
    "version": 1
  }
}