{
  "contractName": "PriceFeed",
  "abi": [
    {
      "anonymous": false,
      "inputs": [
        {
          "indexed": false,
          "internalType": "uint256",
          "name": "_lastGoodPrice",
          "type": "uint256"
        }
      ],
      "name": "LastGoodPriceUpdated",
      "type": "event"
    },
    {
      "anonymous": false,
      "inputs": [
        {
          "indexed": true,
          "internalType": "address",
          "name": "previousOwner",
          "type": "address"
        },
        {
          "indexed": true,
          "internalType": "address",
          "name": "newOwner",
          "type": "address"
        }
      ],
      "name": "OwnershipTransferred",
      "type": "event"
    },
    {
      "anonymous": false,
      "inputs": [
        {
          "indexed": false,
          "internalType": "enum PriceFeed.Status",
          "name": "newStatus",
          "type": "uint8"
        }
      ],
      "name": "StatusChanged",
      "type": "event"
    },
    {
      "inputs": [],
      "name": "DECIMAL_PRECISION",
      "outputs": [
        {
          "internalType": "uint256",
          "name": "",
          "type": "uint256"
        }
      ],
      "stateMutability": "view",
      "type": "function"
    },
    {
      "inputs": [],
      "name": "ETHUSD_TELLOR_REQ_ID",
      "outputs": [
        {
          "internalType": "uint256",
          "name": "",
          "type": "uint256"
        }
      ],
      "stateMutability": "view",
      "type": "function"
    },
    {
      "inputs": [],
      "name": "MAX_PRICE_DEVIATION_FROM_PREVIOUS_ROUND",
      "outputs": [
        {
          "internalType": "uint256",
          "name": "",
          "type": "uint256"
        }
      ],
      "stateMutability": "view",
      "type": "function"
    },
    {
      "inputs": [],
      "name": "MAX_PRICE_DIFFERENCE_BETWEEN_ORACLES",
      "outputs": [
        {
          "internalType": "uint256",
          "name": "",
          "type": "uint256"
        }
      ],
      "stateMutability": "view",
      "type": "function"
    },
    {
      "inputs": [],
      "name": "TARGET_DIGITS",
      "outputs": [
        {
          "internalType": "uint256",
          "name": "",
          "type": "uint256"
        }
      ],
      "stateMutability": "view",
      "type": "function"
    },
    {
      "inputs": [],
      "name": "TELLOR_DIGITS",
      "outputs": [
        {
          "internalType": "uint256",
          "name": "",
          "type": "uint256"
        }
      ],
      "stateMutability": "view",
      "type": "function"
    },
    {
      "inputs": [],
      "name": "TIMEOUT",
      "outputs": [
        {
          "internalType": "uint256",
          "name": "",
          "type": "uint256"
        }
      ],
      "stateMutability": "view",
      "type": "function"
    },
    {
      "inputs": [],
      "name": "isOwner",
      "outputs": [
        {
          "internalType": "bool",
          "name": "",
          "type": "bool"
        }
      ],
      "stateMutability": "view",
      "type": "function"
    },
    {
      "inputs": [],
      "name": "lastGoodPrice",
      "outputs": [
        {
          "internalType": "uint256",
          "name": "",
          "type": "uint256"
        }
      ],
      "stateMutability": "view",
      "type": "function"
    },
    {
      "inputs": [],
      "name": "owner",
      "outputs": [
        {
          "internalType": "address",
          "name": "",
          "type": "address"
        }
      ],
      "stateMutability": "view",
      "type": "function"
    },
    {
      "inputs": [],
      "name": "priceAggregator",
      "outputs": [
        {
          "internalType": "contract AggregatorV3Interface",
          "name": "",
          "type": "address"
        }
      ],
      "stateMutability": "view",
      "type": "function"
    },
    {
      "inputs": [],
      "name": "status",
      "outputs": [
        {
          "internalType": "enum PriceFeed.Status",
          "name": "",
          "type": "uint8"
        }
      ],
      "stateMutability": "view",
      "type": "function"
    },
    {
      "inputs": [],
      "name": "tellorCaller",
      "outputs": [
        {
          "internalType": "contract ITellorCaller",
          "name": "",
          "type": "address"
        }
      ],
      "stateMutability": "view",
      "type": "function"
    },
    {
      "inputs": [
        {
          "internalType": "address",
          "name": "_priceAggregatorAddress",
          "type": "address"
        },
        {
          "internalType": "address",
          "name": "_tellorCallerAddress",
          "type": "address"
        }
      ],
      "name": "setAddresses",
      "outputs": [],
      "stateMutability": "nonpayable",
      "type": "function"
    },
    {
      "inputs": [],
      "name": "fetchPrice",
      "outputs": [
        {
          "internalType": "uint256",
          "name": "",
          "type": "uint256"
        }
      ],
      "stateMutability": "nonpayable",
      "type": "function"
    }
  ],
  "bytecode": "0x608060405234801561001057600080fd5b50336000806101000a81548173ffffffffffffffffffffffffffffffffffffffff021916908373ffffffffffffffffffffffffffffffffffffffff1602179055503373ffffffffffffffffffffffffffffffffffffffff16600073ffffffffffffffffffffffffffffffffffffffff167f8be0079c531659141344cd1fd0a4f28419497f9722a3daafe3b4186f6b6457e060405160405180910390a36119b0806100bb6000396000f3fe608060405234801561001057600080fd5b50600436106100f55760003560e01c80635f42caf81161009757806390107afe1161006657806390107afe14610293578063a20baee6146102f7578063ebf8e6c614610315578063f56f48f214610333576100f5565b80635f42caf8146101ed5780637c61e3bf1461020b5780638da5cb5b1461023f5780638f32d59b14610273576100f5565b8063200d2ed2116100d3578063200d2ed2146101545780633078fff51461017d57806345079cb4146101b157806358a6aa88146101cf576100f5565b80630490be83146100fa5780630fdb11cf146101185780631be5c92f14610136575b600080fd5b610102610351565b6040518082815260200191505060405180910390f35b610120610357565b6040518082815260200191505060405180910390f35b61013e610879565b6040518082815260200191505060405180910390f35b61015c61087e565b6040518082600481111561016c57fe5b815260200191505060405180910390f35b610185610891565b604051808273ffffffffffffffffffffffffffffffffffffffff16815260200191505060405180910390f35b6101b96108b7565b6040518082815260200191505060405180910390f35b6101d76108c2565b6040518082815260200191505060405180910390f35b6101f56108ce565b6040518082815260200191505060405180910390f35b6102136108d3565b604051808273ffffffffffffffffffffffffffffffffffffffff16815260200191505060405180910390f35b6102476108f9565b604051808273ffffffffffffffffffffffffffffffffffffffff16815260200191505060405180910390f35b61027b610922565b60405180821515815260200191505060405180910390f35b6102f5600480360360408110156102a957600080fd5b81019080803573ffffffffffffffffffffffffffffffffffffffff169060200190929190803573ffffffffffffffffffffffffffffffffffffffff169060200190929190505050610979565b005b6102ff610b57565b6040518082815260200191505060405180910390f35b61031d610b63565b6040518082815260200191505060405180910390f35b61033b610b68565b6040518082815260200191505060405180910390f35b60055481565b600080610362610b6e565b9050600061037882600001518360800151610d4d565b90506000610384610ea3565b90506000600481111561039357fe5b600660009054906101000a900460ff1660048111156103ae57fe5b141561056b576103be8383610fac565b1561042a576103cc81610fcf565b156103e8576103db6002611027565b6005549350505050610876565b6103f18161108f565b1561040d576104006001611027565b6005549350505050610876565b6104176001611027565b610420816110b3565b9350505050610876565b610433836110d7565b156104955761044181610fcf565b1561045d576104506004611027565b6005549350505050610876565b6104676003611027565b6104708161108f565b15610482576005549350505050610876565b61048b816110b3565b9350505050610876565b61049f83836110fb565b1561052d576104ad81610fcf565b156104c9576104bc6002611027565b6005549350505050610876565b6104d28161108f565b156104ee576104e16001611027565b6005549350505050610876565b6104f883826111a5565b156105105761050683611247565b9350505050610876565b61051a6001611027565b610523816110b3565b9350505050610876565b61053681610fcf565b15610558576105456004611027565b61054e83611247565b9350505050610876565b61056183611247565b9350505050610876565b6001600481111561057857fe5b600660009054906101000a900460ff16600481111561059357fe5b1415610619576105a4838383611273565b156105c6576105b36000611027565b6105bc83611247565b9350505050610876565b6105cf81610fcf565b156105eb576105de6002611027565b6005549350505050610876565b6105f48161108f565b15610606576005549350505050610876565b61060f816110b3565b9350505050610876565b6002600481111561062657fe5b600660009054906101000a900460ff16600481111561064157fe5b141561068157610652838383611273565b15610674576106616000611027565b61066a83611247565b9350505050610876565b6005549350505050610876565b6003600481111561068e57fe5b600660009054906101000a900460ff1660048111156106a957fe5b14156107c4576106b98383610fac565b1561071b576106c781610fcf565b156106e3576106d66002611027565b6005549350505050610876565b6106ed6001611027565b6106f68161108f565b15610708576005549350505050610876565b610711816110b3565b9350505050610876565b610724836110d7565b1561077c5761073281610fcf565b1561074e576107416004611027565b6005549350505050610876565b6107578161108f565b15610769576005549350505050610876565b610772816110b3565b9350505050610876565b61078581610fcf565b156107a7576107946004611027565b61079d83611247565b9350505050610876565b6107b16000611027565b6107ba83611247565b9350505050610876565b6004808111156107d057fe5b600660009054906101000a900460ff1660048111156107eb57fe5b1415610872576107fb8383610fac565b156108175761080a6002611027565b6005549350505050610876565b610820836110d7565b15610832576005549350505050610876565b61083d838383611273565b1561085f5761084c6000611027565b61085583611247565b9350505050610876565b61086883611247565b9350505050610876565b5050505b90565b601281565b600660009054906101000a900460ff1681565b600160009054906101000a900473ffffffffffffffffffffffffffffffffffffffff1681565b66b1a2bc2ec5000081565b6706f05b59d3b2000081565b600181565b600260009054906101000a900473ffffffffffffffffffffffffffffffffffffffff1681565b60008060009054906101000a900473ffffffffffffffffffffffffffffffffffffffff16905090565b60008060009054906101000a900473ffffffffffffffffffffffffffffffffffffffff1673ffffffffffffffffffffffffffffffffffffffff163373ffffffffffffffffffffffffffffffffffffffff1614905090565b610981610922565b6109f3576040517f08c379a00000000000000000000000000000000000000000000000000000000081526004018080602001828103825260208152602001807f4f776e61626c653a2063616c6c6572206973206e6f7420746865206f776e657281525060200191505060405180910390fd5b6109fc826112d1565b610a05816112d1565b81600160006101000a81548173ffffffffffffffffffffffffffffffffffffffff021916908373ffffffffffffffffffffffffffffffffffffffff16021790555080600260006101000a81548173ffffffffffffffffffffffffffffffffffffffff021916908373ffffffffffffffffffffffffffffffffffffffff1602179055506000600660006101000a81548160ff02191690836004811115610aa657fe5b02179055506000610ab5610b6e565b90506000610acb82600001518360800151610d4d565b9050610ad78282610fac565b158015610aea5750610ae8826110d7565b155b610b3f576040517f08c379a000000000000000000000000000000000000000000000000000000000815260040180806020018281038252603081526020018061194b6030913960400191505060405180910390fd5b610b4882611247565b50610b516113f4565b50505050565b670de0b6b3a764000081565b600681565b61384081565b610b766118bd565b600160009054906101000a900473ffffffffffffffffffffffffffffffffffffffff1673ffffffffffffffffffffffffffffffffffffffff1663313ce5676040518163ffffffff1660e01b815260040160206040518083038186803b158015610bde57600080fd5b505afa925050508015610c1257506040513d6020811015610bfe57600080fd5b810190808051906020019092919050505060015b610c1b57610d4a565b80826080019060ff16908160ff168152505050600160009054906101000a900473ffffffffffffffffffffffffffffffffffffffff1673ffffffffffffffffffffffffffffffffffffffff1663feaf968c6040518163ffffffff1660e01b815260040160a06040518083038186803b158015610c9657600080fd5b505afa925050508015610cf257506040513d60a0811015610cb657600080fd5b81019080805190602001909291908051906020019092919080519060200190929190805190602001909291908051906020019092919050505060015b610cfb57610d4a565b84866000019069ffffffffffffffffffff16908169ffffffffffffffffffff16815250508386602001818152505081866040018181525050600186606001901515908115158152505050505050505b90565b610d556118bd565b600160009054906101000a900473ffffffffffffffffffffffffffffffffffffffff1673ffffffffffffffffffffffffffffffffffffffff16639a6fc8f5600185036040518263ffffffff1660e01b8152600401808269ffffffffffffffffffff16815260200191505060a06040518083038186803b158015610dd757600080fd5b505afa925050508015610e3357506040513d60a0811015610df757600080fd5b81019080805190602001909291908051906020019092919080519060200190929190805190602001909291908051906020019092919050505060015b610e3c57610e9d565b84866000019069ffffffffffffffffffff16908169ffffffffffffffffffff1681525050838660200181815250508186604001818152505086866080019060ff16908160ff1681525050600186606001901515908115158152505050505050505b92915050565b610eab6118fd565b600260009054906101000a900473ffffffffffffffffffffffffffffffffffffffff1673ffffffffffffffffffffffffffffffffffffffff166332e6aadb60016040518263ffffffff1660e01b81526004018082815260200191505060606040518083038186803b158015610f1f57600080fd5b505afa925050508015610f6757506040513d6060811015610f3f57600080fd5b8101908080519060200190929190805190602001909291908051906020019092919050505060015b610f7057610fa9565b82846000019015159081151581525050818460200181815250508084604001818152505060018460600190151590811515815250505050505b90565b6000610fb7836114b2565b80610fc75750610fc6826114b2565b5b905092915050565b60008160600151610fe35760019050611022565b600082604001511480610ff95750428260400151115b156110075760019050611022565b60008260200151141561101d5760019050611022565b600090505b919050565b80600660006101000a81548160ff0219169083600481111561104557fe5b02179055507fafa725e7f44cadb687a7043853fa1a7e7b8f0da74ce87ec546e9420f04da8c1e816040518082600481111561107c57fe5b815260200191505060405180910390a150565b60006138406110ab83604001514261152b90919063ffffffff16565b119050919050565b6000806110c38360200151611575565b90506110ce81611598565b80915050919050565b60006138406110f383604001514261152b90919063ffffffff16565b119050919050565b6000806111138460200151856080015160ff166115d9565b9050600061112c8460200151856080015160ff166115d9565b9050600061113a8383611634565b90506000611148848461164d565b9050600061118b8261117d670de0b6b3a764000061116f878761152b90919063ffffffff16565b61166790919063ffffffff16565b6116ed90919063ffffffff16565b90506706f05b59d3b2000081119550505050505092915050565b6000806111bd8460200151856080015160ff166115d9565b905060006111ce8460200151611575565b905060006111dc8284611634565b905060006111ea838561164d565b9050600061122d8361121f670de0b6b3a7640000611211878761152b90919063ffffffff16565b61166790919063ffffffff16565b6116ed90919063ffffffff16565b905066b1a2bc2ec500008111159550505050505092915050565b60008061125f8360200151846080015160ff166115d9565b905061126a81611598565b80915050919050565b600061127e82610fcf565b8061128e575061128d8261108f565b5b8061129f575061129e8484610fac565b5b806112af57506112ae846110d7565b5b156112bd57600090506112ca565b6112c784836111a5565b90505b9392505050565b600073ffffffffffffffffffffffffffffffffffffffff168173ffffffffffffffffffffffffffffffffffffffff161415611374576040517f08c379a000000000000000000000000000000000000000000000000000000000815260040180806020018281038252601e8152602001807f4163636f756e742063616e6e6f74206265207a65726f2061646472657373000081525060200191505060405180910390fd5b6000813b9050600081116113f0576040517f08c379a00000000000000000000000000000000000000000000000000000000081526004018080602001828103825260208152602001807f4163636f756e7420636f64652073697a652063616e6e6f74206265207a65726f81525060200191505060405180910390fd5b5050565b600073ffffffffffffffffffffffffffffffffffffffff1660008054906101000a900473ffffffffffffffffffffffffffffffffffffffff1673ffffffffffffffffffffffffffffffffffffffff167f8be0079c531659141344cd1fd0a4f28419497f9722a3daafe3b4186f6b6457e060405160405180910390a360008060006101000a81548173ffffffffffffffffffffffffffffffffffffffff021916908373ffffffffffffffffffffffffffffffffffffffff160217905550565b600081606001516114c65760019050611526565b6000826000015169ffffffffffffffffffff1614156114e85760019050611526565b6000826040015114806114fe5750428260400151115b1561150c5760019050611526565b60008260200151136115215760019050611526565b600090505b919050565b600061156d83836040518060400160405280601e81526020017f536166654d6174683a207375627472616374696f6e206f766572666c6f770000815250611737565b905092915050565b60006115916006601203600a0a8361166790919063ffffffff16565b9050919050565b806005819055507f4d29de21de555af78a62fc82dd4bc05e9ae5b0660a37f04729527e0f22780cd3816040518082815260200191505060405180910390a150565b60008060128310611604576115fd60128403600a0a856116ed90919063ffffffff16565b905061162a565b60128310156116295761162683601203600a0a8561166790919063ffffffff16565b90505b5b8091505092915050565b60008183106116435781611645565b825b905092915050565b60008183101561165d578161165f565b825b905092915050565b60008083141561167a57600090506116e7565b600082840290508284828161168b57fe5b04146116e2576040517f08c379a000000000000000000000000000000000000000000000000000000000815260040180806020018281038252602181526020018061192a6021913960400191505060405180910390fd5b809150505b92915050565b600061172f83836040518060400160405280601a81526020017f536166654d6174683a206469766973696f6e206279207a65726f0000000000008152506117f7565b905092915050565b60008383111582906117e4576040517f08c379a00000000000000000000000000000000000000000000000000000000081526004018080602001828103825283818151815260200191508051906020019080838360005b838110156117a957808201518184015260208101905061178e565b50505050905090810190601f1680156117d65780820380516001836020036101000a031916815260200191505b509250505060405180910390fd5b5060008385039050809150509392505050565b600080831182906118a3576040517f08c379a00000000000000000000000000000000000000000000000000000000081526004018080602001828103825283818151815260200191508051906020019080838360005b8381101561186857808201518184015260208101905061184d565b50505050905090810190601f1680156118955780820380516001836020036101000a031916815260200191505b509250505060405180910390fd5b5060008385816118af57fe5b049050809150509392505050565b6040518060a00160405280600069ffffffffffffffffffff1681526020016000815260200160008152602001600015158152602001600060ff1681525090565b60405180608001604052806000151581526020016000815260200160008152602001600015158152509056fe536166654d6174683a206d756c7469706c69636174696f6e206f766572666c6f775072696365466565643a20436861696e6c696e6b206d75737420626520776f726b696e6720616e642063757272656e74a264697066735822122077aa8fcd6f17bc4a8e5adbc3b481f52f0faa90495c4652d6c27d5b9f1e28cd9e64736f6c63430007060033",
  "immutableReferences": {},
  "source": "// SPDX-License-Identifier: MIT\r\n\r\npragma solidity >=0.6.0 <0.8.0;\r\n\r\nimport \"./Interfaces/IPriceFeed.sol\";\r\nimport \"./Interfaces/ITellorCaller.sol\";\r\nimport \"./Dependencies/AggregatorV3Interface.sol\";\r\nimport \"./Dependencies/TestSafeMath.sol\";\r\nimport \"./Dependencies/Ownable.sol\";\r\nimport \"./Dependencies/CheckContract.sol\";\r\nimport \"./Dependencies/BaseMath.sol\";\r\nimport \"./Dependencies/LiquityMath.sol\";\r\nimport \"./Dependencies/console.sol\";\r\n\r\n/*\r\n * PriceFeed for mainnet deployment, to be connected to Chainlink's live ETH:USD aggregator reference\r\n * contract, and a wrapper contract TellorCaller, which connects to TellorMaster contract.\r\n *\r\n * The PriceFeed uses Chainlink as primary oracle, and Tellor as fallback. It contains logic for\r\n * switching oracles based on oracle failures, timeouts, and conditions for returning to the primary\r\n * Chainlink oracle.\r\n */\r\ncontract PriceFeed is Ownable, CheckContract, BaseMath, IPriceFeed {\r\n    using TestSafeMath for uint256;\r\n\r\n    AggregatorV3Interface public priceAggregator; // Mainnet Chainlink aggregator\r\n    ITellorCaller public tellorCaller; // Wrapper contract that calls the Tellor system\r\n\r\n    // Core Liquity contracts\r\n    address borrowerOperationsAddress;\r\n    address troveManagerAddress;\r\n\r\n    uint256 public constant ETHUSD_TELLOR_REQ_ID = 1;\r\n\r\n    // Use to convert a price answer to an 18-digit precision uint\r\n    uint256 public constant TARGET_DIGITS = 18;\r\n    uint256 public constant TELLOR_DIGITS = 6;\r\n\r\n    // Maximum time period allowed since Chainlink's latest round data timestamp, beyond which Chainlink is considered frozen.\r\n    uint256 public constant TIMEOUT = 14400; // 4 hours: 60 * 60 * 4\r\n\r\n    // Maximum deviation allowed between two consecutive Chainlink oracle prices. 18-digit precision.\r\n    uint256 public constant MAX_PRICE_DEVIATION_FROM_PREVIOUS_ROUND = 5e17; // 50%\r\n\r\n    /*\r\n     * The maximum relative price difference between two oracle responses allowed in order for the PriceFeed\r\n     * to return to using the Chainlink oracle. 18-digit precision.\r\n     */\r\n    uint256 public constant MAX_PRICE_DIFFERENCE_BETWEEN_ORACLES = 5e16; // 5%\r\n\r\n    // The last good price seen from an oracle by Liquity\r\n    uint256 public lastGoodPrice;\r\n\r\n    struct ChainlinkResponse {\r\n        uint80 roundId;\r\n        int256 answer;\r\n        uint256 timestamp;\r\n        bool success;\r\n        uint8 decimals;\r\n    }\r\n\r\n    struct TellorResponse {\r\n        bool ifRetrieve;\r\n        uint256 value;\r\n        uint256 timestamp;\r\n        bool success;\r\n    }\r\n\r\n    enum Status {\r\n        chainlinkWorking,\r\n        usingTellorChainlinkUntrusted,\r\n        bothOraclesUntrusted,\r\n        usingTellorChainlinkFrozen,\r\n        usingChainlinkTellorUntrusted\r\n    }\r\n\r\n    // The current status of the PricFeed, which determines the conditions for the next price fetch attempt\r\n    Status public status;\r\n\r\n    event LastGoodPriceUpdated(uint256 _lastGoodPrice);\r\n    event StatusChanged(Status newStatus);\r\n\r\n    // --- Dependency setters ---\r\n\r\n    function setAddresses(\r\n        address _priceAggregatorAddress,\r\n        address _tellorCallerAddress\r\n    ) external onlyOwner {\r\n        checkContract(_priceAggregatorAddress);\r\n        checkContract(_tellorCallerAddress);\r\n\r\n        priceAggregator = AggregatorV3Interface(_priceAggregatorAddress);\r\n        tellorCaller = ITellorCaller(_tellorCallerAddress);\r\n\r\n        // Explicitly set initial system status\r\n        status = Status.chainlinkWorking;\r\n\r\n        // Get an initial price from Chainlink to serve as first reference for lastGoodPrice\r\n        ChainlinkResponse memory chainlinkResponse =\r\n            _getCurrentChainlinkResponse();\r\n        ChainlinkResponse memory prevChainlinkResponse =\r\n            _getPrevChainlinkResponse(\r\n                chainlinkResponse.roundId,\r\n                chainlinkResponse.decimals\r\n            );\r\n\r\n        require(\r\n            !_chainlinkIsBroken(chainlinkResponse, prevChainlinkResponse) &&\r\n                !_chainlinkIsFrozen(chainlinkResponse),\r\n            \"PriceFeed: Chainlink must be working and current\"\r\n        );\r\n\r\n        _storeChainlinkPrice(chainlinkResponse);\r\n\r\n        _renounceOwnership();\r\n    }\r\n\r\n    // --- Functions ---\r\n\r\n    /*\r\n     * fetchPrice():\r\n     * Returns the latest price obtained from the Oracle. Called by Liquity functions that require a current price.\r\n     *\r\n     * Also callable by anyone externally.\r\n     *\r\n     * Non-view function - it stores the last good price seen by Liquity.\r\n     *\r\n     * Uses a main oracle (Chainlink) and a fallback oracle (Tellor) in case Chainlink fails. If both fail,\r\n     * it uses the last good price seen by Liquity.\r\n     *\r\n     */\r\n    function fetchPrice() external override returns (uint256) {\r\n        // Get current and previous price data from Chainlink, and current price data from Tellor\r\n        ChainlinkResponse memory chainlinkResponse =\r\n            _getCurrentChainlinkResponse();\r\n        ChainlinkResponse memory prevChainlinkResponse =\r\n            _getPrevChainlinkResponse(\r\n                chainlinkResponse.roundId,\r\n                chainlinkResponse.decimals\r\n            );\r\n        TellorResponse memory tellorResponse = _getCurrentTellorResponse();\r\n\r\n        // --- CASE 1: System fetched last price from Chainlink  ---\r\n        if (status == Status.chainlinkWorking) {\r\n            // If Chainlink is broken, try Tellor\r\n            if (_chainlinkIsBroken(chainlinkResponse, prevChainlinkResponse)) {\r\n                // If Tellor is broken then both oracles are untrusted, so return the last good price\r\n                if (_tellorIsBroken(tellorResponse)) {\r\n                    _changeStatus(Status.bothOraclesUntrusted);\r\n                    return lastGoodPrice;\r\n                }\r\n                /*\r\n                 * If Tellor is only frozen but otherwise returning valid data, return the last good price.\r\n                 * Tellor may need to be tipped to return current data.\r\n                 */\r\n                if (_tellorIsFrozen(tellorResponse)) {\r\n                    _changeStatus(Status.usingTellorChainlinkUntrusted);\r\n                    return lastGoodPrice;\r\n                }\r\n\r\n                // If Chainlink is broken and Tellor is working, switch to Tellor and return current Tellor price\r\n                _changeStatus(Status.usingTellorChainlinkUntrusted);\r\n                return _storeTellorPrice(tellorResponse);\r\n            }\r\n\r\n            // If Chainlink is frozen, try Tellor\r\n            if (_chainlinkIsFrozen(chainlinkResponse)) {\r\n                // If Tellor is broken too, remember Tellor broke, and return last good price\r\n                if (_tellorIsBroken(tellorResponse)) {\r\n                    _changeStatus(Status.usingChainlinkTellorUntrusted);\r\n                    return lastGoodPrice;\r\n                }\r\n\r\n                // If Tellor is frozen or working, remember Chainlink froze, and switch to Tellor\r\n                _changeStatus(Status.usingTellorChainlinkFrozen);\r\n\r\n                if (_tellorIsFrozen(tellorResponse)) {\r\n                    return lastGoodPrice;\r\n                }\r\n\r\n                // If Tellor is working, use it\r\n                return _storeTellorPrice(tellorResponse);\r\n            }\r\n\r\n            // If Chainlink price has changed by > 50% between two consecutive rounds, compare it to Tellor's price\r\n            if (\r\n                _chainlinkPriceChangeAboveMax(\r\n                    chainlinkResponse,\r\n                    prevChainlinkResponse\r\n                )\r\n            ) {\r\n                // If Tellor is broken, both oracles are untrusted, and return last good price\r\n                if (_tellorIsBroken(tellorResponse)) {\r\n                    _changeStatus(Status.bothOraclesUntrusted);\r\n                    return lastGoodPrice;\r\n                }\r\n\r\n                // If Tellor is frozen, switch to Tellor and return last good price\r\n                if (_tellorIsFrozen(tellorResponse)) {\r\n                    _changeStatus(Status.usingTellorChainlinkUntrusted);\r\n                    return lastGoodPrice;\r\n                }\r\n\r\n                /*\r\n                 * If Tellor is live and both oracles have a similar price, conclude that Chainlink's large price deviation between\r\n                 * two consecutive rounds was likely a legitmate market price movement, and so continue using Chainlink\r\n                 */\r\n                if (\r\n                    _bothOraclesSimilarPrice(chainlinkResponse, tellorResponse)\r\n                ) {\r\n                    return _storeChainlinkPrice(chainlinkResponse);\r\n                }\r\n\r\n                // If Tellor is live but the oracles differ too much in price, conclude that Chainlink's initial price deviation was\r\n                // an oracle failure. Switch to Tellor, and use Tellor price\r\n                _changeStatus(Status.usingTellorChainlinkUntrusted);\r\n                return _storeTellorPrice(tellorResponse);\r\n            }\r\n\r\n            // If Chainlink is working and Tellor is broken, remember it, and return Chainlink price\r\n            if (_tellorIsBroken(tellorResponse)) {\r\n                _changeStatus(Status.usingChainlinkTellorUntrusted);\r\n                return _storeChainlinkPrice(chainlinkResponse);\r\n            }\r\n\r\n            // If Chainlink is working and Tellor is frozen or working, return Chainlink current price (no status change)\r\n            return _storeChainlinkPrice(chainlinkResponse);\r\n        }\r\n\r\n        // --- CASE 2: The system fetched last price from Tellor ---\r\n        if (status == Status.usingTellorChainlinkUntrusted) {\r\n            // If both Tellor and Chainlink are live, unbroken, and reporting similar prices, switch back to Chainlink\r\n            if (\r\n                _bothOraclesLiveAndUnbrokenAndSimilarPrice(\r\n                    chainlinkResponse,\r\n                    prevChainlinkResponse,\r\n                    tellorResponse\r\n                )\r\n            ) {\r\n                _changeStatus(Status.chainlinkWorking);\r\n                return _storeChainlinkPrice(chainlinkResponse);\r\n            }\r\n\r\n            if (_tellorIsBroken(tellorResponse)) {\r\n                _changeStatus(Status.bothOraclesUntrusted);\r\n                return lastGoodPrice;\r\n            }\r\n\r\n            /*\r\n             * If Tellor is only frozen but otherwise returning valid data, just return the last good price.\r\n             * Tellor may need to be tipped to return current data.\r\n             */\r\n            if (_tellorIsFrozen(tellorResponse)) {\r\n                return lastGoodPrice;\r\n            }\r\n\r\n            // Otherwise, use Tellor price\r\n            return _storeTellorPrice(tellorResponse);\r\n        }\r\n\r\n        // --- CASE 3: Both oracles were untrusted at the last price fetch ---\r\n        if (status == Status.bothOraclesUntrusted) {\r\n            /*\r\n             * If both oracles are now live, unbroken and similar price, we assume that they are reporting\r\n             * accurately, and so we switch back to Chainlink.\r\n             */\r\n            if (\r\n                _bothOraclesLiveAndUnbrokenAndSimilarPrice(\r\n                    chainlinkResponse,\r\n                    prevChainlinkResponse,\r\n                    tellorResponse\r\n                )\r\n            ) {\r\n                _changeStatus(Status.chainlinkWorking);\r\n                return _storeChainlinkPrice(chainlinkResponse);\r\n            }\r\n\r\n            // Otherwise, return the last good price - both oracles are still untrusted (no status change)\r\n            return lastGoodPrice;\r\n        }\r\n\r\n        // --- CASE 4: Using Tellor, and Chainlink is frozen ---\r\n        if (status == Status.usingTellorChainlinkFrozen) {\r\n            if (_chainlinkIsBroken(chainlinkResponse, prevChainlinkResponse)) {\r\n                // If both Oracles are broken, return last good price\r\n                if (_tellorIsBroken(tellorResponse)) {\r\n                    _changeStatus(Status.bothOraclesUntrusted);\r\n                    return lastGoodPrice;\r\n                }\r\n\r\n                // If Chainlink is broken, remember it and switch to using Tellor\r\n                _changeStatus(Status.usingTellorChainlinkUntrusted);\r\n\r\n                if (_tellorIsFrozen(tellorResponse)) {\r\n                    return lastGoodPrice;\r\n                }\r\n\r\n                // If Tellor is working, return Tellor current price\r\n                return _storeTellorPrice(tellorResponse);\r\n            }\r\n\r\n            if (_chainlinkIsFrozen(chainlinkResponse)) {\r\n                // if Chainlink is frozen and Tellor is broken, remember Tellor broke, and return last good price\r\n                if (_tellorIsBroken(tellorResponse)) {\r\n                    _changeStatus(Status.usingChainlinkTellorUntrusted);\r\n                    return lastGoodPrice;\r\n                }\r\n\r\n                // If Chainlink is frozen and Tellor is frozen, just return last good price (no status change)\r\n                if (_tellorIsFrozen(tellorResponse)) {\r\n                    return lastGoodPrice;\r\n                }\r\n\r\n                // if Chainlink is frozen and Tellor is working, keep using Tellor (no status change)\r\n                return _storeTellorPrice(tellorResponse);\r\n            }\r\n\r\n            // if Chainlink is working and Tellor is broken, remember Tellor broke, and return Chainlink price\r\n            if (_tellorIsBroken(tellorResponse)) {\r\n                _changeStatus(Status.usingChainlinkTellorUntrusted);\r\n                return _storeChainlinkPrice(chainlinkResponse);\r\n            }\r\n\r\n            // If Chainlink is working and Tellor is frozen or working, switch to Chainlink, and return Chainlink price\r\n            _changeStatus(Status.chainlinkWorking);\r\n            return _storeChainlinkPrice(chainlinkResponse);\r\n        }\r\n\r\n        // --- CASE 5: Using Chainlink, Tellor is untrusted ---\r\n        if (status == Status.usingChainlinkTellorUntrusted) {\r\n            // If Chainlink breaks, now both oracles are untrusted\r\n            if (_chainlinkIsBroken(chainlinkResponse, prevChainlinkResponse)) {\r\n                _changeStatus(Status.bothOraclesUntrusted);\r\n                return lastGoodPrice;\r\n            }\r\n\r\n            // If Chainlink is frozen, return last good price (no status change)\r\n            if (_chainlinkIsFrozen(chainlinkResponse)) {\r\n                return lastGoodPrice;\r\n            }\r\n\r\n            // If Chainlink and Tellor are both live, unbroken and similar price, switch back to chainlinkWorking and return Chainlink price\r\n            if (\r\n                _bothOraclesLiveAndUnbrokenAndSimilarPrice(\r\n                    chainlinkResponse,\r\n                    prevChainlinkResponse,\r\n                    tellorResponse\r\n                )\r\n            ) {\r\n                _changeStatus(Status.chainlinkWorking);\r\n                return _storeChainlinkPrice(chainlinkResponse);\r\n            }\r\n\r\n            // If Chainlink is working and Tellor is broken, frozen or reporting at >5% delta with Chainlink, return Chainlink price (no status change)\r\n            return _storeChainlinkPrice(chainlinkResponse);\r\n        }\r\n    }\r\n\r\n    // --- Helper functions ---\r\n\r\n    /* Chainlink is considered broken if its current or previous round data is in any way bad. We check the previous round\r\n     * for two reasons:\r\n     *\r\n     * 1) It is necessary data for the price deviation check in case 1,\r\n     * and\r\n     * 2) Chainlink is the PriceFeed's preferred primary oracle - having two consecutive valid round responses adds\r\n     * peace of mind when using or returning to Chainlink.\r\n     */\r\n    function _chainlinkIsBroken(\r\n        ChainlinkResponse memory _currentResponse,\r\n        ChainlinkResponse memory _prevResponse\r\n    ) internal view returns (bool) {\r\n        return\r\n            _badChainlinkResponse(_currentResponse) ||\r\n            _badChainlinkResponse(_prevResponse);\r\n    }\r\n\r\n    function _badChainlinkResponse(ChainlinkResponse memory _response)\r\n        internal\r\n        view\r\n        returns (bool)\r\n    {\r\n        // Check for response call reverted\r\n        if (!_response.success) {\r\n            return true;\r\n        }\r\n        // Check for an invalid roundId that is 0\r\n        if (_response.roundId == 0) {\r\n            return true;\r\n        }\r\n        // Check for an invalid timeStamp that is 0, or in the future\r\n        if (_response.timestamp == 0 || _response.timestamp > block.timestamp) {\r\n            return true;\r\n        }\r\n        // Check for non-positive price\r\n        if (_response.answer <= 0) {\r\n            return true;\r\n        }\r\n\r\n        return false;\r\n    }\r\n\r\n    function _chainlinkIsFrozen(ChainlinkResponse memory _response)\r\n        internal\r\n        view\r\n        returns (bool)\r\n    {\r\n        return block.timestamp.sub(_response.timestamp) > TIMEOUT;\r\n    }\r\n\r\n    function _chainlinkPriceChangeAboveMax(\r\n        ChainlinkResponse memory _currentResponse,\r\n        ChainlinkResponse memory _prevResponse\r\n    ) internal view returns (bool) {\r\n        uint256 currentScaledPrice =\r\n            _scaleChainlinkPriceByDigits(\r\n                uint256(_currentResponse.answer),\r\n                _currentResponse.decimals\r\n            );\r\n        uint256 prevScaledPrice =\r\n            _scaleChainlinkPriceByDigits(\r\n                uint256(_prevResponse.answer),\r\n                _prevResponse.decimals\r\n            );\r\n\r\n        uint256 minPrice =\r\n            LiquityMath._min(currentScaledPrice, prevScaledPrice);\r\n        uint256 maxPrice =\r\n            LiquityMath._max(currentScaledPrice, prevScaledPrice);\r\n\r\n        /*\r\n         * Use the larger price as the denominator:\r\n         * - If price decreased, the percentage deviation is in relation to the the previous price.\r\n         * - If price increased, the percentage deviation is in relation to the current price.\r\n         */\r\n        uint256 percentDeviation =\r\n            maxPrice.sub(minPrice).mul(DECIMAL_PRECISION).div(maxPrice);\r\n\r\n        // Return true if price has more than doubled, or more than halved.\r\n        return percentDeviation > MAX_PRICE_DEVIATION_FROM_PREVIOUS_ROUND;\r\n    }\r\n\r\n    function _tellorIsBroken(TellorResponse memory _response)\r\n        internal\r\n        view\r\n        returns (bool)\r\n    {\r\n        // Check for response call reverted\r\n        if (!_response.success) {\r\n            return true;\r\n        }\r\n        // Check for an invalid timeStamp that is 0, or in the future\r\n        if (_response.timestamp == 0 || _response.timestamp > block.timestamp) {\r\n            return true;\r\n        }\r\n        // Check for zero price\r\n        if (_response.value == 0) {\r\n            return true;\r\n        }\r\n\r\n        return false;\r\n    }\r\n\r\n    function _tellorIsFrozen(TellorResponse memory _tellorResponse)\r\n        internal\r\n        view\r\n        returns (bool)\r\n    {\r\n        return block.timestamp.sub(_tellorResponse.timestamp) > TIMEOUT;\r\n    }\r\n\r\n    function _bothOraclesLiveAndUnbrokenAndSimilarPrice(\r\n        ChainlinkResponse memory _chainlinkResponse,\r\n        ChainlinkResponse memory _prevChainlinkResponse,\r\n        TellorResponse memory _tellorResponse\r\n    ) internal view returns (bool) {\r\n        // Return false if either oracle is broken or frozen\r\n        if (\r\n            _tellorIsBroken(_tellorResponse) ||\r\n            _tellorIsFrozen(_tellorResponse) ||\r\n            _chainlinkIsBroken(_chainlinkResponse, _prevChainlinkResponse) ||\r\n            _chainlinkIsFrozen(_chainlinkResponse)\r\n        ) {\r\n            return false;\r\n        }\r\n\r\n        return _bothOraclesSimilarPrice(_chainlinkResponse, _tellorResponse);\r\n    }\r\n\r\n    function _bothOraclesSimilarPrice(\r\n        ChainlinkResponse memory _chainlinkResponse,\r\n        TellorResponse memory _tellorResponse\r\n    ) internal view returns (bool) {\r\n        uint256 scaledChainlinkPrice =\r\n            _scaleChainlinkPriceByDigits(\r\n                uint256(_chainlinkResponse.answer),\r\n                _chainlinkResponse.decimals\r\n            );\r\n        uint256 scaledTellorPrice =\r\n            _scaleTellorPriceByDigits(_tellorResponse.value);\r\n\r\n        // Get the relative price difference between the oracles. Use the lower price as the denominator, i.e. the reference for the calculation.\r\n        uint256 minPrice =\r\n            LiquityMath._min(scaledTellorPrice, scaledChainlinkPrice);\r\n        uint256 maxPrice =\r\n            LiquityMath._max(scaledTellorPrice, scaledChainlinkPrice);\r\n        uint256 percentPriceDifference =\r\n            maxPrice.sub(minPrice).mul(DECIMAL_PRECISION).div(minPrice);\r\n\r\n        /*\r\n         * Return true if the relative price difference is <= 3%: if so, we assume both oracles are probably reporting\r\n         * the honest market price, as it is unlikely that both have been broken/hacked and are still in-sync.\r\n         */\r\n        return percentPriceDifference <= MAX_PRICE_DIFFERENCE_BETWEEN_ORACLES;\r\n    }\r\n\r\n    function _scaleChainlinkPriceByDigits(uint256 _price, uint256 _answerDigits)\r\n        internal\r\n        pure\r\n        returns (uint256)\r\n    {\r\n        /*\r\n         * Convert the price returned by the Chainlink oracle to an 18-digit decimal for use by Liquity.\r\n         * At date of Liquity launch, Chainlink uses an 8-digit price, but we also handle the possibility of\r\n         * future changes.\r\n         *\r\n         */\r\n        uint256 price;\r\n        if (_answerDigits >= TARGET_DIGITS) {\r\n            // Scale the returned price value down to Liquity's target precision\r\n            price = _price.div(10**(_answerDigits - TARGET_DIGITS));\r\n        } else if (_answerDigits < TARGET_DIGITS) {\r\n            // Scale the returned price value up to Liquity's target precision\r\n            price = _price.mul(10**(TARGET_DIGITS - _answerDigits));\r\n        }\r\n        return price;\r\n    }\r\n\r\n    function _scaleTellorPriceByDigits(uint256 _price)\r\n        internal\r\n        pure\r\n        returns (uint256)\r\n    {\r\n        return _price.mul(10**(TARGET_DIGITS - TELLOR_DIGITS));\r\n    }\r\n\r\n    function _changeStatus(Status _status) internal {\r\n        status = _status;\r\n        emit StatusChanged(_status);\r\n    }\r\n\r\n    function _storePrice(uint256 _currentPrice) internal {\r\n        lastGoodPrice = _currentPrice;\r\n        emit LastGoodPriceUpdated(_currentPrice);\r\n    }\r\n\r\n    function _storeTellorPrice(TellorResponse memory _tellorResponse)\r\n        internal\r\n        returns (uint256)\r\n    {\r\n        uint256 scaledTellorPrice =\r\n            _scaleTellorPriceByDigits(_tellorResponse.value);\r\n        _storePrice(scaledTellorPrice);\r\n\r\n        return scaledTellorPrice;\r\n    }\r\n\r\n    function _storeChainlinkPrice(ChainlinkResponse memory _chainlinkResponse)\r\n        internal\r\n        returns (uint256)\r\n    {\r\n        uint256 scaledChainlinkPrice =\r\n            _scaleChainlinkPriceByDigits(\r\n                uint256(_chainlinkResponse.answer),\r\n                _chainlinkResponse.decimals\r\n            );\r\n        _storePrice(scaledChainlinkPrice);\r\n\r\n        return scaledChainlinkPrice;\r\n    }\r\n\r\n    // --- Oracle response wrapper functions ---\r\n\r\n    function _getCurrentTellorResponse()\r\n        internal\r\n        view\r\n        returns (TellorResponse memory tellorResponse)\r\n    {\r\n        try tellorCaller.getTellorCurrentValue(ETHUSD_TELLOR_REQ_ID) returns (\r\n            bool ifRetrieve,\r\n            uint256 value,\r\n            uint256 _timestampRetrieved\r\n        ) {\r\n            // If call to Tellor succeeds, return the response and success = true\r\n            tellorResponse.ifRetrieve = ifRetrieve;\r\n            tellorResponse.value = value;\r\n            tellorResponse.timestamp = _timestampRetrieved;\r\n            tellorResponse.success = true;\r\n\r\n            return (tellorResponse);\r\n        } catch {\r\n            // If call to Tellor reverts, return a zero response with success = false\r\n            return (tellorResponse);\r\n        }\r\n    }\r\n\r\n    function _getCurrentChainlinkResponse()\r\n        internal\r\n        view\r\n        returns (ChainlinkResponse memory chainlinkResponse)\r\n    {\r\n        // First, try to get current decimal precision:\r\n        try priceAggregator.decimals() returns (uint8 decimals) {\r\n            // If call to Chainlink succeeds, record the current decimal precision\r\n            chainlinkResponse.decimals = decimals;\r\n        } catch {\r\n            // If call to Chainlink aggregator reverts, return a zero response with success = false\r\n            return chainlinkResponse;\r\n        }\r\n\r\n        // Secondly, try to get latest price data:\r\n        try priceAggregator.latestRoundData() returns (\r\n            uint80 roundId,\r\n            int256 answer,\r\n            uint256 startedAt,\r\n            uint256 timestamp,\r\n            uint80 answeredInRound\r\n        ) {\r\n            // If call to Chainlink succeeds, return the response and success = true\r\n            chainlinkResponse.roundId = roundId;\r\n            chainlinkResponse.answer = answer;\r\n            chainlinkResponse.timestamp = timestamp;\r\n            chainlinkResponse.success = true;\r\n            return chainlinkResponse;\r\n        } catch {\r\n            // If call to Chainlink aggregator reverts, return a zero response with success = false\r\n            return chainlinkResponse;\r\n        }\r\n    }\r\n\r\n    function _getPrevChainlinkResponse(\r\n        uint80 _currentRoundId,\r\n        uint8 _currentDecimals\r\n    ) internal view returns (ChainlinkResponse memory prevChainlinkResponse) {\r\n        /*\r\n         * NOTE: Chainlink only offers a current decimals() value - there is no way to obtain the decimal precision used in a\r\n         * previous round.  We assume the decimals used in the previous round are the same as the current round.\r\n         */\r\n\r\n        // Try to get the price data from the previous round:\r\n        try priceAggregator.getRoundData(_currentRoundId - 1) returns (\r\n            uint80 roundId,\r\n            int256 answer,\r\n            uint256 startedAt,\r\n            uint256 timestamp,\r\n            uint80 answeredInRound\r\n        ) {\r\n            // If call to Chainlink succeeds, return the response and success = true\r\n            prevChainlinkResponse.roundId = roundId;\r\n            prevChainlinkResponse.answer = answer;\r\n            prevChainlinkResponse.timestamp = timestamp;\r\n            prevChainlinkResponse.decimals = _currentDecimals;\r\n            prevChainlinkResponse.success = true;\r\n            return prevChainlinkResponse;\r\n        } catch {\r\n            // If call to Chainlink aggregator reverts, return a zero response with success = false\r\n            return prevChainlinkResponse;\r\n        }\r\n    }\r\n}\r\n",
  "sourcePath": "C:/Users/danie/code/harp/client/src/contracts/PriceFeed.sol",
  "compiler": {
    "name": "solc",
    "version": "0.7.6+commit.7338295f.Emscripten.clang"
  },
  "schemaVersion": "3.3.3",
  "updatedAt": "2021-02-19T17:49:42.096Z",
  "devdoc": {
    "kind": "dev",
    "methods": {
      "isOwner()": {
        "details": "Returns true if the caller is the current owner."
      },
      "owner()": {
        "details": "Returns the address of the current owner."
      }
    },
    "version": 1
  },
  "userdoc": {
    "kind": "user",
    "methods": {},
    "version": 1
  }
}