{
  "contractName": "SortedTroves",
  "abi": [
    {
      "anonymous": false,
      "inputs": [
        {
          "indexed": false,
          "internalType": "address",
          "name": "_borrowerOperationsAddress",
          "type": "address"
        }
      ],
      "name": "BorrowerOperationsAddressChanged",
      "type": "event"
    },
    {
      "anonymous": false,
      "inputs": [
        {
          "indexed": true,
          "internalType": "address",
          "name": "previousOwner",
          "type": "address"
        },
        {
          "indexed": true,
          "internalType": "address",
          "name": "newOwner",
          "type": "address"
        }
      ],
      "name": "OwnershipTransferred",
      "type": "event"
    },
    {
      "anonymous": false,
      "inputs": [
        {
          "indexed": false,
          "internalType": "address",
          "name": "_sortedDoublyLLAddress",
          "type": "address"
        }
      ],
      "name": "SortedTrovesAddressChanged",
      "type": "event"
    },
    {
      "anonymous": false,
      "inputs": [
        {
          "indexed": false,
          "internalType": "address",
          "name": "_troveManagerAddress",
          "type": "address"
        }
      ],
      "name": "TroveManagerAddressChanged",
      "type": "event"
    },
    {
      "inputs": [],
      "name": "borrowerOperationsAddress",
      "outputs": [
        {
          "internalType": "address",
          "name": "",
          "type": "address"
        }
      ],
      "stateMutability": "view",
      "type": "function"
    },
    {
      "inputs": [],
      "name": "data",
      "outputs": [
        {
          "internalType": "address",
          "name": "head",
          "type": "address"
        },
        {
          "internalType": "address",
          "name": "tail",
          "type": "address"
        },
        {
          "internalType": "uint256",
          "name": "maxSize",
          "type": "uint256"
        },
        {
          "internalType": "uint256",
          "name": "size",
          "type": "uint256"
        }
      ],
      "stateMutability": "view",
      "type": "function"
    },
    {
      "inputs": [],
      "name": "isOwner",
      "outputs": [
        {
          "internalType": "bool",
          "name": "",
          "type": "bool"
        }
      ],
      "stateMutability": "view",
      "type": "function"
    },
    {
      "inputs": [],
      "name": "owner",
      "outputs": [
        {
          "internalType": "address",
          "name": "",
          "type": "address"
        }
      ],
      "stateMutability": "view",
      "type": "function"
    },
    {
      "inputs": [],
      "name": "troveManager",
      "outputs": [
        {
          "internalType": "contract ITroveManager",
          "name": "",
          "type": "address"
        }
      ],
      "stateMutability": "view",
      "type": "function"
    },
    {
      "inputs": [
        {
          "internalType": "uint256",
          "name": "_size",
          "type": "uint256"
        },
        {
          "internalType": "address",
          "name": "_troveManagerAddress",
          "type": "address"
        },
        {
          "internalType": "address",
          "name": "_borrowerOperationsAddress",
          "type": "address"
        }
      ],
      "name": "setParams",
      "outputs": [],
      "stateMutability": "nonpayable",
      "type": "function"
    },
    {
      "inputs": [
        {
          "internalType": "address",
          "name": "_id",
          "type": "address"
        },
        {
          "internalType": "uint256",
          "name": "_NICR",
          "type": "uint256"
        },
        {
          "internalType": "address",
          "name": "_prevId",
          "type": "address"
        },
        {
          "internalType": "address",
          "name": "_nextId",
          "type": "address"
        }
      ],
      "name": "insert",
      "outputs": [],
      "stateMutability": "nonpayable",
      "type": "function"
    },
    {
      "inputs": [
        {
          "internalType": "address",
          "name": "_id",
          "type": "address"
        }
      ],
      "name": "remove",
      "outputs": [],
      "stateMutability": "nonpayable",
      "type": "function"
    },
    {
      "inputs": [
        {
          "internalType": "address",
          "name": "_id",
          "type": "address"
        },
        {
          "internalType": "uint256",
          "name": "_newNICR",
          "type": "uint256"
        },
        {
          "internalType": "address",
          "name": "_prevId",
          "type": "address"
        },
        {
          "internalType": "address",
          "name": "_nextId",
          "type": "address"
        }
      ],
      "name": "reInsert",
      "outputs": [],
      "stateMutability": "nonpayable",
      "type": "function"
    },
    {
      "inputs": [
        {
          "internalType": "address",
          "name": "_id",
          "type": "address"
        }
      ],
      "name": "contains",
      "outputs": [
        {
          "internalType": "bool",
          "name": "",
          "type": "bool"
        }
      ],
      "stateMutability": "view",
      "type": "function"
    },
    {
      "inputs": [],
      "name": "isFull",
      "outputs": [
        {
          "internalType": "bool",
          "name": "",
          "type": "bool"
        }
      ],
      "stateMutability": "view",
      "type": "function"
    },
    {
      "inputs": [],
      "name": "isEmpty",
      "outputs": [
        {
          "internalType": "bool",
          "name": "",
          "type": "bool"
        }
      ],
      "stateMutability": "view",
      "type": "function"
    },
    {
      "inputs": [],
      "name": "getSize",
      "outputs": [
        {
          "internalType": "uint256",
          "name": "",
          "type": "uint256"
        }
      ],
      "stateMutability": "view",
      "type": "function"
    },
    {
      "inputs": [],
      "name": "getMaxSize",
      "outputs": [
        {
          "internalType": "uint256",
          "name": "",
          "type": "uint256"
        }
      ],
      "stateMutability": "view",
      "type": "function"
    },
    {
      "inputs": [],
      "name": "getFirst",
      "outputs": [
        {
          "internalType": "address",
          "name": "",
          "type": "address"
        }
      ],
      "stateMutability": "view",
      "type": "function"
    },
    {
      "inputs": [],
      "name": "getLast",
      "outputs": [
        {
          "internalType": "address",
          "name": "",
          "type": "address"
        }
      ],
      "stateMutability": "view",
      "type": "function"
    },
    {
      "inputs": [
        {
          "internalType": "address",
          "name": "_id",
          "type": "address"
        }
      ],
      "name": "getNext",
      "outputs": [
        {
          "internalType": "address",
          "name": "",
          "type": "address"
        }
      ],
      "stateMutability": "view",
      "type": "function"
    },
    {
      "inputs": [
        {
          "internalType": "address",
          "name": "_id",
          "type": "address"
        }
      ],
      "name": "getPrev",
      "outputs": [
        {
          "internalType": "address",
          "name": "",
          "type": "address"
        }
      ],
      "stateMutability": "view",
      "type": "function"
    },
    {
      "inputs": [
        {
          "internalType": "uint256",
          "name": "_NICR",
          "type": "uint256"
        },
        {
          "internalType": "address",
          "name": "_prevId",
          "type": "address"
        },
        {
          "internalType": "address",
          "name": "_nextId",
          "type": "address"
        }
      ],
      "name": "validInsertPosition",
      "outputs": [
        {
          "internalType": "bool",
          "name": "",
          "type": "bool"
        }
      ],
      "stateMutability": "view",
      "type": "function"
    },
    {
      "inputs": [
        {
          "internalType": "uint256",
          "name": "_NICR",
          "type": "uint256"
        },
        {
          "internalType": "address",
          "name": "_prevId",
          "type": "address"
        },
        {
          "internalType": "address",
          "name": "_nextId",
          "type": "address"
        }
      ],
      "name": "findInsertPosition",
      "outputs": [
        {
          "internalType": "address",
          "name": "",
          "type": "address"
        },
        {
          "internalType": "address",
          "name": "",
          "type": "address"
        }
      ],
      "stateMutability": "view",
      "type": "function"
    }
  ],
  "bytecode": "0x608060405234801561001057600080fd5b50336000806101000a81548173ffffffffffffffffffffffffffffffffffffffff021916908373ffffffffffffffffffffffffffffffffffffffff1602179055503373ffffffffffffffffffffffffffffffffffffffff16600073ffffffffffffffffffffffffffffffffffffffff167f8be0079c531659141344cd1fd0a4f28419497f9722a3daafe3b4186f6b6457e060405160405180910390a361331b806100bb6000396000f3fe608060405234801561001057600080fd5b506004361061012c5760003560e01c8063681fe70c116100ad578063b72703ac11610071578063b72703ac1461061f578063b7f8cf9b1461068d578063babd3d9a146106c1578063de8fa431146106e1578063f376d798146106ff5761012c565b8063681fe70c146104de57806373d4a13a146104fe578063765e01591461055d5780638da5cb5b146105cb5780638f32d59b146105ff5761012c565b8063416980dc116100f4578063416980dc146102ef57806346f7cf87146103a45780634d622831146104325780635dbe47e81461046657806363e1d57c146104c05761012c565b80631e2231431461013157806329092d0e146101655780632be21260146101a95780633d83908a146102375780633fce12d51461026b575b600080fd5b61013961076d565b604051808273ffffffffffffffffffffffffffffffffffffffff16815260200191505060405180910390f35b6101a76004803603602081101561017b57600080fd5b81019080803573ffffffffffffffffffffffffffffffffffffffff16906020019092919050505061079a565b005b610235600480360360808110156101bf57600080fd5b81019080803573ffffffffffffffffffffffffffffffffffffffff16906020019092919080359060200190929190803573ffffffffffffffffffffffffffffffffffffffff169060200190929190803573ffffffffffffffffffffffffffffffffffffffff1690602001909291905050506107ae565b005b61023f6108b2565b604051808273ffffffffffffffffffffffffffffffffffffffff16815260200191505060405180910390f35b6102d76004803603606081101561028157600080fd5b8101908080359060200190929190803573ffffffffffffffffffffffffffffffffffffffff169060200190929190803573ffffffffffffffffffffffffffffffffffffffff1690602001909291905050506108d8565b60405180821515815260200191505060405180910390f35b61035b6004803603606081101561030557600080fd5b8101908080359060200190929190803573ffffffffffffffffffffffffffffffffffffffff169060200190929190803573ffffffffffffffffffffffffffffffffffffffff169060200190929190505050610911565b604051808373ffffffffffffffffffffffffffffffffffffffff1681526020018273ffffffffffffffffffffffffffffffffffffffff1681526020019250505060405180910390f35b610430600480360360808110156103ba57600080fd5b81019080803573ffffffffffffffffffffffffffffffffffffffff16906020019092919080359060200190929190803573ffffffffffffffffffffffffffffffffffffffff169060200190929190803573ffffffffffffffffffffffffffffffffffffffff16906020019092919050505061094e565b005b61043a610992565b604051808273ffffffffffffffffffffffffffffffffffffffff16815260200191505060405180910390f35b6104a86004803603602081101561047c57600080fd5b81019080803573ffffffffffffffffffffffffffffffffffffffff1690602001909291905050506109bf565b60405180821515815260200191505060405180910390f35b6104c8610a1b565b6040518082815260200191505060405180910390f35b6104e6610a28565b60405180821515815260200191505060405180910390f35b610506610a36565b604051808573ffffffffffffffffffffffffffffffffffffffff1681526020018473ffffffffffffffffffffffffffffffffffffffff16815260200183815260200182815260200194505050505060405180910390f35b61059f6004803603602081101561057357600080fd5b81019080803573ffffffffffffffffffffffffffffffffffffffff169060200190929190505050610a94565b604051808273ffffffffffffffffffffffffffffffffffffffff16815260200191505060405180910390f35b6105d3610b03565b604051808273ffffffffffffffffffffffffffffffffffffffff16815260200191505060405180910390f35b610607610b2c565b60405180821515815260200191505060405180910390f35b6106616004803603602081101561063557600080fd5b81019080803573ffffffffffffffffffffffffffffffffffffffff169060200190929190505050610b83565b604051808273ffffffffffffffffffffffffffffffffffffffff16815260200191505060405180910390f35b610695610bf2565b604051808273ffffffffffffffffffffffffffffffffffffffff16815260200191505060405180910390f35b6106c9610c18565b60405180821515815260200191505060405180910390f35b6106e9610c2b565b6040518082815260200191505060405180910390f35b61076b6004803603606081101561071557600080fd5b8101908080359060200190929190803573ffffffffffffffffffffffffffffffffffffffff169060200190929190803573ffffffffffffffffffffffffffffffffffffffff169060200190929190505050610c37565b005b6000600360000160009054906101000a900473ffffffffffffffffffffffffffffffffffffffff16905090565b6107a2610e4f565b6107ab81610ef7565b50565b6000600260009054906101000a900473ffffffffffffffffffffffffffffffffffffffff1690506107de816116bc565b6107e7856109bf565b61083c576040517f08c379a000000000000000000000000000000000000000000000000000000000815260040180806020018281038252602a81526020018061321e602a913960400191505060405180910390fd5b60008411610895576040517f08c379a00000000000000000000000000000000000000000000000000000000081526004018080602001828103825260238152602001806132c36023913960400191505060405180910390fd5b61089e85610ef7565b6108ab818686868661179b565b5050505050565b600260009054906101000a900473ffffffffffffffffffffffffffffffffffffffff1681565b6000610908600260009054906101000a900473ffffffffffffffffffffffffffffffffffffffff168585856120d4565b90509392505050565b600080610942600260009054906101000a900473ffffffffffffffffffffffffffffffffffffffff168686866125c4565b91509150935093915050565b6000600260009054906101000a900473ffffffffffffffffffffffffffffffffffffffff16905061097e816116bc565b61098b818686868661179b565b5050505050565b6000600360010160009054906101000a900473ffffffffffffffffffffffffffffffffffffffff16905090565b6000600360040160008373ffffffffffffffffffffffffffffffffffffffff1673ffffffffffffffffffffffffffffffffffffffff16815260200190815260200160002060000160009054906101000a900460ff169050919050565b6000600360020154905090565b600080600380015414905090565b60038060000160009054906101000a900473ffffffffffffffffffffffffffffffffffffffff16908060010160009054906101000a900473ffffffffffffffffffffffffffffffffffffffff16908060020154908060030154905084565b6000600360040160008373ffffffffffffffffffffffffffffffffffffffff1673ffffffffffffffffffffffffffffffffffffffff16815260200190815260200160002060000160019054906101000a900473ffffffffffffffffffffffffffffffffffffffff169050919050565b60008060009054906101000a900473ffffffffffffffffffffffffffffffffffffffff16905090565b60008060009054906101000a900473ffffffffffffffffffffffffffffffffffffffff1673ffffffffffffffffffffffffffffffffffffffff163373ffffffffffffffffffffffffffffffffffffffff1614905090565b6000600360040160008373ffffffffffffffffffffffffffffffffffffffff1673ffffffffffffffffffffffffffffffffffffffff16815260200190815260200160002060010160009054906101000a900473ffffffffffffffffffffffffffffffffffffffff169050919050565b600160009054906101000a900473ffffffffffffffffffffffffffffffffffffffff1681565b6000600360020154600380015414905090565b60006003800154905090565b610c3f610b2c565b610cb1576040517f08c379a00000000000000000000000000000000000000000000000000000000081526004018080602001828103825260208152602001807f4f776e61626c653a2063616c6c6572206973206e6f7420746865206f776e657281525060200191505060405180910390fd5b60008311610d0a576040517f08c379a00000000000000000000000000000000000000000000000000000000081526004018080602001828103825260228152602001806132746022913960400191505060405180910390fd5b610d1382612912565b610d1c81612912565b8260036002018190555081600260006101000a81548173ffffffffffffffffffffffffffffffffffffffff021916908373ffffffffffffffffffffffffffffffffffffffff16021790555080600160006101000a81548173ffffffffffffffffffffffffffffffffffffffff021916908373ffffffffffffffffffffffffffffffffffffffff1602179055507f143219c9e69b09e07e095fcc889b43d8f46ca892bba65f08dc3a0050869a567882604051808273ffffffffffffffffffffffffffffffffffffffff16815260200191505060405180910390a17f3ca631ffcd2a9b5d9ae18543fc82f58eb4ca33af9e6ab01b7a8e95331e6ed98581604051808273ffffffffffffffffffffffffffffffffffffffff16815260200191505060405180910390a1610e4a612a35565b505050565b600260009054906101000a900473ffffffffffffffffffffffffffffffffffffffff1673ffffffffffffffffffffffffffffffffffffffff163373ffffffffffffffffffffffffffffffffffffffff1614610ef5576040517f08c379a000000000000000000000000000000000000000000000000000000000815260040180806020018281038252602c815260200180613248602c913960400191505060405180910390fd5b565b610f00816109bf565b610f55576040517f08c379a000000000000000000000000000000000000000000000000000000000815260040180806020018281038252602a81526020018061321e602a913960400191505060405180910390fd5b60016003800154111561156757600360000160009054906101000a900473ffffffffffffffffffffffffffffffffffffffff1673ffffffffffffffffffffffffffffffffffffffff168173ffffffffffffffffffffffffffffffffffffffff16141561111357600360040160008273ffffffffffffffffffffffffffffffffffffffff1673ffffffffffffffffffffffffffffffffffffffff16815260200190815260200160002060000160019054906101000a900473ffffffffffffffffffffffffffffffffffffffff16600360000160006101000a81548173ffffffffffffffffffffffffffffffffffffffff021916908373ffffffffffffffffffffffffffffffffffffffff160217905550600060036004016000600360000160009054906101000a900473ffffffffffffffffffffffffffffffffffffffff1673ffffffffffffffffffffffffffffffffffffffff1673ffffffffffffffffffffffffffffffffffffffff16815260200190815260200160002060010160006101000a81548173ffffffffffffffffffffffffffffffffffffffff021916908373ffffffffffffffffffffffffffffffffffffffff160217905550611562565b600360010160009054906101000a900473ffffffffffffffffffffffffffffffffffffffff1673ffffffffffffffffffffffffffffffffffffffff168173ffffffffffffffffffffffffffffffffffffffff1614156112c457600360040160008273ffffffffffffffffffffffffffffffffffffffff1673ffffffffffffffffffffffffffffffffffffffff16815260200190815260200160002060010160009054906101000a900473ffffffffffffffffffffffffffffffffffffffff16600360010160006101000a81548173ffffffffffffffffffffffffffffffffffffffff021916908373ffffffffffffffffffffffffffffffffffffffff160217905550600060036004016000600360010160009054906101000a900473ffffffffffffffffffffffffffffffffffffffff1673ffffffffffffffffffffffffffffffffffffffff1673ffffffffffffffffffffffffffffffffffffffff16815260200190815260200160002060000160016101000a81548173ffffffffffffffffffffffffffffffffffffffff021916908373ffffffffffffffffffffffffffffffffffffffff160217905550611561565b600360040160008273ffffffffffffffffffffffffffffffffffffffff1673ffffffffffffffffffffffffffffffffffffffff16815260200190815260200160002060000160019054906101000a900473ffffffffffffffffffffffffffffffffffffffff1660036004016000600360040160008573ffffffffffffffffffffffffffffffffffffffff1673ffffffffffffffffffffffffffffffffffffffff16815260200190815260200160002060010160009054906101000a900473ffffffffffffffffffffffffffffffffffffffff1673ffffffffffffffffffffffffffffffffffffffff1673ffffffffffffffffffffffffffffffffffffffff16815260200190815260200160002060000160016101000a81548173ffffffffffffffffffffffffffffffffffffffff021916908373ffffffffffffffffffffffffffffffffffffffff160217905550600360040160008273ffffffffffffffffffffffffffffffffffffffff1673ffffffffffffffffffffffffffffffffffffffff16815260200190815260200160002060010160009054906101000a900473ffffffffffffffffffffffffffffffffffffffff1660036004016000600360040160008573ffffffffffffffffffffffffffffffffffffffff1673ffffffffffffffffffffffffffffffffffffffff16815260200190815260200160002060000160019054906101000a900473ffffffffffffffffffffffffffffffffffffffff1673ffffffffffffffffffffffffffffffffffffffff1673ffffffffffffffffffffffffffffffffffffffff16815260200190815260200160002060010160006101000a81548173ffffffffffffffffffffffffffffffffffffffff021916908373ffffffffffffffffffffffffffffffffffffffff1602179055505b5b6115f2565b6000600360000160006101000a81548173ffffffffffffffffffffffffffffffffffffffff021916908373ffffffffffffffffffffffffffffffffffffffff1602179055506000600360010160006101000a81548173ffffffffffffffffffffffffffffffffffffffff021916908373ffffffffffffffffffffffffffffffffffffffff1602179055505b600360040160008273ffffffffffffffffffffffffffffffffffffffff1673ffffffffffffffffffffffffffffffffffffffff168152602001908152602001600020600080820160006101000a81549060ff02191690556000820160016101000a81549073ffffffffffffffffffffffffffffffffffffffff02191690556001820160006101000a81549073ffffffffffffffffffffffffffffffffffffffff021916905550506116b160016003800154612af390919063ffffffff16565b600380018190555050565b600160009054906101000a900473ffffffffffffffffffffffffffffffffffffffff1673ffffffffffffffffffffffffffffffffffffffff163373ffffffffffffffffffffffffffffffffffffffff16148061174357508073ffffffffffffffffffffffffffffffffffffffff163373ffffffffffffffffffffffffffffffffffffffff16145b611798576040517f08c379a000000000000000000000000000000000000000000000000000000000815260040180806020018281038252602d815260200180613296602d913960400191505060405180910390fd5b50565b6117a3610c18565b15611816576040517f08c379a000000000000000000000000000000000000000000000000000000000815260040180806020018281038252601a8152602001807f536f7274656454726f7665733a204c6973742069732066756c6c00000000000081525060200191505060405180910390fd5b61181f846109bf565b15611875576040517f08c379a000000000000000000000000000000000000000000000000000000000815260040180806020018281038252602c8152602001806131f2602c913960400191505060405180910390fd5b600073ffffffffffffffffffffffffffffffffffffffff168473ffffffffffffffffffffffffffffffffffffffff161415611918576040517f08c379a000000000000000000000000000000000000000000000000000000000815260040180806020018281038252601f8152602001807f536f7274656454726f7665733a2049642063616e6e6f74206265207a65726f0081525060200191505060405180910390fd5b60008311611971576040517f08c379a00000000000000000000000000000000000000000000000000000000081526004018080602001828103825260238152602001806132c36023913960400191505060405180910390fd5b60008290506000829050611987878684846120d4565b6119a057611997878684846125c4565b80925081935050505b6001600360040160008873ffffffffffffffffffffffffffffffffffffffff1673ffffffffffffffffffffffffffffffffffffffff16815260200190815260200160002060000160006101000a81548160ff021916908315150217905550600073ffffffffffffffffffffffffffffffffffffffff168273ffffffffffffffffffffffffffffffffffffffff16148015611a665750600073ffffffffffffffffffffffffffffffffffffffff168173ffffffffffffffffffffffffffffffffffffffff16145b15611af85785600360000160006101000a81548173ffffffffffffffffffffffffffffffffffffffff021916908373ffffffffffffffffffffffffffffffffffffffff16021790555085600360010160006101000a81548173ffffffffffffffffffffffffffffffffffffffff021916908373ffffffffffffffffffffffffffffffffffffffff1602179055506120ab565b600073ffffffffffffffffffffffffffffffffffffffff168273ffffffffffffffffffffffffffffffffffffffff161415611cc857600360000160009054906101000a900473ffffffffffffffffffffffffffffffffffffffff16600360040160008873ffffffffffffffffffffffffffffffffffffffff1673ffffffffffffffffffffffffffffffffffffffff16815260200190815260200160002060000160016101000a81548173ffffffffffffffffffffffffffffffffffffffff021916908373ffffffffffffffffffffffffffffffffffffffff1602179055508560036004016000600360000160009054906101000a900473ffffffffffffffffffffffffffffffffffffffff1673ffffffffffffffffffffffffffffffffffffffff1673ffffffffffffffffffffffffffffffffffffffff16815260200190815260200160002060010160006101000a81548173ffffffffffffffffffffffffffffffffffffffff021916908373ffffffffffffffffffffffffffffffffffffffff16021790555085600360000160006101000a81548173ffffffffffffffffffffffffffffffffffffffff021916908373ffffffffffffffffffffffffffffffffffffffff1602179055506120aa565b600073ffffffffffffffffffffffffffffffffffffffff168173ffffffffffffffffffffffffffffffffffffffff161415611e9857600360010160009054906101000a900473ffffffffffffffffffffffffffffffffffffffff16600360040160008873ffffffffffffffffffffffffffffffffffffffff1673ffffffffffffffffffffffffffffffffffffffff16815260200190815260200160002060010160006101000a81548173ffffffffffffffffffffffffffffffffffffffff021916908373ffffffffffffffffffffffffffffffffffffffff1602179055508560036004016000600360010160009054906101000a900473ffffffffffffffffffffffffffffffffffffffff1673ffffffffffffffffffffffffffffffffffffffff1673ffffffffffffffffffffffffffffffffffffffff16815260200190815260200160002060000160016101000a81548173ffffffffffffffffffffffffffffffffffffffff021916908373ffffffffffffffffffffffffffffffffffffffff16021790555085600360010160006101000a81548173ffffffffffffffffffffffffffffffffffffffff021916908373ffffffffffffffffffffffffffffffffffffffff1602179055506120a9565b80600360040160008873ffffffffffffffffffffffffffffffffffffffff1673ffffffffffffffffffffffffffffffffffffffff16815260200190815260200160002060000160016101000a81548173ffffffffffffffffffffffffffffffffffffffff021916908373ffffffffffffffffffffffffffffffffffffffff16021790555081600360040160008873ffffffffffffffffffffffffffffffffffffffff1673ffffffffffffffffffffffffffffffffffffffff16815260200190815260200160002060010160006101000a81548173ffffffffffffffffffffffffffffffffffffffff021916908373ffffffffffffffffffffffffffffffffffffffff16021790555085600360040160008473ffffffffffffffffffffffffffffffffffffffff1673ffffffffffffffffffffffffffffffffffffffff16815260200190815260200160002060000160016101000a81548173ffffffffffffffffffffffffffffffffffffffff021916908373ffffffffffffffffffffffffffffffffffffffff16021790555085600360040160008373ffffffffffffffffffffffffffffffffffffffff1673ffffffffffffffffffffffffffffffffffffffff16815260200190815260200160002060010160006101000a81548173ffffffffffffffffffffffffffffffffffffffff021916908373ffffffffffffffffffffffffffffffffffffffff1602179055505b5b5b6120c360016003800154612b3d90919063ffffffff16565b600380018190555050505050505050565b60008073ffffffffffffffffffffffffffffffffffffffff168373ffffffffffffffffffffffffffffffffffffffff1614801561213d5750600073ffffffffffffffffffffffffffffffffffffffff168273ffffffffffffffffffffffffffffffffffffffff16145b156121515761214a610a28565b90506125bc565b600073ffffffffffffffffffffffffffffffffffffffff168373ffffffffffffffffffffffffffffffffffffffff16141561228e578173ffffffffffffffffffffffffffffffffffffffff16600360000160009054906101000a900473ffffffffffffffffffffffffffffffffffffffff1673ffffffffffffffffffffffffffffffffffffffff1614801561228757508473ffffffffffffffffffffffffffffffffffffffff1663b0d8e181836040518263ffffffff1660e01b8152600401808273ffffffffffffffffffffffffffffffffffffffff16815260200191505060206040518083038186803b15801561224857600080fd5b505afa15801561225c573d6000803e3d6000fd5b505050506040513d602081101561227257600080fd5b81019080805190602001909291905050508410155b90506125bc565b600073ffffffffffffffffffffffffffffffffffffffff168273ffffffffffffffffffffffffffffffffffffffff1614156123cb578273ffffffffffffffffffffffffffffffffffffffff16600360010160009054906101000a900473ffffffffffffffffffffffffffffffffffffffff1673ffffffffffffffffffffffffffffffffffffffff161480156123c457508473ffffffffffffffffffffffffffffffffffffffff1663b0d8e181846040518263ffffffff1660e01b8152600401808273ffffffffffffffffffffffffffffffffffffffff16815260200191505060206040518083038186803b15801561238557600080fd5b505afa158015612399573d6000803e3d6000fd5b505050506040513d60208110156123af57600080fd5b81019080805190602001909291905050508411155b90506125bc565b8173ffffffffffffffffffffffffffffffffffffffff16600360040160008573ffffffffffffffffffffffffffffffffffffffff1673ffffffffffffffffffffffffffffffffffffffff16815260200190815260200160002060000160019054906101000a900473ffffffffffffffffffffffffffffffffffffffff1673ffffffffffffffffffffffffffffffffffffffff1614801561250c5750838573ffffffffffffffffffffffffffffffffffffffff1663b0d8e181856040518263ffffffff1660e01b8152600401808273ffffffffffffffffffffffffffffffffffffffff16815260200191505060206040518083038186803b1580156124ce57600080fd5b505afa1580156124e2573d6000803e3d6000fd5b505050506040513d60208110156124f857600080fd5b810190808051906020019092919050505010155b80156125b957508473ffffffffffffffffffffffffffffffffffffffff1663b0d8e181836040518263ffffffff1660e01b8152600401808273ffffffffffffffffffffffffffffffffffffffff16815260200191505060206040518083038186803b15801561257a57600080fd5b505afa15801561258e573d6000803e3d6000fd5b505050506040513d60208110156125a457600080fd5b81019080805190602001909291905050508410155b90505b949350505050565b60008060008490506000849050600073ffffffffffffffffffffffffffffffffffffffff168273ffffffffffffffffffffffffffffffffffffffff16146126c55761260e826109bf565b15806126ba57508773ffffffffffffffffffffffffffffffffffffffff1663b0d8e181836040518263ffffffff1660e01b8152600401808273ffffffffffffffffffffffffffffffffffffffff16815260200191505060206040518083038186803b15801561267c57600080fd5b505afa158015612690573d6000803e3d6000fd5b505050506040513d60208110156126a657600080fd5b810190808051906020019092919050505087115b156126c457600091505b5b600073ffffffffffffffffffffffffffffffffffffffff168173ffffffffffffffffffffffffffffffffffffffff16146127b957612702816109bf565b15806127ae57508773ffffffffffffffffffffffffffffffffffffffff1663b0d8e181826040518263ffffffff1660e01b8152600401808273ffffffffffffffffffffffffffffffffffffffff16815260200191505060206040518083038186803b15801561277057600080fd5b505afa158015612784573d6000803e3d6000fd5b505050506040513d602081101561279a57600080fd5b810190808051906020019092919050505087105b156127b857600090505b5b600073ffffffffffffffffffffffffffffffffffffffff168273ffffffffffffffffffffffffffffffffffffffff161480156128215750600073ffffffffffffffffffffffffffffffffffffffff168173ffffffffffffffffffffffffffffffffffffffff16145b15612861576128568888600360000160009054906101000a900473ffffffffffffffffffffffffffffffffffffffff16612bc5565b935093505050612909565b600073ffffffffffffffffffffffffffffffffffffffff168273ffffffffffffffffffffffffffffffffffffffff1614156128ac576128a1888883612e7b565b935093505050612909565b600073ffffffffffffffffffffffffffffffffffffffff168173ffffffffffffffffffffffffffffffffffffffff1614156128f7576128ec888884612bc5565b935093505050612909565b612902888884612bc5565b9350935050505b94509492505050565b600073ffffffffffffffffffffffffffffffffffffffff168173ffffffffffffffffffffffffffffffffffffffff1614156129b5576040517f08c379a000000000000000000000000000000000000000000000000000000000815260040180806020018281038252601e8152602001807f4163636f756e742063616e6e6f74206265207a65726f2061646472657373000081525060200191505060405180910390fd5b6000813b905060008111612a31576040517f08c379a00000000000000000000000000000000000000000000000000000000081526004018080602001828103825260208152602001807f4163636f756e7420636f64652073697a652063616e6e6f74206265207a65726f81525060200191505060405180910390fd5b5050565b600073ffffffffffffffffffffffffffffffffffffffff1660008054906101000a900473ffffffffffffffffffffffffffffffffffffffff1673ffffffffffffffffffffffffffffffffffffffff167f8be0079c531659141344cd1fd0a4f28419497f9722a3daafe3b4186f6b6457e060405160405180910390a360008060006101000a81548173ffffffffffffffffffffffffffffffffffffffff021916908373ffffffffffffffffffffffffffffffffffffffff160217905550565b6000612b3583836040518060400160405280601e81526020017f536166654d6174683a207375627472616374696f6e206f766572666c6f770000815250613131565b905092915050565b600080828401905083811015612bbb576040517f08c379a000000000000000000000000000000000000000000000000000000000815260040180806020018281038252601b8152602001807f536166654d6174683a206164646974696f6e206f766572666c6f77000000000081525060200191505060405180910390fd5b8091505092915050565b6000808273ffffffffffffffffffffffffffffffffffffffff16600360000160009054906101000a900473ffffffffffffffffffffffffffffffffffffffff1673ffffffffffffffffffffffffffffffffffffffff16148015612cc957508473ffffffffffffffffffffffffffffffffffffffff1663b0d8e181846040518263ffffffff1660e01b8152600401808273ffffffffffffffffffffffffffffffffffffffff16815260200191505060206040518083038186803b158015612c8a57600080fd5b505afa158015612c9e573d6000803e3d6000fd5b505050506040513d6020811015612cb457600080fd5b81019080805190602001909291905050508410155b15612cda5760008391509150612e73565b60008390506000600360040160008373ffffffffffffffffffffffffffffffffffffffff1673ffffffffffffffffffffffffffffffffffffffff16815260200190815260200160002060000160019054906101000a900473ffffffffffffffffffffffffffffffffffffffff1690505b600073ffffffffffffffffffffffffffffffffffffffff168273ffffffffffffffffffffffffffffffffffffffff1614158015612d905750612d8e878784846120d4565b155b15612e6a57600360040160008373ffffffffffffffffffffffffffffffffffffffff1673ffffffffffffffffffffffffffffffffffffffff16815260200190815260200160002060000160019054906101000a900473ffffffffffffffffffffffffffffffffffffffff169150600360040160008373ffffffffffffffffffffffffffffffffffffffff1673ffffffffffffffffffffffffffffffffffffffff16815260200190815260200160002060000160019054906101000a900473ffffffffffffffffffffffffffffffffffffffff169050612d4a565b81819350935050505b935093915050565b6000808273ffffffffffffffffffffffffffffffffffffffff16600360010160009054906101000a900473ffffffffffffffffffffffffffffffffffffffff1673ffffffffffffffffffffffffffffffffffffffff16148015612f7f57508473ffffffffffffffffffffffffffffffffffffffff1663b0d8e181846040518263ffffffff1660e01b8152600401808273ffffffffffffffffffffffffffffffffffffffff16815260200191505060206040518083038186803b158015612f4057600080fd5b505afa158015612f54573d6000803e3d6000fd5b505050506040513d6020811015612f6a57600080fd5b81019080805190602001909291905050508411155b15612f905782600091509150613129565b60008390506000600360040160008373ffffffffffffffffffffffffffffffffffffffff1673ffffffffffffffffffffffffffffffffffffffff16815260200190815260200160002060010160009054906101000a900473ffffffffffffffffffffffffffffffffffffffff1690505b600073ffffffffffffffffffffffffffffffffffffffff168273ffffffffffffffffffffffffffffffffffffffff16141580156130465750613044878783856120d4565b155b1561312057600360040160008373ffffffffffffffffffffffffffffffffffffffff1673ffffffffffffffffffffffffffffffffffffffff16815260200190815260200160002060010160009054906101000a900473ffffffffffffffffffffffffffffffffffffffff169150600360040160008373ffffffffffffffffffffffffffffffffffffffff1673ffffffffffffffffffffffffffffffffffffffff16815260200190815260200160002060010160009054906101000a900473ffffffffffffffffffffffffffffffffffffffff169050613000565b80829350935050505b935093915050565b60008383111582906131de576040517f08c379a00000000000000000000000000000000000000000000000000000000081526004018080602001828103825283818151815260200191508051906020019080838360005b838110156131a3578082015181840152602081019050613188565b50505050905090810190601f1680156131d05780820380516001836020036101000a031916815260200191505b509250505060405180910390fd5b506000838503905080915050939250505056fe536f7274656454726f7665733a204c69737420616c726561647920636f6e7461696e7320746865206e6f6465536f7274656454726f7665733a204c69737420646f6573206e6f7420636f6e7461696e20746865206964536f7274656454726f7665733a2043616c6c6572206973206e6f74207468652054726f76654d616e61676572536f7274656454726f7665733a2053697a652063616e206e6f74206265207a65726f536f7274656454726f7665733a2043616c6c6572206973206e65697468657220424f206e6f722054726f76654d536f7274656454726f7665733a204e494352206d75737420626520706f736974697665a2646970667358221220953f83efb2cb0a6406a44330a6b5a21c40d7bda8884b04b022382accb09c3c9d64736f6c63430007060033",
  "immutableReferences": {},
  "source": "// SPDX-License-Identifier: MIT\r\n\r\npragma solidity >=0.6.0 <0.8.0;\r\n\r\nimport \"./Interfaces/ISortedTroves.sol\";\r\nimport \"./Interfaces/ITroveManager.sol\";\r\nimport \"./Interfaces/IBorrowerOperations.sol\";\r\nimport \"./Dependencies/TestSafeMath.sol\";\r\nimport \"./Dependencies/Ownable.sol\";\r\nimport \"./Dependencies/CheckContract.sol\";\r\nimport \"./Dependencies/console.sol\";\r\n\r\n/*\r\n * A sorted doubly linked list with nodes sorted in descending order.\r\n *\r\n * Nodes map to active Troves in the system - the ID property is the address of a Trove owner.\r\n * Nodes are ordered according to their current nominal individual collateral ratio (NICR),\r\n * which is like the ICR but without the price, i.e., just collateral / debt.\r\n *\r\n * The list optionally accepts insert position hints.\r\n *\r\n * NICRs are computed dynamically at runtime, and not stored on the Node. This is because NICRs of active Troves\r\n * change dynamically as liquidation events occur.\r\n *\r\n * The list relies on the fact that liquidation events preserve ordering: a liquidation decreases the NICRs of all active Troves,\r\n * but maintains their order. A node inserted based on current NICR will maintain the correct position,\r\n * relative to it's peers, as rewards accumulate, as long as it's raw collateral and debt have not changed.\r\n * Thus, Nodes remain sorted by current NICR.\r\n *\r\n * Nodes need only be re-inserted upon a Trove operation - when the owner adds or removes collateral or debt\r\n * to their position.\r\n *\r\n * The list is a modification of the following audited SortedDoublyLinkedList:\r\n * https://github.com/livepeer/protocol/blob/master/contracts/libraries/SortedDoublyLL.sol\r\n *\r\n *\r\n * Changes made in the Liquity implementation:\r\n *\r\n * - Keys have been removed from nodes\r\n *\r\n * - Ordering checks for insertion are performed by comparing an NICR argument to the current NICR, calculated at runtime.\r\n *   The list relies on the property that ordering by ICR is maintained as the ETH:USD price varies.\r\n *\r\n * - Public functions with parameters have been made internal to save gas, and given an external wrapper function for external access\r\n */\r\ncontract SortedTroves is Ownable, CheckContract, ISortedTroves {\r\n    using TestSafeMath for uint256;\r\n\r\n    event TroveManagerAddressChanged(address _troveManagerAddress);\r\n    event BorrowerOperationsAddressChanged(address _borrowerOperationsAddress);\r\n\r\n    address public borrowerOperationsAddress;\r\n\r\n    ITroveManager public troveManager;\r\n\r\n    // Information for a node in the list\r\n    struct Node {\r\n        bool exists;\r\n        address nextId; // Id of next node (smaller NICR) in the list\r\n        address prevId; // Id of previous node (larger NICR) in the list\r\n    }\r\n\r\n    // Information for the list\r\n    struct Data {\r\n        address head; // Head of the list. Also the node in the list with the largest NICR\r\n        address tail; // Tail of the list. Also the node in the list with the smallest NICR\r\n        uint256 maxSize; // Maximum size of the list\r\n        uint256 size; // Current size of the list\r\n        mapping(address => Node) nodes; // Track the corresponding ids for each node in the list\r\n    }\r\n\r\n    Data public data;\r\n\r\n    // --- Dependency setters ---\r\n\r\n    function setParams(\r\n        uint256 _size,\r\n        address _troveManagerAddress,\r\n        address _borrowerOperationsAddress\r\n    ) external override onlyOwner {\r\n        require(_size > 0, \"SortedTroves: Size can not be zero\");\r\n        checkContract(_troveManagerAddress);\r\n        checkContract(_borrowerOperationsAddress);\r\n\r\n        data.maxSize = _size;\r\n\r\n        troveManager = ITroveManager(_troveManagerAddress);\r\n        borrowerOperationsAddress = _borrowerOperationsAddress;\r\n\r\n        emit TroveManagerAddressChanged(_troveManagerAddress);\r\n        emit BorrowerOperationsAddressChanged(_borrowerOperationsAddress);\r\n\r\n        _renounceOwnership();\r\n    }\r\n\r\n    /*\r\n     * @dev Add a node to the list\r\n     * @param _id Node's id\r\n     * @param _NICR Node's NICR\r\n     * @param _prevId Id of previous node for the insert position\r\n     * @param _nextId Id of next node for the insert position\r\n     */\r\n\r\n    function insert(\r\n        address _id,\r\n        uint256 _NICR,\r\n        address _prevId,\r\n        address _nextId\r\n    ) external override {\r\n        ITroveManager troveManagerCached = troveManager;\r\n\r\n        _requireCallerIsBOorTroveM(troveManagerCached);\r\n        _insert(troveManagerCached, _id, _NICR, _prevId, _nextId);\r\n    }\r\n\r\n    function _insert(\r\n        ITroveManager _troveManager,\r\n        address _id,\r\n        uint256 _NICR,\r\n        address _prevId,\r\n        address _nextId\r\n    ) internal {\r\n        // List must not be full\r\n        require(!isFull(), \"SortedTroves: List is full\");\r\n        // List must not already contain node\r\n        require(!contains(_id), \"SortedTroves: List already contains the node\");\r\n        // Node id must not be null\r\n        require(_id != address(0), \"SortedTroves: Id cannot be zero\");\r\n        // NICR must be non-zero\r\n        require(_NICR > 0, \"SortedTroves: NICR must be positive\");\r\n\r\n        address prevId = _prevId;\r\n        address nextId = _nextId;\r\n\r\n        if (!_validInsertPosition(_troveManager, _NICR, prevId, nextId)) {\r\n            // Sender's hint was not a valid insert position\r\n            // Use sender's hint to find a valid insert position\r\n            (prevId, nextId) = _findInsertPosition(\r\n                _troveManager,\r\n                _NICR,\r\n                prevId,\r\n                nextId\r\n            );\r\n        }\r\n\r\n        data.nodes[_id].exists = true;\r\n\r\n        if (prevId == address(0) && nextId == address(0)) {\r\n            // Insert as head and tail\r\n            data.head = _id;\r\n            data.tail = _id;\r\n        } else if (prevId == address(0)) {\r\n            // Insert before `prevId` as the head\r\n            data.nodes[_id].nextId = data.head;\r\n            data.nodes[data.head].prevId = _id;\r\n            data.head = _id;\r\n        } else if (nextId == address(0)) {\r\n            // Insert after `nextId` as the tail\r\n            data.nodes[_id].prevId = data.tail;\r\n            data.nodes[data.tail].nextId = _id;\r\n            data.tail = _id;\r\n        } else {\r\n            // Insert at insert position between `prevId` and `nextId`\r\n            data.nodes[_id].nextId = nextId;\r\n            data.nodes[_id].prevId = prevId;\r\n            data.nodes[prevId].nextId = _id;\r\n            data.nodes[nextId].prevId = _id;\r\n        }\r\n\r\n        data.size = data.size.add(1);\r\n    }\r\n\r\n    function remove(address _id) external override {\r\n        _requireCallerIsTroveManager();\r\n        _remove(_id);\r\n    }\r\n\r\n    /*\r\n     * @dev Remove a node from the list\r\n     * @param _id Node's id\r\n     */\r\n    function _remove(address _id) internal {\r\n        // List must contain the node\r\n        require(contains(_id), \"SortedTroves: List does not contain the id\");\r\n\r\n        if (data.size > 1) {\r\n            // List contains more than a single node\r\n            if (_id == data.head) {\r\n                // The removed node is the head\r\n                // Set head to next node\r\n                data.head = data.nodes[_id].nextId;\r\n                // Set prev pointer of new head to null\r\n                data.nodes[data.head].prevId = address(0);\r\n            } else if (_id == data.tail) {\r\n                // The removed node is the tail\r\n                // Set tail to previous node\r\n                data.tail = data.nodes[_id].prevId;\r\n                // Set next pointer of new tail to null\r\n                data.nodes[data.tail].nextId = address(0);\r\n            } else {\r\n                // The removed node is neither the head nor the tail\r\n                // Set next pointer of previous node to the next node\r\n                data.nodes[data.nodes[_id].prevId].nextId = data.nodes[_id]\r\n                    .nextId;\r\n                // Set prev pointer of next node to the previous node\r\n                data.nodes[data.nodes[_id].nextId].prevId = data.nodes[_id]\r\n                    .prevId;\r\n            }\r\n        } else {\r\n            // List contains a single node\r\n            // Set the head and tail to null\r\n            data.head = address(0);\r\n            data.tail = address(0);\r\n        }\r\n\r\n        delete data.nodes[_id];\r\n        data.size = data.size.sub(1);\r\n    }\r\n\r\n    /*\r\n     * @dev Re-insert the node at a new position, based on its new NICR\r\n     * @param _id Node's id\r\n     * @param _newNICR Node's new NICR\r\n     * @param _prevId Id of previous node for the new insert position\r\n     * @param _nextId Id of next node for the new insert position\r\n     */\r\n    function reInsert(\r\n        address _id,\r\n        uint256 _newNICR,\r\n        address _prevId,\r\n        address _nextId\r\n    ) external override {\r\n        ITroveManager troveManagerCached = troveManager;\r\n\r\n        _requireCallerIsBOorTroveM(troveManagerCached);\r\n        // List must contain the node\r\n        require(contains(_id), \"SortedTroves: List does not contain the id\");\r\n        // NICR must be non-zero\r\n        require(_newNICR > 0, \"SortedTroves: NICR must be positive\");\r\n\r\n        // Remove node from the list\r\n        _remove(_id);\r\n\r\n        _insert(troveManagerCached, _id, _newNICR, _prevId, _nextId);\r\n    }\r\n\r\n    /*\r\n     * @dev Checks if the list contains a node\r\n     */\r\n    function contains(address _id) public view override returns (bool) {\r\n        return data.nodes[_id].exists;\r\n    }\r\n\r\n    /*\r\n     * @dev Checks if the list is full\r\n     */\r\n    function isFull() public view override returns (bool) {\r\n        return data.size == data.maxSize;\r\n    }\r\n\r\n    /*\r\n     * @dev Checks if the list is empty\r\n     */\r\n    function isEmpty() public view override returns (bool) {\r\n        return data.size == 0;\r\n    }\r\n\r\n    /*\r\n     * @dev Returns the current size of the list\r\n     */\r\n    function getSize() external view override returns (uint256) {\r\n        return data.size;\r\n    }\r\n\r\n    /*\r\n     * @dev Returns the maximum size of the list\r\n     */\r\n    function getMaxSize() external view override returns (uint256) {\r\n        return data.maxSize;\r\n    }\r\n\r\n    /*\r\n     * @dev Returns the first node in the list (node with the largest NICR)\r\n     */\r\n    function getFirst() external view override returns (address) {\r\n        return data.head;\r\n    }\r\n\r\n    /*\r\n     * @dev Returns the last node in the list (node with the smallest NICR)\r\n     */\r\n    function getLast() external view override returns (address) {\r\n        return data.tail;\r\n    }\r\n\r\n    /*\r\n     * @dev Returns the next node (with a smaller NICR) in the list for a given node\r\n     * @param _id Node's id\r\n     */\r\n    function getNext(address _id) external view override returns (address) {\r\n        return data.nodes[_id].nextId;\r\n    }\r\n\r\n    /*\r\n     * @dev Returns the previous node (with a larger NICR) in the list for a given node\r\n     * @param _id Node's id\r\n     */\r\n    function getPrev(address _id) external view override returns (address) {\r\n        return data.nodes[_id].prevId;\r\n    }\r\n\r\n    /*\r\n     * @dev Check if a pair of nodes is a valid insertion point for a new node with the given NICR\r\n     * @param _NICR Node's NICR\r\n     * @param _prevId Id of previous node for the insert position\r\n     * @param _nextId Id of next node for the insert position\r\n     */\r\n    function validInsertPosition(\r\n        uint256 _NICR,\r\n        address _prevId,\r\n        address _nextId\r\n    ) external view override returns (bool) {\r\n        return _validInsertPosition(troveManager, _NICR, _prevId, _nextId);\r\n    }\r\n\r\n    function _validInsertPosition(\r\n        ITroveManager _troveManager,\r\n        uint256 _NICR,\r\n        address _prevId,\r\n        address _nextId\r\n    ) internal view returns (bool) {\r\n        if (_prevId == address(0) && _nextId == address(0)) {\r\n            // `(null, null)` is a valid insert position if the list is empty\r\n            return isEmpty();\r\n        } else if (_prevId == address(0)) {\r\n            // `(null, _nextId)` is a valid insert position if `_nextId` is the head of the list\r\n            return\r\n                data.head == _nextId &&\r\n                _NICR >= _troveManager.getNominalICR(_nextId);\r\n        } else if (_nextId == address(0)) {\r\n            // `(_prevId, null)` is a valid insert position if `_prevId` is the tail of the list\r\n            return\r\n                data.tail == _prevId &&\r\n                _NICR <= _troveManager.getNominalICR(_prevId);\r\n        } else {\r\n            // `(_prevId, _nextId)` is a valid insert position if they are adjacent nodes and `_NICR` falls between the two nodes' NICRs\r\n            return\r\n                data.nodes[_prevId].nextId == _nextId &&\r\n                _troveManager.getNominalICR(_prevId) >= _NICR &&\r\n                _NICR >= _troveManager.getNominalICR(_nextId);\r\n        }\r\n    }\r\n\r\n    /*\r\n     * @dev Descend the list (larger NICRs to smaller NICRs) to find a valid insert position\r\n     * @param _troveManager TroveManager contract, passed in as param to save SLOADs\r\n     * @param _NICR Node's NICR\r\n     * @param _startId Id of node to start descending the list from\r\n     */\r\n    function _descendList(\r\n        ITroveManager _troveManager,\r\n        uint256 _NICR,\r\n        address _startId\r\n    ) internal view returns (address, address) {\r\n        // If `_startId` is the head, check if the insert position is before the head\r\n        if (\r\n            data.head == _startId &&\r\n            _NICR >= _troveManager.getNominalICR(_startId)\r\n        ) {\r\n            return (address(0), _startId);\r\n        }\r\n\r\n        address prevId = _startId;\r\n        address nextId = data.nodes[prevId].nextId;\r\n\r\n        // Descend the list until we reach the end or until we find a valid insert position\r\n        while (\r\n            prevId != address(0) &&\r\n            !_validInsertPosition(_troveManager, _NICR, prevId, nextId)\r\n        ) {\r\n            prevId = data.nodes[prevId].nextId;\r\n            nextId = data.nodes[prevId].nextId;\r\n        }\r\n\r\n        return (prevId, nextId);\r\n    }\r\n\r\n    /*\r\n     * @dev Ascend the list (smaller NICRs to larger NICRs) to find a valid insert position\r\n     * @param _troveManager TroveManager contract, passed in as param to save SLOADs\r\n     * @param _NICR Node's NICR\r\n     * @param _startId Id of node to start ascending the list from\r\n     */\r\n    function _ascendList(\r\n        ITroveManager _troveManager,\r\n        uint256 _NICR,\r\n        address _startId\r\n    ) internal view returns (address, address) {\r\n        // If `_startId` is the tail, check if the insert position is after the tail\r\n        if (\r\n            data.tail == _startId &&\r\n            _NICR <= _troveManager.getNominalICR(_startId)\r\n        ) {\r\n            return (_startId, address(0));\r\n        }\r\n\r\n        address nextId = _startId;\r\n        address prevId = data.nodes[nextId].prevId;\r\n\r\n        // Ascend the list until we reach the end or until we find a valid insertion point\r\n        while (\r\n            nextId != address(0) &&\r\n            !_validInsertPosition(_troveManager, _NICR, prevId, nextId)\r\n        ) {\r\n            nextId = data.nodes[nextId].prevId;\r\n            prevId = data.nodes[nextId].prevId;\r\n        }\r\n\r\n        return (prevId, nextId);\r\n    }\r\n\r\n    /*\r\n     * @dev Find the insert position for a new node with the given NICR\r\n     * @param _NICR Node's NICR\r\n     * @param _prevId Id of previous node for the insert position\r\n     * @param _nextId Id of next node for the insert position\r\n     */\r\n    function findInsertPosition(\r\n        uint256 _NICR,\r\n        address _prevId,\r\n        address _nextId\r\n    ) external view override returns (address, address) {\r\n        return _findInsertPosition(troveManager, _NICR, _prevId, _nextId);\r\n    }\r\n\r\n    function _findInsertPosition(\r\n        ITroveManager _troveManager,\r\n        uint256 _NICR,\r\n        address _prevId,\r\n        address _nextId\r\n    ) internal view returns (address, address) {\r\n        address prevId = _prevId;\r\n        address nextId = _nextId;\r\n\r\n        if (prevId != address(0)) {\r\n            if (\r\n                !contains(prevId) || _NICR > _troveManager.getNominalICR(prevId)\r\n            ) {\r\n                // `prevId` does not exist anymore or now has a smaller NICR than the given NICR\r\n                prevId = address(0);\r\n            }\r\n        }\r\n\r\n        if (nextId != address(0)) {\r\n            if (\r\n                !contains(nextId) || _NICR < _troveManager.getNominalICR(nextId)\r\n            ) {\r\n                // `nextId` does not exist anymore or now has a larger NICR than the given NICR\r\n                nextId = address(0);\r\n            }\r\n        }\r\n\r\n        if (prevId == address(0) && nextId == address(0)) {\r\n            // No hint - descend list starting from head\r\n            return _descendList(_troveManager, _NICR, data.head);\r\n        } else if (prevId == address(0)) {\r\n            // No `prevId` for hint - ascend list starting from `nextId`\r\n            return _ascendList(_troveManager, _NICR, nextId);\r\n        } else if (nextId == address(0)) {\r\n            // No `nextId` for hint - descend list starting from `prevId`\r\n            return _descendList(_troveManager, _NICR, prevId);\r\n        } else {\r\n            // Descend list starting from `prevId`\r\n            return _descendList(_troveManager, _NICR, prevId);\r\n        }\r\n    }\r\n\r\n    // --- 'require' functions ---\r\n\r\n    function _requireCallerIsTroveManager() internal view {\r\n        require(\r\n            msg.sender == address(troveManager),\r\n            \"SortedTroves: Caller is not the TroveManager\"\r\n        );\r\n    }\r\n\r\n    function _requireCallerIsBOorTroveM(ITroveManager _troveManager)\r\n        internal\r\n        view\r\n    {\r\n        require(\r\n            msg.sender == borrowerOperationsAddress ||\r\n                msg.sender == address(_troveManager),\r\n            \"SortedTroves: Caller is neither BO nor TroveM\"\r\n        );\r\n    }\r\n}\r\n",
  "sourcePath": "C:\\Users\\danie\\code\\harp\\client\\src\\contracts\\SortedTroves.sol",
  "compiler": {
    "name": "solc",
    "version": "0.7.6+commit.7338295f.Emscripten.clang"
  },
  "schemaVersion": "3.3.3",
  "updatedAt": "2021-02-20T19:32:15.339Z",
  "devdoc": {
    "kind": "dev",
    "methods": {
      "isOwner()": {
        "details": "Returns true if the caller is the current owner."
      },
      "owner()": {
        "details": "Returns the address of the current owner."
      }
    },
    "version": 1
  },
  "userdoc": {
    "kind": "user",
    "methods": {},
    "version": 1
  }
}