{
  "contractName": "StabilityProxy",
  "abi": [
    {
      "inputs": [
        {
          "internalType": "address",
          "name": "_owner",
          "type": "address"
        },
        {
          "internalType": "contract StabilityFactory",
          "name": "_factory",
          "type": "address"
        },
        {
          "internalType": "address",
          "name": "_frontEnd",
          "type": "address"
        },
        {
          "internalType": "contract IERC20",
          "name": "_lusdToken",
          "type": "address"
        },
        {
          "internalType": "contract IERC20",
          "name": "_lqtyToken",
          "type": "address"
        },
        {
          "internalType": "contract IStabilityPool",
          "name": "_stabilityPool",
          "type": "address"
        }
      ],
      "stateMutability": "nonpayable",
      "type": "constructor"
    },
    {
      "anonymous": false,
      "inputs": [
        {
          "indexed": true,
          "internalType": "address",
          "name": "user",
          "type": "address"
        },
        {
          "indexed": false,
          "internalType": "uint256",
          "name": "amount",
          "type": "uint256"
        }
      ],
      "name": "Deposit",
      "type": "event"
    },
    {
      "anonymous": false,
      "inputs": [
        {
          "indexed": true,
          "internalType": "address",
          "name": "user",
          "type": "address"
        },
        {
          "indexed": false,
          "internalType": "uint256",
          "name": "amount",
          "type": "uint256"
        }
      ],
      "name": "Withdraw",
      "type": "event"
    },
    {
      "inputs": [],
      "name": "frontEnd",
      "outputs": [
        {
          "internalType": "address",
          "name": "",
          "type": "address"
        }
      ],
      "stateMutability": "view",
      "type": "function"
    },
    {
      "inputs": [],
      "name": "lqtyToken",
      "outputs": [
        {
          "internalType": "contract IERC20",
          "name": "",
          "type": "address"
        }
      ],
      "stateMutability": "view",
      "type": "function"
    },
    {
      "inputs": [],
      "name": "lusdBalance",
      "outputs": [
        {
          "internalType": "uint256",
          "name": "",
          "type": "uint256"
        }
      ],
      "stateMutability": "view",
      "type": "function"
    },
    {
      "inputs": [],
      "name": "lusdToken",
      "outputs": [
        {
          "internalType": "contract IERC20",
          "name": "",
          "type": "address"
        }
      ],
      "stateMutability": "view",
      "type": "function"
    },
    {
      "inputs": [],
      "name": "owner",
      "outputs": [
        {
          "internalType": "address",
          "name": "",
          "type": "address"
        }
      ],
      "stateMutability": "view",
      "type": "function"
    },
    {
      "inputs": [],
      "name": "stabilityFactory",
      "outputs": [
        {
          "internalType": "contract StabilityFactory",
          "name": "",
          "type": "address"
        }
      ],
      "stateMutability": "view",
      "type": "function"
    },
    {
      "inputs": [],
      "name": "stabilityPool",
      "outputs": [
        {
          "internalType": "contract IStabilityPool",
          "name": "",
          "type": "address"
        }
      ],
      "stateMutability": "view",
      "type": "function"
    },
    {
      "inputs": [
        {
          "internalType": "uint256",
          "name": "_amount",
          "type": "uint256"
        }
      ],
      "name": "deposit",
      "outputs": [],
      "stateMutability": "nonpayable",
      "type": "function"
    },
    {
      "inputs": [
        {
          "internalType": "uint256",
          "name": "_amount",
          "type": "uint256"
        }
      ],
      "name": "withdraw",
      "outputs": [],
      "stateMutability": "nonpayable",
      "type": "function"
    },
    {
      "inputs": [],
      "name": "claim",
      "outputs": [],
      "stateMutability": "nonpayable",
      "type": "function"
    },
    {
      "inputs": [],
      "name": "emergencyWithdraw",
      "outputs": [],
      "stateMutability": "nonpayable",
      "type": "function"
    }
  ],
  "bytecode": "0x608060405234801561001057600080fd5b50604051611d70380380611d70833981810160405260c081101561003357600080fd5b8101908080519060200190929190805190602001909291908051906020019092919080519060200190929190805190602001909291908051906020019092919050505085600260006101000a81548173ffffffffffffffffffffffffffffffffffffffff021916908373ffffffffffffffffffffffffffffffffffffffff16021790555082600360006101000a81548173ffffffffffffffffffffffffffffffffffffffff021916908373ffffffffffffffffffffffffffffffffffffffff16021790555081600460006101000a81548173ffffffffffffffffffffffffffffffffffffffff021916908373ffffffffffffffffffffffffffffffffffffffff16021790555080600560006101000a81548173ffffffffffffffffffffffffffffffffffffffff021916908373ffffffffffffffffffffffffffffffffffffffff16021790555083600160006101000a81548173ffffffffffffffffffffffffffffffffffffffff021916908373ffffffffffffffffffffffffffffffffffffffff16021790555084600660006101000a81548173ffffffffffffffffffffffffffffffffffffffff021916908373ffffffffffffffffffffffffffffffffffffffff160217905550505050505050611b5f806102116000396000f3fe608060405234801561001057600080fd5b50600436106100a95760003560e01c80638da5cb5b116100715780638da5cb5b14610182578063b6b55f25146101b6578063b83f91a2146101e4578063b9f6d8ff14610218578063db2e21bc14610236578063e7514c9a14610240576100a9565b8063048c661d146100ae5780631f7af3c3146100e25780632e1a7d4d146101165780633af82b17146101445780634e71d92d14610178575b600080fd5b6100b6610274565b604051808273ffffffffffffffffffffffffffffffffffffffff16815260200191505060405180910390f35b6100ea61029a565b604051808273ffffffffffffffffffffffffffffffffffffffff16815260200191505060405180910390f35b6101426004803603602081101561012c57600080fd5b81019080803590602001909291905050506102c0565b005b61014c610641565b604051808273ffffffffffffffffffffffffffffffffffffffff16815260200191505060405180910390f35b610180610667565b005b61018a61089a565b604051808273ffffffffffffffffffffffffffffffffffffffff16815260200191505060405180910390f35b6101e2600480360360208110156101cc57600080fd5b81019080803590602001909291905050506108c0565b005b6101ec610d9a565b604051808273ffffffffffffffffffffffffffffffffffffffff16815260200191505060405180910390f35b610220610dc0565b6040518082815260200191505060405180910390f35b61023e610dc6565b005b6102486110d2565b604051808273ffffffffffffffffffffffffffffffffffffffff16815260200191505060405180910390f35b600560009054906101000a900473ffffffffffffffffffffffffffffffffffffffff1681565b600460009054906101000a900473ffffffffffffffffffffffffffffffffffffffff1681565b600260009054906101000a900473ffffffffffffffffffffffffffffffffffffffff1673ffffffffffffffffffffffffffffffffffffffff163373ffffffffffffffffffffffffffffffffffffffff1614610383576040517f08c379a000000000000000000000000000000000000000000000000000000000815260040180806020018281038252601f8152602001807f6f6e6c79206f776e65722063616e2063616c6c2074686973206d6574686f640081525060200191505060405180910390fd5b6000548111156103de576040517f08c379a0000000000000000000000000000000000000000000000000000000008152600401808060200182810382526028815260200180611b026028913960400191505060405180910390fd5b600660009054906101000a900473ffffffffffffffffffffffffffffffffffffffff1673ffffffffffffffffffffffffffffffffffffffff1663a2e620456040518163ffffffff1660e01b8152600401600060405180830381600087803b15801561044857600080fd5b505af115801561045c573d6000803e3d6000fd5b505050506104686110f8565b600560009054906101000a900473ffffffffffffffffffffffffffffffffffffffff1673ffffffffffffffffffffffffffffffffffffffff16632e54bf95826040518263ffffffff1660e01b815260040180828152602001915050600060405180830381600087803b1580156104dd57600080fd5b505af11580156104f1573d6000803e3d6000fd5b50505050610521600260009054906101000a900473ffffffffffffffffffffffffffffffffffffffff1682611417565b600660009054906101000a900473ffffffffffffffffffffffffffffffffffffffff1673ffffffffffffffffffffffffffffffffffffffff1663d435fb1c600054600260009054906101000a900473ffffffffffffffffffffffffffffffffffffffff166040518363ffffffff1660e01b8152600401808381526020018273ffffffffffffffffffffffffffffffffffffffff16815260200192505050600060405180830381600087803b1580156105d857600080fd5b505af11580156105ec573d6000803e3d6000fd5b505050503373ffffffffffffffffffffffffffffffffffffffff167f884edad9ce6fa2440d8a54cc123490eb96d2768479d49ff9c7366125a9424364826040518082815260200191505060405180910390a250565b600660009054906101000a900473ffffffffffffffffffffffffffffffffffffffff1681565b600260009054906101000a900473ffffffffffffffffffffffffffffffffffffffff1673ffffffffffffffffffffffffffffffffffffffff163373ffffffffffffffffffffffffffffffffffffffff161461072a576040517f08c379a000000000000000000000000000000000000000000000000000000000815260040180806020018281038252601f8152602001807f6f6e6c79206f776e65722063616e2063616c6c2074686973206d6574686f640081525060200191505060405180910390fd5b600660009054906101000a900473ffffffffffffffffffffffffffffffffffffffff1673ffffffffffffffffffffffffffffffffffffffff1663a2e620456040518163ffffffff1660e01b8152600401600060405180830381600087803b15801561079457600080fd5b505af11580156107a8573d6000803e3d6000fd5b505050506107b46110f8565b600560009054906101000a900473ffffffffffffffffffffffffffffffffffffffff1673ffffffffffffffffffffffffffffffffffffffff16632e54bf9560006040518263ffffffff1660e01b815260040180828152602001915050600060405180830381600087803b15801561082a57600080fd5b505af115801561083e573d6000803e3d6000fd5b5050505061086d600260009054906101000a900473ffffffffffffffffffffffffffffffffffffffff166117e0565b610898600260009054906101000a900473ffffffffffffffffffffffffffffffffffffffff16611851565b565b600260009054906101000a900473ffffffffffffffffffffffffffffffffffffffff1681565b600260009054906101000a900473ffffffffffffffffffffffffffffffffffffffff1673ffffffffffffffffffffffffffffffffffffffff163373ffffffffffffffffffffffffffffffffffffffff1614610983576040517f08c379a000000000000000000000000000000000000000000000000000000000815260040180806020018281038252601f8152602001807f6f6e6c79206f776e65722063616e2063616c6c2074686973206d6574686f640081525060200191505060405180910390fd5b600660009054906101000a900473ffffffffffffffffffffffffffffffffffffffff1673ffffffffffffffffffffffffffffffffffffffff1663a2e620456040518163ffffffff1660e01b8152600401600060405180830381600087803b1580156109ed57600080fd5b505af1158015610a01573d6000803e3d6000fd5b50505050600080541115610a1857610a176110f8565b5b600360009054906101000a900473ffffffffffffffffffffffffffffffffffffffff1673ffffffffffffffffffffffffffffffffffffffff166323b872dd3330846040518463ffffffff1660e01b8152600401808473ffffffffffffffffffffffffffffffffffffffff1681526020018373ffffffffffffffffffffffffffffffffffffffff1681526020018281526020019350505050602060405180830381600087803b158015610ac957600080fd5b505af1158015610add573d6000803e3d6000fd5b505050506040513d6020811015610af357600080fd5b810190808051906020019092919050505050600660009054906101000a900473ffffffffffffffffffffffffffffffffffffffff1673ffffffffffffffffffffffffffffffffffffffff166320a83d39826040518263ffffffff1660e01b815260040180828152602001915050600060405180830381600087803b158015610b7a57600080fd5b505af1158015610b8e573d6000803e3d6000fd5b50505050610ba7816000546119f690919063ffffffff16565b600081905550600560009054906101000a900473ffffffffffffffffffffffffffffffffffffffff1673ffffffffffffffffffffffffffffffffffffffff16635f788d6582600160009054906101000a900473ffffffffffffffffffffffffffffffffffffffff166040518363ffffffff1660e01b8152600401808381526020018273ffffffffffffffffffffffffffffffffffffffff16815260200192505050600060405180830381600087803b158015610c6257600080fd5b505af1158015610c76573d6000803e3d6000fd5b50505050600660009054906101000a900473ffffffffffffffffffffffffffffffffffffffff1673ffffffffffffffffffffffffffffffffffffffff1663d435fb1c600054600260009054906101000a900473ffffffffffffffffffffffffffffffffffffffff166040518363ffffffff1660e01b8152600401808381526020018273ffffffffffffffffffffffffffffffffffffffff16815260200192505050600060405180830381600087803b158015610d3157600080fd5b505af1158015610d45573d6000803e3d6000fd5b505050503373ffffffffffffffffffffffffffffffffffffffff167fe1fffcc4923d04b559f4d29a8bfc6cda04eb5b0d3c460751c2402c5c5cc9109c826040518082815260200191505060405180910390a250565b600360009054906101000a900473ffffffffffffffffffffffffffffffffffffffff1681565b60005481565b600260009054906101000a900473ffffffffffffffffffffffffffffffffffffffff1673ffffffffffffffffffffffffffffffffffffffff163373ffffffffffffffffffffffffffffffffffffffff1614610e89576040517f08c379a000000000000000000000000000000000000000000000000000000000815260040180806020018281038252601f8152602001807f6f6e6c79206f776e65722063616e2063616c6c2074686973206d6574686f640081525060200191505060405180910390fd5b6000600560009054906101000a900473ffffffffffffffffffffffffffffffffffffffff1673ffffffffffffffffffffffffffffffffffffffff16631cdc4700306040518263ffffffff1660e01b8152600401808273ffffffffffffffffffffffffffffffffffffffff16815260200191505060206040518083038186803b158015610f1457600080fd5b505afa158015610f28573d6000803e3d6000fd5b505050506040513d6020811015610f3e57600080fd5b81019080805190602001909291905050509050600560009054906101000a900473ffffffffffffffffffffffffffffffffffffffff1673ffffffffffffffffffffffffffffffffffffffff16632e54bf95826040518263ffffffff1660e01b815260040180828152602001915050600060405180830381600087803b158015610fc657600080fd5b505af1158015610fda573d6000803e3d6000fd5b50505050600660009054906101000a900473ffffffffffffffffffffffffffffffffffffffff1673ffffffffffffffffffffffffffffffffffffffff16637f98126a600260009054906101000a900473ffffffffffffffffffffffffffffffffffffffff166040518263ffffffff1660e01b8152600401808273ffffffffffffffffffffffffffffffffffffffff168152602001915050600060405180830381600087803b15801561108b57600080fd5b505af115801561109f573d6000803e3d6000fd5b505050506110cf600260009054906101000a900473ffffffffffffffffffffffffffffffffffffffff1682611417565b50565b600160009054906101000a900473ffffffffffffffffffffffffffffffffffffffff1681565b6000600560009054906101000a900473ffffffffffffffffffffffffffffffffffffffff1673ffffffffffffffffffffffffffffffffffffffff16631cdc4700306040518263ffffffff1660e01b8152600401808273ffffffffffffffffffffffffffffffffffffffff16815260200191505060206040518083038186803b15801561118357600080fd5b505afa158015611197573d6000803e3d6000fd5b505050506040513d60208110156111ad57600080fd5b81019080805190602001909291905050509050600081111561140d5760006111e082600054611a7e90919063ffffffff16565b9050600081111561134657600660009054906101000a900473ffffffffffffffffffffffffffffffffffffffff1673ffffffffffffffffffffffffffffffffffffffff1663c619c616826040518263ffffffff1660e01b815260040180828152602001915050600060405180830381600087803b15801561126057600080fd5b505af1158015611274573d6000803e3d6000fd5b50505050600660009054906101000a900473ffffffffffffffffffffffffffffffffffffffff1673ffffffffffffffffffffffffffffffffffffffff1663d435fb1c83600260009054906101000a900473ffffffffffffffffffffffffffffffffffffffff166040518363ffffffff1660e01b8152600401808381526020018273ffffffffffffffffffffffffffffffffffffffff16815260200192505050600060405180830381600087803b15801561132d57600080fd5b505af1158015611341573d6000803e3d6000fd5b505050505b600660009054906101000a900473ffffffffffffffffffffffffffffffffffffffff1673ffffffffffffffffffffffffffffffffffffffff16631e83409a600260009054906101000a900473ffffffffffffffffffffffffffffffffffffffff166040518263ffffffff1660e01b8152600401808273ffffffffffffffffffffffffffffffffffffffff168152602001915050600060405180830381600087803b1580156113f357600080fd5b505af1158015611407573d6000803e3d6000fd5b50505050505b8060008190555050565b6000600360009054906101000a900473ffffffffffffffffffffffffffffffffffffffff1673ffffffffffffffffffffffffffffffffffffffff166370a08231306040518263ffffffff1660e01b8152600401808273ffffffffffffffffffffffffffffffffffffffff16815260200191505060206040518083038186803b1580156114a257600080fd5b505afa1580156114b6573d6000803e3d6000fd5b505050506040513d60208110156114cc57600080fd5b810190808051906020019092919050505090508082111561166357600360009054906101000a900473ffffffffffffffffffffffffffffffffffffffff1673ffffffffffffffffffffffffffffffffffffffff1663a9059cbb84836040518363ffffffff1660e01b8152600401808373ffffffffffffffffffffffffffffffffffffffff16815260200182815260200192505050602060405180830381600087803b15801561157a57600080fd5b505af115801561158e573d6000803e3d6000fd5b505050506040513d60208110156115a457600080fd5b8101908080519060200190929190505050506115cb81600054611a7e90919063ffffffff16565b600081905550600660009054906101000a900473ffffffffffffffffffffffffffffffffffffffff1673ffffffffffffffffffffffffffffffffffffffff1663c619c616826040518263ffffffff1660e01b815260040180828152602001915050600060405180830381600087803b15801561164657600080fd5b505af115801561165a573d6000803e3d6000fd5b505050506117db565b600360009054906101000a900473ffffffffffffffffffffffffffffffffffffffff1673ffffffffffffffffffffffffffffffffffffffff1663a9059cbb84846040518363ffffffff1660e01b8152600401808373ffffffffffffffffffffffffffffffffffffffff16815260200182815260200192505050602060405180830381600087803b1580156116f657600080fd5b505af115801561170a573d6000803e3d6000fd5b505050506040513d602081101561172057600080fd5b81019080805190602001909291905050505061174782600054611a7e90919063ffffffff16565b600081905550600660009054906101000a900473ffffffffffffffffffffffffffffffffffffffff1673ffffffffffffffffffffffffffffffffffffffff1663c619c616836040518263ffffffff1660e01b815260040180828152602001915050600060405180830381600087803b1580156117c257600080fd5b505af11580156117d6573d6000803e3d6000fd5b505050505b505050565b60003073ffffffffffffffffffffffffffffffffffffffff16319050600081111561184d578173ffffffffffffffffffffffffffffffffffffffff166108fc829081150290604051600060405180830381858888f1935050505015801561184b573d6000803e3d6000fd5b505b5050565b6000600460009054906101000a900473ffffffffffffffffffffffffffffffffffffffff1673ffffffffffffffffffffffffffffffffffffffff166370a08231306040518263ffffffff1660e01b8152600401808273ffffffffffffffffffffffffffffffffffffffff16815260200191505060206040518083038186803b1580156118dc57600080fd5b505afa1580156118f0573d6000803e3d6000fd5b505050506040513d602081101561190657600080fd5b8101908080519060200190929190505050905060008111156119f257600460009054906101000a900473ffffffffffffffffffffffffffffffffffffffff1673ffffffffffffffffffffffffffffffffffffffff1663a9059cbb83836040518363ffffffff1660e01b8152600401808373ffffffffffffffffffffffffffffffffffffffff16815260200182815260200192505050602060405180830381600087803b1580156119b557600080fd5b505af11580156119c9573d6000803e3d6000fd5b505050506040513d60208110156119df57600080fd5b8101908080519060200190929190505050505b5050565b600080828401905083811015611a74576040517f08c379a000000000000000000000000000000000000000000000000000000000815260040180806020018281038252601b8152602001807f536166654d6174683a206164646974696f6e206f766572666c6f77000000000081525060200191505060405180910390fd5b8091505092915050565b600082821115611af6576040517f08c379a000000000000000000000000000000000000000000000000000000000815260040180806020018281038252601e8152602001807f536166654d6174683a207375627472616374696f6e206f766572666c6f77000081525060200191505060405180910390fd5b81830390509291505056fe576974686472617720697320666f72206d6f7265207468616e2062616c616e636520616d6f756e74a2646970667358221220e2df584cb90e13c8fba33993634b62e9c535bc1b6b28b58ce1488916baeec7b164736f6c63430007060033",
  "immutableReferences": {},
  "source": "// SPDX-License-Identifier: MIT\r\npragma solidity >=0.6.0 <0.8.0;\r\n\r\nimport \"@openzeppelin/contracts/token/ERC20/IERC20.sol\";\r\nimport \"@openzeppelin/contracts/math/SafeMath.sol\";\r\nimport \"./Interfaces/IStabilityPool.sol\";\r\nimport \"./StabilityFactory.sol\";\r\n\r\ncontract StabilityProxy {\r\n    using SafeMath for uint256;\r\n\r\n    uint256 public lusdBalance;\r\n    address public frontEnd;\r\n    address public owner;\r\n    IERC20 public lusdToken;\r\n    IERC20 public lqtyToken;\r\n    IStabilityPool public stabilityPool;\r\n    StabilityFactory public stabilityFactory;\r\n\r\n    modifier onlyOwner() {\r\n        require(msg.sender == owner, \"only owner can call this method\");\r\n        _;\r\n    }\r\n\r\n    event Deposit(address indexed user, uint256 amount);\r\n    event Withdraw(address indexed user, uint256 amount);\r\n\r\n    constructor(\r\n        address _owner,\r\n        StabilityFactory _factory,\r\n        address _frontEnd,\r\n        IERC20 _lusdToken,\r\n        IERC20 _lqtyToken,\r\n        IStabilityPool _stabilityPool\r\n    ) {\r\n        owner = _owner;\r\n        lusdToken = _lusdToken;\r\n        lqtyToken = _lqtyToken;\r\n        stabilityPool = _stabilityPool;\r\n        frontEnd = _frontEnd;\r\n        stabilityFactory = _factory;\r\n    }\r\n\r\n    function deposit(uint256 _amount) public onlyOwner {\r\n        stabilityFactory.update();\r\n        if (lusdBalance > 0) {\r\n            _updateBalance();\r\n        }\r\n        lusdToken.transferFrom(msg.sender, address(this), _amount);\r\n        stabilityFactory.addLUSD(_amount);\r\n        lusdBalance = lusdBalance.add(_amount);\r\n        stabilityPool.provideToSP(_amount, frontEnd);\r\n        stabilityFactory.updateProxyBalance(lusdBalance, owner);\r\n        emit Deposit(msg.sender, _amount);\r\n    }\r\n\r\n    function withdraw(uint256 _amount) public onlyOwner {\r\n        require(\r\n            _amount <= lusdBalance,\r\n            \"Withdraw is for more than balance amount\"\r\n        );\r\n        stabilityFactory.update();\r\n        _updateBalance();\r\n        stabilityPool.withdrawFromSP(_amount);\r\n        _safeLUSDTransfer(owner, _amount);\r\n        stabilityFactory.updateProxyBalance(lusdBalance, owner);\r\n        emit Withdraw(msg.sender, _amount);\r\n    }\r\n\r\n    function claim() public onlyOwner {\r\n        stabilityFactory.update();\r\n        _updateBalance();\r\n        stabilityPool.withdrawFromSP(0);\r\n        _safeETHTransferAll(owner);\r\n        _safeLQTYTransferAll(owner);\r\n    }\r\n\r\n    function emergencyWithdraw() public onlyOwner {\r\n        uint256 currentBal =\r\n            stabilityPool.getCompoundedLUSDDeposit(address(this));\r\n        stabilityPool.withdrawFromSP(currentBal);\r\n        stabilityFactory.updateProxyBalanceEmergency(owner);\r\n        _safeLUSDTransfer(owner, currentBal);\r\n    }\r\n\r\n    function _safeLUSDTransfer(address _to, uint256 _amount) internal {\r\n        uint256 lusdBal = lusdToken.balanceOf(address(this));\r\n        if (_amount > lusdBal) {\r\n            lusdToken.transfer(_to, lusdBal);\r\n            lusdBalance = lusdBalance.sub(lusdBal);\r\n            stabilityFactory.subtractLUSD(lusdBal);\r\n        } else {\r\n            lusdToken.transfer(_to, _amount);\r\n            lusdBalance = lusdBalance.sub(_amount);\r\n            stabilityFactory.subtractLUSD(_amount);\r\n        }\r\n    }\r\n\r\n    function _safeETHTransferAll(address _to) internal {\r\n        uint256 ethBal = address(this).balance;\r\n        if (ethBal > 0) {\r\n            payable(_to).transfer(ethBal);\r\n        }\r\n    }\r\n\r\n    function _safeLQTYTransferAll(address _to) internal {\r\n        uint256 lqtyBal = lqtyToken.balanceOf(address(this));\r\n        if (lqtyBal > 0) {\r\n            lqtyToken.transfer(_to, lqtyBal);\r\n        }\r\n    }\r\n\r\n    function _updateBalance() internal {\r\n        uint256 currentBal =\r\n            stabilityPool.getCompoundedLUSDDeposit(address(this));\r\n        if (currentBal > 0) {\r\n            uint256 diff = lusdBalance.sub(currentBal);\r\n            if (diff > 0) {\r\n                stabilityFactory.subtractLUSD(diff);\r\n                stabilityFactory.updateProxyBalance(currentBal, owner);\r\n            }\r\n            stabilityFactory.claim(owner);\r\n        }\r\n        lusdBalance = currentBal;\r\n    }\r\n}\r\n",
  "sourcePath": "C:\\Users\\danie\\code\\harp\\client\\contracts\\StabilityProxy.sol",
  "compiler": {
    "name": "solc",
    "version": "0.7.6+commit.7338295f.Emscripten.clang"
  },
  "schemaVersion": "3.3.3",
  "updatedAt": "2021-04-09T17:33:33.367Z",
  "devdoc": {
    "kind": "dev",
    "methods": {},
    "version": 1
  },
  "userdoc": {
    "kind": "user",
    "methods": {},
    "version": 1
  }
}