{
  "contractName": "StabilityFactory",
  "abi": [
    {
      "inputs": [
        {
          "internalType": "address",
          "name": "_frontEnd",
          "type": "address"
        },
        {
          "internalType": "contract IERC20",
          "name": "_lusdToken",
          "type": "address"
        },
        {
          "internalType": "contract StringToken",
          "name": "_stringToken",
          "type": "address"
        },
        {
          "internalType": "contract IStabilityPool",
          "name": "_stabilityPool",
          "type": "address"
        }
      ],
      "stateMutability": "nonpayable",
      "type": "constructor"
    },
    {
      "inputs": [],
      "name": "boostedMultiplier",
      "outputs": [
        {
          "internalType": "uint256",
          "name": "",
          "type": "uint256"
        }
      ],
      "stateMutability": "view",
      "type": "function",
      "constant": true
    },
    {
      "inputs": [],
      "name": "endBlock",
      "outputs": [
        {
          "internalType": "uint256",
          "name": "",
          "type": "uint256"
        }
      ],
      "stateMutability": "view",
      "type": "function",
      "constant": true
    },
    {
      "inputs": [],
      "name": "frontEnd",
      "outputs": [
        {
          "internalType": "address",
          "name": "",
          "type": "address"
        }
      ],
      "stateMutability": "view",
      "type": "function",
      "constant": true
    },
    {
      "inputs": [],
      "name": "isBoosted",
      "outputs": [
        {
          "internalType": "bool",
          "name": "",
          "type": "bool"
        }
      ],
      "stateMutability": "view",
      "type": "function",
      "constant": true
    },
    {
      "inputs": [],
      "name": "lusdToken",
      "outputs": [
        {
          "internalType": "contract IERC20",
          "name": "",
          "type": "address"
        }
      ],
      "stateMutability": "view",
      "type": "function",
      "constant": true
    },
    {
      "inputs": [],
      "name": "pool",
      "outputs": [
        {
          "internalType": "uint256",
          "name": "lastRewardBlock",
          "type": "uint256"
        },
        {
          "internalType": "uint256",
          "name": "accStringPerShare",
          "type": "uint256"
        }
      ],
      "stateMutability": "view",
      "type": "function",
      "constant": true
    },
    {
      "inputs": [],
      "name": "postBoostedBlock",
      "outputs": [
        {
          "internalType": "uint256",
          "name": "",
          "type": "uint256"
        }
      ],
      "stateMutability": "view",
      "type": "function",
      "constant": true
    },
    {
      "inputs": [
        {
          "internalType": "address",
          "name": "",
          "type": "address"
        }
      ],
      "name": "registeredClone",
      "outputs": [
        {
          "internalType": "bool",
          "name": "",
          "type": "bool"
        }
      ],
      "stateMutability": "view",
      "type": "function",
      "constant": true
    },
    {
      "inputs": [],
      "name": "stabilityPool",
      "outputs": [
        {
          "internalType": "contract IStabilityPool",
          "name": "",
          "type": "address"
        }
      ],
      "stateMutability": "view",
      "type": "function",
      "constant": true
    },
    {
      "inputs": [],
      "name": "stringPerBlock",
      "outputs": [
        {
          "internalType": "uint256",
          "name": "",
          "type": "uint256"
        }
      ],
      "stateMutability": "view",
      "type": "function",
      "constant": true
    },
    {
      "inputs": [],
      "name": "stringToken",
      "outputs": [
        {
          "internalType": "contract StringToken",
          "name": "",
          "type": "address"
        }
      ],
      "stateMutability": "view",
      "type": "function",
      "constant": true
    },
    {
      "inputs": [],
      "name": "totalLUSD",
      "outputs": [
        {
          "internalType": "uint256",
          "name": "",
          "type": "uint256"
        }
      ],
      "stateMutability": "view",
      "type": "function",
      "constant": true
    },
    {
      "inputs": [
        {
          "internalType": "address",
          "name": "",
          "type": "address"
        }
      ],
      "name": "userProxys",
      "outputs": [
        {
          "internalType": "contract StabilityProxy",
          "name": "proxyAddress",
          "type": "address"
        },
        {
          "internalType": "uint256",
          "name": "amount",
          "type": "uint256"
        },
        {
          "internalType": "uint256",
          "name": "rewardDebt",
          "type": "uint256"
        }
      ],
      "stateMutability": "view",
      "type": "function",
      "constant": true
    },
    {
      "inputs": [
        {
          "internalType": "uint256",
          "name": "_from",
          "type": "uint256"
        },
        {
          "internalType": "uint256",
          "name": "_to",
          "type": "uint256"
        }
      ],
      "name": "getMultiplier",
      "outputs": [
        {
          "internalType": "uint256",
          "name": "",
          "type": "uint256"
        }
      ],
      "stateMutability": "view",
      "type": "function",
      "constant": true
    },
    {
      "inputs": [
        {
          "internalType": "uint256",
          "name": "_amount",
          "type": "uint256"
        }
      ],
      "name": "updateProxyBalance",
      "outputs": [],
      "stateMutability": "nonpayable",
      "type": "function"
    },
    {
      "inputs": [],
      "name": "update",
      "outputs": [],
      "stateMutability": "nonpayable",
      "type": "function"
    },
    {
      "inputs": [
        {
          "internalType": "address",
          "name": "_sender",
          "type": "address"
        }
      ],
      "name": "claim",
      "outputs": [],
      "stateMutability": "nonpayable",
      "type": "function"
    },
    {
      "inputs": [
        {
          "internalType": "uint256",
          "name": "_newAddition",
          "type": "uint256"
        }
      ],
      "name": "addLUSD",
      "outputs": [],
      "stateMutability": "nonpayable",
      "type": "function"
    },
    {
      "inputs": [
        {
          "internalType": "uint256",
          "name": "_newSubtract",
          "type": "uint256"
        }
      ],
      "name": "subtractLUSD",
      "outputs": [],
      "stateMutability": "nonpayable",
      "type": "function"
    },
    {
      "inputs": [],
      "name": "createStabilityProxy",
      "outputs": [],
      "stateMutability": "nonpayable",
      "type": "function"
    }
  ],
  "bytecode": "0x60806040526713ed551c3eac98006009556001600c60006101000a81548160ff02191690831515021790555034801561003757600080fd5b50604051612c13380380612c138339818101604052608081101561005a57600080fd5b8101908080519060200190929190805190602001909291908051906020019092919080519060200190929190505050836000806101000a81548173ffffffffffffffffffffffffffffffffffffffff021916908373ffffffffffffffffffffffffffffffffffffffff160217905550604051806040016040528043815260200160008152506004600082015181600001556020820151816001015590505081600660006101000a81548173ffffffffffffffffffffffffffffffffffffffff021916908373ffffffffffffffffffffffffffffffffffffffff16021790555082600860006101000a81548173ffffffffffffffffffffffffffffffffffffffff021916908373ffffffffffffffffffffffffffffffffffffffff1602179055506101946225317c436101e460201b610ec41790919060201c565b600a8190555080600760006101000a81548173ffffffffffffffffffffffffffffffffffffffff021916908373ffffffffffffffffffffffffffffffffffffffff1602179055505050505061026c565b600080828401905083811015610262576040517f08c379a000000000000000000000000000000000000000000000000000000000815260040180806020018281038252601b8152602001807f536166654d6174683a206164646974696f6e206f766572666c6f77000000000081525060200191505060405180910390fd5b8091505092915050565b6129988061027b6000396000f3fe608060405234801561001057600080fd5b506004361061012c5760003560e01c80638dbb1e3a116100ad578063b83f91a211610071578063b83f91a2146103bc578063c619c616146103f0578063df5e89871461041e578063e7514c9a14610452578063f831640a146104865761012c565b80638dbb1e3a146102ac57806390852577146102f8578063910880ad14610374578063a2e6204514610392578063b68975591461039c5761012c565b80631e83409a116100f45780631e83409a146101e457806320a83d3914610228578063350bac34146102565780637a3774a1146102745780637dacef901461027e5761012c565b8063048c661d14610131578063083c6323146101655780630b5f91fc146101835780630d483ae1146101a157806316f0115b146101bf575b600080fd5b6101396104e0565b604051808273ffffffffffffffffffffffffffffffffffffffff16815260200191505060405180910390f35b61016d610506565b6040518082815260200191505060405180910390f35b61018b61050c565b6040518082815260200191505060405180910390f35b6101a9610512565b6040518082815260200191505060405180910390f35b6101c7610517565b604051808381526020018281526020019250505060405180910390f35b610226600480360360208110156101fa57600080fd5b81019080803573ffffffffffffffffffffffffffffffffffffffff169060200190929190505050610529565b005b6102546004803603602081101561023e57600080fd5b81019080803590602001909291905050506105cc565b005b61025e6106b8565b6040518082815260200191505060405180910390f35b61027c6106be565b005b6102aa6004803603602081101561029457600080fd5b8101908080359060200190929190505050610919565b005b6102e2600480360360408110156102c257600080fd5b810190808035906020019092919080359060200190929190505050610a29565b6040518082815260200191505060405180910390f35b61033a6004803603602081101561030e57600080fd5b81019080803573ffffffffffffffffffffffffffffffffffffffff169060200190929190505050610a7e565b604051808473ffffffffffffffffffffffffffffffffffffffff168152602001838152602001828152602001935050505060405180910390f35b61037c610ac8565b6040518082815260200191505060405180910390f35b61039a610ace565b005b6103a4610d35565b60405180821515815260200191505060405180910390f35b6103c4610d48565b604051808273ffffffffffffffffffffffffffffffffffffffff16815260200191505060405180910390f35b61041c6004803603602081101561040657600080fd5b8101908080359060200190929190505050610d6e565b005b610426610e5a565b604051808273ffffffffffffffffffffffffffffffffffffffff16815260200191505060405180910390f35b61045a610e80565b604051808273ffffffffffffffffffffffffffffffffffffffff16815260200191505060405180910390f35b6104c86004803603602081101561049c57600080fd5b81019080803573ffffffffffffffffffffffffffffffffffffffff169060200190929190505050610ea4565b60405180821515815260200191505060405180910390f35b600760009054906101000a900473ffffffffffffffffffffffffffffffffffffffff1681565b600a5481565b600b5481565b600581565b60048060000154908060010154905082565b6000600160008373ffffffffffffffffffffffffffffffffffffffff1673ffffffffffffffffffffffffffffffffffffffff1681526020019081526020016000209050600061058082600101548360020154610f4c565b905061058c8382610fce565b6105bf64e8d4a510006105b1600460010154856001015461124790919063ffffffff16565b6112cd90919063ffffffff16565b8260020181905550505050565b60011515600260003373ffffffffffffffffffffffffffffffffffffffff1673ffffffffffffffffffffffffffffffffffffffff16815260200190815260200160002060009054906101000a900460ff16151514610692576040517f08c379a000000000000000000000000000000000000000000000000000000000815260040180806020018281038252601f8152602001807f6f6e6c79206f776e65722063616e2063616c6c2074686973206d6574686f640081525060200191505060405180910390fd5b6106a781600354610ec490919063ffffffff16565b6003819055506106b5610ace565b50565b60095481565b6000333060008054906101000a900473ffffffffffffffffffffffffffffffffffffffff16600860009054906101000a900473ffffffffffffffffffffffffffffffffffffffff16600760009054906101000a900473ffffffffffffffffffffffffffffffffffffffff16604051610735906113d9565b808673ffffffffffffffffffffffffffffffffffffffff1681526020018573ffffffffffffffffffffffffffffffffffffffff1681526020018473ffffffffffffffffffffffffffffffffffffffff1681526020018373ffffffffffffffffffffffffffffffffffffffff1681526020018273ffffffffffffffffffffffffffffffffffffffff16815260200195505050505050604051809103906000f0801580156107e5573d6000803e3d6000fd5b509050600060405180606001604052808373ffffffffffffffffffffffffffffffffffffffff168152602001600081526020016000815250905080600160003373ffffffffffffffffffffffffffffffffffffffff1673ffffffffffffffffffffffffffffffffffffffff16815260200190815260200160002060008201518160000160006101000a81548173ffffffffffffffffffffffffffffffffffffffff021916908373ffffffffffffffffffffffffffffffffffffffff16021790555060208201518160010155604082015181600201559050506001600260008473ffffffffffffffffffffffffffffffffffffffff1673ffffffffffffffffffffffffffffffffffffffff16815260200190815260200160002060006101000a81548160ff0219169083151502179055505050565b60011515600260003373ffffffffffffffffffffffffffffffffffffffff1673ffffffffffffffffffffffffffffffffffffffff16815260200190815260200160002060009054906101000a900460ff161515146109df576040517f08c379a000000000000000000000000000000000000000000000000000000000815260040180806020018281038252601f8152602001807f6f6e6c79206f776e65722063616e2063616c6c2074686973206d6574686f640081525060200191505060405180910390fd5b80600160003373ffffffffffffffffffffffffffffffffffffffff1673ffffffffffffffffffffffffffffffffffffffff1681526020019081526020016000206001018190555050565b6000600a548211610a4e57610a47838361135690919063ffffffff16565b9050610a78565b600a548310610a605760009050610a78565b610a7583600a5461135690919063ffffffff16565b90505b92915050565b60016020528060005260406000206000915090508060000160009054906101000a900473ffffffffffffffffffffffffffffffffffffffff16908060010154908060020154905083565b60035481565b6004600001544311610adf57610d33565b600060035490506000811415610aff574360046000018190555050610d33565b6000610b1060046000015443610a29565b90506000610b296009548361124790919063ffffffff16565b9050600b54431015610bfe576000610b4b60058361124790919063ffffffff16565b9050600660009054906101000a900473ffffffffffffffffffffffffffffffffffffffff1673ffffffffffffffffffffffffffffffffffffffff1663449a52f830836040518363ffffffff1660e01b8152600401808373ffffffffffffffffffffffffffffffffffffffff16815260200182815260200192505050600060405180830381600087803b158015610be057600080fd5b505af1158015610bf4573d6000803e3d6000fd5b5050505050610cdb565b600c60009054906101000a900460ff1615610c2f576000600c60006101000a81548160ff0219169083151502179055505b600660009054906101000a900473ffffffffffffffffffffffffffffffffffffffff1673ffffffffffffffffffffffffffffffffffffffff1663449a52f830836040518363ffffffff1660e01b8152600401808373ffffffffffffffffffffffffffffffffffffffff16815260200182815260200192505050600060405180830381600087803b158015610cc257600080fd5b505af1158015610cd6573d6000803e3d6000fd5b505050505b610d1c610d0884610cfa64e8d4a510008561124790919063ffffffff16565b6112cd90919063ffffffff16565b600460010154610ec490919063ffffffff16565b600460010181905550436004600001819055505050505b565b600c60009054906101000a900460ff1681565b600860009054906101000a900473ffffffffffffffffffffffffffffffffffffffff1681565b60011515600260003373ffffffffffffffffffffffffffffffffffffffff1673ffffffffffffffffffffffffffffffffffffffff16815260200190815260200160002060009054906101000a900460ff16151514610e34576040517f08c379a000000000000000000000000000000000000000000000000000000000815260040180806020018281038252601f8152602001807f6f6e6c79206f776e65722063616e2063616c6c2074686973206d6574686f640081525060200191505060405180910390fd5b610e498160035461135690919063ffffffff16565b600381905550610e57610ace565b50565b600660009054906101000a900473ffffffffffffffffffffffffffffffffffffffff1681565b60008054906101000a900473ffffffffffffffffffffffffffffffffffffffff1681565b60026020528060005260406000206000915054906101000a900460ff1681565b600080828401905083811015610f42576040517f08c379a000000000000000000000000000000000000000000000000000000000815260040180806020018281038252601b8152602001807f536166654d6174683a206164646974696f6e206f766572666c6f77000000000081525060200191505060405180910390fd5b8091505092915050565b600080610f9083610f8264e8d4a51000610f746004600101548961124790919063ffffffff16565b6112cd90919063ffffffff16565b61135690919063ffffffff16565b9050600c60009054906101000a900460ff1615610fc357610fbb60058261124790919063ffffffff16565b915050610fc8565b809150505b92915050565b6000600660009054906101000a900473ffffffffffffffffffffffffffffffffffffffff1673ffffffffffffffffffffffffffffffffffffffff166370a08231306040518263ffffffff1660e01b8152600401808273ffffffffffffffffffffffffffffffffffffffff16815260200191505060206040518083038186803b15801561105957600080fd5b505afa15801561106d573d6000803e3d6000fd5b505050506040513d602081101561108357600080fd5b810190808051906020019092919050505090508082111561117257600660009054906101000a900473ffffffffffffffffffffffffffffffffffffffff1673ffffffffffffffffffffffffffffffffffffffff1663a9059cbb84836040518363ffffffff1660e01b8152600401808373ffffffffffffffffffffffffffffffffffffffff16815260200182815260200192505050602060405180830381600087803b15801561113157600080fd5b505af1158015611145573d6000803e3d6000fd5b505050506040513d602081101561115b57600080fd5b810190808051906020019092919050505050611242565b600660009054906101000a900473ffffffffffffffffffffffffffffffffffffffff1673ffffffffffffffffffffffffffffffffffffffff1663a9059cbb84846040518363ffffffff1660e01b8152600401808373ffffffffffffffffffffffffffffffffffffffff16815260200182815260200192505050602060405180830381600087803b15801561120557600080fd5b505af1158015611219573d6000803e3d6000fd5b505050506040513d602081101561122f57600080fd5b8101908080519060200190929190505050505b505050565b60008083141561125a57600090506112c7565b600082840290508284828161126b57fe5b04146112c2576040517f08c379a00000000000000000000000000000000000000000000000000000000081526004018080602001828103825260218152602001806129426021913960400191505060405180910390fd5b809150505b92915050565b6000808211611344576040517f08c379a000000000000000000000000000000000000000000000000000000000815260040180806020018281038252601a8152602001807f536166654d6174683a206469766973696f6e206279207a65726f00000000000081525060200191505060405180910390fd5b81838161134d57fe5b04905092915050565b6000828211156113ce576040517f08c379a000000000000000000000000000000000000000000000000000000000815260040180806020018281038252601e8152602001807f536166654d6174683a207375627472616374696f6e206f766572666c6f77000081525060200191505060405180910390fd5b818303905092915050565b61155b806113e78339019056fe608060405234801561001057600080fd5b5060405161155b38038061155b833981810160405260a081101561003357600080fd5b81019080805190602001909291908051906020019092919080519060200190929190805190602001909291908051906020019092919050505084600260006101000a81548173ffffffffffffffffffffffffffffffffffffffff021916908373ffffffffffffffffffffffffffffffffffffffff16021790555081600360006101000a81548173ffffffffffffffffffffffffffffffffffffffff021916908373ffffffffffffffffffffffffffffffffffffffff16021790555080600560006101000a81548173ffffffffffffffffffffffffffffffffffffffff021916908373ffffffffffffffffffffffffffffffffffffffff16021790555082600160006101000a81548173ffffffffffffffffffffffffffffffffffffffff021916908373ffffffffffffffffffffffffffffffffffffffff16021790555083600660006101000a81548173ffffffffffffffffffffffffffffffffffffffff021916908373ffffffffffffffffffffffffffffffffffffffff1602179055505050505050611396806101c56000396000f3fe608060405234801561001057600080fd5b506004361061009e5760003560e01c80638da5cb5b116100665780638da5cb5b14610177578063b6b55f25146101ab578063b83f91a2146101d9578063b9f6d8ff1461020d578063e7514c9a1461022b5761009e565b8063048c661d146100a35780631f7af3c3146100d75780632e1a7d4d1461010b5780633af82b17146101395780634e71d92d1461016d575b600080fd5b6100ab61025f565b604051808273ffffffffffffffffffffffffffffffffffffffff16815260200191505060405180910390f35b6100df610285565b604051808273ffffffffffffffffffffffffffffffffffffffff16815260200191505060405180910390f35b6101376004803603602081101561012157600080fd5b81019080803590602001909291905050506102ab565b005b61014161051c565b604051808273ffffffffffffffffffffffffffffffffffffffff16815260200191505060405180910390f35b610175610542565b005b61017f6106f3565b604051808273ffffffffffffffffffffffffffffffffffffffff16815260200191505060405180910390f35b6101d7600480360360208110156101c157600080fd5b8101908080359060200190929190505050610719565b005b6101e1610a4b565b604051808273ffffffffffffffffffffffffffffffffffffffff16815260200191505060405180910390f35b610215610a71565b6040518082815260200191505060405180910390f35b610233610a77565b604051808273ffffffffffffffffffffffffffffffffffffffff16815260200191505060405180910390f35b600560009054906101000a900473ffffffffffffffffffffffffffffffffffffffff1681565b600460009054906101000a900473ffffffffffffffffffffffffffffffffffffffff1681565b600260009054906101000a900473ffffffffffffffffffffffffffffffffffffffff1673ffffffffffffffffffffffffffffffffffffffff163373ffffffffffffffffffffffffffffffffffffffff161461036e576040517f08c379a000000000000000000000000000000000000000000000000000000000815260040180806020018281038252601f8152602001807f6f6e6c79206f776e65722063616e2063616c6c2074686973206d6574686f640081525060200191505060405180910390fd5b610376610a9d565b6000548111156103d1576040517f08c379a00000000000000000000000000000000000000000000000000000000081526004018080602001828103825260288152602001806113396028913960400191505060405180910390fd5b600560009054906101000a900473ffffffffffffffffffffffffffffffffffffffff1673ffffffffffffffffffffffffffffffffffffffff16632e54bf95826040518263ffffffff1660e01b815260040180828152602001915050600060405180830381600087803b15801561044657600080fd5b505af115801561045a573d6000803e3d6000fd5b5050505061048a600260009054906101000a900473ffffffffffffffffffffffffffffffffffffffff1682610d7c565b600660009054906101000a900473ffffffffffffffffffffffffffffffffffffffff1673ffffffffffffffffffffffffffffffffffffffff16637dacef906000546040518263ffffffff1660e01b815260040180828152602001915050600060405180830381600087803b15801561050157600080fd5b505af1158015610515573d6000803e3d6000fd5b5050505050565b600660009054906101000a900473ffffffffffffffffffffffffffffffffffffffff1681565b600260009054906101000a900473ffffffffffffffffffffffffffffffffffffffff1673ffffffffffffffffffffffffffffffffffffffff163373ffffffffffffffffffffffffffffffffffffffff1614610605576040517f08c379a000000000000000000000000000000000000000000000000000000000815260040180806020018281038252601f8152602001807f6f6e6c79206f776e65722063616e2063616c6c2074686973206d6574686f640081525060200191505060405180910390fd5b61060d610a9d565b600560009054906101000a900473ffffffffffffffffffffffffffffffffffffffff1673ffffffffffffffffffffffffffffffffffffffff16632e54bf9560006040518263ffffffff1660e01b815260040180828152602001915050600060405180830381600087803b15801561068357600080fd5b505af1158015610697573d6000803e3d6000fd5b505050506106c6600260009054906101000a900473ffffffffffffffffffffffffffffffffffffffff1661102b565b6106f1600260009054906101000a900473ffffffffffffffffffffffffffffffffffffffff16611092565b565b600260009054906101000a900473ffffffffffffffffffffffffffffffffffffffff1681565b600260009054906101000a900473ffffffffffffffffffffffffffffffffffffffff1673ffffffffffffffffffffffffffffffffffffffff163373ffffffffffffffffffffffffffffffffffffffff16146107dc576040517f08c379a000000000000000000000000000000000000000000000000000000000815260040180806020018281038252601f8152602001807f6f6e6c79206f776e65722063616e2063616c6c2074686973206d6574686f640081525060200191505060405180910390fd5b6107e4610a9d565b600360009054906101000a900473ffffffffffffffffffffffffffffffffffffffff1673ffffffffffffffffffffffffffffffffffffffff166323b872dd3330846040518463ffffffff1660e01b8152600401808473ffffffffffffffffffffffffffffffffffffffff1681526020018373ffffffffffffffffffffffffffffffffffffffff1681526020018281526020019350505050602060405180830381600087803b15801561089557600080fd5b505af11580156108a9573d6000803e3d6000fd5b505050506040513d60208110156108bf57600080fd5b8101908080519060200190929190505050506108e68160005461122d90919063ffffffff16565b600081905550600560009054906101000a900473ffffffffffffffffffffffffffffffffffffffff1673ffffffffffffffffffffffffffffffffffffffff16635f788d6582600160009054906101000a900473ffffffffffffffffffffffffffffffffffffffff166040518363ffffffff1660e01b8152600401808381526020018273ffffffffffffffffffffffffffffffffffffffff16815260200192505050600060405180830381600087803b1580156109a157600080fd5b505af11580156109b5573d6000803e3d6000fd5b50505050600660009054906101000a900473ffffffffffffffffffffffffffffffffffffffff1673ffffffffffffffffffffffffffffffffffffffff16637dacef906000546040518263ffffffff1660e01b815260040180828152602001915050600060405180830381600087803b158015610a3057600080fd5b505af1158015610a44573d6000803e3d6000fd5b5050505050565b600360009054906101000a900473ffffffffffffffffffffffffffffffffffffffff1681565b60005481565b600160009054906101000a900473ffffffffffffffffffffffffffffffffffffffff1681565b6000600560009054906101000a900473ffffffffffffffffffffffffffffffffffffffff1673ffffffffffffffffffffffffffffffffffffffff16631cdc4700306040518263ffffffff1660e01b8152600401808273ffffffffffffffffffffffffffffffffffffffff16815260200191505060206040518083038186803b158015610b2857600080fd5b505afa158015610b3c573d6000803e3d6000fd5b505050506040513d6020811015610b5257600080fd5b810190808051906020019092919050505090506000811115610d72576000610b85826000546112b590919063ffffffff16565b90506000811115610cab57600660009054906101000a900473ffffffffffffffffffffffffffffffffffffffff1673ffffffffffffffffffffffffffffffffffffffff1663c619c616826040518263ffffffff1660e01b815260040180828152602001915050600060405180830381600087803b158015610c0557600080fd5b505af1158015610c19573d6000803e3d6000fd5b50505050600660009054906101000a900473ffffffffffffffffffffffffffffffffffffffff1673ffffffffffffffffffffffffffffffffffffffff16637dacef90836040518263ffffffff1660e01b815260040180828152602001915050600060405180830381600087803b158015610c9257600080fd5b505af1158015610ca6573d6000803e3d6000fd5b505050505b600660009054906101000a900473ffffffffffffffffffffffffffffffffffffffff1673ffffffffffffffffffffffffffffffffffffffff16631e83409a600260009054906101000a900473ffffffffffffffffffffffffffffffffffffffff166040518263ffffffff1660e01b8152600401808273ffffffffffffffffffffffffffffffffffffffff168152602001915050600060405180830381600087803b158015610d5857600080fd5b505af1158015610d6c573d6000803e3d6000fd5b50505050505b8060008190555050565b6000600360009054906101000a900473ffffffffffffffffffffffffffffffffffffffff1673ffffffffffffffffffffffffffffffffffffffff166370a08231306040518263ffffffff1660e01b8152600401808273ffffffffffffffffffffffffffffffffffffffff16815260200191505060206040518083038186803b158015610e0757600080fd5b505afa158015610e1b573d6000803e3d6000fd5b505050506040513d6020811015610e3157600080fd5b8101908080519060200190929190505050905080821115610f3b57600360009054906101000a900473ffffffffffffffffffffffffffffffffffffffff1673ffffffffffffffffffffffffffffffffffffffff1663a9059cbb84836040518363ffffffff1660e01b8152600401808373ffffffffffffffffffffffffffffffffffffffff16815260200182815260200192505050602060405180830381600087803b158015610edf57600080fd5b505af1158015610ef3573d6000803e3d6000fd5b505050506040513d6020811015610f0957600080fd5b810190808051906020019092919050505050610f30816000546112b590919063ffffffff16565b600081905550611026565b600360009054906101000a900473ffffffffffffffffffffffffffffffffffffffff1673ffffffffffffffffffffffffffffffffffffffff1663a9059cbb84846040518363ffffffff1660e01b8152600401808373ffffffffffffffffffffffffffffffffffffffff16815260200182815260200192505050602060405180830381600087803b158015610fce57600080fd5b505af1158015610fe2573d6000803e3d6000fd5b505050506040513d6020811015610ff857600080fd5b81019080805190602001909291905050505061101f826000546112b590919063ffffffff16565b6000819055505b505050565b60003073ffffffffffffffffffffffffffffffffffffffff163190508173ffffffffffffffffffffffffffffffffffffffff166108fc829081150290604051600060405180830381858888f1935050505015801561108d573d6000803e3d6000fd5b505050565b6000600460009054906101000a900473ffffffffffffffffffffffffffffffffffffffff1673ffffffffffffffffffffffffffffffffffffffff166370a08231306040518263ffffffff1660e01b8152600401808273ffffffffffffffffffffffffffffffffffffffff16815260200191505060206040518083038186803b15801561111d57600080fd5b505afa158015611131573d6000803e3d6000fd5b505050506040513d602081101561114757600080fd5b81019080805190602001909291905050509050600460009054906101000a900473ffffffffffffffffffffffffffffffffffffffff1673ffffffffffffffffffffffffffffffffffffffff1663a9059cbb83836040518363ffffffff1660e01b8152600401808373ffffffffffffffffffffffffffffffffffffffff16815260200182815260200192505050602060405180830381600087803b1580156111ed57600080fd5b505af1158015611201573d6000803e3d6000fd5b505050506040513d602081101561121757600080fd5b8101908080519060200190929190505050505050565b6000808284019050838110156112ab576040517f08c379a000000000000000000000000000000000000000000000000000000000815260040180806020018281038252601b8152602001807f536166654d6174683a206164646974696f6e206f766572666c6f77000000000081525060200191505060405180910390fd5b8091505092915050565b60008282111561132d576040517f08c379a000000000000000000000000000000000000000000000000000000000815260040180806020018281038252601e8152602001807f536166654d6174683a207375627472616374696f6e206f766572666c6f77000081525060200191505060405180910390fd5b81830390509291505056fe576974686472617720697320666f72206d6f7265207468616e2062616c616e636520616d6f756e74a2646970667358221220528d6c013cc35d40ed8c6139a7579bc8c5871bdd3c613aa19251956376f9131564736f6c63430007060033536166654d6174683a206d756c7469706c69636174696f6e206f766572666c6f77a2646970667358221220b379514fde0007f41714a330fdc11eaa1b7fa4af21541d2b0dee18ff5bf6238064736f6c63430007060033",
  "immutableReferences": {},
  "source": "pragma solidity >=0.6.0 <0.8.0;\r\n\r\n// import \"@optionality.io/clone-factory/contracts/CloneFactory.sol\";\r\nimport \"@openzeppelin/contracts/math/SafeMath.sol\";\r\nimport \"@openzeppelin/contracts/token/ERC20/IERC20.sol\";\r\nimport \"./StabilityProxy.sol\";\r\nimport \"./StringToken.sol\";\r\nimport \"./Interfaces/IStabilityPool.sol\";\r\n\r\ncontract StabilityFactory {\r\n    using SafeMath for uint256;\r\n\r\n    struct PoolInfo {\r\n        uint256 lastRewardBlock; // Last block number that SUSHIs distribution occurs.\r\n        uint256 accStringPerShare; // Accumulated SUSHIs per share, times 1e12. See below.\r\n    }\r\n\r\n    struct UserProxy {\r\n        StabilityProxy proxyAddress;\r\n        uint256 amount;\r\n        uint256 rewardDebt;\r\n    }\r\n\r\n    // address public impli;\r\n    address public frontEnd;\r\n    mapping(address => UserProxy) public userProxys;\r\n    mapping(address => bool) public registeredClone;\r\n    uint256 public totalLUSD;\r\n    PoolInfo public pool;\r\n    StringToken public stringToken;\r\n    IStabilityPool public stabilityPool;\r\n    IERC20 public lusdToken;\r\n    uint256 public stringPerBlock = 1435897436000000000;\r\n    uint256 public endBlock;\r\n    uint256 public postBoostedBlock;\r\n    uint256 public constant boostedMultiplier = 5;\r\n    bool public isBoosted = true;\r\n\r\n    modifier isRegClone() {\r\n        require(\r\n            registeredClone[msg.sender] == true,\r\n            \"only owner can call this method\"\r\n        );\r\n        _;\r\n    }\r\n\r\n    constructor(\r\n        address _frontEnd,\r\n        // address _impli,\r\n        IERC20 _lusdToken,\r\n        StringToken _stringToken,\r\n        IStabilityPool _stabilityPool\r\n    ) {\r\n        frontEnd = _frontEnd;\r\n        // impli = _impli;\r\n        pool = PoolInfo({lastRewardBlock: block.number, accStringPerShare: 0});\r\n        stringToken = _stringToken;\r\n        lusdToken = _lusdToken;\r\n        endBlock = block.number.add(2437500);\r\n        stabilityPool = _stabilityPool;\r\n    }\r\n\r\n    function getMultiplier(uint256 _from, uint256 _to)\r\n        public\r\n        view\r\n        returns (uint256)\r\n    {\r\n        if (_to <= endBlock) {\r\n            return _to.sub(_from);\r\n        } else if (_from >= endBlock) {\r\n            return 0;\r\n        } else {\r\n            return endBlock.sub(_from);\r\n        }\r\n    }\r\n\r\n    function updateProxyBalance(uint256 _amount) public isRegClone {\r\n        userProxys[msg.sender].amount = _amount;\r\n    }\r\n\r\n    function update() public {\r\n        if (block.number <= pool.lastRewardBlock) {\r\n            return;\r\n        }\r\n        uint256 lpSupply = totalLUSD;\r\n        if (lpSupply == 0) {\r\n            pool.lastRewardBlock = block.number;\r\n            return;\r\n        }\r\n        uint256 multiplier = getMultiplier(pool.lastRewardBlock, block.number);\r\n        uint256 stringReward = multiplier.mul(stringPerBlock);\r\n        if (block.number < postBoostedBlock) {\r\n            uint256 boostedReward = stringReward.mul(boostedMultiplier);\r\n            stringToken.mintTo(address(this), boostedReward);\r\n        } else {\r\n            if (isBoosted) {\r\n                isBoosted = false;\r\n            }\r\n            stringToken.mintTo(address(this), stringReward);\r\n        }\r\n\r\n        pool.accStringPerShare = pool.accStringPerShare.add(\r\n            stringReward.mul(1e12).div(lpSupply)\r\n        );\r\n        pool.lastRewardBlock = block.number;\r\n    }\r\n\r\n    function claim(address _sender) public {\r\n        UserProxy storage proxy = userProxys[_sender];\r\n        uint256 pending = _pending(proxy.amount, proxy.rewardDebt);\r\n        _safeStringTransfer(_sender, pending);\r\n        proxy.rewardDebt = proxy.amount.mul(pool.accStringPerShare).div(1e12);\r\n    }\r\n\r\n    function addLUSD(uint256 _newAddition) public isRegClone {\r\n        totalLUSD = totalLUSD.add(_newAddition);\r\n        update();\r\n    }\r\n\r\n    function subtractLUSD(uint256 _newSubtract) public isRegClone {\r\n        totalLUSD = totalLUSD.sub(_newSubtract);\r\n        update();\r\n    }\r\n\r\n    function createStabilityProxy() public {\r\n        StabilityProxy clone =\r\n            new StabilityProxy(\r\n                msg.sender,\r\n                this,\r\n                frontEnd,\r\n                lusdToken,\r\n                stabilityPool\r\n            );\r\n        UserProxy memory proxy =\r\n            UserProxy({proxyAddress: clone, amount: 0, rewardDebt: 0});\r\n        userProxys[msg.sender] = proxy;\r\n        registeredClone[address(clone)] = true;\r\n    }\r\n\r\n    function _pending(uint256 _amount, uint256 _rewardDebt)\r\n        internal\r\n        view\r\n        returns (uint256)\r\n    {\r\n        uint256 rewardsToSend =\r\n            _amount.mul(pool.accStringPerShare).div(1e12).sub(_rewardDebt);\r\n        if (isBoosted) {\r\n            return rewardsToSend.mul(boostedMultiplier);\r\n        }\r\n        return rewardsToSend;\r\n    }\r\n\r\n    function _safeStringTransfer(address _to, uint256 _amount) internal {\r\n        uint256 stringBal = stringToken.balanceOf(address(this));\r\n        if (_amount > stringBal) {\r\n            stringToken.transfer(_to, stringBal);\r\n        } else {\r\n            stringToken.transfer(_to, _amount);\r\n        }\r\n    }\r\n}\r\n",
  "sourcePath": "C:\\Users\\danie\\code\\harp\\client\\src\\contracts\\StabilityFactory.sol",
  "compiler": {
    "name": "solc",
    "version": "0.7.6+commit.7338295f.Emscripten.clang"
  },
  "schemaVersion": "3.3.3",
  "updatedAt": "2021-02-20T20:44:53.216Z",
  "networkType": "ethereum",
  "devdoc": {
    "kind": "dev",
    "methods": {},
    "version": 1
  },
  "userdoc": {
    "kind": "user",
    "methods": {},
    "version": 1
  }
}