{
  "contractName": "StabilityProxy",
  "abi": [
    {
      "inputs": [
        {
          "internalType": "address",
          "name": "_owner",
          "type": "address"
        },
        {
          "internalType": "contract StabilityFactory",
          "name": "_factory",
          "type": "address"
        },
        {
          "internalType": "address",
          "name": "_frontEnd",
          "type": "address"
        },
        {
          "internalType": "contract IERC20",
          "name": "_lusdToken",
          "type": "address"
        },
        {
          "internalType": "contract IERC20",
          "name": "_lqtyToken",
          "type": "address"
        },
        {
          "internalType": "contract IStabilityPool",
          "name": "_stabilityPool",
          "type": "address"
        }
      ],
      "stateMutability": "nonpayable",
      "type": "constructor"
    },
    {
      "anonymous": false,
      "inputs": [
        {
          "indexed": true,
          "internalType": "address",
          "name": "user",
          "type": "address"
        },
        {
          "indexed": false,
          "internalType": "uint256",
          "name": "amount",
          "type": "uint256"
        }
      ],
      "name": "Deposit",
      "type": "event"
    },
    {
      "anonymous": false,
      "inputs": [
        {
          "indexed": true,
          "internalType": "address",
          "name": "user",
          "type": "address"
        },
        {
          "indexed": false,
          "internalType": "uint256",
          "name": "amount",
          "type": "uint256"
        }
      ],
      "name": "Withdraw",
      "type": "event"
    },
    {
      "inputs": [],
      "name": "frontEnd",
      "outputs": [
        {
          "internalType": "address",
          "name": "",
          "type": "address"
        }
      ],
      "stateMutability": "view",
      "type": "function"
    },
    {
      "inputs": [],
      "name": "lqtyToken",
      "outputs": [
        {
          "internalType": "contract IERC20",
          "name": "",
          "type": "address"
        }
      ],
      "stateMutability": "view",
      "type": "function"
    },
    {
      "inputs": [],
      "name": "lusdBalance",
      "outputs": [
        {
          "internalType": "uint256",
          "name": "",
          "type": "uint256"
        }
      ],
      "stateMutability": "view",
      "type": "function"
    },
    {
      "inputs": [],
      "name": "lusdToken",
      "outputs": [
        {
          "internalType": "contract IERC20",
          "name": "",
          "type": "address"
        }
      ],
      "stateMutability": "view",
      "type": "function"
    },
    {
      "inputs": [],
      "name": "owner",
      "outputs": [
        {
          "internalType": "address",
          "name": "",
          "type": "address"
        }
      ],
      "stateMutability": "view",
      "type": "function"
    },
    {
      "inputs": [],
      "name": "stabilityFactory",
      "outputs": [
        {
          "internalType": "contract StabilityFactory",
          "name": "",
          "type": "address"
        }
      ],
      "stateMutability": "view",
      "type": "function"
    },
    {
      "inputs": [],
      "name": "stabilityPool",
      "outputs": [
        {
          "internalType": "contract IStabilityPool",
          "name": "",
          "type": "address"
        }
      ],
      "stateMutability": "view",
      "type": "function"
    },
    {
      "inputs": [
        {
          "internalType": "uint256",
          "name": "_amount",
          "type": "uint256"
        }
      ],
      "name": "deposit",
      "outputs": [],
      "stateMutability": "nonpayable",
      "type": "function"
    },
    {
      "inputs": [
        {
          "internalType": "uint256",
          "name": "_amount",
          "type": "uint256"
        }
      ],
      "name": "withdraw",
      "outputs": [],
      "stateMutability": "nonpayable",
      "type": "function"
    },
    {
      "inputs": [],
      "name": "claim",
      "outputs": [],
      "stateMutability": "nonpayable",
      "type": "function"
    },
    {
      "inputs": [],
      "name": "emergencyWithdraw",
      "outputs": [],
      "stateMutability": "nonpayable",
      "type": "function"
    }
  ],
  "bytecode": "0x608060405234801561001057600080fd5b50604051611f3e380380611f3e833981810160405260c081101561003357600080fd5b8101908080519060200190929190805190602001909291908051906020019092919080519060200190929190805190602001909291908051906020019092919050505085600260006101000a81548173ffffffffffffffffffffffffffffffffffffffff021916908373ffffffffffffffffffffffffffffffffffffffff16021790555082600360006101000a81548173ffffffffffffffffffffffffffffffffffffffff021916908373ffffffffffffffffffffffffffffffffffffffff16021790555081600460006101000a81548173ffffffffffffffffffffffffffffffffffffffff021916908373ffffffffffffffffffffffffffffffffffffffff16021790555080600560006101000a81548173ffffffffffffffffffffffffffffffffffffffff021916908373ffffffffffffffffffffffffffffffffffffffff16021790555083600160006101000a81548173ffffffffffffffffffffffffffffffffffffffff021916908373ffffffffffffffffffffffffffffffffffffffff16021790555084600660006101000a81548173ffffffffffffffffffffffffffffffffffffffff021916908373ffffffffffffffffffffffffffffffffffffffff160217905550505050505050611d2d806102116000396000f3fe608060405234801561001057600080fd5b50600436106100a95760003560e01c80638da5cb5b116100715780638da5cb5b146101c4578063b6b55f251461020e578063b83f91a21461023c578063b9f6d8ff14610286578063db2e21bc146102a4578063e7514c9a146102ae576100a9565b8063048c661d146100ae5780631f7af3c3146100f85780632e1a7d4d146101425780633af82b17146101705780634e71d92d146101ba575b600080fd5b6100b66102f8565b604051808273ffffffffffffffffffffffffffffffffffffffff1673ffffffffffffffffffffffffffffffffffffffff16815260200191505060405180910390f35b61010061031e565b604051808273ffffffffffffffffffffffffffffffffffffffff1673ffffffffffffffffffffffffffffffffffffffff16815260200191505060405180910390f35b61016e6004803603602081101561015857600080fd5b8101908080359060200190929190505050610344565b005b6101786106db565b604051808273ffffffffffffffffffffffffffffffffffffffff1673ffffffffffffffffffffffffffffffffffffffff16815260200191505060405180910390f35b6101c2610701565b005b6101cc610934565b604051808273ffffffffffffffffffffffffffffffffffffffff1673ffffffffffffffffffffffffffffffffffffffff16815260200191505060405180910390f35b61023a6004803603602081101561022457600080fd5b810190808035906020019092919050505061095a565b005b610244610e8c565b604051808273ffffffffffffffffffffffffffffffffffffffff1673ffffffffffffffffffffffffffffffffffffffff16815260200191505060405180910390f35b61028e610eb2565b6040518082815260200191505060405180910390f35b6102ac610eb8565b005b6102b66111f0565b604051808273ffffffffffffffffffffffffffffffffffffffff1673ffffffffffffffffffffffffffffffffffffffff16815260200191505060405180910390f35b600560009054906101000a900473ffffffffffffffffffffffffffffffffffffffff1681565b600460009054906101000a900473ffffffffffffffffffffffffffffffffffffffff1681565b600260009054906101000a900473ffffffffffffffffffffffffffffffffffffffff1673ffffffffffffffffffffffffffffffffffffffff163373ffffffffffffffffffffffffffffffffffffffff1614610407576040517f08c379a000000000000000000000000000000000000000000000000000000000815260040180806020018281038252601f8152602001807f6f6e6c79206f776e65722063616e2063616c6c2074686973206d6574686f640081525060200191505060405180910390fd5b600054811115610462576040517f08c379a0000000000000000000000000000000000000000000000000000000008152600401808060200182810382526028815260200180611cd06028913960400191505060405180910390fd5b600660009054906101000a900473ffffffffffffffffffffffffffffffffffffffff1673ffffffffffffffffffffffffffffffffffffffff1663a2e620456040518163ffffffff1660e01b8152600401600060405180830381600087803b1580156104cc57600080fd5b505af11580156104e0573d6000803e3d6000fd5b505050506104ec611216565b600560009054906101000a900473ffffffffffffffffffffffffffffffffffffffff1673ffffffffffffffffffffffffffffffffffffffff16632e54bf95826040518263ffffffff1660e01b815260040180828152602001915050600060405180830381600087803b15801561056157600080fd5b505af1158015610575573d6000803e3d6000fd5b505050506105a5600260009054906101000a900473ffffffffffffffffffffffffffffffffffffffff1682611577565b600660009054906101000a900473ffffffffffffffffffffffffffffffffffffffff1673ffffffffffffffffffffffffffffffffffffffff1663d435fb1c600054600260009054906101000a900473ffffffffffffffffffffffffffffffffffffffff166040518363ffffffff1660e01b8152600401808381526020018273ffffffffffffffffffffffffffffffffffffffff1673ffffffffffffffffffffffffffffffffffffffff16815260200192505050600060405180830381600087803b15801561067257600080fd5b505af1158015610686573d6000803e3d6000fd5b505050503373ffffffffffffffffffffffffffffffffffffffff167f884edad9ce6fa2440d8a54cc123490eb96d2768479d49ff9c7366125a9424364826040518082815260200191505060405180910390a250565b600660009054906101000a900473ffffffffffffffffffffffffffffffffffffffff1681565b600260009054906101000a900473ffffffffffffffffffffffffffffffffffffffff1673ffffffffffffffffffffffffffffffffffffffff163373ffffffffffffffffffffffffffffffffffffffff16146107c4576040517f08c379a000000000000000000000000000000000000000000000000000000000815260040180806020018281038252601f8152602001807f6f6e6c79206f776e65722063616e2063616c6c2074686973206d6574686f640081525060200191505060405180910390fd5b600660009054906101000a900473ffffffffffffffffffffffffffffffffffffffff1673ffffffffffffffffffffffffffffffffffffffff1663a2e620456040518163ffffffff1660e01b8152600401600060405180830381600087803b15801561082e57600080fd5b505af1158015610842573d6000803e3d6000fd5b5050505061084e611216565b600560009054906101000a900473ffffffffffffffffffffffffffffffffffffffff1673ffffffffffffffffffffffffffffffffffffffff16632e54bf9560006040518263ffffffff1660e01b815260040180828152602001915050600060405180830381600087803b1580156108c457600080fd5b505af11580156108d8573d6000803e3d6000fd5b50505050610907600260009054906101000a900473ffffffffffffffffffffffffffffffffffffffff16611982565b610932600260009054906101000a900473ffffffffffffffffffffffffffffffffffffffff166119f3565b565b600260009054906101000a900473ffffffffffffffffffffffffffffffffffffffff1681565b600260009054906101000a900473ffffffffffffffffffffffffffffffffffffffff1673ffffffffffffffffffffffffffffffffffffffff163373ffffffffffffffffffffffffffffffffffffffff1614610a1d576040517f08c379a000000000000000000000000000000000000000000000000000000000815260040180806020018281038252601f8152602001807f6f6e6c79206f776e65722063616e2063616c6c2074686973206d6574686f640081525060200191505060405180910390fd5b600660009054906101000a900473ffffffffffffffffffffffffffffffffffffffff1673ffffffffffffffffffffffffffffffffffffffff1663a2e620456040518163ffffffff1660e01b8152600401600060405180830381600087803b158015610a8757600080fd5b505af1158015610a9b573d6000803e3d6000fd5b50505050600080541115610ab257610ab1611216565b5b600360009054906101000a900473ffffffffffffffffffffffffffffffffffffffff1673ffffffffffffffffffffffffffffffffffffffff166323b872dd3330846040518463ffffffff1660e01b8152600401808473ffffffffffffffffffffffffffffffffffffffff1673ffffffffffffffffffffffffffffffffffffffff1681526020018373ffffffffffffffffffffffffffffffffffffffff1673ffffffffffffffffffffffffffffffffffffffff1681526020018281526020019350505050602060405180830381600087803b158015610b8f57600080fd5b505af1158015610ba3573d6000803e3d6000fd5b505050506040513d6020811015610bb957600080fd5b810190808051906020019092919050505050600660009054906101000a900473ffffffffffffffffffffffffffffffffffffffff1673ffffffffffffffffffffffffffffffffffffffff166320a83d39826040518263ffffffff1660e01b815260040180828152602001915050600060405180830381600087803b158015610c4057600080fd5b505af1158015610c54573d6000803e3d6000fd5b50505050610c6d81600054611bc490919063ffffffff16565b600081905550600560009054906101000a900473ffffffffffffffffffffffffffffffffffffffff1673ffffffffffffffffffffffffffffffffffffffff16635f788d6582600160009054906101000a900473ffffffffffffffffffffffffffffffffffffffff166040518363ffffffff1660e01b8152600401808381526020018273ffffffffffffffffffffffffffffffffffffffff1673ffffffffffffffffffffffffffffffffffffffff16815260200192505050600060405180830381600087803b158015610d3e57600080fd5b505af1158015610d52573d6000803e3d6000fd5b50505050600660009054906101000a900473ffffffffffffffffffffffffffffffffffffffff1673ffffffffffffffffffffffffffffffffffffffff1663d435fb1c600054600260009054906101000a900473ffffffffffffffffffffffffffffffffffffffff166040518363ffffffff1660e01b8152600401808381526020018273ffffffffffffffffffffffffffffffffffffffff1673ffffffffffffffffffffffffffffffffffffffff16815260200192505050600060405180830381600087803b158015610e2357600080fd5b505af1158015610e37573d6000803e3d6000fd5b505050503373ffffffffffffffffffffffffffffffffffffffff167fe1fffcc4923d04b559f4d29a8bfc6cda04eb5b0d3c460751c2402c5c5cc9109c826040518082815260200191505060405180910390a250565b600360009054906101000a900473ffffffffffffffffffffffffffffffffffffffff1681565b60005481565b600260009054906101000a900473ffffffffffffffffffffffffffffffffffffffff1673ffffffffffffffffffffffffffffffffffffffff163373ffffffffffffffffffffffffffffffffffffffff1614610f7b576040517f08c379a000000000000000000000000000000000000000000000000000000000815260040180806020018281038252601f8152602001807f6f6e6c79206f776e65722063616e2063616c6c2074686973206d6574686f640081525060200191505060405180910390fd5b6000600560009054906101000a900473ffffffffffffffffffffffffffffffffffffffff1673ffffffffffffffffffffffffffffffffffffffff16631cdc4700306040518263ffffffff1660e01b8152600401808273ffffffffffffffffffffffffffffffffffffffff1673ffffffffffffffffffffffffffffffffffffffff16815260200191505060206040518083038186803b15801561101c57600080fd5b505afa158015611030573d6000803e3d6000fd5b505050506040513d602081101561104657600080fd5b81019080805190602001909291905050509050600560009054906101000a900473ffffffffffffffffffffffffffffffffffffffff1673ffffffffffffffffffffffffffffffffffffffff16632e54bf95826040518263ffffffff1660e01b815260040180828152602001915050600060405180830381600087803b1580156110ce57600080fd5b505af11580156110e2573d6000803e3d6000fd5b50505050600660009054906101000a900473ffffffffffffffffffffffffffffffffffffffff1673ffffffffffffffffffffffffffffffffffffffff16637f98126a600260009054906101000a900473ffffffffffffffffffffffffffffffffffffffff166040518263ffffffff1660e01b8152600401808273ffffffffffffffffffffffffffffffffffffffff1673ffffffffffffffffffffffffffffffffffffffff168152602001915050600060405180830381600087803b1580156111a957600080fd5b505af11580156111bd573d6000803e3d6000fd5b505050506111ed600260009054906101000a900473ffffffffffffffffffffffffffffffffffffffff1682611577565b50565b600160009054906101000a900473ffffffffffffffffffffffffffffffffffffffff1681565b6000600560009054906101000a900473ffffffffffffffffffffffffffffffffffffffff1673ffffffffffffffffffffffffffffffffffffffff16631cdc4700306040518263ffffffff1660e01b8152600401808273ffffffffffffffffffffffffffffffffffffffff1673ffffffffffffffffffffffffffffffffffffffff16815260200191505060206040518083038186803b1580156112b757600080fd5b505afa1580156112cb573d6000803e3d6000fd5b505050506040513d60208110156112e157600080fd5b81019080805190602001909291905050509050600081111561156d57600061131482600054611c4c90919063ffffffff16565b9050600081111561149057600660009054906101000a900473ffffffffffffffffffffffffffffffffffffffff1673ffffffffffffffffffffffffffffffffffffffff1663c619c616826040518263ffffffff1660e01b815260040180828152602001915050600060405180830381600087803b15801561139457600080fd5b505af11580156113a8573d6000803e3d6000fd5b50505050600660009054906101000a900473ffffffffffffffffffffffffffffffffffffffff1673ffffffffffffffffffffffffffffffffffffffff1663d435fb1c83600260009054906101000a900473ffffffffffffffffffffffffffffffffffffffff166040518363ffffffff1660e01b8152600401808381526020018273ffffffffffffffffffffffffffffffffffffffff1673ffffffffffffffffffffffffffffffffffffffff16815260200192505050600060405180830381600087803b15801561147757600080fd5b505af115801561148b573d6000803e3d6000fd5b505050505b600660009054906101000a900473ffffffffffffffffffffffffffffffffffffffff1673ffffffffffffffffffffffffffffffffffffffff16631e83409a600260009054906101000a900473ffffffffffffffffffffffffffffffffffffffff166040518263ffffffff1660e01b8152600401808273ffffffffffffffffffffffffffffffffffffffff1673ffffffffffffffffffffffffffffffffffffffff168152602001915050600060405180830381600087803b15801561155357600080fd5b505af1158015611567573d6000803e3d6000fd5b50505050505b8060008190555050565b6000600360009054906101000a900473ffffffffffffffffffffffffffffffffffffffff1673ffffffffffffffffffffffffffffffffffffffff166370a08231306040518263ffffffff1660e01b8152600401808273ffffffffffffffffffffffffffffffffffffffff1673ffffffffffffffffffffffffffffffffffffffff16815260200191505060206040518083038186803b15801561161857600080fd5b505afa15801561162c573d6000803e3d6000fd5b505050506040513d602081101561164257600080fd5b81019080805190602001909291905050509050808211156117ef57600360009054906101000a900473ffffffffffffffffffffffffffffffffffffffff1673ffffffffffffffffffffffffffffffffffffffff1663a9059cbb84836040518363ffffffff1660e01b8152600401808373ffffffffffffffffffffffffffffffffffffffff1673ffffffffffffffffffffffffffffffffffffffff16815260200182815260200192505050602060405180830381600087803b15801561170657600080fd5b505af115801561171a573d6000803e3d6000fd5b505050506040513d602081101561173057600080fd5b81019080805190602001909291905050505061175781600054611c4c90919063ffffffff16565b600081905550600660009054906101000a900473ffffffffffffffffffffffffffffffffffffffff1673ffffffffffffffffffffffffffffffffffffffff1663c619c616826040518263ffffffff1660e01b815260040180828152602001915050600060405180830381600087803b1580156117d257600080fd5b505af11580156117e6573d6000803e3d6000fd5b5050505061197d565b600360009054906101000a900473ffffffffffffffffffffffffffffffffffffffff1673ffffffffffffffffffffffffffffffffffffffff1663a9059cbb84846040518363ffffffff1660e01b8152600401808373ffffffffffffffffffffffffffffffffffffffff1673ffffffffffffffffffffffffffffffffffffffff16815260200182815260200192505050602060405180830381600087803b15801561189857600080fd5b505af11580156118ac573d6000803e3d6000fd5b505050506040513d60208110156118c257600080fd5b8101908080519060200190929190505050506118e982600054611c4c90919063ffffffff16565b600081905550600660009054906101000a900473ffffffffffffffffffffffffffffffffffffffff1673ffffffffffffffffffffffffffffffffffffffff1663c619c616836040518263ffffffff1660e01b815260040180828152602001915050600060405180830381600087803b15801561196457600080fd5b505af1158015611978573d6000803e3d6000fd5b505050505b505050565b60003073ffffffffffffffffffffffffffffffffffffffff1631905060008111156119ef578173ffffffffffffffffffffffffffffffffffffffff166108fc829081150290604051600060405180830381858888f193505050501580156119ed573d6000803e3d6000fd5b505b5050565b6000600460009054906101000a900473ffffffffffffffffffffffffffffffffffffffff1673ffffffffffffffffffffffffffffffffffffffff166370a08231306040518263ffffffff1660e01b8152600401808273ffffffffffffffffffffffffffffffffffffffff1673ffffffffffffffffffffffffffffffffffffffff16815260200191505060206040518083038186803b158015611a9457600080fd5b505afa158015611aa8573d6000803e3d6000fd5b505050506040513d6020811015611abe57600080fd5b810190808051906020019092919050505090506000811115611bc057600460009054906101000a900473ffffffffffffffffffffffffffffffffffffffff1673ffffffffffffffffffffffffffffffffffffffff1663a9059cbb83836040518363ffffffff1660e01b8152600401808373ffffffffffffffffffffffffffffffffffffffff1673ffffffffffffffffffffffffffffffffffffffff16815260200182815260200192505050602060405180830381600087803b158015611b8357600080fd5b505af1158015611b97573d6000803e3d6000fd5b505050506040513d6020811015611bad57600080fd5b8101908080519060200190929190505050505b5050565b600080828401905083811015611c42576040517f08c379a000000000000000000000000000000000000000000000000000000000815260040180806020018281038252601b8152602001807f536166654d6174683a206164646974696f6e206f766572666c6f77000000000081525060200191505060405180910390fd5b8091505092915050565b600082821115611cc4576040517f08c379a000000000000000000000000000000000000000000000000000000000815260040180806020018281038252601e8152602001807f536166654d6174683a207375627472616374696f6e206f766572666c6f77000081525060200191505060405180910390fd5b81830390509291505056fe576974686472617720697320666f72206d6f7265207468616e2062616c616e636520616d6f756e74a2646970667358221220b1640aadae513bc3cf030dcddd4059d627a3140aa458087a5973946efaf8178364736f6c634300060b0033",
  "immutableReferences": {},
  "source": "// SPDX-License-Identifier: MIT\n\npragma solidity 0.6.11;\n\nimport \"@openzeppelin/contracts/token/ERC20/IERC20.sol\";\nimport \"@openzeppelin/contracts/math/SafeMath.sol\";\nimport \"./Interfaces/IStabilityPool.sol\";\nimport \"./StabilityFactory.sol\";\n\ncontract StabilityProxy {\n    using SafeMath for uint256;\n\n    uint256 public lusdBalance;\n    address public frontEnd;\n    address public owner;\n    IERC20 public lusdToken;\n    IERC20 public lqtyToken;\n    IStabilityPool public stabilityPool;\n    StabilityFactory public stabilityFactory;\n\n    modifier onlyOwner() {\n        require(msg.sender == owner, \"only owner can call this method\");\n        _;\n    }\n\n    event Deposit(address indexed user, uint256 amount);\n    event Withdraw(address indexed user, uint256 amount);\n\n    constructor(\n        address _owner,\n        StabilityFactory _factory,\n        address _frontEnd,\n        IERC20 _lusdToken,\n        IERC20 _lqtyToken,\n        IStabilityPool _stabilityPool\n    ) public {\n        owner = _owner;\n        lusdToken = _lusdToken;\n        lqtyToken = _lqtyToken;\n        stabilityPool = _stabilityPool;\n        frontEnd = _frontEnd;\n        stabilityFactory = _factory;\n    }\n\n    function deposit(uint256 _amount) public onlyOwner {\n        stabilityFactory.update();\n        if (lusdBalance > 0) {\n            _updateBalance();\n        }\n        lusdToken.transferFrom(msg.sender, address(this), _amount);\n        stabilityFactory.addLUSD(_amount);\n        lusdBalance = lusdBalance.add(_amount);\n        stabilityPool.provideToSP(_amount, frontEnd);\n        stabilityFactory.updateProxyBalance(lusdBalance, owner);\n        emit Deposit(msg.sender, _amount);\n    }\n\n    function withdraw(uint256 _amount) public onlyOwner {\n        require(\n            _amount <= lusdBalance,\n            \"Withdraw is for more than balance amount\"\n        );\n        stabilityFactory.update();\n        _updateBalance();\n        stabilityPool.withdrawFromSP(_amount);\n        _safeLUSDTransfer(owner, _amount);\n        stabilityFactory.updateProxyBalance(lusdBalance, owner);\n        emit Withdraw(msg.sender, _amount);\n    }\n\n    function claim() public onlyOwner {\n        stabilityFactory.update();\n        _updateBalance();\n        stabilityPool.withdrawFromSP(0);\n        _safeETHTransferAll(owner);\n        _safeLQTYTransferAll(owner);\n    }\n\n    function emergencyWithdraw() public onlyOwner {\n        uint256 currentBal =\n            stabilityPool.getCompoundedLUSDDeposit(address(this));\n        stabilityPool.withdrawFromSP(currentBal);\n        stabilityFactory.updateProxyBalanceEmergency(owner);\n        _safeLUSDTransfer(owner, currentBal);\n    }\n\n    function _safeLUSDTransfer(address _to, uint256 _amount) internal {\n        uint256 lusdBal = lusdToken.balanceOf(address(this));\n        if (_amount > lusdBal) {\n            lusdToken.transfer(_to, lusdBal);\n            lusdBalance = lusdBalance.sub(lusdBal);\n            stabilityFactory.subtractLUSD(lusdBal);\n        } else {\n            lusdToken.transfer(_to, _amount);\n            lusdBalance = lusdBalance.sub(_amount);\n            stabilityFactory.subtractLUSD(_amount);\n        }\n    }\n\n    function _safeETHTransferAll(address _to) internal {\n        uint256 ethBal = address(this).balance;\n        if (ethBal > 0) {\n            payable(_to).transfer(ethBal);\n        }\n    }\n\n    function _safeLQTYTransferAll(address _to) internal {\n        uint256 lqtyBal = lqtyToken.balanceOf(address(this));\n        if (lqtyBal > 0) {\n            lqtyToken.transfer(_to, lqtyBal);\n        }\n    }\n\n    function _updateBalance() internal {\n        uint256 currentBal =\n            stabilityPool.getCompoundedLUSDDeposit(address(this));\n        if (currentBal > 0) {\n            uint256 diff = lusdBalance.sub(currentBal);\n            if (diff > 0) {\n                stabilityFactory.subtractLUSD(diff);\n                stabilityFactory.updateProxyBalance(currentBal, owner);\n            }\n            stabilityFactory.claim(owner);\n        }\n        lusdBalance = currentBal;\n    }\n}\n",
  "sourcePath": "/Users/dannywarrick/code/harp/client/contracts/StabilityProxy.sol",
  "compiler": {
    "name": "solc",
    "version": "0.6.11+commit.5ef660b1.Emscripten.clang"
  },
  "schemaVersion": "3.3.4",
  "updatedAt": "2021-04-22T17:24:11.400Z",
  "devdoc": {
    "kind": "dev",
    "methods": {},
    "version": 1
  },
  "userdoc": {
    "kind": "user",
    "methods": {},
    "version": 1
  }
}