{
  "contractName": "StabilityFactory",
  "abi": [
    {
      "inputs": [
        {
          "internalType": "address",
          "name": "_frontEnd",
          "type": "address"
        },
        {
          "internalType": "contract IERC20",
          "name": "_lusdToken",
          "type": "address"
        },
        {
          "internalType": "contract StringToken",
          "name": "_stringToken",
          "type": "address"
        },
        {
          "internalType": "contract IStabilityPool",
          "name": "_stabilityPool",
          "type": "address"
        }
      ],
      "stateMutability": "nonpayable",
      "type": "constructor"
    },
    {
      "inputs": [],
      "name": "boostedMultiplier",
      "outputs": [
        {
          "internalType": "uint256",
          "name": "",
          "type": "uint256"
        }
      ],
      "stateMutability": "view",
      "type": "function",
      "constant": true
    },
    {
      "inputs": [],
      "name": "endBlock",
      "outputs": [
        {
          "internalType": "uint256",
          "name": "",
          "type": "uint256"
        }
      ],
      "stateMutability": "view",
      "type": "function",
      "constant": true
    },
    {
      "inputs": [],
      "name": "frontEnd",
      "outputs": [
        {
          "internalType": "address",
          "name": "",
          "type": "address"
        }
      ],
      "stateMutability": "view",
      "type": "function",
      "constant": true
    },
    {
      "inputs": [],
      "name": "isBoosted",
      "outputs": [
        {
          "internalType": "bool",
          "name": "",
          "type": "bool"
        }
      ],
      "stateMutability": "view",
      "type": "function",
      "constant": true
    },
    {
      "inputs": [],
      "name": "lusdToken",
      "outputs": [
        {
          "internalType": "contract IERC20",
          "name": "",
          "type": "address"
        }
      ],
      "stateMutability": "view",
      "type": "function",
      "constant": true
    },
    {
      "inputs": [],
      "name": "pool",
      "outputs": [
        {
          "internalType": "uint256",
          "name": "lastRewardBlock",
          "type": "uint256"
        },
        {
          "internalType": "uint256",
          "name": "accStringPerShare",
          "type": "uint256"
        }
      ],
      "stateMutability": "view",
      "type": "function",
      "constant": true
    },
    {
      "inputs": [],
      "name": "postBoostedBlock",
      "outputs": [
        {
          "internalType": "uint256",
          "name": "",
          "type": "uint256"
        }
      ],
      "stateMutability": "view",
      "type": "function",
      "constant": true
    },
    {
      "inputs": [
        {
          "internalType": "address",
          "name": "",
          "type": "address"
        }
      ],
      "name": "registeredClone",
      "outputs": [
        {
          "internalType": "bool",
          "name": "",
          "type": "bool"
        }
      ],
      "stateMutability": "view",
      "type": "function",
      "constant": true
    },
    {
      "inputs": [],
      "name": "stabilityPool",
      "outputs": [
        {
          "internalType": "contract IStabilityPool",
          "name": "",
          "type": "address"
        }
      ],
      "stateMutability": "view",
      "type": "function",
      "constant": true
    },
    {
      "inputs": [],
      "name": "stringPerBlock",
      "outputs": [
        {
          "internalType": "uint256",
          "name": "",
          "type": "uint256"
        }
      ],
      "stateMutability": "view",
      "type": "function",
      "constant": true
    },
    {
      "inputs": [],
      "name": "stringToken",
      "outputs": [
        {
          "internalType": "contract StringToken",
          "name": "",
          "type": "address"
        }
      ],
      "stateMutability": "view",
      "type": "function",
      "constant": true
    },
    {
      "inputs": [],
      "name": "totalLUSD",
      "outputs": [
        {
          "internalType": "uint256",
          "name": "",
          "type": "uint256"
        }
      ],
      "stateMutability": "view",
      "type": "function",
      "constant": true
    },
    {
      "inputs": [
        {
          "internalType": "address",
          "name": "",
          "type": "address"
        }
      ],
      "name": "userProxys",
      "outputs": [
        {
          "internalType": "contract StabilityProxy",
          "name": "proxyAddress",
          "type": "address"
        },
        {
          "internalType": "uint256",
          "name": "amount",
          "type": "uint256"
        },
        {
          "internalType": "uint256",
          "name": "rewardDebt",
          "type": "uint256"
        }
      ],
      "stateMutability": "view",
      "type": "function",
      "constant": true
    },
    {
      "inputs": [
        {
          "internalType": "address",
          "name": "_user",
          "type": "address"
        }
      ],
      "name": "pendingString",
      "outputs": [
        {
          "internalType": "uint256",
          "name": "",
          "type": "uint256"
        }
      ],
      "stateMutability": "view",
      "type": "function",
      "constant": true
    },
    {
      "inputs": [
        {
          "internalType": "uint256",
          "name": "_from",
          "type": "uint256"
        },
        {
          "internalType": "uint256",
          "name": "_to",
          "type": "uint256"
        }
      ],
      "name": "getMultiplier",
      "outputs": [
        {
          "internalType": "uint256",
          "name": "",
          "type": "uint256"
        }
      ],
      "stateMutability": "view",
      "type": "function",
      "constant": true
    },
    {
      "inputs": [
        {
          "internalType": "uint256",
          "name": "_amount",
          "type": "uint256"
        }
      ],
      "name": "updateProxyBalance",
      "outputs": [],
      "stateMutability": "nonpayable",
      "type": "function"
    },
    {
      "inputs": [],
      "name": "update",
      "outputs": [],
      "stateMutability": "nonpayable",
      "type": "function"
    },
    {
      "inputs": [
        {
          "internalType": "address",
          "name": "_sender",
          "type": "address"
        }
      ],
      "name": "claim",
      "outputs": [],
      "stateMutability": "nonpayable",
      "type": "function"
    },
    {
      "inputs": [
        {
          "internalType": "uint256",
          "name": "_newAddition",
          "type": "uint256"
        }
      ],
      "name": "addLUSD",
      "outputs": [],
      "stateMutability": "nonpayable",
      "type": "function"
    },
    {
      "inputs": [
        {
          "internalType": "uint256",
          "name": "_newSubtract",
          "type": "uint256"
        }
      ],
      "name": "subtractLUSD",
      "outputs": [],
      "stateMutability": "nonpayable",
      "type": "function"
    },
    {
      "inputs": [],
      "name": "createStabilityProxy",
      "outputs": [],
      "stateMutability": "nonpayable",
      "type": "function"
    }
  ],
  "bytecode": "0x6080604052670ccf6d9225bc6f006009556001600c60006101000a81548160ff02191690831515021790555034801561003757600080fd5b50604051612ddb380380612ddb8339818101604052608081101561005a57600080fd5b8101908080519060200190929190805190602001909291908051906020019092919080519060200190929190505050836000806101000a81548173ffffffffffffffffffffffffffffffffffffffff021916908373ffffffffffffffffffffffffffffffffffffffff160217905550604051806040016040528043815260200160008152506004600082015181600001556020820151816001015590505081600660006101000a81548173ffffffffffffffffffffffffffffffffffffffff021916908373ffffffffffffffffffffffffffffffffffffffff16021790555082600860006101000a81548173ffffffffffffffffffffffffffffffffffffffff021916908373ffffffffffffffffffffffffffffffffffffffff1602179055506101946225317c436101e460201b61108c1790919060201c565b600a8190555080600760006101000a81548173ffffffffffffffffffffffffffffffffffffffff021916908373ffffffffffffffffffffffffffffffffffffffff1602179055505050505061026c565b600080828401905083811015610262576040517f08c379a000000000000000000000000000000000000000000000000000000000815260040180806020018281038252601b8152602001807f536166654d6174683a206164646974696f6e206f766572666c6f77000000000081525060200191505060405180910390fd5b8091505092915050565b612b608061027b6000396000f3fe608060405234801561001057600080fd5b50600436106101375760003560e01c80637dacef90116100b8578063b68975591161007c578063b6897559146103ff578063b83f91a21461041f578063c619c61614610453578063df5e898714610481578063e7514c9a146104b5578063f831640a146104e957610137565b80637dacef90146102e15780638dbb1e3a1461030f578063908525771461035b578063910880ad146103d7578063a2e62045146103f557610137565b80631e83409a116100ff5780631e83409a146101ef57806320a83d3914610233578063350bac341461026157806366bf9ae41461027f5780637a3774a1146102d757610137565b8063048c661d1461013c578063083c6323146101705780630b5f91fc1461018e5780630d483ae1146101ac57806316f0115b146101ca575b600080fd5b610144610543565b604051808273ffffffffffffffffffffffffffffffffffffffff16815260200191505060405180910390f35b610178610569565b6040518082815260200191505060405180910390f35b61019661056f565b6040518082815260200191505060405180910390f35b6101b4610575565b6040518082815260200191505060405180910390f35b6101d261057a565b604051808381526020018281526020019250505060405180910390f35b6102316004803603602081101561020557600080fd5b81019080803573ffffffffffffffffffffffffffffffffffffffff16906020019092919050505061058c565b005b61025f6004803603602081101561024957600080fd5b810190808035906020019092919050505061062f565b005b61026961071b565b6040518082815260200191505060405180910390f35b6102c16004803603602081101561029557600080fd5b81019080803573ffffffffffffffffffffffffffffffffffffffff169060200190929190505050610721565b6040518082815260200191505060405180910390f35b6102df610886565b005b61030d600480360360208110156102f757600080fd5b8101908080359060200190929190505050610ae1565b005b6103456004803603604081101561032557600080fd5b810190808035906020019092919080359060200190929190505050610bf1565b6040518082815260200191505060405180910390f35b61039d6004803603602081101561037157600080fd5b81019080803573ffffffffffffffffffffffffffffffffffffffff169060200190929190505050610c46565b604051808473ffffffffffffffffffffffffffffffffffffffff168152602001838152602001828152602001935050505060405180910390f35b6103df610c90565b6040518082815260200191505060405180910390f35b6103fd610c96565b005b610407610efd565b60405180821515815260200191505060405180910390f35b610427610f10565b604051808273ffffffffffffffffffffffffffffffffffffffff16815260200191505060405180910390f35b61047f6004803603602081101561046957600080fd5b8101908080359060200190929190505050610f36565b005b610489611022565b604051808273ffffffffffffffffffffffffffffffffffffffff16815260200191505060405180910390f35b6104bd611048565b604051808273ffffffffffffffffffffffffffffffffffffffff16815260200191505060405180910390f35b61052b600480360360208110156104ff57600080fd5b81019080803573ffffffffffffffffffffffffffffffffffffffff16906020019092919050505061106c565b60405180821515815260200191505060405180910390f35b600760009054906101000a900473ffffffffffffffffffffffffffffffffffffffff1681565b600a5481565b600b5481565b600581565b60048060000154908060010154905082565b6000600160008373ffffffffffffffffffffffffffffffffffffffff1673ffffffffffffffffffffffffffffffffffffffff168152602001908152602001600020905060006105e382600101548360020154611114565b90506105ef8382611196565b61062264e8d4a51000610614600460010154856001015461140f90919063ffffffff16565b61149590919063ffffffff16565b8260020181905550505050565b60011515600260003373ffffffffffffffffffffffffffffffffffffffff1673ffffffffffffffffffffffffffffffffffffffff16815260200190815260200160002060009054906101000a900460ff161515146106f5576040517f08c379a000000000000000000000000000000000000000000000000000000000815260040180806020018281038252601f8152602001807f6f6e6c79206f776e65722063616e2063616c6c2074686973206d6574686f640081525060200191505060405180910390fd5b61070a8160035461108c90919063ffffffff16565b600381905550610718610c96565b50565b60095481565b600080600160008473ffffffffffffffffffffffffffffffffffffffff1673ffffffffffffffffffffffffffffffffffffffff168152602001908152602001600020905060006004600101549050600060035490506004600001544311801561078b575060008114155b156107fd5760006107a160046000015443610bf1565b905060006107ba6009548361140f90919063ffffffff16565b90506107f86107e9846107db64e8d4a510008561140f90919063ffffffff16565b61149590919063ffffffff16565b8561108c90919063ffffffff16565b935050505b6000610843846002015461083564e8d4a5100061082787896001015461140f90919063ffffffff16565b61149590919063ffffffff16565b61151e90919063ffffffff16565b9050600c60009054906101000a900460ff16156108795761086e60058261140f90919063ffffffff16565b945050505050610881565b809450505050505b919050565b6000333060008054906101000a900473ffffffffffffffffffffffffffffffffffffffff16600860009054906101000a900473ffffffffffffffffffffffffffffffffffffffff16600760009054906101000a900473ffffffffffffffffffffffffffffffffffffffff166040516108fd906115a1565b808673ffffffffffffffffffffffffffffffffffffffff1681526020018573ffffffffffffffffffffffffffffffffffffffff1681526020018473ffffffffffffffffffffffffffffffffffffffff1681526020018373ffffffffffffffffffffffffffffffffffffffff1681526020018273ffffffffffffffffffffffffffffffffffffffff16815260200195505050505050604051809103906000f0801580156109ad573d6000803e3d6000fd5b509050600060405180606001604052808373ffffffffffffffffffffffffffffffffffffffff168152602001600081526020016000815250905080600160003373ffffffffffffffffffffffffffffffffffffffff1673ffffffffffffffffffffffffffffffffffffffff16815260200190815260200160002060008201518160000160006101000a81548173ffffffffffffffffffffffffffffffffffffffff021916908373ffffffffffffffffffffffffffffffffffffffff16021790555060208201518160010155604082015181600201559050506001600260008473ffffffffffffffffffffffffffffffffffffffff1673ffffffffffffffffffffffffffffffffffffffff16815260200190815260200160002060006101000a81548160ff0219169083151502179055505050565b60011515600260003373ffffffffffffffffffffffffffffffffffffffff1673ffffffffffffffffffffffffffffffffffffffff16815260200190815260200160002060009054906101000a900460ff16151514610ba7576040517f08c379a000000000000000000000000000000000000000000000000000000000815260040180806020018281038252601f8152602001807f6f6e6c79206f776e65722063616e2063616c6c2074686973206d6574686f640081525060200191505060405180910390fd5b80600160003373ffffffffffffffffffffffffffffffffffffffff1673ffffffffffffffffffffffffffffffffffffffff1681526020019081526020016000206001018190555050565b6000600a548211610c1657610c0f838361151e90919063ffffffff16565b9050610c40565b600a548310610c285760009050610c40565b610c3d83600a5461151e90919063ffffffff16565b90505b92915050565b60016020528060005260406000206000915090508060000160009054906101000a900473ffffffffffffffffffffffffffffffffffffffff16908060010154908060020154905083565b60035481565b6004600001544311610ca757610efb565b600060035490506000811415610cc7574360046000018190555050610efb565b6000610cd860046000015443610bf1565b90506000610cf16009548361140f90919063ffffffff16565b9050600b54431015610dc6576000610d1360058361140f90919063ffffffff16565b9050600660009054906101000a900473ffffffffffffffffffffffffffffffffffffffff1673ffffffffffffffffffffffffffffffffffffffff1663449a52f830836040518363ffffffff1660e01b8152600401808373ffffffffffffffffffffffffffffffffffffffff16815260200182815260200192505050600060405180830381600087803b158015610da857600080fd5b505af1158015610dbc573d6000803e3d6000fd5b5050505050610ea3565b600c60009054906101000a900460ff1615610df7576000600c60006101000a81548160ff0219169083151502179055505b600660009054906101000a900473ffffffffffffffffffffffffffffffffffffffff1673ffffffffffffffffffffffffffffffffffffffff1663449a52f830836040518363ffffffff1660e01b8152600401808373ffffffffffffffffffffffffffffffffffffffff16815260200182815260200192505050600060405180830381600087803b158015610e8a57600080fd5b505af1158015610e9e573d6000803e3d6000fd5b505050505b610ee4610ed084610ec264e8d4a510008561140f90919063ffffffff16565b61149590919063ffffffff16565b60046001015461108c90919063ffffffff16565b600460010181905550436004600001819055505050505b565b600c60009054906101000a900460ff1681565b600860009054906101000a900473ffffffffffffffffffffffffffffffffffffffff1681565b60011515600260003373ffffffffffffffffffffffffffffffffffffffff1673ffffffffffffffffffffffffffffffffffffffff16815260200190815260200160002060009054906101000a900460ff16151514610ffc576040517f08c379a000000000000000000000000000000000000000000000000000000000815260040180806020018281038252601f8152602001807f6f6e6c79206f776e65722063616e2063616c6c2074686973206d6574686f640081525060200191505060405180910390fd5b6110118160035461151e90919063ffffffff16565b60038190555061101f610c96565b50565b600660009054906101000a900473ffffffffffffffffffffffffffffffffffffffff1681565b60008054906101000a900473ffffffffffffffffffffffffffffffffffffffff1681565b60026020528060005260406000206000915054906101000a900460ff1681565b60008082840190508381101561110a576040517f08c379a000000000000000000000000000000000000000000000000000000000815260040180806020018281038252601b8152602001807f536166654d6174683a206164646974696f6e206f766572666c6f77000000000081525060200191505060405180910390fd5b8091505092915050565b6000806111588361114a64e8d4a5100061113c6004600101548961140f90919063ffffffff16565b61149590919063ffffffff16565b61151e90919063ffffffff16565b9050600c60009054906101000a900460ff161561118b5761118360058261140f90919063ffffffff16565b915050611190565b809150505b92915050565b6000600660009054906101000a900473ffffffffffffffffffffffffffffffffffffffff1673ffffffffffffffffffffffffffffffffffffffff166370a08231306040518263ffffffff1660e01b8152600401808273ffffffffffffffffffffffffffffffffffffffff16815260200191505060206040518083038186803b15801561122157600080fd5b505afa158015611235573d6000803e3d6000fd5b505050506040513d602081101561124b57600080fd5b810190808051906020019092919050505090508082111561133a57600660009054906101000a900473ffffffffffffffffffffffffffffffffffffffff1673ffffffffffffffffffffffffffffffffffffffff1663a9059cbb84836040518363ffffffff1660e01b8152600401808373ffffffffffffffffffffffffffffffffffffffff16815260200182815260200192505050602060405180830381600087803b1580156112f957600080fd5b505af115801561130d573d6000803e3d6000fd5b505050506040513d602081101561132357600080fd5b81019080805190602001909291905050505061140a565b600660009054906101000a900473ffffffffffffffffffffffffffffffffffffffff1673ffffffffffffffffffffffffffffffffffffffff1663a9059cbb84846040518363ffffffff1660e01b8152600401808373ffffffffffffffffffffffffffffffffffffffff16815260200182815260200192505050602060405180830381600087803b1580156113cd57600080fd5b505af11580156113e1573d6000803e3d6000fd5b505050506040513d60208110156113f757600080fd5b8101908080519060200190929190505050505b505050565b600080831415611422576000905061148f565b600082840290508284828161143357fe5b041461148a576040517f08c379a0000000000000000000000000000000000000000000000000000000008152600401808060200182810382526021815260200180612b0a6021913960400191505060405180910390fd5b809150505b92915050565b600080821161150c576040517f08c379a000000000000000000000000000000000000000000000000000000000815260040180806020018281038252601a8152602001807f536166654d6174683a206469766973696f6e206279207a65726f00000000000081525060200191505060405180910390fd5b81838161151557fe5b04905092915050565b600082821115611596576040517f08c379a000000000000000000000000000000000000000000000000000000000815260040180806020018281038252601e8152602001807f536166654d6174683a207375627472616374696f6e206f766572666c6f77000081525060200191505060405180910390fd5b818303905092915050565b61155b806115af8339019056fe608060405234801561001057600080fd5b5060405161155b38038061155b833981810160405260a081101561003357600080fd5b81019080805190602001909291908051906020019092919080519060200190929190805190602001909291908051906020019092919050505084600260006101000a81548173ffffffffffffffffffffffffffffffffffffffff021916908373ffffffffffffffffffffffffffffffffffffffff16021790555081600360006101000a81548173ffffffffffffffffffffffffffffffffffffffff021916908373ffffffffffffffffffffffffffffffffffffffff16021790555080600560006101000a81548173ffffffffffffffffffffffffffffffffffffffff021916908373ffffffffffffffffffffffffffffffffffffffff16021790555082600160006101000a81548173ffffffffffffffffffffffffffffffffffffffff021916908373ffffffffffffffffffffffffffffffffffffffff16021790555083600660006101000a81548173ffffffffffffffffffffffffffffffffffffffff021916908373ffffffffffffffffffffffffffffffffffffffff1602179055505050505050611396806101c56000396000f3fe608060405234801561001057600080fd5b506004361061009e5760003560e01c80638da5cb5b116100665780638da5cb5b14610177578063b6b55f25146101ab578063b83f91a2146101d9578063b9f6d8ff1461020d578063e7514c9a1461022b5761009e565b8063048c661d146100a35780631f7af3c3146100d75780632e1a7d4d1461010b5780633af82b17146101395780634e71d92d1461016d575b600080fd5b6100ab61025f565b604051808273ffffffffffffffffffffffffffffffffffffffff16815260200191505060405180910390f35b6100df610285565b604051808273ffffffffffffffffffffffffffffffffffffffff16815260200191505060405180910390f35b6101376004803603602081101561012157600080fd5b81019080803590602001909291905050506102ab565b005b61014161051c565b604051808273ffffffffffffffffffffffffffffffffffffffff16815260200191505060405180910390f35b610175610542565b005b61017f6106f3565b604051808273ffffffffffffffffffffffffffffffffffffffff16815260200191505060405180910390f35b6101d7600480360360208110156101c157600080fd5b8101908080359060200190929190505050610719565b005b6101e1610a4b565b604051808273ffffffffffffffffffffffffffffffffffffffff16815260200191505060405180910390f35b610215610a71565b6040518082815260200191505060405180910390f35b610233610a77565b604051808273ffffffffffffffffffffffffffffffffffffffff16815260200191505060405180910390f35b600560009054906101000a900473ffffffffffffffffffffffffffffffffffffffff1681565b600460009054906101000a900473ffffffffffffffffffffffffffffffffffffffff1681565b600260009054906101000a900473ffffffffffffffffffffffffffffffffffffffff1673ffffffffffffffffffffffffffffffffffffffff163373ffffffffffffffffffffffffffffffffffffffff161461036e576040517f08c379a000000000000000000000000000000000000000000000000000000000815260040180806020018281038252601f8152602001807f6f6e6c79206f776e65722063616e2063616c6c2074686973206d6574686f640081525060200191505060405180910390fd5b610376610a9d565b6000548111156103d1576040517f08c379a00000000000000000000000000000000000000000000000000000000081526004018080602001828103825260288152602001806113396028913960400191505060405180910390fd5b600560009054906101000a900473ffffffffffffffffffffffffffffffffffffffff1673ffffffffffffffffffffffffffffffffffffffff16632e54bf95826040518263ffffffff1660e01b815260040180828152602001915050600060405180830381600087803b15801561044657600080fd5b505af115801561045a573d6000803e3d6000fd5b5050505061048a600260009054906101000a900473ffffffffffffffffffffffffffffffffffffffff1682610d7c565b600660009054906101000a900473ffffffffffffffffffffffffffffffffffffffff1673ffffffffffffffffffffffffffffffffffffffff16637dacef906000546040518263ffffffff1660e01b815260040180828152602001915050600060405180830381600087803b15801561050157600080fd5b505af1158015610515573d6000803e3d6000fd5b5050505050565b600660009054906101000a900473ffffffffffffffffffffffffffffffffffffffff1681565b600260009054906101000a900473ffffffffffffffffffffffffffffffffffffffff1673ffffffffffffffffffffffffffffffffffffffff163373ffffffffffffffffffffffffffffffffffffffff1614610605576040517f08c379a000000000000000000000000000000000000000000000000000000000815260040180806020018281038252601f8152602001807f6f6e6c79206f776e65722063616e2063616c6c2074686973206d6574686f640081525060200191505060405180910390fd5b61060d610a9d565b600560009054906101000a900473ffffffffffffffffffffffffffffffffffffffff1673ffffffffffffffffffffffffffffffffffffffff16632e54bf9560006040518263ffffffff1660e01b815260040180828152602001915050600060405180830381600087803b15801561068357600080fd5b505af1158015610697573d6000803e3d6000fd5b505050506106c6600260009054906101000a900473ffffffffffffffffffffffffffffffffffffffff1661102b565b6106f1600260009054906101000a900473ffffffffffffffffffffffffffffffffffffffff16611092565b565b600260009054906101000a900473ffffffffffffffffffffffffffffffffffffffff1681565b600260009054906101000a900473ffffffffffffffffffffffffffffffffffffffff1673ffffffffffffffffffffffffffffffffffffffff163373ffffffffffffffffffffffffffffffffffffffff16146107dc576040517f08c379a000000000000000000000000000000000000000000000000000000000815260040180806020018281038252601f8152602001807f6f6e6c79206f776e65722063616e2063616c6c2074686973206d6574686f640081525060200191505060405180910390fd5b6107e4610a9d565b600360009054906101000a900473ffffffffffffffffffffffffffffffffffffffff1673ffffffffffffffffffffffffffffffffffffffff166323b872dd3330846040518463ffffffff1660e01b8152600401808473ffffffffffffffffffffffffffffffffffffffff1681526020018373ffffffffffffffffffffffffffffffffffffffff1681526020018281526020019350505050602060405180830381600087803b15801561089557600080fd5b505af11580156108a9573d6000803e3d6000fd5b505050506040513d60208110156108bf57600080fd5b8101908080519060200190929190505050506108e68160005461122d90919063ffffffff16565b600081905550600560009054906101000a900473ffffffffffffffffffffffffffffffffffffffff1673ffffffffffffffffffffffffffffffffffffffff16635f788d6582600160009054906101000a900473ffffffffffffffffffffffffffffffffffffffff166040518363ffffffff1660e01b8152600401808381526020018273ffffffffffffffffffffffffffffffffffffffff16815260200192505050600060405180830381600087803b1580156109a157600080fd5b505af11580156109b5573d6000803e3d6000fd5b50505050600660009054906101000a900473ffffffffffffffffffffffffffffffffffffffff1673ffffffffffffffffffffffffffffffffffffffff16637dacef906000546040518263ffffffff1660e01b815260040180828152602001915050600060405180830381600087803b158015610a3057600080fd5b505af1158015610a44573d6000803e3d6000fd5b5050505050565b600360009054906101000a900473ffffffffffffffffffffffffffffffffffffffff1681565b60005481565b600160009054906101000a900473ffffffffffffffffffffffffffffffffffffffff1681565b6000600560009054906101000a900473ffffffffffffffffffffffffffffffffffffffff1673ffffffffffffffffffffffffffffffffffffffff16631cdc4700306040518263ffffffff1660e01b8152600401808273ffffffffffffffffffffffffffffffffffffffff16815260200191505060206040518083038186803b158015610b2857600080fd5b505afa158015610b3c573d6000803e3d6000fd5b505050506040513d6020811015610b5257600080fd5b810190808051906020019092919050505090506000811115610d72576000610b85826000546112b590919063ffffffff16565b90506000811115610cab57600660009054906101000a900473ffffffffffffffffffffffffffffffffffffffff1673ffffffffffffffffffffffffffffffffffffffff1663c619c616826040518263ffffffff1660e01b815260040180828152602001915050600060405180830381600087803b158015610c0557600080fd5b505af1158015610c19573d6000803e3d6000fd5b50505050600660009054906101000a900473ffffffffffffffffffffffffffffffffffffffff1673ffffffffffffffffffffffffffffffffffffffff16637dacef90836040518263ffffffff1660e01b815260040180828152602001915050600060405180830381600087803b158015610c9257600080fd5b505af1158015610ca6573d6000803e3d6000fd5b505050505b600660009054906101000a900473ffffffffffffffffffffffffffffffffffffffff1673ffffffffffffffffffffffffffffffffffffffff16631e83409a600260009054906101000a900473ffffffffffffffffffffffffffffffffffffffff166040518263ffffffff1660e01b8152600401808273ffffffffffffffffffffffffffffffffffffffff168152602001915050600060405180830381600087803b158015610d5857600080fd5b505af1158015610d6c573d6000803e3d6000fd5b50505050505b8060008190555050565b6000600360009054906101000a900473ffffffffffffffffffffffffffffffffffffffff1673ffffffffffffffffffffffffffffffffffffffff166370a08231306040518263ffffffff1660e01b8152600401808273ffffffffffffffffffffffffffffffffffffffff16815260200191505060206040518083038186803b158015610e0757600080fd5b505afa158015610e1b573d6000803e3d6000fd5b505050506040513d6020811015610e3157600080fd5b8101908080519060200190929190505050905080821115610f3b57600360009054906101000a900473ffffffffffffffffffffffffffffffffffffffff1673ffffffffffffffffffffffffffffffffffffffff1663a9059cbb84836040518363ffffffff1660e01b8152600401808373ffffffffffffffffffffffffffffffffffffffff16815260200182815260200192505050602060405180830381600087803b158015610edf57600080fd5b505af1158015610ef3573d6000803e3d6000fd5b505050506040513d6020811015610f0957600080fd5b810190808051906020019092919050505050610f30816000546112b590919063ffffffff16565b600081905550611026565b600360009054906101000a900473ffffffffffffffffffffffffffffffffffffffff1673ffffffffffffffffffffffffffffffffffffffff1663a9059cbb84846040518363ffffffff1660e01b8152600401808373ffffffffffffffffffffffffffffffffffffffff16815260200182815260200192505050602060405180830381600087803b158015610fce57600080fd5b505af1158015610fe2573d6000803e3d6000fd5b505050506040513d6020811015610ff857600080fd5b81019080805190602001909291905050505061101f826000546112b590919063ffffffff16565b6000819055505b505050565b60003073ffffffffffffffffffffffffffffffffffffffff163190508173ffffffffffffffffffffffffffffffffffffffff166108fc829081150290604051600060405180830381858888f1935050505015801561108d573d6000803e3d6000fd5b505050565b6000600460009054906101000a900473ffffffffffffffffffffffffffffffffffffffff1673ffffffffffffffffffffffffffffffffffffffff166370a08231306040518263ffffffff1660e01b8152600401808273ffffffffffffffffffffffffffffffffffffffff16815260200191505060206040518083038186803b15801561111d57600080fd5b505afa158015611131573d6000803e3d6000fd5b505050506040513d602081101561114757600080fd5b81019080805190602001909291905050509050600460009054906101000a900473ffffffffffffffffffffffffffffffffffffffff1673ffffffffffffffffffffffffffffffffffffffff1663a9059cbb83836040518363ffffffff1660e01b8152600401808373ffffffffffffffffffffffffffffffffffffffff16815260200182815260200192505050602060405180830381600087803b1580156111ed57600080fd5b505af1158015611201573d6000803e3d6000fd5b505050506040513d602081101561121757600080fd5b8101908080519060200190929190505050505050565b6000808284019050838110156112ab576040517f08c379a000000000000000000000000000000000000000000000000000000000815260040180806020018281038252601b8152602001807f536166654d6174683a206164646974696f6e206f766572666c6f77000000000081525060200191505060405180910390fd5b8091505092915050565b60008282111561132d576040517f08c379a000000000000000000000000000000000000000000000000000000000815260040180806020018281038252601e8152602001807f536166654d6174683a207375627472616374696f6e206f766572666c6f77000081525060200191505060405180910390fd5b81830390509291505056fe576974686472617720697320666f72206d6f7265207468616e2062616c616e636520616d6f756e74a2646970667358221220943d9651721e1e9cc432b86fb5cc0569e19756e6af9aa1e145afd83cef6eccde64736f6c63430007060033536166654d6174683a206d756c7469706c69636174696f6e206f766572666c6f77a2646970667358221220d7b7ab06d78c548de1b4056261e25eb49ee5ca613e3d710c100de5f3d25eb69f64736f6c63430007060033",
  "immutableReferences": {},
  "source": "pragma solidity >=0.6.0 <0.8.0;\n\n// import \"@optionality.io/clone-factory/contracts/CloneFactory.sol\";\nimport \"@openzeppelin/contracts/math/SafeMath.sol\";\nimport \"@openzeppelin/contracts/token/ERC20/IERC20.sol\";\nimport \"./StabilityProxy.sol\";\nimport \"./StringToken.sol\";\nimport \"./Interfaces/IStabilityPool.sol\";\n\ncontract StabilityFactory {\n    using SafeMath for uint256;\n\n    struct PoolInfo {\n        uint256 lastRewardBlock; // Last block number that SUSHIs distribution occurs.\n        uint256 accStringPerShare; // Accumulated SUSHIs per share, times 1e12. See below.\n    }\n\n    struct UserProxy {\n        StabilityProxy proxyAddress;\n        uint256 amount;\n        uint256 rewardDebt;\n    }\n\n    // address public impli;\n    address public frontEnd;\n    mapping(address => UserProxy) public userProxys;\n    mapping(address => bool) public registeredClone;\n    uint256 public totalLUSD;\n    PoolInfo public pool;\n    StringToken public stringToken;\n    IStabilityPool public stabilityPool;\n    IERC20 public lusdToken;\n    uint256 public stringPerBlock = 923076923100000000;\n    uint256 public endBlock;\n    uint256 public postBoostedBlock;\n    uint256 public constant boostedMultiplier = 5;\n    bool public isBoosted = true;\n\n    modifier isRegClone() {\n        require(\n            registeredClone[msg.sender] == true,\n            \"only owner can call this method\"\n        );\n        _;\n    }\n\n    constructor(\n        address _frontEnd,\n        // address _impli,\n        IERC20 _lusdToken,\n        StringToken _stringToken,\n        IStabilityPool _stabilityPool\n    ) {\n        frontEnd = _frontEnd;\n        // impli = _impli;\n        pool = PoolInfo({lastRewardBlock: block.number, accStringPerShare: 0});\n        stringToken = _stringToken;\n        lusdToken = _lusdToken;\n        endBlock = block.number.add(2437500);\n        stabilityPool = _stabilityPool;\n    }\n\n    function pendingString(address _user) external view returns (uint256) {\n        UserProxy storage proxy = userProxys[_user];\n        uint256 accStringPerShare = pool.accStringPerShare;\n        uint256 lpSupply = totalLUSD;\n        if (block.number > pool.lastRewardBlock && lpSupply != 0) {\n            uint256 multiplier =\n                getMultiplier(pool.lastRewardBlock, block.number);\n            uint256 stringReward = multiplier.mul(stringPerBlock);\n            accStringPerShare = accStringPerShare.add(\n                stringReward.mul(1e12).div(lpSupply)\n            );\n        }\n        uint256 pending =\n            proxy.amount.mul(accStringPerShare).div(1e12).sub(proxy.rewardDebt);\n\n        if (isBoosted) {\n            return pending.mul(boostedMultiplier);\n        } else {\n            return pending;\n        }\n    }\n\n    function getMultiplier(uint256 _from, uint256 _to)\n        public\n        view\n        returns (uint256)\n    {\n        if (_to <= endBlock) {\n            return _to.sub(_from);\n        } else if (_from >= endBlock) {\n            return 0;\n        } else {\n            return endBlock.sub(_from);\n        }\n    }\n\n    function updateProxyBalance(uint256 _amount) public isRegClone {\n        userProxys[msg.sender].amount = _amount;\n    }\n\n    function update() public {\n        if (block.number <= pool.lastRewardBlock) {\n            return;\n        }\n        uint256 lpSupply = totalLUSD;\n        if (lpSupply == 0) {\n            pool.lastRewardBlock = block.number;\n            return;\n        }\n        uint256 multiplier = getMultiplier(pool.lastRewardBlock, block.number);\n        uint256 stringReward = multiplier.mul(stringPerBlock);\n        if (block.number < postBoostedBlock) {\n            uint256 boostedReward = stringReward.mul(boostedMultiplier);\n            stringToken.mintTo(address(this), boostedReward);\n        } else {\n            if (isBoosted) {\n                isBoosted = false;\n            }\n            stringToken.mintTo(address(this), stringReward);\n        }\n\n        pool.accStringPerShare = pool.accStringPerShare.add(\n            stringReward.mul(1e12).div(lpSupply)\n        );\n        pool.lastRewardBlock = block.number;\n    }\n\n    function claim(address _sender) public {\n        UserProxy storage proxy = userProxys[_sender];\n        uint256 pending = _pending(proxy.amount, proxy.rewardDebt);\n        _safeStringTransfer(_sender, pending);\n        proxy.rewardDebt = proxy.amount.mul(pool.accStringPerShare).div(1e12);\n    }\n\n    function addLUSD(uint256 _newAddition) public isRegClone {\n        totalLUSD = totalLUSD.add(_newAddition);\n        update();\n    }\n\n    function subtractLUSD(uint256 _newSubtract) public isRegClone {\n        totalLUSD = totalLUSD.sub(_newSubtract);\n        update();\n    }\n\n    function createStabilityProxy() public {\n        StabilityProxy clone =\n            new StabilityProxy(\n                msg.sender,\n                this,\n                frontEnd,\n                lusdToken,\n                stabilityPool\n            );\n        UserProxy memory proxy =\n            UserProxy({proxyAddress: clone, amount: 0, rewardDebt: 0});\n        userProxys[msg.sender] = proxy;\n        registeredClone[address(clone)] = true;\n    }\n\n    function _pending(uint256 _amount, uint256 _rewardDebt)\n        internal\n        view\n        returns (uint256)\n    {\n        uint256 rewardsToSend =\n            _amount.mul(pool.accStringPerShare).div(1e12).sub(_rewardDebt);\n        if (isBoosted) {\n            return rewardsToSend.mul(boostedMultiplier);\n        }\n        return rewardsToSend;\n    }\n\n    function _safeStringTransfer(address _to, uint256 _amount) internal {\n        uint256 stringBal = stringToken.balanceOf(address(this));\n        if (_amount > stringBal) {\n            stringToken.transfer(_to, stringBal);\n        } else {\n            stringToken.transfer(_to, _amount);\n        }\n    }\n}\n",
  "sourcePath": "/Users/dannywarrick/code/harp/client/src/contracts/StabilityFactory.sol",
  "compiler": {
    "name": "solc",
    "version": "0.7.6+commit.7338295f.Emscripten.clang"
  },
  "schemaVersion": "3.3.4",
  "updatedAt": "2021-03-26T17:09:01.241Z",
  "networkType": "ethereum",
  "devdoc": {
    "kind": "dev",
    "methods": {},
    "version": 1
  },
  "userdoc": {
    "kind": "user",
    "methods": {},
    "version": 1
  }
}