{
  "contractName": "StabilityFactory",
  "abi": [
    {
      "inputs": [
        {
          "internalType": "address",
          "name": "_frontEnd",
          "type": "address"
        },
        {
          "internalType": "contract IERC20",
          "name": "_lusdToken",
          "type": "address"
        },
        {
          "internalType": "contract IERC20",
          "name": "_lqtyToken",
          "type": "address"
        },
        {
          "internalType": "contract StringToken",
          "name": "_stringToken",
          "type": "address"
        },
        {
          "internalType": "contract IStabilityPool",
          "name": "_stabilityPool",
          "type": "address"
        }
      ],
      "stateMutability": "nonpayable",
      "type": "constructor"
    },
    {
      "anonymous": false,
      "inputs": [
        {
          "indexed": true,
          "internalType": "address",
          "name": "who",
          "type": "address"
        },
        {
          "indexed": false,
          "internalType": "uint256",
          "name": "amountClaimed",
          "type": "uint256"
        }
      ],
      "name": "Claim",
      "type": "event"
    },
    {
      "anonymous": false,
      "inputs": [
        {
          "indexed": true,
          "internalType": "address",
          "name": "who",
          "type": "address"
        },
        {
          "indexed": true,
          "internalType": "address",
          "name": "proxy",
          "type": "address"
        }
      ],
      "name": "Deploy",
      "type": "event"
    },
    {
      "inputs": [],
      "name": "boostedMultiplier",
      "outputs": [
        {
          "internalType": "uint256",
          "name": "",
          "type": "uint256"
        }
      ],
      "stateMutability": "view",
      "type": "function",
      "constant": true
    },
    {
      "inputs": [],
      "name": "endBlock",
      "outputs": [
        {
          "internalType": "uint256",
          "name": "",
          "type": "uint256"
        }
      ],
      "stateMutability": "view",
      "type": "function",
      "constant": true
    },
    {
      "inputs": [],
      "name": "frontEnd",
      "outputs": [
        {
          "internalType": "address",
          "name": "",
          "type": "address"
        }
      ],
      "stateMutability": "view",
      "type": "function",
      "constant": true
    },
    {
      "inputs": [],
      "name": "isBoosted",
      "outputs": [
        {
          "internalType": "bool",
          "name": "",
          "type": "bool"
        }
      ],
      "stateMutability": "view",
      "type": "function",
      "constant": true
    },
    {
      "inputs": [],
      "name": "lqtyToken",
      "outputs": [
        {
          "internalType": "contract IERC20",
          "name": "",
          "type": "address"
        }
      ],
      "stateMutability": "view",
      "type": "function",
      "constant": true
    },
    {
      "inputs": [],
      "name": "lusdToken",
      "outputs": [
        {
          "internalType": "contract IERC20",
          "name": "",
          "type": "address"
        }
      ],
      "stateMutability": "view",
      "type": "function",
      "constant": true
    },
    {
      "inputs": [],
      "name": "pool",
      "outputs": [
        {
          "internalType": "uint256",
          "name": "lastRewardBlock",
          "type": "uint256"
        },
        {
          "internalType": "uint256",
          "name": "accStringPerShare",
          "type": "uint256"
        }
      ],
      "stateMutability": "view",
      "type": "function",
      "constant": true
    },
    {
      "inputs": [],
      "name": "postBoostedBlock",
      "outputs": [
        {
          "internalType": "uint256",
          "name": "",
          "type": "uint256"
        }
      ],
      "stateMutability": "view",
      "type": "function",
      "constant": true
    },
    {
      "inputs": [
        {
          "internalType": "address",
          "name": "",
          "type": "address"
        }
      ],
      "name": "registeredClone",
      "outputs": [
        {
          "internalType": "bool",
          "name": "",
          "type": "bool"
        }
      ],
      "stateMutability": "view",
      "type": "function",
      "constant": true
    },
    {
      "inputs": [],
      "name": "stabilityPool",
      "outputs": [
        {
          "internalType": "contract IStabilityPool",
          "name": "",
          "type": "address"
        }
      ],
      "stateMutability": "view",
      "type": "function",
      "constant": true
    },
    {
      "inputs": [],
      "name": "stringPerBlock",
      "outputs": [
        {
          "internalType": "uint256",
          "name": "",
          "type": "uint256"
        }
      ],
      "stateMutability": "view",
      "type": "function",
      "constant": true
    },
    {
      "inputs": [],
      "name": "stringToken",
      "outputs": [
        {
          "internalType": "contract StringToken",
          "name": "",
          "type": "address"
        }
      ],
      "stateMutability": "view",
      "type": "function",
      "constant": true
    },
    {
      "inputs": [],
      "name": "totalLUSD",
      "outputs": [
        {
          "internalType": "uint256",
          "name": "",
          "type": "uint256"
        }
      ],
      "stateMutability": "view",
      "type": "function",
      "constant": true
    },
    {
      "inputs": [
        {
          "internalType": "address",
          "name": "",
          "type": "address"
        }
      ],
      "name": "userProxys",
      "outputs": [
        {
          "internalType": "contract StabilityProxy",
          "name": "proxyAddress",
          "type": "address"
        },
        {
          "internalType": "uint256",
          "name": "amount",
          "type": "uint256"
        },
        {
          "internalType": "uint256",
          "name": "rewardDebt",
          "type": "uint256"
        }
      ],
      "stateMutability": "view",
      "type": "function",
      "constant": true
    },
    {
      "inputs": [
        {
          "internalType": "address",
          "name": "_user",
          "type": "address"
        }
      ],
      "name": "pendingString",
      "outputs": [
        {
          "internalType": "uint256",
          "name": "",
          "type": "uint256"
        }
      ],
      "stateMutability": "view",
      "type": "function",
      "constant": true
    },
    {
      "inputs": [
        {
          "internalType": "uint256",
          "name": "_from",
          "type": "uint256"
        },
        {
          "internalType": "uint256",
          "name": "_to",
          "type": "uint256"
        }
      ],
      "name": "getMultiplier",
      "outputs": [
        {
          "internalType": "uint256",
          "name": "",
          "type": "uint256"
        }
      ],
      "stateMutability": "view",
      "type": "function",
      "constant": true
    },
    {
      "inputs": [
        {
          "internalType": "uint256",
          "name": "_amount",
          "type": "uint256"
        },
        {
          "internalType": "address",
          "name": "_owner",
          "type": "address"
        }
      ],
      "name": "updateProxyBalance",
      "outputs": [],
      "stateMutability": "nonpayable",
      "type": "function"
    },
    {
      "inputs": [],
      "name": "update",
      "outputs": [],
      "stateMutability": "nonpayable",
      "type": "function"
    },
    {
      "inputs": [
        {
          "internalType": "address",
          "name": "_sender",
          "type": "address"
        }
      ],
      "name": "claim",
      "outputs": [],
      "stateMutability": "nonpayable",
      "type": "function"
    },
    {
      "inputs": [
        {
          "internalType": "uint256",
          "name": "_newAddition",
          "type": "uint256"
        }
      ],
      "name": "addLUSD",
      "outputs": [],
      "stateMutability": "nonpayable",
      "type": "function"
    },
    {
      "inputs": [
        {
          "internalType": "uint256",
          "name": "_newSubtract",
          "type": "uint256"
        }
      ],
      "name": "subtractLUSD",
      "outputs": [],
      "stateMutability": "nonpayable",
      "type": "function"
    },
    {
      "inputs": [],
      "name": "createStabilityProxy",
      "outputs": [],
      "stateMutability": "nonpayable",
      "type": "function"
    }
  ],
  "bytecode": "0x6080604052670ccf6d9225bc6f00600a556001600d60006101000a81548160ff02191690831515021790555034801561003757600080fd5b506040516134ba3803806134ba833981810160405260a081101561005a57600080fd5b810190808051906020019092919080519060200190929190805190602001909291908051906020019092919080519060200190929190505050846000806101000a81548173ffffffffffffffffffffffffffffffffffffffff021916908373ffffffffffffffffffffffffffffffffffffffff160217905550604051806040016040528043815260200160008152506004600082015181600001556020820151816001015590505081600660006101000a81548173ffffffffffffffffffffffffffffffffffffffff021916908373ffffffffffffffffffffffffffffffffffffffff16021790555083600860006101000a81548173ffffffffffffffffffffffffffffffffffffffff021916908373ffffffffffffffffffffffffffffffffffffffff16021790555082600960006101000a81548173ffffffffffffffffffffffffffffffffffffffff021916908373ffffffffffffffffffffffffffffffffffffffff1602179055506101df6225317c4361023060201b61122b1790919060201c565b600b8190555080600760006101000a81548173ffffffffffffffffffffffffffffffffffffffff021916908373ffffffffffffffffffffffffffffffffffffffff16021790555050505050506102b8565b6000808284019050838110156102ae576040517f08c379a000000000000000000000000000000000000000000000000000000000815260040180806020018281038252601b8152602001807f536166654d6174683a206164646974696f6e206f766572666c6f77000000000081525060200191505060405180910390fd5b8091505092915050565b6131f3806102c76000396000f3fe608060405234801561001057600080fd5b50600436106101425760003560e01c80638dbb1e3a116100b8578063b83f91a21161007c578063b83f91a214610430578063c619c61614610464578063d435fb1c14610492578063df5e8987146104e0578063e7514c9a14610514578063f831640a1461054857610142565b80638dbb1e3a14610320578063908525771461036c578063910880ad146103e8578063a2e6204514610406578063b68975591461041057610142565b80631e83409a1161010a5780631e83409a146101fa5780631f7af3c31461023e57806320a83d3914610272578063350bac34146102a057806366bf9ae4146102be5780637a3774a11461031657610142565b8063048c661d14610147578063083c63231461017b5780630b5f91fc146101995780630d483ae1146101b757806316f0115b146101d5575b600080fd5b61014f6105a2565b604051808273ffffffffffffffffffffffffffffffffffffffff16815260200191505060405180910390f35b6101836105c8565b6040518082815260200191505060405180910390f35b6101a16105ce565b6040518082815260200191505060405180910390f35b6101bf6105d4565b6040518082815260200191505060405180910390f35b6101dd6105d9565b604051808381526020018281526020019250505060405180910390f35b61023c6004803603602081101561021057600080fd5b81019080803573ffffffffffffffffffffffffffffffffffffffff1690602001909291905050506105eb565b005b6102466106dc565b604051808273ffffffffffffffffffffffffffffffffffffffff16815260200191505060405180910390f35b61029e6004803603602081101561028857600080fd5b8101908080359060200190929190505050610702565b005b6102a86107e6565b6040518082815260200191505060405180910390f35b610300600480360360208110156102d457600080fd5b81019080803573ffffffffffffffffffffffffffffffffffffffff1690602001909291905050506107ec565b6040518082815260200191505060405180910390f35b61031e610951565b005b6103566004803603604081101561033657600080fd5b810190808035906020019092919080359060200190929190505050610c46565b6040518082815260200191505060405180910390f35b6103ae6004803603602081101561038257600080fd5b81019080803573ffffffffffffffffffffffffffffffffffffffff169060200190929190505050610c9b565b604051808473ffffffffffffffffffffffffffffffffffffffff168152602001838152602001828152602001935050505060405180910390f35b6103f0610ce5565b6040518082815260200191505060405180910390f35b61040e610ceb565b005b610418610f52565b60405180821515815260200191505060405180910390f35b610438610f65565b604051808273ffffffffffffffffffffffffffffffffffffffff16815260200191505060405180910390f35b6104906004803603602081101561047a57600080fd5b8101908080359060200190929190505050610f8b565b005b6104de600480360360408110156104a857600080fd5b8101908080359060200190929190803573ffffffffffffffffffffffffffffffffffffffff16906020019092919050505061106f565b005b6104e86111c1565b604051808273ffffffffffffffffffffffffffffffffffffffff16815260200191505060405180910390f35b61051c6111e7565b604051808273ffffffffffffffffffffffffffffffffffffffff16815260200191505060405180910390f35b61058a6004803603602081101561055e57600080fd5b81019080803573ffffffffffffffffffffffffffffffffffffffff16906020019092919050505061120b565b60405180821515815260200191505060405180910390f35b600760009054906101000a900473ffffffffffffffffffffffffffffffffffffffff1681565b600b5481565b600c5481565b600581565b60048060000154908060010154905082565b6000600160008373ffffffffffffffffffffffffffffffffffffffff1673ffffffffffffffffffffffffffffffffffffffff16815260200190815260200160002090506000610642826001015483600201546112b3565b905061064e8382611335565b61068164e8d4a5100061067360046001015485600101546115ae90919063ffffffff16565b61163490919063ffffffff16565b82600201819055508273ffffffffffffffffffffffffffffffffffffffff167f47cee97cb7acd717b3c0aa1435d004cd5b3c8c57d70dbceb4e4458bbd60e39d4826040518082815260200191505060405180910390a2505050565b600960009054906101000a900473ffffffffffffffffffffffffffffffffffffffff1681565b60011515600260003373ffffffffffffffffffffffffffffffffffffffff1673ffffffffffffffffffffffffffffffffffffffff16815260200190815260200160002060009054906101000a900460ff161515146107c8576040517f08c379a000000000000000000000000000000000000000000000000000000000815260040180806020018281038252601f8152602001807f6f6e6c79206f776e65722063616e2063616c6c2074686973206d6574686f640081525060200191505060405180910390fd5b6107dd8160035461122b90919063ffffffff16565b60038190555050565b600a5481565b600080600160008473ffffffffffffffffffffffffffffffffffffffff1673ffffffffffffffffffffffffffffffffffffffff1681526020019081526020016000209050600060046001015490506000600354905060046000015443118015610856575060008114155b156108c857600061086c60046000015443610c46565b90506000610885600a54836115ae90919063ffffffff16565b90506108c36108b4846108a664e8d4a51000856115ae90919063ffffffff16565b61163490919063ffffffff16565b8561122b90919063ffffffff16565b935050505b600061090e846002015461090064e8d4a510006108f28789600101546115ae90919063ffffffff16565b61163490919063ffffffff16565b6116bd90919063ffffffff16565b9050600d60009054906101000a900460ff1615610944576109396005826115ae90919063ffffffff16565b94505050505061094c565b809450505050505b919050565b6000333060008054906101000a900473ffffffffffffffffffffffffffffffffffffffff16600860009054906101000a900473ffffffffffffffffffffffffffffffffffffffff16600960009054906101000a900473ffffffffffffffffffffffffffffffffffffffff16600760009054906101000a900473ffffffffffffffffffffffffffffffffffffffff166040516109eb90611740565b808773ffffffffffffffffffffffffffffffffffffffff1681526020018673ffffffffffffffffffffffffffffffffffffffff1681526020018573ffffffffffffffffffffffffffffffffffffffff1681526020018473ffffffffffffffffffffffffffffffffffffffff1681526020018373ffffffffffffffffffffffffffffffffffffffff1681526020018273ffffffffffffffffffffffffffffffffffffffff1681526020019650505050505050604051809103906000f080158015610ab8573d6000803e3d6000fd5b509050600060405180606001604052808373ffffffffffffffffffffffffffffffffffffffff168152602001600081526020016000815250905080600160003373ffffffffffffffffffffffffffffffffffffffff1673ffffffffffffffffffffffffffffffffffffffff16815260200190815260200160002060008201518160000160006101000a81548173ffffffffffffffffffffffffffffffffffffffff021916908373ffffffffffffffffffffffffffffffffffffffff16021790555060208201518160010155604082015181600201559050506001600260008473ffffffffffffffffffffffffffffffffffffffff1673ffffffffffffffffffffffffffffffffffffffff16815260200190815260200160002060006101000a81548160ff0219169083151502179055508173ffffffffffffffffffffffffffffffffffffffff163373ffffffffffffffffffffffffffffffffffffffff167fb1a29087760d8e8f9b263f598962f752e7bd23badd44897e2966d376d1a59dca60405160405180910390a35050565b6000600b548211610c6b57610c6483836116bd90919063ffffffff16565b9050610c95565b600b548310610c7d5760009050610c95565b610c9283600b546116bd90919063ffffffff16565b90505b92915050565b60016020528060005260406000206000915090508060000160009054906101000a900473ffffffffffffffffffffffffffffffffffffffff16908060010154908060020154905083565b60035481565b6004600001544311610cfc57610f50565b600060035490506000811415610d1c574360046000018190555050610f50565b6000610d2d60046000015443610c46565b90506000610d46600a54836115ae90919063ffffffff16565b9050600c54431015610e1b576000610d686005836115ae90919063ffffffff16565b9050600660009054906101000a900473ffffffffffffffffffffffffffffffffffffffff1673ffffffffffffffffffffffffffffffffffffffff1663449a52f830836040518363ffffffff1660e01b8152600401808373ffffffffffffffffffffffffffffffffffffffff16815260200182815260200192505050600060405180830381600087803b158015610dfd57600080fd5b505af1158015610e11573d6000803e3d6000fd5b5050505050610ef8565b600d60009054906101000a900460ff1615610e4c576000600d60006101000a81548160ff0219169083151502179055505b600660009054906101000a900473ffffffffffffffffffffffffffffffffffffffff1673ffffffffffffffffffffffffffffffffffffffff1663449a52f830836040518363ffffffff1660e01b8152600401808373ffffffffffffffffffffffffffffffffffffffff16815260200182815260200192505050600060405180830381600087803b158015610edf57600080fd5b505af1158015610ef3573d6000803e3d6000fd5b505050505b610f39610f2584610f1764e8d4a51000856115ae90919063ffffffff16565b61163490919063ffffffff16565b60046001015461122b90919063ffffffff16565b600460010181905550436004600001819055505050505b565b600d60009054906101000a900460ff1681565b600860009054906101000a900473ffffffffffffffffffffffffffffffffffffffff1681565b60011515600260003373ffffffffffffffffffffffffffffffffffffffff1673ffffffffffffffffffffffffffffffffffffffff16815260200190815260200160002060009054906101000a900460ff16151514611051576040517f08c379a000000000000000000000000000000000000000000000000000000000815260040180806020018281038252601f8152602001807f6f6e6c79206f776e65722063616e2063616c6c2074686973206d6574686f640081525060200191505060405180910390fd5b611066816003546116bd90919063ffffffff16565b60038190555050565b60011515600260003373ffffffffffffffffffffffffffffffffffffffff1673ffffffffffffffffffffffffffffffffffffffff16815260200190815260200160002060009054906101000a900460ff16151514611135576040517f08c379a000000000000000000000000000000000000000000000000000000000815260040180806020018281038252601f8152602001807f6f6e6c79206f776e65722063616e2063616c6c2074686973206d6574686f640081525060200191505060405180910390fd5b6000600160008373ffffffffffffffffffffffffffffffffffffffff1673ffffffffffffffffffffffffffffffffffffffff16815260200190815260200160002090508281600101819055506111b464e8d4a510006111a660046001015484600101546115ae90919063ffffffff16565b61163490919063ffffffff16565b8160020181905550505050565b600660009054906101000a900473ffffffffffffffffffffffffffffffffffffffff1681565b60008054906101000a900473ffffffffffffffffffffffffffffffffffffffff1681565b60026020528060005260406000206000915054906101000a900460ff1681565b6000808284019050838110156112a9576040517f08c379a000000000000000000000000000000000000000000000000000000000815260040180806020018281038252601b8152602001807f536166654d6174683a206164646974696f6e206f766572666c6f77000000000081525060200191505060405180910390fd5b8091505092915050565b6000806112f7836112e964e8d4a510006112db600460010154896115ae90919063ffffffff16565b61163490919063ffffffff16565b6116bd90919063ffffffff16565b9050600d60009054906101000a900460ff161561132a576113226005826115ae90919063ffffffff16565b91505061132f565b809150505b92915050565b6000600660009054906101000a900473ffffffffffffffffffffffffffffffffffffffff1673ffffffffffffffffffffffffffffffffffffffff166370a08231306040518263ffffffff1660e01b8152600401808273ffffffffffffffffffffffffffffffffffffffff16815260200191505060206040518083038186803b1580156113c057600080fd5b505afa1580156113d4573d6000803e3d6000fd5b505050506040513d60208110156113ea57600080fd5b81019080805190602001909291905050509050808211156114d957600660009054906101000a900473ffffffffffffffffffffffffffffffffffffffff1673ffffffffffffffffffffffffffffffffffffffff1663a9059cbb84836040518363ffffffff1660e01b8152600401808373ffffffffffffffffffffffffffffffffffffffff16815260200182815260200192505050602060405180830381600087803b15801561149857600080fd5b505af11580156114ac573d6000803e3d6000fd5b505050506040513d60208110156114c257600080fd5b8101908080519060200190929190505050506115a9565b600660009054906101000a900473ffffffffffffffffffffffffffffffffffffffff1673ffffffffffffffffffffffffffffffffffffffff1663a9059cbb84846040518363ffffffff1660e01b8152600401808373ffffffffffffffffffffffffffffffffffffffff16815260200182815260200192505050602060405180830381600087803b15801561156c57600080fd5b505af1158015611580573d6000803e3d6000fd5b505050506040513d602081101561159657600080fd5b8101908080519060200190929190505050505b505050565b6000808314156115c1576000905061162e565b60008284029050828482816115d257fe5b0414611629576040517f08c379a000000000000000000000000000000000000000000000000000000000815260040180806020018281038252602181526020018061319d6021913960400191505060405180910390fd5b809150505b92915050565b60008082116116ab576040517f08c379a000000000000000000000000000000000000000000000000000000000815260040180806020018281038252601a8152602001807f536166654d6174683a206469766973696f6e206279207a65726f00000000000081525060200191505060405180910390fd5b8183816116b457fe5b04905092915050565b600082821115611735576040517f08c379a000000000000000000000000000000000000000000000000000000000815260040180806020018281038252601e8152602001807f536166654d6174683a207375627472616374696f6e206f766572666c6f77000081525060200191505060405180910390fd5b818303905092915050565b611a4f8061174e8339019056fe608060405234801561001057600080fd5b50604051611a4f380380611a4f833981810160405260c081101561003357600080fd5b8101908080519060200190929190805190602001909291908051906020019092919080519060200190929190805190602001909291908051906020019092919050505085600260006101000a81548173ffffffffffffffffffffffffffffffffffffffff021916908373ffffffffffffffffffffffffffffffffffffffff16021790555082600360006101000a81548173ffffffffffffffffffffffffffffffffffffffff021916908373ffffffffffffffffffffffffffffffffffffffff16021790555081600460006101000a81548173ffffffffffffffffffffffffffffffffffffffff021916908373ffffffffffffffffffffffffffffffffffffffff16021790555080600560006101000a81548173ffffffffffffffffffffffffffffffffffffffff021916908373ffffffffffffffffffffffffffffffffffffffff16021790555083600160006101000a81548173ffffffffffffffffffffffffffffffffffffffff021916908373ffffffffffffffffffffffffffffffffffffffff16021790555084600660006101000a81548173ffffffffffffffffffffffffffffffffffffffff021916908373ffffffffffffffffffffffffffffffffffffffff16021790555050505050505061183e806102116000396000f3fe608060405234801561001057600080fd5b506004361061009e5760003560e01c80638da5cb5b116100665780638da5cb5b14610177578063b6b55f25146101ab578063b83f91a2146101d9578063b9f6d8ff1461020d578063e7514c9a1461022b5761009e565b8063048c661d146100a35780631f7af3c3146100d75780632e1a7d4d1461010b5780633af82b17146101395780634e71d92d1461016d575b600080fd5b6100ab61025f565b604051808273ffffffffffffffffffffffffffffffffffffffff16815260200191505060405180910390f35b6100df610285565b604051808273ffffffffffffffffffffffffffffffffffffffff16815260200191505060405180910390f35b6101376004803603602081101561012157600080fd5b81019080803590602001909291905050506102ab565b005b61014161062c565b604051808273ffffffffffffffffffffffffffffffffffffffff16815260200191505060405180910390f35b610175610652565b005b61017f610885565b604051808273ffffffffffffffffffffffffffffffffffffffff16815260200191505060405180910390f35b6101d7600480360360208110156101c157600080fd5b81019080803590602001909291905050506108ab565b005b6101e1610d85565b604051808273ffffffffffffffffffffffffffffffffffffffff16815260200191505060405180910390f35b610215610dab565b6040518082815260200191505060405180910390f35b610233610db1565b604051808273ffffffffffffffffffffffffffffffffffffffff16815260200191505060405180910390f35b600560009054906101000a900473ffffffffffffffffffffffffffffffffffffffff1681565b600460009054906101000a900473ffffffffffffffffffffffffffffffffffffffff1681565b600260009054906101000a900473ffffffffffffffffffffffffffffffffffffffff1673ffffffffffffffffffffffffffffffffffffffff163373ffffffffffffffffffffffffffffffffffffffff161461036e576040517f08c379a000000000000000000000000000000000000000000000000000000000815260040180806020018281038252601f8152602001807f6f6e6c79206f776e65722063616e2063616c6c2074686973206d6574686f640081525060200191505060405180910390fd5b6000548111156103c9576040517f08c379a00000000000000000000000000000000000000000000000000000000081526004018080602001828103825260288152602001806117e16028913960400191505060405180910390fd5b600660009054906101000a900473ffffffffffffffffffffffffffffffffffffffff1673ffffffffffffffffffffffffffffffffffffffff1663a2e620456040518163ffffffff1660e01b8152600401600060405180830381600087803b15801561043357600080fd5b505af1158015610447573d6000803e3d6000fd5b50505050610453610dd7565b600560009054906101000a900473ffffffffffffffffffffffffffffffffffffffff1673ffffffffffffffffffffffffffffffffffffffff16632e54bf95826040518263ffffffff1660e01b815260040180828152602001915050600060405180830381600087803b1580156104c857600080fd5b505af11580156104dc573d6000803e3d6000fd5b5050505061050c600260009054906101000a900473ffffffffffffffffffffffffffffffffffffffff16826110f6565b600660009054906101000a900473ffffffffffffffffffffffffffffffffffffffff1673ffffffffffffffffffffffffffffffffffffffff1663d435fb1c600054600260009054906101000a900473ffffffffffffffffffffffffffffffffffffffff166040518363ffffffff1660e01b8152600401808381526020018273ffffffffffffffffffffffffffffffffffffffff16815260200192505050600060405180830381600087803b1580156105c357600080fd5b505af11580156105d7573d6000803e3d6000fd5b505050503373ffffffffffffffffffffffffffffffffffffffff167f884edad9ce6fa2440d8a54cc123490eb96d2768479d49ff9c7366125a9424364826040518082815260200191505060405180910390a250565b600660009054906101000a900473ffffffffffffffffffffffffffffffffffffffff1681565b600260009054906101000a900473ffffffffffffffffffffffffffffffffffffffff1673ffffffffffffffffffffffffffffffffffffffff163373ffffffffffffffffffffffffffffffffffffffff1614610715576040517f08c379a000000000000000000000000000000000000000000000000000000000815260040180806020018281038252601f8152602001807f6f6e6c79206f776e65722063616e2063616c6c2074686973206d6574686f640081525060200191505060405180910390fd5b600660009054906101000a900473ffffffffffffffffffffffffffffffffffffffff1673ffffffffffffffffffffffffffffffffffffffff1663a2e620456040518163ffffffff1660e01b8152600401600060405180830381600087803b15801561077f57600080fd5b505af1158015610793573d6000803e3d6000fd5b5050505061079f610dd7565b600560009054906101000a900473ffffffffffffffffffffffffffffffffffffffff1673ffffffffffffffffffffffffffffffffffffffff16632e54bf9560006040518263ffffffff1660e01b815260040180828152602001915050600060405180830381600087803b15801561081557600080fd5b505af1158015610829573d6000803e3d6000fd5b50505050610858600260009054906101000a900473ffffffffffffffffffffffffffffffffffffffff166114bf565b610883600260009054906101000a900473ffffffffffffffffffffffffffffffffffffffff16611530565b565b600260009054906101000a900473ffffffffffffffffffffffffffffffffffffffff1681565b600260009054906101000a900473ffffffffffffffffffffffffffffffffffffffff1673ffffffffffffffffffffffffffffffffffffffff163373ffffffffffffffffffffffffffffffffffffffff161461096e576040517f08c379a000000000000000000000000000000000000000000000000000000000815260040180806020018281038252601f8152602001807f6f6e6c79206f776e65722063616e2063616c6c2074686973206d6574686f640081525060200191505060405180910390fd5b600660009054906101000a900473ffffffffffffffffffffffffffffffffffffffff1673ffffffffffffffffffffffffffffffffffffffff1663a2e620456040518163ffffffff1660e01b8152600401600060405180830381600087803b1580156109d857600080fd5b505af11580156109ec573d6000803e3d6000fd5b50505050600080541115610a0357610a02610dd7565b5b600360009054906101000a900473ffffffffffffffffffffffffffffffffffffffff1673ffffffffffffffffffffffffffffffffffffffff166323b872dd3330846040518463ffffffff1660e01b8152600401808473ffffffffffffffffffffffffffffffffffffffff1681526020018373ffffffffffffffffffffffffffffffffffffffff1681526020018281526020019350505050602060405180830381600087803b158015610ab457600080fd5b505af1158015610ac8573d6000803e3d6000fd5b505050506040513d6020811015610ade57600080fd5b810190808051906020019092919050505050600660009054906101000a900473ffffffffffffffffffffffffffffffffffffffff1673ffffffffffffffffffffffffffffffffffffffff166320a83d39826040518263ffffffff1660e01b815260040180828152602001915050600060405180830381600087803b158015610b6557600080fd5b505af1158015610b79573d6000803e3d6000fd5b50505050610b92816000546116d590919063ffffffff16565b600081905550600560009054906101000a900473ffffffffffffffffffffffffffffffffffffffff1673ffffffffffffffffffffffffffffffffffffffff16635f788d6582600160009054906101000a900473ffffffffffffffffffffffffffffffffffffffff166040518363ffffffff1660e01b8152600401808381526020018273ffffffffffffffffffffffffffffffffffffffff16815260200192505050600060405180830381600087803b158015610c4d57600080fd5b505af1158015610c61573d6000803e3d6000fd5b50505050600660009054906101000a900473ffffffffffffffffffffffffffffffffffffffff1673ffffffffffffffffffffffffffffffffffffffff1663d435fb1c600054600260009054906101000a900473ffffffffffffffffffffffffffffffffffffffff166040518363ffffffff1660e01b8152600401808381526020018273ffffffffffffffffffffffffffffffffffffffff16815260200192505050600060405180830381600087803b158015610d1c57600080fd5b505af1158015610d30573d6000803e3d6000fd5b505050503373ffffffffffffffffffffffffffffffffffffffff167fe1fffcc4923d04b559f4d29a8bfc6cda04eb5b0d3c460751c2402c5c5cc9109c826040518082815260200191505060405180910390a250565b600360009054906101000a900473ffffffffffffffffffffffffffffffffffffffff1681565b60005481565b600160009054906101000a900473ffffffffffffffffffffffffffffffffffffffff1681565b6000600560009054906101000a900473ffffffffffffffffffffffffffffffffffffffff1673ffffffffffffffffffffffffffffffffffffffff16631cdc4700306040518263ffffffff1660e01b8152600401808273ffffffffffffffffffffffffffffffffffffffff16815260200191505060206040518083038186803b158015610e6257600080fd5b505afa158015610e76573d6000803e3d6000fd5b505050506040513d6020811015610e8c57600080fd5b8101908080519060200190929190505050905060008111156110ec576000610ebf8260005461175d90919063ffffffff16565b9050600081111561102557600660009054906101000a900473ffffffffffffffffffffffffffffffffffffffff1673ffffffffffffffffffffffffffffffffffffffff1663c619c616826040518263ffffffff1660e01b815260040180828152602001915050600060405180830381600087803b158015610f3f57600080fd5b505af1158015610f53573d6000803e3d6000fd5b50505050600660009054906101000a900473ffffffffffffffffffffffffffffffffffffffff1673ffffffffffffffffffffffffffffffffffffffff1663d435fb1c83600260009054906101000a900473ffffffffffffffffffffffffffffffffffffffff166040518363ffffffff1660e01b8152600401808381526020018273ffffffffffffffffffffffffffffffffffffffff16815260200192505050600060405180830381600087803b15801561100c57600080fd5b505af1158015611020573d6000803e3d6000fd5b505050505b600660009054906101000a900473ffffffffffffffffffffffffffffffffffffffff1673ffffffffffffffffffffffffffffffffffffffff16631e83409a600260009054906101000a900473ffffffffffffffffffffffffffffffffffffffff166040518263ffffffff1660e01b8152600401808273ffffffffffffffffffffffffffffffffffffffff168152602001915050600060405180830381600087803b1580156110d257600080fd5b505af11580156110e6573d6000803e3d6000fd5b50505050505b8060008190555050565b6000600360009054906101000a900473ffffffffffffffffffffffffffffffffffffffff1673ffffffffffffffffffffffffffffffffffffffff166370a08231306040518263ffffffff1660e01b8152600401808273ffffffffffffffffffffffffffffffffffffffff16815260200191505060206040518083038186803b15801561118157600080fd5b505afa158015611195573d6000803e3d6000fd5b505050506040513d60208110156111ab57600080fd5b810190808051906020019092919050505090508082111561134257600360009054906101000a900473ffffffffffffffffffffffffffffffffffffffff1673ffffffffffffffffffffffffffffffffffffffff1663a9059cbb84836040518363ffffffff1660e01b8152600401808373ffffffffffffffffffffffffffffffffffffffff16815260200182815260200192505050602060405180830381600087803b15801561125957600080fd5b505af115801561126d573d6000803e3d6000fd5b505050506040513d602081101561128357600080fd5b8101908080519060200190929190505050506112aa8160005461175d90919063ffffffff16565b600081905550600660009054906101000a900473ffffffffffffffffffffffffffffffffffffffff1673ffffffffffffffffffffffffffffffffffffffff1663c619c616826040518263ffffffff1660e01b815260040180828152602001915050600060405180830381600087803b15801561132557600080fd5b505af1158015611339573d6000803e3d6000fd5b505050506114ba565b600360009054906101000a900473ffffffffffffffffffffffffffffffffffffffff1673ffffffffffffffffffffffffffffffffffffffff1663a9059cbb84846040518363ffffffff1660e01b8152600401808373ffffffffffffffffffffffffffffffffffffffff16815260200182815260200192505050602060405180830381600087803b1580156113d557600080fd5b505af11580156113e9573d6000803e3d6000fd5b505050506040513d60208110156113ff57600080fd5b8101908080519060200190929190505050506114268260005461175d90919063ffffffff16565b600081905550600660009054906101000a900473ffffffffffffffffffffffffffffffffffffffff1673ffffffffffffffffffffffffffffffffffffffff1663c619c616836040518263ffffffff1660e01b815260040180828152602001915050600060405180830381600087803b1580156114a157600080fd5b505af11580156114b5573d6000803e3d6000fd5b505050505b505050565b60003073ffffffffffffffffffffffffffffffffffffffff16319050600081111561152c578173ffffffffffffffffffffffffffffffffffffffff166108fc829081150290604051600060405180830381858888f1935050505015801561152a573d6000803e3d6000fd5b505b5050565b6000600460009054906101000a900473ffffffffffffffffffffffffffffffffffffffff1673ffffffffffffffffffffffffffffffffffffffff166370a08231306040518263ffffffff1660e01b8152600401808273ffffffffffffffffffffffffffffffffffffffff16815260200191505060206040518083038186803b1580156115bb57600080fd5b505afa1580156115cf573d6000803e3d6000fd5b505050506040513d60208110156115e557600080fd5b8101908080519060200190929190505050905060008111156116d157600460009054906101000a900473ffffffffffffffffffffffffffffffffffffffff1673ffffffffffffffffffffffffffffffffffffffff1663a9059cbb83836040518363ffffffff1660e01b8152600401808373ffffffffffffffffffffffffffffffffffffffff16815260200182815260200192505050602060405180830381600087803b15801561169457600080fd5b505af11580156116a8573d6000803e3d6000fd5b505050506040513d60208110156116be57600080fd5b8101908080519060200190929190505050505b5050565b600080828401905083811015611753576040517f08c379a000000000000000000000000000000000000000000000000000000000815260040180806020018281038252601b8152602001807f536166654d6174683a206164646974696f6e206f766572666c6f77000000000081525060200191505060405180910390fd5b8091505092915050565b6000828211156117d5576040517f08c379a000000000000000000000000000000000000000000000000000000000815260040180806020018281038252601e8152602001807f536166654d6174683a207375627472616374696f6e206f766572666c6f77000081525060200191505060405180910390fd5b81830390509291505056fe576974686472617720697320666f72206d6f7265207468616e2062616c616e636520616d6f756e74a2646970667358221220131c4ac69967104dd84e807371433ca927e6205e0faa5b4437fa9736e562e16a64736f6c63430007060033536166654d6174683a206d756c7469706c69636174696f6e206f766572666c6f77a2646970667358221220e0f0817c30c30ea7606c0eb01d092d9d5d7b8172b7af609f887f1ee2416f98d964736f6c63430007060033",
  "immutableReferences": {},
  "source": "pragma solidity >=0.6.0 <0.8.0;\n\n// import \"@optionality.io/clone-factory/contracts/CloneFactory.sol\";\nimport \"@openzeppelin/contracts/math/SafeMath.sol\";\nimport \"@openzeppelin/contracts/token/ERC20/IERC20.sol\";\nimport \"./StabilityProxy.sol\";\nimport \"./StringToken.sol\";\nimport \"./Interfaces/IStabilityPool.sol\";\n\ncontract StabilityFactory {\n    using SafeMath for uint256;\n\n    struct PoolInfo {\n        uint256 lastRewardBlock; // Last block number that SUSHIs distribution occurs.\n        uint256 accStringPerShare; // Accumulated SUSHIs per share, times 1e12. See below.\n    }\n\n    struct UserProxy {\n        StabilityProxy proxyAddress;\n        uint256 amount;\n        uint256 rewardDebt;\n    }\n\n    // address public impli;\n    address public frontEnd;\n    mapping(address => UserProxy) public userProxys;\n    mapping(address => bool) public registeredClone;\n    uint256 public totalLUSD;\n    PoolInfo public pool;\n    StringToken public stringToken;\n    IStabilityPool public stabilityPool;\n    IERC20 public lusdToken;\n    IERC20 public lqtyToken;\n    uint256 public stringPerBlock = 923076923100000000;\n    uint256 public endBlock;\n    uint256 public postBoostedBlock;\n    uint256 public constant boostedMultiplier = 5;\n    bool public isBoosted = true;\n\n    modifier isRegClone() {\n        require(\n            registeredClone[msg.sender] == true,\n            \"only owner can call this method\"\n        );\n        _;\n    }\n\n    event Claim(address indexed who, uint256 amountClaimed);\n    event Deploy(address indexed who, address indexed proxy);\n\n    constructor(\n        address _frontEnd,\n        // address _impli,\n        IERC20 _lusdToken,\n        IERC20 _lqtyToken,\n        StringToken _stringToken,\n        IStabilityPool _stabilityPool\n    ) {\n        frontEnd = _frontEnd;\n        // impli = _impli;\n        pool = PoolInfo({lastRewardBlock: block.number, accStringPerShare: 0});\n        stringToken = _stringToken;\n        lusdToken = _lusdToken;\n        lqtyToken = _lqtyToken;\n        endBlock = block.number.add(2437500);\n        stabilityPool = _stabilityPool;\n    }\n\n    function pendingString(address _user) external view returns (uint256) {\n        UserProxy storage proxy = userProxys[_user];\n        uint256 accStringPerShare = pool.accStringPerShare;\n        uint256 lpSupply = totalLUSD;\n        if (block.number > pool.lastRewardBlock && lpSupply != 0) {\n            uint256 multiplier =\n                getMultiplier(pool.lastRewardBlock, block.number);\n            uint256 stringReward = multiplier.mul(stringPerBlock);\n            accStringPerShare = accStringPerShare.add(\n                stringReward.mul(1e12).div(lpSupply)\n            );\n        }\n        uint256 pending =\n            proxy.amount.mul(accStringPerShare).div(1e12).sub(proxy.rewardDebt);\n\n        if (isBoosted) {\n            return pending.mul(boostedMultiplier);\n        } else {\n            return pending;\n        }\n    }\n\n    function getMultiplier(uint256 _from, uint256 _to)\n        public\n        view\n        returns (uint256)\n    {\n        if (_to <= endBlock) {\n            return _to.sub(_from);\n        } else if (_from >= endBlock) {\n            return 0;\n        } else {\n            return endBlock.sub(_from);\n        }\n    }\n\n    function updateProxyBalance(uint256 _amount, address _owner)\n        public\n        isRegClone\n    {\n        UserProxy storage proxy = userProxys[_owner];\n        proxy.amount = _amount;\n        proxy.rewardDebt = proxy.amount.mul(pool.accStringPerShare).div(1e12);\n    }\n\n    function update() public {\n        if (block.number <= pool.lastRewardBlock) {\n            return;\n        }\n        uint256 lpSupply = totalLUSD;\n        if (lpSupply == 0) {\n            pool.lastRewardBlock = block.number;\n            return;\n        }\n        uint256 multiplier = getMultiplier(pool.lastRewardBlock, block.number);\n        uint256 stringReward = multiplier.mul(stringPerBlock);\n        if (block.number < postBoostedBlock) {\n            uint256 boostedReward = stringReward.mul(boostedMultiplier);\n            stringToken.mintTo(address(this), boostedReward);\n        } else {\n            if (isBoosted) {\n                isBoosted = false;\n            }\n            stringToken.mintTo(address(this), stringReward);\n        }\n\n        pool.accStringPerShare = pool.accStringPerShare.add(\n            stringReward.mul(1e12).div(lpSupply)\n        );\n        pool.lastRewardBlock = block.number;\n    }\n\n    function claim(address _sender) public {\n        UserProxy storage proxy = userProxys[_sender];\n        uint256 pending = _pending(proxy.amount, proxy.rewardDebt);\n        _safeStringTransfer(_sender, pending);\n        proxy.rewardDebt = proxy.amount.mul(pool.accStringPerShare).div(1e12);\n        emit Claim(_sender, pending);\n    }\n\n    function addLUSD(uint256 _newAddition) public isRegClone {\n        totalLUSD = totalLUSD.add(_newAddition);\n    }\n\n    function subtractLUSD(uint256 _newSubtract) public isRegClone {\n        totalLUSD = totalLUSD.sub(_newSubtract);\n    }\n\n    function createStabilityProxy() public {\n        StabilityProxy clone =\n            new StabilityProxy(\n                msg.sender,\n                this,\n                frontEnd,\n                lusdToken,\n                lqtyToken,\n                stabilityPool\n            );\n        UserProxy memory proxy =\n            UserProxy({proxyAddress: clone, amount: 0, rewardDebt: 0});\n        userProxys[msg.sender] = proxy;\n        registeredClone[address(clone)] = true;\n        emit Deploy(msg.sender, address(clone));\n    }\n\n    function _pending(uint256 _amount, uint256 _rewardDebt)\n        internal\n        view\n        returns (uint256)\n    {\n        uint256 rewardsToSend =\n            _amount.mul(pool.accStringPerShare).div(1e12).sub(_rewardDebt);\n        if (isBoosted) {\n            return rewardsToSend.mul(boostedMultiplier);\n        }\n        return rewardsToSend;\n    }\n\n    function _safeStringTransfer(address _to, uint256 _amount) internal {\n        uint256 stringBal = stringToken.balanceOf(address(this));\n        if (_amount > stringBal) {\n            stringToken.transfer(_to, stringBal);\n        } else {\n            stringToken.transfer(_to, _amount);\n        }\n    }\n}\n",
  "sourcePath": "/Users/dannywarrick/code/harp/client/src/contracts/StabilityFactory.sol",
  "compiler": {
    "name": "solc",
    "version": "0.7.6+commit.7338295f.Emscripten.clang"
  },
  "schemaVersion": "3.3.4",
  "updatedAt": "2021-03-28T22:07:50.162Z",
  "networkType": "ethereum",
  "devdoc": {
    "kind": "dev",
    "methods": {},
    "version": 1
  },
  "userdoc": {
    "kind": "user",
    "methods": {},
    "version": 1
  }
}