{
  "contractName": "StabilityPool",
  "abi": [
    {
      "anonymous": false,
      "inputs": [
        {
          "indexed": false,
          "internalType": "address",
          "name": "_newActivePoolAddress",
          "type": "address"
        }
      ],
      "name": "ActivePoolAddressChanged",
      "type": "event"
    },
    {
      "anonymous": false,
      "inputs": [
        {
          "indexed": false,
          "internalType": "address",
          "name": "_newBorrowerOperationsAddress",
          "type": "address"
        }
      ],
      "name": "BorrowerOperationsAddressChanged",
      "type": "event"
    },
    {
      "anonymous": false,
      "inputs": [
        {
          "indexed": false,
          "internalType": "address",
          "name": "_newCommunityIssuanceAddress",
          "type": "address"
        }
      ],
      "name": "CommunityIssuanceAddressChanged",
      "type": "event"
    },
    {
      "anonymous": false,
      "inputs": [
        {
          "indexed": false,
          "internalType": "address",
          "name": "_newDefaultPoolAddress",
          "type": "address"
        }
      ],
      "name": "DefaultPoolAddressChanged",
      "type": "event"
    },
    {
      "anonymous": false,
      "inputs": [
        {
          "indexed": true,
          "internalType": "address",
          "name": "_depositor",
          "type": "address"
        },
        {
          "indexed": false,
          "internalType": "uint256",
          "name": "_P",
          "type": "uint256"
        },
        {
          "indexed": false,
          "internalType": "uint256",
          "name": "_S",
          "type": "uint256"
        },
        {
          "indexed": false,
          "internalType": "uint256",
          "name": "_G",
          "type": "uint256"
        }
      ],
      "name": "DepositSnapshotUpdated",
      "type": "event"
    },
    {
      "anonymous": false,
      "inputs": [
        {
          "indexed": false,
          "internalType": "uint256",
          "name": "_newBalance",
          "type": "uint256"
        }
      ],
      "name": "ETHBalanceUpdated",
      "type": "event"
    },
    {
      "anonymous": false,
      "inputs": [
        {
          "indexed": true,
          "internalType": "address",
          "name": "_depositor",
          "type": "address"
        },
        {
          "indexed": false,
          "internalType": "uint256",
          "name": "_ETH",
          "type": "uint256"
        },
        {
          "indexed": false,
          "internalType": "uint256",
          "name": "_LUSDLoss",
          "type": "uint256"
        }
      ],
      "name": "ETHGainWithdrawn",
      "type": "event"
    },
    {
      "anonymous": false,
      "inputs": [
        {
          "indexed": false,
          "internalType": "address",
          "name": "_to",
          "type": "address"
        },
        {
          "indexed": false,
          "internalType": "uint256",
          "name": "_amount",
          "type": "uint256"
        }
      ],
      "name": "EtherSent",
      "type": "event"
    },
    {
      "anonymous": false,
      "inputs": [
        {
          "indexed": true,
          "internalType": "address",
          "name": "_frontEnd",
          "type": "address"
        },
        {
          "indexed": false,
          "internalType": "uint256",
          "name": "_kickbackRate",
          "type": "uint256"
        }
      ],
      "name": "FrontEndRegistered",
      "type": "event"
    },
    {
      "anonymous": false,
      "inputs": [
        {
          "indexed": true,
          "internalType": "address",
          "name": "_frontEnd",
          "type": "address"
        },
        {
          "indexed": false,
          "internalType": "uint256",
          "name": "_P",
          "type": "uint256"
        },
        {
          "indexed": false,
          "internalType": "uint256",
          "name": "_G",
          "type": "uint256"
        }
      ],
      "name": "FrontEndSnapshotUpdated",
      "type": "event"
    },
    {
      "anonymous": false,
      "inputs": [
        {
          "indexed": true,
          "internalType": "address",
          "name": "_frontEnd",
          "type": "address"
        },
        {
          "indexed": false,
          "internalType": "uint256",
          "name": "_newFrontEndStake",
          "type": "uint256"
        },
        {
          "indexed": false,
          "internalType": "address",
          "name": "_depositor",
          "type": "address"
        }
      ],
      "name": "FrontEndStakeChanged",
      "type": "event"
    },
    {
      "anonymous": false,
      "inputs": [
        {
          "indexed": false,
          "internalType": "uint256",
          "name": "_G",
          "type": "uint256"
        }
      ],
      "name": "G_Updated",
      "type": "event"
    },
    {
      "anonymous": false,
      "inputs": [
        {
          "indexed": true,
          "internalType": "address",
          "name": "_depositor",
          "type": "address"
        },
        {
          "indexed": false,
          "internalType": "uint256",
          "name": "_LQTY",
          "type": "uint256"
        }
      ],
      "name": "LQTYPaidToDepositor",
      "type": "event"
    },
    {
      "anonymous": false,
      "inputs": [
        {
          "indexed": true,
          "internalType": "address",
          "name": "_frontEnd",
          "type": "address"
        },
        {
          "indexed": false,
          "internalType": "uint256",
          "name": "_LQTY",
          "type": "uint256"
        }
      ],
      "name": "LQTYPaidToFrontEnd",
      "type": "event"
    },
    {
      "anonymous": false,
      "inputs": [
        {
          "indexed": false,
          "internalType": "uint256",
          "name": "_newBalance",
          "type": "uint256"
        }
      ],
      "name": "LUSDBalanceUpdated",
      "type": "event"
    },
    {
      "anonymous": false,
      "inputs": [
        {
          "indexed": false,
          "internalType": "address",
          "name": "_newLUSDTokenAddress",
          "type": "address"
        }
      ],
      "name": "LUSDTokenAddressChanged",
      "type": "event"
    },
    {
      "anonymous": false,
      "inputs": [
        {
          "indexed": true,
          "internalType": "address",
          "name": "previousOwner",
          "type": "address"
        },
        {
          "indexed": true,
          "internalType": "address",
          "name": "newOwner",
          "type": "address"
        }
      ],
      "name": "OwnershipTransferred",
      "type": "event"
    },
    {
      "anonymous": false,
      "inputs": [
        {
          "indexed": false,
          "internalType": "uint256",
          "name": "_P",
          "type": "uint256"
        }
      ],
      "name": "P_Updated",
      "type": "event"
    },
    {
      "anonymous": false,
      "inputs": [
        {
          "indexed": false,
          "internalType": "address",
          "name": "_newPriceFeedAddress",
          "type": "address"
        }
      ],
      "name": "PriceFeedAddressChanged",
      "type": "event"
    },
    {
      "anonymous": false,
      "inputs": [
        {
          "indexed": false,
          "internalType": "uint256",
          "name": "_S",
          "type": "uint256"
        }
      ],
      "name": "S_Updated",
      "type": "event"
    },
    {
      "anonymous": false,
      "inputs": [
        {
          "indexed": false,
          "internalType": "address",
          "name": "_newSortedTrovesAddress",
          "type": "address"
        }
      ],
      "name": "SortedTrovesAddressChanged",
      "type": "event"
    },
    {
      "anonymous": false,
      "inputs": [
        {
          "indexed": false,
          "internalType": "address",
          "name": "_newTroveManagerAddress",
          "type": "address"
        }
      ],
      "name": "TroveManagerAddressChanged",
      "type": "event"
    },
    {
      "anonymous": false,
      "inputs": [
        {
          "indexed": true,
          "internalType": "address",
          "name": "_depositor",
          "type": "address"
        },
        {
          "indexed": false,
          "internalType": "uint256",
          "name": "_newDeposit",
          "type": "uint256"
        }
      ],
      "name": "UserDepositChanged",
      "type": "event"
    },
    {
      "inputs": [],
      "name": "CCR",
      "outputs": [
        {
          "internalType": "uint256",
          "name": "",
          "type": "uint256"
        }
      ],
      "stateMutability": "view",
      "type": "function",
      "constant": true
    },
    {
      "inputs": [],
      "name": "DECIMAL_PRECISION",
      "outputs": [
        {
          "internalType": "uint256",
          "name": "",
          "type": "uint256"
        }
      ],
      "stateMutability": "view",
      "type": "function",
      "constant": true
    },
    {
      "inputs": [],
      "name": "LUSD_GAS_COMPENSATION",
      "outputs": [
        {
          "internalType": "uint256",
          "name": "",
          "type": "uint256"
        }
      ],
      "stateMutability": "view",
      "type": "function",
      "constant": true
    },
    {
      "inputs": [],
      "name": "MCR",
      "outputs": [
        {
          "internalType": "uint256",
          "name": "",
          "type": "uint256"
        }
      ],
      "stateMutability": "view",
      "type": "function",
      "constant": true
    },
    {
      "inputs": [],
      "name": "P",
      "outputs": [
        {
          "internalType": "uint256",
          "name": "",
          "type": "uint256"
        }
      ],
      "stateMutability": "view",
      "type": "function",
      "constant": true
    },
    {
      "inputs": [],
      "name": "PERCENT_DIVISOR",
      "outputs": [
        {
          "internalType": "uint256",
          "name": "",
          "type": "uint256"
        }
      ],
      "stateMutability": "view",
      "type": "function",
      "constant": true
    },
    {
      "inputs": [],
      "name": "_100pct",
      "outputs": [
        {
          "internalType": "uint256",
          "name": "",
          "type": "uint256"
        }
      ],
      "stateMutability": "view",
      "type": "function",
      "constant": true
    },
    {
      "inputs": [],
      "name": "activePool",
      "outputs": [
        {
          "internalType": "contract IActivePool",
          "name": "",
          "type": "address"
        }
      ],
      "stateMutability": "view",
      "type": "function",
      "constant": true
    },
    {
      "inputs": [],
      "name": "borrowerOperations",
      "outputs": [
        {
          "internalType": "contract IBorrowerOperations",
          "name": "",
          "type": "address"
        }
      ],
      "stateMutability": "view",
      "type": "function",
      "constant": true
    },
    {
      "inputs": [],
      "name": "communityIssuance",
      "outputs": [
        {
          "internalType": "contract ICommunityIssuance",
          "name": "",
          "type": "address"
        }
      ],
      "stateMutability": "view",
      "type": "function",
      "constant": true
    },
    {
      "inputs": [],
      "name": "currentEpoch",
      "outputs": [
        {
          "internalType": "uint128",
          "name": "",
          "type": "uint128"
        }
      ],
      "stateMutability": "view",
      "type": "function",
      "constant": true
    },
    {
      "inputs": [],
      "name": "currentScale",
      "outputs": [
        {
          "internalType": "uint128",
          "name": "",
          "type": "uint128"
        }
      ],
      "stateMutability": "view",
      "type": "function",
      "constant": true
    },
    {
      "inputs": [],
      "name": "defaultPool",
      "outputs": [
        {
          "internalType": "contract IDefaultPool",
          "name": "",
          "type": "address"
        }
      ],
      "stateMutability": "view",
      "type": "function",
      "constant": true
    },
    {
      "inputs": [
        {
          "internalType": "address",
          "name": "",
          "type": "address"
        }
      ],
      "name": "depositSnapshots",
      "outputs": [
        {
          "internalType": "uint256",
          "name": "S",
          "type": "uint256"
        },
        {
          "internalType": "uint256",
          "name": "P",
          "type": "uint256"
        },
        {
          "internalType": "uint256",
          "name": "G",
          "type": "uint256"
        },
        {
          "internalType": "uint128",
          "name": "scale",
          "type": "uint128"
        },
        {
          "internalType": "uint128",
          "name": "epoch",
          "type": "uint128"
        }
      ],
      "stateMutability": "view",
      "type": "function",
      "constant": true
    },
    {
      "inputs": [
        {
          "internalType": "address",
          "name": "",
          "type": "address"
        }
      ],
      "name": "deposits",
      "outputs": [
        {
          "internalType": "uint256",
          "name": "initialValue",
          "type": "uint256"
        },
        {
          "internalType": "address",
          "name": "frontEndTag",
          "type": "address"
        }
      ],
      "stateMutability": "view",
      "type": "function",
      "constant": true
    },
    {
      "inputs": [
        {
          "internalType": "uint256",
          "name": "",
          "type": "uint256"
        },
        {
          "internalType": "uint256",
          "name": "",
          "type": "uint256"
        }
      ],
      "name": "epochToScaleToG",
      "outputs": [
        {
          "internalType": "uint256",
          "name": "",
          "type": "uint256"
        }
      ],
      "stateMutability": "view",
      "type": "function",
      "constant": true
    },
    {
      "inputs": [
        {
          "internalType": "uint256",
          "name": "",
          "type": "uint256"
        },
        {
          "internalType": "uint256",
          "name": "",
          "type": "uint256"
        }
      ],
      "name": "epochToScaleToSum",
      "outputs": [
        {
          "internalType": "uint256",
          "name": "",
          "type": "uint256"
        }
      ],
      "stateMutability": "view",
      "type": "function",
      "constant": true
    },
    {
      "inputs": [
        {
          "internalType": "address",
          "name": "",
          "type": "address"
        }
      ],
      "name": "frontEndSnapshots",
      "outputs": [
        {
          "internalType": "uint256",
          "name": "S",
          "type": "uint256"
        },
        {
          "internalType": "uint256",
          "name": "P",
          "type": "uint256"
        },
        {
          "internalType": "uint256",
          "name": "G",
          "type": "uint256"
        },
        {
          "internalType": "uint128",
          "name": "scale",
          "type": "uint128"
        },
        {
          "internalType": "uint128",
          "name": "epoch",
          "type": "uint128"
        }
      ],
      "stateMutability": "view",
      "type": "function",
      "constant": true
    },
    {
      "inputs": [
        {
          "internalType": "address",
          "name": "",
          "type": "address"
        }
      ],
      "name": "frontEndStakes",
      "outputs": [
        {
          "internalType": "uint256",
          "name": "",
          "type": "uint256"
        }
      ],
      "stateMutability": "view",
      "type": "function",
      "constant": true
    },
    {
      "inputs": [
        {
          "internalType": "address",
          "name": "",
          "type": "address"
        }
      ],
      "name": "frontEnds",
      "outputs": [
        {
          "internalType": "uint256",
          "name": "kickbackRate",
          "type": "uint256"
        },
        {
          "internalType": "bool",
          "name": "registered",
          "type": "bool"
        }
      ],
      "stateMutability": "view",
      "type": "function",
      "constant": true
    },
    {
      "inputs": [],
      "name": "getEntireSystemColl",
      "outputs": [
        {
          "internalType": "uint256",
          "name": "entireSystemColl",
          "type": "uint256"
        }
      ],
      "stateMutability": "view",
      "type": "function",
      "constant": true
    },
    {
      "inputs": [],
      "name": "getEntireSystemDebt",
      "outputs": [
        {
          "internalType": "uint256",
          "name": "entireSystemDebt",
          "type": "uint256"
        }
      ],
      "stateMutability": "view",
      "type": "function",
      "constant": true
    },
    {
      "inputs": [],
      "name": "isOwner",
      "outputs": [
        {
          "internalType": "bool",
          "name": "",
          "type": "bool"
        }
      ],
      "stateMutability": "view",
      "type": "function",
      "constant": true
    },
    {
      "inputs": [],
      "name": "lastETHError_Offset",
      "outputs": [
        {
          "internalType": "uint256",
          "name": "",
          "type": "uint256"
        }
      ],
      "stateMutability": "view",
      "type": "function",
      "constant": true
    },
    {
      "inputs": [],
      "name": "lastLQTYError",
      "outputs": [
        {
          "internalType": "uint256",
          "name": "",
          "type": "uint256"
        }
      ],
      "stateMutability": "view",
      "type": "function",
      "constant": true
    },
    {
      "inputs": [],
      "name": "lastLUSDLossError_Offset",
      "outputs": [
        {
          "internalType": "uint256",
          "name": "",
          "type": "uint256"
        }
      ],
      "stateMutability": "view",
      "type": "function",
      "constant": true
    },
    {
      "inputs": [],
      "name": "lusdToken",
      "outputs": [
        {
          "internalType": "contract ILUSDToken",
          "name": "",
          "type": "address"
        }
      ],
      "stateMutability": "view",
      "type": "function",
      "constant": true
    },
    {
      "inputs": [],
      "name": "owner",
      "outputs": [
        {
          "internalType": "address",
          "name": "",
          "type": "address"
        }
      ],
      "stateMutability": "view",
      "type": "function",
      "constant": true
    },
    {
      "inputs": [],
      "name": "priceFeed",
      "outputs": [
        {
          "internalType": "contract IPriceFeed",
          "name": "",
          "type": "address"
        }
      ],
      "stateMutability": "view",
      "type": "function",
      "constant": true
    },
    {
      "inputs": [],
      "name": "sortedTroves",
      "outputs": [
        {
          "internalType": "contract ISortedTroves",
          "name": "",
          "type": "address"
        }
      ],
      "stateMutability": "view",
      "type": "function",
      "constant": true
    },
    {
      "inputs": [],
      "name": "troveManager",
      "outputs": [
        {
          "internalType": "contract ITroveManager",
          "name": "",
          "type": "address"
        }
      ],
      "stateMutability": "view",
      "type": "function",
      "constant": true
    },
    {
      "stateMutability": "payable",
      "type": "receive",
      "payable": true
    },
    {
      "inputs": [
        {
          "internalType": "address",
          "name": "_borrowerOperationsAddress",
          "type": "address"
        },
        {
          "internalType": "address",
          "name": "_troveManagerAddress",
          "type": "address"
        },
        {
          "internalType": "address",
          "name": "_activePoolAddress",
          "type": "address"
        },
        {
          "internalType": "address",
          "name": "_lusdTokenAddress",
          "type": "address"
        },
        {
          "internalType": "address",
          "name": "_sortedTrovesAddress",
          "type": "address"
        },
        {
          "internalType": "address",
          "name": "_priceFeedAddress",
          "type": "address"
        },
        {
          "internalType": "address",
          "name": "_communityIssuanceAddress",
          "type": "address"
        }
      ],
      "name": "setAddresses",
      "outputs": [],
      "stateMutability": "nonpayable",
      "type": "function"
    },
    {
      "inputs": [],
      "name": "getETH",
      "outputs": [
        {
          "internalType": "uint256",
          "name": "",
          "type": "uint256"
        }
      ],
      "stateMutability": "view",
      "type": "function",
      "constant": true
    },
    {
      "inputs": [],
      "name": "getTotalLUSDDeposits",
      "outputs": [
        {
          "internalType": "uint256",
          "name": "",
          "type": "uint256"
        }
      ],
      "stateMutability": "view",
      "type": "function",
      "constant": true
    },
    {
      "inputs": [
        {
          "internalType": "uint256",
          "name": "_amount",
          "type": "uint256"
        },
        {
          "internalType": "address",
          "name": "_frontEndTag",
          "type": "address"
        }
      ],
      "name": "provideToSP",
      "outputs": [],
      "stateMutability": "nonpayable",
      "type": "function"
    },
    {
      "inputs": [
        {
          "internalType": "uint256",
          "name": "_amount",
          "type": "uint256"
        }
      ],
      "name": "withdrawFromSP",
      "outputs": [],
      "stateMutability": "nonpayable",
      "type": "function"
    },
    {
      "inputs": [
        {
          "internalType": "address",
          "name": "_upperHint",
          "type": "address"
        },
        {
          "internalType": "address",
          "name": "_lowerHint",
          "type": "address"
        }
      ],
      "name": "withdrawETHGainToTrove",
      "outputs": [],
      "stateMutability": "nonpayable",
      "type": "function"
    },
    {
      "inputs": [
        {
          "internalType": "uint256",
          "name": "_debtToOffset",
          "type": "uint256"
        },
        {
          "internalType": "uint256",
          "name": "_collToAdd",
          "type": "uint256"
        }
      ],
      "name": "offset",
      "outputs": [],
      "stateMutability": "nonpayable",
      "type": "function"
    },
    {
      "inputs": [
        {
          "internalType": "address",
          "name": "_depositor",
          "type": "address"
        }
      ],
      "name": "getDepositorETHGain",
      "outputs": [
        {
          "internalType": "uint256",
          "name": "",
          "type": "uint256"
        }
      ],
      "stateMutability": "view",
      "type": "function",
      "constant": true
    },
    {
      "inputs": [
        {
          "internalType": "address",
          "name": "_depositor",
          "type": "address"
        }
      ],
      "name": "getDepositorLQTYGain",
      "outputs": [
        {
          "internalType": "uint256",
          "name": "",
          "type": "uint256"
        }
      ],
      "stateMutability": "view",
      "type": "function",
      "constant": true
    },
    {
      "inputs": [
        {
          "internalType": "address",
          "name": "_frontEnd",
          "type": "address"
        }
      ],
      "name": "getFrontEndLQTYGain",
      "outputs": [
        {
          "internalType": "uint256",
          "name": "",
          "type": "uint256"
        }
      ],
      "stateMutability": "view",
      "type": "function",
      "constant": true
    },
    {
      "inputs": [
        {
          "internalType": "address",
          "name": "_depositor",
          "type": "address"
        }
      ],
      "name": "getCompoundedLUSDDeposit",
      "outputs": [
        {
          "internalType": "uint256",
          "name": "",
          "type": "uint256"
        }
      ],
      "stateMutability": "view",
      "type": "function",
      "constant": true
    },
    {
      "inputs": [
        {
          "internalType": "address",
          "name": "_frontEnd",
          "type": "address"
        }
      ],
      "name": "getCompoundedFrontEndStake",
      "outputs": [
        {
          "internalType": "uint256",
          "name": "",
          "type": "uint256"
        }
      ],
      "stateMutability": "view",
      "type": "function",
      "constant": true
    },
    {
      "inputs": [
        {
          "internalType": "uint256",
          "name": "_kickbackRate",
          "type": "uint256"
        }
      ],
      "name": "registerFrontEnd",
      "outputs": [],
      "stateMutability": "nonpayable",
      "type": "function"
    }
  ],
  "bytecode": "0x6080604052670de0b6b3a764000060105534801561001c57600080fd5b5033600360006101000a81548173ffffffffffffffffffffffffffffffffffffffff021916908373ffffffffffffffffffffffffffffffffffffffff1602179055503373ffffffffffffffffffffffffffffffffffffffff16600073ffffffffffffffffffffffffffffffffffffffff167f8be0079c531659141344cd1fd0a4f28419497f9722a3daafe3b4186f6b6457e060405160405180910390a3615db480620000c96000396000f3fe60806040526004361061026b5760003560e01c80637f7dde4a11610144578063ae918754116100b6578063df9cd84f1161007a578063df9cd84f14610c9f578063eaa8ba7f14610d04578063eb6b2fa614610e15578063f5f1595d14610e6e578063fc7e286d14610ed3578063fda0101a14610f5557610295565b8063ae91875414610b62578063b83f91a214610ba3578063cef941e814610be4578063d4ca057514610c0f578063d7fb044314610c7457610295565b80638f32d59b116101085780638f32d59b146109f357806395fb16bb14610a205780639bf2f1ac14610a61578063a20baee614610a8c578063a4e59ac814610ab7578063a7bfff9714610af457610295565b80637f7dde4a1461087657806386da0824146108b7578063887105d31461095c5780638b8fbd92146109875780638da5cb5b146109b257610295565b8063556be101116101dd57806372fe25aa116101a157806372fe25aa14610736578063741bef1a1461076157806376671808146107a257806377553ad4146107df578063794e572414610820578063795d26c31461084b57610295565b8063556be101146105b75780635733d58f146105f25780635a0edf771461061d5780635d2de642146106765780635f788d65146106db57610295565b8063335525ad1161022f578063335525ad14610435578063389e92a51461047a5780633cc74225146104df5780633d83908a146105205780634870dd9a14610561578063538153ca1461058c57610295565b806314f6c3be1461029a57806316b9d3c5146102c55780631cdc47001461036a5780632e54bf95146103cf5780632e86bbd81461040a57610295565b3661029557610278610fc6565b61028d3460095461106c90919063ffffffff16565b600981905550005b600080fd5b3480156102a657600080fd5b506102af6110f4565b6040518082815260200191505060405180910390f35b3480156102d157600080fd5b50610314600480360360208110156102e857600080fd5b81019080803573ffffffffffffffffffffffffffffffffffffffff1690602001909291905050506110fe565b60405180868152602001858152602001848152602001836fffffffffffffffffffffffffffffffff168152602001826fffffffffffffffffffffffffffffffff1681526020019550505050505060405180910390f35b34801561037657600080fd5b506103b96004803603602081101561038d57600080fd5b81019080803573ffffffffffffffffffffffffffffffffffffffff16906020019092919050505061116c565b6040518082815260200191505060405180910390f35b3480156103db57600080fd5b50610408600480360360208110156103f257600080fd5b81019080803590602001909291905050506112e1565b005b34801561041657600080fd5b5061041f6115a2565b6040518082815260200191505060405180910390f35b34801561044157600080fd5b506104786004803603604081101561045857600080fd5b8101908080359060200190929190803590602001909291905050506115af565b005b34801561048657600080fd5b506104c96004803603602081101561049d57600080fd5b81019080803573ffffffffffffffffffffffffffffffffffffffff169060200190929190505050611631565b6040518082815260200191505060405180910390f35b3480156104eb57600080fd5b506104f46117a6565b604051808273ffffffffffffffffffffffffffffffffffffffff16815260200191505060405180910390f35b34801561052c57600080fd5b506105356117cc565b604051808273ffffffffffffffffffffffffffffffffffffffff16815260200191505060405180910390f35b34801561056d57600080fd5b506105766117f2565b6040518082815260200191505060405180910390f35b34801561059857600080fd5b506105a16117f7565b6040518082815260200191505060405180910390f35b3480156105c357600080fd5b506105f0600480360360208110156105da57600080fd5b81019080803590602001909291905050506117fd565b005b3480156105fe57600080fd5b5061060761190b565b6040518082815260200191505060405180910390f35b34801561062957600080fd5b506106606004803603604081101561064057600080fd5b810190808035906020019092919080359060200190929190505050611917565b6040518082815260200191505060405180910390f35b34801561068257600080fd5b506106c56004803603602081101561069957600080fd5b81019080803573ffffffffffffffffffffffffffffffffffffffff16906020019092919050505061193c565b6040518082815260200191505060405180910390f35b3480156106e757600080fd5b50610734600480360360408110156106fe57600080fd5b8101908080359060200190929190803573ffffffffffffffffffffffffffffffffffffffff169060200190929190505050611954565b005b34801561074257600080fd5b5061074b611c1c565b6040518082815260200191505060405180910390f35b34801561076d57600080fd5b50610776611c28565b604051808273ffffffffffffffffffffffffffffffffffffffff16815260200191505060405180910390f35b3480156107ae57600080fd5b506107b7611c4e565b60405180826fffffffffffffffffffffffffffffffff16815260200191505060405180910390f35b3480156107eb57600080fd5b506107f4611c70565b604051808273ffffffffffffffffffffffffffffffffffffffff16815260200191505060405180910390f35b34801561082c57600080fd5b50610835611c96565b6040518082815260200191505060405180910390f35b34801561085757600080fd5b50610860611ca2565b6040518082815260200191505060405180910390f35b34801561088257600080fd5b5061088b611e09565b604051808273ffffffffffffffffffffffffffffffffffffffff16815260200191505060405180910390f35b3480156108c357600080fd5b50610906600480360360208110156108da57600080fd5b81019080803573ffffffffffffffffffffffffffffffffffffffff169060200190929190505050611e2d565b60405180868152602001858152602001848152602001836fffffffffffffffffffffffffffffffff168152602001826fffffffffffffffffffffffffffffffff1681526020019550505050505060405180910390f35b34801561096857600080fd5b50610971611e9b565b6040518082815260200191505060405180910390f35b34801561099357600080fd5b5061099c612002565b6040518082815260200191505060405180910390f35b3480156109be57600080fd5b506109c7612008565b604051808273ffffffffffffffffffffffffffffffffffffffff16815260200191505060405180910390f35b3480156109ff57600080fd5b50610a08612032565b60405180821515815260200191505060405180910390f35b348015610a2c57600080fd5b50610a3561208a565b604051808273ffffffffffffffffffffffffffffffffffffffff16815260200191505060405180910390f35b348015610a6d57600080fd5b50610a766120b0565b6040518082815260200191505060405180910390f35b348015610a9857600080fd5b50610aa16120ba565b6040518082815260200191505060405180910390f35b348015610ac357600080fd5b50610acc6120c6565b60405180826fffffffffffffffffffffffffffffffff16815260200191505060405180910390f35b348015610b0057600080fd5b50610b4360048036036020811015610b1757600080fd5b81019080803573ffffffffffffffffffffffffffffffffffffffff1690602001909291905050506120e8565b6040518083815260200182151581526020019250505060405180910390f35b348015610b6e57600080fd5b50610b77612119565b604051808273ffffffffffffffffffffffffffffffffffffffff16815260200191505060405180910390f35b348015610baf57600080fd5b50610bb861213f565b604051808273ffffffffffffffffffffffffffffffffffffffff16815260200191505060405180910390f35b348015610bf057600080fd5b50610bf9612165565b6040518082815260200191505060405180910390f35b348015610c1b57600080fd5b50610c5e60048036036020811015610c3257600080fd5b81019080803573ffffffffffffffffffffffffffffffffffffffff16906020019092919050505061216b565b6040518082815260200191505060405180910390f35b348015610c8057600080fd5b50610c89612371565b6040518082815260200191505060405180910390f35b348015610cab57600080fd5b50610cee60048036036020811015610cc257600080fd5b81019080803573ffffffffffffffffffffffffffffffffffffffff169060200190929190505050612377565b6040518082815260200191505060405180910390f35b348015610d1057600080fd5b50610e13600480360360e0811015610d2757600080fd5b81019080803573ffffffffffffffffffffffffffffffffffffffff169060200190929190803573ffffffffffffffffffffffffffffffffffffffff169060200190929190803573ffffffffffffffffffffffffffffffffffffffff169060200190929190803573ffffffffffffffffffffffffffffffffffffffff169060200190929190803573ffffffffffffffffffffffffffffffffffffffff169060200190929190803573ffffffffffffffffffffffffffffffffffffffff169060200190929190803573ffffffffffffffffffffffffffffffffffffffff1690602001909291905050506124e9565b005b348015610e2157600080fd5b50610e5860048036036040811015610e3857600080fd5b810190808035906020019092919080359060200190929190505050612994565b6040518082815260200191505060405180910390f35b348015610e7a57600080fd5b50610ebd60048036036020811015610e9157600080fd5b81019080803573ffffffffffffffffffffffffffffffffffffffff1690602001909291905050506129b9565b6040518082815260200191505060405180910390f35b348015610edf57600080fd5b50610f2260048036036020811015610ef657600080fd5b81019080803573ffffffffffffffffffffffffffffffffffffffff169060200190929190505050612c4c565b604051808381526020018273ffffffffffffffffffffffffffffffffffffffff1681526020019250505060405180910390f35b348015610f6157600080fd5b50610fc460048036036040811015610f7857600080fd5b81019080803573ffffffffffffffffffffffffffffffffffffffff169060200190929190803573ffffffffffffffffffffffffffffffffffffffff169060200190929190505050612c90565b005b60008054906101000a900473ffffffffffffffffffffffffffffffffffffffff1673ffffffffffffffffffffffffffffffffffffffff163373ffffffffffffffffffffffffffffffffffffffff161461106a576040517f08c379a0000000000000000000000000000000000000000000000000000000008152600401808060200182810382526027815260200180615b416027913960400191505060405180910390fd5b565b6000808284019050838110156110ea576040517f08c379a000000000000000000000000000000000000000000000000000000000815260040180806020018281038252601b8152602001807f536166654d6174683a206164646974696f6e206f766572666c6f77000000000081525060200191505060405180910390fd5b8091505092915050565b6000600954905090565b600f6020528060005260406000206000915090508060000154908060010154908060020154908060030160009054906101000a90046fffffffffffffffffffffffffffffffff16908060030160109054906101000a90046fffffffffffffffffffffffffffffffff16905085565b600080600b60008473ffffffffffffffffffffffffffffffffffffffff1673ffffffffffffffffffffffffffffffffffffffff16815260200190815260200160002060000154905060008114156111c75760009150506112dc565b6000600c60008573ffffffffffffffffffffffffffffffffffffffff1673ffffffffffffffffffffffffffffffffffffffff1681526020019081526020016000206040518060a00160405290816000820154815260200160018201548152602001600282015481526020016003820160009054906101000a90046fffffffffffffffffffffffffffffffff166fffffffffffffffffffffffffffffffff166fffffffffffffffffffffffffffffffff1681526020016003820160109054906101000a90046fffffffffffffffffffffffffffffffff166fffffffffffffffffffffffffffffffff166fffffffffffffffffffffffffffffffff1681525050905060006112d38383613090565b90508093505050505b919050565b600081146112f2576112f1613237565b5b6000600b60003373ffffffffffffffffffffffffffffffffffffffff1673ffffffffffffffffffffffffffffffffffffffff168152602001908152602001600020600001549050611342816134bd565b6000600860009054906101000a900473ffffffffffffffffffffffffffffffffffffffff16905061137281613519565b600061137d33611631565b9050600061138a3361116c565b9050600061139886836135ad565b905060006113af83876135c690919063ffffffff16565b90506000600b60003373ffffffffffffffffffffffffffffffffffffffff1673ffffffffffffffffffffffffffffffffffffffff16815260200190815260200160002060010160009054906101000a900473ffffffffffffffffffffffffffffffffffffffff169050611423863383613610565b600061142e82612377565b9050600061144585836135c690919063ffffffff16565b90506114518382613814565b8273ffffffffffffffffffffffffffffffffffffffff167f99920012339b5a3368d3a04b8606ce412c46ed92b7dcd8602d41fc8862cb8f258233604051808381526020018273ffffffffffffffffffffffffffffffffffffffff1681526020019250505060405180910390a26114c73386613bd6565b60006114dc86886135c690919063ffffffff16565b90506114e83382613cbb565b3373ffffffffffffffffffffffffffffffffffffffff167fbce78369dccab09eec1986f4d409ab09ffbb47d65423e5148fcf98411c5111c9826040518082815260200191505060405180910390a23373ffffffffffffffffffffffffffffffffffffffff167f51457222ebca92c335c9c86e2baa1cc0e40ffaa9084a51452980d5ba8dec2f638987604051808381526020018281526020019250505060405180910390a26115958861418b565b5050505050505050505050565b6802b5e3af16b188000081565b6115b761430a565b6000600a54905060008114806115cd5750600083145b156115d8575061162d565b611603600860009054906101000a900473ffffffffffffffffffffffffffffffffffffffff16613519565b6000806116118486856143b2565b9150915061161f82826144d8565b6116298486614835565b5050505b5050565b600080600b60008473ffffffffffffffffffffffffffffffffffffffff1673ffffffffffffffffffffffffffffffffffffffff168152602001908152602001600020600001549050600081141561168c5760009150506117a1565b6000600c60008573ffffffffffffffffffffffffffffffffffffffff1673ffffffffffffffffffffffffffffffffffffffff1681526020019081526020016000206040518060a00160405290816000820154815260200160018201548152602001600282015481526020016003820160009054906101000a90046fffffffffffffffffffffffffffffffff166fffffffffffffffffffffffffffffffff166fffffffffffffffffffffffffffffffff1681526020016003820160109054906101000a90046fffffffffffffffffffffffffffffffff166fffffffffffffffffffffffffffffffff166fffffffffffffffffffffffffffffffff1681525050905060006117988383614a08565b90508093505050505b919050565b600160009054906101000a900473ffffffffffffffffffffffffffffffffffffffff1681565b600560009054906101000a900473ffffffffffffffffffffffffffffffffffffffff1681565b60c881565b60165481565b61180633614b7d565b61180f33614c26565b61181881614cca565b80600d60003373ffffffffffffffffffffffffffffffffffffffff1673ffffffffffffffffffffffffffffffffffffffff168152602001908152602001600020600001819055506001600d60003373ffffffffffffffffffffffffffffffffffffffff1673ffffffffffffffffffffffffffffffffffffffff16815260200190815260200160002060010160006101000a81548160ff0219169083151502179055503373ffffffffffffffffffffffffffffffffffffffff167f19bc932fb9e16a8b5a1e41be9f4c2de59d5ddd7567b8b81405f532ca00a9880e826040518082815260200191505060405180910390a250565b6714d1120d7b16000081565b6013602052816000526040600020602052806000526040600020600091509150505481565b600e6020528060005260406000206000915090505481565b61195d81614d2e565b61196633614b7d565b61196f82614e0d565b6000600b60003373ffffffffffffffffffffffffffffffffffffffff1673ffffffffffffffffffffffffffffffffffffffff1681526020019081526020016000206000015490506000600860009054906101000a900473ffffffffffffffffffffffffffffffffffffffff1690506119e681613519565b60008214156119fa576119f93384614e69565b5b6000611a0533611631565b90506000611a123361116c565b90506000611a2982866135c690919063ffffffff16565b90506000600b60003373ffffffffffffffffffffffffffffffffffffffff1673ffffffffffffffffffffffffffffffffffffffff16815260200190815260200160002060010160009054906101000a900473ffffffffffffffffffffffffffffffffffffffff169050611a9d853383613610565b6000611aa882612377565b90506000611abf8a8361106c90919063ffffffff16565b9050611acb8382613814565b8273ffffffffffffffffffffffffffffffffffffffff167f99920012339b5a3368d3a04b8606ce412c46ed92b7dcd8602d41fc8862cb8f258233604051808381526020018273ffffffffffffffffffffffffffffffffffffffff1681526020019250505060405180910390a2611b41338b614eee565b6000611b568b8761106c90919063ffffffff16565b9050611b623382613cbb565b3373ffffffffffffffffffffffffffffffffffffffff167fbce78369dccab09eec1986f4d409ab09ffbb47d65423e5148fcf98411c5111c9826040518082815260200191505060405180910390a23373ffffffffffffffffffffffffffffffffffffffff167f51457222ebca92c335c9c86e2baa1cc0e40ffaa9084a51452980d5ba8dec2f638887604051808381526020018281526020019250505060405180910390a2611c0f8761418b565b5050505050505050505050565b670de0b6b3a764000081565b600260009054906101000a900473ffffffffffffffffffffffffffffffffffffffff1681565b601160109054906101000a90046fffffffffffffffffffffffffffffffff1681565b600460009054906101000a900473ffffffffffffffffffffffffffffffffffffffff1681565b670f43fc2c04ee000081565b60008060008054906101000a900473ffffffffffffffffffffffffffffffffffffffff1673ffffffffffffffffffffffffffffffffffffffff16635eb52fca6040518163ffffffff1660e01b815260040160206040518083038186803b158015611d0b57600080fd5b505afa158015611d1f573d6000803e3d6000fd5b505050506040513d6020811015611d3557600080fd5b810190808051906020019092919050505090506000600160009054906101000a900473ffffffffffffffffffffffffffffffffffffffff1673ffffffffffffffffffffffffffffffffffffffff16635eb52fca6040518163ffffffff1660e01b815260040160206040518083038186803b158015611db257600080fd5b505afa158015611dc6573d6000803e3d6000fd5b505050506040513d6020811015611ddc57600080fd5b81019080805190602001909291905050509050611e02818361106c90919063ffffffff16565b9250505090565b60008054906101000a900473ffffffffffffffffffffffffffffffffffffffff1681565b600c6020528060005260406000206000915090508060000154908060010154908060020154908060030160009054906101000a90046fffffffffffffffffffffffffffffffff16908060030160109054906101000a90046fffffffffffffffffffffffffffffffff16905085565b60008060008054906101000a900473ffffffffffffffffffffffffffffffffffffffff1673ffffffffffffffffffffffffffffffffffffffff166314f6c3be6040518163ffffffff1660e01b815260040160206040518083038186803b158015611f0457600080fd5b505afa158015611f18573d6000803e3d6000fd5b505050506040513d6020811015611f2e57600080fd5b810190808051906020019092919050505090506000600160009054906101000a900473ffffffffffffffffffffffffffffffffffffffff1673ffffffffffffffffffffffffffffffffffffffff166314f6c3be6040518163ffffffff1660e01b815260040160206040518083038186803b158015611fab57600080fd5b505afa158015611fbf573d6000803e3d6000fd5b505050506040513d6020811015611fd557600080fd5b81019080805190602001909291905050509050611ffb818361106c90919063ffffffff16565b9250505090565b60105481565b6000600360009054906101000a900473ffffffffffffffffffffffffffffffffffffffff16905090565b6000600360009054906101000a900473ffffffffffffffffffffffffffffffffffffffff1673ffffffffffffffffffffffffffffffffffffffff163373ffffffffffffffffffffffffffffffffffffffff1614905090565b600860009054906101000a900473ffffffffffffffffffffffffffffffffffffffff1681565b6000600a54905090565b670de0b6b3a764000081565b601160009054906101000a90046fffffffffffffffffffffffffffffffff1681565b600d6020528060005260406000206000915090508060000154908060010160009054906101000a900460ff16905082565b600760009054906101000a900473ffffffffffffffffffffffffffffffffffffffff1681565b600660009054906101000a900473ffffffffffffffffffffffffffffffffffffffff1681565b60145481565b600080600e60008473ffffffffffffffffffffffffffffffffffffffff1673ffffffffffffffffffffffffffffffffffffffff16815260200190815260200160002054905060008114156121c357600091505061236c565b6000600d60008573ffffffffffffffffffffffffffffffffffffffff1673ffffffffffffffffffffffffffffffffffffffff168152602001908152602001600020600001549050600061222782670de0b6b3a76400006135c690919063ffffffff16565b90506000600f60008773ffffffffffffffffffffffffffffffffffffffff1673ffffffffffffffffffffffffffffffffffffffff1681526020019081526020016000206040518060a00160405290816000820154815260200160018201548152602001600282015481526020016003820160009054906101000a90046fffffffffffffffffffffffffffffffff166fffffffffffffffffffffffffffffffff166fffffffffffffffffffffffffffffffff1681526020016003820160109054906101000a90046fffffffffffffffffffffffffffffffff166fffffffffffffffffffffffffffffffff166fffffffffffffffffffffffffffffffff168152505090506000612361670de0b6b3a76400006123536123448886615013565b8661518890919063ffffffff16565b61520e90919063ffffffff16565b905080955050505050505b919050565b60155481565b600080600e60008473ffffffffffffffffffffffffffffffffffffffff1673ffffffffffffffffffffffffffffffffffffffff16815260200190815260200160002054905060008114156123cf5760009150506124e4565b6000600f60008573ffffffffffffffffffffffffffffffffffffffff1673ffffffffffffffffffffffffffffffffffffffff1681526020019081526020016000206040518060a00160405290816000820154815260200160018201548152602001600282015481526020016003820160009054906101000a90046fffffffffffffffffffffffffffffffff166fffffffffffffffffffffffffffffffff166fffffffffffffffffffffffffffffffff1681526020016003820160109054906101000a90046fffffffffffffffffffffffffffffffff166fffffffffffffffffffffffffffffffff166fffffffffffffffffffffffffffffffff1681525050905060006124db8383613090565b90508093505050505b919050565b6124f1612032565b612563576040517f08c379a00000000000000000000000000000000000000000000000000000000081526004018080602001828103825260208152602001807f4f776e61626c653a2063616c6c6572206973206e6f7420746865206f776e657281525060200191505060405180910390fd5b61256c87615258565b61257586615258565b61257e85615258565b61258784615258565b61259083615258565b61259982615258565b6125a281615258565b86600460006101000a81548173ffffffffffffffffffffffffffffffffffffffff021916908373ffffffffffffffffffffffffffffffffffffffff16021790555085600560006101000a81548173ffffffffffffffffffffffffffffffffffffffff021916908373ffffffffffffffffffffffffffffffffffffffff160217905550846000806101000a81548173ffffffffffffffffffffffffffffffffffffffff021916908373ffffffffffffffffffffffffffffffffffffffff16021790555083600660006101000a81548173ffffffffffffffffffffffffffffffffffffffff021916908373ffffffffffffffffffffffffffffffffffffffff16021790555082600760006101000a81548173ffffffffffffffffffffffffffffffffffffffff021916908373ffffffffffffffffffffffffffffffffffffffff16021790555081600260006101000a81548173ffffffffffffffffffffffffffffffffffffffff021916908373ffffffffffffffffffffffffffffffffffffffff16021790555080600860006101000a81548173ffffffffffffffffffffffffffffffffffffffff021916908373ffffffffffffffffffffffffffffffffffffffff1602179055507f3ca631ffcd2a9b5d9ae18543fc82f58eb4ca33af9e6ab01b7a8e95331e6ed98587604051808273ffffffffffffffffffffffffffffffffffffffff16815260200191505060405180910390a17f143219c9e69b09e07e095fcc889b43d8f46ca892bba65f08dc3a0050869a567886604051808273ffffffffffffffffffffffffffffffffffffffff16815260200191505060405180910390a17f78f058b189175430c48dc02699e3a0031ea4ff781536dc2fab847de4babdd88285604051808273ffffffffffffffffffffffffffffffffffffffff16815260200191505060405180910390a17f227eec0ec317af6ab1a9587ffa1c84332522eb4c583a908f89babc05f8f339bd84604051808273ffffffffffffffffffffffffffffffffffffffff16815260200191505060405180910390a17f65f4cf077bc01e4742eb5ad98326f6e95b63548ea24b17f8d5e823111fe7880083604051808273ffffffffffffffffffffffffffffffffffffffff16815260200191505060405180910390a17f8c537274438aa850a330284665d81a85dd38267d09e4050d416bfc94142db26482604051808273ffffffffffffffffffffffffffffffffffffffff16815260200191505060405180910390a17f3055265812fb8447b9ada4a5d804ec43bd528ec40e89c952bbc7b85dc5ac681181604051808273ffffffffffffffffffffffffffffffffffffffff16815260200191505060405180910390a161298b61537b565b50505050505050565b6012602052816000526040600020602052806000526040600020600091509150505481565b600080600b60008473ffffffffffffffffffffffffffffffffffffffff1673ffffffffffffffffffffffffffffffffffffffff1681526020019081526020016000206000015490506000811415612a14576000915050612c47565b6000600b60008573ffffffffffffffffffffffffffffffffffffffff1673ffffffffffffffffffffffffffffffffffffffff16815260200190815260200160002060010160009054906101000a900473ffffffffffffffffffffffffffffffffffffffff16905060008073ffffffffffffffffffffffffffffffffffffffff168273ffffffffffffffffffffffffffffffffffffffff1614612af857600d60008373ffffffffffffffffffffffffffffffffffffffff1673ffffffffffffffffffffffffffffffffffffffff16815260200190815260200160002060000154612b02565b670de0b6b3a76400005b90506000600c60008773ffffffffffffffffffffffffffffffffffffffff1673ffffffffffffffffffffffffffffffffffffffff1681526020019081526020016000206040518060a00160405290816000820154815260200160018201548152602001600282015481526020016003820160009054906101000a90046fffffffffffffffffffffffffffffffff166fffffffffffffffffffffffffffffffff166fffffffffffffffffffffffffffffffff1681526020016003820160109054906101000a90046fffffffffffffffffffffffffffffffff166fffffffffffffffffffffffffffffffff166fffffffffffffffffffffffffffffffff168152505090506000612c3c670de0b6b3a7640000612c2e612c1f8886615013565b8661518890919063ffffffff16565b61520e90919063ffffffff16565b905080955050505050505b919050565b600b6020528060005260406000206000915090508060000154908060010160009054906101000a900473ffffffffffffffffffffffffffffffffffffffff16905082565b6000600b60003373ffffffffffffffffffffffffffffffffffffffff1673ffffffffffffffffffffffffffffffffffffffff168152602001908152602001600020600001549050612ce0816134bd565b612ce93361543c565b612cf23361555b565b6000600860009054906101000a900473ffffffffffffffffffffffffffffffffffffffff169050612d2281613519565b6000612d2d33611631565b90506000612d3a3361116c565b90506000612d5182866135c690919063ffffffff16565b90506000600b60003373ffffffffffffffffffffffffffffffffffffffff1673ffffffffffffffffffffffffffffffffffffffff16815260200190815260200160002060010160009054906101000a900473ffffffffffffffffffffffffffffffffffffffff169050612dc5853383613610565b6000612dd082612377565b90506000819050612de18382613814565b8273ffffffffffffffffffffffffffffffffffffffff167f99920012339b5a3368d3a04b8606ce412c46ed92b7dcd8602d41fc8862cb8f258233604051808381526020018273ffffffffffffffffffffffffffffffffffffffff1681526020019250505060405180910390a2612e573386613cbb565b3373ffffffffffffffffffffffffffffffffffffffff167f51457222ebca92c335c9c86e2baa1cc0e40ffaa9084a51452980d5ba8dec2f638786604051808381526020018281526020019250505060405180910390a23373ffffffffffffffffffffffffffffffffffffffff167fbce78369dccab09eec1986f4d409ab09ffbb47d65423e5148fcf98411c5111c9866040518082815260200191505060405180910390a2612f10866009546135c690919063ffffffff16565b6009819055507f7ab2bdf6e6d108cd138a8f6436723e8dfd0cb22727fe608e40b5adfb8357f1b96009546040518082815260200191505060405180910390a17f6109e2559dfa766aaec7118351d48a523f0a4157f49c8d68749c8ac41318ad123387604051808373ffffffffffffffffffffffffffffffffffffffff1681526020018281526020019250505060405180910390a1600460009054906101000a900473ffffffffffffffffffffffffffffffffffffffff1673ffffffffffffffffffffffffffffffffffffffff1663ea9638bf87338d8d6040518563ffffffff1660e01b8152600401808473ffffffffffffffffffffffffffffffffffffffff1681526020018373ffffffffffffffffffffffffffffffffffffffff1681526020018273ffffffffffffffffffffffffffffffffffffffff16815260200193505050506000604051808303818588803b15801561306b57600080fd5b505af115801561307f573d6000803e3d6000fd5b505050505050505050505050505050565b60008082602001519050600083606001519050600084608001519050601160109054906101000a90046fffffffffffffffffffffffffffffffff166fffffffffffffffffffffffffffffffff16816fffffffffffffffffffffffffffffffff1610156131025760009350505050613231565b60008061314884601160009054906101000a90046fffffffffffffffffffffffffffffffff166fffffffffffffffffffffffffffffffff166155c590919063ffffffff16565b90506000816fffffffffffffffffffffffffffffffff1614156131935761318c8561317e6010548b61518890919063ffffffff16565b61520e90919063ffffffff16565b91506131fc565b6001816fffffffffffffffffffffffffffffffff1614156131f6576131ef670de0b6b3a76400006131e1876131d36010548d61518890919063ffffffff16565b61520e90919063ffffffff16565b61520e90919063ffffffff16565b91506131fb565b600091505b5b613213633b9aca008961520e90919063ffffffff16565b82101561322857600095505050505050613231565b81955050505050505b92915050565b6000600260009054906101000a900473ffffffffffffffffffffffffffffffffffffffff1673ffffffffffffffffffffffffffffffffffffffff16630fdb11cf6040518163ffffffff1660e01b8152600401602060405180830381600087803b1580156132a357600080fd5b505af11580156132b7573d6000803e3d6000fd5b505050506040513d60208110156132cd57600080fd5b810190808051906020019092919050505090506000600760009054906101000a900473ffffffffffffffffffffffffffffffffffffffff1673ffffffffffffffffffffffffffffffffffffffff16634d6228316040518163ffffffff1660e01b815260040160206040518083038186803b15801561334a57600080fd5b505afa15801561335e573d6000803e3d6000fd5b505050506040513d602081101561337457600080fd5b810190808051906020019092919050505090506000600560009054906101000a900473ffffffffffffffffffffffffffffffffffffffff1673ffffffffffffffffffffffffffffffffffffffff1663d293c71083856040518363ffffffff1660e01b8152600401808373ffffffffffffffffffffffffffffffffffffffff1681526020018281526020019250505060206040518083038186803b15801561341a57600080fd5b505afa15801561342e573d6000803e3d6000fd5b505050506040513d602081101561344457600080fd5b81019080805190602001909291905050509050670f43fc2c04ee00008110156134b8576040517f08c379a0000000000000000000000000000000000000000000000000000000008152600401808060200182810382526044815260200180615d3b6044913960600191505060405180910390fd5b505050565b60008111613516576040517f08c379a0000000000000000000000000000000000000000000000000000000008152600401808060200182810382526030815260200180615cbe6030913960400191505060405180910390fd5b50565b60008173ffffffffffffffffffffffffffffffffffffffff166346ad34d96040518163ffffffff1660e01b8152600401602060405180830381600087803b15801561356357600080fd5b505af1158015613577573d6000803e3d6000fd5b505050506040513d602081101561358d57600080fd5b810190808051906020019092919050505090506135a981615655565b5050565b60008183106135bc57816135be565b825b905092915050565b600061360883836040518060400160405280601e81526020017f536166654d6174683a207375627472616374696f6e206f766572666c6f7700008152506157c3565b905092915050565b600073ffffffffffffffffffffffffffffffffffffffff168173ffffffffffffffffffffffffffffffffffffffff161461372a57600061364f8261216b565b90508373ffffffffffffffffffffffffffffffffffffffff1663614d2ab683836040518363ffffffff1660e01b8152600401808373ffffffffffffffffffffffffffffffffffffffff16815260200182815260200192505050600060405180830381600087803b1580156136c257600080fd5b505af11580156136d6573d6000803e3d6000fd5b505050508173ffffffffffffffffffffffffffffffffffffffff167fcd2cdc1a4af71051394e9c6facd9a266b2ac5bd65d219a701eeda009f47682bf826040518082815260200191505060405180910390a2505b6000613735836129b9565b90508373ffffffffffffffffffffffffffffffffffffffff1663614d2ab684836040518363ffffffff1660e01b8152600401808373ffffffffffffffffffffffffffffffffffffffff16815260200182815260200192505050600060405180830381600087803b1580156137a857600080fd5b505af11580156137bc573d6000803e3d6000fd5b505050508273ffffffffffffffffffffffffffffffffffffffff167f2608b986a6ac0f6c629ca37018e80af5561e366252ae93602a96d3ab2e73e42d826040518082815260200191505060405180910390a250505050565b80600e60008473ffffffffffffffffffffffffffffffffffffffff1673ffffffffffffffffffffffffffffffffffffffff16815260200190815260200160002081905550600081141561395d57600f60008373ffffffffffffffffffffffffffffffffffffffff1673ffffffffffffffffffffffffffffffffffffffff168152602001908152602001600020600080820160009055600182016000905560028201600090556003820160006101000a8154906fffffffffffffffffffffffffffffffff02191690556003820160106101000a8154906fffffffffffffffffffffffffffffffff021916905550508173ffffffffffffffffffffffffffffffffffffffff167fbb1322f85cc7cc8bac4e172a5bc5dcc0c1959007f9a030032abf9258205f0e45600080604051808381526020018281526020019250505060405180910390a2613bd2565b6000601160009054906101000a90046fffffffffffffffffffffffffffffffff1690506000601160109054906101000a90046fffffffffffffffffffffffffffffffff16905060006010549050600060136000846fffffffffffffffffffffffffffffffff1681526020019081526020016000206000856fffffffffffffffffffffffffffffffff16815260200190815260200160002054905081600f60008873ffffffffffffffffffffffffffffffffffffffff1673ffffffffffffffffffffffffffffffffffffffff1681526020019081526020016000206001018190555080600f60008873ffffffffffffffffffffffffffffffffffffffff1673ffffffffffffffffffffffffffffffffffffffff1681526020019081526020016000206002018190555083600f60008873ffffffffffffffffffffffffffffffffffffffff1673ffffffffffffffffffffffffffffffffffffffff16815260200190815260200160002060030160006101000a8154816fffffffffffffffffffffffffffffffff02191690836fffffffffffffffffffffffffffffffff16021790555082600f60008873ffffffffffffffffffffffffffffffffffffffff1673ffffffffffffffffffffffffffffffffffffffff16815260200190815260200160002060030160106101000a8154816fffffffffffffffffffffffffffffffff02191690836fffffffffffffffffffffffffffffffff1602179055508573ffffffffffffffffffffffffffffffffffffffff167fbb1322f85cc7cc8bac4e172a5bc5dcc0c1959007f9a030032abf9258205f0e458383604051808381526020018281526020019250505060405180910390a2505050505b5050565b6000811415613be457613cb7565b600660009054906101000a900473ffffffffffffffffffffffffffffffffffffffff1673ffffffffffffffffffffffffffffffffffffffff166320c582be3084846040518463ffffffff1660e01b8152600401808473ffffffffffffffffffffffffffffffffffffffff1681526020018373ffffffffffffffffffffffffffffffffffffffff1681526020018281526020019350505050600060405180830381600087803b158015613c9557600080fd5b505af1158015613ca9573d6000803e3d6000fd5b50505050613cb681615883565b5b5050565b80600b60008473ffffffffffffffffffffffffffffffffffffffff1673ffffffffffffffffffffffffffffffffffffffff168152602001908152602001600020600001819055506000811415613e7557600b60008373ffffffffffffffffffffffffffffffffffffffff1673ffffffffffffffffffffffffffffffffffffffff16815260200190815260200160002060010160006101000a81549073ffffffffffffffffffffffffffffffffffffffff0219169055600c60008373ffffffffffffffffffffffffffffffffffffffff1673ffffffffffffffffffffffffffffffffffffffff168152602001908152602001600020600080820160009055600182016000905560028201600090556003820160006101000a8154906fffffffffffffffffffffffffffffffff02191690556003820160106101000a8154906fffffffffffffffffffffffffffffffff021916905550508173ffffffffffffffffffffffffffffffffffffffff167f2d6cc0bcdf72c9486f6451bde6b80f44066f4558f77f44dbfedbe7d8b295225a600080600060405180848152602001838152602001828152602001935050505060405180910390a2614187565b6000601160009054906101000a90046fffffffffffffffffffffffffffffffff1690506000601160109054906101000a90046fffffffffffffffffffffffffffffffff16905060006010549050600060126000846fffffffffffffffffffffffffffffffff1681526020019081526020016000206000856fffffffffffffffffffffffffffffffff168152602001908152602001600020549050600060136000856fffffffffffffffffffffffffffffffff1681526020019081526020016000206000866fffffffffffffffffffffffffffffffff16815260200190815260200160002054905082600c60008973ffffffffffffffffffffffffffffffffffffffff1673ffffffffffffffffffffffffffffffffffffffff1681526020019081526020016000206001018190555081600c60008973ffffffffffffffffffffffffffffffffffffffff1673ffffffffffffffffffffffffffffffffffffffff1681526020019081526020016000206000018190555080600c60008973ffffffffffffffffffffffffffffffffffffffff1673ffffffffffffffffffffffffffffffffffffffff1681526020019081526020016000206002018190555084600c60008973ffffffffffffffffffffffffffffffffffffffff1673ffffffffffffffffffffffffffffffffffffffff16815260200190815260200160002060030160006101000a8154816fffffffffffffffffffffffffffffffff02191690836fffffffffffffffffffffffffffffffff16021790555083600c60008973ffffffffffffffffffffffffffffffffffffffff1673ffffffffffffffffffffffffffffffffffffffff16815260200190815260200160002060030160106101000a8154816fffffffffffffffffffffffffffffffff02191690836fffffffffffffffffffffffffffffffff1602179055508673ffffffffffffffffffffffffffffffffffffffff167f2d6cc0bcdf72c9486f6451bde6b80f44066f4558f77f44dbfedbe7d8b295225a84848460405180848152602001838152602001828152602001935050505060405180910390a250505050505b5050565b600081141561419957614307565b60006141b0826009546135c690919063ffffffff16565b9050806009819055507f7ab2bdf6e6d108cd138a8f6436723e8dfd0cb22727fe608e40b5adfb8357f1b9816040518082815260200191505060405180910390a17f6109e2559dfa766aaec7118351d48a523f0a4157f49c8d68749c8ac41318ad123383604051808373ffffffffffffffffffffffffffffffffffffffff1681526020018281526020019250505060405180910390a160003373ffffffffffffffffffffffffffffffffffffffff168360405180600001905060006040518083038185875af1925050503d80600081146142a5576040519150601f19603f3d011682016040523d82523d6000602084013e6142aa565b606091505b5050905080614304576040517f08c379a0000000000000000000000000000000000000000000000000000000008152600401808060200182810382526021815260200180615bc26021913960400191505060405180910390fd5b50505b50565b600560009054906101000a900473ffffffffffffffffffffffffffffffffffffffff1673ffffffffffffffffffffffffffffffffffffffff163373ffffffffffffffffffffffffffffffffffffffff16146143b0576040517f08c379a0000000000000000000000000000000000000000000000000000000008152600401808060200182810382526029815260200180615b996029913960400191505060405180910390fd5b565b60008060006143e66016546143d8670de0b6b3a76400008861518890919063ffffffff16565b6135c690919063ffffffff16565b9050600061441960155461440b670de0b6b3a76400008a61518890919063ffffffff16565b61106c90919063ffffffff16565b905084861061443a57670de0b6b3a76400009250600060168190555061448e565b6144606001614452878561520e90919063ffffffff16565b61106c90919063ffffffff16565b925061448782614479878661518890919063ffffffff16565b6135c690919063ffffffff16565b6016819055505b6144a1858261520e90919063ffffffff16565b93506144c86144b9868661518890919063ffffffff16565b826135c690919063ffffffff16565b6015819055505050935093915050565b600060105490506000670de0b6b3a76400008311156144f357fe5b6000670de0b6b3a76400008410156145255761452084670de0b6b3a76400006135c690919063ffffffff16565b614528565b60005b90506000601160009054906101000a90046fffffffffffffffffffffffffffffffff1690506000601160109054906101000a90046fffffffffffffffffffffffffffffffff169050600060126000836fffffffffffffffffffffffffffffffff1681526020019081526020016000206000846fffffffffffffffffffffffffffffffff16815260200190815260200160002054905060006145d2878a61518890919063ffffffff16565b905060006145e9828461106c90919063ffffffff16565b90508060126000866fffffffffffffffffffffffffffffffff1681526020019081526020016000206000876fffffffffffffffffffffffffffffffff168152602001908152602001600020819055507fb3b0cd868e433c74c233db87efea57c13377de7056bf27b1a50feaab5bfd4991816040518082815260200191505060405180910390a160008614156147205761469e6001856fffffffffffffffffffffffffffffffff166158de90919063ffffffff16565b601160106101000a8154816fffffffffffffffffffffffffffffffff02191690836fffffffffffffffffffffffffffffffff1602179055506000601160006101000a8154816fffffffffffffffffffffffffffffffff02191690836fffffffffffffffffffffffffffffffff160217905550670de0b6b3a764000096506147eb565b670de0b6b3a764000061473c878a61518890919063ffffffff16565b10156147ba57614755868961518890919063ffffffff16565b965061477d6001866fffffffffffffffffffffffffffffffff166158de90919063ffffffff16565b601160006101000a8154816fffffffffffffffffffffffffffffffff02191690836fffffffffffffffffffffffffffffffff1602179055506147ea565b6147e7670de0b6b3a76400006147d9888b61518890919063ffffffff16565b61520e90919063ffffffff16565b96505b5b866010819055507fc1a9618cb59ebca77cbdbc2949f126823c407ff13edb285fd0262519a9c18e8c876040518082815260200191505060405180910390a150505050505050505050565b60008060009054906101000a900473ffffffffffffffffffffffffffffffffffffffff1690508073ffffffffffffffffffffffffffffffffffffffff166338d995a8836040518263ffffffff1660e01b815260040180828152602001915050600060405180830381600087803b1580156148ae57600080fd5b505af11580156148c2573d6000803e3d6000fd5b505050506148cf82615883565b600660009054906101000a900473ffffffffffffffffffffffffffffffffffffffff1673ffffffffffffffffffffffffffffffffffffffff16639dc29fac30846040518363ffffffff1660e01b8152600401808373ffffffffffffffffffffffffffffffffffffffff16815260200182815260200192505050600060405180830381600087803b15801561496257600080fd5b505af1158015614976573d6000803e3d6000fd5b505050508073ffffffffffffffffffffffffffffffffffffffff166364a197f330856040518363ffffffff1660e01b8152600401808373ffffffffffffffffffffffffffffffffffffffff16815260200182815260200192505050600060405180830381600087803b1580156149eb57600080fd5b505af11580156149ff573d6000803e3d6000fd5b50505050505050565b600080826080015190506000836060015190506000846000015190506000856020015190506000614a8a8360126000886fffffffffffffffffffffffffffffffff1681526020019081526020016000206000876fffffffffffffffffffffffffffffffff168152602001908152602001600020546135c690919063ffffffff16565b90506000614b16670de0b6b3a764000060126000896fffffffffffffffffffffffffffffffff1681526020019081526020016000206000614ae760018a6fffffffffffffffffffffffffffffffff166158de90919063ffffffff16565b6fffffffffffffffffffffffffffffffff1681526020019081526020016000205461520e90919063ffffffff16565b90506000614b6b670de0b6b3a7640000614b5d86614b4f614b40878961106c90919063ffffffff16565b8f61518890919063ffffffff16565b61520e90919063ffffffff16565b61520e90919063ffffffff16565b90508097505050505050505092915050565b600d60008273ffffffffffffffffffffffffffffffffffffffff1673ffffffffffffffffffffffffffffffffffffffff16815260200190815260200160002060010160009054906101000a900460ff1615614c23576040517f08c379a0000000000000000000000000000000000000000000000000000000008152600401808060200182810382526039815260200180615c5d6039913960400191505060405180910390fd5b50565b6000600b60008373ffffffffffffffffffffffffffffffffffffffff1673ffffffffffffffffffffffffffffffffffffffff16815260200190815260200160002060000154905060008114614cc6576040517f08c379a0000000000000000000000000000000000000000000000000000000008152600401808060200182810382526028815260200180615c966028913960400191505060405180910390fd5b5050565b670de0b6b3a7640000811115614d2b576040517f08c379a0000000000000000000000000000000000000000000000000000000008152600401808060200182810382526033815260200180615c046033913960400191505060405180910390fd5b50565b600d60008273ffffffffffffffffffffffffffffffffffffffff1673ffffffffffffffffffffffffffffffffffffffff16815260200190815260200160002060010160009054906101000a900460ff1680614db55750600073ffffffffffffffffffffffffffffffffffffffff168173ffffffffffffffffffffffffffffffffffffffff16145b614e0a576040517f08c379a0000000000000000000000000000000000000000000000000000000008152600401808060200182810382526046815260200180615afb6046913960600191505060405180910390fd5b50565b60008111614e66576040517f08c379a0000000000000000000000000000000000000000000000000000000008152600401808060200182810382526026815260200180615c376026913960400191505060405180910390fd5b50565b80600b60008473ffffffffffffffffffffffffffffffffffffffff1673ffffffffffffffffffffffffffffffffffffffff16815260200190815260200160002060010160006101000a81548173ffffffffffffffffffffffffffffffffffffffff021916908373ffffffffffffffffffffffffffffffffffffffff1602179055505050565b600660009054906101000a900473ffffffffffffffffffffffffffffffffffffffff1673ffffffffffffffffffffffffffffffffffffffff1663bb997bac8330846040518463ffffffff1660e01b8152600401808473ffffffffffffffffffffffffffffffffffffffff1681526020018373ffffffffffffffffffffffffffffffffffffffff1681526020018281526020019350505050600060405180830381600087803b158015614f9f57600080fd5b505af1158015614fb3573d6000803e3d6000fd5b505050506000614fce82600a5461106c90919063ffffffff16565b905080600a819055507fb85aa39be26453c93060ffe42e1e6ea34980cb12e563f517cbce039dcd5af392816040518082815260200191505060405180910390a1505050565b6000808260800151905060008360600151905060008460400151905060008560200151905060006150958360136000886fffffffffffffffffffffffffffffffff1681526020019081526020016000206000876fffffffffffffffffffffffffffffffff168152602001908152602001600020546135c690919063ffffffff16565b90506000615121670de0b6b3a764000060136000896fffffffffffffffffffffffffffffffff16815260200190815260200160002060006150f260018a6fffffffffffffffffffffffffffffffff166158de90919063ffffffff16565b6fffffffffffffffffffffffffffffffff1681526020019081526020016000205461520e90919063ffffffff16565b90506000615176670de0b6b3a76400006151688661515a61514b878961106c90919063ffffffff16565b8f61518890919063ffffffff16565b61520e90919063ffffffff16565b61520e90919063ffffffff16565b90508097505050505050505092915050565b60008083141561519b5760009050615208565b60008284029050828482816151ac57fe5b0414615203576040517f08c379a0000000000000000000000000000000000000000000000000000000008152600401808060200182810382526021815260200180615be36021913960400191505060405180910390fd5b809150505b92915050565b600061525083836040518060400160405280601a81526020017f536166654d6174683a206469766973696f6e206279207a65726f00000000000081525061596d565b905092915050565b600073ffffffffffffffffffffffffffffffffffffffff168173ffffffffffffffffffffffffffffffffffffffff1614156152fb576040517f08c379a000000000000000000000000000000000000000000000000000000000815260040180806020018281038252601e8152602001807f4163636f756e742063616e6e6f74206265207a65726f2061646472657373000081525060200191505060405180910390fd5b6000813b905060008111615377576040517f08c379a00000000000000000000000000000000000000000000000000000000081526004018080602001828103825260208152602001807f4163636f756e7420636f64652073697a652063616e6e6f74206265207a65726f81525060200191505060405180910390fd5b5050565b600073ffffffffffffffffffffffffffffffffffffffff16600360009054906101000a900473ffffffffffffffffffffffffffffffffffffffff1673ffffffffffffffffffffffffffffffffffffffff167f8be0079c531659141344cd1fd0a4f28419497f9722a3daafe3b4186f6b6457e060405160405180910390a36000600360006101000a81548173ffffffffffffffffffffffffffffffffffffffff021916908373ffffffffffffffffffffffffffffffffffffffff160217905550565b6001600560009054906101000a900473ffffffffffffffffffffffffffffffffffffffff1673ffffffffffffffffffffffffffffffffffffffff166321e37801836040518263ffffffff1660e01b8152600401808273ffffffffffffffffffffffffffffffffffffffff16815260200191505060206040518083038186803b1580156154c757600080fd5b505afa1580156154db573d6000803e3d6000fd5b505050506040513d60208110156154f157600080fd5b810190808051906020019092919050505014615558576040517f08c379a0000000000000000000000000000000000000000000000000000000008152600401808060200182810382526046815260200180615ab56046913960600191505060405180910390fd5b50565b600061556682611631565b9050600081116155c1576040517f08c379a0000000000000000000000000000000000000000000000000000000008152600401808060200182810382526031815260200180615b686031913960400191505060405180910390fd5b5050565b6000826fffffffffffffffffffffffffffffffff16826fffffffffffffffffffffffffffffffff161115615644576040517f08c379a0000000000000000000000000000000000000000000000000000000008152600401808060200182810382526028815260200180615cee6028913960400191505060405180910390fd5b600082840390508091505092915050565b6000600a549050600081148061566b5750600082145b1561567657506157c0565b60006156828383615a33565b9050600061569b6010548361518890919063ffffffff16565b90506157348160136000601160109054906101000a90046fffffffffffffffffffffffffffffffff166fffffffffffffffffffffffffffffffff1681526020019081526020016000206000601160009054906101000a90046fffffffffffffffffffffffffffffffff166fffffffffffffffffffffffffffffffff1681526020019081526020016000205461106c90919063ffffffff16565b60136000601160109054906101000a90046fffffffffffffffffffffffffffffffff166fffffffffffffffffffffffffffffffff1681526020019081526020016000206000601160009054906101000a90046fffffffffffffffffffffffffffffffff166fffffffffffffffffffffffffffffffff168152602001908152602001600020819055505050505b50565b6000838311158290615870576040517f08c379a00000000000000000000000000000000000000000000000000000000081526004018080602001828103825283818151815260200191508051906020019080838360005b8381101561583557808201518184015260208101905061581a565b50505050905090810190601f1680156158625780820380516001836020036101000a031916815260200191505b509250505060405180910390fd5b5060008385039050809150509392505050565b600061589a82600a546135c690919063ffffffff16565b905080600a819055507fb85aa39be26453c93060ffe42e1e6ea34980cb12e563f517cbce039dcd5af392816040518082815260200191505060405180910390a15050565b6000808284019050836fffffffffffffffffffffffffffffffff16816fffffffffffffffffffffffffffffffff161015615963576040517f08c379a0000000000000000000000000000000000000000000000000000000008152600401808060200182810382526025815260200180615d166025913960400191505060405180910390fd5b8091505092915050565b60008083118290615a19576040517f08c379a00000000000000000000000000000000000000000000000000000000081526004018080602001828103825283818151815260200191508051906020019080838360005b838110156159de5780820151818401526020810190506159c3565b50505050905090810190601f168015615a0b5780820380516001836020036101000a031916815260200191505b509250505060405180910390fd5b506000838581615a2557fe5b049050809150509392505050565b600080615a65601454615a57670de0b6b3a76400008761518890919063ffffffff16565b61106c90919063ffffffff16565b90506000615a7c848361520e90919063ffffffff16565b9050615aa3615a94858361518890919063ffffffff16565b836135c690919063ffffffff16565b60148190555080925050509291505056fe53746162696c697479506f6f6c3a2063616c6c6572206d757374206861766520616e206163746976652074726f766520746f207769746864726177204554484761696e20746f53746162696c697479506f6f6c3a20546167206d757374206265206120726567697374657265642066726f6e7420656e642c206f7220746865207a65726f206164647265737353746162696c697479506f6f6c3a2043616c6c6572206973206e6f7420416374697665506f6f6c53746162696c697479506f6f6c3a2063616c6c6572206d7573742068617665206e6f6e2d7a65726f20455448204761696e53746162696c697479506f6f6c3a2043616c6c6572206973206e6f742054726f76654d616e6167657253746162696c697479506f6f6c3a2073656e64696e6720455448206661696c6564536166654d6174683a206d756c7469706c69636174696f6e206f766572666c6f7753746162696c697479506f6f6c3a204b69636b6261636b2072617465206d75737420626520696e2072616e6765205b302c315d53746162696c697479506f6f6c3a20416d6f756e74206d757374206265206e6f6e2d7a65726f53746162696c697479506f6f6c3a206d757374206e6f7420616c7265616479206265206120726567697374657265642066726f6e7420656e6453746162696c697479506f6f6c3a2055736572206d7573742068617665206e6f206465706f73697453746162696c697479506f6f6c3a2055736572206d75737420686176652061206e6f6e2d7a65726f206465706f7369744c697175697479536166654d6174683132383a207375627472616374696f6e206f766572666c6f774c697175697479536166654d6174683132383a206164646974696f6e206f766572666c6f7753746162696c697479506f6f6c3a2043616e6e6f74207769746864726177207768696c65207468657265206172652074726f766573207769746820494352203c204d4352a2646970667358221220248d7aa8904fa7893b7639b955f574479671e84cd792b584212cae3792a8feb164736f6c63430007060033",
  "immutableReferences": {},
  "source": "// SPDX-License-Identifier: MIT\r\n\r\npragma solidity >=0.6.0 <0.8.0;\r\n\r\nimport \"./Interfaces/IBorrowerOperations.sol\";\r\nimport \"./Interfaces/IStabilityPool.sol\";\r\nimport \"./Interfaces/IBorrowerOperations.sol\";\r\nimport \"./Interfaces/ITroveManager.sol\";\r\nimport \"./Interfaces/ILUSDToken.sol\";\r\nimport \"./Interfaces/ISortedTroves.sol\";\r\nimport \"./Interfaces/ICommunityIssuance.sol\";\r\nimport \"./Dependencies/LiquityBase.sol\";\r\nimport \"./Dependencies/TestSafeMath.sol\";\r\nimport \"./Dependencies/LiquitySafeMath128.sol\";\r\nimport \"./Dependencies/Ownable.sol\";\r\nimport \"./Dependencies/CheckContract.sol\";\r\nimport \"./Dependencies/console.sol\";\r\n\r\n/*\r\n * The Stability Pool holds LUSD tokens deposited by Stability Pool depositors.\r\n *\r\n * When a trove is liquidated, then depending on system conditions, some of its LUSD debt gets offset with\r\n * LUSD in the Stability Pool:  that is, the offset debt evaporates, and an equal amount of LUSD tokens in the Stability Pool is burned.\r\n *\r\n * Thus, a liquidation causes each depositor to receive a LUSD loss, in proportion to their deposit as a share of total deposits.\r\n * They also receive an ETH gain, as the ETH collateral of the liquidated trove is distributed among Stability depositors,\r\n * in the same proportion.\r\n *\r\n * When a liquidation occurs, it depletes every deposit by the same fraction: for example, a liquidation that depletes 40%\r\n * of the total LUSD in the Stability Pool, depletes 40% of each deposit.\r\n *\r\n * A deposit that has experienced a series of liquidations is termed a \"compounded deposit\": each liquidation depletes the deposit,\r\n * multiplying it by some factor in range ]0,1[\r\n *\r\n *\r\n * --- IMPLEMENTATION ---\r\n *\r\n * We use a highly scalable method of tracking deposits and ETH gains that has O(1) complexity.\r\n *\r\n * When a liquidation occurs, rather than updating each depositor's deposit and ETH gain, we simply update two state variables:\r\n * a product P, and a sum S.\r\n *\r\n * A mathematical manipulation allows us to factor out the initial deposit, and accurately track all depositors' compounded deposits\r\n * and accumulated ETH gains over time, as liquidations occur, using just these two variables P and S. When depositors join the\r\n * Stability Pool, they get a snapshot of the latest P and S: P_t and S_t, respectively.\r\n *\r\n * The formula for a depositor's accumulated ETH gain is derived here:\r\n * https://github.com/liquity/dev/blob/main/packages/contracts/mathProofs/Scalable%20Compounding%20Stability%20Pool%20Deposits.pdf\r\n *\r\n * For a given deposit d_t, the ratio P/P_t tells us the factor by which a deposit has decreased since it joined the Stability Pool,\r\n * and the term d_t * (S - S_t)/P_t gives us the deposit's total accumulated ETH gain.\r\n *\r\n * Each liquidation updates the product P and sum S. After a series of liquidations, a compounded deposit and corresponding ETH gain\r\n * can be calculated using the initial deposit, the depositors snapshots of P and S, and the latest values of P and S.\r\n *\r\n * Any time a depositor updates their deposit (withdrawal, top-up) their accumulated ETH gain is paid out, their new deposit is recorded\r\n * (based on their latest compounded deposit and modified by the withdrawal/top-up), and they receive new snapshots of the latest P and S.\r\n * Essentially, they make a fresh deposit that overwrites the old one.\r\n *\r\n *\r\n * --- SCALE FACTOR ---\r\n *\r\n * Since P is a running product in range ]0,1] that is always-decreasing, it should never reach 0 when multiplied by a number in range ]0,1[.\r\n * Unfortunately, Solidity floor division always reaches 0, sooner or later.\r\n *\r\n * A series of liquidations that nearly empty the Pool (and thus each multiply P by a very small number in range ]0,1[ ) may push P\r\n * to its 18 digit decimal limit, and round it to 0, when in fact the Pool hasn't been emptied: this would break deposit tracking.\r\n *\r\n * So, to track P accurately, we use a scale factor: if a liquidation would cause P to decrease to <1e-18 (and be rounded to 0 by Solidity),\r\n * we first multiply P by 1e18, and increment a currentScale factor by 1.\r\n *\r\n *\r\n * --- EPOCHS ---\r\n *\r\n * Whenever a liquidation fully empties the Stability Pool, all deposits should become 0. However, setting P to 0 would make P be 0\r\n * forever, and break all future reward calculations.\r\n *\r\n * So, every time the Stability Pool is emptied by a liquidation, we reset P = 1 and currentScale = 0, and increment the currentEpoch by 1.\r\n *\r\n * --- TRACKING DEPOSIT OVER SCALE CHANGES AND EPOCHS ---\r\n *\r\n * When a deposit is made, it gets snapshots of the currentEpoch and the currentScale.\r\n *\r\n * When calculating a compounded deposit, we compare the current epoch to the deposit's epoch snapshot. If the current epoch is newer,\r\n * then the deposit was present during a pool-emptying liquidation, and necessarily has been depleted to 0.\r\n *\r\n * Otherwise, we then compare the current scale to the deposit's scale snapshot. If they're equal, the compounded deposit is given by d_t * P/P_t.\r\n * If it spans one scale change, it is given by d_t * P/(P_t * 1e18). If it spans more than one scale change, we define the compounded deposit\r\n * as 0, since it is now less than 1e-18'th of its initial value (e.g. a deposit of 1 billion LUSD has depleted to 1 billionth of an LUSD).\r\n *\r\n *\r\n *  --- TRACKING DEPOSITOR'S ETH GAIN OVER SCALE CHANGES AND EPOCHS ---\r\n *\r\n * In the current epoch, the latest value of S is stored upon each scale change, and the mapping (scale -> S) is stored for each epoch.\r\n *\r\n * This allows us to calculate a deposit's accumulated ETH gain, during the epoch in which the deposit was non-zero and earned ETH.\r\n *\r\n * We calculate the depositor's accumulated ETH gain for the scale at which they made the deposit, using the ETH gain formula:\r\n * e_1 = d_t * (S - S_t) / P_t\r\n *\r\n * and also for scale after, taking care to divide the latter by a factor of 1e18:\r\n * e_2 = d_t * (S - S_t) / (P_t * 1e18)\r\n *\r\n * The sum of (e_1 + e_2) captures the depositor's total accumulated ETH gain, handling the case where their\r\n * deposit spanned one scale change. We only care about gains across one scale change, since the compounded\r\n * deposit is defined as being 0 once it has spanned more than one scale change.\r\n *\r\n *\r\n * --- UPDATING P WHEN A LIQUIDATION OCCURS ---\r\n *\r\n * Please see the implementation spec in the proof document, which closely follows on from the compounded deposit / ETH gain derivations:\r\n * https://github.com/liquity/dev/blob/main/packages/contracts/mathProofs/Scalable%20Compounding%20Stability%20Pool%20Deposits.pdf\r\n *\r\n *\r\n * --- LQTY ISSUANCE TO STABILITY POOL DEPOSITORS ---\r\n *\r\n * An LQTY issuance event occurs at every deposit operation, and every liquidation.\r\n *\r\n * Each deposit is tagged with the address of the front end through which it was made.\r\n *\r\n * All deposits earn a share of the issued LQTY in proportion to the deposit as a share of total deposits. The LQTY earned\r\n * by a given deposit, is split between the depositor and the front end through which the deposit was made, based on the front end's kickbackRate.\r\n *\r\n * Please see the system Readme for an overview:\r\n * https://github.com/liquity/dev/blob/main/README.md#lqty-issuance-to-stability-depositors\r\n *\r\n * We use the same mathematical product-sum approach to track LQTY gains for depositors, where 'G' is the sum corresponding to LQTY gains.\r\n * The product P (and snapshot P_t) is re-used, as the ratio P/P_t tracks a deposit's depletion due to liquidations.\r\n *\r\n */\r\ncontract StabilityPool is LiquityBase, Ownable, CheckContract, IStabilityPool {\r\n    using LiquitySafeMath128 for uint128;\r\n    using TestSafeMath for uint256;\r\n\r\n    IBorrowerOperations public borrowerOperations;\r\n\r\n    ITroveManager public troveManager;\r\n\r\n    ILUSDToken public lusdToken;\r\n\r\n    // Needed to check if there are pending liquidations\r\n    ISortedTroves public sortedTroves;\r\n\r\n    ICommunityIssuance public communityIssuance;\r\n\r\n    uint256 internal ETH; // deposited ether tracker\r\n\r\n    // Tracker for LUSD held in the pool. Changes when users deposit/withdraw, and when Trove debt is offset.\r\n    uint256 internal totalLUSDDeposits;\r\n\r\n    // --- Data structures ---\r\n\r\n    struct FrontEnd {\r\n        uint256 kickbackRate;\r\n        bool registered;\r\n    }\r\n\r\n    struct Deposit {\r\n        uint256 initialValue;\r\n        address frontEndTag;\r\n    }\r\n\r\n    struct Snapshots {\r\n        uint256 S;\r\n        uint256 P;\r\n        uint256 G;\r\n        uint128 scale;\r\n        uint128 epoch;\r\n    }\r\n\r\n    mapping(address => Deposit) public deposits; // depositor address -> Deposit struct\r\n    mapping(address => Snapshots) public depositSnapshots; // depositor address -> snapshots struct\r\n\r\n    mapping(address => FrontEnd) public frontEnds; // front end address -> FrontEnd struct\r\n    mapping(address => uint256) public frontEndStakes; // front end address -> last recorded total deposits, tagged with that front end\r\n    mapping(address => Snapshots) public frontEndSnapshots; // front end address -> snapshots struct\r\n\r\n    /*  Product 'P': Running product by which to multiply an initial deposit, in order to find the current compounded deposit,\r\n     * after a series of liquidations have occurred, each of which cancel some LUSD debt with the deposit.\r\n     *\r\n     * During its lifetime, a deposit's value evolves from d_t to d_t * P / P_t , where P_t\r\n     * is the snapshot of P taken at the instant the deposit was made. 18-digit decimal.\r\n     */\r\n    uint256 public P = DECIMAL_PRECISION;\r\n\r\n    // Each time the scale of P shifts by 1e18, the scale is incremented by 1\r\n    uint128 public currentScale;\r\n\r\n    // With each offset that fully empties the Pool, the epoch is incremented by 1\r\n    uint128 public currentEpoch;\r\n\r\n    /* ETH Gain sum 'S': During its lifetime, each deposit d_t earns an ETH gain of ( d_t * [S - S_t] )/P_t, where S_t\r\n     * is the depositor's snapshot of S taken at the time t when the deposit was made.\r\n     *\r\n     * The 'S' sums are stored in a nested mapping (epoch => scale => sum):\r\n     *\r\n     * - The inner mapping records the sum S at different scales\r\n     * - The outer mapping records the (scale => sum) mappings, for different epochs.\r\n     */\r\n    mapping(uint256 => mapping(uint256 => uint256)) public epochToScaleToSum;\r\n\r\n    /*\r\n     * Similarly, the sum 'G' is used to calculate LQTY gains. During it's lifetime, each deposit d_t earns a LQTY gain of\r\n     *  ( d_t * [G - G_t] )/P_t, where G_t is the depositor's snapshot of G taken at time t when  the deposit was made.\r\n     *\r\n     *  LQTY reward events occur are triggered by depositor operations (new deposit, topup, withdrawal), and liquidations.\r\n     *  In each case, the LQTY reward is issued (i.e. G is updated), before other state changes are made.\r\n     */\r\n    mapping(uint256 => mapping(uint256 => uint256)) public epochToScaleToG;\r\n\r\n    // Error tracker for the error correction in the LQTY issuance calculation\r\n    uint256 public lastLQTYError;\r\n    // Error trackers for the error correction in the offset calculation\r\n    uint256 public lastETHError_Offset;\r\n    uint256 public lastLUSDLossError_Offset;\r\n\r\n    // --- Contract setters ---\r\n\r\n    function setAddresses(\r\n        address _borrowerOperationsAddress,\r\n        address _troveManagerAddress,\r\n        address _activePoolAddress,\r\n        address _lusdTokenAddress,\r\n        address _sortedTrovesAddress,\r\n        address _priceFeedAddress,\r\n        address _communityIssuanceAddress\r\n    ) external override onlyOwner {\r\n        checkContract(_borrowerOperationsAddress);\r\n        checkContract(_troveManagerAddress);\r\n        checkContract(_activePoolAddress);\r\n        checkContract(_lusdTokenAddress);\r\n        checkContract(_sortedTrovesAddress);\r\n        checkContract(_priceFeedAddress);\r\n        checkContract(_communityIssuanceAddress);\r\n\r\n        borrowerOperations = IBorrowerOperations(_borrowerOperationsAddress);\r\n        troveManager = ITroveManager(_troveManagerAddress);\r\n        activePool = IActivePool(_activePoolAddress);\r\n        lusdToken = ILUSDToken(_lusdTokenAddress);\r\n        sortedTroves = ISortedTroves(_sortedTrovesAddress);\r\n        priceFeed = IPriceFeed(_priceFeedAddress);\r\n        communityIssuance = ICommunityIssuance(_communityIssuanceAddress);\r\n\r\n        emit BorrowerOperationsAddressChanged(_borrowerOperationsAddress);\r\n        emit TroveManagerAddressChanged(_troveManagerAddress);\r\n        emit ActivePoolAddressChanged(_activePoolAddress);\r\n        emit LUSDTokenAddressChanged(_lusdTokenAddress);\r\n        emit SortedTrovesAddressChanged(_sortedTrovesAddress);\r\n        emit PriceFeedAddressChanged(_priceFeedAddress);\r\n        emit CommunityIssuanceAddressChanged(_communityIssuanceAddress);\r\n\r\n        _renounceOwnership();\r\n    }\r\n\r\n    // --- Getters for public variables. Required by IPool interface ---\r\n\r\n    function getETH() external view override returns (uint256) {\r\n        return ETH;\r\n    }\r\n\r\n    function getTotalLUSDDeposits() external view override returns (uint256) {\r\n        return totalLUSDDeposits;\r\n    }\r\n\r\n    // --- External Depositor Functions ---\r\n\r\n    /*  provideToSP():\r\n     *\r\n     * - Triggers a LQTY issuance, based on time passed since the last. The LQTY issuance is shared between *all* depositors and front ends\r\n     * - Tags the deposit with the provided front end tag param, if it's a new deposit\r\n     * - Sends depositor's accumulated gains (LQTY, ETH) to depositor\r\n     * - Sends the tagged front end's accumulated LQTY gains to the tagged front end\r\n     * - Increases deposit and tagged front end's stake, and takes new snapshots for each.\r\n     */\r\n    function provideToSP(uint256 _amount, address _frontEndTag)\r\n        external\r\n        override\r\n    {\r\n        _requireFrontEndIsRegisteredOrZero(_frontEndTag);\r\n        _requireFrontEndNotRegistered(msg.sender);\r\n        _requireNonZeroAmount(_amount);\r\n\r\n        uint256 initialDeposit = deposits[msg.sender].initialValue;\r\n\r\n        ICommunityIssuance communityIssuanceCached = communityIssuance;\r\n\r\n        _triggerLQTYIssuance(communityIssuanceCached);\r\n\r\n        if (initialDeposit == 0) {\r\n            _setFrontEndTag(msg.sender, _frontEndTag);\r\n        }\r\n        uint256 depositorETHGain = getDepositorETHGain(msg.sender);\r\n        uint256 compoundedLUSDDeposit = getCompoundedLUSDDeposit(msg.sender);\r\n        uint256 LUSDLoss = initialDeposit.sub(compoundedLUSDDeposit); // Needed only for event log\r\n\r\n        // First pay out any LQTY gains\r\n        address frontEnd = deposits[msg.sender].frontEndTag;\r\n        _payOutLQTYGains(communityIssuanceCached, msg.sender, frontEnd);\r\n\r\n        // Update front end stake\r\n        uint256 compoundedFrontEndStake = getCompoundedFrontEndStake(frontEnd);\r\n        uint256 newFrontEndStake = compoundedFrontEndStake.add(_amount);\r\n        _updateFrontEndStakeAndSnapshots(frontEnd, newFrontEndStake);\r\n        emit FrontEndStakeChanged(frontEnd, newFrontEndStake, msg.sender);\r\n\r\n        _sendLUSDtoStabilityPool(msg.sender, _amount);\r\n\r\n        uint256 newDeposit = compoundedLUSDDeposit.add(_amount);\r\n        _updateDepositAndSnapshots(msg.sender, newDeposit);\r\n        emit UserDepositChanged(msg.sender, newDeposit);\r\n\r\n        emit ETHGainWithdrawn(msg.sender, depositorETHGain, LUSDLoss); // LUSD Loss required for event log\r\n\r\n        _sendETHGainToDepositor(depositorETHGain);\r\n    }\r\n\r\n    /*  withdrawFromSP():\r\n     *\r\n     * - Triggers a LQTY issuance, based on time passed since the last. The LQTY issuance is shared between *all* depositors and front ends\r\n     * - Removes the deposit's front end tag if it is a full withdrawal\r\n     * - Sends all depositor's accumulated gains (LQTY, ETH) to depositor\r\n     * - Sends the tagged front end's accumulated LQTY gains to the tagged front end\r\n     * - Decreases deposit and tagged front end's stake, and takes new snapshots for each.\r\n     *\r\n     * If _amount > userDeposit, the user withdraws all of their compounded deposit.\r\n     */\r\n    function withdrawFromSP(uint256 _amount) external override {\r\n        if (_amount != 0) {\r\n            _requireNoUnderCollateralizedTroves();\r\n        }\r\n        uint256 initialDeposit = deposits[msg.sender].initialValue;\r\n        _requireUserHasDeposit(initialDeposit);\r\n\r\n        ICommunityIssuance communityIssuanceCached = communityIssuance;\r\n\r\n        _triggerLQTYIssuance(communityIssuanceCached);\r\n\r\n        uint256 depositorETHGain = getDepositorETHGain(msg.sender);\r\n\r\n        uint256 compoundedLUSDDeposit = getCompoundedLUSDDeposit(msg.sender);\r\n        uint256 LUSDtoWithdraw =\r\n            LiquityMath._min(_amount, compoundedLUSDDeposit);\r\n        uint256 LUSDLoss = initialDeposit.sub(compoundedLUSDDeposit); // Needed only for event log\r\n\r\n        // First pay out any LQTY gains\r\n        address frontEnd = deposits[msg.sender].frontEndTag;\r\n        _payOutLQTYGains(communityIssuanceCached, msg.sender, frontEnd);\r\n\r\n        // Update front end stake\r\n        uint256 compoundedFrontEndStake = getCompoundedFrontEndStake(frontEnd);\r\n        uint256 newFrontEndStake = compoundedFrontEndStake.sub(LUSDtoWithdraw);\r\n        _updateFrontEndStakeAndSnapshots(frontEnd, newFrontEndStake);\r\n        emit FrontEndStakeChanged(frontEnd, newFrontEndStake, msg.sender);\r\n\r\n        _sendLUSDToDepositor(msg.sender, LUSDtoWithdraw);\r\n\r\n        // Update deposit\r\n        uint256 newDeposit = compoundedLUSDDeposit.sub(LUSDtoWithdraw);\r\n        _updateDepositAndSnapshots(msg.sender, newDeposit);\r\n        emit UserDepositChanged(msg.sender, newDeposit);\r\n\r\n        emit ETHGainWithdrawn(msg.sender, depositorETHGain, LUSDLoss); // LUSD Loss required for event log\r\n\r\n        _sendETHGainToDepositor(depositorETHGain);\r\n    }\r\n\r\n    /* withdrawETHGainToTrove:\r\n     * - Triggers a LQTY issuance, based on time passed since the last. The LQTY issuance is shared between *all* depositors and front ends\r\n     * - Sends all depositor's LQTY gain to  depositor\r\n     * - Sends all tagged front end's LQTY gain to the tagged front end\r\n     * - Transfers the depositor's entire ETH gain from the Stability Pool to the caller's trove\r\n     * - Leaves their compounded deposit in the Stability Pool\r\n     * - Updates snapshots for deposit and tagged front end stake */\r\n    function withdrawETHGainToTrove(address _upperHint, address _lowerHint)\r\n        external\r\n        override\r\n    {\r\n        uint256 initialDeposit = deposits[msg.sender].initialValue;\r\n        _requireUserHasDeposit(initialDeposit);\r\n        _requireUserHasTrove(msg.sender);\r\n        _requireUserHasETHGain(msg.sender);\r\n\r\n        ICommunityIssuance communityIssuanceCached = communityIssuance;\r\n\r\n        _triggerLQTYIssuance(communityIssuanceCached);\r\n\r\n        uint256 depositorETHGain = getDepositorETHGain(msg.sender);\r\n\r\n        uint256 compoundedLUSDDeposit = getCompoundedLUSDDeposit(msg.sender);\r\n        uint256 LUSDLoss = initialDeposit.sub(compoundedLUSDDeposit); // Needed only for event log\r\n\r\n        // First pay out any LQTY gains\r\n        address frontEnd = deposits[msg.sender].frontEndTag;\r\n        _payOutLQTYGains(communityIssuanceCached, msg.sender, frontEnd);\r\n\r\n        // Update front end stake\r\n        uint256 compoundedFrontEndStake = getCompoundedFrontEndStake(frontEnd);\r\n        uint256 newFrontEndStake = compoundedFrontEndStake;\r\n        _updateFrontEndStakeAndSnapshots(frontEnd, newFrontEndStake);\r\n        emit FrontEndStakeChanged(frontEnd, newFrontEndStake, msg.sender);\r\n\r\n        _updateDepositAndSnapshots(msg.sender, compoundedLUSDDeposit);\r\n\r\n        /* Emit events before transferring ETH gain to Trove.\r\n         This lets the event log make more sense (i.e. so it appears that first the ETH gain is withdrawn\r\n        and then it is deposited into the Trove, not the other way around). */\r\n        emit ETHGainWithdrawn(msg.sender, depositorETHGain, LUSDLoss);\r\n        emit UserDepositChanged(msg.sender, compoundedLUSDDeposit);\r\n\r\n        ETH = ETH.sub(depositorETHGain);\r\n        emit ETHBalanceUpdated(ETH);\r\n        emit EtherSent(msg.sender, depositorETHGain);\r\n\r\n        borrowerOperations.moveETHGainToTrove{value: depositorETHGain}(\r\n            msg.sender,\r\n            _upperHint,\r\n            _lowerHint\r\n        );\r\n    }\r\n\r\n    // --- LQTY issuance functions ---\r\n\r\n    function _triggerLQTYIssuance(ICommunityIssuance _communityIssuance)\r\n        internal\r\n    {\r\n        uint256 LQTYIssuance = _communityIssuance.issueLQTY();\r\n        _updateG(LQTYIssuance);\r\n    }\r\n\r\n    function _updateG(uint256 _LQTYIssuance) internal {\r\n        uint256 totalLUSD = totalLUSDDeposits; // cached to save an SLOAD\r\n\r\n        /*\r\n         * When total deposits is 0, G is not updated. In this case, the LQTY issued can not be obtained by later\r\n         * depositors - it is missed out on, and remains in the balanceof the CommunityIssuance contract.\r\n         *\r\n         */\r\n        if (totalLUSD == 0 || _LQTYIssuance == 0) {\r\n            return;\r\n        }\r\n\r\n        uint256 LQTYPerUnitStaked;\r\n        LQTYPerUnitStaked = _computeLQTYPerUnitStaked(_LQTYIssuance, totalLUSD);\r\n\r\n        uint256 marginalLQTYGain = LQTYPerUnitStaked.mul(P);\r\n        epochToScaleToG[currentEpoch][currentScale] = epochToScaleToG[\r\n            currentEpoch\r\n        ][currentScale]\r\n            .add(marginalLQTYGain);\r\n    }\r\n\r\n    function _computeLQTYPerUnitStaked(\r\n        uint256 _LQTYIssuance,\r\n        uint256 _totalLUSDDeposits\r\n    ) internal returns (uint256) {\r\n        /*\r\n         * Calculate the LQTY-per-unit staked.  Division uses a \"feedback\" error correction, to keep the\r\n         * cumulative error low in the running total G:\r\n         *\r\n         * 1) Form a numerator which compensates for the floor division error that occurred the last time this\r\n         * function was called.\r\n         * 2) Calculate \"per-unit-staked\" ratio.\r\n         * 3) Multiply the ratio back by its denominator, to reveal the current floor division error.\r\n         * 4) Store this error for use in the next correction when this function is called.\r\n         * 5) Note: static analysis tools complain about this \"division before multiplication\", however, it is intended.\r\n         */\r\n        uint256 LQTYNumerator =\r\n            _LQTYIssuance.mul(DECIMAL_PRECISION).add(lastLQTYError);\r\n\r\n        uint256 LQTYPerUnitStaked = LQTYNumerator.div(_totalLUSDDeposits);\r\n        lastLQTYError = LQTYNumerator.sub(\r\n            LQTYPerUnitStaked.mul(_totalLUSDDeposits)\r\n        );\r\n\r\n        return LQTYPerUnitStaked;\r\n    }\r\n\r\n    // --- Liquidation functions ---\r\n\r\n    /*\r\n     * Cancel out the specified debt against the LUSD contained in the Stability Pool (as far as possible)\r\n     * and transfers the Trove's ETH collateral from ActivePool to StabilityPool.\r\n     * Only called by liquidation functions in the TroveManager.\r\n     */\r\n    function offset(uint256 _debtToOffset, uint256 _collToAdd)\r\n        external\r\n        override\r\n    {\r\n        _requireCallerIsTroveManager();\r\n        uint256 totalLUSD = totalLUSDDeposits; // cached to save an SLOAD\r\n        if (totalLUSD == 0 || _debtToOffset == 0) {\r\n            return;\r\n        }\r\n\r\n        _triggerLQTYIssuance(communityIssuance);\r\n\r\n        (uint256 ETHGainPerUnitStaked, uint256 LUSDLossPerUnitStaked) =\r\n            _computeRewardsPerUnitStaked(_collToAdd, _debtToOffset, totalLUSD);\r\n\r\n        _updateRewardSumAndProduct(ETHGainPerUnitStaked, LUSDLossPerUnitStaked); // updates S and P\r\n\r\n        _moveOffsetCollAndDebt(_collToAdd, _debtToOffset);\r\n    }\r\n\r\n    // --- Offset helper functions ---\r\n\r\n    function _computeRewardsPerUnitStaked(\r\n        uint256 _collToAdd,\r\n        uint256 _debtToOffset,\r\n        uint256 _totalLUSDDeposits\r\n    )\r\n        internal\r\n        returns (uint256 ETHGainPerUnitStaked, uint256 LUSDLossPerUnitStaked)\r\n    {\r\n        /*\r\n         * Compute the LUSD and ETH rewards. Uses a \"feedback\" error correction, to keep\r\n         * the cumulative error in the P and S state variables low:\r\n         *\r\n         * 1) Form numerators which compensate for the floor division errors that occurred the last time this\r\n         * function was called.\r\n         * 2) Calculate \"per-unit-staked\" ratios.\r\n         * 3) Multiply each ratio back by its denominator, to reveal the current floor division error.\r\n         * 4) Store these errors for use in the next correction when this function is called.\r\n         * 5) Note: static analysis tools complain about this \"division before multiplication\", however, it is intended.\r\n         */\r\n        uint256 LUSDLossNumerator =\r\n            _debtToOffset.mul(DECIMAL_PRECISION).sub(lastLUSDLossError_Offset);\r\n        uint256 ETHNumerator =\r\n            _collToAdd.mul(DECIMAL_PRECISION).add(lastETHError_Offset);\r\n\r\n        if (_debtToOffset >= _totalLUSDDeposits) {\r\n            LUSDLossPerUnitStaked = DECIMAL_PRECISION;\r\n            lastLUSDLossError_Offset = 0;\r\n        } else {\r\n            /*\r\n             * Add 1 to make error in quotient positive. We want \"slightly too much\" LUSD loss,\r\n             * which ensures the error in any given compoundedLUSDDeposit favors the Stability Pool.\r\n             */\r\n            LUSDLossPerUnitStaked = (LUSDLossNumerator.div(_totalLUSDDeposits))\r\n                .add(1);\r\n            lastLUSDLossError_Offset = (\r\n                LUSDLossPerUnitStaked.mul(_totalLUSDDeposits)\r\n            )\r\n                .sub(LUSDLossNumerator);\r\n        }\r\n\r\n        ETHGainPerUnitStaked = ETHNumerator.div(_totalLUSDDeposits);\r\n        lastETHError_Offset = ETHNumerator.sub(\r\n            ETHGainPerUnitStaked.mul(_totalLUSDDeposits)\r\n        );\r\n\r\n        return (ETHGainPerUnitStaked, LUSDLossPerUnitStaked);\r\n    }\r\n\r\n    // Update the Stability Pool reward sum S and product P\r\n    function _updateRewardSumAndProduct(\r\n        uint256 _ETHGainPerUnitStaked,\r\n        uint256 _LUSDLossPerUnitStaked\r\n    ) internal {\r\n        uint256 currentP = P;\r\n        uint256 newP;\r\n\r\n        assert(_LUSDLossPerUnitStaked <= DECIMAL_PRECISION);\r\n        /*\r\n         * The newProductFactor is the factor by which to change all deposits, due to the depletion of Stability Pool LUSD in the liquidation.\r\n         * We make the product factor 0 if there was a pool-emptying. Otherwise, it is (1 - LUSDLossPerUnitStaked)\r\n         */\r\n        uint256 newProductFactor =\r\n            _LUSDLossPerUnitStaked >= DECIMAL_PRECISION\r\n                ? 0\r\n                : uint256(DECIMAL_PRECISION).sub(_LUSDLossPerUnitStaked);\r\n\r\n        uint128 currentScaleCached = currentScale;\r\n        uint128 currentEpochCached = currentEpoch;\r\n        uint256 currentS =\r\n            epochToScaleToSum[currentEpochCached][currentScaleCached];\r\n\r\n        /*\r\n         * Calculate the new S first, before we update P.\r\n         * The ETH gain for any given depositor from a liquidation depends on the value of their deposit\r\n         * (and the value of totalDeposits) prior to the Stability being depleted by the debt in the liquidation.\r\n         *\r\n         * Since S corresponds to ETH gain, and P to deposit loss, we update S first.\r\n         */\r\n        uint256 marginalETHGain = _ETHGainPerUnitStaked.mul(currentP);\r\n        uint256 newS = currentS.add(marginalETHGain);\r\n        epochToScaleToSum[currentEpochCached][currentScaleCached] = newS;\r\n        emit S_Updated(newS);\r\n\r\n        // If the Stability Pool was emptied, increment the epoch, and reset the scale and product P\r\n        if (newProductFactor == 0) {\r\n            currentEpoch = currentEpochCached.add(1);\r\n            currentScale = 0;\r\n            newP = DECIMAL_PRECISION;\r\n\r\n            // If multiplying P by a non-zero product factor would round P to zero, increment the scale\r\n        } else if (currentP.mul(newProductFactor) < DECIMAL_PRECISION) {\r\n            newP = currentP.mul(newProductFactor);\r\n            currentScale = currentScaleCached.add(1);\r\n        } else {\r\n            newP = currentP.mul(newProductFactor).div(DECIMAL_PRECISION);\r\n        }\r\n\r\n        P = newP;\r\n        emit P_Updated(newP);\r\n    }\r\n\r\n    function _moveOffsetCollAndDebt(uint256 _collToAdd, uint256 _debtToOffset)\r\n        internal\r\n    {\r\n        IActivePool activePoolCached = activePool;\r\n\r\n        // Cancel the liquidated LUSD debt with the LUSD in the stability pool\r\n        activePoolCached.decreaseLUSDDebt(_debtToOffset);\r\n        _decreaseLUSD(_debtToOffset);\r\n\r\n        // Burn the debt that was successfully offset\r\n        lusdToken.burn(address(this), _debtToOffset);\r\n\r\n        activePoolCached.sendETH(address(this), _collToAdd);\r\n    }\r\n\r\n    function _decreaseLUSD(uint256 _amount) internal {\r\n        uint256 newTotalLUSDDeposits = totalLUSDDeposits.sub(_amount);\r\n        totalLUSDDeposits = newTotalLUSDDeposits;\r\n        emit LUSDBalanceUpdated(newTotalLUSDDeposits);\r\n    }\r\n\r\n    // --- Reward calculator functions for depositor and front end ---\r\n\r\n    /* Calculates the ETH gain earned by the deposit since its last snapshots were taken.\r\n     * Given by the formula:  E = d0 * (S - S(0))/P(0)\r\n     * where S(0) and P(0) are the depositor's snapshots of the sum S and product P, respectively.\r\n     * d0 is the last recorded deposit value.\r\n     */\r\n    function getDepositorETHGain(address _depositor)\r\n        public\r\n        view\r\n        override\r\n        returns (uint256)\r\n    {\r\n        uint256 initialDeposit = deposits[_depositor].initialValue;\r\n\r\n        if (initialDeposit == 0) {\r\n            return 0;\r\n        }\r\n\r\n        Snapshots memory snapshots = depositSnapshots[_depositor];\r\n\r\n        uint256 ETHGain = _getETHGainFromSnapshots(initialDeposit, snapshots);\r\n        return ETHGain;\r\n    }\r\n\r\n    function _getETHGainFromSnapshots(\r\n        uint256 initialDeposit,\r\n        Snapshots memory snapshots\r\n    ) internal view returns (uint256) {\r\n        /*\r\n         * Grab the sum 'S' from the epoch at which the stake was made. The ETH gain may span up to one scale change.\r\n         * If it does, the second portion of the ETH gain is scaled by 1e18.\r\n         * If the gain spans no scale change, the second portion will be 0.\r\n         */\r\n        uint128 epochSnapshot = snapshots.epoch;\r\n        uint128 scaleSnapshot = snapshots.scale;\r\n        uint256 S_Snapshot = snapshots.S;\r\n        uint256 P_Snapshot = snapshots.P;\r\n\r\n        uint256 firstPortion =\r\n            epochToScaleToSum[epochSnapshot][scaleSnapshot].sub(S_Snapshot);\r\n        uint256 secondPortion =\r\n            epochToScaleToSum[epochSnapshot][scaleSnapshot.add(1)].div(\r\n                DECIMAL_PRECISION\r\n            );\r\n\r\n        uint256 ETHGain =\r\n            initialDeposit\r\n                .mul(firstPortion.add(secondPortion))\r\n                .div(P_Snapshot)\r\n                .div(DECIMAL_PRECISION);\r\n\r\n        return ETHGain;\r\n    }\r\n\r\n    /*\r\n     * Calculate the LQTY gain earned by a deposit since its last snapshots were taken.\r\n     * Given by the formula:  LQTY = d0 * (G - G(0))/P(0)\r\n     * where G(0) and P(0) are the depositor's snapshots of the sum G and product P, respectively.\r\n     * d0 is the last recorded deposit value.\r\n     */\r\n    function getDepositorLQTYGain(address _depositor)\r\n        public\r\n        view\r\n        override\r\n        returns (uint256)\r\n    {\r\n        uint256 initialDeposit = deposits[_depositor].initialValue;\r\n        if (initialDeposit == 0) {\r\n            return 0;\r\n        }\r\n\r\n        address frontEndTag = deposits[_depositor].frontEndTag;\r\n\r\n        /*\r\n         * If not tagged with a front end, the depositor gets a 100% cut of what their deposit earned.\r\n         * Otherwise, their cut of the deposit's earnings is equal to the kickbackRate, set by the front end through\r\n         * which they made their deposit.\r\n         */\r\n        uint256 kickbackRate =\r\n            frontEndTag == address(0)\r\n                ? DECIMAL_PRECISION\r\n                : frontEnds[frontEndTag].kickbackRate;\r\n\r\n        Snapshots memory snapshots = depositSnapshots[_depositor];\r\n\r\n        uint256 LQTYGain =\r\n            kickbackRate\r\n                .mul(_getLQTYGainFromSnapshots(initialDeposit, snapshots))\r\n                .div(DECIMAL_PRECISION);\r\n\r\n        return LQTYGain;\r\n    }\r\n\r\n    /*\r\n     * Return the LQTY gain earned by the front end. Given by the formula:  E = D0 * (G - G(0))/P(0)\r\n     * where G(0) and P(0) are the depositor's snapshots of the sum G and product P, respectively.\r\n     *\r\n     * D0 is the last recorded value of the front end's total tagged deposits.\r\n     */\r\n    function getFrontEndLQTYGain(address _frontEnd)\r\n        public\r\n        view\r\n        override\r\n        returns (uint256)\r\n    {\r\n        uint256 frontEndStake = frontEndStakes[_frontEnd];\r\n        if (frontEndStake == 0) {\r\n            return 0;\r\n        }\r\n\r\n        uint256 kickbackRate = frontEnds[_frontEnd].kickbackRate;\r\n        uint256 frontEndShare = uint256(DECIMAL_PRECISION).sub(kickbackRate);\r\n\r\n        Snapshots memory snapshots = frontEndSnapshots[_frontEnd];\r\n\r\n        uint256 LQTYGain =\r\n            frontEndShare\r\n                .mul(_getLQTYGainFromSnapshots(frontEndStake, snapshots))\r\n                .div(DECIMAL_PRECISION);\r\n        return LQTYGain;\r\n    }\r\n\r\n    function _getLQTYGainFromSnapshots(\r\n        uint256 initialStake,\r\n        Snapshots memory snapshots\r\n    ) internal view returns (uint256) {\r\n        /*\r\n         * Grab the sum 'G' from the epoch at which the stake was made. The LQTY gain may span up to one scale change.\r\n         * If it does, the second portion of the LQTY gain is scaled by 1e18.\r\n         * If the gain spans no scale change, the second portion will be 0.\r\n         */\r\n        uint128 epochSnapshot = snapshots.epoch;\r\n        uint128 scaleSnapshot = snapshots.scale;\r\n        uint256 G_Snapshot = snapshots.G;\r\n        uint256 P_Snapshot = snapshots.P;\r\n\r\n        uint256 firstPortion =\r\n            epochToScaleToG[epochSnapshot][scaleSnapshot].sub(G_Snapshot);\r\n        uint256 secondPortion =\r\n            epochToScaleToG[epochSnapshot][scaleSnapshot.add(1)].div(\r\n                DECIMAL_PRECISION\r\n            );\r\n\r\n        uint256 LQTYGain =\r\n            initialStake\r\n                .mul(firstPortion.add(secondPortion))\r\n                .div(P_Snapshot)\r\n                .div(DECIMAL_PRECISION);\r\n\r\n        return LQTYGain;\r\n    }\r\n\r\n    // --- Compounded deposit and compounded front end stake ---\r\n\r\n    /*\r\n     * Return the user's compounded deposit. Given by the formula:  d = d0 * P/P(0)\r\n     * where P(0) is the depositor's snapshot of the product P, taken when they last updated their deposit.\r\n     */\r\n    function getCompoundedLUSDDeposit(address _depositor)\r\n        public\r\n        view\r\n        override\r\n        returns (uint256)\r\n    {\r\n        uint256 initialDeposit = deposits[_depositor].initialValue;\r\n        if (initialDeposit == 0) {\r\n            return 0;\r\n        }\r\n\r\n        Snapshots memory snapshots = depositSnapshots[_depositor];\r\n\r\n        uint256 compoundedDeposit =\r\n            _getCompoundedStakeFromSnapshots(initialDeposit, snapshots);\r\n        return compoundedDeposit;\r\n    }\r\n\r\n    /*\r\n     * Return the front end's compounded stake. Given by the formula:  D = D0 * P/P(0)\r\n     * where P(0) is the depositor's snapshot of the product P, taken at the last time\r\n     * when one of the front end's tagged deposits updated their deposit.\r\n     *\r\n     * The front end's compounded stake is equal to the sum of its depositors' compounded deposits.\r\n     */\r\n    function getCompoundedFrontEndStake(address _frontEnd)\r\n        public\r\n        view\r\n        override\r\n        returns (uint256)\r\n    {\r\n        uint256 frontEndStake = frontEndStakes[_frontEnd];\r\n        if (frontEndStake == 0) {\r\n            return 0;\r\n        }\r\n\r\n        Snapshots memory snapshots = frontEndSnapshots[_frontEnd];\r\n\r\n        uint256 compoundedFrontEndStake =\r\n            _getCompoundedStakeFromSnapshots(frontEndStake, snapshots);\r\n        return compoundedFrontEndStake;\r\n    }\r\n\r\n    // Internal function, used to calculcate compounded deposits and compounded front end stakes.\r\n    function _getCompoundedStakeFromSnapshots(\r\n        uint256 initialStake,\r\n        Snapshots memory snapshots\r\n    ) internal view returns (uint256) {\r\n        uint256 snapshot_P = snapshots.P;\r\n        uint128 scaleSnapshot = snapshots.scale;\r\n        uint128 epochSnapshot = snapshots.epoch;\r\n\r\n        // If stake was made before a pool-emptying event, then it has been fully cancelled with debt -- so, return 0\r\n        if (epochSnapshot < currentEpoch) {\r\n            return 0;\r\n        }\r\n\r\n        uint256 compoundedStake;\r\n        uint128 scaleDiff = currentScale.sub(scaleSnapshot);\r\n\r\n        /* Compute the compounded stake. If a scale change in P was made during the stake's lifetime,\r\n         * account for it. If more than one scale change was made, then the stake has decreased by a factor of\r\n         * at least 1e-18 -- so return 0.\r\n         */\r\n        if (scaleDiff == 0) {\r\n            compoundedStake = initialStake.mul(P).div(snapshot_P);\r\n        } else if (scaleDiff == 1) {\r\n            compoundedStake = initialStake.mul(P).div(snapshot_P).div(\r\n                DECIMAL_PRECISION\r\n            );\r\n        } else {\r\n            compoundedStake = 0;\r\n        }\r\n\r\n        /*\r\n         * If compounded deposit is less than a billionth of the initial deposit, return 0.\r\n         *\r\n         * NOTE: originally, this line was in place to stop rounding errors making the deposit too large. However, the error\r\n         * corrections should ensure the error in P \"favors the Pool\", i.e. any given compounded deposit should slightly less\r\n         * than it's theoretical value.\r\n         *\r\n         * Thus it's unclear whether this line is still really needed.\r\n         */\r\n        if (compoundedStake < initialStake.div(1e9)) {\r\n            return 0;\r\n        }\r\n\r\n        return compoundedStake;\r\n    }\r\n\r\n    // --- Sender functions for LUSD deposit, ETH gains and LQTY gains ---\r\n\r\n    // Transfer the LUSD tokens from the user to the Stability Pool's address, and update its recorded LUSD\r\n    function _sendLUSDtoStabilityPool(address _address, uint256 _amount)\r\n        internal\r\n    {\r\n        lusdToken.sendToPool(_address, address(this), _amount);\r\n        uint256 newTotalLUSDDeposits = totalLUSDDeposits.add(_amount);\r\n        totalLUSDDeposits = newTotalLUSDDeposits;\r\n        emit LUSDBalanceUpdated(newTotalLUSDDeposits);\r\n    }\r\n\r\n    function _sendETHGainToDepositor(uint256 _amount) internal {\r\n        if (_amount == 0) {\r\n            return;\r\n        }\r\n        uint256 newETH = ETH.sub(_amount);\r\n        ETH = newETH;\r\n        emit ETHBalanceUpdated(newETH);\r\n        emit EtherSent(msg.sender, _amount);\r\n\r\n        (bool success, ) = msg.sender.call{value: _amount}(\"\");\r\n        require(success, \"StabilityPool: sending ETH failed\");\r\n    }\r\n\r\n    // Send LUSD to user and decrease LUSD in Pool\r\n    function _sendLUSDToDepositor(address _depositor, uint256 LUSDWithdrawal)\r\n        internal\r\n    {\r\n        if (LUSDWithdrawal == 0) {\r\n            return;\r\n        }\r\n\r\n        lusdToken.returnFromPool(address(this), _depositor, LUSDWithdrawal);\r\n        _decreaseLUSD(LUSDWithdrawal);\r\n    }\r\n\r\n    // --- External Front End functions ---\r\n\r\n    // Front end makes a one-time selection of kickback rate upon registering\r\n    function registerFrontEnd(uint256 _kickbackRate) external override {\r\n        _requireFrontEndNotRegistered(msg.sender);\r\n        _requireUserHasNoDeposit(msg.sender);\r\n        _requireValidKickbackRate(_kickbackRate);\r\n\r\n        frontEnds[msg.sender].kickbackRate = _kickbackRate;\r\n        frontEnds[msg.sender].registered = true;\r\n\r\n        emit FrontEndRegistered(msg.sender, _kickbackRate);\r\n    }\r\n\r\n    // --- Stability Pool Deposit Functionality ---\r\n\r\n    function _setFrontEndTag(address _depositor, address _frontEndTag)\r\n        internal\r\n    {\r\n        deposits[_depositor].frontEndTag = _frontEndTag;\r\n    }\r\n\r\n    function _updateDepositAndSnapshots(address _depositor, uint256 _newValue)\r\n        internal\r\n    {\r\n        deposits[_depositor].initialValue = _newValue;\r\n\r\n        if (_newValue == 0) {\r\n            delete deposits[_depositor].frontEndTag;\r\n            delete depositSnapshots[_depositor];\r\n            emit DepositSnapshotUpdated(_depositor, 0, 0, 0);\r\n            return;\r\n        }\r\n        uint128 currentScaleCached = currentScale;\r\n        uint128 currentEpochCached = currentEpoch;\r\n        uint256 currentP = P;\r\n\r\n        // Get S and G for the current epoch and current scale\r\n        uint256 currentS =\r\n            epochToScaleToSum[currentEpochCached][currentScaleCached];\r\n        uint256 currentG =\r\n            epochToScaleToG[currentEpochCached][currentScaleCached];\r\n\r\n        // Record new snapshots of the latest running product P, sum S, and sum G, for the depositor\r\n        depositSnapshots[_depositor].P = currentP;\r\n        depositSnapshots[_depositor].S = currentS;\r\n        depositSnapshots[_depositor].G = currentG;\r\n        depositSnapshots[_depositor].scale = currentScaleCached;\r\n        depositSnapshots[_depositor].epoch = currentEpochCached;\r\n\r\n        emit DepositSnapshotUpdated(_depositor, currentP, currentS, currentG);\r\n    }\r\n\r\n    function _updateFrontEndStakeAndSnapshots(\r\n        address _frontEnd,\r\n        uint256 _newValue\r\n    ) internal {\r\n        frontEndStakes[_frontEnd] = _newValue;\r\n\r\n        if (_newValue == 0) {\r\n            delete frontEndSnapshots[_frontEnd];\r\n            emit FrontEndSnapshotUpdated(_frontEnd, 0, 0);\r\n            return;\r\n        }\r\n\r\n        uint128 currentScaleCached = currentScale;\r\n        uint128 currentEpochCached = currentEpoch;\r\n        uint256 currentP = P;\r\n\r\n        // Get G for the current epoch and current scale\r\n        uint256 currentG =\r\n            epochToScaleToG[currentEpochCached][currentScaleCached];\r\n\r\n        // Record new snapshots of the latest running product P and sum G for the front end\r\n        frontEndSnapshots[_frontEnd].P = currentP;\r\n        frontEndSnapshots[_frontEnd].G = currentG;\r\n        frontEndSnapshots[_frontEnd].scale = currentScaleCached;\r\n        frontEndSnapshots[_frontEnd].epoch = currentEpochCached;\r\n\r\n        emit FrontEndSnapshotUpdated(_frontEnd, currentP, currentG);\r\n    }\r\n\r\n    function _payOutLQTYGains(\r\n        ICommunityIssuance _communityIssuance,\r\n        address _depositor,\r\n        address _frontEnd\r\n    ) internal {\r\n        // Pay out front end's LQTY gain\r\n        if (_frontEnd != address(0)) {\r\n            uint256 frontEndLQTYGain = getFrontEndLQTYGain(_frontEnd);\r\n            _communityIssuance.sendLQTY(_frontEnd, frontEndLQTYGain);\r\n            emit LQTYPaidToFrontEnd(_frontEnd, frontEndLQTYGain);\r\n        }\r\n\r\n        // Pay out depositor's LQTY gain\r\n        uint256 depositorLQTYGain = getDepositorLQTYGain(_depositor);\r\n        _communityIssuance.sendLQTY(_depositor, depositorLQTYGain);\r\n        emit LQTYPaidToDepositor(_depositor, depositorLQTYGain);\r\n    }\r\n\r\n    // --- 'require' functions ---\r\n\r\n    function _requireCallerIsActivePool() internal view {\r\n        require(\r\n            msg.sender == address(activePool),\r\n            \"StabilityPool: Caller is not ActivePool\"\r\n        );\r\n    }\r\n\r\n    function _requireCallerIsTroveManager() internal view {\r\n        require(\r\n            msg.sender == address(troveManager),\r\n            \"StabilityPool: Caller is not TroveManager\"\r\n        );\r\n    }\r\n\r\n    function _requireNoUnderCollateralizedTroves() internal {\r\n        uint256 price = priceFeed.fetchPrice();\r\n        address lowestTrove = sortedTroves.getLast();\r\n        uint256 ICR = troveManager.getCurrentICR(lowestTrove, price);\r\n        require(\r\n            ICR >= MCR,\r\n            \"StabilityPool: Cannot withdraw while there are troves with ICR < MCR\"\r\n        );\r\n    }\r\n\r\n    function _requireUserHasDeposit(uint256 _initialDeposit) internal pure {\r\n        require(\r\n            _initialDeposit > 0,\r\n            \"StabilityPool: User must have a non-zero deposit\"\r\n        );\r\n    }\r\n\r\n    function _requireUserHasNoDeposit(address _address) internal view {\r\n        uint256 initialDeposit = deposits[_address].initialValue;\r\n        require(\r\n            initialDeposit == 0,\r\n            \"StabilityPool: User must have no deposit\"\r\n        );\r\n    }\r\n\r\n    function _requireNonZeroAmount(uint256 _amount) internal pure {\r\n        require(_amount > 0, \"StabilityPool: Amount must be non-zero\");\r\n    }\r\n\r\n    function _requireUserHasTrove(address _depositor) internal view {\r\n        require(\r\n            troveManager.getTroveStatus(_depositor) == 1,\r\n            \"StabilityPool: caller must have an active trove to withdraw ETHGain to\"\r\n        );\r\n    }\r\n\r\n    function _requireUserHasETHGain(address _depositor) internal view {\r\n        uint256 ETHGain = getDepositorETHGain(_depositor);\r\n        require(\r\n            ETHGain > 0,\r\n            \"StabilityPool: caller must have non-zero ETH Gain\"\r\n        );\r\n    }\r\n\r\n    function _requireFrontEndNotRegistered(address _address) internal view {\r\n        require(\r\n            !frontEnds[_address].registered,\r\n            \"StabilityPool: must not already be a registered front end\"\r\n        );\r\n    }\r\n\r\n    function _requireFrontEndIsRegisteredOrZero(address _address)\r\n        internal\r\n        view\r\n    {\r\n        require(\r\n            frontEnds[_address].registered || _address == address(0),\r\n            \"StabilityPool: Tag must be a registered front end, or the zero address\"\r\n        );\r\n    }\r\n\r\n    function _requireValidKickbackRate(uint256 _kickbackRate) internal pure {\r\n        require(\r\n            _kickbackRate <= DECIMAL_PRECISION,\r\n            \"StabilityPool: Kickback rate must be in range [0,1]\"\r\n        );\r\n    }\r\n\r\n    // --- Fallback function ---\r\n\r\n    receive() external payable {\r\n        _requireCallerIsActivePool();\r\n        ETH = ETH.add(msg.value);\r\n    }\r\n}\r\n",
  "sourcePath": "C:\\Users\\danie\\code\\harp\\client\\src\\contracts\\StabilityPool.sol",
  "compiler": {
    "name": "solc",
    "version": "0.7.6+commit.7338295f.Emscripten.clang"
  },
  "schemaVersion": "3.3.3",
  "updatedAt": "2021-02-19T17:09:20.309Z",
  "networkType": "ethereum",
  "devdoc": {
    "kind": "dev",
    "methods": {
      "isOwner()": {
        "details": "Returns true if the caller is the current owner."
      },
      "owner()": {
        "details": "Returns the address of the current owner."
      }
    },
    "version": 1
  },
  "userdoc": {
    "kind": "user",
    "methods": {},
    "version": 1
  }
}