{
  "contractName": "StringStaking",
  "abi": [
    {
      "inputs": [
        {
          "internalType": "contract StringToken",
          "name": "_string",
          "type": "address"
        },
        {
          "internalType": "uint256",
          "name": "_boostedBuffer",
          "type": "uint256"
        },
        {
          "internalType": "contract ILQTYToken",
          "name": "_lqty",
          "type": "address"
        },
        {
          "internalType": "contract gStringToken",
          "name": "_gstringToken",
          "type": "address"
        },
        {
          "internalType": "contract IStabilityPool",
          "name": "_stabilityPool",
          "type": "address"
        }
      ],
      "stateMutability": "nonpayable",
      "type": "constructor"
    },
    {
      "anonymous": false,
      "inputs": [
        {
          "indexed": true,
          "internalType": "address",
          "name": "who",
          "type": "address"
        },
        {
          "indexed": false,
          "internalType": "uint256",
          "name": "amountClaimed",
          "type": "uint256"
        },
        {
          "indexed": false,
          "internalType": "uint256",
          "name": "seconAmountClaimed",
          "type": "uint256"
        }
      ],
      "name": "Claim",
      "type": "event"
    },
    {
      "anonymous": false,
      "inputs": [
        {
          "indexed": true,
          "internalType": "address",
          "name": "user",
          "type": "address"
        },
        {
          "indexed": false,
          "internalType": "uint256",
          "name": "amount",
          "type": "uint256"
        }
      ],
      "name": "Deposit",
      "type": "event"
    },
    {
      "anonymous": false,
      "inputs": [
        {
          "indexed": true,
          "internalType": "address",
          "name": "user",
          "type": "address"
        },
        {
          "indexed": false,
          "internalType": "uint256",
          "name": "amount",
          "type": "uint256"
        }
      ],
      "name": "EmergencyWithdraw",
      "type": "event"
    },
    {
      "anonymous": false,
      "inputs": [
        {
          "indexed": true,
          "internalType": "address",
          "name": "user",
          "type": "address"
        },
        {
          "indexed": false,
          "internalType": "uint256",
          "name": "amount",
          "type": "uint256"
        }
      ],
      "name": "Withdraw",
      "type": "event"
    },
    {
      "inputs": [],
      "name": "boostedMultiplier",
      "outputs": [
        {
          "internalType": "uint256",
          "name": "",
          "type": "uint256"
        }
      ],
      "stateMutability": "view",
      "type": "function",
      "constant": true
    },
    {
      "inputs": [],
      "name": "creator",
      "outputs": [
        {
          "internalType": "address",
          "name": "",
          "type": "address"
        }
      ],
      "stateMutability": "view",
      "type": "function",
      "constant": true
    },
    {
      "inputs": [],
      "name": "devaddr",
      "outputs": [
        {
          "internalType": "address",
          "name": "",
          "type": "address"
        }
      ],
      "stateMutability": "view",
      "type": "function",
      "constant": true
    },
    {
      "inputs": [],
      "name": "endBlock",
      "outputs": [
        {
          "internalType": "uint256",
          "name": "",
          "type": "uint256"
        }
      ],
      "stateMutability": "view",
      "type": "function",
      "constant": true
    },
    {
      "inputs": [],
      "name": "gstringToken",
      "outputs": [
        {
          "internalType": "contract gStringToken",
          "name": "",
          "type": "address"
        }
      ],
      "stateMutability": "view",
      "type": "function",
      "constant": true
    },
    {
      "inputs": [],
      "name": "isBoosted",
      "outputs": [
        {
          "internalType": "bool",
          "name": "",
          "type": "bool"
        }
      ],
      "stateMutability": "view",
      "type": "function",
      "constant": true
    },
    {
      "inputs": [],
      "name": "lastLQTYRewards",
      "outputs": [
        {
          "internalType": "uint256",
          "name": "",
          "type": "uint256"
        }
      ],
      "stateMutability": "view",
      "type": "function",
      "constant": true
    },
    {
      "inputs": [],
      "name": "lastSupply",
      "outputs": [
        {
          "internalType": "uint256",
          "name": "",
          "type": "uint256"
        }
      ],
      "stateMutability": "view",
      "type": "function",
      "constant": true
    },
    {
      "inputs": [],
      "name": "lqtyToken",
      "outputs": [
        {
          "internalType": "contract ILQTYToken",
          "name": "",
          "type": "address"
        }
      ],
      "stateMutability": "view",
      "type": "function",
      "constant": true
    },
    {
      "inputs": [],
      "name": "maxSupply",
      "outputs": [
        {
          "internalType": "uint256",
          "name": "",
          "type": "uint256"
        }
      ],
      "stateMutability": "view",
      "type": "function",
      "constant": true
    },
    {
      "inputs": [],
      "name": "pool",
      "outputs": [
        {
          "internalType": "contract IERC20",
          "name": "lpToken",
          "type": "address"
        },
        {
          "internalType": "uint256",
          "name": "lpTokenSupply",
          "type": "uint256"
        },
        {
          "internalType": "uint256",
          "name": "lastRewardBlock",
          "type": "uint256"
        },
        {
          "internalType": "uint256",
          "name": "accStringPerShare",
          "type": "uint256"
        },
        {
          "internalType": "uint256",
          "name": "accLQTYPerShare",
          "type": "uint256"
        }
      ],
      "stateMutability": "view",
      "type": "function",
      "constant": true
    },
    {
      "inputs": [],
      "name": "postBoostedBlock",
      "outputs": [
        {
          "internalType": "uint256",
          "name": "",
          "type": "uint256"
        }
      ],
      "stateMutability": "view",
      "type": "function",
      "constant": true
    },
    {
      "inputs": [],
      "name": "registered",
      "outputs": [
        {
          "internalType": "bool",
          "name": "",
          "type": "bool"
        }
      ],
      "stateMutability": "view",
      "type": "function",
      "constant": true
    },
    {
      "inputs": [],
      "name": "stabilityPool",
      "outputs": [
        {
          "internalType": "contract IStabilityPool",
          "name": "",
          "type": "address"
        }
      ],
      "stateMutability": "view",
      "type": "function",
      "constant": true
    },
    {
      "inputs": [],
      "name": "startBlock",
      "outputs": [
        {
          "internalType": "uint256",
          "name": "",
          "type": "uint256"
        }
      ],
      "stateMutability": "view",
      "type": "function",
      "constant": true
    },
    {
      "inputs": [],
      "name": "stringPerBlock",
      "outputs": [
        {
          "internalType": "uint256",
          "name": "",
          "type": "uint256"
        }
      ],
      "stateMutability": "view",
      "type": "function",
      "constant": true
    },
    {
      "inputs": [],
      "name": "stringToken",
      "outputs": [
        {
          "internalType": "contract StringToken",
          "name": "",
          "type": "address"
        }
      ],
      "stateMutability": "view",
      "type": "function",
      "constant": true
    },
    {
      "inputs": [],
      "name": "totalAllocPoint",
      "outputs": [
        {
          "internalType": "uint256",
          "name": "",
          "type": "uint256"
        }
      ],
      "stateMutability": "view",
      "type": "function",
      "constant": true
    },
    {
      "inputs": [],
      "name": "totalLQTYRewards",
      "outputs": [
        {
          "internalType": "uint256",
          "name": "",
          "type": "uint256"
        }
      ],
      "stateMutability": "view",
      "type": "function",
      "constant": true
    },
    {
      "inputs": [
        {
          "internalType": "address",
          "name": "",
          "type": "address"
        }
      ],
      "name": "userInfo",
      "outputs": [
        {
          "internalType": "uint256",
          "name": "amount",
          "type": "uint256"
        },
        {
          "internalType": "uint256",
          "name": "rewardDebt",
          "type": "uint256"
        },
        {
          "internalType": "uint256",
          "name": "lqtyRewardDebt",
          "type": "uint256"
        }
      ],
      "stateMutability": "view",
      "type": "function",
      "constant": true
    },
    {
      "inputs": [],
      "name": "registerIt",
      "outputs": [],
      "stateMutability": "nonpayable",
      "type": "function"
    },
    {
      "inputs": [
        {
          "internalType": "uint256",
          "name": "_from",
          "type": "uint256"
        },
        {
          "internalType": "uint256",
          "name": "_to",
          "type": "uint256"
        }
      ],
      "name": "getMultiplier",
      "outputs": [
        {
          "internalType": "uint256",
          "name": "",
          "type": "uint256"
        }
      ],
      "stateMutability": "view",
      "type": "function",
      "constant": true
    },
    {
      "inputs": [
        {
          "internalType": "address",
          "name": "_user",
          "type": "address"
        }
      ],
      "name": "pendingString",
      "outputs": [
        {
          "internalType": "uint256",
          "name": "",
          "type": "uint256"
        }
      ],
      "stateMutability": "view",
      "type": "function",
      "constant": true
    },
    {
      "inputs": [
        {
          "internalType": "address",
          "name": "_user",
          "type": "address"
        }
      ],
      "name": "pendingLQTY",
      "outputs": [
        {
          "internalType": "uint256",
          "name": "",
          "type": "uint256"
        }
      ],
      "stateMutability": "view",
      "type": "function",
      "constant": true
    },
    {
      "inputs": [],
      "name": "updatePool",
      "outputs": [],
      "stateMutability": "nonpayable",
      "type": "function"
    },
    {
      "inputs": [
        {
          "internalType": "uint256",
          "name": "_amount",
          "type": "uint256"
        }
      ],
      "name": "deposit",
      "outputs": [],
      "stateMutability": "nonpayable",
      "type": "function"
    },
    {
      "inputs": [
        {
          "internalType": "uint256",
          "name": "_amount",
          "type": "uint256"
        }
      ],
      "name": "withdraw",
      "outputs": [],
      "stateMutability": "nonpayable",
      "type": "function"
    },
    {
      "inputs": [],
      "name": "emergencyWithdraw",
      "outputs": [],
      "stateMutability": "nonpayable",
      "type": "function"
    }
  ],
  "bytecode": "0x60806040526000600660146101000a81548160ff021916908315150217905550670333db648aec94006009556001600b60006101000a81548160ff0219169083151502179055506000600c556000600d5560006014553480156200006257600080fd5b506040516200312e3803806200312e833981810160405260a08110156200008857600080fd5b81019080805190602001909291908051906020019092919080519060200190929190805190602001909291908051906020019092919050505084600260006101000a81548173ffffffffffffffffffffffffffffffffffffffff021916908373ffffffffffffffffffffffffffffffffffffffff16021790555082600360006101000a81548173ffffffffffffffffffffffffffffffffffffffff021916908373ffffffffffffffffffffffffffffffffffffffff16021790555081600460006101000a81548173ffffffffffffffffffffffffffffffffffffffff021916908373ffffffffffffffffffffffffffffffffffffffff160217905550620001a16225317c436200048960201b620019e91790919060201c565b60088190555043601581905550620001c884436200048960201b620019e91790919060201c565b600a8190555080600560006101000a81548173ffffffffffffffffffffffffffffffffffffffff021916908373ffffffffffffffffffffffffffffffffffffffff16021790555033600760006101000a81548173ffffffffffffffffffffffffffffffffffffffff021916908373ffffffffffffffffffffffffffffffffffffffff1602179055506040518060a00160405280600260009054906101000a900473ffffffffffffffffffffffffffffffffffffffff1673ffffffffffffffffffffffffffffffffffffffff16815260200160008152602001438152602001600081526020016000815250600e60008201518160000160006101000a81548173ffffffffffffffffffffffffffffffffffffffff021916908373ffffffffffffffffffffffffffffffffffffffff16021790555060208201518160010155604082015181600201556060820151816003015560808201518160040155905050600260009054906101000a900473ffffffffffffffffffffffffffffffffffffffff1673ffffffffffffffffffffffffffffffffffffffff166318160ddd6040518163ffffffff1660e01b815260040160206040518083038186803b1580156200038f57600080fd5b505afa158015620003a4573d6000803e3d6000fd5b505050506040513d6020811015620003bb57600080fd5b8101908080519060200190929190505050600081905550600260009054906101000a900473ffffffffffffffffffffffffffffffffffffffff1673ffffffffffffffffffffffffffffffffffffffff1663d5abeb016040518163ffffffff1660e01b815260040160206040518083038186803b1580156200043b57600080fd5b505afa15801562000450573d6000803e3d6000fd5b505050506040513d60208110156200046757600080fd5b8101908080519060200190929190505050600181905550505050505062000512565b60008082840190508381101562000508576040517f08c379a000000000000000000000000000000000000000000000000000000000815260040180806020018281038252601b8152602001807f536166654d6174683a206164646974696f6e206f766572666c6f77000000000081525060200191505060405180910390fd5b8091505092915050565b612c0c80620005226000396000f3fe608060405234801561001057600080fd5b50600436106101c45760003560e01c806382b8e731116100f9578063d49e77cd11610097578063df5e898711610071578063df5e8987146106a7578063e3161ddd146106f1578063f18e15ba146106fb578063f75b8c5f14610719576101c4565b8063d49e77cd14610635578063d5abeb011461067f578063db2e21bc1461069d576101c4565b8063a60bdb2f116100d3578063a60bdb2f14610591578063afa2fc5c146105db578063b6897559146105e5578063b6b55f2514610607576101c4565b806382b8e731146104cf5780638dbb1e3a146104ed578063a489127314610539576101c4565b80631959a002116101665780632e1a7d4d116101405780632e1a7d4d1461040d578063350bac341461043b57806348cd4cb11461045957806366bf9ae414610477576101c4565b80631959a0021461033b5780631f7af3c3146103a15780632de40ce3146103eb576101c4565b80630b5f91fc116101a25780630b5f91fc1461027b5780630d483ae11461029957806316f0115b146102b757806317caf6f11461031d576101c4565b806302d05d3f146101c9578063048c661d14610213578063083c63231461025d575b600080fd5b6101d1610737565b604051808273ffffffffffffffffffffffffffffffffffffffff1673ffffffffffffffffffffffffffffffffffffffff16815260200191505060405180910390f35b61021b61075d565b604051808273ffffffffffffffffffffffffffffffffffffffff1673ffffffffffffffffffffffffffffffffffffffff16815260200191505060405180910390f35b610265610783565b6040518082815260200191505060405180910390f35b610283610789565b6040518082815260200191505060405180910390f35b6102a161078f565b6040518082815260200191505060405180910390f35b6102bf610794565b604051808673ffffffffffffffffffffffffffffffffffffffff1673ffffffffffffffffffffffffffffffffffffffff1681526020018581526020018481526020018381526020018281526020019550505050505060405180910390f35b6103256107d8565b6040518082815260200191505060405180910390f35b61037d6004803603602081101561035157600080fd5b81019080803573ffffffffffffffffffffffffffffffffffffffff1690602001909291905050506107de565b60405180848152602001838152602001828152602001935050505060405180910390f35b6103a9610808565b604051808273ffffffffffffffffffffffffffffffffffffffff1673ffffffffffffffffffffffffffffffffffffffff16815260200191505060405180910390f35b6103f361082e565b604051808215151515815260200191505060405180910390f35b6104396004803603602081101561042357600080fd5b8101908080359060200190929190505050610841565b005b610443610cb9565b6040518082815260200191505060405180910390f35b610461610cbf565b6040518082815260200191505060405180910390f35b6104b96004803603602081101561048d57600080fd5b81019080803573ffffffffffffffffffffffffffffffffffffffff169060200190929190505050610cc5565b6040518082815260200191505060405180910390f35b6104d7610e2d565b6040518082815260200191505060405180910390f35b6105236004803603604081101561050357600080fd5b810190808035906020019092919080359060200190929190505050610e33565b6040518082815260200191505060405180910390f35b61057b6004803603602081101561054f57600080fd5b81019080803573ffffffffffffffffffffffffffffffffffffffff169060200190929190505050610e88565b6040518082815260200191505060405180910390f35b610599611088565b604051808273ffffffffffffffffffffffffffffffffffffffff1673ffffffffffffffffffffffffffffffffffffffff16815260200191505060405180910390f35b6105e36110ae565b005b6105ed61128f565b604051808215151515815260200191505060405180910390f35b6106336004803603602081101561061d57600080fd5b81019080803590602001909291905050506112a2565b005b61063d6115b5565b604051808273ffffffffffffffffffffffffffffffffffffffff1673ffffffffffffffffffffffffffffffffffffffff16815260200191505060405180910390f35b6106876115db565b6040518082815260200191505060405180910390f35b6106a56115e1565b005b6106af6116e1565b604051808273ffffffffffffffffffffffffffffffffffffffff1673ffffffffffffffffffffffffffffffffffffffff16815260200191505060405180910390f35b6106f9611707565b005b6107036119dd565b6040518082815260200191505060405180910390f35b6107216119e3565b6040518082815260200191505060405180910390f35b600760009054906101000a900473ffffffffffffffffffffffffffffffffffffffff1681565b600560009054906101000a900473ffffffffffffffffffffffffffffffffffffffff1681565b60085481565b600a5481565b600581565b600e8060000160009054906101000a900473ffffffffffffffffffffffffffffffffffffffff16908060010154908060020154908060030154908060040154905085565b60145481565b60136020528060005260406000206000915090508060000154908060010154908060020154905083565b600360009054906101000a900473ffffffffffffffffffffffffffffffffffffffff1681565b600660149054906101000a900460ff1681565b6000601360003373ffffffffffffffffffffffffffffffffffffffff1673ffffffffffffffffffffffffffffffffffffffff168152602001908152602001600020905081816000015410156108fe576040517f08c379a00000000000000000000000000000000000000000000000000000000081526004018080602001828103825260128152602001807f77697468647261773a206e6f7420676f6f64000000000000000000000000000081525060200191505060405180910390fd5b6000600460009054906101000a900473ffffffffffffffffffffffffffffffffffffffff1673ffffffffffffffffffffffffffffffffffffffff166370a08231336040518263ffffffff1660e01b8152600401808273ffffffffffffffffffffffffffffffffffffffff1673ffffffffffffffffffffffffffffffffffffffff16815260200191505060206040518083038186803b15801561099f57600080fd5b505afa1580156109b3573d6000803e3d6000fd5b505050506040513d60208110156109c957600080fd5b8101908080519060200190929190505050905080831115610a52576040517f08c379a00000000000000000000000000000000000000000000000000000000081526004018080602001828103825260128152602001807f6e6f7420656e6f7567682067535452494e47000000000000000000000000000081525060200191505060405180910390fd5b6001546000541015610a6757610a66611707565b5b610a6f611a71565b6000610a7a83611b1c565b90506000610a8784611ca3565b9050610a933383611cfa565b610a9d3382611fd2565b610ab48585600001546122c390919063ffffffff16565b8460000181905550610ad485600e600101546122c390919063ffffffff16565b600e60010181905550600460009054906101000a900473ffffffffffffffffffffffffffffffffffffffff1673ffffffffffffffffffffffffffffffffffffffff166379cc679033876040518363ffffffff1660e01b8152600401808373ffffffffffffffffffffffffffffffffffffffff1673ffffffffffffffffffffffffffffffffffffffff16815260200182815260200192505050600060405180830381600087803b158015610b8657600080fd5b505af1158015610b9a573d6000803e3d6000fd5b50505050610bee3386600e60000160009054906101000a900473ffffffffffffffffffffffffffffffffffffffff1673ffffffffffffffffffffffffffffffffffffffff166123469092919063ffffffff16565b610c2164e8d4a51000610c13600e6003015487600001546123fe90919063ffffffff16565b61248490919063ffffffff16565b8460010181905550610c5c64e8d4a51000610c4e600e6004015487600001546123fe90919063ffffffff16565b61248490919063ffffffff16565b84600201819055503373ffffffffffffffffffffffffffffffffffffffff167f884edad9ce6fa2440d8a54cc123490eb96d2768479d49ff9c7366125a9424364866040518082815260200191505060405180910390a25050505050565b60095481565b60155481565b600080601360008473ffffffffffffffffffffffffffffffffffffffff1673ffffffffffffffffffffffffffffffffffffffff16815260200190815260200160002090506000600e6003015490506000600e600101549050600e6002015443118015610d32575060008114155b15610da4576000610d48600e6002015443610e33565b90506000610d61600954836123fe90919063ffffffff16565b9050610d9f610d9084610d8264e8d4a51000856123fe90919063ffffffff16565b61248490919063ffffffff16565b856119e990919063ffffffff16565b935050505b6000610dea8460010154610ddc64e8d4a51000610dce8789600001546123fe90919063ffffffff16565b61248490919063ffffffff16565b6122c390919063ffffffff16565b9050600b60009054906101000a900460ff1615610e2057610e156005826123fe90919063ffffffff16565b945050505050610e28565b809450505050505b919050565b600c5481565b60006008548211610e5857610e5183836122c390919063ffffffff16565b9050610e82565b6008548310610e6a5760009050610e82565b610e7f836008546122c390919063ffffffff16565b90505b92915050565b600080601360008473ffffffffffffffffffffffffffffffffffffffff1673ffffffffffffffffffffffffffffffffffffffff16815260200190815260200160002090506000600e6004015490506000600e6001015490506000600360009054906101000a900473ffffffffffffffffffffffffffffffffffffffff1673ffffffffffffffffffffffffffffffffffffffff166370a08231306040518263ffffffff1660e01b8152600401808273ffffffffffffffffffffffffffffffffffffffff1673ffffffffffffffffffffffffffffffffffffffff16815260200191505060206040518083038186803b158015610f8157600080fd5b505afa158015610f95573d6000803e3d6000fd5b505050506040513d6020811015610fab57600080fd5b810190808051906020019092919050505090506000809050600c54821115610fe557610fe2600c54836122c390919063ffffffff16565b90505b60008111156110325761102f61101b8461100d64e8d4a51000856123fe90919063ffffffff16565b61248490919063ffffffff16565b600e600401546119e990919063ffffffff16565b93505b6000611078866002015461106a64e8d4a5100061105c898b600001546123fe90919063ffffffff16565b61248490919063ffffffff16565b6122c390919063ffffffff16565b9050809650505050505050919050565b600460009054906101000a900473ffffffffffffffffffffffffffffffffffffffff1681565b600760009054906101000a900473ffffffffffffffffffffffffffffffffffffffff1673ffffffffffffffffffffffffffffffffffffffff163373ffffffffffffffffffffffffffffffffffffffff1614611154576040517f08c379a0000000000000000000000000000000000000000000000000000000008152600401808060200182810382526021815260200180612b676021913960400191505060405180910390fd5b60001515600660149054906101000a900460ff161515146111dd576040517f08c379a00000000000000000000000000000000000000000000000000000000081526004018080602001828103825260128152602001807f416c72656164792072656769737465726564000000000000000000000000000081525060200191505060405180910390fd5b600560009054906101000a900473ffffffffffffffffffffffffffffffffffffffff1673ffffffffffffffffffffffffffffffffffffffff1663556be101670c7d713b49da00006040518263ffffffff1660e01b815260040180828152602001915050600060405180830381600087803b15801561125a57600080fd5b505af115801561126e573d6000803e3d6000fd5b505050506001600660146101000a81548160ff021916908315150217905550565b600b60009054906101000a900460ff1681565b6103e881116112fc576040517f08c379a0000000000000000000000000000000000000000000000000000000008152600401808060200182810382526025815260200180612bb26025913960400191505060405180910390fd5b6000601360003373ffffffffffffffffffffffffffffffffffffffff1673ffffffffffffffffffffffffffffffffffffffff1681526020019081526020016000209050600154600054101561135457611353611707565b5b61135c611a71565b60008160000154111561139a57600061137482611b1c565b9050600061138183611ca3565b905061138d3383611cfa565b6113973382611fd2565b50505b6113ec333084600e60000160009054906101000a900473ffffffffffffffffffffffffffffffffffffffff1673ffffffffffffffffffffffffffffffffffffffff1661250d909392919063ffffffff16565b6114038282600001546119e990919063ffffffff16565b816000018190555061142382600e600101546119e990919063ffffffff16565b600e6001018190555061145f64e8d4a51000611451600e6003015484600001546123fe90919063ffffffff16565b61248490919063ffffffff16565b816001018190555061149a64e8d4a5100061148c600e6004015484600001546123fe90919063ffffffff16565b61248490919063ffffffff16565b8160020181905550600460009054906101000a900473ffffffffffffffffffffffffffffffffffffffff1673ffffffffffffffffffffffffffffffffffffffff1663449a52f833846040518363ffffffff1660e01b8152600401808373ffffffffffffffffffffffffffffffffffffffff1673ffffffffffffffffffffffffffffffffffffffff16815260200182815260200192505050600060405180830381600087803b15801561154b57600080fd5b505af115801561155f573d6000803e3d6000fd5b505050503373ffffffffffffffffffffffffffffffffffffffff167fe1fffcc4923d04b559f4d29a8bfc6cda04eb5b0d3c460751c2402c5c5cc9109c836040518082815260200191505060405180910390a25050565b600660009054906101000a900473ffffffffffffffffffffffffffffffffffffffff1681565b60015481565b6000601360003373ffffffffffffffffffffffffffffffffffffffff1673ffffffffffffffffffffffffffffffffffffffff1681526020019081526020016000209050611678338260000154600e60000160009054906101000a900473ffffffffffffffffffffffffffffffffffffffff1673ffffffffffffffffffffffffffffffffffffffff166123469092919063ffffffff16565b3373ffffffffffffffffffffffffffffffffffffffff167f5fafa99d0643513820be26656b45130b01e1c03062e1266bf36f88cbd3bd969582600001546040518082815260200191505060405180910390a2600081600001819055506000816001018190555050565b600260009054906101000a900473ffffffffffffffffffffffffffffffffffffffff1681565b61170f6125fa565b600e600201544311611720576119db565b6000600e60010154905060008114156117435743600e60020181905550506119db565b6000611754600e6002015443610e33565b9050600061176d600954836123fe90919063ffffffff16565b9050600154611787826000546119e990919063ffffffff16565b11156117a7576117a46000546001546122c390919063ffffffff16565b90505b600a544310156118905760006117c76005836123fe90919063ffffffff16565b9050600260009054906101000a900473ffffffffffffffffffffffffffffffffffffffff1673ffffffffffffffffffffffffffffffffffffffff1663449a52f830836040518363ffffffff1660e01b8152600401808373ffffffffffffffffffffffffffffffffffffffff1673ffffffffffffffffffffffffffffffffffffffff16815260200182815260200192505050600060405180830381600087803b15801561187257600080fd5b505af1158015611886573d6000803e3d6000fd5b5050505050611983565b600b60009054906101000a900460ff16156118c1576000600b60006101000a81548160ff0219169083151502179055505b600260009054906101000a900473ffffffffffffffffffffffffffffffffffffffff1673ffffffffffffffffffffffffffffffffffffffff1663449a52f830836040518363ffffffff1660e01b8152600401808373ffffffffffffffffffffffffffffffffffffffff1673ffffffffffffffffffffffffffffffffffffffff16815260200182815260200192505050600060405180830381600087803b15801561196a57600080fd5b505af115801561197e573d6000803e3d6000fd5b505050505b6119c46119b0846119a264e8d4a51000856123fe90919063ffffffff16565b61248490919063ffffffff16565b600e600301546119e990919063ffffffff16565b600e6003018190555043600e600201819055505050505b565b600d5481565b60005481565b600080828401905083811015611a67576040517f08c379a000000000000000000000000000000000000000000000000000000000815260040180806020018281038252601b8152602001807f536166654d6174683a206164646974696f6e206f766572666c6f77000000000081525060200191505060405180910390fd5b8091505092915050565b600260009054906101000a900473ffffffffffffffffffffffffffffffffffffffff1673ffffffffffffffffffffffffffffffffffffffff166318160ddd6040518163ffffffff1660e01b815260040160206040518083038186803b158015611ad957600080fd5b505afa158015611aed573d6000803e3d6000fd5b505050506040513d6020811015611b0357600080fd5b8101908080519060200190929190505050600081905550565b600080600260009054906101000a900473ffffffffffffffffffffffffffffffffffffffff1673ffffffffffffffffffffffffffffffffffffffff166370a08231306040518263ffffffff1660e01b8152600401808273ffffffffffffffffffffffffffffffffffffffff1673ffffffffffffffffffffffffffffffffffffffff16815260200191505060206040518083038186803b158015611bbe57600080fd5b505afa158015611bd2573d6000803e3d6000fd5b505050506040513d6020811015611be857600080fd5b810190808051906020019092919050505090506000611c15600e60010154836122c390919063ffffffff16565b90506000611c628560010154611c5464e8d4a51000611c46600e600301548a600001546123fe90919063ffffffff16565b61248490919063ffffffff16565b6122c390919063ffffffff16565b9050600b60009054906101000a900460ff1615611c9757611c8d6005826123fe90919063ffffffff16565b9350505050611c9e565b8093505050505b919050565b600080611cef8360020154611ce164e8d4a51000611cd3600e6004015488600001546123fe90919063ffffffff16565b61248490919063ffffffff16565b6122c390919063ffffffff16565b905080915050919050565b6000600260009054906101000a900473ffffffffffffffffffffffffffffffffffffffff1673ffffffffffffffffffffffffffffffffffffffff166370a08231306040518263ffffffff1660e01b8152600401808273ffffffffffffffffffffffffffffffffffffffff1673ffffffffffffffffffffffffffffffffffffffff16815260200191505060206040518083038186803b158015611d9b57600080fd5b505afa158015611daf573d6000803e3d6000fd5b505050506040513d6020811015611dc557600080fd5b810190808051906020019092919050505090506000611df2600e60010154836122c390919063ffffffff16565b905080831115611ee657600260009054906101000a900473ffffffffffffffffffffffffffffffffffffffff1673ffffffffffffffffffffffffffffffffffffffff1663a9059cbb85836040518363ffffffff1660e01b8152600401808373ffffffffffffffffffffffffffffffffffffffff1673ffffffffffffffffffffffffffffffffffffffff16815260200182815260200192505050602060405180830381600087803b158015611ea557600080fd5b505af1158015611eb9573d6000803e3d6000fd5b505050506040513d6020811015611ecf57600080fd5b810190808051906020019092919050505050611fcc565b600260009054906101000a900473ffffffffffffffffffffffffffffffffffffffff1673ffffffffffffffffffffffffffffffffffffffff1663a9059cbb85856040518363ffffffff1660e01b8152600401808373ffffffffffffffffffffffffffffffffffffffff1673ffffffffffffffffffffffffffffffffffffffff16815260200182815260200192505050602060405180830381600087803b158015611f8f57600080fd5b505af1158015611fa3573d6000803e3d6000fd5b505050506040513d6020811015611fb957600080fd5b8101908080519060200190929190505050505b50505050565b6000600360009054906101000a900473ffffffffffffffffffffffffffffffffffffffff1673ffffffffffffffffffffffffffffffffffffffff166370a08231306040518263ffffffff1660e01b8152600401808273ffffffffffffffffffffffffffffffffffffffff1673ffffffffffffffffffffffffffffffffffffffff16815260200191505060206040518083038186803b15801561207357600080fd5b505afa158015612087573d6000803e3d6000fd5b505050506040513d602081101561209d57600080fd5b81019080805190602001909291905050509050808211156121bd57600360009054906101000a900473ffffffffffffffffffffffffffffffffffffffff1673ffffffffffffffffffffffffffffffffffffffff1663a9059cbb84836040518363ffffffff1660e01b8152600401808373ffffffffffffffffffffffffffffffffffffffff1673ffffffffffffffffffffffffffffffffffffffff16815260200182815260200192505050602060405180830381600087803b15801561216157600080fd5b505af1158015612175573d6000803e3d6000fd5b505050506040513d602081101561218b57600080fd5b8101908080519060200190929190505050506121b281600c546122c390919063ffffffff16565b600c819055506122be565b600360009054906101000a900473ffffffffffffffffffffffffffffffffffffffff1673ffffffffffffffffffffffffffffffffffffffff1663a9059cbb84846040518363ffffffff1660e01b8152600401808373ffffffffffffffffffffffffffffffffffffffff1673ffffffffffffffffffffffffffffffffffffffff16815260200182815260200192505050602060405180830381600087803b15801561226657600080fd5b505af115801561227a573d6000803e3d6000fd5b505050506040513d602081101561229057600080fd5b8101908080519060200190929190505050506122b782600c546122c390919063ffffffff16565b600c819055505b505050565b60008282111561233b576040517f08c379a000000000000000000000000000000000000000000000000000000000815260040180806020018281038252601e8152602001807f536166654d6174683a207375627472616374696f6e206f766572666c6f77000081525060200191505060405180910390fd5b818303905092915050565b6123f98363a9059cbb60e01b8484604051602401808373ffffffffffffffffffffffffffffffffffffffff1673ffffffffffffffffffffffffffffffffffffffff16815260200182815260200192505050604051602081830303815290604052907bffffffffffffffffffffffffffffffffffffffffffffffffffffffff19166020820180517bffffffffffffffffffffffffffffffffffffffffffffffffffffffff8381831617835250505050612779565b505050565b600080831415612411576000905061247e565b600082840290508284828161242257fe5b0414612479576040517f08c379a0000000000000000000000000000000000000000000000000000000008152600401808060200182810382526021815260200180612b466021913960400191505060405180910390fd5b809150505b92915050565b60008082116124fb576040517f08c379a000000000000000000000000000000000000000000000000000000000815260040180806020018281038252601a8152602001807f536166654d6174683a206469766973696f6e206279207a65726f00000000000081525060200191505060405180910390fd5b81838161250457fe5b04905092915050565b6125f4846323b872dd60e01b858585604051602401808473ffffffffffffffffffffffffffffffffffffffff1673ffffffffffffffffffffffffffffffffffffffff1681526020018373ffffffffffffffffffffffffffffffffffffffff1673ffffffffffffffffffffffffffffffffffffffff1681526020018281526020019350505050604051602081830303815290604052907bffffffffffffffffffffffffffffffffffffffffffffffffffffffff19166020820180517bffffffffffffffffffffffffffffffffffffffffffffffffffffffff8381831617835250505050612779565b50505050565b6000600e60010154905060008114156126135750612777565b6000600360009054906101000a900473ffffffffffffffffffffffffffffffffffffffff1673ffffffffffffffffffffffffffffffffffffffff166370a08231306040518263ffffffff1660e01b8152600401808273ffffffffffffffffffffffffffffffffffffffff1673ffffffffffffffffffffffffffffffffffffffff16815260200191505060206040518083038186803b1580156126b457600080fd5b505afa1580156126c8573d6000803e3d6000fd5b505050506040513d60208110156126de57600080fd5b810190808051906020019092919050505090506000809050600c5482111561271857612715600c54836122c390919063ffffffff16565b90505b600081111561276c5761276261274e8461274064e8d4a51000856123fe90919063ffffffff16565b61248490919063ffffffff16565b600e600401546119e990919063ffffffff16565b600e600401819055505b81600c819055505050505b565b60606127db826040518060400160405280602081526020017f5361666545524332303a206c6f772d6c6576656c2063616c6c206661696c65648152508573ffffffffffffffffffffffffffffffffffffffff166128689092919063ffffffff16565b9050600081511115612863578080602001905160208110156127fc57600080fd5b8101908080519060200190929190505050612862576040517f08c379a000000000000000000000000000000000000000000000000000000000815260040180806020018281038252602a815260200180612b88602a913960400191505060405180910390fd5b5b505050565b60606128778484600085612880565b90509392505050565b6060823073ffffffffffffffffffffffffffffffffffffffff163110156128f2576040517f08c379a0000000000000000000000000000000000000000000000000000000008152600401808060200182810382526026815260200180612b206026913960400191505060405180910390fd5b6128fb85612a40565b61296d576040517f08c379a000000000000000000000000000000000000000000000000000000000815260040180806020018281038252601d8152602001807f416464726573733a2063616c6c20746f206e6f6e2d636f6e747261637400000081525060200191505060405180910390fd5b600060608673ffffffffffffffffffffffffffffffffffffffff1685876040518082805190602001908083835b602083106129bd578051825260208201915060208101905060208303925061299a565b6001836020036101000a03801982511681845116808217855250505050505090500191505060006040518083038185875af1925050503d8060008114612a1f576040519150601f19603f3d011682016040523d82523d6000602084013e612a24565b606091505b5091509150612a34828286612a53565b92505050949350505050565b600080823b905060008111915050919050565b60608315612a6357829050612b18565b600083511115612a765782518084602001fd5b816040517f08c379a00000000000000000000000000000000000000000000000000000000081526004018080602001828103825283818151815260200191508051906020019080838360005b83811015612add578082015181840152602081019050612ac2565b50505050905090810190601f168015612b0a5780820380516001836020036101000a031916815260200191505b509250505060405180910390fd5b939250505056fe416464726573733a20696e73756666696369656e742062616c616e636520666f722063616c6c536166654d6174683a206d756c7469706c69636174696f6e206f766572666c6f776f6e6c792063726561746f722063616e2063616c6c2074686973206d6574686f645361666545524332303a204552433230206f7065726174696f6e20646964206e6f7420737563636565646465706f736974206d7573742062652067726561746572207468616e203130303020574549a26469706673582212208d133b10f79467456ee94ae4257e2d43d0e78f483cfc237d8f34fe01bbc6c8b964736f6c634300060b0033",
  "immutableReferences": {},
  "source": "// SPDX-License-Identifier: MIT\r\n\r\npragma solidity 0.6.11;\r\n\r\nimport \"@openzeppelin/contracts/math/SafeMath.sol\";\r\nimport \"@openzeppelin/contracts/token/ERC20/IERC20.sol\";\r\nimport \"@openzeppelin/contracts/token/ERC20/SafeERC20.sol\";\r\nimport \"./StringToken.sol\";\r\nimport \"./Interfaces/ILQTYToken.sol\";\r\nimport \"./gStringToken.sol\";\r\nimport \"./Interfaces/IStabilityPool.sol\";\r\n\r\ncontract StringStaking {\r\n    using SafeMath for uint256;\r\n    using SafeERC20 for IERC20;\r\n\r\n    // Info of each user.\r\n    struct UserInfo {\r\n        uint256 amount; // How many LP tokens the user has provided.\r\n        uint256 rewardDebt; // Reward debt. See explanation below.\r\n        uint256 lqtyRewardDebt;\r\n        //\r\n        // We do some fancy math here. Basically, any point in time, the amount of STRING\r\n        // entitled to a user but is pending to be distributed is:\r\n        //\r\n        //   pending reward = (user.amount * pool.accstringPerShare) - user.rewardDebt\r\n        //\r\n        // Whenever a user deposits or withdraws LP tokens to a pool. Here's what happens:\r\n        //   1. The pool's `accStringPerShare` (and `lastRewardBlock`) gets updated.\r\n        //   2. User receives the pending reward sent to his/her address.\r\n        //   3. User's `amount` gets updated.\r\n        //   4. User's `rewardDebt` gets updated.\r\n    }\r\n\r\n    // Info of each pool.\r\n    struct PoolInfo {\r\n        IERC20 lpToken; // Address of LP token contract.\r\n        uint256 lpTokenSupply;\r\n        uint256 lastRewardBlock; // Last block number that STRING distribution occurs.\r\n        uint256 accStringPerShare; // Accumulated STRING per share, times 1e12. See below.\r\n        uint256 accLQTYPerShare;\r\n    }\r\n\r\n    uint256 public lastSupply;\r\n    uint256 public maxSupply;\r\n    // The STRING TOKEN!\r\n    StringToken public stringToken;\r\n    ILQTYToken public lqtyToken;\r\n    gStringToken public gstringToken;\r\n    IStabilityPool public stabilityPool;\r\n    // Dev address.\r\n    address public devaddr;\r\n    bool public registered = false;\r\n    address public creator;\r\n    // Block number when bonus STRING period ends.\r\n    uint256 public endBlock;\r\n    // STRING tokens created per block.\r\n    uint256 public stringPerBlock = 230769230800000000;\r\n    uint256 public postBoostedBlock;\r\n    uint256 public constant boostedMultiplier = 5;\r\n    bool public isBoosted = true;\r\n    uint256 public lastLQTYRewards = 0;\r\n    uint256 public totalLQTYRewards = 0;\r\n\r\n    // Info of each pool.\r\n    PoolInfo public pool;\r\n    // Info of each user that stakes LP tokens.\r\n    mapping(address => UserInfo) public userInfo;\r\n    // Total allocation poitns. Must be the sum of all allocation points in all pools.\r\n    uint256 public totalAllocPoint = 0;\r\n    // The block number when STRING mining starts.\r\n    uint256 public startBlock;\r\n\r\n    event Deposit(address indexed user, uint256 amount);\r\n    event Withdraw(address indexed user, uint256 amount);\r\n    event Claim(\r\n        address indexed who,\r\n        uint256 amountClaimed,\r\n        uint256 seconAmountClaimed\r\n    );\r\n    event EmergencyWithdraw(address indexed user, uint256 amount);\r\n\r\n    modifier onlyCreator() {\r\n        require(msg.sender == creator, \"only creator can call this method\");\r\n        _;\r\n    }\r\n\r\n    constructor(\r\n        StringToken _string,\r\n        uint256 _boostedBuffer,\r\n        ILQTYToken _lqty,\r\n        gStringToken _gstringToken,\r\n        IStabilityPool _stabilityPool\r\n    ) public {\r\n        stringToken = _string;\r\n        lqtyToken = _lqty;\r\n        gstringToken = _gstringToken;\r\n        endBlock = block.number.add(2437500);\r\n        startBlock = block.number;\r\n        postBoostedBlock = block.number.add(_boostedBuffer);\r\n        stabilityPool = _stabilityPool;\r\n        creator = msg.sender;\r\n        pool = PoolInfo({\r\n            lpToken: stringToken,\r\n            lpTokenSupply: 0,\r\n            lastRewardBlock: block.number,\r\n            accStringPerShare: 0,\r\n            accLQTYPerShare: 0\r\n        });\r\n        lastSupply = stringToken.totalSupply();\r\n        maxSupply = stringToken.maxSupply();\r\n    }\r\n\r\n    function registerIt() external onlyCreator {\r\n        require(registered == false, \"Already registered\");\r\n        stabilityPool.registerFrontEnd(9e17);\r\n        registered = true;\r\n    }\r\n\r\n    // Return reward multiplier over the given _from to _to block.\r\n    function getMultiplier(uint256 _from, uint256 _to)\r\n        public\r\n        view\r\n        returns (uint256)\r\n    {\r\n        if (_to <= endBlock) {\r\n            return _to.sub(_from);\r\n        } else if (_from >= endBlock) {\r\n            return 0;\r\n        } else {\r\n            return endBlock.sub(_from);\r\n        }\r\n    }\r\n\r\n    // View function to see pending STRING on frontend.\r\n    function pendingString(address _user) external view returns (uint256) {\r\n        UserInfo storage user = userInfo[_user];\r\n        uint256 accStringPerShare = pool.accStringPerShare;\r\n        uint256 lpSupply = pool.lpTokenSupply;\r\n        if (block.number > pool.lastRewardBlock && lpSupply != 0) {\r\n            uint256 multiplier =\r\n                getMultiplier(pool.lastRewardBlock, block.number);\r\n            uint256 stringReward = multiplier.mul(stringPerBlock);\r\n            accStringPerShare = accStringPerShare.add(\r\n                stringReward.mul(1e12).div(lpSupply)\r\n            );\r\n        }\r\n        uint256 pending =\r\n            user.amount.mul(accStringPerShare).div(1e12).sub(user.rewardDebt);\r\n\r\n        if (isBoosted) {\r\n            return pending.mul(boostedMultiplier);\r\n        } else {\r\n            return pending;\r\n        }\r\n    }\r\n\r\n    // View function to see pending LQTY on frontend.\r\n    function pendingLQTY(address _user) external view returns (uint256) {\r\n        UserInfo storage user = userInfo[_user];\r\n        uint256 accLQTYPerShare = pool.accLQTYPerShare;\r\n        uint256 lpSupply = pool.lpTokenSupply;\r\n\r\n        uint256 lqtyAvailableRewards = lqtyToken.balanceOf(address(this));\r\n        uint256 freshRewards = 0;\r\n\r\n        if (lqtyAvailableRewards > lastLQTYRewards) {\r\n            freshRewards = lqtyAvailableRewards.sub(lastLQTYRewards);\r\n        }\r\n\r\n        if (freshRewards > 0) {\r\n            accLQTYPerShare = pool.accLQTYPerShare.add(\r\n                freshRewards.mul(1e12).div(lpSupply)\r\n            );\r\n        }\r\n\r\n        uint256 pending =\r\n            user.amount.mul(accLQTYPerShare).div(1e12).sub(user.lqtyRewardDebt);\r\n        return pending;\r\n    }\r\n\r\n    // Update reward variables of the given pool to be up-to-date.\r\n    function updatePool() public {\r\n        _updateSP();\r\n        if (block.number <= pool.lastRewardBlock) {\r\n            return;\r\n        }\r\n        uint256 lpSupply = pool.lpTokenSupply;\r\n        if (lpSupply == 0) {\r\n            pool.lastRewardBlock = block.number;\r\n            return;\r\n        }\r\n        uint256 multiplier = getMultiplier(pool.lastRewardBlock, block.number);\r\n        uint256 stringReward = multiplier.mul(stringPerBlock);\r\n\r\n        if (lastSupply.add(stringReward) > maxSupply) {\r\n            stringReward = maxSupply.sub(lastSupply);\r\n        }\r\n        if (block.number < postBoostedBlock) {\r\n            uint256 boostedReward = stringReward.mul(boostedMultiplier);\r\n            stringToken.mintTo(address(this), boostedReward);\r\n        } else {\r\n            if (isBoosted) {\r\n                isBoosted = false;\r\n            }\r\n            stringToken.mintTo(address(this), stringReward);\r\n        }\r\n\r\n        pool.accStringPerShare = pool.accStringPerShare.add(\r\n            stringReward.mul(1e12).div(lpSupply)\r\n        );\r\n\r\n        pool.lastRewardBlock = block.number;\r\n    }\r\n\r\n    function _updateSP() internal {\r\n        uint256 lpSupply = pool.lpTokenSupply;\r\n\r\n        if (lpSupply == 0) {\r\n            return;\r\n        }\r\n\r\n        uint256 lqtyAvailableRewards = lqtyToken.balanceOf(address(this));\r\n        uint256 freshRewards = 0;\r\n\r\n        if (lqtyAvailableRewards > lastLQTYRewards) {\r\n            freshRewards = lqtyAvailableRewards.sub(lastLQTYRewards);\r\n        }\r\n\r\n        if (freshRewards > 0) {\r\n            pool.accLQTYPerShare = pool.accLQTYPerShare.add(\r\n                freshRewards.mul(1e12).div(lpSupply)\r\n            );\r\n        }\r\n        lastLQTYRewards = lqtyAvailableRewards;\r\n    }\r\n\r\n    // Deposit LP tokens for STRING allocation.\r\n    function deposit(uint256 _amount) external {\r\n        require(_amount > 1000, \"deposit must be greater than 1000 WEI\");\r\n        UserInfo storage user = userInfo[msg.sender];\r\n        if (lastSupply < maxSupply) {\r\n            updatePool();\r\n        }\r\n        _updateSupply();\r\n        if (user.amount > 0) {\r\n            uint256 pending = _pending(user);\r\n            uint256 pendingLQTY = _pendingLQTY(user);\r\n            safeStringTransfer(msg.sender, pending);\r\n            safeLQTYTransfer(msg.sender, pendingLQTY);\r\n        }\r\n        pool.lpToken.safeTransferFrom(\r\n            address(msg.sender),\r\n            address(this),\r\n            _amount\r\n        );\r\n\r\n        user.amount = user.amount.add(_amount);\r\n        pool.lpTokenSupply = pool.lpTokenSupply.add(_amount);\r\n\r\n        user.rewardDebt = user.amount.mul(pool.accStringPerShare).div(1e12);\r\n        user.lqtyRewardDebt = user.amount.mul(pool.accLQTYPerShare).div(1e12);\r\n        gstringToken.mintTo(msg.sender, _amount);\r\n        emit Deposit(msg.sender, _amount);\r\n    }\r\n\r\n    // Withdraw LP tokens.\r\n    function withdraw(uint256 _amount) external {\r\n        UserInfo storage user = userInfo[msg.sender];\r\n        require(user.amount >= _amount, \"withdraw: not good\");\r\n        uint256 cNotes = gstringToken.balanceOf(msg.sender);\r\n        require(_amount <= cNotes, \"not enough gSTRING\");\r\n        if (lastSupply < maxSupply) {\r\n            updatePool();\r\n        }\r\n        _updateSupply();\r\n        uint256 pending = _pending(user);\r\n        uint256 pendingLQTY = _pendingLQTY(user);\r\n        safeStringTransfer(msg.sender, pending);\r\n        safeLQTYTransfer(msg.sender, pendingLQTY);\r\n        user.amount = user.amount.sub(_amount);\r\n        pool.lpTokenSupply = pool.lpTokenSupply.sub(_amount);\r\n        gstringToken.burnFrom(msg.sender, _amount);\r\n        pool.lpToken.safeTransfer(address(msg.sender), _amount);\r\n        user.rewardDebt = user.amount.mul(pool.accStringPerShare).div(1e12);\r\n        user.lqtyRewardDebt = user.amount.mul(pool.accLQTYPerShare).div(1e12);\r\n        emit Withdraw(msg.sender, _amount);\r\n    }\r\n\r\n    // Withdraw without caring about rewards. EMERGENCY ONLY.\r\n    function emergencyWithdraw() external {\r\n        UserInfo storage user = userInfo[msg.sender];\r\n        pool.lpToken.safeTransfer(address(msg.sender), user.amount);\r\n        emit EmergencyWithdraw(msg.sender, user.amount);\r\n        user.amount = 0;\r\n        user.rewardDebt = 0;\r\n    }\r\n\r\n    // Safe STRING transfer function, just in case if rounding error causes pool to not have enough STRING.\r\n    function safeStringTransfer(address _to, uint256 _amount) internal {\r\n        uint256 totalString = stringToken.balanceOf(address(this));\r\n        uint256 rewardsBal = totalString.sub(pool.lpTokenSupply);\r\n\r\n        if (_amount > rewardsBal) {\r\n            stringToken.transfer(_to, rewardsBal);\r\n        } else {\r\n            stringToken.transfer(_to, _amount);\r\n        }\r\n    }\r\n\r\n    function safeLQTYTransfer(address _to, uint256 _amount) internal {\r\n        uint256 lqtyBal = lqtyToken.balanceOf(address(this));\r\n        if (_amount > lqtyBal) {\r\n            lqtyToken.transfer(_to, lqtyBal);\r\n            lastLQTYRewards = lastLQTYRewards.sub(lqtyBal);\r\n        } else {\r\n            lqtyToken.transfer(_to, _amount);\r\n            lastLQTYRewards = lastLQTYRewards.sub(_amount);\r\n        }\r\n    }\r\n\r\n    function _pending(UserInfo storage _user) internal view returns (uint256) {\r\n        uint256 totalString = stringToken.balanceOf(address(this));\r\n        uint256 rewardsBal = totalString.sub(pool.lpTokenSupply);\r\n\r\n        uint256 rewardsToSend =\r\n            _user.amount.mul(pool.accStringPerShare).div(1e12).sub(\r\n                _user.rewardDebt\r\n            );\r\n        if (isBoosted) {\r\n            return rewardsToSend.mul(boostedMultiplier);\r\n        }\r\n        return rewardsToSend;\r\n    }\r\n\r\n    function _pendingLQTY(UserInfo storage _user)\r\n        internal\r\n        view\r\n        returns (uint256)\r\n    {\r\n        uint256 lqtyRewardsToSend =\r\n            _user.amount.mul(pool.accLQTYPerShare).div(1e12).sub(\r\n                _user.lqtyRewardDebt\r\n            );\r\n        return lqtyRewardsToSend;\r\n    }\r\n\r\n    function _updateSupply() internal {\r\n        lastSupply = stringToken.totalSupply();\r\n    }\r\n}\r\n",
  "sourcePath": "C:/Users/danie/code/harp/client/contracts/StringStaking.sol",
  "compiler": {
    "name": "solc",
    "version": "0.6.11+commit.5ef660b1.Emscripten.clang"
  },
  "schemaVersion": "3.4.0",
  "updatedAt": "2021-05-04T03:43:28.748Z",
  "networkType": "ethereum",
  "devdoc": {
    "kind": "dev",
    "methods": {},
    "version": 1
  },
  "userdoc": {
    "kind": "user",
    "methods": {},
    "version": 1
  }
}