{
  "contractName": "StringStaking",
  "abi": [
    {
      "inputs": [
        {
          "internalType": "contract StringToken",
          "name": "_string",
          "type": "address"
        },
        {
          "internalType": "uint256",
          "name": "_boostedBuffer",
          "type": "uint256"
        },
        {
          "internalType": "contract ILQTYToken",
          "name": "_lqty",
          "type": "address"
        },
        {
          "internalType": "contract gStringToken",
          "name": "_gstringToken",
          "type": "address"
        },
        {
          "internalType": "contract IStabilityPool",
          "name": "_stabilityPool",
          "type": "address"
        }
      ],
      "stateMutability": "nonpayable",
      "type": "constructor"
    },
    {
      "anonymous": false,
      "inputs": [
        {
          "indexed": true,
          "internalType": "address",
          "name": "user",
          "type": "address"
        },
        {
          "indexed": false,
          "internalType": "uint256",
          "name": "amount",
          "type": "uint256"
        }
      ],
      "name": "Deposit",
      "type": "event"
    },
    {
      "anonymous": false,
      "inputs": [
        {
          "indexed": true,
          "internalType": "address",
          "name": "user",
          "type": "address"
        },
        {
          "indexed": false,
          "internalType": "uint256",
          "name": "amount",
          "type": "uint256"
        }
      ],
      "name": "EmergencyWithdraw",
      "type": "event"
    },
    {
      "anonymous": false,
      "inputs": [
        {
          "indexed": true,
          "internalType": "address",
          "name": "previousOwner",
          "type": "address"
        },
        {
          "indexed": true,
          "internalType": "address",
          "name": "newOwner",
          "type": "address"
        }
      ],
      "name": "OwnershipTransferred",
      "type": "event"
    },
    {
      "anonymous": false,
      "inputs": [
        {
          "indexed": true,
          "internalType": "address",
          "name": "user",
          "type": "address"
        },
        {
          "indexed": false,
          "internalType": "uint256",
          "name": "amount",
          "type": "uint256"
        }
      ],
      "name": "Withdraw",
      "type": "event"
    },
    {
      "inputs": [],
      "name": "boostedMultiplier",
      "outputs": [
        {
          "internalType": "uint256",
          "name": "",
          "type": "uint256"
        }
      ],
      "stateMutability": "view",
      "type": "function"
    },
    {
      "inputs": [],
      "name": "creator",
      "outputs": [
        {
          "internalType": "address",
          "name": "",
          "type": "address"
        }
      ],
      "stateMutability": "view",
      "type": "function"
    },
    {
      "inputs": [],
      "name": "devaddr",
      "outputs": [
        {
          "internalType": "address",
          "name": "",
          "type": "address"
        }
      ],
      "stateMutability": "view",
      "type": "function"
    },
    {
      "inputs": [],
      "name": "endBlock",
      "outputs": [
        {
          "internalType": "uint256",
          "name": "",
          "type": "uint256"
        }
      ],
      "stateMutability": "view",
      "type": "function"
    },
    {
      "inputs": [],
      "name": "gstringToken",
      "outputs": [
        {
          "internalType": "contract gStringToken",
          "name": "",
          "type": "address"
        }
      ],
      "stateMutability": "view",
      "type": "function"
    },
    {
      "inputs": [],
      "name": "isBoosted",
      "outputs": [
        {
          "internalType": "bool",
          "name": "",
          "type": "bool"
        }
      ],
      "stateMutability": "view",
      "type": "function"
    },
    {
      "inputs": [],
      "name": "lqtyToken",
      "outputs": [
        {
          "internalType": "contract ILQTYToken",
          "name": "",
          "type": "address"
        }
      ],
      "stateMutability": "view",
      "type": "function"
    },
    {
      "inputs": [],
      "name": "owner",
      "outputs": [
        {
          "internalType": "address",
          "name": "",
          "type": "address"
        }
      ],
      "stateMutability": "view",
      "type": "function"
    },
    {
      "inputs": [],
      "name": "pool",
      "outputs": [
        {
          "internalType": "contract IERC20",
          "name": "lpToken",
          "type": "address"
        },
        {
          "internalType": "uint256",
          "name": "lpTokenSupply",
          "type": "uint256"
        },
        {
          "internalType": "uint256",
          "name": "lastRewardBlock",
          "type": "uint256"
        },
        {
          "internalType": "uint256",
          "name": "accStringPerShare",
          "type": "uint256"
        },
        {
          "internalType": "uint256",
          "name": "accLQTYPerShare",
          "type": "uint256"
        }
      ],
      "stateMutability": "view",
      "type": "function"
    },
    {
      "inputs": [],
      "name": "postBoostedBlock",
      "outputs": [
        {
          "internalType": "uint256",
          "name": "",
          "type": "uint256"
        }
      ],
      "stateMutability": "view",
      "type": "function"
    },
    {
      "inputs": [],
      "name": "registered",
      "outputs": [
        {
          "internalType": "bool",
          "name": "",
          "type": "bool"
        }
      ],
      "stateMutability": "view",
      "type": "function"
    },
    {
      "inputs": [],
      "name": "renounceOwnership",
      "outputs": [],
      "stateMutability": "nonpayable",
      "type": "function"
    },
    {
      "inputs": [],
      "name": "stabilityPool",
      "outputs": [
        {
          "internalType": "contract IStabilityPool",
          "name": "",
          "type": "address"
        }
      ],
      "stateMutability": "view",
      "type": "function"
    },
    {
      "inputs": [],
      "name": "startBlock",
      "outputs": [
        {
          "internalType": "uint256",
          "name": "",
          "type": "uint256"
        }
      ],
      "stateMutability": "view",
      "type": "function"
    },
    {
      "inputs": [],
      "name": "stringPerBlock",
      "outputs": [
        {
          "internalType": "uint256",
          "name": "",
          "type": "uint256"
        }
      ],
      "stateMutability": "view",
      "type": "function"
    },
    {
      "inputs": [],
      "name": "stringToken",
      "outputs": [
        {
          "internalType": "contract StringToken",
          "name": "",
          "type": "address"
        }
      ],
      "stateMutability": "view",
      "type": "function"
    },
    {
      "inputs": [],
      "name": "totalAllocPoint",
      "outputs": [
        {
          "internalType": "uint256",
          "name": "",
          "type": "uint256"
        }
      ],
      "stateMutability": "view",
      "type": "function"
    },
    {
      "inputs": [
        {
          "internalType": "address",
          "name": "newOwner",
          "type": "address"
        }
      ],
      "name": "transferOwnership",
      "outputs": [],
      "stateMutability": "nonpayable",
      "type": "function"
    },
    {
      "inputs": [
        {
          "internalType": "address",
          "name": "",
          "type": "address"
        }
      ],
      "name": "userInfo",
      "outputs": [
        {
          "internalType": "uint256",
          "name": "amount",
          "type": "uint256"
        },
        {
          "internalType": "uint256",
          "name": "rewardDebt",
          "type": "uint256"
        },
        {
          "internalType": "uint256",
          "name": "lqtyRewardDebt",
          "type": "uint256"
        }
      ],
      "stateMutability": "view",
      "type": "function"
    },
    {
      "inputs": [],
      "name": "registerIt",
      "outputs": [],
      "stateMutability": "nonpayable",
      "type": "function"
    },
    {
      "inputs": [
        {
          "internalType": "uint256",
          "name": "_from",
          "type": "uint256"
        },
        {
          "internalType": "uint256",
          "name": "_to",
          "type": "uint256"
        }
      ],
      "name": "getMultiplier",
      "outputs": [
        {
          "internalType": "uint256",
          "name": "",
          "type": "uint256"
        }
      ],
      "stateMutability": "view",
      "type": "function"
    },
    {
      "inputs": [
        {
          "internalType": "address",
          "name": "_user",
          "type": "address"
        }
      ],
      "name": "pendingString",
      "outputs": [
        {
          "internalType": "uint256",
          "name": "",
          "type": "uint256"
        }
      ],
      "stateMutability": "view",
      "type": "function"
    },
    {
      "inputs": [],
      "name": "updatePool",
      "outputs": [],
      "stateMutability": "nonpayable",
      "type": "function"
    },
    {
      "inputs": [],
      "name": "updateSP",
      "outputs": [],
      "stateMutability": "nonpayable",
      "type": "function"
    },
    {
      "inputs": [
        {
          "internalType": "uint256",
          "name": "_amount",
          "type": "uint256"
        }
      ],
      "name": "deposit",
      "outputs": [],
      "stateMutability": "nonpayable",
      "type": "function"
    },
    {
      "inputs": [
        {
          "internalType": "uint256",
          "name": "_amount",
          "type": "uint256"
        }
      ],
      "name": "withdraw",
      "outputs": [],
      "stateMutability": "nonpayable",
      "type": "function"
    },
    {
      "inputs": [],
      "name": "emergencyWithdraw",
      "outputs": [],
      "stateMutability": "nonpayable",
      "type": "function"
    }
  ],
  "bytecode": "0x6080604052670333db648aec94006008556001600a60006101000a81548160ff02191690831515021790555060006011553480156200003d57600080fd5b5060405162002df538038062002df5833981810160405260a08110156200006357600080fd5b8101908080519060200190929190805190602001909291908051906020019092919080519060200190929190805190602001909291905050506000620000ae620003bc60201b60201c565b9050806000806101000a81548173ffffffffffffffffffffffffffffffffffffffff021916908373ffffffffffffffffffffffffffffffffffffffff1602179055508073ffffffffffffffffffffffffffffffffffffffff16600073ffffffffffffffffffffffffffffffffffffffff167f8be0079c531659141344cd1fd0a4f28419497f9722a3daafe3b4186f6b6457e060405160405180910390a35084600160006101000a81548173ffffffffffffffffffffffffffffffffffffffff021916908373ffffffffffffffffffffffffffffffffffffffff16021790555082600260006101000a81548173ffffffffffffffffffffffffffffffffffffffff021916908373ffffffffffffffffffffffffffffffffffffffff16021790555081600360006101000a81548173ffffffffffffffffffffffffffffffffffffffff021916908373ffffffffffffffffffffffffffffffffffffffff1602179055506200022c6225317c43620003c460201b62001b091790919060201c565b60078190555043601281905550620002538443620003c460201b62001b091790919060201c565b60098190555080600460006101000a81548173ffffffffffffffffffffffffffffffffffffffff021916908373ffffffffffffffffffffffffffffffffffffffff16021790555033600660006101000a81548173ffffffffffffffffffffffffffffffffffffffff021916908373ffffffffffffffffffffffffffffffffffffffff1602179055506040518060a00160405280600160009054906101000a900473ffffffffffffffffffffffffffffffffffffffff1673ffffffffffffffffffffffffffffffffffffffff16815260200160008152602001438152602001600081526020016000815250600b60008201518160000160006101000a81548173ffffffffffffffffffffffffffffffffffffffff021916908373ffffffffffffffffffffffffffffffffffffffff1602179055506020820151816001015560408201518160020155606082015181600301556080820151816004015590505050505050506200044d565b600033905090565b60008082840190508381101562000443576040517f08c379a000000000000000000000000000000000000000000000000000000000815260040180806020018281038252601b8152602001807f536166654d6174683a206164646974696f6e206f766572666c6f77000000000081525060200191505060405180910390fd5b8091505092915050565b612998806200045d6000396000f3fe608060405234801561001057600080fd5b50600436106101a95760003560e01c806366bf9ae4116100f9578063b689755911610097578063db2e21bc11610071578063db2e21bc146105ae578063df5e8987146105b8578063e3161ddd146105ec578063f2fde38b146105f6576101a9565b8063b68975591461052c578063b6b55f251461054c578063d49e77cd1461057a576101a9565b80638dbb1e3a116100d35780638dbb1e3a146104985780639a456703146104e4578063a60bdb2f146104ee578063afa2fc5c14610522576101a9565b806366bf9ae414610402578063715018a61461045a5780638da5cb5b14610464576101a9565b806317caf6f1116101665780632de40ce3116101405780632de40ce3146103785780632e1a7d4d14610398578063350bac34146103c657806348cd4cb1146103e4576101a9565b806317caf6f1146102c05780631959a002146102de5780631f7af3c314610344576101a9565b806302d05d3f146101ae578063048c661d146101e2578063083c6323146102165780630b5f91fc146102345780630d483ae11461025257806316f0115b14610270575b600080fd5b6101b661063a565b604051808273ffffffffffffffffffffffffffffffffffffffff16815260200191505060405180910390f35b6101ea610660565b604051808273ffffffffffffffffffffffffffffffffffffffff16815260200191505060405180910390f35b61021e610686565b6040518082815260200191505060405180910390f35b61023c61068c565b6040518082815260200191505060405180910390f35b61025a610692565b6040518082815260200191505060405180910390f35b610278610697565b604051808673ffffffffffffffffffffffffffffffffffffffff1681526020018581526020018481526020018381526020018281526020019550505050505060405180910390f35b6102c86106db565b6040518082815260200191505060405180910390f35b610320600480360360208110156102f457600080fd5b81019080803573ffffffffffffffffffffffffffffffffffffffff1690602001909291905050506106e1565b60405180848152602001838152602001828152602001935050505060405180910390f35b61034c61070b565b604051808273ffffffffffffffffffffffffffffffffffffffff16815260200191505060405180910390f35b610380610731565b60405180821515815260200191505060405180910390f35b6103c4600480360360208110156103ae57600080fd5b8101908080359060200190929190505050610744565b005b6103ce610b2e565b6040518082815260200191505060405180910390f35b6103ec610b34565b6040518082815260200191505060405180910390f35b6104446004803603602081101561041857600080fd5b81019080803573ffffffffffffffffffffffffffffffffffffffff169060200190929190505050610b3a565b6040518082815260200191505060405180910390f35b610462610ca2565b005b61046c610e0f565b604051808273ffffffffffffffffffffffffffffffffffffffff16815260200191505060405180910390f35b6104ce600480360360408110156104ae57600080fd5b810190808035906020019092919080359060200190929190505050610e38565b6040518082815260200191505060405180910390f35b6104ec610e8d565b005b6104f6610fe2565b604051808273ffffffffffffffffffffffffffffffffffffffff16815260200191505060405180910390f35b61052a611008565b005b610534611143565b60405180821515815260200191505060405180910390f35b6105786004803603602081101561056257600080fd5b8101908080359060200190929190505050611156565b005b610582611561565b604051808273ffffffffffffffffffffffffffffffffffffffff16815260200191505060405180910390f35b6105b6611587565b005b6105c0611687565b604051808273ffffffffffffffffffffffffffffffffffffffff16815260200191505060405180910390f35b6105f46116ad565b005b6106386004803603602081101561060c57600080fd5b81019080803573ffffffffffffffffffffffffffffffffffffffff169060200190929190505050611917565b005b600660009054906101000a900473ffffffffffffffffffffffffffffffffffffffff1681565b600460009054906101000a900473ffffffffffffffffffffffffffffffffffffffff1681565b60075481565b60095481565b600581565b600b8060000160009054906101000a900473ffffffffffffffffffffffffffffffffffffffff16908060010154908060020154908060030154908060040154905085565b60115481565b60106020528060005260406000206000915090508060000154908060010154908060020154905083565b600260009054906101000a900473ffffffffffffffffffffffffffffffffffffffff1681565b600560149054906101000a900460ff1681565b6000601060003373ffffffffffffffffffffffffffffffffffffffff1673ffffffffffffffffffffffffffffffffffffffff16815260200190815260200160002090508181600001541015610801576040517f08c379a00000000000000000000000000000000000000000000000000000000081526004018080602001828103825260128152602001807f77697468647261773a206e6f7420676f6f64000000000000000000000000000081525060200191505060405180910390fd5b6108096116ad565b610811610e8d565b6000600360009054906101000a900473ffffffffffffffffffffffffffffffffffffffff1673ffffffffffffffffffffffffffffffffffffffff166370a08231336040518263ffffffff1660e01b8152600401808273ffffffffffffffffffffffffffffffffffffffff16815260200191505060206040518083038186803b15801561089c57600080fd5b505afa1580156108b0573d6000803e3d6000fd5b505050506040513d60208110156108c657600080fd5b8101908080519060200190929190505050905060006108e58383611b91565b905060006108f38484611c43565b90506108ff3383611cc2565b6109093382611f58565b60008386111561091b57839050610927565b838611610926578590505b5b61093e8186600001546121d190919063ffffffff16565b856000018190555061095e81600b600101546121d190919063ffffffff16565b600b60010181905550600360009054906101000a900473ffffffffffffffffffffffffffffffffffffffff1673ffffffffffffffffffffffffffffffffffffffff166379cc679033836040518363ffffffff1660e01b8152600401808373ffffffffffffffffffffffffffffffffffffffff16815260200182815260200192505050600060405180830381600087803b1580156109fa57600080fd5b505af1158015610a0e573d6000803e3d6000fd5b50505050610a623382600b60000160009054906101000a900473ffffffffffffffffffffffffffffffffffffffff1673ffffffffffffffffffffffffffffffffffffffff166122549092919063ffffffff16565b610a9564e8d4a51000610a87600b6003015488600001546122f690919063ffffffff16565b61237c90919063ffffffff16565b8560010181905550610ad064e8d4a51000610ac2600b6004015488600001546122f690919063ffffffff16565b61237c90919063ffffffff16565b85600201819055503373ffffffffffffffffffffffffffffffffffffffff167f884edad9ce6fa2440d8a54cc123490eb96d2768479d49ff9c7366125a9424364876040518082815260200191505060405180910390a2505050505050565b60085481565b60125481565b600080601060008473ffffffffffffffffffffffffffffffffffffffff1673ffffffffffffffffffffffffffffffffffffffff16815260200190815260200160002090506000600b6003015490506000600b600101549050600b6002015443118015610ba7575060008114155b15610c19576000610bbd600b6002015443610e38565b90506000610bd6600854836122f690919063ffffffff16565b9050610c14610c0584610bf764e8d4a51000856122f690919063ffffffff16565b61237c90919063ffffffff16565b85611b0990919063ffffffff16565b935050505b6000610c5f8460010154610c5164e8d4a51000610c438789600001546122f690919063ffffffff16565b61237c90919063ffffffff16565b6121d190919063ffffffff16565b9050600a60009054906101000a900460ff1615610c9557610c8a6005826122f690919063ffffffff16565b945050505050610c9d565b809450505050505b919050565b610caa612405565b73ffffffffffffffffffffffffffffffffffffffff16610cc8610e0f565b73ffffffffffffffffffffffffffffffffffffffff1614610d51576040517f08c379a00000000000000000000000000000000000000000000000000000000081526004018080602001828103825260208152602001807f4f776e61626c653a2063616c6c6572206973206e6f7420746865206f776e657281525060200191505060405180910390fd5b600073ffffffffffffffffffffffffffffffffffffffff1660008054906101000a900473ffffffffffffffffffffffffffffffffffffffff1673ffffffffffffffffffffffffffffffffffffffff167f8be0079c531659141344cd1fd0a4f28419497f9722a3daafe3b4186f6b6457e060405160405180910390a360008060006101000a81548173ffffffffffffffffffffffffffffffffffffffff021916908373ffffffffffffffffffffffffffffffffffffffff160217905550565b60008060009054906101000a900473ffffffffffffffffffffffffffffffffffffffff16905090565b60006007548211610e5d57610e5683836121d190919063ffffffff16565b9050610e87565b6007548310610e6f5760009050610e87565b610e84836007546121d190919063ffffffff16565b90505b92915050565b600b600201544311610e9e57610fe0565b6000600b6001015490506000811415610eb75750610fe0565b6000600260009054906101000a900473ffffffffffffffffffffffffffffffffffffffff1673ffffffffffffffffffffffffffffffffffffffff166370a08231306040518263ffffffff1660e01b8152600401808273ffffffffffffffffffffffffffffffffffffffff16815260200191505060206040518083038186803b158015610f4257600080fd5b505afa158015610f56573d6000803e3d6000fd5b505050506040513d6020811015610f6c57600080fd5b810190808051906020019092919050505090506000811115610fd357610fc9610fb583610fa764e8d4a51000856122f690919063ffffffff16565b61237c90919063ffffffff16565b600b60040154611b0990919063ffffffff16565b600b600401819055505b43600b6002018190555050505b565b600360009054906101000a900473ffffffffffffffffffffffffffffffffffffffff1681565b60001515600560149054906101000a900460ff16151514611091576040517f08c379a00000000000000000000000000000000000000000000000000000000081526004018080602001828103825260128152602001807f416c72656164792072656769737465726564000000000000000000000000000081525060200191505060405180910390fd5b600460009054906101000a900473ffffffffffffffffffffffffffffffffffffffff1673ffffffffffffffffffffffffffffffffffffffff1663556be101670c7d713b49da00006040518263ffffffff1660e01b815260040180828152602001915050600060405180830381600087803b15801561110e57600080fd5b505af1158015611122573d6000803e3d6000fd5b505050506001600560146101000a81548160ff021916908315150217905550565b600a60009054906101000a900460ff1681565b6000601060003373ffffffffffffffffffffffffffffffffffffffff1673ffffffffffffffffffffffffffffffffffffffff16815260200190815260200160002090506111a16116ad565b6111a9610e8d565b6000600360009054906101000a900473ffffffffffffffffffffffffffffffffffffffff1673ffffffffffffffffffffffffffffffffffffffff166370a08231336040518263ffffffff1660e01b8152600401808273ffffffffffffffffffffffffffffffffffffffff16815260200191505060206040518083038186803b15801561123457600080fd5b505afa158015611248573d6000803e3d6000fd5b505050506040513d602081101561125e57600080fd5b810190808051906020019092919050505090506000826000015411156112b157600061128a8383611b91565b905060006112988484611c43565b90506112a43383611cc2565b6112ae3382611f58565b50505b611303333085600b60000160009054906101000a900473ffffffffffffffffffffffffffffffffffffffff1673ffffffffffffffffffffffffffffffffffffffff1661240d909392919063ffffffff16565b600061131a6103e88561237c90919063ffffffff16565b9050600061133182866121d190919063ffffffff16565b905061134a818560000154611b0990919063ffffffff16565b846000018190555061136a81600b60010154611b0990919063ffffffff16565b600b6001018190555060008361138d8387600001546121d190919063ffffffff16565b11156113c3576113bc846113ae8488600001546121d190919063ffffffff16565b611b0990919063ffffffff16565b90506113e9565b836113db8387600001546121d190919063ffffffff16565b116113e857846000015490505b5b61141864e8d4a5100061140a600b60030154846122f690919063ffffffff16565b61237c90919063ffffffff16565b856001018190555061144f64e8d4a51000611441600b60040154846122f690919063ffffffff16565b61237c90919063ffffffff16565b8560020181905550611460836124ce565b600360009054906101000a900473ffffffffffffffffffffffffffffffffffffffff1673ffffffffffffffffffffffffffffffffffffffff1663449a52f833846040518363ffffffff1660e01b8152600401808373ffffffffffffffffffffffffffffffffffffffff16815260200182815260200192505050600060405180830381600087803b1580156114f357600080fd5b505af1158015611507573d6000803e3d6000fd5b505050503373ffffffffffffffffffffffffffffffffffffffff167fe1fffcc4923d04b559f4d29a8bfc6cda04eb5b0d3c460751c2402c5c5cc9109c876040518082815260200191505060405180910390a2505050505050565b600560009054906101000a900473ffffffffffffffffffffffffffffffffffffffff1681565b6000601060003373ffffffffffffffffffffffffffffffffffffffff1673ffffffffffffffffffffffffffffffffffffffff168152602001908152602001600020905061161e338260000154600b60000160009054906101000a900473ffffffffffffffffffffffffffffffffffffffff1673ffffffffffffffffffffffffffffffffffffffff166122549092919063ffffffff16565b3373ffffffffffffffffffffffffffffffffffffffff167f5fafa99d0643513820be26656b45130b01e1c03062e1266bf36f88cbd3bd969582600001546040518082815260200191505060405180910390a2600081600001819055506000816001018190555050565b600160009054906101000a900473ffffffffffffffffffffffffffffffffffffffff1681565b600b6002015443116116be57611915565b6000600b60010154905060008114156116e15743600b6002018190555050611915565b60006116f2600b6002015443610e38565b9050600061170b600854836122f690919063ffffffff16565b90506009544310156117e057600061172d6005836122f690919063ffffffff16565b9050600160009054906101000a900473ffffffffffffffffffffffffffffffffffffffff1673ffffffffffffffffffffffffffffffffffffffff1663449a52f830836040518363ffffffff1660e01b8152600401808373ffffffffffffffffffffffffffffffffffffffff16815260200182815260200192505050600060405180830381600087803b1580156117c257600080fd5b505af11580156117d6573d6000803e3d6000fd5b50505050506118bd565b600a60009054906101000a900460ff1615611811576000600a60006101000a81548160ff0219169083151502179055505b600160009054906101000a900473ffffffffffffffffffffffffffffffffffffffff1673ffffffffffffffffffffffffffffffffffffffff1663449a52f830836040518363ffffffff1660e01b8152600401808373ffffffffffffffffffffffffffffffffffffffff16815260200182815260200192505050600060405180830381600087803b1580156118a457600080fd5b505af11580156118b8573d6000803e3d6000fd5b505050505b6118fe6118ea846118dc64e8d4a51000856122f690919063ffffffff16565b61237c90919063ffffffff16565b600b60030154611b0990919063ffffffff16565b600b6003018190555043600b600201819055505050505b565b61191f612405565b73ffffffffffffffffffffffffffffffffffffffff1661193d610e0f565b73ffffffffffffffffffffffffffffffffffffffff16146119c6576040517f08c379a00000000000000000000000000000000000000000000000000000000081526004018080602001828103825260208152602001807f4f776e61626c653a2063616c6c6572206973206e6f7420746865206f776e657281525060200191505060405180910390fd5b600073ffffffffffffffffffffffffffffffffffffffff168173ffffffffffffffffffffffffffffffffffffffff161415611a4c576040517f08c379a00000000000000000000000000000000000000000000000000000000081526004018080602001828103825260268152602001806128cc6026913960400191505060405180910390fd5b8073ffffffffffffffffffffffffffffffffffffffff1660008054906101000a900473ffffffffffffffffffffffffffffffffffffffff1673ffffffffffffffffffffffffffffffffffffffff167f8be0079c531659141344cd1fd0a4f28419497f9722a3daafe3b4186f6b6457e060405160405180910390a3806000806101000a81548173ffffffffffffffffffffffffffffffffffffffff021916908373ffffffffffffffffffffffffffffffffffffffff16021790555050565b600080828401905083811015611b87576040517f08c379a000000000000000000000000000000000000000000000000000000000815260040180806020018281038252601b8152602001807f536166654d6174683a206164646974696f6e206f766572666c6f77000000000081525060200191505060405180910390fd5b8091505092915050565b6000808284600001541115611ba857829050611bbc565b82846000015411611bbb57836000015490505b5b6000611c038560010154611bf564e8d4a51000611be7600b60030154876122f690919063ffffffff16565b61237c90919063ffffffff16565b6121d190919063ffffffff16565b9050600a60009054906101000a900460ff1615611c3757611c2e6005826122f690919063ffffffff16565b92505050611c3d565b80925050505b92915050565b6000808284600001541115611c5a57829050611c6e565b82846000015411611c6d57836000015490505b5b6000611cb58560020154611ca764e8d4a51000611c99600b60040154876122f690919063ffffffff16565b61237c90919063ffffffff16565b6121d190919063ffffffff16565b9050809250505092915050565b6000600160009054906101000a900473ffffffffffffffffffffffffffffffffffffffff1673ffffffffffffffffffffffffffffffffffffffff166370a08231306040518263ffffffff1660e01b8152600401808273ffffffffffffffffffffffffffffffffffffffff16815260200191505060206040518083038186803b158015611d4d57600080fd5b505afa158015611d61573d6000803e3d6000fd5b505050506040513d6020811015611d7757600080fd5b810190808051906020019092919050505090506000611da4600b60010154836121d190919063ffffffff16565b905080831115611e8257600160009054906101000a900473ffffffffffffffffffffffffffffffffffffffff1673ffffffffffffffffffffffffffffffffffffffff1663a9059cbb85836040518363ffffffff1660e01b8152600401808373ffffffffffffffffffffffffffffffffffffffff16815260200182815260200192505050602060405180830381600087803b158015611e4157600080fd5b505af1158015611e55573d6000803e3d6000fd5b505050506040513d6020811015611e6b57600080fd5b810190808051906020019092919050505050611f52565b600160009054906101000a900473ffffffffffffffffffffffffffffffffffffffff1673ffffffffffffffffffffffffffffffffffffffff1663a9059cbb85856040518363ffffffff1660e01b8152600401808373ffffffffffffffffffffffffffffffffffffffff16815260200182815260200192505050602060405180830381600087803b158015611f1557600080fd5b505af1158015611f29573d6000803e3d6000fd5b505050506040513d6020811015611f3f57600080fd5b8101908080519060200190929190505050505b50505050565b6000600260009054906101000a900473ffffffffffffffffffffffffffffffffffffffff1673ffffffffffffffffffffffffffffffffffffffff166370a08231306040518263ffffffff1660e01b8152600401808273ffffffffffffffffffffffffffffffffffffffff16815260200191505060206040518083038186803b158015611fe357600080fd5b505afa158015611ff7573d6000803e3d6000fd5b505050506040513d602081101561200d57600080fd5b81019080805190602001909291905050509050808211156120fc57600260009054906101000a900473ffffffffffffffffffffffffffffffffffffffff1673ffffffffffffffffffffffffffffffffffffffff1663a9059cbb84836040518363ffffffff1660e01b8152600401808373ffffffffffffffffffffffffffffffffffffffff16815260200182815260200192505050602060405180830381600087803b1580156120bb57600080fd5b505af11580156120cf573d6000803e3d6000fd5b505050506040513d60208110156120e557600080fd5b8101908080519060200190929190505050506121cc565b600260009054906101000a900473ffffffffffffffffffffffffffffffffffffffff1673ffffffffffffffffffffffffffffffffffffffff1663a9059cbb84846040518363ffffffff1660e01b8152600401808373ffffffffffffffffffffffffffffffffffffffff16815260200182815260200192505050602060405180830381600087803b15801561218f57600080fd5b505af11580156121a3573d6000803e3d6000fd5b505050506040513d60208110156121b957600080fd5b8101908080519060200190929190505050505b505050565b600082821115612249576040517f08c379a000000000000000000000000000000000000000000000000000000000815260040180806020018281038252601e8152602001807f536166654d6174683a207375627472616374696f6e206f766572666c6f77000081525060200191505060405180910390fd5b818303905092915050565b6122f18363a9059cbb60e01b8484604051602401808373ffffffffffffffffffffffffffffffffffffffff16815260200182815260200192505050604051602081830303815290604052907bffffffffffffffffffffffffffffffffffffffffffffffffffffffff19166020820180517bffffffffffffffffffffffffffffffffffffffffffffffffffffffff8381831617835250505050612526565b505050565b6000808314156123095760009050612376565b600082840290508284828161231a57fe5b0414612371576040517f08c379a00000000000000000000000000000000000000000000000000000000081526004018080602001828103825260218152602001806129186021913960400191505060405180910390fd5b809150505b92915050565b60008082116123f3576040517f08c379a000000000000000000000000000000000000000000000000000000000815260040180806020018281038252601a8152602001807f536166654d6174683a206469766973696f6e206279207a65726f00000000000081525060200191505060405180910390fd5b8183816123fc57fe5b04905092915050565b600033905090565b6124c8846323b872dd60e01b858585604051602401808473ffffffffffffffffffffffffffffffffffffffff1681526020018373ffffffffffffffffffffffffffffffffffffffff1681526020018281526020019350505050604051602081830303815290604052907bffffffffffffffffffffffffffffffffffffffffffffffffffffffff19166020820180517bffffffffffffffffffffffffffffffffffffffffffffffffffffffff8381831617835250505050612526565b50505050565b6000600b600101549050612519612505826124f764e8d4a51000866122f690919063ffffffff16565b61237c90919063ffffffff16565b600b60030154611b0990919063ffffffff16565b600b600301819055505050565b6000612588826040518060400160405280602081526020017f5361666545524332303a206c6f772d6c6576656c2063616c6c206661696c65648152508573ffffffffffffffffffffffffffffffffffffffff166126159092919063ffffffff16565b9050600081511115612610578080602001905160208110156125a957600080fd5b810190808051906020019092919050505061260f576040517f08c379a000000000000000000000000000000000000000000000000000000000815260040180806020018281038252602a815260200180612939602a913960400191505060405180910390fd5b5b505050565b6060612624848460008561262d565b90509392505050565b6060823073ffffffffffffffffffffffffffffffffffffffff1631101561269f576040517f08c379a00000000000000000000000000000000000000000000000000000000081526004018080602001828103825260268152602001806128f26026913960400191505060405180910390fd5b6126a8856127ec565b61271a576040517f08c379a000000000000000000000000000000000000000000000000000000000815260040180806020018281038252601d8152602001807f416464726573733a2063616c6c20746f206e6f6e2d636f6e747261637400000081525060200191505060405180910390fd5b6000808673ffffffffffffffffffffffffffffffffffffffff1685876040518082805190602001908083835b602083106127695780518252602082019150602081019050602083039250612746565b6001836020036101000a03801982511681845116808217855250505050505090500191505060006040518083038185875af1925050503d80600081146127cb576040519150601f19603f3d011682016040523d82523d6000602084013e6127d0565b606091505b50915091506127e08282866127ff565b92505050949350505050565b600080823b905060008111915050919050565b6060831561280f578290506128c4565b6000835111156128225782518084602001fd5b816040517f08c379a00000000000000000000000000000000000000000000000000000000081526004018080602001828103825283818151815260200191508051906020019080838360005b8381101561288957808201518184015260208101905061286e565b50505050905090810190601f1680156128b65780820380516001836020036101000a031916815260200191505b509250505060405180910390fd5b939250505056fe4f776e61626c653a206e6577206f776e657220697320746865207a65726f2061646472657373416464726573733a20696e73756666696369656e742062616c616e636520666f722063616c6c536166654d6174683a206d756c7469706c69636174696f6e206f766572666c6f775361666545524332303a204552433230206f7065726174696f6e20646964206e6f742073756363656564a26469706673582212207f74fe2ff00bdbd614ecde969665c38bd0379f2be948d47b06da075250ed373064736f6c63430007060033",
  "immutableReferences": {},
  "source": "// SPDX-License-Identifier: MIT\r\npragma solidity >=0.6.0 <0.8.0;\r\nimport \"@openzeppelin/contracts/access/Ownable.sol\";\r\nimport \"@openzeppelin/contracts/math/SafeMath.sol\";\r\nimport \"@openzeppelin/contracts/token/ERC20/IERC20.sol\";\r\nimport \"@openzeppelin/contracts/token/ERC20/SafeERC20.sol\";\r\nimport \"./StringToken.sol\";\r\n// import \"./ILQTYToken.sol\";\r\nimport \"./Interfaces/ILQTYToken.sol\";\r\nimport \"./gStringToken.sol\";\r\nimport \"./Interfaces/IStabilityPool.sol\";\r\n\r\ncontract StringStaking is Ownable {\r\n    using SafeMath for uint256;\r\n    using SafeERC20 for IERC20;\r\n\r\n    // Info of each user.\r\n    struct UserInfo {\r\n        uint256 amount; // How many LP tokens the user has provided.\r\n        uint256 rewardDebt; // Reward debt. See explanation below.\r\n        uint256 lqtyRewardDebt;\r\n        //\r\n        // We do some fancy math here. Basically, any point in time, the amount of SUSHIs\r\n        // entitled to a user but is pending to be distributed is:\r\n        //\r\n        //   pending reward = (user.amount * pool.accstringPerShare) - user.rewardDebt\r\n        //\r\n        // Whenever a user deposits or withdraws LP tokens to a pool. Here's what happens:\r\n        //   1. The pool's `accStringPerShare` (and `lastRewardBlock`) gets updated.\r\n        //   2. User receives the pending reward sent to his/her address.\r\n        //   3. User's `amount` gets updated.\r\n        //   4. User's `rewardDebt` gets updated.\r\n    }\r\n\r\n    // Info of each pool.\r\n    struct PoolInfo {\r\n        IERC20 lpToken; // Address of LP token contract.\r\n        uint256 lpTokenSupply;\r\n        uint256 lastRewardBlock; // Last block number that SUSHIs distribution occurs.\r\n        uint256 accStringPerShare; // Accumulated SUSHIs per share, times 1e12. See below.\r\n        uint256 accLQTYPerShare;\r\n    }\r\n\r\n    // The SUSHI TOKEN!\r\n    StringToken public stringToken;\r\n    ILQTYToken public lqtyToken;\r\n    gStringToken public gstringToken;\r\n    IStabilityPool public stabilityPool;\r\n    // Dev address.\r\n    address public devaddr;\r\n    bool public registered;\r\n    address public creator;\r\n    // Block number when bonus SUSHI period ends.\r\n    uint256 public endBlock;\r\n    // SUSHI tokens created per block.\r\n    uint256 public stringPerBlock = 230769230800000000;\r\n    uint256 public postBoostedBlock;\r\n    uint256 public constant boostedMultiplier = 5;\r\n    bool public isBoosted = true;\r\n\r\n    // Info of each pool.\r\n    PoolInfo public pool;\r\n    // Info of each user that stakes LP tokens.\r\n    mapping(address => UserInfo) public userInfo;\r\n    // Total allocation poitns. Must be the sum of all allocation points in all pools.\r\n    uint256 public totalAllocPoint = 0;\r\n    // The block number when SUSHI mining starts.\r\n    uint256 public startBlock;\r\n\r\n    event Deposit(address indexed user, uint256 amount);\r\n    event Withdraw(address indexed user, uint256 amount);\r\n    event EmergencyWithdraw(address indexed user, uint256 amount);\r\n\r\n    modifier onlyCreator() {\r\n        require(msg.sender == creator, \"only creator can call this method\");\r\n        _;\r\n    }\r\n\r\n    constructor(\r\n        StringToken _string,\r\n        uint256 _boostedBuffer,\r\n        ILQTYToken _lqty,\r\n        gStringToken _gstringToken,\r\n        IStabilityPool _stabilityPool\r\n    ) {\r\n        stringToken = _string;\r\n        lqtyToken = _lqty;\r\n        gstringToken = _gstringToken;\r\n        endBlock = block.number.add(2437500);\r\n        startBlock = block.number;\r\n        postBoostedBlock = block.number.add(_boostedBuffer);\r\n        stabilityPool = _stabilityPool;\r\n        creator = msg.sender;\r\n        pool = PoolInfo({\r\n            lpToken: stringToken,\r\n            lpTokenSupply: 0,\r\n            lastRewardBlock: block.number,\r\n            accStringPerShare: 0,\r\n            accLQTYPerShare: 0\r\n        });\r\n    }\r\n\r\n    function registerIt() public {\r\n        require(registered == false, \"Already registered\");\r\n        stabilityPool.registerFrontEnd(9e17);\r\n        registered = true;\r\n    }\r\n\r\n    // Return reward multiplier over the given _from to _to block.\r\n    function getMultiplier(uint256 _from, uint256 _to)\r\n        public\r\n        view\r\n        returns (uint256)\r\n    {\r\n        if (_to <= endBlock) {\r\n            return _to.sub(_from);\r\n        } else if (_from >= endBlock) {\r\n            return 0;\r\n        } else {\r\n            return endBlock.sub(_from);\r\n        }\r\n    }\r\n\r\n    // View function to see pending SUSHIs on frontend.\r\n    function pendingString(address _user) external view returns (uint256) {\r\n        UserInfo storage user = userInfo[_user];\r\n        uint256 accStringPerShare = pool.accStringPerShare;\r\n        uint256 lpSupply = pool.lpTokenSupply;\r\n        if (block.number > pool.lastRewardBlock && lpSupply != 0) {\r\n            uint256 multiplier =\r\n                getMultiplier(pool.lastRewardBlock, block.number);\r\n            uint256 stringReward = multiplier.mul(stringPerBlock);\r\n            accStringPerShare = accStringPerShare.add(\r\n                stringReward.mul(1e12).div(lpSupply)\r\n            );\r\n        }\r\n        uint256 pending =\r\n            user.amount.mul(accStringPerShare).div(1e12).sub(user.rewardDebt);\r\n\r\n        if (isBoosted) {\r\n            return pending.mul(boostedMultiplier);\r\n        } else {\r\n            return pending;\r\n        }\r\n    }\r\n\r\n    // Update reward variables of the given pool to be up-to-date.\r\n    function updatePool() public {\r\n        if (block.number <= pool.lastRewardBlock) {\r\n            return;\r\n        }\r\n        uint256 lpSupply = pool.lpTokenSupply;\r\n        if (lpSupply == 0) {\r\n            pool.lastRewardBlock = block.number;\r\n            return;\r\n        }\r\n        uint256 multiplier = getMultiplier(pool.lastRewardBlock, block.number);\r\n        uint256 stringReward = multiplier.mul(stringPerBlock);\r\n        if (block.number < postBoostedBlock) {\r\n            uint256 boostedReward = stringReward.mul(boostedMultiplier);\r\n            stringToken.mintTo(address(this), boostedReward);\r\n        } else {\r\n            if (isBoosted) {\r\n                isBoosted = false;\r\n            }\r\n            stringToken.mintTo(address(this), stringReward);\r\n        }\r\n\r\n        pool.accStringPerShare = pool.accStringPerShare.add(\r\n            stringReward.mul(1e12).div(lpSupply)\r\n        );\r\n        pool.lastRewardBlock = block.number;\r\n    }\r\n\r\n    function updateSP() public {\r\n        if (block.number <= pool.lastRewardBlock) {\r\n            return;\r\n        }\r\n        uint256 lpSupply = pool.lpTokenSupply;\r\n\r\n        if (lpSupply == 0) {\r\n            return;\r\n        }\r\n\r\n        uint256 lqtyAvailableRewards = lqtyToken.balanceOf(address(this));\r\n\r\n        if (lqtyAvailableRewards > 0) {\r\n            pool.accLQTYPerShare = pool.accLQTYPerShare.add(\r\n                lqtyAvailableRewards.mul(1e12).div(lpSupply)\r\n            );\r\n        }\r\n        pool.lastRewardBlock = block.number;\r\n    }\r\n\r\n    function updateForFee(uint256 _fee) internal {\r\n        uint256 lpSupply = pool.lpTokenSupply;\r\n        pool.accStringPerShare = pool.accStringPerShare.add(\r\n            _fee.mul(1e12).div(lpSupply)\r\n        );\r\n    }\r\n\r\n    // Deposit LP tokens to MasterChef for SUSHI allocation.\r\n    function deposit(uint256 _amount) public {\r\n        UserInfo storage user = userInfo[msg.sender];\r\n        updatePool();\r\n        updateSP();\r\n        uint256 cNotes = gstringToken.balanceOf(msg.sender);\r\n        if (user.amount > 0) {\r\n            uint256 pending = _pending(user, cNotes);\r\n            uint256 pendingLQTY = _pendingLQTY(user, cNotes);\r\n            safeStringTransfer(msg.sender, pending);\r\n            safeLQTYTransfer(msg.sender, pendingLQTY);\r\n        }\r\n        pool.lpToken.safeTransferFrom(\r\n            address(msg.sender),\r\n            address(this),\r\n            _amount\r\n        );\r\n        uint256 fee = _amount.div(1000);\r\n        uint256 depositAmount = _amount.sub(fee);\r\n        user.amount = user.amount.add(depositAmount);\r\n        pool.lpTokenSupply = pool.lpTokenSupply.add(depositAmount);\r\n\r\n        uint256 debtAmount;\r\n\r\n        if (user.amount.sub(depositAmount) > cNotes) {\r\n            debtAmount = user.amount.sub(depositAmount).add(cNotes);\r\n        } else if (user.amount.sub(depositAmount) <= cNotes) {\r\n            debtAmount = user.amount;\r\n        }\r\n\r\n        user.rewardDebt = debtAmount.mul(pool.accStringPerShare).div(1e12);\r\n        user.lqtyRewardDebt = debtAmount.mul(pool.accLQTYPerShare).div(1e12);\r\n        updateForFee(fee);\r\n        gstringToken.mintTo(msg.sender, depositAmount);\r\n        emit Deposit(msg.sender, _amount);\r\n    }\r\n\r\n    // Withdraw LP tokens from MasterChef.\r\n    function withdraw(uint256 _amount) public {\r\n        UserInfo storage user = userInfo[msg.sender];\r\n        require(user.amount >= _amount, \"withdraw: not good\");\r\n        updatePool();\r\n        updateSP();\r\n        uint256 cNotes = gstringToken.balanceOf(msg.sender);\r\n        uint256 pending = _pending(user, cNotes);\r\n        uint256 pendingLQTY = _pendingLQTY(user, cNotes);\r\n        safeStringTransfer(msg.sender, pending);\r\n        safeLQTYTransfer(msg.sender, pendingLQTY);\r\n\r\n        uint256 redeemAmount;\r\n\r\n        if (_amount > cNotes) {\r\n            redeemAmount = cNotes;\r\n        } else if (_amount <= cNotes) {\r\n            redeemAmount = _amount;\r\n        }\r\n\r\n        user.amount = user.amount.sub(redeemAmount);\r\n        pool.lpTokenSupply = pool.lpTokenSupply.sub(redeemAmount);\r\n        gstringToken.burnFrom(msg.sender, redeemAmount);\r\n        pool.lpToken.safeTransfer(address(msg.sender), redeemAmount);\r\n        user.rewardDebt = user.amount.mul(pool.accStringPerShare).div(1e12);\r\n        user.lqtyRewardDebt = user.amount.mul(pool.accLQTYPerShare).div(1e12);\r\n        emit Withdraw(msg.sender, _amount);\r\n    }\r\n\r\n    // Withdraw without caring about rewards. EMERGENCY ONLY.\r\n    function emergencyWithdraw() public {\r\n        UserInfo storage user = userInfo[msg.sender];\r\n        pool.lpToken.safeTransfer(address(msg.sender), user.amount);\r\n        emit EmergencyWithdraw(msg.sender, user.amount);\r\n        user.amount = 0;\r\n        user.rewardDebt = 0;\r\n    }\r\n\r\n    // Safe sushi transfer function, just in case if rounding error causes pool to not have enough SUSHIs.\r\n    function safeStringTransfer(address _to, uint256 _amount) internal {\r\n        uint256 totalString = stringToken.balanceOf(address(this));\r\n        uint256 rewardsBal = totalString.sub(pool.lpTokenSupply);\r\n        if (_amount > rewardsBal) {\r\n            stringToken.transfer(_to, rewardsBal);\r\n        } else {\r\n            stringToken.transfer(_to, _amount);\r\n        }\r\n    }\r\n\r\n    function safeLQTYTransfer(address _to, uint256 _amount) internal {\r\n        uint256 lqtyBal = lqtyToken.balanceOf(address(this));\r\n        if (_amount > lqtyBal) {\r\n            lqtyToken.transfer(_to, lqtyBal);\r\n        } else {\r\n            lqtyToken.transfer(_to, _amount);\r\n        }\r\n    }\r\n\r\n    function _pending(UserInfo storage _user, uint256 _cNotes)\r\n        internal\r\n        view\r\n        returns (uint256)\r\n    {\r\n        uint256 amount;\r\n\r\n        if (_user.amount > _cNotes) {\r\n            amount = _cNotes;\r\n        } else if (_user.amount <= _cNotes) {\r\n            amount = _user.amount;\r\n        }\r\n        uint256 rewardsToSend =\r\n            amount.mul(pool.accStringPerShare).div(1e12).sub(_user.rewardDebt);\r\n        if (isBoosted) {\r\n            return rewardsToSend.mul(boostedMultiplier);\r\n        }\r\n        return rewardsToSend;\r\n    }\r\n\r\n    function _pendingLQTY(UserInfo storage _user, uint256 _cNotes)\r\n        internal\r\n        view\r\n        returns (uint256)\r\n    {\r\n        uint256 amount;\r\n\r\n        if (_user.amount > _cNotes) {\r\n            amount = _cNotes;\r\n        } else if (_user.amount <= _cNotes) {\r\n            amount = _user.amount;\r\n        }\r\n        uint256 lqtyRewardsToSend =\r\n            amount.mul(pool.accLQTYPerShare).div(1e12).sub(\r\n                _user.lqtyRewardDebt\r\n            );\r\n        return lqtyRewardsToSend;\r\n    }\r\n}\r\n",
  "sourcePath": "C:/Users/danie/code/harp/client/src/contracts/StringStaking.sol",
  "compiler": {
    "name": "solc",
    "version": "0.7.6+commit.7338295f.Emscripten.clang"
  },
  "schemaVersion": "3.3.3",
  "updatedAt": "2021-03-31T19:03:57.606Z",
  "devdoc": {
    "kind": "dev",
    "methods": {
      "owner()": {
        "details": "Returns the address of the current owner."
      },
      "renounceOwnership()": {
        "details": "Leaves the contract without owner. It will not be possible to call `onlyOwner` functions anymore. Can only be called by the current owner. NOTE: Renouncing ownership will leave the contract without an owner, thereby removing any functionality that is only available to the owner."
      },
      "transferOwnership(address)": {
        "details": "Transfers ownership of the contract to a new account (`newOwner`). Can only be called by the current owner."
      }
    },
    "version": 1
  },
  "userdoc": {
    "kind": "user",
    "methods": {},
    "version": 1
  }
}