{
  "contractName": "StringStaking",
  "abi": [
    {
      "inputs": [
        {
          "internalType": "contract StringToken",
          "name": "_string",
          "type": "address"
        },
        {
          "internalType": "uint256",
          "name": "_boostedBuffer",
          "type": "uint256"
        },
        {
          "internalType": "contract ILQTYToken",
          "name": "_lqty",
          "type": "address"
        },
        {
          "internalType": "contract gStringToken",
          "name": "_gstringToken",
          "type": "address"
        },
        {
          "internalType": "contract IStabilityPool",
          "name": "_stabilityPool",
          "type": "address"
        }
      ],
      "stateMutability": "nonpayable",
      "type": "constructor"
    },
    {
      "anonymous": false,
      "inputs": [
        {
          "indexed": true,
          "internalType": "address",
          "name": "who",
          "type": "address"
        },
        {
          "indexed": false,
          "internalType": "uint256",
          "name": "amountClaimed",
          "type": "uint256"
        },
        {
          "indexed": false,
          "internalType": "uint256",
          "name": "seconAmountClaimed",
          "type": "uint256"
        }
      ],
      "name": "Claim",
      "type": "event"
    },
    {
      "anonymous": false,
      "inputs": [
        {
          "indexed": true,
          "internalType": "address",
          "name": "user",
          "type": "address"
        },
        {
          "indexed": false,
          "internalType": "uint256",
          "name": "amount",
          "type": "uint256"
        }
      ],
      "name": "Deposit",
      "type": "event"
    },
    {
      "anonymous": false,
      "inputs": [
        {
          "indexed": true,
          "internalType": "address",
          "name": "user",
          "type": "address"
        },
        {
          "indexed": false,
          "internalType": "uint256",
          "name": "amount",
          "type": "uint256"
        }
      ],
      "name": "EmergencyWithdraw",
      "type": "event"
    },
    {
      "anonymous": false,
      "inputs": [
        {
          "indexed": true,
          "internalType": "address",
          "name": "user",
          "type": "address"
        },
        {
          "indexed": false,
          "internalType": "uint256",
          "name": "amount",
          "type": "uint256"
        }
      ],
      "name": "Withdraw",
      "type": "event"
    },
    {
      "inputs": [],
      "name": "boostedMultiplier",
      "outputs": [
        {
          "internalType": "uint256",
          "name": "",
          "type": "uint256"
        }
      ],
      "stateMutability": "view",
      "type": "function",
      "constant": true
    },
    {
      "inputs": [],
      "name": "creator",
      "outputs": [
        {
          "internalType": "address",
          "name": "",
          "type": "address"
        }
      ],
      "stateMutability": "view",
      "type": "function",
      "constant": true
    },
    {
      "inputs": [],
      "name": "devaddr",
      "outputs": [
        {
          "internalType": "address",
          "name": "",
          "type": "address"
        }
      ],
      "stateMutability": "view",
      "type": "function",
      "constant": true
    },
    {
      "inputs": [],
      "name": "endBlock",
      "outputs": [
        {
          "internalType": "uint256",
          "name": "",
          "type": "uint256"
        }
      ],
      "stateMutability": "view",
      "type": "function",
      "constant": true
    },
    {
      "inputs": [],
      "name": "gstringToken",
      "outputs": [
        {
          "internalType": "contract gStringToken",
          "name": "",
          "type": "address"
        }
      ],
      "stateMutability": "view",
      "type": "function",
      "constant": true
    },
    {
      "inputs": [],
      "name": "isBoosted",
      "outputs": [
        {
          "internalType": "bool",
          "name": "",
          "type": "bool"
        }
      ],
      "stateMutability": "view",
      "type": "function",
      "constant": true
    },
    {
      "inputs": [],
      "name": "lastLQTYRewards",
      "outputs": [
        {
          "internalType": "uint256",
          "name": "",
          "type": "uint256"
        }
      ],
      "stateMutability": "view",
      "type": "function",
      "constant": true
    },
    {
      "inputs": [],
      "name": "lqtyToken",
      "outputs": [
        {
          "internalType": "contract ILQTYToken",
          "name": "",
          "type": "address"
        }
      ],
      "stateMutability": "view",
      "type": "function",
      "constant": true
    },
    {
      "inputs": [],
      "name": "pool",
      "outputs": [
        {
          "internalType": "contract IERC20",
          "name": "lpToken",
          "type": "address"
        },
        {
          "internalType": "uint256",
          "name": "lpTokenSupply",
          "type": "uint256"
        },
        {
          "internalType": "uint256",
          "name": "lastRewardBlock",
          "type": "uint256"
        },
        {
          "internalType": "uint256",
          "name": "accStringPerShare",
          "type": "uint256"
        },
        {
          "internalType": "uint256",
          "name": "accLQTYPerShare",
          "type": "uint256"
        }
      ],
      "stateMutability": "view",
      "type": "function",
      "constant": true
    },
    {
      "inputs": [],
      "name": "postBoostedBlock",
      "outputs": [
        {
          "internalType": "uint256",
          "name": "",
          "type": "uint256"
        }
      ],
      "stateMutability": "view",
      "type": "function",
      "constant": true
    },
    {
      "inputs": [],
      "name": "registered",
      "outputs": [
        {
          "internalType": "bool",
          "name": "",
          "type": "bool"
        }
      ],
      "stateMutability": "view",
      "type": "function",
      "constant": true
    },
    {
      "inputs": [],
      "name": "stabilityPool",
      "outputs": [
        {
          "internalType": "contract IStabilityPool",
          "name": "",
          "type": "address"
        }
      ],
      "stateMutability": "view",
      "type": "function",
      "constant": true
    },
    {
      "inputs": [],
      "name": "startBlock",
      "outputs": [
        {
          "internalType": "uint256",
          "name": "",
          "type": "uint256"
        }
      ],
      "stateMutability": "view",
      "type": "function",
      "constant": true
    },
    {
      "inputs": [],
      "name": "stringPerBlock",
      "outputs": [
        {
          "internalType": "uint256",
          "name": "",
          "type": "uint256"
        }
      ],
      "stateMutability": "view",
      "type": "function",
      "constant": true
    },
    {
      "inputs": [],
      "name": "stringToken",
      "outputs": [
        {
          "internalType": "contract StringToken",
          "name": "",
          "type": "address"
        }
      ],
      "stateMutability": "view",
      "type": "function",
      "constant": true
    },
    {
      "inputs": [],
      "name": "totalAllocPoint",
      "outputs": [
        {
          "internalType": "uint256",
          "name": "",
          "type": "uint256"
        }
      ],
      "stateMutability": "view",
      "type": "function",
      "constant": true
    },
    {
      "inputs": [],
      "name": "totalLQTYRewards",
      "outputs": [
        {
          "internalType": "uint256",
          "name": "",
          "type": "uint256"
        }
      ],
      "stateMutability": "view",
      "type": "function",
      "constant": true
    },
    {
      "inputs": [
        {
          "internalType": "address",
          "name": "",
          "type": "address"
        }
      ],
      "name": "userInfo",
      "outputs": [
        {
          "internalType": "uint256",
          "name": "amount",
          "type": "uint256"
        },
        {
          "internalType": "uint256",
          "name": "rewardDebt",
          "type": "uint256"
        },
        {
          "internalType": "uint256",
          "name": "lqtyRewardDebt",
          "type": "uint256"
        }
      ],
      "stateMutability": "view",
      "type": "function",
      "constant": true
    },
    {
      "inputs": [],
      "name": "registerIt",
      "outputs": [],
      "stateMutability": "nonpayable",
      "type": "function"
    },
    {
      "inputs": [
        {
          "internalType": "uint256",
          "name": "_from",
          "type": "uint256"
        },
        {
          "internalType": "uint256",
          "name": "_to",
          "type": "uint256"
        }
      ],
      "name": "getMultiplier",
      "outputs": [
        {
          "internalType": "uint256",
          "name": "",
          "type": "uint256"
        }
      ],
      "stateMutability": "view",
      "type": "function",
      "constant": true
    },
    {
      "inputs": [
        {
          "internalType": "address",
          "name": "_user",
          "type": "address"
        }
      ],
      "name": "pendingString",
      "outputs": [
        {
          "internalType": "uint256",
          "name": "",
          "type": "uint256"
        }
      ],
      "stateMutability": "view",
      "type": "function",
      "constant": true
    },
    {
      "inputs": [
        {
          "internalType": "address",
          "name": "_user",
          "type": "address"
        }
      ],
      "name": "pendingLQTY",
      "outputs": [
        {
          "internalType": "uint256",
          "name": "",
          "type": "uint256"
        }
      ],
      "stateMutability": "view",
      "type": "function",
      "constant": true
    },
    {
      "inputs": [],
      "name": "updatePool",
      "outputs": [],
      "stateMutability": "nonpayable",
      "type": "function"
    },
    {
      "inputs": [
        {
          "internalType": "uint256",
          "name": "_amount",
          "type": "uint256"
        }
      ],
      "name": "deposit",
      "outputs": [],
      "stateMutability": "nonpayable",
      "type": "function"
    },
    {
      "inputs": [
        {
          "internalType": "uint256",
          "name": "_amount",
          "type": "uint256"
        }
      ],
      "name": "withdraw",
      "outputs": [],
      "stateMutability": "nonpayable",
      "type": "function"
    },
    {
      "inputs": [],
      "name": "emergencyWithdraw",
      "outputs": [],
      "stateMutability": "nonpayable",
      "type": "function"
    }
  ],
  "bytecode": "0x60806040526000600460146101000a81548160ff021916908315150217905550670333db648aec94006007556001600960006101000a81548160ff0219169083151502179055506000600a556000600b5560006012553480156200006257600080fd5b5060405162002e4238038062002e42833981810160405260a08110156200008857600080fd5b810190808051906020019092919080519060200190929190805190602001909291908051906020019092919080519060200190929190505050846000806101000a81548173ffffffffffffffffffffffffffffffffffffffff021916908373ffffffffffffffffffffffffffffffffffffffff16021790555082600160006101000a81548173ffffffffffffffffffffffffffffffffffffffff021916908373ffffffffffffffffffffffffffffffffffffffff16021790555081600260006101000a81548173ffffffffffffffffffffffffffffffffffffffff021916908373ffffffffffffffffffffffffffffffffffffffff160217905550620001a06225317c436200032f60201b620019061790919060201c565b60068190555043601381905550620001c784436200032f60201b620019061790919060201c565b60088190555080600360006101000a81548173ffffffffffffffffffffffffffffffffffffffff021916908373ffffffffffffffffffffffffffffffffffffffff16021790555033600560006101000a81548173ffffffffffffffffffffffffffffffffffffffff021916908373ffffffffffffffffffffffffffffffffffffffff1602179055506040518060a001604052806000809054906101000a900473ffffffffffffffffffffffffffffffffffffffff1673ffffffffffffffffffffffffffffffffffffffff16815260200160008152602001438152602001600081526020016000815250600c60008201518160000160006101000a81548173ffffffffffffffffffffffffffffffffffffffff021916908373ffffffffffffffffffffffffffffffffffffffff160217905550602082015181600101556040820151816002015560608201518160030155608082015181600401559050505050505050620003b8565b600080828401905083811015620003ae576040517f08c379a000000000000000000000000000000000000000000000000000000000815260040180806020018281038252601b8152602001807f536166654d6174683a206164646974696f6e206f766572666c6f77000000000081525060200191505060405180910390fd5b8091505092915050565b612a7a80620003c86000396000f3fe608060405234801561001057600080fd5b506004361061018e5760003560e01c806366bf9ae4116100de578063b689755911610097578063db2e21bc11610071578063db2e21bc14610649578063df5e898714610653578063e3161ddd1461069d578063f18e15ba146106a75761018e565b8063b6897559146105af578063b6b55f25146105d1578063d49e77cd146105ff5761018e565b806366bf9ae41461044157806382b8e731146104995780638dbb1e3a146104b7578063a489127314610503578063a60bdb2f1461055b578063afa2fc5c146105a55761018e565b806317caf6f11161014b5780632de40ce3116101255780632de40ce3146103b55780632e1a7d4d146103d7578063350bac341461040557806348cd4cb1146104235761018e565b806317caf6f1146102e75780631959a002146103055780631f7af3c31461036b5761018e565b806302d05d3f14610193578063048c661d146101dd578063083c6323146102275780630b5f91fc146102455780630d483ae11461026357806316f0115b14610281575b600080fd5b61019b6106c5565b604051808273ffffffffffffffffffffffffffffffffffffffff1673ffffffffffffffffffffffffffffffffffffffff16815260200191505060405180910390f35b6101e56106eb565b604051808273ffffffffffffffffffffffffffffffffffffffff1673ffffffffffffffffffffffffffffffffffffffff16815260200191505060405180910390f35b61022f610711565b6040518082815260200191505060405180910390f35b61024d610717565b6040518082815260200191505060405180910390f35b61026b61071d565b6040518082815260200191505060405180910390f35b610289610722565b604051808673ffffffffffffffffffffffffffffffffffffffff1673ffffffffffffffffffffffffffffffffffffffff1681526020018581526020018481526020018381526020018281526020019550505050505060405180910390f35b6102ef610766565b6040518082815260200191505060405180910390f35b6103476004803603602081101561031b57600080fd5b81019080803573ffffffffffffffffffffffffffffffffffffffff16906020019092919050505061076c565b60405180848152602001838152602001828152602001935050505060405180910390f35b610373610796565b604051808273ffffffffffffffffffffffffffffffffffffffff1673ffffffffffffffffffffffffffffffffffffffff16815260200191505060405180910390f35b6103bd6107bc565b604051808215151515815260200191505060405180910390f35b610403600480360360208110156103ed57600080fd5b81019080803590602001909291905050506107cf565b005b61040d610c32565b6040518082815260200191505060405180910390f35b61042b610c38565b6040518082815260200191505060405180910390f35b6104836004803603602081101561045757600080fd5b81019080803573ffffffffffffffffffffffffffffffffffffffff169060200190929190505050610c3e565b6040518082815260200191505060405180910390f35b6104a1610da6565b6040518082815260200191505060405180910390f35b6104ed600480360360408110156104cd57600080fd5b810190808035906020019092919080359060200190929190505050610dac565b6040518082815260200191505060405180910390f35b6105456004803603602081101561051957600080fd5b81019080803573ffffffffffffffffffffffffffffffffffffffff169060200190929190505050610e01565b6040518082815260200191505060405180910390f35b610563611001565b604051808273ffffffffffffffffffffffffffffffffffffffff1673ffffffffffffffffffffffffffffffffffffffff16815260200191505060405180910390f35b6105ad611027565b005b6105b7611208565b604051808215151515815260200191505060405180910390f35b6105fd600480360360208110156105e757600080fd5b810190808035906020019092919050505061121b565b005b610607611519565b604051808273ffffffffffffffffffffffffffffffffffffffff1673ffffffffffffffffffffffffffffffffffffffff16815260200191505060405180910390f35b61065161153f565b005b61065b61163f565b604051808273ffffffffffffffffffffffffffffffffffffffff1673ffffffffffffffffffffffffffffffffffffffff16815260200191505060405180910390f35b6106a5611664565b005b6106af611900565b6040518082815260200191505060405180910390f35b600560009054906101000a900473ffffffffffffffffffffffffffffffffffffffff1681565b600360009054906101000a900473ffffffffffffffffffffffffffffffffffffffff1681565b60065481565b60085481565b600581565b600c8060000160009054906101000a900473ffffffffffffffffffffffffffffffffffffffff16908060010154908060020154908060030154908060040154905085565b60125481565b60116020528060005260406000206000915090508060000154908060010154908060020154905083565b600160009054906101000a900473ffffffffffffffffffffffffffffffffffffffff1681565b600460149054906101000a900460ff1681565b6000601160003373ffffffffffffffffffffffffffffffffffffffff1673ffffffffffffffffffffffffffffffffffffffff1681526020019081526020016000209050818160000154101561088c576040517f08c379a00000000000000000000000000000000000000000000000000000000081526004018080602001828103825260128152602001807f77697468647261773a206e6f7420676f6f64000000000000000000000000000081525060200191505060405180910390fd5b6000600260009054906101000a900473ffffffffffffffffffffffffffffffffffffffff1673ffffffffffffffffffffffffffffffffffffffff166370a08231336040518263ffffffff1660e01b8152600401808273ffffffffffffffffffffffffffffffffffffffff1673ffffffffffffffffffffffffffffffffffffffff16815260200191505060206040518083038186803b15801561092d57600080fd5b505afa158015610941573d6000803e3d6000fd5b505050506040513d602081101561095757600080fd5b81019080805190602001909291905050509050808311156109e0576040517f08c379a00000000000000000000000000000000000000000000000000000000081526004018080602001828103825260128152602001807f6e6f7420656e6f7567682067535452494e47000000000000000000000000000081525060200191505060405180910390fd5b6109e8611664565b60006109f38361198e565b90506000610a0084611b14565b9050610a0c3383611b6b565b610a163382611e40565b610a2d85856000015461213190919063ffffffff16565b8460000181905550610a4d85600c6001015461213190919063ffffffff16565b600c60010181905550600260009054906101000a900473ffffffffffffffffffffffffffffffffffffffff1673ffffffffffffffffffffffffffffffffffffffff166379cc679033876040518363ffffffff1660e01b8152600401808373ffffffffffffffffffffffffffffffffffffffff1673ffffffffffffffffffffffffffffffffffffffff16815260200182815260200192505050600060405180830381600087803b158015610aff57600080fd5b505af1158015610b13573d6000803e3d6000fd5b50505050610b673386600c60000160009054906101000a900473ffffffffffffffffffffffffffffffffffffffff1673ffffffffffffffffffffffffffffffffffffffff166121b49092919063ffffffff16565b610b9a64e8d4a51000610b8c600c60030154876000015461226c90919063ffffffff16565b6122f290919063ffffffff16565b8460010181905550610bd564e8d4a51000610bc7600c60040154876000015461226c90919063ffffffff16565b6122f290919063ffffffff16565b84600201819055503373ffffffffffffffffffffffffffffffffffffffff167f884edad9ce6fa2440d8a54cc123490eb96d2768479d49ff9c7366125a9424364866040518082815260200191505060405180910390a25050505050565b60075481565b60135481565b600080601160008473ffffffffffffffffffffffffffffffffffffffff1673ffffffffffffffffffffffffffffffffffffffff16815260200190815260200160002090506000600c6003015490506000600c600101549050600c6002015443118015610cab575060008114155b15610d1d576000610cc1600c6002015443610dac565b90506000610cda6007548361226c90919063ffffffff16565b9050610d18610d0984610cfb64e8d4a510008561226c90919063ffffffff16565b6122f290919063ffffffff16565b8561190690919063ffffffff16565b935050505b6000610d638460010154610d5564e8d4a51000610d4787896000015461226c90919063ffffffff16565b6122f290919063ffffffff16565b61213190919063ffffffff16565b9050600960009054906101000a900460ff1615610d9957610d8e60058261226c90919063ffffffff16565b945050505050610da1565b809450505050505b919050565b600a5481565b60006006548211610dd157610dca838361213190919063ffffffff16565b9050610dfb565b6006548310610de35760009050610dfb565b610df88360065461213190919063ffffffff16565b90505b92915050565b600080601160008473ffffffffffffffffffffffffffffffffffffffff1673ffffffffffffffffffffffffffffffffffffffff16815260200190815260200160002090506000600c6004015490506000600c6001015490506000600160009054906101000a900473ffffffffffffffffffffffffffffffffffffffff1673ffffffffffffffffffffffffffffffffffffffff166370a08231306040518263ffffffff1660e01b8152600401808273ffffffffffffffffffffffffffffffffffffffff1673ffffffffffffffffffffffffffffffffffffffff16815260200191505060206040518083038186803b158015610efa57600080fd5b505afa158015610f0e573d6000803e3d6000fd5b505050506040513d6020811015610f2457600080fd5b810190808051906020019092919050505090506000809050600a54821115610f5e57610f5b600a548361213190919063ffffffff16565b90505b6000811115610fab57610fa8610f9484610f8664e8d4a510008561226c90919063ffffffff16565b6122f290919063ffffffff16565b600c6004015461190690919063ffffffff16565b93505b6000610ff18660020154610fe364e8d4a51000610fd5898b6000015461226c90919063ffffffff16565b6122f290919063ffffffff16565b61213190919063ffffffff16565b9050809650505050505050919050565b600260009054906101000a900473ffffffffffffffffffffffffffffffffffffffff1681565b600560009054906101000a900473ffffffffffffffffffffffffffffffffffffffff1673ffffffffffffffffffffffffffffffffffffffff163373ffffffffffffffffffffffffffffffffffffffff16146110cd576040517f08c379a00000000000000000000000000000000000000000000000000000000081526004018080602001828103825260218152602001806129d56021913960400191505060405180910390fd5b60001515600460149054906101000a900460ff16151514611156576040517f08c379a00000000000000000000000000000000000000000000000000000000081526004018080602001828103825260128152602001807f416c72656164792072656769737465726564000000000000000000000000000081525060200191505060405180910390fd5b600360009054906101000a900473ffffffffffffffffffffffffffffffffffffffff1673ffffffffffffffffffffffffffffffffffffffff1663556be101670c7d713b49da00006040518263ffffffff1660e01b815260040180828152602001915050600060405180830381600087803b1580156111d357600080fd5b505af11580156111e7573d6000803e3d6000fd5b505050506001600460146101000a81548160ff021916908315150217905550565b600960009054906101000a900460ff1681565b6103e88111611275576040517f08c379a0000000000000000000000000000000000000000000000000000000008152600401808060200182810382526025815260200180612a206025913960400191505060405180910390fd5b6000601160003373ffffffffffffffffffffffffffffffffffffffff1673ffffffffffffffffffffffffffffffffffffffff16815260200190815260200160002090506112c0611664565b6000816000015411156112fe5760006112d88261198e565b905060006112e583611b14565b90506112f13383611b6b565b6112fb3382611e40565b50505b611350333084600c60000160009054906101000a900473ffffffffffffffffffffffffffffffffffffffff1673ffffffffffffffffffffffffffffffffffffffff1661237b909392919063ffffffff16565b61136782826000015461190690919063ffffffff16565b816000018190555061138782600c6001015461190690919063ffffffff16565b600c600101819055506113c364e8d4a510006113b5600c60030154846000015461226c90919063ffffffff16565b6122f290919063ffffffff16565b81600101819055506113fe64e8d4a510006113f0600c60040154846000015461226c90919063ffffffff16565b6122f290919063ffffffff16565b8160020181905550600260009054906101000a900473ffffffffffffffffffffffffffffffffffffffff1673ffffffffffffffffffffffffffffffffffffffff1663449a52f833846040518363ffffffff1660e01b8152600401808373ffffffffffffffffffffffffffffffffffffffff1673ffffffffffffffffffffffffffffffffffffffff16815260200182815260200192505050600060405180830381600087803b1580156114af57600080fd5b505af11580156114c3573d6000803e3d6000fd5b505050503373ffffffffffffffffffffffffffffffffffffffff167fe1fffcc4923d04b559f4d29a8bfc6cda04eb5b0d3c460751c2402c5c5cc9109c836040518082815260200191505060405180910390a25050565b600460009054906101000a900473ffffffffffffffffffffffffffffffffffffffff1681565b6000601160003373ffffffffffffffffffffffffffffffffffffffff1673ffffffffffffffffffffffffffffffffffffffff16815260200190815260200160002090506115d6338260000154600c60000160009054906101000a900473ffffffffffffffffffffffffffffffffffffffff1673ffffffffffffffffffffffffffffffffffffffff166121b49092919063ffffffff16565b3373ffffffffffffffffffffffffffffffffffffffff167f5fafa99d0643513820be26656b45130b01e1c03062e1266bf36f88cbd3bd969582600001546040518082815260200191505060405180910390a2600081600001819055506000816001018190555050565b6000809054906101000a900473ffffffffffffffffffffffffffffffffffffffff1681565b61166c612468565b600c60020154431161167d576118fe565b6000600c60010154905060008114156116a05743600c60020181905550506118fe565b60006116b1600c6002015443610dac565b905060006116ca6007548361226c90919063ffffffff16565b90506008544310156117b45760006116ec60058361226c90919063ffffffff16565b90506000809054906101000a900473ffffffffffffffffffffffffffffffffffffffff1673ffffffffffffffffffffffffffffffffffffffff1663449a52f830836040518363ffffffff1660e01b8152600401808373ffffffffffffffffffffffffffffffffffffffff1673ffffffffffffffffffffffffffffffffffffffff16815260200182815260200192505050600060405180830381600087803b15801561179657600080fd5b505af11580156117aa573d6000803e3d6000fd5b50505050506118a6565b600960009054906101000a900460ff16156117e5576000600960006101000a81548160ff0219169083151502179055505b6000809054906101000a900473ffffffffffffffffffffffffffffffffffffffff1673ffffffffffffffffffffffffffffffffffffffff1663449a52f830836040518363ffffffff1660e01b8152600401808373ffffffffffffffffffffffffffffffffffffffff1673ffffffffffffffffffffffffffffffffffffffff16815260200182815260200192505050600060405180830381600087803b15801561188d57600080fd5b505af11580156118a1573d6000803e3d6000fd5b505050505b6118e76118d3846118c564e8d4a510008561226c90919063ffffffff16565b6122f290919063ffffffff16565b600c6003015461190690919063ffffffff16565b600c6003018190555043600c600201819055505050505b565b600b5481565b600080828401905083811015611984576040517f08c379a000000000000000000000000000000000000000000000000000000000815260040180806020018281038252601b8152602001807f536166654d6174683a206164646974696f6e206f766572666c6f77000000000081525060200191505060405180910390fd5b8091505092915050565b6000806000809054906101000a900473ffffffffffffffffffffffffffffffffffffffff1673ffffffffffffffffffffffffffffffffffffffff166370a08231306040518263ffffffff1660e01b8152600401808273ffffffffffffffffffffffffffffffffffffffff1673ffffffffffffffffffffffffffffffffffffffff16815260200191505060206040518083038186803b158015611a2f57600080fd5b505afa158015611a43573d6000803e3d6000fd5b505050506040513d6020811015611a5957600080fd5b810190808051906020019092919050505090506000611a86600c600101548361213190919063ffffffff16565b90506000611ad38560010154611ac564e8d4a51000611ab7600c600301548a6000015461226c90919063ffffffff16565b6122f290919063ffffffff16565b61213190919063ffffffff16565b9050600960009054906101000a900460ff1615611b0857611afe60058261226c90919063ffffffff16565b9350505050611b0f565b8093505050505b919050565b600080611b608360020154611b5264e8d4a51000611b44600c60040154886000015461226c90919063ffffffff16565b6122f290919063ffffffff16565b61213190919063ffffffff16565b905080915050919050565b60008060009054906101000a900473ffffffffffffffffffffffffffffffffffffffff1673ffffffffffffffffffffffffffffffffffffffff166370a08231306040518263ffffffff1660e01b8152600401808273ffffffffffffffffffffffffffffffffffffffff1673ffffffffffffffffffffffffffffffffffffffff16815260200191505060206040518083038186803b158015611c0b57600080fd5b505afa158015611c1f573d6000803e3d6000fd5b505050506040513d6020811015611c3557600080fd5b810190808051906020019092919050505090506000611c62600c600101548361213190919063ffffffff16565b905080831115611d55576000809054906101000a900473ffffffffffffffffffffffffffffffffffffffff1673ffffffffffffffffffffffffffffffffffffffff1663a9059cbb85836040518363ffffffff1660e01b8152600401808373ffffffffffffffffffffffffffffffffffffffff1673ffffffffffffffffffffffffffffffffffffffff16815260200182815260200192505050602060405180830381600087803b158015611d1457600080fd5b505af1158015611d28573d6000803e3d6000fd5b505050506040513d6020811015611d3e57600080fd5b810190808051906020019092919050505050611e3a565b6000809054906101000a900473ffffffffffffffffffffffffffffffffffffffff1673ffffffffffffffffffffffffffffffffffffffff1663a9059cbb85856040518363ffffffff1660e01b8152600401808373ffffffffffffffffffffffffffffffffffffffff1673ffffffffffffffffffffffffffffffffffffffff16815260200182815260200192505050602060405180830381600087803b158015611dfd57600080fd5b505af1158015611e11573d6000803e3d6000fd5b505050506040513d6020811015611e2757600080fd5b8101908080519060200190929190505050505b50505050565b6000600160009054906101000a900473ffffffffffffffffffffffffffffffffffffffff1673ffffffffffffffffffffffffffffffffffffffff166370a08231306040518263ffffffff1660e01b8152600401808273ffffffffffffffffffffffffffffffffffffffff1673ffffffffffffffffffffffffffffffffffffffff16815260200191505060206040518083038186803b158015611ee157600080fd5b505afa158015611ef5573d6000803e3d6000fd5b505050506040513d6020811015611f0b57600080fd5b810190808051906020019092919050505090508082111561202b57600160009054906101000a900473ffffffffffffffffffffffffffffffffffffffff1673ffffffffffffffffffffffffffffffffffffffff1663a9059cbb84836040518363ffffffff1660e01b8152600401808373ffffffffffffffffffffffffffffffffffffffff1673ffffffffffffffffffffffffffffffffffffffff16815260200182815260200192505050602060405180830381600087803b158015611fcf57600080fd5b505af1158015611fe3573d6000803e3d6000fd5b505050506040513d6020811015611ff957600080fd5b81019080805190602001909291905050505061202081600a5461213190919063ffffffff16565b600a8190555061212c565b600160009054906101000a900473ffffffffffffffffffffffffffffffffffffffff1673ffffffffffffffffffffffffffffffffffffffff1663a9059cbb84846040518363ffffffff1660e01b8152600401808373ffffffffffffffffffffffffffffffffffffffff1673ffffffffffffffffffffffffffffffffffffffff16815260200182815260200192505050602060405180830381600087803b1580156120d457600080fd5b505af11580156120e8573d6000803e3d6000fd5b505050506040513d60208110156120fe57600080fd5b81019080805190602001909291905050505061212582600a5461213190919063ffffffff16565b600a819055505b505050565b6000828211156121a9576040517f08c379a000000000000000000000000000000000000000000000000000000000815260040180806020018281038252601e8152602001807f536166654d6174683a207375627472616374696f6e206f766572666c6f77000081525060200191505060405180910390fd5b818303905092915050565b6122678363a9059cbb60e01b8484604051602401808373ffffffffffffffffffffffffffffffffffffffff1673ffffffffffffffffffffffffffffffffffffffff16815260200182815260200192505050604051602081830303815290604052907bffffffffffffffffffffffffffffffffffffffffffffffffffffffff19166020820180517bffffffffffffffffffffffffffffffffffffffffffffffffffffffff83818316178352505050506125e7565b505050565b60008083141561227f57600090506122ec565b600082840290508284828161229057fe5b04146122e7576040517f08c379a00000000000000000000000000000000000000000000000000000000081526004018080602001828103825260218152602001806129b46021913960400191505060405180910390fd5b809150505b92915050565b6000808211612369576040517f08c379a000000000000000000000000000000000000000000000000000000000815260040180806020018281038252601a8152602001807f536166654d6174683a206469766973696f6e206279207a65726f00000000000081525060200191505060405180910390fd5b81838161237257fe5b04905092915050565b612462846323b872dd60e01b858585604051602401808473ffffffffffffffffffffffffffffffffffffffff1673ffffffffffffffffffffffffffffffffffffffff1681526020018373ffffffffffffffffffffffffffffffffffffffff1673ffffffffffffffffffffffffffffffffffffffff1681526020018281526020019350505050604051602081830303815290604052907bffffffffffffffffffffffffffffffffffffffffffffffffffffffff19166020820180517bffffffffffffffffffffffffffffffffffffffffffffffffffffffff83818316178352505050506125e7565b50505050565b6000600c600101549050600081141561248157506125e5565b6000600160009054906101000a900473ffffffffffffffffffffffffffffffffffffffff1673ffffffffffffffffffffffffffffffffffffffff166370a08231306040518263ffffffff1660e01b8152600401808273ffffffffffffffffffffffffffffffffffffffff1673ffffffffffffffffffffffffffffffffffffffff16815260200191505060206040518083038186803b15801561252257600080fd5b505afa158015612536573d6000803e3d6000fd5b505050506040513d602081101561254c57600080fd5b810190808051906020019092919050505090506000809050600a5482111561258657612583600a548361213190919063ffffffff16565b90505b60008111156125da576125d06125bc846125ae64e8d4a510008561226c90919063ffffffff16565b6122f290919063ffffffff16565b600c6004015461190690919063ffffffff16565b600c600401819055505b81600a819055505050505b565b6060612649826040518060400160405280602081526020017f5361666545524332303a206c6f772d6c6576656c2063616c6c206661696c65648152508573ffffffffffffffffffffffffffffffffffffffff166126d69092919063ffffffff16565b90506000815111156126d15780806020019051602081101561266a57600080fd5b81019080805190602001909291905050506126d0576040517f08c379a000000000000000000000000000000000000000000000000000000000815260040180806020018281038252602a8152602001806129f6602a913960400191505060405180910390fd5b5b505050565b60606126e584846000856126ee565b90509392505050565b6060823073ffffffffffffffffffffffffffffffffffffffff16311015612760576040517f08c379a000000000000000000000000000000000000000000000000000000000815260040180806020018281038252602681526020018061298e6026913960400191505060405180910390fd5b612769856128ae565b6127db576040517f08c379a000000000000000000000000000000000000000000000000000000000815260040180806020018281038252601d8152602001807f416464726573733a2063616c6c20746f206e6f6e2d636f6e747261637400000081525060200191505060405180910390fd5b600060608673ffffffffffffffffffffffffffffffffffffffff1685876040518082805190602001908083835b6020831061282b5780518252602082019150602081019050602083039250612808565b6001836020036101000a03801982511681845116808217855250505050505090500191505060006040518083038185875af1925050503d806000811461288d576040519150601f19603f3d011682016040523d82523d6000602084013e612892565b606091505b50915091506128a28282866128c1565b92505050949350505050565b600080823b905060008111915050919050565b606083156128d157829050612986565b6000835111156128e45782518084602001fd5b816040517f08c379a00000000000000000000000000000000000000000000000000000000081526004018080602001828103825283818151815260200191508051906020019080838360005b8381101561294b578082015181840152602081019050612930565b50505050905090810190601f1680156129785780820380516001836020036101000a031916815260200191505b509250505060405180910390fd5b939250505056fe416464726573733a20696e73756666696369656e742062616c616e636520666f722063616c6c536166654d6174683a206d756c7469706c69636174696f6e206f766572666c6f776f6e6c792063726561746f722063616e2063616c6c2074686973206d6574686f645361666545524332303a204552433230206f7065726174696f6e20646964206e6f7420737563636565646465706f736974206d7573742062652067726561746572207468616e203130303020574549a2646970667358221220e6ec947041924b4d25930147078b1fbb4a45da20d5988717ad17e6bd68d5b24b64736f6c634300060b0033",
  "immutableReferences": {},
  "source": "// SPDX-License-Identifier: MIT\n\npragma solidity 0.6.11;\n\nimport \"@openzeppelin/contracts/math/SafeMath.sol\";\nimport \"@openzeppelin/contracts/token/ERC20/IERC20.sol\";\nimport \"@openzeppelin/contracts/token/ERC20/SafeERC20.sol\";\nimport \"./StringToken.sol\";\nimport \"./Interfaces/ILQTYToken.sol\";\nimport \"./gStringToken.sol\";\nimport \"./Interfaces/IStabilityPool.sol\";\n\ncontract StringStaking {\n    using SafeMath for uint256;\n    using SafeERC20 for IERC20;\n\n    // Info of each user.\n    struct UserInfo {\n        uint256 amount; // How many LP tokens the user has provided.\n        uint256 rewardDebt; // Reward debt. See explanation below.\n        uint256 lqtyRewardDebt;\n        //\n        // We do some fancy math here. Basically, any point in time, the amount of STRING\n        // entitled to a user but is pending to be distributed is:\n        //\n        //   pending reward = (user.amount * pool.accstringPerShare) - user.rewardDebt\n        //\n        // Whenever a user deposits or withdraws LP tokens to a pool. Here's what happens:\n        //   1. The pool's `accStringPerShare` (and `lastRewardBlock`) gets updated.\n        //   2. User receives the pending reward sent to his/her address.\n        //   3. User's `amount` gets updated.\n        //   4. User's `rewardDebt` gets updated.\n    }\n\n    // Info of each pool.\n    struct PoolInfo {\n        IERC20 lpToken; // Address of LP token contract.\n        uint256 lpTokenSupply;\n        uint256 lastRewardBlock; // Last block number that STRING distribution occurs.\n        uint256 accStringPerShare; // Accumulated STRING per share, times 1e12. See below.\n        uint256 accLQTYPerShare;\n    }\n\n    // The STRING TOKEN!\n    StringToken public stringToken;\n    ILQTYToken public lqtyToken;\n    gStringToken public gstringToken;\n    IStabilityPool public stabilityPool;\n    // Dev address.\n    address public devaddr;\n    bool public registered = false;\n    address public creator;\n    // Block number when bonus STRING period ends.\n    uint256 public endBlock;\n    // STRING tokens created per block.\n    uint256 public stringPerBlock = 230769230800000000;\n    uint256 public postBoostedBlock;\n    uint256 public constant boostedMultiplier = 5;\n    bool public isBoosted = true;\n    uint256 public lastLQTYRewards = 0;\n    uint256 public totalLQTYRewards = 0;\n\n    // Info of each pool.\n    PoolInfo public pool;\n    // Info of each user that stakes LP tokens.\n    mapping(address => UserInfo) public userInfo;\n    // Total allocation poitns. Must be the sum of all allocation points in all pools.\n    uint256 public totalAllocPoint = 0;\n    // The block number when STRING mining starts.\n    uint256 public startBlock;\n\n    event Deposit(address indexed user, uint256 amount);\n    event Withdraw(address indexed user, uint256 amount);\n    event Claim(\n        address indexed who,\n        uint256 amountClaimed,\n        uint256 seconAmountClaimed\n    );\n    event EmergencyWithdraw(address indexed user, uint256 amount);\n\n    modifier onlyCreator() {\n        require(msg.sender == creator, \"only creator can call this method\");\n        _;\n    }\n\n    constructor(\n        StringToken _string,\n        uint256 _boostedBuffer,\n        ILQTYToken _lqty,\n        gStringToken _gstringToken,\n        IStabilityPool _stabilityPool\n    ) public {\n        stringToken = _string;\n        lqtyToken = _lqty;\n        gstringToken = _gstringToken;\n        endBlock = block.number.add(2437500);\n        startBlock = block.number;\n        postBoostedBlock = block.number.add(_boostedBuffer);\n        stabilityPool = _stabilityPool;\n        creator = msg.sender;\n        pool = PoolInfo({\n            lpToken: stringToken,\n            lpTokenSupply: 0,\n            lastRewardBlock: block.number,\n            accStringPerShare: 0,\n            accLQTYPerShare: 0\n        });\n    }\n\n    function registerIt() external onlyCreator {\n        require(registered == false, \"Already registered\");\n        stabilityPool.registerFrontEnd(9e17);\n        registered = true;\n    }\n\n    // Return reward multiplier over the given _from to _to block.\n    function getMultiplier(uint256 _from, uint256 _to)\n        public\n        view\n        returns (uint256)\n    {\n        if (_to <= endBlock) {\n            return _to.sub(_from);\n        } else if (_from >= endBlock) {\n            return 0;\n        } else {\n            return endBlock.sub(_from);\n        }\n    }\n\n    // View function to see pending STRING on frontend.\n    function pendingString(address _user) external view returns (uint256) {\n        UserInfo storage user = userInfo[_user];\n        uint256 accStringPerShare = pool.accStringPerShare;\n        uint256 lpSupply = pool.lpTokenSupply;\n        if (block.number > pool.lastRewardBlock && lpSupply != 0) {\n            uint256 multiplier =\n                getMultiplier(pool.lastRewardBlock, block.number);\n            uint256 stringReward = multiplier.mul(stringPerBlock);\n            accStringPerShare = accStringPerShare.add(\n                stringReward.mul(1e12).div(lpSupply)\n            );\n        }\n        uint256 pending =\n            user.amount.mul(accStringPerShare).div(1e12).sub(user.rewardDebt);\n\n        if (isBoosted) {\n            return pending.mul(boostedMultiplier);\n        } else {\n            return pending;\n        }\n    }\n\n    // View function to see pending LQTY on frontend.\n    function pendingLQTY(address _user) external view returns (uint256) {\n        UserInfo storage user = userInfo[_user];\n        uint256 accLQTYPerShare = pool.accLQTYPerShare;\n        uint256 lpSupply = pool.lpTokenSupply;\n\n        uint256 lqtyAvailableRewards = lqtyToken.balanceOf(address(this));\n        uint256 freshRewards = 0;\n\n        if (lqtyAvailableRewards > lastLQTYRewards) {\n            freshRewards = lqtyAvailableRewards.sub(lastLQTYRewards);\n        }\n\n        if (freshRewards > 0) {\n            accLQTYPerShare = pool.accLQTYPerShare.add(\n                freshRewards.mul(1e12).div(lpSupply)\n            );\n        }\n\n        uint256 pending =\n            user.amount.mul(accLQTYPerShare).div(1e12).sub(user.lqtyRewardDebt);\n        return pending;\n    }\n\n    // Update reward variables of the given pool to be up-to-date.\n    function updatePool() public {\n        _updateSP();\n        if (block.number <= pool.lastRewardBlock) {\n            return;\n        }\n        uint256 lpSupply = pool.lpTokenSupply;\n        if (lpSupply == 0) {\n            pool.lastRewardBlock = block.number;\n            return;\n        }\n        uint256 multiplier = getMultiplier(pool.lastRewardBlock, block.number);\n        uint256 stringReward = multiplier.mul(stringPerBlock);\n        if (block.number < postBoostedBlock) {\n            uint256 boostedReward = stringReward.mul(boostedMultiplier);\n            stringToken.mintTo(address(this), boostedReward);\n        } else {\n            if (isBoosted) {\n                isBoosted = false;\n            }\n            stringToken.mintTo(address(this), stringReward);\n        }\n\n        pool.accStringPerShare = pool.accStringPerShare.add(\n            stringReward.mul(1e12).div(lpSupply)\n        );\n\n        pool.lastRewardBlock = block.number;\n    }\n\n    function _updateSP() internal {\n        uint256 lpSupply = pool.lpTokenSupply;\n\n        if (lpSupply == 0) {\n            return;\n        }\n\n        uint256 lqtyAvailableRewards = lqtyToken.balanceOf(address(this));\n        uint256 freshRewards = 0;\n\n        if (lqtyAvailableRewards > lastLQTYRewards) {\n            freshRewards = lqtyAvailableRewards.sub(lastLQTYRewards);\n        }\n\n        if (freshRewards > 0) {\n            pool.accLQTYPerShare = pool.accLQTYPerShare.add(\n                freshRewards.mul(1e12).div(lpSupply)\n            );\n        }\n        lastLQTYRewards = lqtyAvailableRewards;\n    }\n\n    // Deposit LP tokens for STRING allocation.\n    function deposit(uint256 _amount) external {\n        require(_amount > 1000, \"deposit must be greater than 1000 WEI\");\n        UserInfo storage user = userInfo[msg.sender];\n        updatePool();\n        if (user.amount > 0) {\n            uint256 pending = _pending(user);\n            uint256 pendingLQTY = _pendingLQTY(user);\n            safeStringTransfer(msg.sender, pending);\n            safeLQTYTransfer(msg.sender, pendingLQTY);\n        }\n        pool.lpToken.safeTransferFrom(\n            address(msg.sender),\n            address(this),\n            _amount\n        );\n\n        user.amount = user.amount.add(_amount);\n        pool.lpTokenSupply = pool.lpTokenSupply.add(_amount);\n\n        user.rewardDebt = user.amount.mul(pool.accStringPerShare).div(1e12);\n        user.lqtyRewardDebt = user.amount.mul(pool.accLQTYPerShare).div(1e12);\n        gstringToken.mintTo(msg.sender, _amount);\n        emit Deposit(msg.sender, _amount);\n    }\n\n    // Withdraw LP tokens.\n    function withdraw(uint256 _amount) external {\n        UserInfo storage user = userInfo[msg.sender];\n        require(user.amount >= _amount, \"withdraw: not good\");\n        uint256 cNotes = gstringToken.balanceOf(msg.sender);\n        require(_amount <= cNotes, \"not enough gSTRING\");\n        updatePool();\n        uint256 pending = _pending(user);\n        uint256 pendingLQTY = _pendingLQTY(user);\n        safeStringTransfer(msg.sender, pending);\n        safeLQTYTransfer(msg.sender, pendingLQTY);\n        user.amount = user.amount.sub(_amount);\n        pool.lpTokenSupply = pool.lpTokenSupply.sub(_amount);\n        gstringToken.burnFrom(msg.sender, _amount);\n        pool.lpToken.safeTransfer(address(msg.sender), _amount);\n        user.rewardDebt = user.amount.mul(pool.accStringPerShare).div(1e12);\n        user.lqtyRewardDebt = user.amount.mul(pool.accLQTYPerShare).div(1e12);\n        emit Withdraw(msg.sender, _amount);\n    }\n\n    // Withdraw without caring about rewards. EMERGENCY ONLY.\n    function emergencyWithdraw() external {\n        UserInfo storage user = userInfo[msg.sender];\n        pool.lpToken.safeTransfer(address(msg.sender), user.amount);\n        emit EmergencyWithdraw(msg.sender, user.amount);\n        user.amount = 0;\n        user.rewardDebt = 0;\n    }\n\n    // Safe STRING transfer function, just in case if rounding error causes pool to not have enough STRING.\n    function safeStringTransfer(address _to, uint256 _amount) internal {\n        uint256 totalString = stringToken.balanceOf(address(this));\n        uint256 rewardsBal = totalString.sub(pool.lpTokenSupply);\n\n        if (_amount > rewardsBal) {\n            stringToken.transfer(_to, rewardsBal);\n        } else {\n            stringToken.transfer(_to, _amount);\n        }\n    }\n\n    function safeLQTYTransfer(address _to, uint256 _amount) internal {\n        uint256 lqtyBal = lqtyToken.balanceOf(address(this));\n        if (_amount > lqtyBal) {\n            lqtyToken.transfer(_to, lqtyBal);\n            lastLQTYRewards = lastLQTYRewards.sub(lqtyBal);\n        } else {\n            lqtyToken.transfer(_to, _amount);\n            lastLQTYRewards = lastLQTYRewards.sub(_amount);\n        }\n    }\n\n    function _pending(UserInfo storage _user) internal view returns (uint256) {\n        uint256 totalString = stringToken.balanceOf(address(this));\n        uint256 rewardsBal = totalString.sub(pool.lpTokenSupply);\n\n        uint256 rewardsToSend =\n            _user.amount.mul(pool.accStringPerShare).div(1e12).sub(\n                _user.rewardDebt\n            );\n        if (isBoosted) {\n            return rewardsToSend.mul(boostedMultiplier);\n        }\n        return rewardsToSend;\n    }\n\n    function _pendingLQTY(UserInfo storage _user)\n        internal\n        view\n        returns (uint256)\n    {\n        uint256 lqtyRewardsToSend =\n            _user.amount.mul(pool.accLQTYPerShare).div(1e12).sub(\n                _user.lqtyRewardDebt\n            );\n        return lqtyRewardsToSend;\n    }\n}\n",
  "sourcePath": "/Users/dannywarrick/code/harp/client/contracts/StringStaking.sol",
  "compiler": {
    "name": "solc",
    "version": "0.6.11+commit.5ef660b1.Emscripten.clang"
  },
  "schemaVersion": "3.3.4",
  "updatedAt": "2021-04-30T23:25:01.609Z",
  "networkType": "ethereum",
  "devdoc": {
    "kind": "dev",
    "methods": {},
    "version": 1
  },
  "userdoc": {
    "kind": "user",
    "methods": {},
    "version": 1
  }
}