{
  "contractName": "StringStaking",
  "abi": [
    {
      "inputs": [
        {
          "internalType": "contract StringToken",
          "name": "_string",
          "type": "address"
        },
        {
          "internalType": "uint256",
          "name": "_boostedBuffer",
          "type": "uint256"
        },
        {
          "internalType": "contract ILQTYToken",
          "name": "_lqty",
          "type": "address"
        },
        {
          "internalType": "contract gStringToken",
          "name": "_gstringToken",
          "type": "address"
        }
      ],
      "stateMutability": "nonpayable",
      "type": "constructor"
    },
    {
      "anonymous": false,
      "inputs": [
        {
          "indexed": true,
          "internalType": "address",
          "name": "user",
          "type": "address"
        },
        {
          "indexed": false,
          "internalType": "uint256",
          "name": "amount",
          "type": "uint256"
        }
      ],
      "name": "Deposit",
      "type": "event"
    },
    {
      "anonymous": false,
      "inputs": [
        {
          "indexed": true,
          "internalType": "address",
          "name": "user",
          "type": "address"
        },
        {
          "indexed": false,
          "internalType": "uint256",
          "name": "amount",
          "type": "uint256"
        }
      ],
      "name": "EmergencyWithdraw",
      "type": "event"
    },
    {
      "anonymous": false,
      "inputs": [
        {
          "indexed": true,
          "internalType": "address",
          "name": "previousOwner",
          "type": "address"
        },
        {
          "indexed": true,
          "internalType": "address",
          "name": "newOwner",
          "type": "address"
        }
      ],
      "name": "OwnershipTransferred",
      "type": "event"
    },
    {
      "anonymous": false,
      "inputs": [
        {
          "indexed": true,
          "internalType": "address",
          "name": "user",
          "type": "address"
        },
        {
          "indexed": false,
          "internalType": "uint256",
          "name": "amount",
          "type": "uint256"
        }
      ],
      "name": "Withdraw",
      "type": "event"
    },
    {
      "inputs": [],
      "name": "boostedMultiplier",
      "outputs": [
        {
          "internalType": "uint256",
          "name": "",
          "type": "uint256"
        }
      ],
      "stateMutability": "view",
      "type": "function",
      "constant": true
    },
    {
      "inputs": [],
      "name": "devaddr",
      "outputs": [
        {
          "internalType": "address",
          "name": "",
          "type": "address"
        }
      ],
      "stateMutability": "view",
      "type": "function",
      "constant": true
    },
    {
      "inputs": [],
      "name": "endBlock",
      "outputs": [
        {
          "internalType": "uint256",
          "name": "",
          "type": "uint256"
        }
      ],
      "stateMutability": "view",
      "type": "function",
      "constant": true
    },
    {
      "inputs": [],
      "name": "gstringToken",
      "outputs": [
        {
          "internalType": "contract gStringToken",
          "name": "",
          "type": "address"
        }
      ],
      "stateMutability": "view",
      "type": "function",
      "constant": true
    },
    {
      "inputs": [],
      "name": "isBoosted",
      "outputs": [
        {
          "internalType": "bool",
          "name": "",
          "type": "bool"
        }
      ],
      "stateMutability": "view",
      "type": "function",
      "constant": true
    },
    {
      "inputs": [],
      "name": "lqtyToken",
      "outputs": [
        {
          "internalType": "contract ILQTYToken",
          "name": "",
          "type": "address"
        }
      ],
      "stateMutability": "view",
      "type": "function",
      "constant": true
    },
    {
      "inputs": [],
      "name": "owner",
      "outputs": [
        {
          "internalType": "address",
          "name": "",
          "type": "address"
        }
      ],
      "stateMutability": "view",
      "type": "function",
      "constant": true
    },
    {
      "inputs": [],
      "name": "pool",
      "outputs": [
        {
          "internalType": "contract IERC20",
          "name": "lpToken",
          "type": "address"
        },
        {
          "internalType": "uint256",
          "name": "lpTokenSupply",
          "type": "uint256"
        },
        {
          "internalType": "uint256",
          "name": "lastRewardBlock",
          "type": "uint256"
        },
        {
          "internalType": "uint256",
          "name": "accStringPerShare",
          "type": "uint256"
        },
        {
          "internalType": "uint256",
          "name": "accLQTYPerShare",
          "type": "uint256"
        }
      ],
      "stateMutability": "view",
      "type": "function",
      "constant": true
    },
    {
      "inputs": [],
      "name": "postBoostedBlock",
      "outputs": [
        {
          "internalType": "uint256",
          "name": "",
          "type": "uint256"
        }
      ],
      "stateMutability": "view",
      "type": "function",
      "constant": true
    },
    {
      "inputs": [],
      "name": "renounceOwnership",
      "outputs": [],
      "stateMutability": "nonpayable",
      "type": "function"
    },
    {
      "inputs": [],
      "name": "startBlock",
      "outputs": [
        {
          "internalType": "uint256",
          "name": "",
          "type": "uint256"
        }
      ],
      "stateMutability": "view",
      "type": "function",
      "constant": true
    },
    {
      "inputs": [],
      "name": "stringPerBlock",
      "outputs": [
        {
          "internalType": "uint256",
          "name": "",
          "type": "uint256"
        }
      ],
      "stateMutability": "view",
      "type": "function",
      "constant": true
    },
    {
      "inputs": [],
      "name": "stringToken",
      "outputs": [
        {
          "internalType": "contract StringToken",
          "name": "",
          "type": "address"
        }
      ],
      "stateMutability": "view",
      "type": "function",
      "constant": true
    },
    {
      "inputs": [],
      "name": "totalAllocPoint",
      "outputs": [
        {
          "internalType": "uint256",
          "name": "",
          "type": "uint256"
        }
      ],
      "stateMutability": "view",
      "type": "function",
      "constant": true
    },
    {
      "inputs": [
        {
          "internalType": "address",
          "name": "newOwner",
          "type": "address"
        }
      ],
      "name": "transferOwnership",
      "outputs": [],
      "stateMutability": "nonpayable",
      "type": "function"
    },
    {
      "inputs": [
        {
          "internalType": "address",
          "name": "",
          "type": "address"
        }
      ],
      "name": "userInfo",
      "outputs": [
        {
          "internalType": "uint256",
          "name": "amount",
          "type": "uint256"
        },
        {
          "internalType": "uint256",
          "name": "rewardDebt",
          "type": "uint256"
        },
        {
          "internalType": "uint256",
          "name": "lqtyRewardDebt",
          "type": "uint256"
        }
      ],
      "stateMutability": "view",
      "type": "function",
      "constant": true
    },
    {
      "inputs": [
        {
          "internalType": "uint256",
          "name": "_from",
          "type": "uint256"
        },
        {
          "internalType": "uint256",
          "name": "_to",
          "type": "uint256"
        }
      ],
      "name": "getMultiplier",
      "outputs": [
        {
          "internalType": "uint256",
          "name": "",
          "type": "uint256"
        }
      ],
      "stateMutability": "view",
      "type": "function",
      "constant": true
    },
    {
      "inputs": [
        {
          "internalType": "address",
          "name": "_user",
          "type": "address"
        }
      ],
      "name": "pendingString",
      "outputs": [
        {
          "internalType": "uint256",
          "name": "",
          "type": "uint256"
        }
      ],
      "stateMutability": "view",
      "type": "function",
      "constant": true
    },
    {
      "inputs": [],
      "name": "updatePool",
      "outputs": [],
      "stateMutability": "nonpayable",
      "type": "function"
    },
    {
      "inputs": [],
      "name": "updateSP",
      "outputs": [],
      "stateMutability": "nonpayable",
      "type": "function"
    },
    {
      "inputs": [
        {
          "internalType": "uint256",
          "name": "_amount",
          "type": "uint256"
        }
      ],
      "name": "deposit",
      "outputs": [],
      "stateMutability": "nonpayable",
      "type": "function"
    },
    {
      "inputs": [
        {
          "internalType": "uint256",
          "name": "_amount",
          "type": "uint256"
        }
      ],
      "name": "withdraw",
      "outputs": [],
      "stateMutability": "nonpayable",
      "type": "function"
    },
    {
      "inputs": [],
      "name": "emergencyWithdraw",
      "outputs": [],
      "stateMutability": "nonpayable",
      "type": "function"
    }
  ],
  "bytecode": "0x60806040526713ed551c3eac98006006556001600860006101000a81548160ff0219169083151502179055506000600f553480156200003d57600080fd5b5060405162002b6338038062002b63833981810160405260808110156200006357600080fd5b81019080805190602001909291908051906020019092919080519060200190929190805190602001909291905050506000620000a46200032f60201b60201c565b9050806000806101000a81548173ffffffffffffffffffffffffffffffffffffffff021916908373ffffffffffffffffffffffffffffffffffffffff1602179055508073ffffffffffffffffffffffffffffffffffffffff16600073ffffffffffffffffffffffffffffffffffffffff167f8be0079c531659141344cd1fd0a4f28419497f9722a3daafe3b4186f6b6457e060405160405180910390a35083600160006101000a81548173ffffffffffffffffffffffffffffffffffffffff021916908373ffffffffffffffffffffffffffffffffffffffff16021790555081600260006101000a81548173ffffffffffffffffffffffffffffffffffffffff021916908373ffffffffffffffffffffffffffffffffffffffff16021790555080600360006101000a81548173ffffffffffffffffffffffffffffffffffffffff021916908373ffffffffffffffffffffffffffffffffffffffff160217905550620002226225317c436200033760201b620019211790919060201c565b600581905550436010819055506200024983436200033760201b620019211790919060201c565b6007819055506040518060a00160405280600160009054906101000a900473ffffffffffffffffffffffffffffffffffffffff1673ffffffffffffffffffffffffffffffffffffffff16815260200160008152602001438152602001600081526020016000815250600960008201518160000160006101000a81548173ffffffffffffffffffffffffffffffffffffffff021916908373ffffffffffffffffffffffffffffffffffffffff1602179055506020820151816001015560408201518160020155606082015181600301556080820151816004015590505050505050620003c0565b600033905090565b600080828401905083811015620003b6576040517f08c379a000000000000000000000000000000000000000000000000000000000815260040180806020018281038252601b8152602001807f536166654d6174683a206164646974696f6e206f766572666c6f77000000000081525060200191505060405180910390fd5b8091505092915050565b61279380620003d06000396000f3fe608060405234801561001057600080fd5b506004361061014d5760003560e01c8063715018a6116100c3578063b6b55f251161007c578063b6b55f251461045e578063d49e77cd1461048c578063db2e21bc146104c0578063df5e8987146104ca578063e3161ddd146104fe578063f2fde38b146105085761014d565b8063715018a6146103765780638da5cb5b146103805780638dbb1e3a146103b45780639a45670314610400578063a60bdb2f1461040a578063b68975591461043e5761014d565b80631959a002116101155780631959a0021461021a5780631f7af3c3146102805780632e1a7d4d146102b4578063350bac34146102e257806348cd4cb11461030057806366bf9ae41461031e5761014d565b8063083c6323146101525780630b5f91fc146101705780630d483ae11461018e57806316f0115b146101ac57806317caf6f1146101fc575b600080fd5b61015a61054c565b6040518082815260200191505060405180910390f35b610178610552565b6040518082815260200191505060405180910390f35b610196610558565b6040518082815260200191505060405180910390f35b6101b461055d565b604051808673ffffffffffffffffffffffffffffffffffffffff1681526020018581526020018481526020018381526020018281526020019550505050505060405180910390f35b6102046105a1565b6040518082815260200191505060405180910390f35b61025c6004803603602081101561023057600080fd5b81019080803573ffffffffffffffffffffffffffffffffffffffff1690602001909291905050506105a7565b60405180848152602001838152602001828152602001935050505060405180910390f35b6102886105d1565b604051808273ffffffffffffffffffffffffffffffffffffffff16815260200191505060405180910390f35b6102e0600480360360208110156102ca57600080fd5b81019080803590602001909291905050506105f7565b005b6102ea6109c0565b6040518082815260200191505060405180910390f35b6103086109c6565b6040518082815260200191505060405180910390f35b6103606004803603602081101561033457600080fd5b81019080803573ffffffffffffffffffffffffffffffffffffffff1690602001909291905050506109cc565b6040518082815260200191505060405180910390f35b61037e610bf5565b005b610388610d62565b604051808273ffffffffffffffffffffffffffffffffffffffff16815260200191505060405180910390f35b6103ea600480360360408110156103ca57600080fd5b810190808035906020019092919080359060200190929190505050610d8b565b6040518082815260200191505060405180910390f35b610408610de0565b005b610412610f35565b604051808273ffffffffffffffffffffffffffffffffffffffff16815260200191505060405180910390f35b610446610f5b565b60405180821515815260200191505060405180910390f35b61048a6004803603602081101561047457600080fd5b8101908080359060200190929190505050610f6e565b005b610494611379565b604051808273ffffffffffffffffffffffffffffffffffffffff16815260200191505060405180910390f35b6104c861139f565b005b6104d261149f565b604051808273ffffffffffffffffffffffffffffffffffffffff16815260200191505060405180910390f35b6105066114c5565b005b61054a6004803603602081101561051e57600080fd5b81019080803573ffffffffffffffffffffffffffffffffffffffff16906020019092919050505061172f565b005b60055481565b60075481565b600581565b60098060000160009054906101000a900473ffffffffffffffffffffffffffffffffffffffff16908060010154908060020154908060030154908060040154905085565b600f5481565b600e6020528060005260406000206000915090508060000154908060010154908060020154905083565b600260009054906101000a900473ffffffffffffffffffffffffffffffffffffffff1681565b6000600e60003373ffffffffffffffffffffffffffffffffffffffff1673ffffffffffffffffffffffffffffffffffffffff168152602001908152602001600020905081816000015410156106b4576040517f08c379a00000000000000000000000000000000000000000000000000000000081526004018080602001828103825260128152602001807f77697468647261773a206e6f7420676f6f64000000000000000000000000000081525060200191505060405180910390fd5b6106bc6114c5565b6106c4610de0565b6000600360009054906101000a900473ffffffffffffffffffffffffffffffffffffffff1673ffffffffffffffffffffffffffffffffffffffff166370a08231336040518263ffffffff1660e01b8152600401808273ffffffffffffffffffffffffffffffffffffffff16815260200191505060206040518083038186803b15801561074f57600080fd5b505afa158015610763573d6000803e3d6000fd5b505050506040513d602081101561077957600080fd5b81019080805190602001909291905050509050600061079883836119a9565b905060006107a68484611a5b565b90506107b23383611ada565b6107bc3382611d53565b6000838611156107ce578390506107da565b8386116107d9578590505b5b6107f1818660000154611fcc90919063ffffffff16565b8560000181905550600360009054906101000a900473ffffffffffffffffffffffffffffffffffffffff1673ffffffffffffffffffffffffffffffffffffffff166379cc679033836040518363ffffffff1660e01b8152600401808373ffffffffffffffffffffffffffffffffffffffff16815260200182815260200192505050600060405180830381600087803b15801561088c57600080fd5b505af11580156108a0573d6000803e3d6000fd5b505050506108f43382600960000160009054906101000a900473ffffffffffffffffffffffffffffffffffffffff1673ffffffffffffffffffffffffffffffffffffffff1661204f9092919063ffffffff16565b61092764e8d4a5100061091960096003015488600001546120f190919063ffffffff16565b61217790919063ffffffff16565b856001018190555061096264e8d4a5100061095460096004015488600001546120f190919063ffffffff16565b61217790919063ffffffff16565b85600201819055503373ffffffffffffffffffffffffffffffffffffffff167f884edad9ce6fa2440d8a54cc123490eb96d2768479d49ff9c7366125a9424364876040518082815260200191505060405180910390a2505050505050565b60065481565b60105481565b600080600e60008473ffffffffffffffffffffffffffffffffffffffff1673ffffffffffffffffffffffffffffffffffffffff1681526020019081526020016000209050600060096003015490506000600960000160009054906101000a900473ffffffffffffffffffffffffffffffffffffffff1673ffffffffffffffffffffffffffffffffffffffff166370a08231306040518263ffffffff1660e01b8152600401808273ffffffffffffffffffffffffffffffffffffffff16815260200191505060206040518083038186803b158015610aa857600080fd5b505afa158015610abc573d6000803e3d6000fd5b505050506040513d6020811015610ad257600080fd5b8101908080519060200190929190505050905060096002015443118015610afa575060008114155b15610b6c576000610b1060096002015443610d8b565b90506000610b29600654836120f190919063ffffffff16565b9050610b67610b5884610b4a64e8d4a51000856120f190919063ffffffff16565b61217790919063ffffffff16565b8561192190919063ffffffff16565b935050505b6000610bb28460010154610ba464e8d4a51000610b968789600001546120f190919063ffffffff16565b61217790919063ffffffff16565b611fcc90919063ffffffff16565b9050600860009054906101000a900460ff1615610be857610bdd6005826120f190919063ffffffff16565b945050505050610bf0565b809450505050505b919050565b610bfd612200565b73ffffffffffffffffffffffffffffffffffffffff16610c1b610d62565b73ffffffffffffffffffffffffffffffffffffffff1614610ca4576040517f08c379a00000000000000000000000000000000000000000000000000000000081526004018080602001828103825260208152602001807f4f776e61626c653a2063616c6c6572206973206e6f7420746865206f776e657281525060200191505060405180910390fd5b600073ffffffffffffffffffffffffffffffffffffffff1660008054906101000a900473ffffffffffffffffffffffffffffffffffffffff1673ffffffffffffffffffffffffffffffffffffffff167f8be0079c531659141344cd1fd0a4f28419497f9722a3daafe3b4186f6b6457e060405160405180910390a360008060006101000a81548173ffffffffffffffffffffffffffffffffffffffff021916908373ffffffffffffffffffffffffffffffffffffffff160217905550565b60008060009054906101000a900473ffffffffffffffffffffffffffffffffffffffff16905090565b60006005548211610db057610da98383611fcc90919063ffffffff16565b9050610dda565b6005548310610dc25760009050610dda565b610dd783600554611fcc90919063ffffffff16565b90505b92915050565b6009600201544311610df157610f33565b600060096001015490506000811415610e0a5750610f33565b6000600260009054906101000a900473ffffffffffffffffffffffffffffffffffffffff1673ffffffffffffffffffffffffffffffffffffffff166370a08231306040518263ffffffff1660e01b8152600401808273ffffffffffffffffffffffffffffffffffffffff16815260200191505060206040518083038186803b158015610e9557600080fd5b505afa158015610ea9573d6000803e3d6000fd5b505050506040513d6020811015610ebf57600080fd5b810190808051906020019092919050505090506000811115610f2657610f1c610f0883610efa64e8d4a51000856120f190919063ffffffff16565b61217790919063ffffffff16565b60096004015461192190919063ffffffff16565b6009600401819055505b4360096002018190555050505b565b600360009054906101000a900473ffffffffffffffffffffffffffffffffffffffff1681565b600860009054906101000a900460ff1681565b6000600e60003373ffffffffffffffffffffffffffffffffffffffff1673ffffffffffffffffffffffffffffffffffffffff1681526020019081526020016000209050610fb96114c5565b610fc1610de0565b6000600360009054906101000a900473ffffffffffffffffffffffffffffffffffffffff1673ffffffffffffffffffffffffffffffffffffffff166370a08231336040518263ffffffff1660e01b8152600401808273ffffffffffffffffffffffffffffffffffffffff16815260200191505060206040518083038186803b15801561104c57600080fd5b505afa158015611060573d6000803e3d6000fd5b505050506040513d602081101561107657600080fd5b810190808051906020019092919050505090506000826000015411156110c95760006110a283836119a9565b905060006110b08484611a5b565b90506110bc3383611ada565b6110c63382611d53565b50505b61111b333085600960000160009054906101000a900473ffffffffffffffffffffffffffffffffffffffff1673ffffffffffffffffffffffffffffffffffffffff16612208909392919063ffffffff16565b60006111326103e88561217790919063ffffffff16565b905060006111498286611fcc90919063ffffffff16565b905061116281856000015461192190919063ffffffff16565b84600001819055506111828160096001015461192190919063ffffffff16565b6009600101819055506000836111a5838760000154611fcc90919063ffffffff16565b11156111db576111d4846111c6848860000154611fcc90919063ffffffff16565b61192190919063ffffffff16565b9050611201565b836111f3838760000154611fcc90919063ffffffff16565b1161120057846000015490505b5b61123064e8d4a51000611222600960030154846120f190919063ffffffff16565b61217790919063ffffffff16565b856001018190555061126764e8d4a51000611259600960040154846120f190919063ffffffff16565b61217790919063ffffffff16565b8560020181905550611278836122c9565b600360009054906101000a900473ffffffffffffffffffffffffffffffffffffffff1673ffffffffffffffffffffffffffffffffffffffff1663449a52f833846040518363ffffffff1660e01b8152600401808373ffffffffffffffffffffffffffffffffffffffff16815260200182815260200192505050600060405180830381600087803b15801561130b57600080fd5b505af115801561131f573d6000803e3d6000fd5b505050503373ffffffffffffffffffffffffffffffffffffffff167fe1fffcc4923d04b559f4d29a8bfc6cda04eb5b0d3c460751c2402c5c5cc9109c876040518082815260200191505060405180910390a2505050505050565b600460009054906101000a900473ffffffffffffffffffffffffffffffffffffffff1681565b6000600e60003373ffffffffffffffffffffffffffffffffffffffff1673ffffffffffffffffffffffffffffffffffffffff1681526020019081526020016000209050611436338260000154600960000160009054906101000a900473ffffffffffffffffffffffffffffffffffffffff1673ffffffffffffffffffffffffffffffffffffffff1661204f9092919063ffffffff16565b3373ffffffffffffffffffffffffffffffffffffffff167f5fafa99d0643513820be26656b45130b01e1c03062e1266bf36f88cbd3bd969582600001546040518082815260200191505060405180910390a2600081600001819055506000816001018190555050565b600160009054906101000a900473ffffffffffffffffffffffffffffffffffffffff1681565b60096002015443116114d65761172d565b6000600960010154905060008114156114f957436009600201819055505061172d565b600061150a60096002015443610d8b565b90506000611523600654836120f190919063ffffffff16565b90506007544310156115f85760006115456005836120f190919063ffffffff16565b9050600160009054906101000a900473ffffffffffffffffffffffffffffffffffffffff1673ffffffffffffffffffffffffffffffffffffffff1663449a52f830836040518363ffffffff1660e01b8152600401808373ffffffffffffffffffffffffffffffffffffffff16815260200182815260200192505050600060405180830381600087803b1580156115da57600080fd5b505af11580156115ee573d6000803e3d6000fd5b50505050506116d5565b600860009054906101000a900460ff1615611629576000600860006101000a81548160ff0219169083151502179055505b600160009054906101000a900473ffffffffffffffffffffffffffffffffffffffff1673ffffffffffffffffffffffffffffffffffffffff1663449a52f830836040518363ffffffff1660e01b8152600401808373ffffffffffffffffffffffffffffffffffffffff16815260200182815260200192505050600060405180830381600087803b1580156116bc57600080fd5b505af11580156116d0573d6000803e3d6000fd5b505050505b611716611702846116f464e8d4a51000856120f190919063ffffffff16565b61217790919063ffffffff16565b60096003015461192190919063ffffffff16565b600960030181905550436009600201819055505050505b565b611737612200565b73ffffffffffffffffffffffffffffffffffffffff16611755610d62565b73ffffffffffffffffffffffffffffffffffffffff16146117de576040517f08c379a00000000000000000000000000000000000000000000000000000000081526004018080602001828103825260208152602001807f4f776e61626c653a2063616c6c6572206973206e6f7420746865206f776e657281525060200191505060405180910390fd5b600073ffffffffffffffffffffffffffffffffffffffff168173ffffffffffffffffffffffffffffffffffffffff161415611864576040517f08c379a00000000000000000000000000000000000000000000000000000000081526004018080602001828103825260268152602001806126c76026913960400191505060405180910390fd5b8073ffffffffffffffffffffffffffffffffffffffff1660008054906101000a900473ffffffffffffffffffffffffffffffffffffffff1673ffffffffffffffffffffffffffffffffffffffff167f8be0079c531659141344cd1fd0a4f28419497f9722a3daafe3b4186f6b6457e060405160405180910390a3806000806101000a81548173ffffffffffffffffffffffffffffffffffffffff021916908373ffffffffffffffffffffffffffffffffffffffff16021790555050565b60008082840190508381101561199f576040517f08c379a000000000000000000000000000000000000000000000000000000000815260040180806020018281038252601b8152602001807f536166654d6174683a206164646974696f6e206f766572666c6f77000000000081525060200191505060405180910390fd5b8091505092915050565b60008082846000015411156119c0578290506119d4565b828460000154116119d357836000015490505b5b6000611a1b8560010154611a0d64e8d4a510006119ff600960030154876120f190919063ffffffff16565b61217790919063ffffffff16565b611fcc90919063ffffffff16565b9050600860009054906101000a900460ff1615611a4f57611a466005826120f190919063ffffffff16565b92505050611a55565b80925050505b92915050565b6000808284600001541115611a7257829050611a86565b82846000015411611a8557836000015490505b5b6000611acd8560020154611abf64e8d4a51000611ab1600960040154876120f190919063ffffffff16565b61217790919063ffffffff16565b611fcc90919063ffffffff16565b9050809250505092915050565b6000600160009054906101000a900473ffffffffffffffffffffffffffffffffffffffff1673ffffffffffffffffffffffffffffffffffffffff166370a08231306040518263ffffffff1660e01b8152600401808273ffffffffffffffffffffffffffffffffffffffff16815260200191505060206040518083038186803b158015611b6557600080fd5b505afa158015611b79573d6000803e3d6000fd5b505050506040513d6020811015611b8f57600080fd5b8101908080519060200190929190505050905080821115611c7e57600160009054906101000a900473ffffffffffffffffffffffffffffffffffffffff1673ffffffffffffffffffffffffffffffffffffffff1663a9059cbb84836040518363ffffffff1660e01b8152600401808373ffffffffffffffffffffffffffffffffffffffff16815260200182815260200192505050602060405180830381600087803b158015611c3d57600080fd5b505af1158015611c51573d6000803e3d6000fd5b505050506040513d6020811015611c6757600080fd5b810190808051906020019092919050505050611d4e565b600160009054906101000a900473ffffffffffffffffffffffffffffffffffffffff1673ffffffffffffffffffffffffffffffffffffffff1663a9059cbb84846040518363ffffffff1660e01b8152600401808373ffffffffffffffffffffffffffffffffffffffff16815260200182815260200192505050602060405180830381600087803b158015611d1157600080fd5b505af1158015611d25573d6000803e3d6000fd5b505050506040513d6020811015611d3b57600080fd5b8101908080519060200190929190505050505b505050565b6000600260009054906101000a900473ffffffffffffffffffffffffffffffffffffffff1673ffffffffffffffffffffffffffffffffffffffff166370a08231306040518263ffffffff1660e01b8152600401808273ffffffffffffffffffffffffffffffffffffffff16815260200191505060206040518083038186803b158015611dde57600080fd5b505afa158015611df2573d6000803e3d6000fd5b505050506040513d6020811015611e0857600080fd5b8101908080519060200190929190505050905080821115611ef757600260009054906101000a900473ffffffffffffffffffffffffffffffffffffffff1673ffffffffffffffffffffffffffffffffffffffff1663a9059cbb84836040518363ffffffff1660e01b8152600401808373ffffffffffffffffffffffffffffffffffffffff16815260200182815260200192505050602060405180830381600087803b158015611eb657600080fd5b505af1158015611eca573d6000803e3d6000fd5b505050506040513d6020811015611ee057600080fd5b810190808051906020019092919050505050611fc7565b600260009054906101000a900473ffffffffffffffffffffffffffffffffffffffff1673ffffffffffffffffffffffffffffffffffffffff1663a9059cbb84846040518363ffffffff1660e01b8152600401808373ffffffffffffffffffffffffffffffffffffffff16815260200182815260200192505050602060405180830381600087803b158015611f8a57600080fd5b505af1158015611f9e573d6000803e3d6000fd5b505050506040513d6020811015611fb457600080fd5b8101908080519060200190929190505050505b505050565b600082821115612044576040517f08c379a000000000000000000000000000000000000000000000000000000000815260040180806020018281038252601e8152602001807f536166654d6174683a207375627472616374696f6e206f766572666c6f77000081525060200191505060405180910390fd5b818303905092915050565b6120ec8363a9059cbb60e01b8484604051602401808373ffffffffffffffffffffffffffffffffffffffff16815260200182815260200192505050604051602081830303815290604052907bffffffffffffffffffffffffffffffffffffffffffffffffffffffff19166020820180517bffffffffffffffffffffffffffffffffffffffffffffffffffffffff8381831617835250505050612321565b505050565b6000808314156121045760009050612171565b600082840290508284828161211557fe5b041461216c576040517f08c379a00000000000000000000000000000000000000000000000000000000081526004018080602001828103825260218152602001806127136021913960400191505060405180910390fd5b809150505b92915050565b60008082116121ee576040517f08c379a000000000000000000000000000000000000000000000000000000000815260040180806020018281038252601a8152602001807f536166654d6174683a206469766973696f6e206279207a65726f00000000000081525060200191505060405180910390fd5b8183816121f757fe5b04905092915050565b600033905090565b6122c3846323b872dd60e01b858585604051602401808473ffffffffffffffffffffffffffffffffffffffff1681526020018373ffffffffffffffffffffffffffffffffffffffff1681526020018281526020019350505050604051602081830303815290604052907bffffffffffffffffffffffffffffffffffffffffffffffffffffffff19166020820180517bffffffffffffffffffffffffffffffffffffffffffffffffffffffff8381831617835250505050612321565b50505050565b60006009600101549050612314612300826122f264e8d4a51000866120f190919063ffffffff16565b61217790919063ffffffff16565b60096003015461192190919063ffffffff16565b6009600301819055505050565b6000612383826040518060400160405280602081526020017f5361666545524332303a206c6f772d6c6576656c2063616c6c206661696c65648152508573ffffffffffffffffffffffffffffffffffffffff166124109092919063ffffffff16565b905060008151111561240b578080602001905160208110156123a457600080fd5b810190808051906020019092919050505061240a576040517f08c379a000000000000000000000000000000000000000000000000000000000815260040180806020018281038252602a815260200180612734602a913960400191505060405180910390fd5b5b505050565b606061241f8484600085612428565b90509392505050565b6060823073ffffffffffffffffffffffffffffffffffffffff1631101561249a576040517f08c379a00000000000000000000000000000000000000000000000000000000081526004018080602001828103825260268152602001806126ed6026913960400191505060405180910390fd5b6124a3856125e7565b612515576040517f08c379a000000000000000000000000000000000000000000000000000000000815260040180806020018281038252601d8152602001807f416464726573733a2063616c6c20746f206e6f6e2d636f6e747261637400000081525060200191505060405180910390fd5b6000808673ffffffffffffffffffffffffffffffffffffffff1685876040518082805190602001908083835b602083106125645780518252602082019150602081019050602083039250612541565b6001836020036101000a03801982511681845116808217855250505050505090500191505060006040518083038185875af1925050503d80600081146125c6576040519150601f19603f3d011682016040523d82523d6000602084013e6125cb565b606091505b50915091506125db8282866125fa565b92505050949350505050565b600080823b905060008111915050919050565b6060831561260a578290506126bf565b60008351111561261d5782518084602001fd5b816040517f08c379a00000000000000000000000000000000000000000000000000000000081526004018080602001828103825283818151815260200191508051906020019080838360005b83811015612684578082015181840152602081019050612669565b50505050905090810190601f1680156126b15780820380516001836020036101000a031916815260200191505b509250505060405180910390fd5b939250505056fe4f776e61626c653a206e6577206f776e657220697320746865207a65726f2061646472657373416464726573733a20696e73756666696369656e742062616c616e636520666f722063616c6c536166654d6174683a206d756c7469706c69636174696f6e206f766572666c6f775361666545524332303a204552433230206f7065726174696f6e20646964206e6f742073756363656564a26469706673582212202c772528e1f60cecf855743307108b08317b700343af7c305dc9980f2d76fef664736f6c63430007060033",
  "immutableReferences": {},
  "source": "// SPDX-License-Identifier: MIT\r\npragma solidity >=0.6.0 <0.8.0;\r\nimport \"@openzeppelin/contracts/access/Ownable.sol\";\r\nimport \"@openzeppelin/contracts/math/SafeMath.sol\";\r\nimport \"@openzeppelin/contracts/token/ERC20/IERC20.sol\";\r\nimport \"@openzeppelin/contracts/token/ERC20/SafeERC20.sol\";\r\nimport \"./StringToken.sol\";\r\n// import \"./ILQTYToken.sol\";\r\nimport \"./Interfaces/ILQTYToken.sol\";\r\nimport \"./gStringToken.sol\";\r\n\r\ncontract StringStaking is Ownable {\r\n    using SafeMath for uint256;\r\n    using SafeERC20 for IERC20;\r\n\r\n    // Info of each user.\r\n    struct UserInfo {\r\n        uint256 amount; // How many LP tokens the user has provided.\r\n        uint256 rewardDebt; // Reward debt. See explanation below.\r\n        uint256 lqtyRewardDebt;\r\n        //\r\n        // We do some fancy math here. Basically, any point in time, the amount of SUSHIs\r\n        // entitled to a user but is pending to be distributed is:\r\n        //\r\n        //   pending reward = (user.amount * pool.accstringPerShare) - user.rewardDebt\r\n        //\r\n        // Whenever a user deposits or withdraws LP tokens to a pool. Here's what happens:\r\n        //   1. The pool's `accStringPerShare` (and `lastRewardBlock`) gets updated.\r\n        //   2. User receives the pending reward sent to his/her address.\r\n        //   3. User's `amount` gets updated.\r\n        //   4. User's `rewardDebt` gets updated.\r\n    }\r\n\r\n    // Info of each pool.\r\n    struct PoolInfo {\r\n        IERC20 lpToken; // Address of LP token contract.\r\n        uint256 lpTokenSupply;\r\n        uint256 lastRewardBlock; // Last block number that SUSHIs distribution occurs.\r\n        uint256 accStringPerShare; // Accumulated SUSHIs per share, times 1e12. See below.\r\n        uint256 accLQTYPerShare;\r\n    }\r\n\r\n    // The SUSHI TOKEN!\r\n    StringToken public stringToken;\r\n    ILQTYToken public lqtyToken;\r\n    gStringToken public gstringToken;\r\n    // Dev address.\r\n    address public devaddr;\r\n    // Block number when bonus SUSHI period ends.\r\n    uint256 public endBlock;\r\n    // SUSHI tokens created per block.\r\n    uint256 public stringPerBlock = 1435897436000000000;\r\n    uint256 public postBoostedBlock;\r\n    uint256 public constant boostedMultiplier = 5;\r\n    bool public isBoosted = true;\r\n\r\n    // Info of each pool.\r\n    PoolInfo public pool;\r\n    // Info of each user that stakes LP tokens.\r\n    mapping(address => UserInfo) public userInfo;\r\n    // Total allocation poitns. Must be the sum of all allocation points in all pools.\r\n    uint256 public totalAllocPoint = 0;\r\n    // The block number when SUSHI mining starts.\r\n    uint256 public startBlock;\r\n\r\n    event Deposit(address indexed user, uint256 amount);\r\n    event Withdraw(address indexed user, uint256 amount);\r\n    event EmergencyWithdraw(address indexed user, uint256 amount);\r\n\r\n    constructor(\r\n        StringToken _string,\r\n        uint256 _boostedBuffer,\r\n        ILQTYToken _lqty,\r\n        gStringToken _gstringToken\r\n    ) {\r\n        stringToken = _string;\r\n        lqtyToken = _lqty;\r\n        gstringToken = _gstringToken;\r\n        endBlock = block.number.add(2437500);\r\n        startBlock = block.number;\r\n        postBoostedBlock = block.number.add(_boostedBuffer);\r\n\r\n        pool = PoolInfo({\r\n            lpToken: stringToken,\r\n            lpTokenSupply: 0,\r\n            lastRewardBlock: block.number,\r\n            accStringPerShare: 0,\r\n            accLQTYPerShare: 0\r\n        });\r\n    }\r\n\r\n    // Return reward multiplier over the given _from to _to block.\r\n    function getMultiplier(uint256 _from, uint256 _to)\r\n        public\r\n        view\r\n        returns (uint256)\r\n    {\r\n        if (_to <= endBlock) {\r\n            return _to.sub(_from);\r\n        } else if (_from >= endBlock) {\r\n            return 0;\r\n        } else {\r\n            return endBlock.sub(_from);\r\n        }\r\n    }\r\n\r\n    // View function to see pending SUSHIs on frontend.\r\n    function pendingString(address _user) external view returns (uint256) {\r\n        UserInfo storage user = userInfo[_user];\r\n        uint256 accStringPerShare = pool.accStringPerShare;\r\n        uint256 lpSupply = pool.lpToken.balanceOf(address(this));\r\n        if (block.number > pool.lastRewardBlock && lpSupply != 0) {\r\n            uint256 multiplier =\r\n                getMultiplier(pool.lastRewardBlock, block.number);\r\n            uint256 stringReward = multiplier.mul(stringPerBlock);\r\n            accStringPerShare = accStringPerShare.add(\r\n                stringReward.mul(1e12).div(lpSupply)\r\n            );\r\n        }\r\n        uint256 pending =\r\n            user.amount.mul(accStringPerShare).div(1e12).sub(user.rewardDebt);\r\n\r\n        if (isBoosted) {\r\n            return pending.mul(boostedMultiplier);\r\n        } else {\r\n            return pending;\r\n        }\r\n    }\r\n\r\n    // Update reward variables of the given pool to be up-to-date.\r\n    function updatePool() public {\r\n        if (block.number <= pool.lastRewardBlock) {\r\n            return;\r\n        }\r\n        uint256 lpSupply = pool.lpTokenSupply;\r\n        if (lpSupply == 0) {\r\n            pool.lastRewardBlock = block.number;\r\n            return;\r\n        }\r\n        uint256 multiplier = getMultiplier(pool.lastRewardBlock, block.number);\r\n        uint256 stringReward = multiplier.mul(stringPerBlock);\r\n        if (block.number < postBoostedBlock) {\r\n            uint256 boostedReward = stringReward.mul(boostedMultiplier);\r\n            stringToken.mintTo(address(this), boostedReward);\r\n        } else {\r\n            if (isBoosted) {\r\n                isBoosted = false;\r\n            }\r\n            stringToken.mintTo(address(this), stringReward);\r\n        }\r\n\r\n        pool.accStringPerShare = pool.accStringPerShare.add(\r\n            stringReward.mul(1e12).div(lpSupply)\r\n        );\r\n        pool.lastRewardBlock = block.number;\r\n    }\r\n\r\n    function updateSP() public {\r\n        if (block.number <= pool.lastRewardBlock) {\r\n            return;\r\n        }\r\n        uint256 lpSupply = pool.lpTokenSupply;\r\n\r\n        if (lpSupply == 0) {\r\n            return;\r\n        }\r\n\r\n        uint256 lqtyAvailableRewards = lqtyToken.balanceOf(address(this));\r\n\r\n        if (lqtyAvailableRewards > 0) {\r\n            pool.accLQTYPerShare = pool.accLQTYPerShare.add(\r\n                lqtyAvailableRewards.mul(1e12).div(lpSupply)\r\n            );\r\n        }\r\n        pool.lastRewardBlock = block.number;\r\n    }\r\n\r\n    function updateForFee(uint256 _fee) internal {\r\n        uint256 lpSupply = pool.lpTokenSupply;\r\n        pool.accStringPerShare = pool.accStringPerShare.add(\r\n            _fee.mul(1e12).div(lpSupply)\r\n        );\r\n    }\r\n\r\n    // Deposit LP tokens to MasterChef for SUSHI allocation.\r\n    function deposit(uint256 _amount) public {\r\n        UserInfo storage user = userInfo[msg.sender];\r\n        updatePool();\r\n        updateSP();\r\n        uint256 cNotes = gstringToken.balanceOf(msg.sender);\r\n        if (user.amount > 0) {\r\n            uint256 pending = _pending(user, cNotes);\r\n            uint256 pendingLQTY = _pendingLQTY(user, cNotes);\r\n            safeStringTransfer(msg.sender, pending);\r\n            safeLQTYTransfer(msg.sender, pendingLQTY);\r\n        }\r\n        pool.lpToken.safeTransferFrom(\r\n            address(msg.sender),\r\n            address(this),\r\n            _amount\r\n        );\r\n        uint256 fee = _amount.div(1000);\r\n        uint256 depositAmount = _amount.sub(fee);\r\n        user.amount = user.amount.add(depositAmount);\r\n        pool.lpTokenSupply = pool.lpTokenSupply.add(depositAmount);\r\n\r\n        uint256 debtAmount;\r\n\r\n        if (user.amount.sub(depositAmount) > cNotes) {\r\n            debtAmount = user.amount.sub(depositAmount).add(cNotes);\r\n        } else if (user.amount.sub(depositAmount) <= cNotes) {\r\n            debtAmount = user.amount;\r\n        }\r\n\r\n        user.rewardDebt = debtAmount.mul(pool.accStringPerShare).div(1e12);\r\n        user.lqtyRewardDebt = debtAmount.mul(pool.accLQTYPerShare).div(1e12);\r\n        updateForFee(fee);\r\n        gstringToken.mintTo(msg.sender, depositAmount);\r\n        emit Deposit(msg.sender, _amount);\r\n    }\r\n\r\n    // Withdraw LP tokens from MasterChef.\r\n    function withdraw(uint256 _amount) public {\r\n        UserInfo storage user = userInfo[msg.sender];\r\n        require(user.amount >= _amount, \"withdraw: not good\");\r\n        updatePool();\r\n        updateSP();\r\n        uint256 cNotes = gstringToken.balanceOf(msg.sender);\r\n        uint256 pending = _pending(user, cNotes);\r\n        uint256 pendingLQTY = _pendingLQTY(user, cNotes);\r\n        safeStringTransfer(msg.sender, pending);\r\n        safeLQTYTransfer(msg.sender, pendingLQTY);\r\n\r\n        uint256 redeemAmount;\r\n\r\n        if (_amount > cNotes) {\r\n            redeemAmount = cNotes;\r\n        } else if (_amount <= cNotes) {\r\n            redeemAmount = _amount;\r\n        }\r\n\r\n        user.amount = user.amount.sub(redeemAmount);\r\n        gstringToken.burnFrom(msg.sender, redeemAmount);\r\n        pool.lpToken.safeTransfer(address(msg.sender), redeemAmount);\r\n        user.rewardDebt = user.amount.mul(pool.accStringPerShare).div(1e12);\r\n        user.lqtyRewardDebt = user.amount.mul(pool.accLQTYPerShare).div(1e12);\r\n        emit Withdraw(msg.sender, _amount);\r\n    }\r\n\r\n    // Withdraw without caring about rewards. EMERGENCY ONLY.\r\n    function emergencyWithdraw() public {\r\n        UserInfo storage user = userInfo[msg.sender];\r\n        pool.lpToken.safeTransfer(address(msg.sender), user.amount);\r\n        emit EmergencyWithdraw(msg.sender, user.amount);\r\n        user.amount = 0;\r\n        user.rewardDebt = 0;\r\n    }\r\n\r\n    // Safe sushi transfer function, just in case if rounding error causes pool to not have enough SUSHIs.\r\n    function safeStringTransfer(address _to, uint256 _amount) internal {\r\n        uint256 stringBal = stringToken.balanceOf(address(this));\r\n        if (_amount > stringBal) {\r\n            stringToken.transfer(_to, stringBal);\r\n        } else {\r\n            stringToken.transfer(_to, _amount);\r\n        }\r\n    }\r\n\r\n    function safeLQTYTransfer(address _to, uint256 _amount) internal {\r\n        uint256 lqtyBal = lqtyToken.balanceOf(address(this));\r\n        if (_amount > lqtyBal) {\r\n            lqtyToken.transfer(_to, lqtyBal);\r\n        } else {\r\n            lqtyToken.transfer(_to, _amount);\r\n        }\r\n    }\r\n\r\n    function _pending(UserInfo storage _user, uint256 _cNotes)\r\n        internal\r\n        view\r\n        returns (uint256)\r\n    {\r\n        uint256 amount;\r\n\r\n        if (_user.amount > _cNotes) {\r\n            amount = _cNotes;\r\n        } else if (_user.amount <= _cNotes) {\r\n            amount = _user.amount;\r\n        }\r\n        uint256 rewardsToSend =\r\n            amount.mul(pool.accStringPerShare).div(1e12).sub(_user.rewardDebt);\r\n        if (isBoosted) {\r\n            return rewardsToSend.mul(boostedMultiplier);\r\n        }\r\n        return rewardsToSend;\r\n    }\r\n\r\n    function _pendingLQTY(UserInfo storage _user, uint256 _cNotes)\r\n        internal\r\n        view\r\n        returns (uint256)\r\n    {\r\n        uint256 amount;\r\n\r\n        if (_user.amount > _cNotes) {\r\n            amount = _cNotes;\r\n        } else if (_user.amount <= _cNotes) {\r\n            amount = _user.amount;\r\n        }\r\n        uint256 lqtyRewardsToSend =\r\n            amount.mul(pool.accLQTYPerShare).div(1e12).sub(\r\n                _user.lqtyRewardDebt\r\n            );\r\n        return lqtyRewardsToSend;\r\n    }\r\n}\r\n",
  "sourcePath": "C:/Users/danie/code/harp/client/src/contracts/StringStaking.sol",
  "compiler": {
    "name": "solc",
    "version": "0.7.6+commit.7338295f.Emscripten.clang"
  },
  "schemaVersion": "3.3.3",
  "updatedAt": "2021-02-20T20:44:53.199Z",
  "networkType": "ethereum",
  "devdoc": {
    "kind": "dev",
    "methods": {
      "owner()": {
        "details": "Returns the address of the current owner."
      },
      "renounceOwnership()": {
        "details": "Leaves the contract without owner. It will not be possible to call `onlyOwner` functions anymore. Can only be called by the current owner. NOTE: Renouncing ownership will leave the contract without an owner, thereby removing any functionality that is only available to the owner."
      },
      "transferOwnership(address)": {
        "details": "Transfers ownership of the contract to a new account (`newOwner`). Can only be called by the current owner."
      }
    },
    "version": 1
  },
  "userdoc": {
    "kind": "user",
    "methods": {},
    "version": 1
  }
}