{
  "contractName": "StringStaking",
  "abi": [
    {
      "inputs": [
        {
          "internalType": "contract StringToken",
          "name": "_string",
          "type": "address"
        },
        {
          "internalType": "uint256",
          "name": "_boostedBuffer",
          "type": "uint256"
        },
        {
          "internalType": "contract ILQTYToken",
          "name": "_lqty",
          "type": "address"
        },
        {
          "internalType": "contract gStringToken",
          "name": "_gstringToken",
          "type": "address"
        },
        {
          "internalType": "contract IStabilityPool",
          "name": "_stabilityPool",
          "type": "address"
        }
      ],
      "stateMutability": "nonpayable",
      "type": "constructor"
    },
    {
      "anonymous": false,
      "inputs": [
        {
          "indexed": true,
          "internalType": "address",
          "name": "who",
          "type": "address"
        },
        {
          "indexed": false,
          "internalType": "uint256",
          "name": "amountClaimed",
          "type": "uint256"
        },
        {
          "indexed": false,
          "internalType": "uint256",
          "name": "seconAmountClaimed",
          "type": "uint256"
        }
      ],
      "name": "Claim",
      "type": "event"
    },
    {
      "anonymous": false,
      "inputs": [
        {
          "indexed": true,
          "internalType": "address",
          "name": "user",
          "type": "address"
        },
        {
          "indexed": false,
          "internalType": "uint256",
          "name": "amount",
          "type": "uint256"
        }
      ],
      "name": "Deposit",
      "type": "event"
    },
    {
      "anonymous": false,
      "inputs": [
        {
          "indexed": true,
          "internalType": "address",
          "name": "user",
          "type": "address"
        },
        {
          "indexed": false,
          "internalType": "uint256",
          "name": "amount",
          "type": "uint256"
        }
      ],
      "name": "EmergencyWithdraw",
      "type": "event"
    },
    {
      "anonymous": false,
      "inputs": [
        {
          "indexed": true,
          "internalType": "address",
          "name": "previousOwner",
          "type": "address"
        },
        {
          "indexed": true,
          "internalType": "address",
          "name": "newOwner",
          "type": "address"
        }
      ],
      "name": "OwnershipTransferred",
      "type": "event"
    },
    {
      "anonymous": false,
      "inputs": [
        {
          "indexed": true,
          "internalType": "address",
          "name": "user",
          "type": "address"
        },
        {
          "indexed": false,
          "internalType": "uint256",
          "name": "amount",
          "type": "uint256"
        }
      ],
      "name": "Withdraw",
      "type": "event"
    },
    {
      "inputs": [],
      "name": "boostedMultiplier",
      "outputs": [
        {
          "internalType": "uint256",
          "name": "",
          "type": "uint256"
        }
      ],
      "stateMutability": "view",
      "type": "function",
      "constant": true
    },
    {
      "inputs": [],
      "name": "creator",
      "outputs": [
        {
          "internalType": "address",
          "name": "",
          "type": "address"
        }
      ],
      "stateMutability": "view",
      "type": "function",
      "constant": true
    },
    {
      "inputs": [],
      "name": "devaddr",
      "outputs": [
        {
          "internalType": "address",
          "name": "",
          "type": "address"
        }
      ],
      "stateMutability": "view",
      "type": "function",
      "constant": true
    },
    {
      "inputs": [],
      "name": "endBlock",
      "outputs": [
        {
          "internalType": "uint256",
          "name": "",
          "type": "uint256"
        }
      ],
      "stateMutability": "view",
      "type": "function",
      "constant": true
    },
    {
      "inputs": [],
      "name": "gstringToken",
      "outputs": [
        {
          "internalType": "contract gStringToken",
          "name": "",
          "type": "address"
        }
      ],
      "stateMutability": "view",
      "type": "function",
      "constant": true
    },
    {
      "inputs": [],
      "name": "isBoosted",
      "outputs": [
        {
          "internalType": "bool",
          "name": "",
          "type": "bool"
        }
      ],
      "stateMutability": "view",
      "type": "function",
      "constant": true
    },
    {
      "inputs": [],
      "name": "lastLQTYRewards",
      "outputs": [
        {
          "internalType": "uint256",
          "name": "",
          "type": "uint256"
        }
      ],
      "stateMutability": "view",
      "type": "function",
      "constant": true
    },
    {
      "inputs": [],
      "name": "lqtyToken",
      "outputs": [
        {
          "internalType": "contract ILQTYToken",
          "name": "",
          "type": "address"
        }
      ],
      "stateMutability": "view",
      "type": "function",
      "constant": true
    },
    {
      "inputs": [],
      "name": "owner",
      "outputs": [
        {
          "internalType": "address",
          "name": "",
          "type": "address"
        }
      ],
      "stateMutability": "view",
      "type": "function",
      "constant": true
    },
    {
      "inputs": [],
      "name": "pool",
      "outputs": [
        {
          "internalType": "contract IERC20",
          "name": "lpToken",
          "type": "address"
        },
        {
          "internalType": "uint256",
          "name": "lpTokenSupply",
          "type": "uint256"
        },
        {
          "internalType": "uint256",
          "name": "lastRewardBlock",
          "type": "uint256"
        },
        {
          "internalType": "uint256",
          "name": "accStringPerShare",
          "type": "uint256"
        },
        {
          "internalType": "uint256",
          "name": "accLQTYPerShare",
          "type": "uint256"
        }
      ],
      "stateMutability": "view",
      "type": "function",
      "constant": true
    },
    {
      "inputs": [],
      "name": "postBoostedBlock",
      "outputs": [
        {
          "internalType": "uint256",
          "name": "",
          "type": "uint256"
        }
      ],
      "stateMutability": "view",
      "type": "function",
      "constant": true
    },
    {
      "inputs": [],
      "name": "registered",
      "outputs": [
        {
          "internalType": "bool",
          "name": "",
          "type": "bool"
        }
      ],
      "stateMutability": "view",
      "type": "function",
      "constant": true
    },
    {
      "inputs": [],
      "name": "renounceOwnership",
      "outputs": [],
      "stateMutability": "nonpayable",
      "type": "function"
    },
    {
      "inputs": [],
      "name": "stabilityPool",
      "outputs": [
        {
          "internalType": "contract IStabilityPool",
          "name": "",
          "type": "address"
        }
      ],
      "stateMutability": "view",
      "type": "function",
      "constant": true
    },
    {
      "inputs": [],
      "name": "startBlock",
      "outputs": [
        {
          "internalType": "uint256",
          "name": "",
          "type": "uint256"
        }
      ],
      "stateMutability": "view",
      "type": "function",
      "constant": true
    },
    {
      "inputs": [],
      "name": "stringPerBlock",
      "outputs": [
        {
          "internalType": "uint256",
          "name": "",
          "type": "uint256"
        }
      ],
      "stateMutability": "view",
      "type": "function",
      "constant": true
    },
    {
      "inputs": [],
      "name": "stringToken",
      "outputs": [
        {
          "internalType": "contract StringToken",
          "name": "",
          "type": "address"
        }
      ],
      "stateMutability": "view",
      "type": "function",
      "constant": true
    },
    {
      "inputs": [],
      "name": "totalAllocPoint",
      "outputs": [
        {
          "internalType": "uint256",
          "name": "",
          "type": "uint256"
        }
      ],
      "stateMutability": "view",
      "type": "function",
      "constant": true
    },
    {
      "inputs": [],
      "name": "totalLQTYRewards",
      "outputs": [
        {
          "internalType": "uint256",
          "name": "",
          "type": "uint256"
        }
      ],
      "stateMutability": "view",
      "type": "function",
      "constant": true
    },
    {
      "inputs": [
        {
          "internalType": "address",
          "name": "newOwner",
          "type": "address"
        }
      ],
      "name": "transferOwnership",
      "outputs": [],
      "stateMutability": "nonpayable",
      "type": "function"
    },
    {
      "inputs": [
        {
          "internalType": "address",
          "name": "",
          "type": "address"
        }
      ],
      "name": "userInfo",
      "outputs": [
        {
          "internalType": "uint256",
          "name": "amount",
          "type": "uint256"
        },
        {
          "internalType": "uint256",
          "name": "rewardDebt",
          "type": "uint256"
        },
        {
          "internalType": "uint256",
          "name": "lqtyRewardDebt",
          "type": "uint256"
        }
      ],
      "stateMutability": "view",
      "type": "function",
      "constant": true
    },
    {
      "inputs": [],
      "name": "registerIt",
      "outputs": [],
      "stateMutability": "nonpayable",
      "type": "function"
    },
    {
      "inputs": [
        {
          "internalType": "uint256",
          "name": "_from",
          "type": "uint256"
        },
        {
          "internalType": "uint256",
          "name": "_to",
          "type": "uint256"
        }
      ],
      "name": "getMultiplier",
      "outputs": [
        {
          "internalType": "uint256",
          "name": "",
          "type": "uint256"
        }
      ],
      "stateMutability": "view",
      "type": "function",
      "constant": true
    },
    {
      "inputs": [
        {
          "internalType": "address",
          "name": "_user",
          "type": "address"
        }
      ],
      "name": "pendingString",
      "outputs": [
        {
          "internalType": "uint256",
          "name": "",
          "type": "uint256"
        }
      ],
      "stateMutability": "view",
      "type": "function",
      "constant": true
    },
    {
      "inputs": [
        {
          "internalType": "address",
          "name": "_user",
          "type": "address"
        }
      ],
      "name": "pendingLQTY",
      "outputs": [
        {
          "internalType": "uint256",
          "name": "",
          "type": "uint256"
        }
      ],
      "stateMutability": "view",
      "type": "function",
      "constant": true
    },
    {
      "inputs": [],
      "name": "updatePool",
      "outputs": [],
      "stateMutability": "nonpayable",
      "type": "function"
    },
    {
      "inputs": [],
      "name": "updateSP",
      "outputs": [],
      "stateMutability": "nonpayable",
      "type": "function"
    },
    {
      "inputs": [
        {
          "internalType": "uint256",
          "name": "_amount",
          "type": "uint256"
        }
      ],
      "name": "deposit",
      "outputs": [],
      "stateMutability": "nonpayable",
      "type": "function"
    },
    {
      "inputs": [
        {
          "internalType": "uint256",
          "name": "_amount",
          "type": "uint256"
        }
      ],
      "name": "withdraw",
      "outputs": [],
      "stateMutability": "nonpayable",
      "type": "function"
    },
    {
      "inputs": [],
      "name": "emergencyWithdraw",
      "outputs": [],
      "stateMutability": "nonpayable",
      "type": "function"
    }
  ],
  "bytecode": "0x60806040526000600560146101000a81548160ff021916908315150217905550670333db648aec94006008556001600a60006101000a81548160ff0219169083151502179055506000600b556000600c5560006013553480156200006257600080fd5b506040516200332838038062003328833981810160405260a08110156200008857600080fd5b8101908080519060200190929190805190602001909291908051906020019092919080519060200190929190805190602001909291905050506000620000d3620003e160201b60201c565b9050806000806101000a81548173ffffffffffffffffffffffffffffffffffffffff021916908373ffffffffffffffffffffffffffffffffffffffff1602179055508073ffffffffffffffffffffffffffffffffffffffff16600073ffffffffffffffffffffffffffffffffffffffff167f8be0079c531659141344cd1fd0a4f28419497f9722a3daafe3b4186f6b6457e060405160405180910390a35084600160006101000a81548173ffffffffffffffffffffffffffffffffffffffff021916908373ffffffffffffffffffffffffffffffffffffffff16021790555082600260006101000a81548173ffffffffffffffffffffffffffffffffffffffff021916908373ffffffffffffffffffffffffffffffffffffffff16021790555081600360006101000a81548173ffffffffffffffffffffffffffffffffffffffff021916908373ffffffffffffffffffffffffffffffffffffffff160217905550620002516225317c43620003e960201b62001ea01790919060201c565b60078190555043601481905550620002788443620003e960201b62001ea01790919060201c565b60098190555080600460006101000a81548173ffffffffffffffffffffffffffffffffffffffff021916908373ffffffffffffffffffffffffffffffffffffffff16021790555033600660006101000a81548173ffffffffffffffffffffffffffffffffffffffff021916908373ffffffffffffffffffffffffffffffffffffffff1602179055506040518060a00160405280600160009054906101000a900473ffffffffffffffffffffffffffffffffffffffff1673ffffffffffffffffffffffffffffffffffffffff16815260200160008152602001438152602001600081526020016000815250600d60008201518160000160006101000a81548173ffffffffffffffffffffffffffffffffffffffff021916908373ffffffffffffffffffffffffffffffffffffffff16021790555060208201518160010155604082015181600201556060820151816003015560808201518160040155905050505050505062000472565b600033905090565b60008082840190508381101562000468576040517f08c379a000000000000000000000000000000000000000000000000000000000815260040180806020018281038252601b8152602001807f536166654d6174683a206164646974696f6e206f766572666c6f77000000000081525060200191505060405180910390fd5b8091505092915050565b612ea680620004826000396000f3fe608060405234801561001057600080fd5b50600436106101da5760003560e01c806382b8e73111610104578063b6897559116100a2578063df5e898711610071578063df5e8987146106fd578063e3161ddd14610747578063f18e15ba14610751578063f2fde38b1461076f576101da565b8063b689755914610659578063b6b55f251461067b578063d49e77cd146106a9578063db2e21bc146106f3576101da565b80639a456703116100de5780639a456703146105a3578063a4891273146105ad578063a60bdb2f14610605578063afa2fc5c1461064f576101da565b806382b8e731146104ef5780638da5cb5b1461050d5780638dbb1e3a14610557576101da565b80631959a0021161017c578063350bac341161014b578063350bac341461045157806348cd4cb11461046f57806366bf9ae41461048d578063715018a6146104e5576101da565b80631959a002146103515780631f7af3c3146103b75780632de40ce3146104015780632e1a7d4d14610423576101da565b80630b5f91fc116101b85780630b5f91fc146102915780630d483ae1146102af57806316f0115b146102cd57806317caf6f114610333576101da565b806302d05d3f146101df578063048c661d14610229578063083c632314610273575b600080fd5b6101e76107b3565b604051808273ffffffffffffffffffffffffffffffffffffffff1673ffffffffffffffffffffffffffffffffffffffff16815260200191505060405180910390f35b6102316107d9565b604051808273ffffffffffffffffffffffffffffffffffffffff1673ffffffffffffffffffffffffffffffffffffffff16815260200191505060405180910390f35b61027b6107ff565b6040518082815260200191505060405180910390f35b610299610805565b6040518082815260200191505060405180910390f35b6102b761080b565b6040518082815260200191505060405180910390f35b6102d5610810565b604051808673ffffffffffffffffffffffffffffffffffffffff1673ffffffffffffffffffffffffffffffffffffffff1681526020018581526020018481526020018381526020018281526020019550505050505060405180910390f35b61033b610854565b6040518082815260200191505060405180910390f35b6103936004803603602081101561036757600080fd5b81019080803573ffffffffffffffffffffffffffffffffffffffff16906020019092919050505061085a565b60405180848152602001838152602001828152602001935050505060405180910390f35b6103bf610884565b604051808273ffffffffffffffffffffffffffffffffffffffff1673ffffffffffffffffffffffffffffffffffffffff16815260200191505060405180910390f35b6104096108aa565b604051808215151515815260200191505060405180910390f35b61044f6004803603602081101561043957600080fd5b81019080803590602001909291905050506108bd565b005b610459610d20565b6040518082815260200191505060405180910390f35b610477610d26565b6040518082815260200191505060405180910390f35b6104cf600480360360208110156104a357600080fd5b81019080803573ffffffffffffffffffffffffffffffffffffffff169060200190929190505050610d2c565b6040518082815260200191505060405180910390f35b6104ed610e94565b005b6104f7611002565b6040518082815260200191505060405180910390f35b610515611008565b604051808273ffffffffffffffffffffffffffffffffffffffff1673ffffffffffffffffffffffffffffffffffffffff16815260200191505060405180910390f35b61058d6004803603604081101561056d57600080fd5b810190808035906020019092919080359060200190929190505050611031565b6040518082815260200191505060405180910390f35b6105ab611086565b005b6105ef600480360360208110156105c357600080fd5b81019080803573ffffffffffffffffffffffffffffffffffffffff169060200190929190505050611205565b6040518082815260200191505060405180910390f35b61060d611405565b604051808273ffffffffffffffffffffffffffffffffffffffff1673ffffffffffffffffffffffffffffffffffffffff16815260200191505060405180910390f35b61065761142b565b005b610661611566565b604051808215151515815260200191505060405180910390f35b6106a76004803603602081101561069157600080fd5b8101908080359060200190929190505050611579565b005b6106b1611877565b604051808273ffffffffffffffffffffffffffffffffffffffff1673ffffffffffffffffffffffffffffffffffffffff16815260200191505060405180910390f35b6106fb61189d565b005b61070561199d565b604051808273ffffffffffffffffffffffffffffffffffffffff1673ffffffffffffffffffffffffffffffffffffffff16815260200191505060405180910390f35b61074f6119c3565b005b610759611ca7565b6040518082815260200191505060405180910390f35b6107b16004803603602081101561078557600080fd5b81019080803573ffffffffffffffffffffffffffffffffffffffff169060200190929190505050611cad565b005b600660009054906101000a900473ffffffffffffffffffffffffffffffffffffffff1681565b600460009054906101000a900473ffffffffffffffffffffffffffffffffffffffff1681565b60075481565b60095481565b600581565b600d8060000160009054906101000a900473ffffffffffffffffffffffffffffffffffffffff16908060010154908060020154908060030154908060040154905085565b60135481565b60126020528060005260406000206000915090508060000154908060010154908060020154905083565b600260009054906101000a900473ffffffffffffffffffffffffffffffffffffffff1681565b600560149054906101000a900460ff1681565b6000601260003373ffffffffffffffffffffffffffffffffffffffff1673ffffffffffffffffffffffffffffffffffffffff1681526020019081526020016000209050818160000154101561097a576040517f08c379a00000000000000000000000000000000000000000000000000000000081526004018080602001828103825260128152602001807f77697468647261773a206e6f7420676f6f64000000000000000000000000000081525060200191505060405180910390fd5b6000600360009054906101000a900473ffffffffffffffffffffffffffffffffffffffff1673ffffffffffffffffffffffffffffffffffffffff166370a08231336040518263ffffffff1660e01b8152600401808273ffffffffffffffffffffffffffffffffffffffff1673ffffffffffffffffffffffffffffffffffffffff16815260200191505060206040518083038186803b158015610a1b57600080fd5b505afa158015610a2f573d6000803e3d6000fd5b505050506040513d6020811015610a4557600080fd5b8101908080519060200190929190505050905080831115610ace576040517f08c379a00000000000000000000000000000000000000000000000000000000081526004018080602001828103825260128152602001807f6e6f7420656e6f7567682067535452494e47000000000000000000000000000081525060200191505060405180910390fd5b610ad66119c3565b6000610ae183611f28565b90506000610aee846120af565b9050610afa3383612106565b610b0433826123de565b610b1b8585600001546126cf90919063ffffffff16565b8460000181905550610b3b85600d600101546126cf90919063ffffffff16565b600d60010181905550600360009054906101000a900473ffffffffffffffffffffffffffffffffffffffff1673ffffffffffffffffffffffffffffffffffffffff166379cc679033876040518363ffffffff1660e01b8152600401808373ffffffffffffffffffffffffffffffffffffffff1673ffffffffffffffffffffffffffffffffffffffff16815260200182815260200192505050600060405180830381600087803b158015610bed57600080fd5b505af1158015610c01573d6000803e3d6000fd5b50505050610c553386600d60000160009054906101000a900473ffffffffffffffffffffffffffffffffffffffff1673ffffffffffffffffffffffffffffffffffffffff166127529092919063ffffffff16565b610c8864e8d4a51000610c7a600d60030154876000015461280a90919063ffffffff16565b61289090919063ffffffff16565b8460010181905550610cc364e8d4a51000610cb5600d60040154876000015461280a90919063ffffffff16565b61289090919063ffffffff16565b84600201819055503373ffffffffffffffffffffffffffffffffffffffff167f884edad9ce6fa2440d8a54cc123490eb96d2768479d49ff9c7366125a9424364866040518082815260200191505060405180910390a25050505050565b60085481565b60145481565b600080601260008473ffffffffffffffffffffffffffffffffffffffff1673ffffffffffffffffffffffffffffffffffffffff16815260200190815260200160002090506000600d6003015490506000600d600101549050600d6002015443118015610d99575060008114155b15610e0b576000610daf600d6002015443611031565b90506000610dc86008548361280a90919063ffffffff16565b9050610e06610df784610de964e8d4a510008561280a90919063ffffffff16565b61289090919063ffffffff16565b85611ea090919063ffffffff16565b935050505b6000610e518460010154610e4364e8d4a51000610e3587896000015461280a90919063ffffffff16565b61289090919063ffffffff16565b6126cf90919063ffffffff16565b9050600a60009054906101000a900460ff1615610e8757610e7c60058261280a90919063ffffffff16565b945050505050610e8f565b809450505050505b919050565b610e9c612919565b73ffffffffffffffffffffffffffffffffffffffff16610eba611008565b73ffffffffffffffffffffffffffffffffffffffff1614610f43576040517f08c379a00000000000000000000000000000000000000000000000000000000081526004018080602001828103825260208152602001807f4f776e61626c653a2063616c6c6572206973206e6f7420746865206f776e657281525060200191505060405180910390fd5b600073ffffffffffffffffffffffffffffffffffffffff166000809054906101000a900473ffffffffffffffffffffffffffffffffffffffff1673ffffffffffffffffffffffffffffffffffffffff167f8be0079c531659141344cd1fd0a4f28419497f9722a3daafe3b4186f6b6457e060405160405180910390a360008060006101000a81548173ffffffffffffffffffffffffffffffffffffffff021916908373ffffffffffffffffffffffffffffffffffffffff160217905550565b600b5481565b60008060009054906101000a900473ffffffffffffffffffffffffffffffffffffffff16905090565b600060075482116110565761104f83836126cf90919063ffffffff16565b9050611080565b60075483106110685760009050611080565b61107d836007546126cf90919063ffffffff16565b90505b92915050565b6000600d600101549050600081141561109f5750611203565b6000600260009054906101000a900473ffffffffffffffffffffffffffffffffffffffff1673ffffffffffffffffffffffffffffffffffffffff166370a08231306040518263ffffffff1660e01b8152600401808273ffffffffffffffffffffffffffffffffffffffff1673ffffffffffffffffffffffffffffffffffffffff16815260200191505060206040518083038186803b15801561114057600080fd5b505afa158015611154573d6000803e3d6000fd5b505050506040513d602081101561116a57600080fd5b810190808051906020019092919050505090506000809050600b548211156111a4576111a1600b54836126cf90919063ffffffff16565b90505b60008111156111f8576111ee6111da846111cc64e8d4a510008561280a90919063ffffffff16565b61289090919063ffffffff16565b600d60040154611ea090919063ffffffff16565b600d600401819055505b81600b819055505050505b565b600080601260008473ffffffffffffffffffffffffffffffffffffffff1673ffffffffffffffffffffffffffffffffffffffff16815260200190815260200160002090506000600d6004015490506000600d6001015490506000600260009054906101000a900473ffffffffffffffffffffffffffffffffffffffff1673ffffffffffffffffffffffffffffffffffffffff166370a08231306040518263ffffffff1660e01b8152600401808273ffffffffffffffffffffffffffffffffffffffff1673ffffffffffffffffffffffffffffffffffffffff16815260200191505060206040518083038186803b1580156112fe57600080fd5b505afa158015611312573d6000803e3d6000fd5b505050506040513d602081101561132857600080fd5b810190808051906020019092919050505090506000809050600b548211156113625761135f600b54836126cf90919063ffffffff16565b90505b60008111156113af576113ac6113988461138a64e8d4a510008561280a90919063ffffffff16565b61289090919063ffffffff16565b600d60040154611ea090919063ffffffff16565b93505b60006113f586600201546113e764e8d4a510006113d9898b6000015461280a90919063ffffffff16565b61289090919063ffffffff16565b6126cf90919063ffffffff16565b9050809650505050505050919050565b600360009054906101000a900473ffffffffffffffffffffffffffffffffffffffff1681565b60001515600560149054906101000a900460ff161515146114b4576040517f08c379a00000000000000000000000000000000000000000000000000000000081526004018080602001828103825260128152602001807f416c72656164792072656769737465726564000000000000000000000000000081525060200191505060405180910390fd5b600460009054906101000a900473ffffffffffffffffffffffffffffffffffffffff1673ffffffffffffffffffffffffffffffffffffffff1663556be101670c7d713b49da00006040518263ffffffff1660e01b815260040180828152602001915050600060405180830381600087803b15801561153157600080fd5b505af1158015611545573d6000803e3d6000fd5b505050506001600560146101000a81548160ff021916908315150217905550565b600a60009054906101000a900460ff1681565b6103e881116115d3576040517f08c379a0000000000000000000000000000000000000000000000000000000008152600401808060200182810382526025815260200180612e4c6025913960400191505060405180910390fd5b6000601260003373ffffffffffffffffffffffffffffffffffffffff1673ffffffffffffffffffffffffffffffffffffffff168152602001908152602001600020905061161e6119c3565b60008160000154111561165c57600061163682611f28565b90506000611643836120af565b905061164f3383612106565b61165933826123de565b50505b6116ae333084600d60000160009054906101000a900473ffffffffffffffffffffffffffffffffffffffff1673ffffffffffffffffffffffffffffffffffffffff16612921909392919063ffffffff16565b6116c5828260000154611ea090919063ffffffff16565b81600001819055506116e582600d60010154611ea090919063ffffffff16565b600d6001018190555061172164e8d4a51000611713600d60030154846000015461280a90919063ffffffff16565b61289090919063ffffffff16565b816001018190555061175c64e8d4a5100061174e600d60040154846000015461280a90919063ffffffff16565b61289090919063ffffffff16565b8160020181905550600360009054906101000a900473ffffffffffffffffffffffffffffffffffffffff1673ffffffffffffffffffffffffffffffffffffffff1663449a52f833846040518363ffffffff1660e01b8152600401808373ffffffffffffffffffffffffffffffffffffffff1673ffffffffffffffffffffffffffffffffffffffff16815260200182815260200192505050600060405180830381600087803b15801561180d57600080fd5b505af1158015611821573d6000803e3d6000fd5b505050503373ffffffffffffffffffffffffffffffffffffffff167fe1fffcc4923d04b559f4d29a8bfc6cda04eb5b0d3c460751c2402c5c5cc9109c836040518082815260200191505060405180910390a25050565b600560009054906101000a900473ffffffffffffffffffffffffffffffffffffffff1681565b6000601260003373ffffffffffffffffffffffffffffffffffffffff1673ffffffffffffffffffffffffffffffffffffffff1681526020019081526020016000209050611934338260000154600d60000160009054906101000a900473ffffffffffffffffffffffffffffffffffffffff1673ffffffffffffffffffffffffffffffffffffffff166127529092919063ffffffff16565b3373ffffffffffffffffffffffffffffffffffffffff167f5fafa99d0643513820be26656b45130b01e1c03062e1266bf36f88cbd3bd969582600001546040518082815260200191505060405180910390a2600081600001819055506000816001018190555050565b600160009054906101000a900473ffffffffffffffffffffffffffffffffffffffff1681565b6000601260003373ffffffffffffffffffffffffffffffffffffffff1673ffffffffffffffffffffffffffffffffffffffff1681526020019081526020016000209050611a0e611086565b600d600201544311611a205750611ca5565b6000600d6001015490506000811415611a445743600d600201819055505050611ca5565b6000611a55600d6002015443611031565b90506000611a6e6008548361280a90919063ffffffff16565b9050600954431015611b59576000611a9060058361280a90919063ffffffff16565b9050600160009054906101000a900473ffffffffffffffffffffffffffffffffffffffff1673ffffffffffffffffffffffffffffffffffffffff1663449a52f830836040518363ffffffff1660e01b8152600401808373ffffffffffffffffffffffffffffffffffffffff1673ffffffffffffffffffffffffffffffffffffffff16815260200182815260200192505050600060405180830381600087803b158015611b3b57600080fd5b505af1158015611b4f573d6000803e3d6000fd5b5050505050611c4c565b600a60009054906101000a900460ff1615611b8a576000600a60006101000a81548160ff0219169083151502179055505b600160009054906101000a900473ffffffffffffffffffffffffffffffffffffffff1673ffffffffffffffffffffffffffffffffffffffff1663449a52f830836040518363ffffffff1660e01b8152600401808373ffffffffffffffffffffffffffffffffffffffff1673ffffffffffffffffffffffffffffffffffffffff16815260200182815260200192505050600060405180830381600087803b158015611c3357600080fd5b505af1158015611c47573d6000803e3d6000fd5b505050505b611c8d611c7984611c6b64e8d4a510008561280a90919063ffffffff16565b61289090919063ffffffff16565b600d60030154611ea090919063ffffffff16565b600d6003018190555043600d60020181905550505050505b565b600c5481565b611cb5612919565b73ffffffffffffffffffffffffffffffffffffffff16611cd3611008565b73ffffffffffffffffffffffffffffffffffffffff1614611d5c576040517f08c379a00000000000000000000000000000000000000000000000000000000081526004018080602001828103825260208152602001807f4f776e61626c653a2063616c6c6572206973206e6f7420746865206f776e657281525060200191505060405180910390fd5b600073ffffffffffffffffffffffffffffffffffffffff168173ffffffffffffffffffffffffffffffffffffffff161415611de2576040517f08c379a0000000000000000000000000000000000000000000000000000000008152600401808060200182810382526026815260200180612db56026913960400191505060405180910390fd5b8073ffffffffffffffffffffffffffffffffffffffff166000809054906101000a900473ffffffffffffffffffffffffffffffffffffffff1673ffffffffffffffffffffffffffffffffffffffff167f8be0079c531659141344cd1fd0a4f28419497f9722a3daafe3b4186f6b6457e060405160405180910390a3806000806101000a81548173ffffffffffffffffffffffffffffffffffffffff021916908373ffffffffffffffffffffffffffffffffffffffff16021790555050565b600080828401905083811015611f1e576040517f08c379a000000000000000000000000000000000000000000000000000000000815260040180806020018281038252601b8152602001807f536166654d6174683a206164646974696f6e206f766572666c6f77000000000081525060200191505060405180910390fd5b8091505092915050565b600080600160009054906101000a900473ffffffffffffffffffffffffffffffffffffffff1673ffffffffffffffffffffffffffffffffffffffff166370a08231306040518263ffffffff1660e01b8152600401808273ffffffffffffffffffffffffffffffffffffffff1673ffffffffffffffffffffffffffffffffffffffff16815260200191505060206040518083038186803b158015611fca57600080fd5b505afa158015611fde573d6000803e3d6000fd5b505050506040513d6020811015611ff457600080fd5b810190808051906020019092919050505090506000612021600d60010154836126cf90919063ffffffff16565b9050600061206e856001015461206064e8d4a51000612052600d600301548a6000015461280a90919063ffffffff16565b61289090919063ffffffff16565b6126cf90919063ffffffff16565b9050600a60009054906101000a900460ff16156120a35761209960058261280a90919063ffffffff16565b93505050506120aa565b8093505050505b919050565b6000806120fb83600201546120ed64e8d4a510006120df600d60040154886000015461280a90919063ffffffff16565b61289090919063ffffffff16565b6126cf90919063ffffffff16565b905080915050919050565b6000600160009054906101000a900473ffffffffffffffffffffffffffffffffffffffff1673ffffffffffffffffffffffffffffffffffffffff166370a08231306040518263ffffffff1660e01b8152600401808273ffffffffffffffffffffffffffffffffffffffff1673ffffffffffffffffffffffffffffffffffffffff16815260200191505060206040518083038186803b1580156121a757600080fd5b505afa1580156121bb573d6000803e3d6000fd5b505050506040513d60208110156121d157600080fd5b8101908080519060200190929190505050905060006121fe600d60010154836126cf90919063ffffffff16565b9050808311156122f257600160009054906101000a900473ffffffffffffffffffffffffffffffffffffffff1673ffffffffffffffffffffffffffffffffffffffff1663a9059cbb85836040518363ffffffff1660e01b8152600401808373ffffffffffffffffffffffffffffffffffffffff1673ffffffffffffffffffffffffffffffffffffffff16815260200182815260200192505050602060405180830381600087803b1580156122b157600080fd5b505af11580156122c5573d6000803e3d6000fd5b505050506040513d60208110156122db57600080fd5b8101908080519060200190929190505050506123d8565b600160009054906101000a900473ffffffffffffffffffffffffffffffffffffffff1673ffffffffffffffffffffffffffffffffffffffff1663a9059cbb85856040518363ffffffff1660e01b8152600401808373ffffffffffffffffffffffffffffffffffffffff1673ffffffffffffffffffffffffffffffffffffffff16815260200182815260200192505050602060405180830381600087803b15801561239b57600080fd5b505af11580156123af573d6000803e3d6000fd5b505050506040513d60208110156123c557600080fd5b8101908080519060200190929190505050505b50505050565b6000600260009054906101000a900473ffffffffffffffffffffffffffffffffffffffff1673ffffffffffffffffffffffffffffffffffffffff166370a08231306040518263ffffffff1660e01b8152600401808273ffffffffffffffffffffffffffffffffffffffff1673ffffffffffffffffffffffffffffffffffffffff16815260200191505060206040518083038186803b15801561247f57600080fd5b505afa158015612493573d6000803e3d6000fd5b505050506040513d60208110156124a957600080fd5b81019080805190602001909291905050509050808211156125c957600260009054906101000a900473ffffffffffffffffffffffffffffffffffffffff1673ffffffffffffffffffffffffffffffffffffffff1663a9059cbb84836040518363ffffffff1660e01b8152600401808373ffffffffffffffffffffffffffffffffffffffff1673ffffffffffffffffffffffffffffffffffffffff16815260200182815260200192505050602060405180830381600087803b15801561256d57600080fd5b505af1158015612581573d6000803e3d6000fd5b505050506040513d602081101561259757600080fd5b8101908080519060200190929190505050506125be81600b546126cf90919063ffffffff16565b600b819055506126ca565b600260009054906101000a900473ffffffffffffffffffffffffffffffffffffffff1673ffffffffffffffffffffffffffffffffffffffff1663a9059cbb84846040518363ffffffff1660e01b8152600401808373ffffffffffffffffffffffffffffffffffffffff1673ffffffffffffffffffffffffffffffffffffffff16815260200182815260200192505050602060405180830381600087803b15801561267257600080fd5b505af1158015612686573d6000803e3d6000fd5b505050506040513d602081101561269c57600080fd5b8101908080519060200190929190505050506126c382600b546126cf90919063ffffffff16565b600b819055505b505050565b600082821115612747576040517f08c379a000000000000000000000000000000000000000000000000000000000815260040180806020018281038252601e8152602001807f536166654d6174683a207375627472616374696f6e206f766572666c6f77000081525060200191505060405180910390fd5b818303905092915050565b6128058363a9059cbb60e01b8484604051602401808373ffffffffffffffffffffffffffffffffffffffff1673ffffffffffffffffffffffffffffffffffffffff16815260200182815260200192505050604051602081830303815290604052907bffffffffffffffffffffffffffffffffffffffffffffffffffffffff19166020820180517bffffffffffffffffffffffffffffffffffffffffffffffffffffffff8381831617835250505050612a0e565b505050565b60008083141561281d576000905061288a565b600082840290508284828161282e57fe5b0414612885576040517f08c379a0000000000000000000000000000000000000000000000000000000008152600401808060200182810382526021815260200180612e016021913960400191505060405180910390fd5b809150505b92915050565b6000808211612907576040517f08c379a000000000000000000000000000000000000000000000000000000000815260040180806020018281038252601a8152602001807f536166654d6174683a206469766973696f6e206279207a65726f00000000000081525060200191505060405180910390fd5b81838161291057fe5b04905092915050565b600033905090565b612a08846323b872dd60e01b858585604051602401808473ffffffffffffffffffffffffffffffffffffffff1673ffffffffffffffffffffffffffffffffffffffff1681526020018373ffffffffffffffffffffffffffffffffffffffff1673ffffffffffffffffffffffffffffffffffffffff1681526020018281526020019350505050604051602081830303815290604052907bffffffffffffffffffffffffffffffffffffffffffffffffffffffff19166020820180517bffffffffffffffffffffffffffffffffffffffffffffffffffffffff8381831617835250505050612a0e565b50505050565b6060612a70826040518060400160405280602081526020017f5361666545524332303a206c6f772d6c6576656c2063616c6c206661696c65648152508573ffffffffffffffffffffffffffffffffffffffff16612afd9092919063ffffffff16565b9050600081511115612af857808060200190516020811015612a9157600080fd5b8101908080519060200190929190505050612af7576040517f08c379a000000000000000000000000000000000000000000000000000000000815260040180806020018281038252602a815260200180612e22602a913960400191505060405180910390fd5b5b505050565b6060612b0c8484600085612b15565b90509392505050565b6060823073ffffffffffffffffffffffffffffffffffffffff16311015612b87576040517f08c379a0000000000000000000000000000000000000000000000000000000008152600401808060200182810382526026815260200180612ddb6026913960400191505060405180910390fd5b612b9085612cd5565b612c02576040517f08c379a000000000000000000000000000000000000000000000000000000000815260040180806020018281038252601d8152602001807f416464726573733a2063616c6c20746f206e6f6e2d636f6e747261637400000081525060200191505060405180910390fd5b600060608673ffffffffffffffffffffffffffffffffffffffff1685876040518082805190602001908083835b60208310612c525780518252602082019150602081019050602083039250612c2f565b6001836020036101000a03801982511681845116808217855250505050505090500191505060006040518083038185875af1925050503d8060008114612cb4576040519150601f19603f3d011682016040523d82523d6000602084013e612cb9565b606091505b5091509150612cc9828286612ce8565b92505050949350505050565b600080823b905060008111915050919050565b60608315612cf857829050612dad565b600083511115612d0b5782518084602001fd5b816040517f08c379a00000000000000000000000000000000000000000000000000000000081526004018080602001828103825283818151815260200191508051906020019080838360005b83811015612d72578082015181840152602081019050612d57565b50505050905090810190601f168015612d9f5780820380516001836020036101000a031916815260200191505b509250505060405180910390fd5b939250505056fe4f776e61626c653a206e6577206f776e657220697320746865207a65726f2061646472657373416464726573733a20696e73756666696369656e742062616c616e636520666f722063616c6c536166654d6174683a206d756c7469706c69636174696f6e206f766572666c6f775361666545524332303a204552433230206f7065726174696f6e20646964206e6f7420737563636565646465706f736974206d7573742062652067726561746572207468616e203130303020574549a2646970667358221220157206af944836d4318b2aa153dac8bf874f204f3960c70fd81328741c27d2f064736f6c634300060b0033",
  "immutableReferences": {},
  "source": "// SPDX-License-Identifier: MIT\n\npragma solidity 0.6.11;\n\nimport \"@openzeppelin/contracts/access/Ownable.sol\";\nimport \"@openzeppelin/contracts/math/SafeMath.sol\";\nimport \"@openzeppelin/contracts/token/ERC20/IERC20.sol\";\nimport \"@openzeppelin/contracts/token/ERC20/SafeERC20.sol\";\nimport \"./StringToken.sol\";\nimport \"./Interfaces/ILQTYToken.sol\";\nimport \"./gStringToken.sol\";\nimport \"./Interfaces/IStabilityPool.sol\";\n\ncontract StringStaking is Ownable {\n    using SafeMath for uint256;\n    using SafeERC20 for IERC20;\n\n    // Info of each user.\n    struct UserInfo {\n        uint256 amount; // How many LP tokens the user has provided.\n        uint256 rewardDebt; // Reward debt. See explanation below.\n        uint256 lqtyRewardDebt;\n        //\n        // We do some fancy math here. Basically, any point in time, the amount of STRING\n        // entitled to a user but is pending to be distributed is:\n        //\n        //   pending reward = (user.amount * pool.accstringPerShare) - user.rewardDebt\n        //\n        // Whenever a user deposits or withdraws LP tokens to a pool. Here's what happens:\n        //   1. The pool's `accStringPerShare` (and `lastRewardBlock`) gets updated.\n        //   2. User receives the pending reward sent to his/her address.\n        //   3. User's `amount` gets updated.\n        //   4. User's `rewardDebt` gets updated.\n    }\n\n    // Info of each pool.\n    struct PoolInfo {\n        IERC20 lpToken; // Address of LP token contract.\n        uint256 lpTokenSupply;\n        uint256 lastRewardBlock; // Last block number that STRING distribution occurs.\n        uint256 accStringPerShare; // Accumulated STRING per share, times 1e12. See below.\n        uint256 accLQTYPerShare;\n    }\n\n    // The STRING TOKEN!\n    StringToken public stringToken;\n    ILQTYToken public lqtyToken;\n    gStringToken public gstringToken;\n    IStabilityPool public stabilityPool;\n    // Dev address.\n    address public devaddr;\n    bool public registered = false;\n    address public creator;\n    // Block number when bonus STRING period ends.\n    uint256 public endBlock;\n    // STRING tokens created per block.\n    uint256 public stringPerBlock = 230769230800000000;\n    uint256 public postBoostedBlock;\n    uint256 public constant boostedMultiplier = 5;\n    bool public isBoosted = true;\n    uint256 public lastLQTYRewards = 0;\n    uint256 public totalLQTYRewards = 0;\n\n    // Info of each pool.\n    PoolInfo public pool;\n    // Info of each user that stakes LP tokens.\n    mapping(address => UserInfo) public userInfo;\n    // Total allocation poitns. Must be the sum of all allocation points in all pools.\n    uint256 public totalAllocPoint = 0;\n    // The block number when STRING mining starts.\n    uint256 public startBlock;\n\n    event Deposit(address indexed user, uint256 amount);\n    event Withdraw(address indexed user, uint256 amount);\n    event Claim(\n        address indexed who,\n        uint256 amountClaimed,\n        uint256 seconAmountClaimed\n    );\n    event EmergencyWithdraw(address indexed user, uint256 amount);\n\n    modifier onlyCreator() {\n        require(msg.sender == creator, \"only creator can call this method\");\n        _;\n    }\n\n    constructor(\n        StringToken _string,\n        uint256 _boostedBuffer,\n        ILQTYToken _lqty,\n        gStringToken _gstringToken,\n        IStabilityPool _stabilityPool\n    ) public {\n        stringToken = _string;\n        lqtyToken = _lqty;\n        gstringToken = _gstringToken;\n        endBlock = block.number.add(2437500);\n        startBlock = block.number;\n        postBoostedBlock = block.number.add(_boostedBuffer);\n        stabilityPool = _stabilityPool;\n        creator = msg.sender;\n        pool = PoolInfo({\n            lpToken: stringToken,\n            lpTokenSupply: 0,\n            lastRewardBlock: block.number,\n            accStringPerShare: 0,\n            accLQTYPerShare: 0\n        });\n    }\n\n    function registerIt() public {\n        require(registered == false, \"Already registered\");\n        stabilityPool.registerFrontEnd(9e17);\n        registered = true;\n    }\n\n    // Return reward multiplier over the given _from to _to block.\n    function getMultiplier(uint256 _from, uint256 _to)\n        public\n        view\n        returns (uint256)\n    {\n        if (_to <= endBlock) {\n            return _to.sub(_from);\n        } else if (_from >= endBlock) {\n            return 0;\n        } else {\n            return endBlock.sub(_from);\n        }\n    }\n\n    // View function to see pending STRING on frontend.\n    function pendingString(address _user) external view returns (uint256) {\n        UserInfo storage user = userInfo[_user];\n        uint256 accStringPerShare = pool.accStringPerShare;\n        uint256 lpSupply = pool.lpTokenSupply;\n        if (block.number > pool.lastRewardBlock && lpSupply != 0) {\n            uint256 multiplier =\n                getMultiplier(pool.lastRewardBlock, block.number);\n            uint256 stringReward = multiplier.mul(stringPerBlock);\n            accStringPerShare = accStringPerShare.add(\n                stringReward.mul(1e12).div(lpSupply)\n            );\n        }\n        uint256 pending =\n            user.amount.mul(accStringPerShare).div(1e12).sub(user.rewardDebt);\n\n        if (isBoosted) {\n            return pending.mul(boostedMultiplier);\n        } else {\n            return pending;\n        }\n    }\n\n    // View function to see pending LQTY on frontend.\n    function pendingLQTY(address _user) external view returns (uint256) {\n        UserInfo storage user = userInfo[_user];\n        uint256 accLQTYPerShare = pool.accLQTYPerShare;\n        uint256 lpSupply = pool.lpTokenSupply;\n\n        uint256 lqtyAvailableRewards = lqtyToken.balanceOf(address(this));\n        uint256 freshRewards = 0;\n\n        if (lqtyAvailableRewards > lastLQTYRewards) {\n            freshRewards = lqtyAvailableRewards.sub(lastLQTYRewards);\n        }\n\n\n        if (freshRewards > 0) {\n            accLQTYPerShare = pool.accLQTYPerShare.add(\n                freshRewards.mul(1e12).div(lpSupply)\n            );\n        }\n\n        uint256 pending =\n            user.amount.mul(accLQTYPerShare).div(1e12).sub(user.lqtyRewardDebt);\n        return pending;\n    }\n\n    // Update reward variables of the given pool to be up-to-date.\n    function updatePool() public {\n        UserInfo storage user = userInfo[msg.sender];\n        updateSP();\n        if (block.number <= pool.lastRewardBlock) {\n            return;\n        }\n        uint256 lpSupply = pool.lpTokenSupply;\n        if (lpSupply == 0) {\n            pool.lastRewardBlock = block.number;\n            return;\n        }\n        uint256 multiplier = getMultiplier(pool.lastRewardBlock, block.number);\n        uint256 stringReward = multiplier.mul(stringPerBlock);\n        if (block.number < postBoostedBlock) {\n            uint256 boostedReward = stringReward.mul(boostedMultiplier);\n            stringToken.mintTo(address(this), boostedReward);\n        } else {\n            if (isBoosted) {\n                isBoosted = false;\n            }\n            stringToken.mintTo(address(this), stringReward);\n        }\n\n        pool.accStringPerShare = pool.accStringPerShare.add(\n            stringReward.mul(1e12).div(lpSupply)\n        );\n\n        pool.lastRewardBlock = block.number;\n    }\n\n    function updateSP() public {\n        uint256 lpSupply = pool.lpTokenSupply;\n\n        if (lpSupply == 0) {\n            return;\n        }\n\n        uint256 lqtyAvailableRewards = lqtyToken.balanceOf(address(this));\n        uint256 freshRewards = 0;\n\n        if (lqtyAvailableRewards > lastLQTYRewards) {\n            freshRewards = lqtyAvailableRewards.sub(lastLQTYRewards);\n        }\n\n\n        if (freshRewards > 0) {\n            pool.accLQTYPerShare = pool.accLQTYPerShare.add(\n                freshRewards.mul(1e12).div(lpSupply)\n            );\n        }\n        lastLQTYRewards = lqtyAvailableRewards;\n    }\n\n    // Deposit LP tokens for STRING allocation.\n    function deposit(uint256 _amount) public {\n        require(_amount > 1000, \"deposit must be greater than 1000 WEI\");\n        UserInfo storage user = userInfo[msg.sender];\n        updatePool();\n        if (user.amount > 0) {\n            uint256 pending = _pending(user);\n            uint256 pendingLQTY = _pendingLQTY(user);\n            safeStringTransfer(msg.sender, pending);\n            safeLQTYTransfer(msg.sender, pendingLQTY);\n        }\n        pool.lpToken.safeTransferFrom(\n            address(msg.sender),\n            address(this),\n            _amount\n        );\n\n        user.amount = user.amount.add(_amount);\n        pool.lpTokenSupply = pool.lpTokenSupply.add(_amount);\n\n\n        user.rewardDebt = user.amount.mul(pool.accStringPerShare).div(1e12);\n        user.lqtyRewardDebt = user.amount.mul(pool.accLQTYPerShare).div(1e12);\n        gstringToken.mintTo(msg.sender, _amount);\n        emit Deposit(msg.sender, _amount);\n    }\n\n    // Withdraw LP tokens.\n    function withdraw(uint256 _amount) public {\n        UserInfo storage user = userInfo[msg.sender];\n        require(user.amount >= _amount, \"withdraw: not good\");\n        uint256 cNotes = gstringToken.balanceOf(msg.sender);\n        require(_amount <= cNotes, \"not enough gSTRING\");\n        updatePool();\n        uint256 pending = _pending(user);\n        uint256 pendingLQTY = _pendingLQTY(user);\n        safeStringTransfer(msg.sender, pending);\n        safeLQTYTransfer(msg.sender, pendingLQTY);\n        user.amount = user.amount.sub(_amount);\n        pool.lpTokenSupply = pool.lpTokenSupply.sub(_amount);\n        gstringToken.burnFrom(msg.sender, _amount);\n        pool.lpToken.safeTransfer(address(msg.sender), _amount);\n        user.rewardDebt = user.amount.mul(pool.accStringPerShare).div(1e12);\n        user.lqtyRewardDebt = user.amount.mul(pool.accLQTYPerShare).div(1e12);\n        emit Withdraw(msg.sender, _amount);\n    }\n\n    // Withdraw without caring about rewards. EMERGENCY ONLY.\n    function emergencyWithdraw() public {\n        UserInfo storage user = userInfo[msg.sender];\n        pool.lpToken.safeTransfer(address(msg.sender), user.amount);\n        emit EmergencyWithdraw(msg.sender, user.amount);\n        user.amount = 0;\n        user.rewardDebt = 0;\n    }\n\n    // Safe STRING transfer function, just in case if rounding error causes pool to not have enough STRING.\n    function safeStringTransfer(address _to, uint256 _amount) internal {\n        uint256 totalString = stringToken.balanceOf(address(this));\n        uint256 rewardsBal = totalString.sub(pool.lpTokenSupply);\n\n        if (_amount > rewardsBal) {\n            stringToken.transfer(_to, rewardsBal);\n        } else {\n            stringToken.transfer(_to, _amount);\n        }\n    }\n\n    function safeLQTYTransfer(address _to, uint256 _amount) internal {\n        uint256 lqtyBal = lqtyToken.balanceOf(address(this));\n        if (_amount > lqtyBal) {\n            lqtyToken.transfer(_to, lqtyBal);\n            lastLQTYRewards = lastLQTYRewards.sub(lqtyBal);\n        } else {\n            lqtyToken.transfer(_to, _amount);\n            lastLQTYRewards = lastLQTYRewards.sub(_amount);\n        }\n    }\n\n    function _pending(UserInfo storage _user) internal view returns (uint256) {\n        uint256 totalString = stringToken.balanceOf(address(this));\n        uint256 rewardsBal = totalString.sub(pool.lpTokenSupply);\n\n        uint256 rewardsToSend =\n            _user.amount.mul(pool.accStringPerShare).div(1e12).sub(\n                _user.rewardDebt\n            );\n        if (isBoosted) {\n            return rewardsToSend.mul(boostedMultiplier);\n        }\n        return rewardsToSend;\n    }\n\n    function _pendingLQTY(UserInfo storage _user)\n        internal\n        view\n        returns (uint256)\n    {\n        uint256 lqtyRewardsToSend =\n            _user.amount.mul(pool.accLQTYPerShare).div(1e12).sub(\n                _user.lqtyRewardDebt\n            );\n        return lqtyRewardsToSend;\n    }\n}\n",
  "sourcePath": "/Users/dannywarrick/code/harp/client/contracts/StringStaking.sol",
  "compiler": {
    "name": "solc",
    "version": "0.6.11+commit.5ef660b1.Emscripten.clang"
  },
  "schemaVersion": "3.3.4",
  "updatedAt": "2021-04-23T18:00:43.750Z",
  "networkType": "ethereum",
  "devdoc": {
    "kind": "dev",
    "methods": {
      "owner()": {
        "details": "Returns the address of the current owner."
      },
      "renounceOwnership()": {
        "details": "Leaves the contract without owner. It will not be possible to call `onlyOwner` functions anymore. Can only be called by the current owner. NOTE: Renouncing ownership will leave the contract without an owner, thereby removing any functionality that is only available to the owner."
      },
      "transferOwnership(address)": {
        "details": "Transfers ownership of the contract to a new account (`newOwner`). Can only be called by the current owner."
      }
    },
    "version": 1
  },
  "userdoc": {
    "kind": "user",
    "methods": {},
    "version": 1
  }
}