{
  "contractName": "TellorCaller",
  "abi": [
    {
      "inputs": [
        {
          "internalType": "address",
          "name": "_tellorMasterAddress",
          "type": "address"
        }
      ],
      "stateMutability": "nonpayable",
      "type": "constructor"
    },
    {
      "inputs": [
        {
          "internalType": "uint256",
          "name": "_requestId",
          "type": "uint256"
        }
      ],
      "name": "getTellorCurrentValue",
      "outputs": [
        {
          "internalType": "bool",
          "name": "ifRetrieve",
          "type": "bool"
        },
        {
          "internalType": "uint256",
          "name": "value",
          "type": "uint256"
        },
        {
          "internalType": "uint256",
          "name": "_timestampRetrieved",
          "type": "uint256"
        }
      ],
      "stateMutability": "view",
      "type": "function"
    }
  ],
  "bytecode": "0x608060405234801561001057600080fd5b506040516104bf3803806104bf8339818101604052602081101561003357600080fd5b8101908080519060200190929190505050806000806101000a81548173ffffffffffffffffffffffffffffffffffffffff021916908373ffffffffffffffffffffffffffffffffffffffff1602179055505061042b806100946000396000f3fe608060405234801561001057600080fd5b506004361061002b5760003560e01c806332e6aadb14610030575b600080fd5b61005c6004803603602081101561004657600080fd5b8101908080359060200190929190505050610082565b604051808415158152602001838152602001828152602001935050505060405180910390f35b60008060008060008054906101000a900473ffffffffffffffffffffffffffffffffffffffff1673ffffffffffffffffffffffffffffffffffffffff166346eee1c4866040518263ffffffff1660e01b81526004018082815260200191505060206040518083038186803b1580156100f957600080fd5b505afa15801561010d573d6000803e3d6000fd5b505050506040513d602081101561012357600080fd5b8101908080519060200190929190505050905060008060009054906101000a900473ffffffffffffffffffffffffffffffffffffffff1673ffffffffffffffffffffffffffffffffffffffff166377fbb6638761018a6001866102eb90919063ffffffff16565b6040518363ffffffff1660e01b8152600401808381526020018281526020019250505060206040518083038186803b1580156101c557600080fd5b505afa1580156101d9573d6000803e3d6000fd5b505050506040513d60208110156101ef57600080fd5b8101908080519060200190929190505050905060008060009054906101000a900473ffffffffffffffffffffffffffffffffffffffff1673ffffffffffffffffffffffffffffffffffffffff166393fa491588846040518363ffffffff1660e01b8152600401808381526020018281526020019250505060206040518083038186803b15801561027e57600080fd5b505afa158015610292573d6000803e3d6000fd5b505050506040513d60208110156102a857600080fd5b8101908080519060200190929190505050905060008111156102d657600181839550955095505050506102e4565b600080839550955095505050505b9193909250565b600061032d83836040518060400160405280601e81526020017f536166654d6174683a207375627472616374696f6e206f766572666c6f770000815250610335565b905092915050565b60008383111582906103e2576040517f08c379a00000000000000000000000000000000000000000000000000000000081526004018080602001828103825283818151815260200191508051906020019080838360005b838110156103a757808201518184015260208101905061038c565b50505050905090810190601f1680156103d45780820380516001836020036101000a031916815260200191505b509250505060405180910390fd5b506000838503905080915050939250505056fea26469706673582212205a5546b818da39a3eacf4f7a3d018708efa7a3106c0fdaf808698dd5210deab264736f6c63430007060033",
  "immutableReferences": {},
  "source": "// SPDX-License-Identifier: MIT\n\npragma solidity >=0.6.0 <0.8.0;\n\nimport \"../Interfaces/ITellorCaller.sol\";\nimport \"./ITellor.sol\";\nimport \"./TestSafeMath.sol\";\n\n/*\n * This contract has a single external function that calls Tellor: getTellorCurrentValue().\n *\n * The function is called by the Liquity contract PriceFeed.sol. If any of its inner calls to Tellor revert,\n * this function will revert, and PriceFeed will catch the failure and handle it accordingly.\n *\n * The function comes from Tellor's own wrapper contract, 'UsingTellor.sol':\n * https://github.com/tellor-io/usingtellor/blob/master/contracts/UsingTellor.sol\n *\n */\ncontract TellorCaller is ITellorCaller {\n    using TestSafeMath for uint256;\n\n    ITellor tellor;\n\n    constructor(address _tellorMasterAddress) public {\n        tellor = ITellor(_tellorMasterAddress);\n    }\n\n    /*\n     * getTellorCurrentValue(): identical to getCurrentValue() in UsingTellor.sol\n     *\n     * @dev Allows the user to get the latest value for the requestId specified\n     * @param _requestId is the requestId to look up the value for\n     * @return ifRetrieve bool true if it is able to retrieve a value, the value, and the value's timestamp\n     * @return value the value retrieved\n     * @return _timestampRetrieved the value's timestamp\n     */\n    function getTellorCurrentValue(uint256 _requestId)\n        external\n        view\n        override\n        returns (\n            bool ifRetrieve,\n            uint256 value,\n            uint256 _timestampRetrieved\n        )\n    {\n        uint256 _count = tellor.getNewValueCountbyRequestId(_requestId);\n        uint256 _time =\n            tellor.getTimestampbyRequestIDandIndex(_requestId, _count.sub(1));\n        uint256 _value = tellor.retrieveData(_requestId, _time);\n        if (_value > 0) return (true, _value, _time);\n        return (false, 0, _time);\n    }\n}\n",
  "sourcePath": "/Users/dannywarrick/code/harp/client/src/contracts/Dependencies/TellorCaller.sol",
  "compiler": {
    "name": "solc",
    "version": "0.7.6+commit.7338295f.Emscripten.clang"
  },
  "schemaVersion": "3.3.4",
  "updatedAt": "2021-03-26T15:59:02.030Z",
  "devdoc": {
    "kind": "dev",
    "methods": {},
    "version": 1
  },
  "userdoc": {
    "kind": "user",
    "methods": {},
    "version": 1
  }
}