{
  "contractName": "TestLUSDToken",
  "abi": [
    {
      "inputs": [
        {
          "internalType": "address",
          "name": "_troveManagerAddress",
          "type": "address"
        },
        {
          "internalType": "address",
          "name": "_stabilityPoolAddress",
          "type": "address"
        },
        {
          "internalType": "address",
          "name": "_borrowerOperationsAddress",
          "type": "address"
        }
      ],
      "stateMutability": "nonpayable",
      "type": "constructor"
    },
    {
      "anonymous": false,
      "inputs": [
        {
          "indexed": true,
          "internalType": "address",
          "name": "owner",
          "type": "address"
        },
        {
          "indexed": true,
          "internalType": "address",
          "name": "spender",
          "type": "address"
        },
        {
          "indexed": false,
          "internalType": "uint256",
          "name": "value",
          "type": "uint256"
        }
      ],
      "name": "Approval",
      "type": "event"
    },
    {
      "anonymous": false,
      "inputs": [
        {
          "indexed": false,
          "internalType": "address",
          "name": "_newBorrowerOperationsAddress",
          "type": "address"
        }
      ],
      "name": "BorrowerOperationsAddressChanged",
      "type": "event"
    },
    {
      "anonymous": false,
      "inputs": [
        {
          "indexed": false,
          "internalType": "address",
          "name": "_user",
          "type": "address"
        },
        {
          "indexed": false,
          "internalType": "uint256",
          "name": "_amount",
          "type": "uint256"
        }
      ],
      "name": "LUSDTokenBalanceUpdated",
      "type": "event"
    },
    {
      "anonymous": false,
      "inputs": [
        {
          "indexed": false,
          "internalType": "address",
          "name": "_newStabilityPoolAddress",
          "type": "address"
        }
      ],
      "name": "StabilityPoolAddressChanged",
      "type": "event"
    },
    {
      "anonymous": false,
      "inputs": [
        {
          "indexed": true,
          "internalType": "address",
          "name": "from",
          "type": "address"
        },
        {
          "indexed": true,
          "internalType": "address",
          "name": "to",
          "type": "address"
        },
        {
          "indexed": false,
          "internalType": "uint256",
          "name": "value",
          "type": "uint256"
        }
      ],
      "name": "Transfer",
      "type": "event"
    },
    {
      "anonymous": false,
      "inputs": [
        {
          "indexed": false,
          "internalType": "address",
          "name": "_troveManagerAddress",
          "type": "address"
        }
      ],
      "name": "TroveManagerAddressChanged",
      "type": "event"
    },
    {
      "inputs": [],
      "name": "borrowerOperationsAddress",
      "outputs": [
        {
          "internalType": "address",
          "name": "",
          "type": "address"
        }
      ],
      "stateMutability": "view",
      "type": "function"
    },
    {
      "inputs": [],
      "name": "stabilityPoolAddress",
      "outputs": [
        {
          "internalType": "address",
          "name": "",
          "type": "address"
        }
      ],
      "stateMutability": "view",
      "type": "function"
    },
    {
      "inputs": [],
      "name": "troveManagerAddress",
      "outputs": [
        {
          "internalType": "address",
          "name": "",
          "type": "address"
        }
      ],
      "stateMutability": "view",
      "type": "function"
    },
    {
      "inputs": [
        {
          "internalType": "address",
          "name": "_account",
          "type": "address"
        },
        {
          "internalType": "uint256",
          "name": "_amount",
          "type": "uint256"
        }
      ],
      "name": "mint",
      "outputs": [],
      "stateMutability": "nonpayable",
      "type": "function"
    },
    {
      "inputs": [
        {
          "internalType": "address",
          "name": "_account",
          "type": "address"
        },
        {
          "internalType": "uint256",
          "name": "_amount",
          "type": "uint256"
        }
      ],
      "name": "burn",
      "outputs": [],
      "stateMutability": "nonpayable",
      "type": "function"
    },
    {
      "inputs": [
        {
          "internalType": "address",
          "name": "_sender",
          "type": "address"
        },
        {
          "internalType": "address",
          "name": "_poolAddress",
          "type": "address"
        },
        {
          "internalType": "uint256",
          "name": "_amount",
          "type": "uint256"
        }
      ],
      "name": "sendToPool",
      "outputs": [],
      "stateMutability": "nonpayable",
      "type": "function"
    },
    {
      "inputs": [
        {
          "internalType": "address",
          "name": "_poolAddress",
          "type": "address"
        },
        {
          "internalType": "address",
          "name": "_receiver",
          "type": "address"
        },
        {
          "internalType": "uint256",
          "name": "_amount",
          "type": "uint256"
        }
      ],
      "name": "returnFromPool",
      "outputs": [],
      "stateMutability": "nonpayable",
      "type": "function"
    },
    {
      "inputs": [],
      "name": "totalSupply",
      "outputs": [
        {
          "internalType": "uint256",
          "name": "",
          "type": "uint256"
        }
      ],
      "stateMutability": "view",
      "type": "function"
    },
    {
      "inputs": [
        {
          "internalType": "address",
          "name": "account",
          "type": "address"
        }
      ],
      "name": "balanceOf",
      "outputs": [
        {
          "internalType": "uint256",
          "name": "",
          "type": "uint256"
        }
      ],
      "stateMutability": "view",
      "type": "function"
    },
    {
      "inputs": [
        {
          "internalType": "address",
          "name": "recipient",
          "type": "address"
        },
        {
          "internalType": "uint256",
          "name": "amount",
          "type": "uint256"
        }
      ],
      "name": "transfer",
      "outputs": [
        {
          "internalType": "bool",
          "name": "",
          "type": "bool"
        }
      ],
      "stateMutability": "nonpayable",
      "type": "function"
    },
    {
      "inputs": [
        {
          "internalType": "address",
          "name": "owner",
          "type": "address"
        },
        {
          "internalType": "address",
          "name": "spender",
          "type": "address"
        }
      ],
      "name": "allowance",
      "outputs": [
        {
          "internalType": "uint256",
          "name": "",
          "type": "uint256"
        }
      ],
      "stateMutability": "view",
      "type": "function"
    },
    {
      "inputs": [
        {
          "internalType": "address",
          "name": "spender",
          "type": "address"
        },
        {
          "internalType": "uint256",
          "name": "amount",
          "type": "uint256"
        }
      ],
      "name": "approve",
      "outputs": [
        {
          "internalType": "bool",
          "name": "",
          "type": "bool"
        }
      ],
      "stateMutability": "nonpayable",
      "type": "function"
    },
    {
      "inputs": [
        {
          "internalType": "address",
          "name": "sender",
          "type": "address"
        },
        {
          "internalType": "address",
          "name": "recipient",
          "type": "address"
        },
        {
          "internalType": "uint256",
          "name": "amount",
          "type": "uint256"
        }
      ],
      "name": "transferFrom",
      "outputs": [
        {
          "internalType": "bool",
          "name": "",
          "type": "bool"
        }
      ],
      "stateMutability": "nonpayable",
      "type": "function"
    },
    {
      "inputs": [
        {
          "internalType": "address",
          "name": "spender",
          "type": "address"
        },
        {
          "internalType": "uint256",
          "name": "addedValue",
          "type": "uint256"
        }
      ],
      "name": "increaseAllowance",
      "outputs": [
        {
          "internalType": "bool",
          "name": "",
          "type": "bool"
        }
      ],
      "stateMutability": "nonpayable",
      "type": "function"
    },
    {
      "inputs": [
        {
          "internalType": "address",
          "name": "spender",
          "type": "address"
        },
        {
          "internalType": "uint256",
          "name": "subtractedValue",
          "type": "uint256"
        }
      ],
      "name": "decreaseAllowance",
      "outputs": [
        {
          "internalType": "bool",
          "name": "",
          "type": "bool"
        }
      ],
      "stateMutability": "nonpayable",
      "type": "function"
    },
    {
      "inputs": [],
      "name": "domainSeparator",
      "outputs": [
        {
          "internalType": "bytes32",
          "name": "",
          "type": "bytes32"
        }
      ],
      "stateMutability": "view",
      "type": "function"
    },
    {
      "inputs": [
        {
          "internalType": "address",
          "name": "owner",
          "type": "address"
        },
        {
          "internalType": "address",
          "name": "spender",
          "type": "address"
        },
        {
          "internalType": "uint256",
          "name": "amount",
          "type": "uint256"
        },
        {
          "internalType": "uint256",
          "name": "deadline",
          "type": "uint256"
        },
        {
          "internalType": "uint8",
          "name": "v",
          "type": "uint8"
        },
        {
          "internalType": "bytes32",
          "name": "r",
          "type": "bytes32"
        },
        {
          "internalType": "bytes32",
          "name": "s",
          "type": "bytes32"
        }
      ],
      "name": "permit",
      "outputs": [],
      "stateMutability": "nonpayable",
      "type": "function"
    },
    {
      "inputs": [
        {
          "internalType": "address",
          "name": "owner",
          "type": "address"
        }
      ],
      "name": "nonces",
      "outputs": [
        {
          "internalType": "uint256",
          "name": "",
          "type": "uint256"
        }
      ],
      "stateMutability": "view",
      "type": "function"
    },
    {
      "inputs": [],
      "name": "name",
      "outputs": [
        {
          "internalType": "string",
          "name": "",
          "type": "string"
        }
      ],
      "stateMutability": "view",
      "type": "function"
    },
    {
      "inputs": [],
      "name": "symbol",
      "outputs": [
        {
          "internalType": "string",
          "name": "",
          "type": "string"
        }
      ],
      "stateMutability": "view",
      "type": "function"
    },
    {
      "inputs": [],
      "name": "decimals",
      "outputs": [
        {
          "internalType": "uint8",
          "name": "",
          "type": "uint8"
        }
      ],
      "stateMutability": "view",
      "type": "function"
    },
    {
      "inputs": [],
      "name": "version",
      "outputs": [
        {
          "internalType": "string",
          "name": "",
          "type": "string"
        }
      ],
      "stateMutability": "view",
      "type": "function"
    },
    {
      "inputs": [],
      "name": "permitTypeHash",
      "outputs": [
        {
          "internalType": "bytes32",
          "name": "",
          "type": "bytes32"
        }
      ],
      "stateMutability": "view",
      "type": "function"
    }
  ],
  "bytecode": "0x6101606040523480156200001257600080fd5b50604051620027a9380380620027a9833981810160405260608110156200003857600080fd5b810190808051906020019092919080519060200190929190805190602001909291905050506200006e836200031060201b60201c565b6200007f826200031060201b60201c565b62000090816200031060201b60201c565b8273ffffffffffffffffffffffffffffffffffffffff166101008173ffffffffffffffffffffffffffffffffffffffff1660601b815250507f143219c9e69b09e07e095fcc889b43d8f46ca892bba65f08dc3a0050869a567883604051808273ffffffffffffffffffffffffffffffffffffffff16815260200191505060405180910390a18173ffffffffffffffffffffffffffffffffffffffff166101208173ffffffffffffffffffffffffffffffffffffffff1660601b815250507f82966d27eea39b038ee0fa30cd16532bb24f6e65d31cb58fb227aa5766cdcc7f82604051808273ffffffffffffffffffffffffffffffffffffffff16815260200191505060405180910390a18073ffffffffffffffffffffffffffffffffffffffff166101408173ffffffffffffffffffffffffffffffffffffffff1660601b815250507f3ca631ffcd2a9b5d9ae18543fc82f58eb4ca33af9e6ab01b7a8e95331e6ed98581604051808273ffffffffffffffffffffffffffffffffffffffff16815260200191505060405180910390a160006040518060400160405280600f81526020017f4c55534420537461626c65636f696e000000000000000000000000000000000081525080519060200120905060006040518060400160405280600181526020017f31000000000000000000000000000000000000000000000000000000000000008152508051906020012090508160c081815250508060e08181525050620002c16200043560201b60201c565b60a08181525050620002fe7f8b73c3c69bb8fe3d512ecc4cf759cc79239f7b179b0ffacaa9a75d522b39400f60001b83836200043e60201b60201c565b608081815250505050505050620004b5565b600073ffffffffffffffffffffffffffffffffffffffff168173ffffffffffffffffffffffffffffffffffffffff161415620003b4576040517f08c379a000000000000000000000000000000000000000000000000000000000815260040180806020018281038252601e8152602001807f4163636f756e742063616e6e6f74206265207a65726f2061646472657373000081525060200191505060405180910390fd5b6000813b90506000811162000431576040517f08c379a00000000000000000000000000000000000000000000000000000000081526004018080602001828103825260208152602001807f4163636f756e7420636f64652073697a652063616e6e6f74206265207a65726f81525060200191505060405180910390fd5b5050565b60006004905090565b6000838383620004536200043560201b60201c565b30604051602001808681526020018581526020018481526020018381526020018273ffffffffffffffffffffffffffffffffffffffff168152602001955050505050506040516020818303038152906040528051906020012090509392505050565b60805160a05160c05160e0516101005160601c6101205160601c6101405160601c6122656200054460003980610dc252806118115280611a025280611bf952508061099552806113e152806117625280611ca45280611eb6525080610bda528061138c52806117b95280611c4e5250806112075250806111e652508061116852508061119752506122656000f3fe608060405234801561001057600080fd5b506004361061014d5760003560e01c80635a4d28bb116100c3578063a9059cbb1161007c578063a9059cbb1461070a578063b7f8cf9b1461076e578063bb997bac146107a2578063d505accf14610810578063dd62ed3e146108a9578063f698da25146109215761014d565b80635a4d28bb146104f157806370a08231146105255780637ecebe001461057d57806395d89b41146105d55780639dc29fac14610658578063a457c2d7146106a65761014d565b806320c582be1161011557806320c582be146102a957806323b872dd14610317578063313ce5671461039b57806339509351146103bc57806340c10f191461042057806354fd4d501461046e5761014d565b806306fdde0314610152578063095ea7b3146101d55780630b622ab21461023957806310ce43bd1461026d57806318160ddd1461028b575b600080fd5b61015a61093f565b6040518080602001828103825283818151815260200191508051906020019080838360005b8381101561019a57808201518184015260208101905061017f565b50505050905090810190601f1680156101c75780820380516001836020036101000a031916815260200191505b509250505060405180910390f35b610221600480360360408110156101eb57600080fd5b81019080803573ffffffffffffffffffffffffffffffffffffffff1690602001909291908035906020019092919050505061097c565b60405180821515815260200191505060405180910390f35b610241610993565b604051808273ffffffffffffffffffffffffffffffffffffffff16815260200191505060405180910390f35b6102756109b7565b6040518082815260200191505060405180910390f35b6102936109e2565b6040518082815260200191505060405180910390f35b610315600480360360608110156102bf57600080fd5b81019080803573ffffffffffffffffffffffffffffffffffffffff169060200190929190803573ffffffffffffffffffffffffffffffffffffffff169060200190929190803590602001909291905050506109eb565b005b6103836004803603606081101561032d57600080fd5b81019080803573ffffffffffffffffffffffffffffffffffffffff169060200190929190803573ffffffffffffffffffffffffffffffffffffffff16906020019092919080359060200190929190505050610a03565b60405180821515815260200191505060405180910390f35b6103a3610ad7565b604051808260ff16815260200191505060405180910390f35b610408600480360360408110156103d257600080fd5b81019080803573ffffffffffffffffffffffffffffffffffffffff16906020019092919080359060200190929190505050610ae0565b60405180821515815260200191505060405180910390f35b61046c6004803603604081101561043657600080fd5b81019080803573ffffffffffffffffffffffffffffffffffffffff16906020019092919080359060200190929190505050610b85565b005b610476610b9b565b6040518080602001828103825283818151815260200191508051906020019080838360005b838110156104b657808201518184015260208101905061049b565b50505050905090810190601f1680156104e35780820380516001836020036101000a031916815260200191505b509250505060405180910390f35b6104f9610bd8565b604051808273ffffffffffffffffffffffffffffffffffffffff16815260200191505060405180910390f35b6105676004803603602081101561053b57600080fd5b81019080803573ffffffffffffffffffffffffffffffffffffffff169060200190929190505050610bfc565b6040518082815260200191505060405180910390f35b6105bf6004803603602081101561059357600080fd5b81019080803573ffffffffffffffffffffffffffffffffffffffff169060200190929190505050610c45565b6040518082815260200191505060405180910390f35b6105dd610c8e565b6040518080602001828103825283818151815260200191508051906020019080838360005b8381101561061d578082015181840152602081019050610602565b50505050905090810190601f16801561064a5780820380516001836020036101000a031916815260200191505b509250505060405180910390f35b6106a46004803603604081101561066e57600080fd5b81019080803573ffffffffffffffffffffffffffffffffffffffff16906020019092919080359060200190929190505050610ccb565b005b6106f2600480360360408110156106bc57600080fd5b81019080803573ffffffffffffffffffffffffffffffffffffffff16906020019092919080359060200190929190505050610ce1565b60405180821515815260200191505060405180910390f35b6107566004803603604081101561072057600080fd5b81019080803573ffffffffffffffffffffffffffffffffffffffff16906020019092919080359060200190929190505050610da0565b60405180821515815260200191505060405180910390f35b610776610dc0565b604051808273ffffffffffffffffffffffffffffffffffffffff16815260200191505060405180910390f35b61080e600480360360608110156107b857600080fd5b81019080803573ffffffffffffffffffffffffffffffffffffffff169060200190929190803573ffffffffffffffffffffffffffffffffffffffff16906020019092919080359060200190929190505050610de4565b005b6108a7600480360360e081101561082657600080fd5b81019080803573ffffffffffffffffffffffffffffffffffffffff169060200190929190803573ffffffffffffffffffffffffffffffffffffffff1690602001909291908035906020019092919080359060200190929190803560ff1690602001909291908035906020019092919080359060200190929190505050610dfc565b005b61090b600480360360408110156108bf57600080fd5b81019080803573ffffffffffffffffffffffffffffffffffffffff169060200190929190803573ffffffffffffffffffffffffffffffffffffffff1690602001909291905050506110dd565b6040518082815260200191505060405180910390f35b610929611164565b6040518082815260200191505060405180910390f35b60606040518060400160405280600f81526020017f4c55534420537461626c65636f696e0000000000000000000000000000000000815250905090565b6000610989338484611231565b6001905092915050565b7f000000000000000000000000000000000000000000000000000000000000000081565b60007f6e71edae12b1b97f4d1f60370fef10105fa2faae0126114a169c64845d6126c960001b905090565b60008054905090565b6109f361138a565b6109fe838383611486565b505050565b6000610a0e836116a2565b610a19848484611486565b610acc8433610ac78560405180606001604052806028815260200161213860289139600360008b73ffffffffffffffffffffffffffffffffffffffff1673ffffffffffffffffffffffffffffffffffffffff16815260200190815260200160002060003373ffffffffffffffffffffffffffffffffffffffff1673ffffffffffffffffffffffffffffffffffffffff168152602001908152602001600020546118b89092919063ffffffff16565b611231565b600190509392505050565b60006012905090565b6000610b7b3384610b7685600360003373ffffffffffffffffffffffffffffffffffffffff1673ffffffffffffffffffffffffffffffffffffffff16815260200190815260200160002060008973ffffffffffffffffffffffffffffffffffffffff1673ffffffffffffffffffffffffffffffffffffffff1681526020019081526020016000205461197890919063ffffffff16565b611231565b6001905092915050565b610b8d611a00565b610b978282611aa6565b5050565b60606040518060400160405280600181526020017f3100000000000000000000000000000000000000000000000000000000000000815250905090565b7f000000000000000000000000000000000000000000000000000000000000000081565b6000600260008373ffffffffffffffffffffffffffffffffffffffff1673ffffffffffffffffffffffffffffffffffffffff168152602001908152602001600020549050919050565b6000600160008373ffffffffffffffffffffffffffffffffffffffff1673ffffffffffffffffffffffffffffffffffffffff168152602001908152602001600020549050919050565b60606040518060400160405280600481526020017f4c55534400000000000000000000000000000000000000000000000000000000815250905090565b610cd3611bf7565b610cdd8282611d49565b5050565b6000610d963384610d91856040518060600160405280602581526020016121b760259139600360003373ffffffffffffffffffffffffffffffffffffffff1673ffffffffffffffffffffffffffffffffffffffff16815260200190815260200160002060008a73ffffffffffffffffffffffffffffffffffffffff1673ffffffffffffffffffffffffffffffffffffffff168152602001908152602001600020546118b89092919063ffffffff16565b611231565b6001905092915050565b6000610dab836116a2565b610db6338484611486565b6001905092915050565b7f000000000000000000000000000000000000000000000000000000000000000081565b610dec611eb4565b610df7838383611486565b505050565b42841015610e72576040517f08c379a00000000000000000000000000000000000000000000000000000000081526004018080602001828103825260168152602001807f4c5553443a206578706972656420646561646c696e650000000000000000000081525060200191505060405180910390fd5b6000610e7c611164565b7f6e71edae12b1b97f4d1f60370fef10105fa2faae0126114a169c64845d6126c960001b898989600160008e73ffffffffffffffffffffffffffffffffffffffff1673ffffffffffffffffffffffffffffffffffffffff1681526020019081526020016000206000815480929190600101919050558a604051602001808781526020018673ffffffffffffffffffffffffffffffffffffffff1681526020018573ffffffffffffffffffffffffffffffffffffffff16815260200184815260200183815260200182815260200196505050505050506040516020818303038152906040528051906020012060405160200180807f190100000000000000000000000000000000000000000000000000000000000081525060020183815260200182815260200192505050604051602081830303815290604052805190602001209050600060018286868660405160008152602001604052604051808581526020018460ff1681526020018381526020018281526020019450505050506020604051602081039080840390855afa15801561101a573d6000803e3d6000fd5b5050506020604051035190508873ffffffffffffffffffffffffffffffffffffffff168173ffffffffffffffffffffffffffffffffffffffff16146110c7576040517f08c379a00000000000000000000000000000000000000000000000000000000081526004018080602001828103825260178152602001807f4c5553443a20696e76616c6964207369676e617475726500000000000000000081525060200191505060405180910390fd5b6110d2898989611231565b505050505050505050565b6000600360008473ffffffffffffffffffffffffffffffffffffffff1673ffffffffffffffffffffffffffffffffffffffff16815260200190815260200160002060008373ffffffffffffffffffffffffffffffffffffffff1673ffffffffffffffffffffffffffffffffffffffff16815260200190815260200160002054905092915050565b60007f000000000000000000000000000000000000000000000000000000000000000061118f611f5a565b14156111bd577f0000000000000000000000000000000000000000000000000000000000000000905061122e565b61122b7f8b73c3c69bb8fe3d512ecc4cf759cc79239f7b179b0ffacaa9a75d522b39400f60001b7f00000000000000000000000000000000000000000000000000000000000000007f0000000000000000000000000000000000000000000000000000000000000000611f63565b90505b90565b600073ffffffffffffffffffffffffffffffffffffffff168373ffffffffffffffffffffffffffffffffffffffff16141561126857fe5b600073ffffffffffffffffffffffffffffffffffffffff168273ffffffffffffffffffffffffffffffffffffffff16141561129f57fe5b80600360008573ffffffffffffffffffffffffffffffffffffffff1673ffffffffffffffffffffffffffffffffffffffff16815260200190815260200160002060008473ffffffffffffffffffffffffffffffffffffffff1673ffffffffffffffffffffffffffffffffffffffff168152602001908152602001600020819055508173ffffffffffffffffffffffffffffffffffffffff168373ffffffffffffffffffffffffffffffffffffffff167f8c5be1e5ebec7d5bd14f71427d1e84f3dd0314c0f7b2291e5b200ac8c7c3b925836040518082815260200191505060405180910390a3505050565b7f000000000000000000000000000000000000000000000000000000000000000073ffffffffffffffffffffffffffffffffffffffff163373ffffffffffffffffffffffffffffffffffffffff16148061142f57507f000000000000000000000000000000000000000000000000000000000000000073ffffffffffffffffffffffffffffffffffffffff163373ffffffffffffffffffffffffffffffffffffffff16145b611484576040517f08c379a000000000000000000000000000000000000000000000000000000000815260040180806020018281038252603681526020018061201d6036913960400191505060405180910390fd5b565b600073ffffffffffffffffffffffffffffffffffffffff168373ffffffffffffffffffffffffffffffffffffffff1614156114bd57fe5b600073ffffffffffffffffffffffffffffffffffffffff168273ffffffffffffffffffffffffffffffffffffffff1614156114f457fe5b6115608160405180606001604052806026815260200161207560269139600260008773ffffffffffffffffffffffffffffffffffffffff1673ffffffffffffffffffffffffffffffffffffffff168152602001908152602001600020546118b89092919063ffffffff16565b600260008573ffffffffffffffffffffffffffffffffffffffff1673ffffffffffffffffffffffffffffffffffffffff168152602001908152602001600020819055506115f581600260008573ffffffffffffffffffffffffffffffffffffffff1673ffffffffffffffffffffffffffffffffffffffff1681526020019081526020016000205461197890919063ffffffff16565b600260008473ffffffffffffffffffffffffffffffffffffffff1673ffffffffffffffffffffffffffffffffffffffff168152602001908152602001600020819055508173ffffffffffffffffffffffffffffffffffffffff168373ffffffffffffffffffffffffffffffffffffffff167fddf252ad1be2c89b69c2b068fc378daa952ba7f163c4a11628f55a4df523b3ef836040518082815260200191505060405180910390a3505050565b600073ffffffffffffffffffffffffffffffffffffffff168173ffffffffffffffffffffffffffffffffffffffff161415801561170b57503073ffffffffffffffffffffffffffffffffffffffff168173ffffffffffffffffffffffffffffffffffffffff1614155b611760576040517f08c379a00000000000000000000000000000000000000000000000000000000081526004018080602001828103825260548152602001806121dc6054913960600191505060405180910390fd5b7f000000000000000000000000000000000000000000000000000000000000000073ffffffffffffffffffffffffffffffffffffffff168173ffffffffffffffffffffffffffffffffffffffff161415801561180857507f000000000000000000000000000000000000000000000000000000000000000073ffffffffffffffffffffffffffffffffffffffff168173ffffffffffffffffffffffffffffffffffffffff1614155b801561186057507f000000000000000000000000000000000000000000000000000000000000000073ffffffffffffffffffffffffffffffffffffffff168173ffffffffffffffffffffffffffffffffffffffff1614155b6118b5576040517f08c379a00000000000000000000000000000000000000000000000000000000081526004018080602001828103825260578152602001806121606057913960600191505060405180910390fd5b50565b6000838311158290611965576040517f08c379a00000000000000000000000000000000000000000000000000000000081526004018080602001828103825283818151815260200191508051906020019080838360005b8381101561192a57808201518184015260208101905061190f565b50505050905090810190601f1680156119575780820380516001836020036101000a031916815260200191505b509250505060405180910390fd5b5060008385039050809150509392505050565b6000808284019050838110156119f6576040517f08c379a000000000000000000000000000000000000000000000000000000000815260040180806020018281038252601b8152602001807f536166654d6174683a206164646974696f6e206f766572666c6f77000000000081525060200191505060405180910390fd5b8091505092915050565b7f000000000000000000000000000000000000000000000000000000000000000073ffffffffffffffffffffffffffffffffffffffff163373ffffffffffffffffffffffffffffffffffffffff1614611aa4576040517f08c379a000000000000000000000000000000000000000000000000000000000815260040180806020018281038252602b81526020018061210d602b913960400191505060405180910390fd5b565b600073ffffffffffffffffffffffffffffffffffffffff168273ffffffffffffffffffffffffffffffffffffffff161415611add57fe5b611af28160005461197890919063ffffffff16565b600081905550611b4a81600260008573ffffffffffffffffffffffffffffffffffffffff1673ffffffffffffffffffffffffffffffffffffffff1681526020019081526020016000205461197890919063ffffffff16565b600260008473ffffffffffffffffffffffffffffffffffffffff1673ffffffffffffffffffffffffffffffffffffffff168152602001908152602001600020819055508173ffffffffffffffffffffffffffffffffffffffff16600073ffffffffffffffffffffffffffffffffffffffff167fddf252ad1be2c89b69c2b068fc378daa952ba7f163c4a11628f55a4df523b3ef836040518082815260200191505060405180910390a35050565b7f000000000000000000000000000000000000000000000000000000000000000073ffffffffffffffffffffffffffffffffffffffff163373ffffffffffffffffffffffffffffffffffffffff161480611c9c57507f000000000000000000000000000000000000000000000000000000000000000073ffffffffffffffffffffffffffffffffffffffff163373ffffffffffffffffffffffffffffffffffffffff16145b80611cf257507f000000000000000000000000000000000000000000000000000000000000000073ffffffffffffffffffffffffffffffffffffffff163373ffffffffffffffffffffffffffffffffffffffff16145b611d47576040517f08c379a000000000000000000000000000000000000000000000000000000000815260040180806020018281038252604d81526020018061209b604d913960600191505060405180910390fd5b565b600073ffffffffffffffffffffffffffffffffffffffff168273ffffffffffffffffffffffffffffffffffffffff161415611d8057fe5b611dec8160405180606001604052806022815260200161205360229139600260008673ffffffffffffffffffffffffffffffffffffffff1673ffffffffffffffffffffffffffffffffffffffff168152602001908152602001600020546118b89092919063ffffffff16565b600260008473ffffffffffffffffffffffffffffffffffffffff1673ffffffffffffffffffffffffffffffffffffffff16815260200190815260200160002081905550611e4481600054611fd290919063ffffffff16565b600081905550600073ffffffffffffffffffffffffffffffffffffffff168273ffffffffffffffffffffffffffffffffffffffff167fddf252ad1be2c89b69c2b068fc378daa952ba7f163c4a11628f55a4df523b3ef836040518082815260200191505060405180910390a35050565b7f000000000000000000000000000000000000000000000000000000000000000073ffffffffffffffffffffffffffffffffffffffff163373ffffffffffffffffffffffffffffffffffffffff1614611f58576040517f08c379a00000000000000000000000000000000000000000000000000000000081526004018080602001828103825260258152602001806120e86025913960400191505060405180910390fd5b565b60006004905090565b6000838383611f70611f5a565b30604051602001808681526020018581526020018481526020018381526020018273ffffffffffffffffffffffffffffffffffffffff168152602001955050505050506040516020818303038152906040528051906020012090509392505050565b600061201483836040518060400160405280601e81526020017f536166654d6174683a207375627472616374696f6e206f766572666c6f7700008152506118b8565b90509291505056fe4c5553443a2043616c6c6572206973206e6569746865722054726f76654d616e61676572206e6f722053746162696c697479506f6f6c45524332303a206275726e20616d6f756e7420657863656564732062616c616e636545524332303a207472616e7366657220616d6f756e7420657863656564732062616c616e63654c5553443a2043616c6c6572206973206e65697468657220426f72726f7765724f7065726174696f6e73206e6f722054726f76654d616e61676572206e6f722053746162696c697479506f6f6c4c5553443a2043616c6c6572206973206e6f74207468652053746162696c697479506f6f6c4c555344546f6b656e3a2043616c6c6572206973206e6f7420426f72726f7765724f7065726174696f6e7345524332303a207472616e7366657220616d6f756e74206578636565647320616c6c6f77616e63654c5553443a2043616e6e6f74207472616e7366657220746f6b656e73206469726563746c7920746f207468652053746162696c697479506f6f6c2c2054726f76654d616e61676572206f7220426f72726f7765724f707345524332303a2064656372656173656420616c6c6f77616e63652062656c6f77207a65726f4c5553443a2043616e6e6f74207472616e7366657220746f6b656e73206469726563746c7920746f20746865204c55534420746f6b656e20636f6e7472616374206f7220746865207a65726f2061646472657373a2646970667358221220841e73da6badf694d985028b45cdb8cc828ee3fb431148d16e8c880a3cb0879d64736f6c63430007060033",
  "immutableReferences": {
    "23793": [
      {
        "length": 32,
        "start": 4503
      }
    ],
    "23795": [
      {
        "length": 32,
        "start": 4456
      }
    ],
    "23797": [
      {
        "length": 32,
        "start": 4582
      }
    ],
    "23799": [
      {
        "length": 32,
        "start": 4615
      }
    ],
    "23815": [
      {
        "length": 32,
        "start": 3034
      },
      {
        "length": 32,
        "start": 5004
      },
      {
        "length": 32,
        "start": 6073
      },
      {
        "length": 32,
        "start": 7246
      }
    ],
    "23817": [
      {
        "length": 32,
        "start": 2453
      },
      {
        "length": 32,
        "start": 5089
      },
      {
        "length": 32,
        "start": 5986
      },
      {
        "length": 32,
        "start": 7332
      },
      {
        "length": 32,
        "start": 7862
      }
    ],
    "23819": [
      {
        "length": 32,
        "start": 3522
      },
      {
        "length": 32,
        "start": 6161
      },
      {
        "length": 32,
        "start": 6658
      },
      {
        "length": 32,
        "start": 7161
      }
    ]
  },
  "source": "// SPDX-License-Identifier: MIT\r\n\r\npragma solidity >=0.6.0 <0.8.0;\r\n\r\nimport \"./Interfaces/ILUSDToken.sol\";\r\nimport \"./Dependencies/TestSafeMath.sol\";\r\nimport \"./Dependencies/CheckContract.sol\";\r\nimport \"./Dependencies/console.sol\";\r\n\r\n/*\r\n *\r\n * Based upon OpenZeppelin's ERC20 contract:\r\n * https://github.com/OpenZeppelin/openzeppelin-contracts/blob/master/contracts/token/ERC20/ERC20.sol\r\n *\r\n * and their EIP2612 (ERC20Permit / ERC712) functionality:\r\n * https://github.com/OpenZeppelin/openzeppelin-contracts/blob/53516bc555a454862470e7860a9b5254db4d00f5/contracts/token/ERC20/ERC20Permit.sol\r\n *\r\n *\r\n * --- Functionality added specific to the LUSDToken ---\r\n *\r\n * 1) Transfer protection: blacklist of addresses that are invalid recipients (i.e. core Liquity contracts) in external\r\n * transfer() and transferFrom() calls. The purpose is to protect users from losing tokens by mistakenly sending LUSD directly to a Liquity\r\n * core contract, when they should rather call the right function.\r\n *\r\n * 2) sendToPool() and returnFromPool(): functions callable only Liquity core contracts, which move LUSD tokens between Liquity <-> user.\r\n */\r\n\r\ncontract TestLUSDToken is CheckContract, ILUSDToken {\r\n    using TestSafeMath for uint256;\r\n\r\n    uint256 private _totalSupply;\r\n    string internal constant _NAME = \"LUSD Stablecoin\";\r\n    string internal constant _SYMBOL = \"LUSD\";\r\n    string internal constant _VERSION = \"1\";\r\n    uint8 internal constant _DECIMALS = 18;\r\n\r\n    // --- Data for EIP2612 ---\r\n\r\n    // keccak256(\"Permit(address owner,address spender,uint256 value,uint256 nonce,uint256 deadline)\");\r\n    bytes32 private constant _PERMIT_TYPEHASH =\r\n        0x6e71edae12b1b97f4d1f60370fef10105fa2faae0126114a169c64845d6126c9;\r\n    // keccak256(\"EIP712Domain(string name,string version,uint256 chainId,address verifyingContract)\");\r\n    bytes32 private constant _TYPE_HASH =\r\n        0x8b73c3c69bb8fe3d512ecc4cf759cc79239f7b179b0ffacaa9a75d522b39400f;\r\n\r\n    // Cache the domain separator as an immutable value, but also store the chain id that it corresponds to, in order to\r\n    // invalidate the cached domain separator if the chain id changes.\r\n    bytes32 private immutable _CACHED_DOMAIN_SEPARATOR;\r\n    uint256 private immutable _CACHED_CHAIN_ID;\r\n\r\n    bytes32 private immutable _HASHED_NAME;\r\n    bytes32 private immutable _HASHED_VERSION;\r\n\r\n    mapping(address => uint256) private _nonces;\r\n\r\n    // User data for LUSD token\r\n    mapping(address => uint256) private _balances;\r\n    mapping(address => mapping(address => uint256)) private _allowances;\r\n\r\n    // --- Addresses ---\r\n    address public immutable troveManagerAddress;\r\n    address public immutable stabilityPoolAddress;\r\n    address public immutable borrowerOperationsAddress;\r\n\r\n    constructor(\r\n        address _troveManagerAddress,\r\n        address _stabilityPoolAddress,\r\n        address _borrowerOperationsAddress\r\n    ) public {\r\n        checkContract(_troveManagerAddress);\r\n        checkContract(_stabilityPoolAddress);\r\n        checkContract(_borrowerOperationsAddress);\r\n\r\n        troveManagerAddress = _troveManagerAddress;\r\n        emit TroveManagerAddressChanged(_troveManagerAddress);\r\n\r\n        stabilityPoolAddress = _stabilityPoolAddress;\r\n        emit StabilityPoolAddressChanged(_stabilityPoolAddress);\r\n\r\n        borrowerOperationsAddress = _borrowerOperationsAddress;\r\n        emit BorrowerOperationsAddressChanged(_borrowerOperationsAddress);\r\n\r\n        bytes32 hashedName = keccak256(bytes(_NAME));\r\n        bytes32 hashedVersion = keccak256(bytes(_VERSION));\r\n\r\n        _HASHED_NAME = hashedName;\r\n        _HASHED_VERSION = hashedVersion;\r\n        _CACHED_CHAIN_ID = _chainID();\r\n        _CACHED_DOMAIN_SEPARATOR = _buildDomainSeparator(\r\n            _TYPE_HASH,\r\n            hashedName,\r\n            hashedVersion\r\n        );\r\n    }\r\n\r\n    // --- Functions for intra-Liquity calls ---\r\n\r\n    function mint(address _account, uint256 _amount) external override {\r\n        _requireCallerIsBorrowerOperations();\r\n        _mint(_account, _amount);\r\n    }\r\n\r\n    function burn(address _account, uint256 _amount) external override {\r\n        _requireCallerIsBOorTroveMorSP();\r\n        _burn(_account, _amount);\r\n    }\r\n\r\n    function sendToPool(\r\n        address _sender,\r\n        address _poolAddress,\r\n        uint256 _amount\r\n    ) external override {\r\n        _requireCallerIsStabilityPool();\r\n        _transfer(_sender, _poolAddress, _amount);\r\n    }\r\n\r\n    function returnFromPool(\r\n        address _poolAddress,\r\n        address _receiver,\r\n        uint256 _amount\r\n    ) external override {\r\n        _requireCallerIsTroveMorSP();\r\n        _transfer(_poolAddress, _receiver, _amount);\r\n    }\r\n\r\n    // --- External functions ---\r\n\r\n    function totalSupply() external view override returns (uint256) {\r\n        return _totalSupply;\r\n    }\r\n\r\n    function balanceOf(address account)\r\n        external\r\n        view\r\n        override\r\n        returns (uint256)\r\n    {\r\n        return _balances[account];\r\n    }\r\n\r\n    function transfer(address recipient, uint256 amount)\r\n        external\r\n        override\r\n        returns (bool)\r\n    {\r\n        _requireValidRecipient(recipient);\r\n        _transfer(msg.sender, recipient, amount);\r\n        return true;\r\n    }\r\n\r\n    function allowance(address owner, address spender)\r\n        external\r\n        view\r\n        override\r\n        returns (uint256)\r\n    {\r\n        return _allowances[owner][spender];\r\n    }\r\n\r\n    function approve(address spender, uint256 amount)\r\n        external\r\n        override\r\n        returns (bool)\r\n    {\r\n        _approve(msg.sender, spender, amount);\r\n        return true;\r\n    }\r\n\r\n    function transferFrom(\r\n        address sender,\r\n        address recipient,\r\n        uint256 amount\r\n    ) external override returns (bool) {\r\n        _requireValidRecipient(recipient);\r\n        _transfer(sender, recipient, amount);\r\n        _approve(\r\n            sender,\r\n            msg.sender,\r\n            _allowances[sender][msg.sender].sub(\r\n                amount,\r\n                \"ERC20: transfer amount exceeds allowance\"\r\n            )\r\n        );\r\n        return true;\r\n    }\r\n\r\n    function increaseAllowance(address spender, uint256 addedValue)\r\n        external\r\n        override\r\n        returns (bool)\r\n    {\r\n        _approve(\r\n            msg.sender,\r\n            spender,\r\n            _allowances[msg.sender][spender].add(addedValue)\r\n        );\r\n        return true;\r\n    }\r\n\r\n    function decreaseAllowance(address spender, uint256 subtractedValue)\r\n        external\r\n        override\r\n        returns (bool)\r\n    {\r\n        _approve(\r\n            msg.sender,\r\n            spender,\r\n            _allowances[msg.sender][spender].sub(\r\n                subtractedValue,\r\n                \"ERC20: decreased allowance below zero\"\r\n            )\r\n        );\r\n        return true;\r\n    }\r\n\r\n    // --- EIP 2612 Functionality ---\r\n\r\n    function domainSeparator() public view override returns (bytes32) {\r\n        if (_chainID() == _CACHED_CHAIN_ID) {\r\n            return _CACHED_DOMAIN_SEPARATOR;\r\n        } else {\r\n            return\r\n                _buildDomainSeparator(\r\n                    _TYPE_HASH,\r\n                    _HASHED_NAME,\r\n                    _HASHED_VERSION\r\n                );\r\n        }\r\n    }\r\n\r\n    function permit(\r\n        address owner,\r\n        address spender,\r\n        uint256 amount,\r\n        uint256 deadline,\r\n        uint8 v,\r\n        bytes32 r,\r\n        bytes32 s\r\n    ) external override {\r\n        require(deadline >= block.timestamp, \"LUSD: expired deadline\");\r\n        bytes32 digest =\r\n            keccak256(\r\n                abi.encodePacked(\r\n                    \"\\x19\\x01\",\r\n                    domainSeparator(),\r\n                    keccak256(\r\n                        abi.encode(\r\n                            _PERMIT_TYPEHASH,\r\n                            owner,\r\n                            spender,\r\n                            amount,\r\n                            _nonces[owner]++,\r\n                            deadline\r\n                        )\r\n                    )\r\n                )\r\n            );\r\n        address recoveredAddress = ecrecover(digest, v, r, s);\r\n        require(recoveredAddress == owner, \"LUSD: invalid signature\");\r\n        _approve(owner, spender, amount);\r\n    }\r\n\r\n    function nonces(address owner) external view override returns (uint256) {\r\n        // FOR EIP 2612\r\n        return _nonces[owner];\r\n    }\r\n\r\n    // --- Internal operations ---\r\n\r\n    function _chainID() private pure returns (uint256 chainID) {\r\n        return 4;\r\n    }\r\n\r\n    function _buildDomainSeparator(\r\n        bytes32 typeHash,\r\n        bytes32 name,\r\n        bytes32 version\r\n    ) private view returns (bytes32) {\r\n        return\r\n            keccak256(\r\n                abi.encode(typeHash, name, version, _chainID(), address(this))\r\n            );\r\n    }\r\n\r\n    // --- Internal operations ---\r\n    // Warning: sanity checks (for sender and recipient) should have been done before calling these internal functions\r\n\r\n    function _transfer(\r\n        address sender,\r\n        address recipient,\r\n        uint256 amount\r\n    ) internal {\r\n        assert(sender != address(0));\r\n        assert(recipient != address(0));\r\n\r\n        _balances[sender] = _balances[sender].sub(\r\n            amount,\r\n            \"ERC20: transfer amount exceeds balance\"\r\n        );\r\n        _balances[recipient] = _balances[recipient].add(amount);\r\n        emit Transfer(sender, recipient, amount);\r\n    }\r\n\r\n    function _mint(address account, uint256 amount) internal {\r\n        assert(account != address(0));\r\n\r\n        _totalSupply = _totalSupply.add(amount);\r\n        _balances[account] = _balances[account].add(amount);\r\n        emit Transfer(address(0), account, amount);\r\n    }\r\n\r\n    function _burn(address account, uint256 amount) internal {\r\n        assert(account != address(0));\r\n\r\n        _balances[account] = _balances[account].sub(\r\n            amount,\r\n            \"ERC20: burn amount exceeds balance\"\r\n        );\r\n        _totalSupply = _totalSupply.sub(amount);\r\n        emit Transfer(account, address(0), amount);\r\n    }\r\n\r\n    function _approve(\r\n        address owner,\r\n        address spender,\r\n        uint256 amount\r\n    ) internal {\r\n        assert(owner != address(0));\r\n        assert(spender != address(0));\r\n\r\n        _allowances[owner][spender] = amount;\r\n        emit Approval(owner, spender, amount);\r\n    }\r\n\r\n    // --- 'require' functions ---\r\n\r\n    function _requireValidRecipient(address _recipient) internal view {\r\n        require(\r\n            _recipient != address(0) && _recipient != address(this),\r\n            \"LUSD: Cannot transfer tokens directly to the LUSD token contract or the zero address\"\r\n        );\r\n        require(\r\n            _recipient != stabilityPoolAddress &&\r\n                _recipient != troveManagerAddress &&\r\n                _recipient != borrowerOperationsAddress,\r\n            \"LUSD: Cannot transfer tokens directly to the StabilityPool, TroveManager or BorrowerOps\"\r\n        );\r\n    }\r\n\r\n    function _requireCallerIsBorrowerOperations() internal view {\r\n        require(\r\n            msg.sender == borrowerOperationsAddress,\r\n            \"LUSDToken: Caller is not BorrowerOperations\"\r\n        );\r\n    }\r\n\r\n    function _requireCallerIsBOorTroveMorSP() internal view {\r\n        require(\r\n            msg.sender == borrowerOperationsAddress ||\r\n                msg.sender == troveManagerAddress ||\r\n                msg.sender == stabilityPoolAddress,\r\n            \"LUSD: Caller is neither BorrowerOperations nor TroveManager nor StabilityPool\"\r\n        );\r\n    }\r\n\r\n    function _requireCallerIsStabilityPool() internal view {\r\n        require(\r\n            msg.sender == stabilityPoolAddress,\r\n            \"LUSD: Caller is not the StabilityPool\"\r\n        );\r\n    }\r\n\r\n    function _requireCallerIsTroveMorSP() internal view {\r\n        require(\r\n            msg.sender == troveManagerAddress ||\r\n                msg.sender == stabilityPoolAddress,\r\n            \"LUSD: Caller is neither TroveManager nor StabilityPool\"\r\n        );\r\n    }\r\n\r\n    // --- Optional functions ---\r\n\r\n    function name() external view override returns (string memory) {\r\n        return _NAME;\r\n    }\r\n\r\n    function symbol() external view override returns (string memory) {\r\n        return _SYMBOL;\r\n    }\r\n\r\n    function decimals() external view override returns (uint8) {\r\n        return _DECIMALS;\r\n    }\r\n\r\n    function version() external view override returns (string memory) {\r\n        return _VERSION;\r\n    }\r\n\r\n    function permitTypeHash() external view override returns (bytes32) {\r\n        return _PERMIT_TYPEHASH;\r\n    }\r\n}\r\n",
  "sourcePath": "C:/Users/danie/code/harp/client/src/contracts/TestLUSDToken.sol",
  "compiler": {
    "name": "solc",
    "version": "0.7.6+commit.7338295f.Emscripten.clang"
  },
  "schemaVersion": "3.3.3",
  "updatedAt": "2021-02-20T17:04:58.427Z",
  "devdoc": {
    "kind": "dev",
    "methods": {
      "allowance(address,address)": {
        "details": "Returns the remaining number of tokens that `spender` will be allowed to spend on behalf of `owner` through {transferFrom}. This is zero by default. This value changes when {approve} or {transferFrom} are called."
      },
      "approve(address,uint256)": {
        "details": "Sets `amount` as the allowance of `spender` over the caller's tokens. Returns a boolean value indicating whether the operation succeeded. IMPORTANT: Beware that changing an allowance with this method brings the risk that someone may use both the old and the new allowance by unfortunate transaction ordering. One possible solution to mitigate this race condition is to first reduce the spender's allowance to 0 and set the desired value afterwards: https://github.com/ethereum/EIPs/issues/20#issuecomment-263524729 Emits an {Approval} event."
      },
      "balanceOf(address)": {
        "details": "Returns the amount of tokens owned by `account`."
      },
      "nonces(address)": {
        "details": "Returns the current ERC2612 nonce for `owner`. This value must be included whenever a signature is generated for {permit}. Every successful call to {permit} increases `owner`'s nonce by one. This prevents a signature from being used multiple times. `owner` can limit the time a Permit is valid for by setting `deadline` to a value in the near future. The deadline argument can be set to uint(-1) to create Permits that effectively never expire."
      },
      "permit(address,address,uint256,uint256,uint8,bytes32,bytes32)": {
        "details": "Sets `amount` as the allowance of `spender` over `owner`'s tokens, given `owner`'s signed approval. IMPORTANT: The same issues {IERC20-approve} has related to transaction ordering also apply here. Emits an {Approval} event. Requirements: - `owner` cannot be the zero address. - `spender` cannot be the zero address. - `deadline` must be a timestamp in the future. - `v`, `r` and `s` must be a valid `secp256k1` signature from `owner` over the EIP712-formatted function arguments. - the signature must use ``owner``'s current nonce (see {nonces}). For more information on the signature format, see the https://eips.ethereum.org/EIPS/eip-2612#specification[relevant EIP section]."
      },
      "totalSupply()": {
        "details": "Returns the amount of tokens in existence."
      },
      "transfer(address,uint256)": {
        "details": "Moves `amount` tokens from the caller's account to `recipient`. Returns a boolean value indicating whether the operation succeeded. Emits a {Transfer} event."
      },
      "transferFrom(address,address,uint256)": {
        "details": "Moves `amount` tokens from `sender` to `recipient` using the allowance mechanism. `amount` is then deducted from the caller's allowance. Returns a boolean value indicating whether the operation succeeded. Emits a {Transfer} event."
      }
    },
    "version": 1
  },
  "userdoc": {
    "kind": "user",
    "methods": {},
    "version": 1
  }
}