{
  "contractName": "TokenVesting",
  "abi": [
    {
      "inputs": [
        {
          "internalType": "address",
          "name": "_vestingAddress",
          "type": "address"
        },
        {
          "internalType": "uint256",
          "name": "_days",
          "type": "uint256"
        },
        {
          "internalType": "contract StringToken",
          "name": "_stringToken",
          "type": "address"
        }
      ],
      "stateMutability": "nonpayable",
      "type": "constructor"
    },
    {
      "inputs": [],
      "name": "AngelDAOAddress",
      "outputs": [
        {
          "internalType": "address",
          "name": "",
          "type": "address"
        }
      ],
      "stateMutability": "view",
      "type": "function"
    },
    {
      "inputs": [],
      "name": "AngelDAOAllocation",
      "outputs": [
        {
          "internalType": "uint256",
          "name": "",
          "type": "uint256"
        }
      ],
      "stateMutability": "view",
      "type": "function"
    },
    {
      "inputs": [],
      "name": "AngelDAOAllocationLeft",
      "outputs": [
        {
          "internalType": "uint256",
          "name": "",
          "type": "uint256"
        }
      ],
      "stateMutability": "view",
      "type": "function"
    },
    {
      "inputs": [],
      "name": "dailyVestingRate",
      "outputs": [
        {
          "internalType": "uint256",
          "name": "",
          "type": "uint256"
        }
      ],
      "stateMutability": "view",
      "type": "function"
    },
    {
      "inputs": [],
      "name": "lastDistributionTime",
      "outputs": [
        {
          "internalType": "uint256",
          "name": "",
          "type": "uint256"
        }
      ],
      "stateMutability": "view",
      "type": "function"
    },
    {
      "inputs": [],
      "name": "startDistributionTime",
      "outputs": [
        {
          "internalType": "uint256",
          "name": "",
          "type": "uint256"
        }
      ],
      "stateMutability": "view",
      "type": "function"
    },
    {
      "inputs": [],
      "name": "stringToken",
      "outputs": [
        {
          "internalType": "contract StringToken",
          "name": "",
          "type": "address"
        }
      ],
      "stateMutability": "view",
      "type": "function"
    },
    {
      "inputs": [],
      "name": "vestingComplete",
      "outputs": [
        {
          "internalType": "bool",
          "name": "",
          "type": "bool"
        }
      ],
      "stateMutability": "view",
      "type": "function"
    },
    {
      "inputs": [],
      "name": "vestingPeriodDays",
      "outputs": [
        {
          "internalType": "uint256",
          "name": "",
          "type": "uint256"
        }
      ],
      "stateMutability": "view",
      "type": "function"
    },
    {
      "inputs": [],
      "name": "vestingStarted",
      "outputs": [
        {
          "internalType": "bool",
          "name": "",
          "type": "bool"
        }
      ],
      "stateMutability": "view",
      "type": "function"
    },
    {
      "inputs": [],
      "name": "start",
      "outputs": [],
      "stateMutability": "nonpayable",
      "type": "function"
    },
    {
      "inputs": [],
      "name": "releasePending",
      "outputs": [],
      "stateMutability": "nonpayable",
      "type": "function"
    }
  ],
  "bytecode": "0x608060405269d3c21bcecceda100000060005569d3c21bcecceda10000006001556000600260006101000a81548160ff0219169083151502179055506000600260016101000a81548160ff02191690831515021790555034801561006257600080fd5b50604051610be6380380610be68339818101604052606081101561008557600080fd5b8101908080519060200190929190805190602001909291908051906020019092919050505082600760006101000a81548173ffffffffffffffffffffffffffffffffffffffff021916908373ffffffffffffffffffffffffffffffffffffffff1602179055508160048190555061010b8260005461015a60201b61062d1790919060201c565b60038190555080600860006101000a81548173ffffffffffffffffffffffffffffffffffffffff021916908373ffffffffffffffffffffffffffffffffffffffff1602179055505050506101e3565b60008082116101d1576040517f08c379a000000000000000000000000000000000000000000000000000000000815260040180806020018281038252601a8152602001807f536166654d6174683a206469766973696f6e206279207a65726f00000000000081525060200191505060405180910390fd5b8183816101da57fe5b04905092915050565b6109f4806101f26000396000f3fe608060405234801561001057600080fd5b50600436106100b35760003560e01c806392fe24eb1161007157806392fe24eb14610198578063a9a08496146101ba578063be9a6555146101d8578063df5e8987146101e2578063f7542e741461022c578063f998c8e814610236576100b3565b806268283a146100b8578063093481af146100d65780630ce383ed146100f4578063320c3b4d1461013e57806375b173501461015c57806376de2a181461017a575b600080fd5b6100c0610258565b6040518082815260200191505060405180910390f35b6100de61025e565b6040518082815260200191505060405180910390f35b6100fc610264565b604051808273ffffffffffffffffffffffffffffffffffffffff1673ffffffffffffffffffffffffffffffffffffffff16815260200191505060405180910390f35b61014661028a565b6040518082815260200191505060405180910390f35b610164610290565b6040518082815260200191505060405180910390f35b610182610296565b6040518082815260200191505060405180910390f35b6101a061029c565b604051808215151515815260200191505060405180910390f35b6101c26102af565b6040518082815260200191505060405180910390f35b6101e06102b5565b005b6101ea610369565b604051808273ffffffffffffffffffffffffffffffffffffffff1673ffffffffffffffffffffffffffffffffffffffff16815260200191505060405180910390f35b61023461038f565b005b61023e61061a565b604051808215151515815260200191505060405180910390f35b60055481565b60035481565b600760009054906101000a900473ffffffffffffffffffffffffffffffffffffffff1681565b60005481565b60065481565b60015481565b600260009054906101000a900460ff1681565b60045481565b60001515600260019054906101000a900460ff1615151461033e576040517f08c379a000000000000000000000000000000000000000000000000000000000815260040180806020018281038252601b8152602001807f56657374696e672068617320616c72656164792073746172746564000000000081525060200191505060405180910390fd5b42600581905550426006819055506001600260016101000a81548160ff021916908315150217905550565b600860009054906101000a900473ffffffffffffffffffffffffffffffffffffffff1681565b600260009054906101000a900460ff16156103f5576040517f08c379a000000000000000000000000000000000000000000000000000000000815260040180806020018281038252602f815260200180610943602f913960400191505060405180910390fd5b60006103ff6106b6565b905060015481101561050e57600860009054906101000a900473ffffffffffffffffffffffffffffffffffffffff1673ffffffffffffffffffffffffffffffffffffffff1663449a52f8600760009054906101000a900473ffffffffffffffffffffffffffffffffffffffff16836040518363ffffffff1660e01b8152600401808373ffffffffffffffffffffffffffffffffffffffff1673ffffffffffffffffffffffffffffffffffffffff16815260200182815260200192505050600060405180830381600087803b1580156104d657600080fd5b505af11580156104ea573d6000803e3d6000fd5b50505050610503816001546107b190919063ffffffff16565b600181905550610617565b600860009054906101000a900473ffffffffffffffffffffffffffffffffffffffff1673ffffffffffffffffffffffffffffffffffffffff1663449a52f8600760009054906101000a900473ffffffffffffffffffffffffffffffffffffffff166001546040518363ffffffff1660e01b8152600401808373ffffffffffffffffffffffffffffffffffffffff1673ffffffffffffffffffffffffffffffffffffffff16815260200182815260200192505050600060405180830381600087803b1580156105db57600080fd5b505af11580156105ef573d6000803e3d6000fd5b5050505060006001819055506001600260006101000a81548160ff0219169083151502179055505b50565b600260019054906101000a900460ff1681565b60008082116106a4576040517f08c379a000000000000000000000000000000000000000000000000000000000815260040180806020018281038252601a8152602001807f536166654d6174683a206469766973696f6e206279207a65726f00000000000081525060200191505060405180910390fd5b8183816106ad57fe5b04905092915050565b6000806106ce600654426107b190919063ffffffff16565b905062015180811161072b576040517f08c379a000000000000000000000000000000000000000000000000000000000815260040180806020018281038252602c815260200180610972602c913960400191505060405180910390fd5b60006107676018610759603c61074b603c8761062d90919063ffffffff16565b61062d90919063ffffffff16565b61062d90919063ffffffff16565b9050600062015180820290506107886006548261083490919063ffffffff16565b60068190555060006107a5600354846108bc90919063ffffffff16565b90508094505050505090565b600082821115610829576040517f08c379a000000000000000000000000000000000000000000000000000000000815260040180806020018281038252601e8152602001807f536166654d6174683a207375627472616374696f6e206f766572666c6f77000081525060200191505060405180910390fd5b818303905092915050565b6000808284019050838110156108b2576040517f08c379a000000000000000000000000000000000000000000000000000000000815260040180806020018281038252601b8152602001807f536166654d6174683a206164646974696f6e206f766572666c6f77000000000081525060200191505060405180910390fd5b8091505092915050565b6000808314156108cf576000905061093c565b60008284029050828482816108e057fe5b0414610937576040517f08c379a000000000000000000000000000000000000000000000000000000000815260040180806020018281038252602181526020018061099e6021913960400191505060405180910390fd5b809150505b9291505056fe56657374696e6720697320636f6d706c657465206e6f206d6f726520746f6b656e7320746f206265206d696e7465646174206c65617374206f6e652044617973206d757374207061737320666f7220646973747269627574696f6e536166654d6174683a206d756c7469706c69636174696f6e206f766572666c6f77a2646970667358221220a9eb8627d2aee24f96fce35454edbfc2387e17b95bcc0b8197b81f01793b682164736f6c634300060b0033",
  "immutableReferences": {},
  "source": "// SPDX-License-Identifier: MIT\r\n\r\npragma solidity 0.6.11;\r\n\r\nimport \"./StringToken.sol\";\r\nimport \"@openzeppelin/contracts/math/SafeMath.sol\";\r\n\r\ncontract TokenVesting {\r\n    // Distribution\r\n    // 1mil * 10e18\r\n    uint256 public AngelDAOAllocation = 1000000000000000000000000;\r\n    uint256 public AngelDAOAllocationLeft = 1000000000000000000000000;\r\n    bool public vestingComplete = false;\r\n    bool public vestingStarted = false;\r\n    uint256 public dailyVestingRate;\r\n    uint256 public vestingPeriodDays;\r\n    uint256 public startDistributionTime;\r\n    uint256 public lastDistributionTime;\r\n    address public AngelDAOAddress;\r\n    StringToken public stringToken;\r\n    using SafeMath for uint256;\r\n\r\n    // Set address to be distributed to\r\n    constructor(\r\n        address _vestingAddress,\r\n        uint256 _days,\r\n        StringToken _stringToken\r\n    ) public {\r\n        AngelDAOAddress = _vestingAddress;\r\n        vestingPeriodDays = _days;\r\n        dailyVestingRate = AngelDAOAllocation.div(_days);\r\n        stringToken = _stringToken;\r\n    }\r\n\r\n    // set start time of vesting\r\n    function start() public {\r\n        require(vestingStarted == false, \"Vesting has already started\");\r\n        startDistributionTime = block.timestamp;\r\n        lastDistributionTime = block.timestamp;\r\n        vestingStarted = true;\r\n    }\r\n\r\n    function releasePending() public {\r\n        require(\r\n            !vestingComplete,\r\n            \"Vesting is complete no more tokens to be minted\"\r\n        );\r\n        uint256 amount = _tokensToMint();\r\n        if (amount < AngelDAOAllocationLeft) {\r\n            stringToken.mintTo(AngelDAOAddress, amount);\r\n            AngelDAOAllocationLeft = AngelDAOAllocationLeft.sub(amount);\r\n        } else {\r\n            stringToken.mintTo(AngelDAOAddress, AngelDAOAllocationLeft);\r\n            AngelDAOAllocationLeft = 0;\r\n            vestingComplete = true;\r\n        }\r\n    }\r\n\r\n    function _tokensToMint() internal returns (uint256) {\r\n        uint256 daysSince = block.timestamp.sub(lastDistributionTime);\r\n        require(\r\n            daysSince > 1 days,\r\n            \"at least one Days must pass for distribution\"\r\n        );\r\n        uint256 fullDays = daysSince.div(60).div(60).div(24);\r\n        uint256 buffer = fullDays * 1 days;\r\n        lastDistributionTime = buffer.add(lastDistributionTime);\r\n        uint256 tokens = fullDays.mul(dailyVestingRate);\r\n        return tokens;\r\n    }\r\n}\r\n",
  "sourcePath": "C:/Users/danie/code/harp/client/contracts/TokenVesting.sol",
  "compiler": {
    "name": "solc",
    "version": "0.6.11+commit.5ef660b1.Emscripten.clang"
  },
  "schemaVersion": "3.4.0",
  "updatedAt": "2021-04-24T01:30:16.603Z",
  "devdoc": {
    "kind": "dev",
    "methods": {},
    "version": 1
  },
  "userdoc": {
    "kind": "user",
    "methods": {},
    "version": 1
  }
}