{
  "contractName": "TokenVesting",
  "abi": [
    {
      "inputs": [
        {
          "internalType": "address",
          "name": "_vestingAddress",
          "type": "address"
        },
        {
          "internalType": "uint256",
          "name": "_days",
          "type": "uint256"
        },
        {
          "internalType": "contract StringToken",
          "name": "_stringToken",
          "type": "address"
        }
      ],
      "stateMutability": "nonpayable",
      "type": "constructor"
    },
    {
      "inputs": [],
      "name": "AngelDAOAddress",
      "outputs": [
        {
          "internalType": "address",
          "name": "",
          "type": "address"
        }
      ],
      "stateMutability": "view",
      "type": "function",
      "constant": true
    },
    {
      "inputs": [],
      "name": "AngelDAOAllocation",
      "outputs": [
        {
          "internalType": "uint256",
          "name": "",
          "type": "uint256"
        }
      ],
      "stateMutability": "view",
      "type": "function",
      "constant": true
    },
    {
      "inputs": [],
      "name": "AngelDAOAllocationLeft",
      "outputs": [
        {
          "internalType": "uint256",
          "name": "",
          "type": "uint256"
        }
      ],
      "stateMutability": "view",
      "type": "function",
      "constant": true
    },
    {
      "inputs": [],
      "name": "dailyVestingRate",
      "outputs": [
        {
          "internalType": "uint256",
          "name": "",
          "type": "uint256"
        }
      ],
      "stateMutability": "view",
      "type": "function",
      "constant": true
    },
    {
      "inputs": [],
      "name": "lastDistributionTime",
      "outputs": [
        {
          "internalType": "uint256",
          "name": "",
          "type": "uint256"
        }
      ],
      "stateMutability": "view",
      "type": "function",
      "constant": true
    },
    {
      "inputs": [],
      "name": "startDistributionTime",
      "outputs": [
        {
          "internalType": "uint256",
          "name": "",
          "type": "uint256"
        }
      ],
      "stateMutability": "view",
      "type": "function",
      "constant": true
    },
    {
      "inputs": [],
      "name": "stringToken",
      "outputs": [
        {
          "internalType": "contract StringToken",
          "name": "",
          "type": "address"
        }
      ],
      "stateMutability": "view",
      "type": "function",
      "constant": true
    },
    {
      "inputs": [],
      "name": "vestingComplete",
      "outputs": [
        {
          "internalType": "bool",
          "name": "",
          "type": "bool"
        }
      ],
      "stateMutability": "view",
      "type": "function",
      "constant": true
    },
    {
      "inputs": [],
      "name": "vestingPeriodDays",
      "outputs": [
        {
          "internalType": "uint256",
          "name": "",
          "type": "uint256"
        }
      ],
      "stateMutability": "view",
      "type": "function",
      "constant": true
    },
    {
      "inputs": [],
      "name": "vestingStarted",
      "outputs": [
        {
          "internalType": "bool",
          "name": "",
          "type": "bool"
        }
      ],
      "stateMutability": "view",
      "type": "function",
      "constant": true
    },
    {
      "inputs": [],
      "name": "start",
      "outputs": [],
      "stateMutability": "nonpayable",
      "type": "function"
    },
    {
      "inputs": [],
      "name": "releasePending",
      "outputs": [],
      "stateMutability": "nonpayable",
      "type": "function"
    }
  ],
  "bytecode": "0x608060405269d3c21bcecceda100000060005569d3c21bcecceda10000006001556000600260006101000a81548160ff0219169083151502179055506000600260016101000a81548160ff02191690831515021790555034801561006257600080fd5b50604051610b8a380380610b8a8339818101604052606081101561008557600080fd5b8101908080519060200190929190805190602001909291908051906020019092919050505082600760006101000a81548173ffffffffffffffffffffffffffffffffffffffff021916908373ffffffffffffffffffffffffffffffffffffffff1602179055508160048190555061010b8260005461015a60201b6105d11790919060201c565b60038190555080600860006101000a81548173ffffffffffffffffffffffffffffffffffffffff021916908373ffffffffffffffffffffffffffffffffffffffff1602179055505050506101e3565b60008082116101d1576040517f08c379a000000000000000000000000000000000000000000000000000000000815260040180806020018281038252601a8152602001807f536166654d6174683a206469766973696f6e206279207a65726f00000000000081525060200191505060405180910390fd5b8183816101da57fe5b04905092915050565b610998806101f26000396000f3fe608060405234801561001057600080fd5b50600436106100b35760003560e01c806392fe24eb1161007157806392fe24eb14610182578063a9a08496146101a2578063be9a6555146101c0578063df5e8987146101ca578063f7542e74146101fe578063f998c8e814610208576100b3565b806268283a146100b8578063093481af146100d65780630ce383ed146100f4578063320c3b4d1461012857806375b173501461014657806376de2a1814610164575b600080fd5b6100c0610228565b6040518082815260200191505060405180910390f35b6100de61022e565b6040518082815260200191505060405180910390f35b6100fc610234565b604051808273ffffffffffffffffffffffffffffffffffffffff16815260200191505060405180910390f35b61013061025a565b6040518082815260200191505060405180910390f35b61014e610260565b6040518082815260200191505060405180910390f35b61016c610266565b6040518082815260200191505060405180910390f35b61018a61026c565b60405180821515815260200191505060405180910390f35b6101aa61027f565b6040518082815260200191505060405180910390f35b6101c8610285565b005b6101d2610339565b604051808273ffffffffffffffffffffffffffffffffffffffff16815260200191505060405180910390f35b61020661035f565b005b6102106105be565b60405180821515815260200191505060405180910390f35b60055481565b60035481565b600760009054906101000a900473ffffffffffffffffffffffffffffffffffffffff1681565b60005481565b60065481565b60015481565b600260009054906101000a900460ff1681565b60045481565b60001515600260019054906101000a900460ff1615151461030e576040517f08c379a000000000000000000000000000000000000000000000000000000000815260040180806020018281038252601b8152602001807f56657374696e672068617320616c72656164792073746172746564000000000081525060200191505060405180910390fd5b42600581905550426006819055506001600260016101000a81548160ff021916908315150217905550565b600860009054906101000a900473ffffffffffffffffffffffffffffffffffffffff1681565b600260009054906101000a900460ff16156103c5576040517f08c379a000000000000000000000000000000000000000000000000000000000815260040180806020018281038252602f8152602001806108e7602f913960400191505060405180910390fd5b60006103cf61065a565b90506001548110156104c857600860009054906101000a900473ffffffffffffffffffffffffffffffffffffffff1673ffffffffffffffffffffffffffffffffffffffff1663449a52f8600760009054906101000a900473ffffffffffffffffffffffffffffffffffffffff16836040518363ffffffff1660e01b8152600401808373ffffffffffffffffffffffffffffffffffffffff16815260200182815260200192505050600060405180830381600087803b15801561049057600080fd5b505af11580156104a4573d6000803e3d6000fd5b505050506104bd8160015461075590919063ffffffff16565b6001819055506105bb565b600860009054906101000a900473ffffffffffffffffffffffffffffffffffffffff1673ffffffffffffffffffffffffffffffffffffffff1663449a52f8600760009054906101000a900473ffffffffffffffffffffffffffffffffffffffff166001546040518363ffffffff1660e01b8152600401808373ffffffffffffffffffffffffffffffffffffffff16815260200182815260200192505050600060405180830381600087803b15801561057f57600080fd5b505af1158015610593573d6000803e3d6000fd5b5050505060006001819055506001600260006101000a81548160ff0219169083151502179055505b50565b600260019054906101000a900460ff1681565b6000808211610648576040517f08c379a000000000000000000000000000000000000000000000000000000000815260040180806020018281038252601a8152602001807f536166654d6174683a206469766973696f6e206279207a65726f00000000000081525060200191505060405180910390fd5b81838161065157fe5b04905092915050565b6000806106726006544261075590919063ffffffff16565b90506201518081116106cf576040517f08c379a000000000000000000000000000000000000000000000000000000000815260040180806020018281038252602c815260200180610916602c913960400191505060405180910390fd5b600061070b60186106fd603c6106ef603c876105d190919063ffffffff16565b6105d190919063ffffffff16565b6105d190919063ffffffff16565b90506000620151808202905061072c600654826107d890919063ffffffff16565b60068190555060006107496003548461086090919063ffffffff16565b90508094505050505090565b6000828211156107cd576040517f08c379a000000000000000000000000000000000000000000000000000000000815260040180806020018281038252601e8152602001807f536166654d6174683a207375627472616374696f6e206f766572666c6f77000081525060200191505060405180910390fd5b818303905092915050565b600080828401905083811015610856576040517f08c379a000000000000000000000000000000000000000000000000000000000815260040180806020018281038252601b8152602001807f536166654d6174683a206164646974696f6e206f766572666c6f77000000000081525060200191505060405180910390fd5b8091505092915050565b60008083141561087357600090506108e0565b600082840290508284828161088457fe5b04146108db576040517f08c379a00000000000000000000000000000000000000000000000000000000081526004018080602001828103825260218152602001806109426021913960400191505060405180910390fd5b809150505b9291505056fe56657374696e6720697320636f6d706c657465206e6f206d6f726520746f6b656e7320746f206265206d696e7465646174206c65617374206f6e652044617973206d757374207061737320666f7220646973747269627574696f6e536166654d6174683a206d756c7469706c69636174696f6e206f766572666c6f77a264697066735822122006d62e8ad51cee2b58bcfdd803a0467b951dd4fc22fe2910670fe9d1f488ef5c64736f6c63430007060033",
  "immutableReferences": {},
  "source": "// SPDX-License-Identifier: MIT\npragma solidity >=0.6.0 <0.8.0;\n\nimport \"./StringToken.sol\";\nimport \"@openzeppelin/contracts/math/SafeMath.sol\";\n\ncontract TokenVesting {\n    // Distribution\n    // 1mil * 10e18\n    uint256 public AngelDAOAllocation = 1000000000000000000000000;\n    uint256 public AngelDAOAllocationLeft = 1000000000000000000000000;\n    bool public vestingComplete = false;\n    bool public vestingStarted = false;\n    uint256 public dailyVestingRate;\n    uint256 public vestingPeriodDays;\n    uint256 public startDistributionTime;\n    uint256 public lastDistributionTime;\n    address public AngelDAOAddress;\n    StringToken public stringToken;\n    using SafeMath for uint256;\n\n    // Set address to be distributed to\n    constructor(\n        address _vestingAddress,\n        uint256 _days,\n        StringToken _stringToken\n    ) {\n        AngelDAOAddress = _vestingAddress;\n        vestingPeriodDays = _days;\n        dailyVestingRate = AngelDAOAllocation.div(_days);\n        stringToken = _stringToken;\n    }\n\n    // set start time of vesting\n    function start() public {\n        require(vestingStarted == false, \"Vesting has already started\");\n        startDistributionTime = block.timestamp;\n        lastDistributionTime = block.timestamp;\n        vestingStarted = true;\n    }\n\n    function releasePending() public {\n        require(\n            !vestingComplete,\n            \"Vesting is complete no more tokens to be minted\"\n        );\n        uint256 amount = _tokensToMint();\n        if (amount < AngelDAOAllocationLeft) {\n            stringToken.mintTo(AngelDAOAddress, amount);\n            AngelDAOAllocationLeft = AngelDAOAllocationLeft.sub(amount);\n        } else {\n            stringToken.mintTo(AngelDAOAddress, AngelDAOAllocationLeft);\n            AngelDAOAllocationLeft = 0;\n            vestingComplete = true;\n        }\n    }\n\n    function _tokensToMint() internal returns (uint256) {\n        uint256 daysSince = block.timestamp.sub(lastDistributionTime);\n        require(\n            daysSince > 1 days,\n            \"at least one Days must pass for distribution\"\n        );\n        uint256 fullDays = daysSince.div(60).div(60).div(24);\n        uint256 buffer = fullDays * 1 days;\n        lastDistributionTime = buffer.add(lastDistributionTime);\n        uint256 tokens = fullDays.mul(dailyVestingRate);\n        return tokens;\n    }\n}\n",
  "sourcePath": "/Users/dannywarrick/code/harp/client/src/contracts/TokenVesting.sol",
  "compiler": {
    "name": "solc",
    "version": "0.7.6+commit.7338295f.Emscripten.clang"
  },
  "schemaVersion": "3.3.4",
  "updatedAt": "2021-03-28T18:04:22.116Z",
  "networkType": "ethereum",
  "devdoc": {
    "kind": "dev",
    "methods": {},
    "version": 1
  },
  "userdoc": {
    "kind": "user",
    "methods": {},
    "version": 1
  }
}