{
  "_format": "hh-sol-artifact-1",
  "contractName": "MockTellor",
  "sourceName": "contracts/Liquity/TestContracts/MockTellor.sol",
  "abi": [
    {
      "inputs": [
        {
          "internalType": "uint256",
          "name": "",
          "type": "uint256"
        }
      ],
      "name": "getNewValueCountbyRequestId",
      "outputs": [
        {
          "internalType": "uint256",
          "name": "",
          "type": "uint256"
        }
      ],
      "stateMutability": "view",
      "type": "function"
    },
    {
      "inputs": [
        {
          "internalType": "uint256",
          "name": "",
          "type": "uint256"
        },
        {
          "internalType": "uint256",
          "name": "",
          "type": "uint256"
        }
      ],
      "name": "getTimestampbyRequestIDandIndex",
      "outputs": [
        {
          "internalType": "uint256",
          "name": "",
          "type": "uint256"
        }
      ],
      "stateMutability": "view",
      "type": "function"
    },
    {
      "inputs": [
        {
          "internalType": "uint256",
          "name": "",
          "type": "uint256"
        },
        {
          "internalType": "uint256",
          "name": "",
          "type": "uint256"
        }
      ],
      "name": "retrieveData",
      "outputs": [
        {
          "internalType": "uint256",
          "name": "",
          "type": "uint256"
        }
      ],
      "stateMutability": "view",
      "type": "function"
    },
    {
      "inputs": [
        {
          "internalType": "bool",
          "name": "_didRetrieve",
          "type": "bool"
        }
      ],
      "name": "setDidRetrieve",
      "outputs": [],
      "stateMutability": "nonpayable",
      "type": "function"
    },
    {
      "inputs": [
        {
          "internalType": "uint256",
          "name": "_price",
          "type": "uint256"
        }
      ],
      "name": "setPrice",
      "outputs": [],
      "stateMutability": "nonpayable",
      "type": "function"
    },
    {
      "inputs": [],
      "name": "setRevertRequest",
      "outputs": [],
      "stateMutability": "nonpayable",
      "type": "function"
    },
    {
      "inputs": [
        {
          "internalType": "uint256",
          "name": "_updateTime",
          "type": "uint256"
        }
      ],
      "name": "setUpdateTime",
      "outputs": [],
      "stateMutability": "nonpayable",
      "type": "function"
    }
  ],
  "bytecode": "0x608060405260016000806101000a81548160ff02191690831515021790555034801561002a57600080fd5b506103368061003a6000396000f3fe608060405234801561001057600080fd5b506004361061007d5760003560e01c806391b7f5ed1161005b57806391b7f5ed1461011a57806393fa491514610148578063bf73eea614610194578063c4954857146101c25761007d565b80632fc0eb851461008257806346eee1c41461008c57806377fbb663146100ce575b600080fd5b61008a6101f2565b005b6100b8600480360360208110156100a257600080fd5b810190808035906020019092919050505061021e565b6040518082815260200191505060405180910390f35b610104600480360360408110156100e457600080fd5b8101908080359060200190929190803590602001909291905050506102b6565b6040518082815260200191505060405180910390f35b6101466004803603602081101561013057600080fd5b81019080803590602001909291905050506102c3565b005b61017e6004803603604081101561015e57600080fd5b8101908080359060200190929190803590602001909291905050506102cd565b6040518082815260200191505060405180910390f35b6101c0600480360360208110156101aa57600080fd5b81019080803590602001909291905050506102da565b005b6101f0600480360360208110156101d857600080fd5b810190808035151590602001909291905050506102e4565b005b600360009054906101000a900460ff1615600360006101000a81548160ff021916908315150217905550565b6000600360009054906101000a900460ff16156102ad5760006001146102ac576040517f08c379a00000000000000000000000000000000000000000000000000000000081526004018080602001828103825260178152602001807f54656c6c6f72207265717565737420726576657274656400000000000000000081525060200191505060405180910390fd5b5b60019050919050565b6000600254905092915050565b8060018190555050565b6000600154905092915050565b8060028190555050565b806000806101000a81548160ff0219169083151502179055505056fea264697066735822122016294e4e0bf70ca485bcea2c23dd54702de30a7f70bcb306944e21fe93cfcbf364736f6c634300060b0033",
  "linkReferences": {},
  "deployedLinkReferences": {}
}