{
  "_format": "hh-sol-artifact-1",
  "contractName": "LQTYStakingScript",
  "sourceName": "contracts/Liquity/Proxy/LQTYStakingScript.sol",
  "abi": [
    {
      "inputs": [
        {
          "internalType": "address",
          "name": "_lqtyStakingAddress",
          "type": "address"
        }
      ],
      "stateMutability": "nonpayable",
      "type": "constructor"
    },
    {
      "inputs": [
        {
          "internalType": "uint256",
          "name": "_LQTYamount",
          "type": "uint256"
        }
      ],
      "name": "stake",
      "outputs": [],
      "stateMutability": "nonpayable",
      "type": "function"
    }
  ],
  "bytecode": "0x60a060405234801561001057600080fd5b506040516102e93803806102e98339818101604052602081101561003357600080fd5b81019080805190602001909291905050506100538161009060201b60201c565b8073ffffffffffffffffffffffffffffffffffffffff1660808173ffffffffffffffffffffffffffffffffffffffff1660601b81525050506101b3565b600073ffffffffffffffffffffffffffffffffffffffff168173ffffffffffffffffffffffffffffffffffffffff161415610133576040517f08c379a000000000000000000000000000000000000000000000000000000000815260040180806020018281038252601e8152602001807f4163636f756e742063616e6e6f74206265207a65726f2061646472657373000081525060200191505060405180910390fd5b6000813b9050600081116101af576040517f08c379a00000000000000000000000000000000000000000000000000000000081526004018080602001828103825260208152602001807f4163636f756e7420636f64652073697a652063616e6e6f74206265207a65726f81525060200191505060405180910390fd5b5050565b60805160601c61011a6101cf60003980605a525061011a6000f3fe6080604052348015600f57600080fd5b506004361060285760003560e01c8063a694fc3a14602d575b600080fd5b605660048036036020811015604157600080fd5b81019080803590602001909291905050506058565b005b7f000000000000000000000000000000000000000000000000000000000000000073ffffffffffffffffffffffffffffffffffffffff1663a694fc3a826040518263ffffffff1660e01b815260040180828152602001915050600060405180830381600087803b15801560ca57600080fd5b505af115801560dd573d6000803e3d6000fd5b505050505056fea26469706673582212209afd0b264dfd0ebd5544bdca5625f87a520e4e853dd2d76c5753d14633226da764736f6c634300060b0033",
  "linkReferences": {},
  "deployedLinkReferences": {}
}