{
  "_format": "hh-sol-artifact-1",
  "contractName": "Farm",
  "sourceName": "contracts/Farm.sol",
  "abi": [
    {
      "inputs": [
        {
          "internalType": "contract StringToken",
          "name": "_string",
          "type": "address"
        },
        {
          "internalType": "uint256",
          "name": "_boostedBuffer",
          "type": "uint256"
        }
      ],
      "stateMutability": "nonpayable",
      "type": "constructor"
    },
    {
      "anonymous": false,
      "inputs": [
        {
          "indexed": true,
          "internalType": "address",
          "name": "who",
          "type": "address"
        },
        {
          "indexed": false,
          "internalType": "uint256",
          "name": "amountClaimed",
          "type": "uint256"
        }
      ],
      "name": "Claim",
      "type": "event"
    },
    {
      "anonymous": false,
      "inputs": [
        {
          "indexed": true,
          "internalType": "address",
          "name": "user",
          "type": "address"
        },
        {
          "indexed": true,
          "internalType": "uint256",
          "name": "pid",
          "type": "uint256"
        },
        {
          "indexed": false,
          "internalType": "uint256",
          "name": "amount",
          "type": "uint256"
        }
      ],
      "name": "Deposit",
      "type": "event"
    },
    {
      "anonymous": false,
      "inputs": [
        {
          "indexed": true,
          "internalType": "address",
          "name": "user",
          "type": "address"
        },
        {
          "indexed": true,
          "internalType": "uint256",
          "name": "pid",
          "type": "uint256"
        },
        {
          "indexed": false,
          "internalType": "uint256",
          "name": "amount",
          "type": "uint256"
        }
      ],
      "name": "EmergencyWithdraw",
      "type": "event"
    },
    {
      "anonymous": false,
      "inputs": [
        {
          "indexed": true,
          "internalType": "address",
          "name": "user",
          "type": "address"
        },
        {
          "indexed": true,
          "internalType": "uint256",
          "name": "pid",
          "type": "uint256"
        },
        {
          "indexed": false,
          "internalType": "uint256",
          "name": "amount",
          "type": "uint256"
        }
      ],
      "name": "Withdraw",
      "type": "event"
    },
    {
      "inputs": [
        {
          "internalType": "uint256",
          "name": "_allocPoint",
          "type": "uint256"
        },
        {
          "internalType": "contract IERC20",
          "name": "_lpToken",
          "type": "address"
        },
        {
          "internalType": "bool",
          "name": "_withUpdate",
          "type": "bool"
        }
      ],
      "name": "addPool",
      "outputs": [],
      "stateMutability": "nonpayable",
      "type": "function"
    },
    {
      "inputs": [],
      "name": "boostedMultiplier",
      "outputs": [
        {
          "internalType": "uint256",
          "name": "",
          "type": "uint256"
        }
      ],
      "stateMutability": "view",
      "type": "function"
    },
    {
      "inputs": [
        {
          "internalType": "uint256",
          "name": "_pid",
          "type": "uint256"
        }
      ],
      "name": "claim",
      "outputs": [],
      "stateMutability": "nonpayable",
      "type": "function"
    },
    {
      "inputs": [],
      "name": "creator",
      "outputs": [
        {
          "internalType": "address",
          "name": "",
          "type": "address"
        }
      ],
      "stateMutability": "view",
      "type": "function"
    },
    {
      "inputs": [
        {
          "internalType": "uint256",
          "name": "_pid",
          "type": "uint256"
        },
        {
          "internalType": "uint256",
          "name": "_amount",
          "type": "uint256"
        }
      ],
      "name": "deposit",
      "outputs": [],
      "stateMutability": "nonpayable",
      "type": "function"
    },
    {
      "inputs": [
        {
          "internalType": "uint256",
          "name": "_pid",
          "type": "uint256"
        }
      ],
      "name": "emergencyWithdraw",
      "outputs": [],
      "stateMutability": "nonpayable",
      "type": "function"
    },
    {
      "inputs": [],
      "name": "endBlock",
      "outputs": [
        {
          "internalType": "uint256",
          "name": "",
          "type": "uint256"
        }
      ],
      "stateMutability": "view",
      "type": "function"
    },
    {
      "inputs": [
        {
          "internalType": "uint256",
          "name": "_from",
          "type": "uint256"
        },
        {
          "internalType": "uint256",
          "name": "_to",
          "type": "uint256"
        }
      ],
      "name": "getMultiplier",
      "outputs": [
        {
          "internalType": "uint256",
          "name": "",
          "type": "uint256"
        }
      ],
      "stateMutability": "view",
      "type": "function"
    },
    {
      "inputs": [],
      "name": "isBoosted",
      "outputs": [
        {
          "internalType": "bool",
          "name": "",
          "type": "bool"
        }
      ],
      "stateMutability": "view",
      "type": "function"
    },
    {
      "inputs": [],
      "name": "massUpdatePools",
      "outputs": [],
      "stateMutability": "nonpayable",
      "type": "function"
    },
    {
      "inputs": [
        {
          "internalType": "uint256",
          "name": "_pid",
          "type": "uint256"
        },
        {
          "internalType": "address",
          "name": "_user",
          "type": "address"
        }
      ],
      "name": "pendingString",
      "outputs": [
        {
          "internalType": "uint256",
          "name": "",
          "type": "uint256"
        }
      ],
      "stateMutability": "view",
      "type": "function"
    },
    {
      "inputs": [
        {
          "internalType": "uint256",
          "name": "",
          "type": "uint256"
        }
      ],
      "name": "poolInfo",
      "outputs": [
        {
          "internalType": "contract IERC20",
          "name": "lpToken",
          "type": "address"
        },
        {
          "internalType": "uint256",
          "name": "allocPoint",
          "type": "uint256"
        },
        {
          "internalType": "uint256",
          "name": "lastRewardBlock",
          "type": "uint256"
        },
        {
          "internalType": "uint256",
          "name": "accStringPerShare",
          "type": "uint256"
        }
      ],
      "stateMutability": "view",
      "type": "function"
    },
    {
      "inputs": [],
      "name": "poolLength",
      "outputs": [
        {
          "internalType": "uint256",
          "name": "",
          "type": "uint256"
        }
      ],
      "stateMutability": "view",
      "type": "function"
    },
    {
      "inputs": [],
      "name": "postBoostedBlock",
      "outputs": [
        {
          "internalType": "uint256",
          "name": "",
          "type": "uint256"
        }
      ],
      "stateMutability": "view",
      "type": "function"
    },
    {
      "inputs": [
        {
          "internalType": "uint256",
          "name": "_pid",
          "type": "uint256"
        },
        {
          "internalType": "uint256",
          "name": "_allocPoint",
          "type": "uint256"
        },
        {
          "internalType": "bool",
          "name": "_withUpdate",
          "type": "bool"
        }
      ],
      "name": "set",
      "outputs": [],
      "stateMutability": "nonpayable",
      "type": "function"
    },
    {
      "inputs": [],
      "name": "startBlock",
      "outputs": [
        {
          "internalType": "uint256",
          "name": "",
          "type": "uint256"
        }
      ],
      "stateMutability": "view",
      "type": "function"
    },
    {
      "inputs": [],
      "name": "stringPerBlock",
      "outputs": [
        {
          "internalType": "uint256",
          "name": "",
          "type": "uint256"
        }
      ],
      "stateMutability": "view",
      "type": "function"
    },
    {
      "inputs": [],
      "name": "stringToken",
      "outputs": [
        {
          "internalType": "contract StringToken",
          "name": "",
          "type": "address"
        }
      ],
      "stateMutability": "view",
      "type": "function"
    },
    {
      "inputs": [],
      "name": "totalAllocPoint",
      "outputs": [
        {
          "internalType": "uint256",
          "name": "",
          "type": "uint256"
        }
      ],
      "stateMutability": "view",
      "type": "function"
    },
    {
      "inputs": [
        {
          "internalType": "uint256",
          "name": "_pid",
          "type": "uint256"
        }
      ],
      "name": "updatePool",
      "outputs": [],
      "stateMutability": "nonpayable",
      "type": "function"
    },
    {
      "inputs": [
        {
          "internalType": "uint256",
          "name": "",
          "type": "uint256"
        },
        {
          "internalType": "address",
          "name": "",
          "type": "address"
        }
      ],
      "name": "userInfo",
      "outputs": [
        {
          "internalType": "uint256",
          "name": "amount",
          "type": "uint256"
        },
        {
          "internalType": "uint256",
          "name": "rewardDebt",
          "type": "uint256"
        }
      ],
      "stateMutability": "view",
      "type": "function"
    },
    {
      "inputs": [
        {
          "internalType": "uint256",
          "name": "_pid",
          "type": "uint256"
        },
        {
          "internalType": "uint256",
          "name": "_amount",
          "type": "uint256"
        }
      ],
      "name": "withdraw",
      "outputs": [],
      "stateMutability": "nonpayable",
      "type": "function"
    }
  ],
  "bytecode": "0x60806040526708e5616c97b8da006003556005805460ff19166001179055600060085534801561002e57600080fd5b506040516115bf3803806115bf8339818101604052604081101561005157600080fd5b508051602091820151600080546001600160a01b0319166001600160a01b038416179055909161008f9043906225317c906100c9811b610ea717901c565b6002554360098190556100ad90826100c9602090811b610ea717901c565b6004555050600180546001600160a01b031916331790556100cd565b0190565b6114e3806100dc6000396000f3fe608060405234801561001057600080fd5b50600436106101425760003560e01c806351eb05a6116100b85780637abceffd1161007c5780637abceffd146102dd5780638dbb1e3a1461031157806393f1a40b14610334578063b689755914610379578063df5e898714610395578063e2bbb1581461039d57610142565b806351eb05a6146102445780635312ea8e14610261578063630b5ba11461027e57806364482f79146102865780636d643304146102b157610142565b80631526fe271161010a5780631526fe271461019d57806317caf6f1146101ea578063350bac34146101f2578063379607f5146101fa578063441a3e701461021957806348cd4cb11461023c57610142565b806302d05d3f14610147578063081e3eda1461016b578063083c6323146101855780630b5f91fc1461018d5780630d483ae114610195575b600080fd5b61014f6103c0565b604080516001600160a01b039092168252519081900360200190f35b6101736103cf565b60408051918252519081900360200190f35b6101736103d5565b6101736103db565b6101736103e1565b6101ba600480360360208110156101b357600080fd5b50356103e6565b604080516001600160a01b0390951685526020850193909352838301919091526060830152519081900360800190f35b610173610427565b61017361042d565b6102176004803603602081101561021057600080fd5b5035610433565b005b6102176004803603604081101561022f57600080fd5b50803590602001356104f9565b610173610630565b6102176004803603602081101561025a57600080fd5b5035610636565b6102176004803603602081101561027757600080fd5b5035610884565b610217610925565b6102176004803603606081101561029c57600080fd5b50803590602081013590604001351515610948565b610173600480360360408110156102c757600080fd5b50803590602001356001600160a01b0316610a10565b610217600480360360608110156102f357600080fd5b508035906001600160a01b0360208201351690604001351515610bbe565b6101736004803603604081101561032757600080fd5b5080359060200135610d30565b6103606004803603604081101561034a57600080fd5b50803590602001356001600160a01b0316610d76565b6040805192835260208301919091528051918290030190f35b610381610d9a565b604080519115158252519081900360200190f35b61014f610da3565b610217600480360360408110156103b357600080fd5b5080359060200135610db2565b6001546001600160a01b031681565b60065490565b60025481565b60045481565b600581565b600681815481106103f357fe5b600091825260209091206004909102018054600182015460028301546003909301546001600160a01b039092169350919084565b60085481565b60035481565b60006006828154811061044257fe5b6000918252602080832085845260078252604080852033865290925292206004909102909101915061047383610636565b600061047f8284610eab565b905061048b3382610f08565b600383015482546104b89164e8d4a51000916104ac9163ffffffff6110a016565b9063ffffffff6110a416565b600183015560408051828152905133917f47cee97cb7acd717b3c0aa1435d004cd5b3c8c57d70dbceb4e4458bbd60e39d4919081900360200190a250505050565b60006006838154811061050857fe5b60009182526020808320868452600782526040808520338652909252922080546004909202909201925083111561057b576040805162461bcd60e51b81526020600482015260126024820152711dda5d1a191c985dce881b9bdd0819dbdbd960721b604482015290519081900360640190fd5b61058484610636565b60006105908284610eab565b905061059c3382610f08565b81546105ae908563ffffffff6110b716565b80835560038401546105d19164e8d4a51000916104ac919063ffffffff6110a016565b600183015582546105f2906001600160a01b0316338663ffffffff6110bc16565b604080518581529051869133917ff279e6a1f5e320cca91135676d9cb6e44ca8a08c0b88342bcdb1144f6511b5689181900360200190a35050505050565b60095481565b60006006828154811061064557fe5b90600052602060002090600402019050806002015443116106665750610881565b8054604080516370a0823160e01b815230600482015290516000926001600160a01b0316916370a08231916024808301926020929190829003018186803b1580156106b057600080fd5b505afa1580156106c4573d6000803e3d6000fd5b505050506040513d60208110156106da57600080fd5b50519050806106f0575043600290910155610881565b6000610700836002015443610d30565b905060006107336008546104ac8660010154610727600354876110a090919063ffffffff16565b9063ffffffff6110a016565b90506004544310156107c457600061075282600563ffffffff6110a016565b60008054604080516308934a5f60e31b81523060048201526024810185905290519394506001600160a01b039091169263449a52f89260448084019391929182900301818387803b1580156107a657600080fd5b505af11580156107ba573d6000803e3d6000fd5b5050505050610841565b60055460ff16156107da576005805460ff191690555b60008054604080516308934a5f60e31b81523060048201526024810185905290516001600160a01b039092169263449a52f89260448084019382900301818387803b15801561082857600080fd5b505af115801561083c573d6000803e3d6000fd5b505050505b61086e61085d846104ac8464e8d4a5100063ffffffff6110a016565b60038601549063ffffffff610ea716565b6003850155505043600290920191909155505b50565b60006006828154811061089357fe5b600091825260208083208584526007825260408085203380875293529093208054600490930290930180549094506108de926001600160a01b0391909116919063ffffffff6110bc16565b80546040805191825251849133917fbb757047c2b5f3974fe26b7c10f732e7bce710b0952a71082702781e62ae05959181900360200190a360008082556001909101555050565b60065460005b818110156109445761093c81610636565b60010161092b565b5050565b6001546001600160a01b031633146109915760405162461bcd60e51b81526004018080602001828103825260218152602001806114636021913960400191505060405180910390fd5b801561099f5761099f610925565b6109e2826109d6600686815481106109b357fe5b9060005260206000209060040201600101546008546110b790919063ffffffff16565b9063ffffffff610ea716565b60088190555081600684815481106109f657fe5b906000526020600020906004020160010181905550505050565b60008060068481548110610a2057fe5b600091825260208083208784526007825260408085206001600160a01b03898116875290845281862060049586029093016003810154815484516370a0823160e01b81523098810198909852935191985093969395939492909116926370a08231926024808301939192829003018186803b158015610a9e57600080fd5b505afa158015610ab2573d6000803e3d6000fd5b505050506040513d6020811015610ac857600080fd5b5051600285015490915043118015610adf57508015155b15610b4b576000610af4856002015443610d30565b90506000610b1b6008546104ac8860010154610727600354876110a090919063ffffffff16565b9050610b46610b39846104ac8464e8d4a5100063ffffffff6110a016565b859063ffffffff610ea716565b935050505b6000610b818460010154610b7564e8d4a510006104ac8789600001546110a090919063ffffffff16565b9063ffffffff6110b716565b60055490915060ff1615610bac57610ba081600563ffffffff6110a016565b95505050505050610bb8565b9450610bb89350505050565b92915050565b6001546001600160a01b03163314610c075760405162461bcd60e51b81526004018080602001828103825260218152602001806114636021913960400191505060405180910390fd5b8015610c1557610c15610925565b60006009544311610c2857600954610c2a565b435b600854909150610c40908563ffffffff610ea716565b600855604080516080810182526001600160a01b0394851681526020810195865290810191825260006060820181815260068054600181018255925291517ff652222313e28459528d920b65115c16c04f3efc82aaedc97be59f3f377c0d3f600490920291820180546001600160a01b031916919096161790945593517ff652222313e28459528d920b65115c16c04f3efc82aaedc97be59f3f377c0d40840155517ff652222313e28459528d920b65115c16c04f3efc82aaedc97be59f3f377c0d418301555090517ff652222313e28459528d920b65115c16c04f3efc82aaedc97be59f3f377c0d4290910155565b60006002548211610d5257610d4b828463ffffffff6110b716565b9050610bb8565b6002548310610d6357506000610bb8565b600254610d4b908463ffffffff6110b716565b60076020908152600092835260408084209091529082529020805460019091015482565b60055460ff1681565b6000546001600160a01b031681565b600060068381548110610dc157fe5b60009182526020808320868452600782526040808520338652909252922060049091029091019150610df284610636565b805415610e13576000610e058284610eab565b9050610e113382610f08565b505b8154610e30906001600160a01b031633308663ffffffff61110e16565b8054610e42908463ffffffff610ea716565b8082556003830154610e659164e8d4a51000916104ac919063ffffffff6110a016565b6001820155604080518481529051859133917f90890809c654f11d6e72a28fa60149770a0d11ec6c92319d6ceb2bb0a4ea1a159181900360200190a350505050565b0190565b600080610eda8460010154610b7564e8d4a510006104ac876003015489600001546110a090919063ffffffff16565b60055490915060ff1615610f0157610ef981600563ffffffff6110a016565b915050610bb8565b9392505050565b60008054604080516370a0823160e01b815230600482015290516001600160a01b03909216916370a0823191602480820192602092909190829003018186803b158015610f5457600080fd5b505afa158015610f68573d6000803e3d6000fd5b505050506040513d6020811015610f7e57600080fd5b505190508082111561101557600080546040805163a9059cbb60e01b81526001600160a01b038781166004830152602482018690529151919092169263a9059cbb92604480820193602093909283900390910190829087803b158015610fe357600080fd5b505af1158015610ff7573d6000803e3d6000fd5b505050506040513d602081101561100d57600080fd5b5061109b9050565b600080546040805163a9059cbb60e01b81526001600160a01b038781166004830152602482018790529151919092169263a9059cbb92604480820193602093909283900390910190829087803b15801561106e57600080fd5b505af1158015611082573d6000803e3d6000fd5b505050506040513d602081101561109857600080fd5b50505b505050565b0290565b60008183816110af57fe5b049392505050565b900390565b604080516001600160a01b038416602482015260448082018490528251808303909101815260649091019091526020810180516001600160e01b031663a9059cbb60e01b17905261109b90849061116e565b604080516001600160a01b0380861660248301528416604482015260648082018490528251808303909101815260849091019091526020810180516001600160e01b03166323b872dd60e01b17905261116890859061116e565b50505050565b60606111c3826040518060400160405280602081526020017f5361666545524332303a206c6f772d6c6576656c2063616c6c206661696c6564815250856001600160a01b031661121f9092919063ffffffff16565b80519091501561109b578080602001905160208110156111e257600080fd5b505161109b5760405162461bcd60e51b815260040180806020018281038252602a815260200180611484602a913960400191505060405180910390fd5b606061122e8484600085611236565b949350505050565b6060824710156112775760405162461bcd60e51b815260040180806020018281038252602681526020018061143d6026913960400191505060405180910390fd5b61128085611392565b6112d1576040805162461bcd60e51b815260206004820152601d60248201527f416464726573733a2063616c6c20746f206e6f6e2d636f6e7472616374000000604482015290519081900360640190fd5b60006060866001600160a01b031685876040518082805190602001908083835b602083106113105780518252601f1990920191602091820191016112f1565b6001836020036101000a03801982511681845116808217855250505050505090500191505060006040518083038185875af1925050503d8060008114611372576040519150601f19603f3d011682016040523d82523d6000602084013e611377565b606091505b5091509150611387828286611398565b979650505050505050565b3b151590565b606083156113a7575081610f01565b8251156113b75782518084602001fd5b8160405162461bcd60e51b81526004018080602001828103825283818151815260200191508051906020019080838360005b838110156114015781810151838201526020016113e9565b50505050905090810190601f16801561142e5780820380516001836020036101000a031916815260200191505b509250505060405180910390fdfe416464726573733a20696e73756666696369656e742062616c616e636520666f722063616c6c6f6e6c792063726561746f722063616e2063616c6c2074686973206d6574686f645361666545524332303a204552433230206f7065726174696f6e20646964206e6f742073756363656564a2646970667358221220b10816cc86d8daced22c8f6798634f0fa42f16b15e27f32f9234462ecaf9ad8b64736f6c634300060b0033",
  "linkReferences": {},
  "deployedLinkReferences": {}
}