{
  "_format": "hh-sol-artifact-1",
  "contractName": "Farm",
  "sourceName": "contracts/Farm.sol",
  "abi": [
    {
      "inputs": [
        {
          "internalType": "contract StringToken",
          "name": "_string",
          "type": "address"
        },
        {
          "internalType": "uint256",
          "name": "_boostedBuffer",
          "type": "uint256"
        }
      ],
      "stateMutability": "nonpayable",
      "type": "constructor"
    },
    {
      "anonymous": false,
      "inputs": [
        {
          "indexed": true,
          "internalType": "address",
          "name": "who",
          "type": "address"
        },
        {
          "indexed": false,
          "internalType": "uint256",
          "name": "amountClaimed",
          "type": "uint256"
        }
      ],
      "name": "Claim",
      "type": "event"
    },
    {
      "anonymous": false,
      "inputs": [
        {
          "indexed": true,
          "internalType": "address",
          "name": "user",
          "type": "address"
        },
        {
          "indexed": true,
          "internalType": "uint256",
          "name": "pid",
          "type": "uint256"
        },
        {
          "indexed": false,
          "internalType": "uint256",
          "name": "amount",
          "type": "uint256"
        }
      ],
      "name": "Deposit",
      "type": "event"
    },
    {
      "anonymous": false,
      "inputs": [
        {
          "indexed": true,
          "internalType": "address",
          "name": "user",
          "type": "address"
        },
        {
          "indexed": true,
          "internalType": "uint256",
          "name": "pid",
          "type": "uint256"
        },
        {
          "indexed": false,
          "internalType": "uint256",
          "name": "amount",
          "type": "uint256"
        }
      ],
      "name": "EmergencyWithdraw",
      "type": "event"
    },
    {
      "anonymous": false,
      "inputs": [
        {
          "indexed": true,
          "internalType": "address",
          "name": "previousOwner",
          "type": "address"
        },
        {
          "indexed": true,
          "internalType": "address",
          "name": "newOwner",
          "type": "address"
        }
      ],
      "name": "OwnershipTransferred",
      "type": "event"
    },
    {
      "anonymous": false,
      "inputs": [
        {
          "indexed": true,
          "internalType": "address",
          "name": "user",
          "type": "address"
        },
        {
          "indexed": true,
          "internalType": "uint256",
          "name": "pid",
          "type": "uint256"
        },
        {
          "indexed": false,
          "internalType": "uint256",
          "name": "amount",
          "type": "uint256"
        }
      ],
      "name": "Withdraw",
      "type": "event"
    },
    {
      "inputs": [
        {
          "internalType": "uint256",
          "name": "_allocPoint",
          "type": "uint256"
        },
        {
          "internalType": "contract IERC20",
          "name": "_lpToken",
          "type": "address"
        },
        {
          "internalType": "bool",
          "name": "_withUpdate",
          "type": "bool"
        }
      ],
      "name": "add",
      "outputs": [],
      "stateMutability": "nonpayable",
      "type": "function"
    },
    {
      "inputs": [],
      "name": "boostedMultiplier",
      "outputs": [
        {
          "internalType": "uint256",
          "name": "",
          "type": "uint256"
        }
      ],
      "stateMutability": "view",
      "type": "function"
    },
    {
      "inputs": [
        {
          "internalType": "uint256",
          "name": "_pid",
          "type": "uint256"
        }
      ],
      "name": "claim",
      "outputs": [],
      "stateMutability": "nonpayable",
      "type": "function"
    },
    {
      "inputs": [
        {
          "internalType": "uint256",
          "name": "_pid",
          "type": "uint256"
        },
        {
          "internalType": "uint256",
          "name": "_amount",
          "type": "uint256"
        }
      ],
      "name": "deposit",
      "outputs": [],
      "stateMutability": "nonpayable",
      "type": "function"
    },
    {
      "inputs": [],
      "name": "devaddr",
      "outputs": [
        {
          "internalType": "address",
          "name": "",
          "type": "address"
        }
      ],
      "stateMutability": "view",
      "type": "function"
    },
    {
      "inputs": [
        {
          "internalType": "uint256",
          "name": "_pid",
          "type": "uint256"
        }
      ],
      "name": "emergencyWithdraw",
      "outputs": [],
      "stateMutability": "nonpayable",
      "type": "function"
    },
    {
      "inputs": [],
      "name": "endBlock",
      "outputs": [
        {
          "internalType": "uint256",
          "name": "",
          "type": "uint256"
        }
      ],
      "stateMutability": "view",
      "type": "function"
    },
    {
      "inputs": [
        {
          "internalType": "uint256",
          "name": "_from",
          "type": "uint256"
        },
        {
          "internalType": "uint256",
          "name": "_to",
          "type": "uint256"
        }
      ],
      "name": "getMultiplier",
      "outputs": [
        {
          "internalType": "uint256",
          "name": "",
          "type": "uint256"
        }
      ],
      "stateMutability": "view",
      "type": "function"
    },
    {
      "inputs": [],
      "name": "isBoosted",
      "outputs": [
        {
          "internalType": "bool",
          "name": "",
          "type": "bool"
        }
      ],
      "stateMutability": "view",
      "type": "function"
    },
    {
      "inputs": [],
      "name": "massUpdatePools",
      "outputs": [],
      "stateMutability": "nonpayable",
      "type": "function"
    },
    {
      "inputs": [],
      "name": "owner",
      "outputs": [
        {
          "internalType": "address",
          "name": "",
          "type": "address"
        }
      ],
      "stateMutability": "view",
      "type": "function"
    },
    {
      "inputs": [
        {
          "internalType": "uint256",
          "name": "_pid",
          "type": "uint256"
        },
        {
          "internalType": "address",
          "name": "_user",
          "type": "address"
        }
      ],
      "name": "pendingString",
      "outputs": [
        {
          "internalType": "uint256",
          "name": "",
          "type": "uint256"
        }
      ],
      "stateMutability": "view",
      "type": "function"
    },
    {
      "inputs": [
        {
          "internalType": "uint256",
          "name": "",
          "type": "uint256"
        }
      ],
      "name": "poolInfo",
      "outputs": [
        {
          "internalType": "contract IERC20",
          "name": "lpToken",
          "type": "address"
        },
        {
          "internalType": "uint256",
          "name": "allocPoint",
          "type": "uint256"
        },
        {
          "internalType": "uint256",
          "name": "lastRewardBlock",
          "type": "uint256"
        },
        {
          "internalType": "uint256",
          "name": "accStringPerShare",
          "type": "uint256"
        }
      ],
      "stateMutability": "view",
      "type": "function"
    },
    {
      "inputs": [],
      "name": "poolLength",
      "outputs": [
        {
          "internalType": "uint256",
          "name": "",
          "type": "uint256"
        }
      ],
      "stateMutability": "view",
      "type": "function"
    },
    {
      "inputs": [],
      "name": "postBoostedBlock",
      "outputs": [
        {
          "internalType": "uint256",
          "name": "",
          "type": "uint256"
        }
      ],
      "stateMutability": "view",
      "type": "function"
    },
    {
      "inputs": [],
      "name": "renounceOwnership",
      "outputs": [],
      "stateMutability": "nonpayable",
      "type": "function"
    },
    {
      "inputs": [
        {
          "internalType": "uint256",
          "name": "_pid",
          "type": "uint256"
        },
        {
          "internalType": "uint256",
          "name": "_allocPoint",
          "type": "uint256"
        },
        {
          "internalType": "bool",
          "name": "_withUpdate",
          "type": "bool"
        }
      ],
      "name": "set",
      "outputs": [],
      "stateMutability": "nonpayable",
      "type": "function"
    },
    {
      "inputs": [],
      "name": "startBlock",
      "outputs": [
        {
          "internalType": "uint256",
          "name": "",
          "type": "uint256"
        }
      ],
      "stateMutability": "view",
      "type": "function"
    },
    {
      "inputs": [],
      "name": "stringPerBlock",
      "outputs": [
        {
          "internalType": "uint256",
          "name": "",
          "type": "uint256"
        }
      ],
      "stateMutability": "view",
      "type": "function"
    },
    {
      "inputs": [],
      "name": "stringToken",
      "outputs": [
        {
          "internalType": "contract StringToken",
          "name": "",
          "type": "address"
        }
      ],
      "stateMutability": "view",
      "type": "function"
    },
    {
      "inputs": [],
      "name": "totalAllocPoint",
      "outputs": [
        {
          "internalType": "uint256",
          "name": "",
          "type": "uint256"
        }
      ],
      "stateMutability": "view",
      "type": "function"
    },
    {
      "inputs": [
        {
          "internalType": "address",
          "name": "newOwner",
          "type": "address"
        }
      ],
      "name": "transferOwnership",
      "outputs": [],
      "stateMutability": "nonpayable",
      "type": "function"
    },
    {
      "inputs": [
        {
          "internalType": "uint256",
          "name": "_pid",
          "type": "uint256"
        }
      ],
      "name": "updatePool",
      "outputs": [],
      "stateMutability": "nonpayable",
      "type": "function"
    },
    {
      "inputs": [
        {
          "internalType": "uint256",
          "name": "",
          "type": "uint256"
        },
        {
          "internalType": "address",
          "name": "",
          "type": "address"
        }
      ],
      "name": "userInfo",
      "outputs": [
        {
          "internalType": "uint256",
          "name": "amount",
          "type": "uint256"
        },
        {
          "internalType": "uint256",
          "name": "rewardDebt",
          "type": "uint256"
        }
      ],
      "stateMutability": "view",
      "type": "function"
    },
    {
      "inputs": [
        {
          "internalType": "uint256",
          "name": "_pid",
          "type": "uint256"
        },
        {
          "internalType": "uint256",
          "name": "_amount",
          "type": "uint256"
        }
      ],
      "name": "withdraw",
      "outputs": [],
      "stateMutability": "nonpayable",
      "type": "function"
    }
  ],
  "bytecode": "0x60806040526708e5616c97b8da006004556006805460ff1916600117905560006009553480156200002f57600080fd5b506040516200188a3803806200188a833981810160405260408110156200005557600080fd5b5080516020909101516000620000736001600160e01b036200012016565b600080546001600160a01b0319166001600160a01b0383169081178255604051929350917f8be0079c531659141344cd1fd0a4f28419497f9722a3daafe3b4186f6b6457e0908290a350600180546001600160a01b0319166001600160a01b038416179055620000f3436225317c62000124602090811b620010f417901c565b60035543600a81905562000114908262000124602090811b620010f417901c565b60055550620001289050565b3390565b0190565b61175280620001386000396000f3fe608060405234801561001057600080fd5b50600436106101635760003560e01c80635312ea8e116100ce5780638dbb1e3a116100875780638dbb1e3a1461033a57806393f1a40b1461035d578063b6897559146103a2578063d49e77cd146103be578063df5e8987146103c6578063e2bbb158146103ce578063f2fde38b146103f157610163565b80635312ea8e14610292578063630b5ba1146102af57806364482f79146102b75780636d643304146102e2578063715018a61461030e5780638da5cb5b1461031657610163565b80631eaaa045116101205780631eaaa045146101ef578063350bac3414610225578063379607f51461022d578063441a3e701461024a57806348cd4cb11461026d57806351eb05a61461027557610163565b8063081e3eda14610168578063083c6323146101825780630b5f91fc1461018a5780630d483ae1146101925780631526fe271461019a57806317caf6f1146101e7575b600080fd5b610170610417565b60408051918252519081900360200190f35b61017061041d565b610170610423565b610170610429565b6101b7600480360360208110156101b057600080fd5b503561042e565b604080516001600160a01b0390951685526020850193909352838301919091526060830152519081900360800190f35b61017061046f565b6102236004803603606081101561020557600080fd5b508035906001600160a01b0360208201351690604001351515610475565b005b610170610600565b6102236004803603602081101561024357600080fd5b5035610606565b6102236004803603604081101561026057600080fd5b50803590602001356106cc565b610170610803565b6102236004803603602081101561028b57600080fd5b5035610809565b610223600480360360208110156102a857600080fd5b5035610a5e565b610223610aff565b610223600480360360608110156102cd57600080fd5b50803590602081013590604001351515610b22565b610170600480360360408110156102f857600080fd5b50803590602001356001600160a01b0316610c03565b610223610db1565b61031e610e5d565b604080516001600160a01b039092168252519081900360200190f35b6101706004803603604081101561035057600080fd5b5080359060200135610e6c565b6103896004803603604081101561037357600080fd5b50803590602001356001600160a01b0316610eb2565b6040805192835260208301919091528051918290030190f35b6103aa610ed6565b604080519115158252519081900360200190f35b61031e610edf565b61031e610eee565b610223600480360360408110156103e457600080fd5b5080359060200135610efd565b6102236004803603602081101561040757600080fd5b50356001600160a01b0316610ff2565b60075490565b60035481565b60055481565b600581565b6007818154811061043b57fe5b600091825260209091206004909102018054600182015460028301546003909301546001600160a01b039092169350919084565b60095481565b61047d6110f8565b6001600160a01b031661048e610e5d565b6001600160a01b0316146104d7576040805162461bcd60e51b815260206004820181905260248201526000805160206116d3833981519152604482015290519081900360640190fd5b80156104e5576104e5610aff565b6000600a5443116104f857600a546104fa565b435b600954909150610510908563ffffffff6110f416565b600955604080516080810182526001600160a01b0394851681526020810195865290810191825260006060820181815260078054600181018255925291517fa66cc928b5edb82af9bd49922954155ab7b0942694bea4ce44661d9a8736c688600490920291820180546001600160a01b031916919096161790945593517fa66cc928b5edb82af9bd49922954155ab7b0942694bea4ce44661d9a8736c689840155517fa66cc928b5edb82af9bd49922954155ab7b0942694bea4ce44661d9a8736c68a8301555090517fa66cc928b5edb82af9bd49922954155ab7b0942694bea4ce44661d9a8736c68b90910155565b60045481565b60006007828154811061061557fe5b6000918252602080832085845260088252604080852033865290925292206004909102909101915061064683610809565b600061065282846110fc565b905061065e3382611159565b6003830154825461068b9164e8d4a510009161067f9163ffffffff6112ea16565b9063ffffffff6112ee16565b600183015560408051828152905133917f47cee97cb7acd717b3c0aa1435d004cd5b3c8c57d70dbceb4e4458bbd60e39d4919081900360200190a250505050565b6000600783815481106106db57fe5b60009182526020808320868452600882526040808520338652909252922080546004909202909201925083111561074e576040805162461bcd60e51b81526020600482015260126024820152711dda5d1a191c985dce881b9bdd0819dbdbd960721b604482015290519081900360640190fd5b61075784610809565b600061076382846110fc565b905061076f3382611159565b8154610781908563ffffffff61130116565b80835560038401546107a49164e8d4a510009161067f919063ffffffff6112ea16565b600183015582546107c5906001600160a01b0316338663ffffffff61130616565b604080518581529051869133917ff279e6a1f5e320cca91135676d9cb6e44ca8a08c0b88342bcdb1144f6511b5689181900360200190a35050505050565b600a5481565b60006007828154811061081857fe5b90600052602060002090600402019050806002015443116108395750610a5b565b8054604080516370a0823160e01b815230600482015290516000926001600160a01b0316916370a08231916024808301926020929190829003018186803b15801561088357600080fd5b505afa158015610897573d6000803e3d6000fd5b505050506040513d60208110156108ad57600080fd5b50519050806108c3575043600290910155610a5b565b60006108d3836002015443610e6c565b9050600061090660095461067f86600101546108fa600454876112ea90919063ffffffff16565b9063ffffffff6112ea16565b905060055443101561099957600061092582600563ffffffff6112ea16565b600154604080516308934a5f60e31b81523060048201526024810184905290519293506001600160a01b039091169163449a52f89160448082019260009290919082900301818387803b15801561097b57600080fd5b505af115801561098f573d6000803e3d6000fd5b5050505050610a1b565b60065460ff16156109af576006805460ff191690555b600154604080516308934a5f60e31b81523060048201526024810184905290516001600160a01b039092169163449a52f89160448082019260009290919082900301818387803b158015610a0257600080fd5b505af1158015610a16573d6000803e3d6000fd5b505050505b610a48610a378461067f8464e8d4a5100063ffffffff6112ea16565b60038601549063ffffffff6110f416565b6003850155505043600290920191909155505b50565b600060078281548110610a6d57fe5b60009182526020808320858452600882526040808520338087529352909320805460049093029093018054909450610ab8926001600160a01b0391909116919063ffffffff61130616565b80546040805191825251849133917fbb757047c2b5f3974fe26b7c10f732e7bce710b0952a71082702781e62ae05959181900360200190a360008082556001909101555050565b60075460005b81811015610b1e57610b1681610809565b600101610b05565b5050565b610b2a6110f8565b6001600160a01b0316610b3b610e5d565b6001600160a01b031614610b84576040805162461bcd60e51b815260206004820181905260248201526000805160206116d3833981519152604482015290519081900360640190fd5b8015610b9257610b92610aff565b610bd582610bc960078681548110610ba657fe5b90600052602060002090600402016001015460095461130190919063ffffffff16565b9063ffffffff6110f416565b6009819055508160078481548110610be957fe5b906000526020600020906004020160010181905550505050565b60008060078481548110610c1357fe5b600091825260208083208784526008825260408085206001600160a01b03898116875290845281862060049586029093016003810154815484516370a0823160e01b81523098810198909852935191985093969395939492909116926370a08231926024808301939192829003018186803b158015610c9157600080fd5b505afa158015610ca5573d6000803e3d6000fd5b505050506040513d6020811015610cbb57600080fd5b5051600285015490915043118015610cd257508015155b15610d3e576000610ce7856002015443610e6c565b90506000610d0e60095461067f88600101546108fa600454876112ea90919063ffffffff16565b9050610d39610d2c8461067f8464e8d4a5100063ffffffff6112ea16565b859063ffffffff6110f416565b935050505b6000610d748460010154610d6864e8d4a5100061067f8789600001546112ea90919063ffffffff16565b9063ffffffff61130116565b60065490915060ff1615610d9f57610d9381600563ffffffff6112ea16565b95505050505050610dab565b9450610dab9350505050565b92915050565b610db96110f8565b6001600160a01b0316610dca610e5d565b6001600160a01b031614610e13576040805162461bcd60e51b815260206004820181905260248201526000805160206116d3833981519152604482015290519081900360640190fd5b600080546040516001600160a01b03909116907f8be0079c531659141344cd1fd0a4f28419497f9722a3daafe3b4186f6b6457e0908390a3600080546001600160a01b0319169055565b6000546001600160a01b031690565b60006003548211610e8e57610e87828463ffffffff61130116565b9050610dab565b6003548310610e9f57506000610dab565b600354610e87908463ffffffff61130116565b60086020908152600092835260408084209091529082529020805460019091015482565b60065460ff1681565b6002546001600160a01b031681565b6001546001600160a01b031681565b600060078381548110610f0c57fe5b60009182526020808320868452600882526040808520338652909252922060049091029091019150610f3d84610809565b805415610f5e576000610f5082846110fc565b9050610f5c3382611159565b505b8154610f7b906001600160a01b031633308663ffffffff61135816565b8054610f8d908463ffffffff6110f416565b8082556003830154610fb09164e8d4a510009161067f919063ffffffff6112ea16565b6001820155604080518481529051859133917f90890809c654f11d6e72a28fa60149770a0d11ec6c92319d6ceb2bb0a4ea1a159181900360200190a350505050565b610ffa6110f8565b6001600160a01b031661100b610e5d565b6001600160a01b031614611054576040805162461bcd60e51b815260206004820181905260248201526000805160206116d3833981519152604482015290519081900360640190fd5b6001600160a01b0381166110995760405162461bcd60e51b81526004018080602001828103825260268152602001806116876026913960400191505060405180910390fd5b600080546040516001600160a01b03808516939216917f8be0079c531659141344cd1fd0a4f28419497f9722a3daafe3b4186f6b6457e091a3600080546001600160a01b0319166001600160a01b0392909216919091179055565b0190565b3390565b60008061112b8460010154610d6864e8d4a5100061067f876003015489600001546112ea90919063ffffffff16565b60065490915060ff16156111525761114a81600563ffffffff6112ea16565b915050610dab565b9392505050565b600154604080516370a0823160e01b815230600482015290516000926001600160a01b0316916370a08231916024808301926020929190829003018186803b1580156111a457600080fd5b505afa1580156111b8573d6000803e3d6000fd5b505050506040513d60208110156111ce57600080fd5b5051905080821115611262576001546040805163a9059cbb60e01b81526001600160a01b038681166004830152602482018590529151919092169163a9059cbb9160448083019260209291908290030181600087803b15801561123057600080fd5b505af1158015611244573d6000803e3d6000fd5b505050506040513d602081101561125a57600080fd5b506112e59050565b6001546040805163a9059cbb60e01b81526001600160a01b038681166004830152602482018690529151919092169163a9059cbb9160448083019260209291908290030181600087803b1580156112b857600080fd5b505af11580156112cc573d6000803e3d6000fd5b505050506040513d60208110156112e257600080fd5b50505b505050565b0290565b60008183816112f957fe5b049392505050565b900390565b604080516001600160a01b038416602482015260448082018490528251808303909101815260649091019091526020810180516001600160e01b031663a9059cbb60e01b1790526112e59084906113b8565b604080516001600160a01b0380861660248301528416604482015260648082018490528251808303909101815260849091019091526020810180516001600160e01b03166323b872dd60e01b1790526113b29085906113b8565b50505050565b606061140d826040518060400160405280602081526020017f5361666545524332303a206c6f772d6c6576656c2063616c6c206661696c6564815250856001600160a01b03166114699092919063ffffffff16565b8051909150156112e55780806020019051602081101561142c57600080fd5b50516112e55760405162461bcd60e51b815260040180806020018281038252602a8152602001806116f3602a913960400191505060405180910390fd5b60606114788484600085611480565b949350505050565b6060824710156114c15760405162461bcd60e51b81526004018080602001828103825260268152602001806116ad6026913960400191505060405180910390fd5b6114ca856115dc565b61151b576040805162461bcd60e51b815260206004820152601d60248201527f416464726573733a2063616c6c20746f206e6f6e2d636f6e7472616374000000604482015290519081900360640190fd5b60006060866001600160a01b031685876040518082805190602001908083835b6020831061155a5780518252601f19909201916020918201910161153b565b6001836020036101000a03801982511681845116808217855250505050505090500191505060006040518083038185875af1925050503d80600081146115bc576040519150601f19603f3d011682016040523d82523d6000602084013e6115c1565b606091505b50915091506115d18282866115e2565b979650505050505050565b3b151590565b606083156115f1575081611152565b8251156116015782518084602001fd5b8160405162461bcd60e51b81526004018080602001828103825283818151815260200191508051906020019080838360005b8381101561164b578181015183820152602001611633565b50505050905090810190601f1680156116785780820380516001836020036101000a031916815260200191505b509250505060405180910390fdfe4f776e61626c653a206e6577206f776e657220697320746865207a65726f2061646472657373416464726573733a20696e73756666696369656e742062616c616e636520666f722063616c6c4f776e61626c653a2063616c6c6572206973206e6f7420746865206f776e65725361666545524332303a204552433230206f7065726174696f6e20646964206e6f742073756363656564a2646970667358221220d1e883a95c086c8630349da65d637599b1856c8ce9e6b0e3f7237a02c282088764736f6c634300060b0033",
  "linkReferences": {},
  "deployedLinkReferences": {}
}