{
  "_format": "hh-sol-artifact-1",
  "contractName": "Farm",
  "sourceName": "contracts/Farm.sol",
  "abi": [
    {
      "inputs": [
        {
          "internalType": "contract StringToken",
          "name": "_string",
          "type": "address"
        },
        {
          "internalType": "uint256",
          "name": "_boostedBuffer",
          "type": "uint256"
        }
      ],
      "stateMutability": "nonpayable",
      "type": "constructor"
    },
    {
      "anonymous": false,
      "inputs": [
        {
          "indexed": true,
          "internalType": "address",
          "name": "who",
          "type": "address"
        },
        {
          "indexed": false,
          "internalType": "uint256",
          "name": "amountClaimed",
          "type": "uint256"
        }
      ],
      "name": "Claim",
      "type": "event"
    },
    {
      "anonymous": false,
      "inputs": [
        {
          "indexed": true,
          "internalType": "address",
          "name": "user",
          "type": "address"
        },
        {
          "indexed": true,
          "internalType": "uint256",
          "name": "pid",
          "type": "uint256"
        },
        {
          "indexed": false,
          "internalType": "uint256",
          "name": "amount",
          "type": "uint256"
        }
      ],
      "name": "Deposit",
      "type": "event"
    },
    {
      "anonymous": false,
      "inputs": [
        {
          "indexed": true,
          "internalType": "address",
          "name": "user",
          "type": "address"
        },
        {
          "indexed": true,
          "internalType": "uint256",
          "name": "pid",
          "type": "uint256"
        },
        {
          "indexed": false,
          "internalType": "uint256",
          "name": "amount",
          "type": "uint256"
        }
      ],
      "name": "EmergencyWithdraw",
      "type": "event"
    },
    {
      "anonymous": false,
      "inputs": [
        {
          "indexed": true,
          "internalType": "address",
          "name": "user",
          "type": "address"
        },
        {
          "indexed": true,
          "internalType": "uint256",
          "name": "pid",
          "type": "uint256"
        },
        {
          "indexed": false,
          "internalType": "uint256",
          "name": "amount",
          "type": "uint256"
        }
      ],
      "name": "Withdraw",
      "type": "event"
    },
    {
      "inputs": [
        {
          "internalType": "uint256",
          "name": "_allocPoint",
          "type": "uint256"
        },
        {
          "internalType": "contract IERC20",
          "name": "_lpToken",
          "type": "address"
        },
        {
          "internalType": "bool",
          "name": "_withUpdate",
          "type": "bool"
        }
      ],
      "name": "addPool",
      "outputs": [],
      "stateMutability": "nonpayable",
      "type": "function"
    },
    {
      "inputs": [],
      "name": "boostedMultiplier",
      "outputs": [
        {
          "internalType": "uint256",
          "name": "",
          "type": "uint256"
        }
      ],
      "stateMutability": "view",
      "type": "function"
    },
    {
      "inputs": [
        {
          "internalType": "uint256",
          "name": "_pid",
          "type": "uint256"
        }
      ],
      "name": "claim",
      "outputs": [],
      "stateMutability": "nonpayable",
      "type": "function"
    },
    {
      "inputs": [],
      "name": "creator",
      "outputs": [
        {
          "internalType": "address",
          "name": "",
          "type": "address"
        }
      ],
      "stateMutability": "view",
      "type": "function"
    },
    {
      "inputs": [
        {
          "internalType": "uint256",
          "name": "_pid",
          "type": "uint256"
        },
        {
          "internalType": "uint256",
          "name": "_amount",
          "type": "uint256"
        }
      ],
      "name": "deposit",
      "outputs": [],
      "stateMutability": "nonpayable",
      "type": "function"
    },
    {
      "inputs": [
        {
          "internalType": "uint256",
          "name": "_pid",
          "type": "uint256"
        }
      ],
      "name": "emergencyWithdraw",
      "outputs": [],
      "stateMutability": "nonpayable",
      "type": "function"
    },
    {
      "inputs": [],
      "name": "endBlock",
      "outputs": [
        {
          "internalType": "uint256",
          "name": "",
          "type": "uint256"
        }
      ],
      "stateMutability": "view",
      "type": "function"
    },
    {
      "inputs": [
        {
          "internalType": "uint256",
          "name": "_from",
          "type": "uint256"
        },
        {
          "internalType": "uint256",
          "name": "_to",
          "type": "uint256"
        }
      ],
      "name": "getMultiplier",
      "outputs": [
        {
          "internalType": "uint256",
          "name": "",
          "type": "uint256"
        }
      ],
      "stateMutability": "view",
      "type": "function"
    },
    {
      "inputs": [],
      "name": "isBoosted",
      "outputs": [
        {
          "internalType": "bool",
          "name": "",
          "type": "bool"
        }
      ],
      "stateMutability": "view",
      "type": "function"
    },
    {
      "inputs": [],
      "name": "lastSupply",
      "outputs": [
        {
          "internalType": "uint256",
          "name": "",
          "type": "uint256"
        }
      ],
      "stateMutability": "view",
      "type": "function"
    },
    {
      "inputs": [],
      "name": "massUpdatePools",
      "outputs": [],
      "stateMutability": "nonpayable",
      "type": "function"
    },
    {
      "inputs": [],
      "name": "maxSupply",
      "outputs": [
        {
          "internalType": "uint256",
          "name": "",
          "type": "uint256"
        }
      ],
      "stateMutability": "view",
      "type": "function"
    },
    {
      "inputs": [
        {
          "internalType": "uint256",
          "name": "_pid",
          "type": "uint256"
        },
        {
          "internalType": "address",
          "name": "_user",
          "type": "address"
        }
      ],
      "name": "pendingString",
      "outputs": [
        {
          "internalType": "uint256",
          "name": "",
          "type": "uint256"
        }
      ],
      "stateMutability": "view",
      "type": "function"
    },
    {
      "inputs": [
        {
          "internalType": "uint256",
          "name": "",
          "type": "uint256"
        }
      ],
      "name": "poolInfo",
      "outputs": [
        {
          "internalType": "contract IERC20",
          "name": "lpToken",
          "type": "address"
        },
        {
          "internalType": "uint256",
          "name": "allocPoint",
          "type": "uint256"
        },
        {
          "internalType": "uint256",
          "name": "lastRewardBlock",
          "type": "uint256"
        },
        {
          "internalType": "uint256",
          "name": "accStringPerShare",
          "type": "uint256"
        }
      ],
      "stateMutability": "view",
      "type": "function"
    },
    {
      "inputs": [],
      "name": "poolLength",
      "outputs": [
        {
          "internalType": "uint256",
          "name": "",
          "type": "uint256"
        }
      ],
      "stateMutability": "view",
      "type": "function"
    },
    {
      "inputs": [],
      "name": "postBoostedBlock",
      "outputs": [
        {
          "internalType": "uint256",
          "name": "",
          "type": "uint256"
        }
      ],
      "stateMutability": "view",
      "type": "function"
    },
    {
      "inputs": [
        {
          "internalType": "uint256",
          "name": "_pid",
          "type": "uint256"
        },
        {
          "internalType": "uint256",
          "name": "_allocPoint",
          "type": "uint256"
        },
        {
          "internalType": "bool",
          "name": "_withUpdate",
          "type": "bool"
        }
      ],
      "name": "set",
      "outputs": [],
      "stateMutability": "nonpayable",
      "type": "function"
    },
    {
      "inputs": [],
      "name": "startBlock",
      "outputs": [
        {
          "internalType": "uint256",
          "name": "",
          "type": "uint256"
        }
      ],
      "stateMutability": "view",
      "type": "function"
    },
    {
      "inputs": [],
      "name": "stringPerBlock",
      "outputs": [
        {
          "internalType": "uint256",
          "name": "",
          "type": "uint256"
        }
      ],
      "stateMutability": "view",
      "type": "function"
    },
    {
      "inputs": [],
      "name": "stringToken",
      "outputs": [
        {
          "internalType": "contract StringToken",
          "name": "",
          "type": "address"
        }
      ],
      "stateMutability": "view",
      "type": "function"
    },
    {
      "inputs": [],
      "name": "totalAllocPoint",
      "outputs": [
        {
          "internalType": "uint256",
          "name": "",
          "type": "uint256"
        }
      ],
      "stateMutability": "view",
      "type": "function"
    },
    {
      "inputs": [
        {
          "internalType": "uint256",
          "name": "_pid",
          "type": "uint256"
        }
      ],
      "name": "updatePool",
      "outputs": [],
      "stateMutability": "nonpayable",
      "type": "function"
    },
    {
      "inputs": [
        {
          "internalType": "uint256",
          "name": "",
          "type": "uint256"
        },
        {
          "internalType": "address",
          "name": "",
          "type": "address"
        }
      ],
      "name": "userInfo",
      "outputs": [
        {
          "internalType": "uint256",
          "name": "amount",
          "type": "uint256"
        },
        {
          "internalType": "uint256",
          "name": "rewardDebt",
          "type": "uint256"
        }
      ],
      "stateMutability": "view",
      "type": "function"
    },
    {
      "inputs": [
        {
          "internalType": "uint256",
          "name": "_pid",
          "type": "uint256"
        },
        {
          "internalType": "uint256",
          "name": "_amount",
          "type": "uint256"
        }
      ],
      "name": "withdraw",
      "outputs": [],
      "stateMutability": "nonpayable",
      "type": "function"
    }
  ],
  "bytecode": "0x60806040526708e5616c97b8da006005556007805460ff191660011790556000600a553480156200002f57600080fd5b50604051620017f7380380620017f7833981810160405260408110156200005557600080fd5b508051602091820151600280546001600160a01b0319166001600160a01b0384161790559091620000969043906225317c90620001c4811b62000f6b17901c565b60045543600b819055620000b79082620001c4602090811b62000f6b17901c565b600655600380546001600160a01b03191633179055600254604080516318160ddd60e01b815290516001600160a01b0392909216916318160ddd91600480820192602092909190829003018186803b1580156200011357600080fd5b505afa15801562000128573d6000803e3d6000fd5b505050506040513d60208110156200013f57600080fd5b50516000556002546040805163d5abeb0160e01b815290516001600160a01b039092169163d5abeb0191600480820192602092909190829003018186803b1580156200018a57600080fd5b505afa1580156200019f573d6000803e3d6000fd5b505050506040513d6020811015620001b657600080fd5b505160015550620001c89050565b0190565b61161f80620001d86000396000f3fe608060405234801561001057600080fd5b50600436106101585760003560e01c80635312ea8e116100c357806393f1a40b1161007c57806393f1a40b1461034a578063b68975591461038f578063d5abeb01146103ab578063df5e8987146103b3578063e2bbb158146103bb578063f75b8c5f146103de57610158565b80635312ea8e14610277578063630b5ba11461029457806364482f791461029c5780636d643304146102c75780637abceffd146102f35780638dbb1e3a1461032757610158565b806317caf6f11161011557806317caf6f114610200578063350bac3414610208578063379607f514610210578063441a3e701461022f57806348cd4cb11461025257806351eb05a61461025a57610158565b806302d05d3f1461015d578063081e3eda14610181578063083c63231461019b5780630b5f91fc146101a35780630d483ae1146101ab5780631526fe27146101b3575b600080fd5b6101656103e6565b604080516001600160a01b039092168252519081900360200190f35b6101896103f5565b60408051918252519081900360200190f35b6101896103fb565b610189610401565b610189610407565b6101d0600480360360208110156101c957600080fd5b503561040c565b604080516001600160a01b0390951685526020850193909352838301919091526060830152519081900360800190f35b61018961044d565b610189610453565b61022d6004803603602081101561022657600080fd5b5035610459565b005b61022d6004803603604081101561024557600080fd5b5080359060200135610533565b61018961067e565b61022d6004803603602081101561027057600080fd5b5035610684565b61022d6004803603602081101561028d57600080fd5b5035610928565b61022d6109c9565b61022d600480360360608110156102b257600080fd5b508035906020810135906040013515156109ec565b610189600480360360408110156102dd57600080fd5b50803590602001356001600160a01b0316610ab4565b61022d6004803603606081101561030957600080fd5b508035906001600160a01b0360208201351690604001351515610c62565b6101896004803603604081101561033d57600080fd5b5080359060200135610dd4565b6103766004803603604081101561036057600080fd5b50803590602001356001600160a01b0316610e1a565b6040805192835260208301919091528051918290030190f35b610397610e3e565b604080519115158252519081900360200190f35b610189610e47565b610165610e4d565b61022d600480360360408110156103d157600080fd5b5080359060200135610e5c565b610189610f65565b6003546001600160a01b031681565b60085490565b60045481565b60065481565b600581565b6008818154811061041957fe5b600091825260209091206004909102018054600182015460028301546003909301546001600160a01b039092169350919084565b600a5481565b60055481565b60006008828154811061046857fe5b60009182526020808320858452600982526040808520338652909252922060049091029091019150610498610f6f565b60015460005410156104ad576104ad83610684565b60006104b98284610fee565b90506104c5338261104b565b600383015482546104f29164e8d4a51000916104e69163ffffffff6111dc16565b9063ffffffff6111e016565b600183015560408051828152905133917f47cee97cb7acd717b3c0aa1435d004cd5b3c8c57d70dbceb4e4458bbd60e39d4919081900360200190a250505050565b60006008838154811061054257fe5b6000918252602080832086845260098252604080852033865290925292208054600490920290920192508311156105b5576040805162461bcd60e51b81526020600482015260126024820152711dda5d1a191c985dce881b9bdd0819dbdbd960721b604482015290519081900360640190fd5b6105bd610f6f565b60015460005410156105d2576105d284610684565b60006105de8284610fee565b90506105ea338261104b565b81546105fc908563ffffffff6111f316565b808355600384015461061f9164e8d4a51000916104e6919063ffffffff6111dc16565b60018301558254610640906001600160a01b0316338663ffffffff6111f816565b604080518581529051869133917ff279e6a1f5e320cca91135676d9cb6e44ca8a08c0b88342bcdb1144f6511b5689181900360200190a35050505050565b600b5481565b60006008828154811061069357fe5b90600052602060002090600402019050806002015443116106b45750610925565b8054604080516370a0823160e01b815230600482015290516000926001600160a01b0316916370a08231916024808301926020929190829003018186803b1580156106fe57600080fd5b505afa158015610712573d6000803e3d6000fd5b505050506040513d602081101561072857600080fd5b505190508061073e575043600290910155610925565b600061074e836002015443610dd4565b90506000610781600a546104e68660010154610775600554876111dc90919063ffffffff16565b9063ffffffff6111dc16565b905060015461079b82600054610f6b90919063ffffffff16565b11156107d257600080546107b5908363ffffffff610f6b16565b90506107ce6000546001546111f390919063ffffffff16565b9150505b6006544310156108635760006107ef82600563ffffffff6111dc16565b600254604080516308934a5f60e31b81523060048201526024810184905290519293506001600160a01b039091169163449a52f89160448082019260009290919082900301818387803b15801561084557600080fd5b505af1158015610859573d6000803e3d6000fd5b50505050506108e5565b60075460ff1615610879576007805460ff191690555b600254604080516308934a5f60e31b81523060048201526024810184905290516001600160a01b039092169163449a52f89160448082019260009290919082900301818387803b1580156108cc57600080fd5b505af11580156108e0573d6000803e3d6000fd5b505050505b610912610901846104e68464e8d4a5100063ffffffff6111dc16565b60038601549063ffffffff610f6b16565b6003850155505043600290920191909155505b50565b60006008828154811061093757fe5b60009182526020808320858452600982526040808520338087529352909320805460049093029093018054909450610982926001600160a01b0391909116919063ffffffff6111f816565b80546040805191825251849133917fbb757047c2b5f3974fe26b7c10f732e7bce710b0952a71082702781e62ae05959181900360200190a360008082556001909101555050565b60085460005b818110156109e8576109e081610684565b6001016109cf565b5050565b6003546001600160a01b03163314610a355760405162461bcd60e51b815260040180806020018281038252602181526020018061159f6021913960400191505060405180910390fd5b8015610a4357610a436109c9565b610a8682610a7a60088681548110610a5757fe5b906000526020600020906004020160010154600a546111f390919063ffffffff16565b9063ffffffff610f6b16565b600a819055508160088481548110610a9a57fe5b906000526020600020906004020160010181905550505050565b60008060088481548110610ac457fe5b600091825260208083208784526009825260408085206001600160a01b03898116875290845281862060049586029093016003810154815484516370a0823160e01b81523098810198909852935191985093969395939492909116926370a08231926024808301939192829003018186803b158015610b4257600080fd5b505afa158015610b56573d6000803e3d6000fd5b505050506040513d6020811015610b6c57600080fd5b5051600285015490915043118015610b8357508015155b15610bef576000610b98856002015443610dd4565b90506000610bbf600a546104e68860010154610775600554876111dc90919063ffffffff16565b9050610bea610bdd846104e68464e8d4a5100063ffffffff6111dc16565b859063ffffffff610f6b16565b935050505b6000610c258460010154610c1964e8d4a510006104e68789600001546111dc90919063ffffffff16565b9063ffffffff6111f316565b60075490915060ff1615610c5057610c4481600563ffffffff6111dc16565b95505050505050610c5c565b9450610c5c9350505050565b92915050565b6003546001600160a01b03163314610cab5760405162461bcd60e51b815260040180806020018281038252602181526020018061159f6021913960400191505060405180910390fd5b8015610cb957610cb96109c9565b6000600b544311610ccc57600b54610cce565b435b600a54909150610ce4908563ffffffff610f6b16565b600a55604080516080810182526001600160a01b0394851681526020810195865290810191825260006060820181815260088054600181018255925291517ff3f7a9fe364faab93b216da50a3214154f22a0a2b415b23a84c8169e8b636ee3600490920291820180546001600160a01b031916919096161790945593517ff3f7a9fe364faab93b216da50a3214154f22a0a2b415b23a84c8169e8b636ee4840155517ff3f7a9fe364faab93b216da50a3214154f22a0a2b415b23a84c8169e8b636ee58301555090517ff3f7a9fe364faab93b216da50a3214154f22a0a2b415b23a84c8169e8b636ee690910155565b60006004548211610df657610def828463ffffffff6111f316565b9050610c5c565b6004548310610e0757506000610c5c565b600454610def908463ffffffff6111f316565b60096020908152600092835260408084209091529082529020805460019091015482565b60075460ff1681565b60015481565b6002546001600160a01b031681565b600060088381548110610e6b57fe5b60009182526020808320868452600982526040808520338652909252922060049091029091019150610e9b610f6f565b6001546000541015610eb057610eb084610684565b805415610ed1576000610ec38284610fee565b9050610ecf338261104b565b505b8154610eee906001600160a01b031633308663ffffffff61124a16565b8054610f00908463ffffffff610f6b16565b8082556003830154610f239164e8d4a51000916104e6919063ffffffff6111dc16565b6001820155604080518481529051859133917f90890809c654f11d6e72a28fa60149770a0d11ec6c92319d6ceb2bb0a4ea1a159181900360200190a350505050565b60005481565b0190565b600260009054906101000a90046001600160a01b03166001600160a01b03166318160ddd6040518163ffffffff1660e01b815260040160206040518083038186803b158015610fbd57600080fd5b505afa158015610fd1573d6000803e3d6000fd5b505050506040513d6020811015610fe757600080fd5b5051600055565b60008061101d8460010154610c1964e8d4a510006104e6876003015489600001546111dc90919063ffffffff16565b60075490915060ff16156110445761103c81600563ffffffff6111dc16565b915050610c5c565b9392505050565b600254604080516370a0823160e01b815230600482015290516000926001600160a01b0316916370a08231916024808301926020929190829003018186803b15801561109657600080fd5b505afa1580156110aa573d6000803e3d6000fd5b505050506040513d60208110156110c057600080fd5b5051905080821115611154576002546040805163a9059cbb60e01b81526001600160a01b038681166004830152602482018590529151919092169163a9059cbb9160448083019260209291908290030181600087803b15801561112257600080fd5b505af1158015611136573d6000803e3d6000fd5b505050506040513d602081101561114c57600080fd5b506111d79050565b6002546040805163a9059cbb60e01b81526001600160a01b038681166004830152602482018690529151919092169163a9059cbb9160448083019260209291908290030181600087803b1580156111aa57600080fd5b505af11580156111be573d6000803e3d6000fd5b505050506040513d60208110156111d457600080fd5b50505b505050565b0290565b60008183816111eb57fe5b049392505050565b900390565b604080516001600160a01b038416602482015260448082018490528251808303909101815260649091019091526020810180516001600160e01b031663a9059cbb60e01b1790526111d79084906112aa565b604080516001600160a01b0380861660248301528416604482015260648082018490528251808303909101815260849091019091526020810180516001600160e01b03166323b872dd60e01b1790526112a49085906112aa565b50505050565b60606112ff826040518060400160405280602081526020017f5361666545524332303a206c6f772d6c6576656c2063616c6c206661696c6564815250856001600160a01b031661135b9092919063ffffffff16565b8051909150156111d75780806020019051602081101561131e57600080fd5b50516111d75760405162461bcd60e51b815260040180806020018281038252602a8152602001806115c0602a913960400191505060405180910390fd5b606061136a8484600085611372565b949350505050565b6060824710156113b35760405162461bcd60e51b81526004018080602001828103825260268152602001806115796026913960400191505060405180910390fd5b6113bc856114ce565b61140d576040805162461bcd60e51b815260206004820152601d60248201527f416464726573733a2063616c6c20746f206e6f6e2d636f6e7472616374000000604482015290519081900360640190fd5b60006060866001600160a01b031685876040518082805190602001908083835b6020831061144c5780518252601f19909201916020918201910161142d565b6001836020036101000a03801982511681845116808217855250505050505090500191505060006040518083038185875af1925050503d80600081146114ae576040519150601f19603f3d011682016040523d82523d6000602084013e6114b3565b606091505b50915091506114c38282866114d4565b979650505050505050565b3b151590565b606083156114e3575081611044565b8251156114f35782518084602001fd5b8160405162461bcd60e51b81526004018080602001828103825283818151815260200191508051906020019080838360005b8381101561153d578181015183820152602001611525565b50505050905090810190601f16801561156a5780820380516001836020036101000a031916815260200191505b509250505060405180910390fdfe416464726573733a20696e73756666696369656e742062616c616e636520666f722063616c6c6f6e6c792063726561746f722063616e2063616c6c2074686973206d6574686f645361666545524332303a204552433230206f7065726174696f6e20646964206e6f742073756363656564a26469706673582212200f6ce3153682015717e3c4333e9b7fdef613bf8914e84f90615603d6ef5394cd64736f6c634300060b0033",
  "linkReferences": {},
  "deployedLinkReferences": {}
}