{
  "_format": "hh-sol-artifact-1",
  "contractName": "Farm",
  "sourceName": "contracts/Farm.sol",
  "abi": [
    {
      "inputs": [
        {
          "internalType": "contract StringToken",
          "name": "_string",
          "type": "address"
        },
        {
          "internalType": "uint256",
          "name": "_boostedBuffer",
          "type": "uint256"
        }
      ],
      "stateMutability": "nonpayable",
      "type": "constructor"
    },
    {
      "anonymous": false,
      "inputs": [
        {
          "indexed": true,
          "internalType": "address",
          "name": "who",
          "type": "address"
        },
        {
          "indexed": false,
          "internalType": "uint256",
          "name": "amountClaimed",
          "type": "uint256"
        }
      ],
      "name": "Claim",
      "type": "event"
    },
    {
      "anonymous": false,
      "inputs": [
        {
          "indexed": true,
          "internalType": "address",
          "name": "user",
          "type": "address"
        },
        {
          "indexed": true,
          "internalType": "uint256",
          "name": "pid",
          "type": "uint256"
        },
        {
          "indexed": false,
          "internalType": "uint256",
          "name": "amount",
          "type": "uint256"
        }
      ],
      "name": "Deposit",
      "type": "event"
    },
    {
      "anonymous": false,
      "inputs": [
        {
          "indexed": true,
          "internalType": "address",
          "name": "user",
          "type": "address"
        },
        {
          "indexed": true,
          "internalType": "uint256",
          "name": "pid",
          "type": "uint256"
        },
        {
          "indexed": false,
          "internalType": "uint256",
          "name": "amount",
          "type": "uint256"
        }
      ],
      "name": "EmergencyWithdraw",
      "type": "event"
    },
    {
      "anonymous": false,
      "inputs": [
        {
          "indexed": true,
          "internalType": "address",
          "name": "user",
          "type": "address"
        },
        {
          "indexed": true,
          "internalType": "uint256",
          "name": "pid",
          "type": "uint256"
        },
        {
          "indexed": false,
          "internalType": "uint256",
          "name": "amount",
          "type": "uint256"
        }
      ],
      "name": "Withdraw",
      "type": "event"
    },
    {
      "inputs": [
        {
          "internalType": "uint256",
          "name": "_allocPoint",
          "type": "uint256"
        },
        {
          "internalType": "contract IERC20",
          "name": "_lpToken",
          "type": "address"
        },
        {
          "internalType": "bool",
          "name": "_withUpdate",
          "type": "bool"
        }
      ],
      "name": "addPool",
      "outputs": [],
      "stateMutability": "nonpayable",
      "type": "function"
    },
    {
      "inputs": [],
      "name": "boostedMultiplier",
      "outputs": [
        {
          "internalType": "uint256",
          "name": "",
          "type": "uint256"
        }
      ],
      "stateMutability": "view",
      "type": "function"
    },
    {
      "inputs": [
        {
          "internalType": "uint256",
          "name": "_pid",
          "type": "uint256"
        }
      ],
      "name": "claim",
      "outputs": [],
      "stateMutability": "nonpayable",
      "type": "function"
    },
    {
      "inputs": [],
      "name": "creator",
      "outputs": [
        {
          "internalType": "address",
          "name": "",
          "type": "address"
        }
      ],
      "stateMutability": "view",
      "type": "function"
    },
    {
      "inputs": [
        {
          "internalType": "uint256",
          "name": "_pid",
          "type": "uint256"
        },
        {
          "internalType": "uint256",
          "name": "_amount",
          "type": "uint256"
        }
      ],
      "name": "deposit",
      "outputs": [],
      "stateMutability": "nonpayable",
      "type": "function"
    },
    {
      "inputs": [
        {
          "internalType": "uint256",
          "name": "_pid",
          "type": "uint256"
        }
      ],
      "name": "emergencyWithdraw",
      "outputs": [],
      "stateMutability": "nonpayable",
      "type": "function"
    },
    {
      "inputs": [],
      "name": "endBlock",
      "outputs": [
        {
          "internalType": "uint256",
          "name": "",
          "type": "uint256"
        }
      ],
      "stateMutability": "view",
      "type": "function"
    },
    {
      "inputs": [
        {
          "internalType": "uint256",
          "name": "_from",
          "type": "uint256"
        },
        {
          "internalType": "uint256",
          "name": "_to",
          "type": "uint256"
        }
      ],
      "name": "getMultiplier",
      "outputs": [
        {
          "internalType": "uint256",
          "name": "",
          "type": "uint256"
        }
      ],
      "stateMutability": "view",
      "type": "function"
    },
    {
      "inputs": [],
      "name": "isBoosted",
      "outputs": [
        {
          "internalType": "bool",
          "name": "",
          "type": "bool"
        }
      ],
      "stateMutability": "view",
      "type": "function"
    },
    {
      "inputs": [],
      "name": "lastSupply",
      "outputs": [
        {
          "internalType": "uint256",
          "name": "",
          "type": "uint256"
        }
      ],
      "stateMutability": "view",
      "type": "function"
    },
    {
      "inputs": [],
      "name": "massUpdatePools",
      "outputs": [],
      "stateMutability": "nonpayable",
      "type": "function"
    },
    {
      "inputs": [],
      "name": "maxSupply",
      "outputs": [
        {
          "internalType": "uint256",
          "name": "",
          "type": "uint256"
        }
      ],
      "stateMutability": "view",
      "type": "function"
    },
    {
      "inputs": [
        {
          "internalType": "uint256",
          "name": "_pid",
          "type": "uint256"
        },
        {
          "internalType": "address",
          "name": "_user",
          "type": "address"
        }
      ],
      "name": "pendingString",
      "outputs": [
        {
          "internalType": "uint256",
          "name": "",
          "type": "uint256"
        }
      ],
      "stateMutability": "view",
      "type": "function"
    },
    {
      "inputs": [
        {
          "internalType": "uint256",
          "name": "",
          "type": "uint256"
        }
      ],
      "name": "poolInfo",
      "outputs": [
        {
          "internalType": "contract IERC20",
          "name": "lpToken",
          "type": "address"
        },
        {
          "internalType": "uint256",
          "name": "allocPoint",
          "type": "uint256"
        },
        {
          "internalType": "uint256",
          "name": "lastRewardBlock",
          "type": "uint256"
        },
        {
          "internalType": "uint256",
          "name": "accStringPerShare",
          "type": "uint256"
        }
      ],
      "stateMutability": "view",
      "type": "function"
    },
    {
      "inputs": [],
      "name": "poolLength",
      "outputs": [
        {
          "internalType": "uint256",
          "name": "",
          "type": "uint256"
        }
      ],
      "stateMutability": "view",
      "type": "function"
    },
    {
      "inputs": [],
      "name": "postBoostedBlock",
      "outputs": [
        {
          "internalType": "uint256",
          "name": "",
          "type": "uint256"
        }
      ],
      "stateMutability": "view",
      "type": "function"
    },
    {
      "inputs": [
        {
          "internalType": "uint256",
          "name": "_pid",
          "type": "uint256"
        },
        {
          "internalType": "uint256",
          "name": "_allocPoint",
          "type": "uint256"
        },
        {
          "internalType": "bool",
          "name": "_withUpdate",
          "type": "bool"
        }
      ],
      "name": "set",
      "outputs": [],
      "stateMutability": "nonpayable",
      "type": "function"
    },
    {
      "inputs": [],
      "name": "startBlock",
      "outputs": [
        {
          "internalType": "uint256",
          "name": "",
          "type": "uint256"
        }
      ],
      "stateMutability": "view",
      "type": "function"
    },
    {
      "inputs": [],
      "name": "stringPerBlock",
      "outputs": [
        {
          "internalType": "uint256",
          "name": "",
          "type": "uint256"
        }
      ],
      "stateMutability": "view",
      "type": "function"
    },
    {
      "inputs": [],
      "name": "stringToken",
      "outputs": [
        {
          "internalType": "contract StringToken",
          "name": "",
          "type": "address"
        }
      ],
      "stateMutability": "view",
      "type": "function"
    },
    {
      "inputs": [],
      "name": "totalAllocPoint",
      "outputs": [
        {
          "internalType": "uint256",
          "name": "",
          "type": "uint256"
        }
      ],
      "stateMutability": "view",
      "type": "function"
    },
    {
      "inputs": [
        {
          "internalType": "uint256",
          "name": "_pid",
          "type": "uint256"
        }
      ],
      "name": "updatePool",
      "outputs": [],
      "stateMutability": "nonpayable",
      "type": "function"
    },
    {
      "inputs": [
        {
          "internalType": "uint256",
          "name": "",
          "type": "uint256"
        },
        {
          "internalType": "address",
          "name": "",
          "type": "address"
        }
      ],
      "name": "userInfo",
      "outputs": [
        {
          "internalType": "uint256",
          "name": "amount",
          "type": "uint256"
        },
        {
          "internalType": "uint256",
          "name": "rewardDebt",
          "type": "uint256"
        }
      ],
      "stateMutability": "view",
      "type": "function"
    },
    {
      "inputs": [
        {
          "internalType": "uint256",
          "name": "_pid",
          "type": "uint256"
        },
        {
          "internalType": "uint256",
          "name": "_amount",
          "type": "uint256"
        }
      ],
      "name": "withdraw",
      "outputs": [],
      "stateMutability": "nonpayable",
      "type": "function"
    }
  ],
  "bytecode": "0x60806040526708e5616c97b8da006005556007805460ff191660011790556000600a553480156200002f57600080fd5b5060405162001a0038038062001a00833981810160405260408110156200005557600080fd5b508051602091820151600280546001600160a01b0319166001600160a01b0384161790559091620000969043906225317c90620001c4811b62000ff517901c565b60045543600b819055620000b79082620001c4602090811b62000ff517901c565b600655600380546001600160a01b03191633179055600254604080516318160ddd60e01b815290516001600160a01b0392909216916318160ddd91600480820192602092909190829003018186803b1580156200011357600080fd5b505afa15801562000128573d6000803e3d6000fd5b505050506040513d60208110156200013f57600080fd5b50516000556002546040805163d5abeb0160e01b815290516001600160a01b039092169163d5abeb0191600480820192602092909190829003018186803b1580156200018a57600080fd5b505afa1580156200019f573d6000803e3d6000fd5b505050506040513d6020811015620001b657600080fd5b505160015550620001c89050565b0190565b61182880620001d86000396000f3fe608060405234801561001057600080fd5b50600436106101585760003560e01c80635312ea8e116100c357806393f1a40b1161007c57806393f1a40b1461034a578063b68975591461038f578063d5abeb01146103ab578063df5e8987146103b3578063e2bbb158146103bb578063f75b8c5f146103de57610158565b80635312ea8e14610277578063630b5ba11461029457806364482f791461029c5780636d643304146102c75780637abceffd146102f35780638dbb1e3a1461032757610158565b806317caf6f11161011557806317caf6f114610200578063350bac3414610208578063379607f514610210578063441a3e701461022f57806348cd4cb11461025257806351eb05a61461025a57610158565b806302d05d3f1461015d578063081e3eda14610181578063083c63231461019b5780630b5f91fc146101a35780630d483ae1146101ab5780631526fe27146101b3575b600080fd5b6101656103e6565b604080516001600160a01b039092168252519081900360200190f35b6101896103f5565b60408051918252519081900360200190f35b6101896103fb565b610189610401565b610189610407565b6101d0600480360360208110156101c957600080fd5b503561040c565b604080516001600160a01b0390951685526020850193909352838301919091526060830152519081900360800190f35b61018961044d565b610189610453565b61022d6004803603602081101561022657600080fd5b5035610459565b005b61022d6004803603604081101561024557600080fd5b5080359060200135610534565b61018961067f565b61022d6004803603602081101561027057600080fd5b5035610685565b61022d6004803603602081101561028d57600080fd5b50356109b1565b61022d610a52565b61022d600480360360608110156102b257600080fd5b50803590602081013590604001351515610a75565b610189600480360360408110156102dd57600080fd5b50803590602001356001600160a01b0316610b3d565b61022d6004803603606081101561030957600080fd5b508035906001600160a01b0360208201351690604001351515610ceb565b6101896004803603604081101561033d57600080fd5b5080359060200135610e5d565b6103766004803603604081101561036057600080fd5b50803590602001356001600160a01b0316610ea3565b6040805192835260208301919091528051918290030190f35b610397610ec7565b604080519115158252519081900360200190f35b610189610ed0565b610165610ed6565b61022d600480360360408110156103d157600080fd5b5080359060200135610ee5565b610189610fef565b6003546001600160a01b031681565b60085490565b60045481565b60065481565b600581565b6008818154811061041957fe5b600091825260209091206004909102018054600182015460028301546003909301546001600160a01b039092169350919084565b600a5481565b60055481565b60006008828154811061046857fe5b600091825260208083208584526009825260408085203386529092529083206001549354600490930290910193509111156104a6576104a683610685565b6104ae610ff9565b60006104ba8284611078565b90506104c633826110d5565b600383015482546104f39164e8d4a51000916104e79163ffffffff61126616565b9063ffffffff61126a16565b600183015560408051828152905133917f47cee97cb7acd717b3c0aa1435d004cd5b3c8c57d70dbceb4e4458bbd60e39d4919081900360200190a250505050565b60006008838154811061054357fe5b6000918252602080832086845260098252604080852033865290925292208054600490920290920192508311156105b6576040805162461bcd60e51b81526020600482015260126024820152711dda5d1a191c985dce881b9bdd0819dbdbd960721b604482015290519081900360640190fd5b60015460005410156105cb576105cb84610685565b6105d3610ff9565b60006105df8284611078565b90506105eb33826110d5565b81546105fd908563ffffffff61127d16565b80835560038401546106209164e8d4a51000916104e7919063ffffffff61126616565b60018301558254610641906001600160a01b0316338663ffffffff61128216565b604080518581529051869133917ff279e6a1f5e320cca91135676d9cb6e44ca8a08c0b88342bcdb1144f6511b5689181900360200190a35050505050565b600b5481565b60006008828154811061069457fe5b90600052602060002090600402019050806002015443116106b557506109ae565b8054604080516370a0823160e01b815230600482015290516000926001600160a01b0316916370a08231916024808301926020929190829003018186803b1580156106ff57600080fd5b505afa158015610713573d6000803e3d6000fd5b505050506040513d602081101561072957600080fd5b505190508061073f5750436002909101556109ae565b600061074f836002015443610e5d565b90506000610782600a546104e786600101546107766005548761126690919063ffffffff16565b9063ffffffff61126616565b90506107ca6040518060400160405280600c81526020016b737570706c7920636865636b60a01b8152506001546107c484600054610ff590919063ffffffff16565b116112d4565b6107f96040518060400160405280600d81526020016c737472696e675265776172647360981b81525082611384565b60015460005461080f908363ffffffff610ff516565b111561085b5760005460015461082a9163ffffffff61127d16565b905061085b6040518060400160405280600d81526020016c737472696e675265776172647360981b81525082611384565b6006544310156108ec57600061087882600563ffffffff61126616565b600254604080516308934a5f60e31b81523060048201526024810184905290519293506001600160a01b039091169163449a52f89160448082019260009290919082900301818387803b1580156108ce57600080fd5b505af11580156108e2573d6000803e3d6000fd5b505050505061096e565b60075460ff1615610902576007805460ff191690555b600254604080516308934a5f60e31b81523060048201526024810184905290516001600160a01b039092169163449a52f89160448082019260009290919082900301818387803b15801561095557600080fd5b505af1158015610969573d6000803e3d6000fd5b505050505b61099b61098a846104e78464e8d4a5100063ffffffff61126616565b60038601549063ffffffff610ff516565b6003850155505043600290920191909155505b50565b6000600882815481106109c057fe5b60009182526020808320858452600982526040808520338087529352909320805460049093029093018054909450610a0b926001600160a01b0391909116919063ffffffff61128216565b80546040805191825251849133917fbb757047c2b5f3974fe26b7c10f732e7bce710b0952a71082702781e62ae05959181900360200190a360008082556001909101555050565b60085460005b81811015610a7157610a6981610685565b600101610a58565b5050565b6003546001600160a01b03163314610abe5760405162461bcd60e51b81526004018080602001828103825260218152602001806117a86021913960400191505060405180910390fd5b8015610acc57610acc610a52565b610b0f82610b0360088681548110610ae057fe5b906000526020600020906004020160010154600a5461127d90919063ffffffff16565b9063ffffffff610ff516565b600a819055508160088481548110610b2357fe5b906000526020600020906004020160010181905550505050565b60008060088481548110610b4d57fe5b600091825260208083208784526009825260408085206001600160a01b03898116875290845281862060049586029093016003810154815484516370a0823160e01b81523098810198909852935191985093969395939492909116926370a08231926024808301939192829003018186803b158015610bcb57600080fd5b505afa158015610bdf573d6000803e3d6000fd5b505050506040513d6020811015610bf557600080fd5b5051600285015490915043118015610c0c57508015155b15610c78576000610c21856002015443610e5d565b90506000610c48600a546104e788600101546107766005548761126690919063ffffffff16565b9050610c73610c66846104e78464e8d4a5100063ffffffff61126616565b859063ffffffff610ff516565b935050505b6000610cae8460010154610ca264e8d4a510006104e787896000015461126690919063ffffffff16565b9063ffffffff61127d16565b60075490915060ff1615610cd957610ccd81600563ffffffff61126616565b95505050505050610ce5565b9450610ce59350505050565b92915050565b6003546001600160a01b03163314610d345760405162461bcd60e51b81526004018080602001828103825260218152602001806117a86021913960400191505060405180910390fd5b8015610d4257610d42610a52565b6000600b544311610d5557600b54610d57565b435b600a54909150610d6d908563ffffffff610ff516565b600a55604080516080810182526001600160a01b0394851681526020810195865290810191825260006060820181815260088054600181018255925291517ff3f7a9fe364faab93b216da50a3214154f22a0a2b415b23a84c8169e8b636ee3600490920291820180546001600160a01b031916919096161790945593517ff3f7a9fe364faab93b216da50a3214154f22a0a2b415b23a84c8169e8b636ee4840155517ff3f7a9fe364faab93b216da50a3214154f22a0a2b415b23a84c8169e8b636ee58301555090517ff3f7a9fe364faab93b216da50a3214154f22a0a2b415b23a84c8169e8b636ee690910155565b60006004548211610e7f57610e78828463ffffffff61127d16565b9050610ce5565b6004548310610e9057506000610ce5565b600454610e78908463ffffffff61127d16565b60096020908152600092835260408084209091529082529020805460019091015482565b60075460ff1681565b60015481565b6002546001600160a01b031681565b600060088381548110610ef457fe5b60009182526020808320868452600982526040808520338652909252908320600154935460049093029091019350911115610f3257610f3284610685565b610f3a610ff9565b805415610f5b576000610f4d8284611078565b9050610f5933826110d5565b505b8154610f78906001600160a01b031633308663ffffffff61143216565b8054610f8a908463ffffffff610ff516565b8082556003830154610fad9164e8d4a51000916104e7919063ffffffff61126616565b6001820155604080518481529051859133917f90890809c654f11d6e72a28fa60149770a0d11ec6c92319d6ceb2bb0a4ea1a159181900360200190a350505050565b60005481565b0190565b600260009054906101000a90046001600160a01b03166001600160a01b03166318160ddd6040518163ffffffff1660e01b815260040160206040518083038186803b15801561104757600080fd5b505afa15801561105b573d6000803e3d6000fd5b505050506040513d602081101561107157600080fd5b5051600055565b6000806110a78460010154610ca264e8d4a510006104e78760030154896000015461126690919063ffffffff16565b60075490915060ff16156110ce576110c681600563ffffffff61126616565b915050610ce5565b9392505050565b600254604080516370a0823160e01b815230600482015290516000926001600160a01b0316916370a08231916024808301926020929190829003018186803b15801561112057600080fd5b505afa158015611134573d6000803e3d6000fd5b505050506040513d602081101561114a57600080fd5b50519050808211156111de576002546040805163a9059cbb60e01b81526001600160a01b038681166004830152602482018590529151919092169163a9059cbb9160448083019260209291908290030181600087803b1580156111ac57600080fd5b505af11580156111c0573d6000803e3d6000fd5b505050506040513d60208110156111d657600080fd5b506112619050565b6002546040805163a9059cbb60e01b81526001600160a01b038681166004830152602482018690529151919092169163a9059cbb9160448083019260209291908290030181600087803b15801561123457600080fd5b505af1158015611248573d6000803e3d6000fd5b505050506040513d602081101561125e57600080fd5b50505b505050565b0290565b600081838161127557fe5b049392505050565b900390565b604080516001600160a01b038416602482015260448082018490528251808303909101815260649091019091526020810180516001600160e01b031663a9059cbb60e01b179052611261908490611492565b60408051821515604482015260248101918252835160648201528351610a719285928592829160840190602086019080838360005b83811015611321578181015183820152602001611309565b50505050905090810190601f16801561134e5780820380516001836020036101000a031916815260200191505b5060408051601f198184030181529190526020810180516001600160e01b031663c3b5563560e01b179052935061154392505050565b610a7182826040516024018080602001838152602001828103825284818151815260200191508051906020019080838360005b838110156113cf5781810151838201526020016113b7565b50505050905090810190601f1680156113fc5780820380516001836020036101000a031916815260200191505b5060408051601f198184030181529190526020810180516001600160e01b03166309710a9d60e41b179052935061154392505050565b604080516001600160a01b0380861660248301528416604482015260648082018490528251808303909101815260849091019091526020810180516001600160e01b03166323b872dd60e01b17905261148c908590611492565b50505050565b60606114e7826040518060400160405280602081526020017f5361666545524332303a206c6f772d6c6576656c2063616c6c206661696c6564815250856001600160a01b03166115649092919063ffffffff16565b8051909150156112615780806020019051602081101561150657600080fd5b50516112615760405162461bcd60e51b815260040180806020018281038252602a8152602001806117c9602a913960400191505060405180910390fd5b80516a636f6e736f6c652e6c6f67602083016000808483855afa5050505050565b6060611573848460008561157b565b949350505050565b6060824710156115bc5760405162461bcd60e51b81526004018080602001828103825260268152602001806117826026913960400191505060405180910390fd5b6115c5856116d7565b611616576040805162461bcd60e51b815260206004820152601d60248201527f416464726573733a2063616c6c20746f206e6f6e2d636f6e7472616374000000604482015290519081900360640190fd5b60006060866001600160a01b031685876040518082805190602001908083835b602083106116555780518252601f199092019160209182019101611636565b6001836020036101000a03801982511681845116808217855250505050505090500191505060006040518083038185875af1925050503d80600081146116b7576040519150601f19603f3d011682016040523d82523d6000602084013e6116bc565b606091505b50915091506116cc8282866116dd565b979650505050505050565b3b151590565b606083156116ec5750816110ce565b8251156116fc5782518084602001fd5b8160405162461bcd60e51b81526004018080602001828103825283818151815260200191508051906020019080838360005b8381101561174657818101518382015260200161172e565b50505050905090810190601f1680156117735780820380516001836020036101000a031916815260200191505b509250505060405180910390fdfe416464726573733a20696e73756666696369656e742062616c616e636520666f722063616c6c6f6e6c792063726561746f722063616e2063616c6c2074686973206d6574686f645361666545524332303a204552433230206f7065726174696f6e20646964206e6f742073756363656564a2646970667358221220328f84fff58dcb7367d6e8bd2fc0271605f50bc3e955de9e35ff163e96e826f764736f6c634300060b0033",
  "linkReferences": {},
  "deployedLinkReferences": {}
}