{
  "_format": "hh-sol-artifact-1",
  "contractName": "DefaultPool",
  "sourceName": "contracts/Liquity/DefaultPool.sol",
  "abi": [
    {
      "anonymous": false,
      "inputs": [
        {
          "indexed": false,
          "internalType": "address",
          "name": "_newActivePoolAddress",
          "type": "address"
        }
      ],
      "name": "ActivePoolAddressChanged",
      "type": "event"
    },
    {
      "anonymous": false,
      "inputs": [
        {
          "indexed": false,
          "internalType": "address",
          "name": "_newDefaultPoolAddress",
          "type": "address"
        }
      ],
      "name": "DefaultPoolAddressChanged",
      "type": "event"
    },
    {
      "anonymous": false,
      "inputs": [
        {
          "indexed": false,
          "internalType": "uint256",
          "name": "_ETH",
          "type": "uint256"
        }
      ],
      "name": "DefaultPoolETHBalanceUpdated",
      "type": "event"
    },
    {
      "anonymous": false,
      "inputs": [
        {
          "indexed": false,
          "internalType": "uint256",
          "name": "_LUSDDebt",
          "type": "uint256"
        }
      ],
      "name": "DefaultPoolLUSDDebtUpdated",
      "type": "event"
    },
    {
      "anonymous": false,
      "inputs": [
        {
          "indexed": false,
          "internalType": "uint256",
          "name": "_newBalance",
          "type": "uint256"
        }
      ],
      "name": "ETHBalanceUpdated",
      "type": "event"
    },
    {
      "anonymous": false,
      "inputs": [
        {
          "indexed": false,
          "internalType": "address",
          "name": "_to",
          "type": "address"
        },
        {
          "indexed": false,
          "internalType": "uint256",
          "name": "_amount",
          "type": "uint256"
        }
      ],
      "name": "EtherSent",
      "type": "event"
    },
    {
      "anonymous": false,
      "inputs": [
        {
          "indexed": false,
          "internalType": "uint256",
          "name": "_newBalance",
          "type": "uint256"
        }
      ],
      "name": "LUSDBalanceUpdated",
      "type": "event"
    },
    {
      "anonymous": false,
      "inputs": [
        {
          "indexed": true,
          "internalType": "address",
          "name": "previousOwner",
          "type": "address"
        },
        {
          "indexed": true,
          "internalType": "address",
          "name": "newOwner",
          "type": "address"
        }
      ],
      "name": "OwnershipTransferred",
      "type": "event"
    },
    {
      "anonymous": false,
      "inputs": [
        {
          "indexed": false,
          "internalType": "address",
          "name": "_newStabilityPoolAddress",
          "type": "address"
        }
      ],
      "name": "StabilityPoolAddressChanged",
      "type": "event"
    },
    {
      "anonymous": false,
      "inputs": [
        {
          "indexed": false,
          "internalType": "address",
          "name": "_newTroveManagerAddress",
          "type": "address"
        }
      ],
      "name": "TroveManagerAddressChanged",
      "type": "event"
    },
    {
      "inputs": [],
      "name": "NAME",
      "outputs": [
        {
          "internalType": "string",
          "name": "",
          "type": "string"
        }
      ],
      "stateMutability": "view",
      "type": "function"
    },
    {
      "inputs": [],
      "name": "activePoolAddress",
      "outputs": [
        {
          "internalType": "address",
          "name": "",
          "type": "address"
        }
      ],
      "stateMutability": "view",
      "type": "function"
    },
    {
      "inputs": [
        {
          "internalType": "uint256",
          "name": "_amount",
          "type": "uint256"
        }
      ],
      "name": "decreaseLUSDDebt",
      "outputs": [],
      "stateMutability": "nonpayable",
      "type": "function"
    },
    {
      "inputs": [],
      "name": "getETH",
      "outputs": [
        {
          "internalType": "uint256",
          "name": "",
          "type": "uint256"
        }
      ],
      "stateMutability": "view",
      "type": "function"
    },
    {
      "inputs": [],
      "name": "getLUSDDebt",
      "outputs": [
        {
          "internalType": "uint256",
          "name": "",
          "type": "uint256"
        }
      ],
      "stateMutability": "view",
      "type": "function"
    },
    {
      "inputs": [
        {
          "internalType": "uint256",
          "name": "_amount",
          "type": "uint256"
        }
      ],
      "name": "increaseLUSDDebt",
      "outputs": [],
      "stateMutability": "nonpayable",
      "type": "function"
    },
    {
      "inputs": [],
      "name": "isOwner",
      "outputs": [
        {
          "internalType": "bool",
          "name": "",
          "type": "bool"
        }
      ],
      "stateMutability": "view",
      "type": "function"
    },
    {
      "inputs": [],
      "name": "owner",
      "outputs": [
        {
          "internalType": "address",
          "name": "",
          "type": "address"
        }
      ],
      "stateMutability": "view",
      "type": "function"
    },
    {
      "inputs": [
        {
          "internalType": "uint256",
          "name": "_amount",
          "type": "uint256"
        }
      ],
      "name": "sendETHToActivePool",
      "outputs": [],
      "stateMutability": "nonpayable",
      "type": "function"
    },
    {
      "inputs": [
        {
          "internalType": "address",
          "name": "_troveManagerAddress",
          "type": "address"
        },
        {
          "internalType": "address",
          "name": "_activePoolAddress",
          "type": "address"
        }
      ],
      "name": "setAddresses",
      "outputs": [],
      "stateMutability": "nonpayable",
      "type": "function"
    },
    {
      "inputs": [],
      "name": "troveManagerAddress",
      "outputs": [
        {
          "internalType": "address",
          "name": "",
          "type": "address"
        }
      ],
      "stateMutability": "view",
      "type": "function"
    },
    {
      "stateMutability": "payable",
      "type": "receive"
    }
  ],
  "bytecode": "0x608060405234801561001057600080fd5b50336000806101000a81548173ffffffffffffffffffffffffffffffffffffffff021916908373ffffffffffffffffffffffffffffffffffffffff1602179055503373ffffffffffffffffffffffffffffffffffffffff16600073ffffffffffffffffffffffffffffffffffffffff167f8be0079c531659141344cd1fd0a4f28419497f9722a3daafe3b4186f6b6457e060405160405180910390a3610f18806100bb6000396000f3fe6080604052600436106100a05760003560e01c80638f32d59b116100645780638f32d59b1461024757806390107afe14610276578063a3f4df7e146102e7578063b08bc72214610377578063be41205f146103ce578063cfb9329a1461040957610103565b806314f6c3be1461010857806338d995a8146101335780635a4d28bb1461016e5780635eb52fca146101c55780638da5cb5b146101f057610103565b36610103576100ad610444565b6100c2346003546104ec90919063ffffffff16565b6003819055507f9a14ae677a60400af9176bed2e2d5ce8dfa6405e6c1702debb27668f567214286003546040518082815260200191505060405180910390a1005b600080fd5b34801561011457600080fd5b5061011d610574565b6040518082815260200191505060405180910390f35b34801561013f57600080fd5b5061016c6004803603602081101561015657600080fd5b810190808035906020019092919050505061057e565b005b34801561017a57600080fd5b506101836105dd565b604051808273ffffffffffffffffffffffffffffffffffffffff1673ffffffffffffffffffffffffffffffffffffffff16815260200191505060405180910390f35b3480156101d157600080fd5b506101da610603565b6040518082815260200191505060405180910390f35b3480156101fc57600080fd5b5061020561060d565b604051808273ffffffffffffffffffffffffffffffffffffffff1673ffffffffffffffffffffffffffffffffffffffff16815260200191505060405180910390f35b34801561025357600080fd5b5061025c610636565b604051808215151515815260200191505060405180910390f35b34801561028257600080fd5b506102e56004803603604081101561029957600080fd5b81019080803573ffffffffffffffffffffffffffffffffffffffff169060200190929190803573ffffffffffffffffffffffffffffffffffffffff16906020019092919050505061068d565b005b3480156102f357600080fd5b506102fc61086d565b6040518080602001828103825283818151815260200191508051906020019080838360005b8381101561033c578082015181840152602081019050610321565b50505050905090810190601f1680156103695780820380516001836020036101000a031916815260200191505b509250505060405180910390f35b34801561038357600080fd5b5061038c6108a6565b604051808273ffffffffffffffffffffffffffffffffffffffff1673ffffffffffffffffffffffffffffffffffffffff16815260200191505060405180910390f35b3480156103da57600080fd5b50610407600480360360208110156103f157600080fd5b81019080803590602001909291905050506108cc565b005b34801561041557600080fd5b506104426004803603602081101561042c57600080fd5b8101908080359060200190929190505050610a9b565b005b600260009054906101000a900473ffffffffffffffffffffffffffffffffffffffff1673ffffffffffffffffffffffffffffffffffffffff163373ffffffffffffffffffffffffffffffffffffffff16146104ea576040517f08c379a0000000000000000000000000000000000000000000000000000000008152600401808060200182810382526029815260200180610e8f6029913960400191505060405180910390fd5b565b60008082840190508381101561056a576040517f08c379a000000000000000000000000000000000000000000000000000000000815260040180806020018281038252601b8152602001807f536166654d6174683a206164646974696f6e206f766572666c6f77000000000081525060200191505060405180910390fd5b8091505092915050565b6000600354905090565b610586610afa565b61059b81600454610ba290919063ffffffff16565b6004819055507f7735d8b9c0814a13884384c73ec31633f708b4b920b2158764c6b306541341256004546040518082815260200191505060405180910390a150565b600160009054906101000a900473ffffffffffffffffffffffffffffffffffffffff1681565b6000600454905090565b60008060009054906101000a900473ffffffffffffffffffffffffffffffffffffffff16905090565b60008060009054906101000a900473ffffffffffffffffffffffffffffffffffffffff1673ffffffffffffffffffffffffffffffffffffffff163373ffffffffffffffffffffffffffffffffffffffff1614905090565b610695610636565b610707576040517f08c379a00000000000000000000000000000000000000000000000000000000081526004018080602001828103825260208152602001807f4f776e61626c653a2063616c6c6572206973206e6f7420746865206f776e657281525060200191505060405180910390fd5b61071082610bec565b61071981610bec565b81600160006101000a81548173ffffffffffffffffffffffffffffffffffffffff021916908373ffffffffffffffffffffffffffffffffffffffff16021790555080600260006101000a81548173ffffffffffffffffffffffffffffffffffffffff021916908373ffffffffffffffffffffffffffffffffffffffff1602179055507f143219c9e69b09e07e095fcc889b43d8f46ca892bba65f08dc3a0050869a567882604051808273ffffffffffffffffffffffffffffffffffffffff1673ffffffffffffffffffffffffffffffffffffffff16815260200191505060405180910390a17f78f058b189175430c48dc02699e3a0031ea4ff781536dc2fab847de4babdd88281604051808273ffffffffffffffffffffffffffffffffffffffff1673ffffffffffffffffffffffffffffffffffffffff16815260200191505060405180910390a1610869610d0f565b5050565b6040518060400160405280600b81526020017f44656661756c74506f6f6c00000000000000000000000000000000000000000081525081565b600260009054906101000a900473ffffffffffffffffffffffffffffffffffffffff1681565b6108d4610afa565b6000600260009054906101000a900473ffffffffffffffffffffffffffffffffffffffff16905061091082600354610ba290919063ffffffff16565b6003819055507f9a14ae677a60400af9176bed2e2d5ce8dfa6405e6c1702debb27668f567214286003546040518082815260200191505060405180910390a17f6109e2559dfa766aaec7118351d48a523f0a4157f49c8d68749c8ac41318ad128183604051808373ffffffffffffffffffffffffffffffffffffffff1673ffffffffffffffffffffffffffffffffffffffff1681526020018281526020019250505060405180910390a160008173ffffffffffffffffffffffffffffffffffffffff168360405180600001905060006040518083038185875af1925050503d8060008114610a1a576040519150601f19603f3d011682016040523d82523d6000602084013e610a1f565b606091505b5050905080610a96576040517f08c379a000000000000000000000000000000000000000000000000000000000815260040180806020018281038252601f8152602001807f44656661756c74506f6f6c3a2073656e64696e6720455448206661696c65640081525060200191505060405180910390fd5b505050565b610aa3610afa565b610ab8816004546104ec90919063ffffffff16565b6004819055507f7735d8b9c0814a13884384c73ec31633f708b4b920b2158764c6b306541341256004546040518082815260200191505060405180910390a150565b600160009054906101000a900473ffffffffffffffffffffffffffffffffffffffff1673ffffffffffffffffffffffffffffffffffffffff163373ffffffffffffffffffffffffffffffffffffffff1614610ba0576040517f08c379a000000000000000000000000000000000000000000000000000000000815260040180806020018281038252602b815260200180610eb8602b913960400191505060405180910390fd5b565b6000610be483836040518060400160405280601e81526020017f536166654d6174683a207375627472616374696f6e206f766572666c6f770000815250610dce565b905092915050565b600073ffffffffffffffffffffffffffffffffffffffff168173ffffffffffffffffffffffffffffffffffffffff161415610c8f576040517f08c379a000000000000000000000000000000000000000000000000000000000815260040180806020018281038252601e8152602001807f4163636f756e742063616e6e6f74206265207a65726f2061646472657373000081525060200191505060405180910390fd5b6000813b905060008111610d0b576040517f08c379a00000000000000000000000000000000000000000000000000000000081526004018080602001828103825260208152602001807f4163636f756e7420636f64652073697a652063616e6e6f74206265207a65726f81525060200191505060405180910390fd5b5050565b600073ffffffffffffffffffffffffffffffffffffffff166000809054906101000a900473ffffffffffffffffffffffffffffffffffffffff1673ffffffffffffffffffffffffffffffffffffffff167f8be0079c531659141344cd1fd0a4f28419497f9722a3daafe3b4186f6b6457e060405160405180910390a360008060006101000a81548173ffffffffffffffffffffffffffffffffffffffff021916908373ffffffffffffffffffffffffffffffffffffffff160217905550565b6000838311158290610e7b576040517f08c379a00000000000000000000000000000000000000000000000000000000081526004018080602001828103825283818151815260200191508051906020019080838360005b83811015610e40578082015181840152602081019050610e25565b50505050905090810190601f168015610e6d5780820380516001836020036101000a031916815260200191505b509250505060405180910390fd5b506000838503905080915050939250505056fe44656661756c74506f6f6c3a2043616c6c6572206973206e6f742074686520416374697665506f6f6c44656661756c74506f6f6c3a2043616c6c6572206973206e6f74207468652054726f76654d616e61676572a2646970667358221220c1b7472a34214eb41ae9aab7785b36c9e39c5e4713c1e987422eb3e3d9fd23a864736f6c634300060b0033",
  "linkReferences": {},
  "deployedLinkReferences": {}
}