{
  "_format": "hh-sol-artifact-1",
  "contractName": "StringToken",
  "sourceName": "contracts/StringToken.sol",
  "abi": [
    {
      "inputs": [
        {
          "internalType": "string",
          "name": "_name",
          "type": "string"
        },
        {
          "internalType": "string",
          "name": "_symbol",
          "type": "string"
        },
        {
          "internalType": "address",
          "name": "_HarpDAOAddress",
          "type": "address"
        },
        {
          "internalType": "address",
          "name": "_owner",
          "type": "address"
        }
      ],
      "stateMutability": "nonpayable",
      "type": "constructor"
    },
    {
      "anonymous": false,
      "inputs": [
        {
          "indexed": true,
          "internalType": "address",
          "name": "owner",
          "type": "address"
        },
        {
          "indexed": true,
          "internalType": "address",
          "name": "spender",
          "type": "address"
        },
        {
          "indexed": false,
          "internalType": "uint256",
          "name": "value",
          "type": "uint256"
        }
      ],
      "name": "Approval",
      "type": "event"
    },
    {
      "anonymous": false,
      "inputs": [
        {
          "indexed": true,
          "internalType": "address",
          "name": "from",
          "type": "address"
        },
        {
          "indexed": true,
          "internalType": "address",
          "name": "to",
          "type": "address"
        },
        {
          "indexed": false,
          "internalType": "uint256",
          "name": "value",
          "type": "uint256"
        }
      ],
      "name": "Transfer",
      "type": "event"
    },
    {
      "inputs": [],
      "name": "HarpDAOAllocation",
      "outputs": [
        {
          "internalType": "uint256",
          "name": "",
          "type": "uint256"
        }
      ],
      "stateMutability": "view",
      "type": "function"
    },
    {
      "inputs": [
        {
          "internalType": "address",
          "name": "_vestingAddress",
          "type": "address"
        }
      ],
      "name": "addMinter",
      "outputs": [],
      "stateMutability": "nonpayable",
      "type": "function"
    },
    {
      "inputs": [
        {
          "internalType": "address",
          "name": "owner",
          "type": "address"
        },
        {
          "internalType": "address",
          "name": "spender",
          "type": "address"
        }
      ],
      "name": "allowance",
      "outputs": [
        {
          "internalType": "uint256",
          "name": "",
          "type": "uint256"
        }
      ],
      "stateMutability": "view",
      "type": "function"
    },
    {
      "inputs": [
        {
          "internalType": "address",
          "name": "spender",
          "type": "address"
        },
        {
          "internalType": "uint256",
          "name": "amount",
          "type": "uint256"
        }
      ],
      "name": "approve",
      "outputs": [
        {
          "internalType": "bool",
          "name": "",
          "type": "bool"
        }
      ],
      "stateMutability": "nonpayable",
      "type": "function"
    },
    {
      "inputs": [
        {
          "internalType": "address",
          "name": "account",
          "type": "address"
        }
      ],
      "name": "balanceOf",
      "outputs": [
        {
          "internalType": "uint256",
          "name": "",
          "type": "uint256"
        }
      ],
      "stateMutability": "view",
      "type": "function"
    },
    {
      "inputs": [],
      "name": "decimals",
      "outputs": [
        {
          "internalType": "uint8",
          "name": "",
          "type": "uint8"
        }
      ],
      "stateMutability": "view",
      "type": "function"
    },
    {
      "inputs": [
        {
          "internalType": "address",
          "name": "spender",
          "type": "address"
        },
        {
          "internalType": "uint256",
          "name": "subtractedValue",
          "type": "uint256"
        }
      ],
      "name": "decreaseAllowance",
      "outputs": [
        {
          "internalType": "bool",
          "name": "",
          "type": "bool"
        }
      ],
      "stateMutability": "nonpayable",
      "type": "function"
    },
    {
      "inputs": [
        {
          "internalType": "address",
          "name": "spender",
          "type": "address"
        },
        {
          "internalType": "uint256",
          "name": "addedValue",
          "type": "uint256"
        }
      ],
      "name": "increaseAllowance",
      "outputs": [
        {
          "internalType": "bool",
          "name": "",
          "type": "bool"
        }
      ],
      "stateMutability": "nonpayable",
      "type": "function"
    },
    {
      "inputs": [
        {
          "internalType": "address",
          "name": "_for",
          "type": "address"
        }
      ],
      "name": "isAllowedMinter",
      "outputs": [
        {
          "internalType": "bool",
          "name": "",
          "type": "bool"
        }
      ],
      "stateMutability": "view",
      "type": "function"
    },
    {
      "inputs": [],
      "name": "maxSupply",
      "outputs": [
        {
          "internalType": "uint256",
          "name": "",
          "type": "uint256"
        }
      ],
      "stateMutability": "view",
      "type": "function"
    },
    {
      "inputs": [
        {
          "internalType": "address",
          "name": "_to",
          "type": "address"
        },
        {
          "internalType": "uint256",
          "name": "_amount",
          "type": "uint256"
        }
      ],
      "name": "mintTo",
      "outputs": [],
      "stateMutability": "nonpayable",
      "type": "function"
    },
    {
      "inputs": [],
      "name": "name",
      "outputs": [
        {
          "internalType": "string",
          "name": "",
          "type": "string"
        }
      ],
      "stateMutability": "view",
      "type": "function"
    },
    {
      "inputs": [],
      "name": "owner",
      "outputs": [
        {
          "internalType": "address",
          "name": "",
          "type": "address"
        }
      ],
      "stateMutability": "view",
      "type": "function"
    },
    {
      "inputs": [],
      "name": "revokeOwnership",
      "outputs": [],
      "stateMutability": "nonpayable",
      "type": "function"
    },
    {
      "inputs": [],
      "name": "symbol",
      "outputs": [
        {
          "internalType": "string",
          "name": "",
          "type": "string"
        }
      ],
      "stateMutability": "view",
      "type": "function"
    },
    {
      "inputs": [],
      "name": "totalSupply",
      "outputs": [
        {
          "internalType": "uint256",
          "name": "",
          "type": "uint256"
        }
      ],
      "stateMutability": "view",
      "type": "function"
    },
    {
      "inputs": [
        {
          "internalType": "address",
          "name": "recipient",
          "type": "address"
        },
        {
          "internalType": "uint256",
          "name": "amount",
          "type": "uint256"
        }
      ],
      "name": "transfer",
      "outputs": [
        {
          "internalType": "bool",
          "name": "",
          "type": "bool"
        }
      ],
      "stateMutability": "nonpayable",
      "type": "function"
    },
    {
      "inputs": [
        {
          "internalType": "address",
          "name": "sender",
          "type": "address"
        },
        {
          "internalType": "address",
          "name": "recipient",
          "type": "address"
        },
        {
          "internalType": "uint256",
          "name": "amount",
          "type": "uint256"
        }
      ],
      "name": "transferFrom",
      "outputs": [
        {
          "internalType": "bool",
          "name": "",
          "type": "bool"
        }
      ],
      "stateMutability": "nonpayable",
      "type": "function"
    }
  ],
  "bytecode": "0x60806040526a01a893448dfeb89b2000006006556a01a784379d99db420000006007553480156200002f57600080fd5b506040516200106138038062001061833981810160405260808110156200005557600080fd5b81019080805160405193929190846401000000008211156200007657600080fd5b9083019060208201858111156200008c57600080fd5b8251640100000000811182820188101715620000a757600080fd5b82525081516020918201929091019080838360005b83811015620000d6578181015183820152602001620000bc565b50505050905090810190601f168015620001045780820380516001836020036101000a031916815260200191505b50604052602001805160405193929190846401000000008211156200012857600080fd5b9083019060208201858111156200013e57600080fd5b82516401000000008111828201881017156200015957600080fd5b82525081516020918201929091019080838360005b83811015620001885781810151838201526020016200016e565b50505050905090810190601f168015620001b65780820380516001836020036101000a031916815260200191505b50604090815260208281015192909101518651929450925085918591620001e39160039185019062000306565b508051620001f990600490602084019062000306565b5050600880546001600160a01b0319166001600160a01b038416179055506007546200022790839062000231565b50505050620003ab565b6001600160a01b0382166200028d576040805162461bcd60e51b815260206004820152601f60248201527f45524332303a206d696e7420746f20746865207a65726f206164647265737300604482015290519081900360640190fd5b620002a4600083836001600160e01b036200030116565b60028054820190556001600160a01b038216600081815260208181526040808320805486019055805185815290517fddf252ad1be2c89b69c2b068fc378daa952ba7f163c4a11628f55a4df523b3ef929181900390910190a35050565b505050565b828054600181600116156101000203166002900490600052602060002090601f016020900481019282601f106200034957805160ff191683800117855562000379565b8280016001018555821562000379579182015b82811115620003795782518255916020019190600101906200035c565b50620003879291506200038b565b5090565b620003a891905b8082111562000387576000815560010162000392565b90565b610ca680620003bb6000396000f3fe608060405234801561001057600080fd5b50600436106100f65760003560e01c8063449a52f811610092578063449a52f81461028a57806370a08231146102b65780638da5cb5b146102dc57806395d89b4114610300578063983b2d5614610308578063a457c2d71461032e578063a9059cbb1461035a578063d5abeb0114610386578063dd62ed3e1461038e576100f6565b806306fdde03146100fb578063095ea7b31461017857806318160ddd146101b85780631f3b4c90146101d257806323b872dd146101f8578063272915091461022e5780632b96895814610236578063313ce56714610240578063395093511461025e575b600080fd5b6101036103bc565b6040805160208082528351818301528351919283929083019185019080838360005b8381101561013d578181015183820152602001610125565b50505050905090810190601f16801561016a5780820380516001836020036101000a031916815260200191505b509250505060405180910390f35b6101a46004803603604081101561018e57600080fd5b506001600160a01b038135169060200135610452565b604080519115158252519081900360200190f35b6101c061046f565b60408051918252519081900360200190f35b6101a4600480360360208110156101e857600080fd5b50356001600160a01b0316610475565b6101a46004803603606081101561020e57600080fd5b506001600160a01b03813581169160208101359091169060400135610493565b6101c0610542565b61023e610548565b005b6102486105a3565b6040805160ff9092168252519081900360200190f35b6101a46004803603604081101561027457600080fd5b506001600160a01b0381351690602001356105a8565b61023e600480360360408110156102a057600080fd5b506001600160a01b0381351690602001356105f3565b6101c0600480360360208110156102cc57600080fd5b50356001600160a01b031661066a565b6102e4610685565b604080516001600160a01b039092168252519081900360200190f35b610103610694565b61023e6004803603602081101561031e57600080fd5b50356001600160a01b03166106f5565b6101a46004803603604081101561034457600080fd5b506001600160a01b038135169060200135610762565b6101a46004803603604081101561037057600080fd5b506001600160a01b0381351690602001356107fa565b6101c061080e565b6101c0600480360360408110156103a457600080fd5b506001600160a01b0381358116916020013516610814565b60038054604080516020601f60026000196101006001881615020190951694909404938401819004810282018101909252828152606093909290918301828280156104485780601f1061041d57610100808354040283529160200191610448565b820191906000526020600020905b81548152906001019060200180831161042b57829003601f168201915b5050505050905090565b600061046661045f61083f565b8484610843565b50600192915050565b60025490565b6001600160a01b031660009081526005602052604090205460ff1690565b60006104a084848461092f565b6001600160a01b0384166000908152600160205260408120816104c161083f565b6001600160a01b03166001600160a01b03168152602001908152602001600020549050828110156105235760405162461bcd60e51b8152600401808060200182810382526028815260200180610bdb6028913960400191505060405180910390fd5b6105378561052f61083f565b858403610843565b506001949350505050565b60075481565b6008546001600160a01b031633146105915760405162461bcd60e51b8152600401808060200182810382526021815260200180610b726021913960400191505060405180910390fd5b600880546001600160a01b0319169055565b601290565b60006104666105b561083f565b8484600160006105c361083f565b6001600160a01b03908116825260208083019390935260409182016000908120918b168152925290205401610843565b3360009081526005602052604090205460ff16151560011461065c576040805162461bcd60e51b815260206004820152601c60248201527f53656e646572206e6f742061207665726966696564204d696e74657200000000604482015290519081900360640190fd5b6106668282610a85565b5050565b6001600160a01b031660009081526020819052604090205490565b6008546001600160a01b031681565b60048054604080516020601f60026000196101006001881615020190951694909404938401819004810282018101909252828152606093909290918301828280156104485780601f1061041d57610100808354040283529160200191610448565b6008546001600160a01b0316331461073e5760405162461bcd60e51b8152600401808060200182810382526021815260200180610b726021913960400191505060405180910390fd5b6001600160a01b03166000908152600560205260409020805460ff19166001179055565b6000806001600061077161083f565b6001600160a01b03908116825260208083019390935260409182016000908120918816815292529020549050828110156107dc5760405162461bcd60e51b8152600401808060200182810382526025815260200180610c4c6025913960400191505060405180910390fd5b6107f06107e761083f565b85858403610843565b5060019392505050565b600061046661080761083f565b848461092f565b60065481565b6001600160a01b03918216600090815260016020908152604080832093909416825291909152205490565b3390565b6001600160a01b0383166108885760405162461bcd60e51b8152600401808060200182810382526024815260200180610c286024913960400191505060405180910390fd5b6001600160a01b0382166108cd5760405162461bcd60e51b8152600401808060200182810382526022815260200180610b936022913960400191505060405180910390fd5b6001600160a01b03808416600081815260016020908152604080832094871680845294825291829020859055815185815291517f8c5be1e5ebec7d5bd14f71427d1e84f3dd0314c0f7b2291e5b200ac8c7c3b9259281900390910190a3505050565b6001600160a01b0383166109745760405162461bcd60e51b8152600401808060200182810382526025815260200180610c036025913960400191505060405180910390fd5b6001600160a01b0382166109b95760405162461bcd60e51b8152600401808060200182810382526023815260200180610b4f6023913960400191505060405180910390fd5b6109c4838383610b49565b6001600160a01b03831660009081526020819052604090205481811015610a1c5760405162461bcd60e51b8152600401808060200182810382526026815260200180610bb56026913960400191505060405180910390fd5b6001600160a01b038085166000818152602081815260408083208787039055938716808352918490208054870190558351868152935191937fddf252ad1be2c89b69c2b068fc378daa952ba7f163c4a11628f55a4df523b3ef929081900390910190a350505050565b6001600160a01b038216610ae0576040805162461bcd60e51b815260206004820152601f60248201527f45524332303a206d696e7420746f20746865207a65726f206164647265737300604482015290519081900360640190fd5b610aec60008383610b49565b60028054820190556001600160a01b038216600081815260208181526040808320805486019055805185815290517fddf252ad1be2c89b69c2b068fc378daa952ba7f163c4a11628f55a4df523b3ef929181900390910190a35050565b50505056fe45524332303a207472616e7366657220746f20746865207a65726f20616464726573736f6e6c79206f776e65722063616e2063616c6c20746869732066756e6374696f6e45524332303a20617070726f766520746f20746865207a65726f206164647265737345524332303a207472616e7366657220616d6f756e7420657863656564732062616c616e636545524332303a207472616e7366657220616d6f756e74206578636565647320616c6c6f77616e636545524332303a207472616e736665722066726f6d20746865207a65726f206164647265737345524332303a20617070726f76652066726f6d20746865207a65726f206164647265737345524332303a2064656372656173656420616c6c6f77616e63652062656c6f77207a65726fa2646970667358221220fd78128cd8c31cf1465e3fd1f9ab5a0da61eaf4f4043f7a9a0cbd801a0d2096064736f6c634300060b0033",
  "linkReferences": {},
  "deployedLinkReferences": {}
}