{
  "_format": "hh-sol-artifact-1",
  "contractName": "StringToken",
  "sourceName": "contracts/StringToken.sol",
  "abi": [
    {
      "inputs": [
        {
          "internalType": "string",
          "name": "_name",
          "type": "string"
        },
        {
          "internalType": "string",
          "name": "_symbol",
          "type": "string"
        },
        {
          "internalType": "address",
          "name": "_HarpDAOAddress",
          "type": "address"
        },
        {
          "internalType": "address",
          "name": "_owner",
          "type": "address"
        }
      ],
      "stateMutability": "nonpayable",
      "type": "constructor"
    },
    {
      "anonymous": false,
      "inputs": [
        {
          "indexed": true,
          "internalType": "address",
          "name": "owner",
          "type": "address"
        },
        {
          "indexed": true,
          "internalType": "address",
          "name": "spender",
          "type": "address"
        },
        {
          "indexed": false,
          "internalType": "uint256",
          "name": "value",
          "type": "uint256"
        }
      ],
      "name": "Approval",
      "type": "event"
    },
    {
      "anonymous": false,
      "inputs": [
        {
          "indexed": true,
          "internalType": "address",
          "name": "from",
          "type": "address"
        },
        {
          "indexed": true,
          "internalType": "address",
          "name": "to",
          "type": "address"
        },
        {
          "indexed": false,
          "internalType": "uint256",
          "name": "value",
          "type": "uint256"
        }
      ],
      "name": "Transfer",
      "type": "event"
    },
    {
      "inputs": [],
      "name": "HarpDAOAllocation",
      "outputs": [
        {
          "internalType": "uint256",
          "name": "",
          "type": "uint256"
        }
      ],
      "stateMutability": "view",
      "type": "function"
    },
    {
      "inputs": [
        {
          "internalType": "address",
          "name": "_vestingAddress",
          "type": "address"
        }
      ],
      "name": "addMinter",
      "outputs": [],
      "stateMutability": "nonpayable",
      "type": "function"
    },
    {
      "inputs": [
        {
          "internalType": "address",
          "name": "owner",
          "type": "address"
        },
        {
          "internalType": "address",
          "name": "spender",
          "type": "address"
        }
      ],
      "name": "allowance",
      "outputs": [
        {
          "internalType": "uint256",
          "name": "",
          "type": "uint256"
        }
      ],
      "stateMutability": "view",
      "type": "function"
    },
    {
      "inputs": [
        {
          "internalType": "address",
          "name": "spender",
          "type": "address"
        },
        {
          "internalType": "uint256",
          "name": "amount",
          "type": "uint256"
        }
      ],
      "name": "approve",
      "outputs": [
        {
          "internalType": "bool",
          "name": "",
          "type": "bool"
        }
      ],
      "stateMutability": "nonpayable",
      "type": "function"
    },
    {
      "inputs": [
        {
          "internalType": "address",
          "name": "account",
          "type": "address"
        }
      ],
      "name": "balanceOf",
      "outputs": [
        {
          "internalType": "uint256",
          "name": "",
          "type": "uint256"
        }
      ],
      "stateMutability": "view",
      "type": "function"
    },
    {
      "inputs": [],
      "name": "decimals",
      "outputs": [
        {
          "internalType": "uint8",
          "name": "",
          "type": "uint8"
        }
      ],
      "stateMutability": "view",
      "type": "function"
    },
    {
      "inputs": [
        {
          "internalType": "address",
          "name": "spender",
          "type": "address"
        },
        {
          "internalType": "uint256",
          "name": "subtractedValue",
          "type": "uint256"
        }
      ],
      "name": "decreaseAllowance",
      "outputs": [
        {
          "internalType": "bool",
          "name": "",
          "type": "bool"
        }
      ],
      "stateMutability": "nonpayable",
      "type": "function"
    },
    {
      "inputs": [
        {
          "internalType": "address",
          "name": "spender",
          "type": "address"
        },
        {
          "internalType": "uint256",
          "name": "addedValue",
          "type": "uint256"
        }
      ],
      "name": "increaseAllowance",
      "outputs": [
        {
          "internalType": "bool",
          "name": "",
          "type": "bool"
        }
      ],
      "stateMutability": "nonpayable",
      "type": "function"
    },
    {
      "inputs": [
        {
          "internalType": "address",
          "name": "_for",
          "type": "address"
        }
      ],
      "name": "isAllowedMinter",
      "outputs": [
        {
          "internalType": "bool",
          "name": "",
          "type": "bool"
        }
      ],
      "stateMutability": "view",
      "type": "function"
    },
    {
      "inputs": [
        {
          "internalType": "address",
          "name": "_to",
          "type": "address"
        },
        {
          "internalType": "uint256",
          "name": "_amount",
          "type": "uint256"
        }
      ],
      "name": "mintTo",
      "outputs": [],
      "stateMutability": "nonpayable",
      "type": "function"
    },
    {
      "inputs": [],
      "name": "name",
      "outputs": [
        {
          "internalType": "string",
          "name": "",
          "type": "string"
        }
      ],
      "stateMutability": "view",
      "type": "function"
    },
    {
      "inputs": [],
      "name": "owner",
      "outputs": [
        {
          "internalType": "address",
          "name": "",
          "type": "address"
        }
      ],
      "stateMutability": "view",
      "type": "function"
    },
    {
      "inputs": [],
      "name": "symbol",
      "outputs": [
        {
          "internalType": "string",
          "name": "",
          "type": "string"
        }
      ],
      "stateMutability": "view",
      "type": "function"
    },
    {
      "inputs": [],
      "name": "totalSupply",
      "outputs": [
        {
          "internalType": "uint256",
          "name": "",
          "type": "uint256"
        }
      ],
      "stateMutability": "view",
      "type": "function"
    },
    {
      "inputs": [
        {
          "internalType": "address",
          "name": "recipient",
          "type": "address"
        },
        {
          "internalType": "uint256",
          "name": "amount",
          "type": "uint256"
        }
      ],
      "name": "transfer",
      "outputs": [
        {
          "internalType": "bool",
          "name": "",
          "type": "bool"
        }
      ],
      "stateMutability": "nonpayable",
      "type": "function"
    },
    {
      "inputs": [
        {
          "internalType": "address",
          "name": "sender",
          "type": "address"
        },
        {
          "internalType": "address",
          "name": "recipient",
          "type": "address"
        },
        {
          "internalType": "uint256",
          "name": "amount",
          "type": "uint256"
        }
      ],
      "name": "transferFrom",
      "outputs": [
        {
          "internalType": "bool",
          "name": "",
          "type": "bool"
        }
      ],
      "stateMutability": "nonpayable",
      "type": "function"
    }
  ],
  "bytecode": "0x60806040526a01a784379d99db420000006006553480156200002057600080fd5b5060405162000fcb38038062000fcb833981810160405260808110156200004657600080fd5b81019080805160405193929190846401000000008211156200006757600080fd5b9083019060208201858111156200007d57600080fd5b82516401000000008111828201881017156200009857600080fd5b82525081516020918201929091019080838360005b83811015620000c7578181015183820152602001620000ad565b50505050905090810190601f168015620000f55780820380516001836020036101000a031916815260200191505b50604052602001805160405193929190846401000000008211156200011957600080fd5b9083019060208201858111156200012f57600080fd5b82516401000000008111828201881017156200014a57600080fd5b82525081516020918201929091019080838360005b83811015620001795781810151838201526020016200015f565b50505050905090810190601f168015620001a75780820380516001836020036101000a031916815260200191505b50604090815260208281015192909101518651929450925085918591620001d491600391850190620002f7565b508051620001ea906004906020840190620002f7565b5050600780546001600160a01b0319166001600160a01b038416179055506006546200021890839062000222565b505050506200039c565b6001600160a01b0382166200027e576040805162461bcd60e51b815260206004820152601f60248201527f45524332303a206d696e7420746f20746865207a65726f206164647265737300604482015290519081900360640190fd5b62000295600083836001600160e01b03620002f216565b60028054820190556001600160a01b038216600081815260208181526040808320805486019055805185815290517fddf252ad1be2c89b69c2b068fc378daa952ba7f163c4a11628f55a4df523b3ef929181900390910190a35050565b505050565b828054600181600116156101000203166002900490600052602060002090601f016020900481019282601f106200033a57805160ff19168380011785556200036a565b828001600101855582156200036a579182015b828111156200036a5782518255916020019190600101906200034d565b50620003789291506200037c565b5090565b6200039991905b8082111562000378576000815560010162000383565b90565b610c1f80620003ac6000396000f3fe608060405234801561001057600080fd5b50600436106100e05760003560e01c8063449a52f811610087578063449a52f81461026a57806370a08231146102985780638da5cb5b146102be57806395d89b41146102e2578063983b2d56146102ea578063a457c2d714610310578063a9059cbb1461033c578063dd62ed3e14610368576100e0565b806306fdde03146100e5578063095ea7b31461016257806318160ddd146101a25780631f3b4c90146101bc57806323b872dd146101e25780632729150914610218578063313ce56714610220578063395093511461023e575b600080fd5b6100ed610396565b6040805160208082528351818301528351919283929083019185019080838360005b8381101561012757818101518382015260200161010f565b50505050905090810190601f1680156101545780820380516001836020036101000a031916815260200191505b509250505060405180910390f35b61018e6004803603604081101561017857600080fd5b506001600160a01b03813516906020013561042c565b604080519115158252519081900360200190f35b6101aa610449565b60408051918252519081900360200190f35b61018e600480360360208110156101d257600080fd5b50356001600160a01b031661044f565b61018e600480360360608110156101f857600080fd5b506001600160a01b0381358116916020810135909116906040013561046d565b6101aa61051c565b610228610522565b6040805160ff9092168252519081900360200190f35b61018e6004803603604081101561025457600080fd5b506001600160a01b038135169060200135610527565b6102966004803603604081101561028057600080fd5b506001600160a01b038135169060200135610572565b005b6101aa600480360360208110156102ae57600080fd5b50356001600160a01b03166105e9565b6102c6610604565b604080516001600160a01b039092168252519081900360200190f35b6100ed610613565b6102966004803603602081101561030057600080fd5b50356001600160a01b0316610674565b61018e6004803603604081101561032657600080fd5b506001600160a01b0381351690602001356106e1565b61018e6004803603604081101561035257600080fd5b506001600160a01b038135169060200135610779565b6101aa6004803603604081101561037e57600080fd5b506001600160a01b038135811691602001351661078d565b60038054604080516020601f60026000196101006001881615020190951694909404938401819004810282018101909252828152606093909290918301828280156104225780601f106103f757610100808354040283529160200191610422565b820191906000526020600020905b81548152906001019060200180831161040557829003601f168201915b5050505050905090565b60006104406104396107b8565b84846107bc565b50600192915050565b60025490565b6001600160a01b031660009081526005602052604090205460ff1690565b600061047a8484846108a8565b6001600160a01b03841660009081526001602052604081208161049b6107b8565b6001600160a01b03166001600160a01b03168152602001908152602001600020549050828110156104fd5760405162461bcd60e51b8152600401808060200182810382526028815260200180610b546028913960400191505060405180910390fd5b610511856105096107b8565b8584036107bc565b506001949350505050565b60065481565b601290565b60006104406105346107b8565b8484600160006105426107b8565b6001600160a01b03908116825260208083019390935260409182016000908120918b1681529252902054016107bc565b3360009081526005602052604090205460ff1615156001146105db576040805162461bcd60e51b815260206004820152601c60248201527f53656e646572206e6f742061207665726966696564204d696e74657200000000604482015290519081900360640190fd5b6105e582826109fe565b5050565b6001600160a01b031660009081526020819052604090205490565b6007546001600160a01b031681565b60048054604080516020601f60026000196101006001881615020190951694909404938401819004810282018101909252828152606093909290918301828280156104225780601f106103f757610100808354040283529160200191610422565b6007546001600160a01b031633146106bd5760405162461bcd60e51b8152600401808060200182810382526021815260200180610aeb6021913960400191505060405180910390fd5b6001600160a01b03166000908152600560205260409020805460ff19166001179055565b600080600160006106f06107b8565b6001600160a01b039081168252602080830193909352604091820160009081209188168152925290205490508281101561075b5760405162461bcd60e51b8152600401808060200182810382526025815260200180610bc56025913960400191505060405180910390fd5b61076f6107666107b8565b858584036107bc565b5060019392505050565b60006104406107866107b8565b84846108a8565b6001600160a01b03918216600090815260016020908152604080832093909416825291909152205490565b3390565b6001600160a01b0383166108015760405162461bcd60e51b8152600401808060200182810382526024815260200180610ba16024913960400191505060405180910390fd5b6001600160a01b0382166108465760405162461bcd60e51b8152600401808060200182810382526022815260200180610b0c6022913960400191505060405180910390fd5b6001600160a01b03808416600081815260016020908152604080832094871680845294825291829020859055815185815291517f8c5be1e5ebec7d5bd14f71427d1e84f3dd0314c0f7b2291e5b200ac8c7c3b9259281900390910190a3505050565b6001600160a01b0383166108ed5760405162461bcd60e51b8152600401808060200182810382526025815260200180610b7c6025913960400191505060405180910390fd5b6001600160a01b0382166109325760405162461bcd60e51b8152600401808060200182810382526023815260200180610ac86023913960400191505060405180910390fd5b61093d838383610ac2565b6001600160a01b038316600090815260208190526040902054818110156109955760405162461bcd60e51b8152600401808060200182810382526026815260200180610b2e6026913960400191505060405180910390fd5b6001600160a01b038085166000818152602081815260408083208787039055938716808352918490208054870190558351868152935191937fddf252ad1be2c89b69c2b068fc378daa952ba7f163c4a11628f55a4df523b3ef929081900390910190a350505050565b6001600160a01b038216610a59576040805162461bcd60e51b815260206004820152601f60248201527f45524332303a206d696e7420746f20746865207a65726f206164647265737300604482015290519081900360640190fd5b610a6560008383610ac2565b60028054820190556001600160a01b038216600081815260208181526040808320805486019055805185815290517fddf252ad1be2c89b69c2b068fc378daa952ba7f163c4a11628f55a4df523b3ef929181900390910190a35050565b50505056fe45524332303a207472616e7366657220746f20746865207a65726f20616464726573736f6e6c79206f776e65722063616e2063616c6c20746869732066756e6374696f6e45524332303a20617070726f766520746f20746865207a65726f206164647265737345524332303a207472616e7366657220616d6f756e7420657863656564732062616c616e636545524332303a207472616e7366657220616d6f756e74206578636565647320616c6c6f77616e636545524332303a207472616e736665722066726f6d20746865207a65726f206164647265737345524332303a20617070726f76652066726f6d20746865207a65726f206164647265737345524332303a2064656372656173656420616c6c6f77616e63652062656c6f77207a65726fa264697066735822122068504ec56a040a6fbf5fd39c9e9c11d779007140c5aed209500ee4c5290f4b2f64736f6c634300060b0033",
  "linkReferences": {},
  "deployedLinkReferences": {}
}