{
  "_format": "hh-sol-artifact-1",
  "contractName": "StringToken",
  "sourceName": "contracts/StringToken.sol",
  "abi": [
    {
      "inputs": [
        {
          "internalType": "string",
          "name": "_name",
          "type": "string"
        },
        {
          "internalType": "string",
          "name": "_symbol",
          "type": "string"
        },
        {
          "internalType": "address",
          "name": "_HarpDAOAddress",
          "type": "address"
        },
        {
          "internalType": "address",
          "name": "_owner",
          "type": "address"
        }
      ],
      "stateMutability": "nonpayable",
      "type": "constructor"
    },
    {
      "anonymous": false,
      "inputs": [
        {
          "indexed": true,
          "internalType": "address",
          "name": "owner",
          "type": "address"
        },
        {
          "indexed": true,
          "internalType": "address",
          "name": "spender",
          "type": "address"
        },
        {
          "indexed": false,
          "internalType": "uint256",
          "name": "value",
          "type": "uint256"
        }
      ],
      "name": "Approval",
      "type": "event"
    },
    {
      "anonymous": false,
      "inputs": [
        {
          "indexed": true,
          "internalType": "address",
          "name": "from",
          "type": "address"
        },
        {
          "indexed": true,
          "internalType": "address",
          "name": "to",
          "type": "address"
        },
        {
          "indexed": false,
          "internalType": "uint256",
          "name": "value",
          "type": "uint256"
        }
      ],
      "name": "Transfer",
      "type": "event"
    },
    {
      "inputs": [],
      "name": "HarpDAOAllocation",
      "outputs": [
        {
          "internalType": "uint256",
          "name": "",
          "type": "uint256"
        }
      ],
      "stateMutability": "view",
      "type": "function"
    },
    {
      "inputs": [
        {
          "internalType": "address",
          "name": "_vestingAddress",
          "type": "address"
        }
      ],
      "name": "addMinter",
      "outputs": [],
      "stateMutability": "nonpayable",
      "type": "function"
    },
    {
      "inputs": [
        {
          "internalType": "address",
          "name": "owner",
          "type": "address"
        },
        {
          "internalType": "address",
          "name": "spender",
          "type": "address"
        }
      ],
      "name": "allowance",
      "outputs": [
        {
          "internalType": "uint256",
          "name": "",
          "type": "uint256"
        }
      ],
      "stateMutability": "view",
      "type": "function"
    },
    {
      "inputs": [
        {
          "internalType": "address",
          "name": "spender",
          "type": "address"
        },
        {
          "internalType": "uint256",
          "name": "amount",
          "type": "uint256"
        }
      ],
      "name": "approve",
      "outputs": [
        {
          "internalType": "bool",
          "name": "",
          "type": "bool"
        }
      ],
      "stateMutability": "nonpayable",
      "type": "function"
    },
    {
      "inputs": [
        {
          "internalType": "address",
          "name": "account",
          "type": "address"
        }
      ],
      "name": "balanceOf",
      "outputs": [
        {
          "internalType": "uint256",
          "name": "",
          "type": "uint256"
        }
      ],
      "stateMutability": "view",
      "type": "function"
    },
    {
      "inputs": [],
      "name": "decimals",
      "outputs": [
        {
          "internalType": "uint8",
          "name": "",
          "type": "uint8"
        }
      ],
      "stateMutability": "view",
      "type": "function"
    },
    {
      "inputs": [
        {
          "internalType": "address",
          "name": "spender",
          "type": "address"
        },
        {
          "internalType": "uint256",
          "name": "subtractedValue",
          "type": "uint256"
        }
      ],
      "name": "decreaseAllowance",
      "outputs": [
        {
          "internalType": "bool",
          "name": "",
          "type": "bool"
        }
      ],
      "stateMutability": "nonpayable",
      "type": "function"
    },
    {
      "inputs": [
        {
          "internalType": "address",
          "name": "spender",
          "type": "address"
        },
        {
          "internalType": "uint256",
          "name": "addedValue",
          "type": "uint256"
        }
      ],
      "name": "increaseAllowance",
      "outputs": [
        {
          "internalType": "bool",
          "name": "",
          "type": "bool"
        }
      ],
      "stateMutability": "nonpayable",
      "type": "function"
    },
    {
      "inputs": [
        {
          "internalType": "address",
          "name": "_for",
          "type": "address"
        }
      ],
      "name": "isAllowedMinter",
      "outputs": [
        {
          "internalType": "bool",
          "name": "",
          "type": "bool"
        }
      ],
      "stateMutability": "view",
      "type": "function"
    },
    {
      "inputs": [
        {
          "internalType": "address",
          "name": "_to",
          "type": "address"
        },
        {
          "internalType": "uint256",
          "name": "_amount",
          "type": "uint256"
        }
      ],
      "name": "mintTo",
      "outputs": [],
      "stateMutability": "nonpayable",
      "type": "function"
    },
    {
      "inputs": [],
      "name": "name",
      "outputs": [
        {
          "internalType": "string",
          "name": "",
          "type": "string"
        }
      ],
      "stateMutability": "view",
      "type": "function"
    },
    {
      "inputs": [],
      "name": "owner",
      "outputs": [
        {
          "internalType": "address",
          "name": "",
          "type": "address"
        }
      ],
      "stateMutability": "view",
      "type": "function"
    },
    {
      "inputs": [],
      "name": "revokeOwnership",
      "outputs": [],
      "stateMutability": "nonpayable",
      "type": "function"
    },
    {
      "inputs": [],
      "name": "symbol",
      "outputs": [
        {
          "internalType": "string",
          "name": "",
          "type": "string"
        }
      ],
      "stateMutability": "view",
      "type": "function"
    },
    {
      "inputs": [],
      "name": "totalSupply",
      "outputs": [
        {
          "internalType": "uint256",
          "name": "",
          "type": "uint256"
        }
      ],
      "stateMutability": "view",
      "type": "function"
    },
    {
      "inputs": [
        {
          "internalType": "address",
          "name": "recipient",
          "type": "address"
        },
        {
          "internalType": "uint256",
          "name": "amount",
          "type": "uint256"
        }
      ],
      "name": "transfer",
      "outputs": [
        {
          "internalType": "bool",
          "name": "",
          "type": "bool"
        }
      ],
      "stateMutability": "nonpayable",
      "type": "function"
    },
    {
      "inputs": [
        {
          "internalType": "address",
          "name": "sender",
          "type": "address"
        },
        {
          "internalType": "address",
          "name": "recipient",
          "type": "address"
        },
        {
          "internalType": "uint256",
          "name": "amount",
          "type": "uint256"
        }
      ],
      "name": "transferFrom",
      "outputs": [
        {
          "internalType": "bool",
          "name": "",
          "type": "bool"
        }
      ],
      "stateMutability": "nonpayable",
      "type": "function"
    }
  ],
  "bytecode": "0x60806040526a01a784379d99db420000006006553480156200002057600080fd5b506040516200103938038062001039833981810160405260808110156200004657600080fd5b81019080805160405193929190846401000000008211156200006757600080fd5b9083019060208201858111156200007d57600080fd5b82516401000000008111828201881017156200009857600080fd5b82525081516020918201929091019080838360005b83811015620000c7578181015183820152602001620000ad565b50505050905090810190601f168015620000f55780820380516001836020036101000a031916815260200191505b50604052602001805160405193929190846401000000008211156200011957600080fd5b9083019060208201858111156200012f57600080fd5b82516401000000008111828201881017156200014a57600080fd5b82525081516020918201929091019080838360005b83811015620001795781810151838201526020016200015f565b50505050905090810190601f168015620001a75780820380516001836020036101000a031916815260200191505b50604090815260208281015192909101518651929450925085918591620001d491600391850190620002f7565b508051620001ea906004906020840190620002f7565b5050600780546001600160a01b0319166001600160a01b038416179055506006546200021890839062000222565b505050506200039c565b6001600160a01b0382166200027e576040805162461bcd60e51b815260206004820152601f60248201527f45524332303a206d696e7420746f20746865207a65726f206164647265737300604482015290519081900360640190fd5b62000295600083836001600160e01b03620002f216565b60028054820190556001600160a01b038216600081815260208181526040808320805486019055805185815290517fddf252ad1be2c89b69c2b068fc378daa952ba7f163c4a11628f55a4df523b3ef929181900390910190a35050565b505050565b828054600181600116156101000203166002900490600052602060002090601f016020900481019282601f106200033a57805160ff19168380011785556200036a565b828001600101855582156200036a579182015b828111156200036a5782518255916020019190600101906200034d565b50620003789291506200037c565b5090565b6200039991905b8082111562000378576000815560010162000383565b90565b610c8d80620003ac6000396000f3fe608060405234801561001057600080fd5b50600436106100eb5760003560e01c806339509351116100925780633950935114610253578063449a52f81461027f57806370a08231146102ab5780638da5cb5b146102d157806395d89b41146102f5578063983b2d56146102fd578063a457c2d714610323578063a9059cbb1461034f578063dd62ed3e1461037b576100eb565b806306fdde03146100f0578063095ea7b31461016d57806318160ddd146101ad5780631f3b4c90146101c757806323b872dd146101ed57806327291509146102235780632b9689581461022b578063313ce56714610235575b600080fd5b6100f86103a9565b6040805160208082528351818301528351919283929083019185019080838360005b8381101561013257818101518382015260200161011a565b50505050905090810190601f16801561015f5780820380516001836020036101000a031916815260200191505b509250505060405180910390f35b6101996004803603604081101561018357600080fd5b506001600160a01b03813516906020013561043f565b604080519115158252519081900360200190f35b6101b561045c565b60408051918252519081900360200190f35b610199600480360360208110156101dd57600080fd5b50356001600160a01b0316610462565b6101996004803603606081101561020357600080fd5b506001600160a01b03813581169160208101359091169060400135610480565b6101b561052f565b610233610535565b005b61023d610590565b6040805160ff9092168252519081900360200190f35b6101996004803603604081101561026957600080fd5b506001600160a01b038135169060200135610595565b6102336004803603604081101561029557600080fd5b506001600160a01b0381351690602001356105e0565b6101b5600480360360208110156102c157600080fd5b50356001600160a01b0316610657565b6102d9610672565b604080516001600160a01b039092168252519081900360200190f35b6100f8610681565b6102336004803603602081101561031357600080fd5b50356001600160a01b03166106e2565b6101996004803603604081101561033957600080fd5b506001600160a01b03813516906020013561074f565b6101996004803603604081101561036557600080fd5b506001600160a01b0381351690602001356107e7565b6101b56004803603604081101561039157600080fd5b506001600160a01b03813581169160200135166107fb565b60038054604080516020601f60026000196101006001881615020190951694909404938401819004810282018101909252828152606093909290918301828280156104355780601f1061040a57610100808354040283529160200191610435565b820191906000526020600020905b81548152906001019060200180831161041857829003601f168201915b5050505050905090565b600061045361044c610826565b848461082a565b50600192915050565b60025490565b6001600160a01b031660009081526005602052604090205460ff1690565b600061048d848484610916565b6001600160a01b0384166000908152600160205260408120816104ae610826565b6001600160a01b03166001600160a01b03168152602001908152602001600020549050828110156105105760405162461bcd60e51b8152600401808060200182810382526028815260200180610bc26028913960400191505060405180910390fd5b6105248561051c610826565b85840361082a565b506001949350505050565b60065481565b6007546001600160a01b0316331461057e5760405162461bcd60e51b8152600401808060200182810382526021815260200180610b596021913960400191505060405180910390fd5b600780546001600160a01b0319169055565b601290565b60006104536105a2610826565b8484600160006105b0610826565b6001600160a01b03908116825260208083019390935260409182016000908120918b16815292529020540161082a565b3360009081526005602052604090205460ff161515600114610649576040805162461bcd60e51b815260206004820152601c60248201527f53656e646572206e6f742061207665726966696564204d696e74657200000000604482015290519081900360640190fd5b6106538282610a6c565b5050565b6001600160a01b031660009081526020819052604090205490565b6007546001600160a01b031681565b60048054604080516020601f60026000196101006001881615020190951694909404938401819004810282018101909252828152606093909290918301828280156104355780601f1061040a57610100808354040283529160200191610435565b6007546001600160a01b0316331461072b5760405162461bcd60e51b8152600401808060200182810382526021815260200180610b596021913960400191505060405180910390fd5b6001600160a01b03166000908152600560205260409020805460ff19166001179055565b6000806001600061075e610826565b6001600160a01b03908116825260208083019390935260409182016000908120918816815292529020549050828110156107c95760405162461bcd60e51b8152600401808060200182810382526025815260200180610c336025913960400191505060405180910390fd5b6107dd6107d4610826565b8585840361082a565b5060019392505050565b60006104536107f4610826565b8484610916565b6001600160a01b03918216600090815260016020908152604080832093909416825291909152205490565b3390565b6001600160a01b03831661086f5760405162461bcd60e51b8152600401808060200182810382526024815260200180610c0f6024913960400191505060405180910390fd5b6001600160a01b0382166108b45760405162461bcd60e51b8152600401808060200182810382526022815260200180610b7a6022913960400191505060405180910390fd5b6001600160a01b03808416600081815260016020908152604080832094871680845294825291829020859055815185815291517f8c5be1e5ebec7d5bd14f71427d1e84f3dd0314c0f7b2291e5b200ac8c7c3b9259281900390910190a3505050565b6001600160a01b03831661095b5760405162461bcd60e51b8152600401808060200182810382526025815260200180610bea6025913960400191505060405180910390fd5b6001600160a01b0382166109a05760405162461bcd60e51b8152600401808060200182810382526023815260200180610b366023913960400191505060405180910390fd5b6109ab838383610b30565b6001600160a01b03831660009081526020819052604090205481811015610a035760405162461bcd60e51b8152600401808060200182810382526026815260200180610b9c6026913960400191505060405180910390fd5b6001600160a01b038085166000818152602081815260408083208787039055938716808352918490208054870190558351868152935191937fddf252ad1be2c89b69c2b068fc378daa952ba7f163c4a11628f55a4df523b3ef929081900390910190a350505050565b6001600160a01b038216610ac7576040805162461bcd60e51b815260206004820152601f60248201527f45524332303a206d696e7420746f20746865207a65726f206164647265737300604482015290519081900360640190fd5b610ad360008383610b30565b60028054820190556001600160a01b038216600081815260208181526040808320805486019055805185815290517fddf252ad1be2c89b69c2b068fc378daa952ba7f163c4a11628f55a4df523b3ef929181900390910190a35050565b50505056fe45524332303a207472616e7366657220746f20746865207a65726f20616464726573736f6e6c79206f776e65722063616e2063616c6c20746869732066756e6374696f6e45524332303a20617070726f766520746f20746865207a65726f206164647265737345524332303a207472616e7366657220616d6f756e7420657863656564732062616c616e636545524332303a207472616e7366657220616d6f756e74206578636565647320616c6c6f77616e636545524332303a207472616e736665722066726f6d20746865207a65726f206164647265737345524332303a20617070726f76652066726f6d20746865207a65726f206164647265737345524332303a2064656372656173656420616c6c6f77616e63652062656c6f77207a65726fa2646970667358221220cf692d7e0711779089b71bf85426e1b7147431624dbccb0c3fe71e940496a25364736f6c634300060b0033",
  "linkReferences": {},
  "deployedLinkReferences": {}
}