{
  "_format": "hh-sol-artifact-1",
  "contractName": "EchidnaTester",
  "sourceName": "contracts/Liquity/TestContracts/EchidnaTester.sol",
  "abi": [
    {
      "inputs": [],
      "stateMutability": "payable",
      "type": "constructor"
    },
    {
      "inputs": [],
      "name": "activePool",
      "outputs": [
        {
          "internalType": "contract ActivePool",
          "name": "",
          "type": "address"
        }
      ],
      "stateMutability": "view",
      "type": "function"
    },
    {
      "inputs": [
        {
          "internalType": "uint256",
          "name": "_i",
          "type": "uint256"
        },
        {
          "internalType": "uint256",
          "name": "_ETH",
          "type": "uint256"
        }
      ],
      "name": "addCollExt",
      "outputs": [],
      "stateMutability": "payable",
      "type": "function"
    },
    {
      "inputs": [
        {
          "internalType": "uint256",
          "name": "_i",
          "type": "uint256"
        },
        {
          "internalType": "uint256",
          "name": "_ETH",
          "type": "uint256"
        },
        {
          "internalType": "address",
          "name": "_upperHint",
          "type": "address"
        },
        {
          "internalType": "address",
          "name": "_lowerHint",
          "type": "address"
        }
      ],
      "name": "addCollRawExt",
      "outputs": [],
      "stateMutability": "payable",
      "type": "function"
    },
    {
      "inputs": [
        {
          "internalType": "uint256",
          "name": "_i",
          "type": "uint256"
        },
        {
          "internalType": "uint256",
          "name": "_ETH",
          "type": "uint256"
        },
        {
          "internalType": "uint256",
          "name": "_collWithdrawal",
          "type": "uint256"
        },
        {
          "internalType": "uint256",
          "name": "_debtChange",
          "type": "uint256"
        },
        {
          "internalType": "bool",
          "name": "_isDebtIncrease",
          "type": "bool"
        }
      ],
      "name": "adjustTroveExt",
      "outputs": [],
      "stateMutability": "payable",
      "type": "function"
    },
    {
      "inputs": [
        {
          "internalType": "uint256",
          "name": "_i",
          "type": "uint256"
        },
        {
          "internalType": "uint256",
          "name": "_ETH",
          "type": "uint256"
        },
        {
          "internalType": "uint256",
          "name": "_collWithdrawal",
          "type": "uint256"
        },
        {
          "internalType": "uint256",
          "name": "_debtChange",
          "type": "uint256"
        },
        {
          "internalType": "bool",
          "name": "_isDebtIncrease",
          "type": "bool"
        },
        {
          "internalType": "address",
          "name": "_upperHint",
          "type": "address"
        },
        {
          "internalType": "address",
          "name": "_lowerHint",
          "type": "address"
        },
        {
          "internalType": "uint256",
          "name": "_maxFee",
          "type": "uint256"
        }
      ],
      "name": "adjustTroveRawExt",
      "outputs": [],
      "stateMutability": "payable",
      "type": "function"
    },
    {
      "inputs": [
        {
          "internalType": "uint256",
          "name": "_i",
          "type": "uint256"
        },
        {
          "internalType": "address",
          "name": "spender",
          "type": "address"
        },
        {
          "internalType": "uint256",
          "name": "amount",
          "type": "uint256"
        }
      ],
      "name": "approveExt",
      "outputs": [
        {
          "internalType": "bool",
          "name": "",
          "type": "bool"
        }
      ],
      "stateMutability": "nonpayable",
      "type": "function"
    },
    {
      "inputs": [
        {
          "internalType": "uint256",
          "name": "_i",
          "type": "uint256"
        },
        {
          "internalType": "address[]",
          "name": "_troveArray",
          "type": "address[]"
        }
      ],
      "name": "batchLiquidateTrovesExt",
      "outputs": [],
      "stateMutability": "nonpayable",
      "type": "function"
    },
    {
      "inputs": [],
      "name": "borrowerOperations",
      "outputs": [
        {
          "internalType": "contract BorrowerOperations",
          "name": "",
          "type": "address"
        }
      ],
      "stateMutability": "view",
      "type": "function"
    },
    {
      "inputs": [
        {
          "internalType": "uint256",
          "name": "_i",
          "type": "uint256"
        }
      ],
      "name": "closeTroveExt",
      "outputs": [],
      "stateMutability": "nonpayable",
      "type": "function"
    },
    {
      "inputs": [],
      "name": "collSurplusPool",
      "outputs": [
        {
          "internalType": "contract CollSurplusPool",
          "name": "",
          "type": "address"
        }
      ],
      "stateMutability": "view",
      "type": "function"
    },
    {
      "inputs": [
        {
          "internalType": "uint256",
          "name": "_i",
          "type": "uint256"
        },
        {
          "internalType": "address",
          "name": "spender",
          "type": "address"
        },
        {
          "internalType": "uint256",
          "name": "subtractedValue",
          "type": "uint256"
        }
      ],
      "name": "decreaseAllowanceExt",
      "outputs": [
        {
          "internalType": "bool",
          "name": "",
          "type": "bool"
        }
      ],
      "stateMutability": "nonpayable",
      "type": "function"
    },
    {
      "inputs": [],
      "name": "defaultPool",
      "outputs": [
        {
          "internalType": "contract DefaultPool",
          "name": "",
          "type": "address"
        }
      ],
      "stateMutability": "view",
      "type": "function"
    },
    {
      "inputs": [
        {
          "internalType": "uint256",
          "name": "",
          "type": "uint256"
        }
      ],
      "name": "echidnaProxies",
      "outputs": [
        {
          "internalType": "contract EchidnaProxy",
          "name": "",
          "type": "address"
        }
      ],
      "stateMutability": "view",
      "type": "function"
    },
    {
      "inputs": [],
      "name": "echidna_ETH_balances",
      "outputs": [
        {
          "internalType": "bool",
          "name": "",
          "type": "bool"
        }
      ],
      "stateMutability": "view",
      "type": "function"
    },
    {
      "inputs": [],
      "name": "echidna_LUSD_global_balances",
      "outputs": [
        {
          "internalType": "bool",
          "name": "",
          "type": "bool"
        }
      ],
      "stateMutability": "view",
      "type": "function"
    },
    {
      "inputs": [],
      "name": "echidna_canary_active_pool_balance",
      "outputs": [
        {
          "internalType": "bool",
          "name": "",
          "type": "bool"
        }
      ],
      "stateMutability": "view",
      "type": "function"
    },
    {
      "inputs": [],
      "name": "echidna_canary_number_of_troves",
      "outputs": [
        {
          "internalType": "bool",
          "name": "",
          "type": "bool"
        }
      ],
      "stateMutability": "view",
      "type": "function"
    },
    {
      "inputs": [],
      "name": "echidna_price",
      "outputs": [
        {
          "internalType": "bool",
          "name": "",
          "type": "bool"
        }
      ],
      "stateMutability": "view",
      "type": "function"
    },
    {
      "inputs": [],
      "name": "echidna_trove_properties",
      "outputs": [
        {
          "internalType": "bool",
          "name": "",
          "type": "bool"
        }
      ],
      "stateMutability": "view",
      "type": "function"
    },
    {
      "inputs": [],
      "name": "echidna_troves_order",
      "outputs": [
        {
          "internalType": "bool",
          "name": "",
          "type": "bool"
        }
      ],
      "stateMutability": "view",
      "type": "function"
    },
    {
      "inputs": [],
      "name": "gasPool",
      "outputs": [
        {
          "internalType": "contract GasPool",
          "name": "",
          "type": "address"
        }
      ],
      "stateMutability": "view",
      "type": "function"
    },
    {
      "inputs": [
        {
          "internalType": "uint256",
          "name": "_i",
          "type": "uint256"
        },
        {
          "internalType": "address",
          "name": "spender",
          "type": "address"
        },
        {
          "internalType": "uint256",
          "name": "addedValue",
          "type": "uint256"
        }
      ],
      "name": "increaseAllowanceExt",
      "outputs": [
        {
          "internalType": "bool",
          "name": "",
          "type": "bool"
        }
      ],
      "stateMutability": "nonpayable",
      "type": "function"
    },
    {
      "inputs": [
        {
          "internalType": "uint256",
          "name": "_i",
          "type": "uint256"
        },
        {
          "internalType": "address",
          "name": "_user",
          "type": "address"
        }
      ],
      "name": "liquidateExt",
      "outputs": [],
      "stateMutability": "nonpayable",
      "type": "function"
    },
    {
      "inputs": [
        {
          "internalType": "uint256",
          "name": "_i",
          "type": "uint256"
        },
        {
          "internalType": "uint256",
          "name": "_n",
          "type": "uint256"
        }
      ],
      "name": "liquidateTrovesExt",
      "outputs": [],
      "stateMutability": "nonpayable",
      "type": "function"
    },
    {
      "inputs": [],
      "name": "lusdToken",
      "outputs": [
        {
          "internalType": "contract LUSDToken",
          "name": "",
          "type": "address"
        }
      ],
      "stateMutability": "view",
      "type": "function"
    },
    {
      "inputs": [
        {
          "internalType": "uint256",
          "name": "_i",
          "type": "uint256"
        },
        {
          "internalType": "uint256",
          "name": "_ETH",
          "type": "uint256"
        },
        {
          "internalType": "uint256",
          "name": "_LUSDAmount",
          "type": "uint256"
        }
      ],
      "name": "openTroveExt",
      "outputs": [],
      "stateMutability": "payable",
      "type": "function"
    },
    {
      "inputs": [
        {
          "internalType": "uint256",
          "name": "_i",
          "type": "uint256"
        },
        {
          "internalType": "uint256",
          "name": "_ETH",
          "type": "uint256"
        },
        {
          "internalType": "uint256",
          "name": "_LUSDAmount",
          "type": "uint256"
        },
        {
          "internalType": "address",
          "name": "_upperHint",
          "type": "address"
        },
        {
          "internalType": "address",
          "name": "_lowerHint",
          "type": "address"
        },
        {
          "internalType": "uint256",
          "name": "_maxFee",
          "type": "uint256"
        }
      ],
      "name": "openTroveRawExt",
      "outputs": [],
      "stateMutability": "payable",
      "type": "function"
    },
    {
      "inputs": [
        {
          "internalType": "uint256",
          "name": "_i",
          "type": "uint256"
        },
        {
          "internalType": "uint256",
          "name": "_amount",
          "type": "uint256"
        },
        {
          "internalType": "address",
          "name": "_frontEndTag",
          "type": "address"
        }
      ],
      "name": "provideToSPExt",
      "outputs": [],
      "stateMutability": "nonpayable",
      "type": "function"
    },
    {
      "inputs": [
        {
          "internalType": "uint256",
          "name": "_i",
          "type": "uint256"
        },
        {
          "internalType": "uint256",
          "name": "_LUSDAmount",
          "type": "uint256"
        },
        {
          "internalType": "address",
          "name": "_firstRedemptionHint",
          "type": "address"
        },
        {
          "internalType": "address",
          "name": "_upperPartialRedemptionHint",
          "type": "address"
        },
        {
          "internalType": "address",
          "name": "_lowerPartialRedemptionHint",
          "type": "address"
        },
        {
          "internalType": "uint256",
          "name": "_partialRedemptionHintNICR",
          "type": "uint256"
        }
      ],
      "name": "redeemCollateralExt",
      "outputs": [],
      "stateMutability": "nonpayable",
      "type": "function"
    },
    {
      "inputs": [
        {
          "internalType": "uint256",
          "name": "_i",
          "type": "uint256"
        },
        {
          "internalType": "uint256",
          "name": "_amount",
          "type": "uint256"
        },
        {
          "internalType": "address",
          "name": "_upperHint",
          "type": "address"
        },
        {
          "internalType": "address",
          "name": "_lowerHint",
          "type": "address"
        }
      ],
      "name": "repayLUSDExt",
      "outputs": [],
      "stateMutability": "nonpayable",
      "type": "function"
    },
    {
      "inputs": [
        {
          "internalType": "uint256",
          "name": "_price",
          "type": "uint256"
        }
      ],
      "name": "setPriceExt",
      "outputs": [],
      "stateMutability": "nonpayable",
      "type": "function"
    },
    {
      "inputs": [],
      "name": "stabilityPool",
      "outputs": [
        {
          "internalType": "contract StabilityPool",
          "name": "",
          "type": "address"
        }
      ],
      "stateMutability": "view",
      "type": "function"
    },
    {
      "inputs": [
        {
          "internalType": "uint256",
          "name": "_i",
          "type": "uint256"
        },
        {
          "internalType": "address",
          "name": "recipient",
          "type": "address"
        },
        {
          "internalType": "uint256",
          "name": "amount",
          "type": "uint256"
        }
      ],
      "name": "transferExt",
      "outputs": [
        {
          "internalType": "bool",
          "name": "",
          "type": "bool"
        }
      ],
      "stateMutability": "nonpayable",
      "type": "function"
    },
    {
      "inputs": [
        {
          "internalType": "uint256",
          "name": "_i",
          "type": "uint256"
        },
        {
          "internalType": "address",
          "name": "sender",
          "type": "address"
        },
        {
          "internalType": "address",
          "name": "recipient",
          "type": "address"
        },
        {
          "internalType": "uint256",
          "name": "amount",
          "type": "uint256"
        }
      ],
      "name": "transferFromExt",
      "outputs": [
        {
          "internalType": "bool",
          "name": "",
          "type": "bool"
        }
      ],
      "stateMutability": "nonpayable",
      "type": "function"
    },
    {
      "inputs": [],
      "name": "troveManager",
      "outputs": [
        {
          "internalType": "contract TroveManager",
          "name": "",
          "type": "address"
        }
      ],
      "stateMutability": "view",
      "type": "function"
    },
    {
      "inputs": [
        {
          "internalType": "uint256",
          "name": "_i",
          "type": "uint256"
        },
        {
          "internalType": "uint256",
          "name": "_amount",
          "type": "uint256"
        },
        {
          "internalType": "address",
          "name": "_upperHint",
          "type": "address"
        },
        {
          "internalType": "address",
          "name": "_lowerHint",
          "type": "address"
        }
      ],
      "name": "withdrawCollExt",
      "outputs": [],
      "stateMutability": "nonpayable",
      "type": "function"
    },
    {
      "inputs": [
        {
          "internalType": "uint256",
          "name": "_i",
          "type": "uint256"
        },
        {
          "internalType": "uint256",
          "name": "_amount",
          "type": "uint256"
        }
      ],
      "name": "withdrawFromSPExt",
      "outputs": [],
      "stateMutability": "nonpayable",
      "type": "function"
    },
    {
      "inputs": [
        {
          "internalType": "uint256",
          "name": "_i",
          "type": "uint256"
        },
        {
          "internalType": "uint256",
          "name": "_amount",
          "type": "uint256"
        },
        {
          "internalType": "address",
          "name": "_upperHint",
          "type": "address"
        },
        {
          "internalType": "address",
          "name": "_lowerHint",
          "type": "address"
        },
        {
          "internalType": "uint256",
          "name": "_maxFee",
          "type": "uint256"
        }
      ],
      "name": "withdrawLUSDExt",
      "outputs": [],
      "stateMutability": "nonpayable",
      "type": "function"
    }
  ],
  "bytecode": "0x6080604052604051620000129062001b21565b604051809103906000f0801580156200002f573d6000803e3d6000fd5b50600360006101000a81548173ffffffffffffffffffffffffffffffffffffffff021916908373ffffffffffffffffffffffffffffffffffffffff1602179055506040516200007e9062001b2f565b604051809103906000f0801580156200009b573d6000803e3d6000fd5b50600460006101000a81548173ffffffffffffffffffffffffffffffffffffffff021916908373ffffffffffffffffffffffffffffffffffffffff160217905550604051620000ea9062001b3d565b604051809103906000f08015801562000107573d6000803e3d6000fd5b50600560006101000a81548173ffffffffffffffffffffffffffffffffffffffff021916908373ffffffffffffffffffffffffffffffffffffffff160217905550604051620001569062001b4b565b604051809103906000f08015801562000173573d6000803e3d6000fd5b50600660006101000a81548173ffffffffffffffffffffffffffffffffffffffff021916908373ffffffffffffffffffffffffffffffffffffffff160217905550604051620001c29062001b59565b604051809103906000f080158015620001df573d6000803e3d6000fd5b50600760006101000a81548173ffffffffffffffffffffffffffffffffffffffff021916908373ffffffffffffffffffffffffffffffffffffffff1602179055506040516200022e9062001b67565b604051809103906000f0801580156200024b573d6000803e3d6000fd5b50600860006101000a81548173ffffffffffffffffffffffffffffffffffffffff021916908373ffffffffffffffffffffffffffffffffffffffff160217905550600360009054906101000a900473ffffffffffffffffffffffffffffffffffffffff16600760009054906101000a900473ffffffffffffffffffffffffffffffffffffffff16600460009054906101000a900473ffffffffffffffffffffffffffffffffffffffff16604051620003039062001b74565b808473ffffffffffffffffffffffffffffffffffffffff1673ffffffffffffffffffffffffffffffffffffffff1681526020018373ffffffffffffffffffffffffffffffffffffffff1673ffffffffffffffffffffffffffffffffffffffff1681526020018273ffffffffffffffffffffffffffffffffffffffff1673ffffffffffffffffffffffffffffffffffffffff1681526020019350505050604051809103906000f080158015620003bc573d6000803e3d6000fd5b50600a60006101000a81548173ffffffffffffffffffffffffffffffffffffffff021916908373ffffffffffffffffffffffffffffffffffffffff1602179055506040516200040b9062001b82565b604051809103906000f08015801562000428573d6000803e3d6000fd5b50600960006101000a81548173ffffffffffffffffffffffffffffffffffffffff021916908373ffffffffffffffffffffffffffffffffffffffff160217905550604051620004779062001b90565b604051809103906000f08015801562000494573d6000803e3d6000fd5b50600b60006101000a81548173ffffffffffffffffffffffffffffffffffffffff021916908373ffffffffffffffffffffffffffffffffffffffff160217905550604051620004e39062001b9e565b604051809103906000f08015801562000500573d6000803e3d6000fd5b50600c60006101000a81548173ffffffffffffffffffffffffffffffffffffffff021916908373ffffffffffffffffffffffffffffffffffffffff160217905550600360009054906101000a900473ffffffffffffffffffffffffffffffffffffffff1673ffffffffffffffffffffffffffffffffffffffff16637985c5e4600460009054906101000a900473ffffffffffffffffffffffffffffffffffffffff16600560009054906101000a900473ffffffffffffffffffffffffffffffffffffffff16600660009054906101000a900473ffffffffffffffffffffffffffffffffffffffff16600760009054906101000a900473ffffffffffffffffffffffffffffffffffffffff16600860009054906101000a900473ffffffffffffffffffffffffffffffffffffffff16600960009054906101000a900473ffffffffffffffffffffffffffffffffffffffff16600b60009054906101000a900473ffffffffffffffffffffffffffffffffffffffff16600a60009054906101000a900473ffffffffffffffffffffffffffffffffffffffff16600c60009054906101000a900473ffffffffffffffffffffffffffffffffffffffff166000806040518c63ffffffff1660e01b8152600401808c73ffffffffffffffffffffffffffffffffffffffff1673ffffffffffffffffffffffffffffffffffffffff1681526020018b73ffffffffffffffffffffffffffffffffffffffff1673ffffffffffffffffffffffffffffffffffffffff1681526020018a73ffffffffffffffffffffffffffffffffffffffff1673ffffffffffffffffffffffffffffffffffffffff1681526020018973ffffffffffffffffffffffffffffffffffffffff1673ffffffffffffffffffffffffffffffffffffffff1681526020018873ffffffffffffffffffffffffffffffffffffffff1673ffffffffffffffffffffffffffffffffffffffff1681526020018773ffffffffffffffffffffffffffffffffffffffff1673ffffffffffffffffffffffffffffffffffffffff1681526020018673ffffffffffffffffffffffffffffffffffffffff1673ffffffffffffffffffffffffffffffffffffffff1681526020018573ffffffffffffffffffffffffffffffffffffffff1673ffffffffffffffffffffffffffffffffffffffff1681526020018473ffffffffffffffffffffffffffffffffffffffff1673ffffffffffffffffffffffffffffffffffffffff1681526020018373ffffffffffffffffffffffffffffffffffffffff1673ffffffffffffffffffffffffffffffffffffffff1681526020018273ffffffffffffffffffffffffffffffffffffffff1673ffffffffffffffffffffffffffffffffffffffff1681526020019b505050505050505050505050600060405180830381600087803b1580156200091e57600080fd5b505af115801562000933573d6000803e3d6000fd5b50505050600460009054906101000a900473ffffffffffffffffffffffffffffffffffffffff1673ffffffffffffffffffffffffffffffffffffffff16636c37a4af600360009054906101000a900473ffffffffffffffffffffffffffffffffffffffff16600560009054906101000a900473ffffffffffffffffffffffffffffffffffffffff16600660009054906101000a900473ffffffffffffffffffffffffffffffffffffffff16600760009054906101000a900473ffffffffffffffffffffffffffffffffffffffff16600860009054906101000a900473ffffffffffffffffffffffffffffffffffffffff16600960009054906101000a900473ffffffffffffffffffffffffffffffffffffffff16600b60009054906101000a900473ffffffffffffffffffffffffffffffffffffffff16600c60009054906101000a900473ffffffffffffffffffffffffffffffffffffffff16600a60009054906101000a900473ffffffffffffffffffffffffffffffffffffffff1660006040518b63ffffffff1660e01b8152600401808b73ffffffffffffffffffffffffffffffffffffffff1673ffffffffffffffffffffffffffffffffffffffff1681526020018a73ffffffffffffffffffffffffffffffffffffffff1673ffffffffffffffffffffffffffffffffffffffff1681526020018973ffffffffffffffffffffffffffffffffffffffff1673ffffffffffffffffffffffffffffffffffffffff1681526020018873ffffffffffffffffffffffffffffffffffffffff1673ffffffffffffffffffffffffffffffffffffffff1681526020018773ffffffffffffffffffffffffffffffffffffffff1673ffffffffffffffffffffffffffffffffffffffff1681526020018673ffffffffffffffffffffffffffffffffffffffff1673ffffffffffffffffffffffffffffffffffffffff1681526020018573ffffffffffffffffffffffffffffffffffffffff1673ffffffffffffffffffffffffffffffffffffffff1681526020018473ffffffffffffffffffffffffffffffffffffffff1673ffffffffffffffffffffffffffffffffffffffff1681526020018373ffffffffffffffffffffffffffffffffffffffff1673ffffffffffffffffffffffffffffffffffffffff1681526020018273ffffffffffffffffffffffffffffffffffffffff1673ffffffffffffffffffffffffffffffffffffffff1681526020019a5050505050505050505050600060405180830381600087803b15801562000ce057600080fd5b505af115801562000cf5573d6000803e3d6000fd5b50505050600560009054906101000a900473ffffffffffffffffffffffffffffffffffffffff1673ffffffffffffffffffffffffffffffffffffffff16634a945f8d600460009054906101000a900473ffffffffffffffffffffffffffffffffffffffff16600360009054906101000a900473ffffffffffffffffffffffffffffffffffffffff16600760009054906101000a900473ffffffffffffffffffffffffffffffffffffffff16600660009054906101000a900473ffffffffffffffffffffffffffffffffffffffff166040518563ffffffff1660e01b8152600401808573ffffffffffffffffffffffffffffffffffffffff1673ffffffffffffffffffffffffffffffffffffffff1681526020018473ffffffffffffffffffffffffffffffffffffffff1673ffffffffffffffffffffffffffffffffffffffff1681526020018373ffffffffffffffffffffffffffffffffffffffff1673ffffffffffffffffffffffffffffffffffffffff1681526020018273ffffffffffffffffffffffffffffffffffffffff1673ffffffffffffffffffffffffffffffffffffffff168152602001945050505050600060405180830381600087803b15801562000ebf57600080fd5b505af115801562000ed4573d6000803e3d6000fd5b50505050600660009054906101000a900473ffffffffffffffffffffffffffffffffffffffff1673ffffffffffffffffffffffffffffffffffffffff166390107afe600360009054906101000a900473ffffffffffffffffffffffffffffffffffffffff16600560009054906101000a900473ffffffffffffffffffffffffffffffffffffffff166040518363ffffffff1660e01b8152600401808373ffffffffffffffffffffffffffffffffffffffff1673ffffffffffffffffffffffffffffffffffffffff1681526020018273ffffffffffffffffffffffffffffffffffffffff1673ffffffffffffffffffffffffffffffffffffffff16815260200192505050600060405180830381600087803b15801562000ff257600080fd5b505af115801562001007573d6000803e3d6000fd5b50505050600760009054906101000a900473ffffffffffffffffffffffffffffffffffffffff1673ffffffffffffffffffffffffffffffffffffffff1663eaa8ba7f600460009054906101000a900473ffffffffffffffffffffffffffffffffffffffff16600360009054906101000a900473ffffffffffffffffffffffffffffffffffffffff16600560009054906101000a900473ffffffffffffffffffffffffffffffffffffffff16600a60009054906101000a900473ffffffffffffffffffffffffffffffffffffffff16600c60009054906101000a900473ffffffffffffffffffffffffffffffffffffffff16600b60009054906101000a900473ffffffffffffffffffffffffffffffffffffffff1660006040518863ffffffff1660e01b8152600401808873ffffffffffffffffffffffffffffffffffffffff1673ffffffffffffffffffffffffffffffffffffffff1681526020018773ffffffffffffffffffffffffffffffffffffffff1673ffffffffffffffffffffffffffffffffffffffff1681526020018673ffffffffffffffffffffffffffffffffffffffff1673ffffffffffffffffffffffffffffffffffffffff1681526020018573ffffffffffffffffffffffffffffffffffffffff1673ffffffffffffffffffffffffffffffffffffffff1681526020018473ffffffffffffffffffffffffffffffffffffffff1673ffffffffffffffffffffffffffffffffffffffff1681526020018373ffffffffffffffffffffffffffffffffffffffff1673ffffffffffffffffffffffffffffffffffffffff1681526020018273ffffffffffffffffffffffffffffffffffffffff1673ffffffffffffffffffffffffffffffffffffffff168152602001975050505050505050600060405180830381600087803b158015620012b257600080fd5b505af1158015620012c7573d6000803e3d6000fd5b50505050600960009054906101000a900473ffffffffffffffffffffffffffffffffffffffff1673ffffffffffffffffffffffffffffffffffffffff1663363bf964600460009054906101000a900473ffffffffffffffffffffffffffffffffffffffff16600360009054906101000a900473ffffffffffffffffffffffffffffffffffffffff16600560009054906101000a900473ffffffffffffffffffffffffffffffffffffffff166040518463ffffffff1660e01b8152600401808473ffffffffffffffffffffffffffffffffffffffff1673ffffffffffffffffffffffffffffffffffffffff1681526020018373ffffffffffffffffffffffffffffffffffffffff1673ffffffffffffffffffffffffffffffffffffffff1681526020018273ffffffffffffffffffffffffffffffffffffffff1673ffffffffffffffffffffffffffffffffffffffff1681526020019350505050600060405180830381600087803b1580156200143b57600080fd5b505af115801562001450573d6000803e3d6000fd5b50505050600c60009054906101000a900473ffffffffffffffffffffffffffffffffffffffff1673ffffffffffffffffffffffffffffffffffffffff1663f376d798670de0b6b3a7640000600360009054906101000a900473ffffffffffffffffffffffffffffffffffffffff16600460009054906101000a900473ffffffffffffffffffffffffffffffffffffffff166040518463ffffffff1660e01b8152600401808481526020018373ffffffffffffffffffffffffffffffffffffffff1673ffffffffffffffffffffffffffffffffffffffff1681526020018273ffffffffffffffffffffffffffffffffffffffff1673ffffffffffffffffffffffffffffffffffffffff1681526020019350505050600060405180830381600087803b1580156200157e57600080fd5b505af115801562001593573d6000803e3d6000fd5b5050505060008090505b60648110156200183957600360009054906101000a900473ffffffffffffffffffffffffffffffffffffffff16600460009054906101000a900473ffffffffffffffffffffffffffffffffffffffff16600760009054906101000a900473ffffffffffffffffffffffffffffffffffffffff16600a60009054906101000a900473ffffffffffffffffffffffffffffffffffffffff16604051620016419062001bac565b808573ffffffffffffffffffffffffffffffffffffffff1673ffffffffffffffffffffffffffffffffffffffff1681526020018473ffffffffffffffffffffffffffffffffffffffff1673ffffffffffffffffffffffffffffffffffffffff1681526020018373ffffffffffffffffffffffffffffffffffffffff1673ffffffffffffffffffffffffffffffffffffffff1681526020018273ffffffffffffffffffffffffffffffffffffffff1673ffffffffffffffffffffffffffffffffffffffff168152602001945050505050604051809103906000f0801580156200172d573d6000803e3d6000fd5b50600d82606481106200173c57fe5b0160006101000a81548173ffffffffffffffffffffffffffffffffffffffff021916908373ffffffffffffffffffffffffffffffffffffffff1602179055506000600d82606481106200178b57fe5b0160009054906101000a900473ffffffffffffffffffffffffffffffffffffffff1673ffffffffffffffffffffffffffffffffffffffff1669d3c21bcecceda100000060405180600001905060006040518083038185875af1925050503d806000811462001816576040519150601f19603f3d011682016040523d82523d6000602084013e6200181b565b606091505b50509050806200182a57600080fd5b5080806001019150506200159d565b50600460009054906101000a900473ffffffffffffffffffffffffffffffffffffffff1673ffffffffffffffffffffffffffffffffffffffff1663794e57246040518163ffffffff1660e01b815260040160206040518083038186803b158015620018a357600080fd5b505afa158015620018b8573d6000803e3d6000fd5b505050506040513d6020811015620018cf57600080fd5b8101908080519060200190929190505050600081905550600460009054906101000a900473ffffffffffffffffffffffffffffffffffffffff1673ffffffffffffffffffffffffffffffffffffffff16635733d58f6040518163ffffffff1660e01b815260040160206040518083038186803b1580156200194f57600080fd5b505afa15801562001964573d6000803e3d6000fd5b505050506040513d60208110156200197b57600080fd5b8101908080519060200190929190505050600181905550600460009054906101000a900473ffffffffffffffffffffffffffffffffffffffff1673ffffffffffffffffffffffffffffffffffffffff16632e86bbd86040518163ffffffff1660e01b815260040160206040518083038186803b158015620019fb57600080fd5b505afa15801562001a10573d6000803e3d6000fd5b505050506040513d602081101562001a2757600080fd5b8101908080519060200190929190505050600281905550600080541162001a4d57600080fd5b60006001541162001a5d57600080fd5b600b60009054906101000a900473ffffffffffffffffffffffffffffffffffffffff1673ffffffffffffffffffffffffffffffffffffffff166391b7f5ed69021e19e0c9bab24000006040518263ffffffff1660e01b815260040180828152602001915050602060405180830381600087803b15801562001add57600080fd5b505af115801562001af2573d6000803e3d6000fd5b505050506040513d602081101562001b0957600080fd5b81019080805190602001909291905050505062001bba565b61959580620060bb83390190565b615612806200f65083390190565b6115018062014c6283390190565b610fd3806201616383390190565b6169e3806201713683390190565b605c806201db1983390190565b612893806201db7583390190565b611373806202040883390190565b610143806202177b83390190565b61374a80620218be83390190565b611ab1806202500883390190565b6144f18062001bca6000396000f3fe6080604052600436106102255760003560e01c80637f7dde4a11610123578063b83f91a2116100ab578063d21af9681161006f578063d21af96814610eaf578063e448912714610ef1578063efa83cf914610f36578063f2a903a714610fc2578063fa08b03814610ff157610225565b8063b83f91a214610cfd578063baf5d65f14610d54578063c325347f14610d99578063c91b364a14610e29578063cda775f914610e5857610225565b80639cdd0978116100f25780639cdd097814610b0e5780639d9da9d814610b8b5780639f56ac1814610c1a578063a2f5cbdd14610c49578063a3d3683414610c7857610225565b80637f7dde4a146109905780638e4707d3146109e757806391a4a42614610a64578063980c55d714610adf57610225565b80634557559f116101b157806359bed84b1161017557806359bed84b14610746578063696909361461077557806377553ad4146107ed5780637c22900e146108445780637ca8b028146108e157610225565b80634557559f146105a65780634e792a30146105e157806357285cc51461063c5780635895ac4e14610674578063597ec799146106a357610225565b80633ca4afc1116101f85780633ca4afc1146103d35780633cc74225146104385780633d83908a1461048f57806340ba2e27146104e65780634104fbd31461052157610225565b8063048c661d1461022a57806304bbf59c14610281578063119be5d0146102fe5780631c6fbd231461037b575b600080fd5b34801561023657600080fd5b5061023f611048565b604051808273ffffffffffffffffffffffffffffffffffffffff1673ffffffffffffffffffffffffffffffffffffffff16815260200191505060405180910390f35b34801561028d57600080fd5b506102e4600480360360608110156102a457600080fd5b8101908080359060200190929190803573ffffffffffffffffffffffffffffffffffffffff1690602001909291908035906020019092919050505061106e565b604051808215151515815260200191505060405180910390f35b34801561030a57600080fd5b506103616004803603606081101561032157600080fd5b8101908080359060200190929190803573ffffffffffffffffffffffffffffffffffffffff16906020019092919080359060200190929190505050611177565b604051808215151515815260200191505060405180910390f35b6103d1600480360360a081101561039157600080fd5b8101908080359060200190929190803590602001909291908035906020019092919080359060200190929190803515159060200190929190505050611280565b005b3480156103df57600080fd5b50610436600480360360608110156103f657600080fd5b810190808035906020019092919080359060200190929190803573ffffffffffffffffffffffffffffffffffffffff16906020019092919050505061140f565b005b34801561044457600080fd5b5061044d6114f1565b604051808273ffffffffffffffffffffffffffffffffffffffff1673ffffffffffffffffffffffffffffffffffffffff16815260200191505060405180910390f35b34801561049b57600080fd5b506104a4611517565b604051808273ffffffffffffffffffffffffffffffffffffffff1673ffffffffffffffffffffffffffffffffffffffff16815260200191505060405180910390f35b3480156104f257600080fd5b5061051f6004803603602081101561050957600080fd5b810190808035906020019092919050505061153d565b005b34801561052d57600080fd5b506105a46004803603608081101561054457600080fd5b810190808035906020019092919080359060200190929190803573ffffffffffffffffffffffffffffffffffffffff169060200190929190803573ffffffffffffffffffffffffffffffffffffffff1690602001909291905050506115de565b005b3480156105b257600080fd5b506105df600480360360208110156105c957600080fd5b81019080803590602001909291905050506116f5565b005b3480156105ed57600080fd5b5061063a6004803603604081101561060457600080fd5b8101908080359060200190929190803573ffffffffffffffffffffffffffffffffffffffff1690602001909291905050506117b4565b005b6106726004803603604081101561065257600080fd5b81019080803590602001909291908035906020019092919050505061188d565b005b34801561068057600080fd5b506106896119d8565b604051808215151515815260200191505060405180910390f35b61074460048036036101008110156106ba57600080fd5b8101908080359060200190929190803590602001909291908035906020019092919080359060200190929190803515159060200190929190803573ffffffffffffffffffffffffffffffffffffffff169060200190929190803573ffffffffffffffffffffffffffffffffffffffff16906020019092919080359060200190929190505050611a9c565b005b34801561075257600080fd5b5061075b611bdb565b604051808215151515815260200191505060405180910390f35b6107eb6004803603608081101561078b57600080fd5b810190808035906020019092919080359060200190929190803573ffffffffffffffffffffffffffffffffffffffff169060200190929190803573ffffffffffffffffffffffffffffffffffffffff169060200190929190505050612084565b005b3480156107f957600080fd5b5061080261219b565b604051808273ffffffffffffffffffffffffffffffffffffffff1673ffffffffffffffffffffffffffffffffffffffff16815260200191505060405180910390f35b34801561085057600080fd5b506108c76004803603608081101561086757600080fd5b8101908080359060200190929190803573ffffffffffffffffffffffffffffffffffffffff169060200190929190803573ffffffffffffffffffffffffffffffffffffffff169060200190929190803590602001909291905050506121c1565b604051808215151515815260200191505060405180910390f35b3480156108ed57600080fd5b5061098e600480360360c081101561090457600080fd5b810190808035906020019092919080359060200190929190803573ffffffffffffffffffffffffffffffffffffffff169060200190929190803573ffffffffffffffffffffffffffffffffffffffff169060200190929190803573ffffffffffffffffffffffffffffffffffffffff169060200190929190803590602001909291905050506122ff565b005b34801561099c57600080fd5b506109a5612465565b604051808273ffffffffffffffffffffffffffffffffffffffff1673ffffffffffffffffffffffffffffffffffffffff16815260200191505060405180910390f35b3480156109f357600080fd5b50610a4a60048036036060811015610a0a57600080fd5b8101908080359060200190929190803573ffffffffffffffffffffffffffffffffffffffff1690602001909291908035906020019092919050505061248b565b604051808215151515815260200191505060405180910390f35b348015610a7057600080fd5b50610a9d60048036036020811015610a8757600080fd5b8101908080359060200190929190505050612594565b604051808273ffffffffffffffffffffffffffffffffffffffff1673ffffffffffffffffffffffffffffffffffffffff16815260200191505060405180910390f35b348015610aeb57600080fd5b50610af46125c7565b604051808215151515815260200191505060405180910390f35b348015610b1a57600080fd5b50610b7160048036036060811015610b3157600080fd5b8101908080359060200190929190803573ffffffffffffffffffffffffffffffffffffffff16906020019092919080359060200190929190505050612a73565b604051808215151515815260200191505060405180910390f35b348015610b9757600080fd5b50610c18600480360360a0811015610bae57600080fd5b810190808035906020019092919080359060200190929190803573ffffffffffffffffffffffffffffffffffffffff169060200190929190803573ffffffffffffffffffffffffffffffffffffffff16906020019092919080359060200190929190505050612b7c565b005b348015610c2657600080fd5b50610c2f612c9c565b604051808215151515815260200191505060405180910390f35b348015610c5557600080fd5b50610c5e612cf0565b604051808215151515815260200191505060405180910390f35b348015610c8457600080fd5b50610cfb60048036036080811015610c9b57600080fd5b810190808035906020019092919080359060200190929190803573ffffffffffffffffffffffffffffffffffffffff169060200190929190803573ffffffffffffffffffffffffffffffffffffffff169060200190929190505050612d0e565b005b348015610d0957600080fd5b50610d12612e25565b604051808273ffffffffffffffffffffffffffffffffffffffff1673ffffffffffffffffffffffffffffffffffffffff16815260200191505060405180910390f35b348015610d6057600080fd5b50610d9760048036036040811015610d7757600080fd5b810190808035906020019092919080359060200190929190505050612e4b565b005b348015610da557600080fd5b50610e2760048036036040811015610dbc57600080fd5b810190808035906020019092919080359060200190640100000000811115610de357600080fd5b820183602082011115610df557600080fd5b80359060200191846020830284011164010000000083111715610e1757600080fd5b9091929391929390505050612ef8565b005b348015610e3557600080fd5b50610e3e612fd5565b604051808215151515815260200191505060405180910390f35b348015610e6457600080fd5b50610e6d61364f565b604051808273ffffffffffffffffffffffffffffffffffffffff1673ffffffffffffffffffffffffffffffffffffffff16815260200191505060405180910390f35b610eef60048036036060811015610ec557600080fd5b81019080803590602001909291908035906020019092919080359060200190929190505050613675565b005b348015610efd57600080fd5b50610f3460048036036040811015610f1457600080fd5b810190808035906020019092919080359060200190929190505050613899565b005b610fc0600480360360c0811015610f4c57600080fd5b81019080803590602001909291908035906020019092919080359060200190929190803573ffffffffffffffffffffffffffffffffffffffff169060200190929190803573ffffffffffffffffffffffffffffffffffffffff16906020019092919080359060200190929190505050613946565b005b348015610fce57600080fd5b50610fd7613a6f565b604051808215151515815260200191505060405180910390f35b348015610ffd57600080fd5b50611006613eb0565b604051808273ffffffffffffffffffffffffffffffffffffffff1673ffffffffffffffffffffffffffffffffffffffff16815260200191505060405180910390f35b600760009054906101000a900473ffffffffffffffffffffffffffffffffffffffff1681565b6000806064858161107b57fe5b069050600d816064811061108b57fe5b0160009054906101000a900473ffffffffffffffffffffffffffffffffffffffff1673ffffffffffffffffffffffffffffffffffffffff1663d466e4eb85856040518363ffffffff1660e01b8152600401808373ffffffffffffffffffffffffffffffffffffffff1673ffffffffffffffffffffffffffffffffffffffff16815260200182815260200192505050602060405180830381600087803b15801561113357600080fd5b505af1158015611147573d6000803e3d6000fd5b505050506040513d602081101561115d57600080fd5b810190808051906020019092919050505050509392505050565b6000806064858161118457fe5b069050600d816064811061119457fe5b0160009054906101000a900473ffffffffffffffffffffffffffffffffffffffff1673ffffffffffffffffffffffffffffffffffffffff1663cf83544f85856040518363ffffffff1660e01b8152600401808373ffffffffffffffffffffffffffffffffffffffff1673ffffffffffffffffffffffffffffffffffffffff16815260200182815260200192505050602060405180830381600087803b15801561123c57600080fd5b505af1158015611250573d6000803e3d6000fd5b505050506040513d602081101561126657600080fd5b810190808051906020019092919050505050509392505050565b60006064868161128c57fe5b0690506000600d826064811061129e57fe5b0160009054906101000a900473ffffffffffffffffffffffffffffffffffffffff16905060008173ffffffffffffffffffffffffffffffffffffffff1631905060006112ed8289600054613ed6565b90506000869050851561130a576113078288600054613fe1565b90505b8373ffffffffffffffffffffffffffffffffffffffff1663650b559c838a848a60008060006040518863ffffffff1660e01b815260040180888152602001878152602001868152602001851515151581526020018473ffffffffffffffffffffffffffffffffffffffff1673ffffffffffffffffffffffffffffffffffffffff1681526020018373ffffffffffffffffffffffffffffffffffffffff1673ffffffffffffffffffffffffffffffffffffffff168152602001828152602001975050505050505050600060405180830381600087803b1580156113eb57600080fd5b505af11580156113ff573d6000803e3d6000fd5b5050505050505050505050505050565b60006064848161141b57fe5b069050600d816064811061142b57fe5b0160009054906101000a900473ffffffffffffffffffffffffffffffffffffffff1673ffffffffffffffffffffffffffffffffffffffff16634c36240b84846040518363ffffffff1660e01b8152600401808381526020018273ffffffffffffffffffffffffffffffffffffffff1673ffffffffffffffffffffffffffffffffffffffff16815260200192505050600060405180830381600087803b1580156114d357600080fd5b505af11580156114e7573d6000803e3d6000fd5b5050505050505050565b600660009054906101000a900473ffffffffffffffffffffffffffffffffffffffff1681565b600360009054906101000a900473ffffffffffffffffffffffffffffffffffffffff1681565b60006064828161154957fe5b069050600d816064811061155957fe5b0160009054906101000a900473ffffffffffffffffffffffffffffffffffffffff1673ffffffffffffffffffffffffffffffffffffffff16634903a3dd6040518163ffffffff1660e01b8152600401600060405180830381600087803b1580156115c257600080fd5b505af11580156115d6573d6000803e3d6000fd5b505050505050565b6000606485816115ea57fe5b069050600d81606481106115fa57fe5b0160009054906101000a900473ffffffffffffffffffffffffffffffffffffffff1673ffffffffffffffffffffffffffffffffffffffff16637a97d8388585856040518463ffffffff1660e01b8152600401808481526020018373ffffffffffffffffffffffffffffffffffffffff1673ffffffffffffffffffffffffffffffffffffffff1681526020018273ffffffffffffffffffffffffffffffffffffffff1673ffffffffffffffffffffffffffffffffffffffff1681526020019350505050600060405180830381600087803b1580156116d657600080fd5b505af11580156116ea573d6000803e3d6000fd5b505050505050505050565b6000600b60009054906101000a900473ffffffffffffffffffffffffffffffffffffffff1673ffffffffffffffffffffffffffffffffffffffff166391b7f5ed836040518263ffffffff1660e01b815260040180828152602001915050602060405180830381600087803b15801561176c57600080fd5b505af1158015611780573d6000803e3d6000fd5b505050506040513d602081101561179657600080fd5b81019080805190602001909291905050509050806117b057fe5b5050565b6000606483816117c057fe5b069050600d81606481106117d057fe5b0160009054906101000a900473ffffffffffffffffffffffffffffffffffffffff1673ffffffffffffffffffffffffffffffffffffffff16634d37261f836040518263ffffffff1660e01b8152600401808273ffffffffffffffffffffffffffffffffffffffff1673ffffffffffffffffffffffffffffffffffffffff168152602001915050600060405180830381600087803b15801561187057600080fd5b505af1158015611884573d6000803e3d6000fd5b50505050505050565b60006064838161189957fe5b0690506000600d82606481106118ab57fe5b0160009054906101000a900473ffffffffffffffffffffffffffffffffffffffff16905060008173ffffffffffffffffffffffffffffffffffffffff1631905060006118fa8286600054613ed6565b90508273ffffffffffffffffffffffffffffffffffffffff166332e859b9826000806040518463ffffffff1660e01b8152600401808481526020018373ffffffffffffffffffffffffffffffffffffffff1673ffffffffffffffffffffffffffffffffffffffff1681526020018273ffffffffffffffffffffffffffffffffffffffff1673ffffffffffffffffffffffffffffffffffffffff1681526020019350505050600060405180830381600087803b1580156119b857600080fd5b505af11580156119cc573d6000803e3d6000fd5b50505050505050505050565b600080600b60009054906101000a900473ffffffffffffffffffffffffffffffffffffffff1673ffffffffffffffffffffffffffffffffffffffff166398d5fdca6040518163ffffffff1660e01b815260040160206040518083038186803b158015611a4357600080fd5b505afa158015611a57573d6000803e3d6000fd5b505050506040513d6020811015611a6d57600080fd5b810190808051906020019092919050505090506000811415611a93576000915050611a99565b60019150505b90565b600060648981611aa857fe5b069050600d8160648110611ab857fe5b0160009054906101000a900473ffffffffffffffffffffffffffffffffffffffff1673ffffffffffffffffffffffffffffffffffffffff1663650b559c898989898989896040518863ffffffff1660e01b815260040180888152602001878152602001868152602001851515151581526020018473ffffffffffffffffffffffffffffffffffffffff1673ffffffffffffffffffffffffffffffffffffffff1681526020018373ffffffffffffffffffffffffffffffffffffffff1673ffffffffffffffffffffffffffffffffffffffff168152602001828152602001975050505050505050600060405180830381600087803b158015611bb857600080fd5b505af1158015611bcc573d6000803e3d6000fd5b50505050505050505050505050565b600080600c60009054906101000a900473ffffffffffffffffffffffffffffffffffffffff1673ffffffffffffffffffffffffffffffffffffffff16631e2231436040518163ffffffff1660e01b815260040160206040518083038186803b158015611c4657600080fd5b505afa158015611c5a573d6000803e3d6000fd5b505050506040513d6020811015611c7057600080fd5b810190808051906020019092919050505090506000600c60009054906101000a900473ffffffffffffffffffffffffffffffffffffffff1673ffffffffffffffffffffffffffffffffffffffff1663765e0159836040518263ffffffff1660e01b8152600401808273ffffffffffffffffffffffffffffffffffffffff1673ffffffffffffffffffffffffffffffffffffffff16815260200191505060206040518083038186803b158015611d2457600080fd5b505afa158015611d38573d6000803e3d6000fd5b505050506040513d6020811015611d4e57600080fd5b810190808051906020019092919050505090505b600073ffffffffffffffffffffffffffffffffffffffff168273ffffffffffffffffffffffffffffffffffffffff1614158015611dcc5750600073ffffffffffffffffffffffffffffffffffffffff168173ffffffffffffffffffffffffffffffffffffffff1614155b1561207a57600360009054906101000a900473ffffffffffffffffffffffffffffffffffffffff1673ffffffffffffffffffffffffffffffffffffffff1663b0d8e181836040518263ffffffff1660e01b8152600401808273ffffffffffffffffffffffffffffffffffffffff1673ffffffffffffffffffffffffffffffffffffffff16815260200191505060206040518083038186803b158015611e7057600080fd5b505afa158015611e84573d6000803e3d6000fd5b505050506040513d6020811015611e9a57600080fd5b8101908080519060200190929190505050600360009054906101000a900473ffffffffffffffffffffffffffffffffffffffff1673ffffffffffffffffffffffffffffffffffffffff1663b0d8e181836040518263ffffffff1660e01b8152600401808273ffffffffffffffffffffffffffffffffffffffff1673ffffffffffffffffffffffffffffffffffffffff16815260200191505060206040518083038186803b158015611f4a57600080fd5b505afa158015611f5e573d6000803e3d6000fd5b505050506040513d6020811015611f7457600080fd5b81019080805190602001909291905050501115611f9657600092505050612081565b809150600c60009054906101000a900473ffffffffffffffffffffffffffffffffffffffff1673ffffffffffffffffffffffffffffffffffffffff1663765e0159836040518263ffffffff1660e01b8152600401808273ffffffffffffffffffffffffffffffffffffffff1673ffffffffffffffffffffffffffffffffffffffff16815260200191505060206040518083038186803b15801561203857600080fd5b505afa15801561204c573d6000803e3d6000fd5b505050506040513d602081101561206257600080fd5b81019080805190602001909291905050509050611d62565b6001925050505b90565b60006064858161209057fe5b069050600d81606481106120a057fe5b0160009054906101000a900473ffffffffffffffffffffffffffffffffffffffff1673ffffffffffffffffffffffffffffffffffffffff166332e859b98585856040518463ffffffff1660e01b8152600401808481526020018373ffffffffffffffffffffffffffffffffffffffff1673ffffffffffffffffffffffffffffffffffffffff1681526020018273ffffffffffffffffffffffffffffffffffffffff1673ffffffffffffffffffffffffffffffffffffffff1681526020019350505050600060405180830381600087803b15801561217c57600080fd5b505af1158015612190573d6000803e3d6000fd5b505050505050505050565b600460009054906101000a900473ffffffffffffffffffffffffffffffffffffffff1681565b600080606486816121ce57fe5b069050600d81606481106121de57fe5b0160009054906101000a900473ffffffffffffffffffffffffffffffffffffffff1673ffffffffffffffffffffffffffffffffffffffff1663d94bcec28686866040518463ffffffff1660e01b8152600401808473ffffffffffffffffffffffffffffffffffffffff1673ffffffffffffffffffffffffffffffffffffffff1681526020018373ffffffffffffffffffffffffffffffffffffffff1673ffffffffffffffffffffffffffffffffffffffff1681526020018281526020019350505050602060405180830381600087803b1580156122ba57600080fd5b505af11580156122ce573d6000803e3d6000fd5b505050506040513d60208110156122e457600080fd5b81019080805190602001909291905050505050949350505050565b60006064878161230b57fe5b069050600d816064811061231b57fe5b0160009054906101000a900473ffffffffffffffffffffffffffffffffffffffff1673ffffffffffffffffffffffffffffffffffffffff166335b1017987878787876000806040518863ffffffff1660e01b8152600401808881526020018773ffffffffffffffffffffffffffffffffffffffff1673ffffffffffffffffffffffffffffffffffffffff1681526020018673ffffffffffffffffffffffffffffffffffffffff1673ffffffffffffffffffffffffffffffffffffffff1681526020018573ffffffffffffffffffffffffffffffffffffffff1673ffffffffffffffffffffffffffffffffffffffff168152602001848152602001838152602001828152602001975050505050505050600060405180830381600087803b15801561244457600080fd5b505af1158015612458573d6000803e3d6000fd5b5050505050505050505050565b600560009054906101000a900473ffffffffffffffffffffffffffffffffffffffff1681565b6000806064858161249857fe5b069050600d81606481106124a857fe5b0160009054906101000a900473ffffffffffffffffffffffffffffffffffffffff1673ffffffffffffffffffffffffffffffffffffffff1663cc51a6c285856040518363ffffffff1660e01b8152600401808373ffffffffffffffffffffffffffffffffffffffff1673ffffffffffffffffffffffffffffffffffffffff16815260200182815260200192505050602060405180830381600087803b15801561255057600080fd5b505af1158015612564573d6000803e3d6000fd5b505050506040513d602081101561257a57600080fd5b810190808051906020019092919050505050509392505050565b600d81606481106125a157fe5b016000915054906101000a900473ffffffffffffffffffffffffffffffffffffffff1681565b600080600c60009054906101000a900473ffffffffffffffffffffffffffffffffffffffff1673ffffffffffffffffffffffffffffffffffffffff16631e2231436040518163ffffffff1660e01b815260040160206040518083038186803b15801561263257600080fd5b505afa158015612646573d6000803e3d6000fd5b505050506040513d602081101561265c57600080fd5b810190808051906020019092919050505090505b600073ffffffffffffffffffffffffffffffffffffffff168173ffffffffffffffffffffffffffffffffffffffff1614612a6a57600160048111156126b157fe5b600360009054906101000a900473ffffffffffffffffffffffffffffffffffffffff1673ffffffffffffffffffffffffffffffffffffffff166321e37801836040518263ffffffff1660e01b8152600401808273ffffffffffffffffffffffffffffffffffffffff1673ffffffffffffffffffffffffffffffffffffffff16815260200191505060206040518083038186803b15801561275057600080fd5b505afa158015612764573d6000803e3d6000fd5b505050506040513d602081101561277a57600080fd5b8101908080519060200190929190505050600481111561279657fe5b60048111156127a157fe5b146127b0576000915050612a70565b600254600360009054906101000a900473ffffffffffffffffffffffffffffffffffffffff1673ffffffffffffffffffffffffffffffffffffffff1663d66a2553836040518263ffffffff1660e01b8152600401808273ffffffffffffffffffffffffffffffffffffffff1673ffffffffffffffffffffffffffffffffffffffff16815260200191505060206040518083038186803b15801561285257600080fd5b505afa158015612866573d6000803e3d6000fd5b505050506040513d602081101561287c57600080fd5b8101908080519060200190929190505050101561289d576000915050612a70565b6000600360009054906101000a900473ffffffffffffffffffffffffffffffffffffffff1673ffffffffffffffffffffffffffffffffffffffff166364cee260836040518263ffffffff1660e01b8152600401808273ffffffffffffffffffffffffffffffffffffffff1673ffffffffffffffffffffffffffffffffffffffff16815260200191505060206040518083038186803b15801561293e57600080fd5b505afa158015612952573d6000803e3d6000fd5b505050506040513d602081101561296857600080fd5b81019080805190602001909291905050501415612989576000915050612a70565b600c60009054906101000a900473ffffffffffffffffffffffffffffffffffffffff1673ffffffffffffffffffffffffffffffffffffffff1663765e0159826040518263ffffffff1660e01b8152600401808273ffffffffffffffffffffffffffffffffffffffff1673ffffffffffffffffffffffffffffffffffffffff16815260200191505060206040518083038186803b158015612a2857600080fd5b505afa158015612a3c573d6000803e3d6000fd5b505050506040513d6020811015612a5257600080fd5b81019080805190602001909291905050509050612670565b60019150505b90565b60008060648581612a8057fe5b069050600d8160648110612a9057fe5b0160009054906101000a900473ffffffffffffffffffffffffffffffffffffffff1673ffffffffffffffffffffffffffffffffffffffff1663390b5f2785856040518363ffffffff1660e01b8152600401808373ffffffffffffffffffffffffffffffffffffffff1673ffffffffffffffffffffffffffffffffffffffff16815260200182815260200192505050602060405180830381600087803b158015612b3857600080fd5b505af1158015612b4c573d6000803e3d6000fd5b505050506040513d6020811015612b6257600080fd5b810190808051906020019092919050505050509392505050565b600060648681612b8857fe5b069050600d8160648110612b9857fe5b0160009054906101000a900473ffffffffffffffffffffffffffffffffffffffff1673ffffffffffffffffffffffffffffffffffffffff1663fb8d67fc868686866040518563ffffffff1660e01b8152600401808581526020018473ffffffffffffffffffffffffffffffffffffffff1673ffffffffffffffffffffffffffffffffffffffff1681526020018373ffffffffffffffffffffffffffffffffffffffff1673ffffffffffffffffffffffffffffffffffffffff168152602001828152602001945050505050600060405180830381600087803b158015612c7c57600080fd5b505af1158015612c90573d6000803e3d6000fd5b50505050505050505050565b600080600560009054906101000a900473ffffffffffffffffffffffffffffffffffffffff1673ffffffffffffffffffffffffffffffffffffffff16311115612ce85760009050612ced565b600190505b90565b600060146071541115612d065760009050612d0b565b600190505b90565b600060648581612d1a57fe5b069050600d8160648110612d2a57fe5b0160009054906101000a900473ffffffffffffffffffffffffffffffffffffffff1673ffffffffffffffffffffffffffffffffffffffff16637bbb0f5e8585856040518463ffffffff1660e01b8152600401808481526020018373ffffffffffffffffffffffffffffffffffffffff1673ffffffffffffffffffffffffffffffffffffffff1681526020018273ffffffffffffffffffffffffffffffffffffffff1673ffffffffffffffffffffffffffffffffffffffff1681526020019350505050600060405180830381600087803b158015612e0657600080fd5b505af1158015612e1a573d6000803e3d6000fd5b505050505050505050565b600a60009054906101000a900473ffffffffffffffffffffffffffffffffffffffff1681565b600060648381612e5757fe5b069050600d8160648110612e6757fe5b0160009054906101000a900473ffffffffffffffffffffffffffffffffffffffff1673ffffffffffffffffffffffffffffffffffffffff1663f47a1ea7836040518263ffffffff1660e01b815260040180828152602001915050600060405180830381600087803b158015612edb57600080fd5b505af1158015612eef573d6000803e3d6000fd5b50505050505050565b600060648481612f0457fe5b069050600d8160648110612f1457fe5b0160009054906101000a900473ffffffffffffffffffffffffffffffffffffffff1673ffffffffffffffffffffffffffffffffffffffff16634afbac5184846040518363ffffffff1660e01b815260040180806020018281038252848482818152602001925060200280828437600081840152601f19601f8201169050808301925050509350505050600060405180830381600087803b158015612fb757600080fd5b505af1158015612fcb573d6000803e3d6000fd5b5050505050505050565b600080600a60009054906101000a900473ffffffffffffffffffffffffffffffffffffffff1673ffffffffffffffffffffffffffffffffffffffff166318160ddd6040518163ffffffff1660e01b815260040160206040518083038186803b15801561304057600080fd5b505afa158015613054573d6000803e3d6000fd5b505050506040513d602081101561306a57600080fd5b810190808051906020019092919050505090506000600a60009054906101000a900473ffffffffffffffffffffffffffffffffffffffff1673ffffffffffffffffffffffffffffffffffffffff166370a08231600860009054906101000a900473ffffffffffffffffffffffffffffffffffffffff166040518263ffffffff1660e01b8152600401808273ffffffffffffffffffffffffffffffffffffffff1673ffffffffffffffffffffffffffffffffffffffff16815260200191505060206040518083038186803b15801561314057600080fd5b505afa158015613154573d6000803e3d6000fd5b505050506040513d602081101561316a57600080fd5b810190808051906020019092919050505090506000600560009054906101000a900473ffffffffffffffffffffffffffffffffffffffff1673ffffffffffffffffffffffffffffffffffffffff16635eb52fca6040518163ffffffff1660e01b815260040160206040518083038186803b1580156131e757600080fd5b505afa1580156131fb573d6000803e3d6000fd5b505050506040513d602081101561321157600080fd5b810190808051906020019092919050505090506000600660009054906101000a900473ffffffffffffffffffffffffffffffffffffffff1673ffffffffffffffffffffffffffffffffffffffff16635eb52fca6040518163ffffffff1660e01b815260040160206040518083038186803b15801561328e57600080fd5b505afa1580156132a2573d6000803e3d6000fd5b505050506040513d60208110156132b857600080fd5b8101908080519060200190929190505050905080820184146132e157600094505050505061364c565b6000600760009054906101000a900473ffffffffffffffffffffffffffffffffffffffff1673ffffffffffffffffffffffffffffffffffffffff16639bf2f1ac6040518163ffffffff1660e01b815260040160206040518083038186803b15801561334b57600080fd5b505afa15801561335f573d6000803e3d6000fd5b505050506040513d602081101561337557600080fd5b810190808051906020019092919050505090506000600c60009054906101000a900473ffffffffffffffffffffffffffffffffffffffff1673ffffffffffffffffffffffffffffffffffffffff16631e2231436040518163ffffffff1660e01b815260040160206040518083038186803b1580156133f257600080fd5b505afa158015613406573d6000803e3d6000fd5b505050506040513d602081101561341c57600080fd5b8101908080519060200190929190505050905060005b600073ffffffffffffffffffffffffffffffffffffffff168273ffffffffffffffffffffffffffffffffffffffff161461362557600a60009054906101000a900473ffffffffffffffffffffffffffffffffffffffff1673ffffffffffffffffffffffffffffffffffffffff166370a08231836040518263ffffffff1660e01b8152600401808273ffffffffffffffffffffffffffffffffffffffff1673ffffffffffffffffffffffffffffffffffffffff16815260200191505060206040518083038186803b15801561350557600080fd5b505afa158015613519573d6000803e3d6000fd5b505050506040513d602081101561352f57600080fd5b810190808051906020019092919050505081019050600c60009054906101000a900473ffffffffffffffffffffffffffffffffffffffff1673ffffffffffffffffffffffffffffffffffffffff1663765e0159836040518263ffffffff1660e01b8152600401808273ffffffffffffffffffffffffffffffffffffffff1673ffffffffffffffffffffffffffffffffffffffff16815260200191505060206040518083038186803b1580156135e357600080fd5b505afa1580156135f7573d6000803e3d6000fd5b505050506040513d602081101561360d57600080fd5b81019080805190602001909291905050509150613432565b8581840101871161364057600097505050505050505061364c565b60019750505050505050505b90565b600960009054906101000a900473ffffffffffffffffffffffffffffffffffffffff1681565b60006064848161368157fe5b0690506000600d826064811061369357fe5b0160009054906101000a900473ffffffffffffffffffffffffffffffffffffffff16905060008173ffffffffffffffffffffffffffffffffffffffff1631905060006136e28287600154613ed6565b905060006136f38287600154613fe1565b90508373ffffffffffffffffffffffffffffffffffffffff166391134731838360008060006040518663ffffffff1660e01b8152600401808681526020018581526020018473ffffffffffffffffffffffffffffffffffffffff1673ffffffffffffffffffffffffffffffffffffffff1681526020018373ffffffffffffffffffffffffffffffffffffffff1673ffffffffffffffffffffffffffffffffffffffff16815260200182815260200195505050505050600060405180830381600087803b1580156137c257600080fd5b505af11580156137d6573d6000803e3d6000fd5b50505050600360009054906101000a900473ffffffffffffffffffffffffffffffffffffffff1673ffffffffffffffffffffffffffffffffffffffff166349eefeee6040518163ffffffff1660e01b815260040160206040518083038186803b15801561384257600080fd5b505afa158015613856573d6000803e3d6000fd5b505050506040513d602081101561386c57600080fd5b810190808051906020019092919050505060718190555060006071541161388f57fe5b5050505050505050565b6000606483816138a557fe5b069050600d81606481106138b557fe5b0160009054906101000a900473ffffffffffffffffffffffffffffffffffffffff1673ffffffffffffffffffffffffffffffffffffffff1663641b09b6836040518263ffffffff1660e01b815260040180828152602001915050600060405180830381600087803b15801561392957600080fd5b505af115801561393d573d6000803e3d6000fd5b50505050505050565b60006064878161395257fe5b069050600d816064811061396257fe5b0160009054906101000a900473ffffffffffffffffffffffffffffffffffffffff1673ffffffffffffffffffffffffffffffffffffffff16639113473187878787876040518663ffffffff1660e01b8152600401808681526020018581526020018473ffffffffffffffffffffffffffffffffffffffff1673ffffffffffffffffffffffffffffffffffffffff1681526020018373ffffffffffffffffffffffffffffffffffffffff1673ffffffffffffffffffffffffffffffffffffffff16815260200182815260200195505050505050600060405180830381600087803b158015613a4e57600080fd5b505af1158015613a62573d6000803e3d6000fd5b5050505050505050505050565b600080600360009054906101000a900473ffffffffffffffffffffffffffffffffffffffff1673ffffffffffffffffffffffffffffffffffffffff16311115613abb5760009050613ead565b6000600460009054906101000a900473ffffffffffffffffffffffffffffffffffffffff1673ffffffffffffffffffffffffffffffffffffffff16311115613b065760009050613ead565b600560009054906101000a900473ffffffffffffffffffffffffffffffffffffffff1673ffffffffffffffffffffffffffffffffffffffff166314f6c3be6040518163ffffffff1660e01b815260040160206040518083038186803b158015613b6e57600080fd5b505afa158015613b82573d6000803e3d6000fd5b505050506040513d6020811015613b9857600080fd5b8101908080519060200190929190505050600560009054906101000a900473ffffffffffffffffffffffffffffffffffffffff1673ffffffffffffffffffffffffffffffffffffffff163114613bf15760009050613ead565b600660009054906101000a900473ffffffffffffffffffffffffffffffffffffffff1673ffffffffffffffffffffffffffffffffffffffff166314f6c3be6040518163ffffffff1660e01b815260040160206040518083038186803b158015613c5957600080fd5b505afa158015613c6d573d6000803e3d6000fd5b505050506040513d6020811015613c8357600080fd5b8101908080519060200190929190505050600660009054906101000a900473ffffffffffffffffffffffffffffffffffffffff1673ffffffffffffffffffffffffffffffffffffffff163114613cdc5760009050613ead565b600760009054906101000a900473ffffffffffffffffffffffffffffffffffffffff1673ffffffffffffffffffffffffffffffffffffffff166314f6c3be6040518163ffffffff1660e01b815260040160206040518083038186803b158015613d4457600080fd5b505afa158015613d58573d6000803e3d6000fd5b505050506040513d6020811015613d6e57600080fd5b8101908080519060200190929190505050600760009054906101000a900473ffffffffffffffffffffffffffffffffffffffff1673ffffffffffffffffffffffffffffffffffffffff163114613dc75760009050613ead565b6000600a60009054906101000a900473ffffffffffffffffffffffffffffffffffffffff1673ffffffffffffffffffffffffffffffffffffffff16311115613e125760009050613ead565b6000600b60009054906101000a900473ffffffffffffffffffffffffffffffffffffffff1673ffffffffffffffffffffffffffffffffffffffff16311115613e5d5760009050613ead565b6000600c60009054906101000a900473ffffffffffffffffffffffffffffffffffffffff1673ffffffffffffffffffffffffffffffffffffffff16311115613ea85760009050613ead565b600190505b90565b600860009054906101000a900473ffffffffffffffffffffffffffffffffffffffff1681565b600080600b60009054906101000a900473ffffffffffffffffffffffffffffffffffffffff1673ffffffffffffffffffffffffffffffffffffffff166398d5fdca6040518163ffffffff1660e01b815260040160206040518083038186803b158015613f4157600080fd5b505afa158015613f55573d6000803e3d6000fd5b505050506040513d6020811015613f6b57600080fd5b8101908080519060200190929190505050905060008111613f8b57600080fd5b6000613fb482613fa66002548761410b90919063ffffffff16565b61419190919063ffffffff16565b9050808611613fc257600080fd5b60008187038681613fcf57fe5b06820190508093505050509392505050565b600080600b60009054906101000a900473ffffffffffffffffffffffffffffffffffffffff1673ffffffffffffffffffffffffffffffffffffffff166398d5fdca6040518163ffffffff1660e01b815260040160206040518083038186803b15801561404c57600080fd5b505afa158015614060573d6000803e3d6000fd5b505050506040513d602081101561407657600080fd5b81019080805190602001909291905050509050600084905060006140a5600254836141db90919063ffffffff16565b905060006140b4888386614263565b9050858110156140fd576140e3866140d5868b61410b90919063ffffffff16565b61419190919063ffffffff16565b91506140fa600254836142ca90919063ffffffff16565b92505b829450505050509392505050565b60008083141561411e576000905061418b565b600082840290508284828161412f57fe5b0414614186576040517f08c379a000000000000000000000000000000000000000000000000000000000815260040180806020018281038252602181526020018061449b6021913960400191505060405180910390fd5b809150505b92915050565b60006141d383836040518060400160405280601a81526020017f536166654d6174683a206469766973696f6e206279207a65726f000000000000815250614314565b905092915050565b600080828401905083811015614259576040517f08c379a000000000000000000000000000000000000000000000000000000000815260040180806020018281038252601b8152602001807f536166654d6174683a206164646974696f6e206f766572666c6f77000000000081525060200191505060405180910390fd5b8091505092915050565b60008083111561429f57600061429484614286858861410b90919063ffffffff16565b61419190919063ffffffff16565b9050809150506142c3565b7fffffffffffffffffffffffffffffffffffffffffffffffffffffffffffffffff90505b9392505050565b600061430c83836040518060400160405280601e81526020017f536166654d6174683a207375627472616374696f6e206f766572666c6f7700008152506143da565b905092915050565b600080831182906143c0576040517f08c379a00000000000000000000000000000000000000000000000000000000081526004018080602001828103825283818151815260200191508051906020019080838360005b8381101561438557808201518184015260208101905061436a565b50505050905090810190601f1680156143b25780820380516001836020036101000a031916815260200191505b509250505060405180910390fd5b5060008385816143cc57fe5b049050809150509392505050565b6000838311158290614487576040517f08c379a00000000000000000000000000000000000000000000000000000000081526004018080602001828103825283818151815260200191508051906020019080838360005b8381101561444c578082015181840152602081019050614431565b50505050905090810190601f1680156144795780820380516001836020036101000a031916815260200191505b509250505060405180910390fd5b506000838503905080915050939250505056fe536166654d6174683a206d756c7469706c69636174696f6e206f766572666c6f77a264697066735822122079d28766fcb39932d55de945bb94bf33a23d7d32a21b75a65492c556699dee1a64736f6c634300060b003360806040523480156200001157600080fd5b5033600360006101000a81548173ffffffffffffffffffffffffffffffffffffffff021916908373ffffffffffffffffffffffffffffffffffffffff1602179055503373ffffffffffffffffffffffffffffffffffffffff16600073ffffffffffffffffffffffffffffffffffffffff167f8be0079c531659141344cd1fd0a4f28419497f9722a3daafe3b4186f6b6457e060405160405180910390a36194d780620000be6000396000f3fe608060405234801561001057600080fd5b506004361061046a5760003560e01c8063795d26c31161024c578063b83f91a211610146578063d3d6f843116100c3578063e2ac77b011610087578063e2ac77b014611805578063f34862de14611861578063f36b2425146118b9578063f92d3433146118d7578063fe2ba848146118f55761046a565b8063d3d6f8431461167d578063d5b35635146116df578063d66a255314611721578063d9a7244414611779578063dba1c5f2146117e75761046a565b8063c52861f21161010a578063c52861f21461157d578063c7b554811461159b578063cbd138ae146115b9578063d293c710146115fd578063d380a37c1461165f5761046a565b8063b83f91a2146113de578063b91af97c14611428578063bcd3752614611495578063bf9befb114611541578063c35bc5501461155f5761046a565b806396d711ff116101d4578063a3f4df7e11610198578063a3f4df7e1461122d578063ae918754146112b0578063b0d8e181146112fa578063b7f8cf9b14611352578063b82f263d1461139c5761046a565b806396d711ff146111275780639976cf45146111455780639dd233d2146111a7578063a20baee6146111c5578063a3a64017146111e35761046a565b8063807d138d1161021b578063807d138d1461103b57806382fe3eb914611059578063887105d31461109d5780638da5cb5b146110bb5780638f32d59b146111055761046a565b8063795d26c314610e30578063797250e314610e4e5780637985c5e414610e6c5780637f7dde4a14610ff15761046a565b8063477d66cf11610368578063631203b0116102e557806372423c17116102a957806372423c1714610cda57806372fe25aa14610d3c578063741bef1a14610d5a578063756b253e14610da4578063794e572414610e125761046a565b8063631203b014610b4e57806364cee26014610b90578063653d46e714610be857806366ca4a2114610c165780636ef6433814610c345761046a565b80635733d58f1161032c5780635733d58f14610a625780635d6b480f14610a805780635d8c960914610ace5780635dba4c4a14610b2657806361ec893d14610b305761046a565b8063477d66cf14610946578063480cd578146109885780634870dd9a146109e057806349eefeee146109fe5780634e443d9e14610a1c5761046a565b80631e8b1c2b116103f657806328d28b5b116103ba57806328d28b5b1461085e5780632b11551a1461087c5780632e86bbd81461089a5780632f865568146108b85780633cc74225146108fc5761046a565b80631e8b1c2b146106c85780631f68f20a146107805780631f7af3c31461079e57806321e37801146107e857806324092669146108405761046a565b806312610e921161043d57806312610e921461053957806315d549f11461059b5780631673c79a146105f357806318f2817a146106525780631bf43555146106aa5761046a565b8063048c661d1461046f578063060d49a3146104b9578063071a7541146104d75780630b076557146104f5575b600080fd5b610477611939565b604051808273ffffffffffffffffffffffffffffffffffffffff1673ffffffffffffffffffffffffffffffffffffffff16815260200191505060405180910390f35b6104c161195f565b6040518082815260200191505060405180910390f35b6104df611965565b6040518082815260200191505060405180910390f35b6105376004803603602081101561050b57600080fd5b81019080803573ffffffffffffffffffffffffffffffffffffffff16906020019092919050505061196a565b005b6105856004803603604081101561054f57600080fd5b81019080803573ffffffffffffffffffffffffffffffffffffffff169060200190929190803590602001909291905050506119c3565b6040518082815260200191505060405180910390f35b6105dd600480360360208110156105b157600080fd5b81019080803573ffffffffffffffffffffffffffffffffffffffff169060200190929190505050611a77565b6040518082815260200191505060405180910390f35b6106356004803603602081101561060957600080fd5b81019080803573ffffffffffffffffffffffffffffffffffffffff169060200190929190505050611aa3565b604051808381526020018281526020019250505060405180910390f35b6106946004803603602081101561066857600080fd5b81019080803573ffffffffffffffffffffffffffffffffffffffff169060200190929190505050611ac7565b6040518082815260200191505060405180910390f35b6106b2611ae1565b6040518082815260200191505060405180910390f35b61077e600480360360208110156106de57600080fd5b81019080803590602001906401000000008111156106fb57600080fd5b82018360208201111561070d57600080fd5b8035906020019184602083028401116401000000008311171561072f57600080fd5b919080806020026020016040519081016040528093929190818152602001838360200280828437600081840152601f19601f820116905080830192505050505050509192919290505050611aee565b005b610788611ff2565b6040518082815260200191505060405180910390f35b6107a6611ff8565b604051808273ffffffffffffffffffffffffffffffffffffffff1673ffffffffffffffffffffffffffffffffffffffff16815260200191505060405180910390f35b61082a600480360360208110156107fe57600080fd5b81019080803573ffffffffffffffffffffffffffffffffffffffff16906020019092919050505061201e565b6040518082815260200191505060405180910390f35b610848612082565b6040518082815260200191505060405180910390f35b61086661209b565b6040518082815260200191505060405180910390f35b6108846120b5565b6040518082815260200191505060405180910390f35b6108a26120c7565b6040518082815260200191505060405180910390f35b6108fa600480360360208110156108ce57600080fd5b81019080803573ffffffffffffffffffffffffffffffffffffffff1690602001909291905050506120d4565b005b61090461217e565b604051808273ffffffffffffffffffffffffffffffffffffffff1673ffffffffffffffffffffffffffffffffffffffff16815260200191505060405180910390f35b6109726004803603602081101561095c57600080fd5b81019080803590602001909291905050506121a4565b6040518082815260200191505060405180910390f35b6109ca6004803603602081101561099e57600080fd5b81019080803573ffffffffffffffffffffffffffffffffffffffff1690602001909291905050506121be565b6040518082815260200191505060405180910390f35b6109e861220a565b6040518082815260200191505060405180910390f35b610a0661220f565b6040518082815260200191505060405180910390f35b610a4860048036036020811015610a3257600080fd5b810190808035906020019092919050505061221c565b604051808215151515815260200191505060405180910390f35b610a6a61222e565b6040518082815260200191505060405180910390f35b610acc60048036036040811015610a9657600080fd5b81019080803573ffffffffffffffffffffffffffffffffffffffff1690602001909291908035906020019092919050505061223a565b005b610b1060048036036020811015610ae457600080fd5b81019080803573ffffffffffffffffffffffffffffffffffffffff1690602001909291905050506122b4565b6040518082815260200191505060405180910390f35b610b2e61241f565b005b610b3861248e565b6040518082815260200191505060405180910390f35b610b7a60048036036020811015610b6457600080fd5b8101908080359060200190929190505050612493565b6040518082815260200191505060405180910390f35b610bd260048036036020811015610ba657600080fd5b81019080803573ffffffffffffffffffffffffffffffffffffffff1690602001909291905050506124ad565b6040518082815260200191505060405180910390f35b610c1460048036036020811015610bfe57600080fd5b81019080803590602001909291905050506124f9565b005b610c1e612aaf565b6040518082815260200191505060405180910390f35b610c7660048036036020811015610c4a57600080fd5b81019080803573ffffffffffffffffffffffffffffffffffffffff169060200190929190505050612ac6565b60405180868152602001858152602001848152602001836004811115610c9857fe5b60ff168152602001826fffffffffffffffffffffffffffffffff166fffffffffffffffffffffffffffffffff1681526020019550505050505060405180910390f35b610d2660048036036040811015610cf057600080fd5b81019080803573ffffffffffffffffffffffffffffffffffffffff16906020019092919080359060200190929190505050612b25565b6040518082815260200191505060405180910390f35b610d44612bd9565b6040518082815260200191505060405180910390f35b610d62612be5565b604051808273ffffffffffffffffffffffffffffffffffffffff1673ffffffffffffffffffffffffffffffffffffffff16815260200191505060405180910390f35b610dd060048036036020811015610dba57600080fd5b8101908080359060200190929190505050612c0b565b604051808273ffffffffffffffffffffffffffffffffffffffff1673ffffffffffffffffffffffffffffffffffffffff16815260200191505060405180910390f35b610e1a612c47565b6040518082815260200191505060405180910390f35b610e38612c53565b6040518082815260200191505060405180910390f35b610e56612dbb565b6040518082815260200191505060405180910390f35b610fef6004803603610160811015610e8357600080fd5b81019080803573ffffffffffffffffffffffffffffffffffffffff169060200190929190803573ffffffffffffffffffffffffffffffffffffffff169060200190929190803573ffffffffffffffffffffffffffffffffffffffff169060200190929190803573ffffffffffffffffffffffffffffffffffffffff169060200190929190803573ffffffffffffffffffffffffffffffffffffffff169060200190929190803573ffffffffffffffffffffffffffffffffffffffff169060200190929190803573ffffffffffffffffffffffffffffffffffffffff169060200190929190803573ffffffffffffffffffffffffffffffffffffffff169060200190929190803573ffffffffffffffffffffffffffffffffffffffff169060200190929190803573ffffffffffffffffffffffffffffffffffffffff169060200190929190803573ffffffffffffffffffffffffffffffffffffffff169060200190929190505050612dc1565b005b610ff96135be565b604051808273ffffffffffffffffffffffffffffffffffffffff1673ffffffffffffffffffffffffffffffffffffffff16815260200191505060405180910390f35b6110436135e3565b6040518082815260200191505060405180910390f35b61109b6004803603602081101561106f57600080fd5b81019080803573ffffffffffffffffffffffffffffffffffffffff1690602001909291905050506135e9565b005b6110a56135fd565b6040518082815260200191505060405180910390f35b6110c3613765565b604051808273ffffffffffffffffffffffffffffffffffffffff1673ffffffffffffffffffffffffffffffffffffffff16815260200191505060405180910390f35b61110d61378f565b604051808215151515815260200191505060405180910390f35b61112f6137e7565b6040518082815260200191505060405180910390f35b6111916004803603604081101561115b57600080fd5b81019080803573ffffffffffffffffffffffffffffffffffffffff169060200190929190803590602001909291905050506137ed565b6040518082815260200191505060405180910390f35b6111af6138a1565b6040518082815260200191505060405180910390f35b6111cd6138a7565b6040518082815260200191505060405180910390f35b6111eb6138b3565b604051808273ffffffffffffffffffffffffffffffffffffffff1673ffffffffffffffffffffffffffffffffffffffff16815260200191505060405180910390f35b6112356138d9565b6040518080602001828103825283818151815260200191508051906020019080838360005b8381101561127557808201518184015260208101905061125a565b50505050905090810190601f1680156112a25780820380516001836020036101000a031916815260200191505b509250505060405180910390f35b6112b8613912565b604051808273ffffffffffffffffffffffffffffffffffffffff1673ffffffffffffffffffffffffffffffffffffffff16815260200191505060405180910390f35b61133c6004803603602081101561131057600080fd5b81019080803573ffffffffffffffffffffffffffffffffffffffff169060200190929190505050613938565b6040518082815260200191505060405180910390f35b61135a613963565b604051808273ffffffffffffffffffffffffffffffffffffffff1673ffffffffffffffffffffffffffffffffffffffff16815260200191505060405180910390f35b6113c8600480360360208110156113b257600080fd5b8101908080359060200190929190505050613989565b6040518082815260200191505060405180910390f35b6113e661399b565b604051808273ffffffffffffffffffffffffffffffffffffffff1673ffffffffffffffffffffffffffffffffffffffff16815260200191505060405180910390f35b61146a6004803603602081101561143e57600080fd5b81019080803573ffffffffffffffffffffffffffffffffffffffff1690602001909291905050506139c1565b6040518085815260200184815260200183815260200182815260200194505050505060405180910390f35b61153f600480360360e08110156114ab57600080fd5b8101908080359060200190929190803573ffffffffffffffffffffffffffffffffffffffff169060200190929190803573ffffffffffffffffffffffffffffffffffffffff169060200190929190803573ffffffffffffffffffffffffffffffffffffffff169060200190929190803590602001909291908035906020019092919080359060200190929190505050613a98565b005b6115496145fc565b6040518082815260200191505060405180910390f35b611567614602565b6040518082815260200191505060405180910390f35b611585614609565b6040518082815260200191505060405180910390f35b6115a3614620565b6040518082815260200191505060405180910390f35b6115fb600480360360208110156115cf57600080fd5b81019080803573ffffffffffffffffffffffffffffffffffffffff16906020019092919050505061462c565b005b6116496004803603604081101561161357600080fd5b81019080803573ffffffffffffffffffffffffffffffffffffffff16906020019092919080359060200190929190505050614642565b6040518082815260200191505060405180910390f35b61166761466f565b6040518082815260200191505060405180910390f35b6116c96004803603604081101561169357600080fd5b81019080803573ffffffffffffffffffffffffffffffffffffffff16906020019092919080359060200190929190505050614675565b6040518082815260200191505060405180910390f35b61170b600480360360208110156116f557600080fd5b8101908080359060200190929190505050614729565b6040518082815260200191505060405180910390f35b6117636004803603602081101561173757600080fd5b81019080803573ffffffffffffffffffffffffffffffffffffffff169060200190929190505050614743565b6040518082815260200191505060405180910390f35b6117a56004803603602081101561178f57600080fd5b810190808035906020019092919050505061478f565b604051808273ffffffffffffffffffffffffffffffffffffffff1673ffffffffffffffffffffffffffffffffffffffff16815260200191505060405180910390f35b6117ef6147d0565b6040518082815260200191505060405180910390f35b6118476004803603602081101561181b57600080fd5b81019080803573ffffffffffffffffffffffffffffffffffffffff1690602001909291905050506147d6565b604051808215151515815260200191505060405180910390f35b6118a36004803603602081101561187757600080fd5b81019080803573ffffffffffffffffffffffffffffffffffffffff16906020019092919050505061489d565b6040518082815260200191505060405180910390f35b6118c1614a08565b6040518082815260200191505060405180910390f35b6118df614a1a565b6040518082815260200191505060405180910390f35b6119376004803603602081101561190b57600080fd5b81019080803573ffffffffffffffffffffffffffffffffffffffff169060200190929190505050614a34565b005b600560009054906101000a900473ffffffffffffffffffffffffffffffffffffffff1681565b60175481565b600281565b611972614a48565b6119c06000809054906101000a900473ffffffffffffffffffffffffffffffffffffffff16600160009054906101000a900473ffffffffffffffffffffffffffffffffffffffff1683614af0565b50565b60006119cd614a48565b6000611a2483600e60008773ffffffffffffffffffffffffffffffffffffffff1673ffffffffffffffffffffffffffffffffffffffff16815260200190815260200160002060000154614daf90919063ffffffff16565b905080600e60008673ffffffffffffffffffffffffffffffffffffffff1673ffffffffffffffffffffffffffffffffffffffff168152602001908152602001600020600001819055508091505092915050565b6000611a81614a48565b611a8a82614df9565b6fffffffffffffffffffffffffffffffff169050919050565b60146020528060005260406000206000915090508060000154908060010154905082565b6000611ad1614a48565b611ada82614efa565b9050919050565b686194049f30f720000081565b600081511415611b49576040517f08c379a000000000000000000000000000000000000000000000000000000000815260040180806020018281038252603681526020018061935d6036913960400191505060405180910390fd5b60008060009054906101000a900473ffffffffffffffffffffffffffffffffffffffff1690506000600160009054906101000a900473ffffffffffffffffffffffffffffffffffffffff1690506000600560009054906101000a900473ffffffffffffffffffffffffffffffffffffffff169050611bc5618fa1565b611bcd618fd2565b600260009054906101000a900473ffffffffffffffffffffffffffffffffffffffff1673ffffffffffffffffffffffffffffffffffffffff16630fdb11cf6040518163ffffffff1660e01b8152600401602060405180830381600087803b158015611c3757600080fd5b505af1158015611c4b573d6000803e3d6000fd5b505050506040513d6020811015611c6157600080fd5b81019080805190602001909291905050508260000181815250508273ffffffffffffffffffffffffffffffffffffffff16639bf2f1ac6040518163ffffffff1660e01b815260040160206040518083038186803b158015611cc157600080fd5b505afa158015611cd5573d6000803e3d6000fd5b505050506040513d6020811015611ceb57600080fd5b8101908080519060200190929190505050826020018181525050611d128260000151615048565b826040019015159081151581525050816040015115611d4757611d408585846000015185602001518a615069565b9050611d5f565b611d5c8585846000015185602001518a61534e565b90505b6000816020015111611dbc576040517f08c379a00000000000000000000000000000000000000000000000000000000081526004018080602001828103825260228152602001806194516022913960400191505060405180910390fd5b8273ffffffffffffffffffffffffffffffffffffffff1663335525ad82608001518360a001516040518363ffffffff1660e01b81526004018083815260200182815260200192505050600060405180830381600087803b158015611e1f57600080fd5b505af1158015611e33573d6000803e3d6000fd5b50505050611e4b85858360c001518460e0015161546a565b60008161010001511115611f20578473ffffffffffffffffffffffffffffffffffffffff166364a197f3600760009054906101000a900473ffffffffffffffffffffffffffffffffffffffff168361010001516040518363ffffffff1660e01b8152600401808373ffffffffffffffffffffffffffffffffffffffff1673ffffffffffffffffffffffffffffffffffffffff16815260200182815260200192505050600060405180830381600087803b158015611f0757600080fd5b505af1158015611f1b573d6000803e3d6000fd5b505050505b611f2e858260400151615763565b8060200151826060018181525050611f6e816101000151611f6083604001518460000151614daf90919063ffffffff16565b614daf90919063ffffffff16565b8260800181815250507f4152c73dd2614c4f9fc35e8c9cf16013cd588c75b49a4c1673ecffdcbcda940382606001518360800151836040015184606001516040518085815260200184815260200183815260200182815260200194505050505060405180910390a1611fea85338360600151846040015161590c565b505050505050565b600c5481565b600960009054906101000a900473ffffffffffffffffffffffffffffffffffffffff1681565b6000600e60008373ffffffffffffffffffffffffffffffffffffffff1673ffffffffffffffffffffffffffffffffffffffff16815260200190815260200160002060030160009054906101000a900460ff16600481111561207b57fe5b9050919050565b60056064670de0b6b3a76400008161209657fe5b040281565b60056103e8670de0b6b3a7640000816120b057fe5b040281565b60006120c2600c54615adc565b905090565b680ad78ebc5ac620000081565b6120dd81615b1f565b6060600167ffffffffffffffff811180156120f757600080fd5b506040519080825280602002602001820160405280156121265781602001602082028036833780820191505090505b509050818160008151811061213757fe5b602002602001019073ffffffffffffffffffffffffffffffffffffffff16908173ffffffffffffffffffffffffffffffffffffffff168152505061217a81611aee565b5050565b600160009054906101000a900473ffffffffffffffffffffffffffffffffffffffff1681565b60006121b76121b1612aaf565b83615be0565b9050919050565b6000600e60008373ffffffffffffffffffffffffffffffffffffffff1673ffffffffffffffffffffffffffffffffffffffff168152602001908152602001600020600101549050919050565b60c881565b6000601580549050905090565b600061222782615048565b9050919050565b6714d1120d7b16000081565b612242614a48565b80600481111561224e57fe5b600e60008473ffffffffffffffffffffffffffffffffffffffff1673ffffffffffffffffffffffffffffffffffffffff16815260200190815260200160002060030160006101000a81548160ff021916908360048111156122ab57fe5b02179055505050565b600080601460008473ffffffffffffffffffffffffffffffffffffffff1673ffffffffffffffffffffffffffffffffffffffff168152602001908152602001600020600001549050600061231382601254614daf90919063ffffffff16565b9050600081148061238a57506001600481111561232c57fe5b600e60008673ffffffffffffffffffffffffffffffffffffffff1673ffffffffffffffffffffffffffffffffffffffff16815260200190815260200160002060030160009054906101000a900460ff16600481111561238757fe5b14155b1561239a5760009250505061241a565b6000600e60008673ffffffffffffffffffffffffffffffffffffffff1673ffffffffffffffffffffffffffffffffffffffff1681526020019081526020016000206002015490506000612410670de0b6b3a76400006124028585615c1790919063ffffffff16565b615c9d90919063ffffffff16565b9050809450505050505b919050565b612427614a48565b6000612431615ce7565b9050670de0b6b3a764000081111561244557fe5b80600c819055507fc454ee9b76c52f782a256af821b857ca6e125d1e3333bcede402fec2bed9600c816040518082815260200191505060405180910390a161248b615d40565b50565b603c81565b60006124a66124a0614a08565b83615be0565b9050919050565b6000600e60008373ffffffffffffffffffffffffffffffffffffffff1673ffffffffffffffffffffffffffffffffffffffff168152602001908152602001600020600201549050919050565b61250161901e565b6040518060e001604052806000809054906101000a900473ffffffffffffffffffffffffffffffffffffffff1673ffffffffffffffffffffffffffffffffffffffff168152602001600160009054906101000a900473ffffffffffffffffffffffffffffffffffffffff1673ffffffffffffffffffffffffffffffffffffffff168152602001600073ffffffffffffffffffffffffffffffffffffffff168152602001600073ffffffffffffffffffffffffffffffffffffffff168152602001600b60009054906101000a900473ffffffffffffffffffffffffffffffffffffffff1673ffffffffffffffffffffffffffffffffffffffff168152602001600073ffffffffffffffffffffffffffffffffffffffff168152602001600073ffffffffffffffffffffffffffffffffffffffff1681525090506000600560009054906101000a900473ffffffffffffffffffffffffffffffffffffffff169050612668618fa1565b612670618fd2565b600260009054906101000a900473ffffffffffffffffffffffffffffffffffffffff1673ffffffffffffffffffffffffffffffffffffffff16630fdb11cf6040518163ffffffff1660e01b8152600401602060405180830381600087803b1580156126da57600080fd5b505af11580156126ee573d6000803e3d6000fd5b505050506040513d602081101561270457600080fd5b81019080805190602001909291905050508260000181815250508273ffffffffffffffffffffffffffffffffffffffff16639bf2f1ac6040518163ffffffff1660e01b815260040160206040518083038186803b15801561276457600080fd5b505afa158015612778573d6000803e3d6000fd5b505050506040513d602081101561278e57600080fd5b81019080805190602001909291905050508260200181815250506127b58260000151615048565b8260400190151590811515815250508160400151156127e9576127e2848360000151846020015188615da3565b9050612809565b612806846000015185602001518460000151856020015189616268565b90505b6000816020015111612866576040517f08c379a00000000000000000000000000000000000000000000000000000000081526004018080602001828103825260228152602001806194516022913960400191505060405180910390fd5b8273ffffffffffffffffffffffffffffffffffffffff1663335525ad82608001518360a001516040518363ffffffff1660e01b81526004018083815260200182815260200192505050600060405180830381600087803b1580156128c957600080fd5b505af11580156128dd573d6000803e3d6000fd5b505050506128fd846000015185602001518360c001518460e0015161546a565b600081610100015111156129d657836000015173ffffffffffffffffffffffffffffffffffffffff166364a197f3600760009054906101000a900473ffffffffffffffffffffffffffffffffffffffff168361010001516040518363ffffffff1660e01b8152600401808373ffffffffffffffffffffffffffffffffffffffff1673ffffffffffffffffffffffffffffffffffffffff16815260200182815260200192505050600060405180830381600087803b1580156129bd57600080fd5b505af11580156129d1573d6000803e3d6000fd5b505050505b6129e884600001518260400151615763565b8060200151826060018181525050612a28816101000151612a1a83604001518460000151614daf90919063ffffffff16565b614daf90919063ffffffff16565b8260800181815250507f4152c73dd2614c4f9fc35e8c9cf16013cd588c75b49a4c1673ecffdcbcda940382606001518360800151836040015184606001516040518085815260200184815260200183815260200182815260200194505050505060405180910390a1612aa88460000151338360600151846040015161590c565b5050505050565b6000612ac1612abc615ce7565b61641d565b905090565b600e6020528060005260406000206000915090508060000154908060010154908060020154908060030160009054906101000a900460ff16908060030160019054906101000a90046fffffffffffffffffffffffffffffffff16905085565b6000612b2f614a48565b6000612b8683600e60008773ffffffffffffffffffffffffffffffffffffffff1673ffffffffffffffffffffffffffffffffffffffff1681526020019081526020016000206001015461646d90919063ffffffff16565b905080600e60008673ffffffffffffffffffffffffffffffffffffffff1673ffffffffffffffffffffffffffffffffffffffff168152602001908152602001600020600101819055508091505092915050565b670de0b6b3a764000081565b600260009054906101000a900473ffffffffffffffffffffffffffffffffffffffff1681565b60158181548110612c1857fe5b906000526020600020016000915054906101000a900473ffffffffffffffffffffffffffffffffffffffff1681565b670f43fc2c04ee000081565b6000806000809054906101000a900473ffffffffffffffffffffffffffffffffffffffff1673ffffffffffffffffffffffffffffffffffffffff16635eb52fca6040518163ffffffff1660e01b815260040160206040518083038186803b158015612cbd57600080fd5b505afa158015612cd1573d6000803e3d6000fd5b505050506040513d6020811015612ce757600080fd5b810190808051906020019092919050505090506000600160009054906101000a900473ffffffffffffffffffffffffffffffffffffffff1673ffffffffffffffffffffffffffffffffffffffff16635eb52fca6040518163ffffffff1660e01b815260040160206040518083038186803b158015612d6457600080fd5b505afa158015612d78573d6000803e3d6000fd5b505050506040513d6020811015612d8e57600080fd5b81019080805190602001909291905050509050612db4818361646d90919063ffffffff16565b9250505090565b60165481565b612dc961378f565b612e3b576040517f08c379a00000000000000000000000000000000000000000000000000000000081526004018080602001828103825260208152602001807f4f776e61626c653a2063616c6c6572206973206e6f7420746865206f776e657281525060200191505060405180910390fd5b612e448b6164f5565b612e4d8a6164f5565b612e56896164f5565b612e5f886164f5565b612e68876164f5565b612e71866164f5565b612e7a856164f5565b612e83846164f5565b612e8c836164f5565b612e95826164f5565b612e9e816164f5565b8a600460006101000a81548173ffffffffffffffffffffffffffffffffffffffff021916908373ffffffffffffffffffffffffffffffffffffffff160217905550896000806101000a81548173ffffffffffffffffffffffffffffffffffffffff021916908373ffffffffffffffffffffffffffffffffffffffff16021790555088600160006101000a81548173ffffffffffffffffffffffffffffffffffffffff021916908373ffffffffffffffffffffffffffffffffffffffff16021790555087600560006101000a81548173ffffffffffffffffffffffffffffffffffffffff021916908373ffffffffffffffffffffffffffffffffffffffff16021790555086600660006101000a81548173ffffffffffffffffffffffffffffffffffffffff021916908373ffffffffffffffffffffffffffffffffffffffff16021790555085600760006101000a81548173ffffffffffffffffffffffffffffffffffffffff021916908373ffffffffffffffffffffffffffffffffffffffff16021790555084600260006101000a81548173ffffffffffffffffffffffffffffffffffffffff021916908373ffffffffffffffffffffffffffffffffffffffff16021790555083600860006101000a81548173ffffffffffffffffffffffffffffffffffffffff021916908373ffffffffffffffffffffffffffffffffffffffff16021790555082600b60006101000a81548173ffffffffffffffffffffffffffffffffffffffff021916908373ffffffffffffffffffffffffffffffffffffffff16021790555081600960006101000a81548173ffffffffffffffffffffffffffffffffffffffff021916908373ffffffffffffffffffffffffffffffffffffffff16021790555080600a60006101000a81548173ffffffffffffffffffffffffffffffffffffffff021916908373ffffffffffffffffffffffffffffffffffffffff1602179055507f3ca631ffcd2a9b5d9ae18543fc82f58eb4ca33af9e6ab01b7a8e95331e6ed9858b604051808273ffffffffffffffffffffffffffffffffffffffff1673ffffffffffffffffffffffffffffffffffffffff16815260200191505060405180910390a17f78f058b189175430c48dc02699e3a0031ea4ff781536dc2fab847de4babdd8828a604051808273ffffffffffffffffffffffffffffffffffffffff1673ffffffffffffffffffffffffffffffffffffffff16815260200191505060405180910390a17f5ee0cae2f063ed938bb55046f6a932fb6ae792bf43624806bb90abe68a50be9b89604051808273ffffffffffffffffffffffffffffffffffffffff1673ffffffffffffffffffffffffffffffffffffffff16815260200191505060405180910390a17f82966d27eea39b038ee0fa30cd16532bb24f6e65d31cb58fb227aa5766cdcc7f88604051808273ffffffffffffffffffffffffffffffffffffffff1673ffffffffffffffffffffffffffffffffffffffff16815260200191505060405180910390a17fcfb07d791fcafc032b35837b50eb84b74df518cf4cc287e8084f47630fa70fa087604051808273ffffffffffffffffffffffffffffffffffffffff1673ffffffffffffffffffffffffffffffffffffffff16815260200191505060405180910390a17fe67f36a6e961157d6eff83b91f3af5a62131ceb6f04954ef74f51c1c05e7f88d86604051808273ffffffffffffffffffffffffffffffffffffffff1673ffffffffffffffffffffffffffffffffffffffff16815260200191505060405180910390a17f8c537274438aa850a330284665d81a85dd38267d09e4050d416bfc94142db26485604051808273ffffffffffffffffffffffffffffffffffffffff1673ffffffffffffffffffffffffffffffffffffffff16815260200191505060405180910390a17f227eec0ec317af6ab1a9587ffa1c84332522eb4c583a908f89babc05f8f339bd84604051808273ffffffffffffffffffffffffffffffffffffffff1673ffffffffffffffffffffffffffffffffffffffff16815260200191505060405180910390a17f65f4cf077bc01e4742eb5ad98326f6e95b63548ea24b17f8d5e823111fe7880083604051808273ffffffffffffffffffffffffffffffffffffffff1673ffffffffffffffffffffffffffffffffffffffff16815260200191505060405180910390a17f2ac6e99201ddc1b6eac6f8f28662d1ecafee131f6eb98c29de54528a9888a7d182604051808273ffffffffffffffffffffffffffffffffffffffff1673ffffffffffffffffffffffffffffffffffffffff16815260200191505060405180910390a17f756ebc192164c295bba134b5aacd72cc7aff8098a670d1f0a5f6b3a0b4ce670781604051808273ffffffffffffffffffffffffffffffffffffffff1673ffffffffffffffffffffffffffffffffffffffff16815260200191505060405180910390a16135b1616618565b5050505050505050505050565b6000809054906101000a900473ffffffffffffffffffffffffffffffffffffffff1681565b60105481565b6135f1614a48565b6135fa816166d9565b50565b6000806000809054906101000a900473ffffffffffffffffffffffffffffffffffffffff1673ffffffffffffffffffffffffffffffffffffffff166314f6c3be6040518163ffffffff1660e01b815260040160206040518083038186803b15801561366757600080fd5b505afa15801561367b573d6000803e3d6000fd5b505050506040513d602081101561369157600080fd5b810190808051906020019092919050505090506000600160009054906101000a900473ffffffffffffffffffffffffffffffffffffffff1673ffffffffffffffffffffffffffffffffffffffff166314f6c3be6040518163ffffffff1660e01b815260040160206040518083038186803b15801561370e57600080fd5b505afa158015613722573d6000803e3d6000fd5b505050506040513d602081101561373857600080fd5b8101908080519060200190929190505050905061375e818361646d90919063ffffffff16565b9250505090565b6000600360009054906101000a900473ffffffffffffffffffffffffffffffffffffffff16905090565b6000600360009054906101000a900473ffffffffffffffffffffffffffffffffffffffff1673ffffffffffffffffffffffffffffffffffffffff163373ffffffffffffffffffffffffffffffffffffffff1614905090565b60115481565b60006137f7614a48565b600061384e83600e60008773ffffffffffffffffffffffffffffffffffffffff1673ffffffffffffffffffffffffffffffffffffffff1681526020019081526020016000206000015461646d90919063ffffffff16565b905080600e60008673ffffffffffffffffffffffffffffffffffffffff1673ffffffffffffffffffffffffffffffffffffffff168152602001908152602001600020600001819055508091505092915050565b60125481565b670de0b6b3a764000081565b600a60009054906101000a900473ffffffffffffffffffffffffffffffffffffffff1681565b6040518060400160405280600c81526020017f54726f76654d616e61676572000000000000000000000000000000000000000081525081565b600b60009054906101000a900473ffffffffffffffffffffffffffffffffffffffff1681565b6000806000613946846167b1565b915091506000613956838361688f565b9050809350505050919050565b600460009054906101000a900473ffffffffffffffffffffffffffffffffffffffff1681565b6000613994826168f8565b9050919050565b600860009054906101000a900473ffffffffffffffffffffffffffffffffffffffff1681565b600080600080600e60008673ffffffffffffffffffffffffffffffffffffffff1673ffffffffffffffffffffffffffffffffffffffff168152602001908152602001600020600001549350600e60008673ffffffffffffffffffffffffffffffffffffffff1673ffffffffffffffffffffffffffffffffffffffff168152602001908152602001600020600101549250613a5a8561489d565b9150613a65856122b4565b9050613a7a828561646d90919063ffffffff16565b9350613a8f818461646d90919063ffffffff16565b92509193509193565b613aa061901e565b6040518060e001604052806000809054906101000a900473ffffffffffffffffffffffffffffffffffffffff1673ffffffffffffffffffffffffffffffffffffffff168152602001600160009054906101000a900473ffffffffffffffffffffffffffffffffffffffff1673ffffffffffffffffffffffffffffffffffffffff168152602001600860009054906101000a900473ffffffffffffffffffffffffffffffffffffffff1673ffffffffffffffffffffffffffffffffffffffff168152602001600a60009054906101000a900473ffffffffffffffffffffffffffffffffffffffff1673ffffffffffffffffffffffffffffffffffffffff168152602001600b60009054906101000a900473ffffffffffffffffffffffffffffffffffffffff1673ffffffffffffffffffffffffffffffffffffffff168152602001600760009054906101000a900473ffffffffffffffffffffffffffffffffffffffff1673ffffffffffffffffffffffffffffffffffffffff168152602001600660009054906101000a900473ffffffffffffffffffffffffffffffffffffffff1673ffffffffffffffffffffffffffffffffffffffff168152509050613c646190f5565b613c6d83616928565b613c756169ae565b600260009054906101000a900473ffffffffffffffffffffffffffffffffffffffff1673ffffffffffffffffffffffffffffffffffffffff16630fdb11cf6040518163ffffffff1660e01b8152600401602060405180830381600087803b158015613cdf57600080fd5b505af1158015613cf3573d6000803e3d6000fd5b505050506040513d6020811015613d0957600080fd5b81019080805190602001909291905050508160c0018181525050613d308160c00151616ac6565b613d3989616b32565b613d488260400151338b616b8e565b613d50612c53565b8160e00181815250508060e00151826040015173ffffffffffffffffffffffffffffffffffffffff166370a08231336040518263ffffffff1660e01b8152600401808273ffffffffffffffffffffffffffffffffffffffff1673ffffffffffffffffffffffffffffffffffffffff16815260200191505060206040518083038186803b158015613ddf57600080fd5b505afa158015613df3573d6000803e3d6000fd5b505050506040513d6020811015613e0957600080fd5b81019080805190602001909291905050501115613e2257fe5b888160000181815250506000613e4183608001518a8460c00151616ca3565b15613e4e57889050613ff0565b826080015173ffffffffffffffffffffffffffffffffffffffff16634d6228316040518163ffffffff1660e01b815260040160206040518083038186803b158015613e9857600080fd5b505afa158015613eac573d6000803e3d6000fd5b505050506040513d6020811015613ec257600080fd5b810190808051906020019092919050505090505b600073ffffffffffffffffffffffffffffffffffffffff168173ffffffffffffffffffffffffffffffffffffffff1614158015613f275750670f43fc2c04ee0000613f25828460c00151614642565b105b15613fef57826080015173ffffffffffffffffffffffffffffffffffffffff1663b72703ac826040518263ffffffff1660e01b8152600401808273ffffffffffffffffffffffffffffffffffffffff1673ffffffffffffffffffffffffffffffffffffffff16815260200191505060206040518083038186803b158015613fad57600080fd5b505afa158015613fc1573d6000803e3d6000fd5b505050506040513d6020811015613fd757600080fd5b81019080805190602001909291905050509050613ed6565b5b600085141561401d577fffffffffffffffffffffffffffffffffffffffffffffffffffffffffffffffff94505b5b600073ffffffffffffffffffffffffffffffffffffffff168173ffffffffffffffffffffffffffffffffffffffff161415801561405f575060008260000151115b801561406b5750600085115b156141f4578480600190039550506000836080015173ffffffffffffffffffffffffffffffffffffffff1663b72703ac836040518263ffffffff1660e01b8152600401808273ffffffffffffffffffffffffffffffffffffffff1673ffffffffffffffffffffffffffffffffffffffff16815260200191505060206040518083038186803b1580156140fc57600080fd5b505afa158015614110573d6000803e3d6000fd5b505050506040513d602081101561412657600080fd5b8101908080519060200190929190505050905061414c8460000151856020015184614af0565b61415461913a565b61416b858486600001518760c001518e8e8e616ecf565b905080604001511561417e5750506141f4565b6141998160000151856020015161646d90919063ffffffff16565b8460200181815250506141bd8160200151856040015161646d90919063ffffffff16565b8460400181815250506141e181600001518560000151614daf90919063ffffffff16565b846000018181525050819250505061401e565b6000826040015111614251576040517f08c379a00000000000000000000000000000000000000000000000000000000081526004018080602001828103825260298152602001806192206029913960400191505060405180910390fd5b61426882604001518360c001518460e001516173ac565b50614276826040015161747d565b8260600181815250506142928260600151836040015186617497565b826000015173ffffffffffffffffffffffffffffffffffffffff166364a197f3846060015184606001516040518363ffffffff1660e01b8152600401808373ffffffffffffffffffffffffffffffffffffffff1673ffffffffffffffffffffffffffffffffffffffff16815260200182815260200192505050600060405180830381600087803b15801561432557600080fd5b505af1158015614339573d6000803e3d6000fd5b50505050826060015173ffffffffffffffffffffffffffffffffffffffff16631e3e2a1a83606001516040518263ffffffff1660e01b815260040180828152602001915050600060405180830381600087803b15801561439857600080fd5b505af11580156143ac573d6000803e3d6000fd5b505050506143cb82606001518360400151614daf90919063ffffffff16565b8260800181815250507f43a3f4082a4dbc33d78e317d2497d3a730bc7fc3574159dcea1056e62e5d9ad88a8360200151846040015185606001516040518085815260200184815260200183815260200182815260200194505050505060405180910390a1826040015173ffffffffffffffffffffffffffffffffffffffff16639dc29fac3384602001516040518363ffffffff1660e01b8152600401808373ffffffffffffffffffffffffffffffffffffffff1673ffffffffffffffffffffffffffffffffffffffff16815260200182815260200192505050600060405180830381600087803b1580156144be57600080fd5b505af11580156144d2573d6000803e3d6000fd5b50505050826000015173ffffffffffffffffffffffffffffffffffffffff166338d995a883602001516040518263ffffffff1660e01b815260040180828152602001915050600060405180830381600087803b15801561453157600080fd5b505af1158015614545573d6000803e3d6000fd5b50505050826000015173ffffffffffffffffffffffffffffffffffffffff166364a197f33384608001516040518363ffffffff1660e01b8152600401808373ffffffffffffffffffffffffffffffffffffffff1673ffffffffffffffffffffffffffffffffffffffff16815260200182815260200192505050600060405180830381600087803b1580156145d857600080fd5b505af11580156145ec573d6000803e3d6000fd5b5050505050505050505050505050565b600f5481565b6212750081565b600061461b614616615ce7565b615adc565b905090565b670ddd4b8c6c7d70d881565b614634614a48565b61463f816002617544565b50565b6000806000614650856167b1565b9150915060006146618383876177e6565b905080935050505092915050565b600d5481565b600061467f614a48565b60006146d683600e60008773ffffffffffffffffffffffffffffffffffffffff1673ffffffffffffffffffffffffffffffffffffffff16815260200190815260200160002060010154614daf90919063ffffffff16565b905080600e60008673ffffffffffffffffffffffffffffffffffffffff1673ffffffffffffffffffffffffffffffffffffffff168152602001908152602001600020600101819055508091505092915050565b600061473c614736614609565b8361784d565b9050919050565b6000600e60008373ffffffffffffffffffffffffffffffffffffffff1673ffffffffffffffffffffffffffffffffffffffff168152602001908152602001600020600001549050919050565b60006015828154811061479e57fe5b9060005260206000200160009054906101000a900473ffffffffffffffffffffffffffffffffffffffff169050919050565b60135481565b6000600160048111156147e557fe5b600e60008473ffffffffffffffffffffffffffffffffffffffff1673ffffffffffffffffffffffffffffffffffffffff16815260200190815260200160002060030160009054906101000a900460ff16600481111561484057fe5b1461484e5760009050614898565b601254601460008473ffffffffffffffffffffffffffffffffffffffff1673ffffffffffffffffffffffffffffffffffffffff168152602001908152602001600020600001541090505b919050565b600080601460008473ffffffffffffffffffffffffffffffffffffffff1673ffffffffffffffffffffffffffffffffffffffff16815260200190815260200160002060010154905060006148fc82601354614daf90919063ffffffff16565b9050600081148061497357506001600481111561491557fe5b600e60008673ffffffffffffffffffffffffffffffffffffffff1673ffffffffffffffffffffffffffffffffffffffff16815260200190815260200160002060030160009054906101000a900460ff16600481111561497057fe5b14155b1561498357600092505050614a03565b6000600e60008673ffffffffffffffffffffffffffffffffffffffff1673ffffffffffffffffffffffffffffffffffffffff16815260200190815260200160002060020154905060006149f9670de0b6b3a76400006149eb8585615c1790919063ffffffff16565b615c9d90919063ffffffff16565b9050809450505050505b919050565b6000614a15600c5461641d565b905090565b60056103e8670de0b6b3a764000081614a2f57fe5b040281565b614a3c614a48565b614a45816178e1565b50565b600460009054906101000a900473ffffffffffffffffffffffffffffffffffffffff1673ffffffffffffffffffffffffffffffffffffffff163373ffffffffffffffffffffffffffffffffffffffff1614614aee576040517f08c379a000000000000000000000000000000000000000000000000000000000815260040180806020018281038252603b815260200180619322603b913960400191505060405180910390fd5b565b614af9816147d6565b15614daa57614b0781615b1f565b6000614b12826122b4565b90506000614b1f8361489d565b9050614b7682600e60008673ffffffffffffffffffffffffffffffffffffffff1673ffffffffffffffffffffffffffffffffffffffff1681526020019081526020016000206001015461646d90919063ffffffff16565b600e60008573ffffffffffffffffffffffffffffffffffffffff1673ffffffffffffffffffffffffffffffffffffffff16815260200190815260200160002060010181905550614c1181600e60008673ffffffffffffffffffffffffffffffffffffffff1673ffffffffffffffffffffffffffffffffffffffff1681526020019081526020016000206000015461646d90919063ffffffff16565b600e60008573ffffffffffffffffffffffffffffffffffffffff1673ffffffffffffffffffffffffffffffffffffffff16815260200190815260200160002060000181905550614c60836166d9565b614c6c8585838561798f565b8273ffffffffffffffffffffffffffffffffffffffff167fc3770d654ed33aeea6bf11ac8ef05d02a6a04ed4686dd2f624d853bbec43cc8b600e60008673ffffffffffffffffffffffffffffffffffffffff1673ffffffffffffffffffffffffffffffffffffffff16815260200190815260200160002060000154600e60008773ffffffffffffffffffffffffffffffffffffffff1673ffffffffffffffffffffffffffffffffffffffff16815260200190815260200160002060010154600e60008873ffffffffffffffffffffffffffffffffffffffff1673ffffffffffffffffffffffffffffffffffffffff16815260200190815260200160002060020154600060405180858152602001848152602001838152602001826003811115614d9157fe5b60ff16815260200194505050505060405180910390a250505b505050565b6000614df183836040518060400160405280601e81526020017f536166654d6174683a207375627472616374696f6e206f766572666c6f770000815250617ad6565b905092915050565b60006015829080600181540180825580915050600190039060005260206000200160009091909190916101000a81548173ffffffffffffffffffffffffffffffffffffffff021916908373ffffffffffffffffffffffffffffffffffffffff160217905550614e776001601580549050614daf90919063ffffffff16565b905080600e60008473ffffffffffffffffffffffffffffffffffffffff1673ffffffffffffffffffffffffffffffffffffffff16815260200190815260200160002060030160016101000a8154816fffffffffffffffffffffffffffffffff02191690836fffffffffffffffffffffffffffffffff160217905550809050919050565b600080614f48600e60008573ffffffffffffffffffffffffffffffffffffffff1673ffffffffffffffffffffffffffffffffffffffff16815260200190815260200160002060010154617b96565b90506000600e60008573ffffffffffffffffffffffffffffffffffffffff1673ffffffffffffffffffffffffffffffffffffffff16815260200190815260200160002060020154905081600e60008673ffffffffffffffffffffffffffffffffffffffff1673ffffffffffffffffffffffffffffffffffffffff16815260200190815260200160002060020181905550614fff82614ff183600f54614daf90919063ffffffff16565b61646d90919063ffffffff16565b600f819055507f6bac5e0eb3c44eb03a60ab11ec3a2c051771616aecadbcfff2630aabae520382600f546040518082815260200191505060405180910390a18192505050919050565b600080615054836168f8565b90506714d1120d7b1600008110915050919050565b615071618fd2565b61507961915d565b6150816191b2565b8482600001818152505060008260800190151590811515815250506150a4612c53565b8260a00181815250506150b56135fd565b8260c001818152505060008260200181815250505b83518260200151101561534357838260200151815181106150e757fe5b6020026020010151826060019073ffffffffffffffffffffffffffffffffffffffff16908173ffffffffffffffffffffffffffffffffffffffff16815250506001600481111561513357fe5b600e6000846060015173ffffffffffffffffffffffffffffffffffffffff1673ffffffffffffffffffffffffffffffffffffffff16815260200190815260200160002060030160009054906101000a900460ff16600481111561519257fe5b1461519c5761532e565b6151aa826060015187614642565b82604001818152505081608001516152bb57670f43fc2c04ee00008260400151101580156151dc575060008260000151145b156151e65761532e565b60006151fb8360c001518460a00151896177e6565b90506152188989856060015186604001518760000151868d617bed565b915061523582608001518460000151614daf90919063ffffffff16565b83600001818152505061525982608001518460a00151614daf90919063ffffffff16565b8360a001818152505061527d8260a001518460c00151614daf90919063ffffffff16565b8360c001818152505061529084836181b8565b93506152a58360c001518460a0015189618310565b158360800190151590811515815250505061532d565b816080015180156152d75750670f43fc2c04ee00008260400151105b15615327576152f0888884606001518560000151618335565b905061530d81608001518360000151614daf90919063ffffffff16565b82600001818152505061532083826181b8565b925061532c565b61532e565b5b5b816020018051809190600101815250506150ca565b505095945050505050565b615356618fd2565b61535e61915d565b6153666191b2565b8482600001818152505060008260200181815250505b83518260200151101561545f578382602001518151811061539957fe5b6020026020010151826060019073ffffffffffffffffffffffffffffffffffffffff16908173ffffffffffffffffffffffffffffffffffffffff16815250506153e6826060015187614642565b826040018181525050670f43fc2c04ee00008260400151101561544a57615417888884606001518560000151618335565b905061543481608001518360000151614daf90919063ffffffff16565b82600001818152505061544783826181b8565b92505b8160200180518091906001018152505061537c565b505095945050505050565b60008214156154785761575d565b60006154a960165461549b670de0b6b3a764000085615c1790919063ffffffff16565b61646d90919063ffffffff16565b905060006154dc6017546154ce670de0b6b3a764000087615c1790919063ffffffff16565b61646d90919063ffffffff16565b905060006154f5600f5484615c9d90919063ffffffff16565b9050600061550e600f5484615c9d90919063ffffffff16565b9050615537615528600f5484615c1790919063ffffffff16565b85614daf90919063ffffffff16565b601681905550615564615555600f5483615c1790919063ffffffff16565b84614daf90919063ffffffff16565b60178190555061557f8260125461646d90919063ffffffff16565b60128190555061559a8160135461646d90919063ffffffff16565b6013819055507f9f8bc8ab0daf5bceef75ecfd2085d1fcc6548c657ea970d9a23a60610d0737e3601254601354604051808381526020018281526020019250505060405180910390a18773ffffffffffffffffffffffffffffffffffffffff166338d995a8876040518263ffffffff1660e01b815260040180828152602001915050600060405180830381600087803b15801561563657600080fd5b505af115801561564a573d6000803e3d6000fd5b505050508673ffffffffffffffffffffffffffffffffffffffff1663cfb9329a876040518263ffffffff1660e01b815260040180828152602001915050600060405180830381600087803b1580156156a157600080fd5b505af11580156156b5573d6000803e3d6000fd5b505050508773ffffffffffffffffffffffffffffffffffffffff166364a197f388876040518363ffffffff1660e01b8152600401808373ffffffffffffffffffffffffffffffffffffffff1673ffffffffffffffffffffffffffffffffffffffff16815260200182815260200192505050600060405180830381600087803b15801561574057600080fd5b505af1158015615754573d6000803e3d6000fd5b50505050505050505b50505050565b600f5460108190555060008273ffffffffffffffffffffffffffffffffffffffff166314f6c3be6040518163ffffffff1660e01b815260040160206040518083038186803b1580156157b457600080fd5b505afa1580156157c8573d6000803e3d6000fd5b505050506040513d60208110156157de57600080fd5b810190808051906020019092919050505090506000600160009054906101000a900473ffffffffffffffffffffffffffffffffffffffff1673ffffffffffffffffffffffffffffffffffffffff166314f6c3be6040518163ffffffff1660e01b815260040160206040518083038186803b15801561585b57600080fd5b505afa15801561586f573d6000803e3d6000fd5b505050506040513d602081101561588557600080fd5b810190808051906020019092919050505090506158bd816158af8585614daf90919063ffffffff16565b61646d90919063ffffffff16565b6011819055507f51bf4c63ec3cba9d03d43238abbdd979dd91bd16d9895c74ceea9118c7baaf60601054601154604051808381526020018281526020019250505060405180910390a150505050565b6000821115615a2d57600860009054906101000a900473ffffffffffffffffffffffffffffffffffffffff1673ffffffffffffffffffffffffffffffffffffffff166320c582be600660009054906101000a900473ffffffffffffffffffffffffffffffffffffffff1685856040518463ffffffff1660e01b8152600401808473ffffffffffffffffffffffffffffffffffffffff1673ffffffffffffffffffffffffffffffffffffffff1681526020018373ffffffffffffffffffffffffffffffffffffffff1673ffffffffffffffffffffffffffffffffffffffff1681526020018281526020019350505050600060405180830381600087803b158015615a1457600080fd5b505af1158015615a28573d6000803e3d6000fd5b505050505b6000811115615ad6578373ffffffffffffffffffffffffffffffffffffffff166364a197f384836040518363ffffffff1660e01b8152600401808373ffffffffffffffffffffffffffffffffffffffff1673ffffffffffffffffffffffffffffffffffffffff16815260200182815260200192505050600060405180830381600087803b158015615abd57600080fd5b505af1158015615ad1573d6000803e3d6000fd5b505050505b50505050565b6000615b18615b0a8360056103e8670de0b6b3a764000081615afa57fe5b040261646d90919063ffffffff16565b670de0b6b3a764000061850e565b9050919050565b60016004811115615b2c57fe5b600e60008373ffffffffffffffffffffffffffffffffffffffff1673ffffffffffffffffffffffffffffffffffffffff16815260200190815260200160002060030160009054906101000a900460ff166004811115615b8757fe5b14615bdd576040517f08c379a000000000000000000000000000000000000000000000000000000000815260040180806020018281038252602f815260200180619473602f913960400191505060405180910390fd5b50565b6000615c0f670de0b6b3a7640000615c018486615c1790919063ffffffff16565b615c9d90919063ffffffff16565b905092915050565b600080831415615c2a5760009050615c97565b6000828402905082848281615c3b57fe5b0414615c92576040517f08c379a00000000000000000000000000000000000000000000000000000000081526004018080602001828103825260218152602001806192b36021913960400191505060405180910390fd5b809150505b92915050565b6000615cdf83836040518060400160405280601a81526020017f536166654d6174683a206469766973696f6e206279207a65726f000000000000815250618527565b905092915050565b600080615cf26185ed565b90506000615d08670ddd4b8c6c7d70d88361861c565b9050615d39670de0b6b3a7640000615d2b83600c54615c1790919063ffffffff16565b615c9d90919063ffffffff16565b9250505090565b6000615d57600d5442614daf90919063ffffffff16565b9050603c8110615da05742600d819055507f860f8d2f0c74dd487e89e2883e3b25b8159ce1e1b3433a291cba7b82c508f3bc426040518082815260200191505060405180910390a15b50565b615dab618fd2565b615db361915d565b615dbb6191b2565b848260000181815250506000826080019015159081151581525050615dde612c53565b8260a0018181525050615def6135fd565b8260c0018181525050866080015173ffffffffffffffffffffffffffffffffffffffff16634d6228316040518163ffffffff1660e01b815260040160206040518083038186803b158015615e4257600080fd5b505afa158015615e56573d6000803e3d6000fd5b505050506040513d6020811015615e6c57600080fd5b8101908080519060200190929190505050826060019073ffffffffffffffffffffffffffffffffffffffff16908173ffffffffffffffffffffffffffffffffffffffff16815250506000876080015173ffffffffffffffffffffffffffffffffffffffff16631e2231436040518163ffffffff1660e01b815260040160206040518083038186803b158015615f0057600080fd5b505afa158015615f14573d6000803e3d6000fd5b505050506040513d6020811015615f2a57600080fd5b8101908080519060200190929190505050905060008360200181815250505b848360200151108015615f8c57508073ffffffffffffffffffffffffffffffffffffffff16836060015173ffffffffffffffffffffffffffffffffffffffff1614155b1561625d576000886080015173ffffffffffffffffffffffffffffffffffffffff1663b72703ac85606001516040518263ffffffff1660e01b8152600401808273ffffffffffffffffffffffffffffffffffffffff1673ffffffffffffffffffffffffffffffffffffffff16815260200191505060206040518083038186803b15801561601857600080fd5b505afa15801561602c573d6000803e3d6000fd5b505050506040513d602081101561604257600080fd5b81019080805190602001909291905050509050616063846060015189614642565b846040018181525050836080015161619457670f43fc2c04ee0000846040015110158015616095575060008460000151145b156160a0575061625d565b60006160b58560c001518660a001518b6177e6565b90506160da8a600001518b60200151876060015188604001518960000151868f617bed565b93506160f784608001518660000151614daf90919063ffffffff16565b85600001818152505061611b84608001518660a00151614daf90919063ffffffff16565b8560a00181815250506161568461010001516161488660a001518860c00151614daf90919063ffffffff16565b614daf90919063ffffffff16565b8560c001818152505061616986856181b8565b955061617e8560c001518660a001518b618310565b158560800190151590811515815250505061620f565b836080015180156161b05750670f43fc2c04ee00008460400151105b15616208576161d189600001518a6020015186606001518760000151618335565b92506161ee83608001518560000151614daf90919063ffffffff16565b84600001818152505061620185846181b8565b945061620e565b5061625d565b5b80846060019073ffffffffffffffffffffffffffffffffffffffff16908173ffffffffffffffffffffffffffffffffffffffff16815250505082602001805180919060010181525050615f49565b505050949350505050565b616270618fd2565b61627861915d565b6162806191b2565b6000600b60009054906101000a900473ffffffffffffffffffffffffffffffffffffffff1690508583600001818152505060008360200181815250505b8483602001511015616411578073ffffffffffffffffffffffffffffffffffffffff16634d6228316040518163ffffffff1660e01b815260040160206040518083038186803b15801561630f57600080fd5b505afa158015616323573d6000803e3d6000fd5b505050506040513d602081101561633957600080fd5b8101908080519060200190929190505050836060019073ffffffffffffffffffffffffffffffffffffffff16908173ffffffffffffffffffffffffffffffffffffffff168152505061638f836060015188614642565b836040018181525050670f43fc2c04ee0000836040015110156163f7576163c0898985606001518660000151618335565b91506163dd82608001518460000151614daf90919063ffffffff16565b8360000181815250506163f084836181b8565b93506163fc565b616411565b826020018051809190600101815250506162bd565b50505095945050505050565b600061646661644b8360056103e8670de0b6b3a76400008161643b57fe5b040261646d90919063ffffffff16565b60056064670de0b6b3a76400008161645f57fe5b040261850e565b9050919050565b6000808284019050838110156164eb576040517f08c379a000000000000000000000000000000000000000000000000000000000815260040180806020018281038252601b8152602001807f536166654d6174683a206164646974696f6e206f766572666c6f77000000000081525060200191505060405180910390fd5b8091505092915050565b600073ffffffffffffffffffffffffffffffffffffffff168173ffffffffffffffffffffffffffffffffffffffff161415616598576040517f08c379a000000000000000000000000000000000000000000000000000000000815260040180806020018281038252601e8152602001807f4163636f756e742063616e6e6f74206265207a65726f2061646472657373000081525060200191505060405180910390fd5b6000813b905060008111616614576040517f08c379a00000000000000000000000000000000000000000000000000000000081526004018080602001828103825260208152602001807f4163636f756e7420636f64652073697a652063616e6e6f74206265207a65726f81525060200191505060405180910390fd5b5050565b600073ffffffffffffffffffffffffffffffffffffffff16600360009054906101000a900473ffffffffffffffffffffffffffffffffffffffff1673ffffffffffffffffffffffffffffffffffffffff167f8be0079c531659141344cd1fd0a4f28419497f9722a3daafe3b4186f6b6457e060405160405180910390a36000600360006101000a81548173ffffffffffffffffffffffffffffffffffffffff021916908373ffffffffffffffffffffffffffffffffffffffff160217905550565b601254601460008373ffffffffffffffffffffffffffffffffffffffff1673ffffffffffffffffffffffffffffffffffffffff16815260200190815260200160002060000181905550601354601460008373ffffffffffffffffffffffffffffffffffffffff1673ffffffffffffffffffffffffffffffffffffffff168152602001908152602001600020600101819055507fc437f324d85e369394148dd9d62f98f534b382e01ed3dd2eb98138fb6d3ab49a601254601354604051808381526020018281526020019250505060405180910390a150565b60008060006167bf846122b4565b905060006167cc8561489d565b9050600061682583600e60008973ffffffffffffffffffffffffffffffffffffffff1673ffffffffffffffffffffffffffffffffffffffff1681526020019081526020016000206001015461646d90919063ffffffff16565b9050600061687e83600e60008a73ffffffffffffffffffffffffffffffffffffffff1673ffffffffffffffffffffffffffffffffffffffff1681526020019081526020016000206000015461646d90919063ffffffff16565b905081819550955050505050915091565b6000808211156168ce576168c7826168b968056bc75e2d6310000086615c1790919063ffffffff16565b615c9d90919063ffffffff16565b90506168f2565b7fffffffffffffffffffffffffffffffffffffffffffffffffffffffffffffffff90505b92915050565b6000806169036135fd565b9050600061690f612c53565b905061691c8282866177e6565b92508292505050919050565b60056103e8670de0b6b3a76400008161693d57fe5b040281101580156169565750670de0b6b3a76400008111155b6169ab576040517f08c379a00000000000000000000000000000000000000000000000000000000081526004018080602001828103825260308152602001806193f76030913960400191505060405180910390fd5b50565b6000600960009054906101000a900473ffffffffffffffffffffffffffffffffffffffff1673ffffffffffffffffffffffffffffffffffffffff16633c84b7c26040518163ffffffff1660e01b815260040160206040518083038186803b158015616a1857600080fd5b505afa158015616a2c573d6000803e3d6000fd5b505050506040513d6020811015616a4257600080fd5b81019080805190602001909291905050509050616a6b621275008261646d90919063ffffffff16565b421015616ac3576040517f08c379a00000000000000000000000000000000000000000000000000000000081526004018080602001828103825260408152602001806192736040913960400191505060405180910390fd5b50565b670f43fc2c04ee0000616ad8826168f8565b1015616b2f576040517f08c379a000000000000000000000000000000000000000000000000000000000815260040180806020018281038252602a815260200180619427602a913960400191505060405180910390fd5b50565b60008111616b8b576040517f08c379a000000000000000000000000000000000000000000000000000000000815260040180806020018281038252602e815260200180619393602e913960400191505060405180910390fd5b50565b808373ffffffffffffffffffffffffffffffffffffffff166370a08231846040518263ffffffff1660e01b8152600401808273ffffffffffffffffffffffffffffffffffffffff1673ffffffffffffffffffffffffffffffffffffffff16815260200191505060206040518083038186803b158015616c0c57600080fd5b505afa158015616c20573d6000803e3d6000fd5b505050506040513d6020811015616c3657600080fd5b81019080805190602001909291905050501015616c9e576040517f08c379a000000000000000000000000000000000000000000000000000000000815260040180806020018281038252604e8152602001806192d4604e913960600191505060405180910390fd5b505050565b60008073ffffffffffffffffffffffffffffffffffffffff168373ffffffffffffffffffffffffffffffffffffffff161480616d9457508373ffffffffffffffffffffffffffffffffffffffff16635dbe47e8846040518263ffffffff1660e01b8152600401808273ffffffffffffffffffffffffffffffffffffffff1673ffffffffffffffffffffffffffffffffffffffff16815260200191505060206040518083038186803b158015616d5757600080fd5b505afa158015616d6b573d6000803e3d6000fd5b505050506040513d6020811015616d8157600080fd5b8101908080519060200190929190505050155b80616daf5750670f43fc2c04ee0000616dad8484614642565b105b15616dbd5760009050616ec8565b60008473ffffffffffffffffffffffffffffffffffffffff1663765e0159856040518263ffffffff1660e01b8152600401808273ffffffffffffffffffffffffffffffffffffffff1673ffffffffffffffffffffffffffffffffffffffff16815260200191505060206040518083038186803b158015616e3c57600080fd5b505afa158015616e50573d6000803e3d6000fd5b505050506040513d6020811015616e6657600080fd5b81019080805190602001909291905050509050600073ffffffffffffffffffffffffffffffffffffffff168173ffffffffffffffffffffffffffffffffffffffff161480616ec45750670f43fc2c04ee0000616ec28285614642565b105b9150505b9392505050565b616ed761913a565b616f3e86616f39680ad78ebc5ac6200000600e60008c73ffffffffffffffffffffffffffffffffffffffff1673ffffffffffffffffffffffffffffffffffffffff16815260200190815260200160002060000154614daf90919063ffffffff16565b61850e565b816000018181525050616f7885616f6a670de0b6b3a76400008460000151615c1790919063ffffffff16565b615c9d90919063ffffffff16565b8160200181815250506000616fdc8260000151600e60008b73ffffffffffffffffffffffffffffffffffffffff1673ffffffffffffffffffffffffffffffffffffffff16815260200190815260200160002060000154614daf90919063ffffffff16565b905060006170398360200151600e60008c73ffffffffffffffffffffffffffffffffffffffff1673ffffffffffffffffffffffffffffffffffffffff16815260200190815260200160002060010154614daf90919063ffffffff16565b9050680ad78ebc5ac62000008214156170f157617055896178e1565b617060896004617544565b6170758a8a680ad78ebc5ac620000084618703565b8873ffffffffffffffffffffffffffffffffffffffff167fc3770d654ed33aeea6bf11ac8ef05d02a6a04ed4686dd2f624d853bbec43cc8b60008060006003604051808581526020018481526020018381526020018260038111156170d657fe5b60ff16815260200194505050505060405180910390a261739b565b60006170fd828461688f565b9050848114158061711e5750686194049f30f720000061711c84618987565b105b1561713f5760018460400190151590811515815250508393505050506173a1565b8a6080015173ffffffffffffffffffffffffffffffffffffffff16632be212608b838a8a6040518563ffffffff1660e01b8152600401808573ffffffffffffffffffffffffffffffffffffffff1673ffffffffffffffffffffffffffffffffffffffff1681526020018481526020018373ffffffffffffffffffffffffffffffffffffffff1673ffffffffffffffffffffffffffffffffffffffff1681526020018273ffffffffffffffffffffffffffffffffffffffff1673ffffffffffffffffffffffffffffffffffffffff168152602001945050505050600060405180830381600087803b15801561723257600080fd5b505af1158015617246573d6000803e3d6000fd5b5050505082600e60008c73ffffffffffffffffffffffffffffffffffffffff1673ffffffffffffffffffffffffffffffffffffffff1681526020019081526020016000206000018190555081600e60008c73ffffffffffffffffffffffffffffffffffffffff1673ffffffffffffffffffffffffffffffffffffffff168152602001908152602001600020600101819055506172e18a614efa565b508973ffffffffffffffffffffffffffffffffffffffff167fc3770d654ed33aeea6bf11ac8ef05d02a6a04ed4686dd2f624d853bbec43cc8b8484600e60008f73ffffffffffffffffffffffffffffffffffffffff1673ffffffffffffffffffffffffffffffffffffffff1681526020019081526020016000206002015460036040518085815260200184815260200183815260200182600381111561738357fe5b60ff16815260200194505050505060405180910390a2505b82925050505b979650505050505050565b6000806173b7615ce7565b905060006173e0846173d28789615c1790919063ffffffff16565b615c9d90919063ffffffff16565b9050600061740a6173fb600284615c9d90919063ffffffff16565b8461646d90919063ffffffff16565b905061741e81670de0b6b3a764000061850e565b90506000811161742a57fe5b80600c819055507fc454ee9b76c52f782a256af821b857ca6e125d1e3333bcede402fec2bed9600c816040518082815260200191505060405180910390a1617470615d40565b8093505050509392505050565b600061749061748a6120b5565b8361784d565b9050919050565b60006174c6836174b8670de0b6b3a764000087615c1790919063ffffffff16565b615c9d90919063ffffffff16565b90508181111561753e576040517f08c379a000000000000000000000000000000000000000000000000000000000815260040180806020018281038252601d8152602001807f4665652065786365656465642070726f7669646564206d6178696d756d00000081525060200191505060405180910390fd5b50505050565b6000600481111561755157fe5b81600481111561755d57fe5b1415801561758257506001600481111561757357fe5b81600481111561757f57fe5b14155b61758857fe5b6000601580549050905061759b816189ac565b81600e60008573ffffffffffffffffffffffffffffffffffffffff1673ffffffffffffffffffffffffffffffffffffffff16815260200190815260200160002060030160006101000a81548160ff021916908360048111156175f957fe5b02179055506000600e60008573ffffffffffffffffffffffffffffffffffffffff1673ffffffffffffffffffffffffffffffffffffffff168152602001908152602001600020600101819055506000600e60008573ffffffffffffffffffffffffffffffffffffffff1673ffffffffffffffffffffffffffffffffffffffff168152602001908152602001600020600001819055506000601460008573ffffffffffffffffffffffffffffffffffffffff1673ffffffffffffffffffffffffffffffffffffffff168152602001908152602001600020600001819055506000601460008573ffffffffffffffffffffffffffffffffffffffff1673ffffffffffffffffffffffffffffffffffffffff168152602001908152602001600020600101819055506177288382618ab6565b600b60009054906101000a900473ffffffffffffffffffffffffffffffffffffffff1673ffffffffffffffffffffffffffffffffffffffff166329092d0e846040518263ffffffff1660e01b8152600401808273ffffffffffffffffffffffffffffffffffffffff1673ffffffffffffffffffffffffffffffffffffffff168152602001915050600060405180830381600087803b1580156177c957600080fd5b505af11580156177dd573d6000803e3d6000fd5b50505050505050565b600080831115617822576000617817846178098588615c1790919063ffffffff16565b615c9d90919063ffffffff16565b905080915050617846565b7fffffffffffffffffffffffffffffffffffffffffffffffffffffffffffffffff90505b9392505050565b60008061787d670de0b6b3a764000061786f8587615c1790919063ffffffff16565b615c9d90919063ffffffff16565b90508281106178d7576040517f08c379a00000000000000000000000000000000000000000000000000000000081526004018080602001828103825260368152602001806193c16036913960400191505060405180910390fd5b8091505092915050565b6000600e60008373ffffffffffffffffffffffffffffffffffffffff1673ffffffffffffffffffffffffffffffffffffffff16815260200190815260200160002060020154905061793d81600f54614daf90919063ffffffff16565b600f819055506000600e60008473ffffffffffffffffffffffffffffffffffffffff1673ffffffffffffffffffffffffffffffffffffffff168152602001908152602001600020600201819055505050565b8273ffffffffffffffffffffffffffffffffffffffff166338d995a8836040518263ffffffff1660e01b815260040180828152602001915050600060405180830381600087803b1580156179e257600080fd5b505af11580156179f6573d6000803e3d6000fd5b505050508373ffffffffffffffffffffffffffffffffffffffff1663cfb9329a836040518263ffffffff1660e01b815260040180828152602001915050600060405180830381600087803b158015617a4d57600080fd5b505af1158015617a61573d6000803e3d6000fd5b505050508273ffffffffffffffffffffffffffffffffffffffff1663be41205f826040518263ffffffff1660e01b815260040180828152602001915050600060405180830381600087803b158015617ab857600080fd5b505af1158015617acc573d6000803e3d6000fd5b5050505050505050565b6000838311158290617b83576040517f08c379a00000000000000000000000000000000000000000000000000000000081526004018080602001828103825283818151815260200191508051906020019080838360005b83811015617b48578082015181840152602081019050617b2d565b50505050905090810190601f168015617b755780820380516001836020036101000a031916815260200191505b509250505060405180910390fd5b5060008385039050809150509392505050565b60008060006011541415617bac57829050617be4565b600060105411617bb857fe5b617be1601154617bd360105486615c1790919063ffffffff16565b615c9d90919063ffffffff16565b90505b80915050919050565b617bf56191b2565b617bfd6191fe565b600160158054905011617c1357819150506181ad565b617c1c876139c1565b856000018660200186602001876040018481525084815250848152508481525050505050617c4d8260200151618dcd565b826040018181525050680ad78ebc5ac6200000826060018181525050617c8482604001518360200151614daf90919063ffffffff16565b816000018181525050670de0b6b3a76400008611617de757617cb089898360200151846040015161798f565b617cb9876178e1565b600082608001818152505060008260a001818152505081600001518260c001818152505080600001518260e0018181525050617cf6876003617544565b8673ffffffffffffffffffffffffffffffffffffffff167fea67486ed7ebe3eea8ab3390efd4a3c8aae48be5bea27df104a8af786c40843483600001518460200151600260405180848152602001838152602001826003811115617d5657fe5b60ff168152602001935050505060405180910390a28673ffffffffffffffffffffffffffffffffffffffff167fc3770d654ed33aeea6bf11ac8ef05d02a6a04ed4686dd2f624d853bbec43cc8b6000806000600260405180858152602001848152602001838152602001826003811115617dcc57fe5b60ff16815260200194505050505060405180910390a26181a8565b670de0b6b3a764000086118015617e055750670f43fc2c04ee000086105b15617f5a57617e1e89898360200151846040015161798f565b617e27876178e1565b617e3a8260000151826000015187618de1565b856080018660a0018760c0018860e0018481525084815250848152508481525050505050617e69876003617544565b8673ffffffffffffffffffffffffffffffffffffffff167fea67486ed7ebe3eea8ab3390efd4a3c8aae48be5bea27df104a8af786c40843483600001518460200151600260405180848152602001838152602001826003811115617ec957fe5b60ff168152602001935050505060405180910390a28673ffffffffffffffffffffffffffffffffffffffff167fc3770d654ed33aeea6bf11ac8ef05d02a6a04ed4686dd2f624d853bbec43cc8b6000806000600260405180858152602001848152602001838152602001826003811115617f3f57fe5b60ff16815260200194505050505060405180910390a26181a7565b670f43fc2c04ee00008610158015617f7157508386105b8015617f81575084826000015111155b1561819457617f9a89898360200151846040015161798f565b6000851415617fa557fe5b617fae876178e1565b617fc18260000151836020015185618e6a565b9150617fce876003617544565b600082610100015111156180a357600760009054906101000a900473ffffffffffffffffffffffffffffffffffffffff1673ffffffffffffffffffffffffffffffffffffffff16633f10abab888461010001516040518363ffffffff1660e01b8152600401808373ffffffffffffffffffffffffffffffffffffffff1673ffffffffffffffffffffffffffffffffffffffff16815260200182815260200192505050600060405180830381600087803b15801561808a57600080fd5b505af115801561809e573d6000803e3d6000fd5b505050505b8673ffffffffffffffffffffffffffffffffffffffff167fea67486ed7ebe3eea8ab3390efd4a3c8aae48be5bea27df104a8af786c40843483600001518460a0015160026040518084815260200183815260200182600381111561810357fe5b60ff168152602001935050505060405180910390a28673ffffffffffffffffffffffffffffffffffffffff167fc3770d654ed33aeea6bf11ac8ef05d02a6a04ed4686dd2f624d853bbec43cc8b600080600060026040518085815260200184815260200183815260200182600381111561817957fe5b60ff16815260200194505050505060405180910390a26181a6565b61819c6191b2565b80925050506181ad565b5b5b819150505b979650505050505050565b6181c0618fd2565b6181db8260400151846040015161646d90919063ffffffff16565b8160400181815250506181ff8260600151846060015161646d90919063ffffffff16565b8160600181815250506182238260000151846020015161646d90919063ffffffff16565b8160200181815250506182478260200151846000015161646d90919063ffffffff16565b81600001818152505061826b8260800151846080015161646d90919063ffffffff16565b81608001818152505061828f8260a001518460a0015161646d90919063ffffffff16565b8160a00181815250506182b38260c001518460c0015161646d90919063ffffffff16565b8160c00181815250506182d78260e001518460e0015161646d90919063ffffffff16565b8160e00181815250506182fd82610100015184610100015161646d90919063ffffffff16565b8161010001818152505080905092915050565b60008061831e8585856177e6565b90506714d1120d7b16000081109150509392505050565b61833d6191b2565b6183456191fe565b61834e846139c1565b85600001866020018660200187604001848152508481525084815250848152505050505061838686868360200151846040015161798f565b61838f846178e1565b61839c8260200151618dcd565b826040018181525050680ad78ebc5ac620000082606001818152505060006183d583604001518460200151614daf90919063ffffffff16565b90506183e683600001518286618de1565b866080018760a0018860c0018960e0018481525084815250848152508481525050505050618415856003617544565b8473ffffffffffffffffffffffffffffffffffffffff167fea67486ed7ebe3eea8ab3390efd4a3c8aae48be5bea27df104a8af786c4084348460000151856020015160016040518084815260200183815260200182600381111561847557fe5b60ff168152602001935050505060405180910390a28473ffffffffffffffffffffffffffffffffffffffff167fc3770d654ed33aeea6bf11ac8ef05d02a6a04ed4686dd2f624d853bbec43cc8b60008060006001604051808581526020018481526020018381526020018260038111156184eb57fe5b60ff16815260200194505050505060405180910390a28292505050949350505050565b600081831061851d578161851f565b825b905092915050565b600080831182906185d3576040517f08c379a00000000000000000000000000000000000000000000000000000000081526004018080602001828103825283818151815260200191508051906020019080838360005b8381101561859857808201518184015260208101905061857d565b50505050905090810190601f1680156185c55780820380516001836020036101000a031916815260200191505b509250505060405180910390fd5b5060008385816185df57fe5b049050809150509392505050565b6000618617603c618609600d5442614daf90919063ffffffff16565b615c9d90919063ffffffff16565b905090565b6000631f54050082111561863257631f54050091505b600082141561864b57670de0b6b3a764000090506186fd565b6000670de0b6b3a76400009050600084905060008490505b60018111156186ed5760006002828161867857fe5b0614156186a6576186898283618f41565b915061869f600282615c9d90919063ffffffff16565b90506186e8565b6186b08284618f41565b92506186bc8283618f41565b91506186e560026186d7600184614daf90919063ffffffff16565b615c9d90919063ffffffff16565b90505b618663565b6186f78284618f41565b93505050505b92915050565b836040015173ffffffffffffffffffffffffffffffffffffffff16639dc29fac600660009054906101000a900473ffffffffffffffffffffffffffffffffffffffff16846040518363ffffffff1660e01b8152600401808373ffffffffffffffffffffffffffffffffffffffff1673ffffffffffffffffffffffffffffffffffffffff16815260200182815260200192505050600060405180830381600087803b1580156187b057600080fd5b505af11580156187c4573d6000803e3d6000fd5b50505050836000015173ffffffffffffffffffffffffffffffffffffffff166338d995a8836040518263ffffffff1660e01b815260040180828152602001915050600060405180830381600087803b15801561881f57600080fd5b505af1158015618833573d6000803e3d6000fd5b505050508360a0015173ffffffffffffffffffffffffffffffffffffffff16633f10abab84836040518363ffffffff1660e01b8152600401808373ffffffffffffffffffffffffffffffffffffffff1673ffffffffffffffffffffffffffffffffffffffff16815260200182815260200192505050600060405180830381600087803b1580156188c257600080fd5b505af11580156188d6573d6000803e3d6000fd5b50505050836000015173ffffffffffffffffffffffffffffffffffffffff166364a197f38560a00151836040518363ffffffff1660e01b8152600401808373ffffffffffffffffffffffffffffffffffffffff1673ffffffffffffffffffffffffffffffffffffffff16815260200182815260200192505050600060405180830381600087803b15801561896957600080fd5b505af115801561897d573d6000803e3d6000fd5b5050505050505050565b60006189a5680ad78ebc5ac620000083614daf90919063ffffffff16565b9050919050565b600181118015618a5e57506001600b60009054906101000a900473ffffffffffffffffffffffffffffffffffffffff1673ffffffffffffffffffffffffffffffffffffffff1663de8fa4316040518163ffffffff1660e01b815260040160206040518083038186803b158015618a2157600080fd5b505afa158015618a35573d6000803e3d6000fd5b505050506040513d6020811015618a4b57600080fd5b8101908080519060200190929190505050115b618ab3576040517f08c379a000000000000000000000000000000000000000000000000000000000815260040180806020018281038252602a815260200180619249602a913960400191505060405180910390fd5b50565b6000600e60008473ffffffffffffffffffffffffffffffffffffffff1673ffffffffffffffffffffffffffffffffffffffff16815260200190815260200160002060030160009054906101000a900460ff16905060006004811115618b1757fe5b816004811115618b2357fe5b14158015618b48575060016004811115618b3957fe5b816004811115618b4557fe5b14155b618b4e57fe5b6000600e60008573ffffffffffffffffffffffffffffffffffffffff1673ffffffffffffffffffffffffffffffffffffffff16815260200190815260200160002060030160019054906101000a90046fffffffffffffffffffffffffffffffff16905060008390506000618bcc600183614daf90919063ffffffff16565b905080836fffffffffffffffffffffffffffffffff161115618bea57fe5b600060158281548110618bf957fe5b9060005260206000200160009054906101000a900473ffffffffffffffffffffffffffffffffffffffff169050806015856fffffffffffffffffffffffffffffffff1681548110618c4657fe5b9060005260206000200160006101000a81548173ffffffffffffffffffffffffffffffffffffffff021916908373ffffffffffffffffffffffffffffffffffffffff16021790555083600e60008373ffffffffffffffffffffffffffffffffffffffff1673ffffffffffffffffffffffffffffffffffffffff16815260200190815260200160002060030160016101000a8154816fffffffffffffffffffffffffffffffff02191690836fffffffffffffffffffffffffffffffff1602179055507f02b04ae5f7be9ca7c103293a2aa15f3c339d15d6eda53b721fef7b0e609c831a8185604051808373ffffffffffffffffffffffffffffffffffffffff1673ffffffffffffffffffffffffffffffffffffffff168152602001826fffffffffffffffffffffffffffffffff1681526020019250505060405180910390a16015805480618d8f57fe5b6001900381819060005260206000200160006101000a81549073ffffffffffffffffffffffffffffffffffffffff0219169055905550505050505050565b600060c88281618dd957fe5b049050919050565b6000806000806000851115618e5257618dfa878661850e565b9350618e2187618e138689615c1790919063ffffffff16565b615c9d90919063ffffffff16565b9250618e368488614daf90919063ffffffff16565b9150618e4b8387614daf90919063ffffffff16565b9050618e61565b60009350600092508691508590505b93509350935093565b618e726191b2565b83816000018181525050828160200181815250506000618eb583618ea7670f43fc2c04ee000088615c1790919063ffffffff16565b615c9d90919063ffffffff16565b9050618ec081618dcd565b826040018181525050680ad78ebc5ac620000082606001818152505084826080018181525050618efd826040015182614daf90919063ffffffff16565b8260a0018181525050618f198185614daf90919063ffffffff16565b8261010001818152505060008260c001818152505060008260e0018181525050509392505050565b600080618f578385615c1790919063ffffffff16565b9050618f98670de0b6b3a7640000618f8a6002670de0b6b3a764000081618f7a57fe5b048461646d90919063ffffffff16565b615c9d90919063ffffffff16565b91505092915050565b6040518060a00160405280600081526020016000815260200160001515815260200160008152602001600081525090565b6040518061012001604052806000815260200160008152602001600081526020016000815260200160008152602001600081526020016000815260200160008152602001600081525090565b6040518060e00160405280600073ffffffffffffffffffffffffffffffffffffffff168152602001600073ffffffffffffffffffffffffffffffffffffffff168152602001600073ffffffffffffffffffffffffffffffffffffffff168152602001600073ffffffffffffffffffffffffffffffffffffffff168152602001600073ffffffffffffffffffffffffffffffffffffffff168152602001600073ffffffffffffffffffffffffffffffffffffffff168152602001600073ffffffffffffffffffffffffffffffffffffffff1681525090565b60405180610100016040528060008152602001600081526020016000815260200160008152602001600081526020016000815260200160008152602001600081525090565b604051806060016040528060008152602001600081526020016000151581525090565b6040518060e00160405280600081526020016000815260200160008152602001600073ffffffffffffffffffffffffffffffffffffffff16815260200160001515815260200160008152602001600081525090565b6040518061012001604052806000815260200160008152602001600081526020016000815260200160008152602001600081526020016000815260200160008152602001600081525090565b6040518060600160405280600081526020016000815260200160008152509056fe54726f76654d616e616765723a20556e61626c6520746f2072656465656d20616e7920616d6f756e7454726f76654d616e616765723a204f6e6c79206f6e652074726f766520696e207468652073797374656d54726f76654d616e616765723a20526564656d7074696f6e7320617265206e6f7420616c6c6f77656420647572696e6720626f6f747374726170207068617365536166654d6174683a206d756c7469706c69636174696f6e206f766572666c6f7754726f76654d616e616765723a2052657175657374656420726564656d7074696f6e20616d6f756e74206d757374206265203c3d20757365722773204c55534420746f6b656e2062616c616e636554726f76654d616e616765723a2043616c6c6572206973206e6f742074686520426f72726f7765724f7065726174696f6e7320636f6e747261637454726f76654d616e616765723a2043616c6c646174612061646472657373206172726179206d757374206e6f7420626520656d70747954726f76654d616e616765723a20416d6f756e74206d7573742062652067726561746572207468616e207a65726f54726f76654d616e616765723a2046656520776f756c642065617420757020616c6c2072657475726e656420636f6c6c61746572616c4d6178206665652070657263656e74616765206d757374206265206265747765656e20302e352520616e64203130302554726f76654d616e616765723a2043616e6e6f742072656465656d207768656e20544352203c204d435254726f76654d616e616765723a206e6f7468696e6720746f206c697175696461746554726f76654d616e616765723a2054726f766520646f6573206e6f74206578697374206f7220697320636c6f736564a2646970667358221220cf56e0d739ad2800f0dc7e100155bb7ecf1d9698a63a88868d2a03ae2c4aca0464736f6c634300060b0033608060405234801561001057600080fd5b5033600360006101000a81548173ffffffffffffffffffffffffffffffffffffffff021916908373ffffffffffffffffffffffffffffffffffffffff1602179055503373ffffffffffffffffffffffffffffffffffffffff16600073ffffffffffffffffffffffffffffffffffffffff167f8be0079c531659141344cd1fd0a4f28419497f9722a3daafe3b4186f6b6457e060405160405180910390a3615556806100bc6000396000f3fe6080604052600436106101e35760003560e01c8063761ab22c11610102578063a20baee611610095578063b83f91a211610064578063b83f91a214610b28578063c6a6cf2014610b7f578063ea9638bf14610c0d578063f92d343314610c91576101e3565b8063a20baee6146109bf578063a3a64017146109ea578063a3f4df7e14610a41578063ae91875414610ad1576101e3565b8063860665b3116100d1578063860665b314610896578063887105d31461090e5780638da5cb5b146109395780638f32d59b14610990576101e3565b8063761ab22c14610792578063794e5724146107e9578063795d26c3146108145780637f7dde4a1461083f576101e3565b80634ff814431161017a5780636c37a4af116101495780636c37a4af146105875780636f0b0c1c146106f957806372fe25aa14610710578063741bef1a1461073b576101e3565b80634ff814431461042e5780635530273c1461047d5780635733d58f146104f857806368647db114610523576101e3565b80632e86bbd8116101b65780632e86bbd81461032a5780633cc74225146103555780633d83908a146103ac5780634870dd9a14610403576101e3565b806304491fa7146101e85780630e704d50146102635780631184e5f81461027a5780631bf43555146102ff575b600080fd5b3480156101f457600080fd5b506102616004803603606081101561020b57600080fd5b8101908080359060200190929190803573ffffffffffffffffffffffffffffffffffffffff169060200190929190803573ffffffffffffffffffffffffffffffffffffffff169060200190929190505050610cbc565b005b34801561026f57600080fd5b50610278610cd3565b005b34801561028657600080fd5b506102fd6004803603608081101561029d57600080fd5b810190808035906020019092919080359060200190929190803573ffffffffffffffffffffffffffffffffffffffff169060200190929190803573ffffffffffffffffffffffffffffffffffffffff1690602001909291905050506112ff565b005b34801561030b57600080fd5b50610314611316565b6040518082815260200191505060405180910390f35b34801561033657600080fd5b5061033f611323565b6040518082815260200191505060405180910390f35b34801561036157600080fd5b5061036a611330565b604051808273ffffffffffffffffffffffffffffffffffffffff1673ffffffffffffffffffffffffffffffffffffffff16815260200191505060405180910390f35b3480156103b857600080fd5b506103c1611356565b604051808273ffffffffffffffffffffffffffffffffffffffff1673ffffffffffffffffffffffffffffffffffffffff16815260200191505060405180910390f35b34801561040f57600080fd5b5061041861137c565b6040518082815260200191505060405180910390f35b34801561043a57600080fd5b506104676004803603602081101561045157600080fd5b8101908080359060200190929190505050611381565b6040518082815260200191505060405180910390f35b34801561048957600080fd5b506104f6600480360360608110156104a057600080fd5b8101908080359060200190929190803573ffffffffffffffffffffffffffffffffffffffff169060200190929190803573ffffffffffffffffffffffffffffffffffffffff169060200190929190505050611393565b005b34801561050457600080fd5b5061050d6113a9565b6040518082815260200191505060405180910390f35b6105856004803603604081101561053957600080fd5b81019080803573ffffffffffffffffffffffffffffffffffffffff169060200190929190803573ffffffffffffffffffffffffffffffffffffffff1690602001909291905050506113b5565b005b34801561059357600080fd5b506106f760048036036101408110156105ab57600080fd5b81019080803573ffffffffffffffffffffffffffffffffffffffff169060200190929190803573ffffffffffffffffffffffffffffffffffffffff169060200190929190803573ffffffffffffffffffffffffffffffffffffffff169060200190929190803573ffffffffffffffffffffffffffffffffffffffff169060200190929190803573ffffffffffffffffffffffffffffffffffffffff169060200190929190803573ffffffffffffffffffffffffffffffffffffffff169060200190929190803573ffffffffffffffffffffffffffffffffffffffff169060200190929190803573ffffffffffffffffffffffffffffffffffffffff169060200190929190803573ffffffffffffffffffffffffffffffffffffffff169060200190929190803573ffffffffffffffffffffffffffffffffffffffff1690602001909291905050506113cb565b005b34801561070557600080fd5b5061070e611b6e565b005b34801561071c57600080fd5b50610725611c29565b6040518082815260200191505060405180910390f35b34801561074757600080fd5b50610750611c35565b604051808273ffffffffffffffffffffffffffffffffffffffff1673ffffffffffffffffffffffffffffffffffffffff16815260200191505060405180910390f35b34801561079e57600080fd5b506107a7611c5b565b604051808273ffffffffffffffffffffffffffffffffffffffff1673ffffffffffffffffffffffffffffffffffffffff16815260200191505060405180910390f35b3480156107f557600080fd5b506107fe611c81565b6040518082815260200191505060405180910390f35b34801561082057600080fd5b50610829611c8d565b6040518082815260200191505060405180910390f35b34801561084b57600080fd5b50610854611df5565b604051808273ffffffffffffffffffffffffffffffffffffffff1673ffffffffffffffffffffffffffffffffffffffff16815260200191505060405180910390f35b61090c600480360360808110156108ac57600080fd5b810190808035906020019092919080359060200190929190803573ffffffffffffffffffffffffffffffffffffffff169060200190929190803573ffffffffffffffffffffffffffffffffffffffff169060200190929190505050611e1a565b005b34801561091a57600080fd5b506109236127e8565b6040518082815260200191505060405180910390f35b34801561094557600080fd5b5061094e612950565b604051808273ffffffffffffffffffffffffffffffffffffffff1673ffffffffffffffffffffffffffffffffffffffff16815260200191505060405180910390f35b34801561099c57600080fd5b506109a561297a565b604051808215151515815260200191505060405180910390f35b3480156109cb57600080fd5b506109d46129d2565b6040518082815260200191505060405180910390f35b3480156109f657600080fd5b506109ff6129de565b604051808273ffffffffffffffffffffffffffffffffffffffff1673ffffffffffffffffffffffffffffffffffffffff16815260200191505060405180910390f35b348015610a4d57600080fd5b50610a56612a04565b6040518080602001828103825283818151815260200191508051906020019080838360005b83811015610a96578082015181840152602081019050610a7b565b50505050905090810190601f168015610ac35780820380516001836020036101000a031916815260200191505b509250505060405180910390f35b348015610add57600080fd5b50610ae6612a3d565b604051808273ffffffffffffffffffffffffffffffffffffffff1673ffffffffffffffffffffffffffffffffffffffff16815260200191505060405180910390f35b348015610b3457600080fd5b50610b3d612a63565b604051808273ffffffffffffffffffffffffffffffffffffffff1673ffffffffffffffffffffffffffffffffffffffff16815260200191505060405180910390f35b610c0b600480360360c0811015610b9557600080fd5b81019080803590602001909291908035906020019092919080359060200190929190803515159060200190929190803573ffffffffffffffffffffffffffffffffffffffff169060200190929190803573ffffffffffffffffffffffffffffffffffffffff169060200190929190505050612a89565b005b610c8f60048036036060811015610c2357600080fd5b81019080803573ffffffffffffffffffffffffffffffffffffffff169060200190929190803573ffffffffffffffffffffffffffffffffffffffff169060200190929190803573ffffffffffffffffffffffffffffffffffffffff169060200190929190505050612aa0565b005b348015610c9d57600080fd5b50610ca6612abf565b6040518082815260200191505060405180910390f35b610cce33600085600086866000612ad9565b505050565b6000600460009054906101000a900473ffffffffffffffffffffffffffffffffffffffff16905060008060009054906101000a900473ffffffffffffffffffffffffffffffffffffffff1690506000600a60009054906101000a900473ffffffffffffffffffffffffffffffffffffffff169050610d51833361340e565b6000600260009054906101000a900473ffffffffffffffffffffffffffffffffffffffff1673ffffffffffffffffffffffffffffffffffffffff16630fdb11cf6040518163ffffffff1660e01b8152600401602060405180830381600087803b158015610dbd57600080fd5b505af1158015610dd1573d6000803e3d6000fd5b505050506040513d6020811015610de757600080fd5b81019080805190602001909291905050509050610e0381613528565b8373ffffffffffffffffffffffffffffffffffffffff16630b076557336040518263ffffffff1660e01b8152600401808273ffffffffffffffffffffffffffffffffffffffff1673ffffffffffffffffffffffffffffffffffffffff168152602001915050600060405180830381600087803b158015610e8257600080fd5b505af1158015610e96573d6000803e3d6000fd5b5050505060008473ffffffffffffffffffffffffffffffffffffffff1663480cd578336040518263ffffffff1660e01b8152600401808273ffffffffffffffffffffffffffffffffffffffff1673ffffffffffffffffffffffffffffffffffffffff16815260200191505060206040518083038186803b158015610f1957600080fd5b505afa158015610f2d573d6000803e3d6000fd5b505050506040513d6020811015610f4357600080fd5b8101908080519060200190929190505050905060008573ffffffffffffffffffffffffffffffffffffffff1663d66a2553336040518263ffffffff1660e01b8152600401808273ffffffffffffffffffffffffffffffffffffffff1673ffffffffffffffffffffffffffffffffffffffff16815260200191505060206040518083038186803b158015610fd557600080fd5b505afa158015610fe9573d6000803e3d6000fd5b505050506040513d6020811015610fff57600080fd5b810190808051906020019092919050505090506110388433611033680ad78ebc5ac62000008561358a90919063ffffffff16565b6135d4565b6000611049836000846000886136e9565b905061105481613786565b8673ffffffffffffffffffffffffffffffffffffffff1663fe2ba848336040518263ffffffff1660e01b8152600401808273ffffffffffffffffffffffffffffffffffffffff1673ffffffffffffffffffffffffffffffffffffffff168152602001915050600060405180830381600087803b1580156110d357600080fd5b505af11580156110e7573d6000803e3d6000fd5b505050508673ffffffffffffffffffffffffffffffffffffffff1663cbd138ae336040518263ffffffff1660e01b8152600401808273ffffffffffffffffffffffffffffffffffffffff1673ffffffffffffffffffffffffffffffffffffffff168152602001915050600060405180830381600087803b15801561116a57600080fd5b505af115801561117e573d6000803e3d6000fd5b505050503373ffffffffffffffffffffffffffffffffffffffff167fc3770d654ed33aeea6bf11ac8ef05d02a6a04ed4686dd2f624d853bbec43cc8b60008060006001604051808581526020018481526020018381526020018260028111156111e357fe5b60ff16815260200194505050505060405180910390a261122086863361121b680ad78ebc5ac62000008761358a90919063ffffffff16565b6137ea565b6112578686600660009054906101000a900473ffffffffffffffffffffffffffffffffffffffff16680ad78ebc5ac62000006137ea565b8573ffffffffffffffffffffffffffffffffffffffff166364a197f333856040518363ffffffff1660e01b8152600401808373ffffffffffffffffffffffffffffffffffffffff1673ffffffffffffffffffffffffffffffffffffffff16815260200182815260200192505050600060405180830381600087803b1580156112de57600080fd5b505af11580156112f2573d6000803e3d6000fd5b5050505050505050505050565b61131033600085600186868a612ad9565b50505050565b686194049f30f720000081565b680ad78ebc5ac620000081565b600160009054906101000a900473ffffffffffffffffffffffffffffffffffffffff1681565b600460009054906101000a900473ffffffffffffffffffffffffffffffffffffffff1681565b60c881565b600061138c826138fa565b9050919050565b6113a4338460008086866000612ad9565b505050565b6714d1120d7b16000081565b6113c733600080600086866000612ad9565b5050565b6113d361297a565b611445576040517f08c379a00000000000000000000000000000000000000000000000000000000081526004018080602001828103825260208152602001807f4f776e61626c653a2063616c6c6572206973206e6f7420746865206f776e657281525060200191505060405180910390fd5b6000686194049f30f72000001161145857fe5b6114618a61391f565b61146a8961391f565b6114738861391f565b61147c8761391f565b6114858661391f565b61148e8561391f565b6114978461391f565b6114a08361391f565b6114a98261391f565b6114b28161391f565b89600460006101000a81548173ffffffffffffffffffffffffffffffffffffffff021916908373ffffffffffffffffffffffffffffffffffffffff160217905550886000806101000a81548173ffffffffffffffffffffffffffffffffffffffff021916908373ffffffffffffffffffffffffffffffffffffffff16021790555087600160006101000a81548173ffffffffffffffffffffffffffffffffffffffff021916908373ffffffffffffffffffffffffffffffffffffffff16021790555086600560006101000a81548173ffffffffffffffffffffffffffffffffffffffff021916908373ffffffffffffffffffffffffffffffffffffffff16021790555085600660006101000a81548173ffffffffffffffffffffffffffffffffffffffff021916908373ffffffffffffffffffffffffffffffffffffffff16021790555084600760006101000a81548173ffffffffffffffffffffffffffffffffffffffff021916908373ffffffffffffffffffffffffffffffffffffffff16021790555083600260006101000a81548173ffffffffffffffffffffffffffffffffffffffff021916908373ffffffffffffffffffffffffffffffffffffffff16021790555082600b60006101000a81548173ffffffffffffffffffffffffffffffffffffffff021916908373ffffffffffffffffffffffffffffffffffffffff16021790555081600a60006101000a81548173ffffffffffffffffffffffffffffffffffffffff021916908373ffffffffffffffffffffffffffffffffffffffff16021790555080600960006101000a81548173ffffffffffffffffffffffffffffffffffffffff021916908373ffffffffffffffffffffffffffffffffffffffff16021790555080600860006101000a81548173ffffffffffffffffffffffffffffffffffffffff021916908373ffffffffffffffffffffffffffffffffffffffff1602179055507f143219c9e69b09e07e095fcc889b43d8f46ca892bba65f08dc3a0050869a56788a604051808273ffffffffffffffffffffffffffffffffffffffff1673ffffffffffffffffffffffffffffffffffffffff16815260200191505060405180910390a17f78f058b189175430c48dc02699e3a0031ea4ff781536dc2fab847de4babdd88289604051808273ffffffffffffffffffffffffffffffffffffffff1673ffffffffffffffffffffffffffffffffffffffff16815260200191505060405180910390a17f5ee0cae2f063ed938bb55046f6a932fb6ae792bf43624806bb90abe68a50be9b88604051808273ffffffffffffffffffffffffffffffffffffffff1673ffffffffffffffffffffffffffffffffffffffff16815260200191505060405180910390a17f82966d27eea39b038ee0fa30cd16532bb24f6e65d31cb58fb227aa5766cdcc7f87604051808273ffffffffffffffffffffffffffffffffffffffff1673ffffffffffffffffffffffffffffffffffffffff16815260200191505060405180910390a17fcfb07d791fcafc032b35837b50eb84b74df518cf4cc287e8084f47630fa70fa086604051808273ffffffffffffffffffffffffffffffffffffffff1673ffffffffffffffffffffffffffffffffffffffff16815260200191505060405180910390a17fe67f36a6e961157d6eff83b91f3af5a62131ceb6f04954ef74f51c1c05e7f88d85604051808273ffffffffffffffffffffffffffffffffffffffff1673ffffffffffffffffffffffffffffffffffffffff16815260200191505060405180910390a17f8c537274438aa850a330284665d81a85dd38267d09e4050d416bfc94142db26484604051808273ffffffffffffffffffffffffffffffffffffffff1673ffffffffffffffffffffffffffffffffffffffff16815260200191505060405180910390a17f65f4cf077bc01e4742eb5ad98326f6e95b63548ea24b17f8d5e823111fe7880083604051808273ffffffffffffffffffffffffffffffffffffffff1673ffffffffffffffffffffffffffffffffffffffff16815260200191505060405180910390a17f227eec0ec317af6ab1a9587ffa1c84332522eb4c583a908f89babc05f8f339bd82604051808273ffffffffffffffffffffffffffffffffffffffff1673ffffffffffffffffffffffffffffffffffffffff16815260200191505060405180910390a17f756ebc192164c295bba134b5aacd72cc7aff8098a670d1f0a5f6b3a0b4ce670781604051808273ffffffffffffffffffffffffffffffffffffffff1673ffffffffffffffffffffffffffffffffffffffff16815260200191505060405180910390a1611b62613a42565b50505050505050505050565b600760009054906101000a900473ffffffffffffffffffffffffffffffffffffffff1673ffffffffffffffffffffffffffffffffffffffff1663b32beb5b336040518263ffffffff1660e01b8152600401808273ffffffffffffffffffffffffffffffffffffffff1673ffffffffffffffffffffffffffffffffffffffff168152602001915050600060405180830381600087803b158015611c0f57600080fd5b505af1158015611c23573d6000803e3d6000fd5b50505050565b670de0b6b3a764000081565b600260009054906101000a900473ffffffffffffffffffffffffffffffffffffffff1681565b600960009054906101000a900473ffffffffffffffffffffffffffffffffffffffff1681565b670f43fc2c04ee000081565b6000806000809054906101000a900473ffffffffffffffffffffffffffffffffffffffff1673ffffffffffffffffffffffffffffffffffffffff16635eb52fca6040518163ffffffff1660e01b815260040160206040518083038186803b158015611cf757600080fd5b505afa158015611d0b573d6000803e3d6000fd5b505050506040513d6020811015611d2157600080fd5b810190808051906020019092919050505090506000600160009054906101000a900473ffffffffffffffffffffffffffffffffffffffff1673ffffffffffffffffffffffffffffffffffffffff16635eb52fca6040518163ffffffff1660e01b815260040160206040518083038186803b158015611d9e57600080fd5b505afa158015611db2573d6000803e3d6000fd5b505050506040513d6020811015611dc857600080fd5b81019080805190602001909291905050509050611dee8183613b0390919063ffffffff16565b9250505090565b6000809054906101000a900473ffffffffffffffffffffffffffffffffffffffff1681565b611e22615022565b6040518060600160405280600460009054906101000a900473ffffffffffffffffffffffffffffffffffffffff1673ffffffffffffffffffffffffffffffffffffffff1681526020016000809054906101000a900473ffffffffffffffffffffffffffffffffffffffff1673ffffffffffffffffffffffffffffffffffffffff168152602001600a60009054906101000a900473ffffffffffffffffffffffffffffffffffffffff1673ffffffffffffffffffffffffffffffffffffffff168152509050611eee615085565b600260009054906101000a900473ffffffffffffffffffffffffffffffffffffffff1673ffffffffffffffffffffffffffffffffffffffff16630fdb11cf6040518163ffffffff1660e01b8152600401602060405180830381600087803b158015611f5857600080fd5b505af1158015611f6c573d6000803e3d6000fd5b505050506040513d6020811015611f8257600080fd5b81019080805190602001909291905050508160000181815250506000611fab8260000151613b8b565b9050611fb78782613bac565b611fc5836000015133613ca0565b816020015150858260400181815250508061201c57611fee83600001518460400151888a613dd8565b82602001818152505061201282602001518360400151613b0390919063ffffffff16565b8260400181815250505b612029826040015161402f565b61203682604001516138fa565b826060018181525050600082606001511161204d57fe5b6120603483606001518460000151614094565b8260800181815250506120773483606001516140fb565b8260a00181815250508015612098576120938260800151614164565b6120cb565b6120a582608001516141c8565b60006120be3460018560600151600187600001516136e9565b90506120c981613786565b505b826000015173ffffffffffffffffffffffffffffffffffffffff16635d6b480f3360016040518363ffffffff1660e01b8152600401808373ffffffffffffffffffffffffffffffffffffffff1673ffffffffffffffffffffffffffffffffffffffff16815260200182815260200192505050600060405180830381600087803b15801561215757600080fd5b505af115801561216b573d6000803e3d6000fd5b50505050826000015173ffffffffffffffffffffffffffffffffffffffff166372423c1733346040518363ffffffff1660e01b8152600401808373ffffffffffffffffffffffffffffffffffffffff1673ffffffffffffffffffffffffffffffffffffffff16815260200182815260200192505050602060405180830381600087803b1580156121fa57600080fd5b505af115801561220e573d6000803e3d6000fd5b505050506040513d602081101561222457600080fd5b810190808051906020019092919050505050826000015173ffffffffffffffffffffffffffffffffffffffff16639976cf453384606001516040518363ffffffff1660e01b8152600401808373ffffffffffffffffffffffffffffffffffffffff1673ffffffffffffffffffffffffffffffffffffffff16815260200182815260200192505050602060405180830381600087803b1580156122c557600080fd5b505af11580156122d9573d6000803e3d6000fd5b505050506040513d60208110156122ef57600080fd5b810190808051906020019092919050505050826000015173ffffffffffffffffffffffffffffffffffffffff166382fe3eb9336040518263ffffffff1660e01b8152600401808273ffffffffffffffffffffffffffffffffffffffff1673ffffffffffffffffffffffffffffffffffffffff168152602001915050600060405180830381600087803b15801561238457600080fd5b505af1158015612398573d6000803e3d6000fd5b50505050826000015173ffffffffffffffffffffffffffffffffffffffff166318f2817a336040518263ffffffff1660e01b8152600401808273ffffffffffffffffffffffffffffffffffffffff1673ffffffffffffffffffffffffffffffffffffffff168152602001915050602060405180830381600087803b15801561241f57600080fd5b505af1158015612433573d6000803e3d6000fd5b505050506040513d602081101561244957600080fd5b81019080805190602001909291905050508260c0018181525050600b60009054906101000a900473ffffffffffffffffffffffffffffffffffffffff1673ffffffffffffffffffffffffffffffffffffffff166346f7cf87338460a0015188886040518563ffffffff1660e01b8152600401808573ffffffffffffffffffffffffffffffffffffffff1673ffffffffffffffffffffffffffffffffffffffff1681526020018481526020018373ffffffffffffffffffffffffffffffffffffffff1673ffffffffffffffffffffffffffffffffffffffff1681526020018273ffffffffffffffffffffffffffffffffffffffff1673ffffffffffffffffffffffffffffffffffffffff168152602001945050505050600060405180830381600087803b15801561257857600080fd5b505af115801561258c573d6000803e3d6000fd5b50505050826000015173ffffffffffffffffffffffffffffffffffffffff166315d549f1336040518263ffffffff1660e01b8152600401808273ffffffffffffffffffffffffffffffffffffffff1673ffffffffffffffffffffffffffffffffffffffff168152602001915050602060405180830381600087803b15801561261357600080fd5b505af1158015612627573d6000803e3d6000fd5b505050506040513d602081101561263d57600080fd5b81019080805190602001909291905050508260e00181815250503373ffffffffffffffffffffffffffffffffffffffff167f59cfd0cd754bc5748b6770e94a4ffa5f678d885cb899dcfadc5734edb97c67ab8360e001516040518082815260200191505060405180910390a26126b783602001513461422c565b6126d083602001518460400151338986604001516142f0565b61271083602001518460400151600660009054906101000a900473ffffffffffffffffffffffffffffffffffffffff16680ad78ebc5ac6200000806142f0565b3373ffffffffffffffffffffffffffffffffffffffff167fc3770d654ed33aeea6bf11ac8ef05d02a6a04ed4686dd2f624d853bbec43cc8b8360600151348560c0015160006040518085815260200184815260200183815260200182600281111561277757fe5b60ff16815260200194505050505060405180910390a23373ffffffffffffffffffffffffffffffffffffffff167fa55c5f48fd29482ad55f4b59bf070cd1ac1a7132a31f7a136ebe8877ae37e1ff83602001516040518082815260200191505060405180910390a250505050505050565b6000806000809054906101000a900473ffffffffffffffffffffffffffffffffffffffff1673ffffffffffffffffffffffffffffffffffffffff166314f6c3be6040518163ffffffff1660e01b815260040160206040518083038186803b15801561285257600080fd5b505afa158015612866573d6000803e3d6000fd5b505050506040513d602081101561287c57600080fd5b810190808051906020019092919050505090506000600160009054906101000a900473ffffffffffffffffffffffffffffffffffffffff1673ffffffffffffffffffffffffffffffffffffffff166314f6c3be6040518163ffffffff1660e01b815260040160206040518083038186803b1580156128f957600080fd5b505afa15801561290d573d6000803e3d6000fd5b505050506040513d602081101561292357600080fd5b810190808051906020019092919050505090506129498183613b0390919063ffffffff16565b9250505090565b6000600360009054906101000a900473ffffffffffffffffffffffffffffffffffffffff16905090565b6000600360009054906101000a900473ffffffffffffffffffffffffffffffffffffffff1673ffffffffffffffffffffffffffffffffffffffff163373ffffffffffffffffffffffffffffffffffffffff1614905090565b670de0b6b3a764000081565b600860009054906101000a900473ffffffffffffffffffffffffffffffffffffffff1681565b6040518060400160405280601281526020017f426f72726f7765724f7065726174696f6e73000000000000000000000000000081525081565b600b60009054906101000a900473ffffffffffffffffffffffffffffffffffffffff1681565b600a60009054906101000a900473ffffffffffffffffffffffffffffffffffffffff1681565b612a983386868686868c612ad9565b505050505050565b612aa8614401565b612aba83600080600086866000612ad9565b505050565b60056103e8670de0b6b3a764000081612ad457fe5b040281565b612ae1615022565b6040518060600160405280600460009054906101000a900473ffffffffffffffffffffffffffffffffffffffff1673ffffffffffffffffffffffffffffffffffffffff1681526020016000809054906101000a900473ffffffffffffffffffffffffffffffffffffffff1673ffffffffffffffffffffffffffffffffffffffff168152602001600a60009054906101000a900473ffffffffffffffffffffffffffffffffffffffff1673ffffffffffffffffffffffffffffffffffffffff168152509050612bad6150ca565b600260009054906101000a900473ffffffffffffffffffffffffffffffffffffffff1673ffffffffffffffffffffffffffffffffffffffff16630fdb11cf6040518163ffffffff1660e01b8152600401602060405180830381600087803b158015612c1757600080fd5b505af1158015612c2b573d6000803e3d6000fd5b505050506040513d6020811015612c4157600080fd5b81019080805190602001909291905050508160000181815250506000612c6a8260000151613b8b565b90508615612c8657612c7c8482613bac565b612c85886144a9565b5b612c8f89614505565b612c99898961456c565b612ca783600001518b61340e565b8973ffffffffffffffffffffffffffffffffffffffff163373ffffffffffffffffffffffffffffffffffffffff161480612d465750600560009054906101000a900473ffffffffffffffffffffffffffffffffffffffff1673ffffffffffffffffffffffffffffffffffffffff163373ffffffffffffffffffffffffffffffffffffffff16148015612d395750600034115b8015612d455750600088145b5b612d4c57fe5b826000015173ffffffffffffffffffffffffffffffffffffffff16630b0765578b6040518263ffffffff1660e01b8152600401808273ffffffffffffffffffffffffffffffffffffffff1673ffffffffffffffffffffffffffffffffffffffff168152602001915050600060405180830381600087803b158015612dcf57600080fd5b505af1158015612de3573d6000803e3d6000fd5b50505050612df1348a6145e2565b8360200184606001821515151581525082815250505087826040018181525050868015612e1c575080155b15612e6557612e35836000015184604001518a87613dd8565b82610120018181525050612e5b8261012001518360400151613b0390919063ffffffff16565b8260400181815250505b826000015173ffffffffffffffffffffffffffffffffffffffff1663d66a25538b6040518263ffffffff1660e01b8152600401808273ffffffffffffffffffffffffffffffffffffffff1673ffffffffffffffffffffffffffffffffffffffff16815260200191505060206040518083038186803b158015612ee657600080fd5b505afa158015612efa573d6000803e3d6000fd5b505050506040513d6020811015612f1057600080fd5b8101908080519060200190929190505050826080018181525050826000015173ffffffffffffffffffffffffffffffffffffffff1663480cd5788b6040518263ffffffff1660e01b8152600401808273ffffffffffffffffffffffffffffffffffffffff1673ffffffffffffffffffffffffffffffffffffffff16815260200191505060206040518083038186803b158015612fab57600080fd5b505afa158015612fbf573d6000803e3d6000fd5b505050506040513d6020811015612fd557600080fd5b81019080805190602001909291905050508260a00181815250506130068260a0015183608001518460000151614094565b8260c00181815250506130368260a0015183608001518460200151856060015186604001518c8860000151614604565b8260e00181815250508160a0015189111561304d57fe5b613059818a898561463b565b861580156130675750600088115b156130bd57613097613092836040015161308485608001516146be565b61358a90919063ffffffff16565b61402f565b6130a9826080015183604001516146e3565b6130bc83604001518b84604001516135d4565b5b6130db83600001518b8460200151856060015186604001518c61475b565b8361016001846101400182815250828152505050826000015173ffffffffffffffffffffffffffffffffffffffff166318f2817a8b6040518263ffffffff1660e01b8152600401808273ffffffffffffffffffffffffffffffffffffffff1673ffffffffffffffffffffffffffffffffffffffff168152602001915050602060405180830381600087803b15801561317257600080fd5b505af1158015613186573d6000803e3d6000fd5b505050506040513d602081101561319c57600080fd5b81019080805190602001909291905050508261018001818152505060006131db8360a0015184608001518560200151866060015187604001518d614a97565b9050600b60009054906101000a900473ffffffffffffffffffffffffffffffffffffffff1673ffffffffffffffffffffffffffffffffffffffff16632be212608c838a8a6040518563ffffffff1660e01b8152600401808573ffffffffffffffffffffffffffffffffffffffff1673ffffffffffffffffffffffffffffffffffffffff1681526020018481526020018373ffffffffffffffffffffffffffffffffffffffff1673ffffffffffffffffffffffffffffffffffffffff1681526020018273ffffffffffffffffffffffffffffffffffffffff1673ffffffffffffffffffffffffffffffffffffffff168152602001945050505050600060405180830381600087803b1580156132ee57600080fd5b505af1158015613302573d6000803e3d6000fd5b505050508a73ffffffffffffffffffffffffffffffffffffffff167fc3770d654ed33aeea6bf11ac8ef05d02a6a04ed4686dd2f624d853bbec43cc8b84610140015185610160015186610180015160026040518085815260200184815260200183815260200182600281111561337457fe5b60ff16815260200194505050505060405180910390a23373ffffffffffffffffffffffffffffffffffffffff167fa55c5f48fd29482ad55f4b59bf070cd1ac1a7132a31f7a136ebe8877ae37e1ff8461012001516040518082815260200191505060405180910390a26134018460200151856040015133866020015187606001518e8e8a60400151614acc565b5050505050505050505050565b60008273ffffffffffffffffffffffffffffffffffffffff166321e37801836040518263ffffffff1660e01b8152600401808273ffffffffffffffffffffffffffffffffffffffff1673ffffffffffffffffffffffffffffffffffffffff16815260200191505060206040518083038186803b15801561348d57600080fd5b505afa1580156134a1573d6000803e3d6000fd5b505050506040513d60208110156134b757600080fd5b8101908080519060200190929190505050905060018114613523576040517f08c379a000000000000000000000000000000000000000000000000000000000815260040180806020018281038252602e8152602001806152e4602e913960400191505060405180910390fd5b505050565b61353181613b8b565b15613587576040517f08c379a00000000000000000000000000000000000000000000000000000000081526004018080602001828103825260398152602001806151926039913960400191505060405180910390fd5b50565b60006135cc83836040518060400160405280601e81526020017f536166654d6174683a207375627472616374696f6e206f766572666c6f770000815250614bb0565b905092915050565b808373ffffffffffffffffffffffffffffffffffffffff166370a08231846040518263ffffffff1660e01b8152600401808273ffffffffffffffffffffffffffffffffffffffff1673ffffffffffffffffffffffffffffffffffffffff16815260200191505060206040518083038186803b15801561365257600080fd5b505afa158015613666573d6000803e3d6000fd5b505050506040513d602081101561367c57600080fd5b810190808051906020019092919050505010156136e4576040517f08c379a000000000000000000000000000000000000000000000000000000000815260040180806020018281038252603d815260200180615350603d913960400191505060405180910390fd5b505050565b6000806136f46127e8565b90506000613700611c8d565b90508661371f5761371a888361358a90919063ffffffff16565b613733565b6137328883613b0390919063ffffffff16565b5b9150846137525761374d868261358a90919063ffffffff16565b613766565b6137658682613b0390919063ffffffff16565b5b90506000613775838387614094565b905080935050505095945050505050565b6714d1120d7b1600008110156137e7576040517f08c379a000000000000000000000000000000000000000000000000000000000815260040180806020018281038252604981526020018061529b6049913960600191505060405180910390fd5b50565b8373ffffffffffffffffffffffffffffffffffffffff166338d995a8826040518263ffffffff1660e01b815260040180828152602001915050600060405180830381600087803b15801561383d57600080fd5b505af1158015613851573d6000803e3d6000fd5b505050508273ffffffffffffffffffffffffffffffffffffffff16639dc29fac83836040518363ffffffff1660e01b8152600401808373ffffffffffffffffffffffffffffffffffffffff1673ffffffffffffffffffffffffffffffffffffffff16815260200182815260200192505050600060405180830381600087803b1580156138dc57600080fd5b505af11580156138f0573d6000803e3d6000fd5b5050505050505050565b6000613918680ad78ebc5ac620000083613b0390919063ffffffff16565b9050919050565b600073ffffffffffffffffffffffffffffffffffffffff168173ffffffffffffffffffffffffffffffffffffffff1614156139c2576040517f08c379a000000000000000000000000000000000000000000000000000000000815260040180806020018281038252601e8152602001807f4163636f756e742063616e6e6f74206265207a65726f2061646472657373000081525060200191505060405180910390fd5b6000813b905060008111613a3e576040517f08c379a00000000000000000000000000000000000000000000000000000000081526004018080602001828103825260208152602001807f4163636f756e7420636f64652073697a652063616e6e6f74206265207a65726f81525060200191505060405180910390fd5b5050565b600073ffffffffffffffffffffffffffffffffffffffff16600360009054906101000a900473ffffffffffffffffffffffffffffffffffffffff1673ffffffffffffffffffffffffffffffffffffffff167f8be0079c531659141344cd1fd0a4f28419497f9722a3daafe3b4186f6b6457e060405160405180910390a36000600360006101000a81548173ffffffffffffffffffffffffffffffffffffffff021916908373ffffffffffffffffffffffffffffffffffffffff160217905550565b600080828401905083811015613b81576040517f08c379a000000000000000000000000000000000000000000000000000000000815260040180806020018281038252601b8152602001807f536166654d6174683a206164646974696f6e206f766572666c6f77000000000081525060200191505060405180910390fd5b8091505092915050565b600080613b9783614c70565b90506714d1120d7b1600008110915050919050565b8015613c1857670de0b6b3a7640000821115613c13576040517f08c379a00000000000000000000000000000000000000000000000000000000081526004018080602001828103825260328152602001806152026032913960400191505060405180910390fd5b613c9c565b60056103e8670de0b6b3a764000081613c2d57fe5b04028210158015613c465750670de0b6b3a76400008211155b613c9b576040517f08c379a000000000000000000000000000000000000000000000000000000000815260040180806020018281038252603081526020018061547c6030913960400191505060405180910390fd5b5b5050565b60008273ffffffffffffffffffffffffffffffffffffffff166321e37801836040518263ffffffff1660e01b8152600401808273ffffffffffffffffffffffffffffffffffffffff1673ffffffffffffffffffffffffffffffffffffffff16815260200191505060206040518083038186803b158015613d1f57600080fd5b505afa158015613d33573d6000803e3d6000fd5b505050506040513d6020811015613d4957600080fd5b810190808051906020019092919050505090506001811415613dd3576040517f08c379a000000000000000000000000000000000000000000000000000000000815260040180806020018281038252601c8152602001807f426f72726f7765724f70733a2054726f7665206973206163746976650000000081525060200191505060405180910390fd5b505050565b60008473ffffffffffffffffffffffffffffffffffffffff16635dba4c4a6040518163ffffffff1660e01b8152600401600060405180830381600087803b158015613e2257600080fd5b505af1158015613e36573d6000803e3d6000fd5b5050505060008573ffffffffffffffffffffffffffffffffffffffff1663631203b0856040518263ffffffff1660e01b81526004018082815260200191505060206040518083038186803b158015613e8d57600080fd5b505afa158015613ea1573d6000803e3d6000fd5b505050506040513d6020811015613eb757600080fd5b81019080805190602001909291905050509050613ed5818585614ca0565b600860009054906101000a900473ffffffffffffffffffffffffffffffffffffffff1673ffffffffffffffffffffffffffffffffffffffff16634677ffb3826040518263ffffffff1660e01b815260040180828152602001915050600060405180830381600087803b158015613f4a57600080fd5b505af1158015613f5e573d6000803e3d6000fd5b505050508473ffffffffffffffffffffffffffffffffffffffff166340c10f19600960009054906101000a900473ffffffffffffffffffffffffffffffffffffffff16836040518363ffffffff1660e01b8152600401808373ffffffffffffffffffffffffffffffffffffffff1673ffffffffffffffffffffffffffffffffffffffff16815260200182815260200192505050600060405180830381600087803b15801561400b57600080fd5b505af115801561401f573d6000803e3d6000fd5b5050505080915050949350505050565b686194049f30f7200000811015614091576040517f08c379a000000000000000000000000000000000000000000000000000000000815260040180806020018281038252603a8152602001806153d6603a913960400191505060405180910390fd5b50565b6000808311156140d05760006140c5846140b78588614d4d90919063ffffffff16565b614dd390919063ffffffff16565b9050809150506140f4565b7fffffffffffffffffffffffffffffffffffffffffffffffffffffffffffffffff90505b9392505050565b60008082111561413a576141338261412568056bc75e2d6310000086614d4d90919063ffffffff16565b614dd390919063ffffffff16565b905061415e565b7fffffffffffffffffffffffffffffffffffffffffffffffffffffffffffffffff90505b92915050565b6714d1120d7b1600008110156141c5576040517f08c379a00000000000000000000000000000000000000000000000000000000081526004018080602001828103825260378152602001806151cb6037913960400191505060405180910390fd5b50565b670f43fc2c04ee0000811015614229576040517f08c379a000000000000000000000000000000000000000000000000000000000815260040180806020018281038252604981526020018061538d6049913960600191505060405180910390fd5b50565b60008273ffffffffffffffffffffffffffffffffffffffff168260405180600001905060006040518083038185875af1925050503d806000811461428c576040519150601f19603f3d011682016040523d82523d6000602084013e614291565b606091505b50509050806142eb576040517f08c379a000000000000000000000000000000000000000000000000000000000815260040180806020018281038252602d815260200180615135602d913960400191505060405180910390fd5b505050565b8473ffffffffffffffffffffffffffffffffffffffff1663cfb9329a826040518263ffffffff1660e01b815260040180828152602001915050600060405180830381600087803b15801561434357600080fd5b505af1158015614357573d6000803e3d6000fd5b505050508373ffffffffffffffffffffffffffffffffffffffff166340c10f1984846040518363ffffffff1660e01b8152600401808373ffffffffffffffffffffffffffffffffffffffff1673ffffffffffffffffffffffffffffffffffffffff16815260200182815260200192505050600060405180830381600087803b1580156143e257600080fd5b505af11580156143f6573d6000803e3d6000fd5b505050505050505050565b600560009054906101000a900473ffffffffffffffffffffffffffffffffffffffff1673ffffffffffffffffffffffffffffffffffffffff163373ffffffffffffffffffffffffffffffffffffffff16146144a7576040517f08c379a00000000000000000000000000000000000000000000000000000000081526004018080602001828103825260298152602001806154536029913960400191505060405180910390fd5b565b60008111614502576040517f08c379a00000000000000000000000000000000000000000000000000000000081526004018080602001828103825260378152602001806154ac6037913960400191505060405180910390fd5b50565b60003414806145145750600081145b614569576040517f08c379a00000000000000000000000000000000000000000000000000000000081526004018080602001828103825260308152602001806151626030913960400191505060405180910390fd5b50565b60003414158061457d575060008214155b80614589575060008114155b6145de576040517f08c379a00000000000000000000000000000000000000000000000000000000081526004018080602001828103825260468152602001806152346046913960600191505060405180910390fd5b5050565b600080600084146145f957839150600190506145fd565b8291505b9250929050565b60008060006146178a8a8a8a8a8a614e1d565b915091506000614628838387614094565b9050809350505050979650505050505050565b83156146755761464a83614ea3565b81156146705761465d8160e00151614164565b61466f8160e001518260c00151614eff565b5b6146b8565b6146828160e001516141c8565b61469f8160200151826060015183604001518585600001516136e9565b816101000181815250506146b7816101000151613786565b5b50505050565b60006146dc680ad78ebc5ac62000008361358a90919063ffffffff16565b9050919050565b6146ff680ad78ebc5ac62000008361358a90919063ffffffff16565b811115614757576040517f08c379a00000000000000000000000000000000000000000000000000000000081526004018080602001828103825260438152602001806154106043913960600191505060405180910390fd5b5050565b60008060008561482c578873ffffffffffffffffffffffffffffffffffffffff1663d3d6f84389896040518363ffffffff1660e01b8152600401808373ffffffffffffffffffffffffffffffffffffffff1673ffffffffffffffffffffffffffffffffffffffff16815260200182815260200192505050602060405180830381600087803b1580156147ec57600080fd5b505af1158015614800573d6000803e3d6000fd5b505050506040513d602081101561481657600080fd5b81019080805190602001909291905050506148ef565b8873ffffffffffffffffffffffffffffffffffffffff166372423c1789896040518363ffffffff1660e01b8152600401808373ffffffffffffffffffffffffffffffffffffffff1673ffffffffffffffffffffffffffffffffffffffff16815260200182815260200192505050602060405180830381600087803b1580156148b357600080fd5b505af11580156148c7573d6000803e3d6000fd5b505050506040513d60208110156148dd57600080fd5b81019080805190602001909291905050505b90506000846149bf578973ffffffffffffffffffffffffffffffffffffffff166312610e928a886040518363ffffffff1660e01b8152600401808373ffffffffffffffffffffffffffffffffffffffff1673ffffffffffffffffffffffffffffffffffffffff16815260200182815260200192505050602060405180830381600087803b15801561497f57600080fd5b505af1158015614993573d6000803e3d6000fd5b505050506040513d60208110156149a957600080fd5b8101908080519060200190929190505050614a82565b8973ffffffffffffffffffffffffffffffffffffffff16639976cf458a886040518363ffffffff1660e01b8152600401808373ffffffffffffffffffffffffffffffffffffffff1673ffffffffffffffffffffffffffffffffffffffff16815260200182815260200192505050602060405180830381600087803b158015614a4657600080fd5b505af1158015614a5a573d6000803e3d6000fd5b505050506040513d6020811015614a7057600080fd5b81019080805190602001909291905050505b90508181935093505050965096945050505050565b6000806000614aaa898989898989614e1d565b915091506000614aba83836140fb565b90508093505050509695505050505050565b8115614ae457614adf88888886856142f0565b614af1565b614af0888888866137ea565b5b8315614b0657614b01888661422c565b614ba6565b8773ffffffffffffffffffffffffffffffffffffffff166364a197f387876040518363ffffffff1660e01b8152600401808373ffffffffffffffffffffffffffffffffffffffff1673ffffffffffffffffffffffffffffffffffffffff16815260200182815260200192505050600060405180830381600087803b158015614b8d57600080fd5b505af1158015614ba1573d6000803e3d6000fd5b505050505b5050505050505050565b6000838311158290614c5d576040517f08c379a00000000000000000000000000000000000000000000000000000000081526004018080602001828103825283818151815260200191508051906020019080838360005b83811015614c22578082015181840152602081019050614c07565b50505050905090810190601f168015614c4f5780820380516001836020036101000a031916815260200191505b509250505060405180910390fd5b5060008385039050809150509392505050565b600080614c7b6127e8565b90506000614c87611c8d565b9050614c94828286614094565b92508292505050919050565b6000614ccf83614cc1670de0b6b3a764000087614d4d90919063ffffffff16565b614dd390919063ffffffff16565b905081811115614d47576040517f08c379a000000000000000000000000000000000000000000000000000000000815260040180806020018281038252601d8152602001807f4665652065786365656465642070726f7669646564206d6178696d756d00000081525060200191505060405180910390fd5b50505050565b600080831415614d605760009050614dcd565b6000828402905082848281614d7157fe5b0414614dc8576040517f08c379a000000000000000000000000000000000000000000000000000000000815260040180806020018281038252602181526020018061527a6021913960400191505060405180910390fd5b809150505b92915050565b6000614e1583836040518060400160405280601a81526020017f536166654d6174683a206469766973696f6e206279207a65726f000000000000815250614f5c565b905092915050565b6000806000889050600088905086614e4757614e42888b61358a90919063ffffffff16565b614e5b565b614e5a888b613b0390919063ffffffff16565b5b915084614e7a57614e75868a61358a90919063ffffffff16565b614e8e565b614e8d868a613b0390919063ffffffff16565b5b90508181935093505050965096945050505050565b60008114614efc576040517f08c379a000000000000000000000000000000000000000000000000000000000815260040180806020018281038252603e815260200180615312603e913960400191505060405180910390fd5b50565b80821015614f58576040517f08c379a000000000000000000000000000000000000000000000000000000000815260040180806020018281038252603e8152602001806154e3603e913960400191505060405180910390fd5b5050565b60008083118290615008576040517f08c379a00000000000000000000000000000000000000000000000000000000081526004018080602001828103825283818151815260200191508051906020019080838360005b83811015614fcd578082015181840152602081019050614fb2565b50505050905090810190601f168015614ffa5780820380516001836020036101000a031916815260200191505b509250505060405180910390fd5b50600083858161501457fe5b049050809150509392505050565b6040518060600160405280600073ffffffffffffffffffffffffffffffffffffffff168152602001600073ffffffffffffffffffffffffffffffffffffffff168152602001600073ffffffffffffffffffffffffffffffffffffffff1681525090565b60405180610100016040528060008152602001600081526020016000815260200160008152602001600081526020016000815260200160008152602001600081525090565b604051806101a00160405280600081526020016000815260200160008152602001600015158152602001600081526020016000815260200160008152602001600081526020016000815260200160008152602001600081526020016000815260200160008152509056fe426f72726f7765724f70733a2053656e64696e672045544820746f20416374697665506f6f6c206661696c6564426f72726f7765724f7065726174696f6e733a2043616e6e6f7420776974686472617720616e642061646420636f6c6c426f72726f7765724f70733a204f7065726174696f6e206e6f74207065726d697474656420647572696e67205265636f76657279204d6f6465426f72726f7765724f70733a204f7065726174696f6e206d757374206c656176652074726f7665207769746820494352203e3d204343524d6178206665652070657263656e74616765206d757374206c657373207468616e206f7220657175616c20746f2031303025426f72726f7765724f70733a205468657265206d75737420626520656974686572206120636f6c6c61746572616c206368616e6765206f7220612064656274206368616e6765536166654d6174683a206d756c7469706c69636174696f6e206f766572666c6f77426f72726f7765724f70733a20416e206f7065726174696f6e207468617420776f756c6420726573756c7420696e20544352203c20434352206973206e6f74207065726d6974746564426f72726f7765724f70733a2054726f766520646f6573206e6f74206578697374206f7220697320636c6f736564426f72726f7765724f70733a20436f6c6c61746572616c207769746864726177616c206e6f74207065726d6974746564205265636f76657279204d6f6465426f72726f7765724f70733a2043616c6c657220646f65736e74206861766520656e6f756768204c55534420746f206d616b652072657061796d656e74426f72726f7765724f70733a20416e206f7065726174696f6e207468617420776f756c6420726573756c7420696e20494352203c204d4352206973206e6f74207065726d6974746564426f72726f7765724f70733a2054726f76652773206e65742064656274206d7573742062652067726561746572207468616e206d696e696d756d426f72726f7765724f70733a20416d6f756e7420726570616964206d757374206e6f74206265206c6172676572207468616e207468652054726f766527732064656274426f72726f7765724f70733a2043616c6c6572206973206e6f742053746162696c69747920506f6f6c4d6178206665652070657263656e74616765206d757374206265206265747765656e20302e352520616e642031303025426f72726f7765724f70733a204465627420696e637265617365207265717569726573206e6f6e2d7a65726f20646562744368616e6765426f72726f7765724f70733a2043616e6e6f7420646563726561736520796f75722054726f766527732049435220696e205265636f76657279204d6f6465a2646970667358221220f3ccad8b04bda0174fd6bb3dc64bacefd078b43cf4b3695b610bad52e6b040ee64736f6c634300060b0033608060405234801561001057600080fd5b50336000806101000a81548173ffffffffffffffffffffffffffffffffffffffff021916908373ffffffffffffffffffffffffffffffffffffffff1602179055503373ffffffffffffffffffffffffffffffffffffffff16600073ffffffffffffffffffffffffffffffffffffffff167f8be0079c531659141344cd1fd0a4f28419497f9722a3daafe3b4186f6b6457e060405160405180910390a3611446806100bb6000396000f3fe6080604052600436106100c65760003560e01c806364a197f31161007f578063a3f4df7e11610059578063a3f4df7e146103ff578063aac1846f1461048f578063b7f8cf9b146104e6578063cfb9329a1461053d57610129565b806364a197f31461031e5780638da5cb5b146103795780638f32d59b146103d057610129565b80630b622ab21461012e57806314f6c3be1461018557806338d995a8146101b05780634a945f8d146101eb5780635a4d28bb1461029c5780635eb52fca146102f357610129565b36610129576100d3610578565b6100e83460055461067890919063ffffffff16565b6005819055507fca232b5abb988c540b959ff6c3bfae3e97fff964fd098c508f9613c0a6bf1a806005546040518082815260200191505060405180910390a1005b600080fd5b34801561013a57600080fd5b50610143610700565b604051808273ffffffffffffffffffffffffffffffffffffffff1673ffffffffffffffffffffffffffffffffffffffff16815260200191505060405180910390f35b34801561019157600080fd5b5061019a610726565b6040518082815260200191505060405180910390f35b3480156101bc57600080fd5b506101e9600480360360208110156101d357600080fd5b8101908080359060200190929190505050610730565b005b3480156101f757600080fd5b5061029a6004803603608081101561020e57600080fd5b81019080803573ffffffffffffffffffffffffffffffffffffffff169060200190929190803573ffffffffffffffffffffffffffffffffffffffff169060200190929190803573ffffffffffffffffffffffffffffffffffffffff169060200190929190803573ffffffffffffffffffffffffffffffffffffffff16906020019092919050505061078f565b005b3480156102a857600080fd5b506102b1610acb565b604051808273ffffffffffffffffffffffffffffffffffffffff1673ffffffffffffffffffffffffffffffffffffffff16815260200191505060405180910390f35b3480156102ff57600080fd5b50610308610af1565b6040518082815260200191505060405180910390f35b34801561032a57600080fd5b506103776004803603604081101561034157600080fd5b81019080803573ffffffffffffffffffffffffffffffffffffffff16906020019092919080359060200190929190505050610afb565b005b34801561038557600080fd5b5061038e610ca3565b604051808273ffffffffffffffffffffffffffffffffffffffff1673ffffffffffffffffffffffffffffffffffffffff16815260200191505060405180910390f35b3480156103dc57600080fd5b506103e5610ccc565b604051808215151515815260200191505060405180910390f35b34801561040b57600080fd5b50610414610d23565b6040518080602001828103825283818151815260200191508051906020019080838360005b83811015610454578082015181840152602081019050610439565b50505050905090810190601f1680156104815780820380516001836020036101000a031916815260200191505b509250505060405180910390f35b34801561049b57600080fd5b506104a4610d5c565b604051808273ffffffffffffffffffffffffffffffffffffffff1673ffffffffffffffffffffffffffffffffffffffff16815260200191505060405180910390f35b3480156104f257600080fd5b506104fb610d82565b604051808273ffffffffffffffffffffffffffffffffffffffff1673ffffffffffffffffffffffffffffffffffffffff16815260200191505060405180910390f35b34801561054957600080fd5b506105766004803603602081101561056057600080fd5b8101908080359060200190929190505050610da8565b005b600160009054906101000a900473ffffffffffffffffffffffffffffffffffffffff1673ffffffffffffffffffffffffffffffffffffffff163373ffffffffffffffffffffffffffffffffffffffff1614806106215750600460009054906101000a900473ffffffffffffffffffffffffffffffffffffffff1673ffffffffffffffffffffffffffffffffffffffff163373ffffffffffffffffffffffffffffffffffffffff16145b610676576040517f08c379a00000000000000000000000000000000000000000000000000000000081526004018080602001828103825260318152602001806113e06031913960400191505060405180910390fd5b565b6000808284019050838110156106f6576040517f08c379a000000000000000000000000000000000000000000000000000000000815260040180806020018281038252601b8152602001807f536166654d6174683a206164646974696f6e206f766572666c6f77000000000081525060200191505060405180910390fd5b8091505092915050565b600360009054906101000a900473ffffffffffffffffffffffffffffffffffffffff1681565b6000600554905090565b610738610e07565b61074d81600654610f5f90919063ffffffff16565b6006819055507f0d4c964e4ceac5d740869d39789a7b91888a787b9c33e9365b1a658a21ffb6966006546040518082815260200191505060405180910390a150565b610797610ccc565b610809576040517f08c379a00000000000000000000000000000000000000000000000000000000081526004018080602001828103825260208152602001807f4f776e61626c653a2063616c6c6572206973206e6f7420746865206f776e657281525060200191505060405180910390fd5b61081284610fa9565b61081b83610fa9565b61082482610fa9565b61082d81610fa9565b83600160006101000a81548173ffffffffffffffffffffffffffffffffffffffff021916908373ffffffffffffffffffffffffffffffffffffffff16021790555082600260006101000a81548173ffffffffffffffffffffffffffffffffffffffff021916908373ffffffffffffffffffffffffffffffffffffffff16021790555081600360006101000a81548173ffffffffffffffffffffffffffffffffffffffff021916908373ffffffffffffffffffffffffffffffffffffffff16021790555080600460006101000a81548173ffffffffffffffffffffffffffffffffffffffff021916908373ffffffffffffffffffffffffffffffffffffffff1602179055507f3ca631ffcd2a9b5d9ae18543fc82f58eb4ca33af9e6ab01b7a8e95331e6ed98584604051808273ffffffffffffffffffffffffffffffffffffffff1673ffffffffffffffffffffffffffffffffffffffff16815260200191505060405180910390a17f143219c9e69b09e07e095fcc889b43d8f46ca892bba65f08dc3a0050869a567883604051808273ffffffffffffffffffffffffffffffffffffffff1673ffffffffffffffffffffffffffffffffffffffff16815260200191505060405180910390a17f82966d27eea39b038ee0fa30cd16532bb24f6e65d31cb58fb227aa5766cdcc7f82604051808273ffffffffffffffffffffffffffffffffffffffff1673ffffffffffffffffffffffffffffffffffffffff16815260200191505060405180910390a17f5ee0cae2f063ed938bb55046f6a932fb6ae792bf43624806bb90abe68a50be9b81604051808273ffffffffffffffffffffffffffffffffffffffff1673ffffffffffffffffffffffffffffffffffffffff16815260200191505060405180910390a1610ac56110cc565b50505050565b600260009054906101000a900473ffffffffffffffffffffffffffffffffffffffff1681565b6000600654905090565b610b03610e07565b610b1881600554610f5f90919063ffffffff16565b6005819055507fca232b5abb988c540b959ff6c3bfae3e97fff964fd098c508f9613c0a6bf1a806005546040518082815260200191505060405180910390a17f6109e2559dfa766aaec7118351d48a523f0a4157f49c8d68749c8ac41318ad128282604051808373ffffffffffffffffffffffffffffffffffffffff1673ffffffffffffffffffffffffffffffffffffffff1681526020018281526020019250505060405180910390a160008273ffffffffffffffffffffffffffffffffffffffff168260405180600001905060006040518083038185875af1925050503d8060008114610c22576040519150601f19603f3d011682016040523d82523d6000602084013e610c27565b606091505b5050905080610c9e576040517f08c379a000000000000000000000000000000000000000000000000000000000815260040180806020018281038252601e8152602001807f416374697665506f6f6c3a2073656e64696e6720455448206661696c6564000081525060200191505060405180910390fd5b505050565b60008060009054906101000a900473ffffffffffffffffffffffffffffffffffffffff16905090565b60008060009054906101000a900473ffffffffffffffffffffffffffffffffffffffff1673ffffffffffffffffffffffffffffffffffffffff163373ffffffffffffffffffffffffffffffffffffffff1614905090565b6040518060400160405280600a81526020017f416374697665506f6f6c0000000000000000000000000000000000000000000081525081565b600460009054906101000a900473ffffffffffffffffffffffffffffffffffffffff1681565b600160009054906101000a900473ffffffffffffffffffffffffffffffffffffffff1681565b610db061118b565b610dc58160065461067890919063ffffffff16565b6006819055507f0d4c964e4ceac5d740869d39789a7b91888a787b9c33e9365b1a658a21ffb6966006546040518082815260200191505060405180910390a150565b600160009054906101000a900473ffffffffffffffffffffffffffffffffffffffff1673ffffffffffffffffffffffffffffffffffffffff163373ffffffffffffffffffffffffffffffffffffffff161480610eb05750600260009054906101000a900473ffffffffffffffffffffffffffffffffffffffff1673ffffffffffffffffffffffffffffffffffffffff163373ffffffffffffffffffffffffffffffffffffffff16145b80610f085750600360009054906101000a900473ffffffffffffffffffffffffffffffffffffffff1673ffffffffffffffffffffffffffffffffffffffff163373ffffffffffffffffffffffffffffffffffffffff16145b610f5d576040517f08c379a000000000000000000000000000000000000000000000000000000000815260040180806020018281038252605381526020018061138d6053913960600191505060405180910390fd5b565b6000610fa183836040518060400160405280601e81526020017f536166654d6174683a207375627472616374696f6e206f766572666c6f77000081525061128b565b905092915050565b600073ffffffffffffffffffffffffffffffffffffffff168173ffffffffffffffffffffffffffffffffffffffff16141561104c576040517f08c379a000000000000000000000000000000000000000000000000000000000815260040180806020018281038252601e8152602001807f4163636f756e742063616e6e6f74206265207a65726f2061646472657373000081525060200191505060405180910390fd5b6000813b9050600081116110c8576040517f08c379a00000000000000000000000000000000000000000000000000000000081526004018080602001828103825260208152602001807f4163636f756e7420636f64652073697a652063616e6e6f74206265207a65726f81525060200191505060405180910390fd5b5050565b600073ffffffffffffffffffffffffffffffffffffffff166000809054906101000a900473ffffffffffffffffffffffffffffffffffffffff1673ffffffffffffffffffffffffffffffffffffffff167f8be0079c531659141344cd1fd0a4f28419497f9722a3daafe3b4186f6b6457e060405160405180910390a360008060006101000a81548173ffffffffffffffffffffffffffffffffffffffff021916908373ffffffffffffffffffffffffffffffffffffffff160217905550565b600160009054906101000a900473ffffffffffffffffffffffffffffffffffffffff1673ffffffffffffffffffffffffffffffffffffffff163373ffffffffffffffffffffffffffffffffffffffff1614806112345750600260009054906101000a900473ffffffffffffffffffffffffffffffffffffffff1673ffffffffffffffffffffffffffffffffffffffff163373ffffffffffffffffffffffffffffffffffffffff16145b611289576040517f08c379a000000000000000000000000000000000000000000000000000000000815260040180806020018281038252604181526020018061134c6041913960600191505060405180910390fd5b565b6000838311158290611338576040517f08c379a00000000000000000000000000000000000000000000000000000000081526004018080602001828103825283818151815260200191508051906020019080838360005b838110156112fd5780820151818401526020810190506112e2565b50505050905090810190601f16801561132a5780820380516001836020036101000a031916815260200191505b509250505060405180910390fd5b506000838503905080915050939250505056fe416374697665506f6f6c3a2043616c6c6572206973206e65697468657220426f72726f7765724f7065726174696f6e73206e6f722054726f76654d616e61676572416374697665506f6f6c3a2043616c6c6572206973206e65697468657220426f72726f7765724f7065726174696f6e73206e6f722054726f76654d616e61676572206e6f722053746162696c697479506f6f6c416374697665506f6f6c3a2043616c6c6572206973206e65697468657220424f206e6f722044656661756c7420506f6f6ca264697066735822122080c71cfa4ee254570fe461a31f37b5863fa8641cefffa56eb66e4d68a12c5fa964736f6c634300060b0033608060405234801561001057600080fd5b50336000806101000a81548173ffffffffffffffffffffffffffffffffffffffff021916908373ffffffffffffffffffffffffffffffffffffffff1602179055503373ffffffffffffffffffffffffffffffffffffffff16600073ffffffffffffffffffffffffffffffffffffffff167f8be0079c531659141344cd1fd0a4f28419497f9722a3daafe3b4186f6b6457e060405160405180910390a3610f18806100bb6000396000f3fe6080604052600436106100a05760003560e01c80638f32d59b116100645780638f32d59b1461024757806390107afe14610276578063a3f4df7e146102e7578063b08bc72214610377578063be41205f146103ce578063cfb9329a1461040957610103565b806314f6c3be1461010857806338d995a8146101335780635a4d28bb1461016e5780635eb52fca146101c55780638da5cb5b146101f057610103565b36610103576100ad610444565b6100c2346003546104ec90919063ffffffff16565b6003819055507f9a14ae677a60400af9176bed2e2d5ce8dfa6405e6c1702debb27668f567214286003546040518082815260200191505060405180910390a1005b600080fd5b34801561011457600080fd5b5061011d610574565b6040518082815260200191505060405180910390f35b34801561013f57600080fd5b5061016c6004803603602081101561015657600080fd5b810190808035906020019092919050505061057e565b005b34801561017a57600080fd5b506101836105dd565b604051808273ffffffffffffffffffffffffffffffffffffffff1673ffffffffffffffffffffffffffffffffffffffff16815260200191505060405180910390f35b3480156101d157600080fd5b506101da610603565b6040518082815260200191505060405180910390f35b3480156101fc57600080fd5b5061020561060d565b604051808273ffffffffffffffffffffffffffffffffffffffff1673ffffffffffffffffffffffffffffffffffffffff16815260200191505060405180910390f35b34801561025357600080fd5b5061025c610636565b604051808215151515815260200191505060405180910390f35b34801561028257600080fd5b506102e56004803603604081101561029957600080fd5b81019080803573ffffffffffffffffffffffffffffffffffffffff169060200190929190803573ffffffffffffffffffffffffffffffffffffffff16906020019092919050505061068d565b005b3480156102f357600080fd5b506102fc61086d565b6040518080602001828103825283818151815260200191508051906020019080838360005b8381101561033c578082015181840152602081019050610321565b50505050905090810190601f1680156103695780820380516001836020036101000a031916815260200191505b509250505060405180910390f35b34801561038357600080fd5b5061038c6108a6565b604051808273ffffffffffffffffffffffffffffffffffffffff1673ffffffffffffffffffffffffffffffffffffffff16815260200191505060405180910390f35b3480156103da57600080fd5b50610407600480360360208110156103f157600080fd5b81019080803590602001909291905050506108cc565b005b34801561041557600080fd5b506104426004803603602081101561042c57600080fd5b8101908080359060200190929190505050610a9b565b005b600260009054906101000a900473ffffffffffffffffffffffffffffffffffffffff1673ffffffffffffffffffffffffffffffffffffffff163373ffffffffffffffffffffffffffffffffffffffff16146104ea576040517f08c379a0000000000000000000000000000000000000000000000000000000008152600401808060200182810382526029815260200180610e8f6029913960400191505060405180910390fd5b565b60008082840190508381101561056a576040517f08c379a000000000000000000000000000000000000000000000000000000000815260040180806020018281038252601b8152602001807f536166654d6174683a206164646974696f6e206f766572666c6f77000000000081525060200191505060405180910390fd5b8091505092915050565b6000600354905090565b610586610afa565b61059b81600454610ba290919063ffffffff16565b6004819055507f7735d8b9c0814a13884384c73ec31633f708b4b920b2158764c6b306541341256004546040518082815260200191505060405180910390a150565b600160009054906101000a900473ffffffffffffffffffffffffffffffffffffffff1681565b6000600454905090565b60008060009054906101000a900473ffffffffffffffffffffffffffffffffffffffff16905090565b60008060009054906101000a900473ffffffffffffffffffffffffffffffffffffffff1673ffffffffffffffffffffffffffffffffffffffff163373ffffffffffffffffffffffffffffffffffffffff1614905090565b610695610636565b610707576040517f08c379a00000000000000000000000000000000000000000000000000000000081526004018080602001828103825260208152602001807f4f776e61626c653a2063616c6c6572206973206e6f7420746865206f776e657281525060200191505060405180910390fd5b61071082610bec565b61071981610bec565b81600160006101000a81548173ffffffffffffffffffffffffffffffffffffffff021916908373ffffffffffffffffffffffffffffffffffffffff16021790555080600260006101000a81548173ffffffffffffffffffffffffffffffffffffffff021916908373ffffffffffffffffffffffffffffffffffffffff1602179055507f143219c9e69b09e07e095fcc889b43d8f46ca892bba65f08dc3a0050869a567882604051808273ffffffffffffffffffffffffffffffffffffffff1673ffffffffffffffffffffffffffffffffffffffff16815260200191505060405180910390a17f78f058b189175430c48dc02699e3a0031ea4ff781536dc2fab847de4babdd88281604051808273ffffffffffffffffffffffffffffffffffffffff1673ffffffffffffffffffffffffffffffffffffffff16815260200191505060405180910390a1610869610d0f565b5050565b6040518060400160405280600b81526020017f44656661756c74506f6f6c00000000000000000000000000000000000000000081525081565b600260009054906101000a900473ffffffffffffffffffffffffffffffffffffffff1681565b6108d4610afa565b6000600260009054906101000a900473ffffffffffffffffffffffffffffffffffffffff16905061091082600354610ba290919063ffffffff16565b6003819055507f9a14ae677a60400af9176bed2e2d5ce8dfa6405e6c1702debb27668f567214286003546040518082815260200191505060405180910390a17f6109e2559dfa766aaec7118351d48a523f0a4157f49c8d68749c8ac41318ad128183604051808373ffffffffffffffffffffffffffffffffffffffff1673ffffffffffffffffffffffffffffffffffffffff1681526020018281526020019250505060405180910390a160008173ffffffffffffffffffffffffffffffffffffffff168360405180600001905060006040518083038185875af1925050503d8060008114610a1a576040519150601f19603f3d011682016040523d82523d6000602084013e610a1f565b606091505b5050905080610a96576040517f08c379a000000000000000000000000000000000000000000000000000000000815260040180806020018281038252601f8152602001807f44656661756c74506f6f6c3a2073656e64696e6720455448206661696c65640081525060200191505060405180910390fd5b505050565b610aa3610afa565b610ab8816004546104ec90919063ffffffff16565b6004819055507f7735d8b9c0814a13884384c73ec31633f708b4b920b2158764c6b306541341256004546040518082815260200191505060405180910390a150565b600160009054906101000a900473ffffffffffffffffffffffffffffffffffffffff1673ffffffffffffffffffffffffffffffffffffffff163373ffffffffffffffffffffffffffffffffffffffff1614610ba0576040517f08c379a000000000000000000000000000000000000000000000000000000000815260040180806020018281038252602b815260200180610eb8602b913960400191505060405180910390fd5b565b6000610be483836040518060400160405280601e81526020017f536166654d6174683a207375627472616374696f6e206f766572666c6f770000815250610dce565b905092915050565b600073ffffffffffffffffffffffffffffffffffffffff168173ffffffffffffffffffffffffffffffffffffffff161415610c8f576040517f08c379a000000000000000000000000000000000000000000000000000000000815260040180806020018281038252601e8152602001807f4163636f756e742063616e6e6f74206265207a65726f2061646472657373000081525060200191505060405180910390fd5b6000813b905060008111610d0b576040517f08c379a00000000000000000000000000000000000000000000000000000000081526004018080602001828103825260208152602001807f4163636f756e7420636f64652073697a652063616e6e6f74206265207a65726f81525060200191505060405180910390fd5b5050565b600073ffffffffffffffffffffffffffffffffffffffff166000809054906101000a900473ffffffffffffffffffffffffffffffffffffffff1673ffffffffffffffffffffffffffffffffffffffff167f8be0079c531659141344cd1fd0a4f28419497f9722a3daafe3b4186f6b6457e060405160405180910390a360008060006101000a81548173ffffffffffffffffffffffffffffffffffffffff021916908373ffffffffffffffffffffffffffffffffffffffff160217905550565b6000838311158290610e7b576040517f08c379a00000000000000000000000000000000000000000000000000000000081526004018080602001828103825283818151815260200191508051906020019080838360005b83811015610e40578082015181840152602081019050610e25565b50505050905090810190601f168015610e6d5780820380516001836020036101000a031916815260200191505b509250505060405180910390fd5b506000838503905080915050939250505056fe44656661756c74506f6f6c3a2043616c6c6572206973206e6f742074686520416374697665506f6f6c44656661756c74506f6f6c3a2043616c6c6572206973206e6f74207468652054726f76654d616e61676572a2646970667358221220c1b7472a34214eb41ae9aab7785b36c9e39c5e4713c1e987422eb3e3d9fd23a864736f6c634300060b00336080604052670de0b6b3a764000060105534801561001c57600080fd5b5033600360006101000a81548173ffffffffffffffffffffffffffffffffffffffff021916908373ffffffffffffffffffffffffffffffffffffffff1602179055503373ffffffffffffffffffffffffffffffffffffffff16600073ffffffffffffffffffffffffffffffffffffffff167f8be0079c531659141344cd1fd0a4f28419497f9722a3daafe3b4186f6b6457e060405160405180910390a361691a80620000c96000396000f3fe6080604052600436106102975760003560e01c806382e0a5741161015a578063ae918754116100c1578063df9cd84f1161007a578063df9cd84f14610fc1578063eaa8ba7f14611026578063f5f1595d14611137578063f92d34331461119c578063fc7e286d146111c7578063fda0101a1461125f576102fa565b8063ae91875414610e2d578063b83f91a214610e84578063ce4b5bbe14610edb578063cef941e814610f06578063d4ca057514610f31578063d7fb044314610f96576102fa565b806395fb16bb1161011357806395fb16bb14610c315780639bf2f1ac14610c88578063a20baee614610cb3578063a3f4df7e14610cde578063a4e59ac814610d6e578063a7bfff9714610dbd576102fa565b806382e0a57414610a0f57806386da082414610a8c578063887105d314610b555780638b8fbd9214610b805780638da5cb5b14610bab5780638f32d59b14610c02576102fa565b8063538153ca116101fe578063741bef1a116101b7578063741bef1a1461086557806376671808146108bc57806377553ad41461090b578063794e572414610962578063795d26c31461098d5780637f7dde4a146109b8576102fa565b8063538153ca146106e9578063556be101146107145780635733d58f1461074f5780635d2de6421461077a5780635f788d65146107df57806372fe25aa1461083a576102fa565b80632e86bbd8116102505780632e86bbd81461053b578063335525ad14610566578063389e92a5146105ab5780633cc74225146106105780633d83908a146106675780634870dd9a146106be576102fa565b806314f6c3be146102ff57806316b9d3c51461032a5780631bf43555146103f35780631cdc47001461041e57806328a0a04d146104835780632e54bf9514610500576102fa565b366102fa576102a46112d0565b6102b93460095461137790919063ffffffff16565b6009819055507fceb6d671277d4354fd29977ada70695fbd93a16612abf765d6b0e25c28dc6db36009546040518082815260200191505060405180910390a1005b600080fd5b34801561030b57600080fd5b506103146113ff565b6040518082815260200191505060405180910390f35b34801561033657600080fd5b506103796004803603602081101561034d57600080fd5b81019080803573ffffffffffffffffffffffffffffffffffffffff169060200190929190505050611409565b60405180868152602001858152602001848152602001836fffffffffffffffffffffffffffffffff166fffffffffffffffffffffffffffffffff168152602001826fffffffffffffffffffffffffffffffff166fffffffffffffffffffffffffffffffff1681526020019550505050505060405180910390f35b3480156103ff57600080fd5b50610408611477565b6040518082815260200191505060405180910390f35b34801561042a57600080fd5b5061046d6004803603602081101561044157600080fd5b81019080803573ffffffffffffffffffffffffffffffffffffffff169060200190929190505050611484565b6040518082815260200191505060405180910390f35b34801561048f57600080fd5b506104ea600480360360408110156104a657600080fd5b8101908080356fffffffffffffffffffffffffffffffff16906020019092919080356fffffffffffffffffffffffffffffffff1690602001909291905050506115ff565b6040518082815260200191505060405180910390f35b34801561050c57600080fd5b506105396004803603602081101561052357600080fd5b8101908080359060200190929190505050611624565b005b34801561054757600080fd5b506105506118fb565b6040518082815260200191505060405180910390f35b34801561057257600080fd5b506105a96004803603604081101561058957600080fd5b810190808035906020019092919080359060200190929190505050611908565b005b3480156105b757600080fd5b506105fa600480360360208110156105ce57600080fd5b81019080803573ffffffffffffffffffffffffffffffffffffffff16906020019092919050505061198a565b6040518082815260200191505060405180910390f35b34801561061c57600080fd5b50610625611b05565b604051808273ffffffffffffffffffffffffffffffffffffffff1673ffffffffffffffffffffffffffffffffffffffff16815260200191505060405180910390f35b34801561067357600080fd5b5061067c611b2b565b604051808273ffffffffffffffffffffffffffffffffffffffff1673ffffffffffffffffffffffffffffffffffffffff16815260200191505060405180910390f35b3480156106ca57600080fd5b506106d3611b51565b6040518082815260200191505060405180910390f35b3480156106f557600080fd5b506106fe611b56565b6040518082815260200191505060405180910390f35b34801561072057600080fd5b5061074d6004803603602081101561073757600080fd5b8101908080359060200190929190505050611b5c565b005b34801561075b57600080fd5b50610764611c6a565b6040518082815260200191505060405180910390f35b34801561078657600080fd5b506107c96004803603602081101561079d57600080fd5b81019080803573ffffffffffffffffffffffffffffffffffffffff169060200190929190505050611c76565b6040518082815260200191505060405180910390f35b3480156107eb57600080fd5b506108386004803603604081101561080257600080fd5b8101908080359060200190929190803573ffffffffffffffffffffffffffffffffffffffff169060200190929190505050611c8e565b005b34801561084657600080fd5b5061084f611f6c565b6040518082815260200191505060405180910390f35b34801561087157600080fd5b5061087a611f78565b604051808273ffffffffffffffffffffffffffffffffffffffff1673ffffffffffffffffffffffffffffffffffffffff16815260200191505060405180910390f35b3480156108c857600080fd5b506108d1611f9e565b60405180826fffffffffffffffffffffffffffffffff166fffffffffffffffffffffffffffffffff16815260200191505060405180910390f35b34801561091757600080fd5b50610920611fc0565b604051808273ffffffffffffffffffffffffffffffffffffffff1673ffffffffffffffffffffffffffffffffffffffff16815260200191505060405180910390f35b34801561096e57600080fd5b50610977611fe6565b6040518082815260200191505060405180910390f35b34801561099957600080fd5b506109a2611ff2565b6040518082815260200191505060405180910390f35b3480156109c457600080fd5b506109cd61215a565b604051808273ffffffffffffffffffffffffffffffffffffffff1673ffffffffffffffffffffffffffffffffffffffff16815260200191505060405180910390f35b348015610a1b57600080fd5b50610a7660048036036040811015610a3257600080fd5b8101908080356fffffffffffffffffffffffffffffffff16906020019092919080356fffffffffffffffffffffffffffffffff16906020019092919050505061217f565b6040518082815260200191505060405180910390f35b348015610a9857600080fd5b50610adb60048036036020811015610aaf57600080fd5b81019080803573ffffffffffffffffffffffffffffffffffffffff1690602001909291905050506121a4565b60405180868152602001858152602001848152602001836fffffffffffffffffffffffffffffffff166fffffffffffffffffffffffffffffffff168152602001826fffffffffffffffffffffffffffffffff166fffffffffffffffffffffffffffffffff1681526020019550505050505060405180910390f35b348015610b6157600080fd5b50610b6a612212565b6040518082815260200191505060405180910390f35b348015610b8c57600080fd5b50610b9561237a565b6040518082815260200191505060405180910390f35b348015610bb757600080fd5b50610bc0612380565b604051808273ffffffffffffffffffffffffffffffffffffffff1673ffffffffffffffffffffffffffffffffffffffff16815260200191505060405180910390f35b348015610c0e57600080fd5b50610c176123aa565b604051808215151515815260200191505060405180910390f35b348015610c3d57600080fd5b50610c46612402565b604051808273ffffffffffffffffffffffffffffffffffffffff1673ffffffffffffffffffffffffffffffffffffffff16815260200191505060405180910390f35b348015610c9457600080fd5b50610c9d612428565b6040518082815260200191505060405180910390f35b348015610cbf57600080fd5b50610cc8612432565b6040518082815260200191505060405180910390f35b348015610cea57600080fd5b50610cf361243e565b6040518080602001828103825283818151815260200191508051906020019080838360005b83811015610d33578082015181840152602081019050610d18565b50505050905090810190601f168015610d605780820380516001836020036101000a031916815260200191505b509250505060405180910390f35b348015610d7a57600080fd5b50610d83612477565b60405180826fffffffffffffffffffffffffffffffff166fffffffffffffffffffffffffffffffff16815260200191505060405180910390f35b348015610dc957600080fd5b50610e0c60048036036020811015610de057600080fd5b81019080803573ffffffffffffffffffffffffffffffffffffffff169060200190929190505050612499565b60405180838152602001821515151581526020019250505060405180910390f35b348015610e3957600080fd5b50610e426124ca565b604051808273ffffffffffffffffffffffffffffffffffffffff1673ffffffffffffffffffffffffffffffffffffffff16815260200191505060405180910390f35b348015610e9057600080fd5b50610e996124f0565b604051808273ffffffffffffffffffffffffffffffffffffffff1673ffffffffffffffffffffffffffffffffffffffff16815260200191505060405180910390f35b348015610ee757600080fd5b50610ef0612516565b6040518082815260200191505060405180910390f35b348015610f1257600080fd5b50610f1b61251e565b6040518082815260200191505060405180910390f35b348015610f3d57600080fd5b50610f8060048036036020811015610f5457600080fd5b81019080803573ffffffffffffffffffffffffffffffffffffffff169060200190929190505050612524565b6040518082815260200191505060405180910390f35b348015610fa257600080fd5b50610fab612730565b6040518082815260200191505060405180910390f35b348015610fcd57600080fd5b5061101060048036036020811015610fe457600080fd5b81019080803573ffffffffffffffffffffffffffffffffffffffff169060200190929190505050612736565b6040518082815260200191505060405180910390f35b34801561103257600080fd5b50611135600480360360e081101561104957600080fd5b81019080803573ffffffffffffffffffffffffffffffffffffffff169060200190929190803573ffffffffffffffffffffffffffffffffffffffff169060200190929190803573ffffffffffffffffffffffffffffffffffffffff169060200190929190803573ffffffffffffffffffffffffffffffffffffffff169060200190929190803573ffffffffffffffffffffffffffffffffffffffff169060200190929190803573ffffffffffffffffffffffffffffffffffffffff169060200190929190803573ffffffffffffffffffffffffffffffffffffffff1690602001909291905050506128ae565b005b34801561114357600080fd5b506111866004803603602081101561115a57600080fd5b81019080803573ffffffffffffffffffffffffffffffffffffffff169060200190929190505050612df3565b6040518082815260200191505060405180910390f35b3480156111a857600080fd5b506111b161308c565b6040518082815260200191505060405180910390f35b3480156111d357600080fd5b50611216600480360360208110156111ea57600080fd5b81019080803573ffffffffffffffffffffffffffffffffffffffff1690602001909291905050506130a6565b604051808381526020018273ffffffffffffffffffffffffffffffffffffffff1673ffffffffffffffffffffffffffffffffffffffff1681526020019250505060405180910390f35b34801561126b57600080fd5b506112ce6004803603604081101561128257600080fd5b81019080803573ffffffffffffffffffffffffffffffffffffffff169060200190929190803573ffffffffffffffffffffffffffffffffffffffff1690602001909291905050506130ea565b005b6000809054906101000a900473ffffffffffffffffffffffffffffffffffffffff1673ffffffffffffffffffffffffffffffffffffffff163373ffffffffffffffffffffffffffffffffffffffff1614611375576040517f08c379a00000000000000000000000000000000000000000000000000000000081526004018080602001828103825260278152602001806166a76027913960400191505060405180910390fd5b565b6000808284019050838110156113f5576040517f08c379a000000000000000000000000000000000000000000000000000000000815260040180806020018281038252601b8152602001807f536166654d6174683a206164646974696f6e206f766572666c6f77000000000081525060200191505060405180910390fd5b8091505092915050565b6000600954905090565b600f6020528060005260406000206000915090508060000154908060010154908060020154908060030160009054906101000a90046fffffffffffffffffffffffffffffffff16908060030160109054906101000a90046fffffffffffffffffffffffffffffffff16905085565b686194049f30f720000081565b600080600b60008473ffffffffffffffffffffffffffffffffffffffff1673ffffffffffffffffffffffffffffffffffffffff16815260200190815260200160002060000154905060008114156114df5760009150506115fa565b6114e76165c7565b600c60008573ffffffffffffffffffffffffffffffffffffffff1673ffffffffffffffffffffffffffffffffffffffff1681526020019081526020016000206040518060a00160405290816000820154815260200160018201548152602001600282015481526020016003820160009054906101000a90046fffffffffffffffffffffffffffffffff166fffffffffffffffffffffffffffffffff166fffffffffffffffffffffffffffffffff1681526020016003820160109054906101000a90046fffffffffffffffffffffffffffffffff166fffffffffffffffffffffffffffffffff166fffffffffffffffffffffffffffffffff1681525050905060006115f18383613558565b90508093505050505b919050565b6012602052816000526040600020602052806000526040600020600091509150505481565b60008114611635576116346136fb565b5b6000600b60003373ffffffffffffffffffffffffffffffffffffffff1673ffffffffffffffffffffffffffffffffffffffff16815260200190815260200160002060000154905061168581613997565b6000600860009054906101000a900473ffffffffffffffffffffffffffffffffffffffff1690506116b5816139f3565b60006116c03361198a565b905060006116cd33611484565b905060006116db8683613a87565b905060006116f28387613aa090919063ffffffff16565b90506000600b60003373ffffffffffffffffffffffffffffffffffffffff1673ffffffffffffffffffffffffffffffffffffffff16815260200190815260200160002060010160009054906101000a900473ffffffffffffffffffffffffffffffffffffffff169050611766863383613aea565b600061177182612736565b905060006117888583613aa090919063ffffffff16565b90506117948382613d1a565b8273ffffffffffffffffffffffffffffffffffffffff167f99920012339b5a3368d3a04b8606ce412c46ed92b7dcd8602d41fc8862cb8f258233604051808381526020018273ffffffffffffffffffffffffffffffffffffffff1673ffffffffffffffffffffffffffffffffffffffff1681526020019250505060405180910390a26118203386614100565b60006118358688613aa090919063ffffffff16565b90506118413382614211565b3373ffffffffffffffffffffffffffffffffffffffff167fbce78369dccab09eec1986f4d409ab09ffbb47d65423e5148fcf98411c5111c9826040518082815260200191505060405180910390a23373ffffffffffffffffffffffffffffffffffffffff167f51457222ebca92c335c9c86e2baa1cc0e40ffaa9084a51452980d5ba8dec2f638987604051808381526020018281526020019250505060405180910390a26118ee88614729565b5050505050505050505050565b680ad78ebc5ac620000081565b6119106148be565b6000600a54905060008114806119265750600083145b156119315750611986565b61195c600860009054906101000a900473ffffffffffffffffffffffffffffffffffffffff166139f3565b60008061196a848685614966565b915091506119788282614a9d565b611982848661503d565b5050505b5050565b600080600b60008473ffffffffffffffffffffffffffffffffffffffff1673ffffffffffffffffffffffffffffffffffffffff16815260200190815260200160002060000154905060008114156119e5576000915050611b00565b6119ed6165c7565b600c60008573ffffffffffffffffffffffffffffffffffffffff1673ffffffffffffffffffffffffffffffffffffffff1681526020019081526020016000206040518060a00160405290816000820154815260200160018201548152602001600282015481526020016003820160009054906101000a90046fffffffffffffffffffffffffffffffff166fffffffffffffffffffffffffffffffff166fffffffffffffffffffffffffffffffff1681526020016003820160109054906101000a90046fffffffffffffffffffffffffffffffff166fffffffffffffffffffffffffffffffff166fffffffffffffffffffffffffffffffff168152505090506000611af7838361523c565b90508093505050505b919050565b600160009054906101000a900473ffffffffffffffffffffffffffffffffffffffff1681565b600560009054906101000a900473ffffffffffffffffffffffffffffffffffffffff1681565b60c881565b60165481565b611b65336153f5565b611b6e3361549e565b611b7781615542565b80600d60003373ffffffffffffffffffffffffffffffffffffffff1673ffffffffffffffffffffffffffffffffffffffff168152602001908152602001600020600001819055506001600d60003373ffffffffffffffffffffffffffffffffffffffff1673ffffffffffffffffffffffffffffffffffffffff16815260200190815260200160002060010160006101000a81548160ff0219169083151502179055503373ffffffffffffffffffffffffffffffffffffffff167f19bc932fb9e16a8b5a1e41be9f4c2de59d5ddd7567b8b81405f532ca00a9880e826040518082815260200191505060405180910390a250565b6714d1120d7b16000081565b600e6020528060005260406000206000915090505481565b611c97816155a6565b611ca0336153f5565b611ca982615685565b6000600b60003373ffffffffffffffffffffffffffffffffffffffff1673ffffffffffffffffffffffffffffffffffffffff1681526020019081526020016000206000015490506000600860009054906101000a900473ffffffffffffffffffffffffffffffffffffffff169050611d20816139f3565b6000821415611d3457611d3333846156e1565b5b6000611d3f3361198a565b90506000611d4c33611484565b90506000611d638286613aa090919063ffffffff16565b90506000600b60003373ffffffffffffffffffffffffffffffffffffffff1673ffffffffffffffffffffffffffffffffffffffff16815260200190815260200160002060010160009054906101000a900473ffffffffffffffffffffffffffffffffffffffff169050611dd7853383613aea565b6000611de282612736565b90506000611df98a8361137790919063ffffffff16565b9050611e058382613d1a565b8273ffffffffffffffffffffffffffffffffffffffff167f99920012339b5a3368d3a04b8606ce412c46ed92b7dcd8602d41fc8862cb8f258233604051808381526020018273ffffffffffffffffffffffffffffffffffffffff1673ffffffffffffffffffffffffffffffffffffffff1681526020019250505060405180910390a2611e91338b6157c0565b6000611ea68b8761137790919063ffffffff16565b9050611eb23382614211565b3373ffffffffffffffffffffffffffffffffffffffff167fbce78369dccab09eec1986f4d409ab09ffbb47d65423e5148fcf98411c5111c9826040518082815260200191505060405180910390a23373ffffffffffffffffffffffffffffffffffffffff167f51457222ebca92c335c9c86e2baa1cc0e40ffaa9084a51452980d5ba8dec2f638887604051808381526020018281526020019250505060405180910390a2611f5f87614729565b5050505050505050505050565b670de0b6b3a764000081565b600260009054906101000a900473ffffffffffffffffffffffffffffffffffffffff1681565b601160109054906101000a90046fffffffffffffffffffffffffffffffff1681565b600460009054906101000a900473ffffffffffffffffffffffffffffffffffffffff1681565b670f43fc2c04ee000081565b6000806000809054906101000a900473ffffffffffffffffffffffffffffffffffffffff1673ffffffffffffffffffffffffffffffffffffffff16635eb52fca6040518163ffffffff1660e01b815260040160206040518083038186803b15801561205c57600080fd5b505afa158015612070573d6000803e3d6000fd5b505050506040513d602081101561208657600080fd5b810190808051906020019092919050505090506000600160009054906101000a900473ffffffffffffffffffffffffffffffffffffffff1673ffffffffffffffffffffffffffffffffffffffff16635eb52fca6040518163ffffffff1660e01b815260040160206040518083038186803b15801561210357600080fd5b505afa158015612117573d6000803e3d6000fd5b505050506040513d602081101561212d57600080fd5b81019080805190602001909291905050509050612153818361137790919063ffffffff16565b9250505090565b6000809054906101000a900473ffffffffffffffffffffffffffffffffffffffff1681565b6013602052816000526040600020602052806000526040600020600091509150505481565b600c6020528060005260406000206000915090508060000154908060010154908060020154908060030160009054906101000a90046fffffffffffffffffffffffffffffffff16908060030160109054906101000a90046fffffffffffffffffffffffffffffffff16905085565b6000806000809054906101000a900473ffffffffffffffffffffffffffffffffffffffff1673ffffffffffffffffffffffffffffffffffffffff166314f6c3be6040518163ffffffff1660e01b815260040160206040518083038186803b15801561227c57600080fd5b505afa158015612290573d6000803e3d6000fd5b505050506040513d60208110156122a657600080fd5b810190808051906020019092919050505090506000600160009054906101000a900473ffffffffffffffffffffffffffffffffffffffff1673ffffffffffffffffffffffffffffffffffffffff166314f6c3be6040518163ffffffff1660e01b815260040160206040518083038186803b15801561232357600080fd5b505afa158015612337573d6000803e3d6000fd5b505050506040513d602081101561234d57600080fd5b81019080805190602001909291905050509050612373818361137790919063ffffffff16565b9250505090565b60105481565b6000600360009054906101000a900473ffffffffffffffffffffffffffffffffffffffff16905090565b6000600360009054906101000a900473ffffffffffffffffffffffffffffffffffffffff1673ffffffffffffffffffffffffffffffffffffffff163373ffffffffffffffffffffffffffffffffffffffff1614905090565b600860009054906101000a900473ffffffffffffffffffffffffffffffffffffffff1681565b6000600a54905090565b670de0b6b3a764000081565b6040518060400160405280600d81526020017f53746162696c697479506f6f6c0000000000000000000000000000000000000081525081565b601160009054906101000a90046fffffffffffffffffffffffffffffffff1681565b600d6020528060005260406000206000915090508060000154908060010160009054906101000a900460ff16905082565b600760009054906101000a900473ffffffffffffffffffffffffffffffffffffffff1681565b600660009054906101000a900473ffffffffffffffffffffffffffffffffffffffff1681565b633b9aca0081565b60145481565b600080600e60008473ffffffffffffffffffffffffffffffffffffffff1673ffffffffffffffffffffffffffffffffffffffff168152602001908152602001600020549050600081141561257c57600091505061272b565b6000600d60008573ffffffffffffffffffffffffffffffffffffffff1673ffffffffffffffffffffffffffffffffffffffff16815260200190815260200160002060000154905060006125e082670de0b6b3a7640000613aa090919063ffffffff16565b90506125ea6165c7565b600f60008773ffffffffffffffffffffffffffffffffffffffff1673ffffffffffffffffffffffffffffffffffffffff1681526020019081526020016000206040518060a00160405290816000820154815260200160018201548152602001600282015481526020016003820160009054906101000a90046fffffffffffffffffffffffffffffffff166fffffffffffffffffffffffffffffffff166fffffffffffffffffffffffffffffffff1681526020016003820160109054906101000a90046fffffffffffffffffffffffffffffffff166fffffffffffffffffffffffffffffffff166fffffffffffffffffffffffffffffffff168152505090506000612720670de0b6b3a76400006127126127038886615911565b86615aca90919063ffffffff16565b615b5090919063ffffffff16565b905080955050505050505b919050565b60155481565b600080600e60008473ffffffffffffffffffffffffffffffffffffffff1673ffffffffffffffffffffffffffffffffffffffff168152602001908152602001600020549050600081141561278e5760009150506128a9565b6127966165c7565b600f60008573ffffffffffffffffffffffffffffffffffffffff1673ffffffffffffffffffffffffffffffffffffffff1681526020019081526020016000206040518060a00160405290816000820154815260200160018201548152602001600282015481526020016003820160009054906101000a90046fffffffffffffffffffffffffffffffff166fffffffffffffffffffffffffffffffff166fffffffffffffffffffffffffffffffff1681526020016003820160109054906101000a90046fffffffffffffffffffffffffffffffff166fffffffffffffffffffffffffffffffff166fffffffffffffffffffffffffffffffff1681525050905060006128a08383613558565b90508093505050505b919050565b6128b66123aa565b612928576040517f08c379a00000000000000000000000000000000000000000000000000000000081526004018080602001828103825260208152602001807f4f776e61626c653a2063616c6c6572206973206e6f7420746865206f776e657281525060200191505060405180910390fd5b61293187615b9a565b61293a86615b9a565b61294385615b9a565b61294c84615b9a565b61295583615b9a565b61295e82615b9a565b61296781615b9a565b86600460006101000a81548173ffffffffffffffffffffffffffffffffffffffff021916908373ffffffffffffffffffffffffffffffffffffffff16021790555085600560006101000a81548173ffffffffffffffffffffffffffffffffffffffff021916908373ffffffffffffffffffffffffffffffffffffffff160217905550846000806101000a81548173ffffffffffffffffffffffffffffffffffffffff021916908373ffffffffffffffffffffffffffffffffffffffff16021790555083600660006101000a81548173ffffffffffffffffffffffffffffffffffffffff021916908373ffffffffffffffffffffffffffffffffffffffff16021790555082600760006101000a81548173ffffffffffffffffffffffffffffffffffffffff021916908373ffffffffffffffffffffffffffffffffffffffff16021790555081600260006101000a81548173ffffffffffffffffffffffffffffffffffffffff021916908373ffffffffffffffffffffffffffffffffffffffff16021790555080600860006101000a81548173ffffffffffffffffffffffffffffffffffffffff021916908373ffffffffffffffffffffffffffffffffffffffff1602179055507f3ca631ffcd2a9b5d9ae18543fc82f58eb4ca33af9e6ab01b7a8e95331e6ed98587604051808273ffffffffffffffffffffffffffffffffffffffff1673ffffffffffffffffffffffffffffffffffffffff16815260200191505060405180910390a17f143219c9e69b09e07e095fcc889b43d8f46ca892bba65f08dc3a0050869a567886604051808273ffffffffffffffffffffffffffffffffffffffff1673ffffffffffffffffffffffffffffffffffffffff16815260200191505060405180910390a17f78f058b189175430c48dc02699e3a0031ea4ff781536dc2fab847de4babdd88285604051808273ffffffffffffffffffffffffffffffffffffffff1673ffffffffffffffffffffffffffffffffffffffff16815260200191505060405180910390a17f227eec0ec317af6ab1a9587ffa1c84332522eb4c583a908f89babc05f8f339bd84604051808273ffffffffffffffffffffffffffffffffffffffff1673ffffffffffffffffffffffffffffffffffffffff16815260200191505060405180910390a17f65f4cf077bc01e4742eb5ad98326f6e95b63548ea24b17f8d5e823111fe7880083604051808273ffffffffffffffffffffffffffffffffffffffff1673ffffffffffffffffffffffffffffffffffffffff16815260200191505060405180910390a17f8c537274438aa850a330284665d81a85dd38267d09e4050d416bfc94142db26482604051808273ffffffffffffffffffffffffffffffffffffffff1673ffffffffffffffffffffffffffffffffffffffff16815260200191505060405180910390a17f3055265812fb8447b9ada4a5d804ec43bd528ec40e89c952bbc7b85dc5ac681181604051808273ffffffffffffffffffffffffffffffffffffffff1673ffffffffffffffffffffffffffffffffffffffff16815260200191505060405180910390a1612dea615cbd565b50505050505050565b600080600b60008473ffffffffffffffffffffffffffffffffffffffff1673ffffffffffffffffffffffffffffffffffffffff1681526020019081526020016000206000015490506000811415612e4e576000915050613087565b6000600b60008573ffffffffffffffffffffffffffffffffffffffff1673ffffffffffffffffffffffffffffffffffffffff16815260200190815260200160002060010160009054906101000a900473ffffffffffffffffffffffffffffffffffffffff16905060008073ffffffffffffffffffffffffffffffffffffffff168273ffffffffffffffffffffffffffffffffffffffff1614612f3257600d60008373ffffffffffffffffffffffffffffffffffffffff1673ffffffffffffffffffffffffffffffffffffffff16815260200190815260200160002060000154612f3c565b670de0b6b3a76400005b9050612f466165c7565b600c60008773ffffffffffffffffffffffffffffffffffffffff1673ffffffffffffffffffffffffffffffffffffffff1681526020019081526020016000206040518060a00160405290816000820154815260200160018201548152602001600282015481526020016003820160009054906101000a90046fffffffffffffffffffffffffffffffff166fffffffffffffffffffffffffffffffff166fffffffffffffffffffffffffffffffff1681526020016003820160109054906101000a90046fffffffffffffffffffffffffffffffff166fffffffffffffffffffffffffffffffff166fffffffffffffffffffffffffffffffff16815250509050600061307c670de0b6b3a764000061306e61305f8886615911565b86615aca90919063ffffffff16565b615b5090919063ffffffff16565b905080955050505050505b919050565b60056103e8670de0b6b3a7640000816130a157fe5b040281565b600b6020528060005260406000206000915090508060000154908060010160009054906101000a900473ffffffffffffffffffffffffffffffffffffffff16905082565b6000600b60003373ffffffffffffffffffffffffffffffffffffffff1673ffffffffffffffffffffffffffffffffffffffff16815260200190815260200160002060000154905061313a81613997565b61314333615d7e565b61314c33615eb3565b6000600860009054906101000a900473ffffffffffffffffffffffffffffffffffffffff16905061317c816139f3565b60006131873361198a565b9050600061319433611484565b905060006131ab8286613aa090919063ffffffff16565b90506000600b60003373ffffffffffffffffffffffffffffffffffffffff1673ffffffffffffffffffffffffffffffffffffffff16815260200190815260200160002060010160009054906101000a900473ffffffffffffffffffffffffffffffffffffffff16905061321f853383613aea565b600061322a82612736565b9050600081905061323b8382613d1a565b8273ffffffffffffffffffffffffffffffffffffffff167f99920012339b5a3368d3a04b8606ce412c46ed92b7dcd8602d41fc8862cb8f258233604051808381526020018273ffffffffffffffffffffffffffffffffffffffff1673ffffffffffffffffffffffffffffffffffffffff1681526020019250505060405180910390a26132c73386614211565b3373ffffffffffffffffffffffffffffffffffffffff167f51457222ebca92c335c9c86e2baa1cc0e40ffaa9084a51452980d5ba8dec2f638786604051808381526020018281526020019250505060405180910390a23373ffffffffffffffffffffffffffffffffffffffff167fbce78369dccab09eec1986f4d409ab09ffbb47d65423e5148fcf98411c5111c9866040518082815260200191505060405180910390a261338086600954613aa090919063ffffffff16565b6009819055507fceb6d671277d4354fd29977ada70695fbd93a16612abf765d6b0e25c28dc6db36009546040518082815260200191505060405180910390a17f6109e2559dfa766aaec7118351d48a523f0a4157f49c8d68749c8ac41318ad123387604051808373ffffffffffffffffffffffffffffffffffffffff1673ffffffffffffffffffffffffffffffffffffffff1681526020018281526020019250505060405180910390a1600460009054906101000a900473ffffffffffffffffffffffffffffffffffffffff1673ffffffffffffffffffffffffffffffffffffffff1663ea9638bf87338d8d6040518563ffffffff1660e01b8152600401808473ffffffffffffffffffffffffffffffffffffffff1673ffffffffffffffffffffffffffffffffffffffff1681526020018373ffffffffffffffffffffffffffffffffffffffff1673ffffffffffffffffffffffffffffffffffffffff1681526020018273ffffffffffffffffffffffffffffffffffffffff1673ffffffffffffffffffffffffffffffffffffffff16815260200193505050506000604051808303818588803b15801561353357600080fd5b505af1158015613547573d6000803e3d6000fd5b505050505050505050505050505050565b60008082602001519050600083606001519050600084608001519050601160109054906101000a90046fffffffffffffffffffffffffffffffff166fffffffffffffffffffffffffffffffff16816fffffffffffffffffffffffffffffffff1610156135ca57600093505050506136f5565b60008061361084601160009054906101000a90046fffffffffffffffffffffffffffffffff166fffffffffffffffffffffffffffffffff16615f1d90919063ffffffff16565b90506000816fffffffffffffffffffffffffffffffff16141561365b57613654856136466010548b615aca90919063ffffffff16565b615b5090919063ffffffff16565b91506136c0565b6001816fffffffffffffffffffffffffffffffff1614156136ba576136b3633b9aca006136a5876136976010548d615aca90919063ffffffff16565b615b5090919063ffffffff16565b615b5090919063ffffffff16565b91506136bf565b600091505b5b6136d7633b9aca0089615b5090919063ffffffff16565b8210156136ec576000955050505050506136f5565b81955050505050505b92915050565b6000600260009054906101000a900473ffffffffffffffffffffffffffffffffffffffff1673ffffffffffffffffffffffffffffffffffffffff16630fdb11cf6040518163ffffffff1660e01b8152600401602060405180830381600087803b15801561376757600080fd5b505af115801561377b573d6000803e3d6000fd5b505050506040513d602081101561379157600080fd5b810190808051906020019092919050505090506000600760009054906101000a900473ffffffffffffffffffffffffffffffffffffffff1673ffffffffffffffffffffffffffffffffffffffff16634d6228316040518163ffffffff1660e01b815260040160206040518083038186803b15801561380e57600080fd5b505afa158015613822573d6000803e3d6000fd5b505050506040513d602081101561383857600080fd5b810190808051906020019092919050505090506000600560009054906101000a900473ffffffffffffffffffffffffffffffffffffffff1673ffffffffffffffffffffffffffffffffffffffff1663d293c71083856040518363ffffffff1660e01b8152600401808373ffffffffffffffffffffffffffffffffffffffff1673ffffffffffffffffffffffffffffffffffffffff1681526020018281526020019250505060206040518083038186803b1580156138f457600080fd5b505afa158015613908573d6000803e3d6000fd5b505050506040513d602081101561391e57600080fd5b81019080805190602001909291905050509050670f43fc2c04ee0000811015613992576040517f08c379a00000000000000000000000000000000000000000000000000000000081526004018080602001828103825260448152602001806168a16044913960600191505060405180910390fd5b505050565b600081116139f0576040517f08c379a00000000000000000000000000000000000000000000000000000000081526004018080602001828103825260308152602001806168246030913960400191505060405180910390fd5b50565b60008173ffffffffffffffffffffffffffffffffffffffff166346ad34d96040518163ffffffff1660e01b8152600401602060405180830381600087803b158015613a3d57600080fd5b505af1158015613a51573d6000803e3d6000fd5b505050506040513d6020811015613a6757600080fd5b81019080805190602001909291905050509050613a8381615fad565b5050565b6000818310613a965781613a98565b825b905092915050565b6000613ae283836040518060400160405280601e81526020017f536166654d6174683a207375627472616374696f6e206f766572666c6f7700008152506162d6565b905092915050565b600073ffffffffffffffffffffffffffffffffffffffff168173ffffffffffffffffffffffffffffffffffffffff1614613c1a576000613b2982612524565b90508373ffffffffffffffffffffffffffffffffffffffff1663614d2ab683836040518363ffffffff1660e01b8152600401808373ffffffffffffffffffffffffffffffffffffffff1673ffffffffffffffffffffffffffffffffffffffff16815260200182815260200192505050600060405180830381600087803b158015613bb257600080fd5b505af1158015613bc6573d6000803e3d6000fd5b505050508173ffffffffffffffffffffffffffffffffffffffff167fcd2cdc1a4af71051394e9c6facd9a266b2ac5bd65d219a701eeda009f47682bf826040518082815260200191505060405180910390a2505b6000613c2583612df3565b90508373ffffffffffffffffffffffffffffffffffffffff1663614d2ab684836040518363ffffffff1660e01b8152600401808373ffffffffffffffffffffffffffffffffffffffff1673ffffffffffffffffffffffffffffffffffffffff16815260200182815260200192505050600060405180830381600087803b158015613cae57600080fd5b505af1158015613cc2573d6000803e3d6000fd5b505050508273ffffffffffffffffffffffffffffffffffffffff167f2608b986a6ac0f6c629ca37018e80af5561e366252ae93602a96d3ab2e73e42d826040518082815260200191505060405180910390a250505050565b80600e60008473ffffffffffffffffffffffffffffffffffffffff1673ffffffffffffffffffffffffffffffffffffffff168152602001908152602001600020819055506000811415613e6357600f60008373ffffffffffffffffffffffffffffffffffffffff1673ffffffffffffffffffffffffffffffffffffffff168152602001908152602001600020600080820160009055600182016000905560028201600090556003820160006101000a8154906fffffffffffffffffffffffffffffffff02191690556003820160106101000a8154906fffffffffffffffffffffffffffffffff021916905550508173ffffffffffffffffffffffffffffffffffffffff167fbb1322f85cc7cc8bac4e172a5bc5dcc0c1959007f9a030032abf9258205f0e45600080604051808381526020018281526020019250505060405180910390a26140fc565b6000601160009054906101000a90046fffffffffffffffffffffffffffffffff1690506000601160109054906101000a90046fffffffffffffffffffffffffffffffff16905060006010549050600060136000846fffffffffffffffffffffffffffffffff166fffffffffffffffffffffffffffffffff1681526020019081526020016000206000856fffffffffffffffffffffffffffffffff166fffffffffffffffffffffffffffffffff16815260200190815260200160002054905081600f60008873ffffffffffffffffffffffffffffffffffffffff1673ffffffffffffffffffffffffffffffffffffffff1681526020019081526020016000206001018190555080600f60008873ffffffffffffffffffffffffffffffffffffffff1673ffffffffffffffffffffffffffffffffffffffff1681526020019081526020016000206002018190555083600f60008873ffffffffffffffffffffffffffffffffffffffff1673ffffffffffffffffffffffffffffffffffffffff16815260200190815260200160002060030160006101000a8154816fffffffffffffffffffffffffffffffff02191690836fffffffffffffffffffffffffffffffff16021790555082600f60008873ffffffffffffffffffffffffffffffffffffffff1673ffffffffffffffffffffffffffffffffffffffff16815260200190815260200160002060030160106101000a8154816fffffffffffffffffffffffffffffffff02191690836fffffffffffffffffffffffffffffffff1602179055508573ffffffffffffffffffffffffffffffffffffffff167fbb1322f85cc7cc8bac4e172a5bc5dcc0c1959007f9a030032abf9258205f0e458383604051808381526020018281526020019250505060405180910390a2505050505b5050565b600081141561410e5761420d565b600660009054906101000a900473ffffffffffffffffffffffffffffffffffffffff1673ffffffffffffffffffffffffffffffffffffffff166320c582be3084846040518463ffffffff1660e01b8152600401808473ffffffffffffffffffffffffffffffffffffffff1673ffffffffffffffffffffffffffffffffffffffff1681526020018373ffffffffffffffffffffffffffffffffffffffff1673ffffffffffffffffffffffffffffffffffffffff1681526020018281526020019350505050600060405180830381600087803b1580156141eb57600080fd5b505af11580156141ff573d6000803e3d6000fd5b5050505061420c81616396565b5b5050565b80600b60008473ffffffffffffffffffffffffffffffffffffffff1673ffffffffffffffffffffffffffffffffffffffff1681526020019081526020016000206000018190555060008114156143cb57600b60008373ffffffffffffffffffffffffffffffffffffffff1673ffffffffffffffffffffffffffffffffffffffff16815260200190815260200160002060010160006101000a81549073ffffffffffffffffffffffffffffffffffffffff0219169055600c60008373ffffffffffffffffffffffffffffffffffffffff1673ffffffffffffffffffffffffffffffffffffffff168152602001908152602001600020600080820160009055600182016000905560028201600090556003820160006101000a8154906fffffffffffffffffffffffffffffffff02191690556003820160106101000a8154906fffffffffffffffffffffffffffffffff021916905550508173ffffffffffffffffffffffffffffffffffffffff167f2d6cc0bcdf72c9486f6451bde6b80f44066f4558f77f44dbfedbe7d8b295225a600080600060405180848152602001838152602001828152602001935050505060405180910390a2614725565b6000601160009054906101000a90046fffffffffffffffffffffffffffffffff1690506000601160109054906101000a90046fffffffffffffffffffffffffffffffff16905060006010549050600060126000846fffffffffffffffffffffffffffffffff166fffffffffffffffffffffffffffffffff1681526020019081526020016000206000856fffffffffffffffffffffffffffffffff166fffffffffffffffffffffffffffffffff168152602001908152602001600020549050600060136000856fffffffffffffffffffffffffffffffff166fffffffffffffffffffffffffffffffff1681526020019081526020016000206000866fffffffffffffffffffffffffffffffff166fffffffffffffffffffffffffffffffff16815260200190815260200160002054905082600c60008973ffffffffffffffffffffffffffffffffffffffff1673ffffffffffffffffffffffffffffffffffffffff1681526020019081526020016000206001018190555081600c60008973ffffffffffffffffffffffffffffffffffffffff1673ffffffffffffffffffffffffffffffffffffffff1681526020019081526020016000206000018190555080600c60008973ffffffffffffffffffffffffffffffffffffffff1673ffffffffffffffffffffffffffffffffffffffff1681526020019081526020016000206002018190555084600c60008973ffffffffffffffffffffffffffffffffffffffff1673ffffffffffffffffffffffffffffffffffffffff16815260200190815260200160002060030160006101000a8154816fffffffffffffffffffffffffffffffff02191690836fffffffffffffffffffffffffffffffff16021790555083600c60008973ffffffffffffffffffffffffffffffffffffffff1673ffffffffffffffffffffffffffffffffffffffff16815260200190815260200160002060030160106101000a8154816fffffffffffffffffffffffffffffffff02191690836fffffffffffffffffffffffffffffffff1602179055508673ffffffffffffffffffffffffffffffffffffffff167f2d6cc0bcdf72c9486f6451bde6b80f44066f4558f77f44dbfedbe7d8b295225a84848460405180848152602001838152602001828152602001935050505060405180910390a250505050505b5050565b6000811415614737576148bb565b600061474e82600954613aa090919063ffffffff16565b9050806009819055507fceb6d671277d4354fd29977ada70695fbd93a16612abf765d6b0e25c28dc6db3816040518082815260200191505060405180910390a17f6109e2559dfa766aaec7118351d48a523f0a4157f49c8d68749c8ac41318ad123383604051808373ffffffffffffffffffffffffffffffffffffffff1673ffffffffffffffffffffffffffffffffffffffff1681526020018281526020019250505060405180910390a160003373ffffffffffffffffffffffffffffffffffffffff168360405180600001905060006040518083038185875af1925050503d8060008114614859576040519150601f19603f3d011682016040523d82523d6000602084013e61485e565b606091505b50509050806148b8576040517f08c379a00000000000000000000000000000000000000000000000000000000081526004018080602001828103825260218152602001806167286021913960400191505060405180910390fd5b50505b50565b600560009054906101000a900473ffffffffffffffffffffffffffffffffffffffff1673ffffffffffffffffffffffffffffffffffffffff163373ffffffffffffffffffffffffffffffffffffffff1614614964576040517f08c379a00000000000000000000000000000000000000000000000000000000081526004018080602001828103825260298152602001806166ff6029913960400191505060405180910390fd5b565b600080600061499a60155461498c670de0b6b3a764000089615aca90919063ffffffff16565b61137790919063ffffffff16565b9050838511156149a657fe5b838514156149c657670de0b6b3a764000091506000601681905550614a4e565b60006149f76016546149e9670de0b6b3a764000089615aca90919063ffffffff16565b613aa090919063ffffffff16565b9050614a1f6001614a118784615b5090919063ffffffff16565b61137790919063ffffffff16565b9250614a4681614a388786615aca90919063ffffffff16565b613aa090919063ffffffff16565b601681905550505b614a618482615b5090919063ffffffff16565b9250614a88614a798585615aca90919063ffffffff16565b82613aa090919063ffffffff16565b60158190555082829250925050935093915050565b600060105490506000670de0b6b3a7640000831115614ab857fe5b6000614ad584670de0b6b3a7640000613aa090919063ffffffff16565b90506000601160009054906101000a90046fffffffffffffffffffffffffffffffff1690506000601160109054906101000a90046fffffffffffffffffffffffffffffffff169050600060126000836fffffffffffffffffffffffffffffffff166fffffffffffffffffffffffffffffffff1681526020019081526020016000206000846fffffffffffffffffffffffffffffffff166fffffffffffffffffffffffffffffffff1681526020019081526020016000205490506000614ba3878a615aca90919063ffffffff16565b90506000614bba828461137790919063ffffffff16565b90508060126000866fffffffffffffffffffffffffffffffff166fffffffffffffffffffffffffffffffff1681526020019081526020016000206000876fffffffffffffffffffffffffffffffff166fffffffffffffffffffffffffffffffff168152602001908152602001600020819055507fe12e2cd2c9afa8069203ca07e7eff1edce4a075686d0736a8e7e0d593597b20781858760405180848152602001836fffffffffffffffffffffffffffffffff166fffffffffffffffffffffffffffffffff168152602001826fffffffffffffffffffffffffffffffff166fffffffffffffffffffffffffffffffff168152602001935050505060405180910390a16000861415614e5f57614ceb6001856fffffffffffffffffffffffffffffffff166163f190919063ffffffff16565b601160106101000a8154816fffffffffffffffffffffffffffffffff02191690836fffffffffffffffffffffffffffffffff1602179055507fb50f0f59e7cb5b421dc77581c3a9919e3806e076e5fa78a874c3f120cb7d874d601160109054906101000a90046fffffffffffffffffffffffffffffffff1660405180826fffffffffffffffffffffffffffffffff166fffffffffffffffffffffffffffffffff16815260200191505060405180910390a16000601160006101000a8154816fffffffffffffffffffffffffffffffff02191690836fffffffffffffffffffffffffffffffff1602179055507f1f9dfc70cd666adb18a39d60a797518f7b4febf4b6e24ef37d44f6e1e7219fbe601160009054906101000a90046fffffffffffffffffffffffffffffffff1660405180826fffffffffffffffffffffffffffffffff166fffffffffffffffffffffffffffffffff16815260200191505060405180910390a1670de0b6b3a76400009650614fe9565b633b9aca00614e91670de0b6b3a7640000614e83898c615aca90919063ffffffff16565b615b5090919063ffffffff16565b1015614fb857614eda670de0b6b3a7640000614ecc633b9aca00614ebe8a8d615aca90919063ffffffff16565b615aca90919063ffffffff16565b615b5090919063ffffffff16565b9650614f026001866fffffffffffffffffffffffffffffffff166163f190919063ffffffff16565b601160006101000a8154816fffffffffffffffffffffffffffffffff02191690836fffffffffffffffffffffffffffffffff1602179055507f1f9dfc70cd666adb18a39d60a797518f7b4febf4b6e24ef37d44f6e1e7219fbe601160009054906101000a90046fffffffffffffffffffffffffffffffff1660405180826fffffffffffffffffffffffffffffffff166fffffffffffffffffffffffffffffffff16815260200191505060405180910390a1614fe8565b614fe5670de0b6b3a7640000614fd7888b615aca90919063ffffffff16565b615b5090919063ffffffff16565b96505b5b60008711614ff357fe5b866010819055507fc1a9618cb59ebca77cbdbc2949f126823c407ff13edb285fd0262519a9c18e8c876040518082815260200191505060405180910390a150505050505050505050565b60008060009054906101000a900473ffffffffffffffffffffffffffffffffffffffff1690508073ffffffffffffffffffffffffffffffffffffffff166338d995a8836040518263ffffffff1660e01b815260040180828152602001915050600060405180830381600087803b1580156150b657600080fd5b505af11580156150ca573d6000803e3d6000fd5b505050506150d782616396565b600660009054906101000a900473ffffffffffffffffffffffffffffffffffffffff1673ffffffffffffffffffffffffffffffffffffffff16639dc29fac30846040518363ffffffff1660e01b8152600401808373ffffffffffffffffffffffffffffffffffffffff1673ffffffffffffffffffffffffffffffffffffffff16815260200182815260200192505050600060405180830381600087803b15801561518057600080fd5b505af1158015615194573d6000803e3d6000fd5b505050508073ffffffffffffffffffffffffffffffffffffffff166364a197f330856040518363ffffffff1660e01b8152600401808373ffffffffffffffffffffffffffffffffffffffff1673ffffffffffffffffffffffffffffffffffffffff16815260200182815260200192505050600060405180830381600087803b15801561521f57600080fd5b505af1158015615233573d6000803e3d6000fd5b50505050505050565b6000808260800151905060008360600151905060008460000151905060008560200151905060006152e28360126000886fffffffffffffffffffffffffffffffff166fffffffffffffffffffffffffffffffff1681526020019081526020016000206000876fffffffffffffffffffffffffffffffff166fffffffffffffffffffffffffffffffff16815260200190815260200160002054613aa090919063ffffffff16565b9050600061538e633b9aca0060126000896fffffffffffffffffffffffffffffffff166fffffffffffffffffffffffffffffffff168152602001908152602001600020600061534d60018a6fffffffffffffffffffffffffffffffff166163f190919063ffffffff16565b6fffffffffffffffffffffffffffffffff166fffffffffffffffffffffffffffffffff16815260200190815260200160002054615b5090919063ffffffff16565b905060006153e3670de0b6b3a76400006153d5866153c76153b8878961137790919063ffffffff16565b8f615aca90919063ffffffff16565b615b5090919063ffffffff16565b615b5090919063ffffffff16565b90508097505050505050505092915050565b600d60008273ffffffffffffffffffffffffffffffffffffffff1673ffffffffffffffffffffffffffffffffffffffff16815260200190815260200160002060010160009054906101000a900460ff161561549b576040517f08c379a00000000000000000000000000000000000000000000000000000000081526004018080602001828103825260398152602001806167c36039913960400191505060405180910390fd5b50565b6000600b60008373ffffffffffffffffffffffffffffffffffffffff1673ffffffffffffffffffffffffffffffffffffffff1681526020019081526020016000206000015490506000811461553e576040517f08c379a00000000000000000000000000000000000000000000000000000000081526004018080602001828103825260288152602001806167fc6028913960400191505060405180910390fd5b5050565b670de0b6b3a76400008111156155a3576040517f08c379a000000000000000000000000000000000000000000000000000000000815260040180806020018281038252603381526020018061676a6033913960400191505060405180910390fd5b50565b600d60008273ffffffffffffffffffffffffffffffffffffffff1673ffffffffffffffffffffffffffffffffffffffff16815260200190815260200160002060010160009054906101000a900460ff168061562d5750600073ffffffffffffffffffffffffffffffffffffffff168173ffffffffffffffffffffffffffffffffffffffff16145b615682576040517f08c379a00000000000000000000000000000000000000000000000000000000081526004018080602001828103825260468152602001806166616046913960600191505060405180910390fd5b50565b600081116156de576040517f08c379a000000000000000000000000000000000000000000000000000000000815260040180806020018281038252602681526020018061679d6026913960400191505060405180910390fd5b50565b80600b60008473ffffffffffffffffffffffffffffffffffffffff1673ffffffffffffffffffffffffffffffffffffffff16815260200190815260200160002060010160006101000a81548173ffffffffffffffffffffffffffffffffffffffff021916908373ffffffffffffffffffffffffffffffffffffffff1602179055508073ffffffffffffffffffffffffffffffffffffffff168273ffffffffffffffffffffffffffffffffffffffff167f094c08e96a8890877a8390b4f967180a7507ad8622244d05fcd0f9f8e086564e60405160405180910390a35050565b600660009054906101000a900473ffffffffffffffffffffffffffffffffffffffff1673ffffffffffffffffffffffffffffffffffffffff1663bb997bac8330846040518463ffffffff1660e01b8152600401808473ffffffffffffffffffffffffffffffffffffffff1673ffffffffffffffffffffffffffffffffffffffff1681526020018373ffffffffffffffffffffffffffffffffffffffff1673ffffffffffffffffffffffffffffffffffffffff1681526020018281526020019350505050600060405180830381600087803b15801561589d57600080fd5b505af11580156158b1573d6000803e3d6000fd5b5050505060006158cc82600a5461137790919063ffffffff16565b905080600a819055507fa8e886449d8f7e765877b4a4f54632da3943ae454d5a272bdccb1781f086ff29816040518082815260200191505060405180910390a1505050565b6000808260800151905060008360600151905060008460400151905060008560200151905060006159b78360136000886fffffffffffffffffffffffffffffffff166fffffffffffffffffffffffffffffffff1681526020019081526020016000206000876fffffffffffffffffffffffffffffffff166fffffffffffffffffffffffffffffffff16815260200190815260200160002054613aa090919063ffffffff16565b90506000615a63633b9aca0060136000896fffffffffffffffffffffffffffffffff166fffffffffffffffffffffffffffffffff1681526020019081526020016000206000615a2260018a6fffffffffffffffffffffffffffffffff166163f190919063ffffffff16565b6fffffffffffffffffffffffffffffffff166fffffffffffffffffffffffffffffffff16815260200190815260200160002054615b5090919063ffffffff16565b90506000615ab8670de0b6b3a7640000615aaa86615a9c615a8d878961137790919063ffffffff16565b8f615aca90919063ffffffff16565b615b5090919063ffffffff16565b615b5090919063ffffffff16565b90508097505050505050505092915050565b600080831415615add5760009050615b4a565b6000828402905082848281615aee57fe5b0414615b45576040517f08c379a00000000000000000000000000000000000000000000000000000000081526004018080602001828103825260218152602001806167496021913960400191505060405180910390fd5b809150505b92915050565b6000615b9283836040518060400160405280601a81526020017f536166654d6174683a206469766973696f6e206279207a65726f000000000000815250616480565b905092915050565b600073ffffffffffffffffffffffffffffffffffffffff168173ffffffffffffffffffffffffffffffffffffffff161415615c3d576040517f08c379a000000000000000000000000000000000000000000000000000000000815260040180806020018281038252601e8152602001807f4163636f756e742063616e6e6f74206265207a65726f2061646472657373000081525060200191505060405180910390fd5b6000813b905060008111615cb9576040517f08c379a00000000000000000000000000000000000000000000000000000000081526004018080602001828103825260208152602001807f4163636f756e7420636f64652073697a652063616e6e6f74206265207a65726f81525060200191505060405180910390fd5b5050565b600073ffffffffffffffffffffffffffffffffffffffff16600360009054906101000a900473ffffffffffffffffffffffffffffffffffffffff1673ffffffffffffffffffffffffffffffffffffffff167f8be0079c531659141344cd1fd0a4f28419497f9722a3daafe3b4186f6b6457e060405160405180910390a36000600360006101000a81548173ffffffffffffffffffffffffffffffffffffffff021916908373ffffffffffffffffffffffffffffffffffffffff160217905550565b6001600560009054906101000a900473ffffffffffffffffffffffffffffffffffffffff1673ffffffffffffffffffffffffffffffffffffffff166321e37801836040518263ffffffff1660e01b8152600401808273ffffffffffffffffffffffffffffffffffffffff1673ffffffffffffffffffffffffffffffffffffffff16815260200191505060206040518083038186803b158015615e1f57600080fd5b505afa158015615e33573d6000803e3d6000fd5b505050506040513d6020811015615e4957600080fd5b810190808051906020019092919050505014615eb0576040517f08c379a000000000000000000000000000000000000000000000000000000000815260040180806020018281038252604681526020018061661b6046913960600191505060405180910390fd5b50565b6000615ebe8261198a565b905060008111615f19576040517f08c379a00000000000000000000000000000000000000000000000000000000081526004018080602001828103825260318152602001806166ce6031913960400191505060405180910390fd5b5050565b6000826fffffffffffffffffffffffffffffffff16826fffffffffffffffffffffffffffffffff161115615f9c576040517f08c379a00000000000000000000000000000000000000000000000000000000081526004018080602001828103825260288152602001806168546028913960400191505060405180910390fd5b600082840390508091505092915050565b6000600a5490506000811480615fc35750600082145b15615fce57506162d3565b6000615fda8383616546565b90506000615ff360105483615aca90919063ffffffff16565b90506160b08160136000601160109054906101000a90046fffffffffffffffffffffffffffffffff166fffffffffffffffffffffffffffffffff166fffffffffffffffffffffffffffffffff1681526020019081526020016000206000601160009054906101000a90046fffffffffffffffffffffffffffffffff166fffffffffffffffffffffffffffffffff166fffffffffffffffffffffffffffffffff1681526020019081526020016000205461137790919063ffffffff16565b60136000601160109054906101000a90046fffffffffffffffffffffffffffffffff166fffffffffffffffffffffffffffffffff166fffffffffffffffffffffffffffffffff1681526020019081526020016000206000601160009054906101000a90046fffffffffffffffffffffffffffffffff166fffffffffffffffffffffffffffffffff166fffffffffffffffffffffffffffffffff168152602001908152602001600020819055507f2d6127771b164a9cc8827d24b5955db2a77e7a81dac389107ebb8bce9fb6496860136000601160109054906101000a90046fffffffffffffffffffffffffffffffff166fffffffffffffffffffffffffffffffff166fffffffffffffffffffffffffffffffff1681526020019081526020016000206000601160009054906101000a90046fffffffffffffffffffffffffffffffff166fffffffffffffffffffffffffffffffff166fffffffffffffffffffffffffffffffff16815260200190815260200160002054601160109054906101000a90046fffffffffffffffffffffffffffffffff16601160009054906101000a90046fffffffffffffffffffffffffffffffff1660405180848152602001836fffffffffffffffffffffffffffffffff166fffffffffffffffffffffffffffffffff168152602001826fffffffffffffffffffffffffffffffff166fffffffffffffffffffffffffffffffff168152602001935050505060405180910390a15050505b50565b6000838311158290616383576040517f08c379a00000000000000000000000000000000000000000000000000000000081526004018080602001828103825283818151815260200191508051906020019080838360005b8381101561634857808201518184015260208101905061632d565b50505050905090810190601f1680156163755780820380516001836020036101000a031916815260200191505b509250505060405180910390fd5b5060008385039050809150509392505050565b60006163ad82600a54613aa090919063ffffffff16565b905080600a819055507fa8e886449d8f7e765877b4a4f54632da3943ae454d5a272bdccb1781f086ff29816040518082815260200191505060405180910390a15050565b6000808284019050836fffffffffffffffffffffffffffffffff16816fffffffffffffffffffffffffffffffff161015616476576040517f08c379a000000000000000000000000000000000000000000000000000000000815260040180806020018281038252602581526020018061687c6025913960400191505060405180910390fd5b8091505092915050565b6000808311829061652c576040517f08c379a00000000000000000000000000000000000000000000000000000000081526004018080602001828103825283818151815260200191508051906020019080838360005b838110156164f15780820151818401526020810190506164d6565b50505050905090810190601f16801561651e5780820380516001836020036101000a031916815260200191505b509250505060405180910390fd5b50600083858161653857fe5b049050809150509392505050565b60008061657860145461656a670de0b6b3a764000087615aca90919063ffffffff16565b61137790919063ffffffff16565b9050600061658f8483615b5090919063ffffffff16565b90506165b66165a78583615aca90919063ffffffff16565b83613aa090919063ffffffff16565b601481905550809250505092915050565b6040518060a0016040528060008152602001600081526020016000815260200160006fffffffffffffffffffffffffffffffff16815260200160006fffffffffffffffffffffffffffffffff168152509056fe53746162696c697479506f6f6c3a2063616c6c6572206d757374206861766520616e206163746976652074726f766520746f207769746864726177204554484761696e20746f53746162696c697479506f6f6c3a20546167206d757374206265206120726567697374657265642066726f6e7420656e642c206f7220746865207a65726f206164647265737353746162696c697479506f6f6c3a2043616c6c6572206973206e6f7420416374697665506f6f6c53746162696c697479506f6f6c3a2063616c6c6572206d7573742068617665206e6f6e2d7a65726f20455448204761696e53746162696c697479506f6f6c3a2043616c6c6572206973206e6f742054726f76654d616e6167657253746162696c697479506f6f6c3a2073656e64696e6720455448206661696c6564536166654d6174683a206d756c7469706c69636174696f6e206f766572666c6f7753746162696c697479506f6f6c3a204b69636b6261636b2072617465206d75737420626520696e2072616e6765205b302c315d53746162696c697479506f6f6c3a20416d6f756e74206d757374206265206e6f6e2d7a65726f53746162696c697479506f6f6c3a206d757374206e6f7420616c7265616479206265206120726567697374657265642066726f6e7420656e6453746162696c697479506f6f6c3a2055736572206d7573742068617665206e6f206465706f73697453746162696c697479506f6f6c3a2055736572206d75737420686176652061206e6f6e2d7a65726f206465706f7369744c697175697479536166654d6174683132383a207375627472616374696f6e206f766572666c6f774c697175697479536166654d6174683132383a206164646974696f6e206f766572666c6f7753746162696c697479506f6f6c3a2043616e6e6f74207769746864726177207768696c65207468657265206172652074726f766573207769746820494352203c204d4352a264697066735822122029642c36b857b84ca38a81f2772b1fd413347302fab5e487037c18e5aeaabe1c64736f6c634300060b00336080604052348015600f57600080fd5b50603f80601d6000396000f3fe6080604052600080fdfea264697066735822122097fe0a5c42703de3f3917615e03ad963bdf927e845c91f878df8b2b756b7da2e64736f6c634300060b00336101606040523480156200001257600080fd5b506040516200289338038062002893833981810160405260608110156200003857600080fd5b810190808051906020019092919080519060200190929190805190602001909291905050506200006e836200035260201b60201c565b6200007f826200035260201b60201c565b62000090816200035260201b60201c565b8273ffffffffffffffffffffffffffffffffffffffff166101008173ffffffffffffffffffffffffffffffffffffffff1660601b815250507f143219c9e69b09e07e095fcc889b43d8f46ca892bba65f08dc3a0050869a567883604051808273ffffffffffffffffffffffffffffffffffffffff1673ffffffffffffffffffffffffffffffffffffffff16815260200191505060405180910390a18173ffffffffffffffffffffffffffffffffffffffff166101208173ffffffffffffffffffffffffffffffffffffffff1660601b815250507f82966d27eea39b038ee0fa30cd16532bb24f6e65d31cb58fb227aa5766cdcc7f82604051808273ffffffffffffffffffffffffffffffffffffffff1673ffffffffffffffffffffffffffffffffffffffff16815260200191505060405180910390a18073ffffffffffffffffffffffffffffffffffffffff166101408173ffffffffffffffffffffffffffffffffffffffff1660601b815250507f3ca631ffcd2a9b5d9ae18543fc82f58eb4ca33af9e6ab01b7a8e95331e6ed98581604051808273ffffffffffffffffffffffffffffffffffffffff1673ffffffffffffffffffffffffffffffffffffffff16815260200191505060405180910390a160006040518060400160405280600f81526020017f4c55534420537461626c65636f696e000000000000000000000000000000000081525080519060200120905060006040518060400160405280600181526020017f31000000000000000000000000000000000000000000000000000000000000008152508051906020012090508160c081815250508060e08181525050620003036200047760201b60201c565b60a08181525050620003407f8b73c3c69bb8fe3d512ecc4cf759cc79239f7b179b0ffacaa9a75d522b39400f60001b83836200047f60201b60201c565b6080818152505050505050506200050c565b600073ffffffffffffffffffffffffffffffffffffffff168173ffffffffffffffffffffffffffffffffffffffff161415620003f6576040517f08c379a000000000000000000000000000000000000000000000000000000000815260040180806020018281038252601e8152602001807f4163636f756e742063616e6e6f74206265207a65726f2061646472657373000081525060200191505060405180910390fd5b6000813b90506000811162000473576040517f08c379a00000000000000000000000000000000000000000000000000000000081526004018080602001828103825260208152602001807f4163636f756e7420636f64652073697a652063616e6e6f74206265207a65726f81525060200191505060405180910390fd5b5050565b600046905090565b6000838383620004946200047760201b60201c565b30604051602001808681526020018581526020018481526020018381526020018273ffffffffffffffffffffffffffffffffffffffff1673ffffffffffffffffffffffffffffffffffffffff168152602001955050505050506040516020818303038152906040528051906020012090509392505050565b60805160a05160c05160e0516101005160601c6101205160601c6101405160601c6122f86200059b60003980610e11528061188f5280611a805280611c775250806109e4528061145f52806117e05280611d225280611f34525080610c29528061140a52806118375280611ccc5250806112855250806112645250806111e652508061121552506122f86000f3fe608060405234801561001057600080fd5b506004361061014d5760003560e01c80635a4d28bb116100c3578063a9059cbb1161007c578063a9059cbb14610741578063b7f8cf9b146107a7578063bb997bac146107f1578063d505accf1461085f578063dd62ed3e146108f8578063f698da25146109705761014d565b80635a4d28bb1461051057806370a082311461055a5780637ecebe00146105b257806395d89b411461060a5780639dc29fac1461068d578063a457c2d7146106db5761014d565b806320c582be1161011557806320c582be146102c157806323b872dd1461032f578063313ce567146103b557806339509351146103d957806340c10f191461043f57806354fd4d501461048d5761014d565b806306fdde0314610152578063095ea7b3146101d55780630b622ab21461023b57806310ce43bd1461028557806318160ddd146102a3575b600080fd5b61015a61098e565b6040518080602001828103825283818151815260200191508051906020019080838360005b8381101561019a57808201518184015260208101905061017f565b50505050905090810190601f1680156101c75780820380516001836020036101000a031916815260200191505b509250505060405180910390f35b610221600480360360408110156101eb57600080fd5b81019080803573ffffffffffffffffffffffffffffffffffffffff169060200190929190803590602001909291905050506109cb565b604051808215151515815260200191505060405180910390f35b6102436109e2565b604051808273ffffffffffffffffffffffffffffffffffffffff1673ffffffffffffffffffffffffffffffffffffffff16815260200191505060405180910390f35b61028d610a06565b6040518082815260200191505060405180910390f35b6102ab610a31565b6040518082815260200191505060405180910390f35b61032d600480360360608110156102d757600080fd5b81019080803573ffffffffffffffffffffffffffffffffffffffff169060200190929190803573ffffffffffffffffffffffffffffffffffffffff16906020019092919080359060200190929190505050610a3a565b005b61039b6004803603606081101561034557600080fd5b81019080803573ffffffffffffffffffffffffffffffffffffffff169060200190929190803573ffffffffffffffffffffffffffffffffffffffff16906020019092919080359060200190929190505050610a52565b604051808215151515815260200191505060405180910390f35b6103bd610b26565b604051808260ff1660ff16815260200191505060405180910390f35b610425600480360360408110156103ef57600080fd5b81019080803573ffffffffffffffffffffffffffffffffffffffff16906020019092919080359060200190929190505050610b2f565b604051808215151515815260200191505060405180910390f35b61048b6004803603604081101561045557600080fd5b81019080803573ffffffffffffffffffffffffffffffffffffffff16906020019092919080359060200190929190505050610bd4565b005b610495610bea565b6040518080602001828103825283818151815260200191508051906020019080838360005b838110156104d55780820151818401526020810190506104ba565b50505050905090810190601f1680156105025780820380516001836020036101000a031916815260200191505b509250505060405180910390f35b610518610c27565b604051808273ffffffffffffffffffffffffffffffffffffffff1673ffffffffffffffffffffffffffffffffffffffff16815260200191505060405180910390f35b61059c6004803603602081101561057057600080fd5b81019080803573ffffffffffffffffffffffffffffffffffffffff169060200190929190505050610c4b565b6040518082815260200191505060405180910390f35b6105f4600480360360208110156105c857600080fd5b81019080803573ffffffffffffffffffffffffffffffffffffffff169060200190929190505050610c94565b6040518082815260200191505060405180910390f35b610612610cdd565b6040518080602001828103825283818151815260200191508051906020019080838360005b83811015610652578082015181840152602081019050610637565b50505050905090810190601f16801561067f5780820380516001836020036101000a031916815260200191505b509250505060405180910390f35b6106d9600480360360408110156106a357600080fd5b81019080803573ffffffffffffffffffffffffffffffffffffffff16906020019092919080359060200190929190505050610d1a565b005b610727600480360360408110156106f157600080fd5b81019080803573ffffffffffffffffffffffffffffffffffffffff16906020019092919080359060200190929190505050610d30565b604051808215151515815260200191505060405180910390f35b61078d6004803603604081101561075757600080fd5b81019080803573ffffffffffffffffffffffffffffffffffffffff16906020019092919080359060200190929190505050610def565b604051808215151515815260200191505060405180910390f35b6107af610e0f565b604051808273ffffffffffffffffffffffffffffffffffffffff1673ffffffffffffffffffffffffffffffffffffffff16815260200191505060405180910390f35b61085d6004803603606081101561080757600080fd5b81019080803573ffffffffffffffffffffffffffffffffffffffff169060200190929190803573ffffffffffffffffffffffffffffffffffffffff16906020019092919080359060200190929190505050610e33565b005b6108f6600480360360e081101561087557600080fd5b81019080803573ffffffffffffffffffffffffffffffffffffffff169060200190929190803573ffffffffffffffffffffffffffffffffffffffff1690602001909291908035906020019092919080359060200190929190803560ff1690602001909291908035906020019092919080359060200190929190505050610e4b565b005b61095a6004803603604081101561090e57600080fd5b81019080803573ffffffffffffffffffffffffffffffffffffffff169060200190929190803573ffffffffffffffffffffffffffffffffffffffff16906020019092919050505061115b565b6040518082815260200191505060405180910390f35b6109786111e2565b6040518082815260200191505060405180910390f35b60606040518060400160405280600f81526020017f4c55534420537461626c65636f696e0000000000000000000000000000000000815250905090565b60006109d83384846112af565b6001905092915050565b7f000000000000000000000000000000000000000000000000000000000000000081565b60007f6e71edae12b1b97f4d1f60370fef10105fa2faae0126114a169c64845d6126c960001b905090565b60008054905090565b610a42611408565b610a4d838383611504565b505050565b6000610a5d83611720565b610a68848484611504565b610b1b8433610b16856040518060600160405280602881526020016121cb60289139600360008b73ffffffffffffffffffffffffffffffffffffffff1673ffffffffffffffffffffffffffffffffffffffff16815260200190815260200160002060003373ffffffffffffffffffffffffffffffffffffffff1673ffffffffffffffffffffffffffffffffffffffff168152602001908152602001600020546119369092919063ffffffff16565b6112af565b600190509392505050565b60006012905090565b6000610bca3384610bc585600360003373ffffffffffffffffffffffffffffffffffffffff1673ffffffffffffffffffffffffffffffffffffffff16815260200190815260200160002060008973ffffffffffffffffffffffffffffffffffffffff1673ffffffffffffffffffffffffffffffffffffffff168152602001908152602001600020546119f690919063ffffffff16565b6112af565b6001905092915050565b610bdc611a7e565b610be68282611b24565b5050565b60606040518060400160405280600181526020017f3100000000000000000000000000000000000000000000000000000000000000815250905090565b7f000000000000000000000000000000000000000000000000000000000000000081565b6000600260008373ffffffffffffffffffffffffffffffffffffffff1673ffffffffffffffffffffffffffffffffffffffff168152602001908152602001600020549050919050565b6000600160008373ffffffffffffffffffffffffffffffffffffffff1673ffffffffffffffffffffffffffffffffffffffff168152602001908152602001600020549050919050565b60606040518060400160405280600481526020017f4c55534400000000000000000000000000000000000000000000000000000000815250905090565b610d22611c75565b610d2c8282611dc7565b5050565b6000610de53384610de08560405180606001604052806025815260200161224a60259139600360003373ffffffffffffffffffffffffffffffffffffffff1673ffffffffffffffffffffffffffffffffffffffff16815260200190815260200160002060008a73ffffffffffffffffffffffffffffffffffffffff1673ffffffffffffffffffffffffffffffffffffffff168152602001908152602001600020546119369092919063ffffffff16565b6112af565b6001905092915050565b6000610dfa83611720565b610e05338484611504565b6001905092915050565b7f000000000000000000000000000000000000000000000000000000000000000081565b610e3b611f32565b610e46838383611504565b505050565b42841015610ec1576040517f08c379a00000000000000000000000000000000000000000000000000000000081526004018080602001828103825260168152602001807f4c5553443a206578706972656420646561646c696e650000000000000000000081525060200191505060405180910390fd5b6000610ecb6111e2565b7f6e71edae12b1b97f4d1f60370fef10105fa2faae0126114a169c64845d6126c960001b898989600160008e73ffffffffffffffffffffffffffffffffffffffff1673ffffffffffffffffffffffffffffffffffffffff1681526020019081526020016000206000815480929190600101919050558a604051602001808781526020018673ffffffffffffffffffffffffffffffffffffffff1673ffffffffffffffffffffffffffffffffffffffff1681526020018573ffffffffffffffffffffffffffffffffffffffff1673ffffffffffffffffffffffffffffffffffffffff16815260200184815260200183815260200182815260200196505050505050506040516020818303038152906040528051906020012060405160200180807f190100000000000000000000000000000000000000000000000000000000000081525060020183815260200182815260200192505050604051602081830303815290604052805190602001209050600060018286868660405160008152602001604052604051808581526020018460ff1660ff1681526020018381526020018281526020019450505050506020604051602081039080840390855afa158015611098573d6000803e3d6000fd5b5050506020604051035190508873ffffffffffffffffffffffffffffffffffffffff168173ffffffffffffffffffffffffffffffffffffffff1614611145576040517f08c379a00000000000000000000000000000000000000000000000000000000081526004018080602001828103825260178152602001807f4c5553443a20696e76616c6964207369676e617475726500000000000000000081525060200191505060405180910390fd5b6111508989896112af565b505050505050505050565b6000600360008473ffffffffffffffffffffffffffffffffffffffff1673ffffffffffffffffffffffffffffffffffffffff16815260200190815260200160002060008373ffffffffffffffffffffffffffffffffffffffff1673ffffffffffffffffffffffffffffffffffffffff16815260200190815260200160002054905092915050565b60007f000000000000000000000000000000000000000000000000000000000000000061120d611fd8565b141561123b577f000000000000000000000000000000000000000000000000000000000000000090506112ac565b6112a97f8b73c3c69bb8fe3d512ecc4cf759cc79239f7b179b0ffacaa9a75d522b39400f60001b7f00000000000000000000000000000000000000000000000000000000000000007f0000000000000000000000000000000000000000000000000000000000000000611fe0565b90505b90565b600073ffffffffffffffffffffffffffffffffffffffff168373ffffffffffffffffffffffffffffffffffffffff1614156112e657fe5b600073ffffffffffffffffffffffffffffffffffffffff168273ffffffffffffffffffffffffffffffffffffffff16141561131d57fe5b80600360008573ffffffffffffffffffffffffffffffffffffffff1673ffffffffffffffffffffffffffffffffffffffff16815260200190815260200160002060008473ffffffffffffffffffffffffffffffffffffffff1673ffffffffffffffffffffffffffffffffffffffff168152602001908152602001600020819055508173ffffffffffffffffffffffffffffffffffffffff168373ffffffffffffffffffffffffffffffffffffffff167f8c5be1e5ebec7d5bd14f71427d1e84f3dd0314c0f7b2291e5b200ac8c7c3b925836040518082815260200191505060405180910390a3505050565b7f000000000000000000000000000000000000000000000000000000000000000073ffffffffffffffffffffffffffffffffffffffff163373ffffffffffffffffffffffffffffffffffffffff1614806114ad57507f000000000000000000000000000000000000000000000000000000000000000073ffffffffffffffffffffffffffffffffffffffff163373ffffffffffffffffffffffffffffffffffffffff16145b611502576040517f08c379a00000000000000000000000000000000000000000000000000000000081526004018080602001828103825260368152602001806120b06036913960400191505060405180910390fd5b565b600073ffffffffffffffffffffffffffffffffffffffff168373ffffffffffffffffffffffffffffffffffffffff16141561153b57fe5b600073ffffffffffffffffffffffffffffffffffffffff168273ffffffffffffffffffffffffffffffffffffffff16141561157257fe5b6115de8160405180606001604052806026815260200161210860269139600260008773ffffffffffffffffffffffffffffffffffffffff1673ffffffffffffffffffffffffffffffffffffffff168152602001908152602001600020546119369092919063ffffffff16565b600260008573ffffffffffffffffffffffffffffffffffffffff1673ffffffffffffffffffffffffffffffffffffffff1681526020019081526020016000208190555061167381600260008573ffffffffffffffffffffffffffffffffffffffff1673ffffffffffffffffffffffffffffffffffffffff168152602001908152602001600020546119f690919063ffffffff16565b600260008473ffffffffffffffffffffffffffffffffffffffff1673ffffffffffffffffffffffffffffffffffffffff168152602001908152602001600020819055508173ffffffffffffffffffffffffffffffffffffffff168373ffffffffffffffffffffffffffffffffffffffff167fddf252ad1be2c89b69c2b068fc378daa952ba7f163c4a11628f55a4df523b3ef836040518082815260200191505060405180910390a3505050565b600073ffffffffffffffffffffffffffffffffffffffff168173ffffffffffffffffffffffffffffffffffffffff161415801561178957503073ffffffffffffffffffffffffffffffffffffffff168173ffffffffffffffffffffffffffffffffffffffff1614155b6117de576040517f08c379a000000000000000000000000000000000000000000000000000000000815260040180806020018281038252605481526020018061226f6054913960600191505060405180910390fd5b7f000000000000000000000000000000000000000000000000000000000000000073ffffffffffffffffffffffffffffffffffffffff168173ffffffffffffffffffffffffffffffffffffffff161415801561188657507f000000000000000000000000000000000000000000000000000000000000000073ffffffffffffffffffffffffffffffffffffffff168173ffffffffffffffffffffffffffffffffffffffff1614155b80156118de57507f000000000000000000000000000000000000000000000000000000000000000073ffffffffffffffffffffffffffffffffffffffff168173ffffffffffffffffffffffffffffffffffffffff1614155b611933576040517f08c379a00000000000000000000000000000000000000000000000000000000081526004018080602001828103825260578152602001806121f36057913960600191505060405180910390fd5b50565b60008383111582906119e3576040517f08c379a00000000000000000000000000000000000000000000000000000000081526004018080602001828103825283818151815260200191508051906020019080838360005b838110156119a857808201518184015260208101905061198d565b50505050905090810190601f1680156119d55780820380516001836020036101000a031916815260200191505b509250505060405180910390fd5b5060008385039050809150509392505050565b600080828401905083811015611a74576040517f08c379a000000000000000000000000000000000000000000000000000000000815260040180806020018281038252601b8152602001807f536166654d6174683a206164646974696f6e206f766572666c6f77000000000081525060200191505060405180910390fd5b8091505092915050565b7f000000000000000000000000000000000000000000000000000000000000000073ffffffffffffffffffffffffffffffffffffffff163373ffffffffffffffffffffffffffffffffffffffff1614611b22576040517f08c379a000000000000000000000000000000000000000000000000000000000815260040180806020018281038252602b8152602001806121a0602b913960400191505060405180910390fd5b565b600073ffffffffffffffffffffffffffffffffffffffff168273ffffffffffffffffffffffffffffffffffffffff161415611b5b57fe5b611b70816000546119f690919063ffffffff16565b600081905550611bc881600260008573ffffffffffffffffffffffffffffffffffffffff1673ffffffffffffffffffffffffffffffffffffffff168152602001908152602001600020546119f690919063ffffffff16565b600260008473ffffffffffffffffffffffffffffffffffffffff1673ffffffffffffffffffffffffffffffffffffffff168152602001908152602001600020819055508173ffffffffffffffffffffffffffffffffffffffff16600073ffffffffffffffffffffffffffffffffffffffff167fddf252ad1be2c89b69c2b068fc378daa952ba7f163c4a11628f55a4df523b3ef836040518082815260200191505060405180910390a35050565b7f000000000000000000000000000000000000000000000000000000000000000073ffffffffffffffffffffffffffffffffffffffff163373ffffffffffffffffffffffffffffffffffffffff161480611d1a57507f000000000000000000000000000000000000000000000000000000000000000073ffffffffffffffffffffffffffffffffffffffff163373ffffffffffffffffffffffffffffffffffffffff16145b80611d7057507f000000000000000000000000000000000000000000000000000000000000000073ffffffffffffffffffffffffffffffffffffffff163373ffffffffffffffffffffffffffffffffffffffff16145b611dc5576040517f08c379a000000000000000000000000000000000000000000000000000000000815260040180806020018281038252604d81526020018061212e604d913960600191505060405180910390fd5b565b600073ffffffffffffffffffffffffffffffffffffffff168273ffffffffffffffffffffffffffffffffffffffff161415611dfe57fe5b611e6a816040518060600160405280602281526020016120e660229139600260008673ffffffffffffffffffffffffffffffffffffffff1673ffffffffffffffffffffffffffffffffffffffff168152602001908152602001600020546119369092919063ffffffff16565b600260008473ffffffffffffffffffffffffffffffffffffffff1673ffffffffffffffffffffffffffffffffffffffff16815260200190815260200160002081905550611ec28160005461206590919063ffffffff16565b600081905550600073ffffffffffffffffffffffffffffffffffffffff168273ffffffffffffffffffffffffffffffffffffffff167fddf252ad1be2c89b69c2b068fc378daa952ba7f163c4a11628f55a4df523b3ef836040518082815260200191505060405180910390a35050565b7f000000000000000000000000000000000000000000000000000000000000000073ffffffffffffffffffffffffffffffffffffffff163373ffffffffffffffffffffffffffffffffffffffff1614611fd6576040517f08c379a000000000000000000000000000000000000000000000000000000000815260040180806020018281038252602581526020018061217b6025913960400191505060405180910390fd5b565b600046905090565b6000838383611fed611fd8565b30604051602001808681526020018581526020018481526020018381526020018273ffffffffffffffffffffffffffffffffffffffff1673ffffffffffffffffffffffffffffffffffffffff168152602001955050505050506040516020818303038152906040528051906020012090509392505050565b60006120a783836040518060400160405280601e81526020017f536166654d6174683a207375627472616374696f6e206f766572666c6f770000815250611936565b90509291505056fe4c5553443a2043616c6c6572206973206e6569746865722054726f76654d616e61676572206e6f722053746162696c697479506f6f6c45524332303a206275726e20616d6f756e7420657863656564732062616c616e636545524332303a207472616e7366657220616d6f756e7420657863656564732062616c616e63654c5553443a2043616c6c6572206973206e65697468657220426f72726f7765724f7065726174696f6e73206e6f722054726f76654d616e61676572206e6f722053746162696c697479506f6f6c4c5553443a2043616c6c6572206973206e6f74207468652053746162696c697479506f6f6c4c555344546f6b656e3a2043616c6c6572206973206e6f7420426f72726f7765724f7065726174696f6e7345524332303a207472616e7366657220616d6f756e74206578636565647320616c6c6f77616e63654c5553443a2043616e6e6f74207472616e7366657220746f6b656e73206469726563746c7920746f207468652053746162696c697479506f6f6c2c2054726f76654d616e61676572206f7220426f72726f7765724f707345524332303a2064656372656173656420616c6c6f77616e63652062656c6f77207a65726f4c5553443a2043616e6e6f74207472616e7366657220746f6b656e73206469726563746c7920746f20746865204c55534420746f6b656e20636f6e7472616374206f7220746865207a65726f2061646472657373a26469706673582212200d3ff9f44f06f340ab30e27042197eed9a880ead441ffe9e4176e2a25149fea064736f6c634300060b0033608060405234801561001057600080fd5b50336000806101000a81548173ffffffffffffffffffffffffffffffffffffffff021916908373ffffffffffffffffffffffffffffffffffffffff1602179055503373ffffffffffffffffffffffffffffffffffffffff16600073ffffffffffffffffffffffffffffffffffffffff167f8be0079c531659141344cd1fd0a4f28419497f9722a3daafe3b4186f6b6457e060405160405180910390a36112b8806100bb6000396000f3fe6080604052600436106100a05760003560e01c80638f32d59b116100645780638f32d59b146102945780639b56d6c9146102c3578063a3f4df7e14610328578063b08bc722146103b8578063b32beb5b1461040f578063b7f8cf9b14610460576100ca565b806314f6c3be146100cf578063363bf964146100fa5780633f10abab1461018b5780635a4d28bb146101e65780638da5cb5b1461023d576100ca565b366100ca576100ad6104b7565b6100c23460045461055f90919063ffffffff16565b600481905550005b600080fd5b3480156100db57600080fd5b506100e46105e7565b6040518082815260200191505060405180910390f35b34801561010657600080fd5b506101896004803603606081101561011d57600080fd5b81019080803573ffffffffffffffffffffffffffffffffffffffff169060200190929190803573ffffffffffffffffffffffffffffffffffffffff169060200190929190803573ffffffffffffffffffffffffffffffffffffffff1690602001909291905050506105f1565b005b34801561019757600080fd5b506101e4600480360360408110156101ae57600080fd5b81019080803573ffffffffffffffffffffffffffffffffffffffff1690602001909291908035906020019092919050505061087f565b005b3480156101f257600080fd5b506101fb610974565b604051808273ffffffffffffffffffffffffffffffffffffffff1673ffffffffffffffffffffffffffffffffffffffff16815260200191505060405180910390f35b34801561024957600080fd5b5061025261099a565b604051808273ffffffffffffffffffffffffffffffffffffffff1673ffffffffffffffffffffffffffffffffffffffff16815260200191505060405180910390f35b3480156102a057600080fd5b506102a96109c3565b604051808215151515815260200191505060405180910390f35b3480156102cf57600080fd5b50610312600480360360208110156102e657600080fd5b81019080803573ffffffffffffffffffffffffffffffffffffffff169060200190929190505050610a1a565b6040518082815260200191505060405180910390f35b34801561033457600080fd5b5061033d610a63565b6040518080602001828103825283818151815260200191508051906020019080838360005b8381101561037d578082015181840152602081019050610362565b50505050905090810190601f1680156103aa5780820380516001836020036101000a031916815260200191505b509250505060405180910390f35b3480156103c457600080fd5b506103cd610a9c565b604051808273ffffffffffffffffffffffffffffffffffffffff1673ffffffffffffffffffffffffffffffffffffffff16815260200191505060405180910390f35b34801561041b57600080fd5b5061045e6004803603602081101561043257600080fd5b81019080803573ffffffffffffffffffffffffffffffffffffffff169060200190929190505050610ac2565b005b34801561046c57600080fd5b50610475610d45565b604051808273ffffffffffffffffffffffffffffffffffffffff1673ffffffffffffffffffffffffffffffffffffffff16815260200191505060405180910390f35b600360009054906101000a900473ffffffffffffffffffffffffffffffffffffffff1673ffffffffffffffffffffffffffffffffffffffff163373ffffffffffffffffffffffffffffffffffffffff161461055d576040517f08c379a000000000000000000000000000000000000000000000000000000000815260040180806020018281038252602a8152602001806111d9602a913960400191505060405180910390fd5b565b6000808284019050838110156105dd576040517f08c379a000000000000000000000000000000000000000000000000000000000815260040180806020018281038252601b8152602001807f536166654d6174683a206164646974696f6e206f766572666c6f77000000000081525060200191505060405180910390fd5b8091505092915050565b6000600454905090565b6105f96109c3565b61066b576040517f08c379a00000000000000000000000000000000000000000000000000000000081526004018080602001828103825260208152602001807f4f776e61626c653a2063616c6c6572206973206e6f7420746865206f776e657281525060200191505060405180910390fd5b61067483610d6b565b61067d82610d6b565b61068681610d6b565b82600160006101000a81548173ffffffffffffffffffffffffffffffffffffffff021916908373ffffffffffffffffffffffffffffffffffffffff16021790555081600260006101000a81548173ffffffffffffffffffffffffffffffffffffffff021916908373ffffffffffffffffffffffffffffffffffffffff16021790555080600360006101000a81548173ffffffffffffffffffffffffffffffffffffffff021916908373ffffffffffffffffffffffffffffffffffffffff1602179055507f3ca631ffcd2a9b5d9ae18543fc82f58eb4ca33af9e6ab01b7a8e95331e6ed98583604051808273ffffffffffffffffffffffffffffffffffffffff1673ffffffffffffffffffffffffffffffffffffffff16815260200191505060405180910390a17f143219c9e69b09e07e095fcc889b43d8f46ca892bba65f08dc3a0050869a567882604051808273ffffffffffffffffffffffffffffffffffffffff1673ffffffffffffffffffffffffffffffffffffffff16815260200191505060405180910390a17f78f058b189175430c48dc02699e3a0031ea4ff781536dc2fab847de4babdd88281604051808273ffffffffffffffffffffffffffffffffffffffff1673ffffffffffffffffffffffffffffffffffffffff16815260200191505060405180910390a161087a610e8e565b505050565b610887610f4d565b60006108db82600560008673ffffffffffffffffffffffffffffffffffffffff1673ffffffffffffffffffffffffffffffffffffffff1681526020019081526020016000205461055f90919063ffffffff16565b905080600560008573ffffffffffffffffffffffffffffffffffffffff1673ffffffffffffffffffffffffffffffffffffffff168152602001908152602001600020819055508273ffffffffffffffffffffffffffffffffffffffff167ff0393a34d05e6567686ad4e097f9d9d2781565957394f1f0d984e5d8e6378f20826040518082815260200191505060405180910390a2505050565b600260009054906101000a900473ffffffffffffffffffffffffffffffffffffffff1681565b60008060009054906101000a900473ffffffffffffffffffffffffffffffffffffffff16905090565b60008060009054906101000a900473ffffffffffffffffffffffffffffffffffffffff1673ffffffffffffffffffffffffffffffffffffffff163373ffffffffffffffffffffffffffffffffffffffff1614905090565b6000600560008373ffffffffffffffffffffffffffffffffffffffff1673ffffffffffffffffffffffffffffffffffffffff168152602001908152602001600020549050919050565b6040518060400160405280600f81526020017f436f6c6c537572706c7573506f6f6c000000000000000000000000000000000081525081565b600360009054906101000a900473ffffffffffffffffffffffffffffffffffffffff1681565b610aca610ff5565b6000600560008373ffffffffffffffffffffffffffffffffffffffff1673ffffffffffffffffffffffffffffffffffffffff16815260200190815260200160002054905060008111610b67576040517f08c379a00000000000000000000000000000000000000000000000000000000081526004018080602001828103825260318152602001806111a86031913960400191505060405180910390fd5b6000600560008473ffffffffffffffffffffffffffffffffffffffff1673ffffffffffffffffffffffffffffffffffffffff168152602001908152602001600020819055508173ffffffffffffffffffffffffffffffffffffffff167ff0393a34d05e6567686ad4e097f9d9d2781565957394f1f0d984e5d8e6378f2060006040518082815260200191505060405180910390a2610c108160045461109d90919063ffffffff16565b6004819055507f6109e2559dfa766aaec7118351d48a523f0a4157f49c8d68749c8ac41318ad128282604051808373ffffffffffffffffffffffffffffffffffffffff1673ffffffffffffffffffffffffffffffffffffffff1681526020018281526020019250505060405180910390a160008273ffffffffffffffffffffffffffffffffffffffff168260405180600001905060006040518083038185875af1925050503d8060008114610ce1576040519150601f19603f3d011682016040523d82523d6000602084013e610ce6565b606091505b5050905080610d40576040517f08c379a00000000000000000000000000000000000000000000000000000000081526004018080602001828103825260238152602001806112036023913960400191505060405180910390fd5b505050565b600160009054906101000a900473ffffffffffffffffffffffffffffffffffffffff1681565b600073ffffffffffffffffffffffffffffffffffffffff168173ffffffffffffffffffffffffffffffffffffffff161415610e0e576040517f08c379a000000000000000000000000000000000000000000000000000000000815260040180806020018281038252601e8152602001807f4163636f756e742063616e6e6f74206265207a65726f2061646472657373000081525060200191505060405180910390fd5b6000813b905060008111610e8a576040517f08c379a00000000000000000000000000000000000000000000000000000000081526004018080602001828103825260208152602001807f4163636f756e7420636f64652073697a652063616e6e6f74206265207a65726f81525060200191505060405180910390fd5b5050565b600073ffffffffffffffffffffffffffffffffffffffff166000809054906101000a900473ffffffffffffffffffffffffffffffffffffffff1673ffffffffffffffffffffffffffffffffffffffff167f8be0079c531659141344cd1fd0a4f28419497f9722a3daafe3b4186f6b6457e060405160405180910390a360008060006101000a81548173ffffffffffffffffffffffffffffffffffffffff021916908373ffffffffffffffffffffffffffffffffffffffff160217905550565b600260009054906101000a900473ffffffffffffffffffffffffffffffffffffffff1673ffffffffffffffffffffffffffffffffffffffff163373ffffffffffffffffffffffffffffffffffffffff1614610ff3576040517f08c379a000000000000000000000000000000000000000000000000000000000815260040180806020018281038252602b815260200180611258602b913960400191505060405180910390fd5b565b600160009054906101000a900473ffffffffffffffffffffffffffffffffffffffff1673ffffffffffffffffffffffffffffffffffffffff163373ffffffffffffffffffffffffffffffffffffffff161461109b576040517f08c379a00000000000000000000000000000000000000000000000000000000081526004018080602001828103825260328152602001806112266032913960400191505060405180910390fd5b565b60006110df83836040518060400160405280601e81526020017f536166654d6174683a207375627472616374696f6e206f766572666c6f7700008152506110e7565b905092915050565b6000838311158290611194576040517f08c379a00000000000000000000000000000000000000000000000000000000081526004018080602001828103825283818151815260200191508051906020019080838360005b8381101561115957808201518184015260208101905061113e565b50505050905090810190601f1680156111865780820380516001836020036101000a031916815260200191505b509250505060405180910390fd5b506000838503905080915050939250505056fe436f6c6c537572706c7573506f6f6c3a204e6f20636f6c6c61746572616c20617661696c61626c6520746f20636c61696d436f6c6c537572706c7573506f6f6c3a2043616c6c6572206973206e6f742041637469766520506f6f6c436f6c6c537572706c7573506f6f6c3a2073656e64696e6720455448206661696c6564436f6c6c537572706c7573506f6f6c3a2043616c6c6572206973206e6f7420426f72726f776572204f7065726174696f6e73436f6c6c537572706c7573506f6f6c3a2043616c6c6572206973206e6f742054726f76654d616e61676572a264697066735822122041e47f40ab1e8a56ff94e5eba958bb4f9c99ebf638bd8001773d4426d463f50f64736f6c634300060b00336080604052680ad78ebc5ac620000060005534801561001d57600080fd5b506101168061002d6000396000f3fe6080604052348015600f57600080fd5b5060043610603c5760003560e01c80630fdb11cf14604157806391b7f5ed14605d57806398d5fdca1460a0575b600080fd5b604760bc565b6040518082815260200191505060405180910390f35b608660048036036020811015607157600080fd5b810190808035906020019092919050505060c5565b604051808215151515815260200191505060405180910390f35b60a660d7565b6040518082815260200191505060405180910390f35b60008054905090565b60008160008190555060019050919050565b6000805490509056fea2646970667358221220069b326e92703b94ab1c8bc34d700f2ce0119e805c79894a46286a9c1e503d9364736f6c634300060b0033608060405234801561001057600080fd5b50336000806101000a81548173ffffffffffffffffffffffffffffffffffffffff021916908373ffffffffffffffffffffffffffffffffffffffff1602179055503373ffffffffffffffffffffffffffffffffffffffff16600073ffffffffffffffffffffffffffffffffffffffff167f8be0079c531659141344cd1fd0a4f28419497f9722a3daafe3b4186f6b6457e060405160405180910390a361368f806100bb6000396000f3fe608060405234801561001057600080fd5b50600436106101375760003560e01c8063681fe70c116100b8578063a3f4df7e1161007c578063a3f4df7e146106f8578063b72703ac1461077b578063b7f8cf9b146107ff578063babd3d9a14610849578063de8fa4311461086b578063f376d7981461088957610137565b8063681fe70c1461055b57806373d4a13a1461057d578063765e0159146106085780638da5cb5b1461068c5780638f32d59b146106d657610137565b8063416980dc116100ff578063416980dc1461032857806346f7cf87146104095780634d622831146104975780635dbe47e8146104e157806363e1d57c1461053d57610137565b80631e2231431461013c57806329092d0e146101865780632be21260146101ca5780633d83908a146102585780633fce12d5146102a2575b600080fd5b6101446108f7565b604051808273ffffffffffffffffffffffffffffffffffffffff1673ffffffffffffffffffffffffffffffffffffffff16815260200191505060405180910390f35b6101c86004803603602081101561019c57600080fd5b81019080803573ffffffffffffffffffffffffffffffffffffffff169060200190929190505050610924565b005b610256600480360360808110156101e057600080fd5b81019080803573ffffffffffffffffffffffffffffffffffffffff16906020019092919080359060200190929190803573ffffffffffffffffffffffffffffffffffffffff169060200190929190803573ffffffffffffffffffffffffffffffffffffffff169060200190929190505050610938565b005b610260610a3c565b604051808273ffffffffffffffffffffffffffffffffffffffff1673ffffffffffffffffffffffffffffffffffffffff16815260200191505060405180910390f35b61030e600480360360608110156102b857600080fd5b8101908080359060200190929190803573ffffffffffffffffffffffffffffffffffffffff169060200190929190803573ffffffffffffffffffffffffffffffffffffffff169060200190929190505050610a62565b604051808215151515815260200191505060405180910390f35b6103946004803603606081101561033e57600080fd5b8101908080359060200190929190803573ffffffffffffffffffffffffffffffffffffffff169060200190929190803573ffffffffffffffffffffffffffffffffffffffff169060200190929190505050610a9b565b604051808373ffffffffffffffffffffffffffffffffffffffff1673ffffffffffffffffffffffffffffffffffffffff1681526020018273ffffffffffffffffffffffffffffffffffffffff1673ffffffffffffffffffffffffffffffffffffffff1681526020019250505060405180910390f35b6104956004803603608081101561041f57600080fd5b81019080803573ffffffffffffffffffffffffffffffffffffffff16906020019092919080359060200190929190803573ffffffffffffffffffffffffffffffffffffffff169060200190929190803573ffffffffffffffffffffffffffffffffffffffff169060200190929190505050610ad8565b005b61049f610b1c565b604051808273ffffffffffffffffffffffffffffffffffffffff1673ffffffffffffffffffffffffffffffffffffffff16815260200191505060405180910390f35b610523600480360360208110156104f757600080fd5b81019080803573ffffffffffffffffffffffffffffffffffffffff169060200190929190505050610b49565b604051808215151515815260200191505060405180910390f35b610545610ba5565b6040518082815260200191505060405180910390f35b610563610bb2565b604051808215151515815260200191505060405180910390f35b610585610bc0565b604051808573ffffffffffffffffffffffffffffffffffffffff1673ffffffffffffffffffffffffffffffffffffffff1681526020018473ffffffffffffffffffffffffffffffffffffffff1673ffffffffffffffffffffffffffffffffffffffff16815260200183815260200182815260200194505050505060405180910390f35b61064a6004803603602081101561061e57600080fd5b81019080803573ffffffffffffffffffffffffffffffffffffffff169060200190929190505050610c1e565b604051808273ffffffffffffffffffffffffffffffffffffffff1673ffffffffffffffffffffffffffffffffffffffff16815260200191505060405180910390f35b610694610c8d565b604051808273ffffffffffffffffffffffffffffffffffffffff1673ffffffffffffffffffffffffffffffffffffffff16815260200191505060405180910390f35b6106de610cb6565b604051808215151515815260200191505060405180910390f35b610700610d0d565b6040518080602001828103825283818151815260200191508051906020019080838360005b83811015610740578082015181840152602081019050610725565b50505050905090810190601f16801561076d5780820380516001836020036101000a031916815260200191505b509250505060405180910390f35b6107bd6004803603602081101561079157600080fd5b81019080803573ffffffffffffffffffffffffffffffffffffffff169060200190929190505050610d46565b604051808273ffffffffffffffffffffffffffffffffffffffff1673ffffffffffffffffffffffffffffffffffffffff16815260200191505060405180910390f35b610807610db5565b604051808273ffffffffffffffffffffffffffffffffffffffff1673ffffffffffffffffffffffffffffffffffffffff16815260200191505060405180910390f35b610851610ddb565b604051808215151515815260200191505060405180910390f35b610873610dee565b6040518082815260200191505060405180910390f35b6108f56004803603606081101561089f57600080fd5b8101908080359060200190929190803573ffffffffffffffffffffffffffffffffffffffff169060200190929190803573ffffffffffffffffffffffffffffffffffffffff169060200190929190505050610dfa565b005b6000600360000160009054906101000a900473ffffffffffffffffffffffffffffffffffffffff16905090565b61092c61103e565b610935816110e6565b50565b6000600260009054906101000a900473ffffffffffffffffffffffffffffffffffffffff1690506109688161190e565b61097185610b49565b6109c6576040517f08c379a000000000000000000000000000000000000000000000000000000000815260040180806020018281038252602a815260200180613592602a913960400191505060405180910390fd5b60008411610a1f576040517f08c379a00000000000000000000000000000000000000000000000000000000081526004018080602001828103825260238152602001806136376023913960400191505060405180910390fd5b610a28856110e6565b610a3581868686866119ed565b5050505050565b600260009054906101000a900473ffffffffffffffffffffffffffffffffffffffff1681565b6000610a92600260009054906101000a900473ffffffffffffffffffffffffffffffffffffffff16858585612391565b90509392505050565b600080610acc600260009054906101000a900473ffffffffffffffffffffffffffffffffffffffff168686866128d9565b91509150935093915050565b6000600260009054906101000a900473ffffffffffffffffffffffffffffffffffffffff169050610b088161190e565b610b1581868686866119ed565b5050505050565b6000600360010160009054906101000a900473ffffffffffffffffffffffffffffffffffffffff16905090565b6000600360040160008373ffffffffffffffffffffffffffffffffffffffff1673ffffffffffffffffffffffffffffffffffffffff16815260200190815260200160002060000160009054906101000a900460ff169050919050565b6000600360020154905090565b600080600380015414905090565b60038060000160009054906101000a900473ffffffffffffffffffffffffffffffffffffffff16908060010160009054906101000a900473ffffffffffffffffffffffffffffffffffffffff16908060020154908060030154905084565b6000600360040160008373ffffffffffffffffffffffffffffffffffffffff1673ffffffffffffffffffffffffffffffffffffffff16815260200190815260200160002060000160019054906101000a900473ffffffffffffffffffffffffffffffffffffffff169050919050565b60008060009054906101000a900473ffffffffffffffffffffffffffffffffffffffff16905090565b60008060009054906101000a900473ffffffffffffffffffffffffffffffffffffffff1673ffffffffffffffffffffffffffffffffffffffff163373ffffffffffffffffffffffffffffffffffffffff1614905090565b6040518060400160405280600c81526020017f536f7274656454726f766573000000000000000000000000000000000000000081525081565b6000600360040160008373ffffffffffffffffffffffffffffffffffffffff1673ffffffffffffffffffffffffffffffffffffffff16815260200190815260200160002060010160009054906101000a900473ffffffffffffffffffffffffffffffffffffffff169050919050565b600160009054906101000a900473ffffffffffffffffffffffffffffffffffffffff1681565b6000600360020154600380015414905090565b60006003800154905090565b610e02610cb6565b610e74576040517f08c379a00000000000000000000000000000000000000000000000000000000081526004018080602001828103825260208152602001807f4f776e61626c653a2063616c6c6572206973206e6f7420746865206f776e657281525060200191505060405180910390fd5b60008311610ecd576040517f08c379a00000000000000000000000000000000000000000000000000000000081526004018080602001828103825260228152602001806135bc6022913960400191505060405180910390fd5b610ed682612c53565b610edf81612c53565b8260036002018190555081600260006101000a81548173ffffffffffffffffffffffffffffffffffffffff021916908373ffffffffffffffffffffffffffffffffffffffff16021790555080600160006101000a81548173ffffffffffffffffffffffffffffffffffffffff021916908373ffffffffffffffffffffffffffffffffffffffff1602179055507f143219c9e69b09e07e095fcc889b43d8f46ca892bba65f08dc3a0050869a567882604051808273ffffffffffffffffffffffffffffffffffffffff1673ffffffffffffffffffffffffffffffffffffffff16815260200191505060405180910390a17f3ca631ffcd2a9b5d9ae18543fc82f58eb4ca33af9e6ab01b7a8e95331e6ed98581604051808273ffffffffffffffffffffffffffffffffffffffff1673ffffffffffffffffffffffffffffffffffffffff16815260200191505060405180910390a1611039612d76565b505050565b600260009054906101000a900473ffffffffffffffffffffffffffffffffffffffff1673ffffffffffffffffffffffffffffffffffffffff163373ffffffffffffffffffffffffffffffffffffffff16146110e4576040517f08c379a000000000000000000000000000000000000000000000000000000000815260040180806020018281038252602c8152602001806135de602c913960400191505060405180910390fd5b565b6110ef81610b49565b611144576040517f08c379a000000000000000000000000000000000000000000000000000000000815260040180806020018281038252602a815260200180613592602a913960400191505060405180910390fd5b60016003800154111561175657600360000160009054906101000a900473ffffffffffffffffffffffffffffffffffffffff1673ffffffffffffffffffffffffffffffffffffffff168173ffffffffffffffffffffffffffffffffffffffff16141561130257600360040160008273ffffffffffffffffffffffffffffffffffffffff1673ffffffffffffffffffffffffffffffffffffffff16815260200190815260200160002060000160019054906101000a900473ffffffffffffffffffffffffffffffffffffffff16600360000160006101000a81548173ffffffffffffffffffffffffffffffffffffffff021916908373ffffffffffffffffffffffffffffffffffffffff160217905550600060036004016000600360000160009054906101000a900473ffffffffffffffffffffffffffffffffffffffff1673ffffffffffffffffffffffffffffffffffffffff1673ffffffffffffffffffffffffffffffffffffffff16815260200190815260200160002060010160006101000a81548173ffffffffffffffffffffffffffffffffffffffff021916908373ffffffffffffffffffffffffffffffffffffffff160217905550611751565b600360010160009054906101000a900473ffffffffffffffffffffffffffffffffffffffff1673ffffffffffffffffffffffffffffffffffffffff168173ffffffffffffffffffffffffffffffffffffffff1614156114b357600360040160008273ffffffffffffffffffffffffffffffffffffffff1673ffffffffffffffffffffffffffffffffffffffff16815260200190815260200160002060010160009054906101000a900473ffffffffffffffffffffffffffffffffffffffff16600360010160006101000a81548173ffffffffffffffffffffffffffffffffffffffff021916908373ffffffffffffffffffffffffffffffffffffffff160217905550600060036004016000600360010160009054906101000a900473ffffffffffffffffffffffffffffffffffffffff1673ffffffffffffffffffffffffffffffffffffffff1673ffffffffffffffffffffffffffffffffffffffff16815260200190815260200160002060000160016101000a81548173ffffffffffffffffffffffffffffffffffffffff021916908373ffffffffffffffffffffffffffffffffffffffff160217905550611750565b600360040160008273ffffffffffffffffffffffffffffffffffffffff1673ffffffffffffffffffffffffffffffffffffffff16815260200190815260200160002060000160019054906101000a900473ffffffffffffffffffffffffffffffffffffffff1660036004016000600360040160008573ffffffffffffffffffffffffffffffffffffffff1673ffffffffffffffffffffffffffffffffffffffff16815260200190815260200160002060010160009054906101000a900473ffffffffffffffffffffffffffffffffffffffff1673ffffffffffffffffffffffffffffffffffffffff1673ffffffffffffffffffffffffffffffffffffffff16815260200190815260200160002060000160016101000a81548173ffffffffffffffffffffffffffffffffffffffff021916908373ffffffffffffffffffffffffffffffffffffffff160217905550600360040160008273ffffffffffffffffffffffffffffffffffffffff1673ffffffffffffffffffffffffffffffffffffffff16815260200190815260200160002060010160009054906101000a900473ffffffffffffffffffffffffffffffffffffffff1660036004016000600360040160008573ffffffffffffffffffffffffffffffffffffffff1673ffffffffffffffffffffffffffffffffffffffff16815260200190815260200160002060000160019054906101000a900473ffffffffffffffffffffffffffffffffffffffff1673ffffffffffffffffffffffffffffffffffffffff1673ffffffffffffffffffffffffffffffffffffffff16815260200190815260200160002060010160006101000a81548173ffffffffffffffffffffffffffffffffffffffff021916908373ffffffffffffffffffffffffffffffffffffffff1602179055505b5b6117e1565b6000600360000160006101000a81548173ffffffffffffffffffffffffffffffffffffffff021916908373ffffffffffffffffffffffffffffffffffffffff1602179055506000600360010160006101000a81548173ffffffffffffffffffffffffffffffffffffffff021916908373ffffffffffffffffffffffffffffffffffffffff1602179055505b600360040160008273ffffffffffffffffffffffffffffffffffffffff1673ffffffffffffffffffffffffffffffffffffffff168152602001908152602001600020600080820160006101000a81549060ff02191690556000820160016101000a81549073ffffffffffffffffffffffffffffffffffffffff02191690556001820160006101000a81549073ffffffffffffffffffffffffffffffffffffffff021916905550506118a060016003800154612e3590919063ffffffff16565b60038001819055507fcfc24166db4bb677e857cacabd1541fb2b30645021b27c5130419589b84db52b81604051808273ffffffffffffffffffffffffffffffffffffffff1673ffffffffffffffffffffffffffffffffffffffff16815260200191505060405180910390a150565b600160009054906101000a900473ffffffffffffffffffffffffffffffffffffffff1673ffffffffffffffffffffffffffffffffffffffff163373ffffffffffffffffffffffffffffffffffffffff16148061199557508073ffffffffffffffffffffffffffffffffffffffff163373ffffffffffffffffffffffffffffffffffffffff16145b6119ea576040517f08c379a000000000000000000000000000000000000000000000000000000000815260040180806020018281038252602d81526020018061360a602d913960400191505060405180910390fd5b50565b6119f5610ddb565b15611a68576040517f08c379a000000000000000000000000000000000000000000000000000000000815260040180806020018281038252601a8152602001807f536f7274656454726f7665733a204c6973742069732066756c6c00000000000081525060200191505060405180910390fd5b611a7184610b49565b15611ac7576040517f08c379a000000000000000000000000000000000000000000000000000000000815260040180806020018281038252602c815260200180613566602c913960400191505060405180910390fd5b600073ffffffffffffffffffffffffffffffffffffffff168473ffffffffffffffffffffffffffffffffffffffff161415611b6a576040517f08c379a000000000000000000000000000000000000000000000000000000000815260040180806020018281038252601f8152602001807f536f7274656454726f7665733a2049642063616e6e6f74206265207a65726f0081525060200191505060405180910390fd5b60008311611bc3576040517f08c379a00000000000000000000000000000000000000000000000000000000081526004018080602001828103825260238152602001806136376023913960400191505060405180910390fd5b60008290506000829050611bd987868484612391565b611bf257611be9878684846128d9565b80925081935050505b6001600360040160008873ffffffffffffffffffffffffffffffffffffffff1673ffffffffffffffffffffffffffffffffffffffff16815260200190815260200160002060000160006101000a81548160ff021916908315150217905550600073ffffffffffffffffffffffffffffffffffffffff168273ffffffffffffffffffffffffffffffffffffffff16148015611cb85750600073ffffffffffffffffffffffffffffffffffffffff168173ffffffffffffffffffffffffffffffffffffffff16145b15611d4a5785600360000160006101000a81548173ffffffffffffffffffffffffffffffffffffffff021916908373ffffffffffffffffffffffffffffffffffffffff16021790555085600360010160006101000a81548173ffffffffffffffffffffffffffffffffffffffff021916908373ffffffffffffffffffffffffffffffffffffffff1602179055506122fd565b600073ffffffffffffffffffffffffffffffffffffffff168273ffffffffffffffffffffffffffffffffffffffff161415611f1a57600360000160009054906101000a900473ffffffffffffffffffffffffffffffffffffffff16600360040160008873ffffffffffffffffffffffffffffffffffffffff1673ffffffffffffffffffffffffffffffffffffffff16815260200190815260200160002060000160016101000a81548173ffffffffffffffffffffffffffffffffffffffff021916908373ffffffffffffffffffffffffffffffffffffffff1602179055508560036004016000600360000160009054906101000a900473ffffffffffffffffffffffffffffffffffffffff1673ffffffffffffffffffffffffffffffffffffffff1673ffffffffffffffffffffffffffffffffffffffff16815260200190815260200160002060010160006101000a81548173ffffffffffffffffffffffffffffffffffffffff021916908373ffffffffffffffffffffffffffffffffffffffff16021790555085600360000160006101000a81548173ffffffffffffffffffffffffffffffffffffffff021916908373ffffffffffffffffffffffffffffffffffffffff1602179055506122fc565b600073ffffffffffffffffffffffffffffffffffffffff168173ffffffffffffffffffffffffffffffffffffffff1614156120ea57600360010160009054906101000a900473ffffffffffffffffffffffffffffffffffffffff16600360040160008873ffffffffffffffffffffffffffffffffffffffff1673ffffffffffffffffffffffffffffffffffffffff16815260200190815260200160002060010160006101000a81548173ffffffffffffffffffffffffffffffffffffffff021916908373ffffffffffffffffffffffffffffffffffffffff1602179055508560036004016000600360010160009054906101000a900473ffffffffffffffffffffffffffffffffffffffff1673ffffffffffffffffffffffffffffffffffffffff1673ffffffffffffffffffffffffffffffffffffffff16815260200190815260200160002060000160016101000a81548173ffffffffffffffffffffffffffffffffffffffff021916908373ffffffffffffffffffffffffffffffffffffffff16021790555085600360010160006101000a81548173ffffffffffffffffffffffffffffffffffffffff021916908373ffffffffffffffffffffffffffffffffffffffff1602179055506122fb565b80600360040160008873ffffffffffffffffffffffffffffffffffffffff1673ffffffffffffffffffffffffffffffffffffffff16815260200190815260200160002060000160016101000a81548173ffffffffffffffffffffffffffffffffffffffff021916908373ffffffffffffffffffffffffffffffffffffffff16021790555081600360040160008873ffffffffffffffffffffffffffffffffffffffff1673ffffffffffffffffffffffffffffffffffffffff16815260200190815260200160002060010160006101000a81548173ffffffffffffffffffffffffffffffffffffffff021916908373ffffffffffffffffffffffffffffffffffffffff16021790555085600360040160008473ffffffffffffffffffffffffffffffffffffffff1673ffffffffffffffffffffffffffffffffffffffff16815260200190815260200160002060000160016101000a81548173ffffffffffffffffffffffffffffffffffffffff021916908373ffffffffffffffffffffffffffffffffffffffff16021790555085600360040160008373ffffffffffffffffffffffffffffffffffffffff1673ffffffffffffffffffffffffffffffffffffffff16815260200190815260200160002060010160006101000a81548173ffffffffffffffffffffffffffffffffffffffff021916908373ffffffffffffffffffffffffffffffffffffffff1602179055505b5b5b61231560016003800154612e7f90919063ffffffff16565b60038001819055507fe02b43adbee0c123de070a04554a71877a0007e2fc161466299cae3c094fe82f8686604051808373ffffffffffffffffffffffffffffffffffffffff1673ffffffffffffffffffffffffffffffffffffffff1681526020018281526020019250505060405180910390a150505050505050565b60008073ffffffffffffffffffffffffffffffffffffffff168373ffffffffffffffffffffffffffffffffffffffff161480156123fa5750600073ffffffffffffffffffffffffffffffffffffffff168273ffffffffffffffffffffffffffffffffffffffff16145b1561240e57612407610bb2565b90506128d1565b600073ffffffffffffffffffffffffffffffffffffffff168373ffffffffffffffffffffffffffffffffffffffff161415612561578173ffffffffffffffffffffffffffffffffffffffff16600360000160009054906101000a900473ffffffffffffffffffffffffffffffffffffffff1673ffffffffffffffffffffffffffffffffffffffff1614801561255a57508473ffffffffffffffffffffffffffffffffffffffff1663b0d8e181836040518263ffffffff1660e01b8152600401808273ffffffffffffffffffffffffffffffffffffffff1673ffffffffffffffffffffffffffffffffffffffff16815260200191505060206040518083038186803b15801561251b57600080fd5b505afa15801561252f573d6000803e3d6000fd5b505050506040513d602081101561254557600080fd5b81019080805190602001909291905050508410155b90506128d1565b600073ffffffffffffffffffffffffffffffffffffffff168273ffffffffffffffffffffffffffffffffffffffff1614156126b4578273ffffffffffffffffffffffffffffffffffffffff16600360010160009054906101000a900473ffffffffffffffffffffffffffffffffffffffff1673ffffffffffffffffffffffffffffffffffffffff161480156126ad57508473ffffffffffffffffffffffffffffffffffffffff1663b0d8e181846040518263ffffffff1660e01b8152600401808273ffffffffffffffffffffffffffffffffffffffff1673ffffffffffffffffffffffffffffffffffffffff16815260200191505060206040518083038186803b15801561266e57600080fd5b505afa158015612682573d6000803e3d6000fd5b505050506040513d602081101561269857600080fd5b81019080805190602001909291905050508411155b90506128d1565b8173ffffffffffffffffffffffffffffffffffffffff16600360040160008573ffffffffffffffffffffffffffffffffffffffff1673ffffffffffffffffffffffffffffffffffffffff16815260200190815260200160002060000160019054906101000a900473ffffffffffffffffffffffffffffffffffffffff1673ffffffffffffffffffffffffffffffffffffffff1614801561280b5750838573ffffffffffffffffffffffffffffffffffffffff1663b0d8e181856040518263ffffffff1660e01b8152600401808273ffffffffffffffffffffffffffffffffffffffff1673ffffffffffffffffffffffffffffffffffffffff16815260200191505060206040518083038186803b1580156127cd57600080fd5b505afa1580156127e1573d6000803e3d6000fd5b505050506040513d60208110156127f757600080fd5b810190808051906020019092919050505010155b80156128ce57508473ffffffffffffffffffffffffffffffffffffffff1663b0d8e181836040518263ffffffff1660e01b8152600401808273ffffffffffffffffffffffffffffffffffffffff1673ffffffffffffffffffffffffffffffffffffffff16815260200191505060206040518083038186803b15801561288f57600080fd5b505afa1580156128a3573d6000803e3d6000fd5b505050506040513d60208110156128b957600080fd5b81019080805190602001909291905050508410155b90505b949350505050565b60008060008490506000849050600073ffffffffffffffffffffffffffffffffffffffff168273ffffffffffffffffffffffffffffffffffffffff16146129f05761292382610b49565b15806129e557508773ffffffffffffffffffffffffffffffffffffffff1663b0d8e181836040518263ffffffff1660e01b8152600401808273ffffffffffffffffffffffffffffffffffffffff1673ffffffffffffffffffffffffffffffffffffffff16815260200191505060206040518083038186803b1580156129a757600080fd5b505afa1580156129bb573d6000803e3d6000fd5b505050506040513d60208110156129d157600080fd5b810190808051906020019092919050505087115b156129ef57600091505b5b600073ffffffffffffffffffffffffffffffffffffffff168173ffffffffffffffffffffffffffffffffffffffff1614612afa57612a2d81610b49565b1580612aef57508773ffffffffffffffffffffffffffffffffffffffff1663b0d8e181826040518263ffffffff1660e01b8152600401808273ffffffffffffffffffffffffffffffffffffffff1673ffffffffffffffffffffffffffffffffffffffff16815260200191505060206040518083038186803b158015612ab157600080fd5b505afa158015612ac5573d6000803e3d6000fd5b505050506040513d6020811015612adb57600080fd5b810190808051906020019092919050505087105b15612af957600090505b5b600073ffffffffffffffffffffffffffffffffffffffff168273ffffffffffffffffffffffffffffffffffffffff16148015612b625750600073ffffffffffffffffffffffffffffffffffffffff168173ffffffffffffffffffffffffffffffffffffffff16145b15612ba257612b978888600360000160009054906101000a900473ffffffffffffffffffffffffffffffffffffffff16612f07565b935093505050612c4a565b600073ffffffffffffffffffffffffffffffffffffffff168273ffffffffffffffffffffffffffffffffffffffff161415612bed57612be28888836131d6565b935093505050612c4a565b600073ffffffffffffffffffffffffffffffffffffffff168173ffffffffffffffffffffffffffffffffffffffff161415612c3857612c2d888884612f07565b935093505050612c4a565b612c43888884612f07565b9350935050505b94509492505050565b600073ffffffffffffffffffffffffffffffffffffffff168173ffffffffffffffffffffffffffffffffffffffff161415612cf6576040517f08c379a000000000000000000000000000000000000000000000000000000000815260040180806020018281038252601e8152602001807f4163636f756e742063616e6e6f74206265207a65726f2061646472657373000081525060200191505060405180910390fd5b6000813b905060008111612d72576040517f08c379a00000000000000000000000000000000000000000000000000000000081526004018080602001828103825260208152602001807f4163636f756e7420636f64652073697a652063616e6e6f74206265207a65726f81525060200191505060405180910390fd5b5050565b600073ffffffffffffffffffffffffffffffffffffffff166000809054906101000a900473ffffffffffffffffffffffffffffffffffffffff1673ffffffffffffffffffffffffffffffffffffffff167f8be0079c531659141344cd1fd0a4f28419497f9722a3daafe3b4186f6b6457e060405160405180910390a360008060006101000a81548173ffffffffffffffffffffffffffffffffffffffff021916908373ffffffffffffffffffffffffffffffffffffffff160217905550565b6000612e7783836040518060400160405280601e81526020017f536166654d6174683a207375627472616374696f6e206f766572666c6f7700008152506134a5565b905092915050565b600080828401905083811015612efd576040517f08c379a000000000000000000000000000000000000000000000000000000000815260040180806020018281038252601b8152602001807f536166654d6174683a206164646974696f6e206f766572666c6f77000000000081525060200191505060405180910390fd5b8091505092915050565b6000808273ffffffffffffffffffffffffffffffffffffffff16600360000160009054906101000a900473ffffffffffffffffffffffffffffffffffffffff1673ffffffffffffffffffffffffffffffffffffffff1614801561302157508473ffffffffffffffffffffffffffffffffffffffff1663b0d8e181846040518263ffffffff1660e01b8152600401808273ffffffffffffffffffffffffffffffffffffffff1673ffffffffffffffffffffffffffffffffffffffff16815260200191505060206040518083038186803b158015612fe257600080fd5b505afa158015612ff6573d6000803e3d6000fd5b505050506040513d602081101561300c57600080fd5b81019080805190602001909291905050508410155b1561303557600083819150915091506131ce565b60008390506000600360040160008373ffffffffffffffffffffffffffffffffffffffff1673ffffffffffffffffffffffffffffffffffffffff16815260200190815260200160002060000160019054906101000a900473ffffffffffffffffffffffffffffffffffffffff1690505b600073ffffffffffffffffffffffffffffffffffffffff168273ffffffffffffffffffffffffffffffffffffffff16141580156130eb57506130e987878484612391565b155b156131c557600360040160008373ffffffffffffffffffffffffffffffffffffffff1673ffffffffffffffffffffffffffffffffffffffff16815260200190815260200160002060000160019054906101000a900473ffffffffffffffffffffffffffffffffffffffff169150600360040160008373ffffffffffffffffffffffffffffffffffffffff1673ffffffffffffffffffffffffffffffffffffffff16815260200190815260200160002060000160019054906101000a900473ffffffffffffffffffffffffffffffffffffffff1690506130a5565b81819350935050505b935093915050565b6000808273ffffffffffffffffffffffffffffffffffffffff16600360010160009054906101000a900473ffffffffffffffffffffffffffffffffffffffff1673ffffffffffffffffffffffffffffffffffffffff161480156132f057508473ffffffffffffffffffffffffffffffffffffffff1663b0d8e181846040518263ffffffff1660e01b8152600401808273ffffffffffffffffffffffffffffffffffffffff1673ffffffffffffffffffffffffffffffffffffffff16815260200191505060206040518083038186803b1580156132b157600080fd5b505afa1580156132c5573d6000803e3d6000fd5b505050506040513d60208110156132db57600080fd5b81019080805190602001909291905050508411155b15613304578260008090509150915061349d565b60008390506000600360040160008373ffffffffffffffffffffffffffffffffffffffff1673ffffffffffffffffffffffffffffffffffffffff16815260200190815260200160002060010160009054906101000a900473ffffffffffffffffffffffffffffffffffffffff1690505b600073ffffffffffffffffffffffffffffffffffffffff168273ffffffffffffffffffffffffffffffffffffffff16141580156133ba57506133b887878385612391565b155b1561349457600360040160008373ffffffffffffffffffffffffffffffffffffffff1673ffffffffffffffffffffffffffffffffffffffff16815260200190815260200160002060010160009054906101000a900473ffffffffffffffffffffffffffffffffffffffff169150600360040160008373ffffffffffffffffffffffffffffffffffffffff1673ffffffffffffffffffffffffffffffffffffffff16815260200190815260200160002060010160009054906101000a900473ffffffffffffffffffffffffffffffffffffffff169050613374565b80829350935050505b935093915050565b6000838311158290613552576040517f08c379a00000000000000000000000000000000000000000000000000000000081526004018080602001828103825283818151815260200191508051906020019080838360005b838110156135175780820151818401526020810190506134fc565b50505050905090810190601f1680156135445780820380516001836020036101000a031916815260200191505b509250505060405180910390fd5b506000838503905080915050939250505056fe536f7274656454726f7665733a204c69737420616c726561647920636f6e7461696e7320746865206e6f6465536f7274656454726f7665733a204c69737420646f6573206e6f7420636f6e7461696e20746865206964536f7274656454726f7665733a2053697a652063616ee2809974206265207a65726f536f7274656454726f7665733a2043616c6c6572206973206e6f74207468652054726f76654d616e61676572536f7274656454726f7665733a2043616c6c6572206973206e65697468657220424f206e6f722054726f76654d536f7274656454726f7665733a204e494352206d75737420626520706f736974697665a26469706673582212209f919a85205754f844539a0cffce5d77b54410746749259e7b5f85155c9d422164736f6c634300060b0033608060405234801561001057600080fd5b50604051611ab1380380611ab18339818101604052608081101561003357600080fd5b8101908080519060200190929190805190602001909291908051906020019092919080519060200190929190505050836000806101000a81548173ffffffffffffffffffffffffffffffffffffffff021916908373ffffffffffffffffffffffffffffffffffffffff16021790555082600160006101000a81548173ffffffffffffffffffffffffffffffffffffffff021916908373ffffffffffffffffffffffffffffffffffffffff16021790555081600260006101000a81548173ffffffffffffffffffffffffffffffffffffffff021916908373ffffffffffffffffffffffffffffffffffffffff16021790555080600360006101000a81548173ffffffffffffffffffffffffffffffffffffffff021916908373ffffffffffffffffffffffffffffffffffffffff16021790555050505050611939806101786000396000f3fe60806040526004361061010d5760003560e01c80637a97d83811610095578063cf83544f11610064578063cf83544f146106ba578063d466e4eb1461072d578063d94bcec2146107a0578063f47a1ea714610833578063fb8d67fc1461086e57610114565b80637a97d838146104cf5780637bbb0f5e1461054a57806391134731146105c5578063cc51a6c21461064757610114565b80634afbac51116100dc5780634afbac51146102ca5780634c36240b146103505780634d37261f146103ab578063641b09b6146103fc578063650b559c1461043757610114565b806332e859b91461011957806335b1017914610187578063390b5f27146102405780634903a3dd146102b357610114565b3661011457005b600080fd5b6101856004803603606081101561012f57600080fd5b8101908080359060200190929190803573ffffffffffffffffffffffffffffffffffffffff169060200190929190803573ffffffffffffffffffffffffffffffffffffffff1690602001909291905050506108f3565b005b34801561019357600080fd5b5061023e600480360360e08110156101aa57600080fd5b8101908080359060200190929190803573ffffffffffffffffffffffffffffffffffffffff169060200190929190803573ffffffffffffffffffffffffffffffffffffffff169060200190929190803573ffffffffffffffffffffffffffffffffffffffff1690602001909291908035906020019092919080359060200190929190803590602001909291905050506109e6565b005b34801561024c57600080fd5b506102996004803603604081101561026357600080fd5b81019080803573ffffffffffffffffffffffffffffffffffffffff16906020019092919080359060200190929190505050610b2f565b604051808215151515815260200191505060405180910390f35b3480156102bf57600080fd5b506102c8610c1d565b005b3480156102d657600080fd5b5061034e600480360360208110156102ed57600080fd5b810190808035906020019064010000000081111561030a57600080fd5b82018360208201111561031c57600080fd5b8035906020019184602083028401116401000000008311171561033e57600080fd5b9091929391929390505050610ca1565b005b34801561035c57600080fd5b506103a96004803603604081101561037357600080fd5b8101908080359060200190929190803573ffffffffffffffffffffffffffffffffffffffff169060200190929190505050610d60565b005b3480156103b757600080fd5b506103fa600480360360208110156103ce57600080fd5b81019080803573ffffffffffffffffffffffffffffffffffffffff169060200190929190505050610e25565b005b34801561040857600080fd5b506104356004803603602081101561041f57600080fd5b8101908080359060200190929190505050610ee0565b005b6104cd600480360360e081101561044d57600080fd5b81019080803590602001909291908035906020019092919080359060200190929190803515159060200190929190803573ffffffffffffffffffffffffffffffffffffffff169060200190929190803573ffffffffffffffffffffffffffffffffffffffff16906020019092919080359060200190929190505050610f70565b005b3480156104db57600080fd5b50610548600480360360608110156104f257600080fd5b8101908080359060200190929190803573ffffffffffffffffffffffffffffffffffffffff169060200190929190803573ffffffffffffffffffffffffffffffffffffffff16906020019092919050505061108b565b005b34801561055657600080fd5b506105c36004803603606081101561056d57600080fd5b8101908080359060200190929190803573ffffffffffffffffffffffffffffffffffffffff169060200190929190803573ffffffffffffffffffffffffffffffffffffffff169060200190929190505050611185565b005b610645600480360360a08110156105db57600080fd5b810190808035906020019092919080359060200190929190803573ffffffffffffffffffffffffffffffffffffffff169060200190929190803573ffffffffffffffffffffffffffffffffffffffff1690602001909291908035906020019092919050505061127f565b005b34801561065357600080fd5b506106a06004803603604081101561066a57600080fd5b81019080803573ffffffffffffffffffffffffffffffffffffffff16906020019092919080359060200190929190505050611384565b604051808215151515815260200191505060405180910390f35b3480156106c657600080fd5b50610713600480360360408110156106dd57600080fd5b81019080803573ffffffffffffffffffffffffffffffffffffffff16906020019092919080359060200190929190505050611472565b604051808215151515815260200191505060405180910390f35b34801561073957600080fd5b506107866004803603604081101561075057600080fd5b81019080803573ffffffffffffffffffffffffffffffffffffffff16906020019092919080359060200190929190505050611560565b604051808215151515815260200191505060405180910390f35b3480156107ac57600080fd5b50610819600480360360608110156107c357600080fd5b81019080803573ffffffffffffffffffffffffffffffffffffffff169060200190929190803573ffffffffffffffffffffffffffffffffffffffff1690602001909291908035906020019092919050505061164e565b604051808215151515815260200191505060405180910390f35b34801561083f57600080fd5b5061086c6004803603602081101561085657600080fd5b8101908080359060200190929190505050611771565b005b34801561087a57600080fd5b506108f16004803603608081101561089157600080fd5b8101908080359060200190929190803573ffffffffffffffffffffffffffffffffffffffff169060200190929190803573ffffffffffffffffffffffffffffffffffffffff16906020019092919080359060200190929190505050611800565b005b600160009054906101000a900473ffffffffffffffffffffffffffffffffffffffff1673ffffffffffffffffffffffffffffffffffffffff166368647db18484846040518463ffffffff1660e01b8152600401808373ffffffffffffffffffffffffffffffffffffffff1673ffffffffffffffffffffffffffffffffffffffff1681526020018273ffffffffffffffffffffffffffffffffffffffff1673ffffffffffffffffffffffffffffffffffffffff168152602001925050506000604051808303818588803b1580156109c857600080fd5b505af11580156109dc573d6000803e3d6000fd5b5050505050505050565b6000809054906101000a900473ffffffffffffffffffffffffffffffffffffffff1673ffffffffffffffffffffffffffffffffffffffff1663bcd37526888888888888886040518863ffffffff1660e01b8152600401808881526020018773ffffffffffffffffffffffffffffffffffffffff1673ffffffffffffffffffffffffffffffffffffffff1681526020018673ffffffffffffffffffffffffffffffffffffffff1673ffffffffffffffffffffffffffffffffffffffff1681526020018573ffffffffffffffffffffffffffffffffffffffff1673ffffffffffffffffffffffffffffffffffffffff168152602001848152602001838152602001828152602001975050505050505050600060405180830381600087803b158015610b0e57600080fd5b505af1158015610b22573d6000803e3d6000fd5b5050505050505050505050565b6000600360009054906101000a900473ffffffffffffffffffffffffffffffffffffffff1673ffffffffffffffffffffffffffffffffffffffff1663a9059cbb84846040518363ffffffff1660e01b8152600401808373ffffffffffffffffffffffffffffffffffffffff1673ffffffffffffffffffffffffffffffffffffffff16815260200182815260200192505050602060405180830381600087803b158015610bda57600080fd5b505af1158015610bee573d6000803e3d6000fd5b505050506040513d6020811015610c0457600080fd5b8101908080519060200190929190505050905092915050565b600160009054906101000a900473ffffffffffffffffffffffffffffffffffffffff1673ffffffffffffffffffffffffffffffffffffffff16630e704d506040518163ffffffff1660e01b8152600401600060405180830381600087803b158015610c8757600080fd5b505af1158015610c9b573d6000803e3d6000fd5b50505050565b6000809054906101000a900473ffffffffffffffffffffffffffffffffffffffff1673ffffffffffffffffffffffffffffffffffffffff16631e8b1c2b83836040518363ffffffff1660e01b815260040180806020018281038252848482818152602001925060200280828437600081840152601f19601f8201169050808301925050509350505050600060405180830381600087803b158015610d4457600080fd5b505af1158015610d58573d6000803e3d6000fd5b505050505050565b600260009054906101000a900473ffffffffffffffffffffffffffffffffffffffff1673ffffffffffffffffffffffffffffffffffffffff16635f788d6583836040518363ffffffff1660e01b8152600401808381526020018273ffffffffffffffffffffffffffffffffffffffff1673ffffffffffffffffffffffffffffffffffffffff16815260200192505050600060405180830381600087803b158015610e0957600080fd5b505af1158015610e1d573d6000803e3d6000fd5b505050505050565b6000809054906101000a900473ffffffffffffffffffffffffffffffffffffffff1673ffffffffffffffffffffffffffffffffffffffff16632f865568826040518263ffffffff1660e01b8152600401808273ffffffffffffffffffffffffffffffffffffffff1673ffffffffffffffffffffffffffffffffffffffff168152602001915050600060405180830381600087803b158015610ec557600080fd5b505af1158015610ed9573d6000803e3d6000fd5b5050505050565b600260009054906101000a900473ffffffffffffffffffffffffffffffffffffffff1673ffffffffffffffffffffffffffffffffffffffff16632e54bf95826040518263ffffffff1660e01b815260040180828152602001915050600060405180830381600087803b158015610f5557600080fd5b505af1158015610f69573d6000803e3d6000fd5b5050505050565b600160009054906101000a900473ffffffffffffffffffffffffffffffffffffffff1673ffffffffffffffffffffffffffffffffffffffff1663c6a6cf20888389898989896040518863ffffffff1660e01b815260040180878152602001868152602001858152602001841515151581526020018373ffffffffffffffffffffffffffffffffffffffff1673ffffffffffffffffffffffffffffffffffffffff1681526020018273ffffffffffffffffffffffffffffffffffffffff1673ffffffffffffffffffffffffffffffffffffffff16815260200196505050505050506000604051808303818588803b15801561106957600080fd5b505af115801561107d573d6000803e3d6000fd5b505050505050505050505050565b600160009054906101000a900473ffffffffffffffffffffffffffffffffffffffff1673ffffffffffffffffffffffffffffffffffffffff166304491fa78484846040518463ffffffff1660e01b8152600401808481526020018373ffffffffffffffffffffffffffffffffffffffff1673ffffffffffffffffffffffffffffffffffffffff1681526020018273ffffffffffffffffffffffffffffffffffffffff1673ffffffffffffffffffffffffffffffffffffffff1681526020019350505050600060405180830381600087803b15801561116857600080fd5b505af115801561117c573d6000803e3d6000fd5b50505050505050565b600160009054906101000a900473ffffffffffffffffffffffffffffffffffffffff1673ffffffffffffffffffffffffffffffffffffffff16635530273c8484846040518463ffffffff1660e01b8152600401808481526020018373ffffffffffffffffffffffffffffffffffffffff1673ffffffffffffffffffffffffffffffffffffffff1681526020018273ffffffffffffffffffffffffffffffffffffffff1673ffffffffffffffffffffffffffffffffffffffff1681526020019350505050600060405180830381600087803b15801561126257600080fd5b505af1158015611276573d6000803e3d6000fd5b50505050505050565b600160009054906101000a900473ffffffffffffffffffffffffffffffffffffffff1673ffffffffffffffffffffffffffffffffffffffff1663860665b386838787876040518663ffffffff1660e01b8152600401808581526020018481526020018373ffffffffffffffffffffffffffffffffffffffff1673ffffffffffffffffffffffffffffffffffffffff1681526020018273ffffffffffffffffffffffffffffffffffffffff1673ffffffffffffffffffffffffffffffffffffffff1681526020019450505050506000604051808303818588803b15801561136457600080fd5b505af1158015611378573d6000803e3d6000fd5b50505050505050505050565b6000600360009054906101000a900473ffffffffffffffffffffffffffffffffffffffff1673ffffffffffffffffffffffffffffffffffffffff16633950935184846040518363ffffffff1660e01b8152600401808373ffffffffffffffffffffffffffffffffffffffff1673ffffffffffffffffffffffffffffffffffffffff16815260200182815260200192505050602060405180830381600087803b15801561142f57600080fd5b505af1158015611443573d6000803e3d6000fd5b505050506040513d602081101561145957600080fd5b8101908080519060200190929190505050905092915050565b6000600360009054906101000a900473ffffffffffffffffffffffffffffffffffffffff1673ffffffffffffffffffffffffffffffffffffffff1663095ea7b384846040518363ffffffff1660e01b8152600401808373ffffffffffffffffffffffffffffffffffffffff1673ffffffffffffffffffffffffffffffffffffffff16815260200182815260200192505050602060405180830381600087803b15801561151d57600080fd5b505af1158015611531573d6000803e3d6000fd5b505050506040513d602081101561154757600080fd5b8101908080519060200190929190505050905092915050565b6000600360009054906101000a900473ffffffffffffffffffffffffffffffffffffffff1673ffffffffffffffffffffffffffffffffffffffff1663a457c2d784846040518363ffffffff1660e01b8152600401808373ffffffffffffffffffffffffffffffffffffffff1673ffffffffffffffffffffffffffffffffffffffff16815260200182815260200192505050602060405180830381600087803b15801561160b57600080fd5b505af115801561161f573d6000803e3d6000fd5b505050506040513d602081101561163557600080fd5b8101908080519060200190929190505050905092915050565b6000600360009054906101000a900473ffffffffffffffffffffffffffffffffffffffff1673ffffffffffffffffffffffffffffffffffffffff166323b872dd8585856040518463ffffffff1660e01b8152600401808473ffffffffffffffffffffffffffffffffffffffff1673ffffffffffffffffffffffffffffffffffffffff1681526020018373ffffffffffffffffffffffffffffffffffffffff1673ffffffffffffffffffffffffffffffffffffffff1681526020018281526020019350505050602060405180830381600087803b15801561172d57600080fd5b505af1158015611741573d6000803e3d6000fd5b505050506040513d602081101561175757600080fd5b810190808051906020019092919050505090509392505050565b6000809054906101000a900473ffffffffffffffffffffffffffffffffffffffff1673ffffffffffffffffffffffffffffffffffffffff1663653d46e7826040518263ffffffff1660e01b815260040180828152602001915050600060405180830381600087803b1580156117e557600080fd5b505af11580156117f9573d6000803e3d6000fd5b5050505050565b600160009054906101000a900473ffffffffffffffffffffffffffffffffffffffff1673ffffffffffffffffffffffffffffffffffffffff16631184e5f8828686866040518563ffffffff1660e01b8152600401808581526020018481526020018373ffffffffffffffffffffffffffffffffffffffff1673ffffffffffffffffffffffffffffffffffffffff1681526020018273ffffffffffffffffffffffffffffffffffffffff1673ffffffffffffffffffffffffffffffffffffffff168152602001945050505050600060405180830381600087803b1580156118e557600080fd5b505af11580156118f9573d6000803e3d6000fd5b505050505050505056fea2646970667358221220b3417fd2d22c87c1526bcf000d5708994834e50f78765be7af8128c670b49b6b64736f6c634300060b0033",
  "linkReferences": {},
  "deployedLinkReferences": {}
}