{
  "_format": "hh-sol-artifact-1",
  "contractName": "BaseMath",
  "sourceName": "contracts/Dependencies/BaseMath.sol",
  "abi": [
    {
      "inputs": [],
      "name": "DECIMAL_PRECISION",
      "outputs": [
        {
          "internalType": "uint256",
          "name": "",
          "type": "uint256"
        }
      ],
      "stateMutability": "view",
      "type": "function"
    }
  ],
  "bytecode": "0x6080604052348015600f57600080fd5b50608b8061001e6000396000f3fe6080604052348015600f57600080fd5b506004361060285760003560e01c8063a20baee614602d575b600080fd5b60336049565b6040518082815260200191505060405180910390f35b670de0b6b3a76400008156fea26469706673582212203a7e85bbac9f61371a72bc12a31be30cab3e068681554f92836e98534299dbe664736f6c634300060b0033",
  "linkReferences": {},
  "deployedLinkReferences": {}
}