{
  "_format": "hh-sol-artifact-1",
  "contractName": "ETHSendContract",
  "sourceName": "contracts/Test/ETHSendContract.sol",
  "abi": [
    {
      "inputs": [],
      "stateMutability": "nonpayable",
      "type": "constructor"
    },
    {
      "stateMutability": "payable",
      "type": "fallback"
    },
    {
      "inputs": [],
      "name": "getAllETH",
      "outputs": [],
      "stateMutability": "nonpayable",
      "type": "function"
    },
    {
      "stateMutability": "payable",
      "type": "receive"
    }
  ],
  "bytecode": "0x608060405234801561001057600080fd5b5060b68061001f6000396000f3fe608060405260043610601f5760003560e01c80636ffd7702146027576025565b36602557005b005b348015603257600080fd5b506025604051479033908290600081818185875af1925050503d80600081146075576040519150601f19603f3d011682016040523d82523d6000602084013e607a565b606091505b5050505056fea26469706673582212201094ca81b885472106dddaa9dcc55023f360decde727a259dfa77dbe454b5db164736f6c634300060b0033",
  "linkReferences": {},
  "deployedLinkReferences": {}
}