{
  "_format": "hh-sol-artifact-1",
  "contractName": "MultiTroveGetter",
  "sourceName": "contracts/Liquity/MultiTroveGetter.sol",
  "abi": [
    {
      "inputs": [
        {
          "internalType": "contract TroveManager",
          "name": "_troveManager",
          "type": "address"
        },
        {
          "internalType": "contract ISortedTroves",
          "name": "_sortedTroves",
          "type": "address"
        }
      ],
      "stateMutability": "nonpayable",
      "type": "constructor"
    },
    {
      "inputs": [
        {
          "internalType": "int256",
          "name": "_startIdx",
          "type": "int256"
        },
        {
          "internalType": "uint256",
          "name": "_count",
          "type": "uint256"
        }
      ],
      "name": "getMultipleSortedTroves",
      "outputs": [
        {
          "components": [
            {
              "internalType": "address",
              "name": "owner",
              "type": "address"
            },
            {
              "internalType": "uint256",
              "name": "debt",
              "type": "uint256"
            },
            {
              "internalType": "uint256",
              "name": "coll",
              "type": "uint256"
            },
            {
              "internalType": "uint256",
              "name": "stake",
              "type": "uint256"
            },
            {
              "internalType": "uint256",
              "name": "snapshotETH",
              "type": "uint256"
            },
            {
              "internalType": "uint256",
              "name": "snapshotLUSDDebt",
              "type": "uint256"
            }
          ],
          "internalType": "struct MultiTroveGetter.CombinedTroveData[]",
          "name": "_troves",
          "type": "tuple[]"
        }
      ],
      "stateMutability": "view",
      "type": "function"
    },
    {
      "inputs": [],
      "name": "sortedTroves",
      "outputs": [
        {
          "internalType": "contract ISortedTroves",
          "name": "",
          "type": "address"
        }
      ],
      "stateMutability": "view",
      "type": "function"
    },
    {
      "inputs": [],
      "name": "troveManager",
      "outputs": [
        {
          "internalType": "contract TroveManager",
          "name": "",
          "type": "address"
        }
      ],
      "stateMutability": "view",
      "type": "function"
    }
  ],
  "bytecode": "0x60806040523480156200001157600080fd5b50604051620012f1380380620012f18339818101604052810190620000379190620000ee565b816000806101000a81548173ffffffffffffffffffffffffffffffffffffffff021916908373ffffffffffffffffffffffffffffffffffffffff16021790555080600160006101000a81548173ffffffffffffffffffffffffffffffffffffffff021916908373ffffffffffffffffffffffffffffffffffffffff1602179055505050620001bf565b600081519050620000d1816200018b565b92915050565b600081519050620000e881620001a5565b92915050565b600080604083850312156200010257600080fd5b60006200011285828601620000d7565b92505060206200012585828601620000c0565b9150509250929050565b60006200013c826200016b565b9050919050565b600062000150826200012f565b9050919050565b600062000164826200012f565b9050919050565b600073ffffffffffffffffffffffffffffffffffffffff82169050919050565b620001968162000143565b8114620001a257600080fd5b50565b620001b08162000157565b8114620001bc57600080fd5b50565b61112280620001cf6000396000f3fe608060405234801561001057600080fd5b50600436106100415760003560e01c80633d83908a14610046578063ae91875414610064578063b90bce4514610082575b600080fd5b61004e6100b2565b60405161005b9190610f82565b60405180910390f35b61006c6100d7565b6040516100799190610f67565b60405180910390f35b61009c60048036038101906100979190610cd6565b6100fd565b6040516100a99190610f45565b60405180910390f35b6000809054906101000a900473ffffffffffffffffffffffffffffffffffffffff1681565b600160009054906101000a900473ffffffffffffffffffffffffffffffffffffffff1681565b6060600080600085126101165784915060019050610124565b600185016000039150600090505b6000600160009054906101000a900473ffffffffffffffffffffffffffffffffffffffff1673ffffffffffffffffffffffffffffffffffffffff1663de8fa4316040518163ffffffff1660e01b815260040160206040518083038186803b15801561018e57600080fd5b505afa1580156101a2573d6000803e3d6000fd5b505050506040513d601f19601f820116820180604052508101906101c69190610d12565b905080831061022957600067ffffffffffffffff811180156101e757600080fd5b5060405190808252806020026020018201604052801561022157816020015b61020e610be3565b8152602001906001900390816102065790505b509350610262565b600083820390508086111561023c578095505b82156102535761024c848761026b565b9450610260565b61025d8487610727565b94505b505b50505092915050565b60606000600160009054906101000a900473ffffffffffffffffffffffffffffffffffffffff1673ffffffffffffffffffffffffffffffffffffffff16631e2231436040518163ffffffff1660e01b815260040160206040518083038186803b1580156102d757600080fd5b505afa1580156102eb573d6000803e3d6000fd5b505050506040513d601f19601f8201168201806040525081019061030f9190610cad565b905060008090505b848110156103d757600160009054906101000a900473ffffffffffffffffffffffffffffffffffffffff1673ffffffffffffffffffffffffffffffffffffffff1663765e0159836040518263ffffffff1660e01b815260040161037a9190610f2a565b60206040518083038186803b15801561039257600080fd5b505afa1580156103a6573d6000803e3d6000fd5b505050506040513d601f19601f820116820180604052508101906103ca9190610cad565b9150806001019050610317565b508267ffffffffffffffff811180156103ef57600080fd5b5060405190808252806020026020018201604052801561042957816020015b610416610be3565b81526020019060019003908161040e5790505b50915060008090505b8381101561071f578183828151811061044757fe5b60200260200101516000019073ffffffffffffffffffffffffffffffffffffffff16908173ffffffffffffffffffffffffffffffffffffffff16815250506000809054906101000a900473ffffffffffffffffffffffffffffffffffffffff1673ffffffffffffffffffffffffffffffffffffffff16636ef64338836040518263ffffffff1660e01b81526004016104df9190610f2a565b60a06040518083038186803b1580156104f757600080fd5b505afa15801561050b573d6000803e3d6000fd5b505050506040513d601f19601f8201168201806040525081019061052f9190610d77565b90505085848151811061053e57fe5b602002602001015160200186858151811061055557fe5b602002602001015160400187868151811061056c57fe5b60200260200101516060018381525083815250838152505050506000809054906101000a900473ffffffffffffffffffffffffffffffffffffffff1673ffffffffffffffffffffffffffffffffffffffff16631673c79a836040518263ffffffff1660e01b81526004016105e09190610f2a565b604080518083038186803b1580156105f757600080fd5b505afa15801561060b573d6000803e3d6000fd5b505050506040513d601f19601f8201168201806040525081019061062f9190610d3b565b84838151811061063b57fe5b602002602001015160800185848151811061065257fe5b602002602001015160a00182815250828152505050600160009054906101000a900473ffffffffffffffffffffffffffffffffffffffff1673ffffffffffffffffffffffffffffffffffffffff1663765e0159836040518263ffffffff1660e01b81526004016106c29190610f2a565b60206040518083038186803b1580156106da57600080fd5b505afa1580156106ee573d6000803e3d6000fd5b505050506040513d601f19601f820116820180604052508101906107129190610cad565b9150806001019050610432565b505092915050565b60606000600160009054906101000a900473ffffffffffffffffffffffffffffffffffffffff1673ffffffffffffffffffffffffffffffffffffffff16634d6228316040518163ffffffff1660e01b815260040160206040518083038186803b15801561079357600080fd5b505afa1580156107a7573d6000803e3d6000fd5b505050506040513d601f19601f820116820180604052508101906107cb9190610cad565b905060008090505b8481101561089357600160009054906101000a900473ffffffffffffffffffffffffffffffffffffffff1673ffffffffffffffffffffffffffffffffffffffff1663b72703ac836040518263ffffffff1660e01b81526004016108369190610f2a565b60206040518083038186803b15801561084e57600080fd5b505afa158015610862573d6000803e3d6000fd5b505050506040513d601f19601f820116820180604052508101906108869190610cad565b91508060010190506107d3565b508267ffffffffffffffff811180156108ab57600080fd5b506040519080825280602002602001820160405280156108e557816020015b6108d2610be3565b8152602001906001900390816108ca5790505b50915060008090505b83811015610bdb578183828151811061090357fe5b60200260200101516000019073ffffffffffffffffffffffffffffffffffffffff16908173ffffffffffffffffffffffffffffffffffffffff16815250506000809054906101000a900473ffffffffffffffffffffffffffffffffffffffff1673ffffffffffffffffffffffffffffffffffffffff16636ef64338836040518263ffffffff1660e01b815260040161099b9190610f2a565b60a06040518083038186803b1580156109b357600080fd5b505afa1580156109c7573d6000803e3d6000fd5b505050506040513d601f19601f820116820180604052508101906109eb9190610d77565b9050508584815181106109fa57fe5b6020026020010151602001868581518110610a1157fe5b6020026020010151604001878681518110610a2857fe5b60200260200101516060018381525083815250838152505050506000809054906101000a900473ffffffffffffffffffffffffffffffffffffffff1673ffffffffffffffffffffffffffffffffffffffff16631673c79a836040518263ffffffff1660e01b8152600401610a9c9190610f2a565b604080518083038186803b158015610ab357600080fd5b505afa158015610ac7573d6000803e3d6000fd5b505050506040513d601f19601f82011682018060405250810190610aeb9190610d3b565b848381518110610af757fe5b6020026020010151608001858481518110610b0e57fe5b602002602001015160a00182815250828152505050600160009054906101000a900473ffffffffffffffffffffffffffffffffffffffff1673ffffffffffffffffffffffffffffffffffffffff1663b72703ac836040518263ffffffff1660e01b8152600401610b7e9190610f2a565b60206040518083038186803b158015610b9657600080fd5b505afa158015610baa573d6000803e3d6000fd5b505050506040513d601f19601f82011682018060405250810190610bce9190610cad565b91508060010190506108ee565b505092915050565b6040518060c00160405280600073ffffffffffffffffffffffffffffffffffffffff16815260200160008152602001600081526020016000815260200160008152602001600081525090565b600081519050610c3e81611080565b92915050565b600081519050610c5381611097565b92915050565b600081359050610c68816110a7565b92915050565b600081519050610c7d816110be565b92915050565b600081359050610c92816110d5565b92915050565b600081519050610ca7816110d5565b92915050565b600060208284031215610cbf57600080fd5b6000610ccd84828501610c2f565b91505092915050565b60008060408385031215610ce957600080fd5b6000610cf785828601610c59565b9250506020610d0885828601610c83565b9150509250929050565b600060208284031215610d2457600080fd5b6000610d3284828501610c98565b91505092915050565b60008060408385031215610d4e57600080fd5b6000610d5c85828601610c98565b9250506020610d6d85828601610c98565b9150509250929050565b600080600080600060a08688031215610d8f57600080fd5b6000610d9d88828901610c98565b9550506020610dae88828901610c98565b9450506040610dbf88828901610c98565b9350506060610dd088828901610c44565b9250506080610de188828901610c6e565b9150509295509295909350565b6000610dfa8383610ea0565b60c08301905092915050565b610e0f81610fd6565b82525050565b610e1e81610fd6565b82525050565b6000610e2f82610fad565b610e398185610fc5565b9350610e4483610f9d565b8060005b83811015610e75578151610e5c8882610dee565b9750610e6783610fb8565b925050600181019050610e48565b5085935050505092915050565b610e8b81611038565b82525050565b610e9a8161105c565b82525050565b60c082016000820151610eb66000850182610e06565b506020820151610ec96020850182610f1b565b506040820151610edc6040850182610f1b565b506060820151610eef6060850182610f1b565b506080820151610f026080850182610f1b565b5060a0820151610f1560a0850182610f1b565b50505050565b610f248161102e565b82525050565b6000602082019050610f3f6000830184610e15565b92915050565b60006020820190508181036000830152610f5f8184610e24565b905092915050565b6000602082019050610f7c6000830184610e82565b92915050565b6000602082019050610f976000830184610e91565b92915050565b6000819050602082019050919050565b600081519050919050565b6000602082019050919050565b600082825260208201905092915050565b6000610fe18261100e565b9050919050565b6000819050919050565b60006fffffffffffffffffffffffffffffffff82169050919050565b600073ffffffffffffffffffffffffffffffffffffffff82169050919050565b6000819050919050565b60006110438261104a565b9050919050565b60006110558261100e565b9050919050565b60006110678261106e565b9050919050565b60006110798261100e565b9050919050565b61108981610fd6565b811461109457600080fd5b50565b600581106110a457600080fd5b50565b6110b081610fe8565b81146110bb57600080fd5b50565b6110c781610ff2565b81146110d257600080fd5b50565b6110de8161102e565b81146110e957600080fd5b5056fea2646970667358221220cf79c6b60f88f080791dd48f8baf1440f7e0459a850d9cf7923d583c0508f7e864736f6c634300060b0033",
  "linkReferences": {},
  "deployedLinkReferences": {}
}