{
  "_format": "hh-sol-artifact-1",
  "contractName": "ETHTransferScript",
  "sourceName": "contracts/Liquity/Proxy/ETHTransferScript.sol",
  "abi": [
    {
      "inputs": [
        {
          "internalType": "address",
          "name": "_recipient",
          "type": "address"
        },
        {
          "internalType": "uint256",
          "name": "_amount",
          "type": "uint256"
        }
      ],
      "name": "transferETH",
      "outputs": [
        {
          "internalType": "bool",
          "name": "",
          "type": "bool"
        }
      ],
      "stateMutability": "nonpayable",
      "type": "function"
    }
  ],
  "bytecode": "0x608060405234801561001057600080fd5b50610140806100206000396000f3fe608060405234801561001057600080fd5b506004361061002b5760003560e01c80637b1a490914610030575b600080fd5b61007c6004803603604081101561004657600080fd5b81019080803573ffffffffffffffffffffffffffffffffffffffff16906020019092919080359060200190929190505050610096565b604051808215151515815260200191505060405180910390f35b6000808373ffffffffffffffffffffffffffffffffffffffff168360405180600001905060006040518083038185875af1925050503d80600081146100f7576040519150601f19603f3d011682016040523d82523d6000602084013e6100fc565b606091505b50509050809150509291505056fea2646970667358221220ed752f1f1fd2328637c5bb4af47f682a1d9b44d72c50da7670aae1f6cb930dbc64736f6c634300060b0033",
  "linkReferences": {},
  "deployedLinkReferences": {}
}