{
  "_format": "hh-sol-artifact-1",
  "contractName": "MockAggregator",
  "sourceName": "contracts/Liquity/TestContracts/MockAggregator.sol",
  "abi": [
    {
      "inputs": [],
      "name": "decimals",
      "outputs": [
        {
          "internalType": "uint8",
          "name": "",
          "type": "uint8"
        }
      ],
      "stateMutability": "view",
      "type": "function"
    },
    {
      "inputs": [],
      "name": "description",
      "outputs": [
        {
          "internalType": "string",
          "name": "",
          "type": "string"
        }
      ],
      "stateMutability": "view",
      "type": "function"
    },
    {
      "inputs": [
        {
          "internalType": "uint80",
          "name": "",
          "type": "uint80"
        }
      ],
      "name": "getRoundData",
      "outputs": [
        {
          "internalType": "uint80",
          "name": "roundId",
          "type": "uint80"
        },
        {
          "internalType": "int256",
          "name": "answer",
          "type": "int256"
        },
        {
          "internalType": "uint256",
          "name": "startedAt",
          "type": "uint256"
        },
        {
          "internalType": "uint256",
          "name": "updatedAt",
          "type": "uint256"
        },
        {
          "internalType": "uint80",
          "name": "answeredInRound",
          "type": "uint80"
        }
      ],
      "stateMutability": "view",
      "type": "function"
    },
    {
      "inputs": [],
      "name": "latestRoundData",
      "outputs": [
        {
          "internalType": "uint80",
          "name": "roundId",
          "type": "uint80"
        },
        {
          "internalType": "int256",
          "name": "answer",
          "type": "int256"
        },
        {
          "internalType": "uint256",
          "name": "startedAt",
          "type": "uint256"
        },
        {
          "internalType": "uint256",
          "name": "updatedAt",
          "type": "uint256"
        },
        {
          "internalType": "uint80",
          "name": "answeredInRound",
          "type": "uint80"
        }
      ],
      "stateMutability": "view",
      "type": "function"
    },
    {
      "inputs": [
        {
          "internalType": "uint8",
          "name": "_decimals",
          "type": "uint8"
        }
      ],
      "name": "setDecimals",
      "outputs": [],
      "stateMutability": "nonpayable",
      "type": "function"
    },
    {
      "inputs": [],
      "name": "setDecimalsRevert",
      "outputs": [],
      "stateMutability": "nonpayable",
      "type": "function"
    },
    {
      "inputs": [],
      "name": "setLatestRevert",
      "outputs": [],
      "stateMutability": "nonpayable",
      "type": "function"
    },
    {
      "inputs": [
        {
          "internalType": "uint80",
          "name": "_latestRoundId",
          "type": "uint80"
        }
      ],
      "name": "setLatestRoundId",
      "outputs": [],
      "stateMutability": "nonpayable",
      "type": "function"
    },
    {
      "inputs": [
        {
          "internalType": "int256",
          "name": "_prevPrice",
          "type": "int256"
        }
      ],
      "name": "setPrevPrice",
      "outputs": [],
      "stateMutability": "nonpayable",
      "type": "function"
    },
    {
      "inputs": [],
      "name": "setPrevRevert",
      "outputs": [],
      "stateMutability": "nonpayable",
      "type": "function"
    },
    {
      "inputs": [
        {
          "internalType": "uint80",
          "name": "_prevRoundId",
          "type": "uint80"
        }
      ],
      "name": "setPrevRoundId",
      "outputs": [],
      "stateMutability": "nonpayable",
      "type": "function"
    },
    {
      "inputs": [
        {
          "internalType": "uint256",
          "name": "_prevUpdateTime",
          "type": "uint256"
        }
      ],
      "name": "setPrevUpdateTime",
      "outputs": [],
      "stateMutability": "nonpayable",
      "type": "function"
    },
    {
      "inputs": [
        {
          "internalType": "int256",
          "name": "_price",
          "type": "int256"
        }
      ],
      "name": "setPrice",
      "outputs": [],
      "stateMutability": "nonpayable",
      "type": "function"
    },
    {
      "inputs": [
        {
          "internalType": "uint256",
          "name": "_updateTime",
          "type": "uint256"
        }
      ],
      "name": "setUpdateTime",
      "outputs": [],
      "stateMutability": "nonpayable",
      "type": "function"
    },
    {
      "inputs": [],
      "name": "version",
      "outputs": [
        {
          "internalType": "uint256",
          "name": "",
          "type": "uint256"
        }
      ],
      "stateMutability": "view",
      "type": "function"
    }
  ],
  "bytecode": "0x608060405260086000806101000a81548160ff021916908360ff16021790555034801561002b57600080fd5b506108008061003b6000396000f3fe608060405234801561001057600080fd5b50600436106100f55760003560e01c80637394e78911610097578063a68e594511610066578063a68e59451461036e578063bf73eea614610378578063f7a30806146103a6578063feaf968c146103d4576100f5565b80637394e7891461023b57806375354ffa146102695780637a1395aa146102a35780639a6fc8f5146102d4576100f5565b806354fd4d50116100d357806354fd4d501461015657806366543a6c146101745780637134b9901461017e5780637284e416146101b8576100f5565b806313886538146100fa57806329ccf0cf14610128578063313ce56714610132575b600080fd5b6101266004803603602081101561011057600080fd5b810190808035906020019092919050505061043e565b005b610130610448565b005b61013a610474565b604051808260ff1660ff16815260200191505060405180910390f35b61015e610517565b6040518082815260200191505060405180910390f35b61017c610520565b005b6101b66004803603602081101561019457600080fd5b81019080803569ffffffffffffffffffff16906020019092919050505061054c565b005b6101c061057c565b6040518080602001828103825283818151815260200191508051906020019080838360005b838110156102005780820151818401526020810190506101e5565b50505050905090810190601f16801561022d5780820380516001836020036101000a031916815260200191505b509250505060405180910390f35b6102676004803603602081101561025157600080fd5b8101908080359060200190929190505050610593565b005b6102a16004803603602081101561027f57600080fd5b81019080803569ffffffffffffffffffff16906020019092919050505061059d565b005b6102d2600480360360208110156102b957600080fd5b81019080803560ff1690602001909291905050506105cd565b005b61030c600480360360208110156102ea57600080fd5b81019080803569ffffffffffffffffffff1690602001909291905050506105ea565b604051808669ffffffffffffffffffff1669ffffffffffffffffffff1681526020018581526020018481526020018381526020018269ffffffffffffffffffff1669ffffffffffffffffffff1681526020019550505050505060405180910390f35b6103766106bb565b005b6103a46004803603602081101561038e57600080fd5b81019080803590602001909291905050506106e7565b005b6103d2600480360360208110156103bc57600080fd5b81019080803590602001909291905050506106f1565b005b6103dc6106fb565b604051808669ffffffffffffffffffff1669ffffffffffffffffffff1681526020018581526020018481526020018381526020018269ffffffffffffffffffff1669ffffffffffffffffffff1681526020019550505050505060405180910390f35b8060028190555050565b600560169054906101000a900460ff1615600560166101000a81548160ff021916908315150217905550565b6000600560169054906101000a900460ff1615610503576000600114610502576040517f08c379a00000000000000000000000000000000000000000000000000000000081526004018080602001828103825260118152602001807f646563696d616c7320726576657274656400000000000000000000000000000081525060200191505060405180910390fd5b5b6000809054906101000a900460ff16905090565b60006001905090565b600560149054906101000a900460ff1615600560146101000a81548160ff021916908315150217905550565b80600560006101000a81548169ffffffffffffffffffff021916908369ffffffffffffffffffff16021790555050565b606060405180602001604052806000815250905090565b8060048190555050565b806005600a6101000a81548169ffffffffffffffffffff021916908369ffffffffffffffffffff16021790555050565b806000806101000a81548160ff021916908360ff16021790555050565b6000806000806000600560159054906101000a900460ff161561067f57600060011461067e576040517f08c379a00000000000000000000000000000000000000000000000000000000081526004018080602001828103825260158152602001807f676574526f756e6444617461207265766572746564000000000000000000000081525060200191505060405180910390fd5b5b6005600a9054906101000a900469ffffffffffffffffffff16600254600060035460008292508090509450945094509450945091939590929450565b600560159054906101000a900460ff1615600560156101000a81548160ff021916908315150217905550565b8060038190555050565b8060018190555050565b6000806000806000600560149054906101000a900460ff161561079057600060011461078f576040517f08c379a00000000000000000000000000000000000000000000000000000000081526004018080602001828103825260188152602001807f6c6174657374526f756e6444617461207265766572746564000000000000000081525060200191505060405180910390fd5b5b600560009054906101000a900469ffffffffffffffffffff166001546000600354600082925080905094509450945094509450909192939456fea26469706673582212204d16b269e0ab0c7c9ed3b4cc345788e4c5d571093aab1084d320104fdcd7b5b264736f6c634300060b0033",
  "linkReferences": {},
  "deployedLinkReferences": {}
}