{
  "_format": "hh-sol-artifact-1",
  "contractName": "LiquityMathTester",
  "sourceName": "contracts/Liquity/TestContracts/LiquityMathTester.sol",
  "abi": [
    {
      "inputs": [
        {
          "internalType": "uint256",
          "name": "_base",
          "type": "uint256"
        },
        {
          "internalType": "uint256",
          "name": "_n",
          "type": "uint256"
        }
      ],
      "name": "callDecPow",
      "outputs": [
        {
          "internalType": "uint256",
          "name": "",
          "type": "uint256"
        }
      ],
      "stateMutability": "pure",
      "type": "function"
    },
    {
      "inputs": [
        {
          "internalType": "uint256",
          "name": "_base",
          "type": "uint256"
        },
        {
          "internalType": "uint256",
          "name": "_n",
          "type": "uint256"
        }
      ],
      "name": "callDecPowTx",
      "outputs": [
        {
          "internalType": "uint256",
          "name": "",
          "type": "uint256"
        }
      ],
      "stateMutability": "nonpayable",
      "type": "function"
    },
    {
      "inputs": [
        {
          "internalType": "uint256",
          "name": "_a",
          "type": "uint256"
        },
        {
          "internalType": "uint256",
          "name": "_b",
          "type": "uint256"
        }
      ],
      "name": "callMax",
      "outputs": [
        {
          "internalType": "uint256",
          "name": "",
          "type": "uint256"
        }
      ],
      "stateMutability": "pure",
      "type": "function"
    }
  ],
  "bytecode": "0x608060405234801561001057600080fd5b50610645806100206000396000f3fe608060405234801561001057600080fd5b50600436106100405760003560e01c8062fa72ff1461004557806336090b0114610091578063d4077252146100dd575b600080fd5b61007b6004803603604081101561005b57600080fd5b810190808035906020019092919080359060200190929190505050610129565b6040518082815260200191505060405180910390f35b6100c7600480360360408110156100a757600080fd5b81019080803590602001909291908035906020019092919050505061013d565b6040518082815260200191505060405180910390f35b610113600480360360408110156100f357600080fd5b810190808035906020019092919080359060200190929190505050610151565b6040518082815260200191505060405180910390f35b60006101358383610165565b905092915050565b6000610149838361024c565b905092915050565b600061015d8383610165565b905092915050565b6000631f54050082111561017b57631f54050091505b600082141561019457670de0b6b3a76400009050610246565b6000670de0b6b3a76400009050600084905060008490505b6001811115610236576000600282816101c157fe5b0614156101ef576101d28283610266565b91506101e86002826102c690919063ffffffff16565b9050610231565b6101f98284610266565b92506102058283610266565b915061022e600261022060018461031090919063ffffffff16565b6102c690919063ffffffff16565b90505b6101ac565b6102408284610266565b93505050505b92915050565b60008183101561025c578161025e565b825b905092915050565b60008061027c838561035a90919063ffffffff16565b90506102bd670de0b6b3a76400006102af6002670de0b6b3a76400008161029f57fe5b04846103e090919063ffffffff16565b6102c690919063ffffffff16565b91505092915050565b600061030883836040518060400160405280601a81526020017f536166654d6174683a206469766973696f6e206279207a65726f000000000000815250610468565b905092915050565b600061035283836040518060400160405280601e81526020017f536166654d6174683a207375627472616374696f6e206f766572666c6f77000081525061052e565b905092915050565b60008083141561036d57600090506103da565b600082840290508284828161037e57fe5b04146103d5576040517f08c379a00000000000000000000000000000000000000000000000000000000081526004018080602001828103825260218152602001806105ef6021913960400191505060405180910390fd5b809150505b92915050565b60008082840190508381101561045e576040517f08c379a000000000000000000000000000000000000000000000000000000000815260040180806020018281038252601b8152602001807f536166654d6174683a206164646974696f6e206f766572666c6f77000000000081525060200191505060405180910390fd5b8091505092915050565b60008083118290610514576040517f08c379a00000000000000000000000000000000000000000000000000000000081526004018080602001828103825283818151815260200191508051906020019080838360005b838110156104d95780820151818401526020810190506104be565b50505050905090810190601f1680156105065780820380516001836020036101000a031916815260200191505b509250505060405180910390fd5b50600083858161052057fe5b049050809150509392505050565b60008383111582906105db576040517f08c379a00000000000000000000000000000000000000000000000000000000081526004018080602001828103825283818151815260200191508051906020019080838360005b838110156105a0578082015181840152602081019050610585565b50505050905090810190601f1680156105cd5780820380516001836020036101000a031916815260200191505b509250505060405180910390fd5b506000838503905080915050939250505056fe536166654d6174683a206d756c7469706c69636174696f6e206f766572666c6f77a2646970667358221220d54f6591248f6463505a406a51bbaa8933e409f212a7fd85f1556829bc1d338764736f6c634300060b0033",
  "linkReferences": {},
  "deployedLinkReferences": {}
}