{
  "_format": "hh-sol-artifact-1",
  "contractName": "StringStaking",
  "sourceName": "contracts/StringStaking.sol",
  "abi": [
    {
      "inputs": [
        {
          "internalType": "contract StringToken",
          "name": "_string",
          "type": "address"
        },
        {
          "internalType": "uint256",
          "name": "_boostedBuffer",
          "type": "uint256"
        },
        {
          "internalType": "contract ILQTYToken",
          "name": "_lqty",
          "type": "address"
        },
        {
          "internalType": "contract gStringToken",
          "name": "_gstringToken",
          "type": "address"
        },
        {
          "internalType": "contract IStabilityPool",
          "name": "_stabilityPool",
          "type": "address"
        }
      ],
      "stateMutability": "nonpayable",
      "type": "constructor"
    },
    {
      "anonymous": false,
      "inputs": [
        {
          "indexed": true,
          "internalType": "address",
          "name": "who",
          "type": "address"
        },
        {
          "indexed": false,
          "internalType": "uint256",
          "name": "amountClaimed",
          "type": "uint256"
        },
        {
          "indexed": false,
          "internalType": "uint256",
          "name": "seconAmountClaimed",
          "type": "uint256"
        }
      ],
      "name": "Claim",
      "type": "event"
    },
    {
      "anonymous": false,
      "inputs": [
        {
          "indexed": true,
          "internalType": "address",
          "name": "user",
          "type": "address"
        },
        {
          "indexed": false,
          "internalType": "uint256",
          "name": "amount",
          "type": "uint256"
        }
      ],
      "name": "Deposit",
      "type": "event"
    },
    {
      "anonymous": false,
      "inputs": [
        {
          "indexed": true,
          "internalType": "address",
          "name": "user",
          "type": "address"
        },
        {
          "indexed": false,
          "internalType": "uint256",
          "name": "amount",
          "type": "uint256"
        }
      ],
      "name": "EmergencyWithdraw",
      "type": "event"
    },
    {
      "anonymous": false,
      "inputs": [
        {
          "indexed": true,
          "internalType": "address",
          "name": "previousOwner",
          "type": "address"
        },
        {
          "indexed": true,
          "internalType": "address",
          "name": "newOwner",
          "type": "address"
        }
      ],
      "name": "OwnershipTransferred",
      "type": "event"
    },
    {
      "anonymous": false,
      "inputs": [
        {
          "indexed": true,
          "internalType": "address",
          "name": "user",
          "type": "address"
        },
        {
          "indexed": false,
          "internalType": "uint256",
          "name": "amount",
          "type": "uint256"
        }
      ],
      "name": "Withdraw",
      "type": "event"
    },
    {
      "inputs": [],
      "name": "boostedMultiplier",
      "outputs": [
        {
          "internalType": "uint256",
          "name": "",
          "type": "uint256"
        }
      ],
      "stateMutability": "view",
      "type": "function"
    },
    {
      "inputs": [],
      "name": "creator",
      "outputs": [
        {
          "internalType": "address",
          "name": "",
          "type": "address"
        }
      ],
      "stateMutability": "view",
      "type": "function"
    },
    {
      "inputs": [
        {
          "internalType": "uint256",
          "name": "_amount",
          "type": "uint256"
        }
      ],
      "name": "deposit",
      "outputs": [],
      "stateMutability": "nonpayable",
      "type": "function"
    },
    {
      "inputs": [],
      "name": "devaddr",
      "outputs": [
        {
          "internalType": "address",
          "name": "",
          "type": "address"
        }
      ],
      "stateMutability": "view",
      "type": "function"
    },
    {
      "inputs": [],
      "name": "emergencyWithdraw",
      "outputs": [],
      "stateMutability": "nonpayable",
      "type": "function"
    },
    {
      "inputs": [],
      "name": "endBlock",
      "outputs": [
        {
          "internalType": "uint256",
          "name": "",
          "type": "uint256"
        }
      ],
      "stateMutability": "view",
      "type": "function"
    },
    {
      "inputs": [
        {
          "internalType": "uint256",
          "name": "_from",
          "type": "uint256"
        },
        {
          "internalType": "uint256",
          "name": "_to",
          "type": "uint256"
        }
      ],
      "name": "getMultiplier",
      "outputs": [
        {
          "internalType": "uint256",
          "name": "",
          "type": "uint256"
        }
      ],
      "stateMutability": "view",
      "type": "function"
    },
    {
      "inputs": [],
      "name": "gstringToken",
      "outputs": [
        {
          "internalType": "contract gStringToken",
          "name": "",
          "type": "address"
        }
      ],
      "stateMutability": "view",
      "type": "function"
    },
    {
      "inputs": [],
      "name": "isBoosted",
      "outputs": [
        {
          "internalType": "bool",
          "name": "",
          "type": "bool"
        }
      ],
      "stateMutability": "view",
      "type": "function"
    },
    {
      "inputs": [],
      "name": "lastLQTYRewards",
      "outputs": [
        {
          "internalType": "uint256",
          "name": "",
          "type": "uint256"
        }
      ],
      "stateMutability": "view",
      "type": "function"
    },
    {
      "inputs": [],
      "name": "lqtyToken",
      "outputs": [
        {
          "internalType": "contract ILQTYToken",
          "name": "",
          "type": "address"
        }
      ],
      "stateMutability": "view",
      "type": "function"
    },
    {
      "inputs": [],
      "name": "owner",
      "outputs": [
        {
          "internalType": "address",
          "name": "",
          "type": "address"
        }
      ],
      "stateMutability": "view",
      "type": "function"
    },
    {
      "inputs": [
        {
          "internalType": "address",
          "name": "_user",
          "type": "address"
        }
      ],
      "name": "pendingLQTY",
      "outputs": [
        {
          "internalType": "uint256",
          "name": "",
          "type": "uint256"
        }
      ],
      "stateMutability": "view",
      "type": "function"
    },
    {
      "inputs": [
        {
          "internalType": "address",
          "name": "_user",
          "type": "address"
        }
      ],
      "name": "pendingString",
      "outputs": [
        {
          "internalType": "uint256",
          "name": "",
          "type": "uint256"
        }
      ],
      "stateMutability": "view",
      "type": "function"
    },
    {
      "inputs": [],
      "name": "pool",
      "outputs": [
        {
          "internalType": "contract IERC20",
          "name": "lpToken",
          "type": "address"
        },
        {
          "internalType": "uint256",
          "name": "lpTokenSupply",
          "type": "uint256"
        },
        {
          "internalType": "uint256",
          "name": "lastRewardBlock",
          "type": "uint256"
        },
        {
          "internalType": "uint256",
          "name": "accStringPerShare",
          "type": "uint256"
        },
        {
          "internalType": "uint256",
          "name": "accLQTYPerShare",
          "type": "uint256"
        }
      ],
      "stateMutability": "view",
      "type": "function"
    },
    {
      "inputs": [],
      "name": "postBoostedBlock",
      "outputs": [
        {
          "internalType": "uint256",
          "name": "",
          "type": "uint256"
        }
      ],
      "stateMutability": "view",
      "type": "function"
    },
    {
      "inputs": [],
      "name": "registerIt",
      "outputs": [],
      "stateMutability": "nonpayable",
      "type": "function"
    },
    {
      "inputs": [],
      "name": "registered",
      "outputs": [
        {
          "internalType": "bool",
          "name": "",
          "type": "bool"
        }
      ],
      "stateMutability": "view",
      "type": "function"
    },
    {
      "inputs": [],
      "name": "renounceOwnership",
      "outputs": [],
      "stateMutability": "nonpayable",
      "type": "function"
    },
    {
      "inputs": [],
      "name": "stabilityPool",
      "outputs": [
        {
          "internalType": "contract IStabilityPool",
          "name": "",
          "type": "address"
        }
      ],
      "stateMutability": "view",
      "type": "function"
    },
    {
      "inputs": [],
      "name": "startBlock",
      "outputs": [
        {
          "internalType": "uint256",
          "name": "",
          "type": "uint256"
        }
      ],
      "stateMutability": "view",
      "type": "function"
    },
    {
      "inputs": [],
      "name": "stringPerBlock",
      "outputs": [
        {
          "internalType": "uint256",
          "name": "",
          "type": "uint256"
        }
      ],
      "stateMutability": "view",
      "type": "function"
    },
    {
      "inputs": [],
      "name": "stringToken",
      "outputs": [
        {
          "internalType": "contract StringToken",
          "name": "",
          "type": "address"
        }
      ],
      "stateMutability": "view",
      "type": "function"
    },
    {
      "inputs": [],
      "name": "totalAllocPoint",
      "outputs": [
        {
          "internalType": "uint256",
          "name": "",
          "type": "uint256"
        }
      ],
      "stateMutability": "view",
      "type": "function"
    },
    {
      "inputs": [],
      "name": "totalLQTYRewards",
      "outputs": [
        {
          "internalType": "uint256",
          "name": "",
          "type": "uint256"
        }
      ],
      "stateMutability": "view",
      "type": "function"
    },
    {
      "inputs": [
        {
          "internalType": "address",
          "name": "newOwner",
          "type": "address"
        }
      ],
      "name": "transferOwnership",
      "outputs": [],
      "stateMutability": "nonpayable",
      "type": "function"
    },
    {
      "inputs": [],
      "name": "updatePool",
      "outputs": [],
      "stateMutability": "nonpayable",
      "type": "function"
    },
    {
      "inputs": [
        {
          "internalType": "address",
          "name": "",
          "type": "address"
        }
      ],
      "name": "userInfo",
      "outputs": [
        {
          "internalType": "uint256",
          "name": "amount",
          "type": "uint256"
        },
        {
          "internalType": "uint256",
          "name": "rewardDebt",
          "type": "uint256"
        },
        {
          "internalType": "uint256",
          "name": "lqtyRewardDebt",
          "type": "uint256"
        }
      ],
      "stateMutability": "view",
      "type": "function"
    },
    {
      "inputs": [
        {
          "internalType": "uint256",
          "name": "_amount",
          "type": "uint256"
        }
      ],
      "name": "withdraw",
      "outputs": [],
      "stateMutability": "nonpayable",
      "type": "function"
    }
  ],
  "bytecode": "0x60806040526005805460ff60a01b19169055670333db648aec9400600855600a805460ff191660011790556000600b819055600c8190556013553480156200004657600080fd5b5060405162001f9a38038062001f9a833981810160405260a08110156200006c57600080fd5b508051602082015160408301516060840151608090940151929391929091906000620000a06001600160e01b03620001e816565b600080546001600160a01b0319166001600160a01b0383169081178255604051929350917f8be0079c531659141344cd1fd0a4f28419497f9722a3daafe3b4186f6b6457e0908290a350600180546001600160a01b03199081166001600160a01b03888116919091179092556002805482168684161790556003805490911691841691909117905562000143436225317c620001ec602090811b620011f317901c565b600755436014819055620001649085620001ec602090811b620011f317901c565b600955600480546001600160a01b039283166001600160a01b031991821617909155600680548216331790556040805160a08101825260015490931680845260006020850181905243928501839052606085018190526080909401849052600d805490931617909155600e829055600f55601081905560115550620001f092505050565b3390565b0190565b611d9a80620002006000396000f3fe608060405234801561001057600080fd5b506004361061018f5760003560e01c8063715018a6116100e4578063b689755911610092578063b68975591461035d578063b6b55f2514610365578063d49e77cd14610382578063db2e21bc1461038a578063df5e898714610392578063e3161ddd1461039a578063f18e15ba146103a2578063f2fde38b146103aa5761018f565b8063715018a6146102ec57806382b8e731146102f45780638da5cb5b146102fc5780638dbb1e3a14610304578063a489127314610327578063a60bdb2f1461034d578063afa2fc5c146103555761018f565b80631959a002116101415780631959a0021461022f5780631f7af3c3146102735780632de40ce31461027b5780632e1a7d4d14610297578063350bac34146102b657806348cd4cb1146102be57806366bf9ae4146102c65761018f565b806302d05d3f14610194578063048c661d146101b8578063083c6323146101c05780630b5f91fc146101da5780630d483ae1146101e257806316f0115b146101ea57806317caf6f114610227575b600080fd5b61019c6103d0565b604080516001600160a01b039092168252519081900360200190f35b61019c6103df565b6101c86103ee565b60408051918252519081900360200190f35b6101c86103f4565b6101c86103fa565b6101f26103ff565b604080516001600160a01b03909616865260208601949094528484019290925260608401526080830152519081900360a00190f35b6101c861041d565b6102556004803603602081101561024557600080fd5b50356001600160a01b0316610423565b60408051938452602084019290925282820152519081900360600190f35b61019c610444565b610283610453565b604080519115158252519081900360200190f35b6102b4600480360360208110156102ad57600080fd5b5035610463565b005b6101c8610734565b6101c861073a565b6101c8600480360360208110156102dc57600080fd5b50356001600160a01b0316610740565b6102b461083d565b6101c86108fb565b61019c610901565b6101c86004803603604081101561031a57600080fd5b5080359060200135610910565b6101c86004803603602081101561033d57600080fd5b50356001600160a01b031661095c565b61019c610b0f565b6102b4610b1e565b610283610bf4565b6102b46004803603602081101561037b57600080fd5b5035610bfd565b61019c610e1b565b6102b4610e2a565b61019c610e9d565b6102b4610eac565b6101c86110d9565b6102b4600480360360208110156103c057600080fd5b50356001600160a01b03166110df565b6006546001600160a01b031681565b6004546001600160a01b031681565b60075481565b60095481565b600581565b600d54600e54600f546010546011546001600160a01b039094169385565b60135481565b60126020526000908152604090208054600182015460029092015490919083565b6002546001600160a01b031681565b600554600160a01b900460ff1681565b33600090815260126020526040902080548211156104bd576040805162461bcd60e51b81526020600482015260126024820152711dda5d1a191c985dce881b9bdd0819dbdbd960721b604482015290519081900360640190fd5b600354604080516370a0823160e01b815233600482015290516000926001600160a01b0316916370a08231916024808301926020929190829003018186803b15801561050857600080fd5b505afa15801561051c573d6000803e3d6000fd5b505050506040513d602081101561053257600080fd5b5051905080831115610580576040805162461bcd60e51b81526020600482015260126024820152716e6f7420656e6f7567682067535452494e4760701b604482015290519081900360640190fd5b610588610eac565b6000610593836111f7565b905060006105a0846112ef565b90506105dc604051806040016040528060188152602001774c515459207265776172647320746f2073656e643a20257360401b81525082611323565b6105e633836113d5565b6105f03382611581565b8354610602908663ffffffff61173d16565b8455600e54610617908663ffffffff61173d16565b600e556003546040805163079cc67960e41b81523360048201526024810188905290516001600160a01b03909216916379cc67909160448082019260009290919082900301818387803b15801561066d57600080fd5b505af1158015610681573d6000803e3d6000fd5b5050600d546106a392506001600160a01b03169050338763ffffffff61174216565b60105484546106ce9164e8d4a51000916106c29163ffffffff61179416565b9063ffffffff61179816565b600185015560115484546106f29164e8d4a51000916106c29163ffffffff61179416565b600285015560408051868152905133917f884edad9ce6fa2440d8a54cc123490eb96d2768479d49ff9c7366125a9424364919081900360200190a25050505050565b60085481565b60145481565b6001600160a01b0381166000908152601260205260408120601054600e54600f544311801561076e57508015155b156107cd576000610784600d6002015443610910565b9050600061079d6008548361179490919063ffffffff16565b90506107c86107bb846106c28464e8d4a5100063ffffffff61179416565b859063ffffffff6111f316565b935050505b600061080384600101546107f764e8d4a510006106c287896000015461179490919063ffffffff16565b9063ffffffff61173d16565b600a5490915060ff161561082d5761082281600563ffffffff61179416565b945050505050610838565b935061083892505050565b919050565b6108456117ab565b6001600160a01b0316610856610901565b6001600160a01b0316146108b1576040805162461bcd60e51b815260206004820181905260248201527f4f776e61626c653a2063616c6c6572206973206e6f7420746865206f776e6572604482015290519081900360640190fd5b600080546040516001600160a01b03909116907f8be0079c531659141344cd1fd0a4f28419497f9722a3daafe3b4186f6b6457e0908390a3600080546001600160a01b0319169055565b600b5481565b6000546001600160a01b031690565b600060075482116109325761092b828463ffffffff61173d16565b9050610956565b600754831061094357506000610956565b60075461092b908463ffffffff61173d16565b92915050565b6001600160a01b038082166000908152601260209081526040808320601154600e5460025484516370a0823160e01b815230600482015294519697939692959194889491909116926370a0823192602480840193919291829003018186803b1580156109c757600080fd5b505afa1580156109db573d6000803e3d6000fd5b505050506040513d60208110156109f157600080fd5b5051600b54909150600090821115610a1a57600b54610a1790839063ffffffff61173d16565b90505b610a486040518060400160405280600c81526020016b1c195b991a5b99d85d985a5b60a21b81525083611323565b610a776040518060400160405280600b81526020016a1c195b991a5b99db185cdd60aa1b815250600b54611323565b610aa56040518060400160405280600c81526020016b0e0cadcc8d2dccecce4cae6d60a31b81525082611323565b8015610ad957610ad6610ac7846106c28464e8d4a5100063ffffffff61179416565b6011549063ffffffff6111f316565b93505b6000610b0386600201546107f764e8d4a510006106c2898b6000015461179490919063ffffffff16565b98975050505050505050565b6003546001600160a01b031681565b600554600160a01b900460ff1615610b72576040805162461bcd60e51b8152602060048201526012602482015271105b1c9958591e481c9959da5cdd195c995960721b604482015290519081900360640190fd5b600480546040805163556be10160e01b8152670c7d713b49da000093810193909352516001600160a01b039091169163556be10191602480830192600092919082900301818387803b158015610bc757600080fd5b505af1158015610bdb573d6000803e3d6000fd5b50506005805460ff60a01b1916600160a01b1790555050565b600a5460ff1681565b6103e88111610c3d5760405162461bcd60e51b8152600401808060200182810382526025815260200180611d406025913960400191505060405180910390fd5b336000908152601260205260409020610c54610eac565b805415610c8c576000610c66826111f7565b90506000610c73836112ef565b9050610c7f33836113d5565b610c893382611581565b50505b600d54610caa906001600160a01b031633308563ffffffff6117af16565b610cda6040518060400160405280600e81526020016d19195c1bdcda5d08185b5bdd5b9d60921b81525083611323565b8054610cec908363ffffffff6111f316565b8155600e54610d01908363ffffffff6111f316565b600e8190556040805180820190915260088152676c70537570706c7960c01b6020820152610d2e91611323565b6010548154610d4d9164e8d4a51000916106c29163ffffffff61179416565b60018201556011548154610d719164e8d4a51000916106c29163ffffffff61179416565b6002820155600354604080516308934a5f60e31b81523360048201526024810185905290516001600160a01b039092169163449a52f89160448082019260009290919082900301818387803b158015610dc957600080fd5b505af1158015610ddd573d6000803e3d6000fd5b50506040805185815290513393507fe1fffcc4923d04b559f4d29a8bfc6cda04eb5b0d3c460751c2402c5c5cc9109c92509081900360200190a25050565b6005546001600160a01b031681565b3360008181526012602052604090208054600d549192610e59926001600160a01b03169163ffffffff61174216565b8054604080519182525133917f5fafa99d0643513820be26656b45130b01e1c03062e1266bf36f88cbd3bd9695919081900360200190a26000808255600190910155565b6001546001600160a01b031681565b336000908152601260205260409020610ec3611809565b610ee8604051806060016040528060278152602001611cef60279139600f5443611970565b600f544311610ef757506110d7565b600e546040805180820190915260088152676c70737570706c7960c01b6020820152610f239082611323565b80610f3357505043600f556110d7565b6000610f44600d6002015443610910565b90506000610f5d6008548361179490919063ffffffff16565b905060095443101561101e576000610f7c82600563ffffffff61179416565b9050610fad6040518060400160405280600d81526020016c189bdbdcdd195914995dd85c99609a1b81525082611323565b600154604080516308934a5f60e31b81523060048201526024810184905290516001600160a01b039092169163449a52f89160448082019260009290919082900301818387803b15801561100057600080fd5b505af1158015611014573d6000803e3d6000fd5b50505050506110a0565b600a5460ff161561103457600a805460ff191690555b600154604080516308934a5f60e31b81523060048201526024810184905290516001600160a01b039092169163449a52f89160448082019260009290919082900301818387803b15801561108757600080fd5b505af115801561109b573d6000803e3d6000fd5b505050505b6110cb6110bc846106c28464e8d4a5100063ffffffff61179416565b6010549063ffffffff6111f316565b601055505043600f5550505b565b600c5481565b6110e76117ab565b6001600160a01b03166110f8610901565b6001600160a01b031614611153576040805162461bcd60e51b815260206004820181905260248201527f4f776e61626c653a2063616c6c6572206973206e6f7420746865206f776e6572604482015290519081900360640190fd5b6001600160a01b0381166111985760405162461bcd60e51b8152600401808060200182810382526026815260200180611cc96026913960400191505060405180910390fd5b600080546040516001600160a01b03808516939216917f8be0079c531659141344cd1fd0a4f28419497f9722a3daafe3b4186f6b6457e091a3600080546001600160a01b0319166001600160a01b0392909216919091179055565b0190565b600154604080516370a0823160e01b8152306004820152905160009283926001600160a01b03909116916370a0823191602480820192602092909190829003018186803b15801561124757600080fd5b505afa15801561125b573d6000803e3d6000fd5b505050506040513d602081101561127157600080fd5b5051600e5490915060009061128d90839063ffffffff61173d16565b905060006112be85600101546107f764e8d4a510006106c2600d600301548a6000015461179490919063ffffffff16565b600a5490915060ff16156112e7576112dd81600563ffffffff61179416565b9350505050610838565b949350505050565b60028101546011548254600092839261131c926107f79164e8d4a51000916106c29163ffffffff61179416565b9392505050565b6113d182826040516024018080602001838152602001828103825284818151815260200191508051906020019080838360005b8381101561136e578181015183820152602001611356565b50505050905090810190601f16801561139b5780820380516001836020036101000a031916815260200191505b5060408051601f198184030181529190526020810180516001600160e01b03166309710a9d60e41b1790529350611a2692505050565b5050565b600154604080516370a0823160e01b815230600482015290516000926001600160a01b0316916370a08231916024808301926020929190829003018186803b15801561142057600080fd5b505afa158015611434573d6000803e3d6000fd5b505050506040513d602081101561144a57600080fd5b5051600e5490915060009061146690839063ffffffff61173d16565b9050808311156114f8576001546040805163a9059cbb60e01b81526001600160a01b038781166004830152602482018590529151919092169163a9059cbb9160448083019260209291908290030181600087803b1580156114c657600080fd5b505af11580156114da573d6000803e3d6000fd5b505050506040513d60208110156114f057600080fd5b5061157b9050565b6001546040805163a9059cbb60e01b81526001600160a01b038781166004830152602482018790529151919092169163a9059cbb9160448083019260209291908290030181600087803b15801561154e57600080fd5b505af1158015611562573d6000803e3d6000fd5b505050506040513d602081101561157857600080fd5b50505b50505050565b600254604080516370a0823160e01b815230600482015290516000926001600160a01b0316916370a08231916024808301926020929190829003018186803b1580156115cc57600080fd5b505afa1580156115e0573d6000803e3d6000fd5b505050506040513d60208110156115f657600080fd5b505190508082111561169f576002546040805163a9059cbb60e01b81526001600160a01b038681166004830152602482018590529151919092169163a9059cbb9160448083019260209291908290030181600087803b15801561165857600080fd5b505af115801561166c573d6000803e3d6000fd5b505050506040513d602081101561168257600080fd5b5050600b54611697908263ffffffff61173d16565b600b55611738565b6002546040805163a9059cbb60e01b81526001600160a01b038681166004830152602482018690529151919092169163a9059cbb9160448083019260209291908290030181600087803b1580156116f557600080fd5b505af1158015611709573d6000803e3d6000fd5b505050506040513d602081101561171f57600080fd5b5050600b54611734908363ffffffff61173d16565b600b555b505050565b900390565b604080516001600160a01b038416602482015260448082018490528251808303909101815260649091019091526020810180516001600160e01b031663a9059cbb60e01b179052611738908490611a47565b0290565b60008183816117a357fe5b049392505050565b3390565b604080516001600160a01b0380861660248301528416604482015260648082018490528251808303909101815260849091019091526020810180516001600160e01b03166323b872dd60e01b17905261157b908590611a47565b600e548061181757506110d7565b600254604080516370a0823160e01b815230600482015290516000926001600160a01b0316916370a08231916024808301926020929190829003018186803b15801561186257600080fd5b505afa158015611876573d6000803e3d6000fd5b505050506040513d602081101561188c57600080fd5b5051600b549091506000908211156118b557600b546118b290839063ffffffff61173d16565b90505b6118e36040518060400160405280600c81526020016b66726573685265776172647360a01b81525082611323565b6119146040518060400160405280600f81526020016e617661696c626c655265776172647360881b81525083611323565b6119436040518060400160405280600b81526020016a6c6173745265776172647360a81b815250600b54611323565b801561196957611965610ac7846106c28464e8d4a5100063ffffffff61179416565b6011555b50600b5550565b6117388383836040516024018080602001848152602001838152602001828103825285818151815260200191508051906020019080838360005b838110156119c25781810151838201526020016119aa565b50505050905090810190601f1680156119ef5780820380516001836020036101000a031916815260200191505b5060408051601f198184030181529190526020810180516001600160e01b031663969cdd0360e01b1790529450611a269350505050565b80516a636f6e736f6c652e6c6f67602083016000808483855afa5050505050565b6060611a9c826040518060400160405280602081526020017f5361666545524332303a206c6f772d6c6576656c2063616c6c206661696c6564815250856001600160a01b0316611af89092919063ffffffff16565b80519091501561173857808060200190516020811015611abb57600080fd5b50516117385760405162461bcd60e51b815260040180806020018281038252602a815260200180611d16602a913960400191505060405180910390fd5b60606112e7848460008585611b0c85611c1e565b611b5d576040805162461bcd60e51b815260206004820152601d60248201527f416464726573733a2063616c6c20746f206e6f6e2d636f6e7472616374000000604482015290519081900360640190fd5b60006060866001600160a01b031685876040518082805190602001908083835b60208310611b9c5780518252601f199092019160209182019101611b7d565b6001836020036101000a03801982511681845116808217855250505050505090500191505060006040518083038185875af1925050503d8060008114611bfe576040519150601f19603f3d011682016040523d82523d6000602084013e611c03565b606091505b5091509150611c13828286611c24565b979650505050505050565b3b151590565b60608315611c3357508161131c565b825115611c435782518084602001fd5b8160405162461bcd60e51b81526004018080602001828103825283818151815260200191508051906020019080838360005b83811015611c8d578181015183820152602001611c75565b50505050905090810190601f168015611cba5780820380516001836020036101000a031916815260200191505b509250505060405180910390fdfe4f776e61626c653a206e6577206f776e657220697320746865207a65726f2061646472657373206c6173742072657761726420626c6f636b3a25732c2063757272656e7420626c6f636b3a25735361666545524332303a204552433230206f7065726174696f6e20646964206e6f7420737563636565646465706f736974206d7573742062652067726561746572207468616e203130303020574549a2646970667358221220d512d25a581ff96f5c3165e43a6f7be13bf0d4e12ba4bfe2308a97f8ce14e81864736f6c634300060b0033",
  "linkReferences": {},
  "deployedLinkReferences": {}
}