{
  "_format": "hh-sol-artifact-1",
  "contractName": "StringStaking",
  "sourceName": "contracts/StringStaking.sol",
  "abi": [
    {
      "inputs": [
        {
          "internalType": "contract StringToken",
          "name": "_string",
          "type": "address"
        },
        {
          "internalType": "uint256",
          "name": "_boostedBuffer",
          "type": "uint256"
        },
        {
          "internalType": "contract ILQTYToken",
          "name": "_lqty",
          "type": "address"
        },
        {
          "internalType": "contract gStringToken",
          "name": "_gstringToken",
          "type": "address"
        },
        {
          "internalType": "contract IStabilityPool",
          "name": "_stabilityPool",
          "type": "address"
        }
      ],
      "stateMutability": "nonpayable",
      "type": "constructor"
    },
    {
      "anonymous": false,
      "inputs": [
        {
          "indexed": true,
          "internalType": "address",
          "name": "who",
          "type": "address"
        },
        {
          "indexed": false,
          "internalType": "uint256",
          "name": "amountClaimed",
          "type": "uint256"
        },
        {
          "indexed": false,
          "internalType": "uint256",
          "name": "seconAmountClaimed",
          "type": "uint256"
        }
      ],
      "name": "Claim",
      "type": "event"
    },
    {
      "anonymous": false,
      "inputs": [
        {
          "indexed": true,
          "internalType": "address",
          "name": "user",
          "type": "address"
        },
        {
          "indexed": false,
          "internalType": "uint256",
          "name": "amount",
          "type": "uint256"
        }
      ],
      "name": "Deposit",
      "type": "event"
    },
    {
      "anonymous": false,
      "inputs": [
        {
          "indexed": true,
          "internalType": "address",
          "name": "user",
          "type": "address"
        },
        {
          "indexed": false,
          "internalType": "uint256",
          "name": "amount",
          "type": "uint256"
        }
      ],
      "name": "EmergencyWithdraw",
      "type": "event"
    },
    {
      "anonymous": false,
      "inputs": [
        {
          "indexed": true,
          "internalType": "address",
          "name": "user",
          "type": "address"
        },
        {
          "indexed": false,
          "internalType": "uint256",
          "name": "amount",
          "type": "uint256"
        }
      ],
      "name": "Withdraw",
      "type": "event"
    },
    {
      "inputs": [],
      "name": "boostedMultiplier",
      "outputs": [
        {
          "internalType": "uint256",
          "name": "",
          "type": "uint256"
        }
      ],
      "stateMutability": "view",
      "type": "function"
    },
    {
      "inputs": [],
      "name": "creator",
      "outputs": [
        {
          "internalType": "address",
          "name": "",
          "type": "address"
        }
      ],
      "stateMutability": "view",
      "type": "function"
    },
    {
      "inputs": [
        {
          "internalType": "uint256",
          "name": "_amount",
          "type": "uint256"
        }
      ],
      "name": "deposit",
      "outputs": [],
      "stateMutability": "nonpayable",
      "type": "function"
    },
    {
      "inputs": [],
      "name": "devaddr",
      "outputs": [
        {
          "internalType": "address",
          "name": "",
          "type": "address"
        }
      ],
      "stateMutability": "view",
      "type": "function"
    },
    {
      "inputs": [],
      "name": "emergencyWithdraw",
      "outputs": [],
      "stateMutability": "nonpayable",
      "type": "function"
    },
    {
      "inputs": [],
      "name": "endBlock",
      "outputs": [
        {
          "internalType": "uint256",
          "name": "",
          "type": "uint256"
        }
      ],
      "stateMutability": "view",
      "type": "function"
    },
    {
      "inputs": [
        {
          "internalType": "uint256",
          "name": "_from",
          "type": "uint256"
        },
        {
          "internalType": "uint256",
          "name": "_to",
          "type": "uint256"
        }
      ],
      "name": "getMultiplier",
      "outputs": [
        {
          "internalType": "uint256",
          "name": "",
          "type": "uint256"
        }
      ],
      "stateMutability": "view",
      "type": "function"
    },
    {
      "inputs": [],
      "name": "gstringToken",
      "outputs": [
        {
          "internalType": "contract gStringToken",
          "name": "",
          "type": "address"
        }
      ],
      "stateMutability": "view",
      "type": "function"
    },
    {
      "inputs": [],
      "name": "isBoosted",
      "outputs": [
        {
          "internalType": "bool",
          "name": "",
          "type": "bool"
        }
      ],
      "stateMutability": "view",
      "type": "function"
    },
    {
      "inputs": [],
      "name": "lastLQTYRewards",
      "outputs": [
        {
          "internalType": "uint256",
          "name": "",
          "type": "uint256"
        }
      ],
      "stateMutability": "view",
      "type": "function"
    },
    {
      "inputs": [],
      "name": "lastSupply",
      "outputs": [
        {
          "internalType": "uint256",
          "name": "",
          "type": "uint256"
        }
      ],
      "stateMutability": "view",
      "type": "function"
    },
    {
      "inputs": [],
      "name": "lqtyToken",
      "outputs": [
        {
          "internalType": "contract ILQTYToken",
          "name": "",
          "type": "address"
        }
      ],
      "stateMutability": "view",
      "type": "function"
    },
    {
      "inputs": [],
      "name": "maxSupply",
      "outputs": [
        {
          "internalType": "uint256",
          "name": "",
          "type": "uint256"
        }
      ],
      "stateMutability": "view",
      "type": "function"
    },
    {
      "inputs": [
        {
          "internalType": "address",
          "name": "_user",
          "type": "address"
        }
      ],
      "name": "pendingLQTY",
      "outputs": [
        {
          "internalType": "uint256",
          "name": "",
          "type": "uint256"
        }
      ],
      "stateMutability": "view",
      "type": "function"
    },
    {
      "inputs": [
        {
          "internalType": "address",
          "name": "_user",
          "type": "address"
        }
      ],
      "name": "pendingString",
      "outputs": [
        {
          "internalType": "uint256",
          "name": "",
          "type": "uint256"
        }
      ],
      "stateMutability": "view",
      "type": "function"
    },
    {
      "inputs": [],
      "name": "pool",
      "outputs": [
        {
          "internalType": "contract IERC20",
          "name": "lpToken",
          "type": "address"
        },
        {
          "internalType": "uint256",
          "name": "lpTokenSupply",
          "type": "uint256"
        },
        {
          "internalType": "uint256",
          "name": "lastRewardBlock",
          "type": "uint256"
        },
        {
          "internalType": "uint256",
          "name": "accStringPerShare",
          "type": "uint256"
        },
        {
          "internalType": "uint256",
          "name": "accLQTYPerShare",
          "type": "uint256"
        }
      ],
      "stateMutability": "view",
      "type": "function"
    },
    {
      "inputs": [],
      "name": "postBoostedBlock",
      "outputs": [
        {
          "internalType": "uint256",
          "name": "",
          "type": "uint256"
        }
      ],
      "stateMutability": "view",
      "type": "function"
    },
    {
      "inputs": [],
      "name": "registerIt",
      "outputs": [],
      "stateMutability": "nonpayable",
      "type": "function"
    },
    {
      "inputs": [],
      "name": "registered",
      "outputs": [
        {
          "internalType": "bool",
          "name": "",
          "type": "bool"
        }
      ],
      "stateMutability": "view",
      "type": "function"
    },
    {
      "inputs": [],
      "name": "stabilityPool",
      "outputs": [
        {
          "internalType": "contract IStabilityPool",
          "name": "",
          "type": "address"
        }
      ],
      "stateMutability": "view",
      "type": "function"
    },
    {
      "inputs": [],
      "name": "startBlock",
      "outputs": [
        {
          "internalType": "uint256",
          "name": "",
          "type": "uint256"
        }
      ],
      "stateMutability": "view",
      "type": "function"
    },
    {
      "inputs": [],
      "name": "stringPerBlock",
      "outputs": [
        {
          "internalType": "uint256",
          "name": "",
          "type": "uint256"
        }
      ],
      "stateMutability": "view",
      "type": "function"
    },
    {
      "inputs": [],
      "name": "stringToken",
      "outputs": [
        {
          "internalType": "contract StringToken",
          "name": "",
          "type": "address"
        }
      ],
      "stateMutability": "view",
      "type": "function"
    },
    {
      "inputs": [],
      "name": "totalAllocPoint",
      "outputs": [
        {
          "internalType": "uint256",
          "name": "",
          "type": "uint256"
        }
      ],
      "stateMutability": "view",
      "type": "function"
    },
    {
      "inputs": [],
      "name": "totalLQTYRewards",
      "outputs": [
        {
          "internalType": "uint256",
          "name": "",
          "type": "uint256"
        }
      ],
      "stateMutability": "view",
      "type": "function"
    },
    {
      "inputs": [],
      "name": "updatePool",
      "outputs": [],
      "stateMutability": "nonpayable",
      "type": "function"
    },
    {
      "inputs": [
        {
          "internalType": "address",
          "name": "",
          "type": "address"
        }
      ],
      "name": "userInfo",
      "outputs": [
        {
          "internalType": "uint256",
          "name": "amount",
          "type": "uint256"
        },
        {
          "internalType": "uint256",
          "name": "rewardDebt",
          "type": "uint256"
        },
        {
          "internalType": "uint256",
          "name": "lqtyRewardDebt",
          "type": "uint256"
        }
      ],
      "stateMutability": "view",
      "type": "function"
    },
    {
      "inputs": [
        {
          "internalType": "uint256",
          "name": "_amount",
          "type": "uint256"
        }
      ],
      "name": "withdraw",
      "outputs": [],
      "stateMutability": "nonpayable",
      "type": "function"
    }
  ],
  "bytecode": "0x60806040526006805460ff60a01b19169055670333db648aec9400600955600b805460ff191660011790556000600c819055600d8190556014553480156200004657600080fd5b506040516200208738038062002087833981810160405260a08110156200006c57600080fd5b50805160208083015160408401516060850151608090950151600280546001600160a01b038088166001600160a01b031992831617909255600380548386169083161790556004805492891692909116919091179055939491939092620000e39043906225317c906200113b6200026b821b17901c565b6008554360158190556200010490856200026b602090811b6200113b17901c565b600a55600580546001600160a01b038084166001600160a01b031992831617909255600780548216331790556040805160a0810182526002549093168084526000602080860182905243868501819052606087018390526080909601829052600e80549095168317909455600f819055601094909455601184905560129390935580516318160ddd60e01b815290516318160ddd92600483810193919291829003018186803b158015620001b757600080fd5b505afa158015620001cc573d6000803e3d6000fd5b505050506040513d6020811015620001e357600080fd5b50516000556002546040805163d5abeb0160e01b815290516001600160a01b039092169163d5abeb0191600480820192602092909190829003018186803b1580156200022e57600080fd5b505afa15801562000243573d6000803e3d6000fd5b505050506040513d60208110156200025a57600080fd5b5051600155506200026f9350505050565b0190565b611e08806200027f6000396000f3fe608060405234801561001057600080fd5b50600436106101845760003560e01c806382b8e731116100d9578063d49e77cd11610087578063d49e77cd14610367578063d5abeb011461036f578063db2e21bc14610377578063df5e89871461037f578063e3161ddd14610387578063f18e15ba1461038f578063f75b8c5f1461039757610184565b806382b8e731146102e15780638dbb1e3a146102e9578063a48912731461030c578063a60bdb2f14610332578063afa2fc5c1461033a578063b689755914610342578063b6b55f251461034a57610184565b80631959a002116101365780631959a002146102245780631f7af3c3146102685780632de40ce3146102705780632e1a7d4d1461028c578063350bac34146102ab57806348cd4cb1146102b357806366bf9ae4146102bb57610184565b806302d05d3f14610189578063048c661d146101ad578063083c6323146101b55780630b5f91fc146101cf5780630d483ae1146101d757806316f0115b146101df57806317caf6f11461021c575b600080fd5b61019161039f565b604080516001600160a01b039092168252519081900360200190f35b6101916103ae565b6101bd6103bd565b60408051918252519081900360200190f35b6101bd6103c3565b6101bd6103c9565b6101e76103ce565b604080516001600160a01b03909616865260208601949094528484019290925260608401526080830152519081900360a00190f35b6101bd6103ec565b61024a6004803603602081101561023a57600080fd5b50356001600160a01b03166103f2565b60408051938452602084019290925282820152519081900360600190f35b610191610413565b610278610422565b604080519115158252519081900360200190f35b6102a9600480360360208110156102a257600080fd5b5035610432565b005b6101bd61071c565b6101bd610722565b6101bd600480360360208110156102d157600080fd5b50356001600160a01b0316610728565b6101bd610825565b6101bd600480360360408110156102ff57600080fd5b508035906020013561082b565b6101bd6004803603602081101561032257600080fd5b50356001600160a01b0316610877565b610191610a2a565b6102a9610a39565b610278610b57565b6102a96004803603602081101561036057600080fd5b5035610b60565b610191610d94565b6101bd610da3565b6102a9610da9565b610191610e1c565b6102a9610e2b565b6101bd61112f565b6101bd611135565b6007546001600160a01b031681565b6005546001600160a01b031681565b60085481565b600a5481565b600581565b600e54600f546010546011546012546001600160a01b039094169385565b60145481565b60136020526000908152604090208054600182015460029092015490919083565b6003546001600160a01b031681565b600654600160a01b900460ff1681565b336000908152601360205260409020805482111561048c576040805162461bcd60e51b81526020600482015260126024820152711dda5d1a191c985dce881b9bdd0819dbdbd960721b604482015290519081900360640190fd5b60048054604080516370a0823160e01b81523393810193909352516000926001600160a01b03909216916370a08231916024808301926020929190829003018186803b1580156104db57600080fd5b505afa1580156104ef573d6000803e3d6000fd5b505050506040513d602081101561050557600080fd5b5051905080831115610553576040805162461bcd60e51b81526020600482015260126024820152716e6f7420656e6f7567682067535452494e4760701b604482015290519081900360640190fd5b600154600054101561056757610567610e2b565b61056f61113f565b600061057a836111be565b90506000610587846112b6565b90506105c3604051806040016040528060188152602001774c515459207265776172647320746f2073656e643a20257360401b815250826112ea565b6105cd338361139c565b6105d73382611548565b83546105e9908663ffffffff61170416565b8455600f546105fe908663ffffffff61170416565b600f55600480546040805163079cc67960e41b8152339381019390935260248301889052516001600160a01b03909116916379cc679091604480830192600092919082900301818387803b15801561065557600080fd5b505af1158015610669573d6000803e3d6000fd5b5050600e5461068b92506001600160a01b03169050338763ffffffff61170916565b60115484546106b69164e8d4a51000916106aa9163ffffffff61175b16565b9063ffffffff61175f16565b600185015560125484546106da9164e8d4a51000916106aa9163ffffffff61175b16565b600285015560408051868152905133917f884edad9ce6fa2440d8a54cc123490eb96d2768479d49ff9c7366125a9424364919081900360200190a25050505050565b60095481565b60155481565b6001600160a01b0381166000908152601360205260408120601154600f546010544311801561075657508015155b156107b557600061076c600e600201544361082b565b905060006107856009548361175b90919063ffffffff16565b90506107b06107a3846106aa8464e8d4a5100063ffffffff61175b16565b859063ffffffff61113b16565b935050505b60006107eb84600101546107df64e8d4a510006106aa87896000015461175b90919063ffffffff16565b9063ffffffff61170416565b600b5490915060ff16156108155761080a81600563ffffffff61175b16565b945050505050610820565b935061082092505050565b919050565b600c5481565b6000600854821161084d57610846828463ffffffff61170416565b9050610871565b600854831061085e57506000610871565b600854610846908463ffffffff61170416565b92915050565b6001600160a01b038082166000908152601360209081526040808320601254600f5460035484516370a0823160e01b815230600482015294519697939692959194889491909116926370a0823192602480840193919291829003018186803b1580156108e257600080fd5b505afa1580156108f6573d6000803e3d6000fd5b505050506040513d602081101561090c57600080fd5b5051600c5490915060009082111561093557600c5461093290839063ffffffff61170416565b90505b6109636040518060400160405280600c81526020016b1c195b991a5b99d85d985a5b60a21b815250836112ea565b6109926040518060400160405280600b81526020016a1c195b991a5b99db185cdd60aa1b815250600c546112ea565b6109c06040518060400160405280600c81526020016b0e0cadcc8d2dccecce4cae6d60a31b815250826112ea565b80156109f4576109f16109e2846106aa8464e8d4a5100063ffffffff61175b16565b6012549063ffffffff61113b16565b93505b6000610a1e86600201546107df64e8d4a510006106aa898b6000015461175b90919063ffffffff16565b98975050505050505050565b6004546001600160a01b031681565b6007546001600160a01b03163314610a825760405162461bcd60e51b8152600401808060200182810382526021815260200180611d636021913960400191505060405180910390fd5b600654600160a01b900460ff1615610ad6576040805162461bcd60e51b8152602060048201526012602482015271105b1c9958591e481c9959da5cdd195c995960721b604482015290519081900360640190fd5b6005546040805163556be10160e01b8152670c7d713b49da0000600482015290516001600160a01b039092169163556be1019160248082019260009290919082900301818387803b158015610b2a57600080fd5b505af1158015610b3e573d6000803e3d6000fd5b50506006805460ff60a01b1916600160a01b1790555050565b600b5460ff1681565b6103e88111610ba05760405162461bcd60e51b8152600401808060200182810382526025815260200180611dae6025913960400191505060405180910390fd5b336000908152601360205260408120600154915490911115610bc457610bc4610e2b565b610bcc61113f565b805415610c04576000610bde826111be565b90506000610beb836112b6565b9050610bf7338361139c565b610c013382611548565b50505b600e54610c22906001600160a01b031633308563ffffffff61177216565b610c526040518060400160405280600e81526020016d19195c1bdcda5d08185b5bdd5b9d60921b815250836112ea565b8054610c64908363ffffffff61113b16565b8155600f54610c79908363ffffffff61113b16565b600f8190556040805180820190915260088152676c70537570706c7960c01b6020820152610ca6916112ea565b6011548154610cc59164e8d4a51000916106aa9163ffffffff61175b16565b60018201556012548154610ce99164e8d4a51000916106aa9163ffffffff61175b16565b600282015560048054604080516308934a5f60e31b8152339381019390935260248301859052516001600160a01b039091169163449a52f891604480830192600092919082900301818387803b158015610d4257600080fd5b505af1158015610d56573d6000803e3d6000fd5b50506040805185815290513393507fe1fffcc4923d04b559f4d29a8bfc6cda04eb5b0d3c460751c2402c5c5cc9109c92509081900360200190a25050565b6006546001600160a01b031681565b60015481565b3360008181526013602052604090208054600e549192610dd8926001600160a01b03169163ffffffff61170916565b8054604080519182525133917f5fafa99d0643513820be26656b45130b01e1c03062e1266bf36f88cbd3bd9695919081900360200190a26000808255600190910155565b6002546001600160a01b031681565b336000908152601360205260409020610e426117cc565b610e67604051806060016040528060278152602001611d3c6027913960105443611933565b6010544311610e76575061112d565b600f546040805180820190915260088152676c70737570706c7960c01b6020820152610ea290826112ea565b80610eb25750504360105561112d565b6000610ec3600e600201544361082b565b90506000610edc6009548361175b90919063ffffffff16565b9050610f246040518060400160405280600c81526020016b737570706c7920636865636b60a01b815250600154610f1e8460005461113b90919063ffffffff16565b116119e9565b610f536040518060400160405280600d81526020016c737472696e675265776172647360981b815250826112ea565b600154600054610f69908363ffffffff61113b16565b1115610fb557600054600154610f849163ffffffff61170416565b9050610fb56040518060400160405280600d81526020016c737472696e675265776172647360981b815250826112ea565b600a54431015611074576000610fd282600563ffffffff61175b16565b90506110036040518060400160405280600d81526020016c189bdbdcdd195914995dd85c99609a1b815250826112ea565b600254604080516308934a5f60e31b81523060048201526024810184905290516001600160a01b039092169163449a52f89160448082019260009290919082900301818387803b15801561105657600080fd5b505af115801561106a573d6000803e3d6000fd5b50505050506110f6565b600b5460ff161561108a57600b805460ff191690555b600254604080516308934a5f60e31b81523060048201526024810184905290516001600160a01b039092169163449a52f89160448082019260009290919082900301818387803b1580156110dd57600080fd5b505af11580156110f1573d6000803e3d6000fd5b505050505b611121611112846106aa8464e8d4a5100063ffffffff61175b16565b6011549063ffffffff61113b16565b60115550504360105550505b565b600d5481565b60005481565b0190565b600260009054906101000a90046001600160a01b03166001600160a01b03166318160ddd6040518163ffffffff1660e01b815260040160206040518083038186803b15801561118d57600080fd5b505afa1580156111a1573d6000803e3d6000fd5b505050506040513d60208110156111b757600080fd5b5051600055565b600254604080516370a0823160e01b8152306004820152905160009283926001600160a01b03909116916370a0823191602480820192602092909190829003018186803b15801561120e57600080fd5b505afa158015611222573d6000803e3d6000fd5b505050506040513d602081101561123857600080fd5b5051600f5490915060009061125490839063ffffffff61170416565b9050600061128585600101546107df64e8d4a510006106aa600e600301548a6000015461175b90919063ffffffff16565b600b5490915060ff16156112ae576112a481600563ffffffff61175b16565b9350505050610820565b949350505050565b6002810154601254825460009283926112e3926107df9164e8d4a51000916106aa9163ffffffff61175b16565b9392505050565b61139882826040516024018080602001838152602001828103825284818151815260200191508051906020019080838360005b8381101561133557818101518382015260200161131d565b50505050905090810190601f1680156113625780820380516001836020036101000a031916815260200191505b5060408051601f198184030181529190526020810180516001600160e01b03166309710a9d60e41b1790529350611a9992505050565b5050565b600254604080516370a0823160e01b815230600482015290516000926001600160a01b0316916370a08231916024808301926020929190829003018186803b1580156113e757600080fd5b505afa1580156113fb573d6000803e3d6000fd5b505050506040513d602081101561141157600080fd5b5051600f5490915060009061142d90839063ffffffff61170416565b9050808311156114bf576002546040805163a9059cbb60e01b81526001600160a01b038781166004830152602482018590529151919092169163a9059cbb9160448083019260209291908290030181600087803b15801561148d57600080fd5b505af11580156114a1573d6000803e3d6000fd5b505050506040513d60208110156114b757600080fd5b506115429050565b6002546040805163a9059cbb60e01b81526001600160a01b038781166004830152602482018790529151919092169163a9059cbb9160448083019260209291908290030181600087803b15801561151557600080fd5b505af1158015611529573d6000803e3d6000fd5b505050506040513d602081101561153f57600080fd5b50505b50505050565b600354604080516370a0823160e01b815230600482015290516000926001600160a01b0316916370a08231916024808301926020929190829003018186803b15801561159357600080fd5b505afa1580156115a7573d6000803e3d6000fd5b505050506040513d60208110156115bd57600080fd5b5051905080821115611666576003546040805163a9059cbb60e01b81526001600160a01b038681166004830152602482018590529151919092169163a9059cbb9160448083019260209291908290030181600087803b15801561161f57600080fd5b505af1158015611633573d6000803e3d6000fd5b505050506040513d602081101561164957600080fd5b5050600c5461165e908263ffffffff61170416565b600c556116ff565b6003546040805163a9059cbb60e01b81526001600160a01b038681166004830152602482018690529151919092169163a9059cbb9160448083019260209291908290030181600087803b1580156116bc57600080fd5b505af11580156116d0573d6000803e3d6000fd5b505050506040513d60208110156116e657600080fd5b5050600c546116fb908363ffffffff61170416565b600c555b505050565b900390565b604080516001600160a01b038416602482015260448082018490528251808303909101815260649091019091526020810180516001600160e01b031663a9059cbb60e01b1790526116ff908490611aba565b0290565b600081838161176a57fe5b049392505050565b604080516001600160a01b0380861660248301528416604482015260648082018490528251808303909101815260849091019091526020810180516001600160e01b03166323b872dd60e01b179052611542908590611aba565b600f54806117da575061112d565b600354604080516370a0823160e01b815230600482015290516000926001600160a01b0316916370a08231916024808301926020929190829003018186803b15801561182557600080fd5b505afa158015611839573d6000803e3d6000fd5b505050506040513d602081101561184f57600080fd5b5051600c5490915060009082111561187857600c5461187590839063ffffffff61170416565b90505b6118a66040518060400160405280600c81526020016b66726573685265776172647360a01b815250826112ea565b6118d76040518060400160405280600f81526020016e617661696c626c655265776172647360881b815250836112ea565b6119066040518060400160405280600b81526020016a6c6173745265776172647360a81b815250600c546112ea565b801561192c576119286109e2846106aa8464e8d4a5100063ffffffff61175b16565b6012555b50600c5550565b6116ff8383836040516024018080602001848152602001838152602001828103825285818151815260200191508051906020019080838360005b8381101561198557818101518382015260200161196d565b50505050905090810190601f1680156119b25780820380516001836020036101000a031916815260200191505b5060408051601f198184030181529190526020810180516001600160e01b031663969cdd0360e01b1790529450611a999350505050565b604080518215156044820152602481019182528351606482015283516113989285928592829160840190602086019080838360005b83811015611a36578181015183820152602001611a1e565b50505050905090810190601f168015611a635780820380516001836020036101000a031916815260200191505b5060408051601f198184030181529190526020810180516001600160e01b031663c3b5563560e01b1790529350611a9992505050565b80516a636f6e736f6c652e6c6f67602083016000808483855afa5050505050565b6060611b0f826040518060400160405280602081526020017f5361666545524332303a206c6f772d6c6576656c2063616c6c206661696c6564815250856001600160a01b0316611b6b9092919063ffffffff16565b8051909150156116ff57808060200190516020811015611b2e57600080fd5b50516116ff5760405162461bcd60e51b815260040180806020018281038252602a815260200180611d84602a913960400191505060405180910390fd5b60606112ae848460008585611b7f85611c91565b611bd0576040805162461bcd60e51b815260206004820152601d60248201527f416464726573733a2063616c6c20746f206e6f6e2d636f6e7472616374000000604482015290519081900360640190fd5b60006060866001600160a01b031685876040518082805190602001908083835b60208310611c0f5780518252601f199092019160209182019101611bf0565b6001836020036101000a03801982511681845116808217855250505050505090500191505060006040518083038185875af1925050503d8060008114611c71576040519150601f19603f3d011682016040523d82523d6000602084013e611c76565b606091505b5091509150611c86828286611c97565b979650505050505050565b3b151590565b60608315611ca65750816112e3565b825115611cb65782518084602001fd5b8160405162461bcd60e51b81526004018080602001828103825283818151815260200191508051906020019080838360005b83811015611d00578181015183820152602001611ce8565b50505050905090810190601f168015611d2d5780820380516001836020036101000a031916815260200191505b509250505060405180910390fdfe206c6173742072657761726420626c6f636b3a25732c2063757272656e7420626c6f636b3a25736f6e6c792063726561746f722063616e2063616c6c2074686973206d6574686f645361666545524332303a204552433230206f7065726174696f6e20646964206e6f7420737563636565646465706f736974206d7573742062652067726561746572207468616e203130303020574549a264697066735822122004de02752480e7a0b44f4596e64b479aa4f81f93343bcde2c2709bfe16a8bf1564736f6c634300060b0033",
  "linkReferences": {},
  "deployedLinkReferences": {}
}