{
  "_format": "hh-sol-artifact-1",
  "contractName": "StringStaking",
  "sourceName": "contracts/StringStaking.sol",
  "abi": [
    {
      "inputs": [
        {
          "internalType": "contract StringToken",
          "name": "_string",
          "type": "address"
        },
        {
          "internalType": "uint256",
          "name": "_boostedBuffer",
          "type": "uint256"
        },
        {
          "internalType": "contract ILQTYToken",
          "name": "_lqty",
          "type": "address"
        },
        {
          "internalType": "contract gStringToken",
          "name": "_gstringToken",
          "type": "address"
        },
        {
          "internalType": "contract IStabilityPool",
          "name": "_stabilityPool",
          "type": "address"
        }
      ],
      "stateMutability": "nonpayable",
      "type": "constructor"
    },
    {
      "anonymous": false,
      "inputs": [
        {
          "indexed": true,
          "internalType": "address",
          "name": "who",
          "type": "address"
        },
        {
          "indexed": false,
          "internalType": "uint256",
          "name": "amountClaimed",
          "type": "uint256"
        },
        {
          "indexed": false,
          "internalType": "uint256",
          "name": "seconAmountClaimed",
          "type": "uint256"
        }
      ],
      "name": "Claim",
      "type": "event"
    },
    {
      "anonymous": false,
      "inputs": [
        {
          "indexed": true,
          "internalType": "address",
          "name": "user",
          "type": "address"
        },
        {
          "indexed": false,
          "internalType": "uint256",
          "name": "amount",
          "type": "uint256"
        }
      ],
      "name": "Deposit",
      "type": "event"
    },
    {
      "anonymous": false,
      "inputs": [
        {
          "indexed": true,
          "internalType": "address",
          "name": "user",
          "type": "address"
        },
        {
          "indexed": false,
          "internalType": "uint256",
          "name": "amount",
          "type": "uint256"
        }
      ],
      "name": "EmergencyWithdraw",
      "type": "event"
    },
    {
      "anonymous": false,
      "inputs": [
        {
          "indexed": true,
          "internalType": "address",
          "name": "previousOwner",
          "type": "address"
        },
        {
          "indexed": true,
          "internalType": "address",
          "name": "newOwner",
          "type": "address"
        }
      ],
      "name": "OwnershipTransferred",
      "type": "event"
    },
    {
      "anonymous": false,
      "inputs": [
        {
          "indexed": true,
          "internalType": "address",
          "name": "user",
          "type": "address"
        },
        {
          "indexed": false,
          "internalType": "uint256",
          "name": "amount",
          "type": "uint256"
        }
      ],
      "name": "Withdraw",
      "type": "event"
    },
    {
      "inputs": [],
      "name": "boostedMultiplier",
      "outputs": [
        {
          "internalType": "uint256",
          "name": "",
          "type": "uint256"
        }
      ],
      "stateMutability": "view",
      "type": "function"
    },
    {
      "inputs": [],
      "name": "creator",
      "outputs": [
        {
          "internalType": "address",
          "name": "",
          "type": "address"
        }
      ],
      "stateMutability": "view",
      "type": "function"
    },
    {
      "inputs": [
        {
          "internalType": "uint256",
          "name": "_amount",
          "type": "uint256"
        }
      ],
      "name": "deposit",
      "outputs": [],
      "stateMutability": "nonpayable",
      "type": "function"
    },
    {
      "inputs": [],
      "name": "devaddr",
      "outputs": [
        {
          "internalType": "address",
          "name": "",
          "type": "address"
        }
      ],
      "stateMutability": "view",
      "type": "function"
    },
    {
      "inputs": [],
      "name": "emergencyWithdraw",
      "outputs": [],
      "stateMutability": "nonpayable",
      "type": "function"
    },
    {
      "inputs": [],
      "name": "endBlock",
      "outputs": [
        {
          "internalType": "uint256",
          "name": "",
          "type": "uint256"
        }
      ],
      "stateMutability": "view",
      "type": "function"
    },
    {
      "inputs": [
        {
          "internalType": "uint256",
          "name": "_from",
          "type": "uint256"
        },
        {
          "internalType": "uint256",
          "name": "_to",
          "type": "uint256"
        }
      ],
      "name": "getMultiplier",
      "outputs": [
        {
          "internalType": "uint256",
          "name": "",
          "type": "uint256"
        }
      ],
      "stateMutability": "view",
      "type": "function"
    },
    {
      "inputs": [],
      "name": "gstringToken",
      "outputs": [
        {
          "internalType": "contract gStringToken",
          "name": "",
          "type": "address"
        }
      ],
      "stateMutability": "view",
      "type": "function"
    },
    {
      "inputs": [],
      "name": "isBoosted",
      "outputs": [
        {
          "internalType": "bool",
          "name": "",
          "type": "bool"
        }
      ],
      "stateMutability": "view",
      "type": "function"
    },
    {
      "inputs": [],
      "name": "lqtyToken",
      "outputs": [
        {
          "internalType": "contract ILQTYToken",
          "name": "",
          "type": "address"
        }
      ],
      "stateMutability": "view",
      "type": "function"
    },
    {
      "inputs": [],
      "name": "owner",
      "outputs": [
        {
          "internalType": "address",
          "name": "",
          "type": "address"
        }
      ],
      "stateMutability": "view",
      "type": "function"
    },
    {
      "inputs": [
        {
          "internalType": "address",
          "name": "_user",
          "type": "address"
        }
      ],
      "name": "pendingLQTY",
      "outputs": [
        {
          "internalType": "uint256",
          "name": "",
          "type": "uint256"
        }
      ],
      "stateMutability": "view",
      "type": "function"
    },
    {
      "inputs": [
        {
          "internalType": "address",
          "name": "_user",
          "type": "address"
        }
      ],
      "name": "pendingString",
      "outputs": [
        {
          "internalType": "uint256",
          "name": "",
          "type": "uint256"
        }
      ],
      "stateMutability": "view",
      "type": "function"
    },
    {
      "inputs": [],
      "name": "pool",
      "outputs": [
        {
          "internalType": "contract IERC20",
          "name": "lpToken",
          "type": "address"
        },
        {
          "internalType": "uint256",
          "name": "lpTokenSupply",
          "type": "uint256"
        },
        {
          "internalType": "uint256",
          "name": "lastRewardBlock",
          "type": "uint256"
        },
        {
          "internalType": "uint256",
          "name": "accStringPerShare",
          "type": "uint256"
        },
        {
          "internalType": "uint256",
          "name": "accLQTYPerShare",
          "type": "uint256"
        }
      ],
      "stateMutability": "view",
      "type": "function"
    },
    {
      "inputs": [],
      "name": "postBoostedBlock",
      "outputs": [
        {
          "internalType": "uint256",
          "name": "",
          "type": "uint256"
        }
      ],
      "stateMutability": "view",
      "type": "function"
    },
    {
      "inputs": [],
      "name": "registerIt",
      "outputs": [],
      "stateMutability": "nonpayable",
      "type": "function"
    },
    {
      "inputs": [],
      "name": "registered",
      "outputs": [
        {
          "internalType": "bool",
          "name": "",
          "type": "bool"
        }
      ],
      "stateMutability": "view",
      "type": "function"
    },
    {
      "inputs": [],
      "name": "renounceOwnership",
      "outputs": [],
      "stateMutability": "nonpayable",
      "type": "function"
    },
    {
      "inputs": [],
      "name": "stabilityPool",
      "outputs": [
        {
          "internalType": "contract IStabilityPool",
          "name": "",
          "type": "address"
        }
      ],
      "stateMutability": "view",
      "type": "function"
    },
    {
      "inputs": [],
      "name": "startBlock",
      "outputs": [
        {
          "internalType": "uint256",
          "name": "",
          "type": "uint256"
        }
      ],
      "stateMutability": "view",
      "type": "function"
    },
    {
      "inputs": [],
      "name": "stringPerBlock",
      "outputs": [
        {
          "internalType": "uint256",
          "name": "",
          "type": "uint256"
        }
      ],
      "stateMutability": "view",
      "type": "function"
    },
    {
      "inputs": [],
      "name": "stringToken",
      "outputs": [
        {
          "internalType": "contract StringToken",
          "name": "",
          "type": "address"
        }
      ],
      "stateMutability": "view",
      "type": "function"
    },
    {
      "inputs": [],
      "name": "totalAllocPoint",
      "outputs": [
        {
          "internalType": "uint256",
          "name": "",
          "type": "uint256"
        }
      ],
      "stateMutability": "view",
      "type": "function"
    },
    {
      "inputs": [
        {
          "internalType": "address",
          "name": "newOwner",
          "type": "address"
        }
      ],
      "name": "transferOwnership",
      "outputs": [],
      "stateMutability": "nonpayable",
      "type": "function"
    },
    {
      "inputs": [],
      "name": "updatePool",
      "outputs": [],
      "stateMutability": "nonpayable",
      "type": "function"
    },
    {
      "inputs": [],
      "name": "updateSP",
      "outputs": [],
      "stateMutability": "nonpayable",
      "type": "function"
    },
    {
      "inputs": [
        {
          "internalType": "address",
          "name": "",
          "type": "address"
        }
      ],
      "name": "userInfo",
      "outputs": [
        {
          "internalType": "uint256",
          "name": "amount",
          "type": "uint256"
        },
        {
          "internalType": "uint256",
          "name": "rewardDebt",
          "type": "uint256"
        },
        {
          "internalType": "uint256",
          "name": "lqtyRewardDebt",
          "type": "uint256"
        }
      ],
      "stateMutability": "view",
      "type": "function"
    },
    {
      "inputs": [
        {
          "internalType": "uint256",
          "name": "_amount",
          "type": "uint256"
        }
      ],
      "name": "withdraw",
      "outputs": [],
      "stateMutability": "nonpayable",
      "type": "function"
    }
  ],
  "bytecode": "0x60806040526005805460ff60a01b19169055670333db648aec9400600855600a805460ff1916600117905560006011553480156200003c57600080fd5b5060405162001e6f38038062001e6f833981810160405260a08110156200006257600080fd5b508051602082015160408301516060840151608090940151929391929091906000620000966001600160e01b03620001de16565b600080546001600160a01b0319166001600160a01b0383169081178255604051929350917f8be0079c531659141344cd1fd0a4f28419497f9722a3daafe3b4186f6b6457e0908290a350600180546001600160a01b03199081166001600160a01b03888116919091179092556002805482168684161790556003805490911691841691909117905562000139436225317c620001e2602090811b6200116717901c565b6007554360128190556200015a9085620001e2602090811b6200116717901c565b600955600480546001600160a01b039283166001600160a01b031991821617909155600680548216331790556040805160a08101825260015490931680845260006020850181905243928501839052606085018190526080909401849052600b805490931617909155600c829055600d55600e819055600f5550620001e692505050565b3390565b0190565b611c7980620001f66000396000f3fe608060405234801561001057600080fd5b50600436106101845760003560e01c8063715018a6116100d9578063b689755911610087578063b689755914610352578063b6b55f251461035a578063d49e77cd14610377578063db2e21bc1461037f578063df5e898714610387578063e3161ddd1461038f578063f2fde38b1461039757610184565b8063715018a6146102e15780638da5cb5b146102e95780638dbb1e3a146102f15780639a45670314610314578063a48912731461031c578063a60bdb2f14610342578063afa2fc5c1461034a57610184565b80631959a002116101365780631959a002146102245780631f7af3c3146102685780632de40ce3146102705780632e1a7d4d1461028c578063350bac34146102ab57806348cd4cb1146102b357806366bf9ae4146102bb57610184565b806302d05d3f14610189578063048c661d146101ad578063083c6323146101b55780630b5f91fc146101cf5780630d483ae1146101d757806316f0115b146101df57806317caf6f11461021c575b600080fd5b6101916103bd565b604080516001600160a01b039092168252519081900360200190f35b6101916103cc565b6101bd6103db565b60408051918252519081900360200190f35b6101bd6103e1565b6101bd6103e7565b6101e76103ec565b604080516001600160a01b03909616865260208601949094528484019290925260608401526080830152519081900360a00190f35b6101bd61040a565b61024a6004803603602081101561023a57600080fd5b50356001600160a01b0316610410565b60408051938452602084019290925282820152519081900360600190f35b610191610431565b610278610440565b604080519115158252519081900360200190f35b6102a9600480360360208110156102a257600080fd5b5035610450565b005b6101bd610757565b6101bd61075d565b6101bd600480360360208110156102d157600080fd5b50356001600160a01b0316610763565b6102a9610860565b61019161091e565b6101bd6004803603604081101561030757600080fd5b508035906020013561092d565b6102a9610979565b6101bd6004803603602081101561033257600080fd5b50356001600160a01b0316610a4c565b610191610a9c565b6102a9610aab565b610278610b81565b6102a96004803603602081101561037057600080fd5b5035610b8a565b610191610e07565b6102a9610e16565b610191610e89565b6102a9610e98565b6102a9600480360360208110156103ad57600080fd5b50356001600160a01b0316611053565b6006546001600160a01b031681565b6004546001600160a01b031681565b60075481565b60095481565b600581565b600b54600c54600d54600e54600f546001600160a01b039094169385565b60115481565b60106020526000908152604090208054600182015460029092015490919083565b6002546001600160a01b031681565b600554600160a01b900460ff1681565b33600090815260106020526040902080548211156104aa576040805162461bcd60e51b81526020600482015260126024820152711dda5d1a191c985dce881b9bdd0819dbdbd960721b604482015290519081900360640190fd5b600354604080516370a0823160e01b815233600482015290516000926001600160a01b0316916370a08231916024808301926020929190829003018186803b1580156104f557600080fd5b505afa158015610509573d6000803e3d6000fd5b505050506040513d602081101561051f57600080fd5b505190508083111561056d576040805162461bcd60e51b81526020600482015260126024820152716e6f7420656e6f7567682067535452494e4760701b604482015290519081900360640190fd5b610575610e98565b61057d610979565b60006105888361116b565b905060006105958461121e565b90506105cc604051806040016040528060138152602001727265776172647320746f2073656e643a20257360681b81525083611252565b6105d63383611304565b6105e033826114b0565b83546105f2908663ffffffff61164116565b8455600c54610607908663ffffffff61164116565b600c556003546040805163079cc67960e41b81523360048201526024810188905290516001600160a01b03909216916379cc67909160448082019260009290919082900301818387803b15801561065d57600080fd5b505af1158015610671573d6000803e3d6000fd5b505050506106a960405180604001604052806012815260200171616d6f756e7420746f2073656e643a20257360701b81525086611252565b600b546106c6906001600160a01b0316338763ffffffff61164616565b600e5484546106f19164e8d4a51000916106e59163ffffffff61169816565b9063ffffffff61169c16565b6001850155600f5484546107159164e8d4a51000916106e59163ffffffff61169816565b600285015560408051868152905133917f884edad9ce6fa2440d8a54cc123490eb96d2768479d49ff9c7366125a9424364919081900360200190a25050505050565b60085481565b60125481565b6001600160a01b0381166000908152601060205260408120600e54600c54600d544311801561079157508015155b156107f05760006107a7600b600201544361092d565b905060006107c06008548361169890919063ffffffff16565b90506107eb6107de846106e58464e8d4a5100063ffffffff61169816565b859063ffffffff61116716565b935050505b6000610826846001015461081a64e8d4a510006106e587896000015461169890919063ffffffff16565b9063ffffffff61164116565b600a5490915060ff16156108505761084581600563ffffffff61169816565b94505050505061085b565b935061085b92505050565b919050565b6108686116af565b6001600160a01b031661087961091e565b6001600160a01b0316146108d4576040805162461bcd60e51b815260206004820181905260248201527f4f776e61626c653a2063616c6c6572206973206e6f7420746865206f776e6572604482015290519081900360640190fd5b600080546040516001600160a01b03909116907f8be0079c531659141344cd1fd0a4f28419497f9722a3daafe3b4186f6b6457e0908390a3600080546001600160a01b0319169055565b6000546001600160a01b031690565b6000600754821161094f57610948828463ffffffff61164116565b9050610973565b600754831061096057506000610973565b600754610948908463ffffffff61164116565b92915050565b600d54431161098757610a4a565b600c54806109955750610a4a565b600254604080516370a0823160e01b815230600482015290516000926001600160a01b0316916370a08231916024808301926020929190829003018186803b1580156109e057600080fd5b505afa1580156109f4573d6000803e3d6000fd5b505050506040513d6020811015610a0a57600080fd5b505190508015610a4357610a3f610a30836106e58464e8d4a5100063ffffffff61169816565b600f549063ffffffff61116716565b600f555b505043600d555b565b6001600160a01b0381166000908152601060205260408120600f54600c54600283015483548591610a929161081a9064e8d4a51000906106e5908863ffffffff61169816565b9695505050505050565b6003546001600160a01b031681565b600554600160a01b900460ff1615610aff576040805162461bcd60e51b8152602060048201526012602482015271105b1c9958591e481c9959da5cdd195c995960721b604482015290519081900360640190fd5b600480546040805163556be10160e01b8152670c7d713b49da000093810193909352516001600160a01b039091169163556be10191602480830192600092919082900301818387803b158015610b5457600080fd5b505af1158015610b68573d6000803e3d6000fd5b50506005805460ff60a01b1916600160a01b1790555050565b600a5460ff1681565b6103e88111610bca5760405162461bcd60e51b8152600401808060200182810382526025815260200180611c1f6025913960400191505060405180910390fd5b336000908152601060205260409020610be1610e98565b610be9610979565b600354604080516370a0823160e01b815233600482015290516000926001600160a01b0316916370a08231916024808301926020929190829003018186803b158015610c3457600080fd5b505afa158015610c48573d6000803e3d6000fd5b505050506040513d6020811015610c5e57600080fd5b5051825490915015610c9b576000610c758361116b565b90506000610c828461121e565b9050610c8e3383611304565b610c9833826114b0565b50505b600b54610cb9906001600160a01b031633308663ffffffff6116b316565b6000610ccd846103e863ffffffff61169c16565b90506000610ce1858363ffffffff61164116565b8454909150610cf6908263ffffffff61116716565b8455600c54610d0b908263ffffffff61116716565b600c55600e548454610d2d9164e8d4a51000916106e59163ffffffff61169816565b6001850155600f548454610d519164e8d4a51000916106e59163ffffffff61169816565b6002850155610d5f8261170d565b600354604080516308934a5f60e31b81523360048201526024810184905290516001600160a01b039092169163449a52f89160448082019260009290919082900301818387803b158015610db257600080fd5b505af1158015610dc6573d6000803e3d6000fd5b50506040805188815290513393507fe1fffcc4923d04b559f4d29a8bfc6cda04eb5b0d3c460751c2402c5c5cc9109c92509081900360200190a25050505050565b6005546001600160a01b031681565b3360008181526010602052604090208054600b549192610e45926001600160a01b03169163ffffffff61164616565b8054604080519182525133917f5fafa99d0643513820be26656b45130b01e1c03062e1266bf36f88cbd3bd9695919081900360200190a26000808255600190910155565b6001546001600160a01b031681565b600d544311610ea657610a4a565b600c5480610eb8575043600d55610a4a565b610edd604051806060016040528060278152602001611bce60279139600d5443611733565b6000610eee600b600201544361092d565b90506000610f076008548361169890919063ffffffff16565b9050600954431015610f9a576000610f2682600563ffffffff61169816565b600154604080516308934a5f60e31b81523060048201526024810184905290519293506001600160a01b039091169163449a52f89160448082019260009290919082900301818387803b158015610f7c57600080fd5b505af1158015610f90573d6000803e3d6000fd5b505050505061101c565b600a5460ff1615610fb057600a805460ff191690555b600154604080516308934a5f60e31b81523060048201526024810184905290516001600160a01b039092169163449a52f89160448082019260009290919082900301818387803b15801561100357600080fd5b505af1158015611017573d6000803e3d6000fd5b505050505b611047611038846106e58464e8d4a5100063ffffffff61169816565b600e549063ffffffff61116716565b600e55505043600d5550565b61105b6116af565b6001600160a01b031661106c61091e565b6001600160a01b0316146110c7576040805162461bcd60e51b815260206004820181905260248201527f4f776e61626c653a2063616c6c6572206973206e6f7420746865206f776e6572604482015290519081900360640190fd5b6001600160a01b03811661110c5760405162461bcd60e51b8152600401808060200182810382526026815260200180611b826026913960400191505060405180910390fd5b600080546040516001600160a01b03808516939216917f8be0079c531659141344cd1fd0a4f28419497f9722a3daafe3b4186f6b6457e091a3600080546001600160a01b0319166001600160a01b0392909216919091179055565b0190565b6001810154600e54825460009283926111989261081a9164e8d4a51000916106e59163ffffffff61169816565b90506111cf604051806040016040528060138152602001727265776172647320746f2073656e643a20257360681b81525082611252565b600a5460ff1615610973576112056040518060400160405280600a8152602001691a5cc8189bdbdcdd195960b21b8152506117e9565b61121681600563ffffffff61169816565b91505061085b565b6002810154600f548254600092839261124b9261081a9164e8d4a51000916106e59163ffffffff61169816565b9392505050565b61130082826040516024018080602001838152602001828103825284818151815260200191508051906020019080838360005b8381101561129d578181015183820152602001611285565b50505050905090810190601f1680156112ca5780820380516001836020036101000a031916815260200191505b5060408051601f198184030181529190526020810180516001600160e01b03166309710a9d60e41b179052935061189292505050565b5050565b600154604080516370a0823160e01b815230600482015290516000926001600160a01b0316916370a08231916024808301926020929190829003018186803b15801561134f57600080fd5b505afa158015611363573d6000803e3d6000fd5b505050506040513d602081101561137957600080fd5b5051600c5490915060009061139590839063ffffffff61164116565b905080831115611427576001546040805163a9059cbb60e01b81526001600160a01b038781166004830152602482018590529151919092169163a9059cbb9160448083019260209291908290030181600087803b1580156113f557600080fd5b505af1158015611409573d6000803e3d6000fd5b505050506040513d602081101561141f57600080fd5b506114aa9050565b6001546040805163a9059cbb60e01b81526001600160a01b038781166004830152602482018790529151919092169163a9059cbb9160448083019260209291908290030181600087803b15801561147d57600080fd5b505af1158015611491573d6000803e3d6000fd5b505050506040513d60208110156114a757600080fd5b50505b50505050565b600254604080516370a0823160e01b815230600482015290516000926001600160a01b0316916370a08231916024808301926020929190829003018186803b1580156114fb57600080fd5b505afa15801561150f573d6000803e3d6000fd5b505050506040513d602081101561152557600080fd5b50519050808211156115b9576002546040805163a9059cbb60e01b81526001600160a01b038681166004830152602482018590529151919092169163a9059cbb9160448083019260209291908290030181600087803b15801561158757600080fd5b505af115801561159b573d6000803e3d6000fd5b505050506040513d60208110156115b157600080fd5b5061163c9050565b6002546040805163a9059cbb60e01b81526001600160a01b038681166004830152602482018690529151919092169163a9059cbb9160448083019260209291908290030181600087803b15801561160f57600080fd5b505af1158015611623573d6000803e3d6000fd5b505050506040513d602081101561163957600080fd5b50505b505050565b900390565b604080516001600160a01b038416602482015260448082018490528251808303909101815260649091019091526020810180516001600160e01b031663a9059cbb60e01b17905261163c9084906118b3565b0290565b60008183816116a757fe5b049392505050565b3390565b604080516001600160a01b0380861660248301528416604482015260648082018490528251808303909101815260849091019091526020810180516001600160e01b03166323b872dd60e01b1790526114aa9085906118b3565b600c5461172c611038826106e58564e8d4a5100063ffffffff61169816565b600e555050565b61163c8383836040516024018080602001848152602001838152602001828103825285818151815260200191508051906020019080838360005b8381101561178557818101518382015260200161176d565b50505050905090810190601f1680156117b25780820380516001836020036101000a031916815260200191505b5060408051601f198184030181529190526020810180516001600160e01b031663969cdd0360e01b17905294506118929350505050565b61188f816040516024018080602001828103825283818151815260200191508051906020019080838360005b8381101561182d578181015183820152602001611815565b50505050905090810190601f16801561185a5780820380516001836020036101000a031916815260200191505b5060408051601f198184030181529190526020810180516001600160e01b031663104c13eb60e21b1790529250611892915050565b50565b80516a636f6e736f6c652e6c6f67602083016000808483855afa5050505050565b6060611908826040518060400160405280602081526020017f5361666545524332303a206c6f772d6c6576656c2063616c6c206661696c6564815250856001600160a01b03166119649092919063ffffffff16565b80519091501561163c5780806020019051602081101561192757600080fd5b505161163c5760405162461bcd60e51b815260040180806020018281038252602a815260200180611bf5602a913960400191505060405180910390fd5b6060611973848460008561197b565b949350505050565b6060824710156119bc5760405162461bcd60e51b8152600401808060200182810382526026815260200180611ba86026913960400191505060405180910390fd5b6119c585611ad7565b611a16576040805162461bcd60e51b815260206004820152601d60248201527f416464726573733a2063616c6c20746f206e6f6e2d636f6e7472616374000000604482015290519081900360640190fd5b60006060866001600160a01b031685876040518082805190602001908083835b60208310611a555780518252601f199092019160209182019101611a36565b6001836020036101000a03801982511681845116808217855250505050505090500191505060006040518083038185875af1925050503d8060008114611ab7576040519150601f19603f3d011682016040523d82523d6000602084013e611abc565b606091505b5091509150611acc828286611add565b979650505050505050565b3b151590565b60608315611aec57508161124b565b825115611afc5782518084602001fd5b8160405162461bcd60e51b81526004018080602001828103825283818151815260200191508051906020019080838360005b83811015611b46578181015183820152602001611b2e565b50505050905090810190601f168015611b735780820380516001836020036101000a031916815260200191505b509250505060405180910390fdfe4f776e61626c653a206e6577206f776e657220697320746865207a65726f2061646472657373416464726573733a20696e73756666696369656e742062616c616e636520666f722063616c6c206c6173742072657761726420626c6f636b3a25732c2063757272656e7420626c6f636b3a25735361666545524332303a204552433230206f7065726174696f6e20646964206e6f7420737563636565646465706f736974206d7573742062652067726561746572207468616e203130303020574549a26469706673582212206b22717915e528252c2ec513d02aaa6bb2ed346e52a9d8a2311f638e56905e2364736f6c634300060b0033",
  "linkReferences": {},
  "deployedLinkReferences": {}
}