{
  "_format": "hh-sol-artifact-1",
  "contractName": "StringStaking",
  "sourceName": "contracts/StringStaking.sol",
  "abi": [
    {
      "inputs": [
        {
          "internalType": "contract StringToken",
          "name": "_string",
          "type": "address"
        },
        {
          "internalType": "uint256",
          "name": "_boostedBuffer",
          "type": "uint256"
        },
        {
          "internalType": "contract ILQTYToken",
          "name": "_lqty",
          "type": "address"
        },
        {
          "internalType": "contract gStringToken",
          "name": "_gstringToken",
          "type": "address"
        },
        {
          "internalType": "contract IStabilityPool",
          "name": "_stabilityPool",
          "type": "address"
        }
      ],
      "stateMutability": "nonpayable",
      "type": "constructor"
    },
    {
      "anonymous": false,
      "inputs": [
        {
          "indexed": true,
          "internalType": "address",
          "name": "who",
          "type": "address"
        },
        {
          "indexed": false,
          "internalType": "uint256",
          "name": "amountClaimed",
          "type": "uint256"
        },
        {
          "indexed": false,
          "internalType": "uint256",
          "name": "seconAmountClaimed",
          "type": "uint256"
        }
      ],
      "name": "Claim",
      "type": "event"
    },
    {
      "anonymous": false,
      "inputs": [
        {
          "indexed": true,
          "internalType": "address",
          "name": "user",
          "type": "address"
        },
        {
          "indexed": false,
          "internalType": "uint256",
          "name": "amount",
          "type": "uint256"
        }
      ],
      "name": "Deposit",
      "type": "event"
    },
    {
      "anonymous": false,
      "inputs": [
        {
          "indexed": true,
          "internalType": "address",
          "name": "user",
          "type": "address"
        },
        {
          "indexed": false,
          "internalType": "uint256",
          "name": "amount",
          "type": "uint256"
        }
      ],
      "name": "EmergencyWithdraw",
      "type": "event"
    },
    {
      "anonymous": false,
      "inputs": [
        {
          "indexed": true,
          "internalType": "address",
          "name": "user",
          "type": "address"
        },
        {
          "indexed": false,
          "internalType": "uint256",
          "name": "amount",
          "type": "uint256"
        }
      ],
      "name": "Withdraw",
      "type": "event"
    },
    {
      "inputs": [],
      "name": "boostedMultiplier",
      "outputs": [
        {
          "internalType": "uint256",
          "name": "",
          "type": "uint256"
        }
      ],
      "stateMutability": "view",
      "type": "function"
    },
    {
      "inputs": [],
      "name": "creator",
      "outputs": [
        {
          "internalType": "address",
          "name": "",
          "type": "address"
        }
      ],
      "stateMutability": "view",
      "type": "function"
    },
    {
      "inputs": [
        {
          "internalType": "uint256",
          "name": "_amount",
          "type": "uint256"
        }
      ],
      "name": "deposit",
      "outputs": [],
      "stateMutability": "nonpayable",
      "type": "function"
    },
    {
      "inputs": [],
      "name": "devaddr",
      "outputs": [
        {
          "internalType": "address",
          "name": "",
          "type": "address"
        }
      ],
      "stateMutability": "view",
      "type": "function"
    },
    {
      "inputs": [],
      "name": "emergencyWithdraw",
      "outputs": [],
      "stateMutability": "nonpayable",
      "type": "function"
    },
    {
      "inputs": [],
      "name": "endBlock",
      "outputs": [
        {
          "internalType": "uint256",
          "name": "",
          "type": "uint256"
        }
      ],
      "stateMutability": "view",
      "type": "function"
    },
    {
      "inputs": [
        {
          "internalType": "uint256",
          "name": "_from",
          "type": "uint256"
        },
        {
          "internalType": "uint256",
          "name": "_to",
          "type": "uint256"
        }
      ],
      "name": "getMultiplier",
      "outputs": [
        {
          "internalType": "uint256",
          "name": "",
          "type": "uint256"
        }
      ],
      "stateMutability": "view",
      "type": "function"
    },
    {
      "inputs": [],
      "name": "gstringToken",
      "outputs": [
        {
          "internalType": "contract gStringToken",
          "name": "",
          "type": "address"
        }
      ],
      "stateMutability": "view",
      "type": "function"
    },
    {
      "inputs": [],
      "name": "isBoosted",
      "outputs": [
        {
          "internalType": "bool",
          "name": "",
          "type": "bool"
        }
      ],
      "stateMutability": "view",
      "type": "function"
    },
    {
      "inputs": [],
      "name": "lastLQTYRewards",
      "outputs": [
        {
          "internalType": "uint256",
          "name": "",
          "type": "uint256"
        }
      ],
      "stateMutability": "view",
      "type": "function"
    },
    {
      "inputs": [],
      "name": "lqtyToken",
      "outputs": [
        {
          "internalType": "contract ILQTYToken",
          "name": "",
          "type": "address"
        }
      ],
      "stateMutability": "view",
      "type": "function"
    },
    {
      "inputs": [
        {
          "internalType": "address",
          "name": "_user",
          "type": "address"
        }
      ],
      "name": "pendingLQTY",
      "outputs": [
        {
          "internalType": "uint256",
          "name": "",
          "type": "uint256"
        }
      ],
      "stateMutability": "view",
      "type": "function"
    },
    {
      "inputs": [
        {
          "internalType": "address",
          "name": "_user",
          "type": "address"
        }
      ],
      "name": "pendingString",
      "outputs": [
        {
          "internalType": "uint256",
          "name": "",
          "type": "uint256"
        }
      ],
      "stateMutability": "view",
      "type": "function"
    },
    {
      "inputs": [],
      "name": "pool",
      "outputs": [
        {
          "internalType": "contract IERC20",
          "name": "lpToken",
          "type": "address"
        },
        {
          "internalType": "uint256",
          "name": "lpTokenSupply",
          "type": "uint256"
        },
        {
          "internalType": "uint256",
          "name": "lastRewardBlock",
          "type": "uint256"
        },
        {
          "internalType": "uint256",
          "name": "accStringPerShare",
          "type": "uint256"
        },
        {
          "internalType": "uint256",
          "name": "accLQTYPerShare",
          "type": "uint256"
        }
      ],
      "stateMutability": "view",
      "type": "function"
    },
    {
      "inputs": [],
      "name": "postBoostedBlock",
      "outputs": [
        {
          "internalType": "uint256",
          "name": "",
          "type": "uint256"
        }
      ],
      "stateMutability": "view",
      "type": "function"
    },
    {
      "inputs": [],
      "name": "registerIt",
      "outputs": [],
      "stateMutability": "nonpayable",
      "type": "function"
    },
    {
      "inputs": [],
      "name": "registered",
      "outputs": [
        {
          "internalType": "bool",
          "name": "",
          "type": "bool"
        }
      ],
      "stateMutability": "view",
      "type": "function"
    },
    {
      "inputs": [],
      "name": "stabilityPool",
      "outputs": [
        {
          "internalType": "contract IStabilityPool",
          "name": "",
          "type": "address"
        }
      ],
      "stateMutability": "view",
      "type": "function"
    },
    {
      "inputs": [],
      "name": "startBlock",
      "outputs": [
        {
          "internalType": "uint256",
          "name": "",
          "type": "uint256"
        }
      ],
      "stateMutability": "view",
      "type": "function"
    },
    {
      "inputs": [],
      "name": "stringPerBlock",
      "outputs": [
        {
          "internalType": "uint256",
          "name": "",
          "type": "uint256"
        }
      ],
      "stateMutability": "view",
      "type": "function"
    },
    {
      "inputs": [],
      "name": "stringToken",
      "outputs": [
        {
          "internalType": "contract StringToken",
          "name": "",
          "type": "address"
        }
      ],
      "stateMutability": "view",
      "type": "function"
    },
    {
      "inputs": [],
      "name": "totalAllocPoint",
      "outputs": [
        {
          "internalType": "uint256",
          "name": "",
          "type": "uint256"
        }
      ],
      "stateMutability": "view",
      "type": "function"
    },
    {
      "inputs": [],
      "name": "totalLQTYRewards",
      "outputs": [
        {
          "internalType": "uint256",
          "name": "",
          "type": "uint256"
        }
      ],
      "stateMutability": "view",
      "type": "function"
    },
    {
      "inputs": [],
      "name": "updatePool",
      "outputs": [],
      "stateMutability": "nonpayable",
      "type": "function"
    },
    {
      "inputs": [
        {
          "internalType": "address",
          "name": "",
          "type": "address"
        }
      ],
      "name": "userInfo",
      "outputs": [
        {
          "internalType": "uint256",
          "name": "amount",
          "type": "uint256"
        },
        {
          "internalType": "uint256",
          "name": "rewardDebt",
          "type": "uint256"
        },
        {
          "internalType": "uint256",
          "name": "lqtyRewardDebt",
          "type": "uint256"
        }
      ],
      "stateMutability": "view",
      "type": "function"
    },
    {
      "inputs": [
        {
          "internalType": "uint256",
          "name": "_amount",
          "type": "uint256"
        }
      ],
      "name": "withdraw",
      "outputs": [],
      "stateMutability": "nonpayable",
      "type": "function"
    }
  ],
  "bytecode": "0x60806040526004805460ff60a01b19169055670333db648aec94006007556009805460ff191660011790556000600a819055600b8190556012553480156200004657600080fd5b5060405162001d3638038062001d36833981810160405260a08110156200006c57600080fd5b50805160208083015160408401516060850151608090950151600080546001600160a01b038088166001600160a01b031992831617909255600180548386169083161790556002805492891692909116919091179055939491939092620000e39043906225317c9062000ffb62000187821b17901c565b60065543601381905562000104908562000187602090811b62000ffb17901c565b600855600380546001600160a01b039283166001600160a01b031991821617909155600580548216331790556040805160a081018252600080549094168082526020820185905243928201839052606082018590526080909101849052600c805490931617909155600d829055600e55600f819055601055506200018b92505050565b0190565b611b9b806200019b6000396000f3fe608060405234801561001057600080fd5b506004361061016e5760003560e01c806366bf9ae4116100ce578063b689755911610087578063b68975591461032c578063b6b55f2514610334578063d49e77cd14610351578063db2e21bc14610359578063df5e898714610361578063e3161ddd14610369578063f18e15ba146103715761016e565b806366bf9ae4146102a557806382b8e731146102cb5780638dbb1e3a146102d3578063a4891273146102f6578063a60bdb2f1461031c578063afa2fc5c146103245761016e565b806317caf6f11161012b57806317caf6f1146102065780631959a0021461020e5780631f7af3c3146102525780632de40ce31461025a5780632e1a7d4d14610276578063350bac341461029557806348cd4cb11461029d5761016e565b806302d05d3f14610173578063048c661d14610197578063083c63231461019f5780630b5f91fc146101b95780630d483ae1146101c157806316f0115b146101c9575b600080fd5b61017b610379565b604080516001600160a01b039092168252519081900360200190f35b61017b610388565b6101a7610397565b60408051918252519081900360200190f35b6101a761039d565b6101a76103a3565b6101d16103a8565b604080516001600160a01b03909616865260208601949094528484019290925260608401526080830152519081900360a00190f35b6101a76103c6565b6102346004803603602081101561022457600080fd5b50356001600160a01b03166103cc565b60408051938452602084019290925282820152519081900360600190f35b61017b6103ed565b6102626103fc565b604080519115158252519081900360200190f35b6102936004803603602081101561028c57600080fd5b503561040c565b005b6101a76106dd565b6101a76106e3565b6101a7600480360360208110156102bb57600080fd5b50356001600160a01b03166106e9565b6101a76107e6565b6101a7600480360360408110156102e957600080fd5b50803590602001356107ec565b6101a76004803603602081101561030c57600080fd5b50356001600160a01b0316610838565b61017b6109eb565b6102936109fa565b610262610b18565b6102936004803603602081101561034a57600080fd5b5035610b21565b61017b610d41565b610293610d50565b61017b610dc3565b610293610dd2565b6101a7610ff5565b6005546001600160a01b031681565b6003546001600160a01b031681565b60065481565b60085481565b600581565b600c54600d54600e54600f546010546001600160a01b039094169385565b60125481565b60116020526000908152604090208054600182015460029092015490919083565b6001546001600160a01b031681565b600454600160a01b900460ff1681565b3360009081526011602052604090208054821115610466576040805162461bcd60e51b81526020600482015260126024820152711dda5d1a191c985dce881b9bdd0819dbdbd960721b604482015290519081900360640190fd5b600254604080516370a0823160e01b815233600482015290516000926001600160a01b0316916370a08231916024808301926020929190829003018186803b1580156104b157600080fd5b505afa1580156104c5573d6000803e3d6000fd5b505050506040513d60208110156104db57600080fd5b5051905080831115610529576040805162461bcd60e51b81526020600482015260126024820152716e6f7420656e6f7567682067535452494e4760701b604482015290519081900360640190fd5b610531610dd2565b600061053c83610fff565b90506000610549846110f2565b9050610585604051806040016040528060188152602001774c515459207265776172647320746f2073656e643a20257360401b81525082611126565b61058f33836111d8565b610599338261138b565b83546105ab908663ffffffff61154716565b8455600d546105c0908663ffffffff61154716565b600d556002546040805163079cc67960e41b81523360048201526024810188905290516001600160a01b03909216916379cc67909160448082019260009290919082900301818387803b15801561061657600080fd5b505af115801561062a573d6000803e3d6000fd5b5050600c5461064c92506001600160a01b03169050338763ffffffff61154c16565b600f5484546106779164e8d4a510009161066b9163ffffffff61159e16565b9063ffffffff6115a216565b6001850155601054845461069b9164e8d4a510009161066b9163ffffffff61159e16565b600285015560408051868152905133917f884edad9ce6fa2440d8a54cc123490eb96d2768479d49ff9c7366125a9424364919081900360200190a25050505050565b60075481565b60135481565b6001600160a01b0381166000908152601160205260408120600f54600d54600e544311801561071757508015155b1561077657600061072d600c60020154436107ec565b905060006107466007548361159e90919063ffffffff16565b90506107716107648461066b8464e8d4a5100063ffffffff61159e16565b859063ffffffff610ffb16565b935050505b60006107ac84600101546107a064e8d4a5100061066b87896000015461159e90919063ffffffff16565b9063ffffffff61154716565b60095490915060ff16156107d6576107cb81600563ffffffff61159e16565b9450505050506107e1565b93506107e192505050565b919050565b600a5481565b6000600654821161080e57610807828463ffffffff61154716565b9050610832565b600654831061081f57506000610832565b600654610807908463ffffffff61154716565b92915050565b6001600160a01b038082166000908152601160209081526040808320601054600d5460015484516370a0823160e01b815230600482015294519697939692959194889491909116926370a0823192602480840193919291829003018186803b1580156108a357600080fd5b505afa1580156108b7573d6000803e3d6000fd5b505050506040513d60208110156108cd57600080fd5b5051600a549091506000908211156108f657600a546108f390839063ffffffff61154716565b90505b6109246040518060400160405280600c81526020016b1c195b991a5b99d85d985a5b60a21b81525083611126565b6109536040518060400160405280600b81526020016a1c195b991a5b99db185cdd60aa1b815250600a54611126565b6109816040518060400160405280600c81526020016b0e0cadcc8d2dccecce4cae6d60a31b81525082611126565b80156109b5576109b26109a38461066b8464e8d4a5100063ffffffff61159e16565b6010549063ffffffff610ffb16565b93505b60006109df86600201546107a064e8d4a5100061066b898b6000015461159e90919063ffffffff16565b98975050505050505050565b6002546001600160a01b031681565b6005546001600160a01b03163314610a435760405162461bcd60e51b8152600401808060200182810382526021815260200180611af66021913960400191505060405180910390fd5b600454600160a01b900460ff1615610a97576040805162461bcd60e51b8152602060048201526012602482015271105b1c9958591e481c9959da5cdd195c995960721b604482015290519081900360640190fd5b6003546040805163556be10160e01b8152670c7d713b49da0000600482015290516001600160a01b039092169163556be1019160248082019260009290919082900301818387803b158015610aeb57600080fd5b505af1158015610aff573d6000803e3d6000fd5b50506004805460ff60a01b1916600160a01b1790555050565b60095460ff1681565b6103e88111610b615760405162461bcd60e51b8152600401808060200182810382526025815260200180611b416025913960400191505060405180910390fd5b336000908152601160205260409020610b78610dd2565b805415610bb0576000610b8a82610fff565b90506000610b97836110f2565b9050610ba333836111d8565b610bad338261138b565b50505b600c54610bce906001600160a01b031633308563ffffffff6115b516565b610bfe6040518060400160405280600e81526020016d19195c1bdcda5d08185b5bdd5b9d60921b81525083611126565b8054610c10908363ffffffff610ffb16565b8155600d54610c25908363ffffffff610ffb16565b600d8190556040805180820190915260088152676c70537570706c7960c01b6020820152610c5291611126565b600f548154610c719164e8d4a510009161066b9163ffffffff61159e16565b60018201556010548154610c959164e8d4a510009161066b9163ffffffff61159e16565b60028083019190915554604080516308934a5f60e31b81523360048201526024810185905290516001600160a01b039092169163449a52f89160448082019260009290919082900301818387803b158015610cef57600080fd5b505af1158015610d03573d6000803e3d6000fd5b50506040805185815290513393507fe1fffcc4923d04b559f4d29a8bfc6cda04eb5b0d3c460751c2402c5c5cc9109c92509081900360200190a25050565b6004546001600160a01b031681565b3360008181526011602052604090208054600c549192610d7f926001600160a01b03169163ffffffff61154c16565b8054604080519182525133917f5fafa99d0643513820be26656b45130b01e1c03062e1266bf36f88cbd3bd9695919081900360200190a26000808255600190910155565b6000546001600160a01b031681565b336000908152601160205260409020610de961160f565b610e0e604051806060016040528060278152602001611acf60279139600e5443611776565b600e544311610e1d5750610ff3565b600d546040805180820190915260088152676c70737570706c7960c01b6020820152610e499082611126565b80610e5957505043600e55610ff3565b6000610e6a600c60020154436107ec565b90506000610e836007548361159e90919063ffffffff16565b9050600854431015610f3f576000610ea282600563ffffffff61159e16565b9050610ed36040518060400160405280600d81526020016c189bdbdcdd195914995dd85c99609a1b81525082611126565b60008054604080516308934a5f60e31b81523060048201526024810185905290516001600160a01b039092169263449a52f89260448084019382900301818387803b158015610f2157600080fd5b505af1158015610f35573d6000803e3d6000fd5b5050505050610fbc565b60095460ff1615610f55576009805460ff191690555b60008054604080516308934a5f60e31b81523060048201526024810185905290516001600160a01b039092169263449a52f89260448084019382900301818387803b158015610fa357600080fd5b505af1158015610fb7573d6000803e3d6000fd5b505050505b610fe7610fd88461066b8464e8d4a5100063ffffffff61159e16565b600f549063ffffffff610ffb16565b600f55505043600e5550505b565b600b5481565b0190565b60008054604080516370a0823160e01b8152306004820152905183926001600160a01b0316916370a08231916024808301926020929190829003018186803b15801561104a57600080fd5b505afa15801561105e573d6000803e3d6000fd5b505050506040513d602081101561107457600080fd5b5051600d5490915060009061109090839063ffffffff61154716565b905060006110c185600101546107a064e8d4a5100061066b600c600301548a6000015461159e90919063ffffffff16565b60095490915060ff16156110ea576110e081600563ffffffff61159e16565b93505050506107e1565b949350505050565b60028101546010548254600092839261111f926107a09164e8d4a510009161066b9163ffffffff61159e16565b9392505050565b6111d482826040516024018080602001838152602001828103825284818151815260200191508051906020019080838360005b83811015611171578181015183820152602001611159565b50505050905090810190601f16801561119e5780820380516001836020036101000a031916815260200191505b5060408051601f198184030181529190526020810180516001600160e01b03166309710a9d60e41b179052935061182c92505050565b5050565b60008054604080516370a0823160e01b815230600482015290516001600160a01b03909216916370a0823191602480820192602092909190829003018186803b15801561122457600080fd5b505afa158015611238573d6000803e3d6000fd5b505050506040513d602081101561124e57600080fd5b5051600d5490915060009061126a90839063ffffffff61154716565b9050808311156112ff57600080546040805163a9059cbb60e01b81526001600160a01b038881166004830152602482018690529151919092169263a9059cbb92604480820193602093909283900390910190829087803b1580156112cd57600080fd5b505af11580156112e1573d6000803e3d6000fd5b505050506040513d60208110156112f757600080fd5b506113859050565b600080546040805163a9059cbb60e01b81526001600160a01b038881166004830152602482018890529151919092169263a9059cbb92604480820193602093909283900390910190829087803b15801561135857600080fd5b505af115801561136c573d6000803e3d6000fd5b505050506040513d602081101561138257600080fd5b50505b50505050565b600154604080516370a0823160e01b815230600482015290516000926001600160a01b0316916370a08231916024808301926020929190829003018186803b1580156113d657600080fd5b505afa1580156113ea573d6000803e3d6000fd5b505050506040513d602081101561140057600080fd5b50519050808211156114a9576001546040805163a9059cbb60e01b81526001600160a01b038681166004830152602482018590529151919092169163a9059cbb9160448083019260209291908290030181600087803b15801561146257600080fd5b505af1158015611476573d6000803e3d6000fd5b505050506040513d602081101561148c57600080fd5b5050600a546114a1908263ffffffff61154716565b600a55611542565b6001546040805163a9059cbb60e01b81526001600160a01b038681166004830152602482018690529151919092169163a9059cbb9160448083019260209291908290030181600087803b1580156114ff57600080fd5b505af1158015611513573d6000803e3d6000fd5b505050506040513d602081101561152957600080fd5b5050600a5461153e908363ffffffff61154716565b600a555b505050565b900390565b604080516001600160a01b038416602482015260448082018490528251808303909101815260649091019091526020810180516001600160e01b031663a9059cbb60e01b17905261154290849061184d565b0290565b60008183816115ad57fe5b049392505050565b604080516001600160a01b0380861660248301528416604482015260648082018490528251808303909101815260849091019091526020810180516001600160e01b03166323b872dd60e01b17905261138590859061184d565b600d548061161d5750610ff3565b600154604080516370a0823160e01b815230600482015290516000926001600160a01b0316916370a08231916024808301926020929190829003018186803b15801561166857600080fd5b505afa15801561167c573d6000803e3d6000fd5b505050506040513d602081101561169257600080fd5b5051600a549091506000908211156116bb57600a546116b890839063ffffffff61154716565b90505b6116e96040518060400160405280600c81526020016b66726573685265776172647360a01b81525082611126565b61171a6040518060400160405280600f81526020016e617661696c626c655265776172647360881b81525083611126565b6117496040518060400160405280600b81526020016a6c6173745265776172647360a81b815250600a54611126565b801561176f5761176b6109a38461066b8464e8d4a5100063ffffffff61159e16565b6010555b50600a5550565b6115428383836040516024018080602001848152602001838152602001828103825285818151815260200191508051906020019080838360005b838110156117c85781810151838201526020016117b0565b50505050905090810190601f1680156117f55780820380516001836020036101000a031916815260200191505b5060408051601f198184030181529190526020810180516001600160e01b031663969cdd0360e01b179052945061182c9350505050565b80516a636f6e736f6c652e6c6f67602083016000808483855afa5050505050565b60606118a2826040518060400160405280602081526020017f5361666545524332303a206c6f772d6c6576656c2063616c6c206661696c6564815250856001600160a01b03166118fe9092919063ffffffff16565b805190915015611542578080602001905160208110156118c157600080fd5b50516115425760405162461bcd60e51b815260040180806020018281038252602a815260200180611b17602a913960400191505060405180910390fd5b60606110ea84846000858561191285611a24565b611963576040805162461bcd60e51b815260206004820152601d60248201527f416464726573733a2063616c6c20746f206e6f6e2d636f6e7472616374000000604482015290519081900360640190fd5b60006060866001600160a01b031685876040518082805190602001908083835b602083106119a25780518252601f199092019160209182019101611983565b6001836020036101000a03801982511681845116808217855250505050505090500191505060006040518083038185875af1925050503d8060008114611a04576040519150601f19603f3d011682016040523d82523d6000602084013e611a09565b606091505b5091509150611a19828286611a2a565b979650505050505050565b3b151590565b60608315611a3957508161111f565b825115611a495782518084602001fd5b8160405162461bcd60e51b81526004018080602001828103825283818151815260200191508051906020019080838360005b83811015611a93578181015183820152602001611a7b565b50505050905090810190601f168015611ac05780820380516001836020036101000a031916815260200191505b509250505060405180910390fdfe206c6173742072657761726420626c6f636b3a25732c2063757272656e7420626c6f636b3a25736f6e6c792063726561746f722063616e2063616c6c2074686973206d6574686f645361666545524332303a204552433230206f7065726174696f6e20646964206e6f7420737563636565646465706f736974206d7573742062652067726561746572207468616e203130303020574549a2646970667358221220ac4d481f1e095e08ec86ebaa27b319dc3feae823802d07682721b820a8bdbbc664736f6c634300060b0033",
  "linkReferences": {},
  "deployedLinkReferences": {}
}